{
  "_format": "hh-sol-artifact-1",
  "contractName": "TutellusTreasuryVault",
  "sourceName": "contracts/TutellusTreasuryVault.sol",
  "abi": [
    {
      "inputs": [
        {
          "internalType": "address",
          "name": "rolemanager",
          "type": "address"
        },
        {
          "internalType": "address",
          "name": "treasury_",
          "type": "address"
        },
        {
          "internalType": "address",
          "name": "token_",
          "type": "address"
        },
        {
          "internalType": "uint256",
          "name": "amount",
          "type": "uint256"
        },
        {
          "internalType": "uint256",
          "name": "startBlock_",
          "type": "uint256"
        },
        {
          "internalType": "uint256",
          "name": "endBlock_",
          "type": "uint256"
        }
      ],
      "stateMutability": "nonpayable",
      "type": "constructor"
    },
    {
      "anonymous": false,
      "inputs": [
        {
          "indexed": false,
          "internalType": "address",
          "name": "treasury",
          "type": "address"
        },
        {
          "indexed": false,
          "internalType": "uint256",
          "name": "amount",
          "type": "uint256"
        }
      ],
      "name": "Claim",
      "type": "event"
    },
    {
      "anonymous": false,
      "inputs": [
        {
          "indexed": false,
          "internalType": "uint256",
          "name": "startBlock",
          "type": "uint256"
        },
        {
          "indexed": false,
          "internalType": "uint256",
          "name": "endBlock",
          "type": "uint256"
        },
        {
          "indexed": false,
          "internalType": "uint256",
          "name": "increment",
          "type": "uint256"
        }
      ],
      "name": "Init",
      "type": "event"
    },
    {
      "anonymous": false,
      "inputs": [
        {
          "indexed": false,
          "internalType": "address",
          "name": "account",
          "type": "address"
        }
      ],
      "name": "Paused",
      "type": "event"
    },
    {
      "anonymous": false,
      "inputs": [
        {
          "indexed": false,
          "internalType": "address",
          "name": "account",
          "type": "address"
        }
      ],
      "name": "Unpaused",
      "type": "event"
    },
    {
      "inputs": [],
      "name": "DEFAULT_ADMIN_ROLE",
      "outputs": [
        {
          "internalType": "bytes32",
          "name": "",
          "type": "bytes32"
        }
      ],
      "stateMutability": "view",
      "type": "function"
    },
    {
      "inputs": [],
      "name": "PAUSER_ROLE",
      "outputs": [
        {
          "internalType": "bytes32",
          "name": "",
          "type": "bytes32"
        }
      ],
      "stateMutability": "view",
      "type": "function"
    },
    {
      "inputs": [],
      "name": "claim",
      "outputs": [],
      "stateMutability": "nonpayable",
      "type": "function"
    },
    {
      "inputs": [
        {
          "internalType": "bytes32",
          "name": "role",
          "type": "bytes32"
        },
        {
          "internalType": "address",
          "name": "account",
          "type": "address"
        }
      ],
      "name": "hasRole",
      "outputs": [
        {
          "internalType": "bool",
          "name": "",
          "type": "bool"
        }
      ],
      "stateMutability": "view",
      "type": "function"
    },
    {
      "inputs": [],
      "name": "pause",
      "outputs": [],
      "stateMutability": "nonpayable",
      "type": "function"
    },
    {
      "inputs": [],
      "name": "paused",
      "outputs": [
        {
          "internalType": "bool",
          "name": "",
          "type": "bool"
        }
      ],
      "stateMutability": "view",
      "type": "function"
    },
    {
      "inputs": [],
      "name": "released",
      "outputs": [
        {
          "internalType": "uint256",
          "name": "",
          "type": "uint256"
        }
      ],
      "stateMutability": "view",
      "type": "function"
    },
    {
      "inputs": [
        {
          "internalType": "uint256",
          "name": "from",
          "type": "uint256"
        },
        {
          "internalType": "uint256",
          "name": "to",
          "type": "uint256"
        }
      ],
      "name": "releasedRange",
      "outputs": [
        {
          "internalType": "uint256",
          "name": "",
          "type": "uint256"
        }
      ],
      "stateMutability": "view",
      "type": "function"
    },
    {
      "inputs": [],
      "name": "token",
      "outputs": [
        {
          "internalType": "address",
          "name": "",
          "type": "address"
        }
      ],
      "stateMutability": "view",
      "type": "function"
    },
    {
      "inputs": [],
      "name": "treasury",
      "outputs": [
        {
          "internalType": "address",
          "name": "",
          "type": "address"
        }
      ],
      "stateMutability": "view",
      "type": "function"
    },
    {
      "inputs": [],
      "name": "unpause",
      "outputs": [],
      "stateMutability": "nonpayable",
      "type": "function"
    },
    {
      "inputs": [
        {
          "internalType": "address",
          "name": "manager",
          "type": "address"
        }
      ],
      "name": "updateManager",
      "outputs": [],
      "stateMutability": "nonpayable",
      "type": "function"
    },
    {
      "inputs": [
        {
          "internalType": "address",
          "name": "treasury_",
          "type": "address"
        }
      ],
      "name": "updateTreasury",
      "outputs": [],
      "stateMutability": "nonpayable",
      "type": "function"
    }
  ],
  "bytecode": "0x60806040523480156200001157600080fd5b50604051620026b2380380620026b28339818101604052810190620000379190620008cb565b6200004d8686868686866200005960201b60201c565b50505050505062000e46565b600060019054906101000a900460ff168062000080575060008054906101000a900460ff16155b620000c2576040517f08c379a0000000000000000000000000000000000000000000000000000000008152600401620000b990620009e2565b60405180910390fd5b60008060019054906101000a900460ff16159050801562000113576001600060016101000a81548160ff02191690831515021790555060016000806101000a81548160ff0219169083151502179055505b62000124876200016460201b60201c565b6200013986868686866200026560201b60201c565b80156200015b5760008060016101000a81548160ff0219169083151502179055505b50505050505050565b600060019054906101000a900460ff16806200018b575060008054906101000a900460ff16155b620001cd576040517f08c379a0000000000000000000000000000000000000000000000000000000008152600401620001c490620009e2565b60405180910390fd5b60008060019054906101000a900460ff1615905080156200021e576001600060016101000a81548160ff02191690831515021790555060016000806101000a81548160ff0219169083151502179055505b6200022e620004a460201b60201c565b6200023f82620005a360201b60201c565b8015620002615760008060016101000a81548160ff0219169083151502179055505b5050565b600060019054906101000a900460ff16806200028c575060008054906101000a900460ff16155b620002ce576040517f08c379a0000000000000000000000000000000000000000000000000000000008152600401620002c590620009e2565b60405180910390fd5b60008060019054906101000a900460ff1615905080156200031f576001600060016101000a81548160ff02191690831515021790555060016000806101000a81548160ff0219169083151502179055505b82821162000364576040517f08c379a00000000000000000000000000000000000000000000000000000000081526004016200035b90620009c0565b60405180910390fd5b84606660006101000a81548173ffffffffffffffffffffffffffffffffffffffff021916908373ffffffffffffffffffffffffffffffffffffffff16021790555085606760006101000a81548173ffffffffffffffffffffffffffffffffffffffff021916908373ffffffffffffffffffffffffffffffffffffffff1602179055508260698190555081606a819055506000838362000404919062000c83565b905060028162000415919062000ae5565b85600262000424919062000c22565b62000430919062000a52565b606b819055507ff1bd4f3fcb4e0b193abc7e4002c0284e25086269a02de2e4c52045a91f647037606954606a54606b54604051620004719392919062000a04565b60405180910390a15080156200049c5760008060016101000a81548160ff0219169083151502179055505b505050505050565b600060019054906101000a900460ff1680620004cb575060008054906101000a900460ff16155b6200050d576040517f08c379a00000000000000000000000000000000000000000000000000000000081526004016200050490620009e2565b60405180910390fd5b60008060019054906101000a900460ff1615905080156200055e576001600060016101000a81548160ff02191690831515021790555060016000806101000a81548160ff0219169083151502179055505b6200056e620006c460201b60201c565b6200057e620007a360201b60201c565b8015620005a05760008060016101000a81548160ff0219169083151502179055505b50565b600060019054906101000a900460ff1680620005ca575060008054906101000a900460ff16155b6200060c576040517f08c379a00000000000000000000000000000000000000000000000000000000081526004016200060390620009e2565b60405180910390fd5b60008060019054906101000a900460ff1615905080156200065d576001600060016101000a81548160ff02191690831515021790555060016000806101000a81548160ff0219169083151502179055505b81606560006101000a81548173ffffffffffffffffffffffffffffffffffffffff021916908373ffffffffffffffffffffffffffffffffffffffff1602179055508015620006c05760008060016101000a81548160ff0219169083151502179055505b5050565b600060019054906101000a900460ff1680620006eb575060008054906101000a900460ff16155b6200072d576040517f08c379a00000000000000000000000000000000000000000000000000000000081526004016200072490620009e2565b60405180910390fd5b60008060019054906101000a900460ff1615905080156200077e576001600060016101000a81548160ff02191690831515021790555060016000806101000a81548160ff0219169083151502179055505b8015620007a05760008060016101000a81548160ff0219169083151502179055505b50565b600060019054906101000a900460ff1680620007ca575060008054906101000a900460ff16155b6200080c576040517f08c379a00000000000000000000000000000000000000000000000000000000081526004016200080390620009e2565b60405180910390fd5b60008060019054906101000a900460ff1615905080156200085d576001600060016101000a81548160ff02191690831515021790555060016000806101000a81548160ff0219169083151502179055505b6000603360006101000a81548160ff02191690831515021790555080156200089a5760008060016101000a81548160ff0219169083151502179055505b50565b600081519050620008ae8162000e12565b92915050565b600081519050620008c58162000e2c565b92915050565b60008060008060008060c08789031215620008e557600080fd5b6000620008f589828a016200089d565b96505060206200090889828a016200089d565b95505060406200091b89828a016200089d565b94505060606200092e89828a01620008b4565b93505060806200094189828a01620008b4565b92505060a06200095489828a01620008b4565b9150509295509295509295565b60006200097060348362000a41565b91506200097d8262000d74565b604082019050919050565b600062000997602e8362000a41565b9150620009a48262000dc3565b604082019050919050565b620009ba8162000cf2565b82525050565b60006020820190508181036000830152620009db8162000961565b9050919050565b60006020820190508181036000830152620009fd8162000988565b9050919050565b600060608201905062000a1b6000830186620009af565b62000a2a6020830185620009af565b62000a396040830184620009af565b949350505050565b600082825260208201905092915050565b600062000a5f8262000cf2565b915062000a6c8362000cf2565b92508262000a7f5762000a7e62000d38565b5b828204905092915050565b6000808291508390505b600185111562000adc5780860481111562000ab45762000ab362000d09565b5b600185161562000ac45780820291505b808102905062000ad48562000d67565b945062000a94565b94509492505050565b600062000af28262000cf2565b915062000aff8362000cfc565b925062000b2e7fffffffffffffffffffffffffffffffffffffffffffffffffffffffffffffffff848462000b36565b905092915050565b60008262000b48576001905062000c1b565b8162000b58576000905062000c1b565b816001811462000b71576002811462000b7c5762000bb2565b600191505062000c1b565b60ff84111562000b915762000b9062000d09565b5b8360020a91508482111562000bab5762000baa62000d09565b5b5062000c1b565b5060208310610133831016604e8410600b841016171562000bec5782820a90508381111562000be65762000be562000d09565b5b62000c1b565b62000bfb848484600162000a8a565b9250905081840481111562000c155762000c1462000d09565b5b81810290505b9392505050565b600062000c2f8262000cf2565b915062000c3c8362000cf2565b9250817fffffffffffffffffffffffffffffffffffffffffffffffffffffffffffffffff048311821515161562000c785762000c7762000d09565b5b828202905092915050565b600062000c908262000cf2565b915062000c9d8362000cf2565b92508282101562000cb35762000cb262000d09565b5b828203905092915050565b600062000ccb8262000cd2565b9050919050565b600073ffffffffffffffffffffffffffffffffffffffff82169050919050565b6000819050919050565b600060ff82169050919050565b7f4e487b7100000000000000000000000000000000000000000000000000000000600052601160045260246000fd5b7f4e487b7100000000000000000000000000000000000000000000000000000000600052601260045260246000fd5b60008160011c9050919050565b7f547574656c6c757354726561737572795661756c743a20737461727420626c6f60008201527f636b206578636565647320656e6420626c6f636b000000000000000000000000602082015250565b7f496e697469616c697a61626c653a20636f6e747261637420697320616c72656160008201527f647920696e697469616c697a6564000000000000000000000000000000000000602082015250565b62000e1d8162000cbe565b811462000e2957600080fd5b50565b62000e378162000cf2565b811462000e4357600080fd5b50565b61185c8062000e566000396000f3fe608060405234801561001057600080fd5b50600436106100cf5760003560e01c80637f51bb1f1161008c578063961325211161006657806396132521146101c6578063a217fddf146101e4578063e63ab1e914610202578063fc0c546a14610220576100cf565b80637f51bb1f146101705780638456cb591461018c57806391d1485414610196576100cf565b80633f4ba83a146100d45780634e71d92d146100de57806358aba00f146100e85780635c975abb1461010457806361d027b3146101225780636867aac514610140575b600080fd5b6100dc61023e565b005b6100e661030b565b005b61010260048036038101906100fd9190610e35565b6104b6565b005b61010c6105a0565b6040516101199190611118565b60405180910390f35b61012a6105b7565b60405161013791906110d4565b60405180910390f35b61015a60048036038101906101559190610ec3565b6105dd565b6040516101679190611239565b60405180910390f35b61018a60048036038101906101859190610e35565b6106c3565b005b6101946107ad565b005b6101b060048036038101906101ab9190610e87565b61087a565b6040516101bd9190611118565b60405180910390f35b6101ce610936565b6040516101db9190611239565b60405180910390f35b6101ec610949565b6040516101f99190611133565b60405180910390f35b61020a610950565b6040516102179190611133565b60405180910390f35b610228610974565b60405161023591906110d4565b60405180910390f35b7f65d7a28e3265b37a6474929f336521b332c1681b933f6cb9f3376673440d862a600033905061026e828261087a565b61028f8273ffffffffffffffffffffffffffffffffffffffff16601461099a565b61029d8460001c602061099a565b6040516020016102ae92919061109a565b604051602081830303815290604052906102fe576040517f08c379a00000000000000000000000000000000000000000000000000000000081526004016102f59190611177565b60405180910390fd5b50610307610c94565b5050565b6000606854610318610936565b61032291906114cd565b90508060686000828254610336919061127b565b9250508190555060008111610380576040517f08c379a000000000000000000000000000000000000000000000000000000000815260040161037790611219565b60405180910390fd5b6000606660009054906101000a900473ffffffffffffffffffffffffffffffffffffffff1690508073ffffffffffffffffffffffffffffffffffffffff1663a9059cbb606760009054906101000a900473ffffffffffffffffffffffffffffffffffffffff16846040518363ffffffff1660e01b81526004016104049291906110ef565b602060405180830381600087803b15801561041e57600080fd5b505af1158015610432573d6000803e3d6000fd5b505050506040513d601f19601f820116820180604052508101906104569190610e5e565b507f47cee97cb7acd717b3c0aa1435d004cd5b3c8c57d70dbceb4e4458bbd60e39d4606760009054906101000a900473ffffffffffffffffffffffffffffffffffffffff16836040516104aa9291906110ef565b60405180910390a15050565b6000801b60003390506104c9828261087a565b6104ea8273ffffffffffffffffffffffffffffffffffffffff16601461099a565b6104f88460001c602061099a565b60405160200161050992919061109a565b60405160208183030381529060405290610559576040517f08c379a00000000000000000000000000000000000000000000000000000000081526004016105509190611177565b60405180910390fd5b5082606560006101000a81548173ffffffffffffffffffffffffffffffffffffffff021916908373ffffffffffffffffffffffffffffffffffffffff160217905550505050565b6000603360009054906101000a900460ff16905090565b606760009054906101000a900473ffffffffffffffffffffffffffffffffffffffff1681565b6000818310610621576040517f08c379a0000000000000000000000000000000000000000000000000000000008152600401610618906111f9565b60405180910390fd5b606a5482111561063157606a5491505b6069548310156106415760695492505b60006002806069548561065491906114cd565b61065e9190611355565b606b5461066b9190611473565b61067591906112d1565b905060006002806069548761068a91906114cd565b6106949190611355565b606b546106a19190611473565b6106ab91906112d1565b905080826106b991906114cd565b9250505092915050565b6000801b60003390506106d6828261087a565b6106f78273ffffffffffffffffffffffffffffffffffffffff16601461099a565b6107058460001c602061099a565b60405160200161071692919061109a565b60405160208183030381529060405290610766576040517f08c379a000000000000000000000000000000000000000000000000000000000815260040161075d9190611177565b60405180910390fd5b5082606760006101000a81548173ffffffffffffffffffffffffffffffffffffffff021916908373ffffffffffffffffffffffffffffffffffffffff160217905550505050565b7f65d7a28e3265b37a6474929f336521b332c1681b933f6cb9f3376673440d862a60003390506107dd828261087a565b6107fe8273ffffffffffffffffffffffffffffffffffffffff16601461099a565b61080c8460001c602061099a565b60405160200161081d92919061109a565b6040516020818303038152906040529061086d576040517f08c379a00000000000000000000000000000000000000000000000000000000081526004016108649190611177565b60405180910390fd5b50610876610d36565b5050565b600080606560009054906101000a900473ffffffffffffffffffffffffffffffffffffffff1690508073ffffffffffffffffffffffffffffffffffffffff166391d1485485856040518363ffffffff1660e01b81526004016108dd92919061114e565b60206040518083038186803b1580156108f557600080fd5b505afa158015610909573d6000803e3d6000fd5b505050506040513d601f19601f8201168201806040525081019061092d9190610e5e565b91505092915050565b6000610944606954436105dd565b905090565b6000801b81565b7f65d7a28e3265b37a6474929f336521b332c1681b933f6cb9f3376673440d862a81565b606660009054906101000a900473ffffffffffffffffffffffffffffffffffffffff1681565b6060600060028360026109ad9190611473565b6109b7919061127b565b67ffffffffffffffff8111156109f6577f4e487b7100000000000000000000000000000000000000000000000000000000600052604160045260246000fd5b6040519080825280601f01601f191660200182016040528015610a285781602001600182028036833780820191505090505b5090507f300000000000000000000000000000000000000000000000000000000000000081600081518110610a86577f4e487b7100000000000000000000000000000000000000000000000000000000600052603260045260246000fd5b60200101907effffffffffffffffffffffffffffffffffffffffffffffffffffffffffffff1916908160001a9053507f780000000000000000000000000000000000000000000000000000000000000081600181518110610b10577f4e487b7100000000000000000000000000000000000000000000000000000000600052603260045260246000fd5b60200101907effffffffffffffffffffffffffffffffffffffffffffffffffffffffffffff1916908160001a90535060006001846002610b509190611473565b610b5a919061127b565b90505b6001811115610c46577f3031323334353637383961626364656600000000000000000000000000000000600f861660108110610bc2577f4e487b7100000000000000000000000000000000000000000000000000000000600052603260045260246000fd5b1a60f81b828281518110610bff577f4e487b7100000000000000000000000000000000000000000000000000000000600052603260045260246000fd5b60200101907effffffffffffffffffffffffffffffffffffffffffffffffffffffffffffff1916908160001a905350600485901c945080610c3f90611593565b9050610b5d565b5060008414610c8a576040517f08c379a0000000000000000000000000000000000000000000000000000000008152600401610c8190611199565b60405180910390fd5b8091505092915050565b610c9c6105a0565b610cdb576040517f08c379a0000000000000000000000000000000000000000000000000000000008152600401610cd2906111b9565b60405180910390fd5b6000603360006101000a81548160ff0219169083151502179055507f5db9ee0a495bf2e6ff9c91a7834c1ba4fdd244a5e8aa4e537bd38aeae4b073aa610d1f610dd9565b604051610d2c91906110d4565b60405180910390a1565b610d3e6105a0565b15610d7e576040517f08c379a0000000000000000000000000000000000000000000000000000000008152600401610d75906111d9565b60405180910390fd5b6001603360006101000a81548160ff0219169083151502179055507f62e78cea01bee320cd4e420270b5ea74000d11b0c9f74754ebdbfc544b05a258610dc2610dd9565b604051610dcf91906110d4565b60405180910390a1565b600033905090565b600081359050610df0816117ca565b92915050565b600081519050610e05816117e1565b92915050565b600081359050610e1a816117f8565b92915050565b600081359050610e2f8161180f565b92915050565b600060208284031215610e4757600080fd5b6000610e5584828501610de1565b91505092915050565b600060208284031215610e7057600080fd5b6000610e7e84828501610df6565b91505092915050565b60008060408385031215610e9a57600080fd5b6000610ea885828601610e0b565b9250506020610eb985828601610de1565b9150509250929050565b60008060408385031215610ed657600080fd5b6000610ee485828601610e20565b9250506020610ef585828601610e20565b9150509250929050565b610f0881611501565b82525050565b610f1781611513565b82525050565b610f268161151f565b82525050565b6000610f3782611254565b610f41818561125f565b9350610f51818560208601611560565b610f5a8161161b565b840191505092915050565b6000610f7082611254565b610f7a8185611270565b9350610f8a818560208601611560565b80840191505092915050565b6000610fa360208361125f565b9150610fae82611639565b602082019050919050565b6000610fc6602483611270565b9150610fd182611662565b602482019050919050565b6000610fe960148361125f565b9150610ff4826116b1565b602082019050919050565b600061100c60108361125f565b9150611017826116da565b602082019050919050565b600061102f602b8361125f565b915061103a82611703565b604082019050919050565b600061105260278361125f565b915061105d82611752565b604082019050919050565b6000611075601183611270565b9150611080826117a1565b601182019050919050565b61109481611549565b82525050565b60006110a582610fb9565b91506110b18285610f65565b91506110bc82611068565b91506110c88284610f65565b91508190509392505050565b60006020820190506110e96000830184610eff565b92915050565b60006040820190506111046000830185610eff565b611111602083018461108b565b9392505050565b600060208201905061112d6000830184610f0e565b92915050565b60006020820190506111486000830184610f1d565b92915050565b60006040820190506111636000830185610f1d565b6111706020830184610eff565b9392505050565b600060208201905081810360008301526111918184610f2c565b905092915050565b600060208201905081810360008301526111b281610f96565b9050919050565b600060208201905081810360008301526111d281610fdc565b9050919050565b600060208201905081810360008301526111f281610fff565b9050919050565b6000602082019050818103600083015261121281611022565b9050919050565b6000602082019050818103600083015261123281611045565b9050919050565b600060208201905061124e600083018461108b565b92915050565b600081519050919050565b600082825260208201905092915050565b600081905092915050565b600061128682611549565b915061129183611549565b9250827fffffffffffffffffffffffffffffffffffffffffffffffffffffffffffffffff038211156112c6576112c56115bd565b5b828201905092915050565b60006112dc82611549565b91506112e783611549565b9250826112f7576112f66115ec565b5b828204905092915050565b6000808291508390505b600185111561134c57808604811115611328576113276115bd565b5b60018516156113375780820291505b80810290506113458561162c565b945061130c565b94509492505050565b600061136082611549565b915061136b83611553565b92506113987fffffffffffffffffffffffffffffffffffffffffffffffffffffffffffffffff84846113a0565b905092915050565b6000826113b0576001905061146c565b816113be576000905061146c565b81600181146113d457600281146113de5761140d565b600191505061146c565b60ff8411156113f0576113ef6115bd565b5b8360020a915084821115611407576114066115bd565b5b5061146c565b5060208310610133831016604e8410600b84101617156114425782820a90508381111561143d5761143c6115bd565b5b61146c565b61144f8484846001611302565b92509050818404811115611466576114656115bd565b5b81810290505b9392505050565b600061147e82611549565b915061148983611549565b9250817fffffffffffffffffffffffffffffffffffffffffffffffffffffffffffffffff04831182151516156114c2576114c16115bd565b5b828202905092915050565b60006114d882611549565b91506114e383611549565b9250828210156114f6576114f56115bd565b5b828203905092915050565b600061150c82611529565b9050919050565b60008115159050919050565b6000819050919050565b600073ffffffffffffffffffffffffffffffffffffffff82169050919050565b6000819050919050565b600060ff82169050919050565b60005b8381101561157e578082015181840152602081019050611563565b8381111561158d576000848401525b50505050565b600061159e82611549565b915060008214156115b2576115b16115bd565b5b600182039050919050565b7f4e487b7100000000000000000000000000000000000000000000000000000000600052601160045260246000fd5b7f4e487b7100000000000000000000000000000000000000000000000000000000600052601260045260246000fd5b6000601f19601f8301169050919050565b60008160011c9050919050565b7f537472696e67733a20686578206c656e67746820696e73756666696369656e74600082015250565b7f416363657373436f6e74726f6c50726f78795061757361626c653a206163636f60008201527f756e742000000000000000000000000000000000000000000000000000000000602082015250565b7f5061757361626c653a206e6f7420706175736564000000000000000000000000600082015250565b7f5061757361626c653a2070617573656400000000000000000000000000000000600082015250565b7f547574656c6c757354726561737572795661756c743a207b66726f6d7d20697360008201527f206166746572207b746f7d000000000000000000000000000000000000000000602082015250565b7f547574656c6c757354726561737572795661756c743a206e6f7468696e67207460008201527f6f20636c61696d00000000000000000000000000000000000000000000000000602082015250565b7f206973206d697373696e6720726f6c6520000000000000000000000000000000600082015250565b6117d381611501565b81146117de57600080fd5b50565b6117ea81611513565b81146117f557600080fd5b50565b6118018161151f565b811461180c57600080fd5b50565b61181881611549565b811461182357600080fd5b5056fea2646970667358221220fa50f5567d95097caaee6122b84ac777df76728a8c59e5a53505f39dd59cd9b264736f6c63430008020033",
  "linkReferences": {},
  "deployedLinkReferences": {}
}