{
  "_format": "hh-sol-artifact-1",
  "contractName": "TutellusTreasuryVault",
  "sourceName": "contracts/TutellusTreasuryVault.sol",
  "abi": [
    {
      "inputs": [
        {
          "internalType": "address",
          "name": "rolemanager",
          "type": "address"
        },
        {
          "internalType": "address",
          "name": "treasury_",
          "type": "address"
        },
        {
          "internalType": "address",
          "name": "token_",
          "type": "address"
        },
        {
          "internalType": "uint256",
          "name": "amount",
          "type": "uint256"
        },
        {
          "internalType": "uint256",
          "name": "blocks",
          "type": "uint256"
        }
      ],
      "stateMutability": "nonpayable",
      "type": "constructor"
    },
    {
      "anonymous": false,
      "inputs": [
        {
          "indexed": false,
          "internalType": "address",
          "name": "treasury",
          "type": "address"
        },
        {
          "indexed": false,
          "internalType": "uint256",
          "name": "amount",
          "type": "uint256"
        }
      ],
      "name": "Claim",
      "type": "event"
    },
    {
      "anonymous": false,
      "inputs": [
        {
          "indexed": false,
          "internalType": "address",
          "name": "account",
          "type": "address"
        }
      ],
      "name": "Paused",
      "type": "event"
    },
    {
      "anonymous": false,
      "inputs": [
        {
          "indexed": false,
          "internalType": "address",
          "name": "account",
          "type": "address"
        }
      ],
      "name": "Unpaused",
      "type": "event"
    },
    {
      "inputs": [],
      "name": "DEFAULT_ADMIN_ROLE",
      "outputs": [
        {
          "internalType": "bytes32",
          "name": "",
          "type": "bytes32"
        }
      ],
      "stateMutability": "view",
      "type": "function"
    },
    {
      "inputs": [],
      "name": "PAUSER_ROLE",
      "outputs": [
        {
          "internalType": "bytes32",
          "name": "",
          "type": "bytes32"
        }
      ],
      "stateMutability": "view",
      "type": "function"
    },
    {
      "inputs": [],
      "name": "claim",
      "outputs": [],
      "stateMutability": "nonpayable",
      "type": "function"
    },
    {
      "inputs": [
        {
          "internalType": "bytes32",
          "name": "role",
          "type": "bytes32"
        },
        {
          "internalType": "address",
          "name": "account",
          "type": "address"
        }
      ],
      "name": "hasRole",
      "outputs": [
        {
          "internalType": "bool",
          "name": "",
          "type": "bool"
        }
      ],
      "stateMutability": "view",
      "type": "function"
    },
    {
      "inputs": [],
      "name": "pause",
      "outputs": [],
      "stateMutability": "nonpayable",
      "type": "function"
    },
    {
      "inputs": [],
      "name": "paused",
      "outputs": [
        {
          "internalType": "bool",
          "name": "",
          "type": "bool"
        }
      ],
      "stateMutability": "view",
      "type": "function"
    },
    {
      "inputs": [],
      "name": "released",
      "outputs": [
        {
          "internalType": "uint256",
          "name": "",
          "type": "uint256"
        }
      ],
      "stateMutability": "view",
      "type": "function"
    },
    {
      "inputs": [
        {
          "internalType": "uint256",
          "name": "from",
          "type": "uint256"
        },
        {
          "internalType": "uint256",
          "name": "to",
          "type": "uint256"
        }
      ],
      "name": "releasedRange",
      "outputs": [
        {
          "internalType": "uint256",
          "name": "",
          "type": "uint256"
        }
      ],
      "stateMutability": "view",
      "type": "function"
    },
    {
      "inputs": [],
      "name": "token",
      "outputs": [
        {
          "internalType": "address",
          "name": "",
          "type": "address"
        }
      ],
      "stateMutability": "view",
      "type": "function"
    },
    {
      "inputs": [],
      "name": "treasury",
      "outputs": [
        {
          "internalType": "address",
          "name": "",
          "type": "address"
        }
      ],
      "stateMutability": "view",
      "type": "function"
    },
    {
      "inputs": [],
      "name": "unpause",
      "outputs": [],
      "stateMutability": "nonpayable",
      "type": "function"
    },
    {
      "inputs": [
        {
          "internalType": "address",
          "name": "manager",
          "type": "address"
        }
      ],
      "name": "updateManager",
      "outputs": [],
      "stateMutability": "nonpayable",
      "type": "function"
    },
    {
      "inputs": [
        {
          "internalType": "address",
          "name": "treasury_",
          "type": "address"
        }
      ],
      "name": "updateTreasury",
      "outputs": [],
      "stateMutability": "nonpayable",
      "type": "function"
    }
  ],
  "bytecode": "0x60806040523480156200001157600080fd5b506040516200254738038062002547833981810160405281019062000037919062000838565b6200004c85858585856200005760201b60201c565b505050505062000cdb565b600060019054906101000a900460ff16806200007e575060008054906101000a900460ff16155b620000c0576040517f08c379a0000000000000000000000000000000000000000000000000000000008152600401620000b790620008e1565b60405180910390fd5b60008060019054906101000a900460ff16159050801562000111576001600060016101000a81548160ff02191690831515021790555060016000806101000a81548160ff0219169083151502179055505b62000122866200016060201b60201c565b62000136858585856200026160201b60201c565b8015620001585760008060016101000a81548160ff0219169083151502179055505b505050505050565b600060019054906101000a900460ff168062000187575060008054906101000a900460ff16155b620001c9576040517f08c379a0000000000000000000000000000000000000000000000000000000008152600401620001c090620008e1565b60405180910390fd5b60008060019054906101000a900460ff1615905080156200021a576001600060016101000a81548160ff02191690831515021790555060016000806101000a81548160ff0219169083151502179055505b6200022a6200041160201b60201c565b6200023b826200051060201b60201c565b80156200025d5760008060016101000a81548160ff0219169083151502179055505b5050565b600060019054906101000a900460ff168062000288575060008054906101000a900460ff16155b620002ca576040517f08c379a0000000000000000000000000000000000000000000000000000000008152600401620002c190620008e1565b60405180910390fd5b60008060019054906101000a900460ff1615905080156200031b576001600060016101000a81548160ff02191690831515021790555060016000806101000a81548160ff0219169083151502179055505b83606660006101000a81548173ffffffffffffffffffffffffffffffffffffffff021916908373ffffffffffffffffffffffffffffffffffffffff16021790555084606760006101000a81548173ffffffffffffffffffffffffffffffffffffffff021916908373ffffffffffffffffffffffffffffffffffffffff160217905550436069819055508143620003b2919062000914565b606a81905550600282620003c7919062000a04565b836002620003d6919062000b41565b620003e2919062000971565b606b8190555080156200040a5760008060016101000a81548160ff0219169083151502179055505b5050505050565b600060019054906101000a900460ff168062000438575060008054906101000a900460ff16155b6200047a576040517f08c379a00000000000000000000000000000000000000000000000000000000081526004016200047190620008e1565b60405180910390fd5b60008060019054906101000a900460ff161590508015620004cb576001600060016101000a81548160ff02191690831515021790555060016000806101000a81548160ff0219169083151502179055505b620004db6200063160201b60201c565b620004eb6200071060201b60201c565b80156200050d5760008060016101000a81548160ff0219169083151502179055505b50565b600060019054906101000a900460ff168062000537575060008054906101000a900460ff16155b62000579576040517f08c379a00000000000000000000000000000000000000000000000000000000081526004016200057090620008e1565b60405180910390fd5b60008060019054906101000a900460ff161590508015620005ca576001600060016101000a81548160ff02191690831515021790555060016000806101000a81548160ff0219169083151502179055505b81606560006101000a81548173ffffffffffffffffffffffffffffffffffffffff021916908373ffffffffffffffffffffffffffffffffffffffff16021790555080156200062d5760008060016101000a81548160ff0219169083151502179055505b5050565b600060019054906101000a900460ff168062000658575060008054906101000a900460ff16155b6200069a576040517f08c379a00000000000000000000000000000000000000000000000000000000081526004016200069190620008e1565b60405180910390fd5b60008060019054906101000a900460ff161590508015620006eb576001600060016101000a81548160ff02191690831515021790555060016000806101000a81548160ff0219169083151502179055505b80156200070d5760008060016101000a81548160ff0219169083151502179055505b50565b600060019054906101000a900460ff168062000737575060008054906101000a900460ff16155b62000779576040517f08c379a00000000000000000000000000000000000000000000000000000000081526004016200077090620008e1565b60405180910390fd5b60008060019054906101000a900460ff161590508015620007ca576001600060016101000a81548160ff02191690831515021790555060016000806101000a81548160ff0219169083151502179055505b6000603360006101000a81548160ff0219169083151502179055508015620008075760008060016101000a81548160ff0219169083151502179055505b50565b6000815190506200081b8162000ca7565b92915050565b600081519050620008328162000cc1565b92915050565b600080600080600060a086880312156200085157600080fd5b600062000861888289016200080a565b955050602062000874888289016200080a565b945050604062000887888289016200080a565b93505060606200089a8882890162000821565b9250506080620008ad8882890162000821565b9150509295509295909350565b6000620008c9602e8362000903565b9150620008d68262000c58565b604082019050919050565b60006020820190508181036000830152620008fc81620008ba565b9050919050565b600082825260208201905092915050565b6000620009218262000bd6565b91506200092e8362000bd6565b9250827fffffffffffffffffffffffffffffffffffffffffffffffffffffffffffffffff0382111562000966576200096562000bed565b5b828201905092915050565b60006200097e8262000bd6565b91506200098b8362000bd6565b9250826200099e576200099d62000c1c565b5b828204905092915050565b6000808291508390505b6001851115620009fb57808604811115620009d357620009d262000bed565b5b6001851615620009e35780820291505b8081029050620009f38562000c4b565b9450620009b3565b94509492505050565b600062000a118262000bd6565b915062000a1e8362000be0565b925062000a4d7fffffffffffffffffffffffffffffffffffffffffffffffffffffffffffffffff848462000a55565b905092915050565b60008262000a67576001905062000b3a565b8162000a77576000905062000b3a565b816001811462000a90576002811462000a9b5762000ad1565b600191505062000b3a565b60ff84111562000ab05762000aaf62000bed565b5b8360020a91508482111562000aca5762000ac962000bed565b5b5062000b3a565b5060208310610133831016604e8410600b841016171562000b0b5782820a90508381111562000b055762000b0462000bed565b5b62000b3a565b62000b1a8484846001620009a9565b9250905081840481111562000b345762000b3362000bed565b5b81810290505b9392505050565b600062000b4e8262000bd6565b915062000b5b8362000bd6565b9250817fffffffffffffffffffffffffffffffffffffffffffffffffffffffffffffffff048311821515161562000b975762000b9662000bed565b5b828202905092915050565b600062000baf8262000bb6565b9050919050565b600073ffffffffffffffffffffffffffffffffffffffff82169050919050565b6000819050919050565b600060ff82169050919050565b7f4e487b7100000000000000000000000000000000000000000000000000000000600052601160045260246000fd5b7f4e487b7100000000000000000000000000000000000000000000000000000000600052601260045260246000fd5b60008160011c9050919050565b7f496e697469616c697a61626c653a20636f6e747261637420697320616c72656160008201527f647920696e697469616c697a6564000000000000000000000000000000000000602082015250565b62000cb28162000ba2565b811462000cbe57600080fd5b50565b62000ccc8162000bd6565b811462000cd857600080fd5b50565b61185c8062000ceb6000396000f3fe608060405234801561001057600080fd5b50600436106100cf5760003560e01c80637f51bb1f1161008c578063961325211161006657806396132521146101c6578063a217fddf146101e4578063e63ab1e914610202578063fc0c546a14610220576100cf565b80637f51bb1f146101705780638456cb591461018c57806391d1485414610196576100cf565b80633f4ba83a146100d45780634e71d92d146100de57806358aba00f146100e85780635c975abb1461010457806361d027b3146101225780636867aac514610140575b600080fd5b6100dc61023e565b005b6100e661030b565b005b61010260048036038101906100fd9190610e35565b6104b6565b005b61010c6105a0565b6040516101199190611118565b60405180910390f35b61012a6105b7565b60405161013791906110d4565b60405180910390f35b61015a60048036038101906101559190610ec3565b6105dd565b6040516101679190611239565b60405180910390f35b61018a60048036038101906101859190610e35565b6106c3565b005b6101946107ad565b005b6101b060048036038101906101ab9190610e87565b61087a565b6040516101bd9190611118565b60405180910390f35b6101ce610936565b6040516101db9190611239565b60405180910390f35b6101ec610949565b6040516101f99190611133565b60405180910390f35b61020a610950565b6040516102179190611133565b60405180910390f35b610228610974565b60405161023591906110d4565b60405180910390f35b7f65d7a28e3265b37a6474929f336521b332c1681b933f6cb9f3376673440d862a600033905061026e828261087a565b61028f8273ffffffffffffffffffffffffffffffffffffffff16601461099a565b61029d8460001c602061099a565b6040516020016102ae92919061109a565b604051602081830303815290604052906102fe576040517f08c379a00000000000000000000000000000000000000000000000000000000081526004016102f59190611177565b60405180910390fd5b50610307610c94565b5050565b6000606854610318610936565b61032291906114cd565b90508060686000828254610336919061127b565b9250508190555060008111610380576040517f08c379a000000000000000000000000000000000000000000000000000000000815260040161037790611219565b60405180910390fd5b6000606660009054906101000a900473ffffffffffffffffffffffffffffffffffffffff1690508073ffffffffffffffffffffffffffffffffffffffff1663a9059cbb606760009054906101000a900473ffffffffffffffffffffffffffffffffffffffff16846040518363ffffffff1660e01b81526004016104049291906110ef565b602060405180830381600087803b15801561041e57600080fd5b505af1158015610432573d6000803e3d6000fd5b505050506040513d601f19601f820116820180604052508101906104569190610e5e565b507f47cee97cb7acd717b3c0aa1435d004cd5b3c8c57d70dbceb4e4458bbd60e39d4606760009054906101000a900473ffffffffffffffffffffffffffffffffffffffff16836040516104aa9291906110ef565b60405180910390a15050565b6000801b60003390506104c9828261087a565b6104ea8273ffffffffffffffffffffffffffffffffffffffff16601461099a565b6104f88460001c602061099a565b60405160200161050992919061109a565b60405160208183030381529060405290610559576040517f08c379a00000000000000000000000000000000000000000000000000000000081526004016105509190611177565b60405180910390fd5b5082606560006101000a81548173ffffffffffffffffffffffffffffffffffffffff021916908373ffffffffffffffffffffffffffffffffffffffff160217905550505050565b6000603360009054906101000a900460ff16905090565b606760009054906101000a900473ffffffffffffffffffffffffffffffffffffffff1681565b6000818310610621576040517f08c379a0000000000000000000000000000000000000000000000000000000008152600401610618906111f9565b60405180910390fd5b606a5482111561063157606a5491505b6069548310156106415760695492505b60006002806069548561065491906114cd565b61065e9190611355565b606b5461066b9190611473565b61067591906112d1565b905060006002806069548761068a91906114cd565b6106949190611355565b606b546106a19190611473565b6106ab91906112d1565b905080826106b991906114cd565b9250505092915050565b6000801b60003390506106d6828261087a565b6106f78273ffffffffffffffffffffffffffffffffffffffff16601461099a565b6107058460001c602061099a565b60405160200161071692919061109a565b60405160208183030381529060405290610766576040517f08c379a000000000000000000000000000000000000000000000000000000000815260040161075d9190611177565b60405180910390fd5b5082606760006101000a81548173ffffffffffffffffffffffffffffffffffffffff021916908373ffffffffffffffffffffffffffffffffffffffff160217905550505050565b7f65d7a28e3265b37a6474929f336521b332c1681b933f6cb9f3376673440d862a60003390506107dd828261087a565b6107fe8273ffffffffffffffffffffffffffffffffffffffff16601461099a565b61080c8460001c602061099a565b60405160200161081d92919061109a565b6040516020818303038152906040529061086d576040517f08c379a00000000000000000000000000000000000000000000000000000000081526004016108649190611177565b60405180910390fd5b50610876610d36565b5050565b600080606560009054906101000a900473ffffffffffffffffffffffffffffffffffffffff1690508073ffffffffffffffffffffffffffffffffffffffff166391d1485485856040518363ffffffff1660e01b81526004016108dd92919061114e565b60206040518083038186803b1580156108f557600080fd5b505afa158015610909573d6000803e3d6000fd5b505050506040513d601f19601f8201168201806040525081019061092d9190610e5e565b91505092915050565b6000610944606954436105dd565b905090565b6000801b81565b7f65d7a28e3265b37a6474929f336521b332c1681b933f6cb9f3376673440d862a81565b606660009054906101000a900473ffffffffffffffffffffffffffffffffffffffff1681565b6060600060028360026109ad9190611473565b6109b7919061127b565b67ffffffffffffffff8111156109f6577f4e487b7100000000000000000000000000000000000000000000000000000000600052604160045260246000fd5b6040519080825280601f01601f191660200182016040528015610a285781602001600182028036833780820191505090505b5090507f300000000000000000000000000000000000000000000000000000000000000081600081518110610a86577f4e487b7100000000000000000000000000000000000000000000000000000000600052603260045260246000fd5b60200101907effffffffffffffffffffffffffffffffffffffffffffffffffffffffffffff1916908160001a9053507f780000000000000000000000000000000000000000000000000000000000000081600181518110610b10577f4e487b7100000000000000000000000000000000000000000000000000000000600052603260045260246000fd5b60200101907effffffffffffffffffffffffffffffffffffffffffffffffffffffffffffff1916908160001a90535060006001846002610b509190611473565b610b5a919061127b565b90505b6001811115610c46577f3031323334353637383961626364656600000000000000000000000000000000600f861660108110610bc2577f4e487b7100000000000000000000000000000000000000000000000000000000600052603260045260246000fd5b1a60f81b828281518110610bff577f4e487b7100000000000000000000000000000000000000000000000000000000600052603260045260246000fd5b60200101907effffffffffffffffffffffffffffffffffffffffffffffffffffffffffffff1916908160001a905350600485901c945080610c3f90611593565b9050610b5d565b5060008414610c8a576040517f08c379a0000000000000000000000000000000000000000000000000000000008152600401610c8190611199565b60405180910390fd5b8091505092915050565b610c9c6105a0565b610cdb576040517f08c379a0000000000000000000000000000000000000000000000000000000008152600401610cd2906111b9565b60405180910390fd5b6000603360006101000a81548160ff0219169083151502179055507f5db9ee0a495bf2e6ff9c91a7834c1ba4fdd244a5e8aa4e537bd38aeae4b073aa610d1f610dd9565b604051610d2c91906110d4565b60405180910390a1565b610d3e6105a0565b15610d7e576040517f08c379a0000000000000000000000000000000000000000000000000000000008152600401610d75906111d9565b60405180910390fd5b6001603360006101000a81548160ff0219169083151502179055507f62e78cea01bee320cd4e420270b5ea74000d11b0c9f74754ebdbfc544b05a258610dc2610dd9565b604051610dcf91906110d4565b60405180910390a1565b600033905090565b600081359050610df0816117ca565b92915050565b600081519050610e05816117e1565b92915050565b600081359050610e1a816117f8565b92915050565b600081359050610e2f8161180f565b92915050565b600060208284031215610e4757600080fd5b6000610e5584828501610de1565b91505092915050565b600060208284031215610e7057600080fd5b6000610e7e84828501610df6565b91505092915050565b60008060408385031215610e9a57600080fd5b6000610ea885828601610e0b565b9250506020610eb985828601610de1565b9150509250929050565b60008060408385031215610ed657600080fd5b6000610ee485828601610e20565b9250506020610ef585828601610e20565b9150509250929050565b610f0881611501565b82525050565b610f1781611513565b82525050565b610f268161151f565b82525050565b6000610f3782611254565b610f41818561125f565b9350610f51818560208601611560565b610f5a8161161b565b840191505092915050565b6000610f7082611254565b610f7a8185611270565b9350610f8a818560208601611560565b80840191505092915050565b6000610fa360208361125f565b9150610fae82611639565b602082019050919050565b6000610fc6602483611270565b9150610fd182611662565b602482019050919050565b6000610fe960148361125f565b9150610ff4826116b1565b602082019050919050565b600061100c60108361125f565b9150611017826116da565b602082019050919050565b600061102f602b8361125f565b915061103a82611703565b604082019050919050565b600061105260278361125f565b915061105d82611752565b604082019050919050565b6000611075601183611270565b9150611080826117a1565b601182019050919050565b61109481611549565b82525050565b60006110a582610fb9565b91506110b18285610f65565b91506110bc82611068565b91506110c88284610f65565b91508190509392505050565b60006020820190506110e96000830184610eff565b92915050565b60006040820190506111046000830185610eff565b611111602083018461108b565b9392505050565b600060208201905061112d6000830184610f0e565b92915050565b60006020820190506111486000830184610f1d565b92915050565b60006040820190506111636000830185610f1d565b6111706020830184610eff565b9392505050565b600060208201905081810360008301526111918184610f2c565b905092915050565b600060208201905081810360008301526111b281610f96565b9050919050565b600060208201905081810360008301526111d281610fdc565b9050919050565b600060208201905081810360008301526111f281610fff565b9050919050565b6000602082019050818103600083015261121281611022565b9050919050565b6000602082019050818103600083015261123281611045565b9050919050565b600060208201905061124e600083018461108b565b92915050565b600081519050919050565b600082825260208201905092915050565b600081905092915050565b600061128682611549565b915061129183611549565b9250827fffffffffffffffffffffffffffffffffffffffffffffffffffffffffffffffff038211156112c6576112c56115bd565b5b828201905092915050565b60006112dc82611549565b91506112e783611549565b9250826112f7576112f66115ec565b5b828204905092915050565b6000808291508390505b600185111561134c57808604811115611328576113276115bd565b5b60018516156113375780820291505b80810290506113458561162c565b945061130c565b94509492505050565b600061136082611549565b915061136b83611553565b92506113987fffffffffffffffffffffffffffffffffffffffffffffffffffffffffffffffff84846113a0565b905092915050565b6000826113b0576001905061146c565b816113be576000905061146c565b81600181146113d457600281146113de5761140d565b600191505061146c565b60ff8411156113f0576113ef6115bd565b5b8360020a915084821115611407576114066115bd565b5b5061146c565b5060208310610133831016604e8410600b84101617156114425782820a90508381111561143d5761143c6115bd565b5b61146c565b61144f8484846001611302565b92509050818404811115611466576114656115bd565b5b81810290505b9392505050565b600061147e82611549565b915061148983611549565b9250817fffffffffffffffffffffffffffffffffffffffffffffffffffffffffffffffff04831182151516156114c2576114c16115bd565b5b828202905092915050565b60006114d882611549565b91506114e383611549565b9250828210156114f6576114f56115bd565b5b828203905092915050565b600061150c82611529565b9050919050565b60008115159050919050565b6000819050919050565b600073ffffffffffffffffffffffffffffffffffffffff82169050919050565b6000819050919050565b600060ff82169050919050565b60005b8381101561157e578082015181840152602081019050611563565b8381111561158d576000848401525b50505050565b600061159e82611549565b915060008214156115b2576115b16115bd565b5b600182039050919050565b7f4e487b7100000000000000000000000000000000000000000000000000000000600052601160045260246000fd5b7f4e487b7100000000000000000000000000000000000000000000000000000000600052601260045260246000fd5b6000601f19601f8301169050919050565b60008160011c9050919050565b7f537472696e67733a20686578206c656e67746820696e73756666696369656e74600082015250565b7f416363657373436f6e74726f6c50726f78795061757361626c653a206163636f60008201527f756e742000000000000000000000000000000000000000000000000000000000602082015250565b7f5061757361626c653a206e6f7420706175736564000000000000000000000000600082015250565b7f5061757361626c653a2070617573656400000000000000000000000000000000600082015250565b7f547574656c6c757354726561737572795661756c743a207b66726f6d7d20697360008201527f206166746572207b746f7d000000000000000000000000000000000000000000602082015250565b7f547574656c6c757354726561737572795661756c743a206e6f7468696e67207460008201527f6f20636c61696d00000000000000000000000000000000000000000000000000602082015250565b7f206973206d697373696e6720726f6c6520000000000000000000000000000000600082015250565b6117d381611501565b81146117de57600080fd5b50565b6117ea81611513565b81146117f557600080fd5b50565b6118018161151f565b811461180c57600080fd5b50565b61181881611549565b811461182357600080fd5b5056fea26469706673582212201394f3c7a2ab4968fd4a3432b8a470b35af896065f01d882fe67a46ad8ee002e64736f6c63430008020033",
  "linkReferences": {},
  "deployedLinkReferences": {}
}