{
  "_format": "hh-sol-artifact-1",
  "contractName": "TutellusTreasuryVault",
  "sourceName": "contracts/TutellusTreasuryVault.sol",
  "abi": [
    {
      "inputs": [
        {
          "internalType": "address",
          "name": "rolemanager",
          "type": "address"
        },
        {
          "internalType": "address",
          "name": "treasury_",
          "type": "address"
        },
        {
          "internalType": "address",
          "name": "token_",
          "type": "address"
        },
        {
          "internalType": "uint256",
          "name": "amount",
          "type": "uint256"
        },
        {
          "internalType": "uint256",
          "name": "blocks",
          "type": "uint256"
        }
      ],
      "stateMutability": "nonpayable",
      "type": "constructor"
    },
    {
      "anonymous": false,
      "inputs": [
        {
          "indexed": false,
          "internalType": "address",
          "name": "account",
          "type": "address"
        }
      ],
      "name": "Paused",
      "type": "event"
    },
    {
      "anonymous": false,
      "inputs": [
        {
          "indexed": false,
          "internalType": "address",
          "name": "account",
          "type": "address"
        }
      ],
      "name": "Unpaused",
      "type": "event"
    },
    {
      "inputs": [],
      "name": "DEFAULT_ADMIN_ROLE",
      "outputs": [
        {
          "internalType": "bytes32",
          "name": "",
          "type": "bytes32"
        }
      ],
      "stateMutability": "view",
      "type": "function"
    },
    {
      "inputs": [],
      "name": "PAUSER_ROLE",
      "outputs": [
        {
          "internalType": "bytes32",
          "name": "",
          "type": "bytes32"
        }
      ],
      "stateMutability": "view",
      "type": "function"
    },
    {
      "inputs": [],
      "name": "claim",
      "outputs": [],
      "stateMutability": "nonpayable",
      "type": "function"
    },
    {
      "inputs": [],
      "name": "pause",
      "outputs": [],
      "stateMutability": "nonpayable",
      "type": "function"
    },
    {
      "inputs": [],
      "name": "paused",
      "outputs": [
        {
          "internalType": "bool",
          "name": "",
          "type": "bool"
        }
      ],
      "stateMutability": "view",
      "type": "function"
    },
    {
      "inputs": [],
      "name": "released",
      "outputs": [
        {
          "internalType": "uint256",
          "name": "",
          "type": "uint256"
        }
      ],
      "stateMutability": "view",
      "type": "function"
    },
    {
      "inputs": [
        {
          "internalType": "uint256",
          "name": "from",
          "type": "uint256"
        },
        {
          "internalType": "uint256",
          "name": "to",
          "type": "uint256"
        }
      ],
      "name": "releasedRange",
      "outputs": [
        {
          "internalType": "uint256",
          "name": "",
          "type": "uint256"
        }
      ],
      "stateMutability": "view",
      "type": "function"
    },
    {
      "inputs": [],
      "name": "token",
      "outputs": [
        {
          "internalType": "address",
          "name": "",
          "type": "address"
        }
      ],
      "stateMutability": "view",
      "type": "function"
    },
    {
      "inputs": [],
      "name": "treasury",
      "outputs": [
        {
          "internalType": "address",
          "name": "",
          "type": "address"
        }
      ],
      "stateMutability": "view",
      "type": "function"
    },
    {
      "inputs": [],
      "name": "unpause",
      "outputs": [],
      "stateMutability": "nonpayable",
      "type": "function"
    },
    {
      "inputs": [
        {
          "internalType": "address",
          "name": "manager",
          "type": "address"
        }
      ],
      "name": "updateManager",
      "outputs": [],
      "stateMutability": "nonpayable",
      "type": "function"
    },
    {
      "inputs": [
        {
          "internalType": "address",
          "name": "treasury_",
          "type": "address"
        }
      ],
      "name": "updateTreasury",
      "outputs": [],
      "stateMutability": "nonpayable",
      "type": "function"
    }
  ],
  "bytecode": "0x60806040523480156200001157600080fd5b506040516200275738038062002757833981810160405281019062000037919062000838565b6200004c85858585856200005760201b60201c565b505050505062000cdb565b600060019054906101000a900460ff16806200007e575060008054906101000a900460ff16155b620000c0576040517f08c379a0000000000000000000000000000000000000000000000000000000008152600401620000b790620008e1565b60405180910390fd5b60008060019054906101000a900460ff16159050801562000111576001600060016101000a81548160ff02191690831515021790555060016000806101000a81548160ff0219169083151502179055505b62000122866200016060201b60201c565b62000136858585856200026160201b60201c565b8015620001585760008060016101000a81548160ff0219169083151502179055505b505050505050565b600060019054906101000a900460ff168062000187575060008054906101000a900460ff16155b620001c9576040517f08c379a0000000000000000000000000000000000000000000000000000000008152600401620001c090620008e1565b60405180910390fd5b60008060019054906101000a900460ff1615905080156200021a576001600060016101000a81548160ff02191690831515021790555060016000806101000a81548160ff0219169083151502179055505b6200022a6200041160201b60201c565b6200023b826200051060201b60201c565b80156200025d5760008060016101000a81548160ff0219169083151502179055505b5050565b600060019054906101000a900460ff168062000288575060008054906101000a900460ff16155b620002ca576040517f08c379a0000000000000000000000000000000000000000000000000000000008152600401620002c190620008e1565b60405180910390fd5b60008060019054906101000a900460ff1615905080156200031b576001600060016101000a81548160ff02191690831515021790555060016000806101000a81548160ff0219169083151502179055505b83606660006101000a81548173ffffffffffffffffffffffffffffffffffffffff021916908373ffffffffffffffffffffffffffffffffffffffff16021790555084606760006101000a81548173ffffffffffffffffffffffffffffffffffffffff021916908373ffffffffffffffffffffffffffffffffffffffff160217905550436069819055508143620003b2919062000914565b606a81905550600282620003c7919062000a04565b836002620003d6919062000b41565b620003e2919062000971565b606b8190555080156200040a5760008060016101000a81548160ff0219169083151502179055505b5050505050565b600060019054906101000a900460ff168062000438575060008054906101000a900460ff16155b6200047a576040517f08c379a00000000000000000000000000000000000000000000000000000000081526004016200047190620008e1565b60405180910390fd5b60008060019054906101000a900460ff161590508015620004cb576001600060016101000a81548160ff02191690831515021790555060016000806101000a81548160ff0219169083151502179055505b620004db6200063160201b60201c565b620004eb6200071060201b60201c565b80156200050d5760008060016101000a81548160ff0219169083151502179055505b50565b600060019054906101000a900460ff168062000537575060008054906101000a900460ff16155b62000579576040517f08c379a00000000000000000000000000000000000000000000000000000000081526004016200057090620008e1565b60405180910390fd5b60008060019054906101000a900460ff161590508015620005ca576001600060016101000a81548160ff02191690831515021790555060016000806101000a81548160ff0219169083151502179055505b81606560006101000a81548173ffffffffffffffffffffffffffffffffffffffff021916908373ffffffffffffffffffffffffffffffffffffffff16021790555080156200062d5760008060016101000a81548160ff0219169083151502179055505b5050565b600060019054906101000a900460ff168062000658575060008054906101000a900460ff16155b6200069a576040517f08c379a00000000000000000000000000000000000000000000000000000000081526004016200069190620008e1565b60405180910390fd5b60008060019054906101000a900460ff161590508015620006eb576001600060016101000a81548160ff02191690831515021790555060016000806101000a81548160ff0219169083151502179055505b80156200070d5760008060016101000a81548160ff0219169083151502179055505b50565b600060019054906101000a900460ff168062000737575060008054906101000a900460ff16155b62000779576040517f08c379a00000000000000000000000000000000000000000000000000000000081526004016200077090620008e1565b60405180910390fd5b60008060019054906101000a900460ff161590508015620007ca576001600060016101000a81548160ff02191690831515021790555060016000806101000a81548160ff0219169083151502179055505b6000603360006101000a81548160ff0219169083151502179055508015620008075760008060016101000a81548160ff0219169083151502179055505b50565b6000815190506200081b8162000ca7565b92915050565b600081519050620008328162000cc1565b92915050565b600080600080600060a086880312156200085157600080fd5b600062000861888289016200080a565b955050602062000874888289016200080a565b945050604062000887888289016200080a565b93505060606200089a8882890162000821565b9250506080620008ad8882890162000821565b9150509295509295909350565b6000620008c9602e8362000903565b9150620008d68262000c58565b604082019050919050565b60006020820190508181036000830152620008fc81620008ba565b9050919050565b600082825260208201905092915050565b6000620009218262000bd6565b91506200092e8362000bd6565b9250827fffffffffffffffffffffffffffffffffffffffffffffffffffffffffffffffff0382111562000966576200096562000bed565b5b828201905092915050565b60006200097e8262000bd6565b91506200098b8362000bd6565b9250826200099e576200099d62000c1c565b5b828204905092915050565b6000808291508390505b6001851115620009fb57808604811115620009d357620009d262000bed565b5b6001851615620009e35780820291505b8081029050620009f38562000c4b565b9450620009b3565b94509492505050565b600062000a118262000bd6565b915062000a1e8362000be0565b925062000a4d7fffffffffffffffffffffffffffffffffffffffffffffffffffffffffffffffff848462000a55565b905092915050565b60008262000a67576001905062000b3a565b8162000a77576000905062000b3a565b816001811462000a90576002811462000a9b5762000ad1565b600191505062000b3a565b60ff84111562000ab05762000aaf62000bed565b5b8360020a91508482111562000aca5762000ac962000bed565b5b5062000b3a565b5060208310610133831016604e8410600b841016171562000b0b5782820a90508381111562000b055762000b0462000bed565b5b62000b3a565b62000b1a8484846001620009a9565b9250905081840481111562000b345762000b3362000bed565b5b81810290505b9392505050565b600062000b4e8262000bd6565b915062000b5b8362000bd6565b9250817fffffffffffffffffffffffffffffffffffffffffffffffffffffffffffffffff048311821515161562000b975762000b9662000bed565b5b828202905092915050565b600062000baf8262000bb6565b9050919050565b600073ffffffffffffffffffffffffffffffffffffffff82169050919050565b6000819050919050565b600060ff82169050919050565b7f4e487b7100000000000000000000000000000000000000000000000000000000600052601160045260246000fd5b7f4e487b7100000000000000000000000000000000000000000000000000000000600052601260045260246000fd5b60008160011c9050919050565b7f496e697469616c697a61626c653a20636f6e747261637420697320616c72656160008201527f647920696e697469616c697a6564000000000000000000000000000000000000602082015250565b62000cb28162000ba2565b811462000cbe57600080fd5b50565b62000ccc8162000bd6565b811462000cd857600080fd5b50565b611a6c8062000ceb6000396000f3fe608060405234801561001057600080fd5b50600436106100b45760003560e01c80637f51bb1f116100715780637f51bb1f146101555780638456cb5914610171578063961325211461017b578063a217fddf14610199578063e63ab1e9146101b7578063fc0c546a146101d5576100b4565b80633f4ba83a146100b95780634e71d92d146100c357806358aba00f146100cd5780635c975abb146100e957806361d027b3146101075780636867aac514610125575b600080fd5b6100c16101f3565b005b6100cb610369565b005b6100e760048036038101906100e29190611098565b6105ef565b005b6100f1610782565b6040516100fe919061133f565b60405180910390f35b61010f610799565b60405161011c91906112fb565b60405180910390f35b61013f600480360381019061013a91906110ea565b6107bf565b60405161014c9190611460565b60405180910390f35b61016f600480360381019061016a9190611098565b6108a5565b005b610179610a38565b005b610183610bae565b6040516101909190611460565b60405180910390f35b6101a1610bc1565b6040516101ae919061135a565b60405180910390f35b6101bf610bc8565b6040516101cc919061135a565b60405180910390f35b6101dd610bec565b6040516101ea91906112fb565b60405180910390f35b7f65d7a28e3265b37a6474929f336521b332c1681b933f6cb9f3376673440d862a6000606560009054906101000a900473ffffffffffffffffffffffffffffffffffffffff16905060003390508173ffffffffffffffffffffffffffffffffffffffff166391d1485484836040518363ffffffff1660e01b815260040161027b929190611375565b60206040518083038186803b15801561029357600080fd5b505afa1580156102a7573d6000803e3d6000fd5b505050506040513d601f19601f820116820180604052508101906102cb91906110c1565b6102ec8273ffffffffffffffffffffffffffffffffffffffff166014610c12565b6102fa8560001c6020610c12565b60405160200161030b9291906112c1565b6040516020818303038152906040529061035b576040517f08c379a0000000000000000000000000000000000000000000000000000000008152600401610352919061139e565b60405180910390fd5b50610364610f0c565b505050565b6000801b6000606560009054906101000a900473ffffffffffffffffffffffffffffffffffffffff16905060003390508173ffffffffffffffffffffffffffffffffffffffff166391d1485484836040518363ffffffff1660e01b81526004016103d4929190611375565b60206040518083038186803b1580156103ec57600080fd5b505afa158015610400573d6000803e3d6000fd5b505050506040513d601f19601f8201168201806040525081019061042491906110c1565b6104458273ffffffffffffffffffffffffffffffffffffffff166014610c12565b6104538560001c6020610c12565b6040516020016104649291906112c1565b604051602081830303815290604052906104b4576040517f08c379a00000000000000000000000000000000000000000000000000000000081526004016104ab919061139e565b60405180910390fd5b5060006068546104c2610bae565b6104cc91906116f4565b905060008111610511576040517f08c379a000000000000000000000000000000000000000000000000000000000815260040161050890611440565b60405180910390fd5b6000606660009054906101000a900473ffffffffffffffffffffffffffffffffffffffff1690508073ffffffffffffffffffffffffffffffffffffffff1663a9059cbb606760009054906101000a900473ffffffffffffffffffffffffffffffffffffffff16846040518363ffffffff1660e01b8152600401610595929190611316565b602060405180830381600087803b1580156105af57600080fd5b505af11580156105c3573d6000803e3d6000fd5b505050506040513d601f19601f820116820180604052508101906105e791906110c1565b505050505050565b6000801b6000606560009054906101000a900473ffffffffffffffffffffffffffffffffffffffff16905060003390508173ffffffffffffffffffffffffffffffffffffffff166391d1485484836040518363ffffffff1660e01b815260040161065a929190611375565b60206040518083038186803b15801561067257600080fd5b505afa158015610686573d6000803e3d6000fd5b505050506040513d601f19601f820116820180604052508101906106aa91906110c1565b6106cb8273ffffffffffffffffffffffffffffffffffffffff166014610c12565b6106d98560001c6020610c12565b6040516020016106ea9291906112c1565b6040516020818303038152906040529061073a576040517f08c379a0000000000000000000000000000000000000000000000000000000008152600401610731919061139e565b60405180910390fd5b5083606560006101000a81548173ffffffffffffffffffffffffffffffffffffffff021916908373ffffffffffffffffffffffffffffffffffffffff16021790555050505050565b6000603360009054906101000a900460ff16905090565b606760009054906101000a900473ffffffffffffffffffffffffffffffffffffffff1681565b6000818310610803576040517f08c379a00000000000000000000000000000000000000000000000000000000081526004016107fa906113e0565b60405180910390fd5b606a5482111561081357606a5491505b6069548310156108235760695492505b60006002806069548561083691906116f4565b610840919061157c565b606b5461084d919061169a565b61085791906114f8565b905060006002806069548761086c91906116f4565b610876919061157c565b606b54610883919061169a565b61088d91906114f8565b9050808261089b91906116f4565b9250505092915050565b6000801b6000606560009054906101000a900473ffffffffffffffffffffffffffffffffffffffff16905060003390508173ffffffffffffffffffffffffffffffffffffffff166391d1485484836040518363ffffffff1660e01b8152600401610910929190611375565b60206040518083038186803b15801561092857600080fd5b505afa15801561093c573d6000803e3d6000fd5b505050506040513d601f19601f8201168201806040525081019061096091906110c1565b6109818273ffffffffffffffffffffffffffffffffffffffff166014610c12565b61098f8560001c6020610c12565b6040516020016109a09291906112c1565b604051602081830303815290604052906109f0576040517f08c379a00000000000000000000000000000000000000000000000000000000081526004016109e7919061139e565b60405180910390fd5b5083606760006101000a81548173ffffffffffffffffffffffffffffffffffffffff021916908373ffffffffffffffffffffffffffffffffffffffff16021790555050505050565b7f65d7a28e3265b37a6474929f336521b332c1681b933f6cb9f3376673440d862a6000606560009054906101000a900473ffffffffffffffffffffffffffffffffffffffff16905060003390508173ffffffffffffffffffffffffffffffffffffffff166391d1485484836040518363ffffffff1660e01b8152600401610ac0929190611375565b60206040518083038186803b158015610ad857600080fd5b505afa158015610aec573d6000803e3d6000fd5b505050506040513d601f19601f82011682018060405250810190610b1091906110c1565b610b318273ffffffffffffffffffffffffffffffffffffffff166014610c12565b610b3f8560001c6020610c12565b604051602001610b509291906112c1565b60405160208183030381529060405290610ba0576040517f08c379a0000000000000000000000000000000000000000000000000000000008152600401610b97919061139e565b60405180910390fd5b50610ba9610fae565b505050565b6000610bbc436069546107bf565b905090565b6000801b81565b7f65d7a28e3265b37a6474929f336521b332c1681b933f6cb9f3376673440d862a81565b606660009054906101000a900473ffffffffffffffffffffffffffffffffffffffff1681565b606060006002836002610c25919061169a565b610c2f91906114a2565b67ffffffffffffffff811115610c6e577f4e487b7100000000000000000000000000000000000000000000000000000000600052604160045260246000fd5b6040519080825280601f01601f191660200182016040528015610ca05781602001600182028036833780820191505090505b5090507f300000000000000000000000000000000000000000000000000000000000000081600081518110610cfe577f4e487b7100000000000000000000000000000000000000000000000000000000600052603260045260246000fd5b60200101907effffffffffffffffffffffffffffffffffffffffffffffffffffffffffffff1916908160001a9053507f780000000000000000000000000000000000000000000000000000000000000081600181518110610d88577f4e487b7100000000000000000000000000000000000000000000000000000000600052603260045260246000fd5b60200101907effffffffffffffffffffffffffffffffffffffffffffffffffffffffffffff1916908160001a90535060006001846002610dc8919061169a565b610dd291906114a2565b90505b6001811115610ebe577f3031323334353637383961626364656600000000000000000000000000000000600f861660108110610e3a577f4e487b7100000000000000000000000000000000000000000000000000000000600052603260045260246000fd5b1a60f81b828281518110610e77577f4e487b7100000000000000000000000000000000000000000000000000000000600052603260045260246000fd5b60200101907effffffffffffffffffffffffffffffffffffffffffffffffffffffffffffff1916908160001a905350600485901c945080610eb7906117ba565b9050610dd5565b5060008414610f02576040517f08c379a0000000000000000000000000000000000000000000000000000000008152600401610ef9906113c0565b60405180910390fd5b8091505092915050565b610f14610782565b610f53576040517f08c379a0000000000000000000000000000000000000000000000000000000008152600401610f4a90611400565b60405180910390fd5b6000603360006101000a81548160ff0219169083151502179055507f5db9ee0a495bf2e6ff9c91a7834c1ba4fdd244a5e8aa4e537bd38aeae4b073aa610f97611051565b604051610fa491906112fb565b60405180910390a1565b610fb6610782565b15610ff6576040517f08c379a0000000000000000000000000000000000000000000000000000000008152600401610fed90611420565b60405180910390fd5b6001603360006101000a81548160ff0219169083151502179055507f62e78cea01bee320cd4e420270b5ea74000d11b0c9f74754ebdbfc544b05a25861103a611051565b60405161104791906112fb565b60405180910390a1565b600033905090565b600081359050611068816119f1565b92915050565b60008151905061107d81611a08565b92915050565b60008135905061109281611a1f565b92915050565b6000602082840312156110aa57600080fd5b60006110b884828501611059565b91505092915050565b6000602082840312156110d357600080fd5b60006110e18482850161106e565b91505092915050565b600080604083850312156110fd57600080fd5b600061110b85828601611083565b925050602061111c85828601611083565b9150509250929050565b61112f81611728565b82525050565b61113e8161173a565b82525050565b61114d81611746565b82525050565b600061115e8261147b565b6111688185611486565b9350611178818560208601611787565b61118181611842565b840191505092915050565b60006111978261147b565b6111a18185611497565b93506111b1818560208601611787565b80840191505092915050565b60006111ca602083611486565b91506111d582611860565b602082019050919050565b60006111ed603c83611486565b91506111f882611889565b604082019050919050565b6000611210602483611497565b915061121b826118d8565b602482019050919050565b6000611233601483611486565b915061123e82611927565b602082019050919050565b6000611256601083611486565b915061126182611950565b602082019050919050565b6000611279602783611486565b915061128482611979565b604082019050919050565b600061129c601183611497565b91506112a7826119c8565b601182019050919050565b6112bb81611770565b82525050565b60006112cc82611203565b91506112d8828561118c565b91506112e38261128f565b91506112ef828461118c565b91508190509392505050565b60006020820190506113106000830184611126565b92915050565b600060408201905061132b6000830185611126565b61133860208301846112b2565b9392505050565b60006020820190506113546000830184611135565b92915050565b600060208201905061136f6000830184611144565b92915050565b600060408201905061138a6000830185611144565b6113976020830184611126565b9392505050565b600060208201905081810360008301526113b88184611153565b905092915050565b600060208201905081810360008301526113d9816111bd565b9050919050565b600060208201905081810360008301526113f9816111e0565b9050919050565b6000602082019050818103600083015261141981611226565b9050919050565b6000602082019050818103600083015261143981611249565b9050919050565b600060208201905081810360008301526114598161126c565b9050919050565b600060208201905061147560008301846112b2565b92915050565b600081519050919050565b600082825260208201905092915050565b600081905092915050565b60006114ad82611770565b91506114b883611770565b9250827fffffffffffffffffffffffffffffffffffffffffffffffffffffffffffffffff038211156114ed576114ec6117e4565b5b828201905092915050565b600061150382611770565b915061150e83611770565b92508261151e5761151d611813565b5b828204905092915050565b6000808291508390505b60018511156115735780860481111561154f5761154e6117e4565b5b600185161561155e5780820291505b808102905061156c85611853565b9450611533565b94509492505050565b600061158782611770565b91506115928361177a565b92506115bf7fffffffffffffffffffffffffffffffffffffffffffffffffffffffffffffffff84846115c7565b905092915050565b6000826115d75760019050611693565b816115e55760009050611693565b81600181146115fb576002811461160557611634565b6001915050611693565b60ff841115611617576116166117e4565b5b8360020a91508482111561162e5761162d6117e4565b5b50611693565b5060208310610133831016604e8410600b84101617156116695782820a905083811115611664576116636117e4565b5b611693565b6116768484846001611529565b9250905081840481111561168d5761168c6117e4565b5b81810290505b9392505050565b60006116a582611770565b91506116b083611770565b9250817fffffffffffffffffffffffffffffffffffffffffffffffffffffffffffffffff04831182151516156116e9576116e86117e4565b5b828202905092915050565b60006116ff82611770565b915061170a83611770565b92508282101561171d5761171c6117e4565b5b828203905092915050565b600061173382611750565b9050919050565b60008115159050919050565b6000819050919050565b600073ffffffffffffffffffffffffffffffffffffffff82169050919050565b6000819050919050565b600060ff82169050919050565b60005b838110156117a557808201518184015260208101905061178a565b838111156117b4576000848401525b50505050565b60006117c582611770565b915060008214156117d9576117d86117e4565b5b600182039050919050565b7f4e487b7100000000000000000000000000000000000000000000000000000000600052601160045260246000fd5b7f4e487b7100000000000000000000000000000000000000000000000000000000600052601260045260246000fd5b6000601f19601f8301169050919050565b60008160011c9050919050565b7f537472696e67733a20686578206c656e67746820696e73756666696369656e74600082015250565b7f547574656c6c75735969656c64547574656c6c75735969656c6452657761726460008201527f73746f6b656e3a207b66726f6d7d206973206166746572207b746f7d00000000602082015250565b7f416363657373436f6e74726f6c50726f78795061757361626c653a206163636f60008201527f756e742000000000000000000000000000000000000000000000000000000000602082015250565b7f5061757361626c653a206e6f7420706175736564000000000000000000000000600082015250565b7f5061757361626c653a2070617573656400000000000000000000000000000000600082015250565b7f547574656c6c757354726561737572795661756c743a206e6f7468696e67207460008201527f6f20636c61696d00000000000000000000000000000000000000000000000000602082015250565b7f206973206d697373696e6720726f6c6520000000000000000000000000000000600082015250565b6119fa81611728565b8114611a0557600080fd5b50565b611a118161173a565b8114611a1c57600080fd5b50565b611a2881611770565b8114611a3357600080fd5b5056fea2646970667358221220a2af0d6360113db9b36fab39d37bc3f1e8bfcd07ee002efe320addc2f741df4264736f6c63430008020033",
  "linkReferences": {},
  "deployedLinkReferences": {}
}