{
  "_format": "hh-sol-artifact-1",
  "contractName": "TutellusERC20",
  "sourceName": "contracts/utils/TutellusERC20.sol",
  "abi": [
    {
      "inputs": [
        {
          "internalType": "string",
          "name": "name",
          "type": "string"
        },
        {
          "internalType": "string",
          "name": "symbol",
          "type": "string"
        },
        {
          "internalType": "uint256",
          "name": "cap",
          "type": "uint256"
        },
        {
          "internalType": "address",
          "name": "rolemanager",
          "type": "address"
        }
      ],
      "stateMutability": "nonpayable",
      "type": "constructor"
    },
    {
      "anonymous": false,
      "inputs": [
        {
          "indexed": true,
          "internalType": "address",
          "name": "owner",
          "type": "address"
        },
        {
          "indexed": true,
          "internalType": "address",
          "name": "spender",
          "type": "address"
        },
        {
          "indexed": false,
          "internalType": "uint256",
          "name": "value",
          "type": "uint256"
        }
      ],
      "name": "Approval",
      "type": "event"
    },
    {
      "anonymous": false,
      "inputs": [
        {
          "indexed": false,
          "internalType": "address",
          "name": "account",
          "type": "address"
        },
        {
          "indexed": false,
          "internalType": "uint256",
          "name": "amount",
          "type": "uint256"
        }
      ],
      "name": "Burn",
      "type": "event"
    },
    {
      "anonymous": false,
      "inputs": [
        {
          "indexed": false,
          "internalType": "address",
          "name": "account",
          "type": "address"
        },
        {
          "indexed": false,
          "internalType": "uint256",
          "name": "amount",
          "type": "uint256"
        }
      ],
      "name": "Mint",
      "type": "event"
    },
    {
      "anonymous": false,
      "inputs": [
        {
          "indexed": false,
          "internalType": "address",
          "name": "account",
          "type": "address"
        }
      ],
      "name": "Paused",
      "type": "event"
    },
    {
      "anonymous": false,
      "inputs": [
        {
          "indexed": true,
          "internalType": "address",
          "name": "from",
          "type": "address"
        },
        {
          "indexed": true,
          "internalType": "address",
          "name": "to",
          "type": "address"
        },
        {
          "indexed": false,
          "internalType": "uint256",
          "name": "value",
          "type": "uint256"
        }
      ],
      "name": "Transfer",
      "type": "event"
    },
    {
      "anonymous": false,
      "inputs": [
        {
          "indexed": false,
          "internalType": "address",
          "name": "account",
          "type": "address"
        }
      ],
      "name": "Unpaused",
      "type": "event"
    },
    {
      "inputs": [],
      "name": "DEFAULT_ADMIN_ROLE",
      "outputs": [
        {
          "internalType": "bytes32",
          "name": "",
          "type": "bytes32"
        }
      ],
      "stateMutability": "view",
      "type": "function"
    },
    {
      "inputs": [],
      "name": "PAUSER_ROLE",
      "outputs": [
        {
          "internalType": "bytes32",
          "name": "",
          "type": "bytes32"
        }
      ],
      "stateMutability": "view",
      "type": "function"
    },
    {
      "inputs": [
        {
          "internalType": "address",
          "name": "owner",
          "type": "address"
        },
        {
          "internalType": "address",
          "name": "spender",
          "type": "address"
        }
      ],
      "name": "allowance",
      "outputs": [
        {
          "internalType": "uint256",
          "name": "",
          "type": "uint256"
        }
      ],
      "stateMutability": "view",
      "type": "function"
    },
    {
      "inputs": [
        {
          "internalType": "address",
          "name": "spender",
          "type": "address"
        },
        {
          "internalType": "uint256",
          "name": "amount",
          "type": "uint256"
        }
      ],
      "name": "approve",
      "outputs": [
        {
          "internalType": "bool",
          "name": "",
          "type": "bool"
        }
      ],
      "stateMutability": "nonpayable",
      "type": "function"
    },
    {
      "inputs": [
        {
          "internalType": "address",
          "name": "account",
          "type": "address"
        }
      ],
      "name": "balanceOf",
      "outputs": [
        {
          "internalType": "uint256",
          "name": "",
          "type": "uint256"
        }
      ],
      "stateMutability": "view",
      "type": "function"
    },
    {
      "inputs": [
        {
          "internalType": "uint256",
          "name": "amount",
          "type": "uint256"
        }
      ],
      "name": "burn",
      "outputs": [],
      "stateMutability": "nonpayable",
      "type": "function"
    },
    {
      "inputs": [],
      "name": "burned",
      "outputs": [
        {
          "internalType": "uint256",
          "name": "",
          "type": "uint256"
        }
      ],
      "stateMutability": "view",
      "type": "function"
    },
    {
      "inputs": [],
      "name": "cap",
      "outputs": [
        {
          "internalType": "uint256",
          "name": "",
          "type": "uint256"
        }
      ],
      "stateMutability": "view",
      "type": "function"
    },
    {
      "inputs": [],
      "name": "decimals",
      "outputs": [
        {
          "internalType": "uint8",
          "name": "",
          "type": "uint8"
        }
      ],
      "stateMutability": "view",
      "type": "function"
    },
    {
      "inputs": [
        {
          "internalType": "address",
          "name": "spender",
          "type": "address"
        },
        {
          "internalType": "uint256",
          "name": "subtractedValue",
          "type": "uint256"
        }
      ],
      "name": "decreaseAllowance",
      "outputs": [
        {
          "internalType": "bool",
          "name": "",
          "type": "bool"
        }
      ],
      "stateMutability": "nonpayable",
      "type": "function"
    },
    {
      "inputs": [
        {
          "internalType": "bytes32",
          "name": "role",
          "type": "bytes32"
        },
        {
          "internalType": "address",
          "name": "account",
          "type": "address"
        }
      ],
      "name": "hasRole",
      "outputs": [
        {
          "internalType": "bool",
          "name": "",
          "type": "bool"
        }
      ],
      "stateMutability": "view",
      "type": "function"
    },
    {
      "inputs": [
        {
          "internalType": "address",
          "name": "spender",
          "type": "address"
        },
        {
          "internalType": "uint256",
          "name": "addedValue",
          "type": "uint256"
        }
      ],
      "name": "increaseAllowance",
      "outputs": [
        {
          "internalType": "bool",
          "name": "",
          "type": "bool"
        }
      ],
      "stateMutability": "nonpayable",
      "type": "function"
    },
    {
      "inputs": [
        {
          "internalType": "address",
          "name": "account",
          "type": "address"
        }
      ],
      "name": "isMinter",
      "outputs": [
        {
          "internalType": "bool",
          "name": "",
          "type": "bool"
        }
      ],
      "stateMutability": "view",
      "type": "function"
    },
    {
      "inputs": [
        {
          "internalType": "address",
          "name": "account",
          "type": "address"
        },
        {
          "internalType": "uint256",
          "name": "amount",
          "type": "uint256"
        }
      ],
      "name": "mint",
      "outputs": [],
      "stateMutability": "nonpayable",
      "type": "function"
    },
    {
      "inputs": [],
      "name": "name",
      "outputs": [
        {
          "internalType": "string",
          "name": "",
          "type": "string"
        }
      ],
      "stateMutability": "view",
      "type": "function"
    },
    {
      "inputs": [],
      "name": "pause",
      "outputs": [],
      "stateMutability": "nonpayable",
      "type": "function"
    },
    {
      "inputs": [],
      "name": "paused",
      "outputs": [
        {
          "internalType": "bool",
          "name": "",
          "type": "bool"
        }
      ],
      "stateMutability": "view",
      "type": "function"
    },
    {
      "inputs": [],
      "name": "symbol",
      "outputs": [
        {
          "internalType": "string",
          "name": "",
          "type": "string"
        }
      ],
      "stateMutability": "view",
      "type": "function"
    },
    {
      "inputs": [],
      "name": "totalSupply",
      "outputs": [
        {
          "internalType": "uint256",
          "name": "",
          "type": "uint256"
        }
      ],
      "stateMutability": "view",
      "type": "function"
    },
    {
      "inputs": [
        {
          "internalType": "address",
          "name": "recipient",
          "type": "address"
        },
        {
          "internalType": "uint256",
          "name": "amount",
          "type": "uint256"
        }
      ],
      "name": "transfer",
      "outputs": [
        {
          "internalType": "bool",
          "name": "",
          "type": "bool"
        }
      ],
      "stateMutability": "nonpayable",
      "type": "function"
    },
    {
      "inputs": [
        {
          "internalType": "address",
          "name": "sender",
          "type": "address"
        },
        {
          "internalType": "address",
          "name": "recipient",
          "type": "address"
        },
        {
          "internalType": "uint256",
          "name": "amount",
          "type": "uint256"
        }
      ],
      "name": "transferFrom",
      "outputs": [
        {
          "internalType": "bool",
          "name": "",
          "type": "bool"
        }
      ],
      "stateMutability": "nonpayable",
      "type": "function"
    },
    {
      "inputs": [],
      "name": "unpause",
      "outputs": [],
      "stateMutability": "nonpayable",
      "type": "function"
    },
    {
      "inputs": [
        {
          "internalType": "address",
          "name": "manager",
          "type": "address"
        }
      ],
      "name": "updateManager",
      "outputs": [],
      "stateMutability": "nonpayable",
      "type": "function"
    }
  ],
  "bytecode": "0x60806040523480156200001157600080fd5b5060405162003eb138038062003eb1833981810160405281019062000037919062000ce9565b6200004b848484846200005560201b60201c565b5050505062001084565b600060019054906101000a900460ff16806200007c575060008054906101000a900460ff16155b620000be576040517f08c379a0000000000000000000000000000000000000000000000000000000008152600401620000b59062000df7565b60405180910390fd5b60008060019054906101000a900460ff1615905080156200010f576001600060016101000a81548160ff02191690831515021790555060016000806101000a81548160ff0219169083151502179055505b62000120826200017c60201b60201c565b6200013285856200027d60201b60201c565b62000143836200038060201b60201c565b620001536200048160201b60201c565b8015620001755760008060016101000a81548160ff0219169083151502179055505b5050505050565b600060019054906101000a900460ff1680620001a3575060008054906101000a900460ff16155b620001e5576040517f08c379a0000000000000000000000000000000000000000000000000000000008152600401620001dc9062000df7565b60405180910390fd5b60008060019054906101000a900460ff16159050801562000236576001600060016101000a81548160ff02191690831515021790555060016000806101000a81548160ff0219169083151502179055505b620002466200056060201b60201c565b62000257826200065f60201b60201c565b8015620002795760008060016101000a81548160ff0219169083151502179055505b5050565b600060019054906101000a900460ff1680620002a4575060008054906101000a900460ff16155b620002e6576040517f08c379a0000000000000000000000000000000000000000000000000000000008152600401620002dd9062000df7565b60405180910390fd5b60008060019054906101000a900460ff16159050801562000337576001600060016101000a81548160ff02191690831515021790555060016000806101000a81548160ff0219169083151502179055505b620003476200078060201b60201c565b6200035983836200085f60201b60201c565b80156200037b5760008060016101000a81548160ff0219169083151502179055505b505050565b600060019054906101000a900460ff1680620003a7575060008054906101000a900460ff16155b620003e9576040517f08c379a0000000000000000000000000000000000000000000000000000000008152600401620003e09062000df7565b60405180910390fd5b60008060019054906101000a900460ff1615905080156200043a576001600060016101000a81548160ff02191690831515021790555060016000806101000a81548160ff0219169083151502179055505b6200044a6200078060201b60201c565b6200045b826200097260201b60201c565b80156200047d5760008060016101000a81548160ff0219169083151502179055505b5050565b600060019054906101000a900460ff1680620004a8575060008054906101000a900460ff16155b620004ea576040517f08c379a0000000000000000000000000000000000000000000000000000000008152600401620004e19062000df7565b60405180910390fd5b60008060019054906101000a900460ff1615905080156200053b576001600060016101000a81548160ff02191690831515021790555060016000806101000a81548160ff0219169083151502179055505b80156200055d5760008060016101000a81548160ff0219169083151502179055505b50565b600060019054906101000a900460ff168062000587575060008054906101000a900460ff16155b620005c9576040517f08c379a0000000000000000000000000000000000000000000000000000000008152600401620005c09062000df7565b60405180910390fd5b60008060019054906101000a900460ff1615905080156200061a576001600060016101000a81548160ff02191690831515021790555060016000806101000a81548160ff0219169083151502179055505b6200062a6200078060201b60201c565b6200063a62000a9f60201b60201c565b80156200065c5760008060016101000a81548160ff0219169083151502179055505b50565b600060019054906101000a900460ff168062000686575060008054906101000a900460ff16155b620006c8576040517f08c379a0000000000000000000000000000000000000000000000000000000008152600401620006bf9062000df7565b60405180910390fd5b60008060019054906101000a900460ff16159050801562000719576001600060016101000a81548160ff02191690831515021790555060016000806101000a81548160ff0219169083151502179055505b81606560006101000a81548173ffffffffffffffffffffffffffffffffffffffff021916908373ffffffffffffffffffffffffffffffffffffffff16021790555080156200077c5760008060016101000a81548160ff0219169083151502179055505b5050565b600060019054906101000a900460ff1680620007a7575060008054906101000a900460ff16155b620007e9576040517f08c379a0000000000000000000000000000000000000000000000000000000008152600401620007e09062000df7565b60405180910390fd5b60008060019054906101000a900460ff1615905080156200083a576001600060016101000a81548160ff02191690831515021790555060016000806101000a81548160ff0219169083151502179055505b80156200085c5760008060016101000a81548160ff0219169083151502179055505b50565b600060019054906101000a900460ff168062000886575060008054906101000a900460ff16155b620008c8576040517f08c379a0000000000000000000000000000000000000000000000000000000008152600401620008bf9062000df7565b60405180910390fd5b60008060019054906101000a900460ff16159050801562000919576001600060016101000a81548160ff02191690831515021790555060016000806101000a81548160ff0219169083151502179055505b82606990805190602001906200093192919062000b99565b5081606a90805190602001906200094a92919062000b99565b5080156200096d5760008060016101000a81548160ff0219169083151502179055505b505050565b600060019054906101000a900460ff168062000999575060008054906101000a900460ff16155b620009db576040517f08c379a0000000000000000000000000000000000000000000000000000000008152600401620009d29062000df7565b60405180910390fd5b60008060019054906101000a900460ff16159050801562000a2c576001600060016101000a81548160ff02191690831515021790555060016000806101000a81548160ff0219169083151502179055505b6000821162000a72576040517f08c379a000000000000000000000000000000000000000000000000000000000815260040162000a699062000dd5565b60405180910390fd5b81609881905550801562000a9b5760008060016101000a81548160ff0219169083151502179055505b5050565b600060019054906101000a900460ff168062000ac6575060008054906101000a900460ff16155b62000b08576040517f08c379a000000000000000000000000000000000000000000000000000000000815260040162000aff9062000df7565b60405180910390fd5b60008060019054906101000a900460ff16159050801562000b59576001600060016101000a81548160ff02191690831515021790555060016000806101000a81548160ff0219169083151502179055505b6000603360006101000a81548160ff021916908315150217905550801562000b965760008060016101000a81548160ff0219169083151502179055505b50565b82805462000ba79062000efd565b90600052602060002090601f01602090048101928262000bcb576000855562000c17565b82601f1062000be657805160ff191683800117855562000c17565b8280016001018555821562000c17579182015b8281111562000c1657825182559160200191906001019062000bf9565b5b50905062000c26919062000c2a565b5090565b5b8082111562000c4557600081600090555060010162000c2b565b5090565b600062000c6062000c5a8462000e42565b62000e19565b90508281526020810184848401111562000c7957600080fd5b62000c8684828562000ec7565b509392505050565b60008151905062000c9f8162001050565b92915050565b600082601f83011262000cb757600080fd5b815162000cc984826020860162000c49565b91505092915050565b60008151905062000ce3816200106a565b92915050565b6000806000806080858703121562000d0057600080fd5b600085015167ffffffffffffffff81111562000d1b57600080fd5b62000d298782880162000ca5565b945050602085015167ffffffffffffffff81111562000d4757600080fd5b62000d558782880162000ca5565b935050604062000d688782880162000cd2565b925050606062000d7b8782880162000c8e565b91505092959194509250565b600062000d9660158362000e78565b915062000da38262000fd8565b602082019050919050565b600062000dbd602e8362000e78565b915062000dca8262001001565b604082019050919050565b6000602082019050818103600083015262000df08162000d87565b9050919050565b6000602082019050818103600083015262000e128162000dae565b9050919050565b600062000e2562000e38565b905062000e33828262000f33565b919050565b6000604051905090565b600067ffffffffffffffff82111562000e605762000e5f62000f98565b5b62000e6b8262000fc7565b9050602081019050919050565b600082825260208201905092915050565b600062000e968262000e9d565b9050919050565b600073ffffffffffffffffffffffffffffffffffffffff82169050919050565b6000819050919050565b60005b8381101562000ee757808201518184015260208101905062000eca565b8381111562000ef7576000848401525b50505050565b6000600282049050600182168062000f1657607f821691505b6020821081141562000f2d5762000f2c62000f69565b5b50919050565b62000f3e8262000fc7565b810181811067ffffffffffffffff8211171562000f605762000f5f62000f98565b5b80604052505050565b7f4e487b7100000000000000000000000000000000000000000000000000000000600052602260045260246000fd5b7f4e487b7100000000000000000000000000000000000000000000000000000000600052604160045260246000fd5b6000601f19601f8301169050919050565b7f45524332304361707065643a2063617020697320300000000000000000000000600082015250565b7f496e697469616c697a61626c653a20636f6e747261637420697320616c72656160008201527f647920696e697469616c697a6564000000000000000000000000000000000000602082015250565b6200105b8162000e89565b81146200106757600080fd5b50565b620010758162000ebd565b81146200108157600080fd5b50565b612e1d80620010946000396000f3fe608060405234801561001057600080fd5b506004361061014d5760003560e01c80635c975abb116100c3578063a217fddf1161007c578063a217fddf1461037c578063a457c2d71461039a578063a9059cbb146103ca578063aa271e1a146103fa578063dd62ed3e1461042a578063e63ab1e91461045a5761014d565b80635c975abb146102b857806370a08231146102d657806373f42561146103065780638456cb591461032457806391d148541461032e57806395d89b411461035e5761014d565b8063355274ea11610115578063355274ea1461020c578063395093511461022a5780633f4ba83a1461025a57806340c10f191461026457806342966c681461028057806358aba00f1461029c5761014d565b806306fdde0314610152578063095ea7b31461017057806318160ddd146101a057806323b872dd146101be578063313ce567146101ee575b600080fd5b61015a610478565b6040516101679190612421565b60405180910390f35b61018a60048036038101906101859190611f4f565b61050a565b60405161019791906123c2565b60405180910390f35b6101a8610528565b6040516101b59190612643565b60405180910390f35b6101d860048036038101906101d39190611f00565b610532565b6040516101e591906123c2565b60405180910390f35b6101f661062a565b604051610203919061265e565b60405180910390f35b610214610633565b6040516102219190612643565b60405180910390f35b610244600480360381019061023f9190611f4f565b61063d565b60405161025191906123c2565b60405180910390f35b6102626106e9565b005b61027e60048036038101906102799190611f4f565b61085f565b005b61029a60048036038101906102959190611ff0565b6109d9565b005b6102b660048036038101906102b19190611e9b565b6109ed565b005b6102c0610b80565b6040516102cd91906123c2565b60405180910390f35b6102f060048036038101906102eb9190611e9b565b610b97565b6040516102fd9190612643565b60405180910390f35b61030e610be0565b60405161031b9190612643565b60405180910390f35b61032c610bea565b005b61034860048036038101906103439190611fb4565b610d60565b60405161035591906123c2565b60405180910390f35b610366610e1c565b6040516103739190612421565b60405180910390f35b610384610eae565b60405161039191906123dd565b60405180910390f35b6103b460048036038101906103af9190611f4f565b610eb5565b6040516103c191906123c2565b60405180910390f35b6103e460048036038101906103df9190611f4f565b610fa0565b6040516103f191906123c2565b60405180910390f35b610414600480360381019061040f9190611e9b565b610fbe565b60405161042191906123c2565b60405180910390f35b610444600480360381019061043f9190611ec4565b610ff1565b6040516104519190612643565b60405180910390f35b610462611078565b60405161046f91906123dd565b60405180910390f35b60606069805461048790612840565b80601f01602080910402602001604051908101604052809291908181526020018280546104b390612840565b80156105005780601f106104d557610100808354040283529160200191610500565b820191906000526020600020905b8154815290600101906020018083116104e357829003601f168201915b5050505050905090565b600061051e61051761109c565b84846110a4565b6001905092915050565b6000606854905090565b600061053f84848461126f565b6000606760008673ffffffffffffffffffffffffffffffffffffffff1673ffffffffffffffffffffffffffffffffffffffff168152602001908152602001600020600061058a61109c565b73ffffffffffffffffffffffffffffffffffffffff1673ffffffffffffffffffffffffffffffffffffffff1681526020019081526020016000205490508281101561060a576040517f08c379a000000000000000000000000000000000000000000000000000000000815260040161060190612523565b60405180910390fd5b61061e8561061661109c565b8584036110a4565b60019150509392505050565b60006012905090565b6000609854905090565b60006106df61064a61109c565b84846067600061065861109c565b73ffffffffffffffffffffffffffffffffffffffff1673ffffffffffffffffffffffffffffffffffffffff16815260200190815260200160002060008873ffffffffffffffffffffffffffffffffffffffff1673ffffffffffffffffffffffffffffffffffffffff168152602001908152602001600020546106da91906126a0565b6110a4565b6001905092915050565b7f65d7a28e3265b37a6474929f336521b332c1681b933f6cb9f3376673440d862a6000606560009054906101000a900473ffffffffffffffffffffffffffffffffffffffff16905060003390508173ffffffffffffffffffffffffffffffffffffffff166391d1485484836040518363ffffffff1660e01b81526004016107719291906123f8565b60206040518083038186803b15801561078957600080fd5b505afa15801561079d573d6000803e3d6000fd5b505050506040513d601f19601f820116820180604052508101906107c19190611f8b565b6107e28273ffffffffffffffffffffffffffffffffffffffff1660146114f3565b6107f08560001c60206114f3565b604051602001610801929190612344565b60405160208183030381529060405290610851576040517f08c379a00000000000000000000000000000000000000000000000000000000081526004016108489190612421565b60405180910390fd5b5061085a6117ed565b505050565b7f9f2df0fed2c77648de5860a4cc508cd0818c85b8b8a1ab4ceeef8d981c8956a66000606560009054906101000a900473ffffffffffffffffffffffffffffffffffffffff16905060003390508173ffffffffffffffffffffffffffffffffffffffff166391d1485484836040518363ffffffff1660e01b81526004016108e79291906123f8565b60206040518083038186803b1580156108ff57600080fd5b505afa158015610913573d6000803e3d6000fd5b505050506040513d601f19601f820116820180604052508101906109379190611f8b565b6109588273ffffffffffffffffffffffffffffffffffffffff1660146114f3565b6109668560001c60206114f3565b604051602001610977929190612344565b604051602081830303815290604052906109c7576040517f08c379a00000000000000000000000000000000000000000000000000000000081526004016109be9190612421565b60405180910390fd5b506109d2858561188f565b5050505050565b6109ea6109e461109c565b8261193f565b50565b6000801b6000606560009054906101000a900473ffffffffffffffffffffffffffffffffffffffff16905060003390508173ffffffffffffffffffffffffffffffffffffffff166391d1485484836040518363ffffffff1660e01b8152600401610a589291906123f8565b60206040518083038186803b158015610a7057600080fd5b505afa158015610a84573d6000803e3d6000fd5b505050506040513d601f19601f82011682018060405250810190610aa89190611f8b565b610ac98273ffffffffffffffffffffffffffffffffffffffff1660146114f3565b610ad78560001c60206114f3565b604051602001610ae8929190612344565b60405160208183030381529060405290610b38576040517f08c379a0000000000000000000000000000000000000000000000000000000008152600401610b2f9190612421565b60405180910390fd5b5083606560006101000a81548173ffffffffffffffffffffffffffffffffffffffff021916908373ffffffffffffffffffffffffffffffffffffffff16021790555050505050565b6000603360009054906101000a900460ff16905090565b6000606660008373ffffffffffffffffffffffffffffffffffffffff1673ffffffffffffffffffffffffffffffffffffffff168152602001908152602001600020549050919050565b600060cb54905090565b7f65d7a28e3265b37a6474929f336521b332c1681b933f6cb9f3376673440d862a6000606560009054906101000a900473ffffffffffffffffffffffffffffffffffffffff16905060003390508173ffffffffffffffffffffffffffffffffffffffff166391d1485484836040518363ffffffff1660e01b8152600401610c729291906123f8565b60206040518083038186803b158015610c8a57600080fd5b505afa158015610c9e573d6000803e3d6000fd5b505050506040513d601f19601f82011682018060405250810190610cc29190611f8b565b610ce38273ffffffffffffffffffffffffffffffffffffffff1660146114f3565b610cf18560001c60206114f3565b604051602001610d02929190612344565b60405160208183030381529060405290610d52576040517f08c379a0000000000000000000000000000000000000000000000000000000008152600401610d499190612421565b60405180910390fd5b50610d5b6119f6565b505050565b600080606560009054906101000a900473ffffffffffffffffffffffffffffffffffffffff1690508073ffffffffffffffffffffffffffffffffffffffff166391d1485485856040518363ffffffff1660e01b8152600401610dc39291906123f8565b60206040518083038186803b158015610ddb57600080fd5b505afa158015610def573d6000803e3d6000fd5b505050506040513d601f19601f82011682018060405250810190610e139190611f8b565b91505092915050565b6060606a8054610e2b90612840565b80601f0160208091040260200160405190810160405280929190818152602001828054610e5790612840565b8015610ea45780601f10610e7957610100808354040283529160200191610ea4565b820191906000526020600020905b815481529060010190602001808311610e8757829003601f168201915b5050505050905090565b6000801b81565b60008060676000610ec461109c565b73ffffffffffffffffffffffffffffffffffffffff1673ffffffffffffffffffffffffffffffffffffffff16815260200190815260200160002060008573ffffffffffffffffffffffffffffffffffffffff1673ffffffffffffffffffffffffffffffffffffffff16815260200190815260200160002054905082811015610f81576040517f08c379a0000000000000000000000000000000000000000000000000000000008152600401610f7890612603565b60405180910390fd5b610f95610f8c61109c565b858584036110a4565b600191505092915050565b6000610fb4610fad61109c565b848461126f565b6001905092915050565b6000610fea7f9f2df0fed2c77648de5860a4cc508cd0818c85b8b8a1ab4ceeef8d981c8956a683610d60565b9050919050565b6000606760008473ffffffffffffffffffffffffffffffffffffffff1673ffffffffffffffffffffffffffffffffffffffff16815260200190815260200160002060008373ffffffffffffffffffffffffffffffffffffffff1673ffffffffffffffffffffffffffffffffffffffff16815260200190815260200160002054905092915050565b7f65d7a28e3265b37a6474929f336521b332c1681b933f6cb9f3376673440d862a81565b600033905090565b600073ffffffffffffffffffffffffffffffffffffffff168373ffffffffffffffffffffffffffffffffffffffff161415611114576040517f08c379a000000000000000000000000000000000000000000000000000000000815260040161110b906125a3565b60405180910390fd5b600073ffffffffffffffffffffffffffffffffffffffff168273ffffffffffffffffffffffffffffffffffffffff161415611184576040517f08c379a000000000000000000000000000000000000000000000000000000000815260040161117b906124c3565b60405180910390fd5b80606760008573ffffffffffffffffffffffffffffffffffffffff1673ffffffffffffffffffffffffffffffffffffffff16815260200190815260200160002060008473ffffffffffffffffffffffffffffffffffffffff1673ffffffffffffffffffffffffffffffffffffffff168152602001908152602001600020819055508173ffffffffffffffffffffffffffffffffffffffff168373ffffffffffffffffffffffffffffffffffffffff167f8c5be1e5ebec7d5bd14f71427d1e84f3dd0314c0f7b2291e5b200ac8c7c3b925836040516112629190612643565b60405180910390a3505050565b600073ffffffffffffffffffffffffffffffffffffffff168373ffffffffffffffffffffffffffffffffffffffff1614156112df576040517f08c379a00000000000000000000000000000000000000000000000000000000081526004016112d690612563565b60405180910390fd5b600073ffffffffffffffffffffffffffffffffffffffff168273ffffffffffffffffffffffffffffffffffffffff16141561134f576040517f08c379a000000000000000000000000000000000000000000000000000000000815260040161134690612463565b60405180910390fd5b61135a838383611a99565b6000606660008573ffffffffffffffffffffffffffffffffffffffff1673ffffffffffffffffffffffffffffffffffffffff168152602001908152602001600020549050818110156113e1576040517f08c379a00000000000000000000000000000000000000000000000000000000081526004016113d8906124e3565b60405180910390fd5b818103606660008673ffffffffffffffffffffffffffffffffffffffff1673ffffffffffffffffffffffffffffffffffffffff1681526020019081526020016000208190555081606660008573ffffffffffffffffffffffffffffffffffffffff1673ffffffffffffffffffffffffffffffffffffffff168152602001908152602001600020600082825461147691906126a0565b925050819055508273ffffffffffffffffffffffffffffffffffffffff168473ffffffffffffffffffffffffffffffffffffffff167fddf252ad1be2c89b69c2b068fc378daa952ba7f163c4a11628f55a4df523b3ef846040516114da9190612643565b60405180910390a36114ed848484611a9e565b50505050565b60606000600283600261150691906126f6565b61151091906126a0565b67ffffffffffffffff81111561154f577f4e487b7100000000000000000000000000000000000000000000000000000000600052604160045260246000fd5b6040519080825280601f01601f1916602001820160405280156115815781602001600182028036833780820191505090505b5090507f3000000000000000000000000000000000000000000000000000000000000000816000815181106115df577f4e487b7100000000000000000000000000000000000000000000000000000000600052603260045260246000fd5b60200101907effffffffffffffffffffffffffffffffffffffffffffffffffffffffffffff1916908160001a9053507f780000000000000000000000000000000000000000000000000000000000000081600181518110611669577f4e487b7100000000000000000000000000000000000000000000000000000000600052603260045260246000fd5b60200101907effffffffffffffffffffffffffffffffffffffffffffffffffffffffffffff1916908160001a905350600060018460026116a991906126f6565b6116b391906126a0565b90505b600181111561179f577f3031323334353637383961626364656600000000000000000000000000000000600f86166010811061171b577f4e487b7100000000000000000000000000000000000000000000000000000000600052603260045260246000fd5b1a60f81b828281518110611758577f4e487b7100000000000000000000000000000000000000000000000000000000600052603260045260246000fd5b60200101907effffffffffffffffffffffffffffffffffffffffffffffffffffffffffffff1916908160001a905350600485901c94508061179890612816565b90506116b6565b50600084146117e3576040517f08c379a00000000000000000000000000000000000000000000000000000000081526004016117da90612443565b60405180910390fd5b8091505092915050565b6117f5610b80565b611834576040517f08c379a000000000000000000000000000000000000000000000000000000000815260040161182b90612483565b60405180910390fd5b6000603360006101000a81548160ff0219169083151502179055507f5db9ee0a495bf2e6ff9c91a7834c1ba4fdd244a5e8aa4e537bd38aeae4b073aa61187861109c565b604051611885919061237e565b60405180910390a1565b611897610633565b8160cb546118a3610528565b6118ad91906126a0565b6118b791906126a0565b11156118f8576040517f08c379a00000000000000000000000000000000000000000000000000000000081526004016118ef906125e3565b60405180910390fd5b6119028282611aa3565b7f0f6798a560793a54c3bcfe86a93cde1e73087d944c0ea20544137d41213968858282604051611933929190612399565b60405180910390a15050565b8060cb5461194b610528565b6119559190612750565b1015611996576040517f08c379a000000000000000000000000000000000000000000000000000000000815260040161198d906125c3565b60405180910390fd5b8060cb60008282546119a891906126a0565b925050819055506119b98282611b0d565b7fcc16f5dbb4873280815c1ee09dbd06736cffcc184412cf7a71a0fdb75d397ca582826040516119ea929190612399565b60405180910390a15050565b6119fe610b80565b15611a3e576040517f08c379a0000000000000000000000000000000000000000000000000000000008152600401611a3590612503565b60405180910390fd5b6001603360006101000a81548160ff0219169083151502179055507f62e78cea01bee320cd4e420270b5ea74000d11b0c9f74754ebdbfc544b05a258611a8261109c565b604051611a8f919061237e565b60405180910390a1565b505050565b505050565b611aab610633565b81611ab4610528565b611abe91906126a0565b1115611aff576040517f08c379a0000000000000000000000000000000000000000000000000000000008152600401611af690612583565b60405180910390fd5b611b098282611ce6565b5050565b600073ffffffffffffffffffffffffffffffffffffffff168273ffffffffffffffffffffffffffffffffffffffff161415611b7d576040517f08c379a0000000000000000000000000000000000000000000000000000000008152600401611b7490612543565b60405180910390fd5b611b8982600083611a99565b6000606660008473ffffffffffffffffffffffffffffffffffffffff1673ffffffffffffffffffffffffffffffffffffffff16815260200190815260200160002054905081811015611c10576040517f08c379a0000000000000000000000000000000000000000000000000000000008152600401611c07906124a3565b60405180910390fd5b818103606660008573ffffffffffffffffffffffffffffffffffffffff1673ffffffffffffffffffffffffffffffffffffffff168152602001908152602001600020819055508160686000828254611c689190612750565b92505081905550600073ffffffffffffffffffffffffffffffffffffffff168373ffffffffffffffffffffffffffffffffffffffff167fddf252ad1be2c89b69c2b068fc378daa952ba7f163c4a11628f55a4df523b3ef84604051611ccd9190612643565b60405180910390a3611ce183600084611a9e565b505050565b600073ffffffffffffffffffffffffffffffffffffffff168273ffffffffffffffffffffffffffffffffffffffff161415611d56576040517f08c379a0000000000000000000000000000000000000000000000000000000008152600401611d4d90612623565b60405180910390fd5b611d6260008383611a99565b8060686000828254611d7491906126a0565b9250508190555080606660008473ffffffffffffffffffffffffffffffffffffffff1673ffffffffffffffffffffffffffffffffffffffff1681526020019081526020016000206000828254611dca91906126a0565b925050819055508173ffffffffffffffffffffffffffffffffffffffff16600073ffffffffffffffffffffffffffffffffffffffff167fddf252ad1be2c89b69c2b068fc378daa952ba7f163c4a11628f55a4df523b3ef83604051611e2f9190612643565b60405180910390a3611e4360008383611a9e565b5050565b600081359050611e5681612d8b565b92915050565b600081519050611e6b81612da2565b92915050565b600081359050611e8081612db9565b92915050565b600081359050611e9581612dd0565b92915050565b600060208284031215611ead57600080fd5b6000611ebb84828501611e47565b91505092915050565b60008060408385031215611ed757600080fd5b6000611ee585828601611e47565b9250506020611ef685828601611e47565b9150509250929050565b600080600060608486031215611f1557600080fd5b6000611f2386828701611e47565b9350506020611f3486828701611e47565b9250506040611f4586828701611e86565b9150509250925092565b60008060408385031215611f6257600080fd5b6000611f7085828601611e47565b9250506020611f8185828601611e86565b9150509250929050565b600060208284031215611f9d57600080fd5b6000611fab84828501611e5c565b91505092915050565b60008060408385031215611fc757600080fd5b6000611fd585828601611e71565b9250506020611fe685828601611e47565b9150509250929050565b60006020828403121561200257600080fd5b600061201084828501611e86565b91505092915050565b61202281612784565b82525050565b61203181612796565b82525050565b612040816127a2565b82525050565b600061205182612679565b61205b8185612684565b935061206b8185602086016127e3565b612074816128d0565b840191505092915050565b600061208a82612679565b6120948185612695565b93506120a48185602086016127e3565b80840191505092915050565b60006120bd602083612684565b91506120c8826128e1565b602082019050919050565b60006120e0602383612684565b91506120eb8261290a565b604082019050919050565b6000612103602483612695565b915061210e82612959565b602482019050919050565b6000612126601483612684565b9150612131826129a8565b602082019050919050565b6000612149602283612684565b9150612154826129d1565b604082019050919050565b600061216c602283612684565b915061217782612a20565b604082019050919050565b600061218f602683612684565b915061219a82612a6f565b604082019050919050565b60006121b2601083612684565b91506121bd82612abe565b602082019050919050565b60006121d5602883612684565b91506121e082612ae7565b604082019050919050565b60006121f8602183612684565b915061220382612b36565b604082019050919050565b600061221b602583612684565b915061222682612b85565b604082019050919050565b600061223e601983612684565b915061224982612bd4565b602082019050919050565b6000612261602483612684565b915061226c82612bfd565b604082019050919050565b6000612284602983612684565b915061228f82612c4c565b604082019050919050565b60006122a7602683612684565b91506122b282612c9b565b604082019050919050565b60006122ca602583612684565b91506122d582612cea565b604082019050919050565b60006122ed601183612695565b91506122f882612d39565b601182019050919050565b6000612310601f83612684565b915061231b82612d62565b602082019050919050565b61232f816127cc565b82525050565b61233e816127d6565b82525050565b600061234f826120f6565b915061235b828561207f565b9150612366826122e0565b9150612372828461207f565b91508190509392505050565b60006020820190506123936000830184612019565b92915050565b60006040820190506123ae6000830185612019565b6123bb6020830184612326565b9392505050565b60006020820190506123d76000830184612028565b92915050565b60006020820190506123f26000830184612037565b92915050565b600060408201905061240d6000830185612037565b61241a6020830184612019565b9392505050565b6000602082019050818103600083015261243b8184612046565b905092915050565b6000602082019050818103600083015261245c816120b0565b9050919050565b6000602082019050818103600083015261247c816120d3565b9050919050565b6000602082019050818103600083015261249c81612119565b9050919050565b600060208201905081810360008301526124bc8161213c565b9050919050565b600060208201905081810360008301526124dc8161215f565b9050919050565b600060208201905081810360008301526124fc81612182565b9050919050565b6000602082019050818103600083015261251c816121a5565b9050919050565b6000602082019050818103600083015261253c816121c8565b9050919050565b6000602082019050818103600083015261255c816121eb565b9050919050565b6000602082019050818103600083015261257c8161220e565b9050919050565b6000602082019050818103600083015261259c81612231565b9050919050565b600060208201905081810360008301526125bc81612254565b9050919050565b600060208201905081810360008301526125dc81612277565b9050919050565b600060208201905081810360008301526125fc8161229a565b9050919050565b6000602082019050818103600083015261261c816122bd565b9050919050565b6000602082019050818103600083015261263c81612303565b9050919050565b60006020820190506126586000830184612326565b92915050565b60006020820190506126736000830184612335565b92915050565b600081519050919050565b600082825260208201905092915050565b600081905092915050565b60006126ab826127cc565b91506126b6836127cc565b9250827fffffffffffffffffffffffffffffffffffffffffffffffffffffffffffffffff038211156126eb576126ea612872565b5b828201905092915050565b6000612701826127cc565b915061270c836127cc565b9250817fffffffffffffffffffffffffffffffffffffffffffffffffffffffffffffffff048311821515161561274557612744612872565b5b828202905092915050565b600061275b826127cc565b9150612766836127cc565b92508282101561277957612778612872565b5b828203905092915050565b600061278f826127ac565b9050919050565b60008115159050919050565b6000819050919050565b600073ffffffffffffffffffffffffffffffffffffffff82169050919050565b6000819050919050565b600060ff82169050919050565b60005b838110156128015780820151818401526020810190506127e6565b83811115612810576000848401525b50505050565b6000612821826127cc565b9150600082141561283557612834612872565b5b600182039050919050565b6000600282049050600182168061285857607f821691505b6020821081141561286c5761286b6128a1565b5b50919050565b7f4e487b7100000000000000000000000000000000000000000000000000000000600052601160045260246000fd5b7f4e487b7100000000000000000000000000000000000000000000000000000000600052602260045260246000fd5b6000601f19601f8301169050919050565b7f537472696e67733a20686578206c656e67746820696e73756666696369656e74600082015250565b7f45524332303a207472616e7366657220746f20746865207a65726f206164647260008201527f6573730000000000000000000000000000000000000000000000000000000000602082015250565b7f416363657373436f6e74726f6c50726f78795061757361626c653a206163636f60008201527f756e742000000000000000000000000000000000000000000000000000000000602082015250565b7f5061757361626c653a206e6f7420706175736564000000000000000000000000600082015250565b7f45524332303a206275726e20616d6f756e7420657863656564732062616c616e60008201527f6365000000000000000000000000000000000000000000000000000000000000602082015250565b7f45524332303a20617070726f766520746f20746865207a65726f20616464726560008201527f7373000000000000000000000000000000000000000000000000000000000000602082015250565b7f45524332303a207472616e7366657220616d6f756e742065786365656473206260008201527f616c616e63650000000000000000000000000000000000000000000000000000602082015250565b7f5061757361626c653a2070617573656400000000000000000000000000000000600082015250565b7f45524332303a207472616e7366657220616d6f756e742065786365656473206160008201527f6c6c6f77616e6365000000000000000000000000000000000000000000000000602082015250565b7f45524332303a206275726e2066726f6d20746865207a65726f2061646472657360008201527f7300000000000000000000000000000000000000000000000000000000000000602082015250565b7f45524332303a207472616e736665722066726f6d20746865207a65726f20616460008201527f6472657373000000000000000000000000000000000000000000000000000000602082015250565b7f45524332304361707065643a2063617020657863656564656400000000000000600082015250565b7f45524332303a20617070726f76652066726f6d20746865207a65726f2061646460008201527f7265737300000000000000000000000000000000000000000000000000000000602082015250565b7f547574656c6c757345524332303a206275726e20616d6f756e7420657863656560008201527f647320737570706c790000000000000000000000000000000000000000000000602082015250565b7f547574656c6c757345524332303a206d696e7420616d6f756e7420657863656560008201527f6473206361700000000000000000000000000000000000000000000000000000602082015250565b7f45524332303a2064656372656173656420616c6c6f77616e63652062656c6f7760008201527f207a65726f000000000000000000000000000000000000000000000000000000602082015250565b7f206973206d697373696e6720726f6c6520000000000000000000000000000000600082015250565b7f45524332303a206d696e7420746f20746865207a65726f206164647265737300600082015250565b612d9481612784565b8114612d9f57600080fd5b50565b612dab81612796565b8114612db657600080fd5b50565b612dc2816127a2565b8114612dcd57600080fd5b50565b612dd9816127cc565b8114612de457600080fd5b5056fea26469706673582212208eb58fe691cfd26420b178a90f42c15fdcbbcb492fba62f0abc49b61c2e3a76f64736f6c63430008020033",
  "linkReferences": {},
  "deployedLinkReferences": {}
}