{
  "_format": "hh-sol-artifact-1",
  "contractName": "TutellusERC20",
  "sourceName": "contracts/utils/TutellusERC20.sol",
  "abi": [
    {
      "inputs": [
        {
          "internalType": "string",
          "name": "name",
          "type": "string"
        },
        {
          "internalType": "string",
          "name": "symbol",
          "type": "string"
        },
        {
          "internalType": "uint256",
          "name": "cap",
          "type": "uint256"
        },
        {
          "internalType": "address",
          "name": "rolemanager",
          "type": "address"
        }
      ],
      "stateMutability": "nonpayable",
      "type": "constructor"
    },
    {
      "anonymous": false,
      "inputs": [
        {
          "indexed": true,
          "internalType": "address",
          "name": "owner",
          "type": "address"
        },
        {
          "indexed": true,
          "internalType": "address",
          "name": "spender",
          "type": "address"
        },
        {
          "indexed": false,
          "internalType": "uint256",
          "name": "value",
          "type": "uint256"
        }
      ],
      "name": "Approval",
      "type": "event"
    },
    {
      "anonymous": false,
      "inputs": [
        {
          "indexed": false,
          "internalType": "address",
          "name": "account",
          "type": "address"
        },
        {
          "indexed": false,
          "internalType": "uint256",
          "name": "amount",
          "type": "uint256"
        }
      ],
      "name": "Burn",
      "type": "event"
    },
    {
      "anonymous": false,
      "inputs": [
        {
          "indexed": false,
          "internalType": "address",
          "name": "account",
          "type": "address"
        },
        {
          "indexed": false,
          "internalType": "uint256",
          "name": "amount",
          "type": "uint256"
        }
      ],
      "name": "Mint",
      "type": "event"
    },
    {
      "anonymous": false,
      "inputs": [
        {
          "indexed": false,
          "internalType": "address",
          "name": "account",
          "type": "address"
        }
      ],
      "name": "Paused",
      "type": "event"
    },
    {
      "anonymous": false,
      "inputs": [
        {
          "indexed": true,
          "internalType": "address",
          "name": "from",
          "type": "address"
        },
        {
          "indexed": true,
          "internalType": "address",
          "name": "to",
          "type": "address"
        },
        {
          "indexed": false,
          "internalType": "uint256",
          "name": "value",
          "type": "uint256"
        }
      ],
      "name": "Transfer",
      "type": "event"
    },
    {
      "anonymous": false,
      "inputs": [
        {
          "indexed": false,
          "internalType": "address",
          "name": "account",
          "type": "address"
        }
      ],
      "name": "Unpaused",
      "type": "event"
    },
    {
      "inputs": [],
      "name": "DEFAULT_ADMIN_ROLE",
      "outputs": [
        {
          "internalType": "bytes32",
          "name": "",
          "type": "bytes32"
        }
      ],
      "stateMutability": "view",
      "type": "function"
    },
    {
      "inputs": [],
      "name": "PAUSER_ROLE",
      "outputs": [
        {
          "internalType": "bytes32",
          "name": "",
          "type": "bytes32"
        }
      ],
      "stateMutability": "view",
      "type": "function"
    },
    {
      "inputs": [
        {
          "internalType": "address",
          "name": "owner",
          "type": "address"
        },
        {
          "internalType": "address",
          "name": "spender",
          "type": "address"
        }
      ],
      "name": "allowance",
      "outputs": [
        {
          "internalType": "uint256",
          "name": "",
          "type": "uint256"
        }
      ],
      "stateMutability": "view",
      "type": "function"
    },
    {
      "inputs": [
        {
          "internalType": "address",
          "name": "spender",
          "type": "address"
        },
        {
          "internalType": "uint256",
          "name": "amount",
          "type": "uint256"
        }
      ],
      "name": "approve",
      "outputs": [
        {
          "internalType": "bool",
          "name": "",
          "type": "bool"
        }
      ],
      "stateMutability": "nonpayable",
      "type": "function"
    },
    {
      "inputs": [
        {
          "internalType": "address",
          "name": "account",
          "type": "address"
        }
      ],
      "name": "balanceOf",
      "outputs": [
        {
          "internalType": "uint256",
          "name": "",
          "type": "uint256"
        }
      ],
      "stateMutability": "view",
      "type": "function"
    },
    {
      "inputs": [
        {
          "internalType": "uint256",
          "name": "amount",
          "type": "uint256"
        }
      ],
      "name": "burn",
      "outputs": [],
      "stateMutability": "nonpayable",
      "type": "function"
    },
    {
      "inputs": [],
      "name": "burned",
      "outputs": [
        {
          "internalType": "uint256",
          "name": "",
          "type": "uint256"
        }
      ],
      "stateMutability": "view",
      "type": "function"
    },
    {
      "inputs": [],
      "name": "cap",
      "outputs": [
        {
          "internalType": "uint256",
          "name": "",
          "type": "uint256"
        }
      ],
      "stateMutability": "view",
      "type": "function"
    },
    {
      "inputs": [],
      "name": "decimals",
      "outputs": [
        {
          "internalType": "uint8",
          "name": "",
          "type": "uint8"
        }
      ],
      "stateMutability": "view",
      "type": "function"
    },
    {
      "inputs": [
        {
          "internalType": "address",
          "name": "spender",
          "type": "address"
        },
        {
          "internalType": "uint256",
          "name": "subtractedValue",
          "type": "uint256"
        }
      ],
      "name": "decreaseAllowance",
      "outputs": [
        {
          "internalType": "bool",
          "name": "",
          "type": "bool"
        }
      ],
      "stateMutability": "nonpayable",
      "type": "function"
    },
    {
      "inputs": [
        {
          "internalType": "address",
          "name": "spender",
          "type": "address"
        },
        {
          "internalType": "uint256",
          "name": "addedValue",
          "type": "uint256"
        }
      ],
      "name": "increaseAllowance",
      "outputs": [
        {
          "internalType": "bool",
          "name": "",
          "type": "bool"
        }
      ],
      "stateMutability": "nonpayable",
      "type": "function"
    },
    {
      "inputs": [
        {
          "internalType": "address",
          "name": "account",
          "type": "address"
        },
        {
          "internalType": "uint256",
          "name": "amount",
          "type": "uint256"
        }
      ],
      "name": "mint",
      "outputs": [],
      "stateMutability": "nonpayable",
      "type": "function"
    },
    {
      "inputs": [],
      "name": "name",
      "outputs": [
        {
          "internalType": "string",
          "name": "",
          "type": "string"
        }
      ],
      "stateMutability": "view",
      "type": "function"
    },
    {
      "inputs": [],
      "name": "pause",
      "outputs": [],
      "stateMutability": "nonpayable",
      "type": "function"
    },
    {
      "inputs": [],
      "name": "paused",
      "outputs": [
        {
          "internalType": "bool",
          "name": "",
          "type": "bool"
        }
      ],
      "stateMutability": "view",
      "type": "function"
    },
    {
      "inputs": [],
      "name": "symbol",
      "outputs": [
        {
          "internalType": "string",
          "name": "",
          "type": "string"
        }
      ],
      "stateMutability": "view",
      "type": "function"
    },
    {
      "inputs": [],
      "name": "totalSupply",
      "outputs": [
        {
          "internalType": "uint256",
          "name": "",
          "type": "uint256"
        }
      ],
      "stateMutability": "view",
      "type": "function"
    },
    {
      "inputs": [
        {
          "internalType": "address",
          "name": "recipient",
          "type": "address"
        },
        {
          "internalType": "uint256",
          "name": "amount",
          "type": "uint256"
        }
      ],
      "name": "transfer",
      "outputs": [
        {
          "internalType": "bool",
          "name": "",
          "type": "bool"
        }
      ],
      "stateMutability": "nonpayable",
      "type": "function"
    },
    {
      "inputs": [
        {
          "internalType": "address",
          "name": "sender",
          "type": "address"
        },
        {
          "internalType": "address",
          "name": "recipient",
          "type": "address"
        },
        {
          "internalType": "uint256",
          "name": "amount",
          "type": "uint256"
        }
      ],
      "name": "transferFrom",
      "outputs": [
        {
          "internalType": "bool",
          "name": "",
          "type": "bool"
        }
      ],
      "stateMutability": "nonpayable",
      "type": "function"
    },
    {
      "inputs": [],
      "name": "unpause",
      "outputs": [],
      "stateMutability": "nonpayable",
      "type": "function"
    },
    {
      "inputs": [
        {
          "internalType": "address",
          "name": "manager",
          "type": "address"
        }
      ],
      "name": "updateManager",
      "outputs": [],
      "stateMutability": "nonpayable",
      "type": "function"
    }
  ],
  "bytecode": "0x60806040523480156200001157600080fd5b5060405162003ce438038062003ce4833981810160405281019062000037919062000ce9565b6200004b848484846200005560201b60201c565b5050505062001084565b600060019054906101000a900460ff16806200007c575060008054906101000a900460ff16155b620000be576040517f08c379a0000000000000000000000000000000000000000000000000000000008152600401620000b59062000df7565b60405180910390fd5b60008060019054906101000a900460ff1615905080156200010f576001600060016101000a81548160ff02191690831515021790555060016000806101000a81548160ff0219169083151502179055505b62000120826200017c60201b60201c565b6200013285856200027d60201b60201c565b62000143836200038060201b60201c565b620001536200048160201b60201c565b8015620001755760008060016101000a81548160ff0219169083151502179055505b5050505050565b600060019054906101000a900460ff1680620001a3575060008054906101000a900460ff16155b620001e5576040517f08c379a0000000000000000000000000000000000000000000000000000000008152600401620001dc9062000df7565b60405180910390fd5b60008060019054906101000a900460ff16159050801562000236576001600060016101000a81548160ff02191690831515021790555060016000806101000a81548160ff0219169083151502179055505b620002466200056060201b60201c565b62000257826200065f60201b60201c565b8015620002795760008060016101000a81548160ff0219169083151502179055505b5050565b600060019054906101000a900460ff1680620002a4575060008054906101000a900460ff16155b620002e6576040517f08c379a0000000000000000000000000000000000000000000000000000000008152600401620002dd9062000df7565b60405180910390fd5b60008060019054906101000a900460ff16159050801562000337576001600060016101000a81548160ff02191690831515021790555060016000806101000a81548160ff0219169083151502179055505b620003476200078060201b60201c565b6200035983836200085f60201b60201c565b80156200037b5760008060016101000a81548160ff0219169083151502179055505b505050565b600060019054906101000a900460ff1680620003a7575060008054906101000a900460ff16155b620003e9576040517f08c379a0000000000000000000000000000000000000000000000000000000008152600401620003e09062000df7565b60405180910390fd5b60008060019054906101000a900460ff1615905080156200043a576001600060016101000a81548160ff02191690831515021790555060016000806101000a81548160ff0219169083151502179055505b6200044a6200078060201b60201c565b6200045b826200097260201b60201c565b80156200047d5760008060016101000a81548160ff0219169083151502179055505b5050565b600060019054906101000a900460ff1680620004a8575060008054906101000a900460ff16155b620004ea576040517f08c379a0000000000000000000000000000000000000000000000000000000008152600401620004e19062000df7565b60405180910390fd5b60008060019054906101000a900460ff1615905080156200053b576001600060016101000a81548160ff02191690831515021790555060016000806101000a81548160ff0219169083151502179055505b80156200055d5760008060016101000a81548160ff0219169083151502179055505b50565b600060019054906101000a900460ff168062000587575060008054906101000a900460ff16155b620005c9576040517f08c379a0000000000000000000000000000000000000000000000000000000008152600401620005c09062000df7565b60405180910390fd5b60008060019054906101000a900460ff1615905080156200061a576001600060016101000a81548160ff02191690831515021790555060016000806101000a81548160ff0219169083151502179055505b6200062a6200078060201b60201c565b6200063a62000a9f60201b60201c565b80156200065c5760008060016101000a81548160ff0219169083151502179055505b50565b600060019054906101000a900460ff168062000686575060008054906101000a900460ff16155b620006c8576040517f08c379a0000000000000000000000000000000000000000000000000000000008152600401620006bf9062000df7565b60405180910390fd5b60008060019054906101000a900460ff16159050801562000719576001600060016101000a81548160ff02191690831515021790555060016000806101000a81548160ff0219169083151502179055505b81606560006101000a81548173ffffffffffffffffffffffffffffffffffffffff021916908373ffffffffffffffffffffffffffffffffffffffff16021790555080156200077c5760008060016101000a81548160ff0219169083151502179055505b5050565b600060019054906101000a900460ff1680620007a7575060008054906101000a900460ff16155b620007e9576040517f08c379a0000000000000000000000000000000000000000000000000000000008152600401620007e09062000df7565b60405180910390fd5b60008060019054906101000a900460ff1615905080156200083a576001600060016101000a81548160ff02191690831515021790555060016000806101000a81548160ff0219169083151502179055505b80156200085c5760008060016101000a81548160ff0219169083151502179055505b50565b600060019054906101000a900460ff168062000886575060008054906101000a900460ff16155b620008c8576040517f08c379a0000000000000000000000000000000000000000000000000000000008152600401620008bf9062000df7565b60405180910390fd5b60008060019054906101000a900460ff16159050801562000919576001600060016101000a81548160ff02191690831515021790555060016000806101000a81548160ff0219169083151502179055505b82606990805190602001906200093192919062000b99565b5081606a90805190602001906200094a92919062000b99565b5080156200096d5760008060016101000a81548160ff0219169083151502179055505b505050565b600060019054906101000a900460ff168062000999575060008054906101000a900460ff16155b620009db576040517f08c379a0000000000000000000000000000000000000000000000000000000008152600401620009d29062000df7565b60405180910390fd5b60008060019054906101000a900460ff16159050801562000a2c576001600060016101000a81548160ff02191690831515021790555060016000806101000a81548160ff0219169083151502179055505b6000821162000a72576040517f08c379a000000000000000000000000000000000000000000000000000000000815260040162000a699062000dd5565b60405180910390fd5b81609881905550801562000a9b5760008060016101000a81548160ff0219169083151502179055505b5050565b600060019054906101000a900460ff168062000ac6575060008054906101000a900460ff16155b62000b08576040517f08c379a000000000000000000000000000000000000000000000000000000000815260040162000aff9062000df7565b60405180910390fd5b60008060019054906101000a900460ff16159050801562000b59576001600060016101000a81548160ff02191690831515021790555060016000806101000a81548160ff0219169083151502179055505b6000603360006101000a81548160ff021916908315150217905550801562000b965760008060016101000a81548160ff0219169083151502179055505b50565b82805462000ba79062000efd565b90600052602060002090601f01602090048101928262000bcb576000855562000c17565b82601f1062000be657805160ff191683800117855562000c17565b8280016001018555821562000c17579182015b8281111562000c1657825182559160200191906001019062000bf9565b5b50905062000c26919062000c2a565b5090565b5b8082111562000c4557600081600090555060010162000c2b565b5090565b600062000c6062000c5a8462000e42565b62000e19565b90508281526020810184848401111562000c7957600080fd5b62000c8684828562000ec7565b509392505050565b60008151905062000c9f8162001050565b92915050565b600082601f83011262000cb757600080fd5b815162000cc984826020860162000c49565b91505092915050565b60008151905062000ce3816200106a565b92915050565b6000806000806080858703121562000d0057600080fd5b600085015167ffffffffffffffff81111562000d1b57600080fd5b62000d298782880162000ca5565b945050602085015167ffffffffffffffff81111562000d4757600080fd5b62000d558782880162000ca5565b935050604062000d688782880162000cd2565b925050606062000d7b8782880162000c8e565b91505092959194509250565b600062000d9660158362000e78565b915062000da38262000fd8565b602082019050919050565b600062000dbd602e8362000e78565b915062000dca8262001001565b604082019050919050565b6000602082019050818103600083015262000df08162000d87565b9050919050565b6000602082019050818103600083015262000e128162000dae565b9050919050565b600062000e2562000e38565b905062000e33828262000f33565b919050565b6000604051905090565b600067ffffffffffffffff82111562000e605762000e5f62000f98565b5b62000e6b8262000fc7565b9050602081019050919050565b600082825260208201905092915050565b600062000e968262000e9d565b9050919050565b600073ffffffffffffffffffffffffffffffffffffffff82169050919050565b6000819050919050565b60005b8381101562000ee757808201518184015260208101905062000eca565b8381111562000ef7576000848401525b50505050565b6000600282049050600182168062000f1657607f821691505b6020821081141562000f2d5762000f2c62000f69565b5b50919050565b62000f3e8262000fc7565b810181811067ffffffffffffffff8211171562000f605762000f5f62000f98565b5b80604052505050565b7f4e487b7100000000000000000000000000000000000000000000000000000000600052602260045260246000fd5b7f4e487b7100000000000000000000000000000000000000000000000000000000600052604160045260246000fd5b6000601f19601f8301169050919050565b7f45524332304361707065643a2063617020697320300000000000000000000000600082015250565b7f496e697469616c697a61626c653a20636f6e747261637420697320616c72656160008201527f647920696e697469616c697a6564000000000000000000000000000000000000602082015250565b6200105b8162000e89565b81146200106757600080fd5b50565b620010758162000ebd565b81146200108157600080fd5b50565b612c5080620010946000396000f3fe608060405234801561001057600080fd5b50600436106101375760003560e01c806358aba00f116100b857806395d89b411161007c57806395d89b4114610318578063a217fddf14610336578063a457c2d714610354578063a9059cbb14610384578063dd62ed3e146103b4578063e63ab1e9146103e457610137565b806358aba00f146102865780635c975abb146102a257806370a08231146102c057806373f42561146102f05780638456cb591461030e57610137565b8063355274ea116100ff578063355274ea146101f657806339509351146102145780633f4ba83a1461024457806340c10f191461024e57806342966c681461026a57610137565b806306fdde031461013c578063095ea7b31461015a57806318160ddd1461018a57806323b872dd146101a8578063313ce567146101d8575b600080fd5b610144610402565b604051610151919061226b565b60405180910390f35b610174600480360381019061016f9190611dd5565b610494565b604051610181919061220c565b60405180910390f35b6101926104b2565b60405161019f919061248d565b60405180910390f35b6101c260048036038101906101bd9190611d86565b6104bc565b6040516101cf919061220c565b60405180910390f35b6101e06105b4565b6040516101ed91906124a8565b60405180910390f35b6101fe6105bd565b60405161020b919061248d565b60405180910390f35b61022e60048036038101906102299190611dd5565b6105c7565b60405161023b919061220c565b60405180910390f35b61024c610673565b005b61026860048036038101906102639190611dd5565b6107e9565b005b610284600480360381019061027f9190611e3a565b610963565b005b6102a0600480360381019061029b9190611d21565b610977565b005b6102aa610b0a565b6040516102b7919061220c565b60405180910390f35b6102da60048036038101906102d59190611d21565b610b21565b6040516102e7919061248d565b60405180910390f35b6102f8610b6a565b604051610305919061248d565b60405180910390f35b610316610b74565b005b610320610cea565b60405161032d919061226b565b60405180910390f35b61033e610d7c565b60405161034b9190612227565b60405180910390f35b61036e60048036038101906103699190611dd5565b610d83565b60405161037b919061220c565b60405180910390f35b61039e60048036038101906103999190611dd5565b610e6e565b6040516103ab919061220c565b60405180910390f35b6103ce60048036038101906103c99190611d4a565b610e8c565b6040516103db919061248d565b60405180910390f35b6103ec610f13565b6040516103f99190612227565b60405180910390f35b6060606980546104119061268a565b80601f016020809104026020016040519081016040528092919081815260200182805461043d9061268a565b801561048a5780601f1061045f5761010080835404028352916020019161048a565b820191906000526020600020905b81548152906001019060200180831161046d57829003601f168201915b5050505050905090565b60006104a86104a1610f37565b8484610f3f565b6001905092915050565b6000606854905090565b60006104c984848461110a565b6000606760008673ffffffffffffffffffffffffffffffffffffffff1673ffffffffffffffffffffffffffffffffffffffff1681526020019081526020016000206000610514610f37565b73ffffffffffffffffffffffffffffffffffffffff1673ffffffffffffffffffffffffffffffffffffffff16815260200190815260200160002054905082811015610594576040517f08c379a000000000000000000000000000000000000000000000000000000000815260040161058b9061236d565b60405180910390fd5b6105a8856105a0610f37565b858403610f3f565b60019150509392505050565b60006012905090565b6000609854905090565b60006106696105d4610f37565b8484606760006105e2610f37565b73ffffffffffffffffffffffffffffffffffffffff1673ffffffffffffffffffffffffffffffffffffffff16815260200190815260200160002060008873ffffffffffffffffffffffffffffffffffffffff1673ffffffffffffffffffffffffffffffffffffffff1681526020019081526020016000205461066491906124ea565b610f3f565b6001905092915050565b7f65d7a28e3265b37a6474929f336521b332c1681b933f6cb9f3376673440d862a6000606560009054906101000a900473ffffffffffffffffffffffffffffffffffffffff16905060003390508173ffffffffffffffffffffffffffffffffffffffff166391d1485484836040518363ffffffff1660e01b81526004016106fb929190612242565b60206040518083038186803b15801561071357600080fd5b505afa158015610727573d6000803e3d6000fd5b505050506040513d601f19601f8201168201806040525081019061074b9190611e11565b61076c8273ffffffffffffffffffffffffffffffffffffffff16601461138e565b61077a8560001c602061138e565b60405160200161078b92919061218e565b604051602081830303815290604052906107db576040517f08c379a00000000000000000000000000000000000000000000000000000000081526004016107d2919061226b565b60405180910390fd5b506107e4611688565b505050565b7f9f2df0fed2c77648de5860a4cc508cd0818c85b8b8a1ab4ceeef8d981c8956a66000606560009054906101000a900473ffffffffffffffffffffffffffffffffffffffff16905060003390508173ffffffffffffffffffffffffffffffffffffffff166391d1485484836040518363ffffffff1660e01b8152600401610871929190612242565b60206040518083038186803b15801561088957600080fd5b505afa15801561089d573d6000803e3d6000fd5b505050506040513d601f19601f820116820180604052508101906108c19190611e11565b6108e28273ffffffffffffffffffffffffffffffffffffffff16601461138e565b6108f08560001c602061138e565b60405160200161090192919061218e565b60405160208183030381529060405290610951576040517f08c379a0000000000000000000000000000000000000000000000000000000008152600401610948919061226b565b60405180910390fd5b5061095c858561172a565b5050505050565b61097461096e610f37565b826117da565b50565b6000801b6000606560009054906101000a900473ffffffffffffffffffffffffffffffffffffffff16905060003390508173ffffffffffffffffffffffffffffffffffffffff166391d1485484836040518363ffffffff1660e01b81526004016109e2929190612242565b60206040518083038186803b1580156109fa57600080fd5b505afa158015610a0e573d6000803e3d6000fd5b505050506040513d601f19601f82011682018060405250810190610a329190611e11565b610a538273ffffffffffffffffffffffffffffffffffffffff16601461138e565b610a618560001c602061138e565b604051602001610a7292919061218e565b60405160208183030381529060405290610ac2576040517f08c379a0000000000000000000000000000000000000000000000000000000008152600401610ab9919061226b565b60405180910390fd5b5083606560006101000a81548173ffffffffffffffffffffffffffffffffffffffff021916908373ffffffffffffffffffffffffffffffffffffffff16021790555050505050565b6000603360009054906101000a900460ff16905090565b6000606660008373ffffffffffffffffffffffffffffffffffffffff1673ffffffffffffffffffffffffffffffffffffffff168152602001908152602001600020549050919050565b600060cb54905090565b7f65d7a28e3265b37a6474929f336521b332c1681b933f6cb9f3376673440d862a6000606560009054906101000a900473ffffffffffffffffffffffffffffffffffffffff16905060003390508173ffffffffffffffffffffffffffffffffffffffff166391d1485484836040518363ffffffff1660e01b8152600401610bfc929190612242565b60206040518083038186803b158015610c1457600080fd5b505afa158015610c28573d6000803e3d6000fd5b505050506040513d601f19601f82011682018060405250810190610c4c9190611e11565b610c6d8273ffffffffffffffffffffffffffffffffffffffff16601461138e565b610c7b8560001c602061138e565b604051602001610c8c92919061218e565b60405160208183030381529060405290610cdc576040517f08c379a0000000000000000000000000000000000000000000000000000000008152600401610cd3919061226b565b60405180910390fd5b50610ce5611891565b505050565b6060606a8054610cf99061268a565b80601f0160208091040260200160405190810160405280929190818152602001828054610d259061268a565b8015610d725780601f10610d4757610100808354040283529160200191610d72565b820191906000526020600020905b815481529060010190602001808311610d5557829003601f168201915b5050505050905090565b6000801b81565b60008060676000610d92610f37565b73ffffffffffffffffffffffffffffffffffffffff1673ffffffffffffffffffffffffffffffffffffffff16815260200190815260200160002060008573ffffffffffffffffffffffffffffffffffffffff1673ffffffffffffffffffffffffffffffffffffffff16815260200190815260200160002054905082811015610e4f576040517f08c379a0000000000000000000000000000000000000000000000000000000008152600401610e469061244d565b60405180910390fd5b610e63610e5a610f37565b85858403610f3f565b600191505092915050565b6000610e82610e7b610f37565b848461110a565b6001905092915050565b6000606760008473ffffffffffffffffffffffffffffffffffffffff1673ffffffffffffffffffffffffffffffffffffffff16815260200190815260200160002060008373ffffffffffffffffffffffffffffffffffffffff1673ffffffffffffffffffffffffffffffffffffffff16815260200190815260200160002054905092915050565b7f65d7a28e3265b37a6474929f336521b332c1681b933f6cb9f3376673440d862a81565b600033905090565b600073ffffffffffffffffffffffffffffffffffffffff168373ffffffffffffffffffffffffffffffffffffffff161415610faf576040517f08c379a0000000000000000000000000000000000000000000000000000000008152600401610fa6906123ed565b60405180910390fd5b600073ffffffffffffffffffffffffffffffffffffffff168273ffffffffffffffffffffffffffffffffffffffff16141561101f576040517f08c379a00000000000000000000000000000000000000000000000000000000081526004016110169061230d565b60405180910390fd5b80606760008573ffffffffffffffffffffffffffffffffffffffff1673ffffffffffffffffffffffffffffffffffffffff16815260200190815260200160002060008473ffffffffffffffffffffffffffffffffffffffff1673ffffffffffffffffffffffffffffffffffffffff168152602001908152602001600020819055508173ffffffffffffffffffffffffffffffffffffffff168373ffffffffffffffffffffffffffffffffffffffff167f8c5be1e5ebec7d5bd14f71427d1e84f3dd0314c0f7b2291e5b200ac8c7c3b925836040516110fd919061248d565b60405180910390a3505050565b600073ffffffffffffffffffffffffffffffffffffffff168373ffffffffffffffffffffffffffffffffffffffff16141561117a576040517f08c379a0000000000000000000000000000000000000000000000000000000008152600401611171906123ad565b60405180910390fd5b600073ffffffffffffffffffffffffffffffffffffffff168273ffffffffffffffffffffffffffffffffffffffff1614156111ea576040517f08c379a00000000000000000000000000000000000000000000000000000000081526004016111e1906122ad565b60405180910390fd5b6111f5838383611934565b6000606660008573ffffffffffffffffffffffffffffffffffffffff1673ffffffffffffffffffffffffffffffffffffffff1681526020019081526020016000205490508181101561127c576040517f08c379a00000000000000000000000000000000000000000000000000000000081526004016112739061232d565b60405180910390fd5b818103606660008673ffffffffffffffffffffffffffffffffffffffff1673ffffffffffffffffffffffffffffffffffffffff1681526020019081526020016000208190555081606660008573ffffffffffffffffffffffffffffffffffffffff1673ffffffffffffffffffffffffffffffffffffffff168152602001908152602001600020600082825461131191906124ea565b925050819055508273ffffffffffffffffffffffffffffffffffffffff168473ffffffffffffffffffffffffffffffffffffffff167fddf252ad1be2c89b69c2b068fc378daa952ba7f163c4a11628f55a4df523b3ef84604051611375919061248d565b60405180910390a3611388848484611939565b50505050565b6060600060028360026113a19190612540565b6113ab91906124ea565b67ffffffffffffffff8111156113ea577f4e487b7100000000000000000000000000000000000000000000000000000000600052604160045260246000fd5b6040519080825280601f01601f19166020018201604052801561141c5781602001600182028036833780820191505090505b5090507f30000000000000000000000000000000000000000000000000000000000000008160008151811061147a577f4e487b7100000000000000000000000000000000000000000000000000000000600052603260045260246000fd5b60200101907effffffffffffffffffffffffffffffffffffffffffffffffffffffffffffff1916908160001a9053507f780000000000000000000000000000000000000000000000000000000000000081600181518110611504577f4e487b7100000000000000000000000000000000000000000000000000000000600052603260045260246000fd5b60200101907effffffffffffffffffffffffffffffffffffffffffffffffffffffffffffff1916908160001a905350600060018460026115449190612540565b61154e91906124ea565b90505b600181111561163a577f3031323334353637383961626364656600000000000000000000000000000000600f8616601081106115b6577f4e487b7100000000000000000000000000000000000000000000000000000000600052603260045260246000fd5b1a60f81b8282815181106115f3577f4e487b7100000000000000000000000000000000000000000000000000000000600052603260045260246000fd5b60200101907effffffffffffffffffffffffffffffffffffffffffffffffffffffffffffff1916908160001a905350600485901c94508061163390612660565b9050611551565b506000841461167e576040517f08c379a00000000000000000000000000000000000000000000000000000000081526004016116759061228d565b60405180910390fd5b8091505092915050565b611690610b0a565b6116cf576040517f08c379a00000000000000000000000000000000000000000000000000000000081526004016116c6906122cd565b60405180910390fd5b6000603360006101000a81548160ff0219169083151502179055507f5db9ee0a495bf2e6ff9c91a7834c1ba4fdd244a5e8aa4e537bd38aeae4b073aa611713610f37565b60405161172091906121c8565b60405180910390a1565b6117326105bd565b8160cb5461173e6104b2565b61174891906124ea565b61175291906124ea565b1115611793576040517f08c379a000000000000000000000000000000000000000000000000000000000815260040161178a9061242d565b60405180910390fd5b61179d828261193e565b7f0f6798a560793a54c3bcfe86a93cde1e73087d944c0ea20544137d412139688582826040516117ce9291906121e3565b60405180910390a15050565b8060cb546117e66104b2565b6117f0919061259a565b1015611831576040517f08c379a00000000000000000000000000000000000000000000000000000000081526004016118289061240d565b60405180910390fd5b8060cb600082825461184391906124ea565b9250508190555061185482826119a8565b7fcc16f5dbb4873280815c1ee09dbd06736cffcc184412cf7a71a0fdb75d397ca582826040516118859291906121e3565b60405180910390a15050565b611899610b0a565b156118d9576040517f08c379a00000000000000000000000000000000000000000000000000000000081526004016118d09061234d565b60405180910390fd5b6001603360006101000a81548160ff0219169083151502179055507f62e78cea01bee320cd4e420270b5ea74000d11b0c9f74754ebdbfc544b05a25861191d610f37565b60405161192a91906121c8565b60405180910390a1565b505050565b505050565b6119466105bd565b8161194f6104b2565b61195991906124ea565b111561199a576040517f08c379a0000000000000000000000000000000000000000000000000000000008152600401611991906123cd565b60405180910390fd5b6119a48282611b81565b5050565b600073ffffffffffffffffffffffffffffffffffffffff168273ffffffffffffffffffffffffffffffffffffffff161415611a18576040517f08c379a0000000000000000000000000000000000000000000000000000000008152600401611a0f9061238d565b60405180910390fd5b611a2482600083611934565b6000606660008473ffffffffffffffffffffffffffffffffffffffff1673ffffffffffffffffffffffffffffffffffffffff16815260200190815260200160002054905081811015611aab576040517f08c379a0000000000000000000000000000000000000000000000000000000008152600401611aa2906122ed565b60405180910390fd5b818103606660008573ffffffffffffffffffffffffffffffffffffffff1673ffffffffffffffffffffffffffffffffffffffff168152602001908152602001600020819055508160686000828254611b03919061259a565b92505081905550600073ffffffffffffffffffffffffffffffffffffffff168373ffffffffffffffffffffffffffffffffffffffff167fddf252ad1be2c89b69c2b068fc378daa952ba7f163c4a11628f55a4df523b3ef84604051611b68919061248d565b60405180910390a3611b7c83600084611939565b505050565b600073ffffffffffffffffffffffffffffffffffffffff168273ffffffffffffffffffffffffffffffffffffffff161415611bf1576040517f08c379a0000000000000000000000000000000000000000000000000000000008152600401611be89061246d565b60405180910390fd5b611bfd60008383611934565b8060686000828254611c0f91906124ea565b9250508190555080606660008473ffffffffffffffffffffffffffffffffffffffff1673ffffffffffffffffffffffffffffffffffffffff1681526020019081526020016000206000828254611c6591906124ea565b925050819055508173ffffffffffffffffffffffffffffffffffffffff16600073ffffffffffffffffffffffffffffffffffffffff167fddf252ad1be2c89b69c2b068fc378daa952ba7f163c4a11628f55a4df523b3ef83604051611cca919061248d565b60405180910390a3611cde60008383611939565b5050565b600081359050611cf181612bd5565b92915050565b600081519050611d0681612bec565b92915050565b600081359050611d1b81612c03565b92915050565b600060208284031215611d3357600080fd5b6000611d4184828501611ce2565b91505092915050565b60008060408385031215611d5d57600080fd5b6000611d6b85828601611ce2565b9250506020611d7c85828601611ce2565b9150509250929050565b600080600060608486031215611d9b57600080fd5b6000611da986828701611ce2565b9350506020611dba86828701611ce2565b9250506040611dcb86828701611d0c565b9150509250925092565b60008060408385031215611de857600080fd5b6000611df685828601611ce2565b9250506020611e0785828601611d0c565b9150509250929050565b600060208284031215611e2357600080fd5b6000611e3184828501611cf7565b91505092915050565b600060208284031215611e4c57600080fd5b6000611e5a84828501611d0c565b91505092915050565b611e6c816125ce565b82525050565b611e7b816125e0565b82525050565b611e8a816125ec565b82525050565b6000611e9b826124c3565b611ea581856124ce565b9350611eb581856020860161262d565b611ebe8161271a565b840191505092915050565b6000611ed4826124c3565b611ede81856124df565b9350611eee81856020860161262d565b80840191505092915050565b6000611f076020836124ce565b9150611f128261272b565b602082019050919050565b6000611f2a6023836124ce565b9150611f3582612754565b604082019050919050565b6000611f4d6024836124df565b9150611f58826127a3565b602482019050919050565b6000611f706014836124ce565b9150611f7b826127f2565b602082019050919050565b6000611f936022836124ce565b9150611f9e8261281b565b604082019050919050565b6000611fb66022836124ce565b9150611fc18261286a565b604082019050919050565b6000611fd96026836124ce565b9150611fe4826128b9565b604082019050919050565b6000611ffc6010836124ce565b915061200782612908565b602082019050919050565b600061201f6028836124ce565b915061202a82612931565b604082019050919050565b60006120426021836124ce565b915061204d82612980565b604082019050919050565b60006120656025836124ce565b9150612070826129cf565b604082019050919050565b60006120886019836124ce565b915061209382612a1e565b602082019050919050565b60006120ab6024836124ce565b91506120b682612a47565b604082019050919050565b60006120ce6029836124ce565b91506120d982612a96565b604082019050919050565b60006120f16026836124ce565b91506120fc82612ae5565b604082019050919050565b60006121146025836124ce565b915061211f82612b34565b604082019050919050565b60006121376011836124df565b915061214282612b83565b601182019050919050565b600061215a601f836124ce565b915061216582612bac565b602082019050919050565b61217981612616565b82525050565b61218881612620565b82525050565b600061219982611f40565b91506121a58285611ec9565b91506121b08261212a565b91506121bc8284611ec9565b91508190509392505050565b60006020820190506121dd6000830184611e63565b92915050565b60006040820190506121f86000830185611e63565b6122056020830184612170565b9392505050565b60006020820190506122216000830184611e72565b92915050565b600060208201905061223c6000830184611e81565b92915050565b60006040820190506122576000830185611e81565b6122646020830184611e63565b9392505050565b600060208201905081810360008301526122858184611e90565b905092915050565b600060208201905081810360008301526122a681611efa565b9050919050565b600060208201905081810360008301526122c681611f1d565b9050919050565b600060208201905081810360008301526122e681611f63565b9050919050565b6000602082019050818103600083015261230681611f86565b9050919050565b6000602082019050818103600083015261232681611fa9565b9050919050565b6000602082019050818103600083015261234681611fcc565b9050919050565b6000602082019050818103600083015261236681611fef565b9050919050565b6000602082019050818103600083015261238681612012565b9050919050565b600060208201905081810360008301526123a681612035565b9050919050565b600060208201905081810360008301526123c681612058565b9050919050565b600060208201905081810360008301526123e68161207b565b9050919050565b600060208201905081810360008301526124068161209e565b9050919050565b60006020820190508181036000830152612426816120c1565b9050919050565b60006020820190508181036000830152612446816120e4565b9050919050565b6000602082019050818103600083015261246681612107565b9050919050565b600060208201905081810360008301526124868161214d565b9050919050565b60006020820190506124a26000830184612170565b92915050565b60006020820190506124bd600083018461217f565b92915050565b600081519050919050565b600082825260208201905092915050565b600081905092915050565b60006124f582612616565b915061250083612616565b9250827fffffffffffffffffffffffffffffffffffffffffffffffffffffffffffffffff03821115612535576125346126bc565b5b828201905092915050565b600061254b82612616565b915061255683612616565b9250817fffffffffffffffffffffffffffffffffffffffffffffffffffffffffffffffff048311821515161561258f5761258e6126bc565b5b828202905092915050565b60006125a582612616565b91506125b083612616565b9250828210156125c3576125c26126bc565b5b828203905092915050565b60006125d9826125f6565b9050919050565b60008115159050919050565b6000819050919050565b600073ffffffffffffffffffffffffffffffffffffffff82169050919050565b6000819050919050565b600060ff82169050919050565b60005b8381101561264b578082015181840152602081019050612630565b8381111561265a576000848401525b50505050565b600061266b82612616565b9150600082141561267f5761267e6126bc565b5b600182039050919050565b600060028204905060018216806126a257607f821691505b602082108114156126b6576126b56126eb565b5b50919050565b7f4e487b7100000000000000000000000000000000000000000000000000000000600052601160045260246000fd5b7f4e487b7100000000000000000000000000000000000000000000000000000000600052602260045260246000fd5b6000601f19601f8301169050919050565b7f537472696e67733a20686578206c656e67746820696e73756666696369656e74600082015250565b7f45524332303a207472616e7366657220746f20746865207a65726f206164647260008201527f6573730000000000000000000000000000000000000000000000000000000000602082015250565b7f416363657373436f6e74726f6c50726f78795061757361626c653a206163636f60008201527f756e742000000000000000000000000000000000000000000000000000000000602082015250565b7f5061757361626c653a206e6f7420706175736564000000000000000000000000600082015250565b7f45524332303a206275726e20616d6f756e7420657863656564732062616c616e60008201527f6365000000000000000000000000000000000000000000000000000000000000602082015250565b7f45524332303a20617070726f766520746f20746865207a65726f20616464726560008201527f7373000000000000000000000000000000000000000000000000000000000000602082015250565b7f45524332303a207472616e7366657220616d6f756e742065786365656473206260008201527f616c616e63650000000000000000000000000000000000000000000000000000602082015250565b7f5061757361626c653a2070617573656400000000000000000000000000000000600082015250565b7f45524332303a207472616e7366657220616d6f756e742065786365656473206160008201527f6c6c6f77616e6365000000000000000000000000000000000000000000000000602082015250565b7f45524332303a206275726e2066726f6d20746865207a65726f2061646472657360008201527f7300000000000000000000000000000000000000000000000000000000000000602082015250565b7f45524332303a207472616e736665722066726f6d20746865207a65726f20616460008201527f6472657373000000000000000000000000000000000000000000000000000000602082015250565b7f45524332304361707065643a2063617020657863656564656400000000000000600082015250565b7f45524332303a20617070726f76652066726f6d20746865207a65726f2061646460008201527f7265737300000000000000000000000000000000000000000000000000000000602082015250565b7f547574656c6c757345524332303a206275726e20616d6f756e7420657863656560008201527f647320737570706c790000000000000000000000000000000000000000000000602082015250565b7f547574656c6c757345524332303a206d696e7420616d6f756e7420657863656560008201527f6473206361700000000000000000000000000000000000000000000000000000602082015250565b7f45524332303a2064656372656173656420616c6c6f77616e63652062656c6f7760008201527f207a65726f000000000000000000000000000000000000000000000000000000602082015250565b7f206973206d697373696e6720726f6c6520000000000000000000000000000000600082015250565b7f45524332303a206d696e7420746f20746865207a65726f206164647265737300600082015250565b612bde816125ce565b8114612be957600080fd5b50565b612bf5816125e0565b8114612c0057600080fd5b50565b612c0c81612616565b8114612c1757600080fd5b5056fea26469706673582212209bf731b047f4c1f6c1cb79343f9603046260ffb4a2acbd62cc2230a480f2bf9164736f6c63430008020033",
  "linkReferences": {},
  "deployedLinkReferences": {}
}