{
  "_format": "hh-sol-artifact-1",
  "contractName": "TutellusDIDFactory",
  "sourceName": "contracts/TutellusDIDFactory.sol",
  "abi": [
    {
      "inputs": [],
      "stateMutability": "nonpayable",
      "type": "constructor"
    },
    {
      "anonymous": false,
      "inputs": [
        {
          "indexed": false,
          "internalType": "address",
          "name": "proxy",
          "type": "address"
        }
      ],
      "name": "NewDID",
      "type": "event"
    },
    {
      "inputs": [],
      "name": "beacon",
      "outputs": [
        {
          "internalType": "address",
          "name": "",
          "type": "address"
        }
      ],
      "stateMutability": "view",
      "type": "function"
    },
    {
      "inputs": [
        {
          "internalType": "bytes",
          "name": "initializeCalldata",
          "type": "bytes"
        }
      ],
      "name": "createProxy",
      "outputs": [
        {
          "internalType": "address",
          "name": "",
          "type": "address"
        }
      ],
      "stateMutability": "nonpayable",
      "type": "function"
    }
  ],
  "bytecode": "0x608060405234801561001057600080fd5b50600060405161001f90610122565b604051809103906000f08015801561003b573d6000803e3d6000fd5b506040516100489061012f565b610052919061014b565b604051809103906000f08015801561006e573d6000803e3d6000fd5b509050806000806101000a81548173ffffffffffffffffffffffffffffffffffffffff021916908373ffffffffffffffffffffffffffffffffffffffff1602179055508073ffffffffffffffffffffffffffffffffffffffff1663f2fde38b336040518263ffffffff1660e01b81526004016100ea919061014b565b600060405180830381600087803b15801561010457600080fd5b505af1158015610118573d6000803e3d6000fd5b5050505050610198565b6115738061151a83390190565b610a7c80612a8d83390190565b61014581610166565b82525050565b6000602082019050610160600083018461013c565b92915050565b600061017182610178565b9050919050565b600073ffffffffffffffffffffffffffffffffffffffff82169050919050565b611373806101a76000396000f3fe60806040523480156200001157600080fd5b50600436106200003a5760003560e01c806359659e90146200003f5780638f295d591462000061575b600080fd5b6200004962000097565b60405162000058919062000248565b60405180910390f35b6200007f6004803603810190620000799190620001bb565b620000bb565b6040516200008e919062000248565b60405180910390f35b60008054906101000a900473ffffffffffffffffffffffffffffffffffffffff1681565b60008060008054906101000a900473ffffffffffffffffffffffffffffffffffffffff168484604051620000ef9062000160565b620000fd9392919062000265565b604051809103906000f0801580156200011a573d6000803e3d6000fd5b5090507ff75428c4a879bafcef090bae101820b87b23990371caa4148e79e116c59a9080816040516200014e919062000248565b60405180910390a18091505092915050565b61103d806200030183390190565b60008083601f8401126200018157600080fd5b8235905067ffffffffffffffff8111156200019b57600080fd5b602083019150836001820283011115620001b457600080fd5b9250929050565b60008060208385031215620001cf57600080fd5b600083013567ffffffffffffffff811115620001ea57600080fd5b620001f8858286016200016e565b92509250509250929050565b6200020f81620002ac565b82525050565b60006200022383856200029b565b935062000232838584620002e0565b6200023d83620002ef565b840190509392505050565b60006020820190506200025f600083018462000204565b92915050565b60006040820190506200027c600083018662000204565b81810360208301526200029181848662000215565b9050949350505050565b600082825260208201905092915050565b6000620002b982620002c0565b9050919050565b600073ffffffffffffffffffffffffffffffffffffffff82169050919050565b82818337600083830152505050565b6000601f19601f830116905091905056fe60806040526040516200103d3803806200103d8339818101604052810190620000299190620005e1565b60017fa3f0ad74e5423aebfd80d3ef4346578335a9a72aeaee59ff6cb3582b35133d5160001c6200005b91906200085c565b60001b7fa3f0ad74e5423aebfd80d3ef4346578335a9a72aeaee59ff6cb3582b35133d5060001b14620000b7577f4e487b7100000000000000000000000000000000000000000000000000000000600052600160045260246000fd5b620000cb82826000620000d360201b60201c565b505062000ab7565b620000e483620001da60201b60201c565b8273ffffffffffffffffffffffffffffffffffffffff167f1cf3b03a6cf19fa2baba4df148e9dcabedea7f8a5c07840e207e5c089be95d3e60405160405180910390a2600082511180620001355750805b15620001d557620001d38373ffffffffffffffffffffffffffffffffffffffff16635c60da1b6040518163ffffffff1660e01b815260040160206040518083038186803b1580156200018657600080fd5b505afa1580156200019b573d6000803e3d6000fd5b505050506040513d601f19601f82011682018060405250810190620001c19190620005b5565b836200038960201b620000371760201c565b505b505050565b620001f081620003bf60201b620000641760201c565b62000232576040517f08c379a0000000000000000000000000000000000000000000000000000000008152600401620002299062000765565b60405180910390fd5b620002c98173ffffffffffffffffffffffffffffffffffffffff16635c60da1b6040518163ffffffff1660e01b815260040160206040518083038186803b1580156200027d57600080fd5b505afa15801562000292573d6000803e3d6000fd5b505050506040513d601f19601f82011682018060405250810190620002b89190620005b5565b620003bf60201b620000641760201c565b6200030b576040517f08c379a00000000000000000000000000000000000000000000000000000000081526004016200030290620007a9565b60405180910390fd5b80620003457fa3f0ad74e5423aebfd80d3ef4346578335a9a72aeaee59ff6cb3582b35133d5060001b620003d260201b620000771760201c565b60000160006101000a81548173ffffffffffffffffffffffffffffffffffffffff021916908373ffffffffffffffffffffffffffffffffffffffff16021790555050565b6060620003b783836040518060600160405280602781526020016200101660279139620003dc60201b60201c565b905092915050565b600080823b905060008111915050919050565b6000819050919050565b6060620003ef84620003bf60201b60201c565b62000431576040517f08c379a0000000000000000000000000000000000000000000000000000000008152600401620004289062000787565b60405180910390fd5b6000808573ffffffffffffffffffffffffffffffffffffffff16856040516200045b919062000728565b600060405180830381855af49150503d806000811462000498576040519150601f19603f3d011682016040523d82523d6000602084013e6200049d565b606091505b5091509150620004b5828286620004c060201b60201c565b925050509392505050565b60608315620004d25782905062000525565b600083511115620004e65782518084602001fd5b816040517f08c379a00000000000000000000000000000000000000000000000000000000081526004016200051c919062000741565b60405180910390fd5b9392505050565b6000620005436200053d84620007f4565b620007cb565b9050828152602081018484840111156200055c57600080fd5b62000569848285620008d5565b509392505050565b600081519050620005828162000a9d565b92915050565b600082601f8301126200059a57600080fd5b8151620005ac8482602086016200052c565b91505092915050565b600060208284031215620005c857600080fd5b6000620005d88482850162000571565b91505092915050565b60008060408385031215620005f557600080fd5b6000620006058582860162000571565b925050602083015167ffffffffffffffff8111156200062357600080fd5b620006318582860162000588565b9150509250929050565b600062000648826200082a565b62000654818562000840565b935062000666818560208601620008d5565b80840191505092915050565b60006200067f8262000835565b6200068b81856200084b565b93506200069d818560208601620008d5565b620006a8816200099f565b840191505092915050565b6000620006c26025836200084b565b9150620006cf82620009b0565b604082019050919050565b6000620006e96026836200084b565b9150620006f682620009ff565b604082019050919050565b6000620007106030836200084b565b91506200071d8262000a4e565b604082019050919050565b60006200073682846200063b565b915081905092915050565b600060208201905081810360008301526200075d818462000672565b905092915050565b600060208201905081810360008301526200078081620006b3565b9050919050565b60006020820190508181036000830152620007a281620006da565b9050919050565b60006020820190508181036000830152620007c48162000701565b9050919050565b6000620007d7620007ea565b9050620007e582826200090b565b919050565b6000604051905090565b600067ffffffffffffffff82111562000812576200081162000970565b5b6200081d826200099f565b9050602081019050919050565b600081519050919050565b600081519050919050565b600081905092915050565b600082825260208201905092915050565b60006200086982620008cb565b91506200087683620008cb565b9250828210156200088c576200088b62000941565b5b828203905092915050565b6000620008a482620008ab565b9050919050565b600073ffffffffffffffffffffffffffffffffffffffff82169050919050565b6000819050919050565b60005b83811015620008f5578082015181840152602081019050620008d8565b8381111562000905576000848401525b50505050565b62000916826200099f565b810181811067ffffffffffffffff8211171562000938576200093762000970565b5b80604052505050565b7f4e487b7100000000000000000000000000000000000000000000000000000000600052601160045260246000fd5b7f4e487b7100000000000000000000000000000000000000000000000000000000600052604160045260246000fd5b6000601f19601f8301169050919050565b7f455243313936373a206e657720626561636f6e206973206e6f74206120636f6e60008201527f7472616374000000000000000000000000000000000000000000000000000000602082015250565b7f416464726573733a2064656c65676174652063616c6c20746f206e6f6e2d636f60008201527f6e74726163740000000000000000000000000000000000000000000000000000602082015250565b7f455243313936373a20626561636f6e20696d706c656d656e746174696f6e206960008201527f73206e6f74206120636f6e747261637400000000000000000000000000000000602082015250565b62000aa88162000897565b811462000ab457600080fd5b50565b61054f8062000ac76000396000f3fe6080604052366100135761001161001d565b005b61001b61001d565b005b610025610081565b610035610030610083565b61010f565b565b606061005c83836040518060600160405280602781526020016104f360279139610135565b905092915050565b600080823b905060008111915050919050565b6000819050919050565b565b600061008d610202565b73ffffffffffffffffffffffffffffffffffffffff16635c60da1b6040518163ffffffff1660e01b815260040160206040518083038186803b1580156100d257600080fd5b505afa1580156100e6573d6000803e3d6000fd5b505050506040513d601f19601f8201168201806040525081019061010a91906102d5565b905090565b3660008037600080366000845af43d6000803e8060008114610130573d6000f35b3d6000fd5b606061014084610064565b61017f576040517f08c379a0000000000000000000000000000000000000000000000000000000008152600401610176906103c4565b60405180910390fd5b6000808573ffffffffffffffffffffffffffffffffffffffff16856040516101a7919061038b565b600060405180830381855af49150503d80600081146101e2576040519150601f19603f3d011682016040523d82523d6000602084013e6101e7565b606091505b50915091506101f7828286610259565b925050509392505050565b60006102307fa3f0ad74e5423aebfd80d3ef4346578335a9a72aeaee59ff6cb3582b35133d5060001b610077565b60000160009054906101000a900473ffffffffffffffffffffffffffffffffffffffff16905090565b60608315610269578290506102b9565b60008351111561027c5782518084602001fd5b816040517f08c379a00000000000000000000000000000000000000000000000000000000081526004016102b091906103a2565b60405180910390fd5b9392505050565b6000815190506102cf816104db565b92915050565b6000602082840312156102e757600080fd5b60006102f5848285016102c0565b91505092915050565b6000610309826103e4565b61031381856103fa565b9350610323818560208601610448565b80840191505092915050565b600061033a826103ef565b6103448185610405565b9350610354818560208601610448565b61035d8161047b565b840191505092915050565b6000610375602683610405565b91506103808261048c565b604082019050919050565b600061039782846102fe565b915081905092915050565b600060208201905081810360008301526103bc818461032f565b905092915050565b600060208201905081810360008301526103dd81610368565b9050919050565b600081519050919050565b600081519050919050565b600081905092915050565b600082825260208201905092915050565b600061042182610428565b9050919050565b600073ffffffffffffffffffffffffffffffffffffffff82169050919050565b60005b8381101561046657808201518184015260208101905061044b565b83811115610475576000848401525b50505050565b6000601f19601f8301169050919050565b7f416464726573733a2064656c65676174652063616c6c20746f206e6f6e2d636f60008201527f6e74726163740000000000000000000000000000000000000000000000000000602082015250565b6104e481610416565b81146104ef57600080fd5b5056fe416464726573733a206c6f772d6c6576656c2064656c65676174652063616c6c206661696c6564a26469706673582212200502a5de0b8bd9cf869699b5c052b00af91163358a156b28a8260bd0d10e7fab64736f6c63430008020033416464726573733a206c6f772d6c6576656c2064656c65676174652063616c6c206661696c6564a2646970667358221220565d1b2b2f30be4a7e1e2407117f1fa82ed4e0a123fcf3de559f1c4de8fb470d64736f6c63430008020033608060405234801561001057600080fd5b50611553806100206000396000f3fe608060405234801561001057600080fd5b506004361061009e5760003560e01c806391d148541161006657806391d1485414610159578063a217fddf14610189578063c4d66de8146101a7578063d547741f146101c3578063e58378bb146101df5761009e565b806301ffc9a7146100a3578063248a9ca3146100d35780632f2ff15d1461010357806336568abe1461011f57806354fd4d501461013b575b600080fd5b6100bd60048036038101906100b89190610f7b565b6101fd565b6040516100ca9190611115565b60405180910390f35b6100ed60048036038101906100e89190610f16565b610277565b6040516100fa9190611130565b60405180910390f35b61011d60048036038101906101189190610f3f565b610297565b005b61013960048036038101906101349190610f3f565b6102c0565b005b610143610343565b604051610150919061114b565b60405180910390f35b610173600480360381019061016e9190610f3f565b610380565b6040516101809190611115565b60405180910390f35b6101916103eb565b60405161019e9190611130565b60405180910390f35b6101c160048036038101906101bc9190610eed565b6103f2565b005b6101dd60048036038101906101d89190610f3f565b61050b565b005b6101e7610534565b6040516101f49190611130565b60405180910390f35b60007f7965db0b000000000000000000000000000000000000000000000000000000007bffffffffffffffffffffffffffffffffffffffffffffffffffffffff1916827bffffffffffffffffffffffffffffffffffffffffffffffffffffffff19161480610270575061026f82610558565b5b9050919050565b600060656000838152602001908152602001600020600101549050919050565b6102a082610277565b6102b1816102ac6105c2565b6105ca565b6102bb8383610667565b505050565b6102c86105c2565b73ffffffffffffffffffffffffffffffffffffffff168173ffffffffffffffffffffffffffffffffffffffff1614610335576040517f08c379a000000000000000000000000000000000000000000000000000000000815260040161032c906111ad565b60405180910390fd5b61033f8282610748565b5050565b60606040518060400160405280600681526020017f76302e302e310000000000000000000000000000000000000000000000000000815250905090565b60006065600084815260200190815260200160002060000160008373ffffffffffffffffffffffffffffffffffffffff1673ffffffffffffffffffffffffffffffffffffffff16815260200190815260200160002060009054906101000a900460ff16905092915050565b6000801b81565b600060019054906101000a900460ff1680610418575060008054906101000a900460ff16155b610457576040517f08c379a000000000000000000000000000000000000000000000000000000000815260040161044e9061118d565b60405180910390fd5b60008060019054906101000a900460ff1615905080156104a7576001600060016101000a81548160ff02191690831515021790555060016000806101000a81548160ff0219169083151502179055505b6104af61082a565b6104bc6000801b8361091b565b6104e67fb19546dff01e856fb3f010c267a7b1c60363cf8a4664e21cc89c26224620214e8361091b565b80156105075760008060016101000a81548160ff0219169083151502179055505b5050565b61051482610277565b610525816105206105c2565b6105ca565b61052f8383610748565b505050565b7fb19546dff01e856fb3f010c267a7b1c60363cf8a4664e21cc89c26224620214e81565b60007f01ffc9a7000000000000000000000000000000000000000000000000000000007bffffffffffffffffffffffffffffffffffffffffffffffffffffffff1916827bffffffffffffffffffffffffffffffffffffffffffffffffffffffff1916149050919050565b600033905090565b6105d48282610380565b610663576105f98173ffffffffffffffffffffffffffffffffffffffff166014610929565b6106078360001c6020610929565b6040516020016106189291906110db565b6040516020818303038152906040526040517f08c379a000000000000000000000000000000000000000000000000000000000815260040161065a919061114b565b60405180910390fd5b5050565b6106718282610380565b6107445760016065600084815260200190815260200160002060000160008373ffffffffffffffffffffffffffffffffffffffff1673ffffffffffffffffffffffffffffffffffffffff16815260200190815260200160002060006101000a81548160ff0219169083151502179055506106e96105c2565b73ffffffffffffffffffffffffffffffffffffffff168173ffffffffffffffffffffffffffffffffffffffff16837f2f8788117e7eff1d82e926ec794901d17c78024a50270940304540a733656f0d60405160405180910390a45b5050565b6107528282610380565b156108265760006065600084815260200190815260200160002060000160008373ffffffffffffffffffffffffffffffffffffffff1673ffffffffffffffffffffffffffffffffffffffff16815260200190815260200160002060006101000a81548160ff0219169083151502179055506107cb6105c2565b73ffffffffffffffffffffffffffffffffffffffff168173ffffffffffffffffffffffffffffffffffffffff16837ff6391f5c32d9c69d2a47ea670b442974b53935d1edc7fd64eb21e047a839171b60405160405180910390a45b5050565b600060019054906101000a900460ff1680610850575060008054906101000a900460ff16155b61088f576040517f08c379a00000000000000000000000000000000000000000000000000000000081526004016108869061118d565b60405180910390fd5b60008060019054906101000a900460ff1615905080156108df576001600060016101000a81548160ff02191690831515021790555060016000806101000a81548160ff0219169083151502179055505b6108e7610c23565b6108ef610cfc565b6108f7610dd5565b80156109185760008060016101000a81548160ff0219169083151502179055505b50565b6109258282610667565b5050565b60606000600283600261093c919061124a565b61094691906111f4565b67ffffffffffffffff811115610985577f4e487b7100000000000000000000000000000000000000000000000000000000600052604160045260246000fd5b6040519080825280601f01601f1916602001820160405280156109b75781602001600182028036833780820191505090505b5090507f300000000000000000000000000000000000000000000000000000000000000081600081518110610a15577f4e487b7100000000000000000000000000000000000000000000000000000000600052603260045260246000fd5b60200101907effffffffffffffffffffffffffffffffffffffffffffffffffffffffffffff1916908160001a9053507f780000000000000000000000000000000000000000000000000000000000000081600181518110610a9f577f4e487b7100000000000000000000000000000000000000000000000000000000600052603260045260246000fd5b60200101907effffffffffffffffffffffffffffffffffffffffffffffffffffffffffffff1916908160001a90535060006001846002610adf919061124a565b610ae991906111f4565b90505b6001811115610bd5577f3031323334353637383961626364656600000000000000000000000000000000600f861660108110610b51577f4e487b7100000000000000000000000000000000000000000000000000000000600052603260045260246000fd5b1a60f81b828281518110610b8e577f4e487b7100000000000000000000000000000000000000000000000000000000600052603260045260246000fd5b60200101907effffffffffffffffffffffffffffffffffffffffffffffffffffffffffffff1916908160001a905350600485901c945080610bce90611355565b9050610aec565b5060008414610c19576040517f08c379a0000000000000000000000000000000000000000000000000000000008152600401610c109061116d565b60405180910390fd5b8091505092915050565b600060019054906101000a900460ff1680610c49575060008054906101000a900460ff16155b610c88576040517f08c379a0000000000000000000000000000000000000000000000000000000008152600401610c7f9061118d565b60405180910390fd5b60008060019054906101000a900460ff161590508015610cd8576001600060016101000a81548160ff02191690831515021790555060016000806101000a81548160ff0219169083151502179055505b8015610cf95760008060016101000a81548160ff0219169083151502179055505b50565b600060019054906101000a900460ff1680610d22575060008054906101000a900460ff16155b610d61576040517f08c379a0000000000000000000000000000000000000000000000000000000008152600401610d589061118d565b60405180910390fd5b60008060019054906101000a900460ff161590508015610db1576001600060016101000a81548160ff02191690831515021790555060016000806101000a81548160ff0219169083151502179055505b8015610dd25760008060016101000a81548160ff0219169083151502179055505b50565b600060019054906101000a900460ff1680610dfb575060008054906101000a900460ff16155b610e3a576040517f08c379a0000000000000000000000000000000000000000000000000000000008152600401610e319061118d565b60405180910390fd5b60008060019054906101000a900460ff161590508015610e8a576001600060016101000a81548160ff02191690831515021790555060016000806101000a81548160ff0219169083151502179055505b8015610eab5760008060016101000a81548160ff0219169083151502179055505b50565b600081359050610ebd816114d8565b92915050565b600081359050610ed2816114ef565b92915050565b600081359050610ee781611506565b92915050565b600060208284031215610eff57600080fd5b6000610f0d84828501610eae565b91505092915050565b600060208284031215610f2857600080fd5b6000610f3684828501610ec3565b91505092915050565b60008060408385031215610f5257600080fd5b6000610f6085828601610ec3565b9250506020610f7185828601610eae565b9150509250929050565b600060208284031215610f8d57600080fd5b6000610f9b84828501610ed8565b91505092915050565b610fad816112b6565b82525050565b610fbc816112c2565b82525050565b6000610fcd826111cd565b610fd781856111d8565b9350610fe7818560208601611322565b610ff0816113ae565b840191505092915050565b6000611006826111cd565b61101081856111e9565b9350611020818560208601611322565b80840191505092915050565b60006110396020836111d8565b9150611044826113bf565b602082019050919050565b600061105c602e836111d8565b9150611067826113e8565b604082019050919050565b600061107f6017836111e9565b915061108a82611437565b601782019050919050565b60006110a26011836111e9565b91506110ad82611460565b601182019050919050565b60006110c5602f836111d8565b91506110d082611489565b604082019050919050565b60006110e682611072565b91506110f28285610ffb565b91506110fd82611095565b91506111098284610ffb565b91508190509392505050565b600060208201905061112a6000830184610fa4565b92915050565b60006020820190506111456000830184610fb3565b92915050565b600060208201905081810360008301526111658184610fc2565b905092915050565b600060208201905081810360008301526111868161102c565b9050919050565b600060208201905081810360008301526111a68161104f565b9050919050565b600060208201905081810360008301526111c6816110b8565b9050919050565b600081519050919050565b600082825260208201905092915050565b600081905092915050565b60006111ff82611318565b915061120a83611318565b9250827fffffffffffffffffffffffffffffffffffffffffffffffffffffffffffffffff0382111561123f5761123e61137f565b5b828201905092915050565b600061125582611318565b915061126083611318565b9250817fffffffffffffffffffffffffffffffffffffffffffffffffffffffffffffffff04831182151516156112995761129861137f565b5b828202905092915050565b60006112af826112f8565b9050919050565b60008115159050919050565b6000819050919050565b60007fffffffff0000000000000000000000000000000000000000000000000000000082169050919050565b600073ffffffffffffffffffffffffffffffffffffffff82169050919050565b6000819050919050565b60005b83811015611340578082015181840152602081019050611325565b8381111561134f576000848401525b50505050565b600061136082611318565b915060008214156113745761137361137f565b5b600182039050919050565b7f4e487b7100000000000000000000000000000000000000000000000000000000600052601160045260246000fd5b6000601f19601f8301169050919050565b7f537472696e67733a20686578206c656e67746820696e73756666696369656e74600082015250565b7f496e697469616c697a61626c653a20636f6e747261637420697320616c72656160008201527f647920696e697469616c697a6564000000000000000000000000000000000000602082015250565b7f416363657373436f6e74726f6c3a206163636f756e7420000000000000000000600082015250565b7f206973206d697373696e6720726f6c6520000000000000000000000000000000600082015250565b7f416363657373436f6e74726f6c3a2063616e206f6e6c792072656e6f756e636560008201527f20726f6c657320666f722073656c660000000000000000000000000000000000602082015250565b6114e1816112a4565b81146114ec57600080fd5b50565b6114f8816112c2565b811461150357600080fd5b50565b61150f816112cc565b811461151a57600080fd5b5056fea2646970667358221220e3896e6b0eb550aff2840a3dfee7616b6fc26224d66c8b4f4098f8b66b9fc6cd64736f6c63430008020033608060405234801561001057600080fd5b50604051610a7c380380610a7c833981810160405281019061003291906101ed565b61004e61004361006360201b60201c565b61006b60201b60201c565b61005d8161012f60201b60201c565b50610302565b600033905090565b60008060009054906101000a900473ffffffffffffffffffffffffffffffffffffffff169050816000806101000a81548173ffffffffffffffffffffffffffffffffffffffff021916908373ffffffffffffffffffffffffffffffffffffffff1602179055508173ffffffffffffffffffffffffffffffffffffffff168173ffffffffffffffffffffffffffffffffffffffff167f8be0079c531659141344cd1fd0a4f28419497f9722a3daafe3b4186f6b6457e060405160405180910390a35050565b610142816101c560201b6103781760201c565b610181576040517f08c379a000000000000000000000000000000000000000000000000000000000815260040161017890610239565b60405180910390fd5b80600160006101000a81548173ffffffffffffffffffffffffffffffffffffffff021916908373ffffffffffffffffffffffffffffffffffffffff16021790555050565b600080823b905060008111915050919050565b6000815190506101e7816102eb565b92915050565b6000602082840312156101ff57600080fd5b600061020d848285016101d8565b91505092915050565b6000610223603383610259565b915061022e8261029c565b604082019050919050565b6000602082019050818103600083015261025281610216565b9050919050565b600082825260208201905092915050565b60006102758261027c565b9050919050565b600073ffffffffffffffffffffffffffffffffffffffff82169050919050565b7f5570677261646561626c65426561636f6e3a20696d706c656d656e746174696f60008201527f6e206973206e6f74206120636f6e747261637400000000000000000000000000602082015250565b6102f48161026a565b81146102ff57600080fd5b50565b61076b806103116000396000f3fe608060405234801561001057600080fd5b50600436106100575760003560e01c80633659cfe61461005c5780635c60da1b14610078578063715018a6146100965780638da5cb5b146100a0578063f2fde38b146100be575b600080fd5b610076600480360381019061007191906104f8565b6100da565b005b6100806101a5565b60405161008d9190610599565b60405180910390f35b61009e6101cf565b005b6100a8610257565b6040516100b59190610599565b60405180910390f35b6100d860048036038101906100d391906104f8565b610280565b005b6100e261038b565b73ffffffffffffffffffffffffffffffffffffffff16610100610257565b73ffffffffffffffffffffffffffffffffffffffff1614610156576040517f08c379a000000000000000000000000000000000000000000000000000000000815260040161014d906105f4565b60405180910390fd5b61015f81610393565b8073ffffffffffffffffffffffffffffffffffffffff167fbc7cd75a20ee27fd9adebab32041f755214dbc6bffa90cc0225b39da2e5c2d3b60405160405180910390a250565b6000600160009054906101000a900473ffffffffffffffffffffffffffffffffffffffff16905090565b6101d761038b565b73ffffffffffffffffffffffffffffffffffffffff166101f5610257565b73ffffffffffffffffffffffffffffffffffffffff161461024b576040517f08c379a0000000000000000000000000000000000000000000000000000000008152600401610242906105f4565b60405180910390fd5b610255600061041f565b565b60008060009054906101000a900473ffffffffffffffffffffffffffffffffffffffff16905090565b61028861038b565b73ffffffffffffffffffffffffffffffffffffffff166102a6610257565b73ffffffffffffffffffffffffffffffffffffffff16146102fc576040517f08c379a00000000000000000000000000000000000000000000000000000000081526004016102f3906105f4565b60405180910390fd5b600073ffffffffffffffffffffffffffffffffffffffff168173ffffffffffffffffffffffffffffffffffffffff16141561036c576040517f08c379a0000000000000000000000000000000000000000000000000000000008152600401610363906105b4565b60405180910390fd5b6103758161041f565b50565b600080823b905060008111915050919050565b600033905090565b61039c81610378565b6103db576040517f08c379a00000000000000000000000000000000000000000000000000000000081526004016103d2906105d4565b60405180910390fd5b80600160006101000a81548173ffffffffffffffffffffffffffffffffffffffff021916908373ffffffffffffffffffffffffffffffffffffffff16021790555050565b60008060009054906101000a900473ffffffffffffffffffffffffffffffffffffffff169050816000806101000a81548173ffffffffffffffffffffffffffffffffffffffff021916908373ffffffffffffffffffffffffffffffffffffffff1602179055508173ffffffffffffffffffffffffffffffffffffffff168173ffffffffffffffffffffffffffffffffffffffff167f8be0079c531659141344cd1fd0a4f28419497f9722a3daafe3b4186f6b6457e060405160405180910390a35050565b6000813590506104f28161071e565b92915050565b60006020828403121561050a57600080fd5b6000610518848285016104e3565b91505092915050565b61052a81610625565b82525050565b600061053d602683610614565b915061054882610657565b604082019050919050565b6000610560603383610614565b915061056b826106a6565b604082019050919050565b6000610583602083610614565b915061058e826106f5565b602082019050919050565b60006020820190506105ae6000830184610521565b92915050565b600060208201905081810360008301526105cd81610530565b9050919050565b600060208201905081810360008301526105ed81610553565b9050919050565b6000602082019050818103600083015261060d81610576565b9050919050565b600082825260208201905092915050565b600061063082610637565b9050919050565b600073ffffffffffffffffffffffffffffffffffffffff82169050919050565b7f4f776e61626c653a206e6577206f776e657220697320746865207a65726f206160008201527f6464726573730000000000000000000000000000000000000000000000000000602082015250565b7f5570677261646561626c65426561636f6e3a20696d706c656d656e746174696f60008201527f6e206973206e6f74206120636f6e747261637400000000000000000000000000602082015250565b7f4f776e61626c653a2063616c6c6572206973206e6f7420746865206f776e6572600082015250565b61072781610625565b811461073257600080fd5b5056fea2646970667358221220ae3e55fc7ed873fc18de2c239520d53b0daa6ed59a785aaf0f87be5b0da3530d64736f6c63430008020033",
  "linkReferences": {},
  "deployedLinkReferences": {}
}