{
  "_format": "hh-sol-artifact-1",
  "contractName": "PancakePairMock",
  "sourceName": "contracts/mock/PancakeRouterMock.sol",
  "abi": [
    {
      "inputs": [
        {
          "internalType": "address",
          "name": "tokenA_",
          "type": "address"
        },
        {
          "internalType": "address",
          "name": "tokenB_",
          "type": "address"
        }
      ],
      "stateMutability": "nonpayable",
      "type": "constructor"
    },
    {
      "inputs": [],
      "name": "reservesA",
      "outputs": [
        {
          "internalType": "uint256",
          "name": "",
          "type": "uint256"
        }
      ],
      "stateMutability": "view",
      "type": "function"
    },
    {
      "inputs": [],
      "name": "reservesB",
      "outputs": [
        {
          "internalType": "uint256",
          "name": "",
          "type": "uint256"
        }
      ],
      "stateMutability": "view",
      "type": "function"
    },
    {
      "inputs": [],
      "name": "tokenA",
      "outputs": [
        {
          "internalType": "address",
          "name": "",
          "type": "address"
        }
      ],
      "stateMutability": "view",
      "type": "function"
    },
    {
      "inputs": [],
      "name": "tokenB",
      "outputs": [
        {
          "internalType": "address",
          "name": "",
          "type": "address"
        }
      ],
      "stateMutability": "view",
      "type": "function"
    }
  ],
  "bytecode": "0x608060405234801561001057600080fd5b506040516104fd3803806104fd833981810160405281019061003291906100cf565b816000806101000a81548173ffffffffffffffffffffffffffffffffffffffff021916908373ffffffffffffffffffffffffffffffffffffffff16021790555080600160006101000a81548173ffffffffffffffffffffffffffffffffffffffff021916908373ffffffffffffffffffffffffffffffffffffffff1602179055505050610154565b6000815190506100c98161013d565b92915050565b600080604083850312156100e257600080fd5b60006100f0858286016100ba565b9250506020610101858286016100ba565b9150509250929050565b60006101168261011d565b9050919050565b600073ffffffffffffffffffffffffffffffffffffffff82169050919050565b6101468161010b565b811461015157600080fd5b50565b61039a806101636000396000f3fe608060405234801561001057600080fd5b506004361061004c5760003560e01c80630fc63d10146100515780635f64b55b1461006f5780639a79f0311461008d5780639f31edd5146100ab575b600080fd5b6100596100c9565b60405161006691906102db565b60405180910390f35b6100776100ed565b60405161008491906102db565b60405180910390f35b610095610113565b6040516100a291906102f6565b60405180910390f35b6100b36101ca565b6040516100c091906102f6565b60405180910390f35b60008054906101000a900473ffffffffffffffffffffffffffffffffffffffff1681565b600160009054906101000a900473ffffffffffffffffffffffffffffffffffffffff1681565b600080600160009054906101000a900473ffffffffffffffffffffffffffffffffffffffff1690508073ffffffffffffffffffffffffffffffffffffffff166370a08231306040518263ffffffff1660e01b815260040161017491906102db565b60206040518083038186803b15801561018c57600080fd5b505afa1580156101a0573d6000803e3d6000fd5b505050506040513d601f19601f820116820180604052508101906101c49190610294565b91505090565b60008060008054906101000a900473ffffffffffffffffffffffffffffffffffffffff1690508073ffffffffffffffffffffffffffffffffffffffff166370a08231306040518263ffffffff1660e01b815260040161022991906102db565b60206040518083038186803b15801561024157600080fd5b505afa158015610255573d6000803e3d6000fd5b505050506040513d601f19601f820116820180604052508101906102799190610294565b91505090565b60008151905061028e8161034d565b92915050565b6000602082840312156102a657600080fd5b60006102b48482850161027f565b91505092915050565b6102c681610311565b82525050565b6102d581610343565b82525050565b60006020820190506102f060008301846102bd565b92915050565b600060208201905061030b60008301846102cc565b92915050565b600061031c82610323565b9050919050565b600073ffffffffffffffffffffffffffffffffffffffff82169050919050565b6000819050919050565b61035681610343565b811461036157600080fd5b5056fea2646970667358221220a6be666e63a7cc8926f578ac0c301fd25766846351efe52c1f041659bb6cbfc064736f6c63430008020033",
  "linkReferences": {},
  "deployedLinkReferences": {}
}