{
  "_format": "hh-sol-artifact-1",
  "contractName": "PancakeRouterMock",
  "sourceName": "contracts/mock/PancakeRouterMock.sol",
  "abi": [
    {
      "inputs": [],
      "stateMutability": "nonpayable",
      "type": "constructor"
    },
    {
      "inputs": [
        {
          "internalType": "address",
          "name": "tokenA",
          "type": "address"
        },
        {
          "internalType": "address",
          "name": "tokenB",
          "type": "address"
        },
        {
          "internalType": "uint256",
          "name": "amountA",
          "type": "uint256"
        },
        {
          "internalType": "uint256",
          "name": "amountB",
          "type": "uint256"
        }
      ],
      "name": "addLiquidity",
      "outputs": [
        {
          "internalType": "address",
          "name": "",
          "type": "address"
        }
      ],
      "stateMutability": "nonpayable",
      "type": "function"
    },
    {
      "inputs": [
        {
          "internalType": "address",
          "name": "tokenA",
          "type": "address"
        },
        {
          "internalType": "address",
          "name": "tokenB",
          "type": "address"
        }
      ],
      "name": "createPair",
      "outputs": [
        {
          "internalType": "address",
          "name": "",
          "type": "address"
        }
      ],
      "stateMutability": "nonpayable",
      "type": "function"
    },
    {
      "inputs": [],
      "name": "factory",
      "outputs": [
        {
          "internalType": "address",
          "name": "",
          "type": "address"
        }
      ],
      "stateMutability": "view",
      "type": "function"
    }
  ],
  "bytecode": "0x608060405234801561001057600080fd5b50600060405161001f90610084565b604051809103906000f08015801561003b573d6000803e3d6000fd5b509050806000806101000a81548173ffffffffffffffffffffffffffffffffffffffff021916908373ffffffffffffffffffffffffffffffffffffffff16021790555050610091565b610c4a80610a6683390190565b6109c6806100a06000396000f3fe608060405234801561001057600080fd5b50600436106100415760003560e01c8063c45a015514610046578063c9c6539614610064578063cf6c62ea14610094575b600080fd5b61004e6100c4565b60405161005b9190610837565b60405180910390f35b61007e6004803603810190610079919061065c565b6100e8565b60405161008b9190610837565b60405180910390f35b6100ae60048036038101906100a99190610698565b61026d565b6040516100bb9190610837565b60405180910390f35b60008054906101000a900473ffffffffffffffffffffffffffffffffffffffff1681565b60008060008054906101000a900473ffffffffffffffffffffffffffffffffffffffff16905060008173ffffffffffffffffffffffffffffffffffffffff1663e6a4390586866040518363ffffffff1660e01b815260040161014b929190610852565b60206040518083038186803b15801561016357600080fd5b505afa158015610177573d6000803e3d6000fd5b505050506040513d601f19601f8201168201806040525081019061019b9190610633565b9050600073ffffffffffffffffffffffffffffffffffffffff168173ffffffffffffffffffffffffffffffffffffffff161415610262578173ffffffffffffffffffffffffffffffffffffffff1663c9c6539686866040518363ffffffff1660e01b815260040161020d929190610852565b602060405180830381600087803b15801561022757600080fd5b505af115801561023b573d6000803e3d6000fd5b505050506040513d601f19601f8201168201806040525081019061025f9190610633565b90505b809250505092915050565b60008061027a86866100e8565b905060008690506000869050858273ffffffffffffffffffffffffffffffffffffffff1663dd62ed3e33306040518363ffffffff1660e01b81526004016102c2929190610852565b60206040518083038186803b1580156102da57600080fd5b505afa1580156102ee573d6000803e3d6000fd5b505050506040513d601f19601f820116820180604052508101906103129190610724565b1015610353576040517f08c379a000000000000000000000000000000000000000000000000000000000815260040161034a906108b2565b60405180910390fd5b848173ffffffffffffffffffffffffffffffffffffffff1663dd62ed3e33306040518363ffffffff1660e01b815260040161038f929190610852565b60206040518083038186803b1580156103a757600080fd5b505afa1580156103bb573d6000803e3d6000fd5b505050506040513d601f19601f820116820180604052508101906103df9190610724565b1015610420576040517f08c379a0000000000000000000000000000000000000000000000000000000008152600401610417906108b2565b60405180910390fd5b8173ffffffffffffffffffffffffffffffffffffffff166323b872dd3385896040518463ffffffff1660e01b815260040161045d9392919061087b565b602060405180830381600087803b15801561047757600080fd5b505af115801561048b573d6000803e3d6000fd5b505050506040513d601f19601f820116820180604052508101906104af91906106fb565b6104ee576040517f08c379a00000000000000000000000000000000000000000000000000000000081526004016104e5906108d2565b60405180910390fd5b8073ffffffffffffffffffffffffffffffffffffffff166323b872dd3385886040518463ffffffff1660e01b815260040161052b9392919061087b565b602060405180830381600087803b15801561054557600080fd5b505af1158015610559573d6000803e3d6000fd5b505050506040513d601f19601f8201168201806040525081019061057d91906106fb565b6105bc576040517f08c379a00000000000000000000000000000000000000000000000000000000081526004016105b3906108d2565b60405180910390fd5b829350505050949350505050565b6000813590506105d98161094b565b92915050565b6000815190506105ee8161094b565b92915050565b60008151905061060381610962565b92915050565b60008135905061061881610979565b92915050565b60008151905061062d81610979565b92915050565b60006020828403121561064557600080fd5b6000610653848285016105df565b91505092915050565b6000806040838503121561066f57600080fd5b600061067d858286016105ca565b925050602061068e858286016105ca565b9150509250929050565b600080600080608085870312156106ae57600080fd5b60006106bc878288016105ca565b94505060206106cd878288016105ca565b93505060406106de87828801610609565b92505060606106ef87828801610609565b91505092959194509250565b60006020828403121561070d57600080fd5b600061071b848285016105f4565b91505092915050565b60006020828403121561073657600080fd5b60006107448482850161061e565b91505092915050565b61075681610903565b82525050565b6000610769603f836108f2565b91507f50616e63616b65526f757465724d6f636b3a20636f6e7472616374206e65656460008301527f7320616c6c6f77616e636520746f206d616e6167652074686520746f6b656e006020830152604082019050919050565b60006107cf6022836108f2565b91507f50616e63616b65526f757465724d6f636b3a207472616e73666572206661696c60008301527f65640000000000000000000000000000000000000000000000000000000000006020830152604082019050919050565b61083181610941565b82525050565b600060208201905061084c600083018461074d565b92915050565b6000604082019050610867600083018561074d565b610874602083018461074d565b9392505050565b6000606082019050610890600083018661074d565b61089d602083018561074d565b6108aa6040830184610828565b949350505050565b600060208201905081810360008301526108cb8161075c565b9050919050565b600060208201905081810360008301526108eb816107c2565b9050919050565b600082825260208201905092915050565b600061090e82610921565b9050919050565b60008115159050919050565b600073ffffffffffffffffffffffffffffffffffffffff82169050919050565b6000819050919050565b61095481610903565b811461095f57600080fd5b50565b61096b81610915565b811461097657600080fd5b50565b61098281610941565b811461098d57600080fd5b5056fea26469706673582212208753aad12f3d96ed7785889b802052aaab2d4b5272fa95dad26a5e74bb9c0d2f64736f6c63430008000033608060405234801561001057600080fd5b50610c2a806100206000396000f3fe608060405234801561001057600080fd5b50600436106100365760003560e01c8063c9c653961461003b578063e6a439051461006b575b600080fd5b610055600480360381019061005091906104ee565b61009b565b60405161006291906105f9565b60405180910390f35b610085600480360381019061008091906104ee565b61048a565b60405161009291906105f9565b60405180910390f35b60008173ffffffffffffffffffffffffffffffffffffffff168373ffffffffffffffffffffffffffffffffffffffff16141561010c576040517f08c379a00000000000000000000000000000000000000000000000000000000081526004016101039061063d565b60405180910390fd5b6000808373ffffffffffffffffffffffffffffffffffffffff168573ffffffffffffffffffffffffffffffffffffffff161061014957838561014c565b84845b91509150600073ffffffffffffffffffffffffffffffffffffffff168273ffffffffffffffffffffffffffffffffffffffff1614156101c0576040517f08c379a00000000000000000000000000000000000000000000000000000000081526004016101b79061067d565b60405180910390fd5b600073ffffffffffffffffffffffffffffffffffffffff166000808473ffffffffffffffffffffffffffffffffffffffff1673ffffffffffffffffffffffffffffffffffffffff16815260200190815260200160002060008373ffffffffffffffffffffffffffffffffffffffff1673ffffffffffffffffffffffffffffffffffffffff16815260200190815260200160002060009054906101000a900473ffffffffffffffffffffffffffffffffffffffff1673ffffffffffffffffffffffffffffffffffffffff16146102ca576040517f08c379a00000000000000000000000000000000000000000000000000000000081526004016102c19061065d565b60405180910390fd5b600085856040516102da906104cc565b6102e5929190610614565b604051809103906000f080158015610301573d6000803e3d6000fd5b5090506000819050806000808673ffffffffffffffffffffffffffffffffffffffff1673ffffffffffffffffffffffffffffffffffffffff16815260200190815260200160002060008573ffffffffffffffffffffffffffffffffffffffff1673ffffffffffffffffffffffffffffffffffffffff16815260200190815260200160002060006101000a81548173ffffffffffffffffffffffffffffffffffffffff021916908373ffffffffffffffffffffffffffffffffffffffff160217905550806000808573ffffffffffffffffffffffffffffffffffffffff1673ffffffffffffffffffffffffffffffffffffffff16815260200190815260200160002060008673ffffffffffffffffffffffffffffffffffffffff1673ffffffffffffffffffffffffffffffffffffffff16815260200190815260200160002060006101000a81548173ffffffffffffffffffffffffffffffffffffffff021916908373ffffffffffffffffffffffffffffffffffffffff1602179055508094505050505092915050565b60006020528160005260406000206020528060005260406000206000915091509054906101000a900473ffffffffffffffffffffffffffffffffffffffff1681565b6104fd806106f883390190565b6000813590506104e8816106e0565b92915050565b6000806040838503121561050157600080fd5b600061050f858286016104d9565b9250506020610520858286016104d9565b9150509250929050565b610533816106ae565b82525050565b6000610546601c8361069d565b91507f50616e63616b653a204944454e544943414c5f414444524553534553000000006000830152602082019050919050565b600061058660148361069d565b91507f50616e63616b653a20504149525f4558495354530000000000000000000000006000830152602082019050919050565b60006105c660158361069d565b91507f50616e63616b653a205a45524f5f4144445245535300000000000000000000006000830152602082019050919050565b600060208201905061060e600083018461052a565b92915050565b6000604082019050610629600083018561052a565b610636602083018461052a565b9392505050565b6000602082019050818103600083015261065681610539565b9050919050565b6000602082019050818103600083015261067681610579565b9050919050565b60006020820190508181036000830152610696816105b9565b9050919050565b600082825260208201905092915050565b60006106b9826106c0565b9050919050565b600073ffffffffffffffffffffffffffffffffffffffff82169050919050565b6106e9816106ae565b81146106f457600080fd5b5056fe608060405234801561001057600080fd5b506040516104fd3803806104fd833981810160405281019061003291906100cf565b816000806101000a81548173ffffffffffffffffffffffffffffffffffffffff021916908373ffffffffffffffffffffffffffffffffffffffff16021790555080600160006101000a81548173ffffffffffffffffffffffffffffffffffffffff021916908373ffffffffffffffffffffffffffffffffffffffff1602179055505050610154565b6000815190506100c98161013d565b92915050565b600080604083850312156100e257600080fd5b60006100f0858286016100ba565b9250506020610101858286016100ba565b9150509250929050565b60006101168261011d565b9050919050565b600073ffffffffffffffffffffffffffffffffffffffff82169050919050565b6101468161010b565b811461015157600080fd5b50565b61039a806101636000396000f3fe608060405234801561001057600080fd5b506004361061004c5760003560e01c80630fc63d10146100515780635f64b55b1461006f5780639a79f0311461008d5780639f31edd5146100ab575b600080fd5b6100596100c9565b60405161006691906102db565b60405180910390f35b6100776100ed565b60405161008491906102db565b60405180910390f35b610095610113565b6040516100a291906102f6565b60405180910390f35b6100b36101ca565b6040516100c091906102f6565b60405180910390f35b60008054906101000a900473ffffffffffffffffffffffffffffffffffffffff1681565b600160009054906101000a900473ffffffffffffffffffffffffffffffffffffffff1681565b600080600160009054906101000a900473ffffffffffffffffffffffffffffffffffffffff1690508073ffffffffffffffffffffffffffffffffffffffff166370a08231306040518263ffffffff1660e01b815260040161017491906102db565b60206040518083038186803b15801561018c57600080fd5b505afa1580156101a0573d6000803e3d6000fd5b505050506040513d601f19601f820116820180604052508101906101c49190610294565b91505090565b60008060008054906101000a900473ffffffffffffffffffffffffffffffffffffffff1690508073ffffffffffffffffffffffffffffffffffffffff166370a08231306040518263ffffffff1660e01b815260040161022991906102db565b60206040518083038186803b15801561024157600080fd5b505afa158015610255573d6000803e3d6000fd5b505050506040513d601f19601f820116820180604052508101906102799190610294565b91505090565b60008151905061028e8161034d565b92915050565b6000602082840312156102a657600080fd5b60006102b48482850161027f565b91505092915050565b6102c681610311565b82525050565b6102d581610343565b82525050565b60006020820190506102f060008301846102bd565b92915050565b600060208201905061030b60008301846102cc565b92915050565b600061031c82610323565b9050919050565b600073ffffffffffffffffffffffffffffffffffffffff82169050919050565b6000819050919050565b61035681610343565b811461036157600080fd5b5056fea2646970667358221220cdb37452084b7a4bfc02ac6cabdd53f16a8001e484b630b0f3902880cae18a1764736f6c63430008000033a26469706673582212205874f9eca841a6ef5abb1c6a6ac7c805248997a392f9a512a9f22105c05dbbdf64736f6c63430008000033",
  "linkReferences": {},
  "deployedLinkReferences": {}
}