{
  "_format": "hh-sol-artifact-1",
  "contractName": "PancakeRouterMock",
  "sourceName": "contracts/mock/PancakeRouterMock.sol",
  "abi": [
    {
      "inputs": [],
      "stateMutability": "nonpayable",
      "type": "constructor"
    },
    {
      "inputs": [
        {
          "internalType": "address",
          "name": "tokenA",
          "type": "address"
        },
        {
          "internalType": "address",
          "name": "tokenB",
          "type": "address"
        },
        {
          "internalType": "uint256",
          "name": "amountA",
          "type": "uint256"
        },
        {
          "internalType": "uint256",
          "name": "amountB",
          "type": "uint256"
        }
      ],
      "name": "addLiquidity",
      "outputs": [
        {
          "internalType": "address",
          "name": "",
          "type": "address"
        }
      ],
      "stateMutability": "nonpayable",
      "type": "function"
    },
    {
      "inputs": [
        {
          "internalType": "address",
          "name": "tokenA",
          "type": "address"
        },
        {
          "internalType": "address",
          "name": "tokenB",
          "type": "address"
        }
      ],
      "name": "createPair",
      "outputs": [
        {
          "internalType": "address",
          "name": "",
          "type": "address"
        }
      ],
      "stateMutability": "nonpayable",
      "type": "function"
    },
    {
      "inputs": [],
      "name": "factory",
      "outputs": [
        {
          "internalType": "address",
          "name": "",
          "type": "address"
        }
      ],
      "stateMutability": "view",
      "type": "function"
    }
  ],
  "bytecode": "0x608060405234801561001057600080fd5b50600060405161001f90610084565b604051809103906000f08015801561003b573d6000803e3d6000fd5b509050806000806101000a81548173ffffffffffffffffffffffffffffffffffffffff021916908373ffffffffffffffffffffffffffffffffffffffff16021790555050610091565b610c6e80610a7e83390190565b6109de806100a06000396000f3fe608060405234801561001057600080fd5b50600436106100415760003560e01c8063c45a015514610046578063c9c6539614610064578063cf6c62ea14610094575b600080fd5b61004e6100c4565b60405161005b91906107b1565b60405180910390f35b61007e6004803603810190610079919061065c565b6100e8565b60405161008b91906107b1565b60405180910390f35b6100ae60048036038101906100a99190610698565b61026d565b6040516100bb91906107b1565b60405180910390f35b60008054906101000a900473ffffffffffffffffffffffffffffffffffffffff1681565b60008060008054906101000a900473ffffffffffffffffffffffffffffffffffffffff16905060008173ffffffffffffffffffffffffffffffffffffffff1663e6a4390586866040518363ffffffff1660e01b815260040161014b9291906107cc565b60206040518083038186803b15801561016357600080fd5b505afa158015610177573d6000803e3d6000fd5b505050506040513d601f19601f8201168201806040525081019061019b9190610633565b9050600073ffffffffffffffffffffffffffffffffffffffff168173ffffffffffffffffffffffffffffffffffffffff161415610262578173ffffffffffffffffffffffffffffffffffffffff1663c9c6539686866040518363ffffffff1660e01b815260040161020d9291906107cc565b602060405180830381600087803b15801561022757600080fd5b505af115801561023b573d6000803e3d6000fd5b505050506040513d601f19601f8201168201806040525081019061025f9190610633565b90505b809250505092915050565b60008061027a86866100e8565b905060008690506000869050858273ffffffffffffffffffffffffffffffffffffffff1663dd62ed3e33306040518363ffffffff1660e01b81526004016102c29291906107cc565b60206040518083038186803b1580156102da57600080fd5b505afa1580156102ee573d6000803e3d6000fd5b505050506040513d601f19601f820116820180604052508101906103129190610724565b1015610353576040517f08c379a000000000000000000000000000000000000000000000000000000000815260040161034a9061082c565b60405180910390fd5b848173ffffffffffffffffffffffffffffffffffffffff1663dd62ed3e33306040518363ffffffff1660e01b815260040161038f9291906107cc565b60206040518083038186803b1580156103a757600080fd5b505afa1580156103bb573d6000803e3d6000fd5b505050506040513d601f19601f820116820180604052508101906103df9190610724565b1015610420576040517f08c379a00000000000000000000000000000000000000000000000000000000081526004016104179061082c565b60405180910390fd5b8173ffffffffffffffffffffffffffffffffffffffff166323b872dd3385896040518463ffffffff1660e01b815260040161045d939291906107f5565b602060405180830381600087803b15801561047757600080fd5b505af115801561048b573d6000803e3d6000fd5b505050506040513d601f19601f820116820180604052508101906104af91906106fb565b6104ee576040517f08c379a00000000000000000000000000000000000000000000000000000000081526004016104e59061084c565b60405180910390fd5b8073ffffffffffffffffffffffffffffffffffffffff166323b872dd3385886040518463ffffffff1660e01b815260040161052b939291906107f5565b602060405180830381600087803b15801561054557600080fd5b505af1158015610559573d6000803e3d6000fd5b505050506040513d601f19601f8201168201806040525081019061057d91906106fb565b6105bc576040517f08c379a00000000000000000000000000000000000000000000000000000000081526004016105b39061084c565b60405180910390fd5b829350505050949350505050565b6000813590506105d981610963565b92915050565b6000815190506105ee81610963565b92915050565b6000815190506106038161097a565b92915050565b60008135905061061881610991565b92915050565b60008151905061062d81610991565b92915050565b60006020828403121561064557600080fd5b6000610653848285016105df565b91505092915050565b6000806040838503121561066f57600080fd5b600061067d858286016105ca565b925050602061068e858286016105ca565b9150509250929050565b600080600080608085870312156106ae57600080fd5b60006106bc878288016105ca565b94505060206106cd878288016105ca565b93505060406106de87828801610609565b92505060606106ef87828801610609565b91505092959194509250565b60006020828403121561070d57600080fd5b600061071b848285016105f4565b91505092915050565b60006020828403121561073657600080fd5b60006107448482850161061e565b91505092915050565b6107568161087d565b82525050565b6000610769603f8361086c565b9150610774826108c5565b604082019050919050565b600061078c60228361086c565b915061079782610914565b604082019050919050565b6107ab816108bb565b82525050565b60006020820190506107c6600083018461074d565b92915050565b60006040820190506107e1600083018561074d565b6107ee602083018461074d565b9392505050565b600060608201905061080a600083018661074d565b610817602083018561074d565b61082460408301846107a2565b949350505050565b600060208201905081810360008301526108458161075c565b9050919050565b600060208201905081810360008301526108658161077f565b9050919050565b600082825260208201905092915050565b60006108888261089b565b9050919050565b60008115159050919050565b600073ffffffffffffffffffffffffffffffffffffffff82169050919050565b6000819050919050565b7f50616e63616b65526f757465724d6f636b3a20636f6e7472616374206e65656460008201527f7320616c6c6f77616e636520746f206d616e6167652074686520746f6b656e00602082015250565b7f50616e63616b65526f757465724d6f636b3a207472616e73666572206661696c60008201527f6564000000000000000000000000000000000000000000000000000000000000602082015250565b61096c8161087d565b811461097757600080fd5b50565b6109838161088f565b811461098e57600080fd5b50565b61099a816108bb565b81146109a557600080fd5b5056fea2646970667358221220f64c0e164f7207bc605d0e857ce0a76bf1d6e610fcc7be23e70f65a285a74a6b64736f6c63430008020033608060405234801561001057600080fd5b50610c4e806100206000396000f3fe608060405234801561001057600080fd5b50600436106100365760003560e01c8063c9c653961461003b578063e6a439051461006b575b600080fd5b610055600480360381019061005091906104ee565b61009b565b60405161006291906105a2565b60405180910390f35b610085600480360381019061008091906104ee565b61048a565b60405161009291906105a2565b60405180910390f35b60008173ffffffffffffffffffffffffffffffffffffffff168373ffffffffffffffffffffffffffffffffffffffff16141561010c576040517f08c379a0000000000000000000000000000000000000000000000000000000008152600401610103906105e6565b60405180910390fd5b6000808373ffffffffffffffffffffffffffffffffffffffff168573ffffffffffffffffffffffffffffffffffffffff161061014957838561014c565b84845b91509150600073ffffffffffffffffffffffffffffffffffffffff168273ffffffffffffffffffffffffffffffffffffffff1614156101c0576040517f08c379a00000000000000000000000000000000000000000000000000000000081526004016101b790610626565b60405180910390fd5b600073ffffffffffffffffffffffffffffffffffffffff166000808473ffffffffffffffffffffffffffffffffffffffff1673ffffffffffffffffffffffffffffffffffffffff16815260200190815260200160002060008373ffffffffffffffffffffffffffffffffffffffff1673ffffffffffffffffffffffffffffffffffffffff16815260200190815260200160002060009054906101000a900473ffffffffffffffffffffffffffffffffffffffff1673ffffffffffffffffffffffffffffffffffffffff16146102ca576040517f08c379a00000000000000000000000000000000000000000000000000000000081526004016102c190610606565b60405180910390fd5b600085856040516102da906104cc565b6102e59291906105bd565b604051809103906000f080158015610301573d6000803e3d6000fd5b5090506000819050806000808673ffffffffffffffffffffffffffffffffffffffff1673ffffffffffffffffffffffffffffffffffffffff16815260200190815260200160002060008573ffffffffffffffffffffffffffffffffffffffff1673ffffffffffffffffffffffffffffffffffffffff16815260200190815260200160002060006101000a81548173ffffffffffffffffffffffffffffffffffffffff021916908373ffffffffffffffffffffffffffffffffffffffff160217905550806000808573ffffffffffffffffffffffffffffffffffffffff1673ffffffffffffffffffffffffffffffffffffffff16815260200190815260200160002060008673ffffffffffffffffffffffffffffffffffffffff1673ffffffffffffffffffffffffffffffffffffffff16815260200190815260200160002060006101000a81548173ffffffffffffffffffffffffffffffffffffffff021916908373ffffffffffffffffffffffffffffffffffffffff1602179055508094505050505092915050565b60006020528160005260406000206020528060005260406000206000915091509054906101000a900473ffffffffffffffffffffffffffffffffffffffff1681565b6104fd8061071c83390190565b6000813590506104e881610704565b92915050565b6000806040838503121561050157600080fd5b600061050f858286016104d9565b9250506020610520858286016104d9565b9150509250929050565b61053381610657565b82525050565b6000610546601c83610646565b915061055182610689565b602082019050919050565b6000610569601483610646565b9150610574826106b2565b602082019050919050565b600061058c601583610646565b9150610597826106db565b602082019050919050565b60006020820190506105b7600083018461052a565b92915050565b60006040820190506105d2600083018561052a565b6105df602083018461052a565b9392505050565b600060208201905081810360008301526105ff81610539565b9050919050565b6000602082019050818103600083015261061f8161055c565b9050919050565b6000602082019050818103600083015261063f8161057f565b9050919050565b600082825260208201905092915050565b600061066282610669565b9050919050565b600073ffffffffffffffffffffffffffffffffffffffff82169050919050565b7f50616e63616b653a204944454e544943414c5f41444452455353455300000000600082015250565b7f50616e63616b653a20504149525f455849535453000000000000000000000000600082015250565b7f50616e63616b653a205a45524f5f414444524553530000000000000000000000600082015250565b61070d81610657565b811461071857600080fd5b5056fe608060405234801561001057600080fd5b506040516104fd3803806104fd833981810160405281019061003291906100cf565b816000806101000a81548173ffffffffffffffffffffffffffffffffffffffff021916908373ffffffffffffffffffffffffffffffffffffffff16021790555080600160006101000a81548173ffffffffffffffffffffffffffffffffffffffff021916908373ffffffffffffffffffffffffffffffffffffffff1602179055505050610154565b6000815190506100c98161013d565b92915050565b600080604083850312156100e257600080fd5b60006100f0858286016100ba565b9250506020610101858286016100ba565b9150509250929050565b60006101168261011d565b9050919050565b600073ffffffffffffffffffffffffffffffffffffffff82169050919050565b6101468161010b565b811461015157600080fd5b50565b61039a806101636000396000f3fe608060405234801561001057600080fd5b506004361061004c5760003560e01c80630fc63d10146100515780635f64b55b1461006f5780639a79f0311461008d5780639f31edd5146100ab575b600080fd5b6100596100c9565b60405161006691906102db565b60405180910390f35b6100776100ed565b60405161008491906102db565b60405180910390f35b610095610113565b6040516100a291906102f6565b60405180910390f35b6100b36101ca565b6040516100c091906102f6565b60405180910390f35b60008054906101000a900473ffffffffffffffffffffffffffffffffffffffff1681565b600160009054906101000a900473ffffffffffffffffffffffffffffffffffffffff1681565b600080600160009054906101000a900473ffffffffffffffffffffffffffffffffffffffff1690508073ffffffffffffffffffffffffffffffffffffffff166370a08231306040518263ffffffff1660e01b815260040161017491906102db565b60206040518083038186803b15801561018c57600080fd5b505afa1580156101a0573d6000803e3d6000fd5b505050506040513d601f19601f820116820180604052508101906101c49190610294565b91505090565b60008060008054906101000a900473ffffffffffffffffffffffffffffffffffffffff1690508073ffffffffffffffffffffffffffffffffffffffff166370a08231306040518263ffffffff1660e01b815260040161022991906102db565b60206040518083038186803b15801561024157600080fd5b505afa158015610255573d6000803e3d6000fd5b505050506040513d601f19601f820116820180604052508101906102799190610294565b91505090565b60008151905061028e8161034d565b92915050565b6000602082840312156102a657600080fd5b60006102b48482850161027f565b91505092915050565b6102c681610311565b82525050565b6102d581610343565b82525050565b60006020820190506102f060008301846102bd565b92915050565b600060208201905061030b60008301846102cc565b92915050565b600061031c82610323565b9050919050565b600073ffffffffffffffffffffffffffffffffffffffff82169050919050565b6000819050919050565b61035681610343565b811461036157600080fd5b5056fea2646970667358221220a6be666e63a7cc8926f578ac0c301fd25766846351efe52c1f041659bb6cbfc064736f6c63430008020033a264697066735822122049bce3e1dcfbfee098b67095b9161a4bc35eb5382401ed264c8425c694f8088564736f6c63430008020033",
  "linkReferences": {},
  "deployedLinkReferences": {}
}