{
  "_format": "hh-sol-artifact-1",
  "contractName": "PancakeFactoryMock",
  "sourceName": "contracts/mock/PancakeRouterMock.sol",
  "abi": [
    {
      "inputs": [
        {
          "internalType": "address",
          "name": "tokenA",
          "type": "address"
        },
        {
          "internalType": "address",
          "name": "tokenB",
          "type": "address"
        }
      ],
      "name": "createPair",
      "outputs": [
        {
          "internalType": "address",
          "name": "",
          "type": "address"
        }
      ],
      "stateMutability": "nonpayable",
      "type": "function"
    },
    {
      "inputs": [
        {
          "internalType": "address",
          "name": "",
          "type": "address"
        },
        {
          "internalType": "address",
          "name": "",
          "type": "address"
        }
      ],
      "name": "getPair",
      "outputs": [
        {
          "internalType": "address",
          "name": "",
          "type": "address"
        }
      ],
      "stateMutability": "view",
      "type": "function"
    }
  ],
  "bytecode": "0x608060405234801561001057600080fd5b50610c4e806100206000396000f3fe608060405234801561001057600080fd5b50600436106100365760003560e01c8063c9c653961461003b578063e6a439051461006b575b600080fd5b610055600480360381019061005091906104ee565b61009b565b60405161006291906105a2565b60405180910390f35b610085600480360381019061008091906104ee565b61048a565b60405161009291906105a2565b60405180910390f35b60008173ffffffffffffffffffffffffffffffffffffffff168373ffffffffffffffffffffffffffffffffffffffff16141561010c576040517f08c379a0000000000000000000000000000000000000000000000000000000008152600401610103906105e6565b60405180910390fd5b6000808373ffffffffffffffffffffffffffffffffffffffff168573ffffffffffffffffffffffffffffffffffffffff161061014957838561014c565b84845b91509150600073ffffffffffffffffffffffffffffffffffffffff168273ffffffffffffffffffffffffffffffffffffffff1614156101c0576040517f08c379a00000000000000000000000000000000000000000000000000000000081526004016101b790610626565b60405180910390fd5b600073ffffffffffffffffffffffffffffffffffffffff166000808473ffffffffffffffffffffffffffffffffffffffff1673ffffffffffffffffffffffffffffffffffffffff16815260200190815260200160002060008373ffffffffffffffffffffffffffffffffffffffff1673ffffffffffffffffffffffffffffffffffffffff16815260200190815260200160002060009054906101000a900473ffffffffffffffffffffffffffffffffffffffff1673ffffffffffffffffffffffffffffffffffffffff16146102ca576040517f08c379a00000000000000000000000000000000000000000000000000000000081526004016102c190610606565b60405180910390fd5b600085856040516102da906104cc565b6102e59291906105bd565b604051809103906000f080158015610301573d6000803e3d6000fd5b5090506000819050806000808673ffffffffffffffffffffffffffffffffffffffff1673ffffffffffffffffffffffffffffffffffffffff16815260200190815260200160002060008573ffffffffffffffffffffffffffffffffffffffff1673ffffffffffffffffffffffffffffffffffffffff16815260200190815260200160002060006101000a81548173ffffffffffffffffffffffffffffffffffffffff021916908373ffffffffffffffffffffffffffffffffffffffff160217905550806000808573ffffffffffffffffffffffffffffffffffffffff1673ffffffffffffffffffffffffffffffffffffffff16815260200190815260200160002060008673ffffffffffffffffffffffffffffffffffffffff1673ffffffffffffffffffffffffffffffffffffffff16815260200190815260200160002060006101000a81548173ffffffffffffffffffffffffffffffffffffffff021916908373ffffffffffffffffffffffffffffffffffffffff1602179055508094505050505092915050565b60006020528160005260406000206020528060005260406000206000915091509054906101000a900473ffffffffffffffffffffffffffffffffffffffff1681565b6104fd8061071c83390190565b6000813590506104e881610704565b92915050565b6000806040838503121561050157600080fd5b600061050f858286016104d9565b9250506020610520858286016104d9565b9150509250929050565b61053381610657565b82525050565b6000610546601c83610646565b915061055182610689565b602082019050919050565b6000610569601483610646565b9150610574826106b2565b602082019050919050565b600061058c601583610646565b9150610597826106db565b602082019050919050565b60006020820190506105b7600083018461052a565b92915050565b60006040820190506105d2600083018561052a565b6105df602083018461052a565b9392505050565b600060208201905081810360008301526105ff81610539565b9050919050565b6000602082019050818103600083015261061f8161055c565b9050919050565b6000602082019050818103600083015261063f8161057f565b9050919050565b600082825260208201905092915050565b600061066282610669565b9050919050565b600073ffffffffffffffffffffffffffffffffffffffff82169050919050565b7f50616e63616b653a204944454e544943414c5f41444452455353455300000000600082015250565b7f50616e63616b653a20504149525f455849535453000000000000000000000000600082015250565b7f50616e63616b653a205a45524f5f414444524553530000000000000000000000600082015250565b61070d81610657565b811461071857600080fd5b5056fe608060405234801561001057600080fd5b506040516104fd3803806104fd833981810160405281019061003291906100cf565b816000806101000a81548173ffffffffffffffffffffffffffffffffffffffff021916908373ffffffffffffffffffffffffffffffffffffffff16021790555080600160006101000a81548173ffffffffffffffffffffffffffffffffffffffff021916908373ffffffffffffffffffffffffffffffffffffffff1602179055505050610154565b6000815190506100c98161013d565b92915050565b600080604083850312156100e257600080fd5b60006100f0858286016100ba565b9250506020610101858286016100ba565b9150509250929050565b60006101168261011d565b9050919050565b600073ffffffffffffffffffffffffffffffffffffffff82169050919050565b6101468161010b565b811461015157600080fd5b50565b61039a806101636000396000f3fe608060405234801561001057600080fd5b506004361061004c5760003560e01c80630fc63d10146100515780635f64b55b1461006f5780639a79f0311461008d5780639f31edd5146100ab575b600080fd5b6100596100c9565b60405161006691906102db565b60405180910390f35b6100776100ed565b60405161008491906102db565b60405180910390f35b610095610113565b6040516100a291906102f6565b60405180910390f35b6100b36101ca565b6040516100c091906102f6565b60405180910390f35b60008054906101000a900473ffffffffffffffffffffffffffffffffffffffff1681565b600160009054906101000a900473ffffffffffffffffffffffffffffffffffffffff1681565b600080600160009054906101000a900473ffffffffffffffffffffffffffffffffffffffff1690508073ffffffffffffffffffffffffffffffffffffffff166370a08231306040518263ffffffff1660e01b815260040161017491906102db565b60206040518083038186803b15801561018c57600080fd5b505afa1580156101a0573d6000803e3d6000fd5b505050506040513d601f19601f820116820180604052508101906101c49190610294565b91505090565b60008060008054906101000a900473ffffffffffffffffffffffffffffffffffffffff1690508073ffffffffffffffffffffffffffffffffffffffff166370a08231306040518263ffffffff1660e01b815260040161022991906102db565b60206040518083038186803b15801561024157600080fd5b505afa158015610255573d6000803e3d6000fd5b505050506040513d601f19601f820116820180604052508101906102799190610294565b91505090565b60008151905061028e8161034d565b92915050565b6000602082840312156102a657600080fd5b60006102b48482850161027f565b91505092915050565b6102c681610311565b82525050565b6102d581610343565b82525050565b60006020820190506102f060008301846102bd565b92915050565b600060208201905061030b60008301846102cc565b92915050565b600061031c82610323565b9050919050565b600073ffffffffffffffffffffffffffffffffffffffff82169050919050565b6000819050919050565b61035681610343565b811461036157600080fd5b5056fea2646970667358221220a6be666e63a7cc8926f578ac0c301fd25766846351efe52c1f041659bb6cbfc064736f6c63430008020033a264697066735822122049bce3e1dcfbfee098b67095b9161a4bc35eb5382401ed264c8425c694f8088564736f6c63430008020033",
  "linkReferences": {},
  "deployedLinkReferences": {}
}