{
  "_format": "hh-sol-artifact-1",
  "contractName": "TutellusRoleManager",
  "sourceName": "contracts/TutellusRoleManager.sol",
  "abi": [
    {
      "inputs": [
        {
          "internalType": "address",
          "name": "deployer_",
          "type": "address"
        }
      ],
      "stateMutability": "nonpayable",
      "type": "constructor"
    },
    {
      "anonymous": false,
      "inputs": [
        {
          "indexed": true,
          "internalType": "bytes32",
          "name": "role",
          "type": "bytes32"
        },
        {
          "indexed": true,
          "internalType": "bytes32",
          "name": "previousAdminRole",
          "type": "bytes32"
        },
        {
          "indexed": true,
          "internalType": "bytes32",
          "name": "newAdminRole",
          "type": "bytes32"
        }
      ],
      "name": "RoleAdminChanged",
      "type": "event"
    },
    {
      "anonymous": false,
      "inputs": [
        {
          "indexed": true,
          "internalType": "bytes32",
          "name": "role",
          "type": "bytes32"
        },
        {
          "indexed": true,
          "internalType": "address",
          "name": "account",
          "type": "address"
        },
        {
          "indexed": true,
          "internalType": "address",
          "name": "sender",
          "type": "address"
        }
      ],
      "name": "RoleGranted",
      "type": "event"
    },
    {
      "anonymous": false,
      "inputs": [
        {
          "indexed": true,
          "internalType": "bytes32",
          "name": "role",
          "type": "bytes32"
        },
        {
          "indexed": true,
          "internalType": "address",
          "name": "account",
          "type": "address"
        },
        {
          "indexed": true,
          "internalType": "address",
          "name": "sender",
          "type": "address"
        }
      ],
      "name": "RoleRevoked",
      "type": "event"
    },
    {
      "inputs": [],
      "name": "DEFAULT_ADMIN_ROLE",
      "outputs": [
        {
          "internalType": "bytes32",
          "name": "",
          "type": "bytes32"
        }
      ],
      "stateMutability": "view",
      "type": "function"
    },
    {
      "inputs": [],
      "name": "PAUSER_ROLE",
      "outputs": [
        {
          "internalType": "bytes32",
          "name": "",
          "type": "bytes32"
        }
      ],
      "stateMutability": "view",
      "type": "function"
    },
    {
      "inputs": [],
      "name": "UPGRADER_ROLE",
      "outputs": [
        {
          "internalType": "bytes32",
          "name": "",
          "type": "bytes32"
        }
      ],
      "stateMutability": "view",
      "type": "function"
    },
    {
      "inputs": [],
      "name": "deployer",
      "outputs": [
        {
          "internalType": "address",
          "name": "",
          "type": "address"
        }
      ],
      "stateMutability": "view",
      "type": "function"
    },
    {
      "inputs": [
        {
          "internalType": "bytes32",
          "name": "role",
          "type": "bytes32"
        }
      ],
      "name": "getRoleAdmin",
      "outputs": [
        {
          "internalType": "bytes32",
          "name": "",
          "type": "bytes32"
        }
      ],
      "stateMutability": "view",
      "type": "function"
    },
    {
      "inputs": [
        {
          "internalType": "bytes32",
          "name": "role",
          "type": "bytes32"
        },
        {
          "internalType": "address",
          "name": "account",
          "type": "address"
        }
      ],
      "name": "grantRole",
      "outputs": [],
      "stateMutability": "nonpayable",
      "type": "function"
    },
    {
      "inputs": [
        {
          "internalType": "bytes32",
          "name": "role",
          "type": "bytes32"
        },
        {
          "internalType": "address",
          "name": "account",
          "type": "address"
        }
      ],
      "name": "hasRole",
      "outputs": [
        {
          "internalType": "bool",
          "name": "",
          "type": "bool"
        }
      ],
      "stateMutability": "view",
      "type": "function"
    },
    {
      "inputs": [
        {
          "internalType": "bytes32",
          "name": "role",
          "type": "bytes32"
        },
        {
          "internalType": "address",
          "name": "account",
          "type": "address"
        }
      ],
      "name": "renounceRole",
      "outputs": [],
      "stateMutability": "nonpayable",
      "type": "function"
    },
    {
      "inputs": [
        {
          "internalType": "bytes32",
          "name": "role",
          "type": "bytes32"
        },
        {
          "internalType": "address",
          "name": "account",
          "type": "address"
        }
      ],
      "name": "revokeRole",
      "outputs": [],
      "stateMutability": "nonpayable",
      "type": "function"
    },
    {
      "inputs": [
        {
          "internalType": "bytes4",
          "name": "interfaceId",
          "type": "bytes4"
        }
      ],
      "name": "supportsInterface",
      "outputs": [
        {
          "internalType": "bool",
          "name": "",
          "type": "bool"
        }
      ],
      "stateMutability": "view",
      "type": "function"
    }
  ],
  "bytecode": "0x60806040523480156200001157600080fd5b506040516200195c3803806200195c8339818101604052810190620000379190620007f7565b80609760006101000a81548173ffffffffffffffffffffffffffffffffffffffff021916908373ffffffffffffffffffffffffffffffffffffffff16021790555062000088620000db60201b60201c565b620000bf6000801b609760009054906101000a900473ffffffffffffffffffffffffffffffffffffffff16620001da60201b60201c565b620000d46000801b33620001da60201b60201c565b506200091a565b600060019054906101000a900460ff168062000102575060008054906101000a900460ff16155b62000144576040517f08c379a00000000000000000000000000000000000000000000000000000000081526004016200013b906200084a565b60405180910390fd5b60008060019054906101000a900460ff16159050801562000195576001600060016101000a81548160ff02191690831515021790555060016000806101000a81548160ff0219169083151502179055505b620001a5620001f060201b60201c565b620001b5620002ff60201b60201c565b8015620001d75760008060016101000a81548160ff0219169083151502179055505b50565b620001ec8282620003de60201b60201c565b5050565b600060019054906101000a900460ff168062000217575060008054906101000a900460ff16155b62000259576040517f08c379a000000000000000000000000000000000000000000000000000000000815260040162000250906200084a565b60405180910390fd5b60008060019054906101000a900460ff161590508015620002aa576001600060016101000a81548160ff02191690831515021790555060016000806101000a81548160ff0219169083151502179055505b620002ba620004d060201b60201c565b620002ca620005af60201b60201c565b620002da6200068e60201b60201c565b8015620002fc5760008060016101000a81548160ff0219169083151502179055505b50565b600060019054906101000a900460ff168062000326575060008054906101000a900460ff16155b62000368576040517f08c379a00000000000000000000000000000000000000000000000000000000081526004016200035f906200084a565b60405180910390fd5b60008060019054906101000a900460ff161590508015620003b9576001600060016101000a81548160ff02191690831515021790555060016000806101000a81548160ff0219169083151502179055505b8015620003db5760008060016101000a81548160ff0219169083151502179055505b50565b620003f082826200076d60201b60201c565b620004cc5760016065600084815260200190815260200160002060000160008373ffffffffffffffffffffffffffffffffffffffff1673ffffffffffffffffffffffffffffffffffffffff16815260200190815260200160002060006101000a81548160ff02191690831515021790555062000471620007d860201b60201c565b73ffffffffffffffffffffffffffffffffffffffff168173ffffffffffffffffffffffffffffffffffffffff16837f2f8788117e7eff1d82e926ec794901d17c78024a50270940304540a733656f0d60405160405180910390a45b5050565b600060019054906101000a900460ff1680620004f7575060008054906101000a900460ff16155b62000539576040517f08c379a000000000000000000000000000000000000000000000000000000000815260040162000530906200084a565b60405180910390fd5b60008060019054906101000a900460ff1615905080156200058a576001600060016101000a81548160ff02191690831515021790555060016000806101000a81548160ff0219169083151502179055505b8015620005ac5760008060016101000a81548160ff0219169083151502179055505b50565b600060019054906101000a900460ff1680620005d6575060008054906101000a900460ff16155b62000618576040517f08c379a00000000000000000000000000000000000000000000000000000000081526004016200060f906200084a565b60405180910390fd5b60008060019054906101000a900460ff16159050801562000669576001600060016101000a81548160ff02191690831515021790555060016000806101000a81548160ff0219169083151502179055505b80156200068b5760008060016101000a81548160ff0219169083151502179055505b50565b600060019054906101000a900460ff1680620006b5575060008054906101000a900460ff16155b620006f7576040517f08c379a0000000000000000000000000000000000000000000000000000000008152600401620006ee906200084a565b60405180910390fd5b60008060019054906101000a900460ff16159050801562000748576001600060016101000a81548160ff02191690831515021790555060016000806101000a81548160ff0219169083151502179055505b80156200076a5760008060016101000a81548160ff0219169083151502179055505b50565b60006065600084815260200190815260200160002060000160008373ffffffffffffffffffffffffffffffffffffffff1673ffffffffffffffffffffffffffffffffffffffff16815260200190815260200160002060009054906101000a900460ff16905092915050565b600033905090565b600081519050620007f18162000900565b92915050565b6000602082840312156200080a57600080fd5b60006200081a84828501620007e0565b91505092915050565b600062000832602e836200086c565b91506200083f82620008b1565b604082019050919050565b60006020820190508181036000830152620008658162000823565b9050919050565b600082825260208201905092915050565b60006200088a8262000891565b9050919050565b600073ffffffffffffffffffffffffffffffffffffffff82169050919050565b7f496e697469616c697a61626c653a20636f6e747261637420697320616c72656160008201527f647920696e697469616c697a6564000000000000000000000000000000000000602082015250565b6200090b816200087d565b81146200091757600080fd5b50565b611032806200092a6000396000f3fe608060405234801561001057600080fd5b506004361061009e5760003560e01c8063a217fddf11610066578063a217fddf1461016b578063d547741f14610189578063d5f39488146101a5578063e63ab1e9146101c3578063f72c0d8b146101e15761009e565b806301ffc9a7146100a3578063248a9ca3146100d35780632f2ff15d1461010357806336568abe1461011f57806391d148541461013b575b600080fd5b6100bd60048036038101906100b89190610ac2565b6101ff565b6040516100ca9190610c63565b60405180910390f35b6100ed60048036038101906100e89190610a5d565b610279565b6040516100fa9190610c7e565b60405180910390f35b61011d60048036038101906101189190610a86565b610299565b005b61013960048036038101906101349190610a86565b6102c2565b005b61015560048036038101906101509190610a86565b610345565b6040516101629190610c63565b60405180910390f35b6101736103b0565b6040516101809190610c7e565b60405180910390f35b6101a3600480360381019061019e9190610a86565b6103b7565b005b6101ad6103e0565b6040516101ba9190610c48565b60405180910390f35b6101cb61040a565b6040516101d89190610c7e565b60405180910390f35b6101e961042e565b6040516101f69190610c7e565b60405180910390f35b60007f7965db0b000000000000000000000000000000000000000000000000000000007bffffffffffffffffffffffffffffffffffffffffffffffffffffffff1916827bffffffffffffffffffffffffffffffffffffffffffffffffffffffff19161480610272575061027182610452565b5b9050919050565b600060656000838152602001908152602001600020600101549050919050565b6102a282610279565b6102b3816102ae6104bc565b6104c4565b6102bd8383610561565b505050565b6102ca6104bc565b73ffffffffffffffffffffffffffffffffffffffff168173ffffffffffffffffffffffffffffffffffffffff1614610337576040517f08c379a000000000000000000000000000000000000000000000000000000000815260040161032e90610cdb565b60405180910390fd5b6103418282610642565b5050565b60006065600084815260200190815260200160002060000160008373ffffffffffffffffffffffffffffffffffffffff1673ffffffffffffffffffffffffffffffffffffffff16815260200190815260200160002060009054906101000a900460ff16905092915050565b6000801b81565b6103c082610279565b6103d1816103cc6104bc565b6104c4565b6103db8383610642565b505050565b6000609760009054906101000a900473ffffffffffffffffffffffffffffffffffffffff16905090565b7f65d7a28e3265b37a6474929f336521b332c1681b933f6cb9f3376673440d862a81565b7f189ab7a9244df0848122154315af71fe140f3db0fe014031783b0946b8c9d2e381565b60007f01ffc9a7000000000000000000000000000000000000000000000000000000007bffffffffffffffffffffffffffffffffffffffffffffffffffffffff1916827bffffffffffffffffffffffffffffffffffffffffffffffffffffffff1916149050919050565b600033905090565b6104ce8282610345565b61055d576104f38173ffffffffffffffffffffffffffffffffffffffff166014610724565b6105018360001c6020610724565b604051602001610512929190610c0e565b6040516020818303038152906040526040517f08c379a00000000000000000000000000000000000000000000000000000000081526004016105549190610c99565b60405180910390fd5b5050565b61056b8282610345565b61063e5760016065600084815260200190815260200160002060000160008373ffffffffffffffffffffffffffffffffffffffff1673ffffffffffffffffffffffffffffffffffffffff16815260200190815260200160002060006101000a81548160ff0219169083151502179055506105e36104bc565b73ffffffffffffffffffffffffffffffffffffffff168173ffffffffffffffffffffffffffffffffffffffff16837f2f8788117e7eff1d82e926ec794901d17c78024a50270940304540a733656f0d60405160405180910390a45b5050565b61064c8282610345565b156107205760006065600084815260200190815260200160002060000160008373ffffffffffffffffffffffffffffffffffffffff1673ffffffffffffffffffffffffffffffffffffffff16815260200190815260200160002060006101000a81548160ff0219169083151502179055506106c56104bc565b73ffffffffffffffffffffffffffffffffffffffff168173ffffffffffffffffffffffffffffffffffffffff16837ff6391f5c32d9c69d2a47ea670b442974b53935d1edc7fd64eb21e047a839171b60405160405180910390a45b5050565b6060600060028360026107379190610d78565b6107419190610d22565b67ffffffffffffffff811115610780577f4e487b7100000000000000000000000000000000000000000000000000000000600052604160045260246000fd5b6040519080825280601f01601f1916602001820160405280156107b25781602001600182028036833780820191505090505b5090507f300000000000000000000000000000000000000000000000000000000000000081600081518110610810577f4e487b7100000000000000000000000000000000000000000000000000000000600052603260045260246000fd5b60200101907effffffffffffffffffffffffffffffffffffffffffffffffffffffffffffff1916908160001a9053507f78000000000000000000000000000000000000000000000000000000000000008160018151811061089a577f4e487b7100000000000000000000000000000000000000000000000000000000600052603260045260246000fd5b60200101907effffffffffffffffffffffffffffffffffffffffffffffffffffffffffffff1916908160001a905350600060018460026108da9190610d78565b6108e49190610d22565b90505b60018111156109d0577f3031323334353637383961626364656600000000000000000000000000000000600f86166010811061094c577f4e487b7100000000000000000000000000000000000000000000000000000000600052603260045260246000fd5b1a60f81b828281518110610989577f4e487b7100000000000000000000000000000000000000000000000000000000600052603260045260246000fd5b60200101907effffffffffffffffffffffffffffffffffffffffffffffffffffffffffffff1916908160001a905350600485901c9450806109c990610e83565b90506108e7565b5060008414610a14576040517f08c379a0000000000000000000000000000000000000000000000000000000008152600401610a0b90610cbb565b60405180910390fd5b8091505092915050565b600081359050610a2d81610fb7565b92915050565b600081359050610a4281610fce565b92915050565b600081359050610a5781610fe5565b92915050565b600060208284031215610a6f57600080fd5b6000610a7d84828501610a33565b91505092915050565b60008060408385031215610a9957600080fd5b6000610aa785828601610a33565b9250506020610ab885828601610a1e565b9150509250929050565b600060208284031215610ad457600080fd5b6000610ae284828501610a48565b91505092915050565b610af481610dd2565b82525050565b610b0381610de4565b82525050565b610b1281610df0565b82525050565b6000610b2382610cfb565b610b2d8185610d06565b9350610b3d818560208601610e50565b610b4681610edc565b840191505092915050565b6000610b5c82610cfb565b610b668185610d17565b9350610b76818560208601610e50565b80840191505092915050565b6000610b8f602083610d06565b9150610b9a82610eed565b602082019050919050565b6000610bb2601783610d17565b9150610bbd82610f16565b601782019050919050565b6000610bd5601183610d17565b9150610be082610f3f565b601182019050919050565b6000610bf8602f83610d06565b9150610c0382610f68565b604082019050919050565b6000610c1982610ba5565b9150610c258285610b51565b9150610c3082610bc8565b9150610c3c8284610b51565b91508190509392505050565b6000602082019050610c5d6000830184610aeb565b92915050565b6000602082019050610c786000830184610afa565b92915050565b6000602082019050610c936000830184610b09565b92915050565b60006020820190508181036000830152610cb38184610b18565b905092915050565b60006020820190508181036000830152610cd481610b82565b9050919050565b60006020820190508181036000830152610cf481610beb565b9050919050565b600081519050919050565b600082825260208201905092915050565b600081905092915050565b6000610d2d82610e46565b9150610d3883610e46565b9250827fffffffffffffffffffffffffffffffffffffffffffffffffffffffffffffffff03821115610d6d57610d6c610ead565b5b828201905092915050565b6000610d8382610e46565b9150610d8e83610e46565b9250817fffffffffffffffffffffffffffffffffffffffffffffffffffffffffffffffff0483118215151615610dc757610dc6610ead565b5b828202905092915050565b6000610ddd82610e26565b9050919050565b60008115159050919050565b6000819050919050565b60007fffffffff0000000000000000000000000000000000000000000000000000000082169050919050565b600073ffffffffffffffffffffffffffffffffffffffff82169050919050565b6000819050919050565b60005b83811015610e6e578082015181840152602081019050610e53565b83811115610e7d576000848401525b50505050565b6000610e8e82610e46565b91506000821415610ea257610ea1610ead565b5b600182039050919050565b7f4e487b7100000000000000000000000000000000000000000000000000000000600052601160045260246000fd5b6000601f19601f8301169050919050565b7f537472696e67733a20686578206c656e67746820696e73756666696369656e74600082015250565b7f416363657373436f6e74726f6c3a206163636f756e7420000000000000000000600082015250565b7f206973206d697373696e6720726f6c6520000000000000000000000000000000600082015250565b7f416363657373436f6e74726f6c3a2063616e206f6e6c792072656e6f756e636560008201527f20726f6c657320666f722073656c660000000000000000000000000000000000602082015250565b610fc081610dd2565b8114610fcb57600080fd5b50565b610fd781610df0565b8114610fe257600080fd5b50565b610fee81610dfa565b8114610ff957600080fd5b5056fea26469706673582212206ad7132ba02040cbca4023f2b50155ef413d3b612763274b05a42775947c14cc64736f6c63430008020033",
  "linkReferences": {},
  "deployedLinkReferences": {}
}