{
  "_format": "hh-sol-artifact-1",
  "contractName": "TutellusRoleManager",
  "sourceName": "contracts/TutellusRoleManager.sol",
  "abi": [
    {
      "inputs": [
        {
          "internalType": "address",
          "name": "deployer",
          "type": "address"
        }
      ],
      "stateMutability": "nonpayable",
      "type": "constructor"
    },
    {
      "anonymous": false,
      "inputs": [
        {
          "indexed": true,
          "internalType": "bytes32",
          "name": "role",
          "type": "bytes32"
        },
        {
          "indexed": true,
          "internalType": "bytes32",
          "name": "previousAdminRole",
          "type": "bytes32"
        },
        {
          "indexed": true,
          "internalType": "bytes32",
          "name": "newAdminRole",
          "type": "bytes32"
        }
      ],
      "name": "RoleAdminChanged",
      "type": "event"
    },
    {
      "anonymous": false,
      "inputs": [
        {
          "indexed": true,
          "internalType": "bytes32",
          "name": "role",
          "type": "bytes32"
        },
        {
          "indexed": true,
          "internalType": "address",
          "name": "account",
          "type": "address"
        },
        {
          "indexed": true,
          "internalType": "address",
          "name": "sender",
          "type": "address"
        }
      ],
      "name": "RoleGranted",
      "type": "event"
    },
    {
      "anonymous": false,
      "inputs": [
        {
          "indexed": true,
          "internalType": "bytes32",
          "name": "role",
          "type": "bytes32"
        },
        {
          "indexed": true,
          "internalType": "address",
          "name": "account",
          "type": "address"
        },
        {
          "indexed": true,
          "internalType": "address",
          "name": "sender",
          "type": "address"
        }
      ],
      "name": "RoleRevoked",
      "type": "event"
    },
    {
      "inputs": [],
      "name": "DEFAULT_ADMIN_ROLE",
      "outputs": [
        {
          "internalType": "bytes32",
          "name": "",
          "type": "bytes32"
        }
      ],
      "stateMutability": "view",
      "type": "function"
    },
    {
      "inputs": [],
      "name": "PAUSER_ROLE",
      "outputs": [
        {
          "internalType": "bytes32",
          "name": "",
          "type": "bytes32"
        }
      ],
      "stateMutability": "view",
      "type": "function"
    },
    {
      "inputs": [],
      "name": "UPGRADER_ROLE",
      "outputs": [
        {
          "internalType": "bytes32",
          "name": "",
          "type": "bytes32"
        }
      ],
      "stateMutability": "view",
      "type": "function"
    },
    {
      "inputs": [
        {
          "internalType": "bytes32",
          "name": "role",
          "type": "bytes32"
        }
      ],
      "name": "getRoleAdmin",
      "outputs": [
        {
          "internalType": "bytes32",
          "name": "",
          "type": "bytes32"
        }
      ],
      "stateMutability": "view",
      "type": "function"
    },
    {
      "inputs": [
        {
          "internalType": "bytes32",
          "name": "role",
          "type": "bytes32"
        },
        {
          "internalType": "address",
          "name": "account",
          "type": "address"
        }
      ],
      "name": "grantRole",
      "outputs": [],
      "stateMutability": "nonpayable",
      "type": "function"
    },
    {
      "inputs": [
        {
          "internalType": "bytes32",
          "name": "role",
          "type": "bytes32"
        },
        {
          "internalType": "address",
          "name": "account",
          "type": "address"
        }
      ],
      "name": "hasRole",
      "outputs": [
        {
          "internalType": "bool",
          "name": "",
          "type": "bool"
        }
      ],
      "stateMutability": "view",
      "type": "function"
    },
    {
      "inputs": [
        {
          "internalType": "bytes32",
          "name": "role",
          "type": "bytes32"
        },
        {
          "internalType": "address",
          "name": "account",
          "type": "address"
        }
      ],
      "name": "renounceRole",
      "outputs": [],
      "stateMutability": "nonpayable",
      "type": "function"
    },
    {
      "inputs": [
        {
          "internalType": "bytes32",
          "name": "role",
          "type": "bytes32"
        },
        {
          "internalType": "address",
          "name": "account",
          "type": "address"
        }
      ],
      "name": "revokeRole",
      "outputs": [],
      "stateMutability": "nonpayable",
      "type": "function"
    },
    {
      "inputs": [
        {
          "internalType": "bytes4",
          "name": "interfaceId",
          "type": "bytes4"
        }
      ],
      "name": "supportsInterface",
      "outputs": [
        {
          "internalType": "bool",
          "name": "",
          "type": "bool"
        }
      ],
      "stateMutability": "view",
      "type": "function"
    }
  ],
  "bytecode": "0x60806040523480156200001157600080fd5b50604051620018df380380620018df8339818101604052810190620000379190620007f7565b80609760006101000a81548173ffffffffffffffffffffffffffffffffffffffff021916908373ffffffffffffffffffffffffffffffffffffffff16021790555062000088620000db60201b60201c565b620000bf6000801b609760009054906101000a900473ffffffffffffffffffffffffffffffffffffffff16620001da60201b60201c565b620000d46000801b33620001da60201b60201c565b506200091a565b600060019054906101000a900460ff168062000102575060008054906101000a900460ff16155b62000144576040517f08c379a00000000000000000000000000000000000000000000000000000000081526004016200013b906200084a565b60405180910390fd5b60008060019054906101000a900460ff16159050801562000195576001600060016101000a81548160ff02191690831515021790555060016000806101000a81548160ff0219169083151502179055505b620001a5620001f060201b60201c565b620001b5620002ff60201b60201c565b8015620001d75760008060016101000a81548160ff0219169083151502179055505b50565b620001ec8282620003de60201b60201c565b5050565b600060019054906101000a900460ff168062000217575060008054906101000a900460ff16155b62000259576040517f08c379a000000000000000000000000000000000000000000000000000000000815260040162000250906200084a565b60405180910390fd5b60008060019054906101000a900460ff161590508015620002aa576001600060016101000a81548160ff02191690831515021790555060016000806101000a81548160ff0219169083151502179055505b620002ba620004d060201b60201c565b620002ca620005af60201b60201c565b620002da6200068e60201b60201c565b8015620002fc5760008060016101000a81548160ff0219169083151502179055505b50565b600060019054906101000a900460ff168062000326575060008054906101000a900460ff16155b62000368576040517f08c379a00000000000000000000000000000000000000000000000000000000081526004016200035f906200084a565b60405180910390fd5b60008060019054906101000a900460ff161590508015620003b9576001600060016101000a81548160ff02191690831515021790555060016000806101000a81548160ff0219169083151502179055505b8015620003db5760008060016101000a81548160ff0219169083151502179055505b50565b620003f082826200076d60201b60201c565b620004cc5760016065600084815260200190815260200160002060000160008373ffffffffffffffffffffffffffffffffffffffff1673ffffffffffffffffffffffffffffffffffffffff16815260200190815260200160002060006101000a81548160ff02191690831515021790555062000471620007d860201b60201c565b73ffffffffffffffffffffffffffffffffffffffff168173ffffffffffffffffffffffffffffffffffffffff16837f2f8788117e7eff1d82e926ec794901d17c78024a50270940304540a733656f0d60405160405180910390a45b5050565b600060019054906101000a900460ff1680620004f7575060008054906101000a900460ff16155b62000539576040517f08c379a000000000000000000000000000000000000000000000000000000000815260040162000530906200084a565b60405180910390fd5b60008060019054906101000a900460ff1615905080156200058a576001600060016101000a81548160ff02191690831515021790555060016000806101000a81548160ff0219169083151502179055505b8015620005ac5760008060016101000a81548160ff0219169083151502179055505b50565b600060019054906101000a900460ff1680620005d6575060008054906101000a900460ff16155b62000618576040517f08c379a00000000000000000000000000000000000000000000000000000000081526004016200060f906200084a565b60405180910390fd5b60008060019054906101000a900460ff16159050801562000669576001600060016101000a81548160ff02191690831515021790555060016000806101000a81548160ff0219169083151502179055505b80156200068b5760008060016101000a81548160ff0219169083151502179055505b50565b600060019054906101000a900460ff1680620006b5575060008054906101000a900460ff16155b620006f7576040517f08c379a0000000000000000000000000000000000000000000000000000000008152600401620006ee906200084a565b60405180910390fd5b60008060019054906101000a900460ff16159050801562000748576001600060016101000a81548160ff02191690831515021790555060016000806101000a81548160ff0219169083151502179055505b80156200076a5760008060016101000a81548160ff0219169083151502179055505b50565b60006065600084815260200190815260200160002060000160008373ffffffffffffffffffffffffffffffffffffffff1673ffffffffffffffffffffffffffffffffffffffff16815260200190815260200160002060009054906101000a900460ff16905092915050565b600033905090565b600081519050620007f18162000900565b92915050565b6000602082840312156200080a57600080fd5b60006200081a84828501620007e0565b91505092915050565b600062000832602e836200086c565b91506200083f82620008b1565b604082019050919050565b60006020820190508181036000830152620008658162000823565b9050919050565b600082825260208201905092915050565b60006200088a8262000891565b9050919050565b600073ffffffffffffffffffffffffffffffffffffffff82169050919050565b7f496e697469616c697a61626c653a20636f6e747261637420697320616c72656160008201527f647920696e697469616c697a6564000000000000000000000000000000000000602082015250565b6200090b816200087d565b81146200091757600080fd5b50565b610fb5806200092a6000396000f3fe608060405234801561001057600080fd5b50600436106100935760003560e01c806391d148541161006657806391d1485414610130578063a217fddf14610160578063d547741f1461017e578063e63ab1e91461019a578063f72c0d8b146101b857610093565b806301ffc9a714610098578063248a9ca3146100c85780632f2ff15d146100f857806336568abe14610114575b600080fd5b6100b260048036038101906100ad9190610a6f565b6101d6565b6040516100bf9190610be6565b60405180910390f35b6100e260048036038101906100dd9190610a0a565b610250565b6040516100ef9190610c01565b60405180910390f35b610112600480360381019061010d9190610a33565b610270565b005b61012e60048036038101906101299190610a33565b610299565b005b61014a60048036038101906101459190610a33565b61031c565b6040516101579190610be6565b60405180910390f35b610168610387565b6040516101759190610c01565b60405180910390f35b61019860048036038101906101939190610a33565b61038e565b005b6101a26103b7565b6040516101af9190610c01565b60405180910390f35b6101c06103db565b6040516101cd9190610c01565b60405180910390f35b60007f7965db0b000000000000000000000000000000000000000000000000000000007bffffffffffffffffffffffffffffffffffffffffffffffffffffffff1916827bffffffffffffffffffffffffffffffffffffffffffffffffffffffff191614806102495750610248826103ff565b5b9050919050565b600060656000838152602001908152602001600020600101549050919050565b61027982610250565b61028a81610285610469565b610471565b610294838361050e565b505050565b6102a1610469565b73ffffffffffffffffffffffffffffffffffffffff168173ffffffffffffffffffffffffffffffffffffffff161461030e576040517f08c379a000000000000000000000000000000000000000000000000000000000815260040161030590610c5e565b60405180910390fd5b61031882826105ef565b5050565b60006065600084815260200190815260200160002060000160008373ffffffffffffffffffffffffffffffffffffffff1673ffffffffffffffffffffffffffffffffffffffff16815260200190815260200160002060009054906101000a900460ff16905092915050565b6000801b81565b61039782610250565b6103a8816103a3610469565b610471565b6103b283836105ef565b505050565b7f65d7a28e3265b37a6474929f336521b332c1681b933f6cb9f3376673440d862a81565b7f189ab7a9244df0848122154315af71fe140f3db0fe014031783b0946b8c9d2e381565b60007f01ffc9a7000000000000000000000000000000000000000000000000000000007bffffffffffffffffffffffffffffffffffffffffffffffffffffffff1916827bffffffffffffffffffffffffffffffffffffffffffffffffffffffff1916149050919050565b600033905090565b61047b828261031c565b61050a576104a08173ffffffffffffffffffffffffffffffffffffffff1660146106d1565b6104ae8360001c60206106d1565b6040516020016104bf929190610bac565b6040516020818303038152906040526040517f08c379a00000000000000000000000000000000000000000000000000000000081526004016105019190610c1c565b60405180910390fd5b5050565b610518828261031c565b6105eb5760016065600084815260200190815260200160002060000160008373ffffffffffffffffffffffffffffffffffffffff1673ffffffffffffffffffffffffffffffffffffffff16815260200190815260200160002060006101000a81548160ff021916908315150217905550610590610469565b73ffffffffffffffffffffffffffffffffffffffff168173ffffffffffffffffffffffffffffffffffffffff16837f2f8788117e7eff1d82e926ec794901d17c78024a50270940304540a733656f0d60405160405180910390a45b5050565b6105f9828261031c565b156106cd5760006065600084815260200190815260200160002060000160008373ffffffffffffffffffffffffffffffffffffffff1673ffffffffffffffffffffffffffffffffffffffff16815260200190815260200160002060006101000a81548160ff021916908315150217905550610672610469565b73ffffffffffffffffffffffffffffffffffffffff168173ffffffffffffffffffffffffffffffffffffffff16837ff6391f5c32d9c69d2a47ea670b442974b53935d1edc7fd64eb21e047a839171b60405160405180910390a45b5050565b6060600060028360026106e49190610cfb565b6106ee9190610ca5565b67ffffffffffffffff81111561072d577f4e487b7100000000000000000000000000000000000000000000000000000000600052604160045260246000fd5b6040519080825280601f01601f19166020018201604052801561075f5781602001600182028036833780820191505090505b5090507f3000000000000000000000000000000000000000000000000000000000000000816000815181106107bd577f4e487b7100000000000000000000000000000000000000000000000000000000600052603260045260246000fd5b60200101907effffffffffffffffffffffffffffffffffffffffffffffffffffffffffffff1916908160001a9053507f780000000000000000000000000000000000000000000000000000000000000081600181518110610847577f4e487b7100000000000000000000000000000000000000000000000000000000600052603260045260246000fd5b60200101907effffffffffffffffffffffffffffffffffffffffffffffffffffffffffffff1916908160001a905350600060018460026108879190610cfb565b6108919190610ca5565b90505b600181111561097d577f3031323334353637383961626364656600000000000000000000000000000000600f8616601081106108f9577f4e487b7100000000000000000000000000000000000000000000000000000000600052603260045260246000fd5b1a60f81b828281518110610936577f4e487b7100000000000000000000000000000000000000000000000000000000600052603260045260246000fd5b60200101907effffffffffffffffffffffffffffffffffffffffffffffffffffffffffffff1916908160001a905350600485901c94508061097690610e06565b9050610894565b50600084146109c1576040517f08c379a00000000000000000000000000000000000000000000000000000000081526004016109b890610c3e565b60405180910390fd5b8091505092915050565b6000813590506109da81610f3a565b92915050565b6000813590506109ef81610f51565b92915050565b600081359050610a0481610f68565b92915050565b600060208284031215610a1c57600080fd5b6000610a2a848285016109e0565b91505092915050565b60008060408385031215610a4657600080fd5b6000610a54858286016109e0565b9250506020610a65858286016109cb565b9150509250929050565b600060208284031215610a8157600080fd5b6000610a8f848285016109f5565b91505092915050565b610aa181610d67565b82525050565b610ab081610d73565b82525050565b6000610ac182610c7e565b610acb8185610c89565b9350610adb818560208601610dd3565b610ae481610e5f565b840191505092915050565b6000610afa82610c7e565b610b048185610c9a565b9350610b14818560208601610dd3565b80840191505092915050565b6000610b2d602083610c89565b9150610b3882610e70565b602082019050919050565b6000610b50601783610c9a565b9150610b5b82610e99565b601782019050919050565b6000610b73601183610c9a565b9150610b7e82610ec2565b601182019050919050565b6000610b96602f83610c89565b9150610ba182610eeb565b604082019050919050565b6000610bb782610b43565b9150610bc38285610aef565b9150610bce82610b66565b9150610bda8284610aef565b91508190509392505050565b6000602082019050610bfb6000830184610a98565b92915050565b6000602082019050610c166000830184610aa7565b92915050565b60006020820190508181036000830152610c368184610ab6565b905092915050565b60006020820190508181036000830152610c5781610b20565b9050919050565b60006020820190508181036000830152610c7781610b89565b9050919050565b600081519050919050565b600082825260208201905092915050565b600081905092915050565b6000610cb082610dc9565b9150610cbb83610dc9565b9250827fffffffffffffffffffffffffffffffffffffffffffffffffffffffffffffffff03821115610cf057610cef610e30565b5b828201905092915050565b6000610d0682610dc9565b9150610d1183610dc9565b9250817fffffffffffffffffffffffffffffffffffffffffffffffffffffffffffffffff0483118215151615610d4a57610d49610e30565b5b828202905092915050565b6000610d6082610da9565b9050919050565b60008115159050919050565b6000819050919050565b60007fffffffff0000000000000000000000000000000000000000000000000000000082169050919050565b600073ffffffffffffffffffffffffffffffffffffffff82169050919050565b6000819050919050565b60005b83811015610df1578082015181840152602081019050610dd6565b83811115610e00576000848401525b50505050565b6000610e1182610dc9565b91506000821415610e2557610e24610e30565b5b600182039050919050565b7f4e487b7100000000000000000000000000000000000000000000000000000000600052601160045260246000fd5b6000601f19601f8301169050919050565b7f537472696e67733a20686578206c656e67746820696e73756666696369656e74600082015250565b7f416363657373436f6e74726f6c3a206163636f756e7420000000000000000000600082015250565b7f206973206d697373696e6720726f6c6520000000000000000000000000000000600082015250565b7f416363657373436f6e74726f6c3a2063616e206f6e6c792072656e6f756e636560008201527f20726f6c657320666f722073656c660000000000000000000000000000000000602082015250565b610f4381610d55565b8114610f4e57600080fd5b50565b610f5a81610d73565b8114610f6557600080fd5b50565b610f7181610d7d565b8114610f7c57600080fd5b5056fea2646970667358221220737f474eba94ab9b638bd2e3a2065b312d2f2f7d56012f1981dc84a3822046e664736f6c63430008020033",
  "linkReferences": {},
  "deployedLinkReferences": {}
}