{
  "_format": "hh-sol-artifact-1",
  "contractName": "TutellusRoleManager",
  "sourceName": "contracts/TutellusRoleManager.sol",
  "abi": [
    {
      "inputs": [],
      "stateMutability": "nonpayable",
      "type": "constructor"
    },
    {
      "anonymous": false,
      "inputs": [
        {
          "indexed": true,
          "internalType": "bytes32",
          "name": "role",
          "type": "bytes32"
        },
        {
          "indexed": true,
          "internalType": "bytes32",
          "name": "previousAdminRole",
          "type": "bytes32"
        },
        {
          "indexed": true,
          "internalType": "bytes32",
          "name": "newAdminRole",
          "type": "bytes32"
        }
      ],
      "name": "RoleAdminChanged",
      "type": "event"
    },
    {
      "anonymous": false,
      "inputs": [
        {
          "indexed": true,
          "internalType": "bytes32",
          "name": "role",
          "type": "bytes32"
        },
        {
          "indexed": true,
          "internalType": "address",
          "name": "account",
          "type": "address"
        },
        {
          "indexed": true,
          "internalType": "address",
          "name": "sender",
          "type": "address"
        }
      ],
      "name": "RoleGranted",
      "type": "event"
    },
    {
      "anonymous": false,
      "inputs": [
        {
          "indexed": true,
          "internalType": "bytes32",
          "name": "role",
          "type": "bytes32"
        },
        {
          "indexed": true,
          "internalType": "address",
          "name": "account",
          "type": "address"
        },
        {
          "indexed": true,
          "internalType": "address",
          "name": "sender",
          "type": "address"
        }
      ],
      "name": "RoleRevoked",
      "type": "event"
    },
    {
      "inputs": [],
      "name": "DEFAULT_ADMIN_ROLE",
      "outputs": [
        {
          "internalType": "bytes32",
          "name": "",
          "type": "bytes32"
        }
      ],
      "stateMutability": "view",
      "type": "function"
    },
    {
      "inputs": [],
      "name": "MINTER_ROLE",
      "outputs": [
        {
          "internalType": "bytes32",
          "name": "",
          "type": "bytes32"
        }
      ],
      "stateMutability": "view",
      "type": "function"
    },
    {
      "inputs": [],
      "name": "PAUSER_ROLE",
      "outputs": [
        {
          "internalType": "bytes32",
          "name": "",
          "type": "bytes32"
        }
      ],
      "stateMutability": "view",
      "type": "function"
    },
    {
      "inputs": [],
      "name": "UPGRADER_ROLE",
      "outputs": [
        {
          "internalType": "bytes32",
          "name": "",
          "type": "bytes32"
        }
      ],
      "stateMutability": "view",
      "type": "function"
    },
    {
      "inputs": [
        {
          "internalType": "bytes32",
          "name": "role",
          "type": "bytes32"
        }
      ],
      "name": "getRoleAdmin",
      "outputs": [
        {
          "internalType": "bytes32",
          "name": "",
          "type": "bytes32"
        }
      ],
      "stateMutability": "view",
      "type": "function"
    },
    {
      "inputs": [
        {
          "internalType": "address",
          "name": "account",
          "type": "address"
        }
      ],
      "name": "grantAdminRole",
      "outputs": [],
      "stateMutability": "nonpayable",
      "type": "function"
    },
    {
      "inputs": [
        {
          "internalType": "address",
          "name": "account",
          "type": "address"
        }
      ],
      "name": "grantAllRoles",
      "outputs": [],
      "stateMutability": "nonpayable",
      "type": "function"
    },
    {
      "inputs": [
        {
          "internalType": "address",
          "name": "account",
          "type": "address"
        }
      ],
      "name": "grantMinterRole",
      "outputs": [],
      "stateMutability": "nonpayable",
      "type": "function"
    },
    {
      "inputs": [
        {
          "internalType": "address",
          "name": "account",
          "type": "address"
        }
      ],
      "name": "grantPauserRole",
      "outputs": [],
      "stateMutability": "nonpayable",
      "type": "function"
    },
    {
      "inputs": [
        {
          "internalType": "bytes32",
          "name": "role",
          "type": "bytes32"
        },
        {
          "internalType": "address",
          "name": "account",
          "type": "address"
        }
      ],
      "name": "grantRole",
      "outputs": [],
      "stateMutability": "nonpayable",
      "type": "function"
    },
    {
      "inputs": [
        {
          "internalType": "address",
          "name": "account",
          "type": "address"
        }
      ],
      "name": "grantUpgraderRole",
      "outputs": [],
      "stateMutability": "nonpayable",
      "type": "function"
    },
    {
      "inputs": [
        {
          "internalType": "bytes32",
          "name": "role",
          "type": "bytes32"
        },
        {
          "internalType": "address",
          "name": "account",
          "type": "address"
        }
      ],
      "name": "hasRole",
      "outputs": [
        {
          "internalType": "bool",
          "name": "",
          "type": "bool"
        }
      ],
      "stateMutability": "view",
      "type": "function"
    },
    {
      "inputs": [
        {
          "internalType": "bytes32",
          "name": "role",
          "type": "bytes32"
        },
        {
          "internalType": "address",
          "name": "account",
          "type": "address"
        }
      ],
      "name": "renounceRole",
      "outputs": [],
      "stateMutability": "nonpayable",
      "type": "function"
    },
    {
      "inputs": [
        {
          "internalType": "bytes32",
          "name": "role",
          "type": "bytes32"
        },
        {
          "internalType": "address",
          "name": "account",
          "type": "address"
        }
      ],
      "name": "revokeRole",
      "outputs": [],
      "stateMutability": "nonpayable",
      "type": "function"
    },
    {
      "inputs": [
        {
          "internalType": "bytes4",
          "name": "interfaceId",
          "type": "bytes4"
        }
      ],
      "name": "supportsInterface",
      "outputs": [
        {
          "internalType": "bool",
          "name": "",
          "type": "bool"
        }
      ],
      "stateMutability": "view",
      "type": "function"
    }
  ],
  "bytecode": "0x60806040523480156200001157600080fd5b50620000226200005260201b60201c565b620000376000801b336200015160201b60201c565b6200004c6000801b326200015160201b60201c565b62000800565b600060019054906101000a900460ff168062000079575060008054906101000a900460ff16155b620000bb576040517f08c379a0000000000000000000000000000000000000000000000000000000008152600401620000b2906200077e565b60405180910390fd5b60008060019054906101000a900460ff1615905080156200010c576001600060016101000a81548160ff02191690831515021790555060016000806101000a81548160ff0219169083151502179055505b6200011c6200016760201b60201c565b6200012c6200027660201b60201c565b80156200014e5760008060016101000a81548160ff0219169083151502179055505b50565b6200016382826200035560201b60201c565b5050565b600060019054906101000a900460ff16806200018e575060008054906101000a900460ff16155b620001d0576040517f08c379a0000000000000000000000000000000000000000000000000000000008152600401620001c7906200077e565b60405180910390fd5b60008060019054906101000a900460ff16159050801562000221576001600060016101000a81548160ff02191690831515021790555060016000806101000a81548160ff0219169083151502179055505b620002316200044760201b60201c565b620002416200052660201b60201c565b620002516200060560201b60201c565b8015620002735760008060016101000a81548160ff0219169083151502179055505b50565b600060019054906101000a900460ff16806200029d575060008054906101000a900460ff16155b620002df576040517f08c379a0000000000000000000000000000000000000000000000000000000008152600401620002d6906200077e565b60405180910390fd5b60008060019054906101000a900460ff16159050801562000330576001600060016101000a81548160ff02191690831515021790555060016000806101000a81548160ff0219169083151502179055505b8015620003525760008060016101000a81548160ff0219169083151502179055505b50565b620003678282620006e460201b60201c565b620004435760016065600084815260200190815260200160002060000160008373ffffffffffffffffffffffffffffffffffffffff1673ffffffffffffffffffffffffffffffffffffffff16815260200190815260200160002060006101000a81548160ff021916908315150217905550620003e86200074f60201b60201c565b73ffffffffffffffffffffffffffffffffffffffff168173ffffffffffffffffffffffffffffffffffffffff16837f2f8788117e7eff1d82e926ec794901d17c78024a50270940304540a733656f0d60405160405180910390a45b5050565b600060019054906101000a900460ff16806200046e575060008054906101000a900460ff16155b620004b0576040517f08c379a0000000000000000000000000000000000000000000000000000000008152600401620004a7906200077e565b60405180910390fd5b60008060019054906101000a900460ff16159050801562000501576001600060016101000a81548160ff02191690831515021790555060016000806101000a81548160ff0219169083151502179055505b8015620005235760008060016101000a81548160ff0219169083151502179055505b50565b600060019054906101000a900460ff16806200054d575060008054906101000a900460ff16155b6200058f576040517f08c379a000000000000000000000000000000000000000000000000000000000815260040162000586906200077e565b60405180910390fd5b60008060019054906101000a900460ff161590508015620005e0576001600060016101000a81548160ff02191690831515021790555060016000806101000a81548160ff0219169083151502179055505b8015620006025760008060016101000a81548160ff0219169083151502179055505b50565b600060019054906101000a900460ff16806200062c575060008054906101000a900460ff16155b6200066e576040517f08c379a000000000000000000000000000000000000000000000000000000000815260040162000665906200077e565b60405180910390fd5b60008060019054906101000a900460ff161590508015620006bf576001600060016101000a81548160ff02191690831515021790555060016000806101000a81548160ff0219169083151502179055505b8015620006e15760008060016101000a81548160ff0219169083151502179055505b50565b60006065600084815260200190815260200160002060000160008373ffffffffffffffffffffffffffffffffffffffff1673ffffffffffffffffffffffffffffffffffffffff16815260200190815260200160002060009054906101000a900460ff16905092915050565b600033905090565b600062000766602e83620007a0565b91506200077382620007b1565b604082019050919050565b60006020820190508181036000830152620007998162000757565b9050919050565b600082825260208201905092915050565b7f496e697469616c697a61626c653a20636f6e747261637420697320616c72656160008201527f647920696e697469616c697a6564000000000000000000000000000000000000602082015250565b61124880620008106000396000f3fe608060405234801561001057600080fd5b50600436106100f55760003560e01c806391d1485411610097578063d539139311610066578063d53913931461026c578063d547741f1461028a578063e63ab1e9146102a6578063f72c0d8b146102c4576100f5565b806391d14854146101e6578063a057353614610216578063a217fddf14610232578063c634b78e14610250576100f5565b806336568abe116100d357806336568abe146101765780633dd1eb6114610192578063595a1d3f146101ae5780636c11c21c146101ca576100f5565b806301ffc9a7146100fa578063248a9ca31461012a5780632f2ff15d1461015a575b600080fd5b610114600480360381019061010f9190610d02565b6102e2565b6040516101219190610e79565b60405180910390f35b610144600480360381019061013f9190610c9d565b61035c565b6040516101519190610e94565b60405180910390f35b610174600480360381019061016f9190610cc6565b61037c565b005b610190600480360381019061018b9190610cc6565b6103a5565b005b6101ac60048036038101906101a79190610c74565b610428565b005b6101c860048036038101906101c39190610c74565b61046b565b005b6101e460048036038101906101df9190610c74565b6104ae565b005b61020060048036038101906101fb9190610cc6565b6104f1565b60405161020d9190610e79565b60405180910390f35b610230600480360381019061022b9190610c74565b61055c565b005b61023a610599565b6040516102479190610e94565b60405180910390f35b61026a60048036038101906102659190610c74565b6105a0565b005b6102746105c6565b6040516102819190610e94565b60405180910390f35b6102a4600480360381019061029f9190610cc6565b6105ea565b005b6102ae610613565b6040516102bb9190610e94565b60405180910390f35b6102cc610637565b6040516102d99190610e94565b60405180910390f35b60007f7965db0b000000000000000000000000000000000000000000000000000000007bffffffffffffffffffffffffffffffffffffffffffffffffffffffff1916827bffffffffffffffffffffffffffffffffffffffffffffffffffffffff1916148061035557506103548261065b565b5b9050919050565b600060656000838152602001908152602001600020600101549050919050565b6103858261035c565b610396816103916106c5565b6106cd565b6103a0838361076a565b505050565b6103ad6106c5565b73ffffffffffffffffffffffffffffffffffffffff168173ffffffffffffffffffffffffffffffffffffffff161461041a576040517f08c379a000000000000000000000000000000000000000000000000000000000815260040161041190610ef1565b60405180910390fd5b610424828261084b565b5050565b6000801b61043d816104386106c5565b6106cd565b6104677f9f2df0fed2c77648de5860a4cc508cd0818c85b8b8a1ab4ceeef8d981c8956a68361092d565b5050565b6000801b6104808161047b6106c5565b6106cd565b6104aa7f9f2df0fed2c77648de5860a4cc508cd0818c85b8b8a1ab4ceeef8d981c8956a68361092d565b5050565b6000801b6104c3816104be6106c5565b6106cd565b6104ed7f9f2df0fed2c77648de5860a4cc508cd0818c85b8b8a1ab4ceeef8d981c8956a68361092d565b5050565b60006065600084815260200190815260200160002060000160008373ffffffffffffffffffffffffffffffffffffffff1673ffffffffffffffffffffffffffffffffffffffff16815260200190815260200160002060009054906101000a900460ff16905092915050565b6000801b6105718161056c6106c5565b6106cd565b61057a826104ae565b61058382610428565b61058c8261046b565b610595826105a0565b5050565b6000801b81565b6000801b6105b5816105b06106c5565b6106cd565b6105c26000801b8361092d565b5050565b7f9f2df0fed2c77648de5860a4cc508cd0818c85b8b8a1ab4ceeef8d981c8956a681565b6105f38261035c565b610604816105ff6106c5565b6106cd565b61060e838361084b565b505050565b7f65d7a28e3265b37a6474929f336521b332c1681b933f6cb9f3376673440d862a81565b7f189ab7a9244df0848122154315af71fe140f3db0fe014031783b0946b8c9d2e381565b60007f01ffc9a7000000000000000000000000000000000000000000000000000000007bffffffffffffffffffffffffffffffffffffffffffffffffffffffff1916827bffffffffffffffffffffffffffffffffffffffffffffffffffffffff1916149050919050565b600033905090565b6106d782826104f1565b610766576106fc8173ffffffffffffffffffffffffffffffffffffffff16601461093b565b61070a8360001c602061093b565b60405160200161071b929190610e3f565b6040516020818303038152906040526040517f08c379a000000000000000000000000000000000000000000000000000000000815260040161075d9190610eaf565b60405180910390fd5b5050565b61077482826104f1565b6108475760016065600084815260200190815260200160002060000160008373ffffffffffffffffffffffffffffffffffffffff1673ffffffffffffffffffffffffffffffffffffffff16815260200190815260200160002060006101000a81548160ff0219169083151502179055506107ec6106c5565b73ffffffffffffffffffffffffffffffffffffffff168173ffffffffffffffffffffffffffffffffffffffff16837f2f8788117e7eff1d82e926ec794901d17c78024a50270940304540a733656f0d60405160405180910390a45b5050565b61085582826104f1565b156109295760006065600084815260200190815260200160002060000160008373ffffffffffffffffffffffffffffffffffffffff1673ffffffffffffffffffffffffffffffffffffffff16815260200190815260200160002060006101000a81548160ff0219169083151502179055506108ce6106c5565b73ffffffffffffffffffffffffffffffffffffffff168173ffffffffffffffffffffffffffffffffffffffff16837ff6391f5c32d9c69d2a47ea670b442974b53935d1edc7fd64eb21e047a839171b60405160405180910390a45b5050565b610937828261076a565b5050565b60606000600283600261094e9190610f8e565b6109589190610f38565b67ffffffffffffffff811115610997577f4e487b7100000000000000000000000000000000000000000000000000000000600052604160045260246000fd5b6040519080825280601f01601f1916602001820160405280156109c95781602001600182028036833780820191505090505b5090507f300000000000000000000000000000000000000000000000000000000000000081600081518110610a27577f4e487b7100000000000000000000000000000000000000000000000000000000600052603260045260246000fd5b60200101907effffffffffffffffffffffffffffffffffffffffffffffffffffffffffffff1916908160001a9053507f780000000000000000000000000000000000000000000000000000000000000081600181518110610ab1577f4e487b7100000000000000000000000000000000000000000000000000000000600052603260045260246000fd5b60200101907effffffffffffffffffffffffffffffffffffffffffffffffffffffffffffff1916908160001a90535060006001846002610af19190610f8e565b610afb9190610f38565b90505b6001811115610be7577f3031323334353637383961626364656600000000000000000000000000000000600f861660108110610b63577f4e487b7100000000000000000000000000000000000000000000000000000000600052603260045260246000fd5b1a60f81b828281518110610ba0577f4e487b7100000000000000000000000000000000000000000000000000000000600052603260045260246000fd5b60200101907effffffffffffffffffffffffffffffffffffffffffffffffffffffffffffff1916908160001a905350600485901c945080610be090611099565b9050610afe565b5060008414610c2b576040517f08c379a0000000000000000000000000000000000000000000000000000000008152600401610c2290610ed1565b60405180910390fd5b8091505092915050565b600081359050610c44816111cd565b92915050565b600081359050610c59816111e4565b92915050565b600081359050610c6e816111fb565b92915050565b600060208284031215610c8657600080fd5b6000610c9484828501610c35565b91505092915050565b600060208284031215610caf57600080fd5b6000610cbd84828501610c4a565b91505092915050565b60008060408385031215610cd957600080fd5b6000610ce785828601610c4a565b9250506020610cf885828601610c35565b9150509250929050565b600060208284031215610d1457600080fd5b6000610d2284828501610c5f565b91505092915050565b610d3481610ffa565b82525050565b610d4381611006565b82525050565b6000610d5482610f11565b610d5e8185610f1c565b9350610d6e818560208601611066565b610d77816110f2565b840191505092915050565b6000610d8d82610f11565b610d978185610f2d565b9350610da7818560208601611066565b80840191505092915050565b6000610dc0602083610f1c565b9150610dcb82611103565b602082019050919050565b6000610de3601783610f2d565b9150610dee8261112c565b601782019050919050565b6000610e06601183610f2d565b9150610e1182611155565b601182019050919050565b6000610e29602f83610f1c565b9150610e348261117e565b604082019050919050565b6000610e4a82610dd6565b9150610e568285610d82565b9150610e6182610df9565b9150610e6d8284610d82565b91508190509392505050565b6000602082019050610e8e6000830184610d2b565b92915050565b6000602082019050610ea96000830184610d3a565b92915050565b60006020820190508181036000830152610ec98184610d49565b905092915050565b60006020820190508181036000830152610eea81610db3565b9050919050565b60006020820190508181036000830152610f0a81610e1c565b9050919050565b600081519050919050565b600082825260208201905092915050565b600081905092915050565b6000610f438261105c565b9150610f4e8361105c565b9250827fffffffffffffffffffffffffffffffffffffffffffffffffffffffffffffffff03821115610f8357610f826110c3565b5b828201905092915050565b6000610f998261105c565b9150610fa48361105c565b9250817fffffffffffffffffffffffffffffffffffffffffffffffffffffffffffffffff0483118215151615610fdd57610fdc6110c3565b5b828202905092915050565b6000610ff38261103c565b9050919050565b60008115159050919050565b6000819050919050565b60007fffffffff0000000000000000000000000000000000000000000000000000000082169050919050565b600073ffffffffffffffffffffffffffffffffffffffff82169050919050565b6000819050919050565b60005b83811015611084578082015181840152602081019050611069565b83811115611093576000848401525b50505050565b60006110a48261105c565b915060008214156110b8576110b76110c3565b5b600182039050919050565b7f4e487b7100000000000000000000000000000000000000000000000000000000600052601160045260246000fd5b6000601f19601f8301169050919050565b7f537472696e67733a20686578206c656e67746820696e73756666696369656e74600082015250565b7f416363657373436f6e74726f6c3a206163636f756e7420000000000000000000600082015250565b7f206973206d697373696e6720726f6c6520000000000000000000000000000000600082015250565b7f416363657373436f6e74726f6c3a2063616e206f6e6c792072656e6f756e636560008201527f20726f6c657320666f722073656c660000000000000000000000000000000000602082015250565b6111d681610fe8565b81146111e157600080fd5b50565b6111ed81611006565b81146111f857600080fd5b50565b61120481611010565b811461120f57600080fd5b5056fea26469706673582212207f6dcbf91e7a64b7b71b6003759e928d3d48bad514cd0c39907c2f483f4306d064736f6c63430008020033",
  "linkReferences": {},
  "deployedLinkReferences": {}
}