{
  "_format": "hh-sol-artifact-1",
  "contractName": "TutellusStaking",
  "sourceName": "contracts/TutellusStaking.sol",
  "abi": [
    {
      "inputs": [
        {
          "internalType": "address",
          "name": "token_",
          "type": "address"
        },
        {
          "internalType": "address",
          "name": "rolemanager",
          "type": "address"
        },
        {
          "internalType": "address",
          "name": "vault_",
          "type": "address"
        },
        {
          "internalType": "uint256",
          "name": "minFee_",
          "type": "uint256"
        },
        {
          "internalType": "uint256",
          "name": "maxFee_",
          "type": "uint256"
        },
        {
          "internalType": "uint256",
          "name": "feeInterval_",
          "type": "uint256"
        }
      ],
      "stateMutability": "nonpayable",
      "type": "constructor"
    },
    {
      "anonymous": false,
      "inputs": [
        {
          "indexed": false,
          "internalType": "address",
          "name": "account",
          "type": "address"
        }
      ],
      "name": "Claim",
      "type": "event"
    },
    {
      "anonymous": false,
      "inputs": [
        {
          "indexed": false,
          "internalType": "address",
          "name": "account",
          "type": "address"
        },
        {
          "indexed": false,
          "internalType": "uint256",
          "name": "amount",
          "type": "uint256"
        }
      ],
      "name": "Deposit",
      "type": "event"
    },
    {
      "anonymous": false,
      "inputs": [
        {
          "indexed": false,
          "internalType": "address",
          "name": "account",
          "type": "address"
        }
      ],
      "name": "Paused",
      "type": "event"
    },
    {
      "anonymous": false,
      "inputs": [
        {
          "indexed": false,
          "internalType": "address",
          "name": "account",
          "type": "address"
        },
        {
          "indexed": false,
          "internalType": "uint256",
          "name": "amount",
          "type": "uint256"
        }
      ],
      "name": "Rewards",
      "type": "event"
    },
    {
      "anonymous": false,
      "inputs": [
        {
          "indexed": false,
          "internalType": "address",
          "name": "account",
          "type": "address"
        },
        {
          "indexed": false,
          "internalType": "uint256",
          "name": "gap",
          "type": "uint256"
        }
      ],
      "name": "SyncBalance",
      "type": "event"
    },
    {
      "anonymous": false,
      "inputs": [
        {
          "indexed": false,
          "internalType": "bool",
          "name": "autoreward",
          "type": "bool"
        }
      ],
      "name": "ToggleAutoreward",
      "type": "event"
    },
    {
      "anonymous": false,
      "inputs": [
        {
          "indexed": false,
          "internalType": "address",
          "name": "account",
          "type": "address"
        }
      ],
      "name": "Unpaused",
      "type": "event"
    },
    {
      "anonymous": false,
      "inputs": [
        {
          "indexed": false,
          "internalType": "uint256",
          "name": "balance",
          "type": "uint256"
        },
        {
          "indexed": false,
          "internalType": "uint256",
          "name": "accRewardsPerShare",
          "type": "uint256"
        },
        {
          "indexed": false,
          "internalType": "uint256",
          "name": "lastUpdate",
          "type": "uint256"
        },
        {
          "indexed": false,
          "internalType": "uint256",
          "name": "stakers",
          "type": "uint256"
        }
      ],
      "name": "Update",
      "type": "event"
    },
    {
      "anonymous": false,
      "inputs": [
        {
          "indexed": false,
          "internalType": "uint256",
          "name": "endBlock",
          "type": "uint256"
        }
      ],
      "name": "UpdateEndBlock",
      "type": "event"
    },
    {
      "anonymous": false,
      "inputs": [
        {
          "indexed": false,
          "internalType": "uint256",
          "name": "minFee",
          "type": "uint256"
        },
        {
          "indexed": false,
          "internalType": "uint256",
          "name": "maxFee",
          "type": "uint256"
        },
        {
          "indexed": false,
          "internalType": "uint256",
          "name": "feeInterval",
          "type": "uint256"
        }
      ],
      "name": "UpdateFees",
      "type": "event"
    },
    {
      "anonymous": false,
      "inputs": [
        {
          "indexed": false,
          "internalType": "address",
          "name": "account",
          "type": "address"
        },
        {
          "indexed": false,
          "internalType": "uint256",
          "name": "amount",
          "type": "uint256"
        },
        {
          "indexed": false,
          "internalType": "uint256",
          "name": "rewardDebt",
          "type": "uint256"
        },
        {
          "indexed": false,
          "internalType": "uint256",
          "name": "notClaimed",
          "type": "uint256"
        },
        {
          "indexed": false,
          "internalType": "uint256",
          "name": "endInterval",
          "type": "uint256"
        }
      ],
      "name": "UpdateUserInfo",
      "type": "event"
    },
    {
      "anonymous": false,
      "inputs": [
        {
          "indexed": false,
          "internalType": "address",
          "name": "account",
          "type": "address"
        },
        {
          "indexed": false,
          "internalType": "uint256",
          "name": "amount",
          "type": "uint256"
        },
        {
          "indexed": false,
          "internalType": "uint256",
          "name": "burned",
          "type": "uint256"
        }
      ],
      "name": "Withdraw",
      "type": "event"
    },
    {
      "anonymous": false,
      "inputs": [
        {
          "indexed": false,
          "internalType": "address",
          "name": "vault",
          "type": "address"
        }
      ],
      "name": "updatevault",
      "type": "event"
    },
    {
      "inputs": [],
      "name": "DEFAULT_ADMIN_ROLE",
      "outputs": [
        {
          "internalType": "bytes32",
          "name": "",
          "type": "bytes32"
        }
      ],
      "stateMutability": "view",
      "type": "function"
    },
    {
      "inputs": [],
      "name": "PAUSER_ROLE",
      "outputs": [
        {
          "internalType": "bytes32",
          "name": "",
          "type": "bytes32"
        }
      ],
      "stateMutability": "view",
      "type": "function"
    },
    {
      "inputs": [],
      "name": "accRewardsPerShare",
      "outputs": [
        {
          "internalType": "uint256",
          "name": "",
          "type": "uint256"
        }
      ],
      "stateMutability": "view",
      "type": "function"
    },
    {
      "inputs": [],
      "name": "autoreward",
      "outputs": [
        {
          "internalType": "bool",
          "name": "",
          "type": "bool"
        }
      ],
      "stateMutability": "view",
      "type": "function"
    },
    {
      "inputs": [],
      "name": "balance",
      "outputs": [
        {
          "internalType": "uint256",
          "name": "",
          "type": "uint256"
        }
      ],
      "stateMutability": "view",
      "type": "function"
    },
    {
      "inputs": [],
      "name": "claim",
      "outputs": [],
      "stateMutability": "nonpayable",
      "type": "function"
    },
    {
      "inputs": [
        {
          "internalType": "address",
          "name": "account",
          "type": "address"
        },
        {
          "internalType": "uint256",
          "name": "amount",
          "type": "uint256"
        }
      ],
      "name": "depositFrom",
      "outputs": [],
      "stateMutability": "nonpayable",
      "type": "function"
    },
    {
      "inputs": [],
      "name": "endBlock",
      "outputs": [
        {
          "internalType": "uint256",
          "name": "",
          "type": "uint256"
        }
      ],
      "stateMutability": "view",
      "type": "function"
    },
    {
      "inputs": [],
      "name": "feeInterval",
      "outputs": [
        {
          "internalType": "uint256",
          "name": "",
          "type": "uint256"
        }
      ],
      "stateMutability": "view",
      "type": "function"
    },
    {
      "inputs": [
        {
          "internalType": "address",
          "name": "account",
          "type": "address"
        }
      ],
      "name": "getBlocksLeft",
      "outputs": [
        {
          "internalType": "uint256",
          "name": "",
          "type": "uint256"
        }
      ],
      "stateMutability": "view",
      "type": "function"
    },
    {
      "inputs": [
        {
          "internalType": "address",
          "name": "account",
          "type": "address"
        }
      ],
      "name": "getFee",
      "outputs": [
        {
          "internalType": "uint256",
          "name": "",
          "type": "uint256"
        }
      ],
      "stateMutability": "view",
      "type": "function"
    },
    {
      "inputs": [],
      "name": "getTokenGap",
      "outputs": [
        {
          "internalType": "uint256",
          "name": "",
          "type": "uint256"
        }
      ],
      "stateMutability": "view",
      "type": "function"
    },
    {
      "inputs": [
        {
          "internalType": "address",
          "name": "user_",
          "type": "address"
        }
      ],
      "name": "getUserBalance",
      "outputs": [
        {
          "internalType": "uint256",
          "name": "",
          "type": "uint256"
        }
      ],
      "stateMutability": "view",
      "type": "function"
    },
    {
      "inputs": [
        {
          "internalType": "bytes32",
          "name": "role",
          "type": "bytes32"
        },
        {
          "internalType": "address",
          "name": "account",
          "type": "address"
        }
      ],
      "name": "hasRole",
      "outputs": [
        {
          "internalType": "bool",
          "name": "",
          "type": "bool"
        }
      ],
      "stateMutability": "view",
      "type": "function"
    },
    {
      "inputs": [],
      "name": "lastUpdate",
      "outputs": [
        {
          "internalType": "uint256",
          "name": "",
          "type": "uint256"
        }
      ],
      "stateMutability": "view",
      "type": "function"
    },
    {
      "inputs": [],
      "name": "maxFee",
      "outputs": [
        {
          "internalType": "uint256",
          "name": "",
          "type": "uint256"
        }
      ],
      "stateMutability": "view",
      "type": "function"
    },
    {
      "inputs": [
        {
          "internalType": "address",
          "name": "to",
          "type": "address"
        },
        {
          "internalType": "bytes",
          "name": "data",
          "type": "bytes"
        }
      ],
      "name": "migrate",
      "outputs": [
        {
          "internalType": "bytes",
          "name": "",
          "type": "bytes"
        }
      ],
      "stateMutability": "nonpayable",
      "type": "function"
    },
    {
      "inputs": [],
      "name": "minFee",
      "outputs": [
        {
          "internalType": "uint256",
          "name": "",
          "type": "uint256"
        }
      ],
      "stateMutability": "view",
      "type": "function"
    },
    {
      "inputs": [],
      "name": "pause",
      "outputs": [],
      "stateMutability": "nonpayable",
      "type": "function"
    },
    {
      "inputs": [],
      "name": "paused",
      "outputs": [
        {
          "internalType": "bool",
          "name": "",
          "type": "bool"
        }
      ],
      "stateMutability": "view",
      "type": "function"
    },
    {
      "inputs": [
        {
          "internalType": "address",
          "name": "user_",
          "type": "address"
        }
      ],
      "name": "pendingRewards",
      "outputs": [
        {
          "internalType": "uint256",
          "name": "",
          "type": "uint256"
        }
      ],
      "stateMutability": "view",
      "type": "function"
    },
    {
      "inputs": [
        {
          "internalType": "uint256",
          "name": "feeInterval_",
          "type": "uint256"
        }
      ],
      "name": "setFeeInterval",
      "outputs": [],
      "stateMutability": "nonpayable",
      "type": "function"
    },
    {
      "inputs": [
        {
          "internalType": "uint256",
          "name": "minFee_",
          "type": "uint256"
        },
        {
          "internalType": "uint256",
          "name": "maxFee_",
          "type": "uint256"
        }
      ],
      "name": "setFees",
      "outputs": [],
      "stateMutability": "nonpayable",
      "type": "function"
    },
    {
      "inputs": [],
      "name": "stakers",
      "outputs": [
        {
          "internalType": "uint256",
          "name": "",
          "type": "uint256"
        }
      ],
      "stateMutability": "view",
      "type": "function"
    },
    {
      "inputs": [
        {
          "internalType": "address",
          "name": "account",
          "type": "address"
        }
      ],
      "name": "syncBalance",
      "outputs": [],
      "stateMutability": "nonpayable",
      "type": "function"
    },
    {
      "inputs": [],
      "name": "toggleAutoreward",
      "outputs": [],
      "stateMutability": "nonpayable",
      "type": "function"
    },
    {
      "inputs": [],
      "name": "token",
      "outputs": [
        {
          "internalType": "address",
          "name": "",
          "type": "address"
        }
      ],
      "stateMutability": "view",
      "type": "function"
    },
    {
      "inputs": [],
      "name": "unpause",
      "outputs": [],
      "stateMutability": "nonpayable",
      "type": "function"
    },
    {
      "inputs": [
        {
          "internalType": "address",
          "name": "manager",
          "type": "address"
        }
      ],
      "name": "updateManager",
      "outputs": [],
      "stateMutability": "nonpayable",
      "type": "function"
    },
    {
      "inputs": [],
      "name": "vault",
      "outputs": [
        {
          "internalType": "address",
          "name": "",
          "type": "address"
        }
      ],
      "stateMutability": "view",
      "type": "function"
    },
    {
      "inputs": [
        {
          "internalType": "uint256",
          "name": "amount",
          "type": "uint256"
        }
      ],
      "name": "withdraw",
      "outputs": [],
      "stateMutability": "nonpayable",
      "type": "function"
    }
  ],
  "bytecode": "0x60806040523480156200001157600080fd5b506040516200521d3803806200521d833981810160405281019062000037919062000f05565b6200004d8686868686866200005960201b60201c565b5050505050506200166e565b600060019054906101000a900460ff168062000080575060008054906101000a900460ff16155b620000c2576040517f08c379a0000000000000000000000000000000000000000000000000000000008152600401620000b99062001211565b60405180910390fd5b60008060019054906101000a900460ff16159050801562000113576001600060016101000a81548160ff02191690831515021790555060016000806101000a81548160ff0219169083151502179055505b62000124866200016460201b60201c565b6200013987868686866200026560201b60201c565b80156200015b5760008060016101000a81548160ff0219169083151502179055505b50505050505050565b600060019054906101000a900460ff16806200018b575060008054906101000a900460ff16155b620001cd576040517f08c379a0000000000000000000000000000000000000000000000000000000008152600401620001c49062001211565b60405180910390fd5b60008060019054906101000a900460ff1615905080156200021e576001600060016101000a81548160ff02191690831515021790555060016000806101000a81548160ff0219169083151502179055505b6200022e6200041060201b60201c565b6200023f826200050f60201b60201c565b8015620002615760008060016101000a81548160ff0219169083151502179055505b5050565b600060019054906101000a900460ff16806200028c575060008054906101000a900460ff16155b620002ce576040517f08c379a0000000000000000000000000000000000000000000000000000000008152600401620002c59062001211565b60405180910390fd5b60008060019054906101000a900460ff1615905080156200031f576001600060016101000a81548160ff02191690831515021790555060016000806101000a81548160ff0219169083151502179055505b85606660006101000a81548173ffffffffffffffffffffffffffffffffffffffff021916908373ffffffffffffffffffffffffffffffffffffffff16021790555084606760006101000a81548173ffffffffffffffffffffffffffffffffffffffff021916908373ffffffffffffffffffffffffffffffffffffffff160217905550620003b384846200063060201b60201c565b620003c482620007fc60201b60201c565b6001606760146101000a81548160ff02191690831515021790555043606d819055508015620004085760008060016101000a81548160ff0219169083151502179055505b505050505050565b600060019054906101000a900460ff168062000437575060008054906101000a900460ff16155b62000479576040517f08c379a0000000000000000000000000000000000000000000000000000000008152600401620004709062001211565b60405180910390fd5b60008060019054906101000a900460ff161590508015620004ca576001600060016101000a81548160ff02191690831515021790555060016000806101000a81548160ff0219169083151502179055505b620004da6200091660201b60201c565b620004ea620009f560201b60201c565b80156200050c5760008060016101000a81548160ff0219169083151502179055505b50565b600060019054906101000a900460ff168062000536575060008054906101000a900460ff16155b62000578576040517f08c379a00000000000000000000000000000000000000000000000000000000081526004016200056f9062001211565b60405180910390fd5b60008060019054906101000a900460ff161590508015620005c9576001600060016101000a81548160ff02191690831515021790555060016000806101000a81548160ff0219169083151502179055505b81606560006101000a81548173ffffffffffffffffffffffffffffffffffffffff021916908373ffffffffffffffffffffffffffffffffffffffff16021790555080156200062c5760008060016101000a81548160ff0219169083151502179055505b5050565b6000801b60003390506200064b828262000aef60201b60201c565b620006798273ffffffffffffffffffffffffffffffffffffffff16601462000bb160201b620021101760201c565b620006948460001c602062000bb160201b620021101760201c565b604051602001620006a79291906200115c565b60405160208183030381529060405290620006fa576040517f08c379a0000000000000000000000000000000000000000000000000000000008152600401620006f19190620011cb565b60405180910390fd5b5082841062000740576040517f08c379a0000000000000000000000000000000000000000000000000000000008152600401620007379062001233565b60405180910390fd5b68056bc75e2d63100000841115801562000763575068056bc75e2d631000008311155b620007a5576040517f08c379a00000000000000000000000000000000000000000000000000000000081526004016200079c9062001255565b60405180910390fd5b8360698190555082606a819055507f9fef908e44cc0f51b9e9f7fd26bc506a50448657da0dc10a9661e37bc1c4a392606954606a54606e54604051620007ee9392919062001277565b60405180910390a150505050565b6000801b600033905062000817828262000aef60201b60201c565b620008458273ffffffffffffffffffffffffffffffffffffffff16601462000bb160201b620021101760201c565b620008608460001c602062000bb160201b620021101760201c565b604051602001620008739291906200115c565b60405160208183030381529060405290620008c6576040517f08c379a0000000000000000000000000000000000000000000000000000000008152600401620008bd9190620011cb565b60405180910390fd5b5082606e819055507f9fef908e44cc0f51b9e9f7fd26bc506a50448657da0dc10a9661e37bc1c4a392606954606a54606e54604051620009099392919062001277565b60405180910390a1505050565b600060019054906101000a900460ff16806200093d575060008054906101000a900460ff16155b6200097f576040517f08c379a0000000000000000000000000000000000000000000000000000000008152600401620009769062001211565b60405180910390fd5b60008060019054906101000a900460ff161590508015620009d0576001600060016101000a81548160ff02191690831515021790555060016000806101000a81548160ff0219169083151502179055505b8015620009f25760008060016101000a81548160ff0219169083151502179055505b50565b600060019054906101000a900460ff168062000a1c575060008054906101000a900460ff16155b62000a5e576040517f08c379a000000000000000000000000000000000000000000000000000000000815260040162000a559062001211565b60405180910390fd5b60008060019054906101000a900460ff16159050801562000aaf576001600060016101000a81548160ff02191690831515021790555060016000806101000a81548160ff0219169083151502179055505b6000603360006101000a81548160ff021916908315150217905550801562000aec5760008060016101000a81548160ff0219169083151502179055505b50565b600080606560009054906101000a900473ffffffffffffffffffffffffffffffffffffffff1690508073ffffffffffffffffffffffffffffffffffffffff166391d1485485856040518363ffffffff1660e01b815260040162000b549291906200119e565b60206040518083038186803b15801562000b6d57600080fd5b505afa15801562000b82573d6000803e3d6000fd5b505050506040513d601f19601f8201168201806040525081019062000ba8919062000f9b565b91505092915050565b60606000600283600262000bc6919062001338565b62000bd29190620012db565b67ffffffffffffffff81111562000c12577f4e487b7100000000000000000000000000000000000000000000000000000000600052604160045260246000fd5b6040519080825280601f01601f19166020018201604052801562000c455781602001600182028036833780820191505090505b5090507f30000000000000000000000000000000000000000000000000000000000000008160008151811062000ca4577f4e487b7100000000000000000000000000000000000000000000000000000000600052603260045260246000fd5b60200101907effffffffffffffffffffffffffffffffffffffffffffffffffffffffffffff1916908160001a9053507f78000000000000000000000000000000000000000000000000000000000000008160018151811062000d2f577f4e487b7100000000000000000000000000000000000000000000000000000000600052603260045260246000fd5b60200101907effffffffffffffffffffffffffffffffffffffffffffffffffffffffffffff1916908160001a9053506000600184600262000d71919062001338565b62000d7d9190620012db565b90505b600181111562000e6f577f3031323334353637383961626364656600000000000000000000000000000000600f86166010811062000de7577f4e487b7100000000000000000000000000000000000000000000000000000000600052603260045260246000fd5b1a60f81b82828151811062000e25577f4e487b7100000000000000000000000000000000000000000000000000000000600052603260045260246000fd5b60200101907effffffffffffffffffffffffffffffffffffffffffffffffffffffffffffff1916908160001a905350600485901c94508062000e679062001423565b905062000d80565b506000841462000eb6576040517f08c379a000000000000000000000000000000000000000000000000000000000815260040162000ead90620011ef565b60405180910390fd5b8091505092915050565b60008151905062000ed18162001620565b92915050565b60008151905062000ee8816200163a565b92915050565b60008151905062000eff8162001654565b92915050565b60008060008060008060c0878903121562000f1f57600080fd5b600062000f2f89828a0162000ec0565b965050602062000f4289828a0162000ec0565b955050604062000f5589828a0162000ec0565b945050606062000f6889828a0162000eee565b935050608062000f7b89828a0162000eee565b92505060a062000f8e89828a0162000eee565b9150509295509295509295565b60006020828403121562000fae57600080fd5b600062000fbe8482850162000ed7565b91505092915050565b62000fd28162001399565b82525050565b62000fe381620013b9565b82525050565b600062000ff682620012b4565b620010028185620012bf565b935062001014818560208601620013ed565b6200101f8162001481565b840191505092915050565b60006200103782620012b4565b620010438185620012d0565b935062001055818560208601620013ed565b80840191505092915050565b600062001070602083620012bf565b91506200107d8262001492565b602082019050919050565b600062001097602483620012d0565b9150620010a482620014bb565b602482019050919050565b6000620010be602e83620012bf565b9150620010cb826200150a565b604082019050919050565b6000620010e5603d83620012bf565b9150620010f28262001559565b604082019050919050565b60006200110c602e83620012bf565b91506200111982620015a8565b604082019050919050565b600062001133601183620012d0565b91506200114082620015f7565b601182019050919050565b6200115681620013e3565b82525050565b6000620011698262001088565b91506200117782856200102a565b9150620011848262001124565b91506200119282846200102a565b91508190509392505050565b6000604082019050620011b5600083018562000fd8565b620011c4602083018462000fc7565b9392505050565b60006020820190508181036000830152620011e7818462000fe9565b905092915050565b600060208201905081810360008301526200120a8162001061565b9050919050565b600060208201905081810360008301526200122c81620010af565b9050919050565b600060208201905081810360008301526200124e81620010d6565b9050919050565b600060208201905081810360008301526200127081620010fd565b9050919050565b60006060820190506200128e60008301866200114b565b6200129d60208301856200114b565b620012ac60408301846200114b565b949350505050565b600081519050919050565b600082825260208201905092915050565b600081905092915050565b6000620012e882620013e3565b9150620012f583620013e3565b9250827fffffffffffffffffffffffffffffffffffffffffffffffffffffffffffffffff038211156200132d576200132c62001452565b5b828201905092915050565b60006200134582620013e3565b91506200135283620013e3565b9250817fffffffffffffffffffffffffffffffffffffffffffffffffffffffffffffffff04831182151516156200138e576200138d62001452565b5b828202905092915050565b6000620013a682620013c3565b9050919050565b60008115159050919050565b6000819050919050565b600073ffffffffffffffffffffffffffffffffffffffff82169050919050565b6000819050919050565b60005b838110156200140d578082015181840152602081019050620013f0565b838111156200141d576000848401525b50505050565b60006200143082620013e3565b9150600082141562001447576200144662001452565b5b600182039050919050565b7f4e487b7100000000000000000000000000000000000000000000000000000000600052601160045260246000fd5b6000601f19601f8301169050919050565b7f537472696e67733a20686578206c656e67746820696e73756666696369656e74600082015250565b7f416363657373436f6e74726f6c50726f78795061757361626c653a206163636f60008201527f756e742000000000000000000000000000000000000000000000000000000000602082015250565b7f496e697469616c697a61626c653a20636f6e747261637420697320616c72656160008201527f647920696e697469616c697a6564000000000000000000000000000000000000602082015250565b7f547574656c6c75735374616b696e673a206d696e696e756d20666565206d757360008201527f742062652067726561746572207468616e206d6178696d756d20666565000000602082015250565b7f547574656c6c75735374616b696e673a2066656573206d757374206265206c6560008201527f7373207468616e20313030653138000000000000000000000000000000000000602082015250565b7f206973206d697373696e6720726f6c6520000000000000000000000000000000600082015250565b6200162b8162001399565b81146200163757600080fd5b50565b6200164581620013ad565b81146200165157600080fd5b50565b6200165f81620013e3565b81146200166b57600080fd5b50565b613b9f806200167e6000396000f3fe608060405234801561001057600080fd5b50600436106101e55760003560e01c80636ca569c11161010f578063b88c9148116100a2578063e63ab1e911610071578063e63ab1e914610524578063fbfa77cf14610542578063fc0c546a14610560578063fed1252a1461057e576101e5565b8063b88c91481461048a578063c0463711146104ba578063c3fbb6fd146104d8578063e0adaca214610508576101e5565b80638d048056116100de5780638d048056146103ee57806391d148541461041e578063a217fddf1461044e578063b69ef8a81461046c576101e5565b80636ca569c1146103a05780637cbaccd5146103aa57806381fb5cfb146103c85780638456cb59146103e4576101e5565b80633f4ba83a1161018757806358aba00f1161015657806358aba00f1461032a5780635a3c978b146103465780635c975abb1461036457806366b0bebc14610382576101e5565b80633f4ba83a146102c857806347734892146102d25780634e71d92d146103025780635129338c1461030c576101e5565b806315cc36f2116101c357806315cc36f21461024257806324ec75901461025e5780632e1a7d4d1461027c57806331d7a26214610298576101e5565b806301f59d16146101ea578063083c6323146102085780630b78f9c014610226575b600080fd5b6101f261059c565b6040516101ff91906132af565b60405180910390f35b6102106105a2565b60405161021d91906132af565b60405180910390f35b610240600480360381019061023b9190612ad0565b6105a8565b005b61025c600480360381019061025791906129dd565b610744565b005b610266610c79565b60405161027391906132af565b60405180910390f35b61029660048036038101906102919190612a7e565b610c7f565b005b6102b260048036038101906102ad9190612960565b6110a8565b6040516102bf91906132af565b60405180910390f35b6102d0611291565b005b6102ec60048036038101906102e79190612960565b61135e565b6040516102f991906132af565b60405180910390f35b61030a611400565b005b6103146115c0565b60405161032191906132af565b60405180910390f35b610344600480360381019061033f9190612960565b61168a565b005b61034e611774565b60405161035b919061302c565b60405180910390f35b61036c611787565b604051610379919061302c565b60405180910390f35b61038a61179e565b60405161039791906132af565b60405180910390f35b6103a86117a4565b005b6103b26118bc565b6040516103bf91906132af565b60405180910390f35b6103e260048036038101906103dd9190612a7e565b6118c2565b005b6103ec6119b3565b005b61040860048036038101906104039190612960565b611a80565b60405161041591906132af565b60405180910390f35b61043860048036038101906104339190612a42565b611b2b565b604051610445919061302c565b60405180910390f35b610456611be7565b6040516104639190613047565b60405180910390f35b610474611bee565b60405161048191906132af565b60405180910390f35b6104a4600480360381019061049f9190612960565b611bf4565b6040516104b191906132af565b60405180910390f35b6104c2611d08565b6040516104cf91906132af565b60405180910390f35b6104f260048036038101906104ed9190612989565b611d0e565b6040516104ff919061308b565b60405180910390f35b610522600480360381019061051d9190612960565b611eb2565b005b61052c61209a565b6040516105399190613047565b60405180910390f35b61054a6120be565b6040516105579190612ec0565b60405180910390f35b6105686120e4565b6040516105759190612ec0565b60405180910390f35b61058661210a565b60405161059391906132af565b60405180910390f35b606a5481565b606f5481565b6000801b60003390506105bb8282611b2b565b6105dc8273ffffffffffffffffffffffffffffffffffffffff166014612110565b6105ea8460001c6020612110565b6040516020016105fb929190612e86565b6040516020818303038152906040529061064b576040517f08c379a000000000000000000000000000000000000000000000000000000000815260040161064291906130ad565b60405180910390fd5b5082841061068e576040517f08c379a0000000000000000000000000000000000000000000000000000000008152600401610685906131cf565b60405180910390fd5b68056bc75e2d6310000084111580156106b0575068056bc75e2d631000008311155b6106ef576040517f08c379a00000000000000000000000000000000000000000000000000000000081526004016106e69061320f565b60405180910390fd5b8360698190555082606a819055507f9fef908e44cc0f51b9e9f7fd26bc506a50448657da0dc10a9661e37bc1c4a392606954606a54606e54604051610736939291906132ca565b60405180910390a150505050565b61074c611787565b1561078c576040517f08c379a00000000000000000000000000000000000000000000000000000000081526004016107839061312f565b60405180910390fd5b606f5443106107d0576040517f08c379a00000000000000000000000000000000000000000000000000000000081526004016107c79061322f565b60405180910390fd5b60008111610813576040517f08c379a000000000000000000000000000000000000000000000000000000000815260040161080a9061314f565b60405180910390fd5b6000607160008473ffffffffffffffffffffffffffffffffffffffff1673ffffffffffffffffffffffffffffffffffffffff168152602001908152602001600020905061085e61240a565b61086783612543565b60008160000154141561088f5760016070600082825461088791906133ea565b925050819055505b606e544361089d91906133ea565b81600301819055506069548160040181905550606a548160050181905550606e548160060181905550818160000160008282546108da91906133ea565b9250508190555081606860008282546108f391906133ea565b925050819055506000606660009054906101000a900473ffffffffffffffffffffffffffffffffffffffff169050828173ffffffffffffffffffffffffffffffffffffffff166370a08231866040518263ffffffff1660e01b815260040161095b9190612ec0565b60206040518083038186803b15801561097357600080fd5b505afa158015610987573d6000803e3d6000fd5b505050506040513d601f19601f820116820180604052508101906109ab9190612aa7565b10156109ec576040517f08c379a00000000000000000000000000000000000000000000000000000000081526004016109e39061316f565b60405180910390fd5b828173ffffffffffffffffffffffffffffffffffffffff1663dd62ed3e86306040518363ffffffff1660e01b8152600401610a28929190612edb565b60206040518083038186803b158015610a4057600080fd5b505afa158015610a54573d6000803e3d6000fd5b505050506040513d601f19601f82011682018060405250810190610a789190612aa7565b1015610ab9576040517f08c379a0000000000000000000000000000000000000000000000000000000008152600401610ab0906131af565b60405180910390fd5b606760149054906101000a900460ff1615610ad857610ad7846125d7565b5b8073ffffffffffffffffffffffffffffffffffffffff166323b872dd8530866040518463ffffffff1660e01b8152600401610b1593929190612f04565b602060405180830381600087803b158015610b2f57600080fd5b505af1158015610b43573d6000803e3d6000fd5b505050506040513d601f19601f82011682018060405250810190610b679190612a19565b610ba6576040517f08c379a0000000000000000000000000000000000000000000000000000000008152600401610b9d9061324f565b60405180910390fd5b7fce49b138f2621300a7043a61f472ccfd643162bdf3efb11354e22d5273b77a71606854606b54606d54607054604051610be39493929190613301565b60405180910390a17fda0c5744e922c38dc93f40ffd95d1e27696bee87f5cbd024bd5df1d168caa5a8848360000154846001015485600201548660030154604051610c32959493929190612fd9565b60405180910390a17fe1fffcc4923d04b559f4d29a8bfc6cda04eb5b0d3c460751c2402c5c5cc9109c8484604051610c6b929190612f3b565b60405180910390a150505050565b60695481565b610c87611787565b15610cc7576040517f08c379a0000000000000000000000000000000000000000000000000000000008152600401610cbe9061312f565b60405180910390fd5b60008111610d0a576040517f08c379a0000000000000000000000000000000000000000000000000000000008152600401610d019061314f565b60405180910390fd5b60003390506000607160008373ffffffffffffffffffffffffffffffffffffffff1673ffffffffffffffffffffffffffffffffffffffff16815260200190815260200160002090508060000154831115610d99576040517f08c379a0000000000000000000000000000000000000000000000000000000008152600401610d909061318f565b60405180910390fd5b610da161240a565b610daa82612543565b606b54816001018190555082816000016000828254610dc991906134cb565b925050819055508260686000828254610de291906134cb565b92505081905550600081600001541415610e1157600160706000828254610e0991906134cb565b925050819055505b6000606660009054906101000a900473ffffffffffffffffffffffffffffffffffffffff169050600068056bc75e2d63100000610e4d85611bf4565b86610e589190613471565b610e629190613440565b90508085610e7091906134cb565b9450606760149054906101000a900460ff1615610e9157610e90846125d7565b5b6000811115610f06578173ffffffffffffffffffffffffffffffffffffffff166342966c68826040518263ffffffff1660e01b8152600401610ed391906132af565b600060405180830381600087803b158015610eed57600080fd5b505af1158015610f01573d6000803e3d6000fd5b505050505b8173ffffffffffffffffffffffffffffffffffffffff1663a9059cbb85876040518363ffffffff1660e01b8152600401610f41929190612f3b565b602060405180830381600087803b158015610f5b57600080fd5b505af1158015610f6f573d6000803e3d6000fd5b505050506040513d601f19601f82011682018060405250810190610f939190612a19565b610fd2576040517f08c379a0000000000000000000000000000000000000000000000000000000008152600401610fc9906131ef565b60405180910390fd5b7fce49b138f2621300a7043a61f472ccfd643162bdf3efb11354e22d5273b77a71606854606b54606d5460705460405161100f9493929190613301565b60405180910390a17fda0c5744e922c38dc93f40ffd95d1e27696bee87f5cbd024bd5df1d168caa5a884846000015485600101548660020154876003015460405161105e959493929190612fd9565b60405180910390a17ff279e6a1f5e320cca91135676d9cb6e44ca8a08c0b88342bcdb1144f6511b56884868360405161109993929190612fa2565b60405180910390a15050505050565b600080607160008473ffffffffffffffffffffffffffffffffffffffff1673ffffffffffffffffffffffffffffffffffffffff1681526020019081526020016000206040518060e0016040529081600082015481526020016001820154815260200160028201548152602001600382015481526020016004820154815260200160058201548152602001600682015481525050905060008160400151905060006068541115611287576000606760009054906101000a900473ffffffffffffffffffffffffffffffffffffffff1690506000606c548273ffffffffffffffffffffffffffffffffffffffff1663ae7928bf306040518263ffffffff1660e01b81526004016111b69190612ec0565b60206040518083038186803b1580156111ce57600080fd5b505afa1580156111e2573d6000803e3d6000fd5b505050506040513d601f19601f820116820180604052508101906112069190612aa7565b61121091906134cb565b90506000606854670de0b6b3a76400008361122b9190613471565b6112359190613440565b9050670de0b6b3a76400008560000151828760200151606b5461125891906134cb565b61126291906133ea565b61126c9190613471565b6112769190613440565b8461128191906133ea565b93505050505b8092505050919050565b7f65d7a28e3265b37a6474929f336521b332c1681b933f6cb9f3376673440d862a60003390506112c18282611b2b565b6112e28273ffffffffffffffffffffffffffffffffffffffff166014612110565b6112f08460001c6020612110565b604051602001611301929190612e86565b60405160208183030381529060405290611351576040517f08c379a000000000000000000000000000000000000000000000000000000000815260040161134891906130ad565b60405180910390fd5b5061135a612742565b5050565b600080607160008473ffffffffffffffffffffffffffffffffffffffff1673ffffffffffffffffffffffffffffffffffffffff1681526020019081526020016000206040518060e001604052908160008201548152602001600182015481526020016002820154815260200160038201548152602001600482015481526020016005820154815260200160068201548152505090508060000151915050919050565b611408611787565b15611448576040517f08c379a000000000000000000000000000000000000000000000000000000000815260040161143f9061312f565b60405180910390fd5b60003390506000607160008373ffffffffffffffffffffffffffffffffffffffff1673ffffffffffffffffffffffffffffffffffffffff168152602001908152602001600020905061149861240a565b6114a182612543565b60008160020154116114e8576040517f08c379a00000000000000000000000000000000000000000000000000000000081526004016114df9061326f565b60405180910390fd5b6114f1826125d7565b7fce49b138f2621300a7043a61f472ccfd643162bdf3efb11354e22d5273b77a71606854606b54606d5460705460405161152e9493929190613301565b60405180910390a17fda0c5744e922c38dc93f40ffd95d1e27696bee87f5cbd024bd5df1d168caa5a882826000015483600101548460020154856003015460405161157d959493929190612fd9565b60405180910390a17f0c7ef932d3b91976772937f18d5ef9b39a9930bef486b576c374f047c4b512dc826040516115b49190612ec0565b60405180910390a15050565b600080606660009054906101000a900473ffffffffffffffffffffffffffffffffffffffff16905060008173ffffffffffffffffffffffffffffffffffffffff166370a08231306040518263ffffffff1660e01b81526004016116239190612ec0565b60206040518083038186803b15801561163b57600080fd5b505afa15801561164f573d6000803e3d6000fd5b505050506040513d601f19601f820116820180604052508101906116739190612aa7565b90506068548161168391906134cb565b9250505090565b6000801b600033905061169d8282611b2b565b6116be8273ffffffffffffffffffffffffffffffffffffffff166014612110565b6116cc8460001c6020612110565b6040516020016116dd929190612e86565b6040516020818303038152906040529061172d576040517f08c379a000000000000000000000000000000000000000000000000000000000815260040161172491906130ad565b60405180910390fd5b5082606560006101000a81548173ffffffffffffffffffffffffffffffffffffffff021916908373ffffffffffffffffffffffffffffffffffffffff160217905550505050565b606760149054906101000a900460ff1681565b6000603360009054906101000a900460ff16905090565b606e5481565b6000801b60003390506117b78282611b2b565b6117d88273ffffffffffffffffffffffffffffffffffffffff166014612110565b6117e68460001c6020612110565b6040516020016117f7929190612e86565b60405160208183030381529060405290611847576040517f08c379a000000000000000000000000000000000000000000000000000000000815260040161183e91906130ad565b60405180910390fd5b50606760149054906101000a900460ff1615606760146101000a81548160ff0219169083151502179055507fbab7db190deaf2eccaf17b4e82ea10dce1e26f8a605ec9681ca8183b2de399fe606760149054906101000a900460ff166040516118b0919061302c565b60405180910390a15050565b606b5481565b6000801b60003390506118d58282611b2b565b6118f68273ffffffffffffffffffffffffffffffffffffffff166014612110565b6119048460001c6020612110565b604051602001611915929190612e86565b60405160208183030381529060405290611965576040517f08c379a000000000000000000000000000000000000000000000000000000000815260040161195c91906130ad565b60405180910390fd5b5082606e819055507f9fef908e44cc0f51b9e9f7fd26bc506a50448657da0dc10a9661e37bc1c4a392606954606a54606e546040516119a6939291906132ca565b60405180910390a1505050565b7f65d7a28e3265b37a6474929f336521b332c1681b933f6cb9f3376673440d862a60003390506119e38282611b2b565b611a048273ffffffffffffffffffffffffffffffffffffffff166014612110565b611a128460001c6020612110565b604051602001611a23929190612e86565b60405160208183030381529060405290611a73576040517f08c379a0000000000000000000000000000000000000000000000000000000008152600401611a6a91906130ad565b60405180910390fd5b50611a7c6127e4565b5050565b6000607160008373ffffffffffffffffffffffffffffffffffffffff1673ffffffffffffffffffffffffffffffffffffffff16815260200190815260200160002060030154431115611ad55760009050611b26565b43607160008473ffffffffffffffffffffffffffffffffffffffff1673ffffffffffffffffffffffffffffffffffffffff16815260200190815260200160002060030154611b2391906134cb565b90505b919050565b600080606560009054906101000a900473ffffffffffffffffffffffffffffffffffffffff1690508073ffffffffffffffffffffffffffffffffffffffff166391d1485485856040518363ffffffff1660e01b8152600401611b8e929190613062565b60206040518083038186803b158015611ba657600080fd5b505afa158015611bba573d6000803e3d6000fd5b505050506040513d601f19601f82011682018060405250810190611bde9190612a19565b91505092915050565b6000801b81565b60685481565b600080607160008473ffffffffffffffffffffffffffffffffffffffff1673ffffffffffffffffffffffffffffffffffffffff1681526020019081526020016000206040518060e00160405290816000820154815260200160018201548152602001600282015481526020016003820154815260200160048201548152602001600582015481526020016006820154815250509050600081606001514310611ca0578160800151611ce6565b60008260c0015111611cb6578160800151611ce5565b8160c00151438360600151611ccb91906134cb565b8360a00151611cda9190613471565b611ce49190613440565b5b5b905081608001518111611cfd578160800151611cff565b805b92505050919050565b606d5481565b606060003390506000607160008373ffffffffffffffffffffffffffffffffffffffff1673ffffffffffffffffffffffffffffffffffffffff168152602001908152602001600020600001549050611d6581610c7f565b6000808673ffffffffffffffffffffffffffffffffffffffff16848488604051602401611d9493929190612f64565b6040516020818303038152906040527f5f781329000000000000000000000000000000000000000000000000000000007bffffffffffffffffffffffffffffffffffffffffffffffffffffffff19166020820180517bffffffffffffffffffffffffffffffffffffffffffffffffffffffff8381831617835250505050604051611e1e9190612e6f565b6000604051808303816000865af19150503d8060008114611e5b576040519150601f19603f3d011682016040523d82523d6000602084013e611e60565b606091505b509150915081611ea5576040517f08c379a0000000000000000000000000000000000000000000000000000000008152600401611e9c9061310f565b60405180910390fd5b8094505050505092915050565b6000801b6000339050611ec58282611b2b565b611ee68273ffffffffffffffffffffffffffffffffffffffff166014612110565b611ef48460001c6020612110565b604051602001611f05929190612e86565b60405160208183030381529060405290611f55576040517f08c379a0000000000000000000000000000000000000000000000000000000008152600401611f4c91906130ad565b60405180910390fd5b506000606660009054906101000a900473ffffffffffffffffffffffffffffffffffffffff1690506000611f876115c0565b905060008111611fcc576040517f08c379a0000000000000000000000000000000000000000000000000000000008152600401611fc39061328f565b60405180910390fd5b8173ffffffffffffffffffffffffffffffffffffffff1663a9059cbb86836040518363ffffffff1660e01b8152600401612007929190612f3b565b602060405180830381600087803b15801561202157600080fd5b505af1158015612035573d6000803e3d6000fd5b505050506040513d601f19601f820116820180604052508101906120599190612a19565b507fd43c97094d4b3522923f3751f896fb88ef95d5e1d310aea58b936625fd7c5d0c858260405161208b929190612f3b565b60405180910390a15050505050565b7f65d7a28e3265b37a6474929f336521b332c1681b933f6cb9f3376673440d862a81565b606760009054906101000a900473ffffffffffffffffffffffffffffffffffffffff1681565b606660009054906101000a900473ffffffffffffffffffffffffffffffffffffffff1681565b60705481565b6060600060028360026121239190613471565b61212d91906133ea565b67ffffffffffffffff81111561216c577f4e487b7100000000000000000000000000000000000000000000000000000000600052604160045260246000fd5b6040519080825280601f01601f19166020018201604052801561219e5781602001600182028036833780820191505090505b5090507f3000000000000000000000000000000000000000000000000000000000000000816000815181106121fc577f4e487b7100000000000000000000000000000000000000000000000000000000600052603260045260246000fd5b60200101907effffffffffffffffffffffffffffffffffffffffffffffffffffffffffffff1916908160001a9053507f780000000000000000000000000000000000000000000000000000000000000081600181518110612286577f4e487b7100000000000000000000000000000000000000000000000000000000600052603260045260246000fd5b60200101907effffffffffffffffffffffffffffffffffffffffffffffffffffffffffffff1916908160001a905350600060018460026122c69190613471565b6122d091906133ea565b90505b60018111156123bc577f3031323334353637383961626364656600000000000000000000000000000000600f861660108110612338577f4e487b7100000000000000000000000000000000000000000000000000000000600052603260045260246000fd5b1a60f81b828281518110612375577f4e487b7100000000000000000000000000000000000000000000000000000000600052603260045260246000fd5b60200101907effffffffffffffffffffffffffffffffffffffffffffffffffffffffffffff1916908160001a905350600485901c9450806123b590613593565b90506122d3565b5060008414612400576040517f08c379a00000000000000000000000000000000000000000000000000000000081526004016123f7906130cf565b60405180910390fd5b8091505092915050565b606d54431161241857612541565b60006068541115612539576000606760009054906101000a900473ffffffffffffffffffffffffffffffffffffffff1690506000606c548273ffffffffffffffffffffffffffffffffffffffff1663ae7928bf306040518263ffffffff1660e01b81526004016124889190612ec0565b60206040518083038186803b1580156124a057600080fd5b505afa1580156124b4573d6000803e3d6000fd5b505050506040513d601f19601f820116820180604052508101906124d89190612aa7565b6124e291906134cb565b905080606c60008282546124f691906133ea565b92505081905550606854670de0b6b3a7640000826125149190613471565b61251e9190613440565b606b600082825461252f91906133ea565b9250508190555050505b43606d819055505b565b6000607160008373ffffffffffffffffffffffffffffffffffffffff1673ffffffffffffffffffffffffffffffffffffffff168152602001908152602001600020905060008160010154606b5461259a91906134cb565b9050670de0b6b3a76400008260000154826125b59190613471565b6125bf9190613440565b8260020181905550606b548260010181905550505050565b6000606760009054906101000a900473ffffffffffffffffffffffffffffffffffffffff1690506000607160008473ffffffffffffffffffffffffffffffffffffffff1673ffffffffffffffffffffffffffffffffffffffff168152602001908152602001600020600201549050600081111561273d576000607160008573ffffffffffffffffffffffffffffffffffffffff1673ffffffffffffffffffffffffffffffffffffffff168152602001908152602001600020600201819055508173ffffffffffffffffffffffffffffffffffffffff1663158a498884836040518363ffffffff1660e01b81526004016126d1929190612f3b565b600060405180830381600087803b1580156126eb57600080fd5b505af11580156126ff573d6000803e3d6000fd5b505050507fc083a1647e3ee591bf42b82564ffb4d16fdbb26068f0080da911c8d8300fd84a8382604051612734929190612f3b565b60405180910390a15b505050565b61274a611787565b612789576040517f08c379a0000000000000000000000000000000000000000000000000000000008152600401612780906130ef565b60405180910390fd5b6000603360006101000a81548160ff0219169083151502179055507f5db9ee0a495bf2e6ff9c91a7834c1ba4fdd244a5e8aa4e537bd38aeae4b073aa6127cd612887565b6040516127da9190612ec0565b60405180910390a1565b6127ec611787565b1561282c576040517f08c379a00000000000000000000000000000000000000000000000000000000081526004016128239061312f565b60405180910390fd5b6001603360006101000a81548160ff0219169083151502179055507f62e78cea01bee320cd4e420270b5ea74000d11b0c9f74754ebdbfc544b05a258612870612887565b60405161287d9190612ec0565b60405180910390a1565b600033905090565b60006128a261289d8461336b565b613346565b9050828152602081018484840111156128ba57600080fd5b6128c5848285613551565b509392505050565b6000813590506128dc81613b0d565b92915050565b6000815190506128f181613b24565b92915050565b60008135905061290681613b3b565b92915050565b600082601f83011261291d57600080fd5b813561292d84826020860161288f565b91505092915050565b60008135905061294581613b52565b92915050565b60008151905061295a81613b52565b92915050565b60006020828403121561297257600080fd5b6000612980848285016128cd565b91505092915050565b6000806040838503121561299c57600080fd5b60006129aa858286016128cd565b925050602083013567ffffffffffffffff8111156129c757600080fd5b6129d38582860161290c565b9150509250929050565b600080604083850312156129f057600080fd5b60006129fe858286016128cd565b9250506020612a0f85828601612936565b9150509250929050565b600060208284031215612a2b57600080fd5b6000612a39848285016128e2565b91505092915050565b60008060408385031215612a5557600080fd5b6000612a63858286016128f7565b9250506020612a74858286016128cd565b9150509250929050565b600060208284031215612a9057600080fd5b6000612a9e84828501612936565b91505092915050565b600060208284031215612ab957600080fd5b6000612ac78482850161294b565b91505092915050565b60008060408385031215612ae357600080fd5b6000612af185828601612936565b9250506020612b0285828601612936565b9150509250929050565b612b15816134ff565b82525050565b612b2481613511565b82525050565b612b338161351d565b82525050565b6000612b448261339c565b612b4e81856133b2565b9350612b5e818560208601613560565b612b678161367b565b840191505092915050565b6000612b7d8261339c565b612b8781856133c3565b9350612b97818560208601613560565b80840191505092915050565b6000612bae826133a7565b612bb881856133ce565b9350612bc8818560208601613560565b612bd18161367b565b840191505092915050565b6000612be7826133a7565b612bf181856133df565b9350612c01818560208601613560565b80840191505092915050565b6000612c1a6020836133ce565b9150612c258261368c565b602082019050919050565b6000612c3d6024836133df565b9150612c48826136b5565b602482019050919050565b6000612c606014836133ce565b9150612c6b82613704565b602082019050919050565b6000612c836025836133ce565b9150612c8e8261372d565b604082019050919050565b6000612ca66010836133ce565b9150612cb18261377c565b602082019050919050565b6000612cc96029836133ce565b9150612cd4826137a5565b604082019050919050565b6000612cec602c836133ce565b9150612cf7826137f4565b604082019050919050565b6000612d0f6034836133ce565b9150612d1a82613843565b604082019050919050565b6000612d326029836133ce565b9150612d3d82613892565b604082019050919050565b6000612d55603d836133ce565b9150612d60826138e1565b604082019050919050565b6000612d786029836133ce565b9150612d8382613930565b604082019050919050565b6000612d9b602e836133ce565b9150612da68261397f565b604082019050919050565b6000612dbe602e836133ce565b9150612dc9826139ce565b604082019050919050565b6000612de16028836133ce565b9150612dec82613a1d565b604082019050919050565b6000612e046021836133ce565b9150612e0f82613a6c565b604082019050919050565b6000612e276011836133df565b9150612e3282613abb565b601182019050919050565b6000612e4a6020836133ce565b9150612e5582613ae4565b602082019050919050565b612e6981613547565b82525050565b6000612e7b8284612b72565b915081905092915050565b6000612e9182612c30565b9150612e9d8285612bdc565b9150612ea882612e1a565b9150612eb48284612bdc565b91508190509392505050565b6000602082019050612ed56000830184612b0c565b92915050565b6000604082019050612ef06000830185612b0c565b612efd6020830184612b0c565b9392505050565b6000606082019050612f196000830186612b0c565b612f266020830185612b0c565b612f336040830184612e60565b949350505050565b6000604082019050612f506000830185612b0c565b612f5d6020830184612e60565b9392505050565b6000606082019050612f796000830186612b0c565b612f866020830185612e60565b8181036040830152612f988184612b39565b9050949350505050565b6000606082019050612fb76000830186612b0c565b612fc46020830185612e60565b612fd16040830184612e60565b949350505050565b600060a082019050612fee6000830188612b0c565b612ffb6020830187612e60565b6130086040830186612e60565b6130156060830185612e60565b6130226080830184612e60565b9695505050505050565b60006020820190506130416000830184612b1b565b92915050565b600060208201905061305c6000830184612b2a565b92915050565b60006040820190506130776000830185612b2a565b6130846020830184612b0c565b9392505050565b600060208201905081810360008301526130a58184612b39565b905092915050565b600060208201905081810360008301526130c78184612ba3565b905092915050565b600060208201905081810360008301526130e881612c0d565b9050919050565b6000602082019050818103600083015261310881612c53565b9050919050565b6000602082019050818103600083015261312881612c76565b9050919050565b6000602082019050818103600083015261314881612c99565b9050919050565b6000602082019050818103600083015261316881612cbc565b9050919050565b6000602082019050818103600083015261318881612cdf565b9050919050565b600060208201905081810360008301526131a881612d02565b9050919050565b600060208201905081810360008301526131c881612d25565b9050919050565b600060208201905081810360008301526131e881612d48565b9050919050565b6000602082019050818103600083015261320881612d6b565b9050919050565b6000602082019050818103600083015261322881612d8e565b9050919050565b6000602082019050818103600083015261324881612db1565b9050919050565b6000602082019050818103600083015261326881612dd4565b9050919050565b6000602082019050818103600083015261328881612df7565b9050919050565b600060208201905081810360008301526132a881612e3d565b9050919050565b60006020820190506132c46000830184612e60565b92915050565b60006060820190506132df6000830186612e60565b6132ec6020830185612e60565b6132f96040830184612e60565b949350505050565b60006080820190506133166000830187612e60565b6133236020830186612e60565b6133306040830185612e60565b61333d6060830184612e60565b95945050505050565b6000613350613361565b905061335c82826135bd565b919050565b6000604051905090565b600067ffffffffffffffff8211156133865761338561364c565b5b61338f8261367b565b9050602081019050919050565b600081519050919050565b600081519050919050565b600082825260208201905092915050565b600081905092915050565b600082825260208201905092915050565b600081905092915050565b60006133f582613547565b915061340083613547565b9250827fffffffffffffffffffffffffffffffffffffffffffffffffffffffffffffffff03821115613435576134346135ee565b5b828201905092915050565b600061344b82613547565b915061345683613547565b9250826134665761346561361d565b5b828204905092915050565b600061347c82613547565b915061348783613547565b9250817fffffffffffffffffffffffffffffffffffffffffffffffffffffffffffffffff04831182151516156134c0576134bf6135ee565b5b828202905092915050565b60006134d682613547565b91506134e183613547565b9250828210156134f4576134f36135ee565b5b828203905092915050565b600061350a82613527565b9050919050565b60008115159050919050565b6000819050919050565b600073ffffffffffffffffffffffffffffffffffffffff82169050919050565b6000819050919050565b82818337600083830152505050565b60005b8381101561357e578082015181840152602081019050613563565b8381111561358d576000848401525b50505050565b600061359e82613547565b915060008214156135b2576135b16135ee565b5b600182039050919050565b6135c68261367b565b810181811067ffffffffffffffff821117156135e5576135e461364c565b5b80604052505050565b7f4e487b7100000000000000000000000000000000000000000000000000000000600052601160045260246000fd5b7f4e487b7100000000000000000000000000000000000000000000000000000000600052601260045260246000fd5b7f4e487b7100000000000000000000000000000000000000000000000000000000600052604160045260246000fd5b6000601f19601f8301169050919050565b7f537472696e67733a20686578206c656e67746820696e73756666696369656e74600082015250565b7f416363657373436f6e74726f6c50726f78795061757361626c653a206163636f60008201527f756e742000000000000000000000000000000000000000000000000000000000602082015250565b7f5061757361626c653a206e6f7420706175736564000000000000000000000000600082015250565b7f547574656c6c75735374616b696e673a206d6967726174696f6e20686173206660008201527f61696c6564000000000000000000000000000000000000000000000000000000602082015250565b7f5061757361626c653a2070617573656400000000000000000000000000000000600082015250565b7f547574656c6c75735374616b696e673a20616d6f756e74206d7573742062652060008201527f6f766572207a65726f0000000000000000000000000000000000000000000000602082015250565b7f547574656c6c75735374616b696e673a207573657220686173206e6f7420656e60008201527f6f7567682062616c616e63650000000000000000000000000000000000000000602082015250565b7f547574656c6c75735374616b696e673a207573657220686173206e6f7420656e60008201527f6f756768207374616b696e672062616c616e6365000000000000000000000000602082015250565b7f547574656c6c75735374616b696e673a20616d6f756e7420657863656564732060008201527f616c6c6f77616e63650000000000000000000000000000000000000000000000602082015250565b7f547574656c6c75735374616b696e673a206d696e696e756d20666565206d757360008201527f742062652067726561746572207468616e206d6178696d756d20666565000000602082015250565b7f547574656c6c75735374616b696e673a207769746864726177207472616e736660008201527f6572206661696c65640000000000000000000000000000000000000000000000602082015250565b7f547574656c6c75735374616b696e673a2066656573206d757374206265206c6560008201527f7373207468616e20313030653138000000000000000000000000000000000000602082015250565b7f547574656c6c75735374616b696e673a207374616b696e6720636f6e7472616360008201527f74206861732066696e6973686564000000000000000000000000000000000000602082015250565b7f547574656c6c75735374616b696e673a206465706f736974207472616e73666560008201527f72206661696c6564000000000000000000000000000000000000000000000000602082015250565b7f547574656c6c75735374616b696e673a206e6f7468696e6720746f20636c616960008201527f6d00000000000000000000000000000000000000000000000000000000000000602082015250565b7f206973206d697373696e6720726f6c6520000000000000000000000000000000600082015250565b7f547574656c6c75735374616b696e673a207468657265206973206e6f20676170600082015250565b613b16816134ff565b8114613b2157600080fd5b50565b613b2d81613511565b8114613b3857600080fd5b50565b613b448161351d565b8114613b4f57600080fd5b50565b613b5b81613547565b8114613b6657600080fd5b5056fea264697066735822122001e435cbd05481690daae8fcc82c3daae44e4d4ffefa95f29610243ad8d8d62b64736f6c63430008020033",
  "linkReferences": {},
  "deployedLinkReferences": {}
}