{
  "_format": "hh-sol-artifact-1",
  "contractName": "TutellusStaking",
  "sourceName": "contracts/TutellusStaking.sol",
  "abi": [
    {
      "inputs": [
        {
          "internalType": "address",
          "name": "token_",
          "type": "address"
        },
        {
          "internalType": "address",
          "name": "rolemanager",
          "type": "address"
        },
        {
          "internalType": "address",
          "name": "vault_",
          "type": "address"
        },
        {
          "internalType": "uint256",
          "name": "minFee_",
          "type": "uint256"
        },
        {
          "internalType": "uint256",
          "name": "maxFee_",
          "type": "uint256"
        },
        {
          "internalType": "uint256",
          "name": "feeInterval_",
          "type": "uint256"
        }
      ],
      "stateMutability": "nonpayable",
      "type": "constructor"
    },
    {
      "anonymous": false,
      "inputs": [
        {
          "indexed": false,
          "internalType": "address",
          "name": "account",
          "type": "address"
        }
      ],
      "name": "Claim",
      "type": "event"
    },
    {
      "anonymous": false,
      "inputs": [
        {
          "indexed": false,
          "internalType": "address",
          "name": "account",
          "type": "address"
        },
        {
          "indexed": false,
          "internalType": "uint256",
          "name": "amount",
          "type": "uint256"
        }
      ],
      "name": "Deposit",
      "type": "event"
    },
    {
      "anonymous": false,
      "inputs": [
        {
          "indexed": false,
          "internalType": "address",
          "name": "account",
          "type": "address"
        }
      ],
      "name": "Paused",
      "type": "event"
    },
    {
      "anonymous": false,
      "inputs": [
        {
          "indexed": false,
          "internalType": "address",
          "name": "account",
          "type": "address"
        },
        {
          "indexed": false,
          "internalType": "uint256",
          "name": "amount",
          "type": "uint256"
        }
      ],
      "name": "Rewards",
      "type": "event"
    },
    {
      "anonymous": false,
      "inputs": [
        {
          "indexed": false,
          "internalType": "address",
          "name": "account",
          "type": "address"
        },
        {
          "indexed": false,
          "internalType": "uint256",
          "name": "gap",
          "type": "uint256"
        }
      ],
      "name": "SyncBalance",
      "type": "event"
    },
    {
      "anonymous": false,
      "inputs": [
        {
          "indexed": false,
          "internalType": "bool",
          "name": "autoreward",
          "type": "bool"
        }
      ],
      "name": "ToggleAutoreward",
      "type": "event"
    },
    {
      "anonymous": false,
      "inputs": [
        {
          "indexed": false,
          "internalType": "address",
          "name": "account",
          "type": "address"
        }
      ],
      "name": "Unpaused",
      "type": "event"
    },
    {
      "anonymous": false,
      "inputs": [
        {
          "indexed": false,
          "internalType": "uint256",
          "name": "balance",
          "type": "uint256"
        },
        {
          "indexed": false,
          "internalType": "uint256",
          "name": "accRewardsPerShare",
          "type": "uint256"
        },
        {
          "indexed": false,
          "internalType": "uint256",
          "name": "lastUpdate",
          "type": "uint256"
        },
        {
          "indexed": false,
          "internalType": "uint256",
          "name": "stakers",
          "type": "uint256"
        }
      ],
      "name": "Update",
      "type": "event"
    },
    {
      "anonymous": false,
      "inputs": [
        {
          "indexed": false,
          "internalType": "uint256",
          "name": "endBlock",
          "type": "uint256"
        }
      ],
      "name": "UpdateEndBlock",
      "type": "event"
    },
    {
      "anonymous": false,
      "inputs": [
        {
          "indexed": false,
          "internalType": "uint256",
          "name": "minFee",
          "type": "uint256"
        },
        {
          "indexed": false,
          "internalType": "uint256",
          "name": "maxFee",
          "type": "uint256"
        },
        {
          "indexed": false,
          "internalType": "uint256",
          "name": "feeInterval",
          "type": "uint256"
        }
      ],
      "name": "UpdateFees",
      "type": "event"
    },
    {
      "anonymous": false,
      "inputs": [
        {
          "indexed": false,
          "internalType": "address",
          "name": "account",
          "type": "address"
        },
        {
          "indexed": false,
          "internalType": "uint256",
          "name": "amount",
          "type": "uint256"
        },
        {
          "indexed": false,
          "internalType": "uint256",
          "name": "rewardDebt",
          "type": "uint256"
        },
        {
          "indexed": false,
          "internalType": "uint256",
          "name": "notClaimed",
          "type": "uint256"
        },
        {
          "indexed": false,
          "internalType": "uint256",
          "name": "endInterval",
          "type": "uint256"
        }
      ],
      "name": "UpdateUserInfo",
      "type": "event"
    },
    {
      "anonymous": false,
      "inputs": [
        {
          "indexed": false,
          "internalType": "address",
          "name": "account",
          "type": "address"
        },
        {
          "indexed": false,
          "internalType": "uint256",
          "name": "amount",
          "type": "uint256"
        },
        {
          "indexed": false,
          "internalType": "uint256",
          "name": "burned",
          "type": "uint256"
        }
      ],
      "name": "Withdraw",
      "type": "event"
    },
    {
      "anonymous": false,
      "inputs": [
        {
          "indexed": false,
          "internalType": "address",
          "name": "vault",
          "type": "address"
        }
      ],
      "name": "updatevault",
      "type": "event"
    },
    {
      "inputs": [],
      "name": "DEFAULT_ADMIN_ROLE",
      "outputs": [
        {
          "internalType": "bytes32",
          "name": "",
          "type": "bytes32"
        }
      ],
      "stateMutability": "view",
      "type": "function"
    },
    {
      "inputs": [],
      "name": "PAUSER_ROLE",
      "outputs": [
        {
          "internalType": "bytes32",
          "name": "",
          "type": "bytes32"
        }
      ],
      "stateMutability": "view",
      "type": "function"
    },
    {
      "inputs": [],
      "name": "accRewardsPerShare",
      "outputs": [
        {
          "internalType": "uint256",
          "name": "",
          "type": "uint256"
        }
      ],
      "stateMutability": "view",
      "type": "function"
    },
    {
      "inputs": [],
      "name": "autoreward",
      "outputs": [
        {
          "internalType": "bool",
          "name": "",
          "type": "bool"
        }
      ],
      "stateMutability": "view",
      "type": "function"
    },
    {
      "inputs": [],
      "name": "balance",
      "outputs": [
        {
          "internalType": "uint256",
          "name": "",
          "type": "uint256"
        }
      ],
      "stateMutability": "view",
      "type": "function"
    },
    {
      "inputs": [],
      "name": "claim",
      "outputs": [],
      "stateMutability": "nonpayable",
      "type": "function"
    },
    {
      "inputs": [
        {
          "internalType": "address",
          "name": "account",
          "type": "address"
        },
        {
          "internalType": "uint256",
          "name": "amount",
          "type": "uint256"
        }
      ],
      "name": "depositFrom",
      "outputs": [],
      "stateMutability": "nonpayable",
      "type": "function"
    },
    {
      "inputs": [],
      "name": "endBlock",
      "outputs": [
        {
          "internalType": "uint256",
          "name": "",
          "type": "uint256"
        }
      ],
      "stateMutability": "view",
      "type": "function"
    },
    {
      "inputs": [],
      "name": "feeInterval",
      "outputs": [
        {
          "internalType": "uint256",
          "name": "",
          "type": "uint256"
        }
      ],
      "stateMutability": "view",
      "type": "function"
    },
    {
      "inputs": [
        {
          "internalType": "address",
          "name": "account",
          "type": "address"
        }
      ],
      "name": "getBlocksLeft",
      "outputs": [
        {
          "internalType": "uint256",
          "name": "",
          "type": "uint256"
        }
      ],
      "stateMutability": "view",
      "type": "function"
    },
    {
      "inputs": [
        {
          "internalType": "address",
          "name": "account",
          "type": "address"
        }
      ],
      "name": "getFee",
      "outputs": [
        {
          "internalType": "uint256",
          "name": "",
          "type": "uint256"
        }
      ],
      "stateMutability": "view",
      "type": "function"
    },
    {
      "inputs": [],
      "name": "getTokenGap",
      "outputs": [
        {
          "internalType": "uint256",
          "name": "",
          "type": "uint256"
        }
      ],
      "stateMutability": "view",
      "type": "function"
    },
    {
      "inputs": [
        {
          "internalType": "address",
          "name": "user_",
          "type": "address"
        }
      ],
      "name": "getUserBalance",
      "outputs": [
        {
          "internalType": "uint256",
          "name": "",
          "type": "uint256"
        }
      ],
      "stateMutability": "view",
      "type": "function"
    },
    {
      "inputs": [
        {
          "internalType": "bytes32",
          "name": "role",
          "type": "bytes32"
        },
        {
          "internalType": "address",
          "name": "account",
          "type": "address"
        }
      ],
      "name": "hasRole",
      "outputs": [
        {
          "internalType": "bool",
          "name": "",
          "type": "bool"
        }
      ],
      "stateMutability": "view",
      "type": "function"
    },
    {
      "inputs": [],
      "name": "lastUpdate",
      "outputs": [
        {
          "internalType": "uint256",
          "name": "",
          "type": "uint256"
        }
      ],
      "stateMutability": "view",
      "type": "function"
    },
    {
      "inputs": [],
      "name": "maxFee",
      "outputs": [
        {
          "internalType": "uint256",
          "name": "",
          "type": "uint256"
        }
      ],
      "stateMutability": "view",
      "type": "function"
    },
    {
      "inputs": [
        {
          "internalType": "address",
          "name": "to",
          "type": "address"
        },
        {
          "internalType": "bytes",
          "name": "data",
          "type": "bytes"
        }
      ],
      "name": "migrate",
      "outputs": [
        {
          "internalType": "bytes",
          "name": "",
          "type": "bytes"
        }
      ],
      "stateMutability": "nonpayable",
      "type": "function"
    },
    {
      "inputs": [],
      "name": "minFee",
      "outputs": [
        {
          "internalType": "uint256",
          "name": "",
          "type": "uint256"
        }
      ],
      "stateMutability": "view",
      "type": "function"
    },
    {
      "inputs": [],
      "name": "pause",
      "outputs": [],
      "stateMutability": "nonpayable",
      "type": "function"
    },
    {
      "inputs": [],
      "name": "paused",
      "outputs": [
        {
          "internalType": "bool",
          "name": "",
          "type": "bool"
        }
      ],
      "stateMutability": "view",
      "type": "function"
    },
    {
      "inputs": [
        {
          "internalType": "address",
          "name": "user_",
          "type": "address"
        }
      ],
      "name": "pendingRewards",
      "outputs": [
        {
          "internalType": "uint256",
          "name": "",
          "type": "uint256"
        }
      ],
      "stateMutability": "view",
      "type": "function"
    },
    {
      "inputs": [
        {
          "internalType": "uint256",
          "name": "feeInterval_",
          "type": "uint256"
        }
      ],
      "name": "setFeeInterval",
      "outputs": [],
      "stateMutability": "nonpayable",
      "type": "function"
    },
    {
      "inputs": [
        {
          "internalType": "uint256",
          "name": "minFee_",
          "type": "uint256"
        },
        {
          "internalType": "uint256",
          "name": "maxFee_",
          "type": "uint256"
        }
      ],
      "name": "setFees",
      "outputs": [],
      "stateMutability": "nonpayable",
      "type": "function"
    },
    {
      "inputs": [],
      "name": "stakers",
      "outputs": [
        {
          "internalType": "uint256",
          "name": "",
          "type": "uint256"
        }
      ],
      "stateMutability": "view",
      "type": "function"
    },
    {
      "inputs": [
        {
          "internalType": "address",
          "name": "account",
          "type": "address"
        }
      ],
      "name": "syncBalance",
      "outputs": [],
      "stateMutability": "nonpayable",
      "type": "function"
    },
    {
      "inputs": [],
      "name": "toggleAutoreward",
      "outputs": [],
      "stateMutability": "nonpayable",
      "type": "function"
    },
    {
      "inputs": [],
      "name": "token",
      "outputs": [
        {
          "internalType": "address",
          "name": "",
          "type": "address"
        }
      ],
      "stateMutability": "view",
      "type": "function"
    },
    {
      "inputs": [],
      "name": "unpause",
      "outputs": [],
      "stateMutability": "nonpayable",
      "type": "function"
    },
    {
      "inputs": [
        {
          "internalType": "address",
          "name": "manager",
          "type": "address"
        }
      ],
      "name": "updateManager",
      "outputs": [],
      "stateMutability": "nonpayable",
      "type": "function"
    },
    {
      "inputs": [],
      "name": "vault",
      "outputs": [
        {
          "internalType": "address",
          "name": "",
          "type": "address"
        }
      ],
      "stateMutability": "view",
      "type": "function"
    },
    {
      "inputs": [
        {
          "internalType": "uint256",
          "name": "amount",
          "type": "uint256"
        }
      ],
      "name": "withdraw",
      "outputs": [],
      "stateMutability": "nonpayable",
      "type": "function"
    }
  ],
  "bytecode": "0x60806040523480156200001157600080fd5b506040516200574838038062005748833981810160405281019062000037919062000f91565b6200004d8686868686866200005960201b60201c565b505050505050620016fa565b600060019054906101000a900460ff168062000080575060008054906101000a900460ff16155b620000c2576040517f08c379a0000000000000000000000000000000000000000000000000000000008152600401620000b9906200129d565b60405180910390fd5b60008060019054906101000a900460ff16159050801562000113576001600060016101000a81548160ff02191690831515021790555060016000806101000a81548160ff0219169083151502179055505b62000124866200016460201b60201c565b6200013987868686866200026560201b60201c565b80156200015b5760008060016101000a81548160ff0219169083151502179055505b50505050505050565b600060019054906101000a900460ff16806200018b575060008054906101000a900460ff16155b620001cd576040517f08c379a0000000000000000000000000000000000000000000000000000000008152600401620001c4906200129d565b60405180910390fd5b60008060019054906101000a900460ff1615905080156200021e576001600060016101000a81548160ff02191690831515021790555060016000806101000a81548160ff0219169083151502179055505b6200022e6200041060201b60201c565b6200023f826200050f60201b60201c565b8015620002615760008060016101000a81548160ff0219169083151502179055505b5050565b600060019054906101000a900460ff16806200028c575060008054906101000a900460ff16155b620002ce576040517f08c379a0000000000000000000000000000000000000000000000000000000008152600401620002c5906200129d565b60405180910390fd5b60008060019054906101000a900460ff1615905080156200031f576001600060016101000a81548160ff02191690831515021790555060016000806101000a81548160ff0219169083151502179055505b85606660006101000a81548173ffffffffffffffffffffffffffffffffffffffff021916908373ffffffffffffffffffffffffffffffffffffffff16021790555084606760006101000a81548173ffffffffffffffffffffffffffffffffffffffff021916908373ffffffffffffffffffffffffffffffffffffffff160217905550620003b384846200063060201b60201c565b620003c482620008a360201b60201c565b6001606760146101000a81548160ff02191690831515021790555043606d819055508015620004085760008060016101000a81548160ff0219169083151502179055505b505050505050565b600060019054906101000a900460ff168062000437575060008054906101000a900460ff16155b62000479576040517f08c379a000000000000000000000000000000000000000000000000000000000815260040162000470906200129d565b60405180910390fd5b60008060019054906101000a900460ff161590508015620004ca576001600060016101000a81548160ff02191690831515021790555060016000806101000a81548160ff0219169083151502179055505b620004da62000a6460201b60201c565b620004ea62000b4360201b60201c565b80156200050c5760008060016101000a81548160ff0219169083151502179055505b50565b600060019054906101000a900460ff168062000536575060008054906101000a900460ff16155b62000578576040517f08c379a00000000000000000000000000000000000000000000000000000000081526004016200056f906200129d565b60405180910390fd5b60008060019054906101000a900460ff161590508015620005c9576001600060016101000a81548160ff02191690831515021790555060016000806101000a81548160ff0219169083151502179055505b81606560006101000a81548173ffffffffffffffffffffffffffffffffffffffff021916908373ffffffffffffffffffffffffffffffffffffffff16021790555080156200062c5760008060016101000a81548160ff0219169083151502179055505b5050565b6000801b6000606560009054906101000a900473ffffffffffffffffffffffffffffffffffffffff16905060003390508173ffffffffffffffffffffffffffffffffffffffff166391d1485484836040518363ffffffff1660e01b81526004016200069d9291906200122a565b60206040518083038186803b158015620006b657600080fd5b505afa158015620006cb573d6000803e3d6000fd5b505050506040513d601f19601f82011682018060405250810190620006f1919062001027565b6200071f8273ffffffffffffffffffffffffffffffffffffffff16601462000c3d60201b620025af1760201c565b6200073a8560001c602062000c3d60201b620025af1760201c565b6040516020016200074d929190620011e8565b60405160208183030381529060405290620007a0576040517f08c379a000000000000000000000000000000000000000000000000000000000815260040162000797919062001257565b60405180910390fd5b50838510620007e6576040517f08c379a0000000000000000000000000000000000000000000000000000000008152600401620007dd90620012bf565b60405180910390fd5b68056bc75e2d63100000851115801562000809575068056bc75e2d631000008411155b6200084b576040517f08c379a00000000000000000000000000000000000000000000000000000000081526004016200084290620012e1565b60405180910390fd5b8460698190555083606a819055507f9fef908e44cc0f51b9e9f7fd26bc506a50448657da0dc10a9661e37bc1c4a392606954606a54606e54604051620008949392919062001303565b60405180910390a15050505050565b6000801b6000606560009054906101000a900473ffffffffffffffffffffffffffffffffffffffff16905060003390508173ffffffffffffffffffffffffffffffffffffffff166391d1485484836040518363ffffffff1660e01b8152600401620009109291906200122a565b60206040518083038186803b1580156200092957600080fd5b505afa1580156200093e573d6000803e3d6000fd5b505050506040513d601f19601f8201168201806040525081019062000964919062001027565b620009928273ffffffffffffffffffffffffffffffffffffffff16601462000c3d60201b620025af1760201c565b620009ad8560001c602062000c3d60201b620025af1760201c565b604051602001620009c0929190620011e8565b6040516020818303038152906040529062000a13576040517f08c379a000000000000000000000000000000000000000000000000000000000815260040162000a0a919062001257565b60405180910390fd5b5083606e819055507f9fef908e44cc0f51b9e9f7fd26bc506a50448657da0dc10a9661e37bc1c4a392606954606a54606e5460405162000a569392919062001303565b60405180910390a150505050565b600060019054906101000a900460ff168062000a8b575060008054906101000a900460ff16155b62000acd576040517f08c379a000000000000000000000000000000000000000000000000000000000815260040162000ac4906200129d565b60405180910390fd5b60008060019054906101000a900460ff16159050801562000b1e576001600060016101000a81548160ff02191690831515021790555060016000806101000a81548160ff0219169083151502179055505b801562000b405760008060016101000a81548160ff0219169083151502179055505b50565b600060019054906101000a900460ff168062000b6a575060008054906101000a900460ff16155b62000bac576040517f08c379a000000000000000000000000000000000000000000000000000000000815260040162000ba3906200129d565b60405180910390fd5b60008060019054906101000a900460ff16159050801562000bfd576001600060016101000a81548160ff02191690831515021790555060016000806101000a81548160ff0219169083151502179055505b6000603360006101000a81548160ff021916908315150217905550801562000c3a5760008060016101000a81548160ff0219169083151502179055505b50565b60606000600283600262000c529190620013c4565b62000c5e919062001367565b67ffffffffffffffff81111562000c9e577f4e487b7100000000000000000000000000000000000000000000000000000000600052604160045260246000fd5b6040519080825280601f01601f19166020018201604052801562000cd15781602001600182028036833780820191505090505b5090507f30000000000000000000000000000000000000000000000000000000000000008160008151811062000d30577f4e487b7100000000000000000000000000000000000000000000000000000000600052603260045260246000fd5b60200101907effffffffffffffffffffffffffffffffffffffffffffffffffffffffffffff1916908160001a9053507f78000000000000000000000000000000000000000000000000000000000000008160018151811062000dbb577f4e487b7100000000000000000000000000000000000000000000000000000000600052603260045260246000fd5b60200101907effffffffffffffffffffffffffffffffffffffffffffffffffffffffffffff1916908160001a9053506000600184600262000dfd9190620013c4565b62000e09919062001367565b90505b600181111562000efb577f3031323334353637383961626364656600000000000000000000000000000000600f86166010811062000e73577f4e487b7100000000000000000000000000000000000000000000000000000000600052603260045260246000fd5b1a60f81b82828151811062000eb1577f4e487b7100000000000000000000000000000000000000000000000000000000600052603260045260246000fd5b60200101907effffffffffffffffffffffffffffffffffffffffffffffffffffffffffffff1916908160001a905350600485901c94508062000ef390620014af565b905062000e0c565b506000841462000f42576040517f08c379a000000000000000000000000000000000000000000000000000000000815260040162000f39906200127b565b60405180910390fd5b8091505092915050565b60008151905062000f5d81620016ac565b92915050565b60008151905062000f7481620016c6565b92915050565b60008151905062000f8b81620016e0565b92915050565b60008060008060008060c0878903121562000fab57600080fd5b600062000fbb89828a0162000f4c565b965050602062000fce89828a0162000f4c565b955050604062000fe189828a0162000f4c565b945050606062000ff489828a0162000f7a565b93505060806200100789828a0162000f7a565b92505060a06200101a89828a0162000f7a565b9150509295509295509295565b6000602082840312156200103a57600080fd5b60006200104a8482850162000f63565b91505092915050565b6200105e8162001425565b82525050565b6200106f8162001445565b82525050565b6000620010828262001340565b6200108e81856200134b565b9350620010a081856020860162001479565b620010ab816200150d565b840191505092915050565b6000620010c38262001340565b620010cf81856200135c565b9350620010e181856020860162001479565b80840191505092915050565b6000620010fc6020836200134b565b915062001109826200151e565b602082019050919050565b6000620011236024836200135c565b9150620011308262001547565b602482019050919050565b60006200114a602e836200134b565b9150620011578262001596565b604082019050919050565b600062001171603d836200134b565b91506200117e82620015e5565b604082019050919050565b600062001198602e836200134b565b9150620011a58262001634565b604082019050919050565b6000620011bf6011836200135c565b9150620011cc8262001683565b601182019050919050565b620011e2816200146f565b82525050565b6000620011f58262001114565b9150620012038285620010b6565b91506200121082620011b0565b91506200121e8284620010b6565b91508190509392505050565b600060408201905062001241600083018562001064565b62001250602083018462001053565b9392505050565b6000602082019050818103600083015262001273818462001075565b905092915050565b600060208201905081810360008301526200129681620010ed565b9050919050565b60006020820190508181036000830152620012b8816200113b565b9050919050565b60006020820190508181036000830152620012da8162001162565b9050919050565b60006020820190508181036000830152620012fc8162001189565b9050919050565b60006060820190506200131a6000830186620011d7565b620013296020830185620011d7565b620013386040830184620011d7565b949350505050565b600081519050919050565b600082825260208201905092915050565b600081905092915050565b600062001374826200146f565b915062001381836200146f565b9250827fffffffffffffffffffffffffffffffffffffffffffffffffffffffffffffffff03821115620013b957620013b8620014de565b5b828201905092915050565b6000620013d1826200146f565b9150620013de836200146f565b9250817fffffffffffffffffffffffffffffffffffffffffffffffffffffffffffffffff04831182151516156200141a5762001419620014de565b5b828202905092915050565b600062001432826200144f565b9050919050565b60008115159050919050565b6000819050919050565b600073ffffffffffffffffffffffffffffffffffffffff82169050919050565b6000819050919050565b60005b83811015620014995780820151818401526020810190506200147c565b83811115620014a9576000848401525b50505050565b6000620014bc826200146f565b91506000821415620014d357620014d2620014de565b5b600182039050919050565b7f4e487b7100000000000000000000000000000000000000000000000000000000600052601160045260246000fd5b6000601f19601f8301169050919050565b7f537472696e67733a20686578206c656e67746820696e73756666696369656e74600082015250565b7f416363657373436f6e74726f6c50726f78795061757361626c653a206163636f60008201527f756e742000000000000000000000000000000000000000000000000000000000602082015250565b7f496e697469616c697a61626c653a20636f6e747261637420697320616c72656160008201527f647920696e697469616c697a6564000000000000000000000000000000000000602082015250565b7f547574656c6c75735374616b696e673a206d696e696e756d20666565206d757360008201527f742062652067726561746572207468616e206d6178696d756d20666565000000602082015250565b7f547574656c6c75735374616b696e673a2066656573206d757374206265206c6560008201527f7373207468616e20313030653138000000000000000000000000000000000000602082015250565b7f206973206d697373696e6720726f6c6520000000000000000000000000000000600082015250565b620016b78162001425565b8114620016c357600080fd5b50565b620016d18162001439565b8114620016dd57600080fd5b50565b620016eb816200146f565b8114620016f757600080fd5b50565b61403e806200170a6000396000f3fe608060405234801561001057600080fd5b50600436106101e55760003560e01c80636ca569c11161010f578063b88c9148116100a2578063e63ab1e911610071578063e63ab1e914610524578063fbfa77cf14610542578063fc0c546a14610560578063fed1252a1461057e576101e5565b8063b88c91481461048a578063c0463711146104ba578063c3fbb6fd146104d8578063e0adaca214610508576101e5565b80638d048056116100de5780638d048056146103ee57806391d148541461041e578063a217fddf1461044e578063b69ef8a81461046c576101e5565b80636ca569c1146103a05780637cbaccd5146103aa57806381fb5cfb146103c85780638456cb59146103e4576101e5565b80633f4ba83a1161018757806358aba00f1161015657806358aba00f1461032a5780635a3c978b146103465780635c975abb1461036457806366b0bebc14610382576101e5565b80633f4ba83a146102c857806347734892146102d25780634e71d92d146103025780635129338c1461030c576101e5565b806315cc36f2116101c357806315cc36f21461024257806324ec75901461025e5780632e1a7d4d1461027c57806331d7a26214610298576101e5565b806301f59d16146101ea578063083c6323146102085780630b78f9c014610226575b600080fd5b6101f261059c565b6040516101ff919061374e565b60405180910390f35b6102106105a2565b60405161021d919061374e565b60405180910390f35b610240600480360381019061023b9190612f6f565b6105a8565b005b61025c60048036038101906102579190612e7c565b6107ed565b005b610266610d22565b604051610273919061374e565b60405180910390f35b61029660048036038101906102919190612f1d565b610d28565b005b6102b260048036038101906102ad9190612dff565b611151565b6040516102bf919061374e565b60405180910390f35b6102d061133a565b005b6102ec60048036038101906102e79190612dff565b6114b0565b6040516102f9919061374e565b60405180910390f35b61030a611552565b005b610314611712565b604051610321919061374e565b60405180910390f35b610344600480360381019061033f9190612dff565b6117dc565b005b61034e61196f565b60405161035b91906134cb565b60405180910390f35b61036c611982565b60405161037991906134cb565b60405180910390f35b61038a611999565b604051610397919061374e565b60405180910390f35b6103a861199f565b005b6103b2611b60565b6040516103bf919061374e565b60405180910390f35b6103e260048036038101906103dd9190612f1d565b611b66565b005b6103ec611d00565b005b61040860048036038101906104039190612dff565b611e76565b604051610415919061374e565b60405180910390f35b61043860048036038101906104339190612ee1565b611f21565b60405161044591906134cb565b60405180910390f35b610456611fdd565b60405161046391906134e6565b60405180910390f35b610474611fe4565b604051610481919061374e565b60405180910390f35b6104a4600480360381019061049f9190612dff565b611fea565b6040516104b1919061374e565b60405180910390f35b6104c26120fe565b6040516104cf919061374e565b60405180910390f35b6104f260048036038101906104ed9190612e28565b612104565b6040516104ff919061352a565b60405180910390f35b610522600480360381019061051d9190612dff565b6122a8565b005b61052c612539565b60405161053991906134e6565b60405180910390f35b61054a61255d565b604051610557919061335f565b60405180910390f35b610568612583565b604051610575919061335f565b60405180910390f35b6105866125a9565b604051610593919061374e565b60405180910390f35b606a5481565b606f5481565b6000801b6000606560009054906101000a900473ffffffffffffffffffffffffffffffffffffffff16905060003390508173ffffffffffffffffffffffffffffffffffffffff166391d1485484836040518363ffffffff1660e01b8152600401610613929190613501565b60206040518083038186803b15801561062b57600080fd5b505afa15801561063f573d6000803e3d6000fd5b505050506040513d601f19601f820116820180604052508101906106639190612eb8565b6106848273ffffffffffffffffffffffffffffffffffffffff1660146125af565b6106928560001c60206125af565b6040516020016106a3929190613325565b604051602081830303815290604052906106f3576040517f08c379a00000000000000000000000000000000000000000000000000000000081526004016106ea919061354c565b60405180910390fd5b50838510610736576040517f08c379a000000000000000000000000000000000000000000000000000000000815260040161072d9061366e565b60405180910390fd5b68056bc75e2d631000008511158015610758575068056bc75e2d631000008411155b610797576040517f08c379a000000000000000000000000000000000000000000000000000000000815260040161078e906136ae565b60405180910390fd5b8460698190555083606a819055507f9fef908e44cc0f51b9e9f7fd26bc506a50448657da0dc10a9661e37bc1c4a392606954606a54606e546040516107de93929190613769565b60405180910390a15050505050565b6107f5611982565b15610835576040517f08c379a000000000000000000000000000000000000000000000000000000000815260040161082c906135ce565b60405180910390fd5b606f544310610879576040517f08c379a0000000000000000000000000000000000000000000000000000000008152600401610870906136ce565b60405180910390fd5b600081116108bc576040517f08c379a00000000000000000000000000000000000000000000000000000000081526004016108b3906135ee565b60405180910390fd5b6000607160008473ffffffffffffffffffffffffffffffffffffffff1673ffffffffffffffffffffffffffffffffffffffff16815260200190815260200160002090506109076128a9565b610910836129e2565b600081600001541415610938576001607060008282546109309190613889565b925050819055505b606e54436109469190613889565b81600301819055506069548160040181905550606a548160050181905550606e548160060181905550818160000160008282546109839190613889565b92505081905550816068600082825461099c9190613889565b925050819055506000606660009054906101000a900473ffffffffffffffffffffffffffffffffffffffff169050828173ffffffffffffffffffffffffffffffffffffffff166370a08231866040518263ffffffff1660e01b8152600401610a04919061335f565b60206040518083038186803b158015610a1c57600080fd5b505afa158015610a30573d6000803e3d6000fd5b505050506040513d601f19601f82011682018060405250810190610a549190612f46565b1015610a95576040517f08c379a0000000000000000000000000000000000000000000000000000000008152600401610a8c9061360e565b60405180910390fd5b828173ffffffffffffffffffffffffffffffffffffffff1663dd62ed3e86306040518363ffffffff1660e01b8152600401610ad192919061337a565b60206040518083038186803b158015610ae957600080fd5b505afa158015610afd573d6000803e3d6000fd5b505050506040513d601f19601f82011682018060405250810190610b219190612f46565b1015610b62576040517f08c379a0000000000000000000000000000000000000000000000000000000008152600401610b599061364e565b60405180910390fd5b606760149054906101000a900460ff1615610b8157610b8084612a76565b5b8073ffffffffffffffffffffffffffffffffffffffff166323b872dd8530866040518463ffffffff1660e01b8152600401610bbe939291906133a3565b602060405180830381600087803b158015610bd857600080fd5b505af1158015610bec573d6000803e3d6000fd5b505050506040513d601f19601f82011682018060405250810190610c109190612eb8565b610c4f576040517f08c379a0000000000000000000000000000000000000000000000000000000008152600401610c46906136ee565b60405180910390fd5b7fce49b138f2621300a7043a61f472ccfd643162bdf3efb11354e22d5273b77a71606854606b54606d54607054604051610c8c94939291906137a0565b60405180910390a17fda0c5744e922c38dc93f40ffd95d1e27696bee87f5cbd024bd5df1d168caa5a8848360000154846001015485600201548660030154604051610cdb959493929190613478565b60405180910390a17fe1fffcc4923d04b559f4d29a8bfc6cda04eb5b0d3c460751c2402c5c5cc9109c8484604051610d149291906133da565b60405180910390a150505050565b60695481565b610d30611982565b15610d70576040517f08c379a0000000000000000000000000000000000000000000000000000000008152600401610d67906135ce565b60405180910390fd5b60008111610db3576040517f08c379a0000000000000000000000000000000000000000000000000000000008152600401610daa906135ee565b60405180910390fd5b60003390506000607160008373ffffffffffffffffffffffffffffffffffffffff1673ffffffffffffffffffffffffffffffffffffffff16815260200190815260200160002090508060000154831115610e42576040517f08c379a0000000000000000000000000000000000000000000000000000000008152600401610e399061362e565b60405180910390fd5b610e4a6128a9565b610e53826129e2565b606b54816001018190555082816000016000828254610e72919061396a565b925050819055508260686000828254610e8b919061396a565b92505081905550600081600001541415610eba57600160706000828254610eb2919061396a565b925050819055505b6000606660009054906101000a900473ffffffffffffffffffffffffffffffffffffffff169050600068056bc75e2d63100000610ef685611fea565b86610f019190613910565b610f0b91906138df565b90508085610f19919061396a565b9450606760149054906101000a900460ff1615610f3a57610f3984612a76565b5b6000811115610faf578173ffffffffffffffffffffffffffffffffffffffff166342966c68826040518263ffffffff1660e01b8152600401610f7c919061374e565b600060405180830381600087803b158015610f9657600080fd5b505af1158015610faa573d6000803e3d6000fd5b505050505b8173ffffffffffffffffffffffffffffffffffffffff1663a9059cbb85876040518363ffffffff1660e01b8152600401610fea9291906133da565b602060405180830381600087803b15801561100457600080fd5b505af1158015611018573d6000803e3d6000fd5b505050506040513d601f19601f8201168201806040525081019061103c9190612eb8565b61107b576040517f08c379a00000000000000000000000000000000000000000000000000000000081526004016110729061368e565b60405180910390fd5b7fce49b138f2621300a7043a61f472ccfd643162bdf3efb11354e22d5273b77a71606854606b54606d546070546040516110b894939291906137a0565b60405180910390a17fda0c5744e922c38dc93f40ffd95d1e27696bee87f5cbd024bd5df1d168caa5a8848460000154856001015486600201548760030154604051611107959493929190613478565b60405180910390a17ff279e6a1f5e320cca91135676d9cb6e44ca8a08c0b88342bcdb1144f6511b56884868360405161114293929190613441565b60405180910390a15050505050565b600080607160008473ffffffffffffffffffffffffffffffffffffffff1673ffffffffffffffffffffffffffffffffffffffff1681526020019081526020016000206040518060e0016040529081600082015481526020016001820154815260200160028201548152602001600382015481526020016004820154815260200160058201548152602001600682015481525050905060008160400151905060006068541115611330576000606760009054906101000a900473ffffffffffffffffffffffffffffffffffffffff1690506000606c548273ffffffffffffffffffffffffffffffffffffffff1663ae7928bf306040518263ffffffff1660e01b815260040161125f919061335f565b60206040518083038186803b15801561127757600080fd5b505afa15801561128b573d6000803e3d6000fd5b505050506040513d601f19601f820116820180604052508101906112af9190612f46565b6112b9919061396a565b90506000606854670de0b6b3a7640000836112d49190613910565b6112de91906138df565b9050670de0b6b3a76400008560000151828760200151606b54611301919061396a565b61130b9190613889565b6113159190613910565b61131f91906138df565b8461132a9190613889565b93505050505b8092505050919050565b7f65d7a28e3265b37a6474929f336521b332c1681b933f6cb9f3376673440d862a6000606560009054906101000a900473ffffffffffffffffffffffffffffffffffffffff16905060003390508173ffffffffffffffffffffffffffffffffffffffff166391d1485484836040518363ffffffff1660e01b81526004016113c2929190613501565b60206040518083038186803b1580156113da57600080fd5b505afa1580156113ee573d6000803e3d6000fd5b505050506040513d601f19601f820116820180604052508101906114129190612eb8565b6114338273ffffffffffffffffffffffffffffffffffffffff1660146125af565b6114418560001c60206125af565b604051602001611452929190613325565b604051602081830303815290604052906114a2576040517f08c379a0000000000000000000000000000000000000000000000000000000008152600401611499919061354c565b60405180910390fd5b506114ab612be1565b505050565b600080607160008473ffffffffffffffffffffffffffffffffffffffff1673ffffffffffffffffffffffffffffffffffffffff1681526020019081526020016000206040518060e001604052908160008201548152602001600182015481526020016002820154815260200160038201548152602001600482015481526020016005820154815260200160068201548152505090508060000151915050919050565b61155a611982565b1561159a576040517f08c379a0000000000000000000000000000000000000000000000000000000008152600401611591906135ce565b60405180910390fd5b60003390506000607160008373ffffffffffffffffffffffffffffffffffffffff1673ffffffffffffffffffffffffffffffffffffffff16815260200190815260200160002090506115ea6128a9565b6115f3826129e2565b600081600201541161163a576040517f08c379a00000000000000000000000000000000000000000000000000000000081526004016116319061370e565b60405180910390fd5b61164382612a76565b7fce49b138f2621300a7043a61f472ccfd643162bdf3efb11354e22d5273b77a71606854606b54606d5460705460405161168094939291906137a0565b60405180910390a17fda0c5744e922c38dc93f40ffd95d1e27696bee87f5cbd024bd5df1d168caa5a88282600001548360010154846002015485600301546040516116cf959493929190613478565b60405180910390a17f0c7ef932d3b91976772937f18d5ef9b39a9930bef486b576c374f047c4b512dc82604051611706919061335f565b60405180910390a15050565b600080606660009054906101000a900473ffffffffffffffffffffffffffffffffffffffff16905060008173ffffffffffffffffffffffffffffffffffffffff166370a08231306040518263ffffffff1660e01b8152600401611775919061335f565b60206040518083038186803b15801561178d57600080fd5b505afa1580156117a1573d6000803e3d6000fd5b505050506040513d601f19601f820116820180604052508101906117c59190612f46565b9050606854816117d5919061396a565b9250505090565b6000801b6000606560009054906101000a900473ffffffffffffffffffffffffffffffffffffffff16905060003390508173ffffffffffffffffffffffffffffffffffffffff166391d1485484836040518363ffffffff1660e01b8152600401611847929190613501565b60206040518083038186803b15801561185f57600080fd5b505afa158015611873573d6000803e3d6000fd5b505050506040513d601f19601f820116820180604052508101906118979190612eb8565b6118b88273ffffffffffffffffffffffffffffffffffffffff1660146125af565b6118c68560001c60206125af565b6040516020016118d7929190613325565b60405160208183030381529060405290611927576040517f08c379a000000000000000000000000000000000000000000000000000000000815260040161191e919061354c565b60405180910390fd5b5083606560006101000a81548173ffffffffffffffffffffffffffffffffffffffff021916908373ffffffffffffffffffffffffffffffffffffffff16021790555050505050565b606760149054906101000a900460ff1681565b6000603360009054906101000a900460ff16905090565b606e5481565b6000801b6000606560009054906101000a900473ffffffffffffffffffffffffffffffffffffffff16905060003390508173ffffffffffffffffffffffffffffffffffffffff166391d1485484836040518363ffffffff1660e01b8152600401611a0a929190613501565b60206040518083038186803b158015611a2257600080fd5b505afa158015611a36573d6000803e3d6000fd5b505050506040513d601f19601f82011682018060405250810190611a5a9190612eb8565b611a7b8273ffffffffffffffffffffffffffffffffffffffff1660146125af565b611a898560001c60206125af565b604051602001611a9a929190613325565b60405160208183030381529060405290611aea576040517f08c379a0000000000000000000000000000000000000000000000000000000008152600401611ae1919061354c565b60405180910390fd5b50606760149054906101000a900460ff1615606760146101000a81548160ff0219169083151502179055507fbab7db190deaf2eccaf17b4e82ea10dce1e26f8a605ec9681ca8183b2de399fe606760149054906101000a900460ff16604051611b5391906134cb565b60405180910390a1505050565b606b5481565b6000801b6000606560009054906101000a900473ffffffffffffffffffffffffffffffffffffffff16905060003390508173ffffffffffffffffffffffffffffffffffffffff166391d1485484836040518363ffffffff1660e01b8152600401611bd1929190613501565b60206040518083038186803b158015611be957600080fd5b505afa158015611bfd573d6000803e3d6000fd5b505050506040513d601f19601f82011682018060405250810190611c219190612eb8565b611c428273ffffffffffffffffffffffffffffffffffffffff1660146125af565b611c508560001c60206125af565b604051602001611c61929190613325565b60405160208183030381529060405290611cb1576040517f08c379a0000000000000000000000000000000000000000000000000000000008152600401611ca8919061354c565b60405180910390fd5b5083606e819055507f9fef908e44cc0f51b9e9f7fd26bc506a50448657da0dc10a9661e37bc1c4a392606954606a54606e54604051611cf293929190613769565b60405180910390a150505050565b7f65d7a28e3265b37a6474929f336521b332c1681b933f6cb9f3376673440d862a6000606560009054906101000a900473ffffffffffffffffffffffffffffffffffffffff16905060003390508173ffffffffffffffffffffffffffffffffffffffff166391d1485484836040518363ffffffff1660e01b8152600401611d88929190613501565b60206040518083038186803b158015611da057600080fd5b505afa158015611db4573d6000803e3d6000fd5b505050506040513d601f19601f82011682018060405250810190611dd89190612eb8565b611df98273ffffffffffffffffffffffffffffffffffffffff1660146125af565b611e078560001c60206125af565b604051602001611e18929190613325565b60405160208183030381529060405290611e68576040517f08c379a0000000000000000000000000000000000000000000000000000000008152600401611e5f919061354c565b60405180910390fd5b50611e71612c83565b505050565b6000607160008373ffffffffffffffffffffffffffffffffffffffff1673ffffffffffffffffffffffffffffffffffffffff16815260200190815260200160002060030154431115611ecb5760009050611f1c565b43607160008473ffffffffffffffffffffffffffffffffffffffff1673ffffffffffffffffffffffffffffffffffffffff16815260200190815260200160002060030154611f19919061396a565b90505b919050565b600080606560009054906101000a900473ffffffffffffffffffffffffffffffffffffffff1690508073ffffffffffffffffffffffffffffffffffffffff166391d1485485856040518363ffffffff1660e01b8152600401611f84929190613501565b60206040518083038186803b158015611f9c57600080fd5b505afa158015611fb0573d6000803e3d6000fd5b505050506040513d601f19601f82011682018060405250810190611fd49190612eb8565b91505092915050565b6000801b81565b60685481565b600080607160008473ffffffffffffffffffffffffffffffffffffffff1673ffffffffffffffffffffffffffffffffffffffff1681526020019081526020016000206040518060e001604052908160008201548152602001600182015481526020016002820154815260200160038201548152602001600482015481526020016005820154815260200160068201548152505090506000816060015143106120965781608001516120dc565b60008260c00151116120ac5781608001516120db565b8160c001514383606001516120c1919061396a565b8360a001516120d09190613910565b6120da91906138df565b5b5b9050816080015181116120f35781608001516120f5565b805b92505050919050565b606d5481565b606060003390506000607160008373ffffffffffffffffffffffffffffffffffffffff1673ffffffffffffffffffffffffffffffffffffffff16815260200190815260200160002060000154905061215b81610d28565b6000808673ffffffffffffffffffffffffffffffffffffffff1684848860405160240161218a93929190613403565b6040516020818303038152906040527f5f781329000000000000000000000000000000000000000000000000000000007bffffffffffffffffffffffffffffffffffffffffffffffffffffffff19166020820180517bffffffffffffffffffffffffffffffffffffffffffffffffffffffff8381831617835250505050604051612214919061330e565b6000604051808303816000865af19150503d8060008114612251576040519150601f19603f3d011682016040523d82523d6000602084013e612256565b606091505b50915091508161229b576040517f08c379a0000000000000000000000000000000000000000000000000000000008152600401612292906135ae565b60405180910390fd5b8094505050505092915050565b6000801b6000606560009054906101000a900473ffffffffffffffffffffffffffffffffffffffff16905060003390508173ffffffffffffffffffffffffffffffffffffffff166391d1485484836040518363ffffffff1660e01b8152600401612313929190613501565b60206040518083038186803b15801561232b57600080fd5b505afa15801561233f573d6000803e3d6000fd5b505050506040513d601f19601f820116820180604052508101906123639190612eb8565b6123848273ffffffffffffffffffffffffffffffffffffffff1660146125af565b6123928560001c60206125af565b6040516020016123a3929190613325565b604051602081830303815290604052906123f3576040517f08c379a00000000000000000000000000000000000000000000000000000000081526004016123ea919061354c565b60405180910390fd5b506000606660009054906101000a900473ffffffffffffffffffffffffffffffffffffffff1690506000612425611712565b90506000811161246a576040517f08c379a00000000000000000000000000000000000000000000000000000000081526004016124619061372e565b60405180910390fd5b8173ffffffffffffffffffffffffffffffffffffffff1663a9059cbb87836040518363ffffffff1660e01b81526004016124a59291906133da565b602060405180830381600087803b1580156124bf57600080fd5b505af11580156124d3573d6000803e3d6000fd5b505050506040513d601f19601f820116820180604052508101906124f79190612eb8565b507fd43c97094d4b3522923f3751f896fb88ef95d5e1d310aea58b936625fd7c5d0c86826040516125299291906133da565b60405180910390a1505050505050565b7f65d7a28e3265b37a6474929f336521b332c1681b933f6cb9f3376673440d862a81565b606760009054906101000a900473ffffffffffffffffffffffffffffffffffffffff1681565b606660009054906101000a900473ffffffffffffffffffffffffffffffffffffffff1681565b60705481565b6060600060028360026125c29190613910565b6125cc9190613889565b67ffffffffffffffff81111561260b577f4e487b7100000000000000000000000000000000000000000000000000000000600052604160045260246000fd5b6040519080825280601f01601f19166020018201604052801561263d5781602001600182028036833780820191505090505b5090507f30000000000000000000000000000000000000000000000000000000000000008160008151811061269b577f4e487b7100000000000000000000000000000000000000000000000000000000600052603260045260246000fd5b60200101907effffffffffffffffffffffffffffffffffffffffffffffffffffffffffffff1916908160001a9053507f780000000000000000000000000000000000000000000000000000000000000081600181518110612725577f4e487b7100000000000000000000000000000000000000000000000000000000600052603260045260246000fd5b60200101907effffffffffffffffffffffffffffffffffffffffffffffffffffffffffffff1916908160001a905350600060018460026127659190613910565b61276f9190613889565b90505b600181111561285b577f3031323334353637383961626364656600000000000000000000000000000000600f8616601081106127d7577f4e487b7100000000000000000000000000000000000000000000000000000000600052603260045260246000fd5b1a60f81b828281518110612814577f4e487b7100000000000000000000000000000000000000000000000000000000600052603260045260246000fd5b60200101907effffffffffffffffffffffffffffffffffffffffffffffffffffffffffffff1916908160001a905350600485901c94508061285490613a32565b9050612772565b506000841461289f576040517f08c379a00000000000000000000000000000000000000000000000000000000081526004016128969061356e565b60405180910390fd5b8091505092915050565b606d5443116128b7576129e0565b600060685411156129d8576000606760009054906101000a900473ffffffffffffffffffffffffffffffffffffffff1690506000606c548273ffffffffffffffffffffffffffffffffffffffff1663ae7928bf306040518263ffffffff1660e01b8152600401612927919061335f565b60206040518083038186803b15801561293f57600080fd5b505afa158015612953573d6000803e3d6000fd5b505050506040513d601f19601f820116820180604052508101906129779190612f46565b612981919061396a565b905080606c60008282546129959190613889565b92505081905550606854670de0b6b3a7640000826129b39190613910565b6129bd91906138df565b606b60008282546129ce9190613889565b9250508190555050505b43606d819055505b565b6000607160008373ffffffffffffffffffffffffffffffffffffffff1673ffffffffffffffffffffffffffffffffffffffff168152602001908152602001600020905060008160010154606b54612a39919061396a565b9050670de0b6b3a7640000826000015482612a549190613910565b612a5e91906138df565b8260020181905550606b548260010181905550505050565b6000606760009054906101000a900473ffffffffffffffffffffffffffffffffffffffff1690506000607160008473ffffffffffffffffffffffffffffffffffffffff1673ffffffffffffffffffffffffffffffffffffffff1681526020019081526020016000206002015490506000811115612bdc576000607160008573ffffffffffffffffffffffffffffffffffffffff1673ffffffffffffffffffffffffffffffffffffffff168152602001908152602001600020600201819055508173ffffffffffffffffffffffffffffffffffffffff1663158a498884836040518363ffffffff1660e01b8152600401612b709291906133da565b600060405180830381600087803b158015612b8a57600080fd5b505af1158015612b9e573d6000803e3d6000fd5b505050507fc083a1647e3ee591bf42b82564ffb4d16fdbb26068f0080da911c8d8300fd84a8382604051612bd39291906133da565b60405180910390a15b505050565b612be9611982565b612c28576040517f08c379a0000000000000000000000000000000000000000000000000000000008152600401612c1f9061358e565b60405180910390fd5b6000603360006101000a81548160ff0219169083151502179055507f5db9ee0a495bf2e6ff9c91a7834c1ba4fdd244a5e8aa4e537bd38aeae4b073aa612c6c612d26565b604051612c79919061335f565b60405180910390a1565b612c8b611982565b15612ccb576040517f08c379a0000000000000000000000000000000000000000000000000000000008152600401612cc2906135ce565b60405180910390fd5b6001603360006101000a81548160ff0219169083151502179055507f62e78cea01bee320cd4e420270b5ea74000d11b0c9f74754ebdbfc544b05a258612d0f612d26565b604051612d1c919061335f565b60405180910390a1565b600033905090565b6000612d41612d3c8461380a565b6137e5565b905082815260208101848484011115612d5957600080fd5b612d648482856139f0565b509392505050565b600081359050612d7b81613fac565b92915050565b600081519050612d9081613fc3565b92915050565b600081359050612da581613fda565b92915050565b600082601f830112612dbc57600080fd5b8135612dcc848260208601612d2e565b91505092915050565b600081359050612de481613ff1565b92915050565b600081519050612df981613ff1565b92915050565b600060208284031215612e1157600080fd5b6000612e1f84828501612d6c565b91505092915050565b60008060408385031215612e3b57600080fd5b6000612e4985828601612d6c565b925050602083013567ffffffffffffffff811115612e6657600080fd5b612e7285828601612dab565b9150509250929050565b60008060408385031215612e8f57600080fd5b6000612e9d85828601612d6c565b9250506020612eae85828601612dd5565b9150509250929050565b600060208284031215612eca57600080fd5b6000612ed884828501612d81565b91505092915050565b60008060408385031215612ef457600080fd5b6000612f0285828601612d96565b9250506020612f1385828601612d6c565b9150509250929050565b600060208284031215612f2f57600080fd5b6000612f3d84828501612dd5565b91505092915050565b600060208284031215612f5857600080fd5b6000612f6684828501612dea565b91505092915050565b60008060408385031215612f8257600080fd5b6000612f9085828601612dd5565b9250506020612fa185828601612dd5565b9150509250929050565b612fb48161399e565b82525050565b612fc3816139b0565b82525050565b612fd2816139bc565b82525050565b6000612fe38261383b565b612fed8185613851565b9350612ffd8185602086016139ff565b61300681613b1a565b840191505092915050565b600061301c8261383b565b6130268185613862565b93506130368185602086016139ff565b80840191505092915050565b600061304d82613846565b613057818561386d565b93506130678185602086016139ff565b61307081613b1a565b840191505092915050565b600061308682613846565b613090818561387e565b93506130a08185602086016139ff565b80840191505092915050565b60006130b960208361386d565b91506130c482613b2b565b602082019050919050565b60006130dc60248361387e565b91506130e782613b54565b602482019050919050565b60006130ff60148361386d565b915061310a82613ba3565b602082019050919050565b600061312260258361386d565b915061312d82613bcc565b604082019050919050565b600061314560108361386d565b915061315082613c1b565b602082019050919050565b600061316860298361386d565b915061317382613c44565b604082019050919050565b600061318b602c8361386d565b915061319682613c93565b604082019050919050565b60006131ae60348361386d565b91506131b982613ce2565b604082019050919050565b60006131d160298361386d565b91506131dc82613d31565b604082019050919050565b60006131f4603d8361386d565b91506131ff82613d80565b604082019050919050565b600061321760298361386d565b915061322282613dcf565b604082019050919050565b600061323a602e8361386d565b915061324582613e1e565b604082019050919050565b600061325d602e8361386d565b915061326882613e6d565b604082019050919050565b600061328060288361386d565b915061328b82613ebc565b604082019050919050565b60006132a360218361386d565b91506132ae82613f0b565b604082019050919050565b60006132c660118361387e565b91506132d182613f5a565b601182019050919050565b60006132e960208361386d565b91506132f482613f83565b602082019050919050565b613308816139e6565b82525050565b600061331a8284613011565b915081905092915050565b6000613330826130cf565b915061333c828561307b565b9150613347826132b9565b9150613353828461307b565b91508190509392505050565b60006020820190506133746000830184612fab565b92915050565b600060408201905061338f6000830185612fab565b61339c6020830184612fab565b9392505050565b60006060820190506133b86000830186612fab565b6133c56020830185612fab565b6133d260408301846132ff565b949350505050565b60006040820190506133ef6000830185612fab565b6133fc60208301846132ff565b9392505050565b60006060820190506134186000830186612fab565b61342560208301856132ff565b81810360408301526134378184612fd8565b9050949350505050565b60006060820190506134566000830186612fab565b61346360208301856132ff565b61347060408301846132ff565b949350505050565b600060a08201905061348d6000830188612fab565b61349a60208301876132ff565b6134a760408301866132ff565b6134b460608301856132ff565b6134c160808301846132ff565b9695505050505050565b60006020820190506134e06000830184612fba565b92915050565b60006020820190506134fb6000830184612fc9565b92915050565b60006040820190506135166000830185612fc9565b6135236020830184612fab565b9392505050565b600060208201905081810360008301526135448184612fd8565b905092915050565b600060208201905081810360008301526135668184613042565b905092915050565b60006020820190508181036000830152613587816130ac565b9050919050565b600060208201905081810360008301526135a7816130f2565b9050919050565b600060208201905081810360008301526135c781613115565b9050919050565b600060208201905081810360008301526135e781613138565b9050919050565b600060208201905081810360008301526136078161315b565b9050919050565b600060208201905081810360008301526136278161317e565b9050919050565b60006020820190508181036000830152613647816131a1565b9050919050565b60006020820190508181036000830152613667816131c4565b9050919050565b60006020820190508181036000830152613687816131e7565b9050919050565b600060208201905081810360008301526136a78161320a565b9050919050565b600060208201905081810360008301526136c78161322d565b9050919050565b600060208201905081810360008301526136e781613250565b9050919050565b6000602082019050818103600083015261370781613273565b9050919050565b6000602082019050818103600083015261372781613296565b9050919050565b60006020820190508181036000830152613747816132dc565b9050919050565b600060208201905061376360008301846132ff565b92915050565b600060608201905061377e60008301866132ff565b61378b60208301856132ff565b61379860408301846132ff565b949350505050565b60006080820190506137b560008301876132ff565b6137c260208301866132ff565b6137cf60408301856132ff565b6137dc60608301846132ff565b95945050505050565b60006137ef613800565b90506137fb8282613a5c565b919050565b6000604051905090565b600067ffffffffffffffff82111561382557613824613aeb565b5b61382e82613b1a565b9050602081019050919050565b600081519050919050565b600081519050919050565b600082825260208201905092915050565b600081905092915050565b600082825260208201905092915050565b600081905092915050565b6000613894826139e6565b915061389f836139e6565b9250827fffffffffffffffffffffffffffffffffffffffffffffffffffffffffffffffff038211156138d4576138d3613a8d565b5b828201905092915050565b60006138ea826139e6565b91506138f5836139e6565b92508261390557613904613abc565b5b828204905092915050565b600061391b826139e6565b9150613926836139e6565b9250817fffffffffffffffffffffffffffffffffffffffffffffffffffffffffffffffff048311821515161561395f5761395e613a8d565b5b828202905092915050565b6000613975826139e6565b9150613980836139e6565b92508282101561399357613992613a8d565b5b828203905092915050565b60006139a9826139c6565b9050919050565b60008115159050919050565b6000819050919050565b600073ffffffffffffffffffffffffffffffffffffffff82169050919050565b6000819050919050565b82818337600083830152505050565b60005b83811015613a1d578082015181840152602081019050613a02565b83811115613a2c576000848401525b50505050565b6000613a3d826139e6565b91506000821415613a5157613a50613a8d565b5b600182039050919050565b613a6582613b1a565b810181811067ffffffffffffffff82111715613a8457613a83613aeb565b5b80604052505050565b7f4e487b7100000000000000000000000000000000000000000000000000000000600052601160045260246000fd5b7f4e487b7100000000000000000000000000000000000000000000000000000000600052601260045260246000fd5b7f4e487b7100000000000000000000000000000000000000000000000000000000600052604160045260246000fd5b6000601f19601f8301169050919050565b7f537472696e67733a20686578206c656e67746820696e73756666696369656e74600082015250565b7f416363657373436f6e74726f6c50726f78795061757361626c653a206163636f60008201527f756e742000000000000000000000000000000000000000000000000000000000602082015250565b7f5061757361626c653a206e6f7420706175736564000000000000000000000000600082015250565b7f547574656c6c75735374616b696e673a206d6967726174696f6e20686173206660008201527f61696c6564000000000000000000000000000000000000000000000000000000602082015250565b7f5061757361626c653a2070617573656400000000000000000000000000000000600082015250565b7f547574656c6c75735374616b696e673a20616d6f756e74206d7573742062652060008201527f6f766572207a65726f0000000000000000000000000000000000000000000000602082015250565b7f547574656c6c75735374616b696e673a207573657220686173206e6f7420656e60008201527f6f7567682062616c616e63650000000000000000000000000000000000000000602082015250565b7f547574656c6c75735374616b696e673a207573657220686173206e6f7420656e60008201527f6f756768207374616b696e672062616c616e6365000000000000000000000000602082015250565b7f547574656c6c75735374616b696e673a20616d6f756e7420657863656564732060008201527f616c6c6f77616e63650000000000000000000000000000000000000000000000602082015250565b7f547574656c6c75735374616b696e673a206d696e696e756d20666565206d757360008201527f742062652067726561746572207468616e206d6178696d756d20666565000000602082015250565b7f547574656c6c75735374616b696e673a207769746864726177207472616e736660008201527f6572206661696c65640000000000000000000000000000000000000000000000602082015250565b7f547574656c6c75735374616b696e673a2066656573206d757374206265206c6560008201527f7373207468616e20313030653138000000000000000000000000000000000000602082015250565b7f547574656c6c75735374616b696e673a207374616b696e6720636f6e7472616360008201527f74206861732066696e6973686564000000000000000000000000000000000000602082015250565b7f547574656c6c75735374616b696e673a206465706f736974207472616e73666560008201527f72206661696c6564000000000000000000000000000000000000000000000000602082015250565b7f547574656c6c75735374616b696e673a206e6f7468696e6720746f20636c616960008201527f6d00000000000000000000000000000000000000000000000000000000000000602082015250565b7f206973206d697373696e6720726f6c6520000000000000000000000000000000600082015250565b7f547574656c6c75735374616b696e673a207468657265206973206e6f20676170600082015250565b613fb58161399e565b8114613fc057600080fd5b50565b613fcc816139b0565b8114613fd757600080fd5b50565b613fe3816139bc565b8114613fee57600080fd5b50565b613ffa816139e6565b811461400557600080fd5b5056fea264697066735822122075324ccc1097785e6b79eb0e5fdd8f574646f689397e24555283af437d915f3b64736f6c63430008020033",
  "linkReferences": {},
  "deployedLinkReferences": {}
}