{
  "_format": "hh-sol-artifact-1",
  "contractName": "TutellusStaking",
  "sourceName": "contracts/TutellusStaking.sol",
  "abi": [
    {
      "inputs": [
        {
          "internalType": "address",
          "name": "token_",
          "type": "address"
        },
        {
          "internalType": "address",
          "name": "rolemanager",
          "type": "address"
        },
        {
          "internalType": "address",
          "name": "vault_",
          "type": "address"
        },
        {
          "internalType": "uint256",
          "name": "minFee_",
          "type": "uint256"
        },
        {
          "internalType": "uint256",
          "name": "maxFee_",
          "type": "uint256"
        },
        {
          "internalType": "uint256",
          "name": "feeInterval_",
          "type": "uint256"
        }
      ],
      "stateMutability": "nonpayable",
      "type": "constructor"
    },
    {
      "anonymous": false,
      "inputs": [
        {
          "indexed": false,
          "internalType": "address",
          "name": "account",
          "type": "address"
        }
      ],
      "name": "Claim",
      "type": "event"
    },
    {
      "anonymous": false,
      "inputs": [
        {
          "indexed": false,
          "internalType": "address",
          "name": "account",
          "type": "address"
        },
        {
          "indexed": false,
          "internalType": "uint256",
          "name": "amount",
          "type": "uint256"
        }
      ],
      "name": "Deposit",
      "type": "event"
    },
    {
      "anonymous": false,
      "inputs": [
        {
          "indexed": false,
          "internalType": "address",
          "name": "account",
          "type": "address"
        }
      ],
      "name": "Paused",
      "type": "event"
    },
    {
      "anonymous": false,
      "inputs": [
        {
          "indexed": false,
          "internalType": "address",
          "name": "account",
          "type": "address"
        },
        {
          "indexed": false,
          "internalType": "uint256",
          "name": "amount",
          "type": "uint256"
        }
      ],
      "name": "Rewards",
      "type": "event"
    },
    {
      "anonymous": false,
      "inputs": [
        {
          "indexed": false,
          "internalType": "address",
          "name": "account",
          "type": "address"
        },
        {
          "indexed": false,
          "internalType": "uint256",
          "name": "gap",
          "type": "uint256"
        }
      ],
      "name": "SyncBalance",
      "type": "event"
    },
    {
      "anonymous": false,
      "inputs": [
        {
          "indexed": false,
          "internalType": "bool",
          "name": "autoreward",
          "type": "bool"
        }
      ],
      "name": "ToggleAutoreward",
      "type": "event"
    },
    {
      "anonymous": false,
      "inputs": [
        {
          "indexed": false,
          "internalType": "address",
          "name": "account",
          "type": "address"
        }
      ],
      "name": "Unpaused",
      "type": "event"
    },
    {
      "anonymous": false,
      "inputs": [
        {
          "indexed": false,
          "internalType": "uint256",
          "name": "balance",
          "type": "uint256"
        },
        {
          "indexed": false,
          "internalType": "uint256",
          "name": "accRewardsPerShare",
          "type": "uint256"
        },
        {
          "indexed": false,
          "internalType": "uint256",
          "name": "lastUpdate",
          "type": "uint256"
        },
        {
          "indexed": false,
          "internalType": "uint256",
          "name": "stakers",
          "type": "uint256"
        }
      ],
      "name": "Update",
      "type": "event"
    },
    {
      "anonymous": false,
      "inputs": [
        {
          "indexed": false,
          "internalType": "uint256",
          "name": "endBlock",
          "type": "uint256"
        }
      ],
      "name": "UpdateEndBlock",
      "type": "event"
    },
    {
      "anonymous": false,
      "inputs": [
        {
          "indexed": false,
          "internalType": "uint256",
          "name": "minFee",
          "type": "uint256"
        },
        {
          "indexed": false,
          "internalType": "uint256",
          "name": "maxFee",
          "type": "uint256"
        },
        {
          "indexed": false,
          "internalType": "uint256",
          "name": "feeInterval",
          "type": "uint256"
        }
      ],
      "name": "UpdateFees",
      "type": "event"
    },
    {
      "anonymous": false,
      "inputs": [
        {
          "indexed": false,
          "internalType": "address",
          "name": "account",
          "type": "address"
        },
        {
          "indexed": false,
          "internalType": "uint256",
          "name": "amount",
          "type": "uint256"
        },
        {
          "indexed": false,
          "internalType": "uint256",
          "name": "rewardDebt",
          "type": "uint256"
        },
        {
          "indexed": false,
          "internalType": "uint256",
          "name": "notClaimed",
          "type": "uint256"
        },
        {
          "indexed": false,
          "internalType": "uint256",
          "name": "endInterval",
          "type": "uint256"
        }
      ],
      "name": "UpdateUserInfo",
      "type": "event"
    },
    {
      "anonymous": false,
      "inputs": [
        {
          "indexed": false,
          "internalType": "address",
          "name": "account",
          "type": "address"
        },
        {
          "indexed": false,
          "internalType": "uint256",
          "name": "amount",
          "type": "uint256"
        },
        {
          "indexed": false,
          "internalType": "uint256",
          "name": "burned",
          "type": "uint256"
        }
      ],
      "name": "Withdraw",
      "type": "event"
    },
    {
      "anonymous": false,
      "inputs": [
        {
          "indexed": false,
          "internalType": "address",
          "name": "vault",
          "type": "address"
        }
      ],
      "name": "updatevault",
      "type": "event"
    },
    {
      "inputs": [],
      "name": "DEFAULT_ADMIN_ROLE",
      "outputs": [
        {
          "internalType": "bytes32",
          "name": "",
          "type": "bytes32"
        }
      ],
      "stateMutability": "view",
      "type": "function"
    },
    {
      "inputs": [],
      "name": "PAUSER_ROLE",
      "outputs": [
        {
          "internalType": "bytes32",
          "name": "",
          "type": "bytes32"
        }
      ],
      "stateMutability": "view",
      "type": "function"
    },
    {
      "inputs": [],
      "name": "accRewardsPerShare",
      "outputs": [
        {
          "internalType": "uint256",
          "name": "",
          "type": "uint256"
        }
      ],
      "stateMutability": "view",
      "type": "function"
    },
    {
      "inputs": [],
      "name": "autoreward",
      "outputs": [
        {
          "internalType": "bool",
          "name": "",
          "type": "bool"
        }
      ],
      "stateMutability": "view",
      "type": "function"
    },
    {
      "inputs": [],
      "name": "balance",
      "outputs": [
        {
          "internalType": "uint256",
          "name": "",
          "type": "uint256"
        }
      ],
      "stateMutability": "view",
      "type": "function"
    },
    {
      "inputs": [],
      "name": "claim",
      "outputs": [],
      "stateMutability": "nonpayable",
      "type": "function"
    },
    {
      "inputs": [
        {
          "internalType": "address",
          "name": "account",
          "type": "address"
        },
        {
          "internalType": "uint256",
          "name": "amount",
          "type": "uint256"
        }
      ],
      "name": "depositFrom",
      "outputs": [],
      "stateMutability": "nonpayable",
      "type": "function"
    },
    {
      "inputs": [],
      "name": "endBlock",
      "outputs": [
        {
          "internalType": "uint256",
          "name": "",
          "type": "uint256"
        }
      ],
      "stateMutability": "view",
      "type": "function"
    },
    {
      "inputs": [],
      "name": "feeInterval",
      "outputs": [
        {
          "internalType": "uint256",
          "name": "",
          "type": "uint256"
        }
      ],
      "stateMutability": "view",
      "type": "function"
    },
    {
      "inputs": [
        {
          "internalType": "address",
          "name": "account",
          "type": "address"
        }
      ],
      "name": "getBlocksLeft",
      "outputs": [
        {
          "internalType": "uint256",
          "name": "",
          "type": "uint256"
        }
      ],
      "stateMutability": "view",
      "type": "function"
    },
    {
      "inputs": [
        {
          "internalType": "address",
          "name": "account",
          "type": "address"
        }
      ],
      "name": "getFee",
      "outputs": [
        {
          "internalType": "uint256",
          "name": "",
          "type": "uint256"
        }
      ],
      "stateMutability": "view",
      "type": "function"
    },
    {
      "inputs": [],
      "name": "getTokenGap",
      "outputs": [
        {
          "internalType": "uint256",
          "name": "",
          "type": "uint256"
        }
      ],
      "stateMutability": "view",
      "type": "function"
    },
    {
      "inputs": [
        {
          "internalType": "address",
          "name": "user_",
          "type": "address"
        }
      ],
      "name": "getUserBalance",
      "outputs": [
        {
          "internalType": "uint256",
          "name": "",
          "type": "uint256"
        }
      ],
      "stateMutability": "view",
      "type": "function"
    },
    {
      "inputs": [],
      "name": "lastUpdate",
      "outputs": [
        {
          "internalType": "uint256",
          "name": "",
          "type": "uint256"
        }
      ],
      "stateMutability": "view",
      "type": "function"
    },
    {
      "inputs": [],
      "name": "maxFee",
      "outputs": [
        {
          "internalType": "uint256",
          "name": "",
          "type": "uint256"
        }
      ],
      "stateMutability": "view",
      "type": "function"
    },
    {
      "inputs": [
        {
          "internalType": "address",
          "name": "to",
          "type": "address"
        },
        {
          "internalType": "bytes",
          "name": "data",
          "type": "bytes"
        }
      ],
      "name": "migrate",
      "outputs": [
        {
          "internalType": "bytes",
          "name": "",
          "type": "bytes"
        }
      ],
      "stateMutability": "nonpayable",
      "type": "function"
    },
    {
      "inputs": [],
      "name": "minFee",
      "outputs": [
        {
          "internalType": "uint256",
          "name": "",
          "type": "uint256"
        }
      ],
      "stateMutability": "view",
      "type": "function"
    },
    {
      "inputs": [],
      "name": "pause",
      "outputs": [],
      "stateMutability": "nonpayable",
      "type": "function"
    },
    {
      "inputs": [],
      "name": "paused",
      "outputs": [
        {
          "internalType": "bool",
          "name": "",
          "type": "bool"
        }
      ],
      "stateMutability": "view",
      "type": "function"
    },
    {
      "inputs": [
        {
          "internalType": "address",
          "name": "user_",
          "type": "address"
        }
      ],
      "name": "pendingRewards",
      "outputs": [
        {
          "internalType": "uint256",
          "name": "",
          "type": "uint256"
        }
      ],
      "stateMutability": "view",
      "type": "function"
    },
    {
      "inputs": [
        {
          "internalType": "uint256",
          "name": "feeInterval_",
          "type": "uint256"
        }
      ],
      "name": "setFeeInterval",
      "outputs": [],
      "stateMutability": "nonpayable",
      "type": "function"
    },
    {
      "inputs": [
        {
          "internalType": "uint256",
          "name": "minFee_",
          "type": "uint256"
        },
        {
          "internalType": "uint256",
          "name": "maxFee_",
          "type": "uint256"
        }
      ],
      "name": "setFees",
      "outputs": [],
      "stateMutability": "nonpayable",
      "type": "function"
    },
    {
      "inputs": [],
      "name": "stakers",
      "outputs": [
        {
          "internalType": "uint256",
          "name": "",
          "type": "uint256"
        }
      ],
      "stateMutability": "view",
      "type": "function"
    },
    {
      "inputs": [
        {
          "internalType": "address",
          "name": "account",
          "type": "address"
        }
      ],
      "name": "syncBalance",
      "outputs": [],
      "stateMutability": "nonpayable",
      "type": "function"
    },
    {
      "inputs": [],
      "name": "toggleAutoreward",
      "outputs": [],
      "stateMutability": "nonpayable",
      "type": "function"
    },
    {
      "inputs": [],
      "name": "token",
      "outputs": [
        {
          "internalType": "address",
          "name": "",
          "type": "address"
        }
      ],
      "stateMutability": "view",
      "type": "function"
    },
    {
      "inputs": [],
      "name": "unpause",
      "outputs": [],
      "stateMutability": "nonpayable",
      "type": "function"
    },
    {
      "inputs": [
        {
          "internalType": "address",
          "name": "manager",
          "type": "address"
        }
      ],
      "name": "updateManager",
      "outputs": [],
      "stateMutability": "nonpayable",
      "type": "function"
    },
    {
      "inputs": [],
      "name": "vault",
      "outputs": [
        {
          "internalType": "address",
          "name": "",
          "type": "address"
        }
      ],
      "stateMutability": "view",
      "type": "function"
    },
    {
      "inputs": [
        {
          "internalType": "uint256",
          "name": "amount",
          "type": "uint256"
        }
      ],
      "name": "withdraw",
      "outputs": [],
      "stateMutability": "nonpayable",
      "type": "function"
    }
  ],
  "bytecode": "0x60806040523480156200001157600080fd5b50604051620055e9380380620055e9833981810160405281019062000037919062000f91565b6200004d8686868686866200005960201b60201c565b505050505050620016fa565b600060019054906101000a900460ff168062000080575060008054906101000a900460ff16155b620000c2576040517f08c379a0000000000000000000000000000000000000000000000000000000008152600401620000b9906200129d565b60405180910390fd5b60008060019054906101000a900460ff16159050801562000113576001600060016101000a81548160ff02191690831515021790555060016000806101000a81548160ff0219169083151502179055505b62000124866200016460201b60201c565b6200013987868686866200026560201b60201c565b80156200015b5760008060016101000a81548160ff0219169083151502179055505b50505050505050565b600060019054906101000a900460ff16806200018b575060008054906101000a900460ff16155b620001cd576040517f08c379a0000000000000000000000000000000000000000000000000000000008152600401620001c4906200129d565b60405180910390fd5b60008060019054906101000a900460ff1615905080156200021e576001600060016101000a81548160ff02191690831515021790555060016000806101000a81548160ff0219169083151502179055505b6200022e6200041060201b60201c565b6200023f826200050f60201b60201c565b8015620002615760008060016101000a81548160ff0219169083151502179055505b5050565b600060019054906101000a900460ff16806200028c575060008054906101000a900460ff16155b620002ce576040517f08c379a0000000000000000000000000000000000000000000000000000000008152600401620002c5906200129d565b60405180910390fd5b60008060019054906101000a900460ff1615905080156200031f576001600060016101000a81548160ff02191690831515021790555060016000806101000a81548160ff0219169083151502179055505b85606660006101000a81548173ffffffffffffffffffffffffffffffffffffffff021916908373ffffffffffffffffffffffffffffffffffffffff16021790555084606760006101000a81548173ffffffffffffffffffffffffffffffffffffffff021916908373ffffffffffffffffffffffffffffffffffffffff160217905550620003b384846200063060201b60201c565b620003c482620008a360201b60201c565b6001606760146101000a81548160ff02191690831515021790555043606d819055508015620004085760008060016101000a81548160ff0219169083151502179055505b505050505050565b600060019054906101000a900460ff168062000437575060008054906101000a900460ff16155b62000479576040517f08c379a000000000000000000000000000000000000000000000000000000000815260040162000470906200129d565b60405180910390fd5b60008060019054906101000a900460ff161590508015620004ca576001600060016101000a81548160ff02191690831515021790555060016000806101000a81548160ff0219169083151502179055505b620004da62000a6460201b60201c565b620004ea62000b4360201b60201c565b80156200050c5760008060016101000a81548160ff0219169083151502179055505b50565b600060019054906101000a900460ff168062000536575060008054906101000a900460ff16155b62000578576040517f08c379a00000000000000000000000000000000000000000000000000000000081526004016200056f906200129d565b60405180910390fd5b60008060019054906101000a900460ff161590508015620005c9576001600060016101000a81548160ff02191690831515021790555060016000806101000a81548160ff0219169083151502179055505b81606560006101000a81548173ffffffffffffffffffffffffffffffffffffffff021916908373ffffffffffffffffffffffffffffffffffffffff16021790555080156200062c5760008060016101000a81548160ff0219169083151502179055505b5050565b6000801b6000606560009054906101000a900473ffffffffffffffffffffffffffffffffffffffff16905060003390508173ffffffffffffffffffffffffffffffffffffffff166391d1485484836040518363ffffffff1660e01b81526004016200069d9291906200122a565b60206040518083038186803b158015620006b657600080fd5b505afa158015620006cb573d6000803e3d6000fd5b505050506040513d601f19601f82011682018060405250810190620006f1919062001027565b6200071f8273ffffffffffffffffffffffffffffffffffffffff16601462000c3d60201b620024b81760201c565b6200073a8560001c602062000c3d60201b620024b81760201c565b6040516020016200074d929190620011e8565b60405160208183030381529060405290620007a0576040517f08c379a000000000000000000000000000000000000000000000000000000000815260040162000797919062001257565b60405180910390fd5b50838510620007e6576040517f08c379a0000000000000000000000000000000000000000000000000000000008152600401620007dd90620012bf565b60405180910390fd5b68056bc75e2d63100000851115801562000809575068056bc75e2d631000008411155b6200084b576040517f08c379a00000000000000000000000000000000000000000000000000000000081526004016200084290620012e1565b60405180910390fd5b8460698190555083606a819055507f9fef908e44cc0f51b9e9f7fd26bc506a50448657da0dc10a9661e37bc1c4a392606954606a54606e54604051620008949392919062001303565b60405180910390a15050505050565b6000801b6000606560009054906101000a900473ffffffffffffffffffffffffffffffffffffffff16905060003390508173ffffffffffffffffffffffffffffffffffffffff166391d1485484836040518363ffffffff1660e01b8152600401620009109291906200122a565b60206040518083038186803b1580156200092957600080fd5b505afa1580156200093e573d6000803e3d6000fd5b505050506040513d601f19601f8201168201806040525081019062000964919062001027565b620009928273ffffffffffffffffffffffffffffffffffffffff16601462000c3d60201b620024b81760201c565b620009ad8560001c602062000c3d60201b620024b81760201c565b604051602001620009c0929190620011e8565b6040516020818303038152906040529062000a13576040517f08c379a000000000000000000000000000000000000000000000000000000000815260040162000a0a919062001257565b60405180910390fd5b5083606e819055507f9fef908e44cc0f51b9e9f7fd26bc506a50448657da0dc10a9661e37bc1c4a392606954606a54606e5460405162000a569392919062001303565b60405180910390a150505050565b600060019054906101000a900460ff168062000a8b575060008054906101000a900460ff16155b62000acd576040517f08c379a000000000000000000000000000000000000000000000000000000000815260040162000ac4906200129d565b60405180910390fd5b60008060019054906101000a900460ff16159050801562000b1e576001600060016101000a81548160ff02191690831515021790555060016000806101000a81548160ff0219169083151502179055505b801562000b405760008060016101000a81548160ff0219169083151502179055505b50565b600060019054906101000a900460ff168062000b6a575060008054906101000a900460ff16155b62000bac576040517f08c379a000000000000000000000000000000000000000000000000000000000815260040162000ba3906200129d565b60405180910390fd5b60008060019054906101000a900460ff16159050801562000bfd576001600060016101000a81548160ff02191690831515021790555060016000806101000a81548160ff0219169083151502179055505b6000603360006101000a81548160ff021916908315150217905550801562000c3a5760008060016101000a81548160ff0219169083151502179055505b50565b60606000600283600262000c529190620013c4565b62000c5e919062001367565b67ffffffffffffffff81111562000c9e577f4e487b7100000000000000000000000000000000000000000000000000000000600052604160045260246000fd5b6040519080825280601f01601f19166020018201604052801562000cd15781602001600182028036833780820191505090505b5090507f30000000000000000000000000000000000000000000000000000000000000008160008151811062000d30577f4e487b7100000000000000000000000000000000000000000000000000000000600052603260045260246000fd5b60200101907effffffffffffffffffffffffffffffffffffffffffffffffffffffffffffff1916908160001a9053507f78000000000000000000000000000000000000000000000000000000000000008160018151811062000dbb577f4e487b7100000000000000000000000000000000000000000000000000000000600052603260045260246000fd5b60200101907effffffffffffffffffffffffffffffffffffffffffffffffffffffffffffff1916908160001a9053506000600184600262000dfd9190620013c4565b62000e09919062001367565b90505b600181111562000efb577f3031323334353637383961626364656600000000000000000000000000000000600f86166010811062000e73577f4e487b7100000000000000000000000000000000000000000000000000000000600052603260045260246000fd5b1a60f81b82828151811062000eb1577f4e487b7100000000000000000000000000000000000000000000000000000000600052603260045260246000fd5b60200101907effffffffffffffffffffffffffffffffffffffffffffffffffffffffffffff1916908160001a905350600485901c94508062000ef390620014af565b905062000e0c565b506000841462000f42576040517f08c379a000000000000000000000000000000000000000000000000000000000815260040162000f39906200127b565b60405180910390fd5b8091505092915050565b60008151905062000f5d81620016ac565b92915050565b60008151905062000f7481620016c6565b92915050565b60008151905062000f8b81620016e0565b92915050565b60008060008060008060c0878903121562000fab57600080fd5b600062000fbb89828a0162000f4c565b965050602062000fce89828a0162000f4c565b955050604062000fe189828a0162000f4c565b945050606062000ff489828a0162000f7a565b93505060806200100789828a0162000f7a565b92505060a06200101a89828a0162000f7a565b9150509295509295509295565b6000602082840312156200103a57600080fd5b60006200104a8482850162000f63565b91505092915050565b6200105e8162001425565b82525050565b6200106f8162001445565b82525050565b6000620010828262001340565b6200108e81856200134b565b9350620010a081856020860162001479565b620010ab816200150d565b840191505092915050565b6000620010c38262001340565b620010cf81856200135c565b9350620010e181856020860162001479565b80840191505092915050565b6000620010fc6020836200134b565b915062001109826200151e565b602082019050919050565b6000620011236024836200135c565b9150620011308262001547565b602482019050919050565b60006200114a602e836200134b565b9150620011578262001596565b604082019050919050565b600062001171603d836200134b565b91506200117e82620015e5565b604082019050919050565b600062001198602e836200134b565b9150620011a58262001634565b604082019050919050565b6000620011bf6011836200135c565b9150620011cc8262001683565b601182019050919050565b620011e2816200146f565b82525050565b6000620011f58262001114565b9150620012038285620010b6565b91506200121082620011b0565b91506200121e8284620010b6565b91508190509392505050565b600060408201905062001241600083018562001064565b62001250602083018462001053565b9392505050565b6000602082019050818103600083015262001273818462001075565b905092915050565b600060208201905081810360008301526200129681620010ed565b9050919050565b60006020820190508181036000830152620012b8816200113b565b9050919050565b60006020820190508181036000830152620012da8162001162565b9050919050565b60006020820190508181036000830152620012fc8162001189565b9050919050565b60006060820190506200131a6000830186620011d7565b620013296020830185620011d7565b620013386040830184620011d7565b949350505050565b600081519050919050565b600082825260208201905092915050565b600081905092915050565b600062001374826200146f565b915062001381836200146f565b9250827fffffffffffffffffffffffffffffffffffffffffffffffffffffffffffffffff03821115620013b957620013b8620014de565b5b828201905092915050565b6000620013d1826200146f565b9150620013de836200146f565b9250817fffffffffffffffffffffffffffffffffffffffffffffffffffffffffffffffff04831182151516156200141a5762001419620014de565b5b828202905092915050565b600062001432826200144f565b9050919050565b60008115159050919050565b6000819050919050565b600073ffffffffffffffffffffffffffffffffffffffff82169050919050565b6000819050919050565b60005b83811015620014995780820151818401526020810190506200147c565b83811115620014a9576000848401525b50505050565b6000620014bc826200146f565b91506000821415620014d357620014d2620014de565b5b600182039050919050565b7f4e487b7100000000000000000000000000000000000000000000000000000000600052601160045260246000fd5b6000601f19601f8301169050919050565b7f537472696e67733a20686578206c656e67746820696e73756666696369656e74600082015250565b7f416363657373436f6e74726f6c50726f78795061757361626c653a206163636f60008201527f756e742000000000000000000000000000000000000000000000000000000000602082015250565b7f496e697469616c697a61626c653a20636f6e747261637420697320616c72656160008201527f647920696e697469616c697a6564000000000000000000000000000000000000602082015250565b7f547574656c6c75735374616b696e673a206d696e696e756d20666565206d757360008201527f742062652067726561746572207468616e206d6178696d756d20666565000000602082015250565b7f547574656c6c75735374616b696e673a2066656573206d757374206265206c6560008201527f7373207468616e20313030653138000000000000000000000000000000000000602082015250565b7f206973206d697373696e6720726f6c6520000000000000000000000000000000600082015250565b620016b78162001425565b8114620016c357600080fd5b50565b620016d18162001439565b8114620016dd57600080fd5b50565b620016eb816200146f565b8114620016f757600080fd5b50565b613edf806200170a6000396000f3fe608060405234801561001057600080fd5b50600436106101da5760003560e01c80636ca569c111610104578063b88c9148116100a2578063e63ab1e911610071578063e63ab1e9146104e9578063fbfa77cf14610507578063fc0c546a14610525578063fed1252a14610543576101da565b8063b88c91481461044f578063c04637111461047f578063c3fbb6fd1461049d578063e0adaca2146104cd576101da565b80638456cb59116100de5780638456cb59146103d95780638d048056146103e3578063a217fddf14610413578063b69ef8a814610431576101da565b80636ca569c1146103955780637cbaccd51461039f57806381fb5cfb146103bd576101da565b80633f4ba83a1161017c57806358aba00f1161014b57806358aba00f1461031f5780635a3c978b1461033b5780635c975abb1461035957806366b0bebc14610377576101da565b80633f4ba83a146102bd57806347734892146102c75780634e71d92d146102f75780635129338c14610301576101da565b806315cc36f2116101b857806315cc36f21461023757806324ec7590146102535780632e1a7d4d1461027157806331d7a2621461028d576101da565b806301f59d16146101df578063083c6323146101fd5780630b78f9c01461021b575b600080fd5b6101e7610561565b6040516101f49190613606565b60405180910390f35b610205610567565b6040516102129190613606565b60405180910390f35b61023560048036038101906102309190612e27565b61056d565b005b610251600480360381019061024c9190612d70565b6107b2565b005b61025b610ce7565b6040516102689190613606565b60405180910390f35b61028b60048036038101906102869190612dd5565b610ced565b005b6102a760048036038101906102a29190612cf3565b611116565b6040516102b49190613606565b60405180910390f35b6102c56112ff565b005b6102e160048036038101906102dc9190612cf3565b611475565b6040516102ee9190613606565b60405180910390f35b6102ff611517565b005b6103096116d7565b6040516103169190613606565b60405180910390f35b61033960048036038101906103349190612cf3565b6117a1565b005b610343611934565b6040516103509190613383565b60405180910390f35b610361611947565b60405161036e9190613383565b60405180910390f35b61037f61195e565b60405161038c9190613606565b60405180910390f35b61039d611964565b005b6103a7611b25565b6040516103b49190613606565b60405180910390f35b6103d760048036038101906103d29190612dd5565b611b2b565b005b6103e1611cc5565b005b6103fd60048036038101906103f89190612cf3565b611e3b565b60405161040a9190613606565b60405180910390f35b61041b611ee6565b604051610428919061339e565b60405180910390f35b610439611eed565b6040516104469190613606565b60405180910390f35b61046960048036038101906104649190612cf3565b611ef3565b6040516104769190613606565b60405180910390f35b610487612007565b6040516104949190613606565b60405180910390f35b6104b760048036038101906104b29190612d1c565b61200d565b6040516104c491906133e2565b60405180910390f35b6104e760048036038101906104e29190612cf3565b6121b1565b005b6104f1612442565b6040516104fe919061339e565b60405180910390f35b61050f612466565b60405161051c9190613217565b60405180910390f35b61052d61248c565b60405161053a9190613217565b60405180910390f35b61054b6124b2565b6040516105589190613606565b60405180910390f35b606a5481565b606f5481565b6000801b6000606560009054906101000a900473ffffffffffffffffffffffffffffffffffffffff16905060003390508173ffffffffffffffffffffffffffffffffffffffff166391d1485484836040518363ffffffff1660e01b81526004016105d89291906133b9565b60206040518083038186803b1580156105f057600080fd5b505afa158015610604573d6000803e3d6000fd5b505050506040513d601f19601f820116820180604052508101906106289190612dac565b6106498273ffffffffffffffffffffffffffffffffffffffff1660146124b8565b6106578560001c60206124b8565b6040516020016106689291906131dd565b604051602081830303815290604052906106b8576040517f08c379a00000000000000000000000000000000000000000000000000000000081526004016106af9190613404565b60405180910390fd5b508385106106fb576040517f08c379a00000000000000000000000000000000000000000000000000000000081526004016106f290613526565b60405180910390fd5b68056bc75e2d63100000851115801561071d575068056bc75e2d631000008411155b61075c576040517f08c379a000000000000000000000000000000000000000000000000000000000815260040161075390613566565b60405180910390fd5b8460698190555083606a819055507f9fef908e44cc0f51b9e9f7fd26bc506a50448657da0dc10a9661e37bc1c4a392606954606a54606e546040516107a393929190613621565b60405180910390a15050505050565b6107ba611947565b156107fa576040517f08c379a00000000000000000000000000000000000000000000000000000000081526004016107f190613486565b60405180910390fd5b606f54431061083e576040517f08c379a000000000000000000000000000000000000000000000000000000000815260040161083590613586565b60405180910390fd5b60008111610881576040517f08c379a0000000000000000000000000000000000000000000000000000000008152600401610878906134a6565b60405180910390fd5b6000607160008473ffffffffffffffffffffffffffffffffffffffff1673ffffffffffffffffffffffffffffffffffffffff16815260200190815260200160002090506108cc6127b2565b6108d5836128eb565b6000816000015414156108fd576001607060008282546108f59190613741565b925050819055505b606e544361090b9190613741565b81600301819055506069548160040181905550606a548160050181905550606e548160060181905550818160000160008282546109489190613741565b9250508190555081606860008282546109619190613741565b925050819055506000606660009054906101000a900473ffffffffffffffffffffffffffffffffffffffff169050828173ffffffffffffffffffffffffffffffffffffffff166370a08231866040518263ffffffff1660e01b81526004016109c99190613217565b60206040518083038186803b1580156109e157600080fd5b505afa1580156109f5573d6000803e3d6000fd5b505050506040513d601f19601f82011682018060405250810190610a199190612dfe565b1015610a5a576040517f08c379a0000000000000000000000000000000000000000000000000000000008152600401610a51906134c6565b60405180910390fd5b828173ffffffffffffffffffffffffffffffffffffffff1663dd62ed3e86306040518363ffffffff1660e01b8152600401610a96929190613232565b60206040518083038186803b158015610aae57600080fd5b505afa158015610ac2573d6000803e3d6000fd5b505050506040513d601f19601f82011682018060405250810190610ae69190612dfe565b1015610b27576040517f08c379a0000000000000000000000000000000000000000000000000000000008152600401610b1e90613506565b60405180910390fd5b606760149054906101000a900460ff1615610b4657610b458461297f565b5b8073ffffffffffffffffffffffffffffffffffffffff166323b872dd8530866040518463ffffffff1660e01b8152600401610b839392919061325b565b602060405180830381600087803b158015610b9d57600080fd5b505af1158015610bb1573d6000803e3d6000fd5b505050506040513d601f19601f82011682018060405250810190610bd59190612dac565b610c14576040517f08c379a0000000000000000000000000000000000000000000000000000000008152600401610c0b906135a6565b60405180910390fd5b7fce49b138f2621300a7043a61f472ccfd643162bdf3efb11354e22d5273b77a71606854606b54606d54607054604051610c519493929190613658565b60405180910390a17fda0c5744e922c38dc93f40ffd95d1e27696bee87f5cbd024bd5df1d168caa5a8848360000154846001015485600201548660030154604051610ca0959493929190613330565b60405180910390a17fe1fffcc4923d04b559f4d29a8bfc6cda04eb5b0d3c460751c2402c5c5cc9109c8484604051610cd9929190613292565b60405180910390a150505050565b60695481565b610cf5611947565b15610d35576040517f08c379a0000000000000000000000000000000000000000000000000000000008152600401610d2c90613486565b60405180910390fd5b60008111610d78576040517f08c379a0000000000000000000000000000000000000000000000000000000008152600401610d6f906134a6565b60405180910390fd5b60003390506000607160008373ffffffffffffffffffffffffffffffffffffffff1673ffffffffffffffffffffffffffffffffffffffff16815260200190815260200160002090508060000154831115610e07576040517f08c379a0000000000000000000000000000000000000000000000000000000008152600401610dfe906134e6565b60405180910390fd5b610e0f6127b2565b610e18826128eb565b606b54816001018190555082816000016000828254610e379190613822565b925050819055508260686000828254610e509190613822565b92505081905550600081600001541415610e7f57600160706000828254610e779190613822565b925050819055505b6000606660009054906101000a900473ffffffffffffffffffffffffffffffffffffffff169050600068056bc75e2d63100000610ebb85611ef3565b86610ec691906137c8565b610ed09190613797565b90508085610ede9190613822565b9450606760149054906101000a900460ff1615610eff57610efe8461297f565b5b6000811115610f74578173ffffffffffffffffffffffffffffffffffffffff166342966c68826040518263ffffffff1660e01b8152600401610f419190613606565b600060405180830381600087803b158015610f5b57600080fd5b505af1158015610f6f573d6000803e3d6000fd5b505050505b8173ffffffffffffffffffffffffffffffffffffffff1663a9059cbb85876040518363ffffffff1660e01b8152600401610faf929190613292565b602060405180830381600087803b158015610fc957600080fd5b505af1158015610fdd573d6000803e3d6000fd5b505050506040513d601f19601f820116820180604052508101906110019190612dac565b611040576040517f08c379a000000000000000000000000000000000000000000000000000000000815260040161103790613546565b60405180910390fd5b7fce49b138f2621300a7043a61f472ccfd643162bdf3efb11354e22d5273b77a71606854606b54606d5460705460405161107d9493929190613658565b60405180910390a17fda0c5744e922c38dc93f40ffd95d1e27696bee87f5cbd024bd5df1d168caa5a88484600001548560010154866002015487600301546040516110cc959493929190613330565b60405180910390a17ff279e6a1f5e320cca91135676d9cb6e44ca8a08c0b88342bcdb1144f6511b568848683604051611107939291906132f9565b60405180910390a15050505050565b600080607160008473ffffffffffffffffffffffffffffffffffffffff1673ffffffffffffffffffffffffffffffffffffffff1681526020019081526020016000206040518060e00160405290816000820154815260200160018201548152602001600282015481526020016003820154815260200160048201548152602001600582015481526020016006820154815250509050600081604001519050600060685411156112f5576000606760009054906101000a900473ffffffffffffffffffffffffffffffffffffffff1690506000606c548273ffffffffffffffffffffffffffffffffffffffff1663ae7928bf306040518263ffffffff1660e01b81526004016112249190613217565b60206040518083038186803b15801561123c57600080fd5b505afa158015611250573d6000803e3d6000fd5b505050506040513d601f19601f820116820180604052508101906112749190612dfe565b61127e9190613822565b90506000606854670de0b6b3a76400008361129991906137c8565b6112a39190613797565b9050670de0b6b3a76400008560000151828760200151606b546112c69190613822565b6112d09190613741565b6112da91906137c8565b6112e49190613797565b846112ef9190613741565b93505050505b8092505050919050565b7f65d7a28e3265b37a6474929f336521b332c1681b933f6cb9f3376673440d862a6000606560009054906101000a900473ffffffffffffffffffffffffffffffffffffffff16905060003390508173ffffffffffffffffffffffffffffffffffffffff166391d1485484836040518363ffffffff1660e01b81526004016113879291906133b9565b60206040518083038186803b15801561139f57600080fd5b505afa1580156113b3573d6000803e3d6000fd5b505050506040513d601f19601f820116820180604052508101906113d79190612dac565b6113f88273ffffffffffffffffffffffffffffffffffffffff1660146124b8565b6114068560001c60206124b8565b6040516020016114179291906131dd565b60405160208183030381529060405290611467576040517f08c379a000000000000000000000000000000000000000000000000000000000815260040161145e9190613404565b60405180910390fd5b50611470612aea565b505050565b600080607160008473ffffffffffffffffffffffffffffffffffffffff1673ffffffffffffffffffffffffffffffffffffffff1681526020019081526020016000206040518060e001604052908160008201548152602001600182015481526020016002820154815260200160038201548152602001600482015481526020016005820154815260200160068201548152505090508060000151915050919050565b61151f611947565b1561155f576040517f08c379a000000000000000000000000000000000000000000000000000000000815260040161155690613486565b60405180910390fd5b60003390506000607160008373ffffffffffffffffffffffffffffffffffffffff1673ffffffffffffffffffffffffffffffffffffffff16815260200190815260200160002090506115af6127b2565b6115b8826128eb565b60008160020154116115ff576040517f08c379a00000000000000000000000000000000000000000000000000000000081526004016115f6906135c6565b60405180910390fd5b6116088261297f565b7fce49b138f2621300a7043a61f472ccfd643162bdf3efb11354e22d5273b77a71606854606b54606d546070546040516116459493929190613658565b60405180910390a17fda0c5744e922c38dc93f40ffd95d1e27696bee87f5cbd024bd5df1d168caa5a8828260000154836001015484600201548560030154604051611694959493929190613330565b60405180910390a17f0c7ef932d3b91976772937f18d5ef9b39a9930bef486b576c374f047c4b512dc826040516116cb9190613217565b60405180910390a15050565b600080606660009054906101000a900473ffffffffffffffffffffffffffffffffffffffff16905060008173ffffffffffffffffffffffffffffffffffffffff166370a08231306040518263ffffffff1660e01b815260040161173a9190613217565b60206040518083038186803b15801561175257600080fd5b505afa158015611766573d6000803e3d6000fd5b505050506040513d601f19601f8201168201806040525081019061178a9190612dfe565b90506068548161179a9190613822565b9250505090565b6000801b6000606560009054906101000a900473ffffffffffffffffffffffffffffffffffffffff16905060003390508173ffffffffffffffffffffffffffffffffffffffff166391d1485484836040518363ffffffff1660e01b815260040161180c9291906133b9565b60206040518083038186803b15801561182457600080fd5b505afa158015611838573d6000803e3d6000fd5b505050506040513d601f19601f8201168201806040525081019061185c9190612dac565b61187d8273ffffffffffffffffffffffffffffffffffffffff1660146124b8565b61188b8560001c60206124b8565b60405160200161189c9291906131dd565b604051602081830303815290604052906118ec576040517f08c379a00000000000000000000000000000000000000000000000000000000081526004016118e39190613404565b60405180910390fd5b5083606560006101000a81548173ffffffffffffffffffffffffffffffffffffffff021916908373ffffffffffffffffffffffffffffffffffffffff16021790555050505050565b606760149054906101000a900460ff1681565b6000603360009054906101000a900460ff16905090565b606e5481565b6000801b6000606560009054906101000a900473ffffffffffffffffffffffffffffffffffffffff16905060003390508173ffffffffffffffffffffffffffffffffffffffff166391d1485484836040518363ffffffff1660e01b81526004016119cf9291906133b9565b60206040518083038186803b1580156119e757600080fd5b505afa1580156119fb573d6000803e3d6000fd5b505050506040513d601f19601f82011682018060405250810190611a1f9190612dac565b611a408273ffffffffffffffffffffffffffffffffffffffff1660146124b8565b611a4e8560001c60206124b8565b604051602001611a5f9291906131dd565b60405160208183030381529060405290611aaf576040517f08c379a0000000000000000000000000000000000000000000000000000000008152600401611aa69190613404565b60405180910390fd5b50606760149054906101000a900460ff1615606760146101000a81548160ff0219169083151502179055507fbab7db190deaf2eccaf17b4e82ea10dce1e26f8a605ec9681ca8183b2de399fe606760149054906101000a900460ff16604051611b189190613383565b60405180910390a1505050565b606b5481565b6000801b6000606560009054906101000a900473ffffffffffffffffffffffffffffffffffffffff16905060003390508173ffffffffffffffffffffffffffffffffffffffff166391d1485484836040518363ffffffff1660e01b8152600401611b969291906133b9565b60206040518083038186803b158015611bae57600080fd5b505afa158015611bc2573d6000803e3d6000fd5b505050506040513d601f19601f82011682018060405250810190611be69190612dac565b611c078273ffffffffffffffffffffffffffffffffffffffff1660146124b8565b611c158560001c60206124b8565b604051602001611c269291906131dd565b60405160208183030381529060405290611c76576040517f08c379a0000000000000000000000000000000000000000000000000000000008152600401611c6d9190613404565b60405180910390fd5b5083606e819055507f9fef908e44cc0f51b9e9f7fd26bc506a50448657da0dc10a9661e37bc1c4a392606954606a54606e54604051611cb793929190613621565b60405180910390a150505050565b7f65d7a28e3265b37a6474929f336521b332c1681b933f6cb9f3376673440d862a6000606560009054906101000a900473ffffffffffffffffffffffffffffffffffffffff16905060003390508173ffffffffffffffffffffffffffffffffffffffff166391d1485484836040518363ffffffff1660e01b8152600401611d4d9291906133b9565b60206040518083038186803b158015611d6557600080fd5b505afa158015611d79573d6000803e3d6000fd5b505050506040513d601f19601f82011682018060405250810190611d9d9190612dac565b611dbe8273ffffffffffffffffffffffffffffffffffffffff1660146124b8565b611dcc8560001c60206124b8565b604051602001611ddd9291906131dd565b60405160208183030381529060405290611e2d576040517f08c379a0000000000000000000000000000000000000000000000000000000008152600401611e249190613404565b60405180910390fd5b50611e36612b8c565b505050565b6000607160008373ffffffffffffffffffffffffffffffffffffffff1673ffffffffffffffffffffffffffffffffffffffff16815260200190815260200160002060030154431115611e905760009050611ee1565b43607160008473ffffffffffffffffffffffffffffffffffffffff1673ffffffffffffffffffffffffffffffffffffffff16815260200190815260200160002060030154611ede9190613822565b90505b919050565b6000801b81565b60685481565b600080607160008473ffffffffffffffffffffffffffffffffffffffff1673ffffffffffffffffffffffffffffffffffffffff1681526020019081526020016000206040518060e00160405290816000820154815260200160018201548152602001600282015481526020016003820154815260200160048201548152602001600582015481526020016006820154815250509050600081606001514310611f9f578160800151611fe5565b60008260c0015111611fb5578160800151611fe4565b8160c00151438360600151611fca9190613822565b8360a00151611fd991906137c8565b611fe39190613797565b5b5b905081608001518111611ffc578160800151611ffe565b805b92505050919050565b606d5481565b606060003390506000607160008373ffffffffffffffffffffffffffffffffffffffff1673ffffffffffffffffffffffffffffffffffffffff16815260200190815260200160002060000154905061206481610ced565b6000808673ffffffffffffffffffffffffffffffffffffffff16848488604051602401612093939291906132bb565b6040516020818303038152906040527f5f781329000000000000000000000000000000000000000000000000000000007bffffffffffffffffffffffffffffffffffffffffffffffffffffffff19166020820180517bffffffffffffffffffffffffffffffffffffffffffffffffffffffff838183161783525050505060405161211d91906131c6565b6000604051808303816000865af19150503d806000811461215a576040519150601f19603f3d011682016040523d82523d6000602084013e61215f565b606091505b5091509150816121a4576040517f08c379a000000000000000000000000000000000000000000000000000000000815260040161219b90613466565b60405180910390fd5b8094505050505092915050565b6000801b6000606560009054906101000a900473ffffffffffffffffffffffffffffffffffffffff16905060003390508173ffffffffffffffffffffffffffffffffffffffff166391d1485484836040518363ffffffff1660e01b815260040161221c9291906133b9565b60206040518083038186803b15801561223457600080fd5b505afa158015612248573d6000803e3d6000fd5b505050506040513d601f19601f8201168201806040525081019061226c9190612dac565b61228d8273ffffffffffffffffffffffffffffffffffffffff1660146124b8565b61229b8560001c60206124b8565b6040516020016122ac9291906131dd565b604051602081830303815290604052906122fc576040517f08c379a00000000000000000000000000000000000000000000000000000000081526004016122f39190613404565b60405180910390fd5b506000606660009054906101000a900473ffffffffffffffffffffffffffffffffffffffff169050600061232e6116d7565b905060008111612373576040517f08c379a000000000000000000000000000000000000000000000000000000000815260040161236a906135e6565b60405180910390fd5b8173ffffffffffffffffffffffffffffffffffffffff1663a9059cbb87836040518363ffffffff1660e01b81526004016123ae929190613292565b602060405180830381600087803b1580156123c857600080fd5b505af11580156123dc573d6000803e3d6000fd5b505050506040513d601f19601f820116820180604052508101906124009190612dac565b507fd43c97094d4b3522923f3751f896fb88ef95d5e1d310aea58b936625fd7c5d0c8682604051612432929190613292565b60405180910390a1505050505050565b7f65d7a28e3265b37a6474929f336521b332c1681b933f6cb9f3376673440d862a81565b606760009054906101000a900473ffffffffffffffffffffffffffffffffffffffff1681565b606660009054906101000a900473ffffffffffffffffffffffffffffffffffffffff1681565b60705481565b6060600060028360026124cb91906137c8565b6124d59190613741565b67ffffffffffffffff811115612514577f4e487b7100000000000000000000000000000000000000000000000000000000600052604160045260246000fd5b6040519080825280601f01601f1916602001820160405280156125465781602001600182028036833780820191505090505b5090507f3000000000000000000000000000000000000000000000000000000000000000816000815181106125a4577f4e487b7100000000000000000000000000000000000000000000000000000000600052603260045260246000fd5b60200101907effffffffffffffffffffffffffffffffffffffffffffffffffffffffffffff1916908160001a9053507f78000000000000000000000000000000000000000000000000000000000000008160018151811061262e577f4e487b7100000000000000000000000000000000000000000000000000000000600052603260045260246000fd5b60200101907effffffffffffffffffffffffffffffffffffffffffffffffffffffffffffff1916908160001a9053506000600184600261266e91906137c8565b6126789190613741565b90505b6001811115612764577f3031323334353637383961626364656600000000000000000000000000000000600f8616601081106126e0577f4e487b7100000000000000000000000000000000000000000000000000000000600052603260045260246000fd5b1a60f81b82828151811061271d577f4e487b7100000000000000000000000000000000000000000000000000000000600052603260045260246000fd5b60200101907effffffffffffffffffffffffffffffffffffffffffffffffffffffffffffff1916908160001a905350600485901c94508061275d906138ea565b905061267b565b50600084146127a8576040517f08c379a000000000000000000000000000000000000000000000000000000000815260040161279f90613426565b60405180910390fd5b8091505092915050565b606d5443116127c0576128e9565b600060685411156128e1576000606760009054906101000a900473ffffffffffffffffffffffffffffffffffffffff1690506000606c548273ffffffffffffffffffffffffffffffffffffffff1663ae7928bf306040518263ffffffff1660e01b81526004016128309190613217565b60206040518083038186803b15801561284857600080fd5b505afa15801561285c573d6000803e3d6000fd5b505050506040513d601f19601f820116820180604052508101906128809190612dfe565b61288a9190613822565b905080606c600082825461289e9190613741565b92505081905550606854670de0b6b3a7640000826128bc91906137c8565b6128c69190613797565b606b60008282546128d79190613741565b9250508190555050505b43606d819055505b565b6000607160008373ffffffffffffffffffffffffffffffffffffffff1673ffffffffffffffffffffffffffffffffffffffff168152602001908152602001600020905060008160010154606b546129429190613822565b9050670de0b6b3a764000082600001548261295d91906137c8565b6129679190613797565b8260020181905550606b548260010181905550505050565b6000606760009054906101000a900473ffffffffffffffffffffffffffffffffffffffff1690506000607160008473ffffffffffffffffffffffffffffffffffffffff1673ffffffffffffffffffffffffffffffffffffffff1681526020019081526020016000206002015490506000811115612ae5576000607160008573ffffffffffffffffffffffffffffffffffffffff1673ffffffffffffffffffffffffffffffffffffffff168152602001908152602001600020600201819055508173ffffffffffffffffffffffffffffffffffffffff1663158a498884836040518363ffffffff1660e01b8152600401612a79929190613292565b600060405180830381600087803b158015612a9357600080fd5b505af1158015612aa7573d6000803e3d6000fd5b505050507fc083a1647e3ee591bf42b82564ffb4d16fdbb26068f0080da911c8d8300fd84a8382604051612adc929190613292565b60405180910390a15b505050565b612af2611947565b612b31576040517f08c379a0000000000000000000000000000000000000000000000000000000008152600401612b2890613446565b60405180910390fd5b6000603360006101000a81548160ff0219169083151502179055507f5db9ee0a495bf2e6ff9c91a7834c1ba4fdd244a5e8aa4e537bd38aeae4b073aa612b75612c2f565b604051612b829190613217565b60405180910390a1565b612b94611947565b15612bd4576040517f08c379a0000000000000000000000000000000000000000000000000000000008152600401612bcb90613486565b60405180910390fd5b6001603360006101000a81548160ff0219169083151502179055507f62e78cea01bee320cd4e420270b5ea74000d11b0c9f74754ebdbfc544b05a258612c18612c2f565b604051612c259190613217565b60405180910390a1565b600033905090565b6000612c4a612c45846136c2565b61369d565b905082815260208101848484011115612c6257600080fd5b612c6d8482856138a8565b509392505050565b600081359050612c8481613e64565b92915050565b600081519050612c9981613e7b565b92915050565b600082601f830112612cb057600080fd5b8135612cc0848260208601612c37565b91505092915050565b600081359050612cd881613e92565b92915050565b600081519050612ced81613e92565b92915050565b600060208284031215612d0557600080fd5b6000612d1384828501612c75565b91505092915050565b60008060408385031215612d2f57600080fd5b6000612d3d85828601612c75565b925050602083013567ffffffffffffffff811115612d5a57600080fd5b612d6685828601612c9f565b9150509250929050565b60008060408385031215612d8357600080fd5b6000612d9185828601612c75565b9250506020612da285828601612cc9565b9150509250929050565b600060208284031215612dbe57600080fd5b6000612dcc84828501612c8a565b91505092915050565b600060208284031215612de757600080fd5b6000612df584828501612cc9565b91505092915050565b600060208284031215612e1057600080fd5b6000612e1e84828501612cde565b91505092915050565b60008060408385031215612e3a57600080fd5b6000612e4885828601612cc9565b9250506020612e5985828601612cc9565b9150509250929050565b612e6c81613856565b82525050565b612e7b81613868565b82525050565b612e8a81613874565b82525050565b6000612e9b826136f3565b612ea58185613709565b9350612eb58185602086016138b7565b612ebe816139d2565b840191505092915050565b6000612ed4826136f3565b612ede818561371a565b9350612eee8185602086016138b7565b80840191505092915050565b6000612f05826136fe565b612f0f8185613725565b9350612f1f8185602086016138b7565b612f28816139d2565b840191505092915050565b6000612f3e826136fe565b612f488185613736565b9350612f588185602086016138b7565b80840191505092915050565b6000612f71602083613725565b9150612f7c826139e3565b602082019050919050565b6000612f94602483613736565b9150612f9f82613a0c565b602482019050919050565b6000612fb7601483613725565b9150612fc282613a5b565b602082019050919050565b6000612fda602583613725565b9150612fe582613a84565b604082019050919050565b6000612ffd601083613725565b915061300882613ad3565b602082019050919050565b6000613020602983613725565b915061302b82613afc565b604082019050919050565b6000613043602c83613725565b915061304e82613b4b565b604082019050919050565b6000613066603483613725565b915061307182613b9a565b604082019050919050565b6000613089602983613725565b915061309482613be9565b604082019050919050565b60006130ac603d83613725565b91506130b782613c38565b604082019050919050565b60006130cf602983613725565b91506130da82613c87565b604082019050919050565b60006130f2602e83613725565b91506130fd82613cd6565b604082019050919050565b6000613115602e83613725565b915061312082613d25565b604082019050919050565b6000613138602883613725565b915061314382613d74565b604082019050919050565b600061315b602183613725565b915061316682613dc3565b604082019050919050565b600061317e601183613736565b915061318982613e12565b601182019050919050565b60006131a1602083613725565b91506131ac82613e3b565b602082019050919050565b6131c08161389e565b82525050565b60006131d28284612ec9565b915081905092915050565b60006131e882612f87565b91506131f48285612f33565b91506131ff82613171565b915061320b8284612f33565b91508190509392505050565b600060208201905061322c6000830184612e63565b92915050565b60006040820190506132476000830185612e63565b6132546020830184612e63565b9392505050565b60006060820190506132706000830186612e63565b61327d6020830185612e63565b61328a60408301846131b7565b949350505050565b60006040820190506132a76000830185612e63565b6132b460208301846131b7565b9392505050565b60006060820190506132d06000830186612e63565b6132dd60208301856131b7565b81810360408301526132ef8184612e90565b9050949350505050565b600060608201905061330e6000830186612e63565b61331b60208301856131b7565b61332860408301846131b7565b949350505050565b600060a0820190506133456000830188612e63565b61335260208301876131b7565b61335f60408301866131b7565b61336c60608301856131b7565b61337960808301846131b7565b9695505050505050565b60006020820190506133986000830184612e72565b92915050565b60006020820190506133b36000830184612e81565b92915050565b60006040820190506133ce6000830185612e81565b6133db6020830184612e63565b9392505050565b600060208201905081810360008301526133fc8184612e90565b905092915050565b6000602082019050818103600083015261341e8184612efa565b905092915050565b6000602082019050818103600083015261343f81612f64565b9050919050565b6000602082019050818103600083015261345f81612faa565b9050919050565b6000602082019050818103600083015261347f81612fcd565b9050919050565b6000602082019050818103600083015261349f81612ff0565b9050919050565b600060208201905081810360008301526134bf81613013565b9050919050565b600060208201905081810360008301526134df81613036565b9050919050565b600060208201905081810360008301526134ff81613059565b9050919050565b6000602082019050818103600083015261351f8161307c565b9050919050565b6000602082019050818103600083015261353f8161309f565b9050919050565b6000602082019050818103600083015261355f816130c2565b9050919050565b6000602082019050818103600083015261357f816130e5565b9050919050565b6000602082019050818103600083015261359f81613108565b9050919050565b600060208201905081810360008301526135bf8161312b565b9050919050565b600060208201905081810360008301526135df8161314e565b9050919050565b600060208201905081810360008301526135ff81613194565b9050919050565b600060208201905061361b60008301846131b7565b92915050565b600060608201905061363660008301866131b7565b61364360208301856131b7565b61365060408301846131b7565b949350505050565b600060808201905061366d60008301876131b7565b61367a60208301866131b7565b61368760408301856131b7565b61369460608301846131b7565b95945050505050565b60006136a76136b8565b90506136b38282613914565b919050565b6000604051905090565b600067ffffffffffffffff8211156136dd576136dc6139a3565b5b6136e6826139d2565b9050602081019050919050565b600081519050919050565b600081519050919050565b600082825260208201905092915050565b600081905092915050565b600082825260208201905092915050565b600081905092915050565b600061374c8261389e565b91506137578361389e565b9250827fffffffffffffffffffffffffffffffffffffffffffffffffffffffffffffffff0382111561378c5761378b613945565b5b828201905092915050565b60006137a28261389e565b91506137ad8361389e565b9250826137bd576137bc613974565b5b828204905092915050565b60006137d38261389e565b91506137de8361389e565b9250817fffffffffffffffffffffffffffffffffffffffffffffffffffffffffffffffff048311821515161561381757613816613945565b5b828202905092915050565b600061382d8261389e565b91506138388361389e565b92508282101561384b5761384a613945565b5b828203905092915050565b60006138618261387e565b9050919050565b60008115159050919050565b6000819050919050565b600073ffffffffffffffffffffffffffffffffffffffff82169050919050565b6000819050919050565b82818337600083830152505050565b60005b838110156138d55780820151818401526020810190506138ba565b838111156138e4576000848401525b50505050565b60006138f58261389e565b9150600082141561390957613908613945565b5b600182039050919050565b61391d826139d2565b810181811067ffffffffffffffff8211171561393c5761393b6139a3565b5b80604052505050565b7f4e487b7100000000000000000000000000000000000000000000000000000000600052601160045260246000fd5b7f4e487b7100000000000000000000000000000000000000000000000000000000600052601260045260246000fd5b7f4e487b7100000000000000000000000000000000000000000000000000000000600052604160045260246000fd5b6000601f19601f8301169050919050565b7f537472696e67733a20686578206c656e67746820696e73756666696369656e74600082015250565b7f416363657373436f6e74726f6c50726f78795061757361626c653a206163636f60008201527f756e742000000000000000000000000000000000000000000000000000000000602082015250565b7f5061757361626c653a206e6f7420706175736564000000000000000000000000600082015250565b7f547574656c6c75735374616b696e673a206d6967726174696f6e20686173206660008201527f61696c6564000000000000000000000000000000000000000000000000000000602082015250565b7f5061757361626c653a2070617573656400000000000000000000000000000000600082015250565b7f547574656c6c75735374616b696e673a20616d6f756e74206d7573742062652060008201527f6f766572207a65726f0000000000000000000000000000000000000000000000602082015250565b7f547574656c6c75735374616b696e673a207573657220686173206e6f7420656e60008201527f6f7567682062616c616e63650000000000000000000000000000000000000000602082015250565b7f547574656c6c75735374616b696e673a207573657220686173206e6f7420656e60008201527f6f756768207374616b696e672062616c616e6365000000000000000000000000602082015250565b7f547574656c6c75735374616b696e673a20616d6f756e7420657863656564732060008201527f616c6c6f77616e63650000000000000000000000000000000000000000000000602082015250565b7f547574656c6c75735374616b696e673a206d696e696e756d20666565206d757360008201527f742062652067726561746572207468616e206d6178696d756d20666565000000602082015250565b7f547574656c6c75735374616b696e673a207769746864726177207472616e736660008201527f6572206661696c65640000000000000000000000000000000000000000000000602082015250565b7f547574656c6c75735374616b696e673a2066656573206d757374206265206c6560008201527f7373207468616e20313030653138000000000000000000000000000000000000602082015250565b7f547574656c6c75735374616b696e673a207374616b696e6720636f6e7472616360008201527f74206861732066696e6973686564000000000000000000000000000000000000602082015250565b7f547574656c6c75735374616b696e673a206465706f736974207472616e73666560008201527f72206661696c6564000000000000000000000000000000000000000000000000602082015250565b7f547574656c6c75735374616b696e673a206e6f7468696e6720746f20636c616960008201527f6d00000000000000000000000000000000000000000000000000000000000000602082015250565b7f206973206d697373696e6720726f6c6520000000000000000000000000000000600082015250565b7f547574656c6c75735374616b696e673a207468657265206973206e6f20676170600082015250565b613e6d81613856565b8114613e7857600080fd5b50565b613e8481613868565b8114613e8f57600080fd5b50565b613e9b8161389e565b8114613ea657600080fd5b5056fea264697066735822122072d390be8272cf8c30574aa7dbd078ba7a24870949566e7533e72ae2d0a188ba64736f6c63430008020033",
  "linkReferences": {},
  "deployedLinkReferences": {}
}