{
  "_format": "hh-sol-artifact-1",
  "contractName": "TutellusStaking",
  "sourceName": "contracts/TutellusStaking.sol",
  "abi": [
    {
      "inputs": [
        {
          "internalType": "address",
          "name": "token_",
          "type": "address"
        },
        {
          "internalType": "address",
          "name": "rolemanager",
          "type": "address"
        },
        {
          "internalType": "address",
          "name": "vault_",
          "type": "address"
        },
        {
          "internalType": "uint256",
          "name": "minFee_",
          "type": "uint256"
        },
        {
          "internalType": "uint256",
          "name": "maxFee_",
          "type": "uint256"
        },
        {
          "internalType": "uint256",
          "name": "feeInterval_",
          "type": "uint256"
        }
      ],
      "stateMutability": "nonpayable",
      "type": "constructor"
    },
    {
      "anonymous": false,
      "inputs": [
        {
          "indexed": false,
          "internalType": "address",
          "name": "account",
          "type": "address"
        }
      ],
      "name": "Claim",
      "type": "event"
    },
    {
      "anonymous": false,
      "inputs": [
        {
          "indexed": false,
          "internalType": "address",
          "name": "account",
          "type": "address"
        },
        {
          "indexed": false,
          "internalType": "uint256",
          "name": "amount",
          "type": "uint256"
        }
      ],
      "name": "Deposit",
      "type": "event"
    },
    {
      "anonymous": false,
      "inputs": [
        {
          "indexed": false,
          "internalType": "address",
          "name": "account",
          "type": "address"
        }
      ],
      "name": "Paused",
      "type": "event"
    },
    {
      "anonymous": false,
      "inputs": [
        {
          "indexed": false,
          "internalType": "address",
          "name": "account",
          "type": "address"
        },
        {
          "indexed": false,
          "internalType": "uint256",
          "name": "amount",
          "type": "uint256"
        }
      ],
      "name": "Rewards",
      "type": "event"
    },
    {
      "anonymous": false,
      "inputs": [
        {
          "indexed": false,
          "internalType": "address",
          "name": "account",
          "type": "address"
        },
        {
          "indexed": false,
          "internalType": "uint256",
          "name": "gap",
          "type": "uint256"
        }
      ],
      "name": "SyncBalance",
      "type": "event"
    },
    {
      "anonymous": false,
      "inputs": [
        {
          "indexed": false,
          "internalType": "bool",
          "name": "autoreward",
          "type": "bool"
        }
      ],
      "name": "ToggleAutoreward",
      "type": "event"
    },
    {
      "anonymous": false,
      "inputs": [
        {
          "indexed": false,
          "internalType": "address",
          "name": "account",
          "type": "address"
        }
      ],
      "name": "Unpaused",
      "type": "event"
    },
    {
      "anonymous": false,
      "inputs": [
        {
          "indexed": false,
          "internalType": "uint256",
          "name": "balance",
          "type": "uint256"
        },
        {
          "indexed": false,
          "internalType": "uint256",
          "name": "accRewardsPerShare",
          "type": "uint256"
        },
        {
          "indexed": false,
          "internalType": "uint256",
          "name": "lastUpdate",
          "type": "uint256"
        },
        {
          "indexed": false,
          "internalType": "uint256",
          "name": "stakers",
          "type": "uint256"
        }
      ],
      "name": "Update",
      "type": "event"
    },
    {
      "anonymous": false,
      "inputs": [
        {
          "indexed": false,
          "internalType": "uint256",
          "name": "minFee",
          "type": "uint256"
        },
        {
          "indexed": false,
          "internalType": "uint256",
          "name": "maxFee",
          "type": "uint256"
        },
        {
          "indexed": false,
          "internalType": "uint256",
          "name": "feeInterval",
          "type": "uint256"
        }
      ],
      "name": "UpdateFees",
      "type": "event"
    },
    {
      "anonymous": false,
      "inputs": [
        {
          "indexed": false,
          "internalType": "address",
          "name": "account",
          "type": "address"
        },
        {
          "indexed": false,
          "internalType": "uint256",
          "name": "amount",
          "type": "uint256"
        },
        {
          "indexed": false,
          "internalType": "uint256",
          "name": "rewardDebt",
          "type": "uint256"
        },
        {
          "indexed": false,
          "internalType": "uint256",
          "name": "notClaimed",
          "type": "uint256"
        },
        {
          "indexed": false,
          "internalType": "uint256",
          "name": "endInterval",
          "type": "uint256"
        }
      ],
      "name": "UpdateUserInfo",
      "type": "event"
    },
    {
      "anonymous": false,
      "inputs": [
        {
          "indexed": false,
          "internalType": "address",
          "name": "account",
          "type": "address"
        },
        {
          "indexed": false,
          "internalType": "uint256",
          "name": "amount",
          "type": "uint256"
        },
        {
          "indexed": false,
          "internalType": "uint256",
          "name": "burned",
          "type": "uint256"
        }
      ],
      "name": "Withdraw",
      "type": "event"
    },
    {
      "inputs": [],
      "name": "DEFAULT_ADMIN_ROLE",
      "outputs": [
        {
          "internalType": "bytes32",
          "name": "",
          "type": "bytes32"
        }
      ],
      "stateMutability": "view",
      "type": "function"
    },
    {
      "inputs": [],
      "name": "PAUSER_ROLE",
      "outputs": [
        {
          "internalType": "bytes32",
          "name": "",
          "type": "bytes32"
        }
      ],
      "stateMutability": "view",
      "type": "function"
    },
    {
      "inputs": [],
      "name": "accRewardsPerShare",
      "outputs": [
        {
          "internalType": "uint256",
          "name": "",
          "type": "uint256"
        }
      ],
      "stateMutability": "view",
      "type": "function"
    },
    {
      "inputs": [],
      "name": "autoreward",
      "outputs": [
        {
          "internalType": "bool",
          "name": "",
          "type": "bool"
        }
      ],
      "stateMutability": "view",
      "type": "function"
    },
    {
      "inputs": [],
      "name": "balance",
      "outputs": [
        {
          "internalType": "uint256",
          "name": "",
          "type": "uint256"
        }
      ],
      "stateMutability": "view",
      "type": "function"
    },
    {
      "inputs": [],
      "name": "claim",
      "outputs": [],
      "stateMutability": "nonpayable",
      "type": "function"
    },
    {
      "inputs": [
        {
          "internalType": "address",
          "name": "account",
          "type": "address"
        },
        {
          "internalType": "uint256",
          "name": "amount",
          "type": "uint256"
        }
      ],
      "name": "depositFrom",
      "outputs": [],
      "stateMutability": "nonpayable",
      "type": "function"
    },
    {
      "inputs": [],
      "name": "feeInterval",
      "outputs": [
        {
          "internalType": "uint256",
          "name": "",
          "type": "uint256"
        }
      ],
      "stateMutability": "view",
      "type": "function"
    },
    {
      "inputs": [
        {
          "internalType": "address",
          "name": "account",
          "type": "address"
        }
      ],
      "name": "getBlocksLeft",
      "outputs": [
        {
          "internalType": "uint256",
          "name": "",
          "type": "uint256"
        }
      ],
      "stateMutability": "view",
      "type": "function"
    },
    {
      "inputs": [
        {
          "internalType": "address",
          "name": "account",
          "type": "address"
        }
      ],
      "name": "getFee",
      "outputs": [
        {
          "internalType": "uint256",
          "name": "",
          "type": "uint256"
        }
      ],
      "stateMutability": "view",
      "type": "function"
    },
    {
      "inputs": [],
      "name": "getTokenGap",
      "outputs": [
        {
          "internalType": "uint256",
          "name": "",
          "type": "uint256"
        }
      ],
      "stateMutability": "view",
      "type": "function"
    },
    {
      "inputs": [
        {
          "internalType": "address",
          "name": "user_",
          "type": "address"
        }
      ],
      "name": "getUserBalance",
      "outputs": [
        {
          "internalType": "uint256",
          "name": "",
          "type": "uint256"
        }
      ],
      "stateMutability": "view",
      "type": "function"
    },
    {
      "inputs": [
        {
          "internalType": "bytes32",
          "name": "role",
          "type": "bytes32"
        },
        {
          "internalType": "address",
          "name": "account",
          "type": "address"
        }
      ],
      "name": "hasRole",
      "outputs": [
        {
          "internalType": "bool",
          "name": "",
          "type": "bool"
        }
      ],
      "stateMutability": "view",
      "type": "function"
    },
    {
      "inputs": [],
      "name": "lastUpdate",
      "outputs": [
        {
          "internalType": "uint256",
          "name": "",
          "type": "uint256"
        }
      ],
      "stateMutability": "view",
      "type": "function"
    },
    {
      "inputs": [],
      "name": "maxFee",
      "outputs": [
        {
          "internalType": "uint256",
          "name": "",
          "type": "uint256"
        }
      ],
      "stateMutability": "view",
      "type": "function"
    },
    {
      "inputs": [
        {
          "internalType": "address",
          "name": "to",
          "type": "address"
        },
        {
          "internalType": "bytes",
          "name": "data",
          "type": "bytes"
        }
      ],
      "name": "migrate",
      "outputs": [
        {
          "internalType": "bytes",
          "name": "",
          "type": "bytes"
        }
      ],
      "stateMutability": "nonpayable",
      "type": "function"
    },
    {
      "inputs": [],
      "name": "minFee",
      "outputs": [
        {
          "internalType": "uint256",
          "name": "",
          "type": "uint256"
        }
      ],
      "stateMutability": "view",
      "type": "function"
    },
    {
      "inputs": [],
      "name": "pause",
      "outputs": [],
      "stateMutability": "nonpayable",
      "type": "function"
    },
    {
      "inputs": [],
      "name": "paused",
      "outputs": [
        {
          "internalType": "bool",
          "name": "",
          "type": "bool"
        }
      ],
      "stateMutability": "view",
      "type": "function"
    },
    {
      "inputs": [
        {
          "internalType": "address",
          "name": "user_",
          "type": "address"
        }
      ],
      "name": "pendingRewards",
      "outputs": [
        {
          "internalType": "uint256",
          "name": "",
          "type": "uint256"
        }
      ],
      "stateMutability": "view",
      "type": "function"
    },
    {
      "inputs": [
        {
          "internalType": "uint256",
          "name": "feeInterval_",
          "type": "uint256"
        }
      ],
      "name": "setFeeInterval",
      "outputs": [],
      "stateMutability": "nonpayable",
      "type": "function"
    },
    {
      "inputs": [
        {
          "internalType": "uint256",
          "name": "minFee_",
          "type": "uint256"
        },
        {
          "internalType": "uint256",
          "name": "maxFee_",
          "type": "uint256"
        }
      ],
      "name": "setFees",
      "outputs": [],
      "stateMutability": "nonpayable",
      "type": "function"
    },
    {
      "inputs": [],
      "name": "stakers",
      "outputs": [
        {
          "internalType": "uint256",
          "name": "",
          "type": "uint256"
        }
      ],
      "stateMutability": "view",
      "type": "function"
    },
    {
      "inputs": [
        {
          "internalType": "address",
          "name": "account",
          "type": "address"
        }
      ],
      "name": "syncBalance",
      "outputs": [],
      "stateMutability": "nonpayable",
      "type": "function"
    },
    {
      "inputs": [],
      "name": "toggleAutoreward",
      "outputs": [],
      "stateMutability": "nonpayable",
      "type": "function"
    },
    {
      "inputs": [],
      "name": "token",
      "outputs": [
        {
          "internalType": "address",
          "name": "",
          "type": "address"
        }
      ],
      "stateMutability": "view",
      "type": "function"
    },
    {
      "inputs": [],
      "name": "unpause",
      "outputs": [],
      "stateMutability": "nonpayable",
      "type": "function"
    },
    {
      "inputs": [
        {
          "internalType": "address",
          "name": "manager",
          "type": "address"
        }
      ],
      "name": "updateManager",
      "outputs": [],
      "stateMutability": "nonpayable",
      "type": "function"
    },
    {
      "inputs": [],
      "name": "vault",
      "outputs": [
        {
          "internalType": "address",
          "name": "",
          "type": "address"
        }
      ],
      "stateMutability": "view",
      "type": "function"
    },
    {
      "inputs": [
        {
          "internalType": "uint256",
          "name": "amount",
          "type": "uint256"
        }
      ],
      "name": "withdraw",
      "outputs": [],
      "stateMutability": "nonpayable",
      "type": "function"
    }
  ],
  "bytecode": "0x60806040523480156200001157600080fd5b506040516200511838038062005118833981810160405281019062000037919062000f05565b6200004d8686868686866200005960201b60201c565b5050505050506200166e565b600060019054906101000a900460ff168062000080575060008054906101000a900460ff16155b620000c2576040517f08c379a0000000000000000000000000000000000000000000000000000000008152600401620000b99062001211565b60405180910390fd5b60008060019054906101000a900460ff16159050801562000113576001600060016101000a81548160ff02191690831515021790555060016000806101000a81548160ff0219169083151502179055505b62000124866200016460201b60201c565b6200013987868686866200026560201b60201c565b80156200015b5760008060016101000a81548160ff0219169083151502179055505b50505050505050565b600060019054906101000a900460ff16806200018b575060008054906101000a900460ff16155b620001cd576040517f08c379a0000000000000000000000000000000000000000000000000000000008152600401620001c49062001211565b60405180910390fd5b60008060019054906101000a900460ff1615905080156200021e576001600060016101000a81548160ff02191690831515021790555060016000806101000a81548160ff0219169083151502179055505b6200022e6200041060201b60201c565b6200023f826200050f60201b60201c565b8015620002615760008060016101000a81548160ff0219169083151502179055505b5050565b600060019054906101000a900460ff16806200028c575060008054906101000a900460ff16155b620002ce576040517f08c379a0000000000000000000000000000000000000000000000000000000008152600401620002c59062001211565b60405180910390fd5b60008060019054906101000a900460ff1615905080156200031f576001600060016101000a81548160ff02191690831515021790555060016000806101000a81548160ff0219169083151502179055505b85606660006101000a81548173ffffffffffffffffffffffffffffffffffffffff021916908373ffffffffffffffffffffffffffffffffffffffff16021790555084606760006101000a81548173ffffffffffffffffffffffffffffffffffffffff021916908373ffffffffffffffffffffffffffffffffffffffff160217905550620003b384846200063060201b60201c565b620003c482620007fc60201b60201c565b6001606760146101000a81548160ff02191690831515021790555043606d819055508015620004085760008060016101000a81548160ff0219169083151502179055505b505050505050565b600060019054906101000a900460ff168062000437575060008054906101000a900460ff16155b62000479576040517f08c379a0000000000000000000000000000000000000000000000000000000008152600401620004709062001211565b60405180910390fd5b60008060019054906101000a900460ff161590508015620004ca576001600060016101000a81548160ff02191690831515021790555060016000806101000a81548160ff0219169083151502179055505b620004da6200091660201b60201c565b620004ea620009f560201b60201c565b80156200050c5760008060016101000a81548160ff0219169083151502179055505b50565b600060019054906101000a900460ff168062000536575060008054906101000a900460ff16155b62000578576040517f08c379a00000000000000000000000000000000000000000000000000000000081526004016200056f9062001211565b60405180910390fd5b60008060019054906101000a900460ff161590508015620005c9576001600060016101000a81548160ff02191690831515021790555060016000806101000a81548160ff0219169083151502179055505b81606560006101000a81548173ffffffffffffffffffffffffffffffffffffffff021916908373ffffffffffffffffffffffffffffffffffffffff16021790555080156200062c5760008060016101000a81548160ff0219169083151502179055505b5050565b6000801b60003390506200064b828262000aef60201b60201c565b620006798273ffffffffffffffffffffffffffffffffffffffff16601462000bb160201b6200209d1760201c565b620006948460001c602062000bb160201b6200209d1760201c565b604051602001620006a79291906200115c565b60405160208183030381529060405290620006fa576040517f08c379a0000000000000000000000000000000000000000000000000000000008152600401620006f19190620011cb565b60405180910390fd5b5082841062000740576040517f08c379a0000000000000000000000000000000000000000000000000000000008152600401620007379062001233565b60405180910390fd5b68056bc75e2d63100000841115801562000763575068056bc75e2d631000008311155b620007a5576040517f08c379a00000000000000000000000000000000000000000000000000000000081526004016200079c9062001255565b60405180910390fd5b8360698190555082606a819055507f9fef908e44cc0f51b9e9f7fd26bc506a50448657da0dc10a9661e37bc1c4a392606954606a54606e54604051620007ee9392919062001277565b60405180910390a150505050565b6000801b600033905062000817828262000aef60201b60201c565b620008458273ffffffffffffffffffffffffffffffffffffffff16601462000bb160201b6200209d1760201c565b620008608460001c602062000bb160201b6200209d1760201c565b604051602001620008739291906200115c565b60405160208183030381529060405290620008c6576040517f08c379a0000000000000000000000000000000000000000000000000000000008152600401620008bd9190620011cb565b60405180910390fd5b5082606e819055507f9fef908e44cc0f51b9e9f7fd26bc506a50448657da0dc10a9661e37bc1c4a392606954606a54606e54604051620009099392919062001277565b60405180910390a1505050565b600060019054906101000a900460ff16806200093d575060008054906101000a900460ff16155b6200097f576040517f08c379a0000000000000000000000000000000000000000000000000000000008152600401620009769062001211565b60405180910390fd5b60008060019054906101000a900460ff161590508015620009d0576001600060016101000a81548160ff02191690831515021790555060016000806101000a81548160ff0219169083151502179055505b8015620009f25760008060016101000a81548160ff0219169083151502179055505b50565b600060019054906101000a900460ff168062000a1c575060008054906101000a900460ff16155b62000a5e576040517f08c379a000000000000000000000000000000000000000000000000000000000815260040162000a559062001211565b60405180910390fd5b60008060019054906101000a900460ff16159050801562000aaf576001600060016101000a81548160ff02191690831515021790555060016000806101000a81548160ff0219169083151502179055505b6000603360006101000a81548160ff021916908315150217905550801562000aec5760008060016101000a81548160ff0219169083151502179055505b50565b600080606560009054906101000a900473ffffffffffffffffffffffffffffffffffffffff1690508073ffffffffffffffffffffffffffffffffffffffff166391d1485485856040518363ffffffff1660e01b815260040162000b549291906200119e565b60206040518083038186803b15801562000b6d57600080fd5b505afa15801562000b82573d6000803e3d6000fd5b505050506040513d601f19601f8201168201806040525081019062000ba8919062000f9b565b91505092915050565b60606000600283600262000bc6919062001338565b62000bd29190620012db565b67ffffffffffffffff81111562000c12577f4e487b7100000000000000000000000000000000000000000000000000000000600052604160045260246000fd5b6040519080825280601f01601f19166020018201604052801562000c455781602001600182028036833780820191505090505b5090507f30000000000000000000000000000000000000000000000000000000000000008160008151811062000ca4577f4e487b7100000000000000000000000000000000000000000000000000000000600052603260045260246000fd5b60200101907effffffffffffffffffffffffffffffffffffffffffffffffffffffffffffff1916908160001a9053507f78000000000000000000000000000000000000000000000000000000000000008160018151811062000d2f577f4e487b7100000000000000000000000000000000000000000000000000000000600052603260045260246000fd5b60200101907effffffffffffffffffffffffffffffffffffffffffffffffffffffffffffff1916908160001a9053506000600184600262000d71919062001338565b62000d7d9190620012db565b90505b600181111562000e6f577f3031323334353637383961626364656600000000000000000000000000000000600f86166010811062000de7577f4e487b7100000000000000000000000000000000000000000000000000000000600052603260045260246000fd5b1a60f81b82828151811062000e25577f4e487b7100000000000000000000000000000000000000000000000000000000600052603260045260246000fd5b60200101907effffffffffffffffffffffffffffffffffffffffffffffffffffffffffffff1916908160001a905350600485901c94508062000e679062001423565b905062000d80565b506000841462000eb6576040517f08c379a000000000000000000000000000000000000000000000000000000000815260040162000ead90620011ef565b60405180910390fd5b8091505092915050565b60008151905062000ed18162001620565b92915050565b60008151905062000ee8816200163a565b92915050565b60008151905062000eff8162001654565b92915050565b60008060008060008060c0878903121562000f1f57600080fd5b600062000f2f89828a0162000ec0565b965050602062000f4289828a0162000ec0565b955050604062000f5589828a0162000ec0565b945050606062000f6889828a0162000eee565b935050608062000f7b89828a0162000eee565b92505060a062000f8e89828a0162000eee565b9150509295509295509295565b60006020828403121562000fae57600080fd5b600062000fbe8482850162000ed7565b91505092915050565b62000fd28162001399565b82525050565b62000fe381620013b9565b82525050565b600062000ff682620012b4565b620010028185620012bf565b935062001014818560208601620013ed565b6200101f8162001481565b840191505092915050565b60006200103782620012b4565b620010438185620012d0565b935062001055818560208601620013ed565b80840191505092915050565b600062001070602083620012bf565b91506200107d8262001492565b602082019050919050565b600062001097602483620012d0565b9150620010a482620014bb565b602482019050919050565b6000620010be602e83620012bf565b9150620010cb826200150a565b604082019050919050565b6000620010e5603d83620012bf565b9150620010f28262001559565b604082019050919050565b60006200110c602e83620012bf565b91506200111982620015a8565b604082019050919050565b600062001133601183620012d0565b91506200114082620015f7565b601182019050919050565b6200115681620013e3565b82525050565b6000620011698262001088565b91506200117782856200102a565b9150620011848262001124565b91506200119282846200102a565b91508190509392505050565b6000604082019050620011b5600083018562000fd8565b620011c4602083018462000fc7565b9392505050565b60006020820190508181036000830152620011e7818462000fe9565b905092915050565b600060208201905081810360008301526200120a8162001061565b9050919050565b600060208201905081810360008301526200122c81620010af565b9050919050565b600060208201905081810360008301526200124e81620010d6565b9050919050565b600060208201905081810360008301526200127081620010fd565b9050919050565b60006060820190506200128e60008301866200114b565b6200129d60208301856200114b565b620012ac60408301846200114b565b949350505050565b600081519050919050565b600082825260208201905092915050565b600081905092915050565b6000620012e882620013e3565b9150620012f583620013e3565b9250827fffffffffffffffffffffffffffffffffffffffffffffffffffffffffffffffff038211156200132d576200132c62001452565b5b828201905092915050565b60006200134582620013e3565b91506200135283620013e3565b9250817fffffffffffffffffffffffffffffffffffffffffffffffffffffffffffffffff04831182151516156200138e576200138d62001452565b5b828202905092915050565b6000620013a682620013c3565b9050919050565b60008115159050919050565b6000819050919050565b600073ffffffffffffffffffffffffffffffffffffffff82169050919050565b6000819050919050565b60005b838110156200140d578082015181840152602081019050620013f0565b838111156200141d576000848401525b50505050565b60006200143082620013e3565b9150600082141562001447576200144662001452565b5b600182039050919050565b7f4e487b7100000000000000000000000000000000000000000000000000000000600052601160045260246000fd5b6000601f19601f8301169050919050565b7f537472696e67733a20686578206c656e67746820696e73756666696369656e74600082015250565b7f416363657373436f6e74726f6c50726f78795061757361626c653a206163636f60008201527f756e742000000000000000000000000000000000000000000000000000000000602082015250565b7f496e697469616c697a61626c653a20636f6e747261637420697320616c72656160008201527f647920696e697469616c697a6564000000000000000000000000000000000000602082015250565b7f547574656c6c75735374616b696e673a206d696e696e756d20666565206d757360008201527f742062652067726561746572207468616e206d6178696d756d20666565000000602082015250565b7f547574656c6c75735374616b696e673a2066656573206d757374206265206c6560008201527f7373207468616e20313030653138000000000000000000000000000000000000602082015250565b7f206973206d697373696e6720726f6c6520000000000000000000000000000000600082015250565b6200162b8162001399565b81146200163757600080fd5b50565b6200164581620013ad565b81146200165157600080fd5b50565b6200165f81620013e3565b81146200166b57600080fd5b50565b613a9a806200167e6000396000f3fe608060405234801561001057600080fd5b50600436106101da5760003560e01c80637cbaccd511610104578063b88c9148116100a2578063e63ab1e911610071578063e63ab1e9146104fb578063fbfa77cf14610519578063fc0c546a14610537578063fed1252a14610555576101da565b8063b88c914814610461578063c046371114610491578063c3fbb6fd146104af578063e0adaca2146104df576101da565b80638d048056116100de5780638d048056146103c557806391d14854146103f5578063a217fddf14610425578063b69ef8a814610443576101da565b80637cbaccd51461038157806381fb5cfb1461039f5780638456cb59146103bb576101da565b8063477348921161017c5780635a3c978b1161014b5780635a3c978b1461031d5780635c975abb1461033b57806366b0bebc146103595780636ca569c114610377576101da565b806347734892146102a95780634e71d92d146102d95780635129338c146102e357806358aba00f14610301576101da565b806324ec7590116101b857806324ec7590146102355780632e1a7d4d1461025357806331d7a2621461026f5780633f4ba83a1461029f576101da565b806301f59d16146101df5780630b78f9c0146101fd57806315cc36f214610219575b600080fd5b6101e7610573565b6040516101f491906131f9565b60405180910390f35b61021760048036038101906102129190612a5d565b610579565b005b610233600480360381019061022e919061296a565b610715565b005b61023d610c06565b60405161024a91906131f9565b60405180910390f35b61026d60048036038101906102689190612a0b565b610c0c565b005b610289600480360381019061028491906128ed565b611035565b60405161029691906131f9565b60405180910390f35b6102a761121e565b005b6102c360048036038101906102be91906128ed565b6112eb565b6040516102d091906131f9565b60405180910390f35b6102e161138d565b005b6102eb61154d565b6040516102f891906131f9565b60405180910390f35b61031b600480360381019061031691906128ed565b611617565b005b610325611701565b6040516103329190612f96565b60405180910390f35b610343611714565b6040516103509190612f96565b60405180910390f35b61036161172b565b60405161036e91906131f9565b60405180910390f35b61037f611731565b005b610389611849565b60405161039691906131f9565b60405180910390f35b6103b960048036038101906103b49190612a0b565b61184f565b005b6103c3611940565b005b6103df60048036038101906103da91906128ed565b611a0d565b6040516103ec91906131f9565b60405180910390f35b61040f600480360381019061040a91906129cf565b611ab8565b60405161041c9190612f96565b60405180910390f35b61042d611b74565b60405161043a9190612fb1565b60405180910390f35b61044b611b7b565b60405161045891906131f9565b60405180910390f35b61047b600480360381019061047691906128ed565b611b81565b60405161048891906131f9565b60405180910390f35b610499611c95565b6040516104a691906131f9565b60405180910390f35b6104c960048036038101906104c49190612916565b611c9b565b6040516104d69190612ff5565b60405180910390f35b6104f960048036038101906104f491906128ed565b611e3f565b005b610503612027565b6040516105109190612fb1565b60405180910390f35b61052161204b565b60405161052e9190612e2a565b60405180910390f35b61053f612071565b60405161054c9190612e2a565b60405180910390f35b61055d612097565b60405161056a91906131f9565b60405180910390f35b606a5481565b6000801b600033905061058c8282611ab8565b6105ad8273ffffffffffffffffffffffffffffffffffffffff16601461209d565b6105bb8460001c602061209d565b6040516020016105cc929190612df0565b6040516020818303038152906040529061061c576040517f08c379a00000000000000000000000000000000000000000000000000000000081526004016106139190613017565b60405180910390fd5b5082841061065f576040517f08c379a000000000000000000000000000000000000000000000000000000000815260040161065690613139565b60405180910390fd5b68056bc75e2d631000008411158015610681575068056bc75e2d631000008311155b6106c0576040517f08c379a00000000000000000000000000000000000000000000000000000000081526004016106b790613179565b60405180910390fd5b8360698190555082606a819055507f9fef908e44cc0f51b9e9f7fd26bc506a50448657da0dc10a9661e37bc1c4a392606954606a54606e5460405161070793929190613214565b60405180910390a150505050565b61071d611714565b1561075d576040517f08c379a000000000000000000000000000000000000000000000000000000000815260040161075490613099565b60405180910390fd5b600081116107a0576040517f08c379a0000000000000000000000000000000000000000000000000000000008152600401610797906130b9565b60405180910390fd5b6000607060008473ffffffffffffffffffffffffffffffffffffffff1673ffffffffffffffffffffffffffffffffffffffff16815260200190815260200160002090506107eb612397565b6107f4836124d0565b60008160000154141561081c576001606f60008282546108149190613334565b925050819055505b606e544361082a9190613334565b81600301819055506069548160040181905550606a548160050181905550606e548160060181905550818160000160008282546108679190613334565b9250508190555081606860008282546108809190613334565b925050819055506000606660009054906101000a900473ffffffffffffffffffffffffffffffffffffffff169050828173ffffffffffffffffffffffffffffffffffffffff166370a08231866040518263ffffffff1660e01b81526004016108e89190612e2a565b60206040518083038186803b15801561090057600080fd5b505afa158015610914573d6000803e3d6000fd5b505050506040513d601f19601f820116820180604052508101906109389190612a34565b1015610979576040517f08c379a0000000000000000000000000000000000000000000000000000000008152600401610970906130d9565b60405180910390fd5b828173ffffffffffffffffffffffffffffffffffffffff1663dd62ed3e86306040518363ffffffff1660e01b81526004016109b5929190612e45565b60206040518083038186803b1580156109cd57600080fd5b505afa1580156109e1573d6000803e3d6000fd5b505050506040513d601f19601f82011682018060405250810190610a059190612a34565b1015610a46576040517f08c379a0000000000000000000000000000000000000000000000000000000008152600401610a3d90613119565b60405180910390fd5b606760149054906101000a900460ff1615610a6557610a6484612564565b5b8073ffffffffffffffffffffffffffffffffffffffff166323b872dd8530866040518463ffffffff1660e01b8152600401610aa293929190612e6e565b602060405180830381600087803b158015610abc57600080fd5b505af1158015610ad0573d6000803e3d6000fd5b505050506040513d601f19601f82011682018060405250810190610af491906129a6565b610b33576040517f08c379a0000000000000000000000000000000000000000000000000000000008152600401610b2a90613199565b60405180910390fd5b7fce49b138f2621300a7043a61f472ccfd643162bdf3efb11354e22d5273b77a71606854606b54606d54606f54604051610b70949392919061324b565b60405180910390a17fda0c5744e922c38dc93f40ffd95d1e27696bee87f5cbd024bd5df1d168caa5a8848360000154846001015485600201548660030154604051610bbf959493929190612f43565b60405180910390a17fe1fffcc4923d04b559f4d29a8bfc6cda04eb5b0d3c460751c2402c5c5cc9109c8484604051610bf8929190612ea5565b60405180910390a150505050565b60695481565b610c14611714565b15610c54576040517f08c379a0000000000000000000000000000000000000000000000000000000008152600401610c4b90613099565b60405180910390fd5b60008111610c97576040517f08c379a0000000000000000000000000000000000000000000000000000000008152600401610c8e906130b9565b60405180910390fd5b60003390506000607060008373ffffffffffffffffffffffffffffffffffffffff1673ffffffffffffffffffffffffffffffffffffffff16815260200190815260200160002090508060000154831115610d26576040517f08c379a0000000000000000000000000000000000000000000000000000000008152600401610d1d906130f9565b60405180910390fd5b610d2e612397565b610d37826124d0565b606b54816001018190555082816000016000828254610d569190613415565b925050819055508260686000828254610d6f9190613415565b92505081905550600081600001541415610d9e576001606f6000828254610d969190613415565b925050819055505b6000606660009054906101000a900473ffffffffffffffffffffffffffffffffffffffff169050600068056bc75e2d63100000610dda85611b81565b86610de591906133bb565b610def919061338a565b90508085610dfd9190613415565b9450606760149054906101000a900460ff1615610e1e57610e1d84612564565b5b6000811115610e93578173ffffffffffffffffffffffffffffffffffffffff166342966c68826040518263ffffffff1660e01b8152600401610e6091906131f9565b600060405180830381600087803b158015610e7a57600080fd5b505af1158015610e8e573d6000803e3d6000fd5b505050505b8173ffffffffffffffffffffffffffffffffffffffff1663a9059cbb85876040518363ffffffff1660e01b8152600401610ece929190612ea5565b602060405180830381600087803b158015610ee857600080fd5b505af1158015610efc573d6000803e3d6000fd5b505050506040513d601f19601f82011682018060405250810190610f2091906129a6565b610f5f576040517f08c379a0000000000000000000000000000000000000000000000000000000008152600401610f5690613159565b60405180910390fd5b7fce49b138f2621300a7043a61f472ccfd643162bdf3efb11354e22d5273b77a71606854606b54606d54606f54604051610f9c949392919061324b565b60405180910390a17fda0c5744e922c38dc93f40ffd95d1e27696bee87f5cbd024bd5df1d168caa5a8848460000154856001015486600201548760030154604051610feb959493929190612f43565b60405180910390a17ff279e6a1f5e320cca91135676d9cb6e44ca8a08c0b88342bcdb1144f6511b56884868360405161102693929190612f0c565b60405180910390a15050505050565b600080607060008473ffffffffffffffffffffffffffffffffffffffff1673ffffffffffffffffffffffffffffffffffffffff1681526020019081526020016000206040518060e0016040529081600082015481526020016001820154815260200160028201548152602001600382015481526020016004820154815260200160058201548152602001600682015481525050905060008160400151905060006068541115611214576000606760009054906101000a900473ffffffffffffffffffffffffffffffffffffffff1690506000606c548273ffffffffffffffffffffffffffffffffffffffff1663ae7928bf306040518263ffffffff1660e01b81526004016111439190612e2a565b60206040518083038186803b15801561115b57600080fd5b505afa15801561116f573d6000803e3d6000fd5b505050506040513d601f19601f820116820180604052508101906111939190612a34565b61119d9190613415565b90506000606854670de0b6b3a7640000836111b891906133bb565b6111c2919061338a565b9050670de0b6b3a76400008560000151828760200151606b546111e59190613415565b6111ef9190613334565b6111f991906133bb565b611203919061338a565b8461120e9190613334565b93505050505b8092505050919050565b7f65d7a28e3265b37a6474929f336521b332c1681b933f6cb9f3376673440d862a600033905061124e8282611ab8565b61126f8273ffffffffffffffffffffffffffffffffffffffff16601461209d565b61127d8460001c602061209d565b60405160200161128e929190612df0565b604051602081830303815290604052906112de576040517f08c379a00000000000000000000000000000000000000000000000000000000081526004016112d59190613017565b60405180910390fd5b506112e76126cf565b5050565b600080607060008473ffffffffffffffffffffffffffffffffffffffff1673ffffffffffffffffffffffffffffffffffffffff1681526020019081526020016000206040518060e001604052908160008201548152602001600182015481526020016002820154815260200160038201548152602001600482015481526020016005820154815260200160068201548152505090508060000151915050919050565b611395611714565b156113d5576040517f08c379a00000000000000000000000000000000000000000000000000000000081526004016113cc90613099565b60405180910390fd5b60003390506000607060008373ffffffffffffffffffffffffffffffffffffffff1673ffffffffffffffffffffffffffffffffffffffff1681526020019081526020016000209050611425612397565b61142e826124d0565b6000816002015411611475576040517f08c379a000000000000000000000000000000000000000000000000000000000815260040161146c906131b9565b60405180910390fd5b61147e82612564565b7fce49b138f2621300a7043a61f472ccfd643162bdf3efb11354e22d5273b77a71606854606b54606d54606f546040516114bb949392919061324b565b60405180910390a17fda0c5744e922c38dc93f40ffd95d1e27696bee87f5cbd024bd5df1d168caa5a882826000015483600101548460020154856003015460405161150a959493929190612f43565b60405180910390a17f0c7ef932d3b91976772937f18d5ef9b39a9930bef486b576c374f047c4b512dc826040516115419190612e2a565b60405180910390a15050565b600080606660009054906101000a900473ffffffffffffffffffffffffffffffffffffffff16905060008173ffffffffffffffffffffffffffffffffffffffff166370a08231306040518263ffffffff1660e01b81526004016115b09190612e2a565b60206040518083038186803b1580156115c857600080fd5b505afa1580156115dc573d6000803e3d6000fd5b505050506040513d601f19601f820116820180604052508101906116009190612a34565b9050606854816116109190613415565b9250505090565b6000801b600033905061162a8282611ab8565b61164b8273ffffffffffffffffffffffffffffffffffffffff16601461209d565b6116598460001c602061209d565b60405160200161166a929190612df0565b604051602081830303815290604052906116ba576040517f08c379a00000000000000000000000000000000000000000000000000000000081526004016116b19190613017565b60405180910390fd5b5082606560006101000a81548173ffffffffffffffffffffffffffffffffffffffff021916908373ffffffffffffffffffffffffffffffffffffffff160217905550505050565b606760149054906101000a900460ff1681565b6000603360009054906101000a900460ff16905090565b606e5481565b6000801b60003390506117448282611ab8565b6117658273ffffffffffffffffffffffffffffffffffffffff16601461209d565b6117738460001c602061209d565b604051602001611784929190612df0565b604051602081830303815290604052906117d4576040517f08c379a00000000000000000000000000000000000000000000000000000000081526004016117cb9190613017565b60405180910390fd5b50606760149054906101000a900460ff1615606760146101000a81548160ff0219169083151502179055507fbab7db190deaf2eccaf17b4e82ea10dce1e26f8a605ec9681ca8183b2de399fe606760149054906101000a900460ff1660405161183d9190612f96565b60405180910390a15050565b606b5481565b6000801b60003390506118628282611ab8565b6118838273ffffffffffffffffffffffffffffffffffffffff16601461209d565b6118918460001c602061209d565b6040516020016118a2929190612df0565b604051602081830303815290604052906118f2576040517f08c379a00000000000000000000000000000000000000000000000000000000081526004016118e99190613017565b60405180910390fd5b5082606e819055507f9fef908e44cc0f51b9e9f7fd26bc506a50448657da0dc10a9661e37bc1c4a392606954606a54606e5460405161193393929190613214565b60405180910390a1505050565b7f65d7a28e3265b37a6474929f336521b332c1681b933f6cb9f3376673440d862a60003390506119708282611ab8565b6119918273ffffffffffffffffffffffffffffffffffffffff16601461209d565b61199f8460001c602061209d565b6040516020016119b0929190612df0565b60405160208183030381529060405290611a00576040517f08c379a00000000000000000000000000000000000000000000000000000000081526004016119f79190613017565b60405180910390fd5b50611a09612771565b5050565b6000607060008373ffffffffffffffffffffffffffffffffffffffff1673ffffffffffffffffffffffffffffffffffffffff16815260200190815260200160002060030154431115611a625760009050611ab3565b43607060008473ffffffffffffffffffffffffffffffffffffffff1673ffffffffffffffffffffffffffffffffffffffff16815260200190815260200160002060030154611ab09190613415565b90505b919050565b600080606560009054906101000a900473ffffffffffffffffffffffffffffffffffffffff1690508073ffffffffffffffffffffffffffffffffffffffff166391d1485485856040518363ffffffff1660e01b8152600401611b1b929190612fcc565b60206040518083038186803b158015611b3357600080fd5b505afa158015611b47573d6000803e3d6000fd5b505050506040513d601f19601f82011682018060405250810190611b6b91906129a6565b91505092915050565b6000801b81565b60685481565b600080607060008473ffffffffffffffffffffffffffffffffffffffff1673ffffffffffffffffffffffffffffffffffffffff1681526020019081526020016000206040518060e00160405290816000820154815260200160018201548152602001600282015481526020016003820154815260200160048201548152602001600582015481526020016006820154815250509050600081606001514310611c2d578160800151611c73565b60008260c0015111611c43578160800151611c72565b8160c00151438360600151611c589190613415565b8360a00151611c6791906133bb565b611c71919061338a565b5b5b905081608001518111611c8a578160800151611c8c565b805b92505050919050565b606d5481565b606060003390506000607060008373ffffffffffffffffffffffffffffffffffffffff1673ffffffffffffffffffffffffffffffffffffffff168152602001908152602001600020600001549050611cf281610c0c565b6000808673ffffffffffffffffffffffffffffffffffffffff16848488604051602401611d2193929190612ece565b6040516020818303038152906040527f5f781329000000000000000000000000000000000000000000000000000000007bffffffffffffffffffffffffffffffffffffffffffffffffffffffff19166020820180517bffffffffffffffffffffffffffffffffffffffffffffffffffffffff8381831617835250505050604051611dab9190612dd9565b6000604051808303816000865af19150503d8060008114611de8576040519150601f19603f3d011682016040523d82523d6000602084013e611ded565b606091505b509150915081611e32576040517f08c379a0000000000000000000000000000000000000000000000000000000008152600401611e2990613079565b60405180910390fd5b8094505050505092915050565b6000801b6000339050611e528282611ab8565b611e738273ffffffffffffffffffffffffffffffffffffffff16601461209d565b611e818460001c602061209d565b604051602001611e92929190612df0565b60405160208183030381529060405290611ee2576040517f08c379a0000000000000000000000000000000000000000000000000000000008152600401611ed99190613017565b60405180910390fd5b506000606660009054906101000a900473ffffffffffffffffffffffffffffffffffffffff1690506000611f1461154d565b905060008111611f59576040517f08c379a0000000000000000000000000000000000000000000000000000000008152600401611f50906131d9565b60405180910390fd5b8173ffffffffffffffffffffffffffffffffffffffff1663a9059cbb86836040518363ffffffff1660e01b8152600401611f94929190612ea5565b602060405180830381600087803b158015611fae57600080fd5b505af1158015611fc2573d6000803e3d6000fd5b505050506040513d601f19601f82011682018060405250810190611fe691906129a6565b507fd43c97094d4b3522923f3751f896fb88ef95d5e1d310aea58b936625fd7c5d0c8582604051612018929190612ea5565b60405180910390a15050505050565b7f65d7a28e3265b37a6474929f336521b332c1681b933f6cb9f3376673440d862a81565b606760009054906101000a900473ffffffffffffffffffffffffffffffffffffffff1681565b606660009054906101000a900473ffffffffffffffffffffffffffffffffffffffff1681565b606f5481565b6060600060028360026120b091906133bb565b6120ba9190613334565b67ffffffffffffffff8111156120f9577f4e487b7100000000000000000000000000000000000000000000000000000000600052604160045260246000fd5b6040519080825280601f01601f19166020018201604052801561212b5781602001600182028036833780820191505090505b5090507f300000000000000000000000000000000000000000000000000000000000000081600081518110612189577f4e487b7100000000000000000000000000000000000000000000000000000000600052603260045260246000fd5b60200101907effffffffffffffffffffffffffffffffffffffffffffffffffffffffffffff1916908160001a9053507f780000000000000000000000000000000000000000000000000000000000000081600181518110612213577f4e487b7100000000000000000000000000000000000000000000000000000000600052603260045260246000fd5b60200101907effffffffffffffffffffffffffffffffffffffffffffffffffffffffffffff1916908160001a9053506000600184600261225391906133bb565b61225d9190613334565b90505b6001811115612349577f3031323334353637383961626364656600000000000000000000000000000000600f8616601081106122c5577f4e487b7100000000000000000000000000000000000000000000000000000000600052603260045260246000fd5b1a60f81b828281518110612302577f4e487b7100000000000000000000000000000000000000000000000000000000600052603260045260246000fd5b60200101907effffffffffffffffffffffffffffffffffffffffffffffffffffffffffffff1916908160001a905350600485901c945080612342906134dd565b9050612260565b506000841461238d576040517f08c379a000000000000000000000000000000000000000000000000000000000815260040161238490613039565b60405180910390fd5b8091505092915050565b606d5443116123a5576124ce565b6000606760009054906101000a900473ffffffffffffffffffffffffffffffffffffffff1690506000606c548273ffffffffffffffffffffffffffffffffffffffff1663ae7928bf306040518263ffffffff1660e01b815260040161240a9190612e2a565b60206040518083038186803b15801561242257600080fd5b505afa158015612436573d6000803e3d6000fd5b505050506040513d601f19601f8201168201806040525081019061245a9190612a34565b6124649190613415565b905080606c60008282546124789190613334565b92505081905550600060685411156124c457606854670de0b6b3a7640000826124a191906133bb565b6124ab919061338a565b606b60008282546124bc9190613334565b925050819055505b43606d8190555050505b565b6000607060008373ffffffffffffffffffffffffffffffffffffffff1673ffffffffffffffffffffffffffffffffffffffff168152602001908152602001600020905060008160010154606b546125279190613415565b9050670de0b6b3a764000082600001548261254291906133bb565b61254c919061338a565b8260020181905550606b548260010181905550505050565b6000606760009054906101000a900473ffffffffffffffffffffffffffffffffffffffff1690506000607060008473ffffffffffffffffffffffffffffffffffffffff1673ffffffffffffffffffffffffffffffffffffffff16815260200190815260200160002060020154905060008111156126ca576000607060008573ffffffffffffffffffffffffffffffffffffffff1673ffffffffffffffffffffffffffffffffffffffff168152602001908152602001600020600201819055508173ffffffffffffffffffffffffffffffffffffffff1663158a498884836040518363ffffffff1660e01b815260040161265e929190612ea5565b600060405180830381600087803b15801561267857600080fd5b505af115801561268c573d6000803e3d6000fd5b505050507fc083a1647e3ee591bf42b82564ffb4d16fdbb26068f0080da911c8d8300fd84a83826040516126c1929190612ea5565b60405180910390a15b505050565b6126d7611714565b612716576040517f08c379a000000000000000000000000000000000000000000000000000000000815260040161270d90613059565b60405180910390fd5b6000603360006101000a81548160ff0219169083151502179055507f5db9ee0a495bf2e6ff9c91a7834c1ba4fdd244a5e8aa4e537bd38aeae4b073aa61275a612814565b6040516127679190612e2a565b60405180910390a1565b612779611714565b156127b9576040517f08c379a00000000000000000000000000000000000000000000000000000000081526004016127b090613099565b60405180910390fd5b6001603360006101000a81548160ff0219169083151502179055507f62e78cea01bee320cd4e420270b5ea74000d11b0c9f74754ebdbfc544b05a2586127fd612814565b60405161280a9190612e2a565b60405180910390a1565b600033905090565b600061282f61282a846132b5565b613290565b90508281526020810184848401111561284757600080fd5b61285284828561349b565b509392505050565b60008135905061286981613a08565b92915050565b60008151905061287e81613a1f565b92915050565b60008135905061289381613a36565b92915050565b600082601f8301126128aa57600080fd5b81356128ba84826020860161281c565b91505092915050565b6000813590506128d281613a4d565b92915050565b6000815190506128e781613a4d565b92915050565b6000602082840312156128ff57600080fd5b600061290d8482850161285a565b91505092915050565b6000806040838503121561292957600080fd5b60006129378582860161285a565b925050602083013567ffffffffffffffff81111561295457600080fd5b61296085828601612899565b9150509250929050565b6000806040838503121561297d57600080fd5b600061298b8582860161285a565b925050602061299c858286016128c3565b9150509250929050565b6000602082840312156129b857600080fd5b60006129c68482850161286f565b91505092915050565b600080604083850312156129e257600080fd5b60006129f085828601612884565b9250506020612a018582860161285a565b9150509250929050565b600060208284031215612a1d57600080fd5b6000612a2b848285016128c3565b91505092915050565b600060208284031215612a4657600080fd5b6000612a54848285016128d8565b91505092915050565b60008060408385031215612a7057600080fd5b6000612a7e858286016128c3565b9250506020612a8f858286016128c3565b9150509250929050565b612aa281613449565b82525050565b612ab18161345b565b82525050565b612ac081613467565b82525050565b6000612ad1826132e6565b612adb81856132fc565b9350612aeb8185602086016134aa565b612af4816135c5565b840191505092915050565b6000612b0a826132e6565b612b14818561330d565b9350612b248185602086016134aa565b80840191505092915050565b6000612b3b826132f1565b612b458185613318565b9350612b558185602086016134aa565b612b5e816135c5565b840191505092915050565b6000612b74826132f1565b612b7e8185613329565b9350612b8e8185602086016134aa565b80840191505092915050565b6000612ba7602083613318565b9150612bb2826135d6565b602082019050919050565b6000612bca602483613329565b9150612bd5826135ff565b602482019050919050565b6000612bed601483613318565b9150612bf88261364e565b602082019050919050565b6000612c10602583613318565b9150612c1b82613677565b604082019050919050565b6000612c33601083613318565b9150612c3e826136c6565b602082019050919050565b6000612c56602983613318565b9150612c61826136ef565b604082019050919050565b6000612c79602c83613318565b9150612c848261373e565b604082019050919050565b6000612c9c603483613318565b9150612ca78261378d565b604082019050919050565b6000612cbf602983613318565b9150612cca826137dc565b604082019050919050565b6000612ce2603d83613318565b9150612ced8261382b565b604082019050919050565b6000612d05602983613318565b9150612d108261387a565b604082019050919050565b6000612d28602e83613318565b9150612d33826138c9565b604082019050919050565b6000612d4b602883613318565b9150612d5682613918565b604082019050919050565b6000612d6e602183613318565b9150612d7982613967565b604082019050919050565b6000612d91601183613329565b9150612d9c826139b6565b601182019050919050565b6000612db4602083613318565b9150612dbf826139df565b602082019050919050565b612dd381613491565b82525050565b6000612de58284612aff565b915081905092915050565b6000612dfb82612bbd565b9150612e078285612b69565b9150612e1282612d84565b9150612e1e8284612b69565b91508190509392505050565b6000602082019050612e3f6000830184612a99565b92915050565b6000604082019050612e5a6000830185612a99565b612e676020830184612a99565b9392505050565b6000606082019050612e836000830186612a99565b612e906020830185612a99565b612e9d6040830184612dca565b949350505050565b6000604082019050612eba6000830185612a99565b612ec76020830184612dca565b9392505050565b6000606082019050612ee36000830186612a99565b612ef06020830185612dca565b8181036040830152612f028184612ac6565b9050949350505050565b6000606082019050612f216000830186612a99565b612f2e6020830185612dca565b612f3b6040830184612dca565b949350505050565b600060a082019050612f586000830188612a99565b612f656020830187612dca565b612f726040830186612dca565b612f7f6060830185612dca565b612f8c6080830184612dca565b9695505050505050565b6000602082019050612fab6000830184612aa8565b92915050565b6000602082019050612fc66000830184612ab7565b92915050565b6000604082019050612fe16000830185612ab7565b612fee6020830184612a99565b9392505050565b6000602082019050818103600083015261300f8184612ac6565b905092915050565b600060208201905081810360008301526130318184612b30565b905092915050565b6000602082019050818103600083015261305281612b9a565b9050919050565b6000602082019050818103600083015261307281612be0565b9050919050565b6000602082019050818103600083015261309281612c03565b9050919050565b600060208201905081810360008301526130b281612c26565b9050919050565b600060208201905081810360008301526130d281612c49565b9050919050565b600060208201905081810360008301526130f281612c6c565b9050919050565b6000602082019050818103600083015261311281612c8f565b9050919050565b6000602082019050818103600083015261313281612cb2565b9050919050565b6000602082019050818103600083015261315281612cd5565b9050919050565b6000602082019050818103600083015261317281612cf8565b9050919050565b6000602082019050818103600083015261319281612d1b565b9050919050565b600060208201905081810360008301526131b281612d3e565b9050919050565b600060208201905081810360008301526131d281612d61565b9050919050565b600060208201905081810360008301526131f281612da7565b9050919050565b600060208201905061320e6000830184612dca565b92915050565b60006060820190506132296000830186612dca565b6132366020830185612dca565b6132436040830184612dca565b949350505050565b60006080820190506132606000830187612dca565b61326d6020830186612dca565b61327a6040830185612dca565b6132876060830184612dca565b95945050505050565b600061329a6132ab565b90506132a68282613507565b919050565b6000604051905090565b600067ffffffffffffffff8211156132d0576132cf613596565b5b6132d9826135c5565b9050602081019050919050565b600081519050919050565b600081519050919050565b600082825260208201905092915050565b600081905092915050565b600082825260208201905092915050565b600081905092915050565b600061333f82613491565b915061334a83613491565b9250827fffffffffffffffffffffffffffffffffffffffffffffffffffffffffffffffff0382111561337f5761337e613538565b5b828201905092915050565b600061339582613491565b91506133a083613491565b9250826133b0576133af613567565b5b828204905092915050565b60006133c682613491565b91506133d183613491565b9250817fffffffffffffffffffffffffffffffffffffffffffffffffffffffffffffffff048311821515161561340a57613409613538565b5b828202905092915050565b600061342082613491565b915061342b83613491565b92508282101561343e5761343d613538565b5b828203905092915050565b600061345482613471565b9050919050565b60008115159050919050565b6000819050919050565b600073ffffffffffffffffffffffffffffffffffffffff82169050919050565b6000819050919050565b82818337600083830152505050565b60005b838110156134c85780820151818401526020810190506134ad565b838111156134d7576000848401525b50505050565b60006134e882613491565b915060008214156134fc576134fb613538565b5b600182039050919050565b613510826135c5565b810181811067ffffffffffffffff8211171561352f5761352e613596565b5b80604052505050565b7f4e487b7100000000000000000000000000000000000000000000000000000000600052601160045260246000fd5b7f4e487b7100000000000000000000000000000000000000000000000000000000600052601260045260246000fd5b7f4e487b7100000000000000000000000000000000000000000000000000000000600052604160045260246000fd5b6000601f19601f8301169050919050565b7f537472696e67733a20686578206c656e67746820696e73756666696369656e74600082015250565b7f416363657373436f6e74726f6c50726f78795061757361626c653a206163636f60008201527f756e742000000000000000000000000000000000000000000000000000000000602082015250565b7f5061757361626c653a206e6f7420706175736564000000000000000000000000600082015250565b7f547574656c6c75735374616b696e673a206d6967726174696f6e20686173206660008201527f61696c6564000000000000000000000000000000000000000000000000000000602082015250565b7f5061757361626c653a2070617573656400000000000000000000000000000000600082015250565b7f547574656c6c75735374616b696e673a20616d6f756e74206d7573742062652060008201527f6f766572207a65726f0000000000000000000000000000000000000000000000602082015250565b7f547574656c6c75735374616b696e673a207573657220686173206e6f7420656e60008201527f6f7567682062616c616e63650000000000000000000000000000000000000000602082015250565b7f547574656c6c75735374616b696e673a207573657220686173206e6f7420656e60008201527f6f756768207374616b696e672062616c616e6365000000000000000000000000602082015250565b7f547574656c6c75735374616b696e673a20616d6f756e7420657863656564732060008201527f616c6c6f77616e63650000000000000000000000000000000000000000000000602082015250565b7f547574656c6c75735374616b696e673a206d696e696e756d20666565206d757360008201527f742062652067726561746572207468616e206d6178696d756d20666565000000602082015250565b7f547574656c6c75735374616b696e673a207769746864726177207472616e736660008201527f6572206661696c65640000000000000000000000000000000000000000000000602082015250565b7f547574656c6c75735374616b696e673a2066656573206d757374206265206c6560008201527f7373207468616e20313030653138000000000000000000000000000000000000602082015250565b7f547574656c6c75735374616b696e673a206465706f736974207472616e73666560008201527f72206661696c6564000000000000000000000000000000000000000000000000602082015250565b7f547574656c6c75735374616b696e673a206e6f7468696e6720746f20636c616960008201527f6d00000000000000000000000000000000000000000000000000000000000000602082015250565b7f206973206d697373696e6720726f6c6520000000000000000000000000000000600082015250565b7f547574656c6c75735374616b696e673a207468657265206973206e6f20676170600082015250565b613a1181613449565b8114613a1c57600080fd5b50565b613a288161345b565b8114613a3357600080fd5b50565b613a3f81613467565b8114613a4a57600080fd5b50565b613a5681613491565b8114613a6157600080fd5b5056fea26469706673582212207113006ec9b3298fdf5de523e5dd742015e47038d466d1d5326eed0fedf0692864736f6c63430008020033",
  "linkReferences": {},
  "deployedLinkReferences": {}
}