{
  "_format": "hh-sol-artifact-1",
  "contractName": "TutellusYieldRewardsVault",
  "sourceName": "contracts/TutellusYieldRewardsVault.sol",
  "abi": [
    {
      "inputs": [
        {
          "internalType": "address",
          "name": "rolemanager",
          "type": "address"
        },
        {
          "internalType": "address",
          "name": "token_",
          "type": "address"
        },
        {
          "internalType": "uint256",
          "name": "amount",
          "type": "uint256"
        },
        {
          "internalType": "uint256",
          "name": "blocks",
          "type": "uint256"
        }
      ],
      "stateMutability": "nonpayable",
      "type": "constructor"
    },
    {
      "anonymous": false,
      "inputs": [
        {
          "indexed": false,
          "internalType": "address",
          "name": "account",
          "type": "address"
        }
      ],
      "name": "Paused",
      "type": "event"
    },
    {
      "anonymous": false,
      "inputs": [
        {
          "indexed": false,
          "internalType": "address",
          "name": "account",
          "type": "address"
        }
      ],
      "name": "Unpaused",
      "type": "event"
    },
    {
      "inputs": [],
      "name": "DEFAULT_ADMIN_ROLE",
      "outputs": [
        {
          "internalType": "bytes32",
          "name": "",
          "type": "bytes32"
        }
      ],
      "stateMutability": "view",
      "type": "function"
    },
    {
      "inputs": [],
      "name": "PAUSER_ROLE",
      "outputs": [
        {
          "internalType": "bytes32",
          "name": "",
          "type": "bytes32"
        }
      ],
      "stateMutability": "view",
      "type": "function"
    },
    {
      "inputs": [
        {
          "internalType": "address",
          "name": "account",
          "type": "address"
        },
        {
          "internalType": "uint256[]",
          "name": "allocation",
          "type": "uint256[]"
        }
      ],
      "name": "add",
      "outputs": [],
      "stateMutability": "nonpayable",
      "type": "function"
    },
    {
      "inputs": [
        {
          "internalType": "address",
          "name": "account",
          "type": "address"
        }
      ],
      "name": "availableId",
      "outputs": [
        {
          "internalType": "uint256",
          "name": "",
          "type": "uint256"
        }
      ],
      "stateMutability": "view",
      "type": "function"
    },
    {
      "inputs": [
        {
          "internalType": "address",
          "name": "account",
          "type": "address"
        },
        {
          "internalType": "uint256",
          "name": "amount",
          "type": "uint256"
        }
      ],
      "name": "distributeTokens",
      "outputs": [],
      "stateMutability": "nonpayable",
      "type": "function"
    },
    {
      "inputs": [],
      "name": "pause",
      "outputs": [],
      "stateMutability": "nonpayable",
      "type": "function"
    },
    {
      "inputs": [],
      "name": "paused",
      "outputs": [
        {
          "internalType": "bool",
          "name": "",
          "type": "bool"
        }
      ],
      "stateMutability": "view",
      "type": "function"
    },
    {
      "inputs": [],
      "name": "released",
      "outputs": [
        {
          "internalType": "uint256",
          "name": "",
          "type": "uint256"
        }
      ],
      "stateMutability": "view",
      "type": "function"
    },
    {
      "inputs": [
        {
          "internalType": "address",
          "name": "account",
          "type": "address"
        }
      ],
      "name": "releasedId",
      "outputs": [
        {
          "internalType": "uint256",
          "name": "",
          "type": "uint256"
        }
      ],
      "stateMutability": "view",
      "type": "function"
    },
    {
      "inputs": [
        {
          "internalType": "uint256",
          "name": "from",
          "type": "uint256"
        },
        {
          "internalType": "uint256",
          "name": "to",
          "type": "uint256"
        }
      ],
      "name": "releasedRange",
      "outputs": [
        {
          "internalType": "uint256",
          "name": "",
          "type": "uint256"
        }
      ],
      "stateMutability": "view",
      "type": "function"
    },
    {
      "inputs": [],
      "name": "token",
      "outputs": [
        {
          "internalType": "address",
          "name": "",
          "type": "address"
        }
      ],
      "stateMutability": "view",
      "type": "function"
    },
    {
      "inputs": [],
      "name": "unpause",
      "outputs": [],
      "stateMutability": "nonpayable",
      "type": "function"
    },
    {
      "inputs": [
        {
          "internalType": "uint256[]",
          "name": "allocation",
          "type": "uint256[]"
        }
      ],
      "name": "updateAllocation",
      "outputs": [],
      "stateMutability": "nonpayable",
      "type": "function"
    },
    {
      "inputs": [
        {
          "internalType": "address",
          "name": "manager",
          "type": "address"
        }
      ],
      "name": "updateManager",
      "outputs": [],
      "stateMutability": "nonpayable",
      "type": "function"
    }
  ],
  "bytecode": "0x60806040523480156200001157600080fd5b5060405162002ed338038062002ed38339818101604052810190620000379190620007f2565b6200004b848484846200005560201b60201c565b5050505062000c7f565b600060019054906101000a900460ff16806200007c575060008054906101000a900460ff16155b620000be576040517f08c379a0000000000000000000000000000000000000000000000000000000008152600401620000b59062000885565b60405180910390fd5b60008060019054906101000a900460ff1615905080156200010f576001600060016101000a81548160ff02191690831515021790555060016000806101000a81548160ff0219169083151502179055505b62000120856200015c60201b60201c565b620001338484846200025d60201b60201c565b8015620001555760008060016101000a81548160ff0219169083151502179055505b5050505050565b600060019054906101000a900460ff168062000183575060008054906101000a900460ff16155b620001c5576040517f08c379a0000000000000000000000000000000000000000000000000000000008152600401620001bc9062000885565b60405180910390fd5b60008060019054906101000a900460ff16159050801562000216576001600060016101000a81548160ff02191690831515021790555060016000806101000a81548160ff0219169083151502179055505b62000226620003cb60201b60201c565b6200023782620004ca60201b60201c565b8015620002595760008060016101000a81548160ff0219169083151502179055505b5050565b600060019054906101000a900460ff168062000284575060008054906101000a900460ff16155b620002c6576040517f08c379a0000000000000000000000000000000000000000000000000000000008152600401620002bd9062000885565b60405180910390fd5b60008060019054906101000a900460ff16159050801562000317576001600060016101000a81548160ff02191690831515021790555060016000806101000a81548160ff0219169083151502179055505b83607060006101000a81548173ffffffffffffffffffffffffffffffffffffffff021916908373ffffffffffffffffffffffffffffffffffffffff16021790555043606c8190555081436200036d9190620008b8565b606d81905550600282620003829190620009a8565b83600262000391919062000ae5565b6200039d919062000915565b606e819055508015620003c55760008060016101000a81548160ff0219169083151502179055505b50505050565b600060019054906101000a900460ff1680620003f2575060008054906101000a900460ff16155b62000434576040517f08c379a00000000000000000000000000000000000000000000000000000000081526004016200042b9062000885565b60405180910390fd5b60008060019054906101000a900460ff16159050801562000485576001600060016101000a81548160ff02191690831515021790555060016000806101000a81548160ff0219169083151502179055505b62000495620005eb60201b60201c565b620004a5620006ca60201b60201c565b8015620004c75760008060016101000a81548160ff0219169083151502179055505b50565b600060019054906101000a900460ff1680620004f1575060008054906101000a900460ff16155b62000533576040517f08c379a00000000000000000000000000000000000000000000000000000000081526004016200052a9062000885565b60405180910390fd5b60008060019054906101000a900460ff16159050801562000584576001600060016101000a81548160ff02191690831515021790555060016000806101000a81548160ff0219169083151502179055505b81606560006101000a81548173ffffffffffffffffffffffffffffffffffffffff021916908373ffffffffffffffffffffffffffffffffffffffff1602179055508015620005e75760008060016101000a81548160ff0219169083151502179055505b5050565b600060019054906101000a900460ff168062000612575060008054906101000a900460ff16155b62000654576040517f08c379a00000000000000000000000000000000000000000000000000000000081526004016200064b9062000885565b60405180910390fd5b60008060019054906101000a900460ff161590508015620006a5576001600060016101000a81548160ff02191690831515021790555060016000806101000a81548160ff0219169083151502179055505b8015620006c75760008060016101000a81548160ff0219169083151502179055505b50565b600060019054906101000a900460ff1680620006f1575060008054906101000a900460ff16155b62000733576040517f08c379a00000000000000000000000000000000000000000000000000000000081526004016200072a9062000885565b60405180910390fd5b60008060019054906101000a900460ff16159050801562000784576001600060016101000a81548160ff02191690831515021790555060016000806101000a81548160ff0219169083151502179055505b6000603360006101000a81548160ff0219169083151502179055508015620007c15760008060016101000a81548160ff0219169083151502179055505b50565b600081519050620007d58162000c4b565b92915050565b600081519050620007ec8162000c65565b92915050565b600080600080608085870312156200080957600080fd5b60006200081987828801620007c4565b94505060206200082c87828801620007c4565b93505060406200083f87828801620007db565b92505060606200085287828801620007db565b91505092959194509250565b60006200086d602e83620008a7565b91506200087a8262000bfc565b604082019050919050565b60006020820190508181036000830152620008a0816200085e565b9050919050565b600082825260208201905092915050565b6000620008c58262000b7a565b9150620008d28362000b7a565b9250827fffffffffffffffffffffffffffffffffffffffffffffffffffffffffffffffff038211156200090a576200090962000b91565b5b828201905092915050565b6000620009228262000b7a565b91506200092f8362000b7a565b92508262000942576200094162000bc0565b5b828204905092915050565b6000808291508390505b60018511156200099f5780860481111562000977576200097662000b91565b5b6001851615620009875780820291505b8081029050620009978562000bef565b945062000957565b94509492505050565b6000620009b58262000b7a565b9150620009c28362000b84565b9250620009f17fffffffffffffffffffffffffffffffffffffffffffffffffffffffffffffffff8484620009f9565b905092915050565b60008262000a0b576001905062000ade565b8162000a1b576000905062000ade565b816001811462000a34576002811462000a3f5762000a75565b600191505062000ade565b60ff84111562000a545762000a5362000b91565b5b8360020a91508482111562000a6e5762000a6d62000b91565b5b5062000ade565b5060208310610133831016604e8410600b841016171562000aaf5782820a90508381111562000aa95762000aa862000b91565b5b62000ade565b62000abe84848460016200094d565b9250905081840481111562000ad85762000ad762000b91565b5b81810290505b9392505050565b600062000af28262000b7a565b915062000aff8362000b7a565b9250817fffffffffffffffffffffffffffffffffffffffffffffffffffffffffffffffff048311821515161562000b3b5762000b3a62000b91565b5b828202905092915050565b600062000b538262000b5a565b9050919050565b600073ffffffffffffffffffffffffffffffffffffffff82169050919050565b6000819050919050565b600060ff82169050919050565b7f4e487b7100000000000000000000000000000000000000000000000000000000600052601160045260246000fd5b7f4e487b7100000000000000000000000000000000000000000000000000000000600052601260045260246000fd5b60008160011c9050919050565b7f496e697469616c697a61626c653a20636f6e747261637420697320616c72656160008201527f647920696e697469616c697a6564000000000000000000000000000000000000602082015250565b62000c568162000b46565b811462000c6257600080fd5b50565b62000c708162000b7a565b811462000c7c57600080fd5b50565b6122448062000c8f6000396000f3fe608060405234801561001057600080fd5b50600436106100ea5760003560e01c80638456cb591161008c578063ae7928bf11610066578063ae7928bf14610211578063cccc9a9214610241578063e63ab1e91461025d578063fc0c546a1461027b576100ea565b80638456cb59146101cb57806396132521146101d5578063a217fddf146101f3576100ea565b80633f4ba83a116100c85780633f4ba83a1461015757806358aba00f146101615780635c975abb1461017d5780636867aac51461019b576100ea565b8063158a4988146100ef5780631d444d301461010b57806337cb9e671461013b575b600080fd5b610109600480360381019061010491906115b2565b610299565b005b61012560048036038101906101209190611535565b610407565b6040516101329190611a54565b60405180910390f35b610155600480360381019061015091906115ee565b610476565b005b61015f610780565b005b61017b60048036038101906101769190611535565b6108f6565b005b610185610a89565b60405161019291906118f3565b60405180910390f35b6101b560048036038101906101b09190611658565b610aa0565b6040516101c29190611a54565b60405180910390f35b6101d3610b86565b005b6101dd610cfc565b6040516101ea9190611a54565b60405180910390f35b6101fb610d0f565b604051610208919061190e565b60405180910390f35b61022b60048036038101906102269190611535565b610d16565b6040516102389190611a54565b60405180910390f35b61025b6004803603810190610256919061155e565b610dbf565b005b610265610fcf565b604051610272919061190e565b60405180910390f35b610283610ff3565b60405161029091906118af565b60405180910390f35b6102a282610407565b8111156102e4576040517f08c379a00000000000000000000000000000000000000000000000000000000081526004016102db90611a34565b60405180910390fd5b80606a6000606660003373ffffffffffffffffffffffffffffffffffffffff1673ffffffffffffffffffffffffffffffffffffffff16815260200190815260200160002054815260200190815260200160002060008282546103469190611ae7565b925050819055506000607060009054906101000a900473ffffffffffffffffffffffffffffffffffffffff1690508073ffffffffffffffffffffffffffffffffffffffff1663a9059cbb84846040518363ffffffff1660e01b81526004016103af9291906118ca565b602060405180830381600087803b1580156103c957600080fd5b505af11580156103dd573d6000803e3d6000fd5b505050506040513d601f19601f82011682018060405250810190610401919061162f565b50505050565b6000606a6000606660008573ffffffffffffffffffffffffffffffffffffffff1673ffffffffffffffffffffffffffffffffffffffff1681526020019081526020016000205481526020019081526020016000205461046583610d16565b61046f9190611d39565b9050919050565b6000801b6000606560009054906101000a900473ffffffffffffffffffffffffffffffffffffffff16905060003390508173ffffffffffffffffffffffffffffffffffffffff166391d1485484836040518363ffffffff1660e01b81526004016104e1929190611929565b60206040518083038186803b1580156104f957600080fd5b505afa15801561050d573d6000803e3d6000fd5b505050506040513d601f19601f82011682018060405250810190610531919061162f565b6105528273ffffffffffffffffffffffffffffffffffffffff166014611019565b6105608560001c6020611019565b604051602001610571929190611875565b604051602081830303815290604052906105c1576040517f08c379a00000000000000000000000000000000000000000000000000000000081526004016105b89190611952565b60405180910390fd5b5060008085519050606f54811461060d576040517f08c379a000000000000000000000000000000000000000000000000000000000815260040161060490611a14565b60405180910390fd5b60005b8181101561072457868181518110610651577f4e487b7100000000000000000000000000000000000000000000000000000000600052603260045260246000fd5b602002602001015160686000838152602001908152602001600020819055506106ac6067600083815260200190815260200160002060009054906101000a900473ffffffffffffffffffffffffffffffffffffffff16610d16565b60696000838152602001908152602001600020819055508681815181106106fc577f4e487b7100000000000000000000000000000000000000000000000000000000600052603260045260246000fd5b60200260200101518361070f9190611ae7565b9250808061071c90611e5a565b915050610610565b5043606b8190555068056bc75e2d63100000821115610778576040517f08c379a000000000000000000000000000000000000000000000000000000000815260040161076f906119d4565b60405180910390fd5b505050505050565b7f65d7a28e3265b37a6474929f336521b332c1681b933f6cb9f3376673440d862a6000606560009054906101000a900473ffffffffffffffffffffffffffffffffffffffff16905060003390508173ffffffffffffffffffffffffffffffffffffffff166391d1485484836040518363ffffffff1660e01b8152600401610808929190611929565b60206040518083038186803b15801561082057600080fd5b505afa158015610834573d6000803e3d6000fd5b505050506040513d601f19601f82011682018060405250810190610858919061162f565b6108798273ffffffffffffffffffffffffffffffffffffffff166014611019565b6108878560001c6020611019565b604051602001610898929190611875565b604051602081830303815290604052906108e8576040517f08c379a00000000000000000000000000000000000000000000000000000000081526004016108df9190611952565b60405180910390fd5b506108f1611313565b505050565b6000801b6000606560009054906101000a900473ffffffffffffffffffffffffffffffffffffffff16905060003390508173ffffffffffffffffffffffffffffffffffffffff166391d1485484836040518363ffffffff1660e01b8152600401610961929190611929565b60206040518083038186803b15801561097957600080fd5b505afa15801561098d573d6000803e3d6000fd5b505050506040513d601f19601f820116820180604052508101906109b1919061162f565b6109d28273ffffffffffffffffffffffffffffffffffffffff166014611019565b6109e08560001c6020611019565b6040516020016109f1929190611875565b60405160208183030381529060405290610a41576040517f08c379a0000000000000000000000000000000000000000000000000000000008152600401610a389190611952565b60405180910390fd5b5083606560006101000a81548173ffffffffffffffffffffffffffffffffffffffff021916908373ffffffffffffffffffffffffffffffffffffffff16021790555050505050565b6000603360009054906101000a900460ff16905090565b6000818310610ae4576040517f08c379a0000000000000000000000000000000000000000000000000000000008152600401610adb90611994565b60405180910390fd5b606d54821115610af457606d5491505b606c54831015610b0457606c5492505b6000600280606c5485610b179190611d39565b610b219190611bc1565b606e54610b2e9190611cdf565b610b389190611b3d565b90506000600280606c5487610b4d9190611d39565b610b579190611bc1565b606e54610b649190611cdf565b610b6e9190611b3d565b90508082610b7c9190611d39565b9250505092915050565b7f65d7a28e3265b37a6474929f336521b332c1681b933f6cb9f3376673440d862a6000606560009054906101000a900473ffffffffffffffffffffffffffffffffffffffff16905060003390508173ffffffffffffffffffffffffffffffffffffffff166391d1485484836040518363ffffffff1660e01b8152600401610c0e929190611929565b60206040518083038186803b158015610c2657600080fd5b505afa158015610c3a573d6000803e3d6000fd5b505050506040513d601f19601f82011682018060405250810190610c5e919061162f565b610c7f8273ffffffffffffffffffffffffffffffffffffffff166014611019565b610c8d8560001c6020611019565b604051602001610c9e929190611875565b60405160208183030381529060405290610cee576040517f08c379a0000000000000000000000000000000000000000000000000000000008152600401610ce59190611952565b60405180910390fd5b50610cf76113b5565b505050565b6000610d0a43606c54610aa0565b905090565b6000801b81565b600080606660008473ffffffffffffffffffffffffffffffffffffffff1673ffffffffffffffffffffffffffffffffffffffff16815260200190815260200160002054905068056bc75e2d631000006068600083815260200190815260200160002054610d8543606b54610aa0565b610d8f9190611cdf565b610d999190611b3d565b6069600083815260200190815260200160002054610db79190611ae7565b915050919050565b6000801b6000606560009054906101000a900473ffffffffffffffffffffffffffffffffffffffff16905060003390508173ffffffffffffffffffffffffffffffffffffffff166391d1485484836040518363ffffffff1660e01b8152600401610e2a929190611929565b60206040518083038186803b158015610e4257600080fd5b505afa158015610e56573d6000803e3d6000fd5b505050506040513d601f19601f82011682018060405250810190610e7a919061162f565b610e9b8273ffffffffffffffffffffffffffffffffffffffff166014611019565b610ea98560001c6020611019565b604051602001610eba929190611875565b60405160208183030381529060405290610f0a576040517f08c379a0000000000000000000000000000000000000000000000000000000008152600401610f019190611952565b60405180910390fd5b50606f54606660008773ffffffffffffffffffffffffffffffffffffffff1673ffffffffffffffffffffffffffffffffffffffff168152602001908152602001600020819055508460676000606f54815260200190815260200160002060006101000a81548173ffffffffffffffffffffffffffffffffffffffff021916908373ffffffffffffffffffffffffffffffffffffffff1602179055506001606f6000828254610fb89190611ae7565b92505081905550610fc884610476565b5050505050565b7f65d7a28e3265b37a6474929f336521b332c1681b933f6cb9f3376673440d862a81565b607060009054906101000a900473ffffffffffffffffffffffffffffffffffffffff1681565b60606000600283600261102c9190611cdf565b6110369190611ae7565b67ffffffffffffffff811115611075577f4e487b7100000000000000000000000000000000000000000000000000000000600052604160045260246000fd5b6040519080825280601f01601f1916602001820160405280156110a75781602001600182028036833780820191505090505b5090507f300000000000000000000000000000000000000000000000000000000000000081600081518110611105577f4e487b7100000000000000000000000000000000000000000000000000000000600052603260045260246000fd5b60200101907effffffffffffffffffffffffffffffffffffffffffffffffffffffffffffff1916908160001a9053507f78000000000000000000000000000000000000000000000000000000000000008160018151811061118f577f4e487b7100000000000000000000000000000000000000000000000000000000600052603260045260246000fd5b60200101907effffffffffffffffffffffffffffffffffffffffffffffffffffffffffffff1916908160001a905350600060018460026111cf9190611cdf565b6111d99190611ae7565b90505b60018111156112c5577f3031323334353637383961626364656600000000000000000000000000000000600f861660108110611241577f4e487b7100000000000000000000000000000000000000000000000000000000600052603260045260246000fd5b1a60f81b82828151811061127e577f4e487b7100000000000000000000000000000000000000000000000000000000600052603260045260246000fd5b60200101907effffffffffffffffffffffffffffffffffffffffffffffffffffffffffffff1916908160001a905350600485901c9450806112be90611dff565b90506111dc565b5060008414611309576040517f08c379a000000000000000000000000000000000000000000000000000000000815260040161130090611974565b60405180910390fd5b8091505092915050565b61131b610a89565b61135a576040517f08c379a0000000000000000000000000000000000000000000000000000000008152600401611351906119b4565b60405180910390fd5b6000603360006101000a81548160ff0219169083151502179055507f5db9ee0a495bf2e6ff9c91a7834c1ba4fdd244a5e8aa4e537bd38aeae4b073aa61139e611458565b6040516113ab91906118af565b60405180910390a1565b6113bd610a89565b156113fd576040517f08c379a00000000000000000000000000000000000000000000000000000000081526004016113f4906119f4565b60405180910390fd5b6001603360006101000a81548160ff0219169083151502179055507f62e78cea01bee320cd4e420270b5ea74000d11b0c9f74754ebdbfc544b05a258611441611458565b60405161144e91906118af565b60405180910390a1565b600033905090565b600061147361146e84611a94565b611a6f565b9050808382526020820190508285602086028201111561149257600080fd5b60005b858110156114c257816114a88882611520565b845260208401935060208301925050600181019050611495565b5050509392505050565b6000813590506114db816121c9565b92915050565b600082601f8301126114f257600080fd5b8135611502848260208601611460565b91505092915050565b60008151905061151a816121e0565b92915050565b60008135905061152f816121f7565b92915050565b60006020828403121561154757600080fd5b6000611555848285016114cc565b91505092915050565b6000806040838503121561157157600080fd5b600061157f858286016114cc565b925050602083013567ffffffffffffffff81111561159c57600080fd5b6115a8858286016114e1565b9150509250929050565b600080604083850312156115c557600080fd5b60006115d3858286016114cc565b92505060206115e485828601611520565b9150509250929050565b60006020828403121561160057600080fd5b600082013567ffffffffffffffff81111561161a57600080fd5b611626848285016114e1565b91505092915050565b60006020828403121561164157600080fd5b600061164f8482850161150b565b91505092915050565b6000806040838503121561166b57600080fd5b600061167985828601611520565b925050602061168a85828601611520565b9150509250929050565b61169d81611d6d565b82525050565b6116ac81611d7f565b82525050565b6116bb81611d8b565b82525050565b60006116cc82611ac0565b6116d68185611acb565b93506116e6818560208601611dcc565b6116ef81611f30565b840191505092915050565b600061170582611ac0565b61170f8185611adc565b935061171f818560208601611dcc565b80840191505092915050565b6000611738602083611acb565b915061174382611f4e565b602082019050919050565b600061175b603c83611acb565b915061176682611f77565b604082019050919050565b600061177e602483611adc565b915061178982611fc6565b602482019050919050565b60006117a1601483611acb565b91506117ac82612015565b602082019050919050565b60006117c4604183611acb565b91506117cf8261203e565b606082019050919050565b60006117e7601083611acb565b91506117f2826120b3565b602082019050919050565b600061180a605783611acb565b9150611815826120dc565b606082019050919050565b600061182d601183611adc565b915061183882612151565b601182019050919050565b6000611850603383611acb565b915061185b8261217a565b604082019050919050565b61186f81611db5565b82525050565b600061188082611771565b915061188c82856116fa565b915061189782611820565b91506118a382846116fa565b91508190509392505050565b60006020820190506118c46000830184611694565b92915050565b60006040820190506118df6000830185611694565b6118ec6020830184611866565b9392505050565b600060208201905061190860008301846116a3565b92915050565b600060208201905061192360008301846116b2565b92915050565b600060408201905061193e60008301856116b2565b61194b6020830184611694565b9392505050565b6000602082019050818103600083015261196c81846116c1565b905092915050565b6000602082019050818103600083015261198d8161172b565b9050919050565b600060208201905081810360008301526119ad8161174e565b9050919050565b600060208201905081810360008301526119cd81611794565b9050919050565b600060208201905081810360008301526119ed816117b7565b9050919050565b60006020820190508181036000830152611a0d816117da565b9050919050565b60006020820190508181036000830152611a2d816117fd565b9050919050565b60006020820190508181036000830152611a4d81611843565b9050919050565b6000602082019050611a696000830184611866565b92915050565b6000611a79611a8a565b9050611a858282611e29565b919050565b6000604051905090565b600067ffffffffffffffff821115611aaf57611aae611f01565b5b602082029050602081019050919050565b600081519050919050565b600082825260208201905092915050565b600081905092915050565b6000611af282611db5565b9150611afd83611db5565b9250827fffffffffffffffffffffffffffffffffffffffffffffffffffffffffffffffff03821115611b3257611b31611ea3565b5b828201905092915050565b6000611b4882611db5565b9150611b5383611db5565b925082611b6357611b62611ed2565b5b828204905092915050565b6000808291508390505b6001851115611bb857808604811115611b9457611b93611ea3565b5b6001851615611ba35780820291505b8081029050611bb185611f41565b9450611b78565b94509492505050565b6000611bcc82611db5565b9150611bd783611dbf565b9250611c047fffffffffffffffffffffffffffffffffffffffffffffffffffffffffffffffff8484611c0c565b905092915050565b600082611c1c5760019050611cd8565b81611c2a5760009050611cd8565b8160018114611c405760028114611c4a57611c79565b6001915050611cd8565b60ff841115611c5c57611c5b611ea3565b5b8360020a915084821115611c7357611c72611ea3565b5b50611cd8565b5060208310610133831016604e8410600b8410161715611cae5782820a905083811115611ca957611ca8611ea3565b5b611cd8565b611cbb8484846001611b6e565b92509050818404811115611cd257611cd1611ea3565b5b81810290505b9392505050565b6000611cea82611db5565b9150611cf583611db5565b9250817fffffffffffffffffffffffffffffffffffffffffffffffffffffffffffffffff0483118215151615611d2e57611d2d611ea3565b5b828202905092915050565b6000611d4482611db5565b9150611d4f83611db5565b925082821015611d6257611d61611ea3565b5b828203905092915050565b6000611d7882611d95565b9050919050565b60008115159050919050565b6000819050919050565b600073ffffffffffffffffffffffffffffffffffffffff82169050919050565b6000819050919050565b600060ff82169050919050565b60005b83811015611dea578082015181840152602081019050611dcf565b83811115611df9576000848401525b50505050565b6000611e0a82611db5565b91506000821415611e1e57611e1d611ea3565b5b600182039050919050565b611e3282611f30565b810181811067ffffffffffffffff82111715611e5157611e50611f01565b5b80604052505050565b6000611e6582611db5565b91507fffffffffffffffffffffffffffffffffffffffffffffffffffffffffffffffff821415611e9857611e97611ea3565b5b600182019050919050565b7f4e487b7100000000000000000000000000000000000000000000000000000000600052601160045260246000fd5b7f4e487b7100000000000000000000000000000000000000000000000000000000600052601260045260246000fd5b7f4e487b7100000000000000000000000000000000000000000000000000000000600052604160045260246000fd5b6000601f19601f8301169050919050565b60008160011c9050919050565b7f537472696e67733a20686578206c656e67746820696e73756666696369656e74600082015250565b7f547574656c6c75735969656c64547574656c6c75735969656c6452657761726460008201527f73746f6b656e3a207b66726f6d7d206973206166746572207b746f7d00000000602082015250565b7f416363657373436f6e74726f6c50726f78795061757361626c653a206163636f60008201527f756e742000000000000000000000000000000000000000000000000000000000602082015250565b7f5061757361626c653a206e6f7420706175736564000000000000000000000000600082015250565b7f547574656c6c75735969656c64526577617264735661756c743a20616c6c6f6360008201527f6174696f6e2073756d206d757374206265206c6f776572207468616e2031653260208201527f3000000000000000000000000000000000000000000000000000000000000000604082015250565b7f5061757361626c653a2070617573656400000000000000000000000000000000600082015250565b7f547574656c6c75735969656c64526577617264735661756c743a20616c6c6f6360008201527f6174696f6e206172726179206d75737420686176652073616d65206c656e677460208201527f68206173206e756d626572206f66206163636f756e7473000000000000000000604082015250565b7f206973206d697373696e6720726f6c6520000000000000000000000000000000600082015250565b7f547574656c6c75735969656c64526577617264735661756c743a20616d6f756e60008201527f74206578636565647320617661696c61626c6500000000000000000000000000602082015250565b6121d281611d6d565b81146121dd57600080fd5b50565b6121e981611d7f565b81146121f457600080fd5b50565b61220081611db5565b811461220b57600080fd5b5056fea2646970667358221220c0b7fdfa070d4fb5a22536e4c434a7e976f8cb05a8fe9ffbf6237b7fe7dc91f764736f6c63430008020033",
  "linkReferences": {},
  "deployedLinkReferences": {}
}