{
  "_format": "hh-sol-artifact-1",
  "contractName": "StakingVault",
  "sourceName": "contracts/StakingVault.sol",
  "abi": [
    {
      "anonymous": false,
      "inputs": [
        {
          "indexed": false,
          "internalType": "address",
          "name": "account",
          "type": "address"
        }
      ],
      "name": "Claim",
      "type": "event"
    },
    {
      "anonymous": false,
      "inputs": [
        {
          "indexed": false,
          "internalType": "address",
          "name": "account",
          "type": "address"
        },
        {
          "indexed": false,
          "internalType": "uint256",
          "name": "amount",
          "type": "uint256"
        }
      ],
      "name": "Deposit",
      "type": "event"
    },
    {
      "anonymous": false,
      "inputs": [
        {
          "indexed": false,
          "internalType": "address",
          "name": "account",
          "type": "address"
        }
      ],
      "name": "Paused",
      "type": "event"
    },
    {
      "anonymous": false,
      "inputs": [
        {
          "indexed": false,
          "internalType": "address",
          "name": "account",
          "type": "address"
        },
        {
          "indexed": false,
          "internalType": "uint256",
          "name": "amount",
          "type": "uint256"
        }
      ],
      "name": "Rewards",
      "type": "event"
    },
    {
      "anonymous": false,
      "inputs": [
        {
          "indexed": true,
          "internalType": "bytes32",
          "name": "role",
          "type": "bytes32"
        },
        {
          "indexed": true,
          "internalType": "bytes32",
          "name": "previousAdminRole",
          "type": "bytes32"
        },
        {
          "indexed": true,
          "internalType": "bytes32",
          "name": "newAdminRole",
          "type": "bytes32"
        }
      ],
      "name": "RoleAdminChanged",
      "type": "event"
    },
    {
      "anonymous": false,
      "inputs": [
        {
          "indexed": true,
          "internalType": "bytes32",
          "name": "role",
          "type": "bytes32"
        },
        {
          "indexed": true,
          "internalType": "address",
          "name": "account",
          "type": "address"
        },
        {
          "indexed": true,
          "internalType": "address",
          "name": "sender",
          "type": "address"
        }
      ],
      "name": "RoleGranted",
      "type": "event"
    },
    {
      "anonymous": false,
      "inputs": [
        {
          "indexed": true,
          "internalType": "bytes32",
          "name": "role",
          "type": "bytes32"
        },
        {
          "indexed": true,
          "internalType": "address",
          "name": "account",
          "type": "address"
        },
        {
          "indexed": true,
          "internalType": "address",
          "name": "sender",
          "type": "address"
        }
      ],
      "name": "RoleRevoked",
      "type": "event"
    },
    {
      "anonymous": false,
      "inputs": [
        {
          "indexed": false,
          "internalType": "address",
          "name": "account",
          "type": "address"
        },
        {
          "indexed": false,
          "internalType": "uint256",
          "name": "gap",
          "type": "uint256"
        }
      ],
      "name": "SyncBalance",
      "type": "event"
    },
    {
      "anonymous": false,
      "inputs": [
        {
          "indexed": false,
          "internalType": "bool",
          "name": "autoreward",
          "type": "bool"
        }
      ],
      "name": "ToggleAutoreward",
      "type": "event"
    },
    {
      "anonymous": false,
      "inputs": [
        {
          "indexed": false,
          "internalType": "address",
          "name": "account",
          "type": "address"
        }
      ],
      "name": "Unpaused",
      "type": "event"
    },
    {
      "anonymous": false,
      "inputs": [
        {
          "indexed": false,
          "internalType": "uint256",
          "name": "balance",
          "type": "uint256"
        },
        {
          "indexed": false,
          "internalType": "uint256",
          "name": "accRewardsPerShare",
          "type": "uint256"
        },
        {
          "indexed": false,
          "internalType": "uint256",
          "name": "lastUpdate",
          "type": "uint256"
        },
        {
          "indexed": false,
          "internalType": "uint256",
          "name": "stakers",
          "type": "uint256"
        }
      ],
      "name": "Update",
      "type": "event"
    },
    {
      "anonymous": false,
      "inputs": [
        {
          "indexed": false,
          "internalType": "uint256",
          "name": "endBlock",
          "type": "uint256"
        }
      ],
      "name": "UpdateEndBlock",
      "type": "event"
    },
    {
      "anonymous": false,
      "inputs": [
        {
          "indexed": false,
          "internalType": "uint256",
          "name": "minFee",
          "type": "uint256"
        },
        {
          "indexed": false,
          "internalType": "uint256",
          "name": "maxFee",
          "type": "uint256"
        },
        {
          "indexed": false,
          "internalType": "uint256",
          "name": "feeInterval",
          "type": "uint256"
        }
      ],
      "name": "UpdateFees",
      "type": "event"
    },
    {
      "anonymous": false,
      "inputs": [
        {
          "indexed": false,
          "internalType": "address",
          "name": "account",
          "type": "address"
        },
        {
          "indexed": false,
          "internalType": "uint256",
          "name": "amount",
          "type": "uint256"
        },
        {
          "indexed": false,
          "internalType": "uint256",
          "name": "rewardDebt",
          "type": "uint256"
        },
        {
          "indexed": false,
          "internalType": "uint256",
          "name": "notClaimed",
          "type": "uint256"
        },
        {
          "indexed": false,
          "internalType": "uint256",
          "name": "endInterval",
          "type": "uint256"
        }
      ],
      "name": "UpdateUserInfo",
      "type": "event"
    },
    {
      "anonymous": false,
      "inputs": [
        {
          "indexed": false,
          "internalType": "address",
          "name": "vault",
          "type": "address"
        }
      ],
      "name": "UpdateVault",
      "type": "event"
    },
    {
      "anonymous": false,
      "inputs": [
        {
          "indexed": false,
          "internalType": "address",
          "name": "account",
          "type": "address"
        },
        {
          "indexed": false,
          "internalType": "uint256",
          "name": "amount",
          "type": "uint256"
        },
        {
          "indexed": false,
          "internalType": "uint256",
          "name": "burned",
          "type": "uint256"
        }
      ],
      "name": "Withdraw",
      "type": "event"
    },
    {
      "inputs": [],
      "name": "DEFAULT_ADMIN_ROLE",
      "outputs": [
        {
          "internalType": "bytes32",
          "name": "",
          "type": "bytes32"
        }
      ],
      "stateMutability": "view",
      "type": "function"
    },
    {
      "inputs": [],
      "name": "accRewardsPerShare",
      "outputs": [
        {
          "internalType": "uint256",
          "name": "",
          "type": "uint256"
        }
      ],
      "stateMutability": "view",
      "type": "function"
    },
    {
      "inputs": [],
      "name": "autoreward",
      "outputs": [
        {
          "internalType": "bool",
          "name": "",
          "type": "bool"
        }
      ],
      "stateMutability": "view",
      "type": "function"
    },
    {
      "inputs": [],
      "name": "balance",
      "outputs": [
        {
          "internalType": "uint256",
          "name": "",
          "type": "uint256"
        }
      ],
      "stateMutability": "view",
      "type": "function"
    },
    {
      "inputs": [],
      "name": "burning",
      "outputs": [
        {
          "internalType": "address",
          "name": "",
          "type": "address"
        }
      ],
      "stateMutability": "view",
      "type": "function"
    },
    {
      "inputs": [],
      "name": "claim",
      "outputs": [],
      "stateMutability": "nonpayable",
      "type": "function"
    },
    {
      "inputs": [
        {
          "internalType": "uint256",
          "name": "amount",
          "type": "uint256"
        }
      ],
      "name": "deposit",
      "outputs": [],
      "stateMutability": "nonpayable",
      "type": "function"
    },
    {
      "inputs": [],
      "name": "endBlock",
      "outputs": [
        {
          "internalType": "uint256",
          "name": "",
          "type": "uint256"
        }
      ],
      "stateMutability": "view",
      "type": "function"
    },
    {
      "inputs": [],
      "name": "feeInterval",
      "outputs": [
        {
          "internalType": "uint256",
          "name": "",
          "type": "uint256"
        }
      ],
      "stateMutability": "view",
      "type": "function"
    },
    {
      "inputs": [
        {
          "internalType": "address",
          "name": "account",
          "type": "address"
        }
      ],
      "name": "getBlocksLeft",
      "outputs": [
        {
          "internalType": "uint256",
          "name": "",
          "type": "uint256"
        }
      ],
      "stateMutability": "view",
      "type": "function"
    },
    {
      "inputs": [
        {
          "internalType": "address",
          "name": "account",
          "type": "address"
        }
      ],
      "name": "getFee",
      "outputs": [
        {
          "internalType": "uint256",
          "name": "",
          "type": "uint256"
        }
      ],
      "stateMutability": "view",
      "type": "function"
    },
    {
      "inputs": [
        {
          "internalType": "bytes32",
          "name": "role",
          "type": "bytes32"
        }
      ],
      "name": "getRoleAdmin",
      "outputs": [
        {
          "internalType": "bytes32",
          "name": "",
          "type": "bytes32"
        }
      ],
      "stateMutability": "view",
      "type": "function"
    },
    {
      "inputs": [],
      "name": "getTokenGap",
      "outputs": [
        {
          "internalType": "uint256",
          "name": "",
          "type": "uint256"
        }
      ],
      "stateMutability": "view",
      "type": "function"
    },
    {
      "inputs": [
        {
          "internalType": "address",
          "name": "user_",
          "type": "address"
        }
      ],
      "name": "getUserBalance",
      "outputs": [
        {
          "internalType": "uint256",
          "name": "",
          "type": "uint256"
        }
      ],
      "stateMutability": "view",
      "type": "function"
    },
    {
      "inputs": [
        {
          "internalType": "address",
          "name": "account",
          "type": "address"
        }
      ],
      "name": "grantPauserRole",
      "outputs": [],
      "stateMutability": "nonpayable",
      "type": "function"
    },
    {
      "inputs": [
        {
          "internalType": "bytes32",
          "name": "role",
          "type": "bytes32"
        },
        {
          "internalType": "address",
          "name": "account",
          "type": "address"
        }
      ],
      "name": "grantRole",
      "outputs": [],
      "stateMutability": "nonpayable",
      "type": "function"
    },
    {
      "inputs": [
        {
          "internalType": "bytes32",
          "name": "role",
          "type": "bytes32"
        },
        {
          "internalType": "address",
          "name": "account",
          "type": "address"
        }
      ],
      "name": "hasRole",
      "outputs": [
        {
          "internalType": "bool",
          "name": "",
          "type": "bool"
        }
      ],
      "stateMutability": "view",
      "type": "function"
    },
    {
      "inputs": [
        {
          "internalType": "address",
          "name": "vault_",
          "type": "address"
        },
        {
          "internalType": "address",
          "name": "burning_",
          "type": "address"
        },
        {
          "internalType": "uint256",
          "name": "minFee_",
          "type": "uint256"
        },
        {
          "internalType": "uint256",
          "name": "maxFee_",
          "type": "uint256"
        },
        {
          "internalType": "uint256",
          "name": "feeInterval_",
          "type": "uint256"
        }
      ],
      "name": "initialize",
      "outputs": [],
      "stateMutability": "nonpayable",
      "type": "function"
    },
    {
      "inputs": [],
      "name": "lastUpdate",
      "outputs": [
        {
          "internalType": "uint256",
          "name": "",
          "type": "uint256"
        }
      ],
      "stateMutability": "view",
      "type": "function"
    },
    {
      "inputs": [],
      "name": "maxFee",
      "outputs": [
        {
          "internalType": "uint256",
          "name": "",
          "type": "uint256"
        }
      ],
      "stateMutability": "view",
      "type": "function"
    },
    {
      "inputs": [],
      "name": "minFee",
      "outputs": [
        {
          "internalType": "uint256",
          "name": "",
          "type": "uint256"
        }
      ],
      "stateMutability": "view",
      "type": "function"
    },
    {
      "inputs": [],
      "name": "pause",
      "outputs": [],
      "stateMutability": "nonpayable",
      "type": "function"
    },
    {
      "inputs": [],
      "name": "paused",
      "outputs": [
        {
          "internalType": "bool",
          "name": "",
          "type": "bool"
        }
      ],
      "stateMutability": "view",
      "type": "function"
    },
    {
      "inputs": [
        {
          "internalType": "address",
          "name": "user_",
          "type": "address"
        }
      ],
      "name": "pendingRewards",
      "outputs": [
        {
          "internalType": "uint256",
          "name": "",
          "type": "uint256"
        }
      ],
      "stateMutability": "view",
      "type": "function"
    },
    {
      "inputs": [
        {
          "internalType": "bytes32",
          "name": "role",
          "type": "bytes32"
        },
        {
          "internalType": "address",
          "name": "account",
          "type": "address"
        }
      ],
      "name": "renounceRole",
      "outputs": [],
      "stateMutability": "nonpayable",
      "type": "function"
    },
    {
      "inputs": [
        {
          "internalType": "bytes32",
          "name": "role",
          "type": "bytes32"
        },
        {
          "internalType": "address",
          "name": "account",
          "type": "address"
        }
      ],
      "name": "revokeRole",
      "outputs": [],
      "stateMutability": "nonpayable",
      "type": "function"
    },
    {
      "inputs": [],
      "name": "rewardPerBlock",
      "outputs": [
        {
          "internalType": "uint256",
          "name": "",
          "type": "uint256"
        }
      ],
      "stateMutability": "view",
      "type": "function"
    },
    {
      "inputs": [
        {
          "internalType": "uint256",
          "name": "feeInterval_",
          "type": "uint256"
        }
      ],
      "name": "setFeeInterval",
      "outputs": [],
      "stateMutability": "nonpayable",
      "type": "function"
    },
    {
      "inputs": [
        {
          "internalType": "uint256",
          "name": "minFee_",
          "type": "uint256"
        },
        {
          "internalType": "uint256",
          "name": "maxFee_",
          "type": "uint256"
        }
      ],
      "name": "setFees",
      "outputs": [],
      "stateMutability": "nonpayable",
      "type": "function"
    },
    {
      "inputs": [],
      "name": "stakers",
      "outputs": [
        {
          "internalType": "uint256",
          "name": "",
          "type": "uint256"
        }
      ],
      "stateMutability": "view",
      "type": "function"
    },
    {
      "inputs": [
        {
          "internalType": "bytes4",
          "name": "interfaceId",
          "type": "bytes4"
        }
      ],
      "name": "supportsInterface",
      "outputs": [
        {
          "internalType": "bool",
          "name": "",
          "type": "bool"
        }
      ],
      "stateMutability": "view",
      "type": "function"
    },
    {
      "inputs": [
        {
          "internalType": "address",
          "name": "account",
          "type": "address"
        }
      ],
      "name": "syncBalance",
      "outputs": [],
      "stateMutability": "nonpayable",
      "type": "function"
    },
    {
      "inputs": [],
      "name": "toggleAutoreward",
      "outputs": [],
      "stateMutability": "nonpayable",
      "type": "function"
    },
    {
      "inputs": [],
      "name": "token",
      "outputs": [
        {
          "internalType": "address",
          "name": "",
          "type": "address"
        }
      ],
      "stateMutability": "view",
      "type": "function"
    },
    {
      "inputs": [],
      "name": "unpause",
      "outputs": [],
      "stateMutability": "nonpayable",
      "type": "function"
    },
    {
      "inputs": [
        {
          "internalType": "uint256",
          "name": "endBlock_",
          "type": "uint256"
        }
      ],
      "name": "updateEndBlock",
      "outputs": [],
      "stateMutability": "nonpayable",
      "type": "function"
    },
    {
      "inputs": [
        {
          "internalType": "address",
          "name": "vault_",
          "type": "address"
        }
      ],
      "name": "updateVault",
      "outputs": [],
      "stateMutability": "nonpayable",
      "type": "function"
    },
    {
      "inputs": [],
      "name": "vault",
      "outputs": [
        {
          "internalType": "address",
          "name": "",
          "type": "address"
        }
      ],
      "stateMutability": "view",
      "type": "function"
    },
    {
      "inputs": [
        {
          "internalType": "uint256",
          "name": "amount",
          "type": "uint256"
        }
      ],
      "name": "withdraw",
      "outputs": [],
      "stateMutability": "nonpayable",
      "type": "function"
    }
  ],
  "bytecode": "0x60806040527f65d7a28e3265b37a6474929f336521b332c1681b933f6cb9f3376673440d862a60c95534801561003457600080fd5b506148cb806100446000396000f3fe608060405234801561001057600080fd5b506004361061023c5760003560e01c80636c11c21c1161013b578063b6b55f25116100b8578063e0adaca21161007c578063e0adaca214610657578063e7563f3f14610673578063fbfa77cf1461068f578063fc0c546a146106ad578063fed1252a146106cb5761023c565b8063b6b55f25146105b5578063b88c9148146105d1578063c046371114610601578063d13f90b41461061f578063d547741f1461063b5761023c565b80638ae39cac116100ff5780638ae39cac146104fb5780638d0480561461051957806391d1485414610549578063a217fddf14610579578063b69ef8a8146105975761023c565b80636c11c21c146104915780636ca569c1146104ad5780637cbaccd5146104b757806381fb5cfb146104d55780638456cb59146104f15761023c565b806331d7a262116101c95780634e71d92d1161018d5780634e71d92d1461040f5780635129338c146104195780635a3c978b146104375780635c975abb1461045557806366b0bebc146104735761023c565b806331d7a2621461036b57806336568abe1461039b5780633f4ba83a146103b757806347734892146103c15780634c12b33f146103f15761023c565b80630b78f9c0116102105780630b78f9c0146102c9578063248a9ca3146102e557806324ec7590146103155780632e1a7d4d146103335780632f2ff15d1461034f5761023c565b80626f02311461024157806301f59d161461025d57806301ffc9a71461027b578063083c6323146102ab575b600080fd5b61025b6004803603810190610256919061373b565b6106e9565b005b610265610835565b6040516102729190613f6e565b60405180910390f35b61029560048036038101906102909190613712565b61083b565b6040516102a29190613cb6565b60405180910390f35b6102b36108b5565b6040516102c09190613f6e565b60405180910390f35b6102e360048036038101906102de919061378d565b6108bb565b005b6102ff60048036038101906102fa91906136ad565b6109c7565b60405161030c9190613cd1565b60405180910390f35b61031d6109e7565b60405161032a9190613f6e565b60405180910390f35b61034d6004803603810190610348919061373b565b6109ed565b005b610369600480360381019061036491906136d6565b610e8f565b005b610385600480360381019061038091906135bb565b610eb8565b6040516103929190613f6e565b60405180910390f35b6103b560048036038101906103b091906136d6565b610ff2565b005b6103bf611075565b005b6103db60048036038101906103d691906135bb565b611094565b6040516103e89190613f6e565b60405180910390f35b6103f9611136565b6040516104069190613b88565b60405180910390f35b61041761115c565b005b61042161131c565b60405161042e9190613f6e565b60405180910390f35b61043f6113e6565b60405161044c9190613cb6565b60405180910390f35b61045d6113f9565b60405161046a9190613cb6565b60405180910390f35b61047b611410565b6040516104889190613f6e565b60405180910390f35b6104ab60048036038101906104a691906135bb565b611416565b005b6104b561143b565b005b6104bf6114c3565b6040516104cc9190613f6e565b60405180910390f35b6104ef60048036038101906104ea919061373b565b6114c9565b005b6104f961152a565b005b610503611549565b6040516105109190613f6e565b60405180910390f35b610533600480360381019061052e91906135bb565b61154f565b6040516105409190613f6e565b60405180910390f35b610563600480360381019061055e91906136d6565b6115fa565b6040516105709190613cb6565b60405180910390f35b610581611665565b60405161058e9190613cd1565b60405180910390f35b61059f61166c565b6040516105ac9190613f6e565b60405180910390f35b6105cf60048036038101906105ca919061373b565b611672565b005b6105eb60048036038101906105e691906135bb565b611bac565b6040516105f89190613f6e565b60405180910390f35b610609611cc0565b6040516106169190613f6e565b60405180910390f35b6106396004803603810190610634919061360d565b611cc6565b005b610655600480360381019061065091906136d6565b611cda565b005b610671600480360381019061066c91906135bb565b611d03565b005b61068d600480360381019061068891906135bb565b611e5b565b005b610697612161565b6040516106a49190613b88565b60405180910390f35b6106b5612187565b6040516106c29190613b88565b60405180910390f35b6106d36121ad565b6040516106e09190613f6e565b60405180910390f35b6000801b6106fe816106f96121b3565b6121bb565b600060ca60009054906101000a900473ffffffffffffffffffffffffffffffffffffffff1690508073ffffffffffffffffffffffffffffffffffffffff166384618ddc306040518263ffffffff1660e01b815260040161075e9190613b88565b60206040518083038186803b15801561077657600080fd5b505afa15801561078a573d6000803e3d6000fd5b505050506040513d601f19601f820116820180604052508101906107ae9190613764565b8311156107f0576040517f08c379a00000000000000000000000000000000000000000000000000000000081526004016107e790613dae565b60405180910390fd5b8260d4819055507f72a01621587849e39c667eb81696643997f818c6c286614cd1497e5ef2e9ecd660d4546040516108289190613f6e565b60405180910390a1505050565b60cf5481565b60007f7965db0b000000000000000000000000000000000000000000000000000000007bffffffffffffffffffffffffffffffffffffffffffffffffffffffff1916827bffffffffffffffffffffffffffffffffffffffffffffffffffffffff191614806108ae57506108ad82612258565b5b9050919050565b60d45481565b6000801b6108d0816108cb6121b3565b6121bb565b818310610912576040517f08c379a000000000000000000000000000000000000000000000000000000000815260040161090990613e6e565b60405180910390fd5b68056bc75e2d631000008311158015610934575068056bc75e2d631000008211155b610973576040517f08c379a000000000000000000000000000000000000000000000000000000000815260040161096a90613d4e565b60405180910390fd5b8260ce819055508160cf819055507f9fef908e44cc0f51b9e9f7fd26bc506a50448657da0dc10a9661e37bc1c4a39260ce5460cf5460d3546040516109ba93929190613f89565b60405180910390a1505050565b600060656000838152602001908152602001600020600101549050919050565b60ce5481565b6109f56113f9565b15610a35576040517f08c379a0000000000000000000000000000000000000000000000000000000008152600401610a2c90613dee565b60405180910390fd5b60008111610a78576040517f08c379a0000000000000000000000000000000000000000000000000000000008152600401610a6f90613ece565b60405180910390fd5b6000339050600060d660008373ffffffffffffffffffffffffffffffffffffffff1673ffffffffffffffffffffffffffffffffffffffff16815260200190815260200160002090508060000154831115610b07576040517f08c379a0000000000000000000000000000000000000000000000000000000008152600401610afe90613f0e565b60405180910390fd5b610b0f6122c2565b610b1882612333565b60d154816001018190555082816000016000828254610b37919061410d565b925050819055508260cd6000828254610b50919061410d565b92505081905550600081600001541415610b7f57600160d56000828254610b77919061410d565b925050819055505b600060cb60009054906101000a900473ffffffffffffffffffffffffffffffffffffffff169050600068056bc75e2d63100000610bbb85611bac565b86610bc691906140b3565b610bd09190614082565b90508085610bde919061410d565b945060cc60149054906101000a900460ff1615610bff57610bfe846123c7565b5b8173ffffffffffffffffffffffffffffffffffffffff1663a9059cbb60cc60009054906101000a900473ffffffffffffffffffffffffffffffffffffffff16836040518363ffffffff1660e01b8152600401610c5c929190613c03565b602060405180830381600087803b158015610c7657600080fd5b505af1158015610c8a573d6000803e3d6000fd5b505050506040513d601f19601f82011682018060405250810190610cae9190613684565b610ced576040517f08c379a0000000000000000000000000000000000000000000000000000000008152600401610ce490613e4e565b60405180910390fd5b8173ffffffffffffffffffffffffffffffffffffffff1663a9059cbb85876040518363ffffffff1660e01b8152600401610d28929190613c03565b602060405180830381600087803b158015610d4257600080fd5b505af1158015610d56573d6000803e3d6000fd5b505050506040513d601f19601f82011682018060405250810190610d7a9190613684565b610db9576040517f08c379a0000000000000000000000000000000000000000000000000000000008152600401610db090613e2e565b60405180910390fd5b7fce49b138f2621300a7043a61f472ccfd643162bdf3efb11354e22d5273b77a7160cd5460d15460d25460d554604051610df69493929190613fc0565b60405180910390a17fda0c5744e922c38dc93f40ffd95d1e27696bee87f5cbd024bd5df1d168caa5a8848460000154856001015486600201548760030154604051610e45959493929190613c63565b60405180910390a17ff279e6a1f5e320cca91135676d9cb6e44ca8a08c0b88342bcdb1144f6511b568848683604051610e8093929190613c2c565b60405180910390a15050505050565b610e98826109c7565b610ea981610ea46121b3565b6121bb565b610eb38383612532565b505050565b60008060d660008473ffffffffffffffffffffffffffffffffffffffff1673ffffffffffffffffffffffffffffffffffffffff1681526020019081526020016000206040518060e00160405290816000820154815260200160018201548152602001600282015481526020016003820154815260200160048201548152602001600582015481526020016006820154815250509050600081604001519050600060cd541115610fe857600060cd54670de0b6b3a764000060d054610f7a612613565b610f8491906140b3565b610f8e91906140b3565b610f989190614082565b9050670de0b6b3a7640000836000015182856020015160d154610fbb919061410d565b610fc5919061402c565b610fcf91906140b3565b610fd99190614082565b82610fe4919061402c565b9150505b8092505050919050565b610ffa6121b3565b73ffffffffffffffffffffffffffffffffffffffff168173ffffffffffffffffffffffffffffffffffffffff1614611067576040517f08c379a000000000000000000000000000000000000000000000000000000000815260040161105e90613f2e565b60405180910390fd5b611071828261265f565b5050565b60c954611089816110846121b3565b6121bb565b611091612741565b50565b60008060d660008473ffffffffffffffffffffffffffffffffffffffff1673ffffffffffffffffffffffffffffffffffffffff1681526020019081526020016000206040518060e001604052908160008201548152602001600182015481526020016002820154815260200160038201548152602001600482015481526020016005820154815260200160068201548152505090508060000151915050919050565b60cc60009054906101000a900473ffffffffffffffffffffffffffffffffffffffff1681565b6111646113f9565b156111a4576040517f08c379a000000000000000000000000000000000000000000000000000000000815260040161119b90613dee565b60405180910390fd5b6000339050600060d660008373ffffffffffffffffffffffffffffffffffffffff1673ffffffffffffffffffffffffffffffffffffffff16815260200190815260200160002090506111f46122c2565b6111fd82612333565b6000816002015411611244576040517f08c379a000000000000000000000000000000000000000000000000000000000815260040161123b90613e8e565b60405180910390fd5b61124d826123c7565b7fce49b138f2621300a7043a61f472ccfd643162bdf3efb11354e22d5273b77a7160cd5460d15460d25460d55460405161128a9493929190613fc0565b60405180910390a17fda0c5744e922c38dc93f40ffd95d1e27696bee87f5cbd024bd5df1d168caa5a88282600001548360010154846002015485600301546040516112d9959493929190613c63565b60405180910390a17f0c7ef932d3b91976772937f18d5ef9b39a9930bef486b576c374f047c4b512dc826040516113109190613b88565b60405180910390a15050565b60008060cb60009054906101000a900473ffffffffffffffffffffffffffffffffffffffff16905060008173ffffffffffffffffffffffffffffffffffffffff166370a08231306040518263ffffffff1660e01b815260040161137f9190613b88565b60206040518083038186803b15801561139757600080fd5b505afa1580156113ab573d6000803e3d6000fd5b505050506040513d601f19601f820116820180604052508101906113cf9190613764565b905060cd54816113df919061410d565b9250505090565b60cc60149054906101000a900460ff1681565b6000609760009054906101000a900460ff16905090565b60d35481565b6000801b61142b816114266121b3565b6121bb565b61143760c954836127e3565b5050565b6000801b6114508161144b6121b3565b6121bb565b60cc60149054906101000a900460ff161560cc60146101000a81548160ff0219169083151502179055507fbab7db190deaf2eccaf17b4e82ea10dce1e26f8a605ec9681ca8183b2de399fe60cc60149054906101000a900460ff166040516114b89190613cb6565b60405180910390a150565b60d15481565b6000801b6114de816114d96121b3565b6121bb565b8160d3819055507f9fef908e44cc0f51b9e9f7fd26bc506a50448657da0dc10a9661e37bc1c4a39260ce5460cf5460d35460405161151e93929190613f89565b60405180910390a15050565b60c95461153e816115396121b3565b6121bb565b6115466127f1565b50565b60d05481565b600060d660008373ffffffffffffffffffffffffffffffffffffffff1673ffffffffffffffffffffffffffffffffffffffff168152602001908152602001600020600301544311156115a457600090506115f5565b4360d660008473ffffffffffffffffffffffffffffffffffffffff1673ffffffffffffffffffffffffffffffffffffffff168152602001908152602001600020600301546115f2919061410d565b90505b919050565b60006065600084815260200190815260200160002060000160008373ffffffffffffffffffffffffffffffffffffffff1673ffffffffffffffffffffffffffffffffffffffff16815260200190815260200160002060009054906101000a900460ff16905092915050565b6000801b81565b60cd5481565b61167a6113f9565b156116ba576040517f08c379a00000000000000000000000000000000000000000000000000000000081526004016116b190613dee565b60405180910390fd5b60d45443106116fe576040517f08c379a00000000000000000000000000000000000000000000000000000000081526004016116f590613f4e565b60405180910390fd5b60008111611741576040517f08c379a000000000000000000000000000000000000000000000000000000000815260040161173890613ece565b60405180910390fd5b6000339050600060d660008373ffffffffffffffffffffffffffffffffffffffff1673ffffffffffffffffffffffffffffffffffffffff16815260200190815260200160002090506117916122c2565b61179a82612333565b6000816000015414156117c257600160d560008282546117ba919061402c565b925050819055505b60d354436117d0919061402c565b816003018190555060ce54816004018190555060cf54816005018190555060d35481600601819055508281600001600082825461180d919061402c565b925050819055508260cd6000828254611826919061402c565b92505081905550600060cb60009054906101000a900473ffffffffffffffffffffffffffffffffffffffff169050838173ffffffffffffffffffffffffffffffffffffffff166370a08231856040518263ffffffff1660e01b815260040161188e9190613b88565b60206040518083038186803b1580156118a657600080fd5b505afa1580156118ba573d6000803e3d6000fd5b505050506040513d601f19601f820116820180604052508101906118de9190613764565b101561191f576040517f08c379a000000000000000000000000000000000000000000000000000000000815260040161191690613d6e565b60405180910390fd5b838173ffffffffffffffffffffffffffffffffffffffff1663dd62ed3e85306040518363ffffffff1660e01b815260040161195b929190613ba3565b60206040518083038186803b15801561197357600080fd5b505afa158015611987573d6000803e3d6000fd5b505050506040513d601f19601f820116820180604052508101906119ab9190613764565b10156119ec576040517f08c379a00000000000000000000000000000000000000000000000000000000081526004016119e390613dce565b60405180910390fd5b60cc60149054906101000a900460ff1615611a0b57611a0a836123c7565b5b8073ffffffffffffffffffffffffffffffffffffffff166323b872dd8430876040518463ffffffff1660e01b8152600401611a4893929190613bcc565b602060405180830381600087803b158015611a6257600080fd5b505af1158015611a76573d6000803e3d6000fd5b505050506040513d601f19601f82011682018060405250810190611a9a9190613684565b611ad9576040517f08c379a0000000000000000000000000000000000000000000000000000000008152600401611ad090613d8e565b60405180910390fd5b7fce49b138f2621300a7043a61f472ccfd643162bdf3efb11354e22d5273b77a7160cd5460d15460d25460d554604051611b169493929190613fc0565b60405180910390a17fda0c5744e922c38dc93f40ffd95d1e27696bee87f5cbd024bd5df1d168caa5a8838360000154846001015485600201548660030154604051611b65959493929190613c63565b60405180910390a17fe1fffcc4923d04b559f4d29a8bfc6cda04eb5b0d3c460751c2402c5c5cc9109c8385604051611b9e929190613c03565b60405180910390a150505050565b60008060d660008473ffffffffffffffffffffffffffffffffffffffff1673ffffffffffffffffffffffffffffffffffffffff1681526020019081526020016000206040518060e00160405290816000820154815260200160018201548152602001600282015481526020016003820154815260200160048201548152602001600582015481526020016006820154815250509050600081606001514310611c58578160800151611c9e565b60008260c0015111611c6e578160800151611c9d565b8160c00151438360600151611c83919061410d565b8360a00151611c9291906140b3565b611c9c9190614082565b5b5b905081608001518111611cb5578160800151611cb7565b805b92505050919050565b60d25481565b611cd38585858585612894565b5050505050565b611ce3826109c7565b611cf481611cef6121b3565b6121bb565b611cfe838361265f565b505050565b6000801b611d1881611d136121b3565b6121bb565b600060cb60009054906101000a900473ffffffffffffffffffffffffffffffffffffffff1690506000611d4961131c565b905060008111611d8e576040517f08c379a0000000000000000000000000000000000000000000000000000000008152600401611d8590613eae565b60405180910390fd5b8173ffffffffffffffffffffffffffffffffffffffff1663a9059cbb85836040518363ffffffff1660e01b8152600401611dc9929190613c03565b602060405180830381600087803b158015611de357600080fd5b505af1158015611df7573d6000803e3d6000fd5b505050506040513d601f19601f82011682018060405250810190611e1b9190613684565b507fd43c97094d4b3522923f3751f896fb88ef95d5e1d310aea58b936625fd7c5d0c8482604051611e4d929190613c03565b60405180910390a150505050565b6000801b611e7081611e6b6121b3565b6121bb565b60008290508073ffffffffffffffffffffffffffffffffffffffff1663ef037b90306040518263ffffffff1660e01b8152600401611eae9190613b88565b60206040518083038186803b158015611ec657600080fd5b505afa158015611eda573d6000803e3d6000fd5b505050506040513d601f19601f82011682018060405250810190611efe9190613684565b611f3d576040517f08c379a0000000000000000000000000000000000000000000000000000000008152600401611f3490613eee565b60405180910390fd5b8260ca60006101000a81548173ffffffffffffffffffffffffffffffffffffffff021916908373ffffffffffffffffffffffffffffffffffffffff1602179055508073ffffffffffffffffffffffffffffffffffffffff1663fc0c546a6040518163ffffffff1660e01b815260040160206040518083038186803b158015611fc457600080fd5b505afa158015611fd8573d6000803e3d6000fd5b505050506040513d601f19601f82011682018060405250810190611ffc91906135e4565b60cb60006101000a81548173ffffffffffffffffffffffffffffffffffffffff021916908373ffffffffffffffffffffffffffffffffffffffff1602179055508073ffffffffffffffffffffffffffffffffffffffff16639ecaf2b2306040518263ffffffff1660e01b81526004016120759190613b88565b60206040518083038186803b15801561208d57600080fd5b505afa1580156120a1573d6000803e3d6000fd5b505050506040513d601f19601f820116820180604052508101906120c59190613764565b60d08190555061215c8173ffffffffffffffffffffffffffffffffffffffff166384618ddc306040518263ffffffff1660e01b81526004016121079190613b88565b60206040518083038186803b15801561211f57600080fd5b505afa158015612133573d6000803e3d6000fd5b505050506040513d601f19601f820116820180604052508101906121579190613764565b6106e9565b505050565b60ca60009054906101000a900473ffffffffffffffffffffffffffffffffffffffff1681565b60cb60009054906101000a900473ffffffffffffffffffffffffffffffffffffffff1681565b60d55481565b600033905090565b6121c582826115fa565b612254576121ea8173ffffffffffffffffffffffffffffffffffffffff166014612987565b6121f88360001c6020612987565b604051602001612209929190613b4e565b6040516020818303038152906040526040517f08c379a000000000000000000000000000000000000000000000000000000000815260040161224b9190613cec565b60405180910390fd5b5050565b60007f01ffc9a7000000000000000000000000000000000000000000000000000000007bffffffffffffffffffffffffffffffffffffffffffffffffffffffff1916827bffffffffffffffffffffffffffffffffffffffffffffffffffffffff1916149050919050565b60d25443116122d057612331565b600060cd5411156123295760cd54670de0b6b3a764000060d0546122f2612613565b6122fc91906140b3565b61230691906140b3565b6123109190614082565b60d16000828254612321919061402c565b925050819055505b4360d2819055505b565b600060d660008373ffffffffffffffffffffffffffffffffffffffff1673ffffffffffffffffffffffffffffffffffffffff16815260200190815260200160002090506000816001015460d15461238a919061410d565b9050670de0b6b3a76400008260000154826123a591906140b3565b6123af9190614082565b826002018190555060d1548260010181905550505050565b600060ca60009054906101000a900473ffffffffffffffffffffffffffffffffffffffff169050600060d660008473ffffffffffffffffffffffffffffffffffffffff1673ffffffffffffffffffffffffffffffffffffffff168152602001908152602001600020600201549050600081111561252d57600060d660008573ffffffffffffffffffffffffffffffffffffffff1673ffffffffffffffffffffffffffffffffffffffff168152602001908152602001600020600201819055508173ffffffffffffffffffffffffffffffffffffffff1663158a498884836040518363ffffffff1660e01b81526004016124c1929190613c03565b600060405180830381600087803b1580156124db57600080fd5b505af11580156124ef573d6000803e3d6000fd5b505050507fc083a1647e3ee591bf42b82564ffb4d16fdbb26068f0080da911c8d8300fd84a8382604051612524929190613c03565b60405180910390a15b505050565b61253c82826115fa565b61260f5760016065600084815260200190815260200160002060000160008373ffffffffffffffffffffffffffffffffffffffff1673ffffffffffffffffffffffffffffffffffffffff16815260200190815260200160002060006101000a81548160ff0219169083151502179055506125b46121b3565b73ffffffffffffffffffffffffffffffffffffffff168173ffffffffffffffffffffffffffffffffffffffff16837f2f8788117e7eff1d82e926ec794901d17c78024a50270940304540a733656f0d60405160405180910390a45b5050565b600060d45460d254111561262a576000905061265c565b60d4544310156126495760d25443612642919061410d565b905061265c565b60d25460d454612659919061410d565b90505b90565b61266982826115fa565b1561273d5760006065600084815260200190815260200160002060000160008373ffffffffffffffffffffffffffffffffffffffff1673ffffffffffffffffffffffffffffffffffffffff16815260200190815260200160002060006101000a81548160ff0219169083151502179055506126e26121b3565b73ffffffffffffffffffffffffffffffffffffffff168173ffffffffffffffffffffffffffffffffffffffff16837ff6391f5c32d9c69d2a47ea670b442974b53935d1edc7fd64eb21e047a839171b60405160405180910390a45b5050565b6127496113f9565b612788576040517f08c379a000000000000000000000000000000000000000000000000000000000815260040161277f90613d2e565b60405180910390fd5b6000609760006101000a81548160ff0219169083151502179055507f5db9ee0a495bf2e6ff9c91a7834c1ba4fdd244a5e8aa4e537bd38aeae4b073aa6127cc6121b3565b6040516127d99190613b88565b60405180910390a1565b6127ed8282612532565b5050565b6127f96113f9565b15612839576040517f08c379a000000000000000000000000000000000000000000000000000000000815260040161283090613dee565b60405180910390fd5b6001609760006101000a81548160ff0219169083151502179055507f62e78cea01bee320cd4e420270b5ea74000d11b0c9f74754ebdbfc544b05a25861287d6121b3565b60405161288a9190613b88565b60405180910390a1565b600060019054906101000a900460ff16806128ba575060008054906101000a900460ff16155b6128f9576040517f08c379a00000000000000000000000000000000000000000000000000000000081526004016128f090613e0e565b60405180910390fd5b60008060019054906101000a900460ff161590508015612949576001600060016101000a81548160ff02191690831515021790555060016000806101000a81548160ff0219169083151502179055505b612951612c81565b61295e8686868686612d72565b801561297f5760008060016101000a81548160ff0219169083151502179055505b505050505050565b60606000600283600261299a91906140b3565b6129a4919061402c565b67ffffffffffffffff8111156129e3577f4e487b7100000000000000000000000000000000000000000000000000000000600052604160045260246000fd5b6040519080825280601f01601f191660200182016040528015612a155781602001600182028036833780820191505090505b5090507f300000000000000000000000000000000000000000000000000000000000000081600081518110612a73577f4e487b7100000000000000000000000000000000000000000000000000000000600052603260045260246000fd5b60200101907effffffffffffffffffffffffffffffffffffffffffffffffffffffffffffff1916908160001a9053507f780000000000000000000000000000000000000000000000000000000000000081600181518110612afd577f4e487b7100000000000000000000000000000000000000000000000000000000600052603260045260246000fd5b60200101907effffffffffffffffffffffffffffffffffffffffffffffffffffffffffffff1916908160001a90535060006001846002612b3d91906140b3565b612b47919061402c565b90505b6001811115612c33577f3031323334353637383961626364656600000000000000000000000000000000600f861660108110612baf577f4e487b7100000000000000000000000000000000000000000000000000000000600052603260045260246000fd5b1a60f81b828281518110612bec577f4e487b7100000000000000000000000000000000000000000000000000000000600052603260045260246000fd5b60200101907effffffffffffffffffffffffffffffffffffffffffffffffffffffffffffff1916908160001a905350600485901c945080612c2c906141f2565b9050612b4a565b5060008414612c77576040517f08c379a0000000000000000000000000000000000000000000000000000000008152600401612c6e90613d0e565b60405180910390fd5b8091505092915050565b600060019054906101000a900460ff1680612ca7575060008054906101000a900460ff16155b612ce6576040517f08c379a0000000000000000000000000000000000000000000000000000000008152600401612cdd90613e0e565b60405180910390fd5b60008060019054906101000a900460ff161590508015612d36576001600060016101000a81548160ff02191690831515021790555060016000806101000a81548160ff0219169083151502179055505b612d3e612ecf565b612d46612fc0565b612d4e6130a9565b8015612d6f5760008060016101000a81548160ff0219169083151502179055505b50565b600060019054906101000a900460ff1680612d98575060008054906101000a900460ff16155b612dd7576040517f08c379a0000000000000000000000000000000000000000000000000000000008152600401612dce90613e0e565b60405180910390fd5b60008060019054906101000a900460ff161590508015612e27576001600060016101000a81548160ff02191690831515021790555060016000806101000a81548160ff0219169083151502179055505b612e3086611e5b565b612e3a84846108bb565b612e43826114c9565b600160cc60146101000a81548160ff0219169083151502179055504360d2819055508460cc60006101000a81548173ffffffffffffffffffffffffffffffffffffffff021916908373ffffffffffffffffffffffffffffffffffffffff1602179055508015612ec75760008060016101000a81548160ff0219169083151502179055505b505050505050565b600060019054906101000a900460ff1680612ef5575060008054906101000a900460ff16155b612f34576040517f08c379a0000000000000000000000000000000000000000000000000000000008152600401612f2b90613e0e565b60405180910390fd5b60008060019054906101000a900460ff161590508015612f84576001600060016101000a81548160ff02191690831515021790555060016000806101000a81548160ff0219169083151502179055505b612f8c6131a9565b612f94613282565b612f9c61335b565b8015612fbd5760008060016101000a81548160ff0219169083151502179055505b50565b600060019054906101000a900460ff1680612fe6575060008054906101000a900460ff16155b613025576040517f08c379a000000000000000000000000000000000000000000000000000000000815260040161301c90613e0e565b60405180910390fd5b60008060019054906101000a900460ff161590508015613075576001600060016101000a81548160ff02191690831515021790555060016000806101000a81548160ff0219169083151502179055505b61307d6131a9565b613085613434565b80156130a65760008060016101000a81548160ff0219169083151502179055505b50565b600060019054906101000a900460ff16806130cf575060008054906101000a900460ff16155b61310e576040517f08c379a000000000000000000000000000000000000000000000000000000000815260040161310590613e0e565b60405180910390fd5b60008060019054906101000a900460ff16159050801561315e576001600060016101000a81548160ff02191690831515021790555060016000806101000a81548160ff0219169083151502179055505b6131726000801b61316d6121b3565b6127e3565b61318560c9546131806121b3565b6127e3565b80156131a65760008060016101000a81548160ff0219169083151502179055505b50565b600060019054906101000a900460ff16806131cf575060008054906101000a900460ff16155b61320e576040517f08c379a000000000000000000000000000000000000000000000000000000000815260040161320590613e0e565b60405180910390fd5b60008060019054906101000a900460ff16159050801561325e576001600060016101000a81548160ff02191690831515021790555060016000806101000a81548160ff0219169083151502179055505b801561327f5760008060016101000a81548160ff0219169083151502179055505b50565b600060019054906101000a900460ff16806132a8575060008054906101000a900460ff16155b6132e7576040517f08c379a00000000000000000000000000000000000000000000000000000000081526004016132de90613e0e565b60405180910390fd5b60008060019054906101000a900460ff161590508015613337576001600060016101000a81548160ff02191690831515021790555060016000806101000a81548160ff0219169083151502179055505b80156133585760008060016101000a81548160ff0219169083151502179055505b50565b600060019054906101000a900460ff1680613381575060008054906101000a900460ff16155b6133c0576040517f08c379a00000000000000000000000000000000000000000000000000000000081526004016133b790613e0e565b60405180910390fd5b60008060019054906101000a900460ff161590508015613410576001600060016101000a81548160ff02191690831515021790555060016000806101000a81548160ff0219169083151502179055505b80156134315760008060016101000a81548160ff0219169083151502179055505b50565b600060019054906101000a900460ff168061345a575060008054906101000a900460ff16155b613499576040517f08c379a000000000000000000000000000000000000000000000000000000000815260040161349090613e0e565b60405180910390fd5b60008060019054906101000a900460ff1615905080156134e9576001600060016101000a81548160ff02191690831515021790555060016000806101000a81548160ff0219169083151502179055505b6000609760006101000a81548160ff02191690831515021790555080156135255760008060016101000a81548160ff0219169083151502179055505b50565b60008135905061353781614822565b92915050565b60008151905061354c81614822565b92915050565b60008151905061356181614839565b92915050565b60008135905061357681614850565b92915050565b60008135905061358b81614867565b92915050565b6000813590506135a08161487e565b92915050565b6000815190506135b58161487e565b92915050565b6000602082840312156135cd57600080fd5b60006135db84828501613528565b91505092915050565b6000602082840312156135f657600080fd5b60006136048482850161353d565b91505092915050565b600080600080600060a0868803121561362557600080fd5b600061363388828901613528565b955050602061364488828901613528565b945050604061365588828901613591565b935050606061366688828901613591565b925050608061367788828901613591565b9150509295509295909350565b60006020828403121561369657600080fd5b60006136a484828501613552565b91505092915050565b6000602082840312156136bf57600080fd5b60006136cd84828501613567565b91505092915050565b600080604083850312156136e957600080fd5b60006136f785828601613567565b925050602061370885828601613528565b9150509250929050565b60006020828403121561372457600080fd5b60006137328482850161357c565b91505092915050565b60006020828403121561374d57600080fd5b600061375b84828501613591565b91505092915050565b60006020828403121561377657600080fd5b6000613784848285016135a6565b91505092915050565b600080604083850312156137a057600080fd5b60006137ae85828601613591565b92505060206137bf85828601613591565b9150509250929050565b6137d281614141565b82525050565b6137e181614153565b82525050565b6137f08161415f565b82525050565b600061380182614005565b61380b8185614010565b935061381b8185602086016141bf565b6138248161427a565b840191505092915050565b600061383a82614005565b6138448185614021565b93506138548185602086016141bf565b80840191505092915050565b600061386d602083614010565b91506138788261428b565b602082019050919050565b6000613890601483614010565b915061389b826142b4565b602082019050919050565b60006138b3602b83614010565b91506138be826142dd565b604082019050919050565b60006138d6602983614010565b91506138e18261432c565b604082019050919050565b60006138f9602583614010565b91506139048261437b565b604082019050919050565b600061391c604383614010565b9150613927826143ca565b606082019050919050565b600061393f602683614010565b915061394a8261443f565b604082019050919050565b6000613962601083614010565b915061396d8261448e565b602082019050919050565b6000613985602e83614010565b9150613990826144b7565b604082019050919050565b60006139a8602683614010565b91506139b382614506565b604082019050919050565b60006139cb602583614010565b91506139d682614555565b604082019050919050565b60006139ee603a83614010565b91506139f9826145a4565b604082019050919050565b6000613a11601e83614010565b9150613a1c826145f3565b602082019050919050565b6000613a34601d83614010565b9150613a3f8261461c565b602082019050919050565b6000613a57602683614010565b9150613a6282614645565b604082019050919050565b6000613a7a601783614021565b9150613a8582614694565b601782019050919050565b6000613a9d603083614010565b9150613aa8826146bd565b604082019050919050565b6000613ac0603183614010565b9150613acb8261470c565b604082019050919050565b6000613ae3601183614021565b9150613aee8261475b565b601182019050919050565b6000613b06602f83614010565b9150613b1182614784565b604082019050919050565b6000613b29602b83614010565b9150613b34826147d3565b604082019050919050565b613b48816141b5565b82525050565b6000613b5982613a6d565b9150613b65828561382f565b9150613b7082613ad6565b9150613b7c828461382f565b91508190509392505050565b6000602082019050613b9d60008301846137c9565b92915050565b6000604082019050613bb860008301856137c9565b613bc560208301846137c9565b9392505050565b6000606082019050613be160008301866137c9565b613bee60208301856137c9565b613bfb6040830184613b3f565b949350505050565b6000604082019050613c1860008301856137c9565b613c256020830184613b3f565b9392505050565b6000606082019050613c4160008301866137c9565b613c4e6020830185613b3f565b613c5b6040830184613b3f565b949350505050565b600060a082019050613c7860008301886137c9565b613c856020830187613b3f565b613c926040830186613b3f565b613c9f6060830185613b3f565b613cac6080830184613b3f565b9695505050505050565b6000602082019050613ccb60008301846137d8565b92915050565b6000602082019050613ce660008301846137e7565b92915050565b60006020820190508181036000830152613d0681846137f6565b905092915050565b60006020820190508181036000830152613d2781613860565b9050919050565b60006020820190508181036000830152613d4781613883565b9050919050565b60006020820190508181036000830152613d67816138a6565b9050919050565b60006020820190508181036000830152613d87816138c9565b9050919050565b60006020820190508181036000830152613da7816138ec565b9050919050565b60006020820190508181036000830152613dc78161390f565b9050919050565b60006020820190508181036000830152613de781613932565b9050919050565b60006020820190508181036000830152613e0781613955565b9050919050565b60006020820190508181036000830152613e2781613978565b9050919050565b60006020820190508181036000830152613e478161399b565b9050919050565b60006020820190508181036000830152613e67816139be565b9050919050565b60006020820190508181036000830152613e87816139e1565b9050919050565b60006020820190508181036000830152613ea781613a04565b9050919050565b60006020820190508181036000830152613ec781613a27565b9050919050565b60006020820190508181036000830152613ee781613a4a565b9050919050565b60006020820190508181036000830152613f0781613a90565b9050919050565b60006020820190508181036000830152613f2781613ab3565b9050919050565b60006020820190508181036000830152613f4781613af9565b9050919050565b60006020820190508181036000830152613f6781613b1c565b9050919050565b6000602082019050613f836000830184613b3f565b92915050565b6000606082019050613f9e6000830186613b3f565b613fab6020830185613b3f565b613fb86040830184613b3f565b949350505050565b6000608082019050613fd56000830187613b3f565b613fe26020830186613b3f565b613fef6040830185613b3f565b613ffc6060830184613b3f565b95945050505050565b600081519050919050565b600082825260208201905092915050565b600081905092915050565b6000614037826141b5565b9150614042836141b5565b9250827fffffffffffffffffffffffffffffffffffffffffffffffffffffffffffffffff038211156140775761407661421c565b5b828201905092915050565b600061408d826141b5565b9150614098836141b5565b9250826140a8576140a761424b565b5b828204905092915050565b60006140be826141b5565b91506140c9836141b5565b9250817fffffffffffffffffffffffffffffffffffffffffffffffffffffffffffffffff04831182151516156141025761410161421c565b5b828202905092915050565b6000614118826141b5565b9150614123836141b5565b9250828210156141365761413561421c565b5b828203905092915050565b600061414c82614195565b9050919050565b60008115159050919050565b6000819050919050565b60007fffffffff0000000000000000000000000000000000000000000000000000000082169050919050565b600073ffffffffffffffffffffffffffffffffffffffff82169050919050565b6000819050919050565b60005b838110156141dd5780820151818401526020810190506141c2565b838111156141ec576000848401525b50505050565b60006141fd826141b5565b915060008214156142115761421061421c565b5b600182039050919050565b7f4e487b7100000000000000000000000000000000000000000000000000000000600052601160045260246000fd5b7f4e487b7100000000000000000000000000000000000000000000000000000000600052601260045260246000fd5b6000601f19601f8301169050919050565b7f537472696e67733a20686578206c656e67746820696e73756666696369656e74600082015250565b7f5061757361626c653a206e6f7420706175736564000000000000000000000000600082015250565b7f5374616b696e675661756c743a2066656573206d757374206265206c6573732060008201527f7468616e20313030653138000000000000000000000000000000000000000000602082015250565b7f5374616b696e675661756c743a207573657220686173206e6f7420656e6f756760008201527f682062616c616e63650000000000000000000000000000000000000000000000602082015250565b7f5374616b696e675661756c743a206465706f736974207472616e73666572206660008201527f61696c6564000000000000000000000000000000000000000000000000000000602082015250565b7f5374616b696e675661756c743a20656e64626c6f636b206d757374206265206c60008201527f657373207468616e206f7220657175616c20746f207661756c7420656e64626c60208201527f6f636b0000000000000000000000000000000000000000000000000000000000604082015250565b7f5374616b696e675661756c743a20616d6f756e74206578636565647320616c6c60008201527f6f77616e63650000000000000000000000000000000000000000000000000000602082015250565b7f5061757361626c653a2070617573656400000000000000000000000000000000600082015250565b7f496e697469616c697a61626c653a20636f6e747261637420697320616c72656160008201527f647920696e697469616c697a6564000000000000000000000000000000000000602082015250565b7f5374616b696e675661756c743a207769746864726177207472616e736665722060008201527f6661696c65640000000000000000000000000000000000000000000000000000602082015250565b7f5374616b696e675661756c743a206275726e696e67207472616e73666572206660008201527f61696c6564000000000000000000000000000000000000000000000000000000602082015250565b7f5374616b696e675661756c743a206d696e696e756d20666565206d757374206260008201527f652067726561746572207468616e206d6178696d756d20666565000000000000602082015250565b7f5374616b696e675661756c743a206e6f7468696e6720746f20636c61696d0000600082015250565b7f5374616b696e675661756c743a207468657265206973206e6f20676170000000600082015250565b7f5374616b696e675661756c743a20616d6f756e74206d757374206265206f766560008201527f72207a65726f0000000000000000000000000000000000000000000000000000602082015250565b7f416363657373436f6e74726f6c3a206163636f756e7420000000000000000000600082015250565b7f5374616b696e675661756c743a207468697320636f6e7472616374206973206e60008201527f6f742061207374616b65686f6c64657200000000000000000000000000000000602082015250565b7f5374616b696e675661756c743a207573657220686173206e6f7420656e6f756760008201527f68207374616b696e672062616c616e6365000000000000000000000000000000602082015250565b7f206973206d697373696e6720726f6c6520000000000000000000000000000000600082015250565b7f416363657373436f6e74726f6c3a2063616e206f6e6c792072656e6f756e636560008201527f20726f6c657320666f722073656c660000000000000000000000000000000000602082015250565b7f5374616b696e675661756c743a207374616b696e6720636f6e7472616374206860008201527f61732066696e6973686564000000000000000000000000000000000000000000602082015250565b61482b81614141565b811461483657600080fd5b50565b61484281614153565b811461484d57600080fd5b50565b6148598161415f565b811461486457600080fd5b50565b61487081614169565b811461487b57600080fd5b50565b614887816141b5565b811461489257600080fd5b5056fea2646970667358221220b07d4d0abcb87514a713bfb90b80f755479b4be9cf98907ba6788a78b6106af064736f6c63430008020033",
  "linkReferences": {},
  "deployedLinkReferences": {}
}