{
  "_format": "hh-sol-artifact-1",
  "contractName": "MerkleDistributorUpdateable",
  "sourceName": "contracts/MerkleDistributorUpdateable.sol",
  "abi": [
    {
      "anonymous": false,
      "inputs": [
        {
          "indexed": false,
          "internalType": "uint256",
          "name": "index",
          "type": "uint256"
        },
        {
          "indexed": false,
          "internalType": "address",
          "name": "account",
          "type": "address"
        },
        {
          "indexed": false,
          "internalType": "uint256",
          "name": "claimed",
          "type": "uint256"
        }
      ],
      "name": "Claimed",
      "type": "event"
    },
    {
      "anonymous": false,
      "inputs": [
        {
          "indexed": false,
          "internalType": "bytes32",
          "name": "merkleRoot",
          "type": "bytes32"
        },
        {
          "indexed": false,
          "internalType": "string",
          "name": "uri",
          "type": "string"
        }
      ],
      "name": "MerkleRootUpdated",
      "type": "event"
    },
    {
      "anonymous": false,
      "inputs": [
        {
          "indexed": false,
          "internalType": "address",
          "name": "account",
          "type": "address"
        }
      ],
      "name": "Paused",
      "type": "event"
    },
    {
      "anonymous": false,
      "inputs": [
        {
          "indexed": true,
          "internalType": "bytes32",
          "name": "role",
          "type": "bytes32"
        },
        {
          "indexed": true,
          "internalType": "bytes32",
          "name": "previousAdminRole",
          "type": "bytes32"
        },
        {
          "indexed": true,
          "internalType": "bytes32",
          "name": "newAdminRole",
          "type": "bytes32"
        }
      ],
      "name": "RoleAdminChanged",
      "type": "event"
    },
    {
      "anonymous": false,
      "inputs": [
        {
          "indexed": true,
          "internalType": "bytes32",
          "name": "role",
          "type": "bytes32"
        },
        {
          "indexed": true,
          "internalType": "address",
          "name": "account",
          "type": "address"
        },
        {
          "indexed": true,
          "internalType": "address",
          "name": "sender",
          "type": "address"
        }
      ],
      "name": "RoleGranted",
      "type": "event"
    },
    {
      "anonymous": false,
      "inputs": [
        {
          "indexed": true,
          "internalType": "bytes32",
          "name": "role",
          "type": "bytes32"
        },
        {
          "indexed": true,
          "internalType": "address",
          "name": "account",
          "type": "address"
        },
        {
          "indexed": true,
          "internalType": "address",
          "name": "sender",
          "type": "address"
        }
      ],
      "name": "RoleRevoked",
      "type": "event"
    },
    {
      "anonymous": false,
      "inputs": [
        {
          "indexed": false,
          "internalType": "address",
          "name": "account",
          "type": "address"
        }
      ],
      "name": "Unpaused",
      "type": "event"
    },
    {
      "inputs": [],
      "name": "DEFAULT_ADMIN_ROLE",
      "outputs": [
        {
          "internalType": "bytes32",
          "name": "",
          "type": "bytes32"
        }
      ],
      "stateMutability": "view",
      "type": "function"
    },
    {
      "inputs": [
        {
          "internalType": "address",
          "name": "account",
          "type": "address"
        }
      ],
      "name": "alreadyClaimed",
      "outputs": [
        {
          "internalType": "uint256",
          "name": "",
          "type": "uint256"
        }
      ],
      "stateMutability": "view",
      "type": "function"
    },
    {
      "inputs": [
        {
          "internalType": "uint256",
          "name": "index",
          "type": "uint256"
        },
        {
          "internalType": "address",
          "name": "account",
          "type": "address"
        },
        {
          "internalType": "uint256",
          "name": "amount",
          "type": "uint256"
        },
        {
          "internalType": "bytes32[]",
          "name": "merkleProof",
          "type": "bytes32[]"
        }
      ],
      "name": "claim",
      "outputs": [],
      "stateMutability": "nonpayable",
      "type": "function"
    },
    {
      "inputs": [
        {
          "internalType": "bytes32",
          "name": "role",
          "type": "bytes32"
        }
      ],
      "name": "getRoleAdmin",
      "outputs": [
        {
          "internalType": "bytes32",
          "name": "",
          "type": "bytes32"
        }
      ],
      "stateMutability": "view",
      "type": "function"
    },
    {
      "inputs": [
        {
          "internalType": "address",
          "name": "account",
          "type": "address"
        }
      ],
      "name": "grantPauserRole",
      "outputs": [],
      "stateMutability": "nonpayable",
      "type": "function"
    },
    {
      "inputs": [
        {
          "internalType": "bytes32",
          "name": "role",
          "type": "bytes32"
        },
        {
          "internalType": "address",
          "name": "account",
          "type": "address"
        }
      ],
      "name": "grantRole",
      "outputs": [],
      "stateMutability": "nonpayable",
      "type": "function"
    },
    {
      "inputs": [
        {
          "internalType": "bytes32",
          "name": "role",
          "type": "bytes32"
        },
        {
          "internalType": "address",
          "name": "account",
          "type": "address"
        }
      ],
      "name": "hasRole",
      "outputs": [
        {
          "internalType": "bool",
          "name": "",
          "type": "bool"
        }
      ],
      "stateMutability": "view",
      "type": "function"
    },
    {
      "inputs": [
        {
          "internalType": "address",
          "name": "vault_",
          "type": "address"
        }
      ],
      "name": "initialize",
      "outputs": [],
      "stateMutability": "nonpayable",
      "type": "function"
    },
    {
      "inputs": [
        {
          "internalType": "uint256",
          "name": "index",
          "type": "uint256"
        },
        {
          "internalType": "address",
          "name": "account",
          "type": "address"
        },
        {
          "internalType": "uint256",
          "name": "amount",
          "type": "uint256"
        },
        {
          "internalType": "bytes32[]",
          "name": "merkleProof",
          "type": "bytes32[]"
        }
      ],
      "name": "leftToClaim",
      "outputs": [
        {
          "internalType": "uint256",
          "name": "",
          "type": "uint256"
        }
      ],
      "stateMutability": "view",
      "type": "function"
    },
    {
      "inputs": [],
      "name": "merkleRoot",
      "outputs": [
        {
          "internalType": "bytes32",
          "name": "",
          "type": "bytes32"
        }
      ],
      "stateMutability": "view",
      "type": "function"
    },
    {
      "inputs": [],
      "name": "pause",
      "outputs": [],
      "stateMutability": "nonpayable",
      "type": "function"
    },
    {
      "inputs": [],
      "name": "paused",
      "outputs": [
        {
          "internalType": "bool",
          "name": "",
          "type": "bool"
        }
      ],
      "stateMutability": "view",
      "type": "function"
    },
    {
      "inputs": [
        {
          "internalType": "bytes32",
          "name": "role",
          "type": "bytes32"
        },
        {
          "internalType": "address",
          "name": "account",
          "type": "address"
        }
      ],
      "name": "renounceRole",
      "outputs": [],
      "stateMutability": "nonpayable",
      "type": "function"
    },
    {
      "inputs": [
        {
          "internalType": "bytes32",
          "name": "role",
          "type": "bytes32"
        },
        {
          "internalType": "address",
          "name": "account",
          "type": "address"
        }
      ],
      "name": "revokeRole",
      "outputs": [],
      "stateMutability": "nonpayable",
      "type": "function"
    },
    {
      "inputs": [
        {
          "internalType": "bytes4",
          "name": "interfaceId",
          "type": "bytes4"
        }
      ],
      "name": "supportsInterface",
      "outputs": [
        {
          "internalType": "bool",
          "name": "",
          "type": "bool"
        }
      ],
      "stateMutability": "view",
      "type": "function"
    },
    {
      "inputs": [],
      "name": "token",
      "outputs": [
        {
          "internalType": "address",
          "name": "",
          "type": "address"
        }
      ],
      "stateMutability": "view",
      "type": "function"
    },
    {
      "inputs": [],
      "name": "unpause",
      "outputs": [],
      "stateMutability": "nonpayable",
      "type": "function"
    },
    {
      "inputs": [
        {
          "internalType": "bytes32",
          "name": "merkleRoot_",
          "type": "bytes32"
        },
        {
          "internalType": "string",
          "name": "uri_",
          "type": "string"
        }
      ],
      "name": "updateMerkleRoot",
      "outputs": [],
      "stateMutability": "nonpayable",
      "type": "function"
    },
    {
      "inputs": [],
      "name": "uri",
      "outputs": [
        {
          "internalType": "string",
          "name": "",
          "type": "string"
        }
      ],
      "stateMutability": "view",
      "type": "function"
    },
    {
      "inputs": [],
      "name": "vault",
      "outputs": [
        {
          "internalType": "address",
          "name": "",
          "type": "address"
        }
      ],
      "stateMutability": "view",
      "type": "function"
    }
  ],
  "bytecode": "0x60806040527f65d7a28e3265b37a6474929f336521b332c1681b933f6cb9f3376673440d862a60c95534801561003457600080fd5b50612d99806100446000396000f3fe608060405234801561001057600080fd5b506004361061012c5760003560e01c80638456cb59116100ad578063e48034b511610071578063e48034b514610307578063eac989f814610323578063f54b893b14610341578063fbfa77cf14610371578063fc0c546a1461038f5761012c565b80638456cb591461027757806391d1485414610281578063a217fddf146102b1578063c4d66de8146102cf578063d547741f146102eb5761012c565b806336568abe116100f457806336568abe146101e75780633f4ba83a14610203578063510eff4c1461020d5780635c975abb1461023d5780636c11c21c1461025b5761012c565b806301ffc9a714610131578063248a9ca3146101615780632e7ba6ef146101915780632eb4a7ab146101ad5780632f2ff15d146101cb575b600080fd5b61014b60048036038101906101469190612050565b6103ad565b60405161015891906124a9565b60405180910390f35b61017b60048036038101906101769190611f97565b610427565b60405161018891906124c4565b60405180910390f35b6101ab60048036038101906101a69190612079565b610447565b005b6101b5610611565b6040516101c291906124c4565b60405180910390f35b6101e560048036038101906101e09190611fc0565b610617565b005b61020160048036038101906101fc9190611fc0565b610640565b005b61020b6106c3565b005b61022760048036038101906102229190612079565b6106e2565b6040516102349190612631565b60405180910390f35b6102456107d9565b60405161025291906124a9565b60405180910390f35b61027560048036038101906102709190611f1c565b6107f0565b005b61027f610815565b005b61029b60048036038101906102969190611fc0565b610834565b6040516102a891906124a9565b60405180910390f35b6102b961089f565b6040516102c691906124c4565b60405180910390f35b6102e960048036038101906102e49190611f1c565b6108a6565b005b61030560048036038101906103009190611fc0565b6108b2565b005b610321600480360381019061031c9190611ffc565b6108db565b005b61032b61094f565b604051610338919061250f565b60405180910390f35b61035b60048036038101906103569190611f1c565b6109dd565b6040516103689190612631565b60405180910390f35b610379610a26565b6040516103869190612465565b60405180910390f35b610397610a4c565b6040516103a49190612465565b60405180910390f35b60007f7965db0b000000000000000000000000000000000000000000000000000000007bffffffffffffffffffffffffffffffffffffffffffffffffffffffff1916827bffffffffffffffffffffffffffffffffffffffffffffffffffffffff19161480610420575061041f82610a72565b5b9050919050565b600060656000838152602001908152602001600020600101549050919050565b61044f6107d9565b1561048f576040517f08c379a000000000000000000000000000000000000000000000000000000000815260040161048690612571565b60405180910390fd5b600061049e86868686866106e2565b9050600081116104e3576040517f08c379a00000000000000000000000000000000000000000000000000000000081526004016104da906125d1565b60405180910390fd5b8060ce60008773ffffffffffffffffffffffffffffffffffffffff1673ffffffffffffffffffffffffffffffffffffffff16815260200190815260200160002060008282546105329190612715565b92505081905550600060ca60009054906101000a900473ffffffffffffffffffffffffffffffffffffffff1690508073ffffffffffffffffffffffffffffffffffffffff1663158a498887846040518363ffffffff1660e01b815260040161059b929190612480565b600060405180830381600087803b1580156105b557600080fd5b505af11580156105c9573d6000803e3d6000fd5b505050507f4ec90e965519d92681267467f775ada5bd214aa92c0dc93d90a5e880ce9ed0268787846040516106009392919061264c565b60405180910390a150505050505050565b60cc5481565b61062082610427565b6106318161062c610adc565b610ae4565b61063b8383610b81565b505050565b610648610adc565b73ffffffffffffffffffffffffffffffffffffffff168173ffffffffffffffffffffffffffffffffffffffff16146106b5576040517f08c379a00000000000000000000000000000000000000000000000000000000081526004016106ac90612611565b60405180910390fd5b6106bf8282610c62565b5050565b60c9546106d7816106d2610adc565b610ae4565b6106df610d44565b50565b6000808686866040516020016106fa93929190612428565b604051602081830303815290604052805190602001209050610760848480806020026020016040519081016040528093929190818152602001838360200280828437600081840152601f19601f8201169050808301925050505050505060cc5483610de6565b61079f576040517f08c379a0000000000000000000000000000000000000000000000000000000008152600401610796906125b1565b60405180910390fd5b60006107aa876109dd565b9050808611156107c95780866107c091906127c5565b925050506107d0565b6000925050505b95945050505050565b6000609760009054906101000a900460ff16905090565b6000801b61080581610800610adc565b610ae4565b61081160c95483610ec2565b5050565b60c95461082981610824610adc565b610ae4565b610831610ed0565b50565b60006065600084815260200190815260200160002060000160008373ffffffffffffffffffffffffffffffffffffffff1673ffffffffffffffffffffffffffffffffffffffff16815260200190815260200160002060009054906101000a900460ff16905092915050565b6000801b81565b6108af81610f73565b50565b6108bb82610427565b6108cc816108c7610adc565b610ae4565b6108d68383610c62565b505050565b6000801b6108f0816108eb610adc565b610ae4565b8260cc819055508160cd908051906020019061090d929190611d49565b507fdc6ef77e1e729c09277287d1224cc0b4fd2053bbcca61a8febb80e461803247860cc5460cd6040516109429291906124df565b60405180910390a1505050565b60cd805461095c906128e3565b80601f0160208091040260200160405190810160405280929190818152602001828054610988906128e3565b80156109d55780601f106109aa576101008083540402835291602001916109d5565b820191906000526020600020905b8154815290600101906020018083116109b857829003601f168201915b505050505081565b600060ce60008373ffffffffffffffffffffffffffffffffffffffff1673ffffffffffffffffffffffffffffffffffffffff168152602001908152602001600020549050919050565b60ca60009054906101000a900473ffffffffffffffffffffffffffffffffffffffff1681565b60cb60009054906101000a900473ffffffffffffffffffffffffffffffffffffffff1681565b60007f01ffc9a7000000000000000000000000000000000000000000000000000000007bffffffffffffffffffffffffffffffffffffffffffffffffffffffff1916827bffffffffffffffffffffffffffffffffffffffffffffffffffffffff1916149050919050565b600033905090565b610aee8282610834565b610b7d57610b138173ffffffffffffffffffffffffffffffffffffffff16601461105e565b610b218360001c602061105e565b604051602001610b329291906123ee565b6040516020818303038152906040526040517f08c379a0000000000000000000000000000000000000000000000000000000008152600401610b74919061250f565b60405180910390fd5b5050565b610b8b8282610834565b610c5e5760016065600084815260200190815260200160002060000160008373ffffffffffffffffffffffffffffffffffffffff1673ffffffffffffffffffffffffffffffffffffffff16815260200190815260200160002060006101000a81548160ff021916908315150217905550610c03610adc565b73ffffffffffffffffffffffffffffffffffffffff168173ffffffffffffffffffffffffffffffffffffffff16837f2f8788117e7eff1d82e926ec794901d17c78024a50270940304540a733656f0d60405160405180910390a45b5050565b610c6c8282610834565b15610d405760006065600084815260200190815260200160002060000160008373ffffffffffffffffffffffffffffffffffffffff1673ffffffffffffffffffffffffffffffffffffffff16815260200190815260200160002060006101000a81548160ff021916908315150217905550610ce5610adc565b73ffffffffffffffffffffffffffffffffffffffff168173ffffffffffffffffffffffffffffffffffffffff16837ff6391f5c32d9c69d2a47ea670b442974b53935d1edc7fd64eb21e047a839171b60405160405180910390a45b5050565b610d4c6107d9565b610d8b576040517f08c379a0000000000000000000000000000000000000000000000000000000008152600401610d8290612551565b60405180910390fd5b6000609760006101000a81548160ff0219169083151502179055507f5db9ee0a495bf2e6ff9c91a7834c1ba4fdd244a5e8aa4e537bd38aeae4b073aa610dcf610adc565b604051610ddc9190612465565b60405180910390a1565b60008082905060005b8551811015610eb4576000868281518110610e33577f4e487b7100000000000000000000000000000000000000000000000000000000600052603260045260246000fd5b60200260200101519050808311610e74578281604051602001610e579291906123c2565b604051602081830303815290604052805190602001209250610ea0565b8083604051602001610e879291906123c2565b6040516020818303038152906040528051906020012092505b508080610eac90612946565b915050610def565b508381149150509392505050565b610ecc8282610b81565b5050565b610ed86107d9565b15610f18576040517f08c379a0000000000000000000000000000000000000000000000000000000008152600401610f0f90612571565b60405180910390fd5b6001609760006101000a81548160ff0219169083151502179055507f62e78cea01bee320cd4e420270b5ea74000d11b0c9f74754ebdbfc544b05a258610f5c610adc565b604051610f699190612465565b60405180910390a1565b600060019054906101000a900460ff1680610f99575060008054906101000a900460ff16155b610fd8576040517f08c379a0000000000000000000000000000000000000000000000000000000008152600401610fcf90612591565b60405180910390fd5b60008060019054906101000a900460ff161590508015611028576001600060016101000a81548160ff02191690831515021790555060016000806101000a81548160ff0219169083151502179055505b611030611358565b61103982611449565b801561105a5760008060016101000a81548160ff0219169083151502179055505b5050565b606060006002836002611071919061276b565b61107b9190612715565b67ffffffffffffffff8111156110ba577f4e487b7100000000000000000000000000000000000000000000000000000000600052604160045260246000fd5b6040519080825280601f01601f1916602001820160405280156110ec5781602001600182028036833780820191505090505b5090507f30000000000000000000000000000000000000000000000000000000000000008160008151811061114a577f4e487b7100000000000000000000000000000000000000000000000000000000600052603260045260246000fd5b60200101907effffffffffffffffffffffffffffffffffffffffffffffffffffffffffffff1916908160001a9053507f7800000000000000000000000000000000000000000000000000000000000000816001815181106111d4577f4e487b7100000000000000000000000000000000000000000000000000000000600052603260045260246000fd5b60200101907effffffffffffffffffffffffffffffffffffffffffffffffffffffffffffff1916908160001a90535060006001846002611214919061276b565b61121e9190612715565b90505b600181111561130a577f3031323334353637383961626364656600000000000000000000000000000000600f861660108110611286577f4e487b7100000000000000000000000000000000000000000000000000000000600052603260045260246000fd5b1a60f81b8282815181106112c3577f4e487b7100000000000000000000000000000000000000000000000000000000600052603260045260246000fd5b60200101907effffffffffffffffffffffffffffffffffffffffffffffffffffffffffffff1916908160001a905350600485901c945080611303906128b9565b9050611221565b506000841461134e576040517f08c379a000000000000000000000000000000000000000000000000000000000815260040161134590612531565b60405180910390fd5b8091505092915050565b600060019054906101000a900460ff168061137e575060008054906101000a900460ff16155b6113bd576040517f08c379a00000000000000000000000000000000000000000000000000000000081526004016113b490612591565b60405180910390fd5b60008060019054906101000a900460ff16159050801561140d576001600060016101000a81548160ff02191690831515021790555060016000806101000a81548160ff0219169083151502179055505b6114156116f0565b61141d6117e1565b6114256118ca565b80156114465760008060016101000a81548160ff0219169083151502179055505b50565b600060019054906101000a900460ff168061146f575060008054906101000a900460ff16155b6114ae576040517f08c379a00000000000000000000000000000000000000000000000000000000081526004016114a590612591565b60405180910390fd5b60008060019054906101000a900460ff1615905080156114fe576001600060016101000a81548160ff02191690831515021790555060016000806101000a81548160ff0219169083151502179055505b60008290508073ffffffffffffffffffffffffffffffffffffffff1663ef037b90306040518263ffffffff1660e01b815260040161153c9190612465565b60206040518083038186803b15801561155457600080fd5b505afa158015611568573d6000803e3d6000fd5b505050506040513d601f19601f8201168201806040525081019061158c9190611f6e565b6115cb576040517f08c379a00000000000000000000000000000000000000000000000000000000081526004016115c2906125f1565b60405180910390fd5b8260ca60006101000a81548173ffffffffffffffffffffffffffffffffffffffff021916908373ffffffffffffffffffffffffffffffffffffffff1602179055508073ffffffffffffffffffffffffffffffffffffffff1663fc0c546a6040518163ffffffff1660e01b815260040160206040518083038186803b15801561165257600080fd5b505afa158015611666573d6000803e3d6000fd5b505050506040513d601f19601f8201168201806040525081019061168a9190611f45565b60cb60006101000a81548173ffffffffffffffffffffffffffffffffffffffff021916908373ffffffffffffffffffffffffffffffffffffffff1602179055505080156116ec5760008060016101000a81548160ff0219169083151502179055505b5050565b600060019054906101000a900460ff1680611716575060008054906101000a900460ff16155b611755576040517f08c379a000000000000000000000000000000000000000000000000000000000815260040161174c90612591565b60405180910390fd5b60008060019054906101000a900460ff1615905080156117a5576001600060016101000a81548160ff02191690831515021790555060016000806101000a81548160ff0219169083151502179055505b6117ad6119ca565b6117b5611aa3565b6117bd611b7c565b80156117de5760008060016101000a81548160ff0219169083151502179055505b50565b600060019054906101000a900460ff1680611807575060008054906101000a900460ff16155b611846576040517f08c379a000000000000000000000000000000000000000000000000000000000815260040161183d90612591565b60405180910390fd5b60008060019054906101000a900460ff161590508015611896576001600060016101000a81548160ff02191690831515021790555060016000806101000a81548160ff0219169083151502179055505b61189e6119ca565b6118a6611c55565b80156118c75760008060016101000a81548160ff0219169083151502179055505b50565b600060019054906101000a900460ff16806118f0575060008054906101000a900460ff16155b61192f576040517f08c379a000000000000000000000000000000000000000000000000000000000815260040161192690612591565b60405180910390fd5b60008060019054906101000a900460ff16159050801561197f576001600060016101000a81548160ff02191690831515021790555060016000806101000a81548160ff0219169083151502179055505b6119936000801b61198e610adc565b610ec2565b6119a660c9546119a1610adc565b610ec2565b80156119c75760008060016101000a81548160ff0219169083151502179055505b50565b600060019054906101000a900460ff16806119f0575060008054906101000a900460ff16155b611a2f576040517f08c379a0000000000000000000000000000000000000000000000000000000008152600401611a2690612591565b60405180910390fd5b60008060019054906101000a900460ff161590508015611a7f576001600060016101000a81548160ff02191690831515021790555060016000806101000a81548160ff0219169083151502179055505b8015611aa05760008060016101000a81548160ff0219169083151502179055505b50565b600060019054906101000a900460ff1680611ac9575060008054906101000a900460ff16155b611b08576040517f08c379a0000000000000000000000000000000000000000000000000000000008152600401611aff90612591565b60405180910390fd5b60008060019054906101000a900460ff161590508015611b58576001600060016101000a81548160ff02191690831515021790555060016000806101000a81548160ff0219169083151502179055505b8015611b795760008060016101000a81548160ff0219169083151502179055505b50565b600060019054906101000a900460ff1680611ba2575060008054906101000a900460ff16155b611be1576040517f08c379a0000000000000000000000000000000000000000000000000000000008152600401611bd890612591565b60405180910390fd5b60008060019054906101000a900460ff161590508015611c31576001600060016101000a81548160ff02191690831515021790555060016000806101000a81548160ff0219169083151502179055505b8015611c525760008060016101000a81548160ff0219169083151502179055505b50565b600060019054906101000a900460ff1680611c7b575060008054906101000a900460ff16155b611cba576040517f08c379a0000000000000000000000000000000000000000000000000000000008152600401611cb190612591565b60405180910390fd5b60008060019054906101000a900460ff161590508015611d0a576001600060016101000a81548160ff02191690831515021790555060016000806101000a81548160ff0219169083151502179055505b6000609760006101000a81548160ff0219169083151502179055508015611d465760008060016101000a81548160ff0219169083151502179055505b50565b828054611d55906128e3565b90600052602060002090601f016020900481019282611d775760008555611dbe565b82601f10611d9057805160ff1916838001178555611dbe565b82800160010185558215611dbe579182015b82811115611dbd578251825591602001919060010190611da2565b5b509050611dcb9190611dcf565b5090565b5b80821115611de8576000816000905550600101611dd0565b5090565b6000611dff611dfa846126a8565b612683565b905082815260208101848484011115611e1757600080fd5b611e22848285612877565b509392505050565b600081359050611e3981612cf0565b92915050565b600081519050611e4e81612cf0565b92915050565b60008083601f840112611e6657600080fd5b8235905067ffffffffffffffff811115611e7f57600080fd5b602083019150836020820283011115611e9757600080fd5b9250929050565b600081519050611ead81612d07565b92915050565b600081359050611ec281612d1e565b92915050565b600081359050611ed781612d35565b92915050565b600082601f830112611eee57600080fd5b8135611efe848260208601611dec565b91505092915050565b600081359050611f1681612d4c565b92915050565b600060208284031215611f2e57600080fd5b6000611f3c84828501611e2a565b91505092915050565b600060208284031215611f5757600080fd5b6000611f6584828501611e3f565b91505092915050565b600060208284031215611f8057600080fd5b6000611f8e84828501611e9e565b91505092915050565b600060208284031215611fa957600080fd5b6000611fb784828501611eb3565b91505092915050565b60008060408385031215611fd357600080fd5b6000611fe185828601611eb3565b9250506020611ff285828601611e2a565b9150509250929050565b6000806040838503121561200f57600080fd5b600061201d85828601611eb3565b925050602083013567ffffffffffffffff81111561203a57600080fd5b61204685828601611edd565b9150509250929050565b60006020828403121561206257600080fd5b600061207084828501611ec8565b91505092915050565b60008060008060006080868803121561209157600080fd5b600061209f88828901611f07565b95505060206120b088828901611e2a565b94505060406120c188828901611f07565b935050606086013567ffffffffffffffff8111156120de57600080fd5b6120ea88828901611e54565b92509250509295509295909350565b612102816127f9565b82525050565b612119612114826127f9565b61298f565b82525050565b6121288161280b565b82525050565b61213781612817565b82525050565b61214e61214982612817565b6129a1565b82525050565b600061215f826126ee565b61216981856126f9565b9350612179818560208601612886565b61218281612a54565b840191505092915050565b6000612198826126ee565b6121a2818561270a565b93506121b2818560208601612886565b80840191505092915050565b600081546121cb816128e3565b6121d581866126f9565b945060018216600081146121f0576001811461220257612235565b60ff1983168652602086019350612235565b61220b856126d9565b60005b8381101561222d5781548189015260018201915060208101905061220e565b808801955050505b50505092915050565b600061224b6020836126f9565b915061225682612a72565b602082019050919050565b600061226e6014836126f9565b915061227982612a9b565b602082019050919050565b60006122916010836126f9565b915061229c82612ac4565b602082019050919050565b60006122b4602e836126f9565b91506122bf82612aed565b604082019050919050565b60006122d7602b836126f9565b91506122e282612b3c565b604082019050919050565b60006122fa602e836126f9565b915061230582612b8b565b604082019050919050565b600061231d60178361270a565b915061232882612bda565b601782019050919050565b6000612340604a836126f9565b915061234b82612c03565b606082019050919050565b600061236360118361270a565b915061236e82612c78565b601182019050919050565b6000612386602f836126f9565b915061239182612ca1565b604082019050919050565b6123a58161286d565b82525050565b6123bc6123b78261286d565b6129bd565b82525050565b60006123ce828561213d565b6020820191506123de828461213d565b6020820191508190509392505050565b60006123f982612310565b9150612405828561218d565b915061241082612356565b915061241c828461218d565b91508190509392505050565b600061243482866123ab565b6020820191506124448285612108565b60148201915061245482846123ab565b602082019150819050949350505050565b600060208201905061247a60008301846120f9565b92915050565b600060408201905061249560008301856120f9565b6124a2602083018461239c565b9392505050565b60006020820190506124be600083018461211f565b92915050565b60006020820190506124d9600083018461212e565b92915050565b60006040820190506124f4600083018561212e565b818103602083015261250681846121be565b90509392505050565b600060208201905081810360008301526125298184612154565b905092915050565b6000602082019050818103600083015261254a8161223e565b9050919050565b6000602082019050818103600083015261256a81612261565b9050919050565b6000602082019050818103600083015261258a81612284565b9050919050565b600060208201905081810360008301526125aa816122a7565b9050919050565b600060208201905081810360008301526125ca816122ca565b9050919050565b600060208201905081810360008301526125ea816122ed565b9050919050565b6000602082019050818103600083015261260a81612333565b9050919050565b6000602082019050818103600083015261262a81612379565b9050919050565b6000602082019050612646600083018461239c565b92915050565b6000606082019050612661600083018661239c565b61266e60208301856120f9565b61267b604083018461239c565b949350505050565b600061268d61269e565b90506126998282612915565b919050565b6000604051905090565b600067ffffffffffffffff8211156126c3576126c2612a25565b5b6126cc82612a54565b9050602081019050919050565b60008190508160005260206000209050919050565b600081519050919050565b600082825260208201905092915050565b600081905092915050565b60006127208261286d565b915061272b8361286d565b9250827fffffffffffffffffffffffffffffffffffffffffffffffffffffffffffffffff038211156127605761275f6129c7565b5b828201905092915050565b60006127768261286d565b91506127818361286d565b9250817fffffffffffffffffffffffffffffffffffffffffffffffffffffffffffffffff04831182151516156127ba576127b96129c7565b5b828202905092915050565b60006127d08261286d565b91506127db8361286d565b9250828210156127ee576127ed6129c7565b5b828203905092915050565b60006128048261284d565b9050919050565b60008115159050919050565b6000819050919050565b60007fffffffff0000000000000000000000000000000000000000000000000000000082169050919050565b600073ffffffffffffffffffffffffffffffffffffffff82169050919050565b6000819050919050565b82818337600083830152505050565b60005b838110156128a4578082015181840152602081019050612889565b838111156128b3576000848401525b50505050565b60006128c48261286d565b915060008214156128d8576128d76129c7565b5b600182039050919050565b600060028204905060018216806128fb57607f821691505b6020821081141561290f5761290e6129f6565b5b50919050565b61291e82612a54565b810181811067ffffffffffffffff8211171561293d5761293c612a25565b5b80604052505050565b60006129518261286d565b91507fffffffffffffffffffffffffffffffffffffffffffffffffffffffffffffffff821415612984576129836129c7565b5b600182019050919050565b600061299a826129ab565b9050919050565b6000819050919050565b60006129b682612a65565b9050919050565b6000819050919050565b7f4e487b7100000000000000000000000000000000000000000000000000000000600052601160045260246000fd5b7f4e487b7100000000000000000000000000000000000000000000000000000000600052602260045260246000fd5b7f4e487b7100000000000000000000000000000000000000000000000000000000600052604160045260246000fd5b6000601f19601f8301169050919050565b60008160601b9050919050565b7f537472696e67733a20686578206c656e67746820696e73756666696369656e74600082015250565b7f5061757361626c653a206e6f7420706175736564000000000000000000000000600082015250565b7f5061757361626c653a2070617573656400000000000000000000000000000000600082015250565b7f496e697469616c697a61626c653a20636f6e747261637420697320616c72656160008201527f647920696e697469616c697a6564000000000000000000000000000000000000602082015250565b7f4d65726b6c654469737472696275746f7255706461746561626c653a20496e7660008201527f616c69642070726f6f662e000000000000000000000000000000000000000000602082015250565b7f4d65726b6c654469737472696275746f7255706461746561626c653a204e6f7460008201527f68696e6720746f20636c61696d2e000000000000000000000000000000000000602082015250565b7f416363657373436f6e74726f6c3a206163636f756e7420000000000000000000600082015250565b7f4d65726b6c654469737472696275746f7255706461746561626c653a2074686960008201527f732061646472657373206973206e6f7420612076616c6964207661756c74207360208201527f74616b65686f6c64657200000000000000000000000000000000000000000000604082015250565b7f206973206d697373696e6720726f6c6520000000000000000000000000000000600082015250565b7f416363657373436f6e74726f6c3a2063616e206f6e6c792072656e6f756e636560008201527f20726f6c657320666f722073656c660000000000000000000000000000000000602082015250565b612cf9816127f9565b8114612d0457600080fd5b50565b612d108161280b565b8114612d1b57600080fd5b50565b612d2781612817565b8114612d3257600080fd5b50565b612d3e81612821565b8114612d4957600080fd5b50565b612d558161286d565b8114612d6057600080fd5b5056fea264697066735822122052732f93451802e937821d927d674e0503ee8cd7aef04875e38961396e8973a264736f6c63430008020033",
  "linkReferences": {},
  "deployedLinkReferences": {}
}