{
  "_format": "hh-sol-artifact-1",
  "contractName": "TutellusMerkleDistributorUpdateable",
  "sourceName": "contracts/TutellusMerkleDistributorUpdateable.sol",
  "abi": [
    {
      "inputs": [
        {
          "internalType": "address",
          "name": "rolemanager",
          "type": "address"
        },
        {
          "internalType": "address",
          "name": "token_",
          "type": "address"
        }
      ],
      "stateMutability": "nonpayable",
      "type": "constructor"
    },
    {
      "anonymous": false,
      "inputs": [
        {
          "indexed": false,
          "internalType": "uint256",
          "name": "index",
          "type": "uint256"
        },
        {
          "indexed": false,
          "internalType": "address",
          "name": "account",
          "type": "address"
        },
        {
          "indexed": false,
          "internalType": "uint256",
          "name": "claimed",
          "type": "uint256"
        }
      ],
      "name": "Claimed",
      "type": "event"
    },
    {
      "anonymous": false,
      "inputs": [
        {
          "indexed": false,
          "internalType": "bytes32",
          "name": "merkleRoot",
          "type": "bytes32"
        },
        {
          "indexed": false,
          "internalType": "string",
          "name": "uri",
          "type": "string"
        }
      ],
      "name": "MerkleRootUpdated",
      "type": "event"
    },
    {
      "anonymous": false,
      "inputs": [
        {
          "indexed": false,
          "internalType": "address",
          "name": "account",
          "type": "address"
        }
      ],
      "name": "Paused",
      "type": "event"
    },
    {
      "anonymous": false,
      "inputs": [
        {
          "indexed": false,
          "internalType": "address",
          "name": "account",
          "type": "address"
        }
      ],
      "name": "Unpaused",
      "type": "event"
    },
    {
      "inputs": [],
      "name": "DEFAULT_ADMIN_ROLE",
      "outputs": [
        {
          "internalType": "bytes32",
          "name": "",
          "type": "bytes32"
        }
      ],
      "stateMutability": "view",
      "type": "function"
    },
    {
      "inputs": [],
      "name": "PAUSER_ROLE",
      "outputs": [
        {
          "internalType": "bytes32",
          "name": "",
          "type": "bytes32"
        }
      ],
      "stateMutability": "view",
      "type": "function"
    },
    {
      "inputs": [
        {
          "internalType": "address",
          "name": "account",
          "type": "address"
        }
      ],
      "name": "alreadyClaimed",
      "outputs": [
        {
          "internalType": "uint256",
          "name": "",
          "type": "uint256"
        }
      ],
      "stateMutability": "view",
      "type": "function"
    },
    {
      "inputs": [
        {
          "internalType": "uint256",
          "name": "index",
          "type": "uint256"
        },
        {
          "internalType": "address",
          "name": "account",
          "type": "address"
        },
        {
          "internalType": "uint256",
          "name": "amount",
          "type": "uint256"
        },
        {
          "internalType": "bytes32[]",
          "name": "merkleProof",
          "type": "bytes32[]"
        }
      ],
      "name": "claim",
      "outputs": [],
      "stateMutability": "nonpayable",
      "type": "function"
    },
    {
      "inputs": [
        {
          "internalType": "uint256",
          "name": "index",
          "type": "uint256"
        },
        {
          "internalType": "address",
          "name": "account",
          "type": "address"
        },
        {
          "internalType": "uint256",
          "name": "amount",
          "type": "uint256"
        },
        {
          "internalType": "bytes32[]",
          "name": "merkleProof",
          "type": "bytes32[]"
        }
      ],
      "name": "leftToClaim",
      "outputs": [
        {
          "internalType": "uint256",
          "name": "",
          "type": "uint256"
        }
      ],
      "stateMutability": "view",
      "type": "function"
    },
    {
      "inputs": [],
      "name": "merkleRoot",
      "outputs": [
        {
          "internalType": "bytes32",
          "name": "",
          "type": "bytes32"
        }
      ],
      "stateMutability": "view",
      "type": "function"
    },
    {
      "inputs": [],
      "name": "pause",
      "outputs": [],
      "stateMutability": "nonpayable",
      "type": "function"
    },
    {
      "inputs": [],
      "name": "paused",
      "outputs": [
        {
          "internalType": "bool",
          "name": "",
          "type": "bool"
        }
      ],
      "stateMutability": "view",
      "type": "function"
    },
    {
      "inputs": [],
      "name": "token",
      "outputs": [
        {
          "internalType": "address",
          "name": "",
          "type": "address"
        }
      ],
      "stateMutability": "view",
      "type": "function"
    },
    {
      "inputs": [],
      "name": "unpause",
      "outputs": [],
      "stateMutability": "nonpayable",
      "type": "function"
    },
    {
      "inputs": [
        {
          "internalType": "address",
          "name": "manager",
          "type": "address"
        }
      ],
      "name": "updateManager",
      "outputs": [],
      "stateMutability": "nonpayable",
      "type": "function"
    },
    {
      "inputs": [
        {
          "internalType": "bytes32",
          "name": "merkleRoot_",
          "type": "bytes32"
        },
        {
          "internalType": "string",
          "name": "uri_",
          "type": "string"
        }
      ],
      "name": "updateMerkleRoot",
      "outputs": [],
      "stateMutability": "nonpayable",
      "type": "function"
    },
    {
      "inputs": [],
      "name": "uri",
      "outputs": [
        {
          "internalType": "string",
          "name": "",
          "type": "string"
        }
      ],
      "stateMutability": "view",
      "type": "function"
    }
  ],
  "bytecode": "0x60806040523480156200001157600080fd5b506040516200283338038062002833833981810160405281019062000037919062000786565b6200004982826200005160201b60201c565b5050620008be565b600060019054906101000a900460ff168062000078575060008054906101000a900460ff16155b620000ba576040517f08c379a0000000000000000000000000000000000000000000000000000000008152600401620000b190620007ee565b60405180910390fd5b60008060019054906101000a900460ff1615905080156200010b576001600060016101000a81548160ff02191690831515021790555060016000806101000a81548160ff0219169083151502179055505b6200011c836200015460201b60201c565b6200012d826200025560201b60201c565b80156200014f5760008060016101000a81548160ff0219169083151502179055505b505050565b600060019054906101000a900460ff16806200017b575060008054906101000a900460ff16155b620001bd576040517f08c379a0000000000000000000000000000000000000000000000000000000008152600401620001b490620007ee565b60405180910390fd5b60008060019054906101000a900460ff1615905080156200020e576001600060016101000a81548160ff02191690831515021790555060016000806101000a81548160ff0219169083151502179055505b6200021e6200037660201b60201c565b6200022f826200047560201b60201c565b8015620002515760008060016101000a81548160ff0219169083151502179055505b5050565b600060019054906101000a900460ff16806200027c575060008054906101000a900460ff16155b620002be576040517f08c379a0000000000000000000000000000000000000000000000000000000008152600401620002b590620007ee565b60405180910390fd5b60008060019054906101000a900460ff1615905080156200030f576001600060016101000a81548160ff02191690831515021790555060016000806101000a81548160ff0219169083151502179055505b81606660006101000a81548173ffffffffffffffffffffffffffffffffffffffff021916908373ffffffffffffffffffffffffffffffffffffffff1602179055508015620003725760008060016101000a81548160ff0219169083151502179055505b5050565b600060019054906101000a900460ff16806200039d575060008054906101000a900460ff16155b620003df576040517f08c379a0000000000000000000000000000000000000000000000000000000008152600401620003d690620007ee565b60405180910390fd5b60008060019054906101000a900460ff16159050801562000430576001600060016101000a81548160ff02191690831515021790555060016000806101000a81548160ff0219169083151502179055505b620004406200059660201b60201c565b620004506200067560201b60201c565b8015620004725760008060016101000a81548160ff0219169083151502179055505b50565b600060019054906101000a900460ff16806200049c575060008054906101000a900460ff16155b620004de576040517f08c379a0000000000000000000000000000000000000000000000000000000008152600401620004d590620007ee565b60405180910390fd5b60008060019054906101000a900460ff1615905080156200052f576001600060016101000a81548160ff02191690831515021790555060016000806101000a81548160ff0219169083151502179055505b81606560006101000a81548173ffffffffffffffffffffffffffffffffffffffff021916908373ffffffffffffffffffffffffffffffffffffffff1602179055508015620005925760008060016101000a81548160ff0219169083151502179055505b5050565b600060019054906101000a900460ff1680620005bd575060008054906101000a900460ff16155b620005ff576040517f08c379a0000000000000000000000000000000000000000000000000000000008152600401620005f690620007ee565b60405180910390fd5b60008060019054906101000a900460ff16159050801562000650576001600060016101000a81548160ff02191690831515021790555060016000806101000a81548160ff0219169083151502179055505b8015620006725760008060016101000a81548160ff0219169083151502179055505b50565b600060019054906101000a900460ff16806200069c575060008054906101000a900460ff16155b620006de576040517f08c379a0000000000000000000000000000000000000000000000000000000008152600401620006d590620007ee565b60405180910390fd5b60008060019054906101000a900460ff1615905080156200072f576001600060016101000a81548160ff02191690831515021790555060016000806101000a81548160ff0219169083151502179055505b6000603360006101000a81548160ff02191690831515021790555080156200076c5760008060016101000a81548160ff0219169083151502179055505b50565b6000815190506200078081620008a4565b92915050565b600080604083850312156200079a57600080fd5b6000620007aa858286016200076f565b9250506020620007bd858286016200076f565b9150509250929050565b6000620007d6602e8362000810565b9150620007e38262000855565b604082019050919050565b600060208201905081810360008301526200080981620007c7565b9050919050565b600082825260208201905092915050565b60006200082e8262000835565b9050919050565b600073ffffffffffffffffffffffffffffffffffffffff82169050919050565b7f496e697469616c697a61626c653a20636f6e747261637420697320616c72656160008201527f647920696e697469616c697a6564000000000000000000000000000000000000602082015250565b620008af8162000821565b8114620008bb57600080fd5b50565b611f6580620008ce6000396000f3fe608060405234801561001057600080fd5b50600436106100cf5760003560e01c80638456cb591161008c578063e63ab1e911610066578063e63ab1e9146101c6578063eac989f8146101e4578063f54b893b14610202578063fc0c546a14610232576100cf565b80638456cb5914610182578063a217fddf1461018c578063e48034b5146101aa576100cf565b80632e7ba6ef146100d45780632eb4a7ab146100f05780633f4ba83a1461010e578063510eff4c1461011857806358aba00f146101485780635c975abb14610164575b600080fd5b6100ee60048036038101906100e99190611415565b610250565b005b6100f861043b565b60405161010591906117f7565b60405180910390f35b610116610441565b005b610132600480360381019061012d9190611415565b6105b7565b60405161013f919061192d565b60405180910390f35b610162600480360381019061015d919061136f565b6106ae565b005b61016c610841565b60405161017991906117dc565b60405180910390f35b61018a610858565b005b6101946109ce565b6040516101a191906117f7565b60405180910390f35b6101c460048036038101906101bf91906113c1565b6109d5565b005b6101ce610b82565b6040516101db91906117f7565b60405180910390f35b6101ec610ba6565b6040516101f9919061186b565b60405180910390f35b61021c6004803603810190610217919061136f565b610c34565b604051610229919061192d565b60405180910390f35b61023a610c7d565b6040516102479190611798565b60405180910390f35b610258610841565b15610298576040517f08c379a000000000000000000000000000000000000000000000000000000000815260040161028f906118cd565b60405180910390fd5b60006102a786868686866105b7565b9050600081116102ec576040517f08c379a00000000000000000000000000000000000000000000000000000000081526004016102e39061190d565b60405180910390fd5b80606960008773ffffffffffffffffffffffffffffffffffffffff1673ffffffffffffffffffffffffffffffffffffffff168152602001908152602001600020600082825461033b9190611a11565b925050819055506000606660009054906101000a900473ffffffffffffffffffffffffffffffffffffffff1690508073ffffffffffffffffffffffffffffffffffffffff1663a9059cbb87876040518363ffffffff1660e01b81526004016103a49291906117b3565b602060405180830381600087803b1580156103be57600080fd5b505af11580156103d2573d6000803e3d6000fd5b505050506040513d601f19601f820116820180604052508101906103f69190611398565b507f4ec90e965519d92681267467f775ada5bd214aa92c0dc93d90a5e880ce9ed02687878460405161042a93929190611948565b60405180910390a150505050505050565b60675481565b7f65d7a28e3265b37a6474929f336521b332c1681b933f6cb9f3376673440d862a6000606560009054906101000a900473ffffffffffffffffffffffffffffffffffffffff16905060003390508173ffffffffffffffffffffffffffffffffffffffff166391d1485484836040518363ffffffff1660e01b81526004016104c9929190611812565b60206040518083038186803b1580156104e157600080fd5b505afa1580156104f5573d6000803e3d6000fd5b505050506040513d601f19601f820116820180604052508101906105199190611398565b61053a8273ffffffffffffffffffffffffffffffffffffffff166014610ca3565b6105488560001c6020610ca3565b604051602001610559929190611721565b604051602081830303815290604052906105a9576040517f08c379a00000000000000000000000000000000000000000000000000000000081526004016105a0919061186b565b60405180910390fd5b506105b2610f9d565b505050565b6000808686866040516020016105cf9392919061175b565b604051602081830303815290604052805190602001209050610635848480806020026020016040519081016040528093929190818152602001838360200280828437600081840152601f19601f820116905080830192505050505050506067548361103f565b610674576040517f08c379a000000000000000000000000000000000000000000000000000000000815260040161066b906118ed565b60405180910390fd5b600061067f87610c34565b90508086111561069e5780866106959190611ac1565b925050506106a5565b6000925050505b95945050505050565b6000801b6000606560009054906101000a900473ffffffffffffffffffffffffffffffffffffffff16905060003390508173ffffffffffffffffffffffffffffffffffffffff166391d1485484836040518363ffffffff1660e01b8152600401610719929190611812565b60206040518083038186803b15801561073157600080fd5b505afa158015610745573d6000803e3d6000fd5b505050506040513d601f19601f820116820180604052508101906107699190611398565b61078a8273ffffffffffffffffffffffffffffffffffffffff166014610ca3565b6107988560001c6020610ca3565b6040516020016107a9929190611721565b604051602081830303815290604052906107f9576040517f08c379a00000000000000000000000000000000000000000000000000000000081526004016107f0919061186b565b60405180910390fd5b5083606560006101000a81548173ffffffffffffffffffffffffffffffffffffffff021916908373ffffffffffffffffffffffffffffffffffffffff16021790555050505050565b6000603360009054906101000a900460ff16905090565b7f65d7a28e3265b37a6474929f336521b332c1681b933f6cb9f3376673440d862a6000606560009054906101000a900473ffffffffffffffffffffffffffffffffffffffff16905060003390508173ffffffffffffffffffffffffffffffffffffffff166391d1485484836040518363ffffffff1660e01b81526004016108e0929190611812565b60206040518083038186803b1580156108f857600080fd5b505afa15801561090c573d6000803e3d6000fd5b505050506040513d601f19601f820116820180604052508101906109309190611398565b6109518273ffffffffffffffffffffffffffffffffffffffff166014610ca3565b61095f8560001c6020610ca3565b604051602001610970929190611721565b604051602081830303815290604052906109c0576040517f08c379a00000000000000000000000000000000000000000000000000000000081526004016109b7919061186b565b60405180910390fd5b506109c961111b565b505050565b6000801b81565b6000801b6000606560009054906101000a900473ffffffffffffffffffffffffffffffffffffffff16905060003390508173ffffffffffffffffffffffffffffffffffffffff166391d1485484836040518363ffffffff1660e01b8152600401610a40929190611812565b60206040518083038186803b158015610a5857600080fd5b505afa158015610a6c573d6000803e3d6000fd5b505050506040513d601f19601f82011682018060405250810190610a909190611398565b610ab18273ffffffffffffffffffffffffffffffffffffffff166014610ca3565b610abf8560001c6020610ca3565b604051602001610ad0929190611721565b60405160208183030381529060405290610b20576040517f08c379a0000000000000000000000000000000000000000000000000000000008152600401610b17919061186b565b60405180910390fd5b50846067819055508360689080519060200190610b3e9291906111c6565b507fdc6ef77e1e729c09277287d1224cc0b4fd2053bbcca61a8febb80e46180324786067546068604051610b7392919061183b565b60405180910390a15050505050565b7f65d7a28e3265b37a6474929f336521b332c1681b933f6cb9f3376673440d862a81565b60688054610bb390611bb3565b80601f0160208091040260200160405190810160405280929190818152602001828054610bdf90611bb3565b8015610c2c5780601f10610c0157610100808354040283529160200191610c2c565b820191906000526020600020905b815481529060010190602001808311610c0f57829003601f168201915b505050505081565b6000606960008373ffffffffffffffffffffffffffffffffffffffff1673ffffffffffffffffffffffffffffffffffffffff168152602001908152602001600020549050919050565b606660009054906101000a900473ffffffffffffffffffffffffffffffffffffffff1681565b606060006002836002610cb69190611a67565b610cc09190611a11565b67ffffffffffffffff811115610cff577f4e487b7100000000000000000000000000000000000000000000000000000000600052604160045260246000fd5b6040519080825280601f01601f191660200182016040528015610d315781602001600182028036833780820191505090505b5090507f300000000000000000000000000000000000000000000000000000000000000081600081518110610d8f577f4e487b7100000000000000000000000000000000000000000000000000000000600052603260045260246000fd5b60200101907effffffffffffffffffffffffffffffffffffffffffffffffffffffffffffff1916908160001a9053507f780000000000000000000000000000000000000000000000000000000000000081600181518110610e19577f4e487b7100000000000000000000000000000000000000000000000000000000600052603260045260246000fd5b60200101907effffffffffffffffffffffffffffffffffffffffffffffffffffffffffffff1916908160001a90535060006001846002610e599190611a67565b610e639190611a11565b90505b6001811115610f4f577f3031323334353637383961626364656600000000000000000000000000000000600f861660108110610ecb577f4e487b7100000000000000000000000000000000000000000000000000000000600052603260045260246000fd5b1a60f81b828281518110610f08577f4e487b7100000000000000000000000000000000000000000000000000000000600052603260045260246000fd5b60200101907effffffffffffffffffffffffffffffffffffffffffffffffffffffffffffff1916908160001a905350600485901c945080610f4890611b89565b9050610e66565b5060008414610f93576040517f08c379a0000000000000000000000000000000000000000000000000000000008152600401610f8a9061188d565b60405180910390fd5b8091505092915050565b610fa5610841565b610fe4576040517f08c379a0000000000000000000000000000000000000000000000000000000008152600401610fdb906118ad565b60405180910390fd5b6000603360006101000a81548160ff0219169083151502179055507f5db9ee0a495bf2e6ff9c91a7834c1ba4fdd244a5e8aa4e537bd38aeae4b073aa6110286111be565b6040516110359190611798565b60405180910390a1565b60008082905060005b855181101561110d57600086828151811061108c577f4e487b7100000000000000000000000000000000000000000000000000000000600052603260045260246000fd5b602002602001015190508083116110cd5782816040516020016110b09291906116f5565b6040516020818303038152906040528051906020012092506110f9565b80836040516020016110e09291906116f5565b6040516020818303038152906040528051906020012092505b50808061110590611c16565b915050611048565b508381149150509392505050565b611123610841565b15611163576040517f08c379a000000000000000000000000000000000000000000000000000000000815260040161115a906118cd565b60405180910390fd5b6001603360006101000a81548160ff0219169083151502179055507f62e78cea01bee320cd4e420270b5ea74000d11b0c9f74754ebdbfc544b05a2586111a76111be565b6040516111b49190611798565b60405180910390a1565b600033905090565b8280546111d290611bb3565b90600052602060002090601f0160209004810192826111f4576000855561123b565b82601f1061120d57805160ff191683800117855561123b565b8280016001018555821561123b579182015b8281111561123a57825182559160200191906001019061121f565b5b509050611248919061124c565b5090565b5b8082111561126557600081600090555060010161124d565b5090565b600061127c611277846119a4565b61197f565b90508281526020810184848401111561129457600080fd5b61129f848285611b47565b509392505050565b6000813590506112b681611ed3565b92915050565b60008083601f8401126112ce57600080fd5b8235905067ffffffffffffffff8111156112e757600080fd5b6020830191508360208202830111156112ff57600080fd5b9250929050565b60008151905061131581611eea565b92915050565b60008135905061132a81611f01565b92915050565b600082601f83011261134157600080fd5b8135611351848260208601611269565b91505092915050565b60008135905061136981611f18565b92915050565b60006020828403121561138157600080fd5b600061138f848285016112a7565b91505092915050565b6000602082840312156113aa57600080fd5b60006113b884828501611306565b91505092915050565b600080604083850312156113d457600080fd5b60006113e28582860161131b565b925050602083013567ffffffffffffffff8111156113ff57600080fd5b61140b85828601611330565b9150509250929050565b60008060008060006080868803121561142d57600080fd5b600061143b8882890161135a565b955050602061144c888289016112a7565b945050604061145d8882890161135a565b935050606086013567ffffffffffffffff81111561147a57600080fd5b611486888289016112bc565b92509250509295509295909350565b61149e81611af5565b82525050565b6114b56114b082611af5565b611c5f565b82525050565b6114c481611b07565b82525050565b6114d381611b13565b82525050565b6114ea6114e582611b13565b611c71565b82525050565b60006114fb826119ea565b61150581856119f5565b9350611515818560208601611b56565b61151e81611d24565b840191505092915050565b6000611534826119ea565b61153e8185611a06565b935061154e818560208601611b56565b80840191505092915050565b6000815461156781611bb3565b61157181866119f5565b9450600182166000811461158c576001811461159e576115d1565b60ff19831686526020860193506115d1565b6115a7856119d5565b60005b838110156115c9578154818901526001820191506020810190506115aa565b808801955050505b50505092915050565b60006115e76020836119f5565b91506115f282611d42565b602082019050919050565b600061160a602483611a06565b915061161582611d6b565b602482019050919050565b600061162d6014836119f5565b915061163882611dba565b602082019050919050565b60006116506010836119f5565b915061165b82611de3565b602082019050919050565b6000611673602b836119f5565b915061167e82611e0c565b604082019050919050565b6000611696602e836119f5565b91506116a182611e5b565b604082019050919050565b60006116b9601183611a06565b91506116c482611eaa565b601182019050919050565b6116d881611b3d565b82525050565b6116ef6116ea82611b3d565b611c8d565b82525050565b600061170182856114d9565b60208201915061171182846114d9565b6020820191508190509392505050565b600061172c826115fd565b91506117388285611529565b9150611743826116ac565b915061174f8284611529565b91508190509392505050565b600061176782866116de565b60208201915061177782856114a4565b60148201915061178782846116de565b602082019150819050949350505050565b60006020820190506117ad6000830184611495565b92915050565b60006040820190506117c86000830185611495565b6117d560208301846116cf565b9392505050565b60006020820190506117f160008301846114bb565b92915050565b600060208201905061180c60008301846114ca565b92915050565b600060408201905061182760008301856114ca565b6118346020830184611495565b9392505050565b600060408201905061185060008301856114ca565b8181036020830152611862818461155a565b90509392505050565b6000602082019050818103600083015261188581846114f0565b905092915050565b600060208201905081810360008301526118a6816115da565b9050919050565b600060208201905081810360008301526118c681611620565b9050919050565b600060208201905081810360008301526118e681611643565b9050919050565b6000602082019050818103600083015261190681611666565b9050919050565b6000602082019050818103600083015261192681611689565b9050919050565b600060208201905061194260008301846116cf565b92915050565b600060608201905061195d60008301866116cf565b61196a6020830185611495565b61197760408301846116cf565b949350505050565b600061198961199a565b90506119958282611be5565b919050565b6000604051905090565b600067ffffffffffffffff8211156119bf576119be611cf5565b5b6119c882611d24565b9050602081019050919050565b60008190508160005260206000209050919050565b600081519050919050565b600082825260208201905092915050565b600081905092915050565b6000611a1c82611b3d565b9150611a2783611b3d565b9250827fffffffffffffffffffffffffffffffffffffffffffffffffffffffffffffffff03821115611a5c57611a5b611c97565b5b828201905092915050565b6000611a7282611b3d565b9150611a7d83611b3d565b9250817fffffffffffffffffffffffffffffffffffffffffffffffffffffffffffffffff0483118215151615611ab657611ab5611c97565b5b828202905092915050565b6000611acc82611b3d565b9150611ad783611b3d565b925082821015611aea57611ae9611c97565b5b828203905092915050565b6000611b0082611b1d565b9050919050565b60008115159050919050565b6000819050919050565b600073ffffffffffffffffffffffffffffffffffffffff82169050919050565b6000819050919050565b82818337600083830152505050565b60005b83811015611b74578082015181840152602081019050611b59565b83811115611b83576000848401525b50505050565b6000611b9482611b3d565b91506000821415611ba857611ba7611c97565b5b600182039050919050565b60006002820490506001821680611bcb57607f821691505b60208210811415611bdf57611bde611cc6565b5b50919050565b611bee82611d24565b810181811067ffffffffffffffff82111715611c0d57611c0c611cf5565b5b80604052505050565b6000611c2182611b3d565b91507fffffffffffffffffffffffffffffffffffffffffffffffffffffffffffffffff821415611c5457611c53611c97565b5b600182019050919050565b6000611c6a82611c7b565b9050919050565b6000819050919050565b6000611c8682611d35565b9050919050565b6000819050919050565b7f4e487b7100000000000000000000000000000000000000000000000000000000600052601160045260246000fd5b7f4e487b7100000000000000000000000000000000000000000000000000000000600052602260045260246000fd5b7f4e487b7100000000000000000000000000000000000000000000000000000000600052604160045260246000fd5b6000601f19601f8301169050919050565b60008160601b9050919050565b7f537472696e67733a20686578206c656e67746820696e73756666696369656e74600082015250565b7f416363657373436f6e74726f6c50726f78795061757361626c653a206163636f60008201527f756e742000000000000000000000000000000000000000000000000000000000602082015250565b7f5061757361626c653a206e6f7420706175736564000000000000000000000000600082015250565b7f5061757361626c653a2070617573656400000000000000000000000000000000600082015250565b7f4d65726b6c654469737472696275746f7255706461746561626c653a20496e7660008201527f616c69642070726f6f662e000000000000000000000000000000000000000000602082015250565b7f4d65726b6c654469737472696275746f7255706461746561626c653a204e6f7460008201527f68696e6720746f20636c61696d2e000000000000000000000000000000000000602082015250565b7f206973206d697373696e6720726f6c6520000000000000000000000000000000600082015250565b611edc81611af5565b8114611ee757600080fd5b50565b611ef381611b07565b8114611efe57600080fd5b50565b611f0a81611b13565b8114611f1557600080fd5b50565b611f2181611b3d565b8114611f2c57600080fd5b5056fea2646970667358221220d87ed0872e2595073772e3544a554917c1adc540c44c07709a037e5eba5618c864736f6c63430008020033",
  "linkReferences": {},
  "deployedLinkReferences": {}
}