{
  "_format": "hh-sol-artifact-1",
  "contractName": "TutellusMerkleDistributorUpdateable",
  "sourceName": "contracts/TutellusMerkleDistributorUpdateable.sol",
  "abi": [
    {
      "inputs": [
        {
          "internalType": "address",
          "name": "rolemanager",
          "type": "address"
        },
        {
          "internalType": "address",
          "name": "token_",
          "type": "address"
        }
      ],
      "stateMutability": "nonpayable",
      "type": "constructor"
    },
    {
      "anonymous": false,
      "inputs": [
        {
          "indexed": false,
          "internalType": "uint256",
          "name": "index",
          "type": "uint256"
        },
        {
          "indexed": false,
          "internalType": "address",
          "name": "account",
          "type": "address"
        },
        {
          "indexed": false,
          "internalType": "uint256",
          "name": "claimed",
          "type": "uint256"
        }
      ],
      "name": "Claimed",
      "type": "event"
    },
    {
      "anonymous": false,
      "inputs": [
        {
          "indexed": false,
          "internalType": "bytes32",
          "name": "merkleRoot",
          "type": "bytes32"
        },
        {
          "indexed": false,
          "internalType": "string",
          "name": "uri",
          "type": "string"
        }
      ],
      "name": "MerkleRootUpdated",
      "type": "event"
    },
    {
      "anonymous": false,
      "inputs": [
        {
          "indexed": false,
          "internalType": "address",
          "name": "account",
          "type": "address"
        }
      ],
      "name": "Paused",
      "type": "event"
    },
    {
      "anonymous": false,
      "inputs": [
        {
          "indexed": false,
          "internalType": "address",
          "name": "account",
          "type": "address"
        }
      ],
      "name": "Unpaused",
      "type": "event"
    },
    {
      "inputs": [],
      "name": "DEFAULT_ADMIN_ROLE",
      "outputs": [
        {
          "internalType": "bytes32",
          "name": "",
          "type": "bytes32"
        }
      ],
      "stateMutability": "view",
      "type": "function"
    },
    {
      "inputs": [],
      "name": "PAUSER_ROLE",
      "outputs": [
        {
          "internalType": "bytes32",
          "name": "",
          "type": "bytes32"
        }
      ],
      "stateMutability": "view",
      "type": "function"
    },
    {
      "inputs": [
        {
          "internalType": "address",
          "name": "account",
          "type": "address"
        }
      ],
      "name": "alreadyClaimed",
      "outputs": [
        {
          "internalType": "uint256",
          "name": "",
          "type": "uint256"
        }
      ],
      "stateMutability": "view",
      "type": "function"
    },
    {
      "inputs": [
        {
          "internalType": "uint256",
          "name": "index",
          "type": "uint256"
        },
        {
          "internalType": "address",
          "name": "account",
          "type": "address"
        },
        {
          "internalType": "uint256",
          "name": "amount",
          "type": "uint256"
        },
        {
          "internalType": "bytes32[]",
          "name": "merkleProof",
          "type": "bytes32[]"
        }
      ],
      "name": "claim",
      "outputs": [],
      "stateMutability": "nonpayable",
      "type": "function"
    },
    {
      "inputs": [
        {
          "internalType": "bytes32",
          "name": "role",
          "type": "bytes32"
        },
        {
          "internalType": "address",
          "name": "account",
          "type": "address"
        }
      ],
      "name": "hasRole",
      "outputs": [
        {
          "internalType": "bool",
          "name": "",
          "type": "bool"
        }
      ],
      "stateMutability": "view",
      "type": "function"
    },
    {
      "inputs": [
        {
          "internalType": "uint256",
          "name": "index",
          "type": "uint256"
        },
        {
          "internalType": "address",
          "name": "account",
          "type": "address"
        },
        {
          "internalType": "uint256",
          "name": "amount",
          "type": "uint256"
        },
        {
          "internalType": "bytes32[]",
          "name": "merkleProof",
          "type": "bytes32[]"
        }
      ],
      "name": "leftToClaim",
      "outputs": [
        {
          "internalType": "uint256",
          "name": "",
          "type": "uint256"
        }
      ],
      "stateMutability": "view",
      "type": "function"
    },
    {
      "inputs": [],
      "name": "merkleRoot",
      "outputs": [
        {
          "internalType": "bytes32",
          "name": "",
          "type": "bytes32"
        }
      ],
      "stateMutability": "view",
      "type": "function"
    },
    {
      "inputs": [],
      "name": "pause",
      "outputs": [],
      "stateMutability": "nonpayable",
      "type": "function"
    },
    {
      "inputs": [],
      "name": "paused",
      "outputs": [
        {
          "internalType": "bool",
          "name": "",
          "type": "bool"
        }
      ],
      "stateMutability": "view",
      "type": "function"
    },
    {
      "inputs": [],
      "name": "token",
      "outputs": [
        {
          "internalType": "address",
          "name": "",
          "type": "address"
        }
      ],
      "stateMutability": "view",
      "type": "function"
    },
    {
      "inputs": [],
      "name": "unpause",
      "outputs": [],
      "stateMutability": "nonpayable",
      "type": "function"
    },
    {
      "inputs": [
        {
          "internalType": "address",
          "name": "manager",
          "type": "address"
        }
      ],
      "name": "updateManager",
      "outputs": [],
      "stateMutability": "nonpayable",
      "type": "function"
    },
    {
      "inputs": [
        {
          "internalType": "bytes32",
          "name": "merkleRoot_",
          "type": "bytes32"
        },
        {
          "internalType": "string",
          "name": "uri_",
          "type": "string"
        }
      ],
      "name": "updateMerkleRoot",
      "outputs": [],
      "stateMutability": "nonpayable",
      "type": "function"
    },
    {
      "inputs": [],
      "name": "uri",
      "outputs": [
        {
          "internalType": "string",
          "name": "",
          "type": "string"
        }
      ],
      "stateMutability": "view",
      "type": "function"
    }
  ],
  "bytecode": "0x60806040523480156200001157600080fd5b506040516200297638038062002976833981810160405281019062000037919062000786565b6200004982826200005160201b60201c565b5050620008be565b600060019054906101000a900460ff168062000078575060008054906101000a900460ff16155b620000ba576040517f08c379a0000000000000000000000000000000000000000000000000000000008152600401620000b190620007ee565b60405180910390fd5b60008060019054906101000a900460ff1615905080156200010b576001600060016101000a81548160ff02191690831515021790555060016000806101000a81548160ff0219169083151502179055505b6200011c836200015460201b60201c565b6200012d826200025560201b60201c565b80156200014f5760008060016101000a81548160ff0219169083151502179055505b505050565b600060019054906101000a900460ff16806200017b575060008054906101000a900460ff16155b620001bd576040517f08c379a0000000000000000000000000000000000000000000000000000000008152600401620001b490620007ee565b60405180910390fd5b60008060019054906101000a900460ff1615905080156200020e576001600060016101000a81548160ff02191690831515021790555060016000806101000a81548160ff0219169083151502179055505b6200021e6200037660201b60201c565b6200022f826200047560201b60201c565b8015620002515760008060016101000a81548160ff0219169083151502179055505b5050565b600060019054906101000a900460ff16806200027c575060008054906101000a900460ff16155b620002be576040517f08c379a0000000000000000000000000000000000000000000000000000000008152600401620002b590620007ee565b60405180910390fd5b60008060019054906101000a900460ff1615905080156200030f576001600060016101000a81548160ff02191690831515021790555060016000806101000a81548160ff0219169083151502179055505b81606660006101000a81548173ffffffffffffffffffffffffffffffffffffffff021916908373ffffffffffffffffffffffffffffffffffffffff1602179055508015620003725760008060016101000a81548160ff0219169083151502179055505b5050565b600060019054906101000a900460ff16806200039d575060008054906101000a900460ff16155b620003df576040517f08c379a0000000000000000000000000000000000000000000000000000000008152600401620003d690620007ee565b60405180910390fd5b60008060019054906101000a900460ff16159050801562000430576001600060016101000a81548160ff02191690831515021790555060016000806101000a81548160ff0219169083151502179055505b620004406200059660201b60201c565b620004506200067560201b60201c565b8015620004725760008060016101000a81548160ff0219169083151502179055505b50565b600060019054906101000a900460ff16806200049c575060008054906101000a900460ff16155b620004de576040517f08c379a0000000000000000000000000000000000000000000000000000000008152600401620004d590620007ee565b60405180910390fd5b60008060019054906101000a900460ff1615905080156200052f576001600060016101000a81548160ff02191690831515021790555060016000806101000a81548160ff0219169083151502179055505b81606560006101000a81548173ffffffffffffffffffffffffffffffffffffffff021916908373ffffffffffffffffffffffffffffffffffffffff1602179055508015620005925760008060016101000a81548160ff0219169083151502179055505b5050565b600060019054906101000a900460ff1680620005bd575060008054906101000a900460ff16155b620005ff576040517f08c379a0000000000000000000000000000000000000000000000000000000008152600401620005f690620007ee565b60405180910390fd5b60008060019054906101000a900460ff16159050801562000650576001600060016101000a81548160ff02191690831515021790555060016000806101000a81548160ff0219169083151502179055505b8015620006725760008060016101000a81548160ff0219169083151502179055505b50565b600060019054906101000a900460ff16806200069c575060008054906101000a900460ff16155b620006de576040517f08c379a0000000000000000000000000000000000000000000000000000000008152600401620006d590620007ee565b60405180910390fd5b60008060019054906101000a900460ff1615905080156200072f576001600060016101000a81548160ff02191690831515021790555060016000806101000a81548160ff0219169083151502179055505b6000603360006101000a81548160ff02191690831515021790555080156200076c5760008060016101000a81548160ff0219169083151502179055505b50565b6000815190506200078081620008a4565b92915050565b600080604083850312156200079a57600080fd5b6000620007aa858286016200076f565b9250506020620007bd858286016200076f565b9150509250929050565b6000620007d6602e8362000810565b9150620007e38262000855565b604082019050919050565b600060208201905081810360008301526200080981620007c7565b9050919050565b600082825260208201905092915050565b60006200082e8262000835565b9050919050565b600073ffffffffffffffffffffffffffffffffffffffff82169050919050565b7f496e697469616c697a61626c653a20636f6e747261637420697320616c72656160008201527f647920696e697469616c697a6564000000000000000000000000000000000000602082015250565b620008af8162000821565b8114620008bb57600080fd5b50565b6120a880620008ce6000396000f3fe608060405234801561001057600080fd5b50600436106100ea5760003560e01c806391d148541161008c578063e63ab1e911610066578063e63ab1e914610211578063eac989f81461022f578063f54b893b1461024d578063fc0c546a1461027d576100ea565b806391d14854146101a7578063a217fddf146101d7578063e48034b5146101f5576100ea565b8063510eff4c116100c8578063510eff4c1461013357806358aba00f146101635780635c975abb1461017f5780638456cb591461019d576100ea565b80632e7ba6ef146100ef5780632eb4a7ab1461010b5780633f4ba83a14610129575b600080fd5b61010960048036038101906101049190611558565b61029b565b005b610113610486565b604051610120919061193a565b60405180910390f35b61013161048c565b005b61014d60048036038101906101489190611558565b610602565b60405161015a9190611a70565b60405180910390f35b61017d60048036038101906101789190611476565b6106f9565b005b61018761088c565b604051610194919061191f565b60405180910390f35b6101a56108a3565b005b6101c160048036038101906101bc91906114c8565b610a19565b6040516101ce919061191f565b60405180910390f35b6101df610ad5565b6040516101ec919061193a565b60405180910390f35b61020f600480360381019061020a9190611504565b610adc565b005b610219610c89565b604051610226919061193a565b60405180910390f35b610237610cad565b60405161024491906119ae565b60405180910390f35b61026760048036038101906102629190611476565b610d3b565b6040516102749190611a70565b60405180910390f35b610285610d84565b60405161029291906118db565b60405180910390f35b6102a361088c565b156102e3576040517f08c379a00000000000000000000000000000000000000000000000000000000081526004016102da90611a10565b60405180910390fd5b60006102f28686868686610602565b905060008111610337576040517f08c379a000000000000000000000000000000000000000000000000000000000815260040161032e90611a50565b60405180910390fd5b80606960008773ffffffffffffffffffffffffffffffffffffffff1673ffffffffffffffffffffffffffffffffffffffff16815260200190815260200160002060008282546103869190611b54565b925050819055506000606660009054906101000a900473ffffffffffffffffffffffffffffffffffffffff1690508073ffffffffffffffffffffffffffffffffffffffff1663a9059cbb87876040518363ffffffff1660e01b81526004016103ef9291906118f6565b602060405180830381600087803b15801561040957600080fd5b505af115801561041d573d6000803e3d6000fd5b505050506040513d601f19601f82011682018060405250810190610441919061149f565b507f4ec90e965519d92681267467f775ada5bd214aa92c0dc93d90a5e880ce9ed02687878460405161047593929190611a8b565b60405180910390a150505050505050565b60675481565b7f65d7a28e3265b37a6474929f336521b332c1681b933f6cb9f3376673440d862a6000606560009054906101000a900473ffffffffffffffffffffffffffffffffffffffff16905060003390508173ffffffffffffffffffffffffffffffffffffffff166391d1485484836040518363ffffffff1660e01b8152600401610514929190611955565b60206040518083038186803b15801561052c57600080fd5b505afa158015610540573d6000803e3d6000fd5b505050506040513d601f19601f82011682018060405250810190610564919061149f565b6105858273ffffffffffffffffffffffffffffffffffffffff166014610daa565b6105938560001c6020610daa565b6040516020016105a4929190611864565b604051602081830303815290604052906105f4576040517f08c379a00000000000000000000000000000000000000000000000000000000081526004016105eb91906119ae565b60405180910390fd5b506105fd6110a4565b505050565b60008086868660405160200161061a9392919061189e565b604051602081830303815290604052805190602001209050610680848480806020026020016040519081016040528093929190818152602001838360200280828437600081840152601f19601f8201169050808301925050505050505060675483611146565b6106bf576040517f08c379a00000000000000000000000000000000000000000000000000000000081526004016106b690611a30565b60405180910390fd5b60006106ca87610d3b565b9050808611156106e95780866106e09190611c04565b925050506106f0565b6000925050505b95945050505050565b6000801b6000606560009054906101000a900473ffffffffffffffffffffffffffffffffffffffff16905060003390508173ffffffffffffffffffffffffffffffffffffffff166391d1485484836040518363ffffffff1660e01b8152600401610764929190611955565b60206040518083038186803b15801561077c57600080fd5b505afa158015610790573d6000803e3d6000fd5b505050506040513d601f19601f820116820180604052508101906107b4919061149f565b6107d58273ffffffffffffffffffffffffffffffffffffffff166014610daa565b6107e38560001c6020610daa565b6040516020016107f4929190611864565b60405160208183030381529060405290610844576040517f08c379a000000000000000000000000000000000000000000000000000000000815260040161083b91906119ae565b60405180910390fd5b5083606560006101000a81548173ffffffffffffffffffffffffffffffffffffffff021916908373ffffffffffffffffffffffffffffffffffffffff16021790555050505050565b6000603360009054906101000a900460ff16905090565b7f65d7a28e3265b37a6474929f336521b332c1681b933f6cb9f3376673440d862a6000606560009054906101000a900473ffffffffffffffffffffffffffffffffffffffff16905060003390508173ffffffffffffffffffffffffffffffffffffffff166391d1485484836040518363ffffffff1660e01b815260040161092b929190611955565b60206040518083038186803b15801561094357600080fd5b505afa158015610957573d6000803e3d6000fd5b505050506040513d601f19601f8201168201806040525081019061097b919061149f565b61099c8273ffffffffffffffffffffffffffffffffffffffff166014610daa565b6109aa8560001c6020610daa565b6040516020016109bb929190611864565b60405160208183030381529060405290610a0b576040517f08c379a0000000000000000000000000000000000000000000000000000000008152600401610a0291906119ae565b60405180910390fd5b50610a14611222565b505050565b600080606560009054906101000a900473ffffffffffffffffffffffffffffffffffffffff1690508073ffffffffffffffffffffffffffffffffffffffff166391d1485485856040518363ffffffff1660e01b8152600401610a7c929190611955565b60206040518083038186803b158015610a9457600080fd5b505afa158015610aa8573d6000803e3d6000fd5b505050506040513d601f19601f82011682018060405250810190610acc919061149f565b91505092915050565b6000801b81565b6000801b6000606560009054906101000a900473ffffffffffffffffffffffffffffffffffffffff16905060003390508173ffffffffffffffffffffffffffffffffffffffff166391d1485484836040518363ffffffff1660e01b8152600401610b47929190611955565b60206040518083038186803b158015610b5f57600080fd5b505afa158015610b73573d6000803e3d6000fd5b505050506040513d601f19601f82011682018060405250810190610b97919061149f565b610bb88273ffffffffffffffffffffffffffffffffffffffff166014610daa565b610bc68560001c6020610daa565b604051602001610bd7929190611864565b60405160208183030381529060405290610c27576040517f08c379a0000000000000000000000000000000000000000000000000000000008152600401610c1e91906119ae565b60405180910390fd5b50846067819055508360689080519060200190610c459291906112cd565b507fdc6ef77e1e729c09277287d1224cc0b4fd2053bbcca61a8febb80e46180324786067546068604051610c7a92919061197e565b60405180910390a15050505050565b7f65d7a28e3265b37a6474929f336521b332c1681b933f6cb9f3376673440d862a81565b60688054610cba90611cf6565b80601f0160208091040260200160405190810160405280929190818152602001828054610ce690611cf6565b8015610d335780601f10610d0857610100808354040283529160200191610d33565b820191906000526020600020905b815481529060010190602001808311610d1657829003601f168201915b505050505081565b6000606960008373ffffffffffffffffffffffffffffffffffffffff1673ffffffffffffffffffffffffffffffffffffffff168152602001908152602001600020549050919050565b606660009054906101000a900473ffffffffffffffffffffffffffffffffffffffff1681565b606060006002836002610dbd9190611baa565b610dc79190611b54565b67ffffffffffffffff811115610e06577f4e487b7100000000000000000000000000000000000000000000000000000000600052604160045260246000fd5b6040519080825280601f01601f191660200182016040528015610e385781602001600182028036833780820191505090505b5090507f300000000000000000000000000000000000000000000000000000000000000081600081518110610e96577f4e487b7100000000000000000000000000000000000000000000000000000000600052603260045260246000fd5b60200101907effffffffffffffffffffffffffffffffffffffffffffffffffffffffffffff1916908160001a9053507f780000000000000000000000000000000000000000000000000000000000000081600181518110610f20577f4e487b7100000000000000000000000000000000000000000000000000000000600052603260045260246000fd5b60200101907effffffffffffffffffffffffffffffffffffffffffffffffffffffffffffff1916908160001a90535060006001846002610f609190611baa565b610f6a9190611b54565b90505b6001811115611056577f3031323334353637383961626364656600000000000000000000000000000000600f861660108110610fd2577f4e487b7100000000000000000000000000000000000000000000000000000000600052603260045260246000fd5b1a60f81b82828151811061100f577f4e487b7100000000000000000000000000000000000000000000000000000000600052603260045260246000fd5b60200101907effffffffffffffffffffffffffffffffffffffffffffffffffffffffffffff1916908160001a905350600485901c94508061104f90611ccc565b9050610f6d565b506000841461109a576040517f08c379a0000000000000000000000000000000000000000000000000000000008152600401611091906119d0565b60405180910390fd5b8091505092915050565b6110ac61088c565b6110eb576040517f08c379a00000000000000000000000000000000000000000000000000000000081526004016110e2906119f0565b60405180910390fd5b6000603360006101000a81548160ff0219169083151502179055507f5db9ee0a495bf2e6ff9c91a7834c1ba4fdd244a5e8aa4e537bd38aeae4b073aa61112f6112c5565b60405161113c91906118db565b60405180910390a1565b60008082905060005b8551811015611214576000868281518110611193577f4e487b7100000000000000000000000000000000000000000000000000000000600052603260045260246000fd5b602002602001015190508083116111d45782816040516020016111b7929190611838565b604051602081830303815290604052805190602001209250611200565b80836040516020016111e7929190611838565b6040516020818303038152906040528051906020012092505b50808061120c90611d59565b91505061114f565b508381149150509392505050565b61122a61088c565b1561126a576040517f08c379a000000000000000000000000000000000000000000000000000000000815260040161126190611a10565b60405180910390fd5b6001603360006101000a81548160ff0219169083151502179055507f62e78cea01bee320cd4e420270b5ea74000d11b0c9f74754ebdbfc544b05a2586112ae6112c5565b6040516112bb91906118db565b60405180910390a1565b600033905090565b8280546112d990611cf6565b90600052602060002090601f0160209004810192826112fb5760008555611342565b82601f1061131457805160ff1916838001178555611342565b82800160010185558215611342579182015b82811115611341578251825591602001919060010190611326565b5b50905061134f9190611353565b5090565b5b8082111561136c576000816000905550600101611354565b5090565b600061138361137e84611ae7565b611ac2565b90508281526020810184848401111561139b57600080fd5b6113a6848285611c8a565b509392505050565b6000813590506113bd81612016565b92915050565b60008083601f8401126113d557600080fd5b8235905067ffffffffffffffff8111156113ee57600080fd5b60208301915083602082028301111561140657600080fd5b9250929050565b60008151905061141c8161202d565b92915050565b60008135905061143181612044565b92915050565b600082601f83011261144857600080fd5b8135611458848260208601611370565b91505092915050565b6000813590506114708161205b565b92915050565b60006020828403121561148857600080fd5b6000611496848285016113ae565b91505092915050565b6000602082840312156114b157600080fd5b60006114bf8482850161140d565b91505092915050565b600080604083850312156114db57600080fd5b60006114e985828601611422565b92505060206114fa858286016113ae565b9150509250929050565b6000806040838503121561151757600080fd5b600061152585828601611422565b925050602083013567ffffffffffffffff81111561154257600080fd5b61154e85828601611437565b9150509250929050565b60008060008060006080868803121561157057600080fd5b600061157e88828901611461565b955050602061158f888289016113ae565b94505060406115a088828901611461565b935050606086013567ffffffffffffffff8111156115bd57600080fd5b6115c9888289016113c3565b92509250509295509295909350565b6115e181611c38565b82525050565b6115f86115f382611c38565b611da2565b82525050565b61160781611c4a565b82525050565b61161681611c56565b82525050565b61162d61162882611c56565b611db4565b82525050565b600061163e82611b2d565b6116488185611b38565b9350611658818560208601611c99565b61166181611e67565b840191505092915050565b600061167782611b2d565b6116818185611b49565b9350611691818560208601611c99565b80840191505092915050565b600081546116aa81611cf6565b6116b48186611b38565b945060018216600081146116cf57600181146116e157611714565b60ff1983168652602086019350611714565b6116ea85611b18565b60005b8381101561170c578154818901526001820191506020810190506116ed565b808801955050505b50505092915050565b600061172a602083611b38565b915061173582611e85565b602082019050919050565b600061174d602483611b49565b915061175882611eae565b602482019050919050565b6000611770601483611b38565b915061177b82611efd565b602082019050919050565b6000611793601083611b38565b915061179e82611f26565b602082019050919050565b60006117b6602b83611b38565b91506117c182611f4f565b604082019050919050565b60006117d9602e83611b38565b91506117e482611f9e565b604082019050919050565b60006117fc601183611b49565b915061180782611fed565b601182019050919050565b61181b81611c80565b82525050565b61183261182d82611c80565b611dd0565b82525050565b6000611844828561161c565b602082019150611854828461161c565b6020820191508190509392505050565b600061186f82611740565b915061187b828561166c565b9150611886826117ef565b9150611892828461166c565b91508190509392505050565b60006118aa8286611821565b6020820191506118ba82856115e7565b6014820191506118ca8284611821565b602082019150819050949350505050565b60006020820190506118f060008301846115d8565b92915050565b600060408201905061190b60008301856115d8565b6119186020830184611812565b9392505050565b600060208201905061193460008301846115fe565b92915050565b600060208201905061194f600083018461160d565b92915050565b600060408201905061196a600083018561160d565b61197760208301846115d8565b9392505050565b6000604082019050611993600083018561160d565b81810360208301526119a5818461169d565b90509392505050565b600060208201905081810360008301526119c88184611633565b905092915050565b600060208201905081810360008301526119e98161171d565b9050919050565b60006020820190508181036000830152611a0981611763565b9050919050565b60006020820190508181036000830152611a2981611786565b9050919050565b60006020820190508181036000830152611a49816117a9565b9050919050565b60006020820190508181036000830152611a69816117cc565b9050919050565b6000602082019050611a856000830184611812565b92915050565b6000606082019050611aa06000830186611812565b611aad60208301856115d8565b611aba6040830184611812565b949350505050565b6000611acc611add565b9050611ad88282611d28565b919050565b6000604051905090565b600067ffffffffffffffff821115611b0257611b01611e38565b5b611b0b82611e67565b9050602081019050919050565b60008190508160005260206000209050919050565b600081519050919050565b600082825260208201905092915050565b600081905092915050565b6000611b5f82611c80565b9150611b6a83611c80565b9250827fffffffffffffffffffffffffffffffffffffffffffffffffffffffffffffffff03821115611b9f57611b9e611dda565b5b828201905092915050565b6000611bb582611c80565b9150611bc083611c80565b9250817fffffffffffffffffffffffffffffffffffffffffffffffffffffffffffffffff0483118215151615611bf957611bf8611dda565b5b828202905092915050565b6000611c0f82611c80565b9150611c1a83611c80565b925082821015611c2d57611c2c611dda565b5b828203905092915050565b6000611c4382611c60565b9050919050565b60008115159050919050565b6000819050919050565b600073ffffffffffffffffffffffffffffffffffffffff82169050919050565b6000819050919050565b82818337600083830152505050565b60005b83811015611cb7578082015181840152602081019050611c9c565b83811115611cc6576000848401525b50505050565b6000611cd782611c80565b91506000821415611ceb57611cea611dda565b5b600182039050919050565b60006002820490506001821680611d0e57607f821691505b60208210811415611d2257611d21611e09565b5b50919050565b611d3182611e67565b810181811067ffffffffffffffff82111715611d5057611d4f611e38565b5b80604052505050565b6000611d6482611c80565b91507fffffffffffffffffffffffffffffffffffffffffffffffffffffffffffffffff821415611d9757611d96611dda565b5b600182019050919050565b6000611dad82611dbe565b9050919050565b6000819050919050565b6000611dc982611e78565b9050919050565b6000819050919050565b7f4e487b7100000000000000000000000000000000000000000000000000000000600052601160045260246000fd5b7f4e487b7100000000000000000000000000000000000000000000000000000000600052602260045260246000fd5b7f4e487b7100000000000000000000000000000000000000000000000000000000600052604160045260246000fd5b6000601f19601f8301169050919050565b60008160601b9050919050565b7f537472696e67733a20686578206c656e67746820696e73756666696369656e74600082015250565b7f416363657373436f6e74726f6c50726f78795061757361626c653a206163636f60008201527f756e742000000000000000000000000000000000000000000000000000000000602082015250565b7f5061757361626c653a206e6f7420706175736564000000000000000000000000600082015250565b7f5061757361626c653a2070617573656400000000000000000000000000000000600082015250565b7f4d65726b6c654469737472696275746f7255706461746561626c653a20496e7660008201527f616c69642070726f6f662e000000000000000000000000000000000000000000602082015250565b7f4d65726b6c654469737472696275746f7255706461746561626c653a204e6f7460008201527f68696e6720746f20636c61696d2e000000000000000000000000000000000000602082015250565b7f206973206d697373696e6720726f6c6520000000000000000000000000000000600082015250565b61201f81611c38565b811461202a57600080fd5b50565b61203681611c4a565b811461204157600080fd5b50565b61204d81611c56565b811461205857600080fd5b50565b61206481611c80565b811461206f57600080fd5b5056fea2646970667358221220c3a2713bd48bca360d9b25678d3b60eb1a152f7e4a0f720fe1cfec019397672b64736f6c63430008020033",
  "linkReferences": {},
  "deployedLinkReferences": {}
}