{
  "_format": "hh-sol-artifact-1",
  "contractName": "TutellusFarming",
  "sourceName": "contracts/TutellusFarming.sol",
  "abi": [
    {
      "inputs": [
        {
          "internalType": "address",
          "name": "rolemanager",
          "type": "address"
        },
        {
          "internalType": "address",
          "name": "token_",
          "type": "address"
        },
        {
          "internalType": "address",
          "name": "vault_",
          "type": "address"
        }
      ],
      "stateMutability": "nonpayable",
      "type": "constructor"
    },
    {
      "anonymous": false,
      "inputs": [
        {
          "indexed": false,
          "internalType": "address",
          "name": "account",
          "type": "address"
        }
      ],
      "name": "Claim",
      "type": "event"
    },
    {
      "anonymous": false,
      "inputs": [
        {
          "indexed": false,
          "internalType": "address",
          "name": "account",
          "type": "address"
        },
        {
          "indexed": false,
          "internalType": "uint256",
          "name": "amount",
          "type": "uint256"
        }
      ],
      "name": "Deposit",
      "type": "event"
    },
    {
      "anonymous": false,
      "inputs": [
        {
          "indexed": false,
          "internalType": "address",
          "name": "account",
          "type": "address"
        }
      ],
      "name": "Paused",
      "type": "event"
    },
    {
      "anonymous": false,
      "inputs": [
        {
          "indexed": false,
          "internalType": "address",
          "name": "account",
          "type": "address"
        },
        {
          "indexed": false,
          "internalType": "uint256",
          "name": "amount",
          "type": "uint256"
        }
      ],
      "name": "Rewards",
      "type": "event"
    },
    {
      "anonymous": false,
      "inputs": [
        {
          "indexed": false,
          "internalType": "address",
          "name": "account",
          "type": "address"
        },
        {
          "indexed": false,
          "internalType": "uint256",
          "name": "gap",
          "type": "uint256"
        }
      ],
      "name": "SyncBalance",
      "type": "event"
    },
    {
      "anonymous": false,
      "inputs": [
        {
          "indexed": false,
          "internalType": "bool",
          "name": "autoreward",
          "type": "bool"
        }
      ],
      "name": "ToggleAutoreward",
      "type": "event"
    },
    {
      "anonymous": false,
      "inputs": [
        {
          "indexed": false,
          "internalType": "address",
          "name": "account",
          "type": "address"
        }
      ],
      "name": "Unpaused",
      "type": "event"
    },
    {
      "anonymous": false,
      "inputs": [
        {
          "indexed": false,
          "internalType": "uint256",
          "name": "balance",
          "type": "uint256"
        },
        {
          "indexed": false,
          "internalType": "uint256",
          "name": "accRewardsPerShare",
          "type": "uint256"
        },
        {
          "indexed": false,
          "internalType": "uint256",
          "name": "lastUpdate",
          "type": "uint256"
        },
        {
          "indexed": false,
          "internalType": "uint256",
          "name": "stakers",
          "type": "uint256"
        }
      ],
      "name": "Update",
      "type": "event"
    },
    {
      "anonymous": false,
      "inputs": [
        {
          "indexed": false,
          "internalType": "address",
          "name": "account",
          "type": "address"
        },
        {
          "indexed": false,
          "internalType": "uint256",
          "name": "amount",
          "type": "uint256"
        },
        {
          "indexed": false,
          "internalType": "uint256",
          "name": "rewardDebt",
          "type": "uint256"
        },
        {
          "indexed": false,
          "internalType": "uint256",
          "name": "notClaimed",
          "type": "uint256"
        }
      ],
      "name": "UpdateUserInfo",
      "type": "event"
    },
    {
      "anonymous": false,
      "inputs": [
        {
          "indexed": false,
          "internalType": "address",
          "name": "account",
          "type": "address"
        },
        {
          "indexed": false,
          "internalType": "uint256",
          "name": "amount",
          "type": "uint256"
        }
      ],
      "name": "Withdraw",
      "type": "event"
    },
    {
      "inputs": [],
      "name": "DEFAULT_ADMIN_ROLE",
      "outputs": [
        {
          "internalType": "bytes32",
          "name": "",
          "type": "bytes32"
        }
      ],
      "stateMutability": "view",
      "type": "function"
    },
    {
      "inputs": [],
      "name": "PAUSER_ROLE",
      "outputs": [
        {
          "internalType": "bytes32",
          "name": "",
          "type": "bytes32"
        }
      ],
      "stateMutability": "view",
      "type": "function"
    },
    {
      "inputs": [],
      "name": "accRewardsPerShare",
      "outputs": [
        {
          "internalType": "uint256",
          "name": "",
          "type": "uint256"
        }
      ],
      "stateMutability": "view",
      "type": "function"
    },
    {
      "inputs": [],
      "name": "autoreward",
      "outputs": [
        {
          "internalType": "bool",
          "name": "",
          "type": "bool"
        }
      ],
      "stateMutability": "view",
      "type": "function"
    },
    {
      "inputs": [],
      "name": "balance",
      "outputs": [
        {
          "internalType": "uint256",
          "name": "",
          "type": "uint256"
        }
      ],
      "stateMutability": "view",
      "type": "function"
    },
    {
      "inputs": [],
      "name": "claim",
      "outputs": [],
      "stateMutability": "nonpayable",
      "type": "function"
    },
    {
      "inputs": [
        {
          "internalType": "address",
          "name": "account",
          "type": "address"
        },
        {
          "internalType": "uint256",
          "name": "amount",
          "type": "uint256"
        }
      ],
      "name": "depositFrom",
      "outputs": [],
      "stateMutability": "nonpayable",
      "type": "function"
    },
    {
      "inputs": [],
      "name": "getTokenGap",
      "outputs": [
        {
          "internalType": "uint256",
          "name": "",
          "type": "uint256"
        }
      ],
      "stateMutability": "view",
      "type": "function"
    },
    {
      "inputs": [
        {
          "internalType": "address",
          "name": "user_",
          "type": "address"
        }
      ],
      "name": "getUserBalance",
      "outputs": [
        {
          "internalType": "uint256",
          "name": "",
          "type": "uint256"
        }
      ],
      "stateMutability": "view",
      "type": "function"
    },
    {
      "inputs": [],
      "name": "lastUpdate",
      "outputs": [
        {
          "internalType": "uint256",
          "name": "",
          "type": "uint256"
        }
      ],
      "stateMutability": "view",
      "type": "function"
    },
    {
      "inputs": [
        {
          "internalType": "address",
          "name": "to",
          "type": "address"
        },
        {
          "internalType": "bytes",
          "name": "data",
          "type": "bytes"
        }
      ],
      "name": "migrate",
      "outputs": [
        {
          "internalType": "bytes",
          "name": "",
          "type": "bytes"
        }
      ],
      "stateMutability": "nonpayable",
      "type": "function"
    },
    {
      "inputs": [],
      "name": "pause",
      "outputs": [],
      "stateMutability": "nonpayable",
      "type": "function"
    },
    {
      "inputs": [],
      "name": "paused",
      "outputs": [
        {
          "internalType": "bool",
          "name": "",
          "type": "bool"
        }
      ],
      "stateMutability": "view",
      "type": "function"
    },
    {
      "inputs": [
        {
          "internalType": "address",
          "name": "user_",
          "type": "address"
        }
      ],
      "name": "pendingRewards",
      "outputs": [
        {
          "internalType": "uint256",
          "name": "",
          "type": "uint256"
        }
      ],
      "stateMutability": "view",
      "type": "function"
    },
    {
      "inputs": [],
      "name": "stakers",
      "outputs": [
        {
          "internalType": "uint256",
          "name": "",
          "type": "uint256"
        }
      ],
      "stateMutability": "view",
      "type": "function"
    },
    {
      "inputs": [
        {
          "internalType": "address",
          "name": "account",
          "type": "address"
        }
      ],
      "name": "syncBalance",
      "outputs": [],
      "stateMutability": "nonpayable",
      "type": "function"
    },
    {
      "inputs": [],
      "name": "toggleAutoreward",
      "outputs": [],
      "stateMutability": "nonpayable",
      "type": "function"
    },
    {
      "inputs": [],
      "name": "token",
      "outputs": [
        {
          "internalType": "address",
          "name": "",
          "type": "address"
        }
      ],
      "stateMutability": "view",
      "type": "function"
    },
    {
      "inputs": [],
      "name": "unpause",
      "outputs": [],
      "stateMutability": "nonpayable",
      "type": "function"
    },
    {
      "inputs": [
        {
          "internalType": "address",
          "name": "manager",
          "type": "address"
        }
      ],
      "name": "updateManager",
      "outputs": [],
      "stateMutability": "nonpayable",
      "type": "function"
    },
    {
      "inputs": [],
      "name": "vault",
      "outputs": [
        {
          "internalType": "address",
          "name": "",
          "type": "address"
        }
      ],
      "stateMutability": "view",
      "type": "function"
    },
    {
      "inputs": [
        {
          "internalType": "uint256",
          "name": "amount",
          "type": "uint256"
        }
      ],
      "name": "withdraw",
      "outputs": [],
      "stateMutability": "nonpayable",
      "type": "function"
    }
  ],
  "bytecode": "0x60806040523480156200001157600080fd5b5060405162003ce538038062003ce58339818101604052810190620000379190620007ee565b6200004a8383836200005360201b60201c565b5050506200093b565b600060019054906101000a900460ff16806200007a575060008054906101000a900460ff16155b620000bc576040517f08c379a0000000000000000000000000000000000000000000000000000000008152600401620000b3906200086b565b60405180910390fd5b60008060019054906101000a900460ff1615905080156200010d576001600060016101000a81548160ff02191690831515021790555060016000806101000a81548160ff0219169083151502179055505b6200011e846200015860201b60201c565b6200013083836200025960201b60201c565b8015620001525760008060016101000a81548160ff0219169083151502179055505b50505050565b600060019054906101000a900460ff16806200017f575060008054906101000a900460ff16155b620001c1576040517f08c379a0000000000000000000000000000000000000000000000000000000008152600401620001b8906200086b565b60405180910390fd5b60008060019054906101000a900460ff16159050801562000212576001600060016101000a81548160ff02191690831515021790555060016000806101000a81548160ff0219169083151502179055505b62000222620003de60201b60201c565b6200023382620004dd60201b60201c565b8015620002555760008060016101000a81548160ff0219169083151502179055505b5050565b600060019054906101000a900460ff168062000280575060008054906101000a900460ff16155b620002c2576040517f08c379a0000000000000000000000000000000000000000000000000000000008152600401620002b9906200086b565b60405180910390fd5b60008060019054906101000a900460ff16159050801562000313576001600060016101000a81548160ff02191690831515021790555060016000806101000a81548160ff0219169083151502179055505b82606660006101000a81548173ffffffffffffffffffffffffffffffffffffffff021916908373ffffffffffffffffffffffffffffffffffffffff16021790555081606760006101000a81548173ffffffffffffffffffffffffffffffffffffffff021916908373ffffffffffffffffffffffffffffffffffffffff1602179055506001606760146101000a81548160ff02191690831515021790555043606b819055508015620003d95760008060016101000a81548160ff0219169083151502179055505b505050565b600060019054906101000a900460ff168062000405575060008054906101000a900460ff16155b62000447576040517f08c379a00000000000000000000000000000000000000000000000000000000081526004016200043e906200086b565b60405180910390fd5b60008060019054906101000a900460ff16159050801562000498576001600060016101000a81548160ff02191690831515021790555060016000806101000a81548160ff0219169083151502179055505b620004a8620005fe60201b60201c565b620004b8620006dd60201b60201c565b8015620004da5760008060016101000a81548160ff0219169083151502179055505b50565b600060019054906101000a900460ff168062000504575060008054906101000a900460ff16155b62000546576040517f08c379a00000000000000000000000000000000000000000000000000000000081526004016200053d906200086b565b60405180910390fd5b60008060019054906101000a900460ff16159050801562000597576001600060016101000a81548160ff02191690831515021790555060016000806101000a81548160ff0219169083151502179055505b81606560006101000a81548173ffffffffffffffffffffffffffffffffffffffff021916908373ffffffffffffffffffffffffffffffffffffffff1602179055508015620005fa5760008060016101000a81548160ff0219169083151502179055505b5050565b600060019054906101000a900460ff168062000625575060008054906101000a900460ff16155b62000667576040517f08c379a00000000000000000000000000000000000000000000000000000000081526004016200065e906200086b565b60405180910390fd5b60008060019054906101000a900460ff161590508015620006b8576001600060016101000a81548160ff02191690831515021790555060016000806101000a81548160ff0219169083151502179055505b8015620006da5760008060016101000a81548160ff0219169083151502179055505b50565b600060019054906101000a900460ff168062000704575060008054906101000a900460ff16155b62000746576040517f08c379a00000000000000000000000000000000000000000000000000000000081526004016200073d906200086b565b60405180910390fd5b60008060019054906101000a900460ff16159050801562000797576001600060016101000a81548160ff02191690831515021790555060016000806101000a81548160ff0219169083151502179055505b6000603360006101000a81548160ff0219169083151502179055508015620007d45760008060016101000a81548160ff0219169083151502179055505b50565b600081519050620007e88162000921565b92915050565b6000806000606084860312156200080457600080fd5b60006200081486828701620007d7565b93505060206200082786828701620007d7565b92505060406200083a86828701620007d7565b9150509250925092565b600062000853602e836200088d565b91506200086082620008d2565b604082019050919050565b60006020820190508181036000830152620008868162000844565b9050919050565b600082825260208201905092915050565b6000620008ab82620008b2565b9050919050565b600073ffffffffffffffffffffffffffffffffffffffff82169050919050565b7f496e697469616c697a61626c653a20636f6e747261637420697320616c72656160008201527f647920696e697469616c697a6564000000000000000000000000000000000000602082015250565b6200092c816200089e565b81146200093857600080fd5b50565b61339a806200094b6000396000f3fe608060405234801561001057600080fd5b50600436106101425760003560e01c80637cbaccd5116100b8578063c3fbb6fd1161007c578063c3fbb6fd146102f5578063e0adaca214610325578063e63ab1e914610341578063fbfa77cf1461035f578063fc0c546a1461037d578063fed1252a1461039b57610142565b80637cbaccd5146102735780638456cb5914610291578063a217fddf1461029b578063b69ef8a8146102b9578063c0463711146102d757610142565b80634e71d92d1161010a5780634e71d92d146101e95780635129338c146101f357806358aba00f146102115780635a3c978b1461022d5780635c975abb1461024b5780636ca569c11461026957610142565b806315cc36f2146101475780632e1a7d4d1461016357806331d7a2621461017f5780633f4ba83a146101af57806347734892146101b9575b600080fd5b610161600480360381019061015c9190612499565b6103b9565b005b61017d600480360381019061017891906124fe565b61086d565b005b6101996004803603810190610194919061241c565b610bde565b6040516101a69190612be5565b60405180910390f35b6101b7610d9f565b005b6101d360048036038101906101ce919061241c565b610f15565b6040516101e09190612be5565b60405180910390f35b6101f1610f8f565b005b6101fb611149565b6040516102089190612be5565b60405180910390f35b61022b6004803603810190610226919061241c565b611229565b005b6102356113bc565b60405161024291906129c2565b60405180910390f35b6102536113cf565b60405161026091906129c2565b60405180910390f35b6102716113e6565b005b61027b6115a7565b6040516102889190612be5565b60405180910390f35b6102996115ad565b005b6102a3611723565b6040516102b091906129dd565b60405180910390f35b6102c161172a565b6040516102ce9190612be5565b60405180910390f35b6102df611730565b6040516102ec9190612be5565b60405180910390f35b61030f600480360381019061030a9190612445565b611736565b60405161031c9190612a21565b60405180910390f35b61033f600480360381019061033a919061241c565b6118da565b005b610349611b6b565b60405161035691906129dd565b60405180910390f35b610367611b8f565b604051610374919061289b565b60405180910390f35b610385611bb5565b604051610392919061289b565b60405180910390f35b6103a3611bdb565b6040516103b09190612be5565b60405180910390f35b6103c16113cf565b15610401576040517f08c379a00000000000000000000000000000000000000000000000000000000081526004016103f890612b05565b60405180910390fd5b60008111610444576040517f08c379a000000000000000000000000000000000000000000000000000000000815260040161043b90612bc5565b60405180910390fd5b6000606d60008473ffffffffffffffffffffffffffffffffffffffff1673ffffffffffffffffffffffffffffffffffffffff168152602001908152602001600020905061048f611be1565b61049883611d1a565b6000816000015414156104c0576001606c60008282546104b89190612ce9565b925050819055505b818160000160008282546104d49190612ce9565b9250508190555081606860008282546104ed9190612ce9565b925050819055506000606660009054906101000a900473ffffffffffffffffffffffffffffffffffffffff169050828173ffffffffffffffffffffffffffffffffffffffff166370a08231866040518263ffffffff1660e01b8152600401610555919061289b565b60206040518083038186803b15801561056d57600080fd5b505afa158015610581573d6000803e3d6000fd5b505050506040513d601f19601f820116820180604052508101906105a59190612527565b10156105e6576040517f08c379a00000000000000000000000000000000000000000000000000000000081526004016105dd90612ba5565b60405180910390fd5b828173ffffffffffffffffffffffffffffffffffffffff1663dd62ed3e86306040518363ffffffff1660e01b81526004016106229291906128b6565b60206040518083038186803b15801561063a57600080fd5b505afa15801561064e573d6000803e3d6000fd5b505050506040513d601f19601f820116820180604052508101906106729190612527565b10156106b3576040517f08c379a00000000000000000000000000000000000000000000000000000000081526004016106aa90612b25565b60405180910390fd5b606760149054906101000a900460ff16156106d2576106d184611dae565b5b8073ffffffffffffffffffffffffffffffffffffffff166323b872dd8530866040518463ffffffff1660e01b815260040161070f939291906128df565b602060405180830381600087803b15801561072957600080fd5b505af115801561073d573d6000803e3d6000fd5b505050506040513d601f19601f8201168201806040525081019061076191906124d5565b6107a0576040517f08c379a000000000000000000000000000000000000000000000000000000000815260040161079790612ae5565b60405180910390fd5b7fce49b138f2621300a7043a61f472ccfd643162bdf3efb11354e22d5273b77a71606854606954606b54606c546040516107dd9493929190612c00565b60405180910390a17f85562ed8ea40250610547d7262031cfe1ce04565357d2efd0fd412d36fb05ebe84836000015484600101548560020154604051610826949392919061297d565b60405180910390a17fe1fffcc4923d04b559f4d29a8bfc6cda04eb5b0d3c460751c2402c5c5cc9109c848460405161085f929190612916565b60405180910390a150505050565b6108756113cf565b156108b5576040517f08c379a00000000000000000000000000000000000000000000000000000000081526004016108ac90612b05565b60405180910390fd5b600081116108f8576040517f08c379a00000000000000000000000000000000000000000000000000000000081526004016108ef90612bc5565b60405180910390fd5b60003390506000606d60008373ffffffffffffffffffffffffffffffffffffffff1673ffffffffffffffffffffffffffffffffffffffff16815260200190815260200160002090508060000154831115610987576040517f08c379a000000000000000000000000000000000000000000000000000000000815260040161097e90612ac5565b60405180910390fd5b61098f611be1565b61099882611d1a565b6069548160010181905550828160000160008282546109b79190612dca565b9250508190555082606860008282546109d09190612dca565b925050819055506000816000015414156109ff576001606c60008282546109f79190612dca565b925050819055505b6000606660009054906101000a900473ffffffffffffffffffffffffffffffffffffffff169050606760149054906101000a900460ff1615610a4557610a4483611dae565b5b8073ffffffffffffffffffffffffffffffffffffffff1663a9059cbb84866040518363ffffffff1660e01b8152600401610a80929190612916565b602060405180830381600087803b158015610a9a57600080fd5b505af1158015610aae573d6000803e3d6000fd5b505050506040513d601f19601f82011682018060405250810190610ad291906124d5565b610b11576040517f08c379a0000000000000000000000000000000000000000000000000000000008152600401610b0890612a65565b60405180910390fd5b7fce49b138f2621300a7043a61f472ccfd643162bdf3efb11354e22d5273b77a71606854606954606b54606c54604051610b4e9493929190612c00565b60405180910390a17f85562ed8ea40250610547d7262031cfe1ce04565357d2efd0fd412d36fb05ebe83836000015484600101548560020154604051610b97949392919061297d565b60405180910390a17f884edad9ce6fa2440d8a54cc123490eb96d2768479d49ff9c7366125a94243648385604051610bd0929190612916565b60405180910390a150505050565b600080606d60008473ffffffffffffffffffffffffffffffffffffffff1673ffffffffffffffffffffffffffffffffffffffff1681526020019081526020016000206040518060600160405290816000820154815260200160018201548152602001600282015481525050905060008160400151905060006068541115610d95576000606760009054906101000a900473ffffffffffffffffffffffffffffffffffffffff1690506000606a548273ffffffffffffffffffffffffffffffffffffffff1663ae7928bf306040518263ffffffff1660e01b8152600401610cc4919061289b565b60206040518083038186803b158015610cdc57600080fd5b505afa158015610cf0573d6000803e3d6000fd5b505050506040513d601f19601f82011682018060405250810190610d149190612527565b610d1e9190612dca565b90506000606854670de0b6b3a764000083610d399190612d70565b610d439190612d3f565b9050670de0b6b3a76400008560000151828760200151606954610d669190612dca565b610d709190612ce9565b610d7a9190612d70565b610d849190612d3f565b84610d8f9190612ce9565b93505050505b8092505050919050565b7f65d7a28e3265b37a6474929f336521b332c1681b933f6cb9f3376673440d862a6000606560009054906101000a900473ffffffffffffffffffffffffffffffffffffffff16905060003390508173ffffffffffffffffffffffffffffffffffffffff166391d1485484836040518363ffffffff1660e01b8152600401610e279291906129f8565b60206040518083038186803b158015610e3f57600080fd5b505afa158015610e53573d6000803e3d6000fd5b505050506040513d601f19601f82011682018060405250810190610e7791906124d5565b610e988273ffffffffffffffffffffffffffffffffffffffff166014611f19565b610ea68560001c6020611f19565b604051602001610eb7929190612861565b60405160208183030381529060405290610f07576040517f08c379a0000000000000000000000000000000000000000000000000000000008152600401610efe9190612a43565b60405180910390fd5b50610f10612213565b505050565b600080606d60008473ffffffffffffffffffffffffffffffffffffffff1673ffffffffffffffffffffffffffffffffffffffff168152602001908152602001600020604051806060016040529081600082015481526020016001820154815260200160028201548152505090508060000151915050919050565b610f976113cf565b15610fd7576040517f08c379a0000000000000000000000000000000000000000000000000000000008152600401610fce90612b05565b60405180910390fd5b60003390506000606d60008373ffffffffffffffffffffffffffffffffffffffff1673ffffffffffffffffffffffffffffffffffffffff1681526020019081526020016000209050611027611be1565b61103082611d1a565b6000816002015411611077576040517f08c379a000000000000000000000000000000000000000000000000000000000815260040161106e90612b85565b60405180910390fd5b61108082611dae565b7fce49b138f2621300a7043a61f472ccfd643162bdf3efb11354e22d5273b77a71606854606954606b54606c546040516110bd9493929190612c00565b60405180910390a17f85562ed8ea40250610547d7262031cfe1ce04565357d2efd0fd412d36fb05ebe82826000015483600101548460020154604051611106949392919061297d565b60405180910390a17f0c7ef932d3b91976772937f18d5ef9b39a9930bef486b576c374f047c4b512dc8260405161113d919061289b565b60405180910390a15050565b600080606660009054906101000a900473ffffffffffffffffffffffffffffffffffffffff16905060008173ffffffffffffffffffffffffffffffffffffffff166370a08231306040518263ffffffff1660e01b81526004016111ac919061289b565b60206040518083038186803b1580156111c457600080fd5b505afa1580156111d8573d6000803e3d6000fd5b505050506040513d601f19601f820116820180604052508101906111fc9190612527565b905060685481111561121f57606854816112169190612dca565b92505050611226565b6000925050505b90565b6000801b6000606560009054906101000a900473ffffffffffffffffffffffffffffffffffffffff16905060003390508173ffffffffffffffffffffffffffffffffffffffff166391d1485484836040518363ffffffff1660e01b81526004016112949291906129f8565b60206040518083038186803b1580156112ac57600080fd5b505afa1580156112c0573d6000803e3d6000fd5b505050506040513d601f19601f820116820180604052508101906112e491906124d5565b6113058273ffffffffffffffffffffffffffffffffffffffff166014611f19565b6113138560001c6020611f19565b604051602001611324929190612861565b60405160208183030381529060405290611374576040517f08c379a000000000000000000000000000000000000000000000000000000000815260040161136b9190612a43565b60405180910390fd5b5083606560006101000a81548173ffffffffffffffffffffffffffffffffffffffff021916908373ffffffffffffffffffffffffffffffffffffffff16021790555050505050565b606760149054906101000a900460ff1681565b6000603360009054906101000a900460ff16905090565b6000801b6000606560009054906101000a900473ffffffffffffffffffffffffffffffffffffffff16905060003390508173ffffffffffffffffffffffffffffffffffffffff166391d1485484836040518363ffffffff1660e01b81526004016114519291906129f8565b60206040518083038186803b15801561146957600080fd5b505afa15801561147d573d6000803e3d6000fd5b505050506040513d601f19601f820116820180604052508101906114a191906124d5565b6114c28273ffffffffffffffffffffffffffffffffffffffff166014611f19565b6114d08560001c6020611f19565b6040516020016114e1929190612861565b60405160208183030381529060405290611531576040517f08c379a00000000000000000000000000000000000000000000000000000000081526004016115289190612a43565b60405180910390fd5b50606760149054906101000a900460ff1615606760146101000a81548160ff0219169083151502179055507fbab7db190deaf2eccaf17b4e82ea10dce1e26f8a605ec9681ca8183b2de399fe606760149054906101000a900460ff1660405161159a91906129c2565b60405180910390a1505050565b60695481565b7f65d7a28e3265b37a6474929f336521b332c1681b933f6cb9f3376673440d862a6000606560009054906101000a900473ffffffffffffffffffffffffffffffffffffffff16905060003390508173ffffffffffffffffffffffffffffffffffffffff166391d1485484836040518363ffffffff1660e01b81526004016116359291906129f8565b60206040518083038186803b15801561164d57600080fd5b505afa158015611661573d6000803e3d6000fd5b505050506040513d601f19601f8201168201806040525081019061168591906124d5565b6116a68273ffffffffffffffffffffffffffffffffffffffff166014611f19565b6116b48560001c6020611f19565b6040516020016116c5929190612861565b60405160208183030381529060405290611715576040517f08c379a000000000000000000000000000000000000000000000000000000000815260040161170c9190612a43565b60405180910390fd5b5061171e6122b5565b505050565b6000801b81565b60685481565b606b5481565b606060003390506000606d60008373ffffffffffffffffffffffffffffffffffffffff1673ffffffffffffffffffffffffffffffffffffffff16815260200190815260200160002060000154905061178d8161086d565b6000808673ffffffffffffffffffffffffffffffffffffffff168484886040516024016117bc9392919061293f565b6040516020818303038152906040527f5f781329000000000000000000000000000000000000000000000000000000007bffffffffffffffffffffffffffffffffffffffffffffffffffffffff19166020820180517bffffffffffffffffffffffffffffffffffffffffffffffffffffffff8381831617835250505050604051611846919061284a565b6000604051808303816000865af19150503d8060008114611883576040519150601f19603f3d011682016040523d82523d6000602084013e611888565b606091505b5091509150816118cd576040517f08c379a00000000000000000000000000000000000000000000000000000000081526004016118c490612b65565b60405180910390fd5b8094505050505092915050565b6000801b6000606560009054906101000a900473ffffffffffffffffffffffffffffffffffffffff16905060003390508173ffffffffffffffffffffffffffffffffffffffff166391d1485484836040518363ffffffff1660e01b81526004016119459291906129f8565b60206040518083038186803b15801561195d57600080fd5b505afa158015611971573d6000803e3d6000fd5b505050506040513d601f19601f8201168201806040525081019061199591906124d5565b6119b68273ffffffffffffffffffffffffffffffffffffffff166014611f19565b6119c48560001c6020611f19565b6040516020016119d5929190612861565b60405160208183030381529060405290611a25576040517f08c379a0000000000000000000000000000000000000000000000000000000008152600401611a1c9190612a43565b60405180910390fd5b506000606660009054906101000a900473ffffffffffffffffffffffffffffffffffffffff1690506000611a57611149565b905060008111611a9c576040517f08c379a0000000000000000000000000000000000000000000000000000000008152600401611a9390612b45565b60405180910390fd5b8173ffffffffffffffffffffffffffffffffffffffff1663a9059cbb87836040518363ffffffff1660e01b8152600401611ad7929190612916565b602060405180830381600087803b158015611af157600080fd5b505af1158015611b05573d6000803e3d6000fd5b505050506040513d601f19601f82011682018060405250810190611b2991906124d5565b507fd43c97094d4b3522923f3751f896fb88ef95d5e1d310aea58b936625fd7c5d0c8682604051611b5b929190612916565b60405180910390a1505050505050565b7f65d7a28e3265b37a6474929f336521b332c1681b933f6cb9f3376673440d862a81565b606760009054906101000a900473ffffffffffffffffffffffffffffffffffffffff1681565b606660009054906101000a900473ffffffffffffffffffffffffffffffffffffffff1681565b606c5481565b606b544311611bef57611d18565b60006068541115611d10576000606760009054906101000a900473ffffffffffffffffffffffffffffffffffffffff1690506000606a548273ffffffffffffffffffffffffffffffffffffffff1663ae7928bf306040518263ffffffff1660e01b8152600401611c5f919061289b565b60206040518083038186803b158015611c7757600080fd5b505afa158015611c8b573d6000803e3d6000fd5b505050506040513d601f19601f82011682018060405250810190611caf9190612527565b611cb99190612dca565b905080606a6000828254611ccd9190612ce9565b92505081905550606854670de0b6b3a764000082611ceb9190612d70565b611cf59190612d3f565b60696000828254611d069190612ce9565b9250508190555050505b43606b819055505b565b6000606d60008373ffffffffffffffffffffffffffffffffffffffff1673ffffffffffffffffffffffffffffffffffffffff168152602001908152602001600020905060008160010154606954611d719190612dca565b9050670de0b6b3a7640000826000015482611d8c9190612d70565b611d969190612d3f565b82600201819055506069548260010181905550505050565b6000606760009054906101000a900473ffffffffffffffffffffffffffffffffffffffff1690506000606d60008473ffffffffffffffffffffffffffffffffffffffff1673ffffffffffffffffffffffffffffffffffffffff1681526020019081526020016000206002015490506000811115611f14576000606d60008573ffffffffffffffffffffffffffffffffffffffff1673ffffffffffffffffffffffffffffffffffffffff168152602001908152602001600020600201819055508173ffffffffffffffffffffffffffffffffffffffff1663158a498884836040518363ffffffff1660e01b8152600401611ea8929190612916565b600060405180830381600087803b158015611ec257600080fd5b505af1158015611ed6573d6000803e3d6000fd5b505050507fc083a1647e3ee591bf42b82564ffb4d16fdbb26068f0080da911c8d8300fd84a8382604051611f0b929190612916565b60405180910390a15b505050565b606060006002836002611f2c9190612d70565b611f369190612ce9565b67ffffffffffffffff811115611f75577f4e487b7100000000000000000000000000000000000000000000000000000000600052604160045260246000fd5b6040519080825280601f01601f191660200182016040528015611fa75781602001600182028036833780820191505090505b5090507f300000000000000000000000000000000000000000000000000000000000000081600081518110612005577f4e487b7100000000000000000000000000000000000000000000000000000000600052603260045260246000fd5b60200101907effffffffffffffffffffffffffffffffffffffffffffffffffffffffffffff1916908160001a9053507f78000000000000000000000000000000000000000000000000000000000000008160018151811061208f577f4e487b7100000000000000000000000000000000000000000000000000000000600052603260045260246000fd5b60200101907effffffffffffffffffffffffffffffffffffffffffffffffffffffffffffff1916908160001a905350600060018460026120cf9190612d70565b6120d99190612ce9565b90505b60018111156121c5577f3031323334353637383961626364656600000000000000000000000000000000600f861660108110612141577f4e487b7100000000000000000000000000000000000000000000000000000000600052603260045260246000fd5b1a60f81b82828151811061217e577f4e487b7100000000000000000000000000000000000000000000000000000000600052603260045260246000fd5b60200101907effffffffffffffffffffffffffffffffffffffffffffffffffffffffffffff1916908160001a905350600485901c9450806121be90612e92565b90506120dc565b5060008414612209576040517f08c379a000000000000000000000000000000000000000000000000000000000815260040161220090612a85565b60405180910390fd5b8091505092915050565b61221b6113cf565b61225a576040517f08c379a000000000000000000000000000000000000000000000000000000000815260040161225190612aa5565b60405180910390fd5b6000603360006101000a81548160ff0219169083151502179055507f5db9ee0a495bf2e6ff9c91a7834c1ba4fdd244a5e8aa4e537bd38aeae4b073aa61229e612358565b6040516122ab919061289b565b60405180910390a1565b6122bd6113cf565b156122fd576040517f08c379a00000000000000000000000000000000000000000000000000000000081526004016122f490612b05565b60405180910390fd5b6001603360006101000a81548160ff0219169083151502179055507f62e78cea01bee320cd4e420270b5ea74000d11b0c9f74754ebdbfc544b05a258612341612358565b60405161234e919061289b565b60405180910390a1565b600033905090565b600061237361236e84612c6a565b612c45565b90508281526020810184848401111561238b57600080fd5b612396848285612e50565b509392505050565b6000813590506123ad8161331f565b92915050565b6000815190506123c281613336565b92915050565b600082601f8301126123d957600080fd5b81356123e9848260208601612360565b91505092915050565b6000813590506124018161334d565b92915050565b6000815190506124168161334d565b92915050565b60006020828403121561242e57600080fd5b600061243c8482850161239e565b91505092915050565b6000806040838503121561245857600080fd5b60006124668582860161239e565b925050602083013567ffffffffffffffff81111561248357600080fd5b61248f858286016123c8565b9150509250929050565b600080604083850312156124ac57600080fd5b60006124ba8582860161239e565b92505060206124cb858286016123f2565b9150509250929050565b6000602082840312156124e757600080fd5b60006124f5848285016123b3565b91505092915050565b60006020828403121561251057600080fd5b600061251e848285016123f2565b91505092915050565b60006020828403121561253957600080fd5b600061254784828501612407565b91505092915050565b61255981612dfe565b82525050565b61256881612e10565b82525050565b61257781612e1c565b82525050565b600061258882612c9b565b6125928185612cb1565b93506125a2818560208601612e5f565b6125ab81612f7a565b840191505092915050565b60006125c182612c9b565b6125cb8185612cc2565b93506125db818560208601612e5f565b80840191505092915050565b60006125f282612ca6565b6125fc8185612ccd565b935061260c818560208601612e5f565b61261581612f7a565b840191505092915050565b600061262b82612ca6565b6126358185612cde565b9350612645818560208601612e5f565b80840191505092915050565b600061265e602983612ccd565b915061266982612f8b565b604082019050919050565b6000612681602083612ccd565b915061268c82612fda565b602082019050919050565b60006126a4602483612cde565b91506126af82613003565b602482019050919050565b60006126c7601483612ccd565b91506126d282613052565b602082019050919050565b60006126ea603483612ccd565b91506126f58261307b565b604082019050919050565b600061270d602883612ccd565b9150612718826130ca565b604082019050919050565b6000612730601083612ccd565b915061273b82613119565b602082019050919050565b6000612753602983612ccd565b915061275e82613142565b604082019050919050565b6000612776602083612ccd565b915061278182613191565b602082019050919050565b6000612799602583612ccd565b91506127a4826131ba565b604082019050919050565b60006127bc602183612ccd565b91506127c782613209565b604082019050919050565b60006127df602c83612ccd565b91506127ea82613258565b604082019050919050565b6000612802602983612ccd565b915061280d826132a7565b604082019050919050565b6000612825601183612cde565b9150612830826132f6565b601182019050919050565b61284481612e46565b82525050565b600061285682846125b6565b915081905092915050565b600061286c82612697565b91506128788285612620565b915061288382612818565b915061288f8284612620565b91508190509392505050565b60006020820190506128b06000830184612550565b92915050565b60006040820190506128cb6000830185612550565b6128d86020830184612550565b9392505050565b60006060820190506128f46000830186612550565b6129016020830185612550565b61290e604083018461283b565b949350505050565b600060408201905061292b6000830185612550565b612938602083018461283b565b9392505050565b60006060820190506129546000830186612550565b612961602083018561283b565b8181036040830152612973818461257d565b9050949350505050565b60006080820190506129926000830187612550565b61299f602083018661283b565b6129ac604083018561283b565b6129b9606083018461283b565b95945050505050565b60006020820190506129d7600083018461255f565b92915050565b60006020820190506129f2600083018461256e565b92915050565b6000604082019050612a0d600083018561256e565b612a1a6020830184612550565b9392505050565b60006020820190508181036000830152612a3b818461257d565b905092915050565b60006020820190508181036000830152612a5d81846125e7565b905092915050565b60006020820190508181036000830152612a7e81612651565b9050919050565b60006020820190508181036000830152612a9e81612674565b9050919050565b60006020820190508181036000830152612abe816126ba565b9050919050565b60006020820190508181036000830152612ade816126dd565b9050919050565b60006020820190508181036000830152612afe81612700565b9050919050565b60006020820190508181036000830152612b1e81612723565b9050919050565b60006020820190508181036000830152612b3e81612746565b9050919050565b60006020820190508181036000830152612b5e81612769565b9050919050565b60006020820190508181036000830152612b7e8161278c565b9050919050565b60006020820190508181036000830152612b9e816127af565b9050919050565b60006020820190508181036000830152612bbe816127d2565b9050919050565b60006020820190508181036000830152612bde816127f5565b9050919050565b6000602082019050612bfa600083018461283b565b92915050565b6000608082019050612c15600083018761283b565b612c22602083018661283b565b612c2f604083018561283b565b612c3c606083018461283b565b95945050505050565b6000612c4f612c60565b9050612c5b8282612ebc565b919050565b6000604051905090565b600067ffffffffffffffff821115612c8557612c84612f4b565b5b612c8e82612f7a565b9050602081019050919050565b600081519050919050565b600081519050919050565b600082825260208201905092915050565b600081905092915050565b600082825260208201905092915050565b600081905092915050565b6000612cf482612e46565b9150612cff83612e46565b9250827fffffffffffffffffffffffffffffffffffffffffffffffffffffffffffffffff03821115612d3457612d33612eed565b5b828201905092915050565b6000612d4a82612e46565b9150612d5583612e46565b925082612d6557612d64612f1c565b5b828204905092915050565b6000612d7b82612e46565b9150612d8683612e46565b9250817fffffffffffffffffffffffffffffffffffffffffffffffffffffffffffffffff0483118215151615612dbf57612dbe612eed565b5b828202905092915050565b6000612dd582612e46565b9150612de083612e46565b925082821015612df357612df2612eed565b5b828203905092915050565b6000612e0982612e26565b9050919050565b60008115159050919050565b6000819050919050565b600073ffffffffffffffffffffffffffffffffffffffff82169050919050565b6000819050919050565b82818337600083830152505050565b60005b83811015612e7d578082015181840152602081019050612e62565b83811115612e8c576000848401525b50505050565b6000612e9d82612e46565b91506000821415612eb157612eb0612eed565b5b600182039050919050565b612ec582612f7a565b810181811067ffffffffffffffff82111715612ee457612ee3612f4b565b5b80604052505050565b7f4e487b7100000000000000000000000000000000000000000000000000000000600052601160045260246000fd5b7f4e487b7100000000000000000000000000000000000000000000000000000000600052601260045260246000fd5b7f4e487b7100000000000000000000000000000000000000000000000000000000600052604160045260246000fd5b6000601f19601f8301169050919050565b7f547574656c6c75734661726d696e673a207769746864726177207472616e736660008201527f6572206661696c65640000000000000000000000000000000000000000000000602082015250565b7f537472696e67733a20686578206c656e67746820696e73756666696369656e74600082015250565b7f416363657373436f6e74726f6c50726f78795061757361626c653a206163636f60008201527f756e742000000000000000000000000000000000000000000000000000000000602082015250565b7f5061757361626c653a206e6f7420706175736564000000000000000000000000600082015250565b7f547574656c6c75734661726d696e673a207573657220686173206e6f7420656e60008201527f6f756768207374616b696e672062616c616e6365000000000000000000000000602082015250565b7f547574656c6c75734661726d696e673a206465706f736974207472616e73666560008201527f72206661696c6564000000000000000000000000000000000000000000000000602082015250565b7f5061757361626c653a2070617573656400000000000000000000000000000000600082015250565b7f547574656c6c75734661726d696e673a20616d6f756e7420657863656564732060008201527f616c6c6f77616e63650000000000000000000000000000000000000000000000602082015250565b7f547574656c6c75734661726d696e673a207468657265206973206e6f20676170600082015250565b7f547574656c6c75734661726d696e673a206d6967726174696f6e20686173206660008201527f61696c6564000000000000000000000000000000000000000000000000000000602082015250565b7f547574656c6c75734661726d696e673a206e6f7468696e6720746f20636c616960008201527f6d00000000000000000000000000000000000000000000000000000000000000602082015250565b7f547574656c6c75734661726d696e673a207573657220686173206e6f7420656e60008201527f6f7567682062616c616e63650000000000000000000000000000000000000000602082015250565b7f547574656c6c75734661726d696e673a20616d6f756e74206d7573742062652060008201527f6f766572207a65726f0000000000000000000000000000000000000000000000602082015250565b7f206973206d697373696e6720726f6c6520000000000000000000000000000000600082015250565b61332881612dfe565b811461333357600080fd5b50565b61333f81612e10565b811461334a57600080fd5b50565b61335681612e46565b811461336157600080fd5b5056fea264697066735822122062d026a8197cc4f35fab940bd4add94ffa618d7eaa87d935ad598f8067f5c38264736f6c63430008020033",
  "linkReferences": {},
  "deployedLinkReferences": {}
}