{
  "_format": "hh-sol-artifact-1",
  "contractName": "TutellusFarming",
  "sourceName": "contracts/TutellusFarming.sol",
  "abi": [
    {
      "inputs": [
        {
          "internalType": "address",
          "name": "rolemanager",
          "type": "address"
        },
        {
          "internalType": "address",
          "name": "token_",
          "type": "address"
        },
        {
          "internalType": "address",
          "name": "vault_",
          "type": "address"
        }
      ],
      "stateMutability": "nonpayable",
      "type": "constructor"
    },
    {
      "anonymous": false,
      "inputs": [
        {
          "indexed": false,
          "internalType": "address",
          "name": "account",
          "type": "address"
        }
      ],
      "name": "Claim",
      "type": "event"
    },
    {
      "anonymous": false,
      "inputs": [
        {
          "indexed": false,
          "internalType": "address",
          "name": "account",
          "type": "address"
        },
        {
          "indexed": false,
          "internalType": "uint256",
          "name": "amount",
          "type": "uint256"
        }
      ],
      "name": "Deposit",
      "type": "event"
    },
    {
      "anonymous": false,
      "inputs": [
        {
          "indexed": false,
          "internalType": "address",
          "name": "account",
          "type": "address"
        }
      ],
      "name": "Paused",
      "type": "event"
    },
    {
      "anonymous": false,
      "inputs": [
        {
          "indexed": false,
          "internalType": "address",
          "name": "account",
          "type": "address"
        },
        {
          "indexed": false,
          "internalType": "uint256",
          "name": "amount",
          "type": "uint256"
        }
      ],
      "name": "Rewards",
      "type": "event"
    },
    {
      "anonymous": false,
      "inputs": [
        {
          "indexed": false,
          "internalType": "address",
          "name": "account",
          "type": "address"
        },
        {
          "indexed": false,
          "internalType": "uint256",
          "name": "gap",
          "type": "uint256"
        }
      ],
      "name": "SyncBalance",
      "type": "event"
    },
    {
      "anonymous": false,
      "inputs": [
        {
          "indexed": false,
          "internalType": "bool",
          "name": "autoreward",
          "type": "bool"
        }
      ],
      "name": "ToggleAutoreward",
      "type": "event"
    },
    {
      "anonymous": false,
      "inputs": [
        {
          "indexed": false,
          "internalType": "address",
          "name": "account",
          "type": "address"
        }
      ],
      "name": "Unpaused",
      "type": "event"
    },
    {
      "anonymous": false,
      "inputs": [
        {
          "indexed": false,
          "internalType": "uint256",
          "name": "balance",
          "type": "uint256"
        },
        {
          "indexed": false,
          "internalType": "uint256",
          "name": "accRewardsPerShare",
          "type": "uint256"
        },
        {
          "indexed": false,
          "internalType": "uint256",
          "name": "lastUpdate",
          "type": "uint256"
        },
        {
          "indexed": false,
          "internalType": "uint256",
          "name": "stakers",
          "type": "uint256"
        }
      ],
      "name": "Update",
      "type": "event"
    },
    {
      "anonymous": false,
      "inputs": [
        {
          "indexed": false,
          "internalType": "address",
          "name": "account",
          "type": "address"
        },
        {
          "indexed": false,
          "internalType": "uint256",
          "name": "amount",
          "type": "uint256"
        },
        {
          "indexed": false,
          "internalType": "uint256",
          "name": "rewardDebt",
          "type": "uint256"
        },
        {
          "indexed": false,
          "internalType": "uint256",
          "name": "notClaimed",
          "type": "uint256"
        }
      ],
      "name": "UpdateUserInfo",
      "type": "event"
    },
    {
      "anonymous": false,
      "inputs": [
        {
          "indexed": false,
          "internalType": "address",
          "name": "account",
          "type": "address"
        },
        {
          "indexed": false,
          "internalType": "uint256",
          "name": "amount",
          "type": "uint256"
        }
      ],
      "name": "Withdraw",
      "type": "event"
    },
    {
      "inputs": [],
      "name": "DEFAULT_ADMIN_ROLE",
      "outputs": [
        {
          "internalType": "bytes32",
          "name": "",
          "type": "bytes32"
        }
      ],
      "stateMutability": "view",
      "type": "function"
    },
    {
      "inputs": [],
      "name": "PAUSER_ROLE",
      "outputs": [
        {
          "internalType": "bytes32",
          "name": "",
          "type": "bytes32"
        }
      ],
      "stateMutability": "view",
      "type": "function"
    },
    {
      "inputs": [],
      "name": "accRewardsPerShare",
      "outputs": [
        {
          "internalType": "uint256",
          "name": "",
          "type": "uint256"
        }
      ],
      "stateMutability": "view",
      "type": "function"
    },
    {
      "inputs": [],
      "name": "autoreward",
      "outputs": [
        {
          "internalType": "bool",
          "name": "",
          "type": "bool"
        }
      ],
      "stateMutability": "view",
      "type": "function"
    },
    {
      "inputs": [],
      "name": "balance",
      "outputs": [
        {
          "internalType": "uint256",
          "name": "",
          "type": "uint256"
        }
      ],
      "stateMutability": "view",
      "type": "function"
    },
    {
      "inputs": [],
      "name": "claim",
      "outputs": [],
      "stateMutability": "nonpayable",
      "type": "function"
    },
    {
      "inputs": [
        {
          "internalType": "address",
          "name": "account",
          "type": "address"
        },
        {
          "internalType": "uint256",
          "name": "amount",
          "type": "uint256"
        }
      ],
      "name": "depositFrom",
      "outputs": [],
      "stateMutability": "nonpayable",
      "type": "function"
    },
    {
      "inputs": [],
      "name": "getTokenGap",
      "outputs": [
        {
          "internalType": "uint256",
          "name": "",
          "type": "uint256"
        }
      ],
      "stateMutability": "view",
      "type": "function"
    },
    {
      "inputs": [
        {
          "internalType": "address",
          "name": "user_",
          "type": "address"
        }
      ],
      "name": "getUserBalance",
      "outputs": [
        {
          "internalType": "uint256",
          "name": "",
          "type": "uint256"
        }
      ],
      "stateMutability": "view",
      "type": "function"
    },
    {
      "inputs": [
        {
          "internalType": "bytes32",
          "name": "role",
          "type": "bytes32"
        },
        {
          "internalType": "address",
          "name": "account",
          "type": "address"
        }
      ],
      "name": "hasRole",
      "outputs": [
        {
          "internalType": "bool",
          "name": "",
          "type": "bool"
        }
      ],
      "stateMutability": "view",
      "type": "function"
    },
    {
      "inputs": [],
      "name": "lastUpdate",
      "outputs": [
        {
          "internalType": "uint256",
          "name": "",
          "type": "uint256"
        }
      ],
      "stateMutability": "view",
      "type": "function"
    },
    {
      "inputs": [
        {
          "internalType": "address",
          "name": "to",
          "type": "address"
        },
        {
          "internalType": "bytes",
          "name": "data",
          "type": "bytes"
        }
      ],
      "name": "migrate",
      "outputs": [
        {
          "internalType": "bytes",
          "name": "",
          "type": "bytes"
        }
      ],
      "stateMutability": "nonpayable",
      "type": "function"
    },
    {
      "inputs": [],
      "name": "pause",
      "outputs": [],
      "stateMutability": "nonpayable",
      "type": "function"
    },
    {
      "inputs": [],
      "name": "paused",
      "outputs": [
        {
          "internalType": "bool",
          "name": "",
          "type": "bool"
        }
      ],
      "stateMutability": "view",
      "type": "function"
    },
    {
      "inputs": [
        {
          "internalType": "address",
          "name": "user_",
          "type": "address"
        }
      ],
      "name": "pendingRewards",
      "outputs": [
        {
          "internalType": "uint256",
          "name": "",
          "type": "uint256"
        }
      ],
      "stateMutability": "view",
      "type": "function"
    },
    {
      "inputs": [],
      "name": "stakers",
      "outputs": [
        {
          "internalType": "uint256",
          "name": "",
          "type": "uint256"
        }
      ],
      "stateMutability": "view",
      "type": "function"
    },
    {
      "inputs": [
        {
          "internalType": "address",
          "name": "account",
          "type": "address"
        }
      ],
      "name": "syncBalance",
      "outputs": [],
      "stateMutability": "nonpayable",
      "type": "function"
    },
    {
      "inputs": [],
      "name": "toggleAutoreward",
      "outputs": [],
      "stateMutability": "nonpayable",
      "type": "function"
    },
    {
      "inputs": [],
      "name": "token",
      "outputs": [
        {
          "internalType": "address",
          "name": "",
          "type": "address"
        }
      ],
      "stateMutability": "view",
      "type": "function"
    },
    {
      "inputs": [],
      "name": "unpause",
      "outputs": [],
      "stateMutability": "nonpayable",
      "type": "function"
    },
    {
      "inputs": [
        {
          "internalType": "address",
          "name": "manager",
          "type": "address"
        }
      ],
      "name": "updateManager",
      "outputs": [],
      "stateMutability": "nonpayable",
      "type": "function"
    },
    {
      "inputs": [],
      "name": "vault",
      "outputs": [
        {
          "internalType": "address",
          "name": "",
          "type": "address"
        }
      ],
      "stateMutability": "view",
      "type": "function"
    },
    {
      "inputs": [
        {
          "internalType": "uint256",
          "name": "amount",
          "type": "uint256"
        }
      ],
      "name": "withdraw",
      "outputs": [],
      "stateMutability": "nonpayable",
      "type": "function"
    }
  ],
  "bytecode": "0x60806040523480156200001157600080fd5b5060405162003af738038062003af78339818101604052810190620000379190620007ee565b6200004a8383836200005360201b60201c565b5050506200093b565b600060019054906101000a900460ff16806200007a575060008054906101000a900460ff16155b620000bc576040517f08c379a0000000000000000000000000000000000000000000000000000000008152600401620000b3906200086b565b60405180910390fd5b60008060019054906101000a900460ff1615905080156200010d576001600060016101000a81548160ff02191690831515021790555060016000806101000a81548160ff0219169083151502179055505b6200011e846200015860201b60201c565b6200013083836200025960201b60201c565b8015620001525760008060016101000a81548160ff0219169083151502179055505b50505050565b600060019054906101000a900460ff16806200017f575060008054906101000a900460ff16155b620001c1576040517f08c379a0000000000000000000000000000000000000000000000000000000008152600401620001b8906200086b565b60405180910390fd5b60008060019054906101000a900460ff16159050801562000212576001600060016101000a81548160ff02191690831515021790555060016000806101000a81548160ff0219169083151502179055505b62000222620003de60201b60201c565b6200023382620004dd60201b60201c565b8015620002555760008060016101000a81548160ff0219169083151502179055505b5050565b600060019054906101000a900460ff168062000280575060008054906101000a900460ff16155b620002c2576040517f08c379a0000000000000000000000000000000000000000000000000000000008152600401620002b9906200086b565b60405180910390fd5b60008060019054906101000a900460ff16159050801562000313576001600060016101000a81548160ff02191690831515021790555060016000806101000a81548160ff0219169083151502179055505b82606660006101000a81548173ffffffffffffffffffffffffffffffffffffffff021916908373ffffffffffffffffffffffffffffffffffffffff16021790555081606760006101000a81548173ffffffffffffffffffffffffffffffffffffffff021916908373ffffffffffffffffffffffffffffffffffffffff1602179055506001606760146101000a81548160ff02191690831515021790555043606b819055508015620003d95760008060016101000a81548160ff0219169083151502179055505b505050565b600060019054906101000a900460ff168062000405575060008054906101000a900460ff16155b62000447576040517f08c379a00000000000000000000000000000000000000000000000000000000081526004016200043e906200086b565b60405180910390fd5b60008060019054906101000a900460ff16159050801562000498576001600060016101000a81548160ff02191690831515021790555060016000806101000a81548160ff0219169083151502179055505b620004a8620005fe60201b60201c565b620004b8620006dd60201b60201c565b8015620004da5760008060016101000a81548160ff0219169083151502179055505b50565b600060019054906101000a900460ff168062000504575060008054906101000a900460ff16155b62000546576040517f08c379a00000000000000000000000000000000000000000000000000000000081526004016200053d906200086b565b60405180910390fd5b60008060019054906101000a900460ff16159050801562000597576001600060016101000a81548160ff02191690831515021790555060016000806101000a81548160ff0219169083151502179055505b81606560006101000a81548173ffffffffffffffffffffffffffffffffffffffff021916908373ffffffffffffffffffffffffffffffffffffffff1602179055508015620005fa5760008060016101000a81548160ff0219169083151502179055505b5050565b600060019054906101000a900460ff168062000625575060008054906101000a900460ff16155b62000667576040517f08c379a00000000000000000000000000000000000000000000000000000000081526004016200065e906200086b565b60405180910390fd5b60008060019054906101000a900460ff161590508015620006b8576001600060016101000a81548160ff02191690831515021790555060016000806101000a81548160ff0219169083151502179055505b8015620006da5760008060016101000a81548160ff0219169083151502179055505b50565b600060019054906101000a900460ff168062000704575060008054906101000a900460ff16155b62000746576040517f08c379a00000000000000000000000000000000000000000000000000000000081526004016200073d906200086b565b60405180910390fd5b60008060019054906101000a900460ff16159050801562000797576001600060016101000a81548160ff02191690831515021790555060016000806101000a81548160ff0219169083151502179055505b6000603360006101000a81548160ff0219169083151502179055508015620007d45760008060016101000a81548160ff0219169083151502179055505b50565b600081519050620007e88162000921565b92915050565b6000806000606084860312156200080457600080fd5b60006200081486828701620007d7565b93505060206200082786828701620007d7565b92505060406200083a86828701620007d7565b9150509250925092565b600062000853602e836200088d565b91506200086082620008d2565b604082019050919050565b60006020820190508181036000830152620008868162000844565b9050919050565b600082825260208201905092915050565b6000620008ab82620008b2565b9050919050565b600073ffffffffffffffffffffffffffffffffffffffff82169050919050565b7f496e697469616c697a61626c653a20636f6e747261637420697320616c72656160008201527f647920696e697469616c697a6564000000000000000000000000000000000000602082015250565b6200092c816200089e565b81146200093857600080fd5b50565b6131ac806200094b6000396000f3fe608060405234801561001057600080fd5b506004361061014d5760003560e01c80637cbaccd5116100c3578063c3fbb6fd1161007c578063c3fbb6fd14610330578063e0adaca214610360578063e63ab1e91461037c578063fbfa77cf1461039a578063fc0c546a146103b8578063fed1252a146103d65761014d565b80637cbaccd51461027e5780638456cb591461029c57806391d14854146102a6578063a217fddf146102d6578063b69ef8a8146102f4578063c0463711146103125761014d565b80634e71d92d116101155780634e71d92d146101f45780635129338c146101fe57806358aba00f1461021c5780635a3c978b146102385780635c975abb146102565780636ca569c1146102745761014d565b806315cc36f2146101525780632e1a7d4d1461016e57806331d7a2621461018a5780633f4ba83a146101ba57806347734892146101c4575b600080fd5b61016c60048036038101906101679190612258565b6103f4565b005b610188600480360381019061018391906122f9565b6108a8565b005b6101a4600480360381019061019f91906121db565b610c19565b6040516101b191906129e0565b60405180910390f35b6101c2610dda565b005b6101de60048036038101906101d991906121db565b610ea7565b6040516101eb91906129e0565b60405180910390f35b6101fc610f21565b005b6102066110db565b60405161021391906129e0565b60405180910390f35b610236600480360381019061023191906121db565b6111bb565b005b6102406112a5565b60405161024d91906127bd565b60405180910390f35b61025e6112b8565b60405161026b91906127bd565b60405180910390f35b61027c6112cf565b005b6102866113e7565b60405161029391906129e0565b60405180910390f35b6102a46113ed565b005b6102c060048036038101906102bb91906122bd565b6114ba565b6040516102cd91906127bd565b60405180910390f35b6102de611576565b6040516102eb91906127d8565b60405180910390f35b6102fc61157d565b60405161030991906129e0565b60405180910390f35b61031a611583565b60405161032791906129e0565b60405180910390f35b61034a60048036038101906103459190612204565b611589565b604051610357919061281c565b60405180910390f35b61037a600480360381019061037591906121db565b61172d565b005b610384611915565b60405161039191906127d8565b60405180910390f35b6103a2611939565b6040516103af9190612696565b60405180910390f35b6103c061195f565b6040516103cd9190612696565b60405180910390f35b6103de611985565b6040516103eb91906129e0565b60405180910390f35b6103fc6112b8565b1561043c576040517f08c379a000000000000000000000000000000000000000000000000000000000815260040161043390612900565b60405180910390fd5b6000811161047f576040517f08c379a0000000000000000000000000000000000000000000000000000000008152600401610476906129c0565b60405180910390fd5b6000606d60008473ffffffffffffffffffffffffffffffffffffffff1673ffffffffffffffffffffffffffffffffffffffff16815260200190815260200160002090506104ca61198b565b6104d383611ac4565b6000816000015414156104fb576001606c60008282546104f39190612ae4565b925050819055505b8181600001600082825461050f9190612ae4565b9250508190555081606860008282546105289190612ae4565b925050819055506000606660009054906101000a900473ffffffffffffffffffffffffffffffffffffffff169050828173ffffffffffffffffffffffffffffffffffffffff166370a08231866040518263ffffffff1660e01b81526004016105909190612696565b60206040518083038186803b1580156105a857600080fd5b505afa1580156105bc573d6000803e3d6000fd5b505050506040513d601f19601f820116820180604052508101906105e09190612322565b1015610621576040517f08c379a0000000000000000000000000000000000000000000000000000000008152600401610618906129a0565b60405180910390fd5b828173ffffffffffffffffffffffffffffffffffffffff1663dd62ed3e86306040518363ffffffff1660e01b815260040161065d9291906126b1565b60206040518083038186803b15801561067557600080fd5b505afa158015610689573d6000803e3d6000fd5b505050506040513d601f19601f820116820180604052508101906106ad9190612322565b10156106ee576040517f08c379a00000000000000000000000000000000000000000000000000000000081526004016106e590612920565b60405180910390fd5b606760149054906101000a900460ff161561070d5761070c84611b58565b5b8073ffffffffffffffffffffffffffffffffffffffff166323b872dd8530866040518463ffffffff1660e01b815260040161074a939291906126da565b602060405180830381600087803b15801561076457600080fd5b505af1158015610778573d6000803e3d6000fd5b505050506040513d601f19601f8201168201806040525081019061079c9190612294565b6107db576040517f08c379a00000000000000000000000000000000000000000000000000000000081526004016107d2906128e0565b60405180910390fd5b7fce49b138f2621300a7043a61f472ccfd643162bdf3efb11354e22d5273b77a71606854606954606b54606c5460405161081894939291906129fb565b60405180910390a17f85562ed8ea40250610547d7262031cfe1ce04565357d2efd0fd412d36fb05ebe848360000154846001015485600201546040516108619493929190612778565b60405180910390a17fe1fffcc4923d04b559f4d29a8bfc6cda04eb5b0d3c460751c2402c5c5cc9109c848460405161089a929190612711565b60405180910390a150505050565b6108b06112b8565b156108f0576040517f08c379a00000000000000000000000000000000000000000000000000000000081526004016108e790612900565b60405180910390fd5b60008111610933576040517f08c379a000000000000000000000000000000000000000000000000000000000815260040161092a906129c0565b60405180910390fd5b60003390506000606d60008373ffffffffffffffffffffffffffffffffffffffff1673ffffffffffffffffffffffffffffffffffffffff168152602001908152602001600020905080600001548311156109c2576040517f08c379a00000000000000000000000000000000000000000000000000000000081526004016109b9906128c0565b60405180910390fd5b6109ca61198b565b6109d382611ac4565b6069548160010181905550828160000160008282546109f29190612bc5565b925050819055508260686000828254610a0b9190612bc5565b92505081905550600081600001541415610a3a576001606c6000828254610a329190612bc5565b925050819055505b6000606660009054906101000a900473ffffffffffffffffffffffffffffffffffffffff169050606760149054906101000a900460ff1615610a8057610a7f83611b58565b5b8073ffffffffffffffffffffffffffffffffffffffff1663a9059cbb84866040518363ffffffff1660e01b8152600401610abb929190612711565b602060405180830381600087803b158015610ad557600080fd5b505af1158015610ae9573d6000803e3d6000fd5b505050506040513d601f19601f82011682018060405250810190610b0d9190612294565b610b4c576040517f08c379a0000000000000000000000000000000000000000000000000000000008152600401610b4390612860565b60405180910390fd5b7fce49b138f2621300a7043a61f472ccfd643162bdf3efb11354e22d5273b77a71606854606954606b54606c54604051610b8994939291906129fb565b60405180910390a17f85562ed8ea40250610547d7262031cfe1ce04565357d2efd0fd412d36fb05ebe83836000015484600101548560020154604051610bd29493929190612778565b60405180910390a17f884edad9ce6fa2440d8a54cc123490eb96d2768479d49ff9c7366125a94243648385604051610c0b929190612711565b60405180910390a150505050565b600080606d60008473ffffffffffffffffffffffffffffffffffffffff1673ffffffffffffffffffffffffffffffffffffffff1681526020019081526020016000206040518060600160405290816000820154815260200160018201548152602001600282015481525050905060008160400151905060006068541115610dd0576000606760009054906101000a900473ffffffffffffffffffffffffffffffffffffffff1690506000606a548273ffffffffffffffffffffffffffffffffffffffff1663ae7928bf306040518263ffffffff1660e01b8152600401610cff9190612696565b60206040518083038186803b158015610d1757600080fd5b505afa158015610d2b573d6000803e3d6000fd5b505050506040513d601f19601f82011682018060405250810190610d4f9190612322565b610d599190612bc5565b90506000606854670de0b6b3a764000083610d749190612b6b565b610d7e9190612b3a565b9050670de0b6b3a76400008560000151828760200151606954610da19190612bc5565b610dab9190612ae4565b610db59190612b6b565b610dbf9190612b3a565b84610dca9190612ae4565b93505050505b8092505050919050565b7f65d7a28e3265b37a6474929f336521b332c1681b933f6cb9f3376673440d862a6000339050610e0a82826114ba565b610e2b8273ffffffffffffffffffffffffffffffffffffffff166014611cc3565b610e398460001c6020611cc3565b604051602001610e4a92919061265c565b60405160208183030381529060405290610e9a576040517f08c379a0000000000000000000000000000000000000000000000000000000008152600401610e91919061283e565b60405180910390fd5b50610ea3611fbd565b5050565b600080606d60008473ffffffffffffffffffffffffffffffffffffffff1673ffffffffffffffffffffffffffffffffffffffff168152602001908152602001600020604051806060016040529081600082015481526020016001820154815260200160028201548152505090508060000151915050919050565b610f296112b8565b15610f69576040517f08c379a0000000000000000000000000000000000000000000000000000000008152600401610f6090612900565b60405180910390fd5b60003390506000606d60008373ffffffffffffffffffffffffffffffffffffffff1673ffffffffffffffffffffffffffffffffffffffff1681526020019081526020016000209050610fb961198b565b610fc282611ac4565b6000816002015411611009576040517f08c379a000000000000000000000000000000000000000000000000000000000815260040161100090612980565b60405180910390fd5b61101282611b58565b7fce49b138f2621300a7043a61f472ccfd643162bdf3efb11354e22d5273b77a71606854606954606b54606c5460405161104f94939291906129fb565b60405180910390a17f85562ed8ea40250610547d7262031cfe1ce04565357d2efd0fd412d36fb05ebe828260000154836001015484600201546040516110989493929190612778565b60405180910390a17f0c7ef932d3b91976772937f18d5ef9b39a9930bef486b576c374f047c4b512dc826040516110cf9190612696565b60405180910390a15050565b600080606660009054906101000a900473ffffffffffffffffffffffffffffffffffffffff16905060008173ffffffffffffffffffffffffffffffffffffffff166370a08231306040518263ffffffff1660e01b815260040161113e9190612696565b60206040518083038186803b15801561115657600080fd5b505afa15801561116a573d6000803e3d6000fd5b505050506040513d601f19601f8201168201806040525081019061118e9190612322565b90506068548111156111b157606854816111a89190612bc5565b925050506111b8565b6000925050505b90565b6000801b60003390506111ce82826114ba565b6111ef8273ffffffffffffffffffffffffffffffffffffffff166014611cc3565b6111fd8460001c6020611cc3565b60405160200161120e92919061265c565b6040516020818303038152906040529061125e576040517f08c379a0000000000000000000000000000000000000000000000000000000008152600401611255919061283e565b60405180910390fd5b5082606560006101000a81548173ffffffffffffffffffffffffffffffffffffffff021916908373ffffffffffffffffffffffffffffffffffffffff160217905550505050565b606760149054906101000a900460ff1681565b6000603360009054906101000a900460ff16905090565b6000801b60003390506112e282826114ba565b6113038273ffffffffffffffffffffffffffffffffffffffff166014611cc3565b6113118460001c6020611cc3565b60405160200161132292919061265c565b60405160208183030381529060405290611372576040517f08c379a0000000000000000000000000000000000000000000000000000000008152600401611369919061283e565b60405180910390fd5b50606760149054906101000a900460ff1615606760146101000a81548160ff0219169083151502179055507fbab7db190deaf2eccaf17b4e82ea10dce1e26f8a605ec9681ca8183b2de399fe606760149054906101000a900460ff166040516113db91906127bd565b60405180910390a15050565b60695481565b7f65d7a28e3265b37a6474929f336521b332c1681b933f6cb9f3376673440d862a600033905061141d82826114ba565b61143e8273ffffffffffffffffffffffffffffffffffffffff166014611cc3565b61144c8460001c6020611cc3565b60405160200161145d92919061265c565b604051602081830303815290604052906114ad576040517f08c379a00000000000000000000000000000000000000000000000000000000081526004016114a4919061283e565b60405180910390fd5b506114b661205f565b5050565b600080606560009054906101000a900473ffffffffffffffffffffffffffffffffffffffff1690508073ffffffffffffffffffffffffffffffffffffffff166391d1485485856040518363ffffffff1660e01b815260040161151d9291906127f3565b60206040518083038186803b15801561153557600080fd5b505afa158015611549573d6000803e3d6000fd5b505050506040513d601f19601f8201168201806040525081019061156d9190612294565b91505092915050565b6000801b81565b60685481565b606b5481565b606060003390506000606d60008373ffffffffffffffffffffffffffffffffffffffff1673ffffffffffffffffffffffffffffffffffffffff1681526020019081526020016000206000015490506115e0816108a8565b6000808673ffffffffffffffffffffffffffffffffffffffff1684848860405160240161160f9392919061273a565b6040516020818303038152906040527f5f781329000000000000000000000000000000000000000000000000000000007bffffffffffffffffffffffffffffffffffffffffffffffffffffffff19166020820180517bffffffffffffffffffffffffffffffffffffffffffffffffffffffff83818316178352505050506040516116999190612645565b6000604051808303816000865af19150503d80600081146116d6576040519150601f19603f3d011682016040523d82523d6000602084013e6116db565b606091505b509150915081611720576040517f08c379a000000000000000000000000000000000000000000000000000000000815260040161171790612960565b60405180910390fd5b8094505050505092915050565b6000801b600033905061174082826114ba565b6117618273ffffffffffffffffffffffffffffffffffffffff166014611cc3565b61176f8460001c6020611cc3565b60405160200161178092919061265c565b604051602081830303815290604052906117d0576040517f08c379a00000000000000000000000000000000000000000000000000000000081526004016117c7919061283e565b60405180910390fd5b506000606660009054906101000a900473ffffffffffffffffffffffffffffffffffffffff16905060006118026110db565b905060008111611847576040517f08c379a000000000000000000000000000000000000000000000000000000000815260040161183e90612940565b60405180910390fd5b8173ffffffffffffffffffffffffffffffffffffffff1663a9059cbb86836040518363ffffffff1660e01b8152600401611882929190612711565b602060405180830381600087803b15801561189c57600080fd5b505af11580156118b0573d6000803e3d6000fd5b505050506040513d601f19601f820116820180604052508101906118d49190612294565b507fd43c97094d4b3522923f3751f896fb88ef95d5e1d310aea58b936625fd7c5d0c8582604051611906929190612711565b60405180910390a15050505050565b7f65d7a28e3265b37a6474929f336521b332c1681b933f6cb9f3376673440d862a81565b606760009054906101000a900473ffffffffffffffffffffffffffffffffffffffff1681565b606660009054906101000a900473ffffffffffffffffffffffffffffffffffffffff1681565b606c5481565b606b54431161199957611ac2565b60006068541115611aba576000606760009054906101000a900473ffffffffffffffffffffffffffffffffffffffff1690506000606a548273ffffffffffffffffffffffffffffffffffffffff1663ae7928bf306040518263ffffffff1660e01b8152600401611a099190612696565b60206040518083038186803b158015611a2157600080fd5b505afa158015611a35573d6000803e3d6000fd5b505050506040513d601f19601f82011682018060405250810190611a599190612322565b611a639190612bc5565b905080606a6000828254611a779190612ae4565b92505081905550606854670de0b6b3a764000082611a959190612b6b565b611a9f9190612b3a565b60696000828254611ab09190612ae4565b9250508190555050505b43606b819055505b565b6000606d60008373ffffffffffffffffffffffffffffffffffffffff1673ffffffffffffffffffffffffffffffffffffffff168152602001908152602001600020905060008160010154606954611b1b9190612bc5565b9050670de0b6b3a7640000826000015482611b369190612b6b565b611b409190612b3a565b82600201819055506069548260010181905550505050565b6000606760009054906101000a900473ffffffffffffffffffffffffffffffffffffffff1690506000606d60008473ffffffffffffffffffffffffffffffffffffffff1673ffffffffffffffffffffffffffffffffffffffff1681526020019081526020016000206002015490506000811115611cbe576000606d60008573ffffffffffffffffffffffffffffffffffffffff1673ffffffffffffffffffffffffffffffffffffffff168152602001908152602001600020600201819055508173ffffffffffffffffffffffffffffffffffffffff1663158a498884836040518363ffffffff1660e01b8152600401611c52929190612711565b600060405180830381600087803b158015611c6c57600080fd5b505af1158015611c80573d6000803e3d6000fd5b505050507fc083a1647e3ee591bf42b82564ffb4d16fdbb26068f0080da911c8d8300fd84a8382604051611cb5929190612711565b60405180910390a15b505050565b606060006002836002611cd69190612b6b565b611ce09190612ae4565b67ffffffffffffffff811115611d1f577f4e487b7100000000000000000000000000000000000000000000000000000000600052604160045260246000fd5b6040519080825280601f01601f191660200182016040528015611d515781602001600182028036833780820191505090505b5090507f300000000000000000000000000000000000000000000000000000000000000081600081518110611daf577f4e487b7100000000000000000000000000000000000000000000000000000000600052603260045260246000fd5b60200101907effffffffffffffffffffffffffffffffffffffffffffffffffffffffffffff1916908160001a9053507f780000000000000000000000000000000000000000000000000000000000000081600181518110611e39577f4e487b7100000000000000000000000000000000000000000000000000000000600052603260045260246000fd5b60200101907effffffffffffffffffffffffffffffffffffffffffffffffffffffffffffff1916908160001a90535060006001846002611e799190612b6b565b611e839190612ae4565b90505b6001811115611f6f577f3031323334353637383961626364656600000000000000000000000000000000600f861660108110611eeb577f4e487b7100000000000000000000000000000000000000000000000000000000600052603260045260246000fd5b1a60f81b828281518110611f28577f4e487b7100000000000000000000000000000000000000000000000000000000600052603260045260246000fd5b60200101907effffffffffffffffffffffffffffffffffffffffffffffffffffffffffffff1916908160001a905350600485901c945080611f6890612c8d565b9050611e86565b5060008414611fb3576040517f08c379a0000000000000000000000000000000000000000000000000000000008152600401611faa90612880565b60405180910390fd5b8091505092915050565b611fc56112b8565b612004576040517f08c379a0000000000000000000000000000000000000000000000000000000008152600401611ffb906128a0565b60405180910390fd5b6000603360006101000a81548160ff0219169083151502179055507f5db9ee0a495bf2e6ff9c91a7834c1ba4fdd244a5e8aa4e537bd38aeae4b073aa612048612102565b6040516120559190612696565b60405180910390a1565b6120676112b8565b156120a7576040517f08c379a000000000000000000000000000000000000000000000000000000000815260040161209e90612900565b60405180910390fd5b6001603360006101000a81548160ff0219169083151502179055507f62e78cea01bee320cd4e420270b5ea74000d11b0c9f74754ebdbfc544b05a2586120eb612102565b6040516120f89190612696565b60405180910390a1565b600033905090565b600061211d61211884612a65565b612a40565b90508281526020810184848401111561213557600080fd5b612140848285612c4b565b509392505050565b6000813590506121578161311a565b92915050565b60008151905061216c81613131565b92915050565b60008135905061218181613148565b92915050565b600082601f83011261219857600080fd5b81356121a884826020860161210a565b91505092915050565b6000813590506121c08161315f565b92915050565b6000815190506121d58161315f565b92915050565b6000602082840312156121ed57600080fd5b60006121fb84828501612148565b91505092915050565b6000806040838503121561221757600080fd5b600061222585828601612148565b925050602083013567ffffffffffffffff81111561224257600080fd5b61224e85828601612187565b9150509250929050565b6000806040838503121561226b57600080fd5b600061227985828601612148565b925050602061228a858286016121b1565b9150509250929050565b6000602082840312156122a657600080fd5b60006122b48482850161215d565b91505092915050565b600080604083850312156122d057600080fd5b60006122de85828601612172565b92505060206122ef85828601612148565b9150509250929050565b60006020828403121561230b57600080fd5b6000612319848285016121b1565b91505092915050565b60006020828403121561233457600080fd5b6000612342848285016121c6565b91505092915050565b61235481612bf9565b82525050565b61236381612c0b565b82525050565b61237281612c17565b82525050565b600061238382612a96565b61238d8185612aac565b935061239d818560208601612c5a565b6123a681612d75565b840191505092915050565b60006123bc82612a96565b6123c68185612abd565b93506123d6818560208601612c5a565b80840191505092915050565b60006123ed82612aa1565b6123f78185612ac8565b9350612407818560208601612c5a565b61241081612d75565b840191505092915050565b600061242682612aa1565b6124308185612ad9565b9350612440818560208601612c5a565b80840191505092915050565b6000612459602983612ac8565b915061246482612d86565b604082019050919050565b600061247c602083612ac8565b915061248782612dd5565b602082019050919050565b600061249f602483612ad9565b91506124aa82612dfe565b602482019050919050565b60006124c2601483612ac8565b91506124cd82612e4d565b602082019050919050565b60006124e5603483612ac8565b91506124f082612e76565b604082019050919050565b6000612508602883612ac8565b915061251382612ec5565b604082019050919050565b600061252b601083612ac8565b915061253682612f14565b602082019050919050565b600061254e602983612ac8565b915061255982612f3d565b604082019050919050565b6000612571602083612ac8565b915061257c82612f8c565b602082019050919050565b6000612594602583612ac8565b915061259f82612fb5565b604082019050919050565b60006125b7602183612ac8565b91506125c282613004565b604082019050919050565b60006125da602c83612ac8565b91506125e582613053565b604082019050919050565b60006125fd602983612ac8565b9150612608826130a2565b604082019050919050565b6000612620601183612ad9565b915061262b826130f1565b601182019050919050565b61263f81612c41565b82525050565b600061265182846123b1565b915081905092915050565b600061266782612492565b9150612673828561241b565b915061267e82612613565b915061268a828461241b565b91508190509392505050565b60006020820190506126ab600083018461234b565b92915050565b60006040820190506126c6600083018561234b565b6126d3602083018461234b565b9392505050565b60006060820190506126ef600083018661234b565b6126fc602083018561234b565b6127096040830184612636565b949350505050565b6000604082019050612726600083018561234b565b6127336020830184612636565b9392505050565b600060608201905061274f600083018661234b565b61275c6020830185612636565b818103604083015261276e8184612378565b9050949350505050565b600060808201905061278d600083018761234b565b61279a6020830186612636565b6127a76040830185612636565b6127b46060830184612636565b95945050505050565b60006020820190506127d2600083018461235a565b92915050565b60006020820190506127ed6000830184612369565b92915050565b60006040820190506128086000830185612369565b612815602083018461234b565b9392505050565b600060208201905081810360008301526128368184612378565b905092915050565b6000602082019050818103600083015261285881846123e2565b905092915050565b600060208201905081810360008301526128798161244c565b9050919050565b600060208201905081810360008301526128998161246f565b9050919050565b600060208201905081810360008301526128b9816124b5565b9050919050565b600060208201905081810360008301526128d9816124d8565b9050919050565b600060208201905081810360008301526128f9816124fb565b9050919050565b600060208201905081810360008301526129198161251e565b9050919050565b6000602082019050818103600083015261293981612541565b9050919050565b6000602082019050818103600083015261295981612564565b9050919050565b6000602082019050818103600083015261297981612587565b9050919050565b60006020820190508181036000830152612999816125aa565b9050919050565b600060208201905081810360008301526129b9816125cd565b9050919050565b600060208201905081810360008301526129d9816125f0565b9050919050565b60006020820190506129f56000830184612636565b92915050565b6000608082019050612a106000830187612636565b612a1d6020830186612636565b612a2a6040830185612636565b612a376060830184612636565b95945050505050565b6000612a4a612a5b565b9050612a568282612cb7565b919050565b6000604051905090565b600067ffffffffffffffff821115612a8057612a7f612d46565b5b612a8982612d75565b9050602081019050919050565b600081519050919050565b600081519050919050565b600082825260208201905092915050565b600081905092915050565b600082825260208201905092915050565b600081905092915050565b6000612aef82612c41565b9150612afa83612c41565b9250827fffffffffffffffffffffffffffffffffffffffffffffffffffffffffffffffff03821115612b2f57612b2e612ce8565b5b828201905092915050565b6000612b4582612c41565b9150612b5083612c41565b925082612b6057612b5f612d17565b5b828204905092915050565b6000612b7682612c41565b9150612b8183612c41565b9250817fffffffffffffffffffffffffffffffffffffffffffffffffffffffffffffffff0483118215151615612bba57612bb9612ce8565b5b828202905092915050565b6000612bd082612c41565b9150612bdb83612c41565b925082821015612bee57612bed612ce8565b5b828203905092915050565b6000612c0482612c21565b9050919050565b60008115159050919050565b6000819050919050565b600073ffffffffffffffffffffffffffffffffffffffff82169050919050565b6000819050919050565b82818337600083830152505050565b60005b83811015612c78578082015181840152602081019050612c5d565b83811115612c87576000848401525b50505050565b6000612c9882612c41565b91506000821415612cac57612cab612ce8565b5b600182039050919050565b612cc082612d75565b810181811067ffffffffffffffff82111715612cdf57612cde612d46565b5b80604052505050565b7f4e487b7100000000000000000000000000000000000000000000000000000000600052601160045260246000fd5b7f4e487b7100000000000000000000000000000000000000000000000000000000600052601260045260246000fd5b7f4e487b7100000000000000000000000000000000000000000000000000000000600052604160045260246000fd5b6000601f19601f8301169050919050565b7f547574656c6c75734661726d696e673a207769746864726177207472616e736660008201527f6572206661696c65640000000000000000000000000000000000000000000000602082015250565b7f537472696e67733a20686578206c656e67746820696e73756666696369656e74600082015250565b7f416363657373436f6e74726f6c50726f78795061757361626c653a206163636f60008201527f756e742000000000000000000000000000000000000000000000000000000000602082015250565b7f5061757361626c653a206e6f7420706175736564000000000000000000000000600082015250565b7f547574656c6c75734661726d696e673a207573657220686173206e6f7420656e60008201527f6f756768207374616b696e672062616c616e6365000000000000000000000000602082015250565b7f547574656c6c75734661726d696e673a206465706f736974207472616e73666560008201527f72206661696c6564000000000000000000000000000000000000000000000000602082015250565b7f5061757361626c653a2070617573656400000000000000000000000000000000600082015250565b7f547574656c6c75734661726d696e673a20616d6f756e7420657863656564732060008201527f616c6c6f77616e63650000000000000000000000000000000000000000000000602082015250565b7f547574656c6c75734661726d696e673a207468657265206973206e6f20676170600082015250565b7f547574656c6c75734661726d696e673a206d6967726174696f6e20686173206660008201527f61696c6564000000000000000000000000000000000000000000000000000000602082015250565b7f547574656c6c75734661726d696e673a206e6f7468696e6720746f20636c616960008201527f6d00000000000000000000000000000000000000000000000000000000000000602082015250565b7f547574656c6c75734661726d696e673a207573657220686173206e6f7420656e60008201527f6f7567682062616c616e63650000000000000000000000000000000000000000602082015250565b7f547574656c6c75734661726d696e673a20616d6f756e74206d7573742062652060008201527f6f766572207a65726f0000000000000000000000000000000000000000000000602082015250565b7f206973206d697373696e6720726f6c6520000000000000000000000000000000600082015250565b61312381612bf9565b811461312e57600080fd5b50565b61313a81612c0b565b811461314557600080fd5b50565b61315181612c17565b811461315c57600080fd5b50565b61316881612c41565b811461317357600080fd5b5056fea2646970667358221220e67ef46bd0494985bc2bff72130880c450e421f18e7bfa225885e88266244e7d64736f6c63430008020033",
  "linkReferences": {},
  "deployedLinkReferences": {}
}