{
  "_format": "hh-sol-artifact-1",
  "contractName": "TutellusFarming",
  "sourceName": "contracts/TutellusFarming.sol",
  "abi": [
    {
      "inputs": [
        {
          "internalType": "address",
          "name": "token_",
          "type": "address"
        },
        {
          "internalType": "address",
          "name": "rolemanager_",
          "type": "address"
        },
        {
          "internalType": "address",
          "name": "vault_",
          "type": "address"
        }
      ],
      "stateMutability": "nonpayable",
      "type": "constructor"
    },
    {
      "anonymous": false,
      "inputs": [
        {
          "indexed": false,
          "internalType": "address",
          "name": "account",
          "type": "address"
        }
      ],
      "name": "Claim",
      "type": "event"
    },
    {
      "anonymous": false,
      "inputs": [
        {
          "indexed": false,
          "internalType": "address",
          "name": "account",
          "type": "address"
        },
        {
          "indexed": false,
          "internalType": "uint256",
          "name": "amount",
          "type": "uint256"
        }
      ],
      "name": "Deposit",
      "type": "event"
    },
    {
      "anonymous": false,
      "inputs": [
        {
          "indexed": false,
          "internalType": "address",
          "name": "from",
          "type": "address"
        },
        {
          "indexed": false,
          "internalType": "address",
          "name": "to",
          "type": "address"
        },
        {
          "indexed": false,
          "internalType": "address",
          "name": "account",
          "type": "address"
        },
        {
          "indexed": false,
          "internalType": "uint256",
          "name": "amount",
          "type": "uint256"
        },
        {
          "indexed": false,
          "internalType": "bytes",
          "name": "response",
          "type": "bytes"
        }
      ],
      "name": "Migrate",
      "type": "event"
    },
    {
      "anonymous": false,
      "inputs": [
        {
          "indexed": false,
          "internalType": "address",
          "name": "account",
          "type": "address"
        }
      ],
      "name": "Paused",
      "type": "event"
    },
    {
      "anonymous": false,
      "inputs": [
        {
          "indexed": false,
          "internalType": "address",
          "name": "account",
          "type": "address"
        },
        {
          "indexed": false,
          "internalType": "uint256",
          "name": "amount",
          "type": "uint256"
        }
      ],
      "name": "Rewards",
      "type": "event"
    },
    {
      "anonymous": false,
      "inputs": [
        {
          "indexed": false,
          "internalType": "address",
          "name": "account",
          "type": "address"
        },
        {
          "indexed": false,
          "internalType": "uint256",
          "name": "amount",
          "type": "uint256"
        }
      ],
      "name": "SyncBalance",
      "type": "event"
    },
    {
      "anonymous": false,
      "inputs": [
        {
          "indexed": false,
          "internalType": "bool",
          "name": "autoreward",
          "type": "bool"
        }
      ],
      "name": "ToggleAutoreward",
      "type": "event"
    },
    {
      "anonymous": false,
      "inputs": [
        {
          "indexed": false,
          "internalType": "address",
          "name": "account",
          "type": "address"
        }
      ],
      "name": "Unpaused",
      "type": "event"
    },
    {
      "anonymous": false,
      "inputs": [
        {
          "indexed": false,
          "internalType": "uint256",
          "name": "balance",
          "type": "uint256"
        },
        {
          "indexed": false,
          "internalType": "uint256",
          "name": "accRewardsPerShare",
          "type": "uint256"
        },
        {
          "indexed": false,
          "internalType": "uint256",
          "name": "lastUpdate",
          "type": "uint256"
        },
        {
          "indexed": false,
          "internalType": "uint256",
          "name": "stakers",
          "type": "uint256"
        }
      ],
      "name": "Update",
      "type": "event"
    },
    {
      "anonymous": false,
      "inputs": [
        {
          "indexed": false,
          "internalType": "address",
          "name": "account",
          "type": "address"
        },
        {
          "indexed": false,
          "internalType": "uint256",
          "name": "amount",
          "type": "uint256"
        },
        {
          "indexed": false,
          "internalType": "uint256",
          "name": "rewardDebt",
          "type": "uint256"
        },
        {
          "indexed": false,
          "internalType": "uint256",
          "name": "notClaimed",
          "type": "uint256"
        }
      ],
      "name": "UpdateUserInfo",
      "type": "event"
    },
    {
      "anonymous": false,
      "inputs": [
        {
          "indexed": false,
          "internalType": "address",
          "name": "account",
          "type": "address"
        },
        {
          "indexed": false,
          "internalType": "uint256",
          "name": "amount",
          "type": "uint256"
        }
      ],
      "name": "Withdraw",
      "type": "event"
    },
    {
      "inputs": [],
      "name": "DEFAULT_ADMIN_ROLE",
      "outputs": [
        {
          "internalType": "bytes32",
          "name": "",
          "type": "bytes32"
        }
      ],
      "stateMutability": "view",
      "type": "function"
    },
    {
      "inputs": [],
      "name": "PAUSER_ROLE",
      "outputs": [
        {
          "internalType": "bytes32",
          "name": "",
          "type": "bytes32"
        }
      ],
      "stateMutability": "view",
      "type": "function"
    },
    {
      "inputs": [],
      "name": "accRewardsPerShare",
      "outputs": [
        {
          "internalType": "uint256",
          "name": "",
          "type": "uint256"
        }
      ],
      "stateMutability": "view",
      "type": "function"
    },
    {
      "inputs": [],
      "name": "autoreward",
      "outputs": [
        {
          "internalType": "bool",
          "name": "",
          "type": "bool"
        }
      ],
      "stateMutability": "view",
      "type": "function"
    },
    {
      "inputs": [],
      "name": "balance",
      "outputs": [
        {
          "internalType": "uint256",
          "name": "",
          "type": "uint256"
        }
      ],
      "stateMutability": "view",
      "type": "function"
    },
    {
      "inputs": [],
      "name": "claim",
      "outputs": [],
      "stateMutability": "nonpayable",
      "type": "function"
    },
    {
      "inputs": [
        {
          "internalType": "address",
          "name": "account",
          "type": "address"
        },
        {
          "internalType": "uint256",
          "name": "amount",
          "type": "uint256"
        }
      ],
      "name": "depositFrom",
      "outputs": [],
      "stateMutability": "nonpayable",
      "type": "function"
    },
    {
      "inputs": [],
      "name": "getTokenGap",
      "outputs": [
        {
          "internalType": "uint256",
          "name": "",
          "type": "uint256"
        }
      ],
      "stateMutability": "view",
      "type": "function"
    },
    {
      "inputs": [
        {
          "internalType": "address",
          "name": "user_",
          "type": "address"
        }
      ],
      "name": "getUserBalance",
      "outputs": [
        {
          "internalType": "uint256",
          "name": "",
          "type": "uint256"
        }
      ],
      "stateMutability": "view",
      "type": "function"
    },
    {
      "inputs": [
        {
          "internalType": "bytes32",
          "name": "role",
          "type": "bytes32"
        },
        {
          "internalType": "address",
          "name": "account",
          "type": "address"
        }
      ],
      "name": "hasRole",
      "outputs": [
        {
          "internalType": "bool",
          "name": "",
          "type": "bool"
        }
      ],
      "stateMutability": "view",
      "type": "function"
    },
    {
      "inputs": [],
      "name": "lastUpdate",
      "outputs": [
        {
          "internalType": "uint256",
          "name": "",
          "type": "uint256"
        }
      ],
      "stateMutability": "view",
      "type": "function"
    },
    {
      "inputs": [
        {
          "internalType": "address",
          "name": "to",
          "type": "address"
        }
      ],
      "name": "migrate",
      "outputs": [
        {
          "internalType": "bytes",
          "name": "",
          "type": "bytes"
        }
      ],
      "stateMutability": "nonpayable",
      "type": "function"
    },
    {
      "inputs": [],
      "name": "pause",
      "outputs": [],
      "stateMutability": "nonpayable",
      "type": "function"
    },
    {
      "inputs": [],
      "name": "paused",
      "outputs": [
        {
          "internalType": "bool",
          "name": "",
          "type": "bool"
        }
      ],
      "stateMutability": "view",
      "type": "function"
    },
    {
      "inputs": [
        {
          "internalType": "address",
          "name": "user_",
          "type": "address"
        }
      ],
      "name": "pendingRewards",
      "outputs": [
        {
          "internalType": "uint256",
          "name": "",
          "type": "uint256"
        }
      ],
      "stateMutability": "view",
      "type": "function"
    },
    {
      "inputs": [],
      "name": "stakers",
      "outputs": [
        {
          "internalType": "uint256",
          "name": "",
          "type": "uint256"
        }
      ],
      "stateMutability": "view",
      "type": "function"
    },
    {
      "inputs": [
        {
          "internalType": "address",
          "name": "account",
          "type": "address"
        }
      ],
      "name": "syncBalance",
      "outputs": [],
      "stateMutability": "nonpayable",
      "type": "function"
    },
    {
      "inputs": [],
      "name": "toggleAutoreward",
      "outputs": [],
      "stateMutability": "nonpayable",
      "type": "function"
    },
    {
      "inputs": [],
      "name": "token",
      "outputs": [
        {
          "internalType": "address",
          "name": "",
          "type": "address"
        }
      ],
      "stateMutability": "view",
      "type": "function"
    },
    {
      "inputs": [],
      "name": "unpause",
      "outputs": [],
      "stateMutability": "nonpayable",
      "type": "function"
    },
    {
      "inputs": [
        {
          "internalType": "address",
          "name": "manager",
          "type": "address"
        }
      ],
      "name": "updateManager",
      "outputs": [],
      "stateMutability": "nonpayable",
      "type": "function"
    },
    {
      "inputs": [],
      "name": "vault",
      "outputs": [
        {
          "internalType": "address",
          "name": "",
          "type": "address"
        }
      ],
      "stateMutability": "view",
      "type": "function"
    },
    {
      "inputs": [
        {
          "internalType": "uint256",
          "name": "amount",
          "type": "uint256"
        }
      ],
      "name": "withdraw",
      "outputs": [
        {
          "internalType": "uint256",
          "name": "",
          "type": "uint256"
        }
      ],
      "stateMutability": "nonpayable",
      "type": "function"
    }
  ],
  "bytecode": "0x60806040523480156200001157600080fd5b50604051620039e8380380620039e88339818101604052810190620000379190620007ee565b6200004a8383836200005360201b60201c565b5050506200093b565b600060019054906101000a900460ff16806200007a575060008054906101000a900460ff16155b620000bc576040517f08c379a0000000000000000000000000000000000000000000000000000000008152600401620000b3906200086b565b60405180910390fd5b60008060019054906101000a900460ff1615905080156200010d576001600060016101000a81548160ff02191690831515021790555060016000806101000a81548160ff0219169083151502179055505b6200011e836200015860201b60201c565b6200013084836200025960201b60201c565b8015620001525760008060016101000a81548160ff0219169083151502179055505b50505050565b600060019054906101000a900460ff16806200017f575060008054906101000a900460ff16155b620001c1576040517f08c379a0000000000000000000000000000000000000000000000000000000008152600401620001b8906200086b565b60405180910390fd5b60008060019054906101000a900460ff16159050801562000212576001600060016101000a81548160ff02191690831515021790555060016000806101000a81548160ff0219169083151502179055505b62000222620003de60201b60201c565b6200023382620004dd60201b60201c565b8015620002555760008060016101000a81548160ff0219169083151502179055505b5050565b600060019054906101000a900460ff168062000280575060008054906101000a900460ff16155b620002c2576040517f08c379a0000000000000000000000000000000000000000000000000000000008152600401620002b9906200086b565b60405180910390fd5b60008060019054906101000a900460ff16159050801562000313576001600060016101000a81548160ff02191690831515021790555060016000806101000a81548160ff0219169083151502179055505b82606660006101000a81548173ffffffffffffffffffffffffffffffffffffffff021916908373ffffffffffffffffffffffffffffffffffffffff16021790555081606760006101000a81548173ffffffffffffffffffffffffffffffffffffffff021916908373ffffffffffffffffffffffffffffffffffffffff1602179055506001606760146101000a81548160ff02191690831515021790555043606b819055508015620003d95760008060016101000a81548160ff0219169083151502179055505b505050565b600060019054906101000a900460ff168062000405575060008054906101000a900460ff16155b62000447576040517f08c379a00000000000000000000000000000000000000000000000000000000081526004016200043e906200086b565b60405180910390fd5b60008060019054906101000a900460ff16159050801562000498576001600060016101000a81548160ff02191690831515021790555060016000806101000a81548160ff0219169083151502179055505b620004a8620005fe60201b60201c565b620004b8620006dd60201b60201c565b8015620004da5760008060016101000a81548160ff0219169083151502179055505b50565b600060019054906101000a900460ff168062000504575060008054906101000a900460ff16155b62000546576040517f08c379a00000000000000000000000000000000000000000000000000000000081526004016200053d906200086b565b60405180910390fd5b60008060019054906101000a900460ff16159050801562000597576001600060016101000a81548160ff02191690831515021790555060016000806101000a81548160ff0219169083151502179055505b81606560006101000a81548173ffffffffffffffffffffffffffffffffffffffff021916908373ffffffffffffffffffffffffffffffffffffffff1602179055508015620005fa5760008060016101000a81548160ff0219169083151502179055505b5050565b600060019054906101000a900460ff168062000625575060008054906101000a900460ff16155b62000667576040517f08c379a00000000000000000000000000000000000000000000000000000000081526004016200065e906200086b565b60405180910390fd5b60008060019054906101000a900460ff161590508015620006b8576001600060016101000a81548160ff02191690831515021790555060016000806101000a81548160ff0219169083151502179055505b8015620006da5760008060016101000a81548160ff0219169083151502179055505b50565b600060019054906101000a900460ff168062000704575060008054906101000a900460ff16155b62000746576040517f08c379a00000000000000000000000000000000000000000000000000000000081526004016200073d906200086b565b60405180910390fd5b60008060019054906101000a900460ff16159050801562000797576001600060016101000a81548160ff02191690831515021790555060016000806101000a81548160ff0219169083151502179055505b6000603360006101000a81548160ff0219169083151502179055508015620007d45760008060016101000a81548160ff0219169083151502179055505b50565b600081519050620007e88162000921565b92915050565b6000806000606084860312156200080457600080fd5b60006200081486828701620007d7565b93505060206200082786828701620007d7565b92505060406200083a86828701620007d7565b9150509250925092565b600062000853602e836200088d565b91506200086082620008d2565b604082019050919050565b60006020820190508181036000830152620008868162000844565b9050919050565b600082825260208201905092915050565b6000620008ab82620008b2565b9050919050565b600073ffffffffffffffffffffffffffffffffffffffff82169050919050565b7f496e697469616c697a61626c653a20636f6e747261637420697320616c72656160008201527f647920696e697469616c697a6564000000000000000000000000000000000000602082015250565b6200092c816200089e565b81146200093857600080fd5b50565b61309d806200094b6000396000f3fe608060405234801561001057600080fd5b506004361061014d5760003560e01c80637cbaccd5116100c3578063ce5494bb1161007c578063ce5494bb14610344578063e0adaca214610374578063e63ab1e914610390578063fbfa77cf146103ae578063fc0c546a146103cc578063fed1252a146103ea5761014d565b80637cbaccd5146102925780638456cb59146102b057806391d14854146102ba578063a217fddf146102ea578063b69ef8a814610308578063c0463711146103265761014d565b80634e71d92d116101155780634e71d92d146102085780635129338c1461021257806358aba00f146102305780635a3c978b1461024c5780635c975abb1461026a5780636ca569c1146102885761014d565b806315cc36f2146101525780632e1a7d4d1461016e57806331d7a2621461019e5780633f4ba83a146101ce57806347734892146101d8575b600080fd5b61016c600480360381019061016791906121f2565b610408565b005b61018860048036038101906101839190612293565b6108bc565b6040516101959190612996565b60405180910390f35b6101b860048036038101906101b391906121c9565b610c34565b6040516101c59190612996565b60405180910390f35b6101d6610df5565b005b6101f260048036038101906101ed91906121c9565b610ec2565b6040516101ff9190612996565b60405180910390f35b610210610f3c565b005b61021a6110f6565b6040516102279190612996565b60405180910390f35b61024a600480360381019061024591906121c9565b6111d6565b005b6102546112c0565b6040516102619190612773565b60405180910390f35b6102726112d3565b60405161027f9190612773565b60405180910390f35b6102906112ea565b005b61029a611402565b6040516102a79190612996565b60405180910390f35b6102b8611408565b005b6102d460048036038101906102cf9190612257565b6114d5565b6040516102e19190612773565b60405180910390f35b6102f2611591565b6040516102ff919061278e565b60405180910390f35b610310611598565b60405161031d9190612996565b60405180910390f35b61032e61159e565b60405161033b9190612996565b60405180910390f35b61035e600480360381019061035991906121c9565b6115a4565b60405161036b91906127d2565b60405180910390f35b61038e600480360381019061038991906121c9565b611783565b005b61039861196b565b6040516103a5919061278e565b60405180910390f35b6103b661198f565b6040516103c39190612630565b60405180910390f35b6103d46119b5565b6040516103e19190612630565b60405180910390f35b6103f26119db565b6040516103ff9190612996565b60405180910390f35b6104106112d3565b15610450576040517f08c379a0000000000000000000000000000000000000000000000000000000008152600401610447906128b6565b60405180910390fd5b60008111610493576040517f08c379a000000000000000000000000000000000000000000000000000000000815260040161048a90612976565b60405180910390fd5b6000606d60008473ffffffffffffffffffffffffffffffffffffffff1673ffffffffffffffffffffffffffffffffffffffff16815260200190815260200160002090506104de6119e1565b6104e783611b1a565b60008160000154141561050f576001606c60008282546105079190612a44565b925050819055505b818160000160008282546105239190612a44565b92505081905550816068600082825461053c9190612a44565b925050819055506000606660009054906101000a900473ffffffffffffffffffffffffffffffffffffffff169050828173ffffffffffffffffffffffffffffffffffffffff166370a08231866040518263ffffffff1660e01b81526004016105a49190612630565b60206040518083038186803b1580156105bc57600080fd5b505afa1580156105d0573d6000803e3d6000fd5b505050506040513d601f19601f820116820180604052508101906105f491906122bc565b1015610635576040517f08c379a000000000000000000000000000000000000000000000000000000000815260040161062c90612936565b60405180910390fd5b828173ffffffffffffffffffffffffffffffffffffffff1663dd62ed3e86306040518363ffffffff1660e01b815260040161067192919061264b565b60206040518083038186803b15801561068957600080fd5b505afa15801561069d573d6000803e3d6000fd5b505050506040513d601f19601f820116820180604052508101906106c191906122bc565b1015610702576040517f08c379a00000000000000000000000000000000000000000000000000000000081526004016106f9906128d6565b60405180910390fd5b606760149054906101000a900460ff16156107215761072084611bae565b5b8073ffffffffffffffffffffffffffffffffffffffff166323b872dd8530866040518463ffffffff1660e01b815260040161075e939291906126ce565b602060405180830381600087803b15801561077857600080fd5b505af115801561078c573d6000803e3d6000fd5b505050506040513d601f19601f820116820180604052508101906107b0919061222e565b6107ef576040517f08c379a00000000000000000000000000000000000000000000000000000000081526004016107e690612896565b60405180910390fd5b7fce49b138f2621300a7043a61f472ccfd643162bdf3efb11354e22d5273b77a71606854606954606b54606c5460405161082c94939291906129b1565b60405180910390a17f85562ed8ea40250610547d7262031cfe1ce04565357d2efd0fd412d36fb05ebe84836000015484600101548560020154604051610875949392919061272e565b60405180910390a17fe1fffcc4923d04b559f4d29a8bfc6cda04eb5b0d3c460751c2402c5c5cc9109c84846040516108ae929190612705565b60405180910390a150505050565b60006108c66112d3565b15610906576040517f08c379a00000000000000000000000000000000000000000000000000000000081526004016108fd906128b6565b60405180910390fd5b60008211610949576040517f08c379a000000000000000000000000000000000000000000000000000000000815260040161094090612976565b60405180910390fd5b60003390506000606d60008373ffffffffffffffffffffffffffffffffffffffff1673ffffffffffffffffffffffffffffffffffffffff168152602001908152602001600020905080600001548411156109d8576040517f08c379a00000000000000000000000000000000000000000000000000000000081526004016109cf90612876565b60405180910390fd5b6109e06119e1565b6109e982611b1a565b606954816001018190555083816000016000828254610a089190612b25565b925050819055508360686000828254610a219190612b25565b92505081905550600081600001541415610a50576001606c6000828254610a489190612b25565b925050819055505b6000606660009054906101000a900473ffffffffffffffffffffffffffffffffffffffff169050606760149054906101000a900460ff1615610a9657610a9583611bae565b5b8073ffffffffffffffffffffffffffffffffffffffff1663a9059cbb84876040518363ffffffff1660e01b8152600401610ad1929190612705565b602060405180830381600087803b158015610aeb57600080fd5b505af1158015610aff573d6000803e3d6000fd5b505050506040513d601f19601f82011682018060405250810190610b23919061222e565b610b62576040517f08c379a0000000000000000000000000000000000000000000000000000000008152600401610b5990612816565b60405180910390fd5b7fce49b138f2621300a7043a61f472ccfd643162bdf3efb11354e22d5273b77a71606854606954606b54606c54604051610b9f94939291906129b1565b60405180910390a17f85562ed8ea40250610547d7262031cfe1ce04565357d2efd0fd412d36fb05ebe83836000015484600101548560020154604051610be8949392919061272e565b60405180910390a17f884edad9ce6fa2440d8a54cc123490eb96d2768479d49ff9c7366125a94243648386604051610c21929190612705565b60405180910390a1849350505050919050565b600080606d60008473ffffffffffffffffffffffffffffffffffffffff1673ffffffffffffffffffffffffffffffffffffffff1681526020019081526020016000206040518060600160405290816000820154815260200160018201548152602001600282015481525050905060008160400151905060006068541115610deb576000606760009054906101000a900473ffffffffffffffffffffffffffffffffffffffff1690506000606a548273ffffffffffffffffffffffffffffffffffffffff1663ae7928bf306040518263ffffffff1660e01b8152600401610d1a9190612630565b60206040518083038186803b158015610d3257600080fd5b505afa158015610d46573d6000803e3d6000fd5b505050506040513d601f19601f82011682018060405250810190610d6a91906122bc565b610d749190612b25565b90506000606854670de0b6b3a764000083610d8f9190612acb565b610d999190612a9a565b9050670de0b6b3a76400008560000151828760200151606954610dbc9190612b25565b610dc69190612a44565b610dd09190612acb565b610dda9190612a9a565b84610de59190612a44565b93505050505b8092505050919050565b7f65d7a28e3265b37a6474929f336521b332c1681b933f6cb9f3376673440d862a6000339050610e2582826114d5565b610e468273ffffffffffffffffffffffffffffffffffffffff166014611d19565b610e548460001c6020611d19565b604051602001610e659291906125f6565b60405160208183030381529060405290610eb5576040517f08c379a0000000000000000000000000000000000000000000000000000000008152600401610eac91906127f4565b60405180910390fd5b50610ebe612013565b5050565b600080606d60008473ffffffffffffffffffffffffffffffffffffffff1673ffffffffffffffffffffffffffffffffffffffff168152602001908152602001600020604051806060016040529081600082015481526020016001820154815260200160028201548152505090508060000151915050919050565b610f446112d3565b15610f84576040517f08c379a0000000000000000000000000000000000000000000000000000000008152600401610f7b906128b6565b60405180910390fd5b60003390506000606d60008373ffffffffffffffffffffffffffffffffffffffff1673ffffffffffffffffffffffffffffffffffffffff1681526020019081526020016000209050610fd46119e1565b610fdd82611b1a565b6000816002015411611024576040517f08c379a000000000000000000000000000000000000000000000000000000000815260040161101b90612916565b60405180910390fd5b61102d82611bae565b7fce49b138f2621300a7043a61f472ccfd643162bdf3efb11354e22d5273b77a71606854606954606b54606c5460405161106a94939291906129b1565b60405180910390a17f85562ed8ea40250610547d7262031cfe1ce04565357d2efd0fd412d36fb05ebe828260000154836001015484600201546040516110b3949392919061272e565b60405180910390a17f0c7ef932d3b91976772937f18d5ef9b39a9930bef486b576c374f047c4b512dc826040516110ea9190612630565b60405180910390a15050565b600080606660009054906101000a900473ffffffffffffffffffffffffffffffffffffffff16905060008173ffffffffffffffffffffffffffffffffffffffff166370a08231306040518263ffffffff1660e01b81526004016111599190612630565b60206040518083038186803b15801561117157600080fd5b505afa158015611185573d6000803e3d6000fd5b505050506040513d601f19601f820116820180604052508101906111a991906122bc565b90506068548111156111cc57606854816111c39190612b25565b925050506111d3565b6000925050505b90565b6000801b60003390506111e982826114d5565b61120a8273ffffffffffffffffffffffffffffffffffffffff166014611d19565b6112188460001c6020611d19565b6040516020016112299291906125f6565b60405160208183030381529060405290611279576040517f08c379a000000000000000000000000000000000000000000000000000000000815260040161127091906127f4565b60405180910390fd5b5082606560006101000a81548173ffffffffffffffffffffffffffffffffffffffff021916908373ffffffffffffffffffffffffffffffffffffffff160217905550505050565b606760149054906101000a900460ff1681565b6000603360009054906101000a900460ff16905090565b6000801b60003390506112fd82826114d5565b61131e8273ffffffffffffffffffffffffffffffffffffffff166014611d19565b61132c8460001c6020611d19565b60405160200161133d9291906125f6565b6040516020818303038152906040529061138d576040517f08c379a000000000000000000000000000000000000000000000000000000000815260040161138491906127f4565b60405180910390fd5b50606760149054906101000a900460ff1615606760146101000a81548160ff0219169083151502179055507fbab7db190deaf2eccaf17b4e82ea10dce1e26f8a605ec9681ca8183b2de399fe606760149054906101000a900460ff166040516113f69190612773565b60405180910390a15050565b60695481565b7f65d7a28e3265b37a6474929f336521b332c1681b933f6cb9f3376673440d862a600033905061143882826114d5565b6114598273ffffffffffffffffffffffffffffffffffffffff166014611d19565b6114678460001c6020611d19565b6040516020016114789291906125f6565b604051602081830303815290604052906114c8576040517f08c379a00000000000000000000000000000000000000000000000000000000081526004016114bf91906127f4565b60405180910390fd5b506114d16120b5565b5050565b600080606560009054906101000a900473ffffffffffffffffffffffffffffffffffffffff1690508073ffffffffffffffffffffffffffffffffffffffff166391d1485485856040518363ffffffff1660e01b81526004016115389291906127a9565b60206040518083038186803b15801561155057600080fd5b505afa158015611564573d6000803e3d6000fd5b505050506040513d601f19601f82011682018060405250810190611588919061222e565b91505092915050565b6000801b81565b60685481565b606b5481565b6060600033905060006115f8606d60008473ffffffffffffffffffffffffffffffffffffffff1673ffffffffffffffffffffffffffffffffffffffff168152602001908152602001600020600001546108bc565b90506000808573ffffffffffffffffffffffffffffffffffffffff168484604051602401611627929190612705565b6040516020818303038152906040527f15cc36f2000000000000000000000000000000000000000000000000000000007bffffffffffffffffffffffffffffffffffffffffffffffffffffffff19166020820180517bffffffffffffffffffffffffffffffffffffffffffffffffffffffff83818316178352505050506040516116b191906125df565b6000604051808303816000865af19150503d80600081146116ee576040519150601f19603f3d011682016040523d82523d6000602084013e6116f3565b606091505b509150915081611738576040517f08c379a000000000000000000000000000000000000000000000000000000000815260040161172f90612956565b60405180910390fd5b7f6e05dc9f1838831eddd36138c9d51903718a470d488ca366c8469614074a97bd308786868560405161176f959493929190612674565b60405180910390a180945050505050919050565b6000801b600033905061179682826114d5565b6117b78273ffffffffffffffffffffffffffffffffffffffff166014611d19565b6117c58460001c6020611d19565b6040516020016117d69291906125f6565b60405160208183030381529060405290611826576040517f08c379a000000000000000000000000000000000000000000000000000000000815260040161181d91906127f4565b60405180910390fd5b506000606660009054906101000a900473ffffffffffffffffffffffffffffffffffffffff16905060006118586110f6565b90506000811161189d576040517f08c379a0000000000000000000000000000000000000000000000000000000008152600401611894906128f6565b60405180910390fd5b8173ffffffffffffffffffffffffffffffffffffffff1663a9059cbb86836040518363ffffffff1660e01b81526004016118d8929190612705565b602060405180830381600087803b1580156118f257600080fd5b505af1158015611906573d6000803e3d6000fd5b505050506040513d601f19601f8201168201806040525081019061192a919061222e565b507fd43c97094d4b3522923f3751f896fb88ef95d5e1d310aea58b936625fd7c5d0c858260405161195c929190612705565b60405180910390a15050505050565b7f65d7a28e3265b37a6474929f336521b332c1681b933f6cb9f3376673440d862a81565b606760009054906101000a900473ffffffffffffffffffffffffffffffffffffffff1681565b606660009054906101000a900473ffffffffffffffffffffffffffffffffffffffff1681565b606c5481565b606b5443116119ef57611b18565b6000606760009054906101000a900473ffffffffffffffffffffffffffffffffffffffff1690506000606a548273ffffffffffffffffffffffffffffffffffffffff1663ae7928bf306040518263ffffffff1660e01b8152600401611a549190612630565b60206040518083038186803b158015611a6c57600080fd5b505afa158015611a80573d6000803e3d6000fd5b505050506040513d601f19601f82011682018060405250810190611aa491906122bc565b611aae9190612b25565b905080606a6000828254611ac29190612a44565b9250508190555060006068541115611b0e57606854670de0b6b3a764000082611aeb9190612acb565b611af59190612a9a565b60696000828254611b069190612a44565b925050819055505b43606b8190555050505b565b6000606d60008373ffffffffffffffffffffffffffffffffffffffff1673ffffffffffffffffffffffffffffffffffffffff168152602001908152602001600020905060008160010154606954611b719190612b25565b9050670de0b6b3a7640000826000015482611b8c9190612acb565b611b969190612a9a565b82600201819055506069548260010181905550505050565b6000606760009054906101000a900473ffffffffffffffffffffffffffffffffffffffff1690506000606d60008473ffffffffffffffffffffffffffffffffffffffff1673ffffffffffffffffffffffffffffffffffffffff1681526020019081526020016000206002015490506000811115611d14576000606d60008573ffffffffffffffffffffffffffffffffffffffff1673ffffffffffffffffffffffffffffffffffffffff168152602001908152602001600020600201819055508173ffffffffffffffffffffffffffffffffffffffff1663158a498884836040518363ffffffff1660e01b8152600401611ca8929190612705565b600060405180830381600087803b158015611cc257600080fd5b505af1158015611cd6573d6000803e3d6000fd5b505050507fc083a1647e3ee591bf42b82564ffb4d16fdbb26068f0080da911c8d8300fd84a8382604051611d0b929190612705565b60405180910390a15b505050565b606060006002836002611d2c9190612acb565b611d369190612a44565b67ffffffffffffffff811115611d75577f4e487b7100000000000000000000000000000000000000000000000000000000600052604160045260246000fd5b6040519080825280601f01601f191660200182016040528015611da75781602001600182028036833780820191505090505b5090507f300000000000000000000000000000000000000000000000000000000000000081600081518110611e05577f4e487b7100000000000000000000000000000000000000000000000000000000600052603260045260246000fd5b60200101907effffffffffffffffffffffffffffffffffffffffffffffffffffffffffffff1916908160001a9053507f780000000000000000000000000000000000000000000000000000000000000081600181518110611e8f577f4e487b7100000000000000000000000000000000000000000000000000000000600052603260045260246000fd5b60200101907effffffffffffffffffffffffffffffffffffffffffffffffffffffffffffff1916908160001a90535060006001846002611ecf9190612acb565b611ed99190612a44565b90505b6001811115611fc5577f3031323334353637383961626364656600000000000000000000000000000000600f861660108110611f41577f4e487b7100000000000000000000000000000000000000000000000000000000600052603260045260246000fd5b1a60f81b828281518110611f7e577f4e487b7100000000000000000000000000000000000000000000000000000000600052603260045260246000fd5b60200101907effffffffffffffffffffffffffffffffffffffffffffffffffffffffffffff1916908160001a905350600485901c945080611fbe90612bde565b9050611edc565b5060008414612009576040517f08c379a000000000000000000000000000000000000000000000000000000000815260040161200090612836565b60405180910390fd5b8091505092915050565b61201b6112d3565b61205a576040517f08c379a000000000000000000000000000000000000000000000000000000000815260040161205190612856565b60405180910390fd5b6000603360006101000a81548160ff0219169083151502179055507f5db9ee0a495bf2e6ff9c91a7834c1ba4fdd244a5e8aa4e537bd38aeae4b073aa61209e612158565b6040516120ab9190612630565b60405180910390a1565b6120bd6112d3565b156120fd576040517f08c379a00000000000000000000000000000000000000000000000000000000081526004016120f4906128b6565b60405180910390fd5b6001603360006101000a81548160ff0219169083151502179055507f62e78cea01bee320cd4e420270b5ea74000d11b0c9f74754ebdbfc544b05a258612141612158565b60405161214e9190612630565b60405180910390a1565b600033905090565b60008135905061216f8161300b565b92915050565b60008151905061218481613022565b92915050565b60008135905061219981613039565b92915050565b6000813590506121ae81613050565b92915050565b6000815190506121c381613050565b92915050565b6000602082840312156121db57600080fd5b60006121e984828501612160565b91505092915050565b6000806040838503121561220557600080fd5b600061221385828601612160565b92505060206122248582860161219f565b9150509250929050565b60006020828403121561224057600080fd5b600061224e84828501612175565b91505092915050565b6000806040838503121561226a57600080fd5b60006122788582860161218a565b925050602061228985828601612160565b9150509250929050565b6000602082840312156122a557600080fd5b60006122b38482850161219f565b91505092915050565b6000602082840312156122ce57600080fd5b60006122dc848285016121b4565b91505092915050565b6122ee81612b59565b82525050565b6122fd81612b6b565b82525050565b61230c81612b77565b82525050565b600061231d826129f6565b6123278185612a0c565b9350612337818560208601612bab565b61234081612c66565b840191505092915050565b6000612356826129f6565b6123608185612a1d565b9350612370818560208601612bab565b80840191505092915050565b600061238782612a01565b6123918185612a28565b93506123a1818560208601612bab565b6123aa81612c66565b840191505092915050565b60006123c082612a01565b6123ca8185612a39565b93506123da818560208601612bab565b80840191505092915050565b60006123f3602983612a28565b91506123fe82612c77565b604082019050919050565b6000612416602083612a28565b915061242182612cc6565b602082019050919050565b6000612439602483612a39565b915061244482612cef565b602482019050919050565b600061245c601483612a28565b915061246782612d3e565b602082019050919050565b600061247f603483612a28565b915061248a82612d67565b604082019050919050565b60006124a2602883612a28565b91506124ad82612db6565b604082019050919050565b60006124c5601083612a28565b91506124d082612e05565b602082019050919050565b60006124e8602983612a28565b91506124f382612e2e565b604082019050919050565b600061250b602083612a28565b915061251682612e7d565b602082019050919050565b600061252e602183612a28565b915061253982612ea6565b604082019050919050565b6000612551602c83612a28565b915061255c82612ef5565b604082019050919050565b6000612574602183612a28565b915061257f82612f44565b604082019050919050565b6000612597602983612a28565b91506125a282612f93565b604082019050919050565b60006125ba601183612a39565b91506125c582612fe2565b601182019050919050565b6125d981612ba1565b82525050565b60006125eb828461234b565b915081905092915050565b60006126018261242c565b915061260d82856123b5565b9150612618826125ad565b915061262482846123b5565b91508190509392505050565b600060208201905061264560008301846122e5565b92915050565b600060408201905061266060008301856122e5565b61266d60208301846122e5565b9392505050565b600060a08201905061268960008301886122e5565b61269660208301876122e5565b6126a360408301866122e5565b6126b060608301856125d0565b81810360808301526126c28184612312565b90509695505050505050565b60006060820190506126e360008301866122e5565b6126f060208301856122e5565b6126fd60408301846125d0565b949350505050565b600060408201905061271a60008301856122e5565b61272760208301846125d0565b9392505050565b600060808201905061274360008301876122e5565b61275060208301866125d0565b61275d60408301856125d0565b61276a60608301846125d0565b95945050505050565b600060208201905061278860008301846122f4565b92915050565b60006020820190506127a36000830184612303565b92915050565b60006040820190506127be6000830185612303565b6127cb60208301846122e5565b9392505050565b600060208201905081810360008301526127ec8184612312565b905092915050565b6000602082019050818103600083015261280e818461237c565b905092915050565b6000602082019050818103600083015261282f816123e6565b9050919050565b6000602082019050818103600083015261284f81612409565b9050919050565b6000602082019050818103600083015261286f8161244f565b9050919050565b6000602082019050818103600083015261288f81612472565b9050919050565b600060208201905081810360008301526128af81612495565b9050919050565b600060208201905081810360008301526128cf816124b8565b9050919050565b600060208201905081810360008301526128ef816124db565b9050919050565b6000602082019050818103600083015261290f816124fe565b9050919050565b6000602082019050818103600083015261292f81612521565b9050919050565b6000602082019050818103600083015261294f81612544565b9050919050565b6000602082019050818103600083015261296f81612567565b9050919050565b6000602082019050818103600083015261298f8161258a565b9050919050565b60006020820190506129ab60008301846125d0565b92915050565b60006080820190506129c660008301876125d0565b6129d360208301866125d0565b6129e060408301856125d0565b6129ed60608301846125d0565b95945050505050565b600081519050919050565b600081519050919050565b600082825260208201905092915050565b600081905092915050565b600082825260208201905092915050565b600081905092915050565b6000612a4f82612ba1565b9150612a5a83612ba1565b9250827fffffffffffffffffffffffffffffffffffffffffffffffffffffffffffffffff03821115612a8f57612a8e612c08565b5b828201905092915050565b6000612aa582612ba1565b9150612ab083612ba1565b925082612ac057612abf612c37565b5b828204905092915050565b6000612ad682612ba1565b9150612ae183612ba1565b9250817fffffffffffffffffffffffffffffffffffffffffffffffffffffffffffffffff0483118215151615612b1a57612b19612c08565b5b828202905092915050565b6000612b3082612ba1565b9150612b3b83612ba1565b925082821015612b4e57612b4d612c08565b5b828203905092915050565b6000612b6482612b81565b9050919050565b60008115159050919050565b6000819050919050565b600073ffffffffffffffffffffffffffffffffffffffff82169050919050565b6000819050919050565b60005b83811015612bc9578082015181840152602081019050612bae565b83811115612bd8576000848401525b50505050565b6000612be982612ba1565b91506000821415612bfd57612bfc612c08565b5b600182039050919050565b7f4e487b7100000000000000000000000000000000000000000000000000000000600052601160045260246000fd5b7f4e487b7100000000000000000000000000000000000000000000000000000000600052601260045260246000fd5b6000601f19601f8301169050919050565b7f547574656c6c75734661726d696e673a207769746864726177207472616e736660008201527f6572206661696c65640000000000000000000000000000000000000000000000602082015250565b7f537472696e67733a20686578206c656e67746820696e73756666696369656e74600082015250565b7f416363657373436f6e74726f6c50726f78795061757361626c653a206163636f60008201527f756e742000000000000000000000000000000000000000000000000000000000602082015250565b7f5061757361626c653a206e6f7420706175736564000000000000000000000000600082015250565b7f547574656c6c75734661726d696e673a207573657220686173206e6f7420656e60008201527f6f756768207374616b696e672062616c616e6365000000000000000000000000602082015250565b7f547574656c6c75734661726d696e673a206465706f736974207472616e73666560008201527f72206661696c6564000000000000000000000000000000000000000000000000602082015250565b7f5061757361626c653a2070617573656400000000000000000000000000000000600082015250565b7f547574656c6c75734661726d696e673a20616d6f756e7420657863656564732060008201527f616c6c6f77616e63650000000000000000000000000000000000000000000000602082015250565b7f547574656c6c75734661726d696e673a207468657265206973206e6f20676170600082015250565b7f547574656c6c75734661726d696e673a206e6f7468696e6720746f20636c616960008201527f6d00000000000000000000000000000000000000000000000000000000000000602082015250565b7f547574656c6c75734661726d696e673a207573657220686173206e6f7420656e60008201527f6f7567682062616c616e63650000000000000000000000000000000000000000602082015250565b7f547574656c6c75735374616b696e673a206d6967726174696f6e206661696c6560008201527f6400000000000000000000000000000000000000000000000000000000000000602082015250565b7f547574656c6c75734661726d696e673a20616d6f756e74206d7573742062652060008201527f6f766572207a65726f0000000000000000000000000000000000000000000000602082015250565b7f206973206d697373696e6720726f6c6520000000000000000000000000000000600082015250565b61301481612b59565b811461301f57600080fd5b50565b61302b81612b6b565b811461303657600080fd5b50565b61304281612b77565b811461304d57600080fd5b50565b61305981612ba1565b811461306457600080fd5b5056fea2646970667358221220702b0bc35143e4acabb81db639feb2f9a3f5415b80dbc425823b24bc1e25f8c564736f6c63430008020033",
  "linkReferences": {},
  "deployedLinkReferences": {}
}