{
  "_format": "hh-sol-artifact-1",
  "contractName": "TutellusFarming",
  "sourceName": "contracts/TutellusFarming.sol",
  "abi": [
    {
      "inputs": [
        {
          "internalType": "address",
          "name": "rolemanager",
          "type": "address"
        },
        {
          "internalType": "address",
          "name": "token_",
          "type": "address"
        },
        {
          "internalType": "address",
          "name": "vault_",
          "type": "address"
        }
      ],
      "stateMutability": "nonpayable",
      "type": "constructor"
    },
    {
      "anonymous": false,
      "inputs": [
        {
          "indexed": false,
          "internalType": "address",
          "name": "account",
          "type": "address"
        }
      ],
      "name": "Claim",
      "type": "event"
    },
    {
      "anonymous": false,
      "inputs": [
        {
          "indexed": false,
          "internalType": "address",
          "name": "account",
          "type": "address"
        },
        {
          "indexed": false,
          "internalType": "uint256",
          "name": "amount",
          "type": "uint256"
        }
      ],
      "name": "Deposit",
      "type": "event"
    },
    {
      "anonymous": false,
      "inputs": [
        {
          "indexed": false,
          "internalType": "address",
          "name": "account",
          "type": "address"
        }
      ],
      "name": "Paused",
      "type": "event"
    },
    {
      "anonymous": false,
      "inputs": [
        {
          "indexed": false,
          "internalType": "address",
          "name": "account",
          "type": "address"
        },
        {
          "indexed": false,
          "internalType": "uint256",
          "name": "amount",
          "type": "uint256"
        }
      ],
      "name": "Rewards",
      "type": "event"
    },
    {
      "anonymous": false,
      "inputs": [
        {
          "indexed": false,
          "internalType": "address",
          "name": "account",
          "type": "address"
        },
        {
          "indexed": false,
          "internalType": "uint256",
          "name": "gap",
          "type": "uint256"
        }
      ],
      "name": "SyncBalance",
      "type": "event"
    },
    {
      "anonymous": false,
      "inputs": [
        {
          "indexed": false,
          "internalType": "bool",
          "name": "autoreward",
          "type": "bool"
        }
      ],
      "name": "ToggleAutoreward",
      "type": "event"
    },
    {
      "anonymous": false,
      "inputs": [
        {
          "indexed": false,
          "internalType": "address",
          "name": "account",
          "type": "address"
        }
      ],
      "name": "Unpaused",
      "type": "event"
    },
    {
      "anonymous": false,
      "inputs": [
        {
          "indexed": false,
          "internalType": "uint256",
          "name": "balance",
          "type": "uint256"
        },
        {
          "indexed": false,
          "internalType": "uint256",
          "name": "accRewardsPerShare",
          "type": "uint256"
        },
        {
          "indexed": false,
          "internalType": "uint256",
          "name": "lastUpdate",
          "type": "uint256"
        },
        {
          "indexed": false,
          "internalType": "uint256",
          "name": "stakers",
          "type": "uint256"
        }
      ],
      "name": "Update",
      "type": "event"
    },
    {
      "anonymous": false,
      "inputs": [
        {
          "indexed": false,
          "internalType": "address",
          "name": "account",
          "type": "address"
        },
        {
          "indexed": false,
          "internalType": "uint256",
          "name": "amount",
          "type": "uint256"
        },
        {
          "indexed": false,
          "internalType": "uint256",
          "name": "rewardDebt",
          "type": "uint256"
        },
        {
          "indexed": false,
          "internalType": "uint256",
          "name": "notClaimed",
          "type": "uint256"
        }
      ],
      "name": "UpdateUserInfo",
      "type": "event"
    },
    {
      "anonymous": false,
      "inputs": [
        {
          "indexed": false,
          "internalType": "address",
          "name": "account",
          "type": "address"
        },
        {
          "indexed": false,
          "internalType": "uint256",
          "name": "amount",
          "type": "uint256"
        }
      ],
      "name": "Withdraw",
      "type": "event"
    },
    {
      "inputs": [],
      "name": "DEFAULT_ADMIN_ROLE",
      "outputs": [
        {
          "internalType": "bytes32",
          "name": "",
          "type": "bytes32"
        }
      ],
      "stateMutability": "view",
      "type": "function"
    },
    {
      "inputs": [],
      "name": "PAUSER_ROLE",
      "outputs": [
        {
          "internalType": "bytes32",
          "name": "",
          "type": "bytes32"
        }
      ],
      "stateMutability": "view",
      "type": "function"
    },
    {
      "inputs": [],
      "name": "accRewardsPerShare",
      "outputs": [
        {
          "internalType": "uint256",
          "name": "",
          "type": "uint256"
        }
      ],
      "stateMutability": "view",
      "type": "function"
    },
    {
      "inputs": [],
      "name": "autoreward",
      "outputs": [
        {
          "internalType": "bool",
          "name": "",
          "type": "bool"
        }
      ],
      "stateMutability": "view",
      "type": "function"
    },
    {
      "inputs": [],
      "name": "balance",
      "outputs": [
        {
          "internalType": "uint256",
          "name": "",
          "type": "uint256"
        }
      ],
      "stateMutability": "view",
      "type": "function"
    },
    {
      "inputs": [],
      "name": "claim",
      "outputs": [],
      "stateMutability": "nonpayable",
      "type": "function"
    },
    {
      "inputs": [
        {
          "internalType": "address",
          "name": "account",
          "type": "address"
        },
        {
          "internalType": "uint256",
          "name": "amount",
          "type": "uint256"
        }
      ],
      "name": "depositFrom",
      "outputs": [],
      "stateMutability": "nonpayable",
      "type": "function"
    },
    {
      "inputs": [],
      "name": "getTokenGap",
      "outputs": [
        {
          "internalType": "uint256",
          "name": "",
          "type": "uint256"
        }
      ],
      "stateMutability": "view",
      "type": "function"
    },
    {
      "inputs": [
        {
          "internalType": "address",
          "name": "user_",
          "type": "address"
        }
      ],
      "name": "getUserBalance",
      "outputs": [
        {
          "internalType": "uint256",
          "name": "",
          "type": "uint256"
        }
      ],
      "stateMutability": "view",
      "type": "function"
    },
    {
      "inputs": [
        {
          "internalType": "bytes32",
          "name": "role",
          "type": "bytes32"
        },
        {
          "internalType": "address",
          "name": "account",
          "type": "address"
        }
      ],
      "name": "hasRole",
      "outputs": [
        {
          "internalType": "bool",
          "name": "",
          "type": "bool"
        }
      ],
      "stateMutability": "view",
      "type": "function"
    },
    {
      "inputs": [],
      "name": "lastUpdate",
      "outputs": [
        {
          "internalType": "uint256",
          "name": "",
          "type": "uint256"
        }
      ],
      "stateMutability": "view",
      "type": "function"
    },
    {
      "inputs": [
        {
          "internalType": "address",
          "name": "to",
          "type": "address"
        },
        {
          "internalType": "bytes",
          "name": "data",
          "type": "bytes"
        }
      ],
      "name": "migrate",
      "outputs": [
        {
          "internalType": "bytes",
          "name": "",
          "type": "bytes"
        }
      ],
      "stateMutability": "nonpayable",
      "type": "function"
    },
    {
      "inputs": [],
      "name": "pause",
      "outputs": [],
      "stateMutability": "nonpayable",
      "type": "function"
    },
    {
      "inputs": [],
      "name": "paused",
      "outputs": [
        {
          "internalType": "bool",
          "name": "",
          "type": "bool"
        }
      ],
      "stateMutability": "view",
      "type": "function"
    },
    {
      "inputs": [
        {
          "internalType": "address",
          "name": "user_",
          "type": "address"
        }
      ],
      "name": "pendingRewards",
      "outputs": [
        {
          "internalType": "uint256",
          "name": "",
          "type": "uint256"
        }
      ],
      "stateMutability": "view",
      "type": "function"
    },
    {
      "inputs": [],
      "name": "stakers",
      "outputs": [
        {
          "internalType": "uint256",
          "name": "",
          "type": "uint256"
        }
      ],
      "stateMutability": "view",
      "type": "function"
    },
    {
      "inputs": [
        {
          "internalType": "address",
          "name": "account",
          "type": "address"
        }
      ],
      "name": "syncBalance",
      "outputs": [],
      "stateMutability": "nonpayable",
      "type": "function"
    },
    {
      "inputs": [],
      "name": "toggleAutoreward",
      "outputs": [],
      "stateMutability": "nonpayable",
      "type": "function"
    },
    {
      "inputs": [],
      "name": "token",
      "outputs": [
        {
          "internalType": "address",
          "name": "",
          "type": "address"
        }
      ],
      "stateMutability": "view",
      "type": "function"
    },
    {
      "inputs": [],
      "name": "unpause",
      "outputs": [],
      "stateMutability": "nonpayable",
      "type": "function"
    },
    {
      "inputs": [
        {
          "internalType": "address",
          "name": "manager",
          "type": "address"
        }
      ],
      "name": "updateManager",
      "outputs": [],
      "stateMutability": "nonpayable",
      "type": "function"
    },
    {
      "inputs": [],
      "name": "vault",
      "outputs": [
        {
          "internalType": "address",
          "name": "",
          "type": "address"
        }
      ],
      "stateMutability": "view",
      "type": "function"
    },
    {
      "inputs": [
        {
          "internalType": "uint256",
          "name": "amount",
          "type": "uint256"
        }
      ],
      "name": "withdraw",
      "outputs": [],
      "stateMutability": "nonpayable",
      "type": "function"
    }
  ],
  "bytecode": "0x60806040523480156200001157600080fd5b5060405162003e4438038062003e448339818101604052810190620000379190620007ee565b6200004a8383836200005360201b60201c565b5050506200093b565b600060019054906101000a900460ff16806200007a575060008054906101000a900460ff16155b620000bc576040517f08c379a0000000000000000000000000000000000000000000000000000000008152600401620000b3906200086b565b60405180910390fd5b60008060019054906101000a900460ff1615905080156200010d576001600060016101000a81548160ff02191690831515021790555060016000806101000a81548160ff0219169083151502179055505b6200011e846200015860201b60201c565b6200013083836200025960201b60201c565b8015620001525760008060016101000a81548160ff0219169083151502179055505b50505050565b600060019054906101000a900460ff16806200017f575060008054906101000a900460ff16155b620001c1576040517f08c379a0000000000000000000000000000000000000000000000000000000008152600401620001b8906200086b565b60405180910390fd5b60008060019054906101000a900460ff16159050801562000212576001600060016101000a81548160ff02191690831515021790555060016000806101000a81548160ff0219169083151502179055505b62000222620003de60201b60201c565b6200023382620004dd60201b60201c565b8015620002555760008060016101000a81548160ff0219169083151502179055505b5050565b600060019054906101000a900460ff168062000280575060008054906101000a900460ff16155b620002c2576040517f08c379a0000000000000000000000000000000000000000000000000000000008152600401620002b9906200086b565b60405180910390fd5b60008060019054906101000a900460ff16159050801562000313576001600060016101000a81548160ff02191690831515021790555060016000806101000a81548160ff0219169083151502179055505b82606660006101000a81548173ffffffffffffffffffffffffffffffffffffffff021916908373ffffffffffffffffffffffffffffffffffffffff16021790555081606760006101000a81548173ffffffffffffffffffffffffffffffffffffffff021916908373ffffffffffffffffffffffffffffffffffffffff1602179055506001606760146101000a81548160ff02191690831515021790555043606b819055508015620003d95760008060016101000a81548160ff0219169083151502179055505b505050565b600060019054906101000a900460ff168062000405575060008054906101000a900460ff16155b62000447576040517f08c379a00000000000000000000000000000000000000000000000000000000081526004016200043e906200086b565b60405180910390fd5b60008060019054906101000a900460ff16159050801562000498576001600060016101000a81548160ff02191690831515021790555060016000806101000a81548160ff0219169083151502179055505b620004a8620005fe60201b60201c565b620004b8620006dd60201b60201c565b8015620004da5760008060016101000a81548160ff0219169083151502179055505b50565b600060019054906101000a900460ff168062000504575060008054906101000a900460ff16155b62000546576040517f08c379a00000000000000000000000000000000000000000000000000000000081526004016200053d906200086b565b60405180910390fd5b60008060019054906101000a900460ff16159050801562000597576001600060016101000a81548160ff02191690831515021790555060016000806101000a81548160ff0219169083151502179055505b81606560006101000a81548173ffffffffffffffffffffffffffffffffffffffff021916908373ffffffffffffffffffffffffffffffffffffffff1602179055508015620005fa5760008060016101000a81548160ff0219169083151502179055505b5050565b600060019054906101000a900460ff168062000625575060008054906101000a900460ff16155b62000667576040517f08c379a00000000000000000000000000000000000000000000000000000000081526004016200065e906200086b565b60405180910390fd5b60008060019054906101000a900460ff161590508015620006b8576001600060016101000a81548160ff02191690831515021790555060016000806101000a81548160ff0219169083151502179055505b8015620006da5760008060016101000a81548160ff0219169083151502179055505b50565b600060019054906101000a900460ff168062000704575060008054906101000a900460ff16155b62000746576040517f08c379a00000000000000000000000000000000000000000000000000000000081526004016200073d906200086b565b60405180910390fd5b60008060019054906101000a900460ff16159050801562000797576001600060016101000a81548160ff02191690831515021790555060016000806101000a81548160ff0219169083151502179055505b6000603360006101000a81548160ff0219169083151502179055508015620007d45760008060016101000a81548160ff0219169083151502179055505b50565b600081519050620007e88162000921565b92915050565b6000806000606084860312156200080457600080fd5b60006200081486828701620007d7565b93505060206200082786828701620007d7565b92505060406200083a86828701620007d7565b9150509250925092565b600062000853602e836200088d565b91506200086082620008d2565b604082019050919050565b60006020820190508181036000830152620008868162000844565b9050919050565b600082825260208201905092915050565b6000620008ab82620008b2565b9050919050565b600073ffffffffffffffffffffffffffffffffffffffff82169050919050565b7f496e697469616c697a61626c653a20636f6e747261637420697320616c72656160008201527f647920696e697469616c697a6564000000000000000000000000000000000000602082015250565b6200092c816200089e565b81146200093857600080fd5b50565b6134f9806200094b6000396000f3fe608060405234801561001057600080fd5b506004361061014d5760003560e01c80637cbaccd5116100c3578063c3fbb6fd1161007c578063c3fbb6fd14610330578063e0adaca214610360578063e63ab1e91461037c578063fbfa77cf1461039a578063fc0c546a146103b8578063fed1252a146103d65761014d565b80637cbaccd51461027e5780638456cb591461029c57806391d14854146102a6578063a217fddf146102d6578063b69ef8a8146102f4578063c0463711146103125761014d565b80634e71d92d116101155780634e71d92d146101f45780635129338c146101fe57806358aba00f1461021c5780635a3c978b146102385780635c975abb146102565780636ca569c1146102745761014d565b806315cc36f2146101525780632e1a7d4d1461016e57806331d7a2621461018a5780633f4ba83a146101ba57806347734892146101c4575b600080fd5b61016c600480360381019061016791906125a5565b6103f4565b005b61018860048036038101906101839190612646565b6108a8565b005b6101a4600480360381019061019f9190612528565b610c19565b6040516101b19190612d2d565b60405180910390f35b6101c2610dda565b005b6101de60048036038101906101d99190612528565b610f50565b6040516101eb9190612d2d565b60405180910390f35b6101fc610fca565b005b610206611184565b6040516102139190612d2d565b60405180910390f35b61023660048036038101906102319190612528565b611264565b005b6102406113f7565b60405161024d9190612b0a565b60405180910390f35b61025e61140a565b60405161026b9190612b0a565b60405180910390f35b61027c611421565b005b6102866115e2565b6040516102939190612d2d565b60405180910390f35b6102a46115e8565b005b6102c060048036038101906102bb919061260a565b61175e565b6040516102cd9190612b0a565b60405180910390f35b6102de61181a565b6040516102eb9190612b25565b60405180910390f35b6102fc611821565b6040516103099190612d2d565b60405180910390f35b61031a611827565b6040516103279190612d2d565b60405180910390f35b61034a60048036038101906103459190612551565b61182d565b6040516103579190612b69565b60405180910390f35b61037a60048036038101906103759190612528565b6119d1565b005b610384611c62565b6040516103919190612b25565b60405180910390f35b6103a2611c86565b6040516103af91906129e3565b60405180910390f35b6103c0611cac565b6040516103cd91906129e3565b60405180910390f35b6103de611cd2565b6040516103eb9190612d2d565b60405180910390f35b6103fc61140a565b1561043c576040517f08c379a000000000000000000000000000000000000000000000000000000000815260040161043390612c4d565b60405180910390fd5b6000811161047f576040517f08c379a000000000000000000000000000000000000000000000000000000000815260040161047690612d0d565b60405180910390fd5b6000606d60008473ffffffffffffffffffffffffffffffffffffffff1673ffffffffffffffffffffffffffffffffffffffff16815260200190815260200160002090506104ca611cd8565b6104d383611e11565b6000816000015414156104fb576001606c60008282546104f39190612e31565b925050819055505b8181600001600082825461050f9190612e31565b9250508190555081606860008282546105289190612e31565b925050819055506000606660009054906101000a900473ffffffffffffffffffffffffffffffffffffffff169050828173ffffffffffffffffffffffffffffffffffffffff166370a08231866040518263ffffffff1660e01b815260040161059091906129e3565b60206040518083038186803b1580156105a857600080fd5b505afa1580156105bc573d6000803e3d6000fd5b505050506040513d601f19601f820116820180604052508101906105e0919061266f565b1015610621576040517f08c379a000000000000000000000000000000000000000000000000000000000815260040161061890612ced565b60405180910390fd5b828173ffffffffffffffffffffffffffffffffffffffff1663dd62ed3e86306040518363ffffffff1660e01b815260040161065d9291906129fe565b60206040518083038186803b15801561067557600080fd5b505afa158015610689573d6000803e3d6000fd5b505050506040513d601f19601f820116820180604052508101906106ad919061266f565b10156106ee576040517f08c379a00000000000000000000000000000000000000000000000000000000081526004016106e590612c6d565b60405180910390fd5b606760149054906101000a900460ff161561070d5761070c84611ea5565b5b8073ffffffffffffffffffffffffffffffffffffffff166323b872dd8530866040518463ffffffff1660e01b815260040161074a93929190612a27565b602060405180830381600087803b15801561076457600080fd5b505af1158015610778573d6000803e3d6000fd5b505050506040513d601f19601f8201168201806040525081019061079c91906125e1565b6107db576040517f08c379a00000000000000000000000000000000000000000000000000000000081526004016107d290612c2d565b60405180910390fd5b7fce49b138f2621300a7043a61f472ccfd643162bdf3efb11354e22d5273b77a71606854606954606b54606c546040516108189493929190612d48565b60405180910390a17f85562ed8ea40250610547d7262031cfe1ce04565357d2efd0fd412d36fb05ebe848360000154846001015485600201546040516108619493929190612ac5565b60405180910390a17fe1fffcc4923d04b559f4d29a8bfc6cda04eb5b0d3c460751c2402c5c5cc9109c848460405161089a929190612a5e565b60405180910390a150505050565b6108b061140a565b156108f0576040517f08c379a00000000000000000000000000000000000000000000000000000000081526004016108e790612c4d565b60405180910390fd5b60008111610933576040517f08c379a000000000000000000000000000000000000000000000000000000000815260040161092a90612d0d565b60405180910390fd5b60003390506000606d60008373ffffffffffffffffffffffffffffffffffffffff1673ffffffffffffffffffffffffffffffffffffffff168152602001908152602001600020905080600001548311156109c2576040517f08c379a00000000000000000000000000000000000000000000000000000000081526004016109b990612c0d565b60405180910390fd5b6109ca611cd8565b6109d382611e11565b6069548160010181905550828160000160008282546109f29190612f12565b925050819055508260686000828254610a0b9190612f12565b92505081905550600081600001541415610a3a576001606c6000828254610a329190612f12565b925050819055505b6000606660009054906101000a900473ffffffffffffffffffffffffffffffffffffffff169050606760149054906101000a900460ff1615610a8057610a7f83611ea5565b5b8073ffffffffffffffffffffffffffffffffffffffff1663a9059cbb84866040518363ffffffff1660e01b8152600401610abb929190612a5e565b602060405180830381600087803b158015610ad557600080fd5b505af1158015610ae9573d6000803e3d6000fd5b505050506040513d601f19601f82011682018060405250810190610b0d91906125e1565b610b4c576040517f08c379a0000000000000000000000000000000000000000000000000000000008152600401610b4390612bad565b60405180910390fd5b7fce49b138f2621300a7043a61f472ccfd643162bdf3efb11354e22d5273b77a71606854606954606b54606c54604051610b899493929190612d48565b60405180910390a17f85562ed8ea40250610547d7262031cfe1ce04565357d2efd0fd412d36fb05ebe83836000015484600101548560020154604051610bd29493929190612ac5565b60405180910390a17f884edad9ce6fa2440d8a54cc123490eb96d2768479d49ff9c7366125a94243648385604051610c0b929190612a5e565b60405180910390a150505050565b600080606d60008473ffffffffffffffffffffffffffffffffffffffff1673ffffffffffffffffffffffffffffffffffffffff1681526020019081526020016000206040518060600160405290816000820154815260200160018201548152602001600282015481525050905060008160400151905060006068541115610dd0576000606760009054906101000a900473ffffffffffffffffffffffffffffffffffffffff1690506000606a548273ffffffffffffffffffffffffffffffffffffffff1663ae7928bf306040518263ffffffff1660e01b8152600401610cff91906129e3565b60206040518083038186803b158015610d1757600080fd5b505afa158015610d2b573d6000803e3d6000fd5b505050506040513d601f19601f82011682018060405250810190610d4f919061266f565b610d599190612f12565b90506000606854670de0b6b3a764000083610d749190612eb8565b610d7e9190612e87565b9050670de0b6b3a76400008560000151828760200151606954610da19190612f12565b610dab9190612e31565b610db59190612eb8565b610dbf9190612e87565b84610dca9190612e31565b93505050505b8092505050919050565b7f65d7a28e3265b37a6474929f336521b332c1681b933f6cb9f3376673440d862a6000606560009054906101000a900473ffffffffffffffffffffffffffffffffffffffff16905060003390508173ffffffffffffffffffffffffffffffffffffffff166391d1485484836040518363ffffffff1660e01b8152600401610e62929190612b40565b60206040518083038186803b158015610e7a57600080fd5b505afa158015610e8e573d6000803e3d6000fd5b505050506040513d601f19601f82011682018060405250810190610eb291906125e1565b610ed38273ffffffffffffffffffffffffffffffffffffffff166014612010565b610ee18560001c6020612010565b604051602001610ef29291906129a9565b60405160208183030381529060405290610f42576040517f08c379a0000000000000000000000000000000000000000000000000000000008152600401610f399190612b8b565b60405180910390fd5b50610f4b61230a565b505050565b600080606d60008473ffffffffffffffffffffffffffffffffffffffff1673ffffffffffffffffffffffffffffffffffffffff168152602001908152602001600020604051806060016040529081600082015481526020016001820154815260200160028201548152505090508060000151915050919050565b610fd261140a565b15611012576040517f08c379a000000000000000000000000000000000000000000000000000000000815260040161100990612c4d565b60405180910390fd5b60003390506000606d60008373ffffffffffffffffffffffffffffffffffffffff1673ffffffffffffffffffffffffffffffffffffffff1681526020019081526020016000209050611062611cd8565b61106b82611e11565b60008160020154116110b2576040517f08c379a00000000000000000000000000000000000000000000000000000000081526004016110a990612ccd565b60405180910390fd5b6110bb82611ea5565b7fce49b138f2621300a7043a61f472ccfd643162bdf3efb11354e22d5273b77a71606854606954606b54606c546040516110f89493929190612d48565b60405180910390a17f85562ed8ea40250610547d7262031cfe1ce04565357d2efd0fd412d36fb05ebe828260000154836001015484600201546040516111419493929190612ac5565b60405180910390a17f0c7ef932d3b91976772937f18d5ef9b39a9930bef486b576c374f047c4b512dc8260405161117891906129e3565b60405180910390a15050565b600080606660009054906101000a900473ffffffffffffffffffffffffffffffffffffffff16905060008173ffffffffffffffffffffffffffffffffffffffff166370a08231306040518263ffffffff1660e01b81526004016111e791906129e3565b60206040518083038186803b1580156111ff57600080fd5b505afa158015611213573d6000803e3d6000fd5b505050506040513d601f19601f82011682018060405250810190611237919061266f565b905060685481111561125a57606854816112519190612f12565b92505050611261565b6000925050505b90565b6000801b6000606560009054906101000a900473ffffffffffffffffffffffffffffffffffffffff16905060003390508173ffffffffffffffffffffffffffffffffffffffff166391d1485484836040518363ffffffff1660e01b81526004016112cf929190612b40565b60206040518083038186803b1580156112e757600080fd5b505afa1580156112fb573d6000803e3d6000fd5b505050506040513d601f19601f8201168201806040525081019061131f91906125e1565b6113408273ffffffffffffffffffffffffffffffffffffffff166014612010565b61134e8560001c6020612010565b60405160200161135f9291906129a9565b604051602081830303815290604052906113af576040517f08c379a00000000000000000000000000000000000000000000000000000000081526004016113a69190612b8b565b60405180910390fd5b5083606560006101000a81548173ffffffffffffffffffffffffffffffffffffffff021916908373ffffffffffffffffffffffffffffffffffffffff16021790555050505050565b606760149054906101000a900460ff1681565b6000603360009054906101000a900460ff16905090565b6000801b6000606560009054906101000a900473ffffffffffffffffffffffffffffffffffffffff16905060003390508173ffffffffffffffffffffffffffffffffffffffff166391d1485484836040518363ffffffff1660e01b815260040161148c929190612b40565b60206040518083038186803b1580156114a457600080fd5b505afa1580156114b8573d6000803e3d6000fd5b505050506040513d601f19601f820116820180604052508101906114dc91906125e1565b6114fd8273ffffffffffffffffffffffffffffffffffffffff166014612010565b61150b8560001c6020612010565b60405160200161151c9291906129a9565b6040516020818303038152906040529061156c576040517f08c379a00000000000000000000000000000000000000000000000000000000081526004016115639190612b8b565b60405180910390fd5b50606760149054906101000a900460ff1615606760146101000a81548160ff0219169083151502179055507fbab7db190deaf2eccaf17b4e82ea10dce1e26f8a605ec9681ca8183b2de399fe606760149054906101000a900460ff166040516115d59190612b0a565b60405180910390a1505050565b60695481565b7f65d7a28e3265b37a6474929f336521b332c1681b933f6cb9f3376673440d862a6000606560009054906101000a900473ffffffffffffffffffffffffffffffffffffffff16905060003390508173ffffffffffffffffffffffffffffffffffffffff166391d1485484836040518363ffffffff1660e01b8152600401611670929190612b40565b60206040518083038186803b15801561168857600080fd5b505afa15801561169c573d6000803e3d6000fd5b505050506040513d601f19601f820116820180604052508101906116c091906125e1565b6116e18273ffffffffffffffffffffffffffffffffffffffff166014612010565b6116ef8560001c6020612010565b6040516020016117009291906129a9565b60405160208183030381529060405290611750576040517f08c379a00000000000000000000000000000000000000000000000000000000081526004016117479190612b8b565b60405180910390fd5b506117596123ac565b505050565b600080606560009054906101000a900473ffffffffffffffffffffffffffffffffffffffff1690508073ffffffffffffffffffffffffffffffffffffffff166391d1485485856040518363ffffffff1660e01b81526004016117c1929190612b40565b60206040518083038186803b1580156117d957600080fd5b505afa1580156117ed573d6000803e3d6000fd5b505050506040513d601f19601f8201168201806040525081019061181191906125e1565b91505092915050565b6000801b81565b60685481565b606b5481565b606060003390506000606d60008373ffffffffffffffffffffffffffffffffffffffff1673ffffffffffffffffffffffffffffffffffffffff168152602001908152602001600020600001549050611884816108a8565b6000808673ffffffffffffffffffffffffffffffffffffffff168484886040516024016118b393929190612a87565b6040516020818303038152906040527f5f781329000000000000000000000000000000000000000000000000000000007bffffffffffffffffffffffffffffffffffffffffffffffffffffffff19166020820180517bffffffffffffffffffffffffffffffffffffffffffffffffffffffff838183161783525050505060405161193d9190612992565b6000604051808303816000865af19150503d806000811461197a576040519150601f19603f3d011682016040523d82523d6000602084013e61197f565b606091505b5091509150816119c4576040517f08c379a00000000000000000000000000000000000000000000000000000000081526004016119bb90612cad565b60405180910390fd5b8094505050505092915050565b6000801b6000606560009054906101000a900473ffffffffffffffffffffffffffffffffffffffff16905060003390508173ffffffffffffffffffffffffffffffffffffffff166391d1485484836040518363ffffffff1660e01b8152600401611a3c929190612b40565b60206040518083038186803b158015611a5457600080fd5b505afa158015611a68573d6000803e3d6000fd5b505050506040513d601f19601f82011682018060405250810190611a8c91906125e1565b611aad8273ffffffffffffffffffffffffffffffffffffffff166014612010565b611abb8560001c6020612010565b604051602001611acc9291906129a9565b60405160208183030381529060405290611b1c576040517f08c379a0000000000000000000000000000000000000000000000000000000008152600401611b139190612b8b565b60405180910390fd5b506000606660009054906101000a900473ffffffffffffffffffffffffffffffffffffffff1690506000611b4e611184565b905060008111611b93576040517f08c379a0000000000000000000000000000000000000000000000000000000008152600401611b8a90612c8d565b60405180910390fd5b8173ffffffffffffffffffffffffffffffffffffffff1663a9059cbb87836040518363ffffffff1660e01b8152600401611bce929190612a5e565b602060405180830381600087803b158015611be857600080fd5b505af1158015611bfc573d6000803e3d6000fd5b505050506040513d601f19601f82011682018060405250810190611c2091906125e1565b507fd43c97094d4b3522923f3751f896fb88ef95d5e1d310aea58b936625fd7c5d0c8682604051611c52929190612a5e565b60405180910390a1505050505050565b7f65d7a28e3265b37a6474929f336521b332c1681b933f6cb9f3376673440d862a81565b606760009054906101000a900473ffffffffffffffffffffffffffffffffffffffff1681565b606660009054906101000a900473ffffffffffffffffffffffffffffffffffffffff1681565b606c5481565b606b544311611ce657611e0f565b60006068541115611e07576000606760009054906101000a900473ffffffffffffffffffffffffffffffffffffffff1690506000606a548273ffffffffffffffffffffffffffffffffffffffff1663ae7928bf306040518263ffffffff1660e01b8152600401611d5691906129e3565b60206040518083038186803b158015611d6e57600080fd5b505afa158015611d82573d6000803e3d6000fd5b505050506040513d601f19601f82011682018060405250810190611da6919061266f565b611db09190612f12565b905080606a6000828254611dc49190612e31565b92505081905550606854670de0b6b3a764000082611de29190612eb8565b611dec9190612e87565b60696000828254611dfd9190612e31565b9250508190555050505b43606b819055505b565b6000606d60008373ffffffffffffffffffffffffffffffffffffffff1673ffffffffffffffffffffffffffffffffffffffff168152602001908152602001600020905060008160010154606954611e689190612f12565b9050670de0b6b3a7640000826000015482611e839190612eb8565b611e8d9190612e87565b82600201819055506069548260010181905550505050565b6000606760009054906101000a900473ffffffffffffffffffffffffffffffffffffffff1690506000606d60008473ffffffffffffffffffffffffffffffffffffffff1673ffffffffffffffffffffffffffffffffffffffff168152602001908152602001600020600201549050600081111561200b576000606d60008573ffffffffffffffffffffffffffffffffffffffff1673ffffffffffffffffffffffffffffffffffffffff168152602001908152602001600020600201819055508173ffffffffffffffffffffffffffffffffffffffff1663158a498884836040518363ffffffff1660e01b8152600401611f9f929190612a5e565b600060405180830381600087803b158015611fb957600080fd5b505af1158015611fcd573d6000803e3d6000fd5b505050507fc083a1647e3ee591bf42b82564ffb4d16fdbb26068f0080da911c8d8300fd84a8382604051612002929190612a5e565b60405180910390a15b505050565b6060600060028360026120239190612eb8565b61202d9190612e31565b67ffffffffffffffff81111561206c577f4e487b7100000000000000000000000000000000000000000000000000000000600052604160045260246000fd5b6040519080825280601f01601f19166020018201604052801561209e5781602001600182028036833780820191505090505b5090507f3000000000000000000000000000000000000000000000000000000000000000816000815181106120fc577f4e487b7100000000000000000000000000000000000000000000000000000000600052603260045260246000fd5b60200101907effffffffffffffffffffffffffffffffffffffffffffffffffffffffffffff1916908160001a9053507f780000000000000000000000000000000000000000000000000000000000000081600181518110612186577f4e487b7100000000000000000000000000000000000000000000000000000000600052603260045260246000fd5b60200101907effffffffffffffffffffffffffffffffffffffffffffffffffffffffffffff1916908160001a905350600060018460026121c69190612eb8565b6121d09190612e31565b90505b60018111156122bc577f3031323334353637383961626364656600000000000000000000000000000000600f861660108110612238577f4e487b7100000000000000000000000000000000000000000000000000000000600052603260045260246000fd5b1a60f81b828281518110612275577f4e487b7100000000000000000000000000000000000000000000000000000000600052603260045260246000fd5b60200101907effffffffffffffffffffffffffffffffffffffffffffffffffffffffffffff1916908160001a905350600485901c9450806122b590612fda565b90506121d3565b5060008414612300576040517f08c379a00000000000000000000000000000000000000000000000000000000081526004016122f790612bcd565b60405180910390fd5b8091505092915050565b61231261140a565b612351576040517f08c379a000000000000000000000000000000000000000000000000000000000815260040161234890612bed565b60405180910390fd5b6000603360006101000a81548160ff0219169083151502179055507f5db9ee0a495bf2e6ff9c91a7834c1ba4fdd244a5e8aa4e537bd38aeae4b073aa61239561244f565b6040516123a291906129e3565b60405180910390a1565b6123b461140a565b156123f4576040517f08c379a00000000000000000000000000000000000000000000000000000000081526004016123eb90612c4d565b60405180910390fd5b6001603360006101000a81548160ff0219169083151502179055507f62e78cea01bee320cd4e420270b5ea74000d11b0c9f74754ebdbfc544b05a25861243861244f565b60405161244591906129e3565b60405180910390a1565b600033905090565b600061246a61246584612db2565b612d8d565b90508281526020810184848401111561248257600080fd5b61248d848285612f98565b509392505050565b6000813590506124a481613467565b92915050565b6000815190506124b98161347e565b92915050565b6000813590506124ce81613495565b92915050565b600082601f8301126124e557600080fd5b81356124f5848260208601612457565b91505092915050565b60008135905061250d816134ac565b92915050565b600081519050612522816134ac565b92915050565b60006020828403121561253a57600080fd5b600061254884828501612495565b91505092915050565b6000806040838503121561256457600080fd5b600061257285828601612495565b925050602083013567ffffffffffffffff81111561258f57600080fd5b61259b858286016124d4565b9150509250929050565b600080604083850312156125b857600080fd5b60006125c685828601612495565b92505060206125d7858286016124fe565b9150509250929050565b6000602082840312156125f357600080fd5b6000612601848285016124aa565b91505092915050565b6000806040838503121561261d57600080fd5b600061262b858286016124bf565b925050602061263c85828601612495565b9150509250929050565b60006020828403121561265857600080fd5b6000612666848285016124fe565b91505092915050565b60006020828403121561268157600080fd5b600061268f84828501612513565b91505092915050565b6126a181612f46565b82525050565b6126b081612f58565b82525050565b6126bf81612f64565b82525050565b60006126d082612de3565b6126da8185612df9565b93506126ea818560208601612fa7565b6126f3816130c2565b840191505092915050565b600061270982612de3565b6127138185612e0a565b9350612723818560208601612fa7565b80840191505092915050565b600061273a82612dee565b6127448185612e15565b9350612754818560208601612fa7565b61275d816130c2565b840191505092915050565b600061277382612dee565b61277d8185612e26565b935061278d818560208601612fa7565b80840191505092915050565b60006127a6602983612e15565b91506127b1826130d3565b604082019050919050565b60006127c9602083612e15565b91506127d482613122565b602082019050919050565b60006127ec602483612e26565b91506127f78261314b565b602482019050919050565b600061280f601483612e15565b915061281a8261319a565b602082019050919050565b6000612832603483612e15565b915061283d826131c3565b604082019050919050565b6000612855602883612e15565b915061286082613212565b604082019050919050565b6000612878601083612e15565b915061288382613261565b602082019050919050565b600061289b602983612e15565b91506128a68261328a565b604082019050919050565b60006128be602083612e15565b91506128c9826132d9565b602082019050919050565b60006128e1602583612e15565b91506128ec82613302565b604082019050919050565b6000612904602183612e15565b915061290f82613351565b604082019050919050565b6000612927602c83612e15565b9150612932826133a0565b604082019050919050565b600061294a602983612e15565b9150612955826133ef565b604082019050919050565b600061296d601183612e26565b91506129788261343e565b601182019050919050565b61298c81612f8e565b82525050565b600061299e82846126fe565b915081905092915050565b60006129b4826127df565b91506129c08285612768565b91506129cb82612960565b91506129d78284612768565b91508190509392505050565b60006020820190506129f86000830184612698565b92915050565b6000604082019050612a136000830185612698565b612a206020830184612698565b9392505050565b6000606082019050612a3c6000830186612698565b612a496020830185612698565b612a566040830184612983565b949350505050565b6000604082019050612a736000830185612698565b612a806020830184612983565b9392505050565b6000606082019050612a9c6000830186612698565b612aa96020830185612983565b8181036040830152612abb81846126c5565b9050949350505050565b6000608082019050612ada6000830187612698565b612ae76020830186612983565b612af46040830185612983565b612b016060830184612983565b95945050505050565b6000602082019050612b1f60008301846126a7565b92915050565b6000602082019050612b3a60008301846126b6565b92915050565b6000604082019050612b5560008301856126b6565b612b626020830184612698565b9392505050565b60006020820190508181036000830152612b8381846126c5565b905092915050565b60006020820190508181036000830152612ba5818461272f565b905092915050565b60006020820190508181036000830152612bc681612799565b9050919050565b60006020820190508181036000830152612be6816127bc565b9050919050565b60006020820190508181036000830152612c0681612802565b9050919050565b60006020820190508181036000830152612c2681612825565b9050919050565b60006020820190508181036000830152612c4681612848565b9050919050565b60006020820190508181036000830152612c668161286b565b9050919050565b60006020820190508181036000830152612c868161288e565b9050919050565b60006020820190508181036000830152612ca6816128b1565b9050919050565b60006020820190508181036000830152612cc6816128d4565b9050919050565b60006020820190508181036000830152612ce6816128f7565b9050919050565b60006020820190508181036000830152612d068161291a565b9050919050565b60006020820190508181036000830152612d268161293d565b9050919050565b6000602082019050612d426000830184612983565b92915050565b6000608082019050612d5d6000830187612983565b612d6a6020830186612983565b612d776040830185612983565b612d846060830184612983565b95945050505050565b6000612d97612da8565b9050612da38282613004565b919050565b6000604051905090565b600067ffffffffffffffff821115612dcd57612dcc613093565b5b612dd6826130c2565b9050602081019050919050565b600081519050919050565b600081519050919050565b600082825260208201905092915050565b600081905092915050565b600082825260208201905092915050565b600081905092915050565b6000612e3c82612f8e565b9150612e4783612f8e565b9250827fffffffffffffffffffffffffffffffffffffffffffffffffffffffffffffffff03821115612e7c57612e7b613035565b5b828201905092915050565b6000612e9282612f8e565b9150612e9d83612f8e565b925082612ead57612eac613064565b5b828204905092915050565b6000612ec382612f8e565b9150612ece83612f8e565b9250817fffffffffffffffffffffffffffffffffffffffffffffffffffffffffffffffff0483118215151615612f0757612f06613035565b5b828202905092915050565b6000612f1d82612f8e565b9150612f2883612f8e565b925082821015612f3b57612f3a613035565b5b828203905092915050565b6000612f5182612f6e565b9050919050565b60008115159050919050565b6000819050919050565b600073ffffffffffffffffffffffffffffffffffffffff82169050919050565b6000819050919050565b82818337600083830152505050565b60005b83811015612fc5578082015181840152602081019050612faa565b83811115612fd4576000848401525b50505050565b6000612fe582612f8e565b91506000821415612ff957612ff8613035565b5b600182039050919050565b61300d826130c2565b810181811067ffffffffffffffff8211171561302c5761302b613093565b5b80604052505050565b7f4e487b7100000000000000000000000000000000000000000000000000000000600052601160045260246000fd5b7f4e487b7100000000000000000000000000000000000000000000000000000000600052601260045260246000fd5b7f4e487b7100000000000000000000000000000000000000000000000000000000600052604160045260246000fd5b6000601f19601f8301169050919050565b7f547574656c6c75734661726d696e673a207769746864726177207472616e736660008201527f6572206661696c65640000000000000000000000000000000000000000000000602082015250565b7f537472696e67733a20686578206c656e67746820696e73756666696369656e74600082015250565b7f416363657373436f6e74726f6c50726f78795061757361626c653a206163636f60008201527f756e742000000000000000000000000000000000000000000000000000000000602082015250565b7f5061757361626c653a206e6f7420706175736564000000000000000000000000600082015250565b7f547574656c6c75734661726d696e673a207573657220686173206e6f7420656e60008201527f6f756768207374616b696e672062616c616e6365000000000000000000000000602082015250565b7f547574656c6c75734661726d696e673a206465706f736974207472616e73666560008201527f72206661696c6564000000000000000000000000000000000000000000000000602082015250565b7f5061757361626c653a2070617573656400000000000000000000000000000000600082015250565b7f547574656c6c75734661726d696e673a20616d6f756e7420657863656564732060008201527f616c6c6f77616e63650000000000000000000000000000000000000000000000602082015250565b7f547574656c6c75734661726d696e673a207468657265206973206e6f20676170600082015250565b7f547574656c6c75734661726d696e673a206d6967726174696f6e20686173206660008201527f61696c6564000000000000000000000000000000000000000000000000000000602082015250565b7f547574656c6c75734661726d696e673a206e6f7468696e6720746f20636c616960008201527f6d00000000000000000000000000000000000000000000000000000000000000602082015250565b7f547574656c6c75734661726d696e673a207573657220686173206e6f7420656e60008201527f6f7567682062616c616e63650000000000000000000000000000000000000000602082015250565b7f547574656c6c75734661726d696e673a20616d6f756e74206d7573742062652060008201527f6f766572207a65726f0000000000000000000000000000000000000000000000602082015250565b7f206973206d697373696e6720726f6c6520000000000000000000000000000000600082015250565b61347081612f46565b811461347b57600080fd5b50565b61348781612f58565b811461349257600080fd5b50565b61349e81612f64565b81146134a957600080fd5b50565b6134b581612f8e565b81146134c057600080fd5b5056fea2646970667358221220b302f278480a6f89cc2a0e4ceeb4a6052b817205bb314048130ac240115d7c5564736f6c63430008020033",
  "linkReferences": {},
  "deployedLinkReferences": {}
}