{
  "_format": "hh-sol-artifact-1",
  "contractName": "TutellusToken",
  "sourceName": "contracts/TutellusToken.sol",
  "abi": [
    {
      "inputs": [],
      "stateMutability": "nonpayable",
      "type": "constructor"
    },
    {
      "anonymous": false,
      "inputs": [
        {
          "indexed": true,
          "internalType": "address",
          "name": "owner",
          "type": "address"
        },
        {
          "indexed": true,
          "internalType": "address",
          "name": "spender",
          "type": "address"
        },
        {
          "indexed": false,
          "internalType": "uint256",
          "name": "value",
          "type": "uint256"
        }
      ],
      "name": "Approval",
      "type": "event"
    },
    {
      "anonymous": false,
      "inputs": [
        {
          "indexed": false,
          "internalType": "address",
          "name": "account",
          "type": "address"
        },
        {
          "indexed": false,
          "internalType": "uint256",
          "name": "amount",
          "type": "uint256"
        }
      ],
      "name": "Burn",
      "type": "event"
    },
    {
      "anonymous": false,
      "inputs": [
        {
          "indexed": false,
          "internalType": "address",
          "name": "account",
          "type": "address"
        },
        {
          "indexed": false,
          "internalType": "uint256",
          "name": "amount",
          "type": "uint256"
        }
      ],
      "name": "Mint",
      "type": "event"
    },
    {
      "anonymous": false,
      "inputs": [
        {
          "indexed": false,
          "internalType": "address",
          "name": "account",
          "type": "address"
        }
      ],
      "name": "Paused",
      "type": "event"
    },
    {
      "anonymous": false,
      "inputs": [
        {
          "indexed": true,
          "internalType": "bytes32",
          "name": "role",
          "type": "bytes32"
        },
        {
          "indexed": true,
          "internalType": "bytes32",
          "name": "previousAdminRole",
          "type": "bytes32"
        },
        {
          "indexed": true,
          "internalType": "bytes32",
          "name": "newAdminRole",
          "type": "bytes32"
        }
      ],
      "name": "RoleAdminChanged",
      "type": "event"
    },
    {
      "anonymous": false,
      "inputs": [
        {
          "indexed": true,
          "internalType": "bytes32",
          "name": "role",
          "type": "bytes32"
        },
        {
          "indexed": true,
          "internalType": "address",
          "name": "account",
          "type": "address"
        },
        {
          "indexed": true,
          "internalType": "address",
          "name": "sender",
          "type": "address"
        }
      ],
      "name": "RoleGranted",
      "type": "event"
    },
    {
      "anonymous": false,
      "inputs": [
        {
          "indexed": true,
          "internalType": "bytes32",
          "name": "role",
          "type": "bytes32"
        },
        {
          "indexed": true,
          "internalType": "address",
          "name": "account",
          "type": "address"
        },
        {
          "indexed": true,
          "internalType": "address",
          "name": "sender",
          "type": "address"
        }
      ],
      "name": "RoleRevoked",
      "type": "event"
    },
    {
      "anonymous": false,
      "inputs": [
        {
          "indexed": true,
          "internalType": "address",
          "name": "from",
          "type": "address"
        },
        {
          "indexed": true,
          "internalType": "address",
          "name": "to",
          "type": "address"
        },
        {
          "indexed": false,
          "internalType": "uint256",
          "name": "value",
          "type": "uint256"
        }
      ],
      "name": "Transfer",
      "type": "event"
    },
    {
      "anonymous": false,
      "inputs": [
        {
          "indexed": false,
          "internalType": "address",
          "name": "account",
          "type": "address"
        }
      ],
      "name": "Unpaused",
      "type": "event"
    },
    {
      "inputs": [],
      "name": "DEFAULT_ADMIN_ROLE",
      "outputs": [
        {
          "internalType": "bytes32",
          "name": "",
          "type": "bytes32"
        }
      ],
      "stateMutability": "view",
      "type": "function"
    },
    {
      "inputs": [
        {
          "internalType": "address",
          "name": "owner",
          "type": "address"
        },
        {
          "internalType": "address",
          "name": "spender",
          "type": "address"
        }
      ],
      "name": "allowance",
      "outputs": [
        {
          "internalType": "uint256",
          "name": "",
          "type": "uint256"
        }
      ],
      "stateMutability": "view",
      "type": "function"
    },
    {
      "inputs": [
        {
          "internalType": "address",
          "name": "spender",
          "type": "address"
        },
        {
          "internalType": "uint256",
          "name": "amount",
          "type": "uint256"
        }
      ],
      "name": "approve",
      "outputs": [
        {
          "internalType": "bool",
          "name": "",
          "type": "bool"
        }
      ],
      "stateMutability": "nonpayable",
      "type": "function"
    },
    {
      "inputs": [
        {
          "internalType": "address",
          "name": "account",
          "type": "address"
        }
      ],
      "name": "balanceOf",
      "outputs": [
        {
          "internalType": "uint256",
          "name": "",
          "type": "uint256"
        }
      ],
      "stateMutability": "view",
      "type": "function"
    },
    {
      "inputs": [
        {
          "internalType": "uint256",
          "name": "amount",
          "type": "uint256"
        }
      ],
      "name": "burn",
      "outputs": [],
      "stateMutability": "nonpayable",
      "type": "function"
    },
    {
      "inputs": [],
      "name": "burned",
      "outputs": [
        {
          "internalType": "uint256",
          "name": "",
          "type": "uint256"
        }
      ],
      "stateMutability": "view",
      "type": "function"
    },
    {
      "inputs": [],
      "name": "cap",
      "outputs": [
        {
          "internalType": "uint256",
          "name": "",
          "type": "uint256"
        }
      ],
      "stateMutability": "view",
      "type": "function"
    },
    {
      "inputs": [],
      "name": "decimals",
      "outputs": [
        {
          "internalType": "uint8",
          "name": "",
          "type": "uint8"
        }
      ],
      "stateMutability": "view",
      "type": "function"
    },
    {
      "inputs": [
        {
          "internalType": "address",
          "name": "spender",
          "type": "address"
        },
        {
          "internalType": "uint256",
          "name": "subtractedValue",
          "type": "uint256"
        }
      ],
      "name": "decreaseAllowance",
      "outputs": [
        {
          "internalType": "bool",
          "name": "",
          "type": "bool"
        }
      ],
      "stateMutability": "nonpayable",
      "type": "function"
    },
    {
      "inputs": [
        {
          "internalType": "bytes32",
          "name": "role",
          "type": "bytes32"
        }
      ],
      "name": "getRoleAdmin",
      "outputs": [
        {
          "internalType": "bytes32",
          "name": "",
          "type": "bytes32"
        }
      ],
      "stateMutability": "view",
      "type": "function"
    },
    {
      "inputs": [
        {
          "internalType": "address",
          "name": "account",
          "type": "address"
        }
      ],
      "name": "grantPauserRole",
      "outputs": [],
      "stateMutability": "nonpayable",
      "type": "function"
    },
    {
      "inputs": [
        {
          "internalType": "bytes32",
          "name": "role",
          "type": "bytes32"
        },
        {
          "internalType": "address",
          "name": "account",
          "type": "address"
        }
      ],
      "name": "grantRole",
      "outputs": [],
      "stateMutability": "nonpayable",
      "type": "function"
    },
    {
      "inputs": [
        {
          "internalType": "bytes32",
          "name": "role",
          "type": "bytes32"
        },
        {
          "internalType": "address",
          "name": "account",
          "type": "address"
        }
      ],
      "name": "hasRole",
      "outputs": [
        {
          "internalType": "bool",
          "name": "",
          "type": "bool"
        }
      ],
      "stateMutability": "view",
      "type": "function"
    },
    {
      "inputs": [
        {
          "internalType": "address",
          "name": "spender",
          "type": "address"
        },
        {
          "internalType": "uint256",
          "name": "addedValue",
          "type": "uint256"
        }
      ],
      "name": "increaseAllowance",
      "outputs": [
        {
          "internalType": "bool",
          "name": "",
          "type": "bool"
        }
      ],
      "stateMutability": "nonpayable",
      "type": "function"
    },
    {
      "inputs": [
        {
          "internalType": "address",
          "name": "account",
          "type": "address"
        },
        {
          "internalType": "uint256",
          "name": "amount",
          "type": "uint256"
        }
      ],
      "name": "mint",
      "outputs": [],
      "stateMutability": "nonpayable",
      "type": "function"
    },
    {
      "inputs": [],
      "name": "name",
      "outputs": [
        {
          "internalType": "string",
          "name": "",
          "type": "string"
        }
      ],
      "stateMutability": "view",
      "type": "function"
    },
    {
      "inputs": [],
      "name": "pause",
      "outputs": [],
      "stateMutability": "nonpayable",
      "type": "function"
    },
    {
      "inputs": [],
      "name": "paused",
      "outputs": [
        {
          "internalType": "bool",
          "name": "",
          "type": "bool"
        }
      ],
      "stateMutability": "view",
      "type": "function"
    },
    {
      "inputs": [
        {
          "internalType": "bytes32",
          "name": "role",
          "type": "bytes32"
        },
        {
          "internalType": "address",
          "name": "account",
          "type": "address"
        }
      ],
      "name": "renounceRole",
      "outputs": [],
      "stateMutability": "nonpayable",
      "type": "function"
    },
    {
      "inputs": [
        {
          "internalType": "bytes32",
          "name": "role",
          "type": "bytes32"
        },
        {
          "internalType": "address",
          "name": "account",
          "type": "address"
        }
      ],
      "name": "revokeRole",
      "outputs": [],
      "stateMutability": "nonpayable",
      "type": "function"
    },
    {
      "inputs": [
        {
          "internalType": "bytes4",
          "name": "interfaceId",
          "type": "bytes4"
        }
      ],
      "name": "supportsInterface",
      "outputs": [
        {
          "internalType": "bool",
          "name": "",
          "type": "bool"
        }
      ],
      "stateMutability": "view",
      "type": "function"
    },
    {
      "inputs": [],
      "name": "symbol",
      "outputs": [
        {
          "internalType": "string",
          "name": "",
          "type": "string"
        }
      ],
      "stateMutability": "view",
      "type": "function"
    },
    {
      "inputs": [],
      "name": "totalSupply",
      "outputs": [
        {
          "internalType": "uint256",
          "name": "",
          "type": "uint256"
        }
      ],
      "stateMutability": "view",
      "type": "function"
    },
    {
      "inputs": [
        {
          "internalType": "address",
          "name": "recipient",
          "type": "address"
        },
        {
          "internalType": "uint256",
          "name": "amount",
          "type": "uint256"
        }
      ],
      "name": "transfer",
      "outputs": [
        {
          "internalType": "bool",
          "name": "",
          "type": "bool"
        }
      ],
      "stateMutability": "nonpayable",
      "type": "function"
    },
    {
      "inputs": [
        {
          "internalType": "address",
          "name": "sender",
          "type": "address"
        },
        {
          "internalType": "address",
          "name": "recipient",
          "type": "address"
        },
        {
          "internalType": "uint256",
          "name": "amount",
          "type": "uint256"
        }
      ],
      "name": "transferFrom",
      "outputs": [
        {
          "internalType": "bool",
          "name": "",
          "type": "bool"
        }
      ],
      "stateMutability": "nonpayable",
      "type": "function"
    },
    {
      "inputs": [],
      "name": "unpause",
      "outputs": [],
      "stateMutability": "nonpayable",
      "type": "function"
    },
    {
      "inputs": [],
      "name": "vault",
      "outputs": [
        {
          "internalType": "address",
          "name": "",
          "type": "address"
        }
      ],
      "stateMutability": "view",
      "type": "function"
    }
  ],
  "bytecode": "0x60806040527f65d7a28e3265b37a6474929f336521b332c1681b933f6cb9f3376673440d862a60c9553480156200003557600080fd5b506040518060400160405280600e81526020017f547574656c6c757320546f6b656e0000000000000000000000000000000000008152506040518060400160405280600381526020017f54555400000000000000000000000000000000000000000000000000000000008152506aa56fa5b99019a5c8000000620000c1838383620002a160201b60201c565b505050604051620000d290620016a5565b604051809103906000f080158015620000ef573d6000803e3d6000fd5b5061013060006101000a81548173ffffffffffffffffffffffffffffffffffffffff021916908373ffffffffffffffffffffffffffffffffffffffff16021790555061013060009054906101000a900473ffffffffffffffffffffffffffffffffffffffff1673ffffffffffffffffffffffffffffffffffffffff1663c4d66de8306040518263ffffffff1660e01b81526004016200018f919062001902565b600060405180830381600087803b158015620001aa57600080fd5b505af1158015620001bf573d6000803e3d6000fd5b5050505061013060009054906101000a900473ffffffffffffffffffffffffffffffffffffffff1673ffffffffffffffffffffffffffffffffffffffff16632f2ff15d6000801b336040518363ffffffff1660e01b8152600401620002269291906200191f565b600060405180830381600087803b1580156200024157600080fd5b505af115801562000256573d6000803e3d6000fd5b505050506200029b7f9f2df0fed2c77648de5860a4cc508cd0818c85b8b8a1ab4ceeef8d981c8956a66200028f620003c660201b60201c565b620003f160201b60201c565b62001d00565b600060019054906101000a900460ff1680620002c8575060008054906101000a900460ff16155b6200030a576040517f08c379a00000000000000000000000000000000000000000000000000000000081526004016200030190620019b4565b60405180910390fd5b60008060019054906101000a900460ff1615905080156200035b576001600060016101000a81548160ff02191690831515021790555060016000806101000a81548160ff0219169083151502179055505b6200036b6200043a60201b60201c565b6200037d84846200054960201b60201c565b6200038e826200064c60201b60201c565b6200039e6200074d60201b60201c565b8015620003c05760008060016101000a81548160ff0219169083151502179055505b50505050565b600061013060009054906101000a900473ffffffffffffffffffffffffffffffffffffffff16905090565b62000402826200082c60201b60201c565b6200042381620004176200084c60201b60201c565b6200085460201b60201c565b6200043583836200091860201b60201c565b505050565b600060019054906101000a900460ff168062000461575060008054906101000a900460ff16155b620004a3576040517f08c379a00000000000000000000000000000000000000000000000000000000081526004016200049a90620019b4565b60405180910390fd5b60008060019054906101000a900460ff161590508015620004f4576001600060016101000a81548160ff02191690831515021790555060016000806101000a81548160ff0219169083151502179055505b6200050462000a0a60201b60201c565b6200051462000b1960201b60201c565b6200052462000c1860201b60201c565b8015620005465760008060016101000a81548160ff0219169083151502179055505b50565b600060019054906101000a900460ff168062000570575060008054906101000a900460ff16155b620005b2576040517f08c379a0000000000000000000000000000000000000000000000000000000008152600401620005a990620019b4565b60405180910390fd5b60008060019054906101000a900460ff16159050801562000603576001600060016101000a81548160ff02191690831515021790555060016000806101000a81548160ff0219169083151502179055505b6200061362000d3e60201b60201c565b62000625838362000e1d60201b60201c565b8015620006475760008060016101000a81548160ff0219169083151502179055505b505050565b600060019054906101000a900460ff168062000673575060008054906101000a900460ff16155b620006b5576040517f08c379a0000000000000000000000000000000000000000000000000000000008152600401620006ac90620019b4565b60405180910390fd5b60008060019054906101000a900460ff16159050801562000706576001600060016101000a81548160ff02191690831515021790555060016000806101000a81548160ff0219169083151502179055505b6200071662000d3e60201b60201c565b620007278262000f3060201b60201c565b8015620007495760008060016101000a81548160ff0219169083151502179055505b5050565b600060019054906101000a900460ff168062000774575060008054906101000a900460ff16155b620007b6576040517f08c379a0000000000000000000000000000000000000000000000000000000008152600401620007ad90620019b4565b60405180910390fd5b60008060019054906101000a900460ff16159050801562000807576001600060016101000a81548160ff02191690831515021790555060016000806101000a81548160ff0219169083151502179055505b8015620008295760008060016101000a81548160ff0219169083151502179055505b50565b600060656000838152602001908152602001600020600101549050919050565b600033905090565b6200086682826200105d60201b60201c565b6200091457620008998173ffffffffffffffffffffffffffffffffffffffff166014620010c860201b62000d1a1760201c565b620008b48360001c6020620010c860201b62000d1a1760201c565b604051602001620008c7929190620018c0565b6040516020818303038152906040526040517f08c379a00000000000000000000000000000000000000000000000000000000081526004016200090b91906200194c565b60405180910390fd5b5050565b6200092a82826200105d60201b60201c565b62000a065760016065600084815260200190815260200160002060000160008373ffffffffffffffffffffffffffffffffffffffff1673ffffffffffffffffffffffffffffffffffffffff16815260200190815260200160002060006101000a81548160ff021916908315150217905550620009ab6200084c60201b60201c565b73ffffffffffffffffffffffffffffffffffffffff168173ffffffffffffffffffffffffffffffffffffffff16837f2f8788117e7eff1d82e926ec794901d17c78024a50270940304540a733656f0d60405160405180910390a45b5050565b600060019054906101000a900460ff168062000a31575060008054906101000a900460ff16155b62000a73576040517f08c379a000000000000000000000000000000000000000000000000000000000815260040162000a6a90620019b4565b60405180910390fd5b60008060019054906101000a900460ff16159050801562000ac4576001600060016101000a81548160ff02191690831515021790555060016000806101000a81548160ff0219169083151502179055505b62000ad462000d3e60201b60201c565b62000ae4620013d760201b60201c565b62000af4620014b660201b60201c565b801562000b165760008060016101000a81548160ff0219169083151502179055505b50565b600060019054906101000a900460ff168062000b40575060008054906101000a900460ff16155b62000b82576040517f08c379a000000000000000000000000000000000000000000000000000000000815260040162000b7990620019b4565b60405180910390fd5b60008060019054906101000a900460ff16159050801562000bd3576001600060016101000a81548160ff02191690831515021790555060016000806101000a81548160ff0219169083151502179055505b62000be362000d3e60201b60201c565b62000bf36200159560201b60201c565b801562000c155760008060016101000a81548160ff0219169083151502179055505b50565b600060019054906101000a900460ff168062000c3f575060008054906101000a900460ff16155b62000c81576040517f08c379a000000000000000000000000000000000000000000000000000000000815260040162000c7890620019b4565b60405180910390fd5b60008060019054906101000a900460ff16159050801562000cd2576001600060016101000a81548160ff02191690831515021790555060016000806101000a81548160ff0219169083151502179055505b62000cf66000801b62000cea6200084c60201b60201c565b6200168f60201b60201c565b62000d1960c95462000d0d6200084c60201b60201c565b6200168f60201b60201c565b801562000d3b5760008060016101000a81548160ff0219169083151502179055505b50565b600060019054906101000a900460ff168062000d65575060008054906101000a900460ff16155b62000da7576040517f08c379a000000000000000000000000000000000000000000000000000000000815260040162000d9e90620019b4565b60405180910390fd5b60008060019054906101000a900460ff16159050801562000df8576001600060016101000a81548160ff02191690831515021790555060016000806101000a81548160ff0219169083151502179055505b801562000e1a5760008060016101000a81548160ff0219169083151502179055505b50565b600060019054906101000a900460ff168062000e44575060008054906101000a900460ff16155b62000e86576040517f08c379a000000000000000000000000000000000000000000000000000000000815260040162000e7d90620019b4565b60405180910390fd5b60008060019054906101000a900460ff16159050801562000ed7576001600060016101000a81548160ff02191690831515021790555060016000806101000a81548160ff0219169083151502179055505b8260cd908051906020019062000eef929190620016b3565b508160ce908051906020019062000f08929190620016b3565b50801562000f2b5760008060016101000a81548160ff0219169083151502179055505b505050565b600060019054906101000a900460ff168062000f57575060008054906101000a900460ff16155b62000f99576040517f08c379a000000000000000000000000000000000000000000000000000000000815260040162000f9090620019b4565b60405180910390fd5b60008060019054906101000a900460ff16159050801562000fea576001600060016101000a81548160ff02191690831515021790555060016000806101000a81548160ff0219169083151502179055505b6000821162001030576040517f08c379a0000000000000000000000000000000000000000000000000000000008152600401620010279062001992565b60405180910390fd5b8160fc819055508015620010595760008060016101000a81548160ff0219169083151502179055505b5050565b60006065600084815260200190815260200160002060000160008373ffffffffffffffffffffffffffffffffffffffff1673ffffffffffffffffffffffffffffffffffffffff16815260200190815260200160002060009054906101000a900460ff16905092915050565b606060006002836002620010dd919062001a5a565b620010e99190620019fd565b67ffffffffffffffff81111562001129577f4e487b7100000000000000000000000000000000000000000000000000000000600052604160045260246000fd5b6040519080825280601f01601f1916602001820160405280156200115c5781602001600182028036833780820191505090505b5090507f300000000000000000000000000000000000000000000000000000000000000081600081518110620011bb577f4e487b7100000000000000000000000000000000000000000000000000000000600052603260045260246000fd5b60200101907effffffffffffffffffffffffffffffffffffffffffffffffffffffffffffff1916908160001a9053507f78000000000000000000000000000000000000000000000000000000000000008160018151811062001246577f4e487b7100000000000000000000000000000000000000000000000000000000600052603260045260246000fd5b60200101907effffffffffffffffffffffffffffffffffffffffffffffffffffffffffffff1916908160001a9053506000600184600262001288919062001a5a565b620012949190620019fd565b90505b600181111562001386577f3031323334353637383961626364656600000000000000000000000000000000600f861660108110620012fe577f4e487b7100000000000000000000000000000000000000000000000000000000600052603260045260246000fd5b1a60f81b8282815181106200133c577f4e487b7100000000000000000000000000000000000000000000000000000000600052603260045260246000fd5b60200101907effffffffffffffffffffffffffffffffffffffffffffffffffffffffffffff1916908160001a905350600485901c9450806200137e9062001b39565b905062001297565b5060008414620013cd576040517f08c379a0000000000000000000000000000000000000000000000000000000008152600401620013c49062001970565b60405180910390fd5b8091505092915050565b600060019054906101000a900460ff1680620013fe575060008054906101000a900460ff16155b62001440576040517f08c379a00000000000000000000000000000000000000000000000000000000081526004016200143790620019b4565b60405180910390fd5b60008060019054906101000a900460ff16159050801562001491576001600060016101000a81548160ff02191690831515021790555060016000806101000a81548160ff0219169083151502179055505b8015620014b35760008060016101000a81548160ff0219169083151502179055505b50565b600060019054906101000a900460ff1680620014dd575060008054906101000a900460ff16155b6200151f576040517f08c379a00000000000000000000000000000000000000000000000000000000081526004016200151690620019b4565b60405180910390fd5b60008060019054906101000a900460ff16159050801562001570576001600060016101000a81548160ff02191690831515021790555060016000806101000a81548160ff0219169083151502179055505b8015620015925760008060016101000a81548160ff0219169083151502179055505b50565b600060019054906101000a900460ff1680620015bc575060008054906101000a900460ff16155b620015fe576040517f08c379a0000000000000000000000000000000000000000000000000000000008152600401620015f590620019b4565b60405180910390fd5b60008060019054906101000a900460ff1615905080156200164f576001600060016101000a81548160ff02191690831515021790555060016000806101000a81548160ff0219169083151502179055505b6000609760006101000a81548160ff02191690831515021790555080156200168c5760008060016101000a81548160ff0219169083151502179055505b50565b620016a182826200091860201b60201c565b5050565b613e3a8062004b1e83390190565b828054620016c19062001b68565b90600052602060002090601f016020900481019282620016e5576000855562001731565b82601f106200170057805160ff191683800117855562001731565b8280016001018555821562001731579182015b828111156200173057825182559160200191906001019062001713565b5b50905062001740919062001744565b5090565b5b808211156200175f57600081600090555060010162001745565b5090565b6200176e8162001abb565b82525050565b6200177f8162001acf565b82525050565b60006200179282620019d6565b6200179e8185620019e1565b9350620017b081856020860162001b03565b620017bb8162001bfc565b840191505092915050565b6000620017d382620019d6565b620017df8185620019f2565b9350620017f181856020860162001b03565b80840191505092915050565b60006200180c602083620019e1565b9150620018198262001c0d565b602082019050919050565b600062001833601583620019e1565b9150620018408262001c36565b602082019050919050565b60006200185a602e83620019e1565b9150620018678262001c5f565b604082019050919050565b600062001881601783620019f2565b91506200188e8262001cae565b601782019050919050565b6000620018a8601183620019f2565b9150620018b58262001cd7565b601182019050919050565b6000620018cd8262001872565b9150620018db8285620017c6565b9150620018e88262001899565b9150620018f68284620017c6565b91508190509392505050565b600060208201905062001919600083018462001763565b92915050565b600060408201905062001936600083018562001774565b62001945602083018462001763565b9392505050565b6000602082019050818103600083015262001968818462001785565b905092915050565b600060208201905081810360008301526200198b81620017fd565b9050919050565b60006020820190508181036000830152620019ad8162001824565b9050919050565b60006020820190508181036000830152620019cf816200184b565b9050919050565b600081519050919050565b600082825260208201905092915050565b600081905092915050565b600062001a0a8262001af9565b915062001a178362001af9565b9250827fffffffffffffffffffffffffffffffffffffffffffffffffffffffffffffffff0382111562001a4f5762001a4e62001b9e565b5b828201905092915050565b600062001a678262001af9565b915062001a748362001af9565b9250817fffffffffffffffffffffffffffffffffffffffffffffffffffffffffffffffff048311821515161562001ab05762001aaf62001b9e565b5b828202905092915050565b600062001ac88262001ad9565b9050919050565b6000819050919050565b600073ffffffffffffffffffffffffffffffffffffffff82169050919050565b6000819050919050565b60005b8381101562001b2357808201518184015260208101905062001b06565b8381111562001b33576000848401525b50505050565b600062001b468262001af9565b9150600082141562001b5d5762001b5c62001b9e565b5b600182039050919050565b6000600282049050600182168062001b8157607f821691505b6020821081141562001b985762001b9762001bcd565b5b50919050565b7f4e487b7100000000000000000000000000000000000000000000000000000000600052601160045260246000fd5b7f4e487b7100000000000000000000000000000000000000000000000000000000600052602260045260246000fd5b6000601f19601f8301169050919050565b7f537472696e67733a20686578206c656e67746820696e73756666696369656e74600082015250565b7f45524332304361707065643a2063617020697320300000000000000000000000600082015250565b7f496e697469616c697a61626c653a20636f6e747261637420697320616c72656160008201527f647920696e697469616c697a6564000000000000000000000000000000000000602082015250565b7f416363657373436f6e74726f6c3a206163636f756e7420000000000000000000600082015250565b7f206973206d697373696e6720726f6c6520000000000000000000000000000000600082015250565b612e0e8062001d106000396000f3fe608060405234801561001057600080fd5b50600436106101a95760003560e01c806342966c68116100f957806395d89b4111610097578063a9059cbb11610071578063a9059cbb146104be578063d547741f146104ee578063dd62ed3e1461050a578063fbfa77cf1461053a576101a9565b806395d89b4114610452578063a217fddf14610470578063a457c2d71461048e576101a9565b806370a08231116100d357806370a08231146103ca57806373f42561146103fa5780638456cb591461041857806391d1485414610422576101a9565b806342966c68146103745780635c975abb146103905780636c11c21c146103ae576101a9565b80632f2ff15d1161016657806336568abe1161014057806336568abe14610302578063395093511461031e5780633f4ba83a1461034e57806340c10f1914610358576101a9565b80632f2ff15d146102aa578063313ce567146102c6578063355274ea146102e4576101a9565b806301ffc9a7146101ae57806306fdde03146101de578063095ea7b3146101fc57806318160ddd1461022c57806323b872dd1461024a578063248a9ca31461027a575b600080fd5b6101c860048036038101906101c39190611f49565b610558565b6040516101d59190612367565b60405180910390f35b6101e66105d2565b6040516101f3919061239d565b60405180910390f35b61021660048036038101906102119190611ea8565b610664565b6040516102239190612367565b60405180910390f35b610234610682565b60405161024191906125df565b60405180910390f35b610264600480360381019061025f9190611e59565b61068c565b6040516102719190612367565b60405180910390f35b610294600480360381019061028f9190611ee4565b610784565b6040516102a19190612382565b60405180910390f35b6102c460048036038101906102bf9190611f0d565b6107a4565b005b6102ce6107cd565b6040516102db91906125fa565b60405180910390f35b6102ec6107d6565b6040516102f991906125df565b60405180910390f35b61031c60048036038101906103179190611f0d565b6107e0565b005b61033860048036038101906103339190611ea8565b610863565b6040516103459190612367565b60405180910390f35b61035661090f565b005b610372600480360381019061036d9190611ea8565b61092e565b005b61038e60048036038101906103899190611f72565b61096f565b005b610398610983565b6040516103a59190612367565b60405180910390f35b6103c860048036038101906103c39190611df4565b61099a565b005b6103e460048036038101906103df9190611df4565b6109bf565b6040516103f191906125df565b60405180910390f35b610402610a08565b60405161040f91906125df565b60405180910390f35b610420610a13565b005b61043c60048036038101906104379190611f0d565b610a32565b6040516104499190612367565b60405180910390f35b61045a610a9d565b604051610467919061239d565b60405180910390f35b610478610b2f565b6040516104859190612382565b60405180910390f35b6104a860048036038101906104a39190611ea8565b610b36565b6040516104b59190612367565b60405180910390f35b6104d860048036038101906104d39190611ea8565b610c21565b6040516104e59190612367565b60405180910390f35b61050860048036038101906105039190611f0d565b610c3f565b005b610524600480360381019061051f9190611e1d565b610c68565b60405161053191906125df565b60405180910390f35b610542610cef565b60405161054f9190612323565b60405180910390f35b60007f7965db0b000000000000000000000000000000000000000000000000000000007bffffffffffffffffffffffffffffffffffffffffffffffffffffffff1916827bffffffffffffffffffffffffffffffffffffffffffffffffffffffff191614806105cb57506105ca82611014565b5b9050919050565b606060cd80546105e190612808565b80601f016020809104026020016040519081016040528092919081815260200182805461060d90612808565b801561065a5780601f1061062f5761010080835404028352916020019161065a565b820191906000526020600020905b81548152906001019060200180831161063d57829003601f168201915b5050505050905090565b600061067861067161107e565b8484611086565b6001905092915050565b600060cc54905090565b6000610699848484611251565b600060cb60008673ffffffffffffffffffffffffffffffffffffffff1673ffffffffffffffffffffffffffffffffffffffff16815260200190815260200160002060006106e461107e565b73ffffffffffffffffffffffffffffffffffffffff1673ffffffffffffffffffffffffffffffffffffffff16815260200190815260200160002054905082811015610764576040517f08c379a000000000000000000000000000000000000000000000000000000000815260040161075b906124bf565b60405180910390fd5b6107788561077061107e565b858403611086565b60019150509392505050565b600060656000838152602001908152602001600020600101549050919050565b6107ad82610784565b6107be816107b961107e565b6114d5565b6107c88383611572565b505050565b60006012905090565b600060fc54905090565b6107e861107e565b73ffffffffffffffffffffffffffffffffffffffff168173ffffffffffffffffffffffffffffffffffffffff1614610855576040517f08c379a000000000000000000000000000000000000000000000000000000000815260040161084c9061259f565b60405180910390fd5b61085f8282611653565b5050565b600061090561087061107e565b848460cb600061087e61107e565b73ffffffffffffffffffffffffffffffffffffffff1673ffffffffffffffffffffffffffffffffffffffff16815260200190815260200160002060008873ffffffffffffffffffffffffffffffffffffffff1673ffffffffffffffffffffffffffffffffffffffff16815260200190815260200160002054610900919061263c565b611086565b6001905092915050565b60c9546109238161091e61107e565b6114d5565b61092b611735565b50565b7f9f2df0fed2c77648de5860a4cc508cd0818c85b8b8a1ab4ceeef8d981c8956a66109608161095b61107e565b6114d5565b61096a83836117d7565b505050565b61098061097a61107e565b82611888565b50565b6000609760009054906101000a900460ff16905090565b6000801b6109af816109aa61107e565b6114d5565b6109bb60c95483611941565b5050565b600060ca60008373ffffffffffffffffffffffffffffffffffffffff1673ffffffffffffffffffffffffffffffffffffffff168152602001908152602001600020549050919050565b600061012f54905090565b60c954610a2781610a2261107e565b6114d5565b610a2f61194f565b50565b60006065600084815260200190815260200160002060000160008373ffffffffffffffffffffffffffffffffffffffff1673ffffffffffffffffffffffffffffffffffffffff16815260200190815260200160002060009054906101000a900460ff16905092915050565b606060ce8054610aac90612808565b80601f0160208091040260200160405190810160405280929190818152602001828054610ad890612808565b8015610b255780601f10610afa57610100808354040283529160200191610b25565b820191906000526020600020905b815481529060010190602001808311610b0857829003601f168201915b5050505050905090565b6000801b81565b60008060cb6000610b4561107e565b73ffffffffffffffffffffffffffffffffffffffff1673ffffffffffffffffffffffffffffffffffffffff16815260200190815260200160002060008573ffffffffffffffffffffffffffffffffffffffff1673ffffffffffffffffffffffffffffffffffffffff16815260200190815260200160002054905082811015610c02576040517f08c379a0000000000000000000000000000000000000000000000000000000008152600401610bf99061257f565b60405180910390fd5b610c16610c0d61107e565b85858403611086565b600191505092915050565b6000610c35610c2e61107e565b8484611251565b6001905092915050565b610c4882610784565b610c5981610c5461107e565b6114d5565b610c638383611653565b505050565b600060cb60008473ffffffffffffffffffffffffffffffffffffffff1673ffffffffffffffffffffffffffffffffffffffff16815260200190815260200160002060008373ffffffffffffffffffffffffffffffffffffffff1673ffffffffffffffffffffffffffffffffffffffff16815260200190815260200160002054905092915050565b600061013060009054906101000a900473ffffffffffffffffffffffffffffffffffffffff16905090565b606060006002836002610d2d9190612692565b610d37919061263c565b67ffffffffffffffff811115610d76577f4e487b7100000000000000000000000000000000000000000000000000000000600052604160045260246000fd5b6040519080825280601f01601f191660200182016040528015610da85781602001600182028036833780820191505090505b5090507f300000000000000000000000000000000000000000000000000000000000000081600081518110610e06577f4e487b7100000000000000000000000000000000000000000000000000000000600052603260045260246000fd5b60200101907effffffffffffffffffffffffffffffffffffffffffffffffffffffffffffff1916908160001a9053507f780000000000000000000000000000000000000000000000000000000000000081600181518110610e90577f4e487b7100000000000000000000000000000000000000000000000000000000600052603260045260246000fd5b60200101907effffffffffffffffffffffffffffffffffffffffffffffffffffffffffffff1916908160001a90535060006001846002610ed09190612692565b610eda919061263c565b90505b6001811115610fc6577f3031323334353637383961626364656600000000000000000000000000000000600f861660108110610f42577f4e487b7100000000000000000000000000000000000000000000000000000000600052603260045260246000fd5b1a60f81b828281518110610f7f577f4e487b7100000000000000000000000000000000000000000000000000000000600052603260045260246000fd5b60200101907effffffffffffffffffffffffffffffffffffffffffffffffffffffffffffff1916908160001a905350600485901c945080610fbf906127de565b9050610edd565b506000841461100a576040517f08c379a0000000000000000000000000000000000000000000000000000000008152600401611001906123bf565b60405180910390fd5b8091505092915050565b60007f01ffc9a7000000000000000000000000000000000000000000000000000000007bffffffffffffffffffffffffffffffffffffffffffffffffffffffff1916827bffffffffffffffffffffffffffffffffffffffffffffffffffffffff1916149050919050565b600033905090565b600073ffffffffffffffffffffffffffffffffffffffff168373ffffffffffffffffffffffffffffffffffffffff1614156110f6576040517f08c379a00000000000000000000000000000000000000000000000000000000081526004016110ed9061253f565b60405180910390fd5b600073ffffffffffffffffffffffffffffffffffffffff168273ffffffffffffffffffffffffffffffffffffffff161415611166576040517f08c379a000000000000000000000000000000000000000000000000000000000815260040161115d9061245f565b60405180910390fd5b8060cb60008573ffffffffffffffffffffffffffffffffffffffff1673ffffffffffffffffffffffffffffffffffffffff16815260200190815260200160002060008473ffffffffffffffffffffffffffffffffffffffff1673ffffffffffffffffffffffffffffffffffffffff168152602001908152602001600020819055508173ffffffffffffffffffffffffffffffffffffffff168373ffffffffffffffffffffffffffffffffffffffff167f8c5be1e5ebec7d5bd14f71427d1e84f3dd0314c0f7b2291e5b200ac8c7c3b9258360405161124491906125df565b60405180910390a3505050565b600073ffffffffffffffffffffffffffffffffffffffff168373ffffffffffffffffffffffffffffffffffffffff1614156112c1576040517f08c379a00000000000000000000000000000000000000000000000000000000081526004016112b8906124ff565b60405180910390fd5b600073ffffffffffffffffffffffffffffffffffffffff168273ffffffffffffffffffffffffffffffffffffffff161415611331576040517f08c379a0000000000000000000000000000000000000000000000000000000008152600401611328906123df565b60405180910390fd5b61133c8383836119f2565b600060ca60008573ffffffffffffffffffffffffffffffffffffffff1673ffffffffffffffffffffffffffffffffffffffff168152602001908152602001600020549050818110156113c3576040517f08c379a00000000000000000000000000000000000000000000000000000000081526004016113ba9061247f565b60405180910390fd5b81810360ca60008673ffffffffffffffffffffffffffffffffffffffff1673ffffffffffffffffffffffffffffffffffffffff168152602001908152602001600020819055508160ca60008573ffffffffffffffffffffffffffffffffffffffff1673ffffffffffffffffffffffffffffffffffffffff1681526020019081526020016000206000828254611458919061263c565b925050819055508273ffffffffffffffffffffffffffffffffffffffff168473ffffffffffffffffffffffffffffffffffffffff167fddf252ad1be2c89b69c2b068fc378daa952ba7f163c4a11628f55a4df523b3ef846040516114bc91906125df565b60405180910390a36114cf8484846119f7565b50505050565b6114df8282610a32565b61156e576115048173ffffffffffffffffffffffffffffffffffffffff166014610d1a565b6115128360001c6020610d1a565b6040516020016115239291906122e9565b6040516020818303038152906040526040517f08c379a0000000000000000000000000000000000000000000000000000000008152600401611565919061239d565b60405180910390fd5b5050565b61157c8282610a32565b61164f5760016065600084815260200190815260200160002060000160008373ffffffffffffffffffffffffffffffffffffffff1673ffffffffffffffffffffffffffffffffffffffff16815260200190815260200160002060006101000a81548160ff0219169083151502179055506115f461107e565b73ffffffffffffffffffffffffffffffffffffffff168173ffffffffffffffffffffffffffffffffffffffff16837f2f8788117e7eff1d82e926ec794901d17c78024a50270940304540a733656f0d60405160405180910390a45b5050565b61165d8282610a32565b156117315760006065600084815260200190815260200160002060000160008373ffffffffffffffffffffffffffffffffffffffff1673ffffffffffffffffffffffffffffffffffffffff16815260200190815260200160002060006101000a81548160ff0219169083151502179055506116d661107e565b73ffffffffffffffffffffffffffffffffffffffff168173ffffffffffffffffffffffffffffffffffffffff16837ff6391f5c32d9c69d2a47ea670b442974b53935d1edc7fd64eb21e047a839171b60405160405180910390a45b5050565b61173d610983565b61177c576040517f08c379a0000000000000000000000000000000000000000000000000000000008152600401611773906123ff565b60405180910390fd5b6000609760006101000a81548160ff0219169083151502179055507f5db9ee0a495bf2e6ff9c91a7834c1ba4fdd244a5e8aa4e537bd38aeae4b073aa6117c061107e565b6040516117cd9190612323565b60405180910390a1565b6117df6107d6565b8161012f546117ec610682565b6117f6919061263c565b611800919061263c565b1115611841576040517f08c379a00000000000000000000000000000000000000000000000000000000081526004016118389061255f565b60405180910390fd5b61184b82826119fc565b7f0f6798a560793a54c3bcfe86a93cde1e73087d944c0ea20544137d4121396885828260405161187c92919061233e565b60405180910390a15050565b8061012f54611895610682565b61189f91906126ec565b10156118e0576040517f08c379a00000000000000000000000000000000000000000000000000000000081526004016118d79061243f565b60405180910390fd5b8061012f60008282546118f3919061263c565b925050819055506119048282611a66565b7fcc16f5dbb4873280815c1ee09dbd06736cffcc184412cf7a71a0fdb75d397ca5828260405161193592919061233e565b60405180910390a15050565b61194b8282611572565b5050565b611957610983565b15611997576040517f08c379a000000000000000000000000000000000000000000000000000000000815260040161198e9061249f565b60405180910390fd5b6001609760006101000a81548160ff0219169083151502179055507f62e78cea01bee320cd4e420270b5ea74000d11b0c9f74754ebdbfc544b05a2586119db61107e565b6040516119e89190612323565b60405180910390a1565b505050565b505050565b611a046107d6565b81611a0d610682565b611a17919061263c565b1115611a58576040517f08c379a0000000000000000000000000000000000000000000000000000000008152600401611a4f9061251f565b60405180910390fd5b611a628282611c3f565b5050565b600073ffffffffffffffffffffffffffffffffffffffff168273ffffffffffffffffffffffffffffffffffffffff161415611ad6576040517f08c379a0000000000000000000000000000000000000000000000000000000008152600401611acd906124df565b60405180910390fd5b611ae2826000836119f2565b600060ca60008473ffffffffffffffffffffffffffffffffffffffff1673ffffffffffffffffffffffffffffffffffffffff16815260200190815260200160002054905081811015611b69576040517f08c379a0000000000000000000000000000000000000000000000000000000008152600401611b609061241f565b60405180910390fd5b81810360ca60008573ffffffffffffffffffffffffffffffffffffffff1673ffffffffffffffffffffffffffffffffffffffff168152602001908152602001600020819055508160cc6000828254611bc191906126ec565b92505081905550600073ffffffffffffffffffffffffffffffffffffffff168373ffffffffffffffffffffffffffffffffffffffff167fddf252ad1be2c89b69c2b068fc378daa952ba7f163c4a11628f55a4df523b3ef84604051611c2691906125df565b60405180910390a3611c3a836000846119f7565b505050565b600073ffffffffffffffffffffffffffffffffffffffff168273ffffffffffffffffffffffffffffffffffffffff161415611caf576040517f08c379a0000000000000000000000000000000000000000000000000000000008152600401611ca6906125bf565b60405180910390fd5b611cbb600083836119f2565b8060cc6000828254611ccd919061263c565b925050819055508060ca60008473ffffffffffffffffffffffffffffffffffffffff1673ffffffffffffffffffffffffffffffffffffffff1681526020019081526020016000206000828254611d23919061263c565b925050819055508173ffffffffffffffffffffffffffffffffffffffff16600073ffffffffffffffffffffffffffffffffffffffff167fddf252ad1be2c89b69c2b068fc378daa952ba7f163c4a11628f55a4df523b3ef83604051611d8891906125df565b60405180910390a3611d9c600083836119f7565b5050565b600081359050611daf81612d7c565b92915050565b600081359050611dc481612d93565b92915050565b600081359050611dd981612daa565b92915050565b600081359050611dee81612dc1565b92915050565b600060208284031215611e0657600080fd5b6000611e1484828501611da0565b91505092915050565b60008060408385031215611e3057600080fd5b6000611e3e85828601611da0565b9250506020611e4f85828601611da0565b9150509250929050565b600080600060608486031215611e6e57600080fd5b6000611e7c86828701611da0565b9350506020611e8d86828701611da0565b9250506040611e9e86828701611ddf565b9150509250925092565b60008060408385031215611ebb57600080fd5b6000611ec985828601611da0565b9250506020611eda85828601611ddf565b9150509250929050565b600060208284031215611ef657600080fd5b6000611f0484828501611db5565b91505092915050565b60008060408385031215611f2057600080fd5b6000611f2e85828601611db5565b9250506020611f3f85828601611da0565b9150509250929050565b600060208284031215611f5b57600080fd5b6000611f6984828501611dca565b91505092915050565b600060208284031215611f8457600080fd5b6000611f9284828501611ddf565b91505092915050565b611fa481612720565b82525050565b611fb381612732565b82525050565b611fc28161273e565b82525050565b6000611fd382612615565b611fdd8185612620565b9350611fed8185602086016127ab565b611ff681612898565b840191505092915050565b600061200c82612615565b6120168185612631565b93506120268185602086016127ab565b80840191505092915050565b600061203f602083612620565b915061204a826128a9565b602082019050919050565b6000612062602383612620565b915061206d826128d2565b604082019050919050565b6000612085601483612620565b915061209082612921565b602082019050919050565b60006120a8602283612620565b91506120b38261294a565b604082019050919050565b60006120cb602883612620565b91506120d682612999565b604082019050919050565b60006120ee602283612620565b91506120f9826129e8565b604082019050919050565b6000612111602683612620565b915061211c82612a37565b604082019050919050565b6000612134601083612620565b915061213f82612a86565b602082019050919050565b6000612157602883612620565b915061216282612aaf565b604082019050919050565b600061217a602183612620565b915061218582612afe565b604082019050919050565b600061219d602583612620565b91506121a882612b4d565b604082019050919050565b60006121c0601983612620565b91506121cb82612b9c565b602082019050919050565b60006121e3602483612620565b91506121ee82612bc5565b604082019050919050565b6000612206602583612620565b915061221182612c14565b604082019050919050565b6000612229601783612631565b915061223482612c63565b601782019050919050565b600061224c602583612620565b915061225782612c8c565b604082019050919050565b600061226f601183612631565b915061227a82612cdb565b601182019050919050565b6000612292602f83612620565b915061229d82612d04565b604082019050919050565b60006122b5601f83612620565b91506122c082612d53565b602082019050919050565b6122d481612794565b82525050565b6122e38161279e565b82525050565b60006122f48261221c565b91506123008285612001565b915061230b82612262565b91506123178284612001565b91508190509392505050565b60006020820190506123386000830184611f9b565b92915050565b60006040820190506123536000830185611f9b565b61236060208301846122cb565b9392505050565b600060208201905061237c6000830184611faa565b92915050565b60006020820190506123976000830184611fb9565b92915050565b600060208201905081810360008301526123b78184611fc8565b905092915050565b600060208201905081810360008301526123d881612032565b9050919050565b600060208201905081810360008301526123f881612055565b9050919050565b6000602082019050818103600083015261241881612078565b9050919050565b600060208201905081810360008301526124388161209b565b9050919050565b60006020820190508181036000830152612458816120be565b9050919050565b60006020820190508181036000830152612478816120e1565b9050919050565b6000602082019050818103600083015261249881612104565b9050919050565b600060208201905081810360008301526124b881612127565b9050919050565b600060208201905081810360008301526124d88161214a565b9050919050565b600060208201905081810360008301526124f88161216d565b9050919050565b6000602082019050818103600083015261251881612190565b9050919050565b60006020820190508181036000830152612538816121b3565b9050919050565b60006020820190508181036000830152612558816121d6565b9050919050565b60006020820190508181036000830152612578816121f9565b9050919050565b600060208201905081810360008301526125988161223f565b9050919050565b600060208201905081810360008301526125b881612285565b9050919050565b600060208201905081810360008301526125d8816122a8565b9050919050565b60006020820190506125f460008301846122cb565b92915050565b600060208201905061260f60008301846122da565b92915050565b600081519050919050565b600082825260208201905092915050565b600081905092915050565b600061264782612794565b915061265283612794565b9250827fffffffffffffffffffffffffffffffffffffffffffffffffffffffffffffffff038211156126875761268661283a565b5b828201905092915050565b600061269d82612794565b91506126a883612794565b9250817fffffffffffffffffffffffffffffffffffffffffffffffffffffffffffffffff04831182151516156126e1576126e061283a565b5b828202905092915050565b60006126f782612794565b915061270283612794565b9250828210156127155761271461283a565b5b828203905092915050565b600061272b82612774565b9050919050565b60008115159050919050565b6000819050919050565b60007fffffffff0000000000000000000000000000000000000000000000000000000082169050919050565b600073ffffffffffffffffffffffffffffffffffffffff82169050919050565b6000819050919050565b600060ff82169050919050565b60005b838110156127c95780820151818401526020810190506127ae565b838111156127d8576000848401525b50505050565b60006127e982612794565b915060008214156127fd576127fc61283a565b5b600182039050919050565b6000600282049050600182168061282057607f821691505b6020821081141561283457612833612869565b5b50919050565b7f4e487b7100000000000000000000000000000000000000000000000000000000600052601160045260246000fd5b7f4e487b7100000000000000000000000000000000000000000000000000000000600052602260045260246000fd5b6000601f19601f8301169050919050565b7f537472696e67733a20686578206c656e67746820696e73756666696369656e74600082015250565b7f45524332303a207472616e7366657220746f20746865207a65726f206164647260008201527f6573730000000000000000000000000000000000000000000000000000000000602082015250565b7f5061757361626c653a206e6f7420706175736564000000000000000000000000600082015250565b7f45524332303a206275726e20616d6f756e7420657863656564732062616c616e60008201527f6365000000000000000000000000000000000000000000000000000000000000602082015250565b7f52656450696c6c45524332303a206275726e20616d6f756e742065786365656460008201527f7320737570706c79000000000000000000000000000000000000000000000000602082015250565b7f45524332303a20617070726f766520746f20746865207a65726f20616464726560008201527f7373000000000000000000000000000000000000000000000000000000000000602082015250565b7f45524332303a207472616e7366657220616d6f756e742065786365656473206260008201527f616c616e63650000000000000000000000000000000000000000000000000000602082015250565b7f5061757361626c653a2070617573656400000000000000000000000000000000600082015250565b7f45524332303a207472616e7366657220616d6f756e742065786365656473206160008201527f6c6c6f77616e6365000000000000000000000000000000000000000000000000602082015250565b7f45524332303a206275726e2066726f6d20746865207a65726f2061646472657360008201527f7300000000000000000000000000000000000000000000000000000000000000602082015250565b7f45524332303a207472616e736665722066726f6d20746865207a65726f20616460008201527f6472657373000000000000000000000000000000000000000000000000000000602082015250565b7f45524332304361707065643a2063617020657863656564656400000000000000600082015250565b7f45524332303a20617070726f76652066726f6d20746865207a65726f2061646460008201527f7265737300000000000000000000000000000000000000000000000000000000602082015250565b7f52656450696c6c45524332303a206d696e7420616d6f756e742065786365656460008201527f7320636170000000000000000000000000000000000000000000000000000000602082015250565b7f416363657373436f6e74726f6c3a206163636f756e7420000000000000000000600082015250565b7f45524332303a2064656372656173656420616c6c6f77616e63652062656c6f7760008201527f207a65726f000000000000000000000000000000000000000000000000000000602082015250565b7f206973206d697373696e6720726f6c6520000000000000000000000000000000600082015250565b7f416363657373436f6e74726f6c3a2063616e206f6e6c792072656e6f756e636560008201527f20726f6c657320666f722073656c660000000000000000000000000000000000602082015250565b7f45524332303a206d696e7420746f20746865207a65726f206164647265737300600082015250565b612d8581612720565b8114612d9057600080fd5b50565b612d9c8161273e565b8114612da757600080fd5b50565b612db381612748565b8114612dbe57600080fd5b50565b612dca81612794565b8114612dd557600080fd5b5056fea264697066735822122099fa0f408a1f9586d7657c70a621dfde9cfb4eb1e421fcb67b3aa340f9b8553f64736f6c6343000802003360806040527f65d7a28e3265b37a6474929f336521b332c1681b933f6cb9f3376673440d862a60c95534801561003457600080fd5b50613df6806100446000396000f3fe608060405234801561001057600080fd5b50600436106101c45760003560e01c80636c11c21c116100f9578063c07cfca911610097578063d547741f11610071578063d547741f1461052e578063e16880321461054a578063ef037b901461057a578063fc0c546a146105aa576101c4565b8063c07cfca9146104ab578063c4d66de8146104e2578063cb03fb1e146104fe576101c4565b806391d14854116100d357806391d14854146103fd5780639852595c1461042d5780639ecaf2b21461045d578063a217fddf1461048d576101c4565b80636c11c21c146103a75780638456cb59146103c357806384618ddc146103cd576101c4565b80633f4ba83a116101665780634e71d92d116101405780634e71d92d14610333578063578bcf351461033d5780635c975abb1461036d5780635f8f65811461038b576101c4565b80633f4ba83a146102c95780633f697ce9146102d35780634225e5bb14610303576101c4565b8063248a9ca3116101a2578063248a9ca3146102455780632f2ff15d1461027557806336568abe146102915780633c20e63b146102ad576101c4565b806301ffc9a7146101c957806310098ad5146101f9578063158a498814610229575b600080fd5b6101e360048036038101906101de9190613086565b6105c8565b6040516101f091906134ba565b60405180910390f35b610213600480360381019061020e9190612ec5565b610642565b60405161022091906136f7565b60405180910390f35b610243600480360381019061023e9190612fbc565b610667565b005b61025f600480360381019061025a9190613021565b6109dd565b60405161026c91906134d5565b60405180910390f35b61028f600480360381019061028a919061304a565b6109fd565b005b6102ab60048036038101906102a6919061304a565b610a26565b005b6102c760048036038101906102c29190612f2a565b610aa9565b005b6102d1610f42565b005b6102ed60048036038101906102e89190612ec5565b610f61565b6040516102fa91906136f7565b60405180910390f35b61031d60048036038101906103189190612ec5565b610fad565b60405161032a91906136f7565b60405180910390f35b61033b610ff9565b005b61035760048036038101906103529190612ec5565b61101b565b60405161036491906136f7565b60405180910390f35b610375611067565b60405161038291906134ba565b60405180910390f35b6103a560048036038101906103a09190612eee565b61107e565b005b6103c160048036038101906103bc9190612ec5565b6114f5565b005b6103cb61151a565b005b6103e760048036038101906103e29190612ec5565b611539565b6040516103f491906136f7565b60405180910390f35b6104176004803603810190610412919061304a565b611585565b60405161042491906134ba565b60405180910390f35b61044760048036038101906104429190612ec5565b6115f0565b60405161045491906136f7565b60405180910390f35b61047760048036038101906104729190612ec5565b61177d565b60405161048491906136f7565b60405180910390f35b6104956117c9565b6040516104a291906134d5565b60405180910390f35b6104c560048036038101906104c09190612ec5565b6117d0565b6040516104d9989796959493929190613512565b60405180910390f35b6104fc60048036038101906104f79190612ec5565b6118a0565b005b61051860048036038101906105139190612ec5565b6118ac565b60405161052591906136f7565b60405180910390f35b6105486004803603810190610543919061304a565b6118f8565b005b610564600480360381019061055f91906130af565b611921565b60405161057191906133ac565b60405180910390f35b610594600480360381019061058f9190612ec5565b611960565b6040516105a191906134ba565b60405180910390f35b6105b26119ae565b6040516105bf91906133ac565b60405180910390f35b60007f7965db0b000000000000000000000000000000000000000000000000000000007bffffffffffffffffffffffffffffffffffffffffffffffffffffffff1916827bffffffffffffffffffffffffffffffffffffffffffffffffffffffff1916148061063b575061063a826119d4565b5b9050919050565b600061064d8261101b565b610656836115f0565b610660919061381a565b9050919050565b61066f611067565b156106af576040517f08c379a00000000000000000000000000000000000000000000000000000000081526004016106a6906135f7565b60405180910390fd5b6106b7611a3e565b600060cb60008373ffffffffffffffffffffffffffffffffffffffff1673ffffffffffffffffffffffffffffffffffffffff16815260200190815260200160002090506000816001015411610741576040517f08c379a000000000000000000000000000000000000000000000000000000000815260040161073890613657565b60405180910390fd5b61074a826115f0565b81600201819055504381600701819055506000831161079e576040517f08c379a000000000000000000000000000000000000000000000000000000000815260040161079590613697565b60405180910390fd5b600060ca60009054906101000a900473ffffffffffffffffffffffffffffffffffffffff16905060006107d76107d2611a3e565b610642565b90508481101561081c576040517f08c379a000000000000000000000000000000000000000000000000000000000815260040161081390613677565b60405180910390fd5b8460cb6000610829611a3e565b73ffffffffffffffffffffffffffffffffffffffff1673ffffffffffffffffffffffffffffffffffffffff16815260200190815260200160002060030160008282546108759190613739565b925050819055508173ffffffffffffffffffffffffffffffffffffffff1663a9059cbb87876040518363ffffffff1660e01b81526004016108b7929190613491565b602060405180830381600087803b1580156108d157600080fd5b505af11580156108e5573d6000803e3d6000fd5b505050506040513d601f19601f820116820180604052508101906109099190612ff8565b610948576040517f08c379a000000000000000000000000000000000000000000000000000000000815260040161093f90613637565b60405180910390fd5b7fcc27ae92d0cb1b1cee817e78e1fd2d4aaf4b6fceecf8400f074698578a83c9be610971611a3e565b878760cb600061097f611a3e565b73ffffffffffffffffffffffffffffffffffffffff1673ffffffffffffffffffffffffffffffffffffffff168152602001908152602001600020600301546040516109cd94939291906133f0565b60405180910390a1505050505050565b600060656000838152602001908152602001600020600101549050919050565b610a06826109dd565b610a1781610a12611a3e565b611a46565b610a218383611ae3565b505050565b610a2e611a3e565b73ffffffffffffffffffffffffffffffffffffffff168173ffffffffffffffffffffffffffffffffffffffff1614610a9b576040517f08c379a0000000000000000000000000000000000000000000000000000000008152600401610a92906136b7565b60405180910390fd5b610aa58282611bc4565b5050565b6000801b610abe81610ab9611a3e565b611a46565b828211610b00576040517f08c379a0000000000000000000000000000000000000000000000000000000008152600401610af7906135d7565b60405180910390fd5b858560cb60008a73ffffffffffffffffffffffffffffffffffffffff1673ffffffffffffffffffffffffffffffffffffffff1681526020019081526020016000206000019190610b51929190612c5c565b508360cb60008973ffffffffffffffffffffffffffffffffffffffff1673ffffffffffffffffffffffffffffffffffffffff16815260200190815260200160002060010181905550600060cb60008973ffffffffffffffffffffffffffffffffffffffff1673ffffffffffffffffffffffffffffffffffffffff16815260200190815260200160002060020181905550600060cb60008973ffffffffffffffffffffffffffffffffffffffff1673ffffffffffffffffffffffffffffffffffffffff168152602001908152602001600020600301819055508282610c35919061381a565b84610c40919061378f565b60cb60008973ffffffffffffffffffffffffffffffffffffffff1673ffffffffffffffffffffffffffffffffffffffff168152602001908152602001600020600401819055508243610c929190613739565b60cb60008973ffffffffffffffffffffffffffffffffffffffff1673ffffffffffffffffffffffffffffffffffffffff168152602001908152602001600020600501819055508143610ce49190613739565b60cb60008973ffffffffffffffffffffffffffffffffffffffff1673ffffffffffffffffffffffffffffffffffffffff168152602001908152602001600020600601819055508243610d369190613739565b60cb60008973ffffffffffffffffffffffffffffffffffffffff1673ffffffffffffffffffffffffffffffffffffffff1681526020019081526020016000206007018190555060cc879080600181540180825580915050600190039060005260206000200160009091909190916101000a81548173ffffffffffffffffffffffffffffffffffffffff021916908373ffffffffffffffffffffffffffffffffffffffff160217905550600060ca60009054906101000a900473ffffffffffffffffffffffffffffffffffffffff1690508073ffffffffffffffffffffffffffffffffffffffff166340c10f1930876040518363ffffffff1660e01b8152600401610e41929190613491565b600060405180830381600087803b158015610e5b57600080fd5b505af1158015610e6f573d6000803e3d6000fd5b505050507f0952657fcdc89deb1828a23578e3ed7da8ae55a54c0c3ca7b8b83c6d41c0ab788888888860cb60008e73ffffffffffffffffffffffffffffffffffffffff1673ffffffffffffffffffffffffffffffffffffffff1681526020019081526020016000206005015460cb60008f73ffffffffffffffffffffffffffffffffffffffff1673ffffffffffffffffffffffffffffffffffffffff16815260200190815260200160002060060154604051610f3096959493929190613435565b60405180910390a15050505050505050565b60c954610f5681610f51611a3e565b611a46565b610f5e611ca6565b50565b600060cb60008373ffffffffffffffffffffffffffffffffffffffff1673ffffffffffffffffffffffffffffffffffffffff168152602001908152602001600020600501549050919050565b600060cb60008373ffffffffffffffffffffffffffffffffffffffff1673ffffffffffffffffffffffffffffffffffffffff168152602001908152602001600020600101549050919050565b611019611004611a3e565b61101461100f611a3e565b610642565b610667565b565b600060cb60008373ffffffffffffffffffffffffffffffffffffffff1673ffffffffffffffffffffffffffffffffffffffff168152602001908152602001600020600301549050919050565b6000609760009054906101000a900460ff16905090565b6000801b6110938161108e611a3e565b611a46565b61109c82611960565b156110dc576040517f08c379a00000000000000000000000000000000000000000000000000000000081526004016110d3906136d7565b60405180910390fd5b60cb60008473ffffffffffffffffffffffffffffffffffffffff1673ffffffffffffffffffffffffffffffffffffffff16815260200190815260200160002060000160cb60008473ffffffffffffffffffffffffffffffffffffffff1673ffffffffffffffffffffffffffffffffffffffff16815260200190815260200160002060000190805461116c90613938565b611177929190612ce2565b5060cb60008473ffffffffffffffffffffffffffffffffffffffff1673ffffffffffffffffffffffffffffffffffffffff1681526020019081526020016000206001015460cb60008473ffffffffffffffffffffffffffffffffffffffff1673ffffffffffffffffffffffffffffffffffffffff1681526020019081526020016000206001018190555060cb60008473ffffffffffffffffffffffffffffffffffffffff1673ffffffffffffffffffffffffffffffffffffffff1681526020019081526020016000206002015460cb60008473ffffffffffffffffffffffffffffffffffffffff1673ffffffffffffffffffffffffffffffffffffffff1681526020019081526020016000206002018190555060cb60008473ffffffffffffffffffffffffffffffffffffffff1673ffffffffffffffffffffffffffffffffffffffff1681526020019081526020016000206003015460cb60008473ffffffffffffffffffffffffffffffffffffffff1673ffffffffffffffffffffffffffffffffffffffff1681526020019081526020016000206003018190555060cb60008473ffffffffffffffffffffffffffffffffffffffff1673ffffffffffffffffffffffffffffffffffffffff1681526020019081526020016000206004015460cb60008473ffffffffffffffffffffffffffffffffffffffff1673ffffffffffffffffffffffffffffffffffffffff1681526020019081526020016000206004018190555060cb60008473ffffffffffffffffffffffffffffffffffffffff1673ffffffffffffffffffffffffffffffffffffffff1681526020019081526020016000206006015460cb60008473ffffffffffffffffffffffffffffffffffffffff1673ffffffffffffffffffffffffffffffffffffffff1681526020019081526020016000206006018190555060cb60008473ffffffffffffffffffffffffffffffffffffffff1673ffffffffffffffffffffffffffffffffffffffff1681526020019081526020016000206007015460cb60008473ffffffffffffffffffffffffffffffffffffffff1673ffffffffffffffffffffffffffffffffffffffff168152602001908152602001600020600701819055506114b783611d48565b7feaedf17022bf567d8cca748e506e8817762f90001f922f99dc02550d2011affd83836040516114e89291906133c7565b60405180910390a1505050565b6000801b61150a81611505611a3e565b611a46565b61151660c95483611f61565b5050565b60c95461152e81611529611a3e565b611a46565b611536611f6f565b50565b600060cb60008373ffffffffffffffffffffffffffffffffffffffff1673ffffffffffffffffffffffffffffffffffffffff168152602001908152602001600020600601549050919050565b60006065600084815260200190815260200160002060000160008373ffffffffffffffffffffffffffffffffffffffff1673ffffffffffffffffffffffffffffffffffffffff16815260200190815260200160002060009054906101000a900460ff16905092915050565b60008060cb60008473ffffffffffffffffffffffffffffffffffffffff1673ffffffffffffffffffffffffffffffffffffffff1681526020019081526020016000206040518061010001604052908160008201805461164e90613938565b80601f016020809104026020016040519081016040528092919081815260200182805461167a90613938565b80156116c75780601f1061169c576101008083540402835291602001916116c7565b820191906000526020600020905b8154815290600101906020018083116116aa57829003601f168201915b5050505050815260200160018201548152602001600282015481526020016003820154815260200160048201548152602001600582015481526020016006820154815260200160078201548152505090508060a00151431115611772578060c00151431061173c578060200151915050611778565b80608001518160e0015143611751919061381a565b61175b91906137c0565b816040015161176a9190613739565b915050611778565b60009150505b919050565b600060cb60008373ffffffffffffffffffffffffffffffffffffffff1673ffffffffffffffffffffffffffffffffffffffff168152602001908152602001600020600401549050919050565b6000801b81565b60cb6020528060005260406000206000915090508060000180546117f390613938565b80601f016020809104026020016040519081016040528092919081815260200182805461181f90613938565b801561186c5780601f106118415761010080835404028352916020019161186c565b820191906000526020600020905b81548152906001019060200180831161184f57829003601f168201915b5050505050908060010154908060020154908060030154908060040154908060050154908060060154908060070154905088565b6118a981612012565b50565b600060cb60008373ffffffffffffffffffffffffffffffffffffffff1673ffffffffffffffffffffffffffffffffffffffff168152602001908152602001600020600701549050919050565b611901826109dd565b6119128161190d611a3e565b611a46565b61191c8383611bc4565b505050565b60cc818154811061193157600080fd5b906000526020600020016000915054906101000a900473ffffffffffffffffffffffffffffffffffffffff1681565b60008060cb60008473ffffffffffffffffffffffffffffffffffffffff1673ffffffffffffffffffffffffffffffffffffffff16815260200190815260200160002060010154119050919050565b60ca60009054906101000a900473ffffffffffffffffffffffffffffffffffffffff1681565b60007f01ffc9a7000000000000000000000000000000000000000000000000000000007bffffffffffffffffffffffffffffffffffffffffffffffffffffffff1916827bffffffffffffffffffffffffffffffffffffffffffffffffffffffff1916149050919050565b600033905090565b611a508282611585565b611adf57611a758173ffffffffffffffffffffffffffffffffffffffff1660146120fd565b611a838360001c60206120fd565b604051602001611a94929190613372565b6040516020818303038152906040526040517f08c379a0000000000000000000000000000000000000000000000000000000008152600401611ad691906134f0565b60405180910390fd5b5050565b611aed8282611585565b611bc05760016065600084815260200190815260200160002060000160008373ffffffffffffffffffffffffffffffffffffffff1673ffffffffffffffffffffffffffffffffffffffff16815260200190815260200160002060006101000a81548160ff021916908315150217905550611b65611a3e565b73ffffffffffffffffffffffffffffffffffffffff168173ffffffffffffffffffffffffffffffffffffffff16837f2f8788117e7eff1d82e926ec794901d17c78024a50270940304540a733656f0d60405160405180910390a45b5050565b611bce8282611585565b15611ca25760006065600084815260200190815260200160002060000160008373ffffffffffffffffffffffffffffffffffffffff1673ffffffffffffffffffffffffffffffffffffffff16815260200190815260200160002060006101000a81548160ff021916908315150217905550611c47611a3e565b73ffffffffffffffffffffffffffffffffffffffff168173ffffffffffffffffffffffffffffffffffffffff16837ff6391f5c32d9c69d2a47ea670b442974b53935d1edc7fd64eb21e047a839171b60405160405180910390a45b5050565b611cae611067565b611ced576040517f08c379a0000000000000000000000000000000000000000000000000000000008152600401611ce4906135b7565b60405180910390fd5b6000609760006101000a81548160ff0219169083151502179055507f5db9ee0a495bf2e6ff9c91a7834c1ba4fdd244a5e8aa4e537bd38aeae4b073aa611d31611a3e565b604051611d3e91906133ac565b60405180910390a1565b6040518060200160405280600081525060cb60008373ffffffffffffffffffffffffffffffffffffffff1673ffffffffffffffffffffffffffffffffffffffff1681526020019081526020016000206000019080519060200190611dad929190612d6f565b50600060cb60008373ffffffffffffffffffffffffffffffffffffffff1673ffffffffffffffffffffffffffffffffffffffff16815260200190815260200160002060010181905550600060cb60008373ffffffffffffffffffffffffffffffffffffffff1673ffffffffffffffffffffffffffffffffffffffff16815260200190815260200160002060020181905550600060cb60008373ffffffffffffffffffffffffffffffffffffffff1673ffffffffffffffffffffffffffffffffffffffff16815260200190815260200160002060030181905550600060cb60008373ffffffffffffffffffffffffffffffffffffffff1673ffffffffffffffffffffffffffffffffffffffff16815260200190815260200160002060040181905550600060cb60008373ffffffffffffffffffffffffffffffffffffffff1673ffffffffffffffffffffffffffffffffffffffff16815260200190815260200160002060060181905550600060cb60008373ffffffffffffffffffffffffffffffffffffffff1673ffffffffffffffffffffffffffffffffffffffff1681526020019081526020016000206007018190555050565b611f6b8282611ae3565b5050565b611f77611067565b15611fb7576040517f08c379a0000000000000000000000000000000000000000000000000000000008152600401611fae906135f7565b60405180910390fd5b6001609760006101000a81548160ff0219169083151502179055507f62e78cea01bee320cd4e420270b5ea74000d11b0c9f74754ebdbfc544b05a258611ffb611a3e565b60405161200891906133ac565b60405180910390a1565b600060019054906101000a900460ff1680612038575060008054906101000a900460ff16155b612077576040517f08c379a000000000000000000000000000000000000000000000000000000000815260040161206e90613617565b60405180910390fd5b60008060019054906101000a900460ff1615905080156120c7576001600060016101000a81548160ff02191690831515021790555060016000806101000a81548160ff0219169083151502179055505b6120cf6123f7565b6120d8826124e8565b80156120f95760008060016101000a81548160ff0219169083151502179055505b5050565b60606000600283600261211091906137c0565b61211a9190613739565b67ffffffffffffffff811115612159577f4e487b7100000000000000000000000000000000000000000000000000000000600052604160045260246000fd5b6040519080825280601f01601f19166020018201604052801561218b5781602001600182028036833780820191505090505b5090507f3000000000000000000000000000000000000000000000000000000000000000816000815181106121e9577f4e487b7100000000000000000000000000000000000000000000000000000000600052603260045260246000fd5b60200101907effffffffffffffffffffffffffffffffffffffffffffffffffffffffffffff1916908160001a9053507f780000000000000000000000000000000000000000000000000000000000000081600181518110612273577f4e487b7100000000000000000000000000000000000000000000000000000000600052603260045260246000fd5b60200101907effffffffffffffffffffffffffffffffffffffffffffffffffffffffffffff1916908160001a905350600060018460026122b391906137c0565b6122bd9190613739565b90505b60018111156123a9577f3031323334353637383961626364656600000000000000000000000000000000600f861660108110612325577f4e487b7100000000000000000000000000000000000000000000000000000000600052603260045260246000fd5b1a60f81b828281518110612362577f4e487b7100000000000000000000000000000000000000000000000000000000600052603260045260246000fd5b60200101907effffffffffffffffffffffffffffffffffffffffffffffffffffffffffffff1916908160001a905350600485901c9450806123a29061390e565b90506122c0565b50600084146123ed576040517f08c379a00000000000000000000000000000000000000000000000000000000081526004016123e490613597565b60405180910390fd5b8091505092915050565b600060019054906101000a900460ff168061241d575060008054906101000a900460ff16155b61245c576040517f08c379a000000000000000000000000000000000000000000000000000000000815260040161245390613617565b60405180910390fd5b60008060019054906101000a900460ff1615905080156124ac576001600060016101000a81548160ff02191690831515021790555060016000806101000a81548160ff0219169083151502179055505b6124b4612603565b6124bc6126f4565b6124c46127dd565b80156124e55760008060016101000a81548160ff0219169083151502179055505b50565b600060019054906101000a900460ff168061250e575060008054906101000a900460ff16155b61254d576040517f08c379a000000000000000000000000000000000000000000000000000000000815260040161254490613617565b60405180910390fd5b60008060019054906101000a900460ff16159050801561259d576001600060016101000a81548160ff02191690831515021790555060016000806101000a81548160ff0219169083151502179055505b8160ca60006101000a81548173ffffffffffffffffffffffffffffffffffffffff021916908373ffffffffffffffffffffffffffffffffffffffff16021790555080156125ff5760008060016101000a81548160ff0219169083151502179055505b5050565b600060019054906101000a900460ff1680612629575060008054906101000a900460ff16155b612668576040517f08c379a000000000000000000000000000000000000000000000000000000000815260040161265f90613617565b60405180910390fd5b60008060019054906101000a900460ff1615905080156126b8576001600060016101000a81548160ff02191690831515021790555060016000806101000a81548160ff0219169083151502179055505b6126c06128dd565b6126c86129b6565b6126d0612a8f565b80156126f15760008060016101000a81548160ff0219169083151502179055505b50565b600060019054906101000a900460ff168061271a575060008054906101000a900460ff16155b612759576040517f08c379a000000000000000000000000000000000000000000000000000000000815260040161275090613617565b60405180910390fd5b60008060019054906101000a900460ff1615905080156127a9576001600060016101000a81548160ff02191690831515021790555060016000806101000a81548160ff0219169083151502179055505b6127b16128dd565b6127b9612b68565b80156127da5760008060016101000a81548160ff0219169083151502179055505b50565b600060019054906101000a900460ff1680612803575060008054906101000a900460ff16155b612842576040517f08c379a000000000000000000000000000000000000000000000000000000000815260040161283990613617565b60405180910390fd5b60008060019054906101000a900460ff161590508015612892576001600060016101000a81548160ff02191690831515021790555060016000806101000a81548160ff0219169083151502179055505b6128a66000801b6128a1611a3e565b611f61565b6128b960c9546128b4611a3e565b611f61565b80156128da5760008060016101000a81548160ff0219169083151502179055505b50565b600060019054906101000a900460ff1680612903575060008054906101000a900460ff16155b612942576040517f08c379a000000000000000000000000000000000000000000000000000000000815260040161293990613617565b60405180910390fd5b60008060019054906101000a900460ff161590508015612992576001600060016101000a81548160ff02191690831515021790555060016000806101000a81548160ff0219169083151502179055505b80156129b35760008060016101000a81548160ff0219169083151502179055505b50565b600060019054906101000a900460ff16806129dc575060008054906101000a900460ff16155b612a1b576040517f08c379a0000000000000000000000000000000000000000000000000000000008152600401612a1290613617565b60405180910390fd5b60008060019054906101000a900460ff161590508015612a6b576001600060016101000a81548160ff02191690831515021790555060016000806101000a81548160ff0219169083151502179055505b8015612a8c5760008060016101000a81548160ff0219169083151502179055505b50565b600060019054906101000a900460ff1680612ab5575060008054906101000a900460ff16155b612af4576040517f08c379a0000000000000000000000000000000000000000000000000000000008152600401612aeb90613617565b60405180910390fd5b60008060019054906101000a900460ff161590508015612b44576001600060016101000a81548160ff02191690831515021790555060016000806101000a81548160ff0219169083151502179055505b8015612b655760008060016101000a81548160ff0219169083151502179055505b50565b600060019054906101000a900460ff1680612b8e575060008054906101000a900460ff16155b612bcd576040517f08c379a0000000000000000000000000000000000000000000000000000000008152600401612bc490613617565b60405180910390fd5b60008060019054906101000a900460ff161590508015612c1d576001600060016101000a81548160ff02191690831515021790555060016000806101000a81548160ff0219169083151502179055505b6000609760006101000a81548160ff0219169083151502179055508015612c595760008060016101000a81548160ff0219169083151502179055505b50565b828054612c6890613938565b90600052602060002090601f016020900481019282612c8a5760008555612cd1565b82601f10612ca357803560ff1916838001178555612cd1565b82800160010185558215612cd1579182015b82811115612cd0578235825591602001919060010190612cb5565b5b509050612cde9190612df5565b5090565b828054612cee90613938565b90600052602060002090601f016020900481019282612d105760008555612d5e565b82601f10612d215780548555612d5e565b82800160010185558215612d5e57600052602060002091601f016020900482015b82811115612d5d578254825591600101919060010190612d42565b5b509050612d6b9190612df5565b5090565b828054612d7b90613938565b90600052602060002090601f016020900481019282612d9d5760008555612de4565b82601f10612db657805160ff1916838001178555612de4565b82800160010185558215612de4579182015b82811115612de3578251825591602001919060010190612dc8565b5b509050612df19190612df5565b5090565b5b80821115612e0e576000816000905550600101612df6565b5090565b600081359050612e2181613d4d565b92915050565b600081519050612e3681613d64565b92915050565b600081359050612e4b81613d7b565b92915050565b600081359050612e6081613d92565b92915050565b60008083601f840112612e7857600080fd5b8235905067ffffffffffffffff811115612e9157600080fd5b602083019150836001820283011115612ea957600080fd5b9250929050565b600081359050612ebf81613da9565b92915050565b600060208284031215612ed757600080fd5b6000612ee584828501612e12565b91505092915050565b60008060408385031215612f0157600080fd5b6000612f0f85828601612e12565b9250506020612f2085828601612e12565b9150509250929050565b60008060008060008060a08789031215612f4357600080fd5b6000612f5189828a01612e12565b965050602087013567ffffffffffffffff811115612f6e57600080fd5b612f7a89828a01612e66565b95509550506040612f8d89828a01612eb0565b9350506060612f9e89828a01612eb0565b9250506080612faf89828a01612eb0565b9150509295509295509295565b60008060408385031215612fcf57600080fd5b6000612fdd85828601612e12565b9250506020612fee85828601612eb0565b9150509250929050565b60006020828403121561300a57600080fd5b600061301884828501612e27565b91505092915050565b60006020828403121561303357600080fd5b600061304184828501612e3c565b91505092915050565b6000806040838503121561305d57600080fd5b600061306b85828601612e3c565b925050602061307c85828601612e12565b9150509250929050565b60006020828403121561309857600080fd5b60006130a684828501612e51565b91505092915050565b6000602082840312156130c157600080fd5b60006130cf84828501612eb0565b91505092915050565b6130e18161384e565b82525050565b6130f081613860565b82525050565b6130ff8161386c565b82525050565b6000613111838561371d565b935061311e8385846138cc565b613127836139f7565b840190509392505050565b600061313d82613712565b613147818561371d565b93506131578185602086016138db565b613160816139f7565b840191505092915050565b600061317682613712565b613180818561372e565b93506131908185602086016138db565b80840191505092915050565b60006131a960208361371d565b91506131b482613a08565b602082019050919050565b60006131cc60148361371d565b91506131d782613a31565b602082019050919050565b60006131ef60348361371d565b91506131fa82613a5a565b604082019050919050565b600061321260108361371d565b915061321d82613aa9565b602082019050919050565b6000613235602e8361371d565b915061324082613ad2565b604082019050919050565b600061325860228361371d565b915061326382613b21565b604082019050919050565b600061327b60348361371d565b915061328682613b70565b604082019050919050565b600061329e60268361371d565b91506132a982613bbf565b604082019050919050565b60006132c160178361372e565b91506132cc82613c0e565b601782019050919050565b60006132e460288361371d565b91506132ef82613c37565b604082019050919050565b600061330760118361372e565b915061331282613c86565b601182019050919050565b600061332a602f8361371d565b915061333582613caf565b604082019050919050565b600061334d60378361371d565b915061335882613cfe565b604082019050919050565b61336c816138c2565b82525050565b600061337d826132b4565b9150613389828561316b565b9150613394826132fa565b91506133a0828461316b565b91508190509392505050565b60006020820190506133c160008301846130d8565b92915050565b60006040820190506133dc60008301856130d8565b6133e960208301846130d8565b9392505050565b600060808201905061340560008301876130d8565b61341260208301866130d8565b61341f6040830185613363565b61342c6060830184613363565b95945050505050565b600060a08201905061344a60008301896130d8565b818103602083015261345d818789613105565b905061346c6040830186613363565b6134796060830185613363565b6134866080830184613363565b979650505050505050565b60006040820190506134a660008301856130d8565b6134b36020830184613363565b9392505050565b60006020820190506134cf60008301846130e7565b92915050565b60006020820190506134ea60008301846130f6565b92915050565b6000602082019050818103600083015261350a8184613132565b905092915050565b600061010082019050818103600083015261352d818b613132565b905061353c602083018a613363565b6135496040830189613363565b6135566060830188613363565b6135636080830187613363565b61357060a0830186613363565b61357d60c0830185613363565b61358a60e0830184613363565b9998505050505050505050565b600060208201905081810360008301526135b08161319c565b9050919050565b600060208201905081810360008301526135d0816131bf565b9050919050565b600060208201905081810360008301526135f0816131e2565b9050919050565b6000602082019050818103600083015261361081613205565b9050919050565b6000602082019050818103600083015261363081613228565b9050919050565b600060208201905081810360008301526136508161324b565b9050919050565b600060208201905081810360008301526136708161326e565b9050919050565b6000602082019050818103600083015261369081613291565b9050919050565b600060208201905081810360008301526136b0816132d7565b9050919050565b600060208201905081810360008301526136d08161331d565b9050919050565b600060208201905081810360008301526136f081613340565b9050919050565b600060208201905061370c6000830184613363565b92915050565b600081519050919050565b600082825260208201905092915050565b600081905092915050565b6000613744826138c2565b915061374f836138c2565b9250827fffffffffffffffffffffffffffffffffffffffffffffffffffffffffffffffff038211156137845761378361396a565b5b828201905092915050565b600061379a826138c2565b91506137a5836138c2565b9250826137b5576137b4613999565b5b828204905092915050565b60006137cb826138c2565b91506137d6836138c2565b9250817fffffffffffffffffffffffffffffffffffffffffffffffffffffffffffffffff048311821515161561380f5761380e61396a565b5b828202905092915050565b6000613825826138c2565b9150613830836138c2565b9250828210156138435761384261396a565b5b828203905092915050565b6000613859826138a2565b9050919050565b60008115159050919050565b6000819050919050565b60007fffffffff0000000000000000000000000000000000000000000000000000000082169050919050565b600073ffffffffffffffffffffffffffffffffffffffff82169050919050565b6000819050919050565b82818337600083830152505050565b60005b838110156138f95780820151818401526020810190506138de565b83811115613908576000848401525b50505050565b6000613919826138c2565b9150600082141561392d5761392c61396a565b5b600182039050919050565b6000600282049050600182168061395057607f821691505b60208210811415613964576139636139c8565b5b50919050565b7f4e487b7100000000000000000000000000000000000000000000000000000000600052601160045260246000fd5b7f4e487b7100000000000000000000000000000000000000000000000000000000600052601260045260246000fd5b7f4e487b7100000000000000000000000000000000000000000000000000000000600052602260045260246000fd5b6000601f19601f8301169050919050565b7f537472696e67733a20686578206c656e67746820696e73756666696369656e74600082015250565b7f5061757361626c653a206e6f7420706175736564000000000000000000000000600082015250565b7f446973747269627574696f6e5661756c743a20656e64426c6f636b206d75737460008201527f206265206166746572207374617274426c6f636b000000000000000000000000602082015250565b7f5061757361626c653a2070617573656400000000000000000000000000000000600082015250565b7f496e697469616c697a61626c653a20636f6e747261637420697320616c72656160008201527f647920696e697469616c697a6564000000000000000000000000000000000000602082015250565b7f446973747269627574696f6e5661756c743a205472616e73666572206661696c60008201527f6564000000000000000000000000000000000000000000000000000000000000602082015250565b7f446973747269627574696f6e5661756c743a205468697320616464726573732060008201527f6973206e6f742061207374616b65686f6c646572000000000000000000000000602082015250565b7f446973747269627574696f6e5661756c743a204e6f20617661696c61626c652060008201527f746f6b656e730000000000000000000000000000000000000000000000000000602082015250565b7f416363657373436f6e74726f6c3a206163636f756e7420000000000000000000600082015250565b7f446973747269627574696f6e5661756c743a204e6f7468696e6720746f20646960008201527f7374726962757465000000000000000000000000000000000000000000000000602082015250565b7f206973206d697373696e6720726f6c6520000000000000000000000000000000600082015250565b7f416363657373436f6e74726f6c3a2063616e206f6e6c792072656e6f756e636560008201527f20726f6c657320666f722073656c660000000000000000000000000000000000602082015250565b7f446973747269627574696f6e5661756c743a206e65772061646472657373206960008201527f7320616c72656164792061207374616b65686f6c646572000000000000000000602082015250565b613d568161384e565b8114613d6157600080fd5b50565b613d6d81613860565b8114613d7857600080fd5b50565b613d848161386c565b8114613d8f57600080fd5b50565b613d9b81613876565b8114613da657600080fd5b50565b613db2816138c2565b8114613dbd57600080fd5b5056fea2646970667358221220ad5e9fb3d7bbb1a149ae649f8b9420a22c0ffa608f4f75e90ee438d118543f7264736f6c63430008020033",
  "linkReferences": {},
  "deployedLinkReferences": {}
}