{
  "_format": "hh-sol-artifact-1",
  "contractName": "TutellusDIDV2",
  "sourceName": "contracts/utils/TutellusDIDV2.sol",
  "abi": [
    {
      "anonymous": false,
      "inputs": [
        {
          "indexed": true,
          "internalType": "bytes32",
          "name": "role",
          "type": "bytes32"
        },
        {
          "indexed": true,
          "internalType": "bytes32",
          "name": "previousAdminRole",
          "type": "bytes32"
        },
        {
          "indexed": true,
          "internalType": "bytes32",
          "name": "newAdminRole",
          "type": "bytes32"
        }
      ],
      "name": "RoleAdminChanged",
      "type": "event"
    },
    {
      "anonymous": false,
      "inputs": [
        {
          "indexed": true,
          "internalType": "bytes32",
          "name": "role",
          "type": "bytes32"
        },
        {
          "indexed": true,
          "internalType": "address",
          "name": "account",
          "type": "address"
        },
        {
          "indexed": true,
          "internalType": "address",
          "name": "sender",
          "type": "address"
        }
      ],
      "name": "RoleGranted",
      "type": "event"
    },
    {
      "anonymous": false,
      "inputs": [
        {
          "indexed": true,
          "internalType": "bytes32",
          "name": "role",
          "type": "bytes32"
        },
        {
          "indexed": true,
          "internalType": "address",
          "name": "account",
          "type": "address"
        },
        {
          "indexed": true,
          "internalType": "address",
          "name": "sender",
          "type": "address"
        }
      ],
      "name": "RoleRevoked",
      "type": "event"
    },
    {
      "inputs": [],
      "name": "DEFAULT_ADMIN_ROLE",
      "outputs": [
        {
          "internalType": "bytes32",
          "name": "",
          "type": "bytes32"
        }
      ],
      "stateMutability": "view",
      "type": "function"
    },
    {
      "inputs": [],
      "name": "OWNER_ROLE",
      "outputs": [
        {
          "internalType": "bytes32",
          "name": "",
          "type": "bytes32"
        }
      ],
      "stateMutability": "view",
      "type": "function"
    },
    {
      "inputs": [
        {
          "internalType": "bytes32",
          "name": "role",
          "type": "bytes32"
        }
      ],
      "name": "getRoleAdmin",
      "outputs": [
        {
          "internalType": "bytes32",
          "name": "",
          "type": "bytes32"
        }
      ],
      "stateMutability": "view",
      "type": "function"
    },
    {
      "inputs": [
        {
          "internalType": "bytes32",
          "name": "role",
          "type": "bytes32"
        },
        {
          "internalType": "address",
          "name": "account",
          "type": "address"
        }
      ],
      "name": "grantRole",
      "outputs": [],
      "stateMutability": "nonpayable",
      "type": "function"
    },
    {
      "inputs": [
        {
          "internalType": "bytes32",
          "name": "role",
          "type": "bytes32"
        },
        {
          "internalType": "address",
          "name": "account",
          "type": "address"
        }
      ],
      "name": "hasRole",
      "outputs": [
        {
          "internalType": "bool",
          "name": "",
          "type": "bool"
        }
      ],
      "stateMutability": "view",
      "type": "function"
    },
    {
      "inputs": [
        {
          "internalType": "address",
          "name": "proxyOwner",
          "type": "address"
        }
      ],
      "name": "initialize",
      "outputs": [],
      "stateMutability": "nonpayable",
      "type": "function"
    },
    {
      "inputs": [
        {
          "internalType": "bytes32",
          "name": "role",
          "type": "bytes32"
        },
        {
          "internalType": "address",
          "name": "account",
          "type": "address"
        }
      ],
      "name": "renounceRole",
      "outputs": [],
      "stateMutability": "nonpayable",
      "type": "function"
    },
    {
      "inputs": [
        {
          "internalType": "bytes32",
          "name": "role",
          "type": "bytes32"
        },
        {
          "internalType": "address",
          "name": "account",
          "type": "address"
        }
      ],
      "name": "revokeRole",
      "outputs": [],
      "stateMutability": "nonpayable",
      "type": "function"
    },
    {
      "inputs": [
        {
          "internalType": "bytes4",
          "name": "interfaceId",
          "type": "bytes4"
        }
      ],
      "name": "supportsInterface",
      "outputs": [
        {
          "internalType": "bool",
          "name": "",
          "type": "bool"
        }
      ],
      "stateMutability": "view",
      "type": "function"
    },
    {
      "inputs": [],
      "name": "version",
      "outputs": [
        {
          "internalType": "string",
          "name": "",
          "type": "string"
        }
      ],
      "stateMutability": "pure",
      "type": "function"
    }
  ],
  "bytecode": "0x608060405234801561001057600080fd5b50611553806100206000396000f3fe608060405234801561001057600080fd5b506004361061009e5760003560e01c806391d148541161006657806391d1485414610159578063a217fddf14610189578063c4d66de8146101a7578063d547741f146101c3578063e58378bb146101df5761009e565b806301ffc9a7146100a3578063248a9ca3146100d35780632f2ff15d1461010357806336568abe1461011f57806354fd4d501461013b575b600080fd5b6100bd60048036038101906100b89190610f7b565b6101fd565b6040516100ca9190611115565b60405180910390f35b6100ed60048036038101906100e89190610f16565b610277565b6040516100fa9190611130565b60405180910390f35b61011d60048036038101906101189190610f3f565b610297565b005b61013960048036038101906101349190610f3f565b6102c0565b005b610143610343565b604051610150919061114b565b60405180910390f35b610173600480360381019061016e9190610f3f565b610380565b6040516101809190611115565b60405180910390f35b6101916103eb565b60405161019e9190611130565b60405180910390f35b6101c160048036038101906101bc9190610eed565b6103f2565b005b6101dd60048036038101906101d89190610f3f565b61050b565b005b6101e7610534565b6040516101f49190611130565b60405180910390f35b60007f7965db0b000000000000000000000000000000000000000000000000000000007bffffffffffffffffffffffffffffffffffffffffffffffffffffffff1916827bffffffffffffffffffffffffffffffffffffffffffffffffffffffff19161480610270575061026f82610558565b5b9050919050565b600060656000838152602001908152602001600020600101549050919050565b6102a082610277565b6102b1816102ac6105c2565b6105ca565b6102bb8383610667565b505050565b6102c86105c2565b73ffffffffffffffffffffffffffffffffffffffff168173ffffffffffffffffffffffffffffffffffffffff1614610335576040517f08c379a000000000000000000000000000000000000000000000000000000000815260040161032c906111ad565b60405180910390fd5b61033f8282610748565b5050565b60606040518060400160405280600681526020017f76302e302e320000000000000000000000000000000000000000000000000000815250905090565b60006065600084815260200190815260200160002060000160008373ffffffffffffffffffffffffffffffffffffffff1673ffffffffffffffffffffffffffffffffffffffff16815260200190815260200160002060009054906101000a900460ff16905092915050565b6000801b81565b600060019054906101000a900460ff1680610418575060008054906101000a900460ff16155b610457576040517f08c379a000000000000000000000000000000000000000000000000000000000815260040161044e9061118d565b60405180910390fd5b60008060019054906101000a900460ff1615905080156104a7576001600060016101000a81548160ff02191690831515021790555060016000806101000a81548160ff0219169083151502179055505b6104af61082a565b6104bc6000801b8361091b565b6104e67fb19546dff01e856fb3f010c267a7b1c60363cf8a4664e21cc89c26224620214e8361091b565b80156105075760008060016101000a81548160ff0219169083151502179055505b5050565b61051482610277565b610525816105206105c2565b6105ca565b61052f8383610748565b505050565b7fb19546dff01e856fb3f010c267a7b1c60363cf8a4664e21cc89c26224620214e81565b60007f01ffc9a7000000000000000000000000000000000000000000000000000000007bffffffffffffffffffffffffffffffffffffffffffffffffffffffff1916827bffffffffffffffffffffffffffffffffffffffffffffffffffffffff1916149050919050565b600033905090565b6105d48282610380565b610663576105f98173ffffffffffffffffffffffffffffffffffffffff166014610929565b6106078360001c6020610929565b6040516020016106189291906110db565b6040516020818303038152906040526040517f08c379a000000000000000000000000000000000000000000000000000000000815260040161065a919061114b565b60405180910390fd5b5050565b6106718282610380565b6107445760016065600084815260200190815260200160002060000160008373ffffffffffffffffffffffffffffffffffffffff1673ffffffffffffffffffffffffffffffffffffffff16815260200190815260200160002060006101000a81548160ff0219169083151502179055506106e96105c2565b73ffffffffffffffffffffffffffffffffffffffff168173ffffffffffffffffffffffffffffffffffffffff16837f2f8788117e7eff1d82e926ec794901d17c78024a50270940304540a733656f0d60405160405180910390a45b5050565b6107528282610380565b156108265760006065600084815260200190815260200160002060000160008373ffffffffffffffffffffffffffffffffffffffff1673ffffffffffffffffffffffffffffffffffffffff16815260200190815260200160002060006101000a81548160ff0219169083151502179055506107cb6105c2565b73ffffffffffffffffffffffffffffffffffffffff168173ffffffffffffffffffffffffffffffffffffffff16837ff6391f5c32d9c69d2a47ea670b442974b53935d1edc7fd64eb21e047a839171b60405160405180910390a45b5050565b600060019054906101000a900460ff1680610850575060008054906101000a900460ff16155b61088f576040517f08c379a00000000000000000000000000000000000000000000000000000000081526004016108869061118d565b60405180910390fd5b60008060019054906101000a900460ff1615905080156108df576001600060016101000a81548160ff02191690831515021790555060016000806101000a81548160ff0219169083151502179055505b6108e7610c23565b6108ef610cfc565b6108f7610dd5565b80156109185760008060016101000a81548160ff0219169083151502179055505b50565b6109258282610667565b5050565b60606000600283600261093c919061124a565b61094691906111f4565b67ffffffffffffffff811115610985577f4e487b7100000000000000000000000000000000000000000000000000000000600052604160045260246000fd5b6040519080825280601f01601f1916602001820160405280156109b75781602001600182028036833780820191505090505b5090507f300000000000000000000000000000000000000000000000000000000000000081600081518110610a15577f4e487b7100000000000000000000000000000000000000000000000000000000600052603260045260246000fd5b60200101907effffffffffffffffffffffffffffffffffffffffffffffffffffffffffffff1916908160001a9053507f780000000000000000000000000000000000000000000000000000000000000081600181518110610a9f577f4e487b7100000000000000000000000000000000000000000000000000000000600052603260045260246000fd5b60200101907effffffffffffffffffffffffffffffffffffffffffffffffffffffffffffff1916908160001a90535060006001846002610adf919061124a565b610ae991906111f4565b90505b6001811115610bd5577f3031323334353637383961626364656600000000000000000000000000000000600f861660108110610b51577f4e487b7100000000000000000000000000000000000000000000000000000000600052603260045260246000fd5b1a60f81b828281518110610b8e577f4e487b7100000000000000000000000000000000000000000000000000000000600052603260045260246000fd5b60200101907effffffffffffffffffffffffffffffffffffffffffffffffffffffffffffff1916908160001a905350600485901c945080610bce90611355565b9050610aec565b5060008414610c19576040517f08c379a0000000000000000000000000000000000000000000000000000000008152600401610c109061116d565b60405180910390fd5b8091505092915050565b600060019054906101000a900460ff1680610c49575060008054906101000a900460ff16155b610c88576040517f08c379a0000000000000000000000000000000000000000000000000000000008152600401610c7f9061118d565b60405180910390fd5b60008060019054906101000a900460ff161590508015610cd8576001600060016101000a81548160ff02191690831515021790555060016000806101000a81548160ff0219169083151502179055505b8015610cf95760008060016101000a81548160ff0219169083151502179055505b50565b600060019054906101000a900460ff1680610d22575060008054906101000a900460ff16155b610d61576040517f08c379a0000000000000000000000000000000000000000000000000000000008152600401610d589061118d565b60405180910390fd5b60008060019054906101000a900460ff161590508015610db1576001600060016101000a81548160ff02191690831515021790555060016000806101000a81548160ff0219169083151502179055505b8015610dd25760008060016101000a81548160ff0219169083151502179055505b50565b600060019054906101000a900460ff1680610dfb575060008054906101000a900460ff16155b610e3a576040517f08c379a0000000000000000000000000000000000000000000000000000000008152600401610e319061118d565b60405180910390fd5b60008060019054906101000a900460ff161590508015610e8a576001600060016101000a81548160ff02191690831515021790555060016000806101000a81548160ff0219169083151502179055505b8015610eab5760008060016101000a81548160ff0219169083151502179055505b50565b600081359050610ebd816114d8565b92915050565b600081359050610ed2816114ef565b92915050565b600081359050610ee781611506565b92915050565b600060208284031215610eff57600080fd5b6000610f0d84828501610eae565b91505092915050565b600060208284031215610f2857600080fd5b6000610f3684828501610ec3565b91505092915050565b60008060408385031215610f5257600080fd5b6000610f6085828601610ec3565b9250506020610f7185828601610eae565b9150509250929050565b600060208284031215610f8d57600080fd5b6000610f9b84828501610ed8565b91505092915050565b610fad816112b6565b82525050565b610fbc816112c2565b82525050565b6000610fcd826111cd565b610fd781856111d8565b9350610fe7818560208601611322565b610ff0816113ae565b840191505092915050565b6000611006826111cd565b61101081856111e9565b9350611020818560208601611322565b80840191505092915050565b60006110396020836111d8565b9150611044826113bf565b602082019050919050565b600061105c602e836111d8565b9150611067826113e8565b604082019050919050565b600061107f6017836111e9565b915061108a82611437565b601782019050919050565b60006110a26011836111e9565b91506110ad82611460565b601182019050919050565b60006110c5602f836111d8565b91506110d082611489565b604082019050919050565b60006110e682611072565b91506110f28285610ffb565b91506110fd82611095565b91506111098284610ffb565b91508190509392505050565b600060208201905061112a6000830184610fa4565b92915050565b60006020820190506111456000830184610fb3565b92915050565b600060208201905081810360008301526111658184610fc2565b905092915050565b600060208201905081810360008301526111868161102c565b9050919050565b600060208201905081810360008301526111a68161104f565b9050919050565b600060208201905081810360008301526111c6816110b8565b9050919050565b600081519050919050565b600082825260208201905092915050565b600081905092915050565b60006111ff82611318565b915061120a83611318565b9250827fffffffffffffffffffffffffffffffffffffffffffffffffffffffffffffffff0382111561123f5761123e61137f565b5b828201905092915050565b600061125582611318565b915061126083611318565b9250817fffffffffffffffffffffffffffffffffffffffffffffffffffffffffffffffff04831182151516156112995761129861137f565b5b828202905092915050565b60006112af826112f8565b9050919050565b60008115159050919050565b6000819050919050565b60007fffffffff0000000000000000000000000000000000000000000000000000000082169050919050565b600073ffffffffffffffffffffffffffffffffffffffff82169050919050565b6000819050919050565b60005b83811015611340578082015181840152602081019050611325565b8381111561134f576000848401525b50505050565b600061136082611318565b915060008214156113745761137361137f565b5b600182039050919050565b7f4e487b7100000000000000000000000000000000000000000000000000000000600052601160045260246000fd5b6000601f19601f8301169050919050565b7f537472696e67733a20686578206c656e67746820696e73756666696369656e74600082015250565b7f496e697469616c697a61626c653a20636f6e747261637420697320616c72656160008201527f647920696e697469616c697a6564000000000000000000000000000000000000602082015250565b7f416363657373436f6e74726f6c3a206163636f756e7420000000000000000000600082015250565b7f206973206d697373696e6720726f6c6520000000000000000000000000000000600082015250565b7f416363657373436f6e74726f6c3a2063616e206f6e6c792072656e6f756e636560008201527f20726f6c657320666f722073656c660000000000000000000000000000000000602082015250565b6114e1816112a4565b81146114ec57600080fd5b50565b6114f8816112c2565b811461150357600080fd5b50565b61150f816112cc565b811461151a57600080fd5b5056fea26469706673582212200eae05f3aafcef91c6df3e0f29e6666adc24f21a20e801a966bcdb9517d4de7164736f6c63430008020033",
  "linkReferences": {},
  "deployedLinkReferences": {}
}