{
  "_format": "hh-sol-artifact-1",
  "contractName": "TutellusDeployer",
  "sourceName": "contracts/TutellusDeployer.sol",
  "abi": [
    {
      "inputs": [
        {
          "internalType": "address",
          "name": "treasury_",
          "type": "address"
        }
      ],
      "stateMutability": "nonpayable",
      "type": "constructor"
    },
    {
      "inputs": [],
      "name": "farmingVault",
      "outputs": [
        {
          "internalType": "address",
          "name": "",
          "type": "address"
        }
      ],
      "stateMutability": "view",
      "type": "function"
    },
    {
      "inputs": [],
      "name": "holdersVault",
      "outputs": [
        {
          "internalType": "address",
          "name": "",
          "type": "address"
        }
      ],
      "stateMutability": "view",
      "type": "function"
    },
    {
      "inputs": [],
      "name": "rewardsVault",
      "outputs": [
        {
          "internalType": "address",
          "name": "",
          "type": "address"
        }
      ],
      "stateMutability": "view",
      "type": "function"
    },
    {
      "inputs": [],
      "name": "rolemanager",
      "outputs": [
        {
          "internalType": "address",
          "name": "",
          "type": "address"
        }
      ],
      "stateMutability": "view",
      "type": "function"
    },
    {
      "inputs": [],
      "name": "token",
      "outputs": [
        {
          "internalType": "address",
          "name": "",
          "type": "address"
        }
      ],
      "stateMutability": "view",
      "type": "function"
    },
    {
      "inputs": [],
      "name": "treasury",
      "outputs": [
        {
          "internalType": "address",
          "name": "",
          "type": "address"
        }
      ],
      "stateMutability": "view",
      "type": "function"
    },
    {
      "inputs": [],
      "name": "treasuryVault",
      "outputs": [
        {
          "internalType": "address",
          "name": "",
          "type": "address"
        }
      ],
      "stateMutability": "view",
      "type": "function"
    }
  ],
  "bytecode": "0x60806040523480156200001157600080fd5b5060405162010c5a38038062010c5a833981810160405281019062000037919062000930565b80600260006101000a81548173ffffffffffffffffffffffffffffffffffffffff021916908373ffffffffffffffffffffffffffffffffffffffff160217905550336040516200008790620008c5565b62000093919062000a43565b604051809103906000f080158015620000b0573d6000803e3d6000fd5b50600160006101000a81548173ffffffffffffffffffffffffffffffffffffffff021916908373ffffffffffffffffffffffffffffffffffffffff1602179055506aa56fa5b99019a5c8000000600160009054906101000a900473ffffffffffffffffffffffffffffffffffffffff166040516200012e90620008d3565b6200013b92919062000c18565b604051809103906000f08015801562000158573d6000803e3d6000fd5b506000806101000a81548173ffffffffffffffffffffffffffffffffffffffff021916908373ffffffffffffffffffffffffffffffffffffffff1602179055506000600160009054906101000a900473ffffffffffffffffffffffffffffffffffffffff16905060008060009054906101000a900473ffffffffffffffffffffffffffffffffffffffff1690508173ffffffffffffffffffffffffffffffffffffffff16632f2ff15d7f9f2df0fed2c77648de5860a4cc508cd0818c85b8b8a1ab4ceeef8d981c8956a6306040518363ffffffff1660e01b81526004016200024292919062000beb565b600060405180830381600087803b1580156200025d57600080fd5b505af115801562000272573d6000803e3d6000fd5b505050508173ffffffffffffffffffffffffffffffffffffffff16632f2ff15d7f9f2df0fed2c77648de5860a4cc508cd0818c85b8b8a1ab4ceeef8d981c8956a6306040518363ffffffff1660e01b8152600401620002d392919062000beb565b600060405180830381600087803b158015620002ee57600080fd5b505af115801562000303573d6000803e3d6000fd5b50505050600160009054906101000a900473ffffffffffffffffffffffffffffffffffffffff1660008054906101000a900473ffffffffffffffffffffffffffffffffffffffff166040516200035990620008e1565b6200036692919062000a60565b604051809103906000f08015801562000383573d6000803e3d6000fd5b50600360006101000a81548173ffffffffffffffffffffffffffffffffffffffff021916908373ffffffffffffffffffffffffffffffffffffffff160217905550600160009054906101000a900473ffffffffffffffffffffffffffffffffffffffff1660008054906101000a900473ffffffffffffffffffffffffffffffffffffffff166a34f086f3b33b68400000006302d24bd06040516200042790620008ef565b62000436949392919062000aea565b604051809103906000f08015801562000453573d6000803e3d6000fd5b50600460006101000a81548173ffffffffffffffffffffffffffffffffffffffff021916908373ffffffffffffffffffffffffffffffffffffffff160217905550600160009054906101000a900473ffffffffffffffffffffffffffffffffffffffff1660008054906101000a900473ffffffffffffffffffffffffffffffffffffffff16604051620004e690620008fd565b620004f392919062000a60565b604051809103906000f08015801562000510573d6000803e3d6000fd5b50600560006101000a81548173ffffffffffffffffffffffffffffffffffffffff021916908373ffffffffffffffffffffffffffffffffffffffff160217905550600160009054906101000a900473ffffffffffffffffffffffffffffffffffffffff16600260009054906101000a900473ffffffffffffffffffffffffffffffffffffffff1660008054906101000a900473ffffffffffffffffffffffffffffffffffffffff166a0c13ab95fe7cc0950000006304b3d3b0604051620005d7906200090b565b620005e795949392919062000a8d565b604051809103906000f08015801562000604573d6000803e3d6000fd5b50600660006101000a81548173ffffffffffffffffffffffffffffffffffffffff021916908373ffffffffffffffffffffffffffffffffffffffff1602179055508073ffffffffffffffffffffffffffffffffffffffff166340c10f19600260009054906101000a900473ffffffffffffffffffffffffffffffffffffffff166954b40b1f852bda0000006040518363ffffffff1660e01b8152600401620006ae92919062000b64565b600060405180830381600087803b158015620006c957600080fd5b505af1158015620006de573d6000803e3d6000fd5b505050508073ffffffffffffffffffffffffffffffffffffffff166340c10f19600460009054906101000a900473ffffffffffffffffffffffffffffffffffffffff166a34f086f3b33b68400000006040518363ffffffff1660e01b81526004016200074c92919062000b91565b600060405180830381600087803b1580156200076757600080fd5b505af11580156200077c573d6000803e3d6000fd5b505050508073ffffffffffffffffffffffffffffffffffffffff166340c10f19600560009054906101000a900473ffffffffffffffffffffffffffffffffffffffff166a4a723dc6b40b8a9a0000006040518363ffffffff1660e01b8152600401620007ea92919062000bbe565b600060405180830381600087803b1580156200080557600080fd5b505af11580156200081a573d6000803e3d6000fd5b505050508073ffffffffffffffffffffffffffffffffffffffff166340c10f19600660009054906101000a900473ffffffffffffffffffffffffffffffffffffffff166a0c13ab95fe7cc0950000006040518363ffffffff1660e01b81526004016200088892919062000b37565b600060405180830381600087803b158015620008a357600080fd5b505af1158015620008b8573d6000803e3d6000fd5b5050505050505062000dc0565b6118df80620010be83390190565b613ce4806200299d83390190565b61277c806200668183390190565b612ed38062008dfd83390190565b612833806200bcd083390190565b612757806200e50383390190565b6000815190506200092a8162000da6565b92915050565b6000602082840312156200094357600080fd5b6000620009538482850162000919565b91505092915050565b620009678162000c80565b82525050565b620009788162000c94565b82525050565b620009898162000cc8565b82525050565b6200099a8162000cdc565b82525050565b620009ab8162000cf0565b82525050565b620009bc8162000d04565b82525050565b620009cd8162000d18565b82525050565b620009de8162000d2c565b82525050565b620009ef8162000d40565b82525050565b600062000a04600e8362000c6f565b915062000a118262000d54565b602082019050919050565b600062000a2b60038362000c6f565b915062000a388262000d7d565b602082019050919050565b600060208201905062000a5a60008301846200095c565b92915050565b600060408201905062000a7760008301856200095c565b62000a8660208301846200095c565b9392505050565b600060a08201905062000aa460008301886200095c565b62000ab360208301876200095c565b62000ac260408301866200095c565b62000ad160608301856200097e565b62000ae06080830184620009d3565b9695505050505050565b600060808201905062000b0160008301876200095c565b62000b1060208301866200095c565b62000b1f6040830185620009c2565b62000b2e6060830184620009b1565b95945050505050565b600060408201905062000b4e60008301856200095c565b62000b5d60208301846200097e565b9392505050565b600060408201905062000b7b60008301856200095c565b62000b8a6020830184620009a0565b9392505050565b600060408201905062000ba860008301856200095c565b62000bb76020830184620009c2565b9392505050565b600060408201905062000bd560008301856200095c565b62000be46020830184620009e4565b9392505050565b600060408201905062000c0260008301856200096d565b62000c1160208301846200095c565b9392505050565b6000608082019050818103600083015262000c3381620009f5565b9050818103602083015262000c488162000a1c565b905062000c5960408301856200098f565b62000c6860608301846200095c565b9392505050565b600082825260208201905092915050565b600062000c8d8262000c9e565b9050919050565b6000819050919050565b600073ffffffffffffffffffffffffffffffffffffffff82169050919050565b6000819050919050565b600062000cd58262000cbe565b9050919050565b600062000ce98262000cbe565b9050919050565b600062000cfd8262000cbe565b9050919050565b600062000d118262000cbe565b9050919050565b600062000d258262000cbe565b9050919050565b600062000d398262000cbe565b9050919050565b600062000d4d8262000cbe565b9050919050565b7f547574656c6c757320546f6b656e000000000000000000000000000000000000600082015250565b7f5455540000000000000000000000000000000000000000000000000000000000600082015250565b62000db18162000c80565b811462000dbd57600080fd5b50565b6102ee8062000dd06000396000f3fe608060405234801561001057600080fd5b506004361061007d5760003560e01c80639da9c4f71161005b5780639da9c4f7146100dc578063af8b1c6f146100fa578063e82128ab14610118578063fc0c546a146101365761007d565b80630a04b132146100825780635579ed01146100a057806361d027b3146100be575b600080fd5b61008a610154565b604051610097919061026b565b60405180910390f35b6100a861017a565b6040516100b5919061026b565b60405180910390f35b6100c66101a0565b6040516100d3919061026b565b60405180910390f35b6100e46101c6565b6040516100f1919061026b565b60405180910390f35b6101026101ec565b60405161010f919061026b565b60405180910390f35b610120610212565b60405161012d919061026b565b60405180910390f35b61013e610238565b60405161014b919061026b565b60405180910390f35b600360009054906101000a900473ffffffffffffffffffffffffffffffffffffffff1681565b600560009054906101000a900473ffffffffffffffffffffffffffffffffffffffff1681565b600260009054906101000a900473ffffffffffffffffffffffffffffffffffffffff1681565b600460009054906101000a900473ffffffffffffffffffffffffffffffffffffffff1681565b600660009054906101000a900473ffffffffffffffffffffffffffffffffffffffff1681565b600160009054906101000a900473ffffffffffffffffffffffffffffffffffffffff1681565b60008054906101000a900473ffffffffffffffffffffffffffffffffffffffff1681565b61026581610286565b82525050565b6000602082019050610280600083018461025c565b92915050565b600061029182610298565b9050919050565b600073ffffffffffffffffffffffffffffffffffffffff8216905091905056fea264697066735822122079dbb17a73abb707c72c22f32cd8fb48fe7d615b6bed96e9dee14c75a1482d5064736f6c6343000802003360806040523480156200001157600080fd5b50604051620018df380380620018df8339818101604052810190620000379190620007f7565b80609760006101000a81548173ffffffffffffffffffffffffffffffffffffffff021916908373ffffffffffffffffffffffffffffffffffffffff16021790555062000088620000db60201b60201c565b620000bf6000801b609760009054906101000a900473ffffffffffffffffffffffffffffffffffffffff16620001da60201b60201c565b620000d46000801b33620001da60201b60201c565b506200091a565b600060019054906101000a900460ff168062000102575060008054906101000a900460ff16155b62000144576040517f08c379a00000000000000000000000000000000000000000000000000000000081526004016200013b906200084a565b60405180910390fd5b60008060019054906101000a900460ff16159050801562000195576001600060016101000a81548160ff02191690831515021790555060016000806101000a81548160ff0219169083151502179055505b620001a5620001f060201b60201c565b620001b5620002ff60201b60201c565b8015620001d75760008060016101000a81548160ff0219169083151502179055505b50565b620001ec8282620003de60201b60201c565b5050565b600060019054906101000a900460ff168062000217575060008054906101000a900460ff16155b62000259576040517f08c379a000000000000000000000000000000000000000000000000000000000815260040162000250906200084a565b60405180910390fd5b60008060019054906101000a900460ff161590508015620002aa576001600060016101000a81548160ff02191690831515021790555060016000806101000a81548160ff0219169083151502179055505b620002ba620004d060201b60201c565b620002ca620005af60201b60201c565b620002da6200068e60201b60201c565b8015620002fc5760008060016101000a81548160ff0219169083151502179055505b50565b600060019054906101000a900460ff168062000326575060008054906101000a900460ff16155b62000368576040517f08c379a00000000000000000000000000000000000000000000000000000000081526004016200035f906200084a565b60405180910390fd5b60008060019054906101000a900460ff161590508015620003b9576001600060016101000a81548160ff02191690831515021790555060016000806101000a81548160ff0219169083151502179055505b8015620003db5760008060016101000a81548160ff0219169083151502179055505b50565b620003f082826200076d60201b60201c565b620004cc5760016065600084815260200190815260200160002060000160008373ffffffffffffffffffffffffffffffffffffffff1673ffffffffffffffffffffffffffffffffffffffff16815260200190815260200160002060006101000a81548160ff02191690831515021790555062000471620007d860201b60201c565b73ffffffffffffffffffffffffffffffffffffffff168173ffffffffffffffffffffffffffffffffffffffff16837f2f8788117e7eff1d82e926ec794901d17c78024a50270940304540a733656f0d60405160405180910390a45b5050565b600060019054906101000a900460ff1680620004f7575060008054906101000a900460ff16155b62000539576040517f08c379a000000000000000000000000000000000000000000000000000000000815260040162000530906200084a565b60405180910390fd5b60008060019054906101000a900460ff1615905080156200058a576001600060016101000a81548160ff02191690831515021790555060016000806101000a81548160ff0219169083151502179055505b8015620005ac5760008060016101000a81548160ff0219169083151502179055505b50565b600060019054906101000a900460ff1680620005d6575060008054906101000a900460ff16155b62000618576040517f08c379a00000000000000000000000000000000000000000000000000000000081526004016200060f906200084a565b60405180910390fd5b60008060019054906101000a900460ff16159050801562000669576001600060016101000a81548160ff02191690831515021790555060016000806101000a81548160ff0219169083151502179055505b80156200068b5760008060016101000a81548160ff0219169083151502179055505b50565b600060019054906101000a900460ff1680620006b5575060008054906101000a900460ff16155b620006f7576040517f08c379a0000000000000000000000000000000000000000000000000000000008152600401620006ee906200084a565b60405180910390fd5b60008060019054906101000a900460ff16159050801562000748576001600060016101000a81548160ff02191690831515021790555060016000806101000a81548160ff0219169083151502179055505b80156200076a5760008060016101000a81548160ff0219169083151502179055505b50565b60006065600084815260200190815260200160002060000160008373ffffffffffffffffffffffffffffffffffffffff1673ffffffffffffffffffffffffffffffffffffffff16815260200190815260200160002060009054906101000a900460ff16905092915050565b600033905090565b600081519050620007f18162000900565b92915050565b6000602082840312156200080a57600080fd5b60006200081a84828501620007e0565b91505092915050565b600062000832602e836200086c565b91506200083f82620008b1565b604082019050919050565b60006020820190508181036000830152620008658162000823565b9050919050565b600082825260208201905092915050565b60006200088a8262000891565b9050919050565b600073ffffffffffffffffffffffffffffffffffffffff82169050919050565b7f496e697469616c697a61626c653a20636f6e747261637420697320616c72656160008201527f647920696e697469616c697a6564000000000000000000000000000000000000602082015250565b6200090b816200087d565b81146200091757600080fd5b50565b610fb5806200092a6000396000f3fe608060405234801561001057600080fd5b50600436106100935760003560e01c806391d148541161006657806391d1485414610130578063a217fddf14610160578063d547741f1461017e578063e63ab1e91461019a578063f72c0d8b146101b857610093565b806301ffc9a714610098578063248a9ca3146100c85780632f2ff15d146100f857806336568abe14610114575b600080fd5b6100b260048036038101906100ad9190610a6f565b6101d6565b6040516100bf9190610be6565b60405180910390f35b6100e260048036038101906100dd9190610a0a565b610250565b6040516100ef9190610c01565b60405180910390f35b610112600480360381019061010d9190610a33565b610270565b005b61012e60048036038101906101299190610a33565b610299565b005b61014a60048036038101906101459190610a33565b61031c565b6040516101579190610be6565b60405180910390f35b610168610387565b6040516101759190610c01565b60405180910390f35b61019860048036038101906101939190610a33565b61038e565b005b6101a26103b7565b6040516101af9190610c01565b60405180910390f35b6101c06103db565b6040516101cd9190610c01565b60405180910390f35b60007f7965db0b000000000000000000000000000000000000000000000000000000007bffffffffffffffffffffffffffffffffffffffffffffffffffffffff1916827bffffffffffffffffffffffffffffffffffffffffffffffffffffffff191614806102495750610248826103ff565b5b9050919050565b600060656000838152602001908152602001600020600101549050919050565b61027982610250565b61028a81610285610469565b610471565b610294838361050e565b505050565b6102a1610469565b73ffffffffffffffffffffffffffffffffffffffff168173ffffffffffffffffffffffffffffffffffffffff161461030e576040517f08c379a000000000000000000000000000000000000000000000000000000000815260040161030590610c5e565b60405180910390fd5b61031882826105ef565b5050565b60006065600084815260200190815260200160002060000160008373ffffffffffffffffffffffffffffffffffffffff1673ffffffffffffffffffffffffffffffffffffffff16815260200190815260200160002060009054906101000a900460ff16905092915050565b6000801b81565b61039782610250565b6103a8816103a3610469565b610471565b6103b283836105ef565b505050565b7f65d7a28e3265b37a6474929f336521b332c1681b933f6cb9f3376673440d862a81565b7f189ab7a9244df0848122154315af71fe140f3db0fe014031783b0946b8c9d2e381565b60007f01ffc9a7000000000000000000000000000000000000000000000000000000007bffffffffffffffffffffffffffffffffffffffffffffffffffffffff1916827bffffffffffffffffffffffffffffffffffffffffffffffffffffffff1916149050919050565b600033905090565b61047b828261031c565b61050a576104a08173ffffffffffffffffffffffffffffffffffffffff1660146106d1565b6104ae8360001c60206106d1565b6040516020016104bf929190610bac565b6040516020818303038152906040526040517f08c379a00000000000000000000000000000000000000000000000000000000081526004016105019190610c1c565b60405180910390fd5b5050565b610518828261031c565b6105eb5760016065600084815260200190815260200160002060000160008373ffffffffffffffffffffffffffffffffffffffff1673ffffffffffffffffffffffffffffffffffffffff16815260200190815260200160002060006101000a81548160ff021916908315150217905550610590610469565b73ffffffffffffffffffffffffffffffffffffffff168173ffffffffffffffffffffffffffffffffffffffff16837f2f8788117e7eff1d82e926ec794901d17c78024a50270940304540a733656f0d60405160405180910390a45b5050565b6105f9828261031c565b156106cd5760006065600084815260200190815260200160002060000160008373ffffffffffffffffffffffffffffffffffffffff1673ffffffffffffffffffffffffffffffffffffffff16815260200190815260200160002060006101000a81548160ff021916908315150217905550610672610469565b73ffffffffffffffffffffffffffffffffffffffff168173ffffffffffffffffffffffffffffffffffffffff16837ff6391f5c32d9c69d2a47ea670b442974b53935d1edc7fd64eb21e047a839171b60405160405180910390a45b5050565b6060600060028360026106e49190610cfb565b6106ee9190610ca5565b67ffffffffffffffff81111561072d577f4e487b7100000000000000000000000000000000000000000000000000000000600052604160045260246000fd5b6040519080825280601f01601f19166020018201604052801561075f5781602001600182028036833780820191505090505b5090507f3000000000000000000000000000000000000000000000000000000000000000816000815181106107bd577f4e487b7100000000000000000000000000000000000000000000000000000000600052603260045260246000fd5b60200101907effffffffffffffffffffffffffffffffffffffffffffffffffffffffffffff1916908160001a9053507f780000000000000000000000000000000000000000000000000000000000000081600181518110610847577f4e487b7100000000000000000000000000000000000000000000000000000000600052603260045260246000fd5b60200101907effffffffffffffffffffffffffffffffffffffffffffffffffffffffffffff1916908160001a905350600060018460026108879190610cfb565b6108919190610ca5565b90505b600181111561097d577f3031323334353637383961626364656600000000000000000000000000000000600f8616601081106108f9577f4e487b7100000000000000000000000000000000000000000000000000000000600052603260045260246000fd5b1a60f81b828281518110610936577f4e487b7100000000000000000000000000000000000000000000000000000000600052603260045260246000fd5b60200101907effffffffffffffffffffffffffffffffffffffffffffffffffffffffffffff1916908160001a905350600485901c94508061097690610e06565b9050610894565b50600084146109c1576040517f08c379a00000000000000000000000000000000000000000000000000000000081526004016109b890610c3e565b60405180910390fd5b8091505092915050565b6000813590506109da81610f3a565b92915050565b6000813590506109ef81610f51565b92915050565b600081359050610a0481610f68565b92915050565b600060208284031215610a1c57600080fd5b6000610a2a848285016109e0565b91505092915050565b60008060408385031215610a4657600080fd5b6000610a54858286016109e0565b9250506020610a65858286016109cb565b9150509250929050565b600060208284031215610a8157600080fd5b6000610a8f848285016109f5565b91505092915050565b610aa181610d67565b82525050565b610ab081610d73565b82525050565b6000610ac182610c7e565b610acb8185610c89565b9350610adb818560208601610dd3565b610ae481610e5f565b840191505092915050565b6000610afa82610c7e565b610b048185610c9a565b9350610b14818560208601610dd3565b80840191505092915050565b6000610b2d602083610c89565b9150610b3882610e70565b602082019050919050565b6000610b50601783610c9a565b9150610b5b82610e99565b601782019050919050565b6000610b73601183610c9a565b9150610b7e82610ec2565b601182019050919050565b6000610b96602f83610c89565b9150610ba182610eeb565b604082019050919050565b6000610bb782610b43565b9150610bc38285610aef565b9150610bce82610b66565b9150610bda8284610aef565b91508190509392505050565b6000602082019050610bfb6000830184610a98565b92915050565b6000602082019050610c166000830184610aa7565b92915050565b60006020820190508181036000830152610c368184610ab6565b905092915050565b60006020820190508181036000830152610c5781610b20565b9050919050565b60006020820190508181036000830152610c7781610b89565b9050919050565b600081519050919050565b600082825260208201905092915050565b600081905092915050565b6000610cb082610dc9565b9150610cbb83610dc9565b9250827fffffffffffffffffffffffffffffffffffffffffffffffffffffffffffffffff03821115610cf057610cef610e30565b5b828201905092915050565b6000610d0682610dc9565b9150610d1183610dc9565b9250817fffffffffffffffffffffffffffffffffffffffffffffffffffffffffffffffff0483118215151615610d4a57610d49610e30565b5b828202905092915050565b6000610d6082610da9565b9050919050565b60008115159050919050565b6000819050919050565b60007fffffffff0000000000000000000000000000000000000000000000000000000082169050919050565b600073ffffffffffffffffffffffffffffffffffffffff82169050919050565b6000819050919050565b60005b83811015610df1578082015181840152602081019050610dd6565b83811115610e00576000848401525b50505050565b6000610e1182610dc9565b91506000821415610e2557610e24610e30565b5b600182039050919050565b7f4e487b7100000000000000000000000000000000000000000000000000000000600052601160045260246000fd5b6000601f19601f8301169050919050565b7f537472696e67733a20686578206c656e67746820696e73756666696369656e74600082015250565b7f416363657373436f6e74726f6c3a206163636f756e7420000000000000000000600082015250565b7f206973206d697373696e6720726f6c6520000000000000000000000000000000600082015250565b7f416363657373436f6e74726f6c3a2063616e206f6e6c792072656e6f756e636560008201527f20726f6c657320666f722073656c660000000000000000000000000000000000602082015250565b610f4381610d55565b8114610f4e57600080fd5b50565b610f5a81610d73565b8114610f6557600080fd5b50565b610f7181610d7d565b8114610f7c57600080fd5b5056fea2646970667358221220737f474eba94ab9b638bd2e3a2065b312d2f2f7d56012f1981dc84a3822046e664736f6c6343000802003360806040523480156200001157600080fd5b5060405162003ce438038062003ce4833981810160405281019062000037919062000ce9565b6200004b848484846200005560201b60201c565b5050505062001084565b600060019054906101000a900460ff16806200007c575060008054906101000a900460ff16155b620000be576040517f08c379a0000000000000000000000000000000000000000000000000000000008152600401620000b59062000df7565b60405180910390fd5b60008060019054906101000a900460ff1615905080156200010f576001600060016101000a81548160ff02191690831515021790555060016000806101000a81548160ff0219169083151502179055505b62000120826200017c60201b60201c565b6200013285856200027d60201b60201c565b62000143836200038060201b60201c565b620001536200048160201b60201c565b8015620001755760008060016101000a81548160ff0219169083151502179055505b5050505050565b600060019054906101000a900460ff1680620001a3575060008054906101000a900460ff16155b620001e5576040517f08c379a0000000000000000000000000000000000000000000000000000000008152600401620001dc9062000df7565b60405180910390fd5b60008060019054906101000a900460ff16159050801562000236576001600060016101000a81548160ff02191690831515021790555060016000806101000a81548160ff0219169083151502179055505b620002466200056060201b60201c565b62000257826200065f60201b60201c565b8015620002795760008060016101000a81548160ff0219169083151502179055505b5050565b600060019054906101000a900460ff1680620002a4575060008054906101000a900460ff16155b620002e6576040517f08c379a0000000000000000000000000000000000000000000000000000000008152600401620002dd9062000df7565b60405180910390fd5b60008060019054906101000a900460ff16159050801562000337576001600060016101000a81548160ff02191690831515021790555060016000806101000a81548160ff0219169083151502179055505b620003476200078060201b60201c565b6200035983836200085f60201b60201c565b80156200037b5760008060016101000a81548160ff0219169083151502179055505b505050565b600060019054906101000a900460ff1680620003a7575060008054906101000a900460ff16155b620003e9576040517f08c379a0000000000000000000000000000000000000000000000000000000008152600401620003e09062000df7565b60405180910390fd5b60008060019054906101000a900460ff1615905080156200043a576001600060016101000a81548160ff02191690831515021790555060016000806101000a81548160ff0219169083151502179055505b6200044a6200078060201b60201c565b6200045b826200097260201b60201c565b80156200047d5760008060016101000a81548160ff0219169083151502179055505b5050565b600060019054906101000a900460ff1680620004a8575060008054906101000a900460ff16155b620004ea576040517f08c379a0000000000000000000000000000000000000000000000000000000008152600401620004e19062000df7565b60405180910390fd5b60008060019054906101000a900460ff1615905080156200053b576001600060016101000a81548160ff02191690831515021790555060016000806101000a81548160ff0219169083151502179055505b80156200055d5760008060016101000a81548160ff0219169083151502179055505b50565b600060019054906101000a900460ff168062000587575060008054906101000a900460ff16155b620005c9576040517f08c379a0000000000000000000000000000000000000000000000000000000008152600401620005c09062000df7565b60405180910390fd5b60008060019054906101000a900460ff1615905080156200061a576001600060016101000a81548160ff02191690831515021790555060016000806101000a81548160ff0219169083151502179055505b6200062a6200078060201b60201c565b6200063a62000a9f60201b60201c565b80156200065c5760008060016101000a81548160ff0219169083151502179055505b50565b600060019054906101000a900460ff168062000686575060008054906101000a900460ff16155b620006c8576040517f08c379a0000000000000000000000000000000000000000000000000000000008152600401620006bf9062000df7565b60405180910390fd5b60008060019054906101000a900460ff16159050801562000719576001600060016101000a81548160ff02191690831515021790555060016000806101000a81548160ff0219169083151502179055505b81606560006101000a81548173ffffffffffffffffffffffffffffffffffffffff021916908373ffffffffffffffffffffffffffffffffffffffff16021790555080156200077c5760008060016101000a81548160ff0219169083151502179055505b5050565b600060019054906101000a900460ff1680620007a7575060008054906101000a900460ff16155b620007e9576040517f08c379a0000000000000000000000000000000000000000000000000000000008152600401620007e09062000df7565b60405180910390fd5b60008060019054906101000a900460ff1615905080156200083a576001600060016101000a81548160ff02191690831515021790555060016000806101000a81548160ff0219169083151502179055505b80156200085c5760008060016101000a81548160ff0219169083151502179055505b50565b600060019054906101000a900460ff168062000886575060008054906101000a900460ff16155b620008c8576040517f08c379a0000000000000000000000000000000000000000000000000000000008152600401620008bf9062000df7565b60405180910390fd5b60008060019054906101000a900460ff16159050801562000919576001600060016101000a81548160ff02191690831515021790555060016000806101000a81548160ff0219169083151502179055505b82606990805190602001906200093192919062000b99565b5081606a90805190602001906200094a92919062000b99565b5080156200096d5760008060016101000a81548160ff0219169083151502179055505b505050565b600060019054906101000a900460ff168062000999575060008054906101000a900460ff16155b620009db576040517f08c379a0000000000000000000000000000000000000000000000000000000008152600401620009d29062000df7565b60405180910390fd5b60008060019054906101000a900460ff16159050801562000a2c576001600060016101000a81548160ff02191690831515021790555060016000806101000a81548160ff0219169083151502179055505b6000821162000a72576040517f08c379a000000000000000000000000000000000000000000000000000000000815260040162000a699062000dd5565b60405180910390fd5b81609881905550801562000a9b5760008060016101000a81548160ff0219169083151502179055505b5050565b600060019054906101000a900460ff168062000ac6575060008054906101000a900460ff16155b62000b08576040517f08c379a000000000000000000000000000000000000000000000000000000000815260040162000aff9062000df7565b60405180910390fd5b60008060019054906101000a900460ff16159050801562000b59576001600060016101000a81548160ff02191690831515021790555060016000806101000a81548160ff0219169083151502179055505b6000603360006101000a81548160ff021916908315150217905550801562000b965760008060016101000a81548160ff0219169083151502179055505b50565b82805462000ba79062000efd565b90600052602060002090601f01602090048101928262000bcb576000855562000c17565b82601f1062000be657805160ff191683800117855562000c17565b8280016001018555821562000c17579182015b8281111562000c1657825182559160200191906001019062000bf9565b5b50905062000c26919062000c2a565b5090565b5b8082111562000c4557600081600090555060010162000c2b565b5090565b600062000c6062000c5a8462000e42565b62000e19565b90508281526020810184848401111562000c7957600080fd5b62000c8684828562000ec7565b509392505050565b60008151905062000c9f8162001050565b92915050565b600082601f83011262000cb757600080fd5b815162000cc984826020860162000c49565b91505092915050565b60008151905062000ce3816200106a565b92915050565b6000806000806080858703121562000d0057600080fd5b600085015167ffffffffffffffff81111562000d1b57600080fd5b62000d298782880162000ca5565b945050602085015167ffffffffffffffff81111562000d4757600080fd5b62000d558782880162000ca5565b935050604062000d688782880162000cd2565b925050606062000d7b8782880162000c8e565b91505092959194509250565b600062000d9660158362000e78565b915062000da38262000fd8565b602082019050919050565b600062000dbd602e8362000e78565b915062000dca8262001001565b604082019050919050565b6000602082019050818103600083015262000df08162000d87565b9050919050565b6000602082019050818103600083015262000e128162000dae565b9050919050565b600062000e2562000e38565b905062000e33828262000f33565b919050565b6000604051905090565b600067ffffffffffffffff82111562000e605762000e5f62000f98565b5b62000e6b8262000fc7565b9050602081019050919050565b600082825260208201905092915050565b600062000e968262000e9d565b9050919050565b600073ffffffffffffffffffffffffffffffffffffffff82169050919050565b6000819050919050565b60005b8381101562000ee757808201518184015260208101905062000eca565b8381111562000ef7576000848401525b50505050565b6000600282049050600182168062000f1657607f821691505b6020821081141562000f2d5762000f2c62000f69565b5b50919050565b62000f3e8262000fc7565b810181811067ffffffffffffffff8211171562000f605762000f5f62000f98565b5b80604052505050565b7f4e487b7100000000000000000000000000000000000000000000000000000000600052602260045260246000fd5b7f4e487b7100000000000000000000000000000000000000000000000000000000600052604160045260246000fd5b6000601f19601f8301169050919050565b7f45524332304361707065643a2063617020697320300000000000000000000000600082015250565b7f496e697469616c697a61626c653a20636f6e747261637420697320616c72656160008201527f647920696e697469616c697a6564000000000000000000000000000000000000602082015250565b6200105b8162000e89565b81146200106757600080fd5b50565b620010758162000ebd565b81146200108157600080fd5b50565b612c5080620010946000396000f3fe608060405234801561001057600080fd5b50600436106101375760003560e01c806358aba00f116100b857806395d89b411161007c57806395d89b4114610318578063a217fddf14610336578063a457c2d714610354578063a9059cbb14610384578063dd62ed3e146103b4578063e63ab1e9146103e457610137565b806358aba00f146102865780635c975abb146102a257806370a08231146102c057806373f42561146102f05780638456cb591461030e57610137565b8063355274ea116100ff578063355274ea146101f657806339509351146102145780633f4ba83a1461024457806340c10f191461024e57806342966c681461026a57610137565b806306fdde031461013c578063095ea7b31461015a57806318160ddd1461018a57806323b872dd146101a8578063313ce567146101d8575b600080fd5b610144610402565b604051610151919061226b565b60405180910390f35b610174600480360381019061016f9190611dd5565b610494565b604051610181919061220c565b60405180910390f35b6101926104b2565b60405161019f919061248d565b60405180910390f35b6101c260048036038101906101bd9190611d86565b6104bc565b6040516101cf919061220c565b60405180910390f35b6101e06105b4565b6040516101ed91906124a8565b60405180910390f35b6101fe6105bd565b60405161020b919061248d565b60405180910390f35b61022e60048036038101906102299190611dd5565b6105c7565b60405161023b919061220c565b60405180910390f35b61024c610673565b005b61026860048036038101906102639190611dd5565b6107e9565b005b610284600480360381019061027f9190611e3a565b610963565b005b6102a0600480360381019061029b9190611d21565b610977565b005b6102aa610b0a565b6040516102b7919061220c565b60405180910390f35b6102da60048036038101906102d59190611d21565b610b21565b6040516102e7919061248d565b60405180910390f35b6102f8610b6a565b604051610305919061248d565b60405180910390f35b610316610b74565b005b610320610cea565b60405161032d919061226b565b60405180910390f35b61033e610d7c565b60405161034b9190612227565b60405180910390f35b61036e60048036038101906103699190611dd5565b610d83565b60405161037b919061220c565b60405180910390f35b61039e60048036038101906103999190611dd5565b610e6e565b6040516103ab919061220c565b60405180910390f35b6103ce60048036038101906103c99190611d4a565b610e8c565b6040516103db919061248d565b60405180910390f35b6103ec610f13565b6040516103f99190612227565b60405180910390f35b6060606980546104119061268a565b80601f016020809104026020016040519081016040528092919081815260200182805461043d9061268a565b801561048a5780601f1061045f5761010080835404028352916020019161048a565b820191906000526020600020905b81548152906001019060200180831161046d57829003601f168201915b5050505050905090565b60006104a86104a1610f37565b8484610f3f565b6001905092915050565b6000606854905090565b60006104c984848461110a565b6000606760008673ffffffffffffffffffffffffffffffffffffffff1673ffffffffffffffffffffffffffffffffffffffff1681526020019081526020016000206000610514610f37565b73ffffffffffffffffffffffffffffffffffffffff1673ffffffffffffffffffffffffffffffffffffffff16815260200190815260200160002054905082811015610594576040517f08c379a000000000000000000000000000000000000000000000000000000000815260040161058b9061236d565b60405180910390fd5b6105a8856105a0610f37565b858403610f3f565b60019150509392505050565b60006012905090565b6000609854905090565b60006106696105d4610f37565b8484606760006105e2610f37565b73ffffffffffffffffffffffffffffffffffffffff1673ffffffffffffffffffffffffffffffffffffffff16815260200190815260200160002060008873ffffffffffffffffffffffffffffffffffffffff1673ffffffffffffffffffffffffffffffffffffffff1681526020019081526020016000205461066491906124ea565b610f3f565b6001905092915050565b7f65d7a28e3265b37a6474929f336521b332c1681b933f6cb9f3376673440d862a6000606560009054906101000a900473ffffffffffffffffffffffffffffffffffffffff16905060003390508173ffffffffffffffffffffffffffffffffffffffff166391d1485484836040518363ffffffff1660e01b81526004016106fb929190612242565b60206040518083038186803b15801561071357600080fd5b505afa158015610727573d6000803e3d6000fd5b505050506040513d601f19601f8201168201806040525081019061074b9190611e11565b61076c8273ffffffffffffffffffffffffffffffffffffffff16601461138e565b61077a8560001c602061138e565b60405160200161078b92919061218e565b604051602081830303815290604052906107db576040517f08c379a00000000000000000000000000000000000000000000000000000000081526004016107d2919061226b565b60405180910390fd5b506107e4611688565b505050565b7f9f2df0fed2c77648de5860a4cc508cd0818c85b8b8a1ab4ceeef8d981c8956a66000606560009054906101000a900473ffffffffffffffffffffffffffffffffffffffff16905060003390508173ffffffffffffffffffffffffffffffffffffffff166391d1485484836040518363ffffffff1660e01b8152600401610871929190612242565b60206040518083038186803b15801561088957600080fd5b505afa15801561089d573d6000803e3d6000fd5b505050506040513d601f19601f820116820180604052508101906108c19190611e11565b6108e28273ffffffffffffffffffffffffffffffffffffffff16601461138e565b6108f08560001c602061138e565b60405160200161090192919061218e565b60405160208183030381529060405290610951576040517f08c379a0000000000000000000000000000000000000000000000000000000008152600401610948919061226b565b60405180910390fd5b5061095c858561172a565b5050505050565b61097461096e610f37565b826117da565b50565b6000801b6000606560009054906101000a900473ffffffffffffffffffffffffffffffffffffffff16905060003390508173ffffffffffffffffffffffffffffffffffffffff166391d1485484836040518363ffffffff1660e01b81526004016109e2929190612242565b60206040518083038186803b1580156109fa57600080fd5b505afa158015610a0e573d6000803e3d6000fd5b505050506040513d601f19601f82011682018060405250810190610a329190611e11565b610a538273ffffffffffffffffffffffffffffffffffffffff16601461138e565b610a618560001c602061138e565b604051602001610a7292919061218e565b60405160208183030381529060405290610ac2576040517f08c379a0000000000000000000000000000000000000000000000000000000008152600401610ab9919061226b565b60405180910390fd5b5083606560006101000a81548173ffffffffffffffffffffffffffffffffffffffff021916908373ffffffffffffffffffffffffffffffffffffffff16021790555050505050565b6000603360009054906101000a900460ff16905090565b6000606660008373ffffffffffffffffffffffffffffffffffffffff1673ffffffffffffffffffffffffffffffffffffffff168152602001908152602001600020549050919050565b600060cb54905090565b7f65d7a28e3265b37a6474929f336521b332c1681b933f6cb9f3376673440d862a6000606560009054906101000a900473ffffffffffffffffffffffffffffffffffffffff16905060003390508173ffffffffffffffffffffffffffffffffffffffff166391d1485484836040518363ffffffff1660e01b8152600401610bfc929190612242565b60206040518083038186803b158015610c1457600080fd5b505afa158015610c28573d6000803e3d6000fd5b505050506040513d601f19601f82011682018060405250810190610c4c9190611e11565b610c6d8273ffffffffffffffffffffffffffffffffffffffff16601461138e565b610c7b8560001c602061138e565b604051602001610c8c92919061218e565b60405160208183030381529060405290610cdc576040517f08c379a0000000000000000000000000000000000000000000000000000000008152600401610cd3919061226b565b60405180910390fd5b50610ce5611891565b505050565b6060606a8054610cf99061268a565b80601f0160208091040260200160405190810160405280929190818152602001828054610d259061268a565b8015610d725780601f10610d4757610100808354040283529160200191610d72565b820191906000526020600020905b815481529060010190602001808311610d5557829003601f168201915b5050505050905090565b6000801b81565b60008060676000610d92610f37565b73ffffffffffffffffffffffffffffffffffffffff1673ffffffffffffffffffffffffffffffffffffffff16815260200190815260200160002060008573ffffffffffffffffffffffffffffffffffffffff1673ffffffffffffffffffffffffffffffffffffffff16815260200190815260200160002054905082811015610e4f576040517f08c379a0000000000000000000000000000000000000000000000000000000008152600401610e469061244d565b60405180910390fd5b610e63610e5a610f37565b85858403610f3f565b600191505092915050565b6000610e82610e7b610f37565b848461110a565b6001905092915050565b6000606760008473ffffffffffffffffffffffffffffffffffffffff1673ffffffffffffffffffffffffffffffffffffffff16815260200190815260200160002060008373ffffffffffffffffffffffffffffffffffffffff1673ffffffffffffffffffffffffffffffffffffffff16815260200190815260200160002054905092915050565b7f65d7a28e3265b37a6474929f336521b332c1681b933f6cb9f3376673440d862a81565b600033905090565b600073ffffffffffffffffffffffffffffffffffffffff168373ffffffffffffffffffffffffffffffffffffffff161415610faf576040517f08c379a0000000000000000000000000000000000000000000000000000000008152600401610fa6906123ed565b60405180910390fd5b600073ffffffffffffffffffffffffffffffffffffffff168273ffffffffffffffffffffffffffffffffffffffff16141561101f576040517f08c379a00000000000000000000000000000000000000000000000000000000081526004016110169061230d565b60405180910390fd5b80606760008573ffffffffffffffffffffffffffffffffffffffff1673ffffffffffffffffffffffffffffffffffffffff16815260200190815260200160002060008473ffffffffffffffffffffffffffffffffffffffff1673ffffffffffffffffffffffffffffffffffffffff168152602001908152602001600020819055508173ffffffffffffffffffffffffffffffffffffffff168373ffffffffffffffffffffffffffffffffffffffff167f8c5be1e5ebec7d5bd14f71427d1e84f3dd0314c0f7b2291e5b200ac8c7c3b925836040516110fd919061248d565b60405180910390a3505050565b600073ffffffffffffffffffffffffffffffffffffffff168373ffffffffffffffffffffffffffffffffffffffff16141561117a576040517f08c379a0000000000000000000000000000000000000000000000000000000008152600401611171906123ad565b60405180910390fd5b600073ffffffffffffffffffffffffffffffffffffffff168273ffffffffffffffffffffffffffffffffffffffff1614156111ea576040517f08c379a00000000000000000000000000000000000000000000000000000000081526004016111e1906122ad565b60405180910390fd5b6111f5838383611934565b6000606660008573ffffffffffffffffffffffffffffffffffffffff1673ffffffffffffffffffffffffffffffffffffffff1681526020019081526020016000205490508181101561127c576040517f08c379a00000000000000000000000000000000000000000000000000000000081526004016112739061232d565b60405180910390fd5b818103606660008673ffffffffffffffffffffffffffffffffffffffff1673ffffffffffffffffffffffffffffffffffffffff1681526020019081526020016000208190555081606660008573ffffffffffffffffffffffffffffffffffffffff1673ffffffffffffffffffffffffffffffffffffffff168152602001908152602001600020600082825461131191906124ea565b925050819055508273ffffffffffffffffffffffffffffffffffffffff168473ffffffffffffffffffffffffffffffffffffffff167fddf252ad1be2c89b69c2b068fc378daa952ba7f163c4a11628f55a4df523b3ef84604051611375919061248d565b60405180910390a3611388848484611939565b50505050565b6060600060028360026113a19190612540565b6113ab91906124ea565b67ffffffffffffffff8111156113ea577f4e487b7100000000000000000000000000000000000000000000000000000000600052604160045260246000fd5b6040519080825280601f01601f19166020018201604052801561141c5781602001600182028036833780820191505090505b5090507f30000000000000000000000000000000000000000000000000000000000000008160008151811061147a577f4e487b7100000000000000000000000000000000000000000000000000000000600052603260045260246000fd5b60200101907effffffffffffffffffffffffffffffffffffffffffffffffffffffffffffff1916908160001a9053507f780000000000000000000000000000000000000000000000000000000000000081600181518110611504577f4e487b7100000000000000000000000000000000000000000000000000000000600052603260045260246000fd5b60200101907effffffffffffffffffffffffffffffffffffffffffffffffffffffffffffff1916908160001a905350600060018460026115449190612540565b61154e91906124ea565b90505b600181111561163a577f3031323334353637383961626364656600000000000000000000000000000000600f8616601081106115b6577f4e487b7100000000000000000000000000000000000000000000000000000000600052603260045260246000fd5b1a60f81b8282815181106115f3577f4e487b7100000000000000000000000000000000000000000000000000000000600052603260045260246000fd5b60200101907effffffffffffffffffffffffffffffffffffffffffffffffffffffffffffff1916908160001a905350600485901c94508061163390612660565b9050611551565b506000841461167e576040517f08c379a00000000000000000000000000000000000000000000000000000000081526004016116759061228d565b60405180910390fd5b8091505092915050565b611690610b0a565b6116cf576040517f08c379a00000000000000000000000000000000000000000000000000000000081526004016116c6906122cd565b60405180910390fd5b6000603360006101000a81548160ff0219169083151502179055507f5db9ee0a495bf2e6ff9c91a7834c1ba4fdd244a5e8aa4e537bd38aeae4b073aa611713610f37565b60405161172091906121c8565b60405180910390a1565b6117326105bd565b8160cb5461173e6104b2565b61174891906124ea565b61175291906124ea565b1115611793576040517f08c379a000000000000000000000000000000000000000000000000000000000815260040161178a9061242d565b60405180910390fd5b61179d828261193e565b7f0f6798a560793a54c3bcfe86a93cde1e73087d944c0ea20544137d412139688582826040516117ce9291906121e3565b60405180910390a15050565b8060cb546117e66104b2565b6117f0919061259a565b1015611831576040517f08c379a00000000000000000000000000000000000000000000000000000000081526004016118289061240d565b60405180910390fd5b8060cb600082825461184391906124ea565b9250508190555061185482826119a8565b7fcc16f5dbb4873280815c1ee09dbd06736cffcc184412cf7a71a0fdb75d397ca582826040516118859291906121e3565b60405180910390a15050565b611899610b0a565b156118d9576040517f08c379a00000000000000000000000000000000000000000000000000000000081526004016118d09061234d565b60405180910390fd5b6001603360006101000a81548160ff0219169083151502179055507f62e78cea01bee320cd4e420270b5ea74000d11b0c9f74754ebdbfc544b05a25861191d610f37565b60405161192a91906121c8565b60405180910390a1565b505050565b505050565b6119466105bd565b8161194f6104b2565b61195991906124ea565b111561199a576040517f08c379a0000000000000000000000000000000000000000000000000000000008152600401611991906123cd565b60405180910390fd5b6119a48282611b81565b5050565b600073ffffffffffffffffffffffffffffffffffffffff168273ffffffffffffffffffffffffffffffffffffffff161415611a18576040517f08c379a0000000000000000000000000000000000000000000000000000000008152600401611a0f9061238d565b60405180910390fd5b611a2482600083611934565b6000606660008473ffffffffffffffffffffffffffffffffffffffff1673ffffffffffffffffffffffffffffffffffffffff16815260200190815260200160002054905081811015611aab576040517f08c379a0000000000000000000000000000000000000000000000000000000008152600401611aa2906122ed565b60405180910390fd5b818103606660008573ffffffffffffffffffffffffffffffffffffffff1673ffffffffffffffffffffffffffffffffffffffff168152602001908152602001600020819055508160686000828254611b03919061259a565b92505081905550600073ffffffffffffffffffffffffffffffffffffffff168373ffffffffffffffffffffffffffffffffffffffff167fddf252ad1be2c89b69c2b068fc378daa952ba7f163c4a11628f55a4df523b3ef84604051611b68919061248d565b60405180910390a3611b7c83600084611939565b505050565b600073ffffffffffffffffffffffffffffffffffffffff168273ffffffffffffffffffffffffffffffffffffffff161415611bf1576040517f08c379a0000000000000000000000000000000000000000000000000000000008152600401611be89061246d565b60405180910390fd5b611bfd60008383611934565b8060686000828254611c0f91906124ea565b9250508190555080606660008473ffffffffffffffffffffffffffffffffffffffff1673ffffffffffffffffffffffffffffffffffffffff1681526020019081526020016000206000828254611c6591906124ea565b925050819055508173ffffffffffffffffffffffffffffffffffffffff16600073ffffffffffffffffffffffffffffffffffffffff167fddf252ad1be2c89b69c2b068fc378daa952ba7f163c4a11628f55a4df523b3ef83604051611cca919061248d565b60405180910390a3611cde60008383611939565b5050565b600081359050611cf181612bd5565b92915050565b600081519050611d0681612bec565b92915050565b600081359050611d1b81612c03565b92915050565b600060208284031215611d3357600080fd5b6000611d4184828501611ce2565b91505092915050565b60008060408385031215611d5d57600080fd5b6000611d6b85828601611ce2565b9250506020611d7c85828601611ce2565b9150509250929050565b600080600060608486031215611d9b57600080fd5b6000611da986828701611ce2565b9350506020611dba86828701611ce2565b9250506040611dcb86828701611d0c565b9150509250925092565b60008060408385031215611de857600080fd5b6000611df685828601611ce2565b9250506020611e0785828601611d0c565b9150509250929050565b600060208284031215611e2357600080fd5b6000611e3184828501611cf7565b91505092915050565b600060208284031215611e4c57600080fd5b6000611e5a84828501611d0c565b91505092915050565b611e6c816125ce565b82525050565b611e7b816125e0565b82525050565b611e8a816125ec565b82525050565b6000611e9b826124c3565b611ea581856124ce565b9350611eb581856020860161262d565b611ebe8161271a565b840191505092915050565b6000611ed4826124c3565b611ede81856124df565b9350611eee81856020860161262d565b80840191505092915050565b6000611f076020836124ce565b9150611f128261272b565b602082019050919050565b6000611f2a6023836124ce565b9150611f3582612754565b604082019050919050565b6000611f4d6024836124df565b9150611f58826127a3565b602482019050919050565b6000611f706014836124ce565b9150611f7b826127f2565b602082019050919050565b6000611f936022836124ce565b9150611f9e8261281b565b604082019050919050565b6000611fb66022836124ce565b9150611fc18261286a565b604082019050919050565b6000611fd96026836124ce565b9150611fe4826128b9565b604082019050919050565b6000611ffc6010836124ce565b915061200782612908565b602082019050919050565b600061201f6028836124ce565b915061202a82612931565b604082019050919050565b60006120426021836124ce565b915061204d82612980565b604082019050919050565b60006120656025836124ce565b9150612070826129cf565b604082019050919050565b60006120886019836124ce565b915061209382612a1e565b602082019050919050565b60006120ab6024836124ce565b91506120b682612a47565b604082019050919050565b60006120ce6029836124ce565b91506120d982612a96565b604082019050919050565b60006120f16026836124ce565b91506120fc82612ae5565b604082019050919050565b60006121146025836124ce565b915061211f82612b34565b604082019050919050565b60006121376011836124df565b915061214282612b83565b601182019050919050565b600061215a601f836124ce565b915061216582612bac565b602082019050919050565b61217981612616565b82525050565b61218881612620565b82525050565b600061219982611f40565b91506121a58285611ec9565b91506121b08261212a565b91506121bc8284611ec9565b91508190509392505050565b60006020820190506121dd6000830184611e63565b92915050565b60006040820190506121f86000830185611e63565b6122056020830184612170565b9392505050565b60006020820190506122216000830184611e72565b92915050565b600060208201905061223c6000830184611e81565b92915050565b60006040820190506122576000830185611e81565b6122646020830184611e63565b9392505050565b600060208201905081810360008301526122858184611e90565b905092915050565b600060208201905081810360008301526122a681611efa565b9050919050565b600060208201905081810360008301526122c681611f1d565b9050919050565b600060208201905081810360008301526122e681611f63565b9050919050565b6000602082019050818103600083015261230681611f86565b9050919050565b6000602082019050818103600083015261232681611fa9565b9050919050565b6000602082019050818103600083015261234681611fcc565b9050919050565b6000602082019050818103600083015261236681611fef565b9050919050565b6000602082019050818103600083015261238681612012565b9050919050565b600060208201905081810360008301526123a681612035565b9050919050565b600060208201905081810360008301526123c681612058565b9050919050565b600060208201905081810360008301526123e68161207b565b9050919050565b600060208201905081810360008301526124068161209e565b9050919050565b60006020820190508181036000830152612426816120c1565b9050919050565b60006020820190508181036000830152612446816120e4565b9050919050565b6000602082019050818103600083015261246681612107565b9050919050565b600060208201905081810360008301526124868161214d565b9050919050565b60006020820190506124a26000830184612170565b92915050565b60006020820190506124bd600083018461217f565b92915050565b600081519050919050565b600082825260208201905092915050565b600081905092915050565b60006124f582612616565b915061250083612616565b9250827fffffffffffffffffffffffffffffffffffffffffffffffffffffffffffffffff03821115612535576125346126bc565b5b828201905092915050565b600061254b82612616565b915061255683612616565b9250817fffffffffffffffffffffffffffffffffffffffffffffffffffffffffffffffff048311821515161561258f5761258e6126bc565b5b828202905092915050565b60006125a582612616565b91506125b083612616565b9250828210156125c3576125c26126bc565b5b828203905092915050565b60006125d9826125f6565b9050919050565b60008115159050919050565b6000819050919050565b600073ffffffffffffffffffffffffffffffffffffffff82169050919050565b6000819050919050565b600060ff82169050919050565b60005b8381101561264b578082015181840152602081019050612630565b8381111561265a576000848401525b50505050565b600061266b82612616565b9150600082141561267f5761267e6126bc565b5b600182039050919050565b600060028204905060018216806126a257607f821691505b602082108114156126b6576126b56126eb565b5b50919050565b7f4e487b7100000000000000000000000000000000000000000000000000000000600052601160045260246000fd5b7f4e487b7100000000000000000000000000000000000000000000000000000000600052602260045260246000fd5b6000601f19601f8301169050919050565b7f537472696e67733a20686578206c656e67746820696e73756666696369656e74600082015250565b7f45524332303a207472616e7366657220746f20746865207a65726f206164647260008201527f6573730000000000000000000000000000000000000000000000000000000000602082015250565b7f416363657373436f6e74726f6c50726f78795061757361626c653a206163636f60008201527f756e742000000000000000000000000000000000000000000000000000000000602082015250565b7f5061757361626c653a206e6f7420706175736564000000000000000000000000600082015250565b7f45524332303a206275726e20616d6f756e7420657863656564732062616c616e60008201527f6365000000000000000000000000000000000000000000000000000000000000602082015250565b7f45524332303a20617070726f766520746f20746865207a65726f20616464726560008201527f7373000000000000000000000000000000000000000000000000000000000000602082015250565b7f45524332303a207472616e7366657220616d6f756e742065786365656473206260008201527f616c616e63650000000000000000000000000000000000000000000000000000602082015250565b7f5061757361626c653a2070617573656400000000000000000000000000000000600082015250565b7f45524332303a207472616e7366657220616d6f756e742065786365656473206160008201527f6c6c6f77616e6365000000000000000000000000000000000000000000000000602082015250565b7f45524332303a206275726e2066726f6d20746865207a65726f2061646472657360008201527f7300000000000000000000000000000000000000000000000000000000000000602082015250565b7f45524332303a207472616e736665722066726f6d20746865207a65726f20616460008201527f6472657373000000000000000000000000000000000000000000000000000000602082015250565b7f45524332304361707065643a2063617020657863656564656400000000000000600082015250565b7f45524332303a20617070726f76652066726f6d20746865207a65726f2061646460008201527f7265737300000000000000000000000000000000000000000000000000000000602082015250565b7f547574656c6c757345524332303a206275726e20616d6f756e7420657863656560008201527f647320737570706c790000000000000000000000000000000000000000000000602082015250565b7f547574656c6c757345524332303a206d696e7420616d6f756e7420657863656560008201527f6473206361700000000000000000000000000000000000000000000000000000602082015250565b7f45524332303a2064656372656173656420616c6c6f77616e63652062656c6f7760008201527f207a65726f000000000000000000000000000000000000000000000000000000602082015250565b7f206973206d697373696e6720726f6c6520000000000000000000000000000000600082015250565b7f45524332303a206d696e7420746f20746865207a65726f206164647265737300600082015250565b612bde816125ce565b8114612be957600080fd5b50565b612bf5816125e0565b8114612c0057600080fd5b50565b612c0c81612616565b8114612c1757600080fd5b5056fea26469706673582212209bf731b047f4c1f6c1cb79343f9603046260ffb4a2acbd62cc2230a480f2bf9164736f6c6343000802003360806040523480156200001157600080fd5b506040516200277c3803806200277c833981810160405281019062000037919062000786565b6200004982826200005160201b60201c565b5050620008be565b600060019054906101000a900460ff168062000078575060008054906101000a900460ff16155b620000ba576040517f08c379a0000000000000000000000000000000000000000000000000000000008152600401620000b190620007ee565b60405180910390fd5b60008060019054906101000a900460ff1615905080156200010b576001600060016101000a81548160ff02191690831515021790555060016000806101000a81548160ff0219169083151502179055505b6200011c836200015460201b60201c565b6200012d826200025560201b60201c565b80156200014f5760008060016101000a81548160ff0219169083151502179055505b505050565b600060019054906101000a900460ff16806200017b575060008054906101000a900460ff16155b620001bd576040517f08c379a0000000000000000000000000000000000000000000000000000000008152600401620001b490620007ee565b60405180910390fd5b60008060019054906101000a900460ff1615905080156200020e576001600060016101000a81548160ff02191690831515021790555060016000806101000a81548160ff0219169083151502179055505b6200021e6200037660201b60201c565b6200022f826200047560201b60201c565b8015620002515760008060016101000a81548160ff0219169083151502179055505b5050565b600060019054906101000a900460ff16806200027c575060008054906101000a900460ff16155b620002be576040517f08c379a0000000000000000000000000000000000000000000000000000000008152600401620002b590620007ee565b60405180910390fd5b60008060019054906101000a900460ff1615905080156200030f576001600060016101000a81548160ff02191690831515021790555060016000806101000a81548160ff0219169083151502179055505b81606660006101000a81548173ffffffffffffffffffffffffffffffffffffffff021916908373ffffffffffffffffffffffffffffffffffffffff1602179055508015620003725760008060016101000a81548160ff0219169083151502179055505b5050565b600060019054906101000a900460ff16806200039d575060008054906101000a900460ff16155b620003df576040517f08c379a0000000000000000000000000000000000000000000000000000000008152600401620003d690620007ee565b60405180910390fd5b60008060019054906101000a900460ff16159050801562000430576001600060016101000a81548160ff02191690831515021790555060016000806101000a81548160ff0219169083151502179055505b620004406200059660201b60201c565b620004506200067560201b60201c565b8015620004725760008060016101000a81548160ff0219169083151502179055505b50565b600060019054906101000a900460ff16806200049c575060008054906101000a900460ff16155b620004de576040517f08c379a0000000000000000000000000000000000000000000000000000000008152600401620004d590620007ee565b60405180910390fd5b60008060019054906101000a900460ff1615905080156200052f576001600060016101000a81548160ff02191690831515021790555060016000806101000a81548160ff0219169083151502179055505b81606560006101000a81548173ffffffffffffffffffffffffffffffffffffffff021916908373ffffffffffffffffffffffffffffffffffffffff1602179055508015620005925760008060016101000a81548160ff0219169083151502179055505b5050565b600060019054906101000a900460ff1680620005bd575060008054906101000a900460ff16155b620005ff576040517f08c379a0000000000000000000000000000000000000000000000000000000008152600401620005f690620007ee565b60405180910390fd5b60008060019054906101000a900460ff16159050801562000650576001600060016101000a81548160ff02191690831515021790555060016000806101000a81548160ff0219169083151502179055505b8015620006725760008060016101000a81548160ff0219169083151502179055505b50565b600060019054906101000a900460ff16806200069c575060008054906101000a900460ff16155b620006de576040517f08c379a0000000000000000000000000000000000000000000000000000000008152600401620006d590620007ee565b60405180910390fd5b60008060019054906101000a900460ff1615905080156200072f576001600060016101000a81548160ff02191690831515021790555060016000806101000a81548160ff0219169083151502179055505b6000603360006101000a81548160ff02191690831515021790555080156200076c5760008060016101000a81548160ff0219169083151502179055505b50565b6000815190506200078081620008a4565b92915050565b600080604083850312156200079a57600080fd5b6000620007aa858286016200076f565b9250506020620007bd858286016200076f565b9150509250929050565b6000620007d6602e8362000810565b9150620007e38262000855565b604082019050919050565b600060208201905081810360008301526200080981620007c7565b9050919050565b600082825260208201905092915050565b60006200082e8262000835565b9050919050565b600073ffffffffffffffffffffffffffffffffffffffff82169050919050565b7f496e697469616c697a61626c653a20636f6e747261637420697320616c72656160008201527f647920696e697469616c697a6564000000000000000000000000000000000000602082015250565b620008af8162000821565b8114620008bb57600080fd5b50565b611eae80620008ce6000396000f3fe608060405234801561001057600080fd5b50600436106101165760003560e01c806363453ae1116100a25780639ecaf2b2116100715780639ecaf2b2146102cb578063a217fddf146102fb578063c07cfca914610319578063e63ab1e91461034c578063fc0c546a1461036a57610116565b806363453ae1146102455780638456cb591461026157806384618ddc1461026b5780639852595c1461029b57610116565b80634e71d92d116100e95780634e71d92d146101b5578063578bcf35146101bf5780635872a4de146101ef57806358aba00f1461020b5780635c975abb1461022757610116565b806310098ad51461011b5780633f4ba83a1461014b5780633f697ce9146101555780634225e5bb14610185575b600080fd5b6101356004803603810190610130919061157d565b610388565b60405161014291906119e8565b60405180910390f35b6101536103ad565b005b61016f600480360381019061016a919061157d565b610523565b60405161017c91906119e8565b60405180910390f35b61019f600480360381019061019a919061157d565b61056f565b6040516101ac91906119e8565b60405180910390f35b6101bd6105c1565b005b6101d960048036038101906101d4919061157d565b6105d2565b6040516101e691906119e8565b60405180910390f35b610209600480360381019061020491906115a6565b61061e565b005b6102256004803603810190610220919061157d565b610a54565b005b61022f610be7565b60405161023c91906118c7565b60405180910390f35b61025f600480360381019061025a919061157d565b610bfe565b005b610269610de5565b005b6102856004803603810190610280919061157d565b610f5b565b60405161029291906119e8565b60405180910390f35b6102b560048036038101906102b0919061157d565b610fa7565b6040516102c291906119e8565b60405180910390f35b6102e560048036038101906102e0919061157d565b61102a565b6040516102f291906119e8565b60405180910390f35b610303611076565b60405161031091906118e2565b60405180910390f35b610333600480360381019061032e919061157d565b61107d565b6040516103439493929190611a03565b60405180910390f35b6103546110ad565b60405161036191906118e2565b60405180910390f35b6103726110d1565b60405161037f9190611807565b60405180910390f35b6000610393826105d2565b61039c83610fa7565b6103a69190611b50565b9050919050565b7f65d7a28e3265b37a6474929f336521b332c1681b933f6cb9f3376673440d862a6000606560009054906101000a900473ffffffffffffffffffffffffffffffffffffffff16905060003390508173ffffffffffffffffffffffffffffffffffffffff166391d1485484836040518363ffffffff1660e01b81526004016104359291906118fd565b60206040518083038186803b15801561044d57600080fd5b505afa158015610461573d6000803e3d6000fd5b505050506040513d601f19601f820116820180604052508101906104859190611609565b6104a68273ffffffffffffffffffffffffffffffffffffffff1660146110f7565b6104b48560001c60206110f7565b6040516020016104c59291906117cd565b60405160208183030381529060405290610515576040517f08c379a000000000000000000000000000000000000000000000000000000000815260040161050c9190611926565b60405180910390fd5b5061051e6113f1565b505050565b6000606760008373ffffffffffffffffffffffffffffffffffffffff1673ffffffffffffffffffffffffffffffffffffffff168152602001908152602001600020600201549050919050565b60008061057b8361102a565b11156105b75761058a8261102a565b61059383610523565b61059c84610f5b565b6105a69190611b50565b6105b09190611ac5565b90506105bc565b600090505b919050565b60003390506105cf81610bfe565b50565b6000606760008373ffffffffffffffffffffffffffffffffffffffff1673ffffffffffffffffffffffffffffffffffffffff168152602001908152602001600020600001549050919050565b6000801b6000606560009054906101000a900473ffffffffffffffffffffffffffffffffffffffff16905060003390508173ffffffffffffffffffffffffffffffffffffffff166391d1485484836040518363ffffffff1660e01b81526004016106899291906118fd565b60206040518083038186803b1580156106a157600080fd5b505afa1580156106b5573d6000803e3d6000fd5b505050506040513d601f19601f820116820180604052508101906106d99190611609565b6106fa8273ffffffffffffffffffffffffffffffffffffffff1660146110f7565b6107088560001c60206110f7565b6040516020016107199291906117cd565b60405160208183030381529060405290610769576040517f08c379a00000000000000000000000000000000000000000000000000000000081526004016107609190611926565b60405180910390fd5b508484116107ac576040517f08c379a00000000000000000000000000000000000000000000000000000000081526004016107a3906119a8565b60405180910390fd5b6000606760008973ffffffffffffffffffffffffffffffffffffffff1673ffffffffffffffffffffffffffffffffffffffff1681526020019081526020016000206000018190555084846108009190611b50565b8661080b9190611ac5565b606760008973ffffffffffffffffffffffffffffffffffffffff1673ffffffffffffffffffffffffffffffffffffffff16815260200190815260200160002060010181905550844361085d9190611a6f565b606760008973ffffffffffffffffffffffffffffffffffffffff1673ffffffffffffffffffffffffffffffffffffffff1681526020019081526020016000206002018190555083436108af9190611a6f565b606760008973ffffffffffffffffffffffffffffffffffffffff1673ffffffffffffffffffffffffffffffffffffffff168152602001908152602001600020600301819055506000606660009054906101000a900473ffffffffffffffffffffffffffffffffffffffff1690508073ffffffffffffffffffffffffffffffffffffffff166340c10f1930896040518363ffffffff1660e01b8152600401610957929190611859565b600060405180830381600087803b15801561097157600080fd5b505af1158015610985573d6000803e3d6000fd5b505050507fc37e5d36bd0279e9c61952b98313de5a8351caf00960074dbe2017a03ac5202e8888606760008c73ffffffffffffffffffffffffffffffffffffffff1673ffffffffffffffffffffffffffffffffffffffff16815260200190815260200160002060020154606760008d73ffffffffffffffffffffffffffffffffffffffff1673ffffffffffffffffffffffffffffffffffffffff16815260200190815260200160002060030154604051610a429493929190611882565b60405180910390a15050505050505050565b6000801b6000606560009054906101000a900473ffffffffffffffffffffffffffffffffffffffff16905060003390508173ffffffffffffffffffffffffffffffffffffffff166391d1485484836040518363ffffffff1660e01b8152600401610abf9291906118fd565b60206040518083038186803b158015610ad757600080fd5b505afa158015610aeb573d6000803e3d6000fd5b505050506040513d601f19601f82011682018060405250810190610b0f9190611609565b610b308273ffffffffffffffffffffffffffffffffffffffff1660146110f7565b610b3e8560001c60206110f7565b604051602001610b4f9291906117cd565b60405160208183030381529060405290610b9f576040517f08c379a0000000000000000000000000000000000000000000000000000000008152600401610b969190611926565b60405180910390fd5b5083606560006101000a81548173ffffffffffffffffffffffffffffffffffffffff021916908373ffffffffffffffffffffffffffffffffffffffff16021790555050505050565b6000603360009054906101000a900460ff16905090565b610c06610be7565b15610c46576040517f08c379a0000000000000000000000000000000000000000000000000000000008152600401610c3d90611988565b60405180910390fd5b6000606660009054906101000a900473ffffffffffffffffffffffffffffffffffffffff1690506000610c7883610388565b90506000811015610cbe576040517f08c379a0000000000000000000000000000000000000000000000000000000008152600401610cb5906119c8565b60405180910390fd5b80606760008573ffffffffffffffffffffffffffffffffffffffff1673ffffffffffffffffffffffffffffffffffffffff1681526020019081526020016000206000016000828254610d109190611a6f565b925050819055508173ffffffffffffffffffffffffffffffffffffffff1663a9059cbb84836040518363ffffffff1660e01b8152600401610d52929190611859565b602060405180830381600087803b158015610d6c57600080fd5b505af1158015610d80573d6000803e3d6000fd5b505050506040513d601f19601f82011682018060405250810190610da49190611609565b507fafdc1eb311d58306e249917b5ca0044a827a66f0ec535c334d63372c4055d364338483604051610dd893929190611822565b60405180910390a1505050565b7f65d7a28e3265b37a6474929f336521b332c1681b933f6cb9f3376673440d862a6000606560009054906101000a900473ffffffffffffffffffffffffffffffffffffffff16905060003390508173ffffffffffffffffffffffffffffffffffffffff166391d1485484836040518363ffffffff1660e01b8152600401610e6d9291906118fd565b60206040518083038186803b158015610e8557600080fd5b505afa158015610e99573d6000803e3d6000fd5b505050506040513d601f19601f82011682018060405250810190610ebd9190611609565b610ede8273ffffffffffffffffffffffffffffffffffffffff1660146110f7565b610eec8560001c60206110f7565b604051602001610efd9291906117cd565b60405160208183030381529060405290610f4d576040517f08c379a0000000000000000000000000000000000000000000000000000000008152600401610f449190611926565b60405180910390fd5b50610f56611493565b505050565b6000606760008373ffffffffffffffffffffffffffffffffffffffff1673ffffffffffffffffffffffffffffffffffffffff168152602001908152602001600020600301549050919050565b600080610fb38361056f565b111561102057610fc282610f5b565b431115610fd957610fd28261056f565b9050611025565b610fe282610523565b43111561101757610ff28261102a565b610ffb83610523565b436110069190611b50565b6110109190611af6565b9050611025565b60009050611025565b600090505b919050565b6000606760008373ffffffffffffffffffffffffffffffffffffffff1673ffffffffffffffffffffffffffffffffffffffff168152602001908152602001600020600101549050919050565b6000801b81565b60676020528060005260406000206000915090508060000154908060010154908060020154908060030154905084565b7f65d7a28e3265b37a6474929f336521b332c1681b933f6cb9f3376673440d862a81565b606660009054906101000a900473ffffffffffffffffffffffffffffffffffffffff1681565b60606000600283600261110a9190611af6565b6111149190611a6f565b67ffffffffffffffff811115611153577f4e487b7100000000000000000000000000000000000000000000000000000000600052604160045260246000fd5b6040519080825280601f01601f1916602001820160405280156111855781602001600182028036833780820191505090505b5090507f3000000000000000000000000000000000000000000000000000000000000000816000815181106111e3577f4e487b7100000000000000000000000000000000000000000000000000000000600052603260045260246000fd5b60200101907effffffffffffffffffffffffffffffffffffffffffffffffffffffffffffff1916908160001a9053507f78000000000000000000000000000000000000000000000000000000000000008160018151811061126d577f4e487b7100000000000000000000000000000000000000000000000000000000600052603260045260246000fd5b60200101907effffffffffffffffffffffffffffffffffffffffffffffffffffffffffffff1916908160001a905350600060018460026112ad9190611af6565b6112b79190611a6f565b90505b60018111156113a3577f3031323334353637383961626364656600000000000000000000000000000000600f86166010811061131f577f4e487b7100000000000000000000000000000000000000000000000000000000600052603260045260246000fd5b1a60f81b82828151811061135c577f4e487b7100000000000000000000000000000000000000000000000000000000600052603260045260246000fd5b60200101907effffffffffffffffffffffffffffffffffffffffffffffffffffffffffffff1916908160001a905350600485901c94508061139c90611c09565b90506112ba565b50600084146113e7576040517f08c379a00000000000000000000000000000000000000000000000000000000081526004016113de90611948565b60405180910390fd5b8091505092915050565b6113f9610be7565b611438576040517f08c379a000000000000000000000000000000000000000000000000000000000815260040161142f90611968565b60405180910390fd5b6000603360006101000a81548160ff0219169083151502179055507f5db9ee0a495bf2e6ff9c91a7834c1ba4fdd244a5e8aa4e537bd38aeae4b073aa61147c611536565b6040516114899190611807565b60405180910390a1565b61149b610be7565b156114db576040517f08c379a00000000000000000000000000000000000000000000000000000000081526004016114d290611988565b60405180910390fd5b6001603360006101000a81548160ff0219169083151502179055507f62e78cea01bee320cd4e420270b5ea74000d11b0c9f74754ebdbfc544b05a25861151f611536565b60405161152c9190611807565b60405180910390a1565b600033905090565b60008135905061154d81611e33565b92915050565b60008151905061156281611e4a565b92915050565b60008135905061157781611e61565b92915050565b60006020828403121561158f57600080fd5b600061159d8482850161153e565b91505092915050565b600080600080608085870312156115bc57600080fd5b60006115ca8782880161153e565b94505060206115db87828801611568565b93505060406115ec87828801611568565b92505060606115fd87828801611568565b91505092959194509250565b60006020828403121561161b57600080fd5b600061162984828501611553565b91505092915050565b61163b81611b84565b82525050565b61164a81611b96565b82525050565b61165981611ba2565b82525050565b600061166a82611a48565b6116748185611a53565b9350611684818560208601611bd6565b61168d81611c91565b840191505092915050565b60006116a382611a48565b6116ad8185611a64565b93506116bd818560208601611bd6565b80840191505092915050565b60006116d6602083611a53565b91506116e182611ca2565b602082019050919050565b60006116f9602483611a64565b915061170482611ccb565b602482019050919050565b600061171c601483611a53565b915061172782611d1a565b602082019050919050565b600061173f601083611a53565b915061174a82611d43565b602082019050919050565b6000611762603c83611a53565b915061176d82611d6c565b604082019050919050565b6000611785602e83611a53565b915061179082611dbb565b604082019050919050565b60006117a8601183611a64565b91506117b382611e0a565b601182019050919050565b6117c781611bcc565b82525050565b60006117d8826116ec565b91506117e48285611698565b91506117ef8261179b565b91506117fb8284611698565b91508190509392505050565b600060208201905061181c6000830184611632565b92915050565b60006060820190506118376000830186611632565b6118446020830185611632565b61185160408301846117be565b949350505050565b600060408201905061186e6000830185611632565b61187b60208301846117be565b9392505050565b60006080820190506118976000830187611632565b6118a460208301866117be565b6118b160408301856117be565b6118be60608301846117be565b95945050505050565b60006020820190506118dc6000830184611641565b92915050565b60006020820190506118f76000830184611650565b92915050565b60006040820190506119126000830185611650565b61191f6020830184611632565b9392505050565b60006020820190508181036000830152611940818461165f565b905092915050565b60006020820190508181036000830152611961816116c9565b9050919050565b600060208201905081810360008301526119818161170f565b9050919050565b600060208201905081810360008301526119a181611732565b9050919050565b600060208201905081810360008301526119c181611755565b9050919050565b600060208201905081810360008301526119e181611778565b9050919050565b60006020820190506119fd60008301846117be565b92915050565b6000608082019050611a1860008301876117be565b611a2560208301866117be565b611a3260408301856117be565b611a3f60608301846117be565b95945050505050565b600081519050919050565b600082825260208201905092915050565b600081905092915050565b6000611a7a82611bcc565b9150611a8583611bcc565b9250827fffffffffffffffffffffffffffffffffffffffffffffffffffffffffffffffff03821115611aba57611ab9611c33565b5b828201905092915050565b6000611ad082611bcc565b9150611adb83611bcc565b925082611aeb57611aea611c62565b5b828204905092915050565b6000611b0182611bcc565b9150611b0c83611bcc565b9250817fffffffffffffffffffffffffffffffffffffffffffffffffffffffffffffffff0483118215151615611b4557611b44611c33565b5b828202905092915050565b6000611b5b82611bcc565b9150611b6683611bcc565b925082821015611b7957611b78611c33565b5b828203905092915050565b6000611b8f82611bac565b9050919050565b60008115159050919050565b6000819050919050565b600073ffffffffffffffffffffffffffffffffffffffff82169050919050565b6000819050919050565b60005b83811015611bf4578082015181840152602081019050611bd9565b83811115611c03576000848401525b50505050565b6000611c1482611bcc565b91506000821415611c2857611c27611c33565b5b600182039050919050565b7f4e487b7100000000000000000000000000000000000000000000000000000000600052601160045260246000fd5b7f4e487b7100000000000000000000000000000000000000000000000000000000600052601260045260246000fd5b6000601f19601f8301169050919050565b7f537472696e67733a20686578206c656e67746820696e73756666696369656e74600082015250565b7f416363657373436f6e74726f6c50726f78795061757361626c653a206163636f60008201527f756e742000000000000000000000000000000000000000000000000000000000602082015250565b7f5061757361626c653a206e6f7420706175736564000000000000000000000000600082015250565b7f5061757361626c653a2070617573656400000000000000000000000000000000600082015250565b7f547574656c6c7573446973747269627574696f6e5661756c743a20656e64426c60008201527f6f636b206d757374206265206166746572207374617274426c6f636b00000000602082015250565b7f547574656c6c7573446973747269627574696f6e5661756c743a204e6f20617660008201527f61696c61626c6520746f6b656e73000000000000000000000000000000000000602082015250565b7f206973206d697373696e6720726f6c6520000000000000000000000000000000600082015250565b611e3c81611b84565b8114611e4757600080fd5b50565b611e5381611b96565b8114611e5e57600080fd5b50565b611e6a81611bcc565b8114611e7557600080fd5b5056fea2646970667358221220b3f006bee4b104afc65a1ea4ac5f82dc84e5e6682f759014fca899f75aacde6564736f6c6343000802003360806040523480156200001157600080fd5b5060405162002ed338038062002ed38339818101604052810190620000379190620007f2565b6200004b848484846200005560201b60201c565b5050505062000c7f565b600060019054906101000a900460ff16806200007c575060008054906101000a900460ff16155b620000be576040517f08c379a0000000000000000000000000000000000000000000000000000000008152600401620000b59062000885565b60405180910390fd5b60008060019054906101000a900460ff1615905080156200010f576001600060016101000a81548160ff02191690831515021790555060016000806101000a81548160ff0219169083151502179055505b62000120856200015c60201b60201c565b620001338484846200025d60201b60201c565b8015620001555760008060016101000a81548160ff0219169083151502179055505b5050505050565b600060019054906101000a900460ff168062000183575060008054906101000a900460ff16155b620001c5576040517f08c379a0000000000000000000000000000000000000000000000000000000008152600401620001bc9062000885565b60405180910390fd5b60008060019054906101000a900460ff16159050801562000216576001600060016101000a81548160ff02191690831515021790555060016000806101000a81548160ff0219169083151502179055505b62000226620003cb60201b60201c565b6200023782620004ca60201b60201c565b8015620002595760008060016101000a81548160ff0219169083151502179055505b5050565b600060019054906101000a900460ff168062000284575060008054906101000a900460ff16155b620002c6576040517f08c379a0000000000000000000000000000000000000000000000000000000008152600401620002bd9062000885565b60405180910390fd5b60008060019054906101000a900460ff16159050801562000317576001600060016101000a81548160ff02191690831515021790555060016000806101000a81548160ff0219169083151502179055505b83607060006101000a81548173ffffffffffffffffffffffffffffffffffffffff021916908373ffffffffffffffffffffffffffffffffffffffff16021790555043606c8190555081436200036d9190620008b8565b606d81905550600282620003829190620009a8565b83600262000391919062000ae5565b6200039d919062000915565b606e819055508015620003c55760008060016101000a81548160ff0219169083151502179055505b50505050565b600060019054906101000a900460ff1680620003f2575060008054906101000a900460ff16155b62000434576040517f08c379a00000000000000000000000000000000000000000000000000000000081526004016200042b9062000885565b60405180910390fd5b60008060019054906101000a900460ff16159050801562000485576001600060016101000a81548160ff02191690831515021790555060016000806101000a81548160ff0219169083151502179055505b62000495620005eb60201b60201c565b620004a5620006ca60201b60201c565b8015620004c75760008060016101000a81548160ff0219169083151502179055505b50565b600060019054906101000a900460ff1680620004f1575060008054906101000a900460ff16155b62000533576040517f08c379a00000000000000000000000000000000000000000000000000000000081526004016200052a9062000885565b60405180910390fd5b60008060019054906101000a900460ff16159050801562000584576001600060016101000a81548160ff02191690831515021790555060016000806101000a81548160ff0219169083151502179055505b81606560006101000a81548173ffffffffffffffffffffffffffffffffffffffff021916908373ffffffffffffffffffffffffffffffffffffffff1602179055508015620005e75760008060016101000a81548160ff0219169083151502179055505b5050565b600060019054906101000a900460ff168062000612575060008054906101000a900460ff16155b62000654576040517f08c379a00000000000000000000000000000000000000000000000000000000081526004016200064b9062000885565b60405180910390fd5b60008060019054906101000a900460ff161590508015620006a5576001600060016101000a81548160ff02191690831515021790555060016000806101000a81548160ff0219169083151502179055505b8015620006c75760008060016101000a81548160ff0219169083151502179055505b50565b600060019054906101000a900460ff1680620006f1575060008054906101000a900460ff16155b62000733576040517f08c379a00000000000000000000000000000000000000000000000000000000081526004016200072a9062000885565b60405180910390fd5b60008060019054906101000a900460ff16159050801562000784576001600060016101000a81548160ff02191690831515021790555060016000806101000a81548160ff0219169083151502179055505b6000603360006101000a81548160ff0219169083151502179055508015620007c15760008060016101000a81548160ff0219169083151502179055505b50565b600081519050620007d58162000c4b565b92915050565b600081519050620007ec8162000c65565b92915050565b600080600080608085870312156200080957600080fd5b60006200081987828801620007c4565b94505060206200082c87828801620007c4565b93505060406200083f87828801620007db565b92505060606200085287828801620007db565b91505092959194509250565b60006200086d602e83620008a7565b91506200087a8262000bfc565b604082019050919050565b60006020820190508181036000830152620008a0816200085e565b9050919050565b600082825260208201905092915050565b6000620008c58262000b7a565b9150620008d28362000b7a565b9250827fffffffffffffffffffffffffffffffffffffffffffffffffffffffffffffffff038211156200090a576200090962000b91565b5b828201905092915050565b6000620009228262000b7a565b91506200092f8362000b7a565b92508262000942576200094162000bc0565b5b828204905092915050565b6000808291508390505b60018511156200099f5780860481111562000977576200097662000b91565b5b6001851615620009875780820291505b8081029050620009978562000bef565b945062000957565b94509492505050565b6000620009b58262000b7a565b9150620009c28362000b84565b9250620009f17fffffffffffffffffffffffffffffffffffffffffffffffffffffffffffffffff8484620009f9565b905092915050565b60008262000a0b576001905062000ade565b8162000a1b576000905062000ade565b816001811462000a34576002811462000a3f5762000a75565b600191505062000ade565b60ff84111562000a545762000a5362000b91565b5b8360020a91508482111562000a6e5762000a6d62000b91565b5b5062000ade565b5060208310610133831016604e8410600b841016171562000aaf5782820a90508381111562000aa95762000aa862000b91565b5b62000ade565b62000abe84848460016200094d565b9250905081840481111562000ad85762000ad762000b91565b5b81810290505b9392505050565b600062000af28262000b7a565b915062000aff8362000b7a565b9250817fffffffffffffffffffffffffffffffffffffffffffffffffffffffffffffffff048311821515161562000b3b5762000b3a62000b91565b5b828202905092915050565b600062000b538262000b5a565b9050919050565b600073ffffffffffffffffffffffffffffffffffffffff82169050919050565b6000819050919050565b600060ff82169050919050565b7f4e487b7100000000000000000000000000000000000000000000000000000000600052601160045260246000fd5b7f4e487b7100000000000000000000000000000000000000000000000000000000600052601260045260246000fd5b60008160011c9050919050565b7f496e697469616c697a61626c653a20636f6e747261637420697320616c72656160008201527f647920696e697469616c697a6564000000000000000000000000000000000000602082015250565b62000c568162000b46565b811462000c6257600080fd5b50565b62000c708162000b7a565b811462000c7c57600080fd5b50565b6122448062000c8f6000396000f3fe608060405234801561001057600080fd5b50600436106100ea5760003560e01c80638456cb591161008c578063ae7928bf11610066578063ae7928bf14610211578063cccc9a9214610241578063e63ab1e91461025d578063fc0c546a1461027b576100ea565b80638456cb59146101cb57806396132521146101d5578063a217fddf146101f3576100ea565b80633f4ba83a116100c85780633f4ba83a1461015757806358aba00f146101615780635c975abb1461017d5780636867aac51461019b576100ea565b8063158a4988146100ef5780631d444d301461010b57806337cb9e671461013b575b600080fd5b610109600480360381019061010491906115b2565b610299565b005b61012560048036038101906101209190611535565b610407565b6040516101329190611a54565b60405180910390f35b610155600480360381019061015091906115ee565b610476565b005b61015f610780565b005b61017b60048036038101906101769190611535565b6108f6565b005b610185610a89565b60405161019291906118f3565b60405180910390f35b6101b560048036038101906101b09190611658565b610aa0565b6040516101c29190611a54565b60405180910390f35b6101d3610b86565b005b6101dd610cfc565b6040516101ea9190611a54565b60405180910390f35b6101fb610d0f565b604051610208919061190e565b60405180910390f35b61022b60048036038101906102269190611535565b610d16565b6040516102389190611a54565b60405180910390f35b61025b6004803603810190610256919061155e565b610dbf565b005b610265610fcf565b604051610272919061190e565b60405180910390f35b610283610ff3565b60405161029091906118af565b60405180910390f35b6102a282610407565b8111156102e4576040517f08c379a00000000000000000000000000000000000000000000000000000000081526004016102db90611a34565b60405180910390fd5b80606a6000606660003373ffffffffffffffffffffffffffffffffffffffff1673ffffffffffffffffffffffffffffffffffffffff16815260200190815260200160002054815260200190815260200160002060008282546103469190611ae7565b925050819055506000607060009054906101000a900473ffffffffffffffffffffffffffffffffffffffff1690508073ffffffffffffffffffffffffffffffffffffffff1663a9059cbb84846040518363ffffffff1660e01b81526004016103af9291906118ca565b602060405180830381600087803b1580156103c957600080fd5b505af11580156103dd573d6000803e3d6000fd5b505050506040513d601f19601f82011682018060405250810190610401919061162f565b50505050565b6000606a6000606660008573ffffffffffffffffffffffffffffffffffffffff1673ffffffffffffffffffffffffffffffffffffffff1681526020019081526020016000205481526020019081526020016000205461046583610d16565b61046f9190611d39565b9050919050565b6000801b6000606560009054906101000a900473ffffffffffffffffffffffffffffffffffffffff16905060003390508173ffffffffffffffffffffffffffffffffffffffff166391d1485484836040518363ffffffff1660e01b81526004016104e1929190611929565b60206040518083038186803b1580156104f957600080fd5b505afa15801561050d573d6000803e3d6000fd5b505050506040513d601f19601f82011682018060405250810190610531919061162f565b6105528273ffffffffffffffffffffffffffffffffffffffff166014611019565b6105608560001c6020611019565b604051602001610571929190611875565b604051602081830303815290604052906105c1576040517f08c379a00000000000000000000000000000000000000000000000000000000081526004016105b89190611952565b60405180910390fd5b5060008085519050606f54811461060d576040517f08c379a000000000000000000000000000000000000000000000000000000000815260040161060490611a14565b60405180910390fd5b60005b8181101561072457868181518110610651577f4e487b7100000000000000000000000000000000000000000000000000000000600052603260045260246000fd5b602002602001015160686000838152602001908152602001600020819055506106ac6067600083815260200190815260200160002060009054906101000a900473ffffffffffffffffffffffffffffffffffffffff16610d16565b60696000838152602001908152602001600020819055508681815181106106fc577f4e487b7100000000000000000000000000000000000000000000000000000000600052603260045260246000fd5b60200260200101518361070f9190611ae7565b9250808061071c90611e5a565b915050610610565b5043606b8190555068056bc75e2d63100000821115610778576040517f08c379a000000000000000000000000000000000000000000000000000000000815260040161076f906119d4565b60405180910390fd5b505050505050565b7f65d7a28e3265b37a6474929f336521b332c1681b933f6cb9f3376673440d862a6000606560009054906101000a900473ffffffffffffffffffffffffffffffffffffffff16905060003390508173ffffffffffffffffffffffffffffffffffffffff166391d1485484836040518363ffffffff1660e01b8152600401610808929190611929565b60206040518083038186803b15801561082057600080fd5b505afa158015610834573d6000803e3d6000fd5b505050506040513d601f19601f82011682018060405250810190610858919061162f565b6108798273ffffffffffffffffffffffffffffffffffffffff166014611019565b6108878560001c6020611019565b604051602001610898929190611875565b604051602081830303815290604052906108e8576040517f08c379a00000000000000000000000000000000000000000000000000000000081526004016108df9190611952565b60405180910390fd5b506108f1611313565b505050565b6000801b6000606560009054906101000a900473ffffffffffffffffffffffffffffffffffffffff16905060003390508173ffffffffffffffffffffffffffffffffffffffff166391d1485484836040518363ffffffff1660e01b8152600401610961929190611929565b60206040518083038186803b15801561097957600080fd5b505afa15801561098d573d6000803e3d6000fd5b505050506040513d601f19601f820116820180604052508101906109b1919061162f565b6109d28273ffffffffffffffffffffffffffffffffffffffff166014611019565b6109e08560001c6020611019565b6040516020016109f1929190611875565b60405160208183030381529060405290610a41576040517f08c379a0000000000000000000000000000000000000000000000000000000008152600401610a389190611952565b60405180910390fd5b5083606560006101000a81548173ffffffffffffffffffffffffffffffffffffffff021916908373ffffffffffffffffffffffffffffffffffffffff16021790555050505050565b6000603360009054906101000a900460ff16905090565b6000818310610ae4576040517f08c379a0000000000000000000000000000000000000000000000000000000008152600401610adb90611994565b60405180910390fd5b606d54821115610af457606d5491505b606c54831015610b0457606c5492505b6000600280606c5485610b179190611d39565b610b219190611bc1565b606e54610b2e9190611cdf565b610b389190611b3d565b90506000600280606c5487610b4d9190611d39565b610b579190611bc1565b606e54610b649190611cdf565b610b6e9190611b3d565b90508082610b7c9190611d39565b9250505092915050565b7f65d7a28e3265b37a6474929f336521b332c1681b933f6cb9f3376673440d862a6000606560009054906101000a900473ffffffffffffffffffffffffffffffffffffffff16905060003390508173ffffffffffffffffffffffffffffffffffffffff166391d1485484836040518363ffffffff1660e01b8152600401610c0e929190611929565b60206040518083038186803b158015610c2657600080fd5b505afa158015610c3a573d6000803e3d6000fd5b505050506040513d601f19601f82011682018060405250810190610c5e919061162f565b610c7f8273ffffffffffffffffffffffffffffffffffffffff166014611019565b610c8d8560001c6020611019565b604051602001610c9e929190611875565b60405160208183030381529060405290610cee576040517f08c379a0000000000000000000000000000000000000000000000000000000008152600401610ce59190611952565b60405180910390fd5b50610cf76113b5565b505050565b6000610d0a43606c54610aa0565b905090565b6000801b81565b600080606660008473ffffffffffffffffffffffffffffffffffffffff1673ffffffffffffffffffffffffffffffffffffffff16815260200190815260200160002054905068056bc75e2d631000006068600083815260200190815260200160002054610d8543606b54610aa0565b610d8f9190611cdf565b610d999190611b3d565b6069600083815260200190815260200160002054610db79190611ae7565b915050919050565b6000801b6000606560009054906101000a900473ffffffffffffffffffffffffffffffffffffffff16905060003390508173ffffffffffffffffffffffffffffffffffffffff166391d1485484836040518363ffffffff1660e01b8152600401610e2a929190611929565b60206040518083038186803b158015610e4257600080fd5b505afa158015610e56573d6000803e3d6000fd5b505050506040513d601f19601f82011682018060405250810190610e7a919061162f565b610e9b8273ffffffffffffffffffffffffffffffffffffffff166014611019565b610ea98560001c6020611019565b604051602001610eba929190611875565b60405160208183030381529060405290610f0a576040517f08c379a0000000000000000000000000000000000000000000000000000000008152600401610f019190611952565b60405180910390fd5b50606f54606660008773ffffffffffffffffffffffffffffffffffffffff1673ffffffffffffffffffffffffffffffffffffffff168152602001908152602001600020819055508460676000606f54815260200190815260200160002060006101000a81548173ffffffffffffffffffffffffffffffffffffffff021916908373ffffffffffffffffffffffffffffffffffffffff1602179055506001606f6000828254610fb89190611ae7565b92505081905550610fc884610476565b5050505050565b7f65d7a28e3265b37a6474929f336521b332c1681b933f6cb9f3376673440d862a81565b607060009054906101000a900473ffffffffffffffffffffffffffffffffffffffff1681565b60606000600283600261102c9190611cdf565b6110369190611ae7565b67ffffffffffffffff811115611075577f4e487b7100000000000000000000000000000000000000000000000000000000600052604160045260246000fd5b6040519080825280601f01601f1916602001820160405280156110a75781602001600182028036833780820191505090505b5090507f300000000000000000000000000000000000000000000000000000000000000081600081518110611105577f4e487b7100000000000000000000000000000000000000000000000000000000600052603260045260246000fd5b60200101907effffffffffffffffffffffffffffffffffffffffffffffffffffffffffffff1916908160001a9053507f78000000000000000000000000000000000000000000000000000000000000008160018151811061118f577f4e487b7100000000000000000000000000000000000000000000000000000000600052603260045260246000fd5b60200101907effffffffffffffffffffffffffffffffffffffffffffffffffffffffffffff1916908160001a905350600060018460026111cf9190611cdf565b6111d99190611ae7565b90505b60018111156112c5577f3031323334353637383961626364656600000000000000000000000000000000600f861660108110611241577f4e487b7100000000000000000000000000000000000000000000000000000000600052603260045260246000fd5b1a60f81b82828151811061127e577f4e487b7100000000000000000000000000000000000000000000000000000000600052603260045260246000fd5b60200101907effffffffffffffffffffffffffffffffffffffffffffffffffffffffffffff1916908160001a905350600485901c9450806112be90611dff565b90506111dc565b5060008414611309576040517f08c379a000000000000000000000000000000000000000000000000000000000815260040161130090611974565b60405180910390fd5b8091505092915050565b61131b610a89565b61135a576040517f08c379a0000000000000000000000000000000000000000000000000000000008152600401611351906119b4565b60405180910390fd5b6000603360006101000a81548160ff0219169083151502179055507f5db9ee0a495bf2e6ff9c91a7834c1ba4fdd244a5e8aa4e537bd38aeae4b073aa61139e611458565b6040516113ab91906118af565b60405180910390a1565b6113bd610a89565b156113fd576040517f08c379a00000000000000000000000000000000000000000000000000000000081526004016113f4906119f4565b60405180910390fd5b6001603360006101000a81548160ff0219169083151502179055507f62e78cea01bee320cd4e420270b5ea74000d11b0c9f74754ebdbfc544b05a258611441611458565b60405161144e91906118af565b60405180910390a1565b600033905090565b600061147361146e84611a94565b611a6f565b9050808382526020820190508285602086028201111561149257600080fd5b60005b858110156114c257816114a88882611520565b845260208401935060208301925050600181019050611495565b5050509392505050565b6000813590506114db816121c9565b92915050565b600082601f8301126114f257600080fd5b8135611502848260208601611460565b91505092915050565b60008151905061151a816121e0565b92915050565b60008135905061152f816121f7565b92915050565b60006020828403121561154757600080fd5b6000611555848285016114cc565b91505092915050565b6000806040838503121561157157600080fd5b600061157f858286016114cc565b925050602083013567ffffffffffffffff81111561159c57600080fd5b6115a8858286016114e1565b9150509250929050565b600080604083850312156115c557600080fd5b60006115d3858286016114cc565b92505060206115e485828601611520565b9150509250929050565b60006020828403121561160057600080fd5b600082013567ffffffffffffffff81111561161a57600080fd5b611626848285016114e1565b91505092915050565b60006020828403121561164157600080fd5b600061164f8482850161150b565b91505092915050565b6000806040838503121561166b57600080fd5b600061167985828601611520565b925050602061168a85828601611520565b9150509250929050565b61169d81611d6d565b82525050565b6116ac81611d7f565b82525050565b6116bb81611d8b565b82525050565b60006116cc82611ac0565b6116d68185611acb565b93506116e6818560208601611dcc565b6116ef81611f30565b840191505092915050565b600061170582611ac0565b61170f8185611adc565b935061171f818560208601611dcc565b80840191505092915050565b6000611738602083611acb565b915061174382611f4e565b602082019050919050565b600061175b603c83611acb565b915061176682611f77565b604082019050919050565b600061177e602483611adc565b915061178982611fc6565b602482019050919050565b60006117a1601483611acb565b91506117ac82612015565b602082019050919050565b60006117c4604183611acb565b91506117cf8261203e565b606082019050919050565b60006117e7601083611acb565b91506117f2826120b3565b602082019050919050565b600061180a605783611acb565b9150611815826120dc565b606082019050919050565b600061182d601183611adc565b915061183882612151565b601182019050919050565b6000611850603383611acb565b915061185b8261217a565b604082019050919050565b61186f81611db5565b82525050565b600061188082611771565b915061188c82856116fa565b915061189782611820565b91506118a382846116fa565b91508190509392505050565b60006020820190506118c46000830184611694565b92915050565b60006040820190506118df6000830185611694565b6118ec6020830184611866565b9392505050565b600060208201905061190860008301846116a3565b92915050565b600060208201905061192360008301846116b2565b92915050565b600060408201905061193e60008301856116b2565b61194b6020830184611694565b9392505050565b6000602082019050818103600083015261196c81846116c1565b905092915050565b6000602082019050818103600083015261198d8161172b565b9050919050565b600060208201905081810360008301526119ad8161174e565b9050919050565b600060208201905081810360008301526119cd81611794565b9050919050565b600060208201905081810360008301526119ed816117b7565b9050919050565b60006020820190508181036000830152611a0d816117da565b9050919050565b60006020820190508181036000830152611a2d816117fd565b9050919050565b60006020820190508181036000830152611a4d81611843565b9050919050565b6000602082019050611a696000830184611866565b92915050565b6000611a79611a8a565b9050611a858282611e29565b919050565b6000604051905090565b600067ffffffffffffffff821115611aaf57611aae611f01565b5b602082029050602081019050919050565b600081519050919050565b600082825260208201905092915050565b600081905092915050565b6000611af282611db5565b9150611afd83611db5565b9250827fffffffffffffffffffffffffffffffffffffffffffffffffffffffffffffffff03821115611b3257611b31611ea3565b5b828201905092915050565b6000611b4882611db5565b9150611b5383611db5565b925082611b6357611b62611ed2565b5b828204905092915050565b6000808291508390505b6001851115611bb857808604811115611b9457611b93611ea3565b5b6001851615611ba35780820291505b8081029050611bb185611f41565b9450611b78565b94509492505050565b6000611bcc82611db5565b9150611bd783611dbf565b9250611c047fffffffffffffffffffffffffffffffffffffffffffffffffffffffffffffffff8484611c0c565b905092915050565b600082611c1c5760019050611cd8565b81611c2a5760009050611cd8565b8160018114611c405760028114611c4a57611c79565b6001915050611cd8565b60ff841115611c5c57611c5b611ea3565b5b8360020a915084821115611c7357611c72611ea3565b5b50611cd8565b5060208310610133831016604e8410600b8410161715611cae5782820a905083811115611ca957611ca8611ea3565b5b611cd8565b611cbb8484846001611b6e565b92509050818404811115611cd257611cd1611ea3565b5b81810290505b9392505050565b6000611cea82611db5565b9150611cf583611db5565b9250817fffffffffffffffffffffffffffffffffffffffffffffffffffffffffffffffff0483118215151615611d2e57611d2d611ea3565b5b828202905092915050565b6000611d4482611db5565b9150611d4f83611db5565b925082821015611d6257611d61611ea3565b5b828203905092915050565b6000611d7882611d95565b9050919050565b60008115159050919050565b6000819050919050565b600073ffffffffffffffffffffffffffffffffffffffff82169050919050565b6000819050919050565b600060ff82169050919050565b60005b83811015611dea578082015181840152602081019050611dcf565b83811115611df9576000848401525b50505050565b6000611e0a82611db5565b91506000821415611e1e57611e1d611ea3565b5b600182039050919050565b611e3282611f30565b810181811067ffffffffffffffff82111715611e5157611e50611f01565b5b80604052505050565b6000611e6582611db5565b91507fffffffffffffffffffffffffffffffffffffffffffffffffffffffffffffffff821415611e9857611e97611ea3565b5b600182019050919050565b7f4e487b7100000000000000000000000000000000000000000000000000000000600052601160045260246000fd5b7f4e487b7100000000000000000000000000000000000000000000000000000000600052601260045260246000fd5b7f4e487b7100000000000000000000000000000000000000000000000000000000600052604160045260246000fd5b6000601f19601f8301169050919050565b60008160011c9050919050565b7f537472696e67733a20686578206c656e67746820696e73756666696369656e74600082015250565b7f547574656c6c75735969656c64547574656c6c75735969656c6452657761726460008201527f73746f6b656e3a207b66726f6d7d206973206166746572207b746f7d00000000602082015250565b7f416363657373436f6e74726f6c50726f78795061757361626c653a206163636f60008201527f756e742000000000000000000000000000000000000000000000000000000000602082015250565b7f5061757361626c653a206e6f7420706175736564000000000000000000000000600082015250565b7f547574656c6c75735969656c64526577617264735661756c743a20616c6c6f6360008201527f6174696f6e2073756d206d757374206265206c6f776572207468616e2031653260208201527f3000000000000000000000000000000000000000000000000000000000000000604082015250565b7f5061757361626c653a2070617573656400000000000000000000000000000000600082015250565b7f547574656c6c75735969656c64526577617264735661756c743a20616c6c6f6360008201527f6174696f6e206172726179206d75737420686176652073616d65206c656e677460208201527f68206173206e756d626572206f66206163636f756e7473000000000000000000604082015250565b7f206973206d697373696e6720726f6c6520000000000000000000000000000000600082015250565b7f547574656c6c75735969656c64526577617264735661756c743a20616d6f756e60008201527f74206578636565647320617661696c61626c6500000000000000000000000000602082015250565b6121d281611d6d565b81146121dd57600080fd5b50565b6121e981611d7f565b81146121f457600080fd5b50565b61220081611db5565b811461220b57600080fd5b5056fea2646970667358221220c0b7fdfa070d4fb5a22536e4c434a7e976f8cb05a8fe9ffbf6237b7fe7dc91f764736f6c6343000802003360806040523480156200001157600080fd5b506040516200283338038062002833833981810160405281019062000037919062000786565b6200004982826200005160201b60201c565b5050620008be565b600060019054906101000a900460ff168062000078575060008054906101000a900460ff16155b620000ba576040517f08c379a0000000000000000000000000000000000000000000000000000000008152600401620000b190620007ee565b60405180910390fd5b60008060019054906101000a900460ff1615905080156200010b576001600060016101000a81548160ff02191690831515021790555060016000806101000a81548160ff0219169083151502179055505b6200011c836200015460201b60201c565b6200012d826200025560201b60201c565b80156200014f5760008060016101000a81548160ff0219169083151502179055505b505050565b600060019054906101000a900460ff16806200017b575060008054906101000a900460ff16155b620001bd576040517f08c379a0000000000000000000000000000000000000000000000000000000008152600401620001b490620007ee565b60405180910390fd5b60008060019054906101000a900460ff1615905080156200020e576001600060016101000a81548160ff02191690831515021790555060016000806101000a81548160ff0219169083151502179055505b6200021e6200037660201b60201c565b6200022f826200047560201b60201c565b8015620002515760008060016101000a81548160ff0219169083151502179055505b5050565b600060019054906101000a900460ff16806200027c575060008054906101000a900460ff16155b620002be576040517f08c379a0000000000000000000000000000000000000000000000000000000008152600401620002b590620007ee565b60405180910390fd5b60008060019054906101000a900460ff1615905080156200030f576001600060016101000a81548160ff02191690831515021790555060016000806101000a81548160ff0219169083151502179055505b81606660006101000a81548173ffffffffffffffffffffffffffffffffffffffff021916908373ffffffffffffffffffffffffffffffffffffffff1602179055508015620003725760008060016101000a81548160ff0219169083151502179055505b5050565b600060019054906101000a900460ff16806200039d575060008054906101000a900460ff16155b620003df576040517f08c379a0000000000000000000000000000000000000000000000000000000008152600401620003d690620007ee565b60405180910390fd5b60008060019054906101000a900460ff16159050801562000430576001600060016101000a81548160ff02191690831515021790555060016000806101000a81548160ff0219169083151502179055505b620004406200059660201b60201c565b620004506200067560201b60201c565b8015620004725760008060016101000a81548160ff0219169083151502179055505b50565b600060019054906101000a900460ff16806200049c575060008054906101000a900460ff16155b620004de576040517f08c379a0000000000000000000000000000000000000000000000000000000008152600401620004d590620007ee565b60405180910390fd5b60008060019054906101000a900460ff1615905080156200052f576001600060016101000a81548160ff02191690831515021790555060016000806101000a81548160ff0219169083151502179055505b81606560006101000a81548173ffffffffffffffffffffffffffffffffffffffff021916908373ffffffffffffffffffffffffffffffffffffffff1602179055508015620005925760008060016101000a81548160ff0219169083151502179055505b5050565b600060019054906101000a900460ff1680620005bd575060008054906101000a900460ff16155b620005ff576040517f08c379a0000000000000000000000000000000000000000000000000000000008152600401620005f690620007ee565b60405180910390fd5b60008060019054906101000a900460ff16159050801562000650576001600060016101000a81548160ff02191690831515021790555060016000806101000a81548160ff0219169083151502179055505b8015620006725760008060016101000a81548160ff0219169083151502179055505b50565b600060019054906101000a900460ff16806200069c575060008054906101000a900460ff16155b620006de576040517f08c379a0000000000000000000000000000000000000000000000000000000008152600401620006d590620007ee565b60405180910390fd5b60008060019054906101000a900460ff1615905080156200072f576001600060016101000a81548160ff02191690831515021790555060016000806101000a81548160ff0219169083151502179055505b6000603360006101000a81548160ff02191690831515021790555080156200076c5760008060016101000a81548160ff0219169083151502179055505b50565b6000815190506200078081620008a4565b92915050565b600080604083850312156200079a57600080fd5b6000620007aa858286016200076f565b9250506020620007bd858286016200076f565b9150509250929050565b6000620007d6602e8362000810565b9150620007e38262000855565b604082019050919050565b600060208201905081810360008301526200080981620007c7565b9050919050565b600082825260208201905092915050565b60006200082e8262000835565b9050919050565b600073ffffffffffffffffffffffffffffffffffffffff82169050919050565b7f496e697469616c697a61626c653a20636f6e747261637420697320616c72656160008201527f647920696e697469616c697a6564000000000000000000000000000000000000602082015250565b620008af8162000821565b8114620008bb57600080fd5b50565b611f6580620008ce6000396000f3fe608060405234801561001057600080fd5b50600436106100cf5760003560e01c80638456cb591161008c578063e63ab1e911610066578063e63ab1e9146101c6578063eac989f8146101e4578063f54b893b14610202578063fc0c546a14610232576100cf565b80638456cb5914610182578063a217fddf1461018c578063e48034b5146101aa576100cf565b80632e7ba6ef146100d45780632eb4a7ab146100f05780633f4ba83a1461010e578063510eff4c1461011857806358aba00f146101485780635c975abb14610164575b600080fd5b6100ee60048036038101906100e99190611415565b610250565b005b6100f861043b565b60405161010591906117f7565b60405180910390f35b610116610441565b005b610132600480360381019061012d9190611415565b6105b7565b60405161013f919061192d565b60405180910390f35b610162600480360381019061015d919061136f565b6106ae565b005b61016c610841565b60405161017991906117dc565b60405180910390f35b61018a610858565b005b6101946109ce565b6040516101a191906117f7565b60405180910390f35b6101c460048036038101906101bf91906113c1565b6109d5565b005b6101ce610b82565b6040516101db91906117f7565b60405180910390f35b6101ec610ba6565b6040516101f9919061186b565b60405180910390f35b61021c6004803603810190610217919061136f565b610c34565b604051610229919061192d565b60405180910390f35b61023a610c7d565b6040516102479190611798565b60405180910390f35b610258610841565b15610298576040517f08c379a000000000000000000000000000000000000000000000000000000000815260040161028f906118cd565b60405180910390fd5b60006102a786868686866105b7565b9050600081116102ec576040517f08c379a00000000000000000000000000000000000000000000000000000000081526004016102e39061190d565b60405180910390fd5b80606960008773ffffffffffffffffffffffffffffffffffffffff1673ffffffffffffffffffffffffffffffffffffffff168152602001908152602001600020600082825461033b9190611a11565b925050819055506000606660009054906101000a900473ffffffffffffffffffffffffffffffffffffffff1690508073ffffffffffffffffffffffffffffffffffffffff1663a9059cbb87876040518363ffffffff1660e01b81526004016103a49291906117b3565b602060405180830381600087803b1580156103be57600080fd5b505af11580156103d2573d6000803e3d6000fd5b505050506040513d601f19601f820116820180604052508101906103f69190611398565b507f4ec90e965519d92681267467f775ada5bd214aa92c0dc93d90a5e880ce9ed02687878460405161042a93929190611948565b60405180910390a150505050505050565b60675481565b7f65d7a28e3265b37a6474929f336521b332c1681b933f6cb9f3376673440d862a6000606560009054906101000a900473ffffffffffffffffffffffffffffffffffffffff16905060003390508173ffffffffffffffffffffffffffffffffffffffff166391d1485484836040518363ffffffff1660e01b81526004016104c9929190611812565b60206040518083038186803b1580156104e157600080fd5b505afa1580156104f5573d6000803e3d6000fd5b505050506040513d601f19601f820116820180604052508101906105199190611398565b61053a8273ffffffffffffffffffffffffffffffffffffffff166014610ca3565b6105488560001c6020610ca3565b604051602001610559929190611721565b604051602081830303815290604052906105a9576040517f08c379a00000000000000000000000000000000000000000000000000000000081526004016105a0919061186b565b60405180910390fd5b506105b2610f9d565b505050565b6000808686866040516020016105cf9392919061175b565b604051602081830303815290604052805190602001209050610635848480806020026020016040519081016040528093929190818152602001838360200280828437600081840152601f19601f820116905080830192505050505050506067548361103f565b610674576040517f08c379a000000000000000000000000000000000000000000000000000000000815260040161066b906118ed565b60405180910390fd5b600061067f87610c34565b90508086111561069e5780866106959190611ac1565b925050506106a5565b6000925050505b95945050505050565b6000801b6000606560009054906101000a900473ffffffffffffffffffffffffffffffffffffffff16905060003390508173ffffffffffffffffffffffffffffffffffffffff166391d1485484836040518363ffffffff1660e01b8152600401610719929190611812565b60206040518083038186803b15801561073157600080fd5b505afa158015610745573d6000803e3d6000fd5b505050506040513d601f19601f820116820180604052508101906107699190611398565b61078a8273ffffffffffffffffffffffffffffffffffffffff166014610ca3565b6107988560001c6020610ca3565b6040516020016107a9929190611721565b604051602081830303815290604052906107f9576040517f08c379a00000000000000000000000000000000000000000000000000000000081526004016107f0919061186b565b60405180910390fd5b5083606560006101000a81548173ffffffffffffffffffffffffffffffffffffffff021916908373ffffffffffffffffffffffffffffffffffffffff16021790555050505050565b6000603360009054906101000a900460ff16905090565b7f65d7a28e3265b37a6474929f336521b332c1681b933f6cb9f3376673440d862a6000606560009054906101000a900473ffffffffffffffffffffffffffffffffffffffff16905060003390508173ffffffffffffffffffffffffffffffffffffffff166391d1485484836040518363ffffffff1660e01b81526004016108e0929190611812565b60206040518083038186803b1580156108f857600080fd5b505afa15801561090c573d6000803e3d6000fd5b505050506040513d601f19601f820116820180604052508101906109309190611398565b6109518273ffffffffffffffffffffffffffffffffffffffff166014610ca3565b61095f8560001c6020610ca3565b604051602001610970929190611721565b604051602081830303815290604052906109c0576040517f08c379a00000000000000000000000000000000000000000000000000000000081526004016109b7919061186b565b60405180910390fd5b506109c961111b565b505050565b6000801b81565b6000801b6000606560009054906101000a900473ffffffffffffffffffffffffffffffffffffffff16905060003390508173ffffffffffffffffffffffffffffffffffffffff166391d1485484836040518363ffffffff1660e01b8152600401610a40929190611812565b60206040518083038186803b158015610a5857600080fd5b505afa158015610a6c573d6000803e3d6000fd5b505050506040513d601f19601f82011682018060405250810190610a909190611398565b610ab18273ffffffffffffffffffffffffffffffffffffffff166014610ca3565b610abf8560001c6020610ca3565b604051602001610ad0929190611721565b60405160208183030381529060405290610b20576040517f08c379a0000000000000000000000000000000000000000000000000000000008152600401610b17919061186b565b60405180910390fd5b50846067819055508360689080519060200190610b3e9291906111c6565b507fdc6ef77e1e729c09277287d1224cc0b4fd2053bbcca61a8febb80e46180324786067546068604051610b7392919061183b565b60405180910390a15050505050565b7f65d7a28e3265b37a6474929f336521b332c1681b933f6cb9f3376673440d862a81565b60688054610bb390611bb3565b80601f0160208091040260200160405190810160405280929190818152602001828054610bdf90611bb3565b8015610c2c5780601f10610c0157610100808354040283529160200191610c2c565b820191906000526020600020905b815481529060010190602001808311610c0f57829003601f168201915b505050505081565b6000606960008373ffffffffffffffffffffffffffffffffffffffff1673ffffffffffffffffffffffffffffffffffffffff168152602001908152602001600020549050919050565b606660009054906101000a900473ffffffffffffffffffffffffffffffffffffffff1681565b606060006002836002610cb69190611a67565b610cc09190611a11565b67ffffffffffffffff811115610cff577f4e487b7100000000000000000000000000000000000000000000000000000000600052604160045260246000fd5b6040519080825280601f01601f191660200182016040528015610d315781602001600182028036833780820191505090505b5090507f300000000000000000000000000000000000000000000000000000000000000081600081518110610d8f577f4e487b7100000000000000000000000000000000000000000000000000000000600052603260045260246000fd5b60200101907effffffffffffffffffffffffffffffffffffffffffffffffffffffffffffff1916908160001a9053507f780000000000000000000000000000000000000000000000000000000000000081600181518110610e19577f4e487b7100000000000000000000000000000000000000000000000000000000600052603260045260246000fd5b60200101907effffffffffffffffffffffffffffffffffffffffffffffffffffffffffffff1916908160001a90535060006001846002610e599190611a67565b610e639190611a11565b90505b6001811115610f4f577f3031323334353637383961626364656600000000000000000000000000000000600f861660108110610ecb577f4e487b7100000000000000000000000000000000000000000000000000000000600052603260045260246000fd5b1a60f81b828281518110610f08577f4e487b7100000000000000000000000000000000000000000000000000000000600052603260045260246000fd5b60200101907effffffffffffffffffffffffffffffffffffffffffffffffffffffffffffff1916908160001a905350600485901c945080610f4890611b89565b9050610e66565b5060008414610f93576040517f08c379a0000000000000000000000000000000000000000000000000000000008152600401610f8a9061188d565b60405180910390fd5b8091505092915050565b610fa5610841565b610fe4576040517f08c379a0000000000000000000000000000000000000000000000000000000008152600401610fdb906118ad565b60405180910390fd5b6000603360006101000a81548160ff0219169083151502179055507f5db9ee0a495bf2e6ff9c91a7834c1ba4fdd244a5e8aa4e537bd38aeae4b073aa6110286111be565b6040516110359190611798565b60405180910390a1565b60008082905060005b855181101561110d57600086828151811061108c577f4e487b7100000000000000000000000000000000000000000000000000000000600052603260045260246000fd5b602002602001015190508083116110cd5782816040516020016110b09291906116f5565b6040516020818303038152906040528051906020012092506110f9565b80836040516020016110e09291906116f5565b6040516020818303038152906040528051906020012092505b50808061110590611c16565b915050611048565b508381149150509392505050565b611123610841565b15611163576040517f08c379a000000000000000000000000000000000000000000000000000000000815260040161115a906118cd565b60405180910390fd5b6001603360006101000a81548160ff0219169083151502179055507f62e78cea01bee320cd4e420270b5ea74000d11b0c9f74754ebdbfc544b05a2586111a76111be565b6040516111b49190611798565b60405180910390a1565b600033905090565b8280546111d290611bb3565b90600052602060002090601f0160209004810192826111f4576000855561123b565b82601f1061120d57805160ff191683800117855561123b565b8280016001018555821561123b579182015b8281111561123a57825182559160200191906001019061121f565b5b509050611248919061124c565b5090565b5b8082111561126557600081600090555060010161124d565b5090565b600061127c611277846119a4565b61197f565b90508281526020810184848401111561129457600080fd5b61129f848285611b47565b509392505050565b6000813590506112b681611ed3565b92915050565b60008083601f8401126112ce57600080fd5b8235905067ffffffffffffffff8111156112e757600080fd5b6020830191508360208202830111156112ff57600080fd5b9250929050565b60008151905061131581611eea565b92915050565b60008135905061132a81611f01565b92915050565b600082601f83011261134157600080fd5b8135611351848260208601611269565b91505092915050565b60008135905061136981611f18565b92915050565b60006020828403121561138157600080fd5b600061138f848285016112a7565b91505092915050565b6000602082840312156113aa57600080fd5b60006113b884828501611306565b91505092915050565b600080604083850312156113d457600080fd5b60006113e28582860161131b565b925050602083013567ffffffffffffffff8111156113ff57600080fd5b61140b85828601611330565b9150509250929050565b60008060008060006080868803121561142d57600080fd5b600061143b8882890161135a565b955050602061144c888289016112a7565b945050604061145d8882890161135a565b935050606086013567ffffffffffffffff81111561147a57600080fd5b611486888289016112bc565b92509250509295509295909350565b61149e81611af5565b82525050565b6114b56114b082611af5565b611c5f565b82525050565b6114c481611b07565b82525050565b6114d381611b13565b82525050565b6114ea6114e582611b13565b611c71565b82525050565b60006114fb826119ea565b61150581856119f5565b9350611515818560208601611b56565b61151e81611d24565b840191505092915050565b6000611534826119ea565b61153e8185611a06565b935061154e818560208601611b56565b80840191505092915050565b6000815461156781611bb3565b61157181866119f5565b9450600182166000811461158c576001811461159e576115d1565b60ff19831686526020860193506115d1565b6115a7856119d5565b60005b838110156115c9578154818901526001820191506020810190506115aa565b808801955050505b50505092915050565b60006115e76020836119f5565b91506115f282611d42565b602082019050919050565b600061160a602483611a06565b915061161582611d6b565b602482019050919050565b600061162d6014836119f5565b915061163882611dba565b602082019050919050565b60006116506010836119f5565b915061165b82611de3565b602082019050919050565b6000611673602b836119f5565b915061167e82611e0c565b604082019050919050565b6000611696602e836119f5565b91506116a182611e5b565b604082019050919050565b60006116b9601183611a06565b91506116c482611eaa565b601182019050919050565b6116d881611b3d565b82525050565b6116ef6116ea82611b3d565b611c8d565b82525050565b600061170182856114d9565b60208201915061171182846114d9565b6020820191508190509392505050565b600061172c826115fd565b91506117388285611529565b9150611743826116ac565b915061174f8284611529565b91508190509392505050565b600061176782866116de565b60208201915061177782856114a4565b60148201915061178782846116de565b602082019150819050949350505050565b60006020820190506117ad6000830184611495565b92915050565b60006040820190506117c86000830185611495565b6117d560208301846116cf565b9392505050565b60006020820190506117f160008301846114bb565b92915050565b600060208201905061180c60008301846114ca565b92915050565b600060408201905061182760008301856114ca565b6118346020830184611495565b9392505050565b600060408201905061185060008301856114ca565b8181036020830152611862818461155a565b90509392505050565b6000602082019050818103600083015261188581846114f0565b905092915050565b600060208201905081810360008301526118a6816115da565b9050919050565b600060208201905081810360008301526118c681611620565b9050919050565b600060208201905081810360008301526118e681611643565b9050919050565b6000602082019050818103600083015261190681611666565b9050919050565b6000602082019050818103600083015261192681611689565b9050919050565b600060208201905061194260008301846116cf565b92915050565b600060608201905061195d60008301866116cf565b61196a6020830185611495565b61197760408301846116cf565b949350505050565b600061198961199a565b90506119958282611be5565b919050565b6000604051905090565b600067ffffffffffffffff8211156119bf576119be611cf5565b5b6119c882611d24565b9050602081019050919050565b60008190508160005260206000209050919050565b600081519050919050565b600082825260208201905092915050565b600081905092915050565b6000611a1c82611b3d565b9150611a2783611b3d565b9250827fffffffffffffffffffffffffffffffffffffffffffffffffffffffffffffffff03821115611a5c57611a5b611c97565b5b828201905092915050565b6000611a7282611b3d565b9150611a7d83611b3d565b9250817fffffffffffffffffffffffffffffffffffffffffffffffffffffffffffffffff0483118215151615611ab657611ab5611c97565b5b828202905092915050565b6000611acc82611b3d565b9150611ad783611b3d565b925082821015611aea57611ae9611c97565b5b828203905092915050565b6000611b0082611b1d565b9050919050565b60008115159050919050565b6000819050919050565b600073ffffffffffffffffffffffffffffffffffffffff82169050919050565b6000819050919050565b82818337600083830152505050565b60005b83811015611b74578082015181840152602081019050611b59565b83811115611b83576000848401525b50505050565b6000611b9482611b3d565b91506000821415611ba857611ba7611c97565b5b600182039050919050565b60006002820490506001821680611bcb57607f821691505b60208210811415611bdf57611bde611cc6565b5b50919050565b611bee82611d24565b810181811067ffffffffffffffff82111715611c0d57611c0c611cf5565b5b80604052505050565b6000611c2182611b3d565b91507fffffffffffffffffffffffffffffffffffffffffffffffffffffffffffffffff821415611c5457611c53611c97565b5b600182019050919050565b6000611c6a82611c7b565b9050919050565b6000819050919050565b6000611c8682611d35565b9050919050565b6000819050919050565b7f4e487b7100000000000000000000000000000000000000000000000000000000600052601160045260246000fd5b7f4e487b7100000000000000000000000000000000000000000000000000000000600052602260045260246000fd5b7f4e487b7100000000000000000000000000000000000000000000000000000000600052604160045260246000fd5b6000601f19601f8301169050919050565b60008160601b9050919050565b7f537472696e67733a20686578206c656e67746820696e73756666696369656e74600082015250565b7f416363657373436f6e74726f6c50726f78795061757361626c653a206163636f60008201527f756e742000000000000000000000000000000000000000000000000000000000602082015250565b7f5061757361626c653a206e6f7420706175736564000000000000000000000000600082015250565b7f5061757361626c653a2070617573656400000000000000000000000000000000600082015250565b7f4d65726b6c654469737472696275746f7255706461746561626c653a20496e7660008201527f616c69642070726f6f662e000000000000000000000000000000000000000000602082015250565b7f4d65726b6c654469737472696275746f7255706461746561626c653a204e6f7460008201527f68696e6720746f20636c61696d2e000000000000000000000000000000000000602082015250565b7f206973206d697373696e6720726f6c6520000000000000000000000000000000600082015250565b611edc81611af5565b8114611ee757600080fd5b50565b611ef381611b07565b8114611efe57600080fd5b50565b611f0a81611b13565b8114611f1557600080fd5b50565b611f2181611b3d565b8114611f2c57600080fd5b5056fea2646970667358221220d87ed0872e2595073772e3544a554917c1adc540c44c07709a037e5eba5618c864736f6c6343000802003360806040523480156200001157600080fd5b506040516200275738038062002757833981810160405281019062000037919062000838565b6200004c85858585856200005760201b60201c565b505050505062000cdb565b600060019054906101000a900460ff16806200007e575060008054906101000a900460ff16155b620000c0576040517f08c379a0000000000000000000000000000000000000000000000000000000008152600401620000b790620008e1565b60405180910390fd5b60008060019054906101000a900460ff16159050801562000111576001600060016101000a81548160ff02191690831515021790555060016000806101000a81548160ff0219169083151502179055505b62000122866200016060201b60201c565b62000136858585856200026160201b60201c565b8015620001585760008060016101000a81548160ff0219169083151502179055505b505050505050565b600060019054906101000a900460ff168062000187575060008054906101000a900460ff16155b620001c9576040517f08c379a0000000000000000000000000000000000000000000000000000000008152600401620001c090620008e1565b60405180910390fd5b60008060019054906101000a900460ff1615905080156200021a576001600060016101000a81548160ff02191690831515021790555060016000806101000a81548160ff0219169083151502179055505b6200022a6200041160201b60201c565b6200023b826200051060201b60201c565b80156200025d5760008060016101000a81548160ff0219169083151502179055505b5050565b600060019054906101000a900460ff168062000288575060008054906101000a900460ff16155b620002ca576040517f08c379a0000000000000000000000000000000000000000000000000000000008152600401620002c190620008e1565b60405180910390fd5b60008060019054906101000a900460ff1615905080156200031b576001600060016101000a81548160ff02191690831515021790555060016000806101000a81548160ff0219169083151502179055505b83606660006101000a81548173ffffffffffffffffffffffffffffffffffffffff021916908373ffffffffffffffffffffffffffffffffffffffff16021790555084606760006101000a81548173ffffffffffffffffffffffffffffffffffffffff021916908373ffffffffffffffffffffffffffffffffffffffff160217905550436069819055508143620003b2919062000914565b606a81905550600282620003c7919062000a04565b836002620003d6919062000b41565b620003e2919062000971565b606b8190555080156200040a5760008060016101000a81548160ff0219169083151502179055505b5050505050565b600060019054906101000a900460ff168062000438575060008054906101000a900460ff16155b6200047a576040517f08c379a00000000000000000000000000000000000000000000000000000000081526004016200047190620008e1565b60405180910390fd5b60008060019054906101000a900460ff161590508015620004cb576001600060016101000a81548160ff02191690831515021790555060016000806101000a81548160ff0219169083151502179055505b620004db6200063160201b60201c565b620004eb6200071060201b60201c565b80156200050d5760008060016101000a81548160ff0219169083151502179055505b50565b600060019054906101000a900460ff168062000537575060008054906101000a900460ff16155b62000579576040517f08c379a00000000000000000000000000000000000000000000000000000000081526004016200057090620008e1565b60405180910390fd5b60008060019054906101000a900460ff161590508015620005ca576001600060016101000a81548160ff02191690831515021790555060016000806101000a81548160ff0219169083151502179055505b81606560006101000a81548173ffffffffffffffffffffffffffffffffffffffff021916908373ffffffffffffffffffffffffffffffffffffffff16021790555080156200062d5760008060016101000a81548160ff0219169083151502179055505b5050565b600060019054906101000a900460ff168062000658575060008054906101000a900460ff16155b6200069a576040517f08c379a00000000000000000000000000000000000000000000000000000000081526004016200069190620008e1565b60405180910390fd5b60008060019054906101000a900460ff161590508015620006eb576001600060016101000a81548160ff02191690831515021790555060016000806101000a81548160ff0219169083151502179055505b80156200070d5760008060016101000a81548160ff0219169083151502179055505b50565b600060019054906101000a900460ff168062000737575060008054906101000a900460ff16155b62000779576040517f08c379a00000000000000000000000000000000000000000000000000000000081526004016200077090620008e1565b60405180910390fd5b60008060019054906101000a900460ff161590508015620007ca576001600060016101000a81548160ff02191690831515021790555060016000806101000a81548160ff0219169083151502179055505b6000603360006101000a81548160ff0219169083151502179055508015620008075760008060016101000a81548160ff0219169083151502179055505b50565b6000815190506200081b8162000ca7565b92915050565b600081519050620008328162000cc1565b92915050565b600080600080600060a086880312156200085157600080fd5b600062000861888289016200080a565b955050602062000874888289016200080a565b945050604062000887888289016200080a565b93505060606200089a8882890162000821565b9250506080620008ad8882890162000821565b9150509295509295909350565b6000620008c9602e8362000903565b9150620008d68262000c58565b604082019050919050565b60006020820190508181036000830152620008fc81620008ba565b9050919050565b600082825260208201905092915050565b6000620009218262000bd6565b91506200092e8362000bd6565b9250827fffffffffffffffffffffffffffffffffffffffffffffffffffffffffffffffff0382111562000966576200096562000bed565b5b828201905092915050565b60006200097e8262000bd6565b91506200098b8362000bd6565b9250826200099e576200099d62000c1c565b5b828204905092915050565b6000808291508390505b6001851115620009fb57808604811115620009d357620009d262000bed565b5b6001851615620009e35780820291505b8081029050620009f38562000c4b565b9450620009b3565b94509492505050565b600062000a118262000bd6565b915062000a1e8362000be0565b925062000a4d7fffffffffffffffffffffffffffffffffffffffffffffffffffffffffffffffff848462000a55565b905092915050565b60008262000a67576001905062000b3a565b8162000a77576000905062000b3a565b816001811462000a90576002811462000a9b5762000ad1565b600191505062000b3a565b60ff84111562000ab05762000aaf62000bed565b5b8360020a91508482111562000aca5762000ac962000bed565b5b5062000b3a565b5060208310610133831016604e8410600b841016171562000b0b5782820a90508381111562000b055762000b0462000bed565b5b62000b3a565b62000b1a8484846001620009a9565b9250905081840481111562000b345762000b3362000bed565b5b81810290505b9392505050565b600062000b4e8262000bd6565b915062000b5b8362000bd6565b9250817fffffffffffffffffffffffffffffffffffffffffffffffffffffffffffffffff048311821515161562000b975762000b9662000bed565b5b828202905092915050565b600062000baf8262000bb6565b9050919050565b600073ffffffffffffffffffffffffffffffffffffffff82169050919050565b6000819050919050565b600060ff82169050919050565b7f4e487b7100000000000000000000000000000000000000000000000000000000600052601160045260246000fd5b7f4e487b7100000000000000000000000000000000000000000000000000000000600052601260045260246000fd5b60008160011c9050919050565b7f496e697469616c697a61626c653a20636f6e747261637420697320616c72656160008201527f647920696e697469616c697a6564000000000000000000000000000000000000602082015250565b62000cb28162000ba2565b811462000cbe57600080fd5b50565b62000ccc8162000bd6565b811462000cd857600080fd5b50565b611a6c8062000ceb6000396000f3fe608060405234801561001057600080fd5b50600436106100b45760003560e01c80637f51bb1f116100715780637f51bb1f146101555780638456cb5914610171578063961325211461017b578063a217fddf14610199578063e63ab1e9146101b7578063fc0c546a146101d5576100b4565b80633f4ba83a146100b95780634e71d92d146100c357806358aba00f146100cd5780635c975abb146100e957806361d027b3146101075780636867aac514610125575b600080fd5b6100c16101f3565b005b6100cb610369565b005b6100e760048036038101906100e29190611098565b6105ef565b005b6100f1610782565b6040516100fe919061133f565b60405180910390f35b61010f610799565b60405161011c91906112fb565b60405180910390f35b61013f600480360381019061013a91906110ea565b6107bf565b60405161014c9190611460565b60405180910390f35b61016f600480360381019061016a9190611098565b6108a5565b005b610179610a38565b005b610183610bae565b6040516101909190611460565b60405180910390f35b6101a1610bc1565b6040516101ae919061135a565b60405180910390f35b6101bf610bc8565b6040516101cc919061135a565b60405180910390f35b6101dd610bec565b6040516101ea91906112fb565b60405180910390f35b7f65d7a28e3265b37a6474929f336521b332c1681b933f6cb9f3376673440d862a6000606560009054906101000a900473ffffffffffffffffffffffffffffffffffffffff16905060003390508173ffffffffffffffffffffffffffffffffffffffff166391d1485484836040518363ffffffff1660e01b815260040161027b929190611375565b60206040518083038186803b15801561029357600080fd5b505afa1580156102a7573d6000803e3d6000fd5b505050506040513d601f19601f820116820180604052508101906102cb91906110c1565b6102ec8273ffffffffffffffffffffffffffffffffffffffff166014610c12565b6102fa8560001c6020610c12565b60405160200161030b9291906112c1565b6040516020818303038152906040529061035b576040517f08c379a0000000000000000000000000000000000000000000000000000000008152600401610352919061139e565b60405180910390fd5b50610364610f0c565b505050565b6000801b6000606560009054906101000a900473ffffffffffffffffffffffffffffffffffffffff16905060003390508173ffffffffffffffffffffffffffffffffffffffff166391d1485484836040518363ffffffff1660e01b81526004016103d4929190611375565b60206040518083038186803b1580156103ec57600080fd5b505afa158015610400573d6000803e3d6000fd5b505050506040513d601f19601f8201168201806040525081019061042491906110c1565b6104458273ffffffffffffffffffffffffffffffffffffffff166014610c12565b6104538560001c6020610c12565b6040516020016104649291906112c1565b604051602081830303815290604052906104b4576040517f08c379a00000000000000000000000000000000000000000000000000000000081526004016104ab919061139e565b60405180910390fd5b5060006068546104c2610bae565b6104cc91906116f4565b905060008111610511576040517f08c379a000000000000000000000000000000000000000000000000000000000815260040161050890611440565b60405180910390fd5b6000606660009054906101000a900473ffffffffffffffffffffffffffffffffffffffff1690508073ffffffffffffffffffffffffffffffffffffffff1663a9059cbb606760009054906101000a900473ffffffffffffffffffffffffffffffffffffffff16846040518363ffffffff1660e01b8152600401610595929190611316565b602060405180830381600087803b1580156105af57600080fd5b505af11580156105c3573d6000803e3d6000fd5b505050506040513d601f19601f820116820180604052508101906105e791906110c1565b505050505050565b6000801b6000606560009054906101000a900473ffffffffffffffffffffffffffffffffffffffff16905060003390508173ffffffffffffffffffffffffffffffffffffffff166391d1485484836040518363ffffffff1660e01b815260040161065a929190611375565b60206040518083038186803b15801561067257600080fd5b505afa158015610686573d6000803e3d6000fd5b505050506040513d601f19601f820116820180604052508101906106aa91906110c1565b6106cb8273ffffffffffffffffffffffffffffffffffffffff166014610c12565b6106d98560001c6020610c12565b6040516020016106ea9291906112c1565b6040516020818303038152906040529061073a576040517f08c379a0000000000000000000000000000000000000000000000000000000008152600401610731919061139e565b60405180910390fd5b5083606560006101000a81548173ffffffffffffffffffffffffffffffffffffffff021916908373ffffffffffffffffffffffffffffffffffffffff16021790555050505050565b6000603360009054906101000a900460ff16905090565b606760009054906101000a900473ffffffffffffffffffffffffffffffffffffffff1681565b6000818310610803576040517f08c379a00000000000000000000000000000000000000000000000000000000081526004016107fa906113e0565b60405180910390fd5b606a5482111561081357606a5491505b6069548310156108235760695492505b60006002806069548561083691906116f4565b610840919061157c565b606b5461084d919061169a565b61085791906114f8565b905060006002806069548761086c91906116f4565b610876919061157c565b606b54610883919061169a565b61088d91906114f8565b9050808261089b91906116f4565b9250505092915050565b6000801b6000606560009054906101000a900473ffffffffffffffffffffffffffffffffffffffff16905060003390508173ffffffffffffffffffffffffffffffffffffffff166391d1485484836040518363ffffffff1660e01b8152600401610910929190611375565b60206040518083038186803b15801561092857600080fd5b505afa15801561093c573d6000803e3d6000fd5b505050506040513d601f19601f8201168201806040525081019061096091906110c1565b6109818273ffffffffffffffffffffffffffffffffffffffff166014610c12565b61098f8560001c6020610c12565b6040516020016109a09291906112c1565b604051602081830303815290604052906109f0576040517f08c379a00000000000000000000000000000000000000000000000000000000081526004016109e7919061139e565b60405180910390fd5b5083606760006101000a81548173ffffffffffffffffffffffffffffffffffffffff021916908373ffffffffffffffffffffffffffffffffffffffff16021790555050505050565b7f65d7a28e3265b37a6474929f336521b332c1681b933f6cb9f3376673440d862a6000606560009054906101000a900473ffffffffffffffffffffffffffffffffffffffff16905060003390508173ffffffffffffffffffffffffffffffffffffffff166391d1485484836040518363ffffffff1660e01b8152600401610ac0929190611375565b60206040518083038186803b158015610ad857600080fd5b505afa158015610aec573d6000803e3d6000fd5b505050506040513d601f19601f82011682018060405250810190610b1091906110c1565b610b318273ffffffffffffffffffffffffffffffffffffffff166014610c12565b610b3f8560001c6020610c12565b604051602001610b509291906112c1565b60405160208183030381529060405290610ba0576040517f08c379a0000000000000000000000000000000000000000000000000000000008152600401610b97919061139e565b60405180910390fd5b50610ba9610fae565b505050565b6000610bbc436069546107bf565b905090565b6000801b81565b7f65d7a28e3265b37a6474929f336521b332c1681b933f6cb9f3376673440d862a81565b606660009054906101000a900473ffffffffffffffffffffffffffffffffffffffff1681565b606060006002836002610c25919061169a565b610c2f91906114a2565b67ffffffffffffffff811115610c6e577f4e487b7100000000000000000000000000000000000000000000000000000000600052604160045260246000fd5b6040519080825280601f01601f191660200182016040528015610ca05781602001600182028036833780820191505090505b5090507f300000000000000000000000000000000000000000000000000000000000000081600081518110610cfe577f4e487b7100000000000000000000000000000000000000000000000000000000600052603260045260246000fd5b60200101907effffffffffffffffffffffffffffffffffffffffffffffffffffffffffffff1916908160001a9053507f780000000000000000000000000000000000000000000000000000000000000081600181518110610d88577f4e487b7100000000000000000000000000000000000000000000000000000000600052603260045260246000fd5b60200101907effffffffffffffffffffffffffffffffffffffffffffffffffffffffffffff1916908160001a90535060006001846002610dc8919061169a565b610dd291906114a2565b90505b6001811115610ebe577f3031323334353637383961626364656600000000000000000000000000000000600f861660108110610e3a577f4e487b7100000000000000000000000000000000000000000000000000000000600052603260045260246000fd5b1a60f81b828281518110610e77577f4e487b7100000000000000000000000000000000000000000000000000000000600052603260045260246000fd5b60200101907effffffffffffffffffffffffffffffffffffffffffffffffffffffffffffff1916908160001a905350600485901c945080610eb7906117ba565b9050610dd5565b5060008414610f02576040517f08c379a0000000000000000000000000000000000000000000000000000000008152600401610ef9906113c0565b60405180910390fd5b8091505092915050565b610f14610782565b610f53576040517f08c379a0000000000000000000000000000000000000000000000000000000008152600401610f4a90611400565b60405180910390fd5b6000603360006101000a81548160ff0219169083151502179055507f5db9ee0a495bf2e6ff9c91a7834c1ba4fdd244a5e8aa4e537bd38aeae4b073aa610f97611051565b604051610fa491906112fb565b60405180910390a1565b610fb6610782565b15610ff6576040517f08c379a0000000000000000000000000000000000000000000000000000000008152600401610fed90611420565b60405180910390fd5b6001603360006101000a81548160ff0219169083151502179055507f62e78cea01bee320cd4e420270b5ea74000d11b0c9f74754ebdbfc544b05a25861103a611051565b60405161104791906112fb565b60405180910390a1565b600033905090565b600081359050611068816119f1565b92915050565b60008151905061107d81611a08565b92915050565b60008135905061109281611a1f565b92915050565b6000602082840312156110aa57600080fd5b60006110b884828501611059565b91505092915050565b6000602082840312156110d357600080fd5b60006110e18482850161106e565b91505092915050565b600080604083850312156110fd57600080fd5b600061110b85828601611083565b925050602061111c85828601611083565b9150509250929050565b61112f81611728565b82525050565b61113e8161173a565b82525050565b61114d81611746565b82525050565b600061115e8261147b565b6111688185611486565b9350611178818560208601611787565b61118181611842565b840191505092915050565b60006111978261147b565b6111a18185611497565b93506111b1818560208601611787565b80840191505092915050565b60006111ca602083611486565b91506111d582611860565b602082019050919050565b60006111ed603c83611486565b91506111f882611889565b604082019050919050565b6000611210602483611497565b915061121b826118d8565b602482019050919050565b6000611233601483611486565b915061123e82611927565b602082019050919050565b6000611256601083611486565b915061126182611950565b602082019050919050565b6000611279602783611486565b915061128482611979565b604082019050919050565b600061129c601183611497565b91506112a7826119c8565b601182019050919050565b6112bb81611770565b82525050565b60006112cc82611203565b91506112d8828561118c565b91506112e38261128f565b91506112ef828461118c565b91508190509392505050565b60006020820190506113106000830184611126565b92915050565b600060408201905061132b6000830185611126565b61133860208301846112b2565b9392505050565b60006020820190506113546000830184611135565b92915050565b600060208201905061136f6000830184611144565b92915050565b600060408201905061138a6000830185611144565b6113976020830184611126565b9392505050565b600060208201905081810360008301526113b88184611153565b905092915050565b600060208201905081810360008301526113d9816111bd565b9050919050565b600060208201905081810360008301526113f9816111e0565b9050919050565b6000602082019050818103600083015261141981611226565b9050919050565b6000602082019050818103600083015261143981611249565b9050919050565b600060208201905081810360008301526114598161126c565b9050919050565b600060208201905061147560008301846112b2565b92915050565b600081519050919050565b600082825260208201905092915050565b600081905092915050565b60006114ad82611770565b91506114b883611770565b9250827fffffffffffffffffffffffffffffffffffffffffffffffffffffffffffffffff038211156114ed576114ec6117e4565b5b828201905092915050565b600061150382611770565b915061150e83611770565b92508261151e5761151d611813565b5b828204905092915050565b6000808291508390505b60018511156115735780860481111561154f5761154e6117e4565b5b600185161561155e5780820291505b808102905061156c85611853565b9450611533565b94509492505050565b600061158782611770565b91506115928361177a565b92506115bf7fffffffffffffffffffffffffffffffffffffffffffffffffffffffffffffffff84846115c7565b905092915050565b6000826115d75760019050611693565b816115e55760009050611693565b81600181146115fb576002811461160557611634565b6001915050611693565b60ff841115611617576116166117e4565b5b8360020a91508482111561162e5761162d6117e4565b5b50611693565b5060208310610133831016604e8410600b84101617156116695782820a905083811115611664576116636117e4565b5b611693565b6116768484846001611529565b9250905081840481111561168d5761168c6117e4565b5b81810290505b9392505050565b60006116a582611770565b91506116b083611770565b9250817fffffffffffffffffffffffffffffffffffffffffffffffffffffffffffffffff04831182151516156116e9576116e86117e4565b5b828202905092915050565b60006116ff82611770565b915061170a83611770565b92508282101561171d5761171c6117e4565b5b828203905092915050565b600061173382611750565b9050919050565b60008115159050919050565b6000819050919050565b600073ffffffffffffffffffffffffffffffffffffffff82169050919050565b6000819050919050565b600060ff82169050919050565b60005b838110156117a557808201518184015260208101905061178a565b838111156117b4576000848401525b50505050565b60006117c582611770565b915060008214156117d9576117d86117e4565b5b600182039050919050565b7f4e487b7100000000000000000000000000000000000000000000000000000000600052601160045260246000fd5b7f4e487b7100000000000000000000000000000000000000000000000000000000600052601260045260246000fd5b6000601f19601f8301169050919050565b60008160011c9050919050565b7f537472696e67733a20686578206c656e67746820696e73756666696369656e74600082015250565b7f547574656c6c75735969656c64547574656c6c75735969656c6452657761726460008201527f73746f6b656e3a207b66726f6d7d206973206166746572207b746f7d00000000602082015250565b7f416363657373436f6e74726f6c50726f78795061757361626c653a206163636f60008201527f756e742000000000000000000000000000000000000000000000000000000000602082015250565b7f5061757361626c653a206e6f7420706175736564000000000000000000000000600082015250565b7f5061757361626c653a2070617573656400000000000000000000000000000000600082015250565b7f547574656c6c757354726561737572795661756c743a206e6f7468696e67207460008201527f6f20636c61696d00000000000000000000000000000000000000000000000000602082015250565b7f206973206d697373696e6720726f6c6520000000000000000000000000000000600082015250565b6119fa81611728565b8114611a0557600080fd5b50565b611a118161173a565b8114611a1c57600080fd5b50565b611a2881611770565b8114611a3357600080fd5b5056fea2646970667358221220a2af0d6360113db9b36fab39d37bc3f1e8bfcd07ee002efe320addc2f741df4264736f6c63430008020033",
  "linkReferences": {},
  "deployedLinkReferences": {}
}