{
  "_format": "hh-sol-artifact-1",
  "contractName": "TutellusDeployer",
  "sourceName": "contracts/TutellusDeployer.sol",
  "abi": [
    {
      "inputs": [
        {
          "internalType": "address",
          "name": "treasury_",
          "type": "address"
        }
      ],
      "stateMutability": "nonpayable",
      "type": "constructor"
    },
    {
      "inputs": [],
      "name": "farmingVault",
      "outputs": [
        {
          "internalType": "address",
          "name": "",
          "type": "address"
        }
      ],
      "stateMutability": "view",
      "type": "function"
    },
    {
      "inputs": [],
      "name": "holdersVault",
      "outputs": [
        {
          "internalType": "address",
          "name": "",
          "type": "address"
        }
      ],
      "stateMutability": "view",
      "type": "function"
    },
    {
      "inputs": [],
      "name": "rewardsVault",
      "outputs": [
        {
          "internalType": "address",
          "name": "",
          "type": "address"
        }
      ],
      "stateMutability": "view",
      "type": "function"
    },
    {
      "inputs": [],
      "name": "rolemanager",
      "outputs": [
        {
          "internalType": "address",
          "name": "",
          "type": "address"
        }
      ],
      "stateMutability": "view",
      "type": "function"
    },
    {
      "inputs": [],
      "name": "token",
      "outputs": [
        {
          "internalType": "address",
          "name": "",
          "type": "address"
        }
      ],
      "stateMutability": "view",
      "type": "function"
    },
    {
      "inputs": [],
      "name": "treasury",
      "outputs": [
        {
          "internalType": "address",
          "name": "",
          "type": "address"
        }
      ],
      "stateMutability": "view",
      "type": "function"
    },
    {
      "inputs": [],
      "name": "treasuryVault",
      "outputs": [
        {
          "internalType": "address",
          "name": "",
          "type": "address"
        }
      ],
      "stateMutability": "view",
      "type": "function"
    }
  ],
  "bytecode": "0x60806040523480156200001157600080fd5b506040516201141038038062011410833981810160405281019062000037919062000952565b80600260006101000a81548173ffffffffffffffffffffffffffffffffffffffff021916908373ffffffffffffffffffffffffffffffffffffffff160217905550336040516200008790620008e7565b62000093919062000a65565b604051809103906000f080158015620000b0573d6000803e3d6000fd5b50600160006101000a81548173ffffffffffffffffffffffffffffffffffffffff021916908373ffffffffffffffffffffffffffffffffffffffff1602179055506aa56fa5b99019a5c8000000600160009054906101000a900473ffffffffffffffffffffffffffffffffffffffff166040516200012e90620008f5565b6200013b92919062000c3a565b604051809103906000f08015801562000158573d6000803e3d6000fd5b506000806101000a81548173ffffffffffffffffffffffffffffffffffffffff021916908373ffffffffffffffffffffffffffffffffffffffff160217905550600160009054906101000a900473ffffffffffffffffffffffffffffffffffffffff1660008054906101000a900473ffffffffffffffffffffffffffffffffffffffff16604051620001ea9062000903565b620001f792919062000a82565b604051809103906000f08015801562000214573d6000803e3d6000fd5b50600360006101000a81548173ffffffffffffffffffffffffffffffffffffffff021916908373ffffffffffffffffffffffffffffffffffffffff160217905550600160009054906101000a900473ffffffffffffffffffffffffffffffffffffffff1660008054906101000a900473ffffffffffffffffffffffffffffffffffffffff166a34f086f3b33b68400000006302d24bd0604051620002b89062000911565b620002c7949392919062000b0c565b604051809103906000f080158015620002e4573d6000803e3d6000fd5b50600460006101000a81548173ffffffffffffffffffffffffffffffffffffffff021916908373ffffffffffffffffffffffffffffffffffffffff160217905550600160009054906101000a900473ffffffffffffffffffffffffffffffffffffffff1660008054906101000a900473ffffffffffffffffffffffffffffffffffffffff1660405162000377906200091f565b6200038492919062000a82565b604051809103906000f080158015620003a1573d6000803e3d6000fd5b50600560006101000a81548173ffffffffffffffffffffffffffffffffffffffff021916908373ffffffffffffffffffffffffffffffffffffffff160217905550600160009054906101000a900473ffffffffffffffffffffffffffffffffffffffff16600260009054906101000a900473ffffffffffffffffffffffffffffffffffffffff1660008054906101000a900473ffffffffffffffffffffffffffffffffffffffff166a187c0b371c7ead040000006304b3d3b060405162000468906200092d565b6200047895949392919062000aaf565b604051809103906000f08015801562000495573d6000803e3d6000fd5b50600660006101000a81548173ffffffffffffffffffffffffffffffffffffffff021916908373ffffffffffffffffffffffffffffffffffffffff1602179055506000600160009054906101000a900473ffffffffffffffffffffffffffffffffffffffff1690508073ffffffffffffffffffffffffffffffffffffffff16632f2ff15d7f9f2df0fed2c77648de5860a4cc508cd0818c85b8b8a1ab4ceeef8d981c8956a6306040518363ffffffff1660e01b81526004016200055a92919062000c0d565b600060405180830381600087803b1580156200057557600080fd5b505af11580156200058a573d6000803e3d6000fd5b505050508073ffffffffffffffffffffffffffffffffffffffff16632f2ff15d7f9f2df0fed2c77648de5860a4cc508cd0818c85b8b8a1ab4ceeef8d981c8956a6600360009054906101000a900473ffffffffffffffffffffffffffffffffffffffff166040518363ffffffff1660e01b81526004016200060d92919062000c0d565b600060405180830381600087803b1580156200062857600080fd5b505af11580156200063d573d6000803e3d6000fd5b5050505060008060009054906101000a900473ffffffffffffffffffffffffffffffffffffffff1690508073ffffffffffffffffffffffffffffffffffffffff166340c10f19600260009054906101000a900473ffffffffffffffffffffffffffffffffffffffff166954b40b1f852bda0000006040518363ffffffff1660e01b8152600401620006d092919062000b86565b600060405180830381600087803b158015620006eb57600080fd5b505af115801562000700573d6000803e3d6000fd5b505050508073ffffffffffffffffffffffffffffffffffffffff166340c10f19600460009054906101000a900473ffffffffffffffffffffffffffffffffffffffff166a34f086f3b33b68400000006040518363ffffffff1660e01b81526004016200076e92919062000bb3565b600060405180830381600087803b1580156200078957600080fd5b505af11580156200079e573d6000803e3d6000fd5b505050508073ffffffffffffffffffffffffffffffffffffffff166340c10f19600560009054906101000a900473ffffffffffffffffffffffffffffffffffffffff166a4a723dc6b40b8a9a0000006040518363ffffffff1660e01b81526004016200080c92919062000be0565b600060405180830381600087803b1580156200082757600080fd5b505af11580156200083c573d6000803e3d6000fd5b505050508073ffffffffffffffffffffffffffffffffffffffff166340c10f19600660009054906101000a900473ffffffffffffffffffffffffffffffffffffffff166a187c0b371c7ead040000006040518363ffffffff1660e01b8152600401620008aa92919062000b59565b600060405180830381600087803b158015620008c557600080fd5b505af1158015620008da573d6000803e3d6000fd5b5050505050505062000de2565b61195c80620010e083390190565b613eb18062002a3c83390190565b6128db80620068ed83390190565b61300c80620091c883390190565b612976806200c1d483390190565b6128c6806200eb4a83390190565b6000815190506200094c8162000dc8565b92915050565b6000602082840312156200096557600080fd5b600062000975848285016200093b565b91505092915050565b620009898162000ca2565b82525050565b6200099a8162000cb6565b82525050565b620009ab8162000cea565b82525050565b620009bc8162000cfe565b82525050565b620009cd8162000d12565b82525050565b620009de8162000d26565b82525050565b620009ef8162000d3a565b82525050565b62000a008162000d4e565b82525050565b62000a118162000d62565b82525050565b600062000a26600e8362000c91565b915062000a338262000d76565b602082019050919050565b600062000a4d60038362000c91565b915062000a5a8262000d9f565b602082019050919050565b600060208201905062000a7c60008301846200097e565b92915050565b600060408201905062000a9960008301856200097e565b62000aa860208301846200097e565b9392505050565b600060a08201905062000ac660008301886200097e565b62000ad560208301876200097e565b62000ae460408301866200097e565b62000af36060830185620009b1565b62000b026080830184620009f5565b9695505050505050565b600060808201905062000b2360008301876200097e565b62000b3260208301866200097e565b62000b416040830185620009e4565b62000b506060830184620009d3565b95945050505050565b600060408201905062000b7060008301856200097e565b62000b7f6020830184620009b1565b9392505050565b600060408201905062000b9d60008301856200097e565b62000bac6020830184620009c2565b9392505050565b600060408201905062000bca60008301856200097e565b62000bd96020830184620009e4565b9392505050565b600060408201905062000bf760008301856200097e565b62000c06602083018462000a06565b9392505050565b600060408201905062000c2460008301856200098f565b62000c3360208301846200097e565b9392505050565b6000608082019050818103600083015262000c558162000a17565b9050818103602083015262000c6a8162000a3e565b905062000c7b6040830185620009a0565b62000c8a60608301846200097e565b9392505050565b600082825260208201905092915050565b600062000caf8262000cc0565b9050919050565b6000819050919050565b600073ffffffffffffffffffffffffffffffffffffffff82169050919050565b6000819050919050565b600062000cf78262000ce0565b9050919050565b600062000d0b8262000ce0565b9050919050565b600062000d1f8262000ce0565b9050919050565b600062000d338262000ce0565b9050919050565b600062000d478262000ce0565b9050919050565b600062000d5b8262000ce0565b9050919050565b600062000d6f8262000ce0565b9050919050565b7f547574656c6c757320546f6b656e000000000000000000000000000000000000600082015250565b7f5455540000000000000000000000000000000000000000000000000000000000600082015250565b62000dd38162000ca2565b811462000ddf57600080fd5b50565b6102ee8062000df26000396000f3fe608060405234801561001057600080fd5b506004361061007d5760003560e01c80639da9c4f71161005b5780639da9c4f7146100dc578063af8b1c6f146100fa578063e82128ab14610118578063fc0c546a146101365761007d565b80630a04b132146100825780635579ed01146100a057806361d027b3146100be575b600080fd5b61008a610154565b604051610097919061026b565b60405180910390f35b6100a861017a565b6040516100b5919061026b565b60405180910390f35b6100c66101a0565b6040516100d3919061026b565b60405180910390f35b6100e46101c6565b6040516100f1919061026b565b60405180910390f35b6101026101ec565b60405161010f919061026b565b60405180910390f35b610120610212565b60405161012d919061026b565b60405180910390f35b61013e610238565b60405161014b919061026b565b60405180910390f35b600360009054906101000a900473ffffffffffffffffffffffffffffffffffffffff1681565b600560009054906101000a900473ffffffffffffffffffffffffffffffffffffffff1681565b600260009054906101000a900473ffffffffffffffffffffffffffffffffffffffff1681565b600460009054906101000a900473ffffffffffffffffffffffffffffffffffffffff1681565b600660009054906101000a900473ffffffffffffffffffffffffffffffffffffffff1681565b600160009054906101000a900473ffffffffffffffffffffffffffffffffffffffff1681565b60008054906101000a900473ffffffffffffffffffffffffffffffffffffffff1681565b61026581610286565b82525050565b6000602082019050610280600083018461025c565b92915050565b600061029182610298565b9050919050565b600073ffffffffffffffffffffffffffffffffffffffff8216905091905056fea2646970667358221220b1d40a239234767274635a566fa961f658099810ccd747c465f93f85ddf5a8b964736f6c6343000802003360806040523480156200001157600080fd5b506040516200195c3803806200195c8339818101604052810190620000379190620007f7565b80609760006101000a81548173ffffffffffffffffffffffffffffffffffffffff021916908373ffffffffffffffffffffffffffffffffffffffff16021790555062000088620000db60201b60201c565b620000bf6000801b609760009054906101000a900473ffffffffffffffffffffffffffffffffffffffff16620001da60201b60201c565b620000d46000801b33620001da60201b60201c565b506200091a565b600060019054906101000a900460ff168062000102575060008054906101000a900460ff16155b62000144576040517f08c379a00000000000000000000000000000000000000000000000000000000081526004016200013b906200084a565b60405180910390fd5b60008060019054906101000a900460ff16159050801562000195576001600060016101000a81548160ff02191690831515021790555060016000806101000a81548160ff0219169083151502179055505b620001a5620001f060201b60201c565b620001b5620002ff60201b60201c565b8015620001d75760008060016101000a81548160ff0219169083151502179055505b50565b620001ec8282620003de60201b60201c565b5050565b600060019054906101000a900460ff168062000217575060008054906101000a900460ff16155b62000259576040517f08c379a000000000000000000000000000000000000000000000000000000000815260040162000250906200084a565b60405180910390fd5b60008060019054906101000a900460ff161590508015620002aa576001600060016101000a81548160ff02191690831515021790555060016000806101000a81548160ff0219169083151502179055505b620002ba620004d060201b60201c565b620002ca620005af60201b60201c565b620002da6200068e60201b60201c565b8015620002fc5760008060016101000a81548160ff0219169083151502179055505b50565b600060019054906101000a900460ff168062000326575060008054906101000a900460ff16155b62000368576040517f08c379a00000000000000000000000000000000000000000000000000000000081526004016200035f906200084a565b60405180910390fd5b60008060019054906101000a900460ff161590508015620003b9576001600060016101000a81548160ff02191690831515021790555060016000806101000a81548160ff0219169083151502179055505b8015620003db5760008060016101000a81548160ff0219169083151502179055505b50565b620003f082826200076d60201b60201c565b620004cc5760016065600084815260200190815260200160002060000160008373ffffffffffffffffffffffffffffffffffffffff1673ffffffffffffffffffffffffffffffffffffffff16815260200190815260200160002060006101000a81548160ff02191690831515021790555062000471620007d860201b60201c565b73ffffffffffffffffffffffffffffffffffffffff168173ffffffffffffffffffffffffffffffffffffffff16837f2f8788117e7eff1d82e926ec794901d17c78024a50270940304540a733656f0d60405160405180910390a45b5050565b600060019054906101000a900460ff1680620004f7575060008054906101000a900460ff16155b62000539576040517f08c379a000000000000000000000000000000000000000000000000000000000815260040162000530906200084a565b60405180910390fd5b60008060019054906101000a900460ff1615905080156200058a576001600060016101000a81548160ff02191690831515021790555060016000806101000a81548160ff0219169083151502179055505b8015620005ac5760008060016101000a81548160ff0219169083151502179055505b50565b600060019054906101000a900460ff1680620005d6575060008054906101000a900460ff16155b62000618576040517f08c379a00000000000000000000000000000000000000000000000000000000081526004016200060f906200084a565b60405180910390fd5b60008060019054906101000a900460ff16159050801562000669576001600060016101000a81548160ff02191690831515021790555060016000806101000a81548160ff0219169083151502179055505b80156200068b5760008060016101000a81548160ff0219169083151502179055505b50565b600060019054906101000a900460ff1680620006b5575060008054906101000a900460ff16155b620006f7576040517f08c379a0000000000000000000000000000000000000000000000000000000008152600401620006ee906200084a565b60405180910390fd5b60008060019054906101000a900460ff16159050801562000748576001600060016101000a81548160ff02191690831515021790555060016000806101000a81548160ff0219169083151502179055505b80156200076a5760008060016101000a81548160ff0219169083151502179055505b50565b60006065600084815260200190815260200160002060000160008373ffffffffffffffffffffffffffffffffffffffff1673ffffffffffffffffffffffffffffffffffffffff16815260200190815260200160002060009054906101000a900460ff16905092915050565b600033905090565b600081519050620007f18162000900565b92915050565b6000602082840312156200080a57600080fd5b60006200081a84828501620007e0565b91505092915050565b600062000832602e836200086c565b91506200083f82620008b1565b604082019050919050565b60006020820190508181036000830152620008658162000823565b9050919050565b600082825260208201905092915050565b60006200088a8262000891565b9050919050565b600073ffffffffffffffffffffffffffffffffffffffff82169050919050565b7f496e697469616c697a61626c653a20636f6e747261637420697320616c72656160008201527f647920696e697469616c697a6564000000000000000000000000000000000000602082015250565b6200090b816200087d565b81146200091757600080fd5b50565b611032806200092a6000396000f3fe608060405234801561001057600080fd5b506004361061009e5760003560e01c8063a217fddf11610066578063a217fddf1461016b578063d547741f14610189578063d5f39488146101a5578063e63ab1e9146101c3578063f72c0d8b146101e15761009e565b806301ffc9a7146100a3578063248a9ca3146100d35780632f2ff15d1461010357806336568abe1461011f57806391d148541461013b575b600080fd5b6100bd60048036038101906100b89190610ac2565b6101ff565b6040516100ca9190610c63565b60405180910390f35b6100ed60048036038101906100e89190610a5d565b610279565b6040516100fa9190610c7e565b60405180910390f35b61011d60048036038101906101189190610a86565b610299565b005b61013960048036038101906101349190610a86565b6102c2565b005b61015560048036038101906101509190610a86565b610345565b6040516101629190610c63565b60405180910390f35b6101736103b0565b6040516101809190610c7e565b60405180910390f35b6101a3600480360381019061019e9190610a86565b6103b7565b005b6101ad6103e0565b6040516101ba9190610c48565b60405180910390f35b6101cb61040a565b6040516101d89190610c7e565b60405180910390f35b6101e961042e565b6040516101f69190610c7e565b60405180910390f35b60007f7965db0b000000000000000000000000000000000000000000000000000000007bffffffffffffffffffffffffffffffffffffffffffffffffffffffff1916827bffffffffffffffffffffffffffffffffffffffffffffffffffffffff19161480610272575061027182610452565b5b9050919050565b600060656000838152602001908152602001600020600101549050919050565b6102a282610279565b6102b3816102ae6104bc565b6104c4565b6102bd8383610561565b505050565b6102ca6104bc565b73ffffffffffffffffffffffffffffffffffffffff168173ffffffffffffffffffffffffffffffffffffffff1614610337576040517f08c379a000000000000000000000000000000000000000000000000000000000815260040161032e90610cdb565b60405180910390fd5b6103418282610642565b5050565b60006065600084815260200190815260200160002060000160008373ffffffffffffffffffffffffffffffffffffffff1673ffffffffffffffffffffffffffffffffffffffff16815260200190815260200160002060009054906101000a900460ff16905092915050565b6000801b81565b6103c082610279565b6103d1816103cc6104bc565b6104c4565b6103db8383610642565b505050565b6000609760009054906101000a900473ffffffffffffffffffffffffffffffffffffffff16905090565b7f65d7a28e3265b37a6474929f336521b332c1681b933f6cb9f3376673440d862a81565b7f189ab7a9244df0848122154315af71fe140f3db0fe014031783b0946b8c9d2e381565b60007f01ffc9a7000000000000000000000000000000000000000000000000000000007bffffffffffffffffffffffffffffffffffffffffffffffffffffffff1916827bffffffffffffffffffffffffffffffffffffffffffffffffffffffff1916149050919050565b600033905090565b6104ce8282610345565b61055d576104f38173ffffffffffffffffffffffffffffffffffffffff166014610724565b6105018360001c6020610724565b604051602001610512929190610c0e565b6040516020818303038152906040526040517f08c379a00000000000000000000000000000000000000000000000000000000081526004016105549190610c99565b60405180910390fd5b5050565b61056b8282610345565b61063e5760016065600084815260200190815260200160002060000160008373ffffffffffffffffffffffffffffffffffffffff1673ffffffffffffffffffffffffffffffffffffffff16815260200190815260200160002060006101000a81548160ff0219169083151502179055506105e36104bc565b73ffffffffffffffffffffffffffffffffffffffff168173ffffffffffffffffffffffffffffffffffffffff16837f2f8788117e7eff1d82e926ec794901d17c78024a50270940304540a733656f0d60405160405180910390a45b5050565b61064c8282610345565b156107205760006065600084815260200190815260200160002060000160008373ffffffffffffffffffffffffffffffffffffffff1673ffffffffffffffffffffffffffffffffffffffff16815260200190815260200160002060006101000a81548160ff0219169083151502179055506106c56104bc565b73ffffffffffffffffffffffffffffffffffffffff168173ffffffffffffffffffffffffffffffffffffffff16837ff6391f5c32d9c69d2a47ea670b442974b53935d1edc7fd64eb21e047a839171b60405160405180910390a45b5050565b6060600060028360026107379190610d78565b6107419190610d22565b67ffffffffffffffff811115610780577f4e487b7100000000000000000000000000000000000000000000000000000000600052604160045260246000fd5b6040519080825280601f01601f1916602001820160405280156107b25781602001600182028036833780820191505090505b5090507f300000000000000000000000000000000000000000000000000000000000000081600081518110610810577f4e487b7100000000000000000000000000000000000000000000000000000000600052603260045260246000fd5b60200101907effffffffffffffffffffffffffffffffffffffffffffffffffffffffffffff1916908160001a9053507f78000000000000000000000000000000000000000000000000000000000000008160018151811061089a577f4e487b7100000000000000000000000000000000000000000000000000000000600052603260045260246000fd5b60200101907effffffffffffffffffffffffffffffffffffffffffffffffffffffffffffff1916908160001a905350600060018460026108da9190610d78565b6108e49190610d22565b90505b60018111156109d0577f3031323334353637383961626364656600000000000000000000000000000000600f86166010811061094c577f4e487b7100000000000000000000000000000000000000000000000000000000600052603260045260246000fd5b1a60f81b828281518110610989577f4e487b7100000000000000000000000000000000000000000000000000000000600052603260045260246000fd5b60200101907effffffffffffffffffffffffffffffffffffffffffffffffffffffffffffff1916908160001a905350600485901c9450806109c990610e83565b90506108e7565b5060008414610a14576040517f08c379a0000000000000000000000000000000000000000000000000000000008152600401610a0b90610cbb565b60405180910390fd5b8091505092915050565b600081359050610a2d81610fb7565b92915050565b600081359050610a4281610fce565b92915050565b600081359050610a5781610fe5565b92915050565b600060208284031215610a6f57600080fd5b6000610a7d84828501610a33565b91505092915050565b60008060408385031215610a9957600080fd5b6000610aa785828601610a33565b9250506020610ab885828601610a1e565b9150509250929050565b600060208284031215610ad457600080fd5b6000610ae284828501610a48565b91505092915050565b610af481610dd2565b82525050565b610b0381610de4565b82525050565b610b1281610df0565b82525050565b6000610b2382610cfb565b610b2d8185610d06565b9350610b3d818560208601610e50565b610b4681610edc565b840191505092915050565b6000610b5c82610cfb565b610b668185610d17565b9350610b76818560208601610e50565b80840191505092915050565b6000610b8f602083610d06565b9150610b9a82610eed565b602082019050919050565b6000610bb2601783610d17565b9150610bbd82610f16565b601782019050919050565b6000610bd5601183610d17565b9150610be082610f3f565b601182019050919050565b6000610bf8602f83610d06565b9150610c0382610f68565b604082019050919050565b6000610c1982610ba5565b9150610c258285610b51565b9150610c3082610bc8565b9150610c3c8284610b51565b91508190509392505050565b6000602082019050610c5d6000830184610aeb565b92915050565b6000602082019050610c786000830184610afa565b92915050565b6000602082019050610c936000830184610b09565b92915050565b60006020820190508181036000830152610cb38184610b18565b905092915050565b60006020820190508181036000830152610cd481610b82565b9050919050565b60006020820190508181036000830152610cf481610beb565b9050919050565b600081519050919050565b600082825260208201905092915050565b600081905092915050565b6000610d2d82610e46565b9150610d3883610e46565b9250827fffffffffffffffffffffffffffffffffffffffffffffffffffffffffffffffff03821115610d6d57610d6c610ead565b5b828201905092915050565b6000610d8382610e46565b9150610d8e83610e46565b9250817fffffffffffffffffffffffffffffffffffffffffffffffffffffffffffffffff0483118215151615610dc757610dc6610ead565b5b828202905092915050565b6000610ddd82610e26565b9050919050565b60008115159050919050565b6000819050919050565b60007fffffffff0000000000000000000000000000000000000000000000000000000082169050919050565b600073ffffffffffffffffffffffffffffffffffffffff82169050919050565b6000819050919050565b60005b83811015610e6e578082015181840152602081019050610e53565b83811115610e7d576000848401525b50505050565b6000610e8e82610e46565b91506000821415610ea257610ea1610ead565b5b600182039050919050565b7f4e487b7100000000000000000000000000000000000000000000000000000000600052601160045260246000fd5b6000601f19601f8301169050919050565b7f537472696e67733a20686578206c656e67746820696e73756666696369656e74600082015250565b7f416363657373436f6e74726f6c3a206163636f756e7420000000000000000000600082015250565b7f206973206d697373696e6720726f6c6520000000000000000000000000000000600082015250565b7f416363657373436f6e74726f6c3a2063616e206f6e6c792072656e6f756e636560008201527f20726f6c657320666f722073656c660000000000000000000000000000000000602082015250565b610fc081610dd2565b8114610fcb57600080fd5b50565b610fd781610df0565b8114610fe257600080fd5b50565b610fee81610dfa565b8114610ff957600080fd5b5056fea26469706673582212206ad7132ba02040cbca4023f2b50155ef413d3b612763274b05a42775947c14cc64736f6c6343000802003360806040523480156200001157600080fd5b5060405162003eb138038062003eb1833981810160405281019062000037919062000ce9565b6200004b848484846200005560201b60201c565b5050505062001084565b600060019054906101000a900460ff16806200007c575060008054906101000a900460ff16155b620000be576040517f08c379a0000000000000000000000000000000000000000000000000000000008152600401620000b59062000df7565b60405180910390fd5b60008060019054906101000a900460ff1615905080156200010f576001600060016101000a81548160ff02191690831515021790555060016000806101000a81548160ff0219169083151502179055505b62000120826200017c60201b60201c565b6200013285856200027d60201b60201c565b62000143836200038060201b60201c565b620001536200048160201b60201c565b8015620001755760008060016101000a81548160ff0219169083151502179055505b5050505050565b600060019054906101000a900460ff1680620001a3575060008054906101000a900460ff16155b620001e5576040517f08c379a0000000000000000000000000000000000000000000000000000000008152600401620001dc9062000df7565b60405180910390fd5b60008060019054906101000a900460ff16159050801562000236576001600060016101000a81548160ff02191690831515021790555060016000806101000a81548160ff0219169083151502179055505b620002466200056060201b60201c565b62000257826200065f60201b60201c565b8015620002795760008060016101000a81548160ff0219169083151502179055505b5050565b600060019054906101000a900460ff1680620002a4575060008054906101000a900460ff16155b620002e6576040517f08c379a0000000000000000000000000000000000000000000000000000000008152600401620002dd9062000df7565b60405180910390fd5b60008060019054906101000a900460ff16159050801562000337576001600060016101000a81548160ff02191690831515021790555060016000806101000a81548160ff0219169083151502179055505b620003476200078060201b60201c565b6200035983836200085f60201b60201c565b80156200037b5760008060016101000a81548160ff0219169083151502179055505b505050565b600060019054906101000a900460ff1680620003a7575060008054906101000a900460ff16155b620003e9576040517f08c379a0000000000000000000000000000000000000000000000000000000008152600401620003e09062000df7565b60405180910390fd5b60008060019054906101000a900460ff1615905080156200043a576001600060016101000a81548160ff02191690831515021790555060016000806101000a81548160ff0219169083151502179055505b6200044a6200078060201b60201c565b6200045b826200097260201b60201c565b80156200047d5760008060016101000a81548160ff0219169083151502179055505b5050565b600060019054906101000a900460ff1680620004a8575060008054906101000a900460ff16155b620004ea576040517f08c379a0000000000000000000000000000000000000000000000000000000008152600401620004e19062000df7565b60405180910390fd5b60008060019054906101000a900460ff1615905080156200053b576001600060016101000a81548160ff02191690831515021790555060016000806101000a81548160ff0219169083151502179055505b80156200055d5760008060016101000a81548160ff0219169083151502179055505b50565b600060019054906101000a900460ff168062000587575060008054906101000a900460ff16155b620005c9576040517f08c379a0000000000000000000000000000000000000000000000000000000008152600401620005c09062000df7565b60405180910390fd5b60008060019054906101000a900460ff1615905080156200061a576001600060016101000a81548160ff02191690831515021790555060016000806101000a81548160ff0219169083151502179055505b6200062a6200078060201b60201c565b6200063a62000a9f60201b60201c565b80156200065c5760008060016101000a81548160ff0219169083151502179055505b50565b600060019054906101000a900460ff168062000686575060008054906101000a900460ff16155b620006c8576040517f08c379a0000000000000000000000000000000000000000000000000000000008152600401620006bf9062000df7565b60405180910390fd5b60008060019054906101000a900460ff16159050801562000719576001600060016101000a81548160ff02191690831515021790555060016000806101000a81548160ff0219169083151502179055505b81606560006101000a81548173ffffffffffffffffffffffffffffffffffffffff021916908373ffffffffffffffffffffffffffffffffffffffff16021790555080156200077c5760008060016101000a81548160ff0219169083151502179055505b5050565b600060019054906101000a900460ff1680620007a7575060008054906101000a900460ff16155b620007e9576040517f08c379a0000000000000000000000000000000000000000000000000000000008152600401620007e09062000df7565b60405180910390fd5b60008060019054906101000a900460ff1615905080156200083a576001600060016101000a81548160ff02191690831515021790555060016000806101000a81548160ff0219169083151502179055505b80156200085c5760008060016101000a81548160ff0219169083151502179055505b50565b600060019054906101000a900460ff168062000886575060008054906101000a900460ff16155b620008c8576040517f08c379a0000000000000000000000000000000000000000000000000000000008152600401620008bf9062000df7565b60405180910390fd5b60008060019054906101000a900460ff16159050801562000919576001600060016101000a81548160ff02191690831515021790555060016000806101000a81548160ff0219169083151502179055505b82606990805190602001906200093192919062000b99565b5081606a90805190602001906200094a92919062000b99565b5080156200096d5760008060016101000a81548160ff0219169083151502179055505b505050565b600060019054906101000a900460ff168062000999575060008054906101000a900460ff16155b620009db576040517f08c379a0000000000000000000000000000000000000000000000000000000008152600401620009d29062000df7565b60405180910390fd5b60008060019054906101000a900460ff16159050801562000a2c576001600060016101000a81548160ff02191690831515021790555060016000806101000a81548160ff0219169083151502179055505b6000821162000a72576040517f08c379a000000000000000000000000000000000000000000000000000000000815260040162000a699062000dd5565b60405180910390fd5b81609881905550801562000a9b5760008060016101000a81548160ff0219169083151502179055505b5050565b600060019054906101000a900460ff168062000ac6575060008054906101000a900460ff16155b62000b08576040517f08c379a000000000000000000000000000000000000000000000000000000000815260040162000aff9062000df7565b60405180910390fd5b60008060019054906101000a900460ff16159050801562000b59576001600060016101000a81548160ff02191690831515021790555060016000806101000a81548160ff0219169083151502179055505b6000603360006101000a81548160ff021916908315150217905550801562000b965760008060016101000a81548160ff0219169083151502179055505b50565b82805462000ba79062000efd565b90600052602060002090601f01602090048101928262000bcb576000855562000c17565b82601f1062000be657805160ff191683800117855562000c17565b8280016001018555821562000c17579182015b8281111562000c1657825182559160200191906001019062000bf9565b5b50905062000c26919062000c2a565b5090565b5b8082111562000c4557600081600090555060010162000c2b565b5090565b600062000c6062000c5a8462000e42565b62000e19565b90508281526020810184848401111562000c7957600080fd5b62000c8684828562000ec7565b509392505050565b60008151905062000c9f8162001050565b92915050565b600082601f83011262000cb757600080fd5b815162000cc984826020860162000c49565b91505092915050565b60008151905062000ce3816200106a565b92915050565b6000806000806080858703121562000d0057600080fd5b600085015167ffffffffffffffff81111562000d1b57600080fd5b62000d298782880162000ca5565b945050602085015167ffffffffffffffff81111562000d4757600080fd5b62000d558782880162000ca5565b935050604062000d688782880162000cd2565b925050606062000d7b8782880162000c8e565b91505092959194509250565b600062000d9660158362000e78565b915062000da38262000fd8565b602082019050919050565b600062000dbd602e8362000e78565b915062000dca8262001001565b604082019050919050565b6000602082019050818103600083015262000df08162000d87565b9050919050565b6000602082019050818103600083015262000e128162000dae565b9050919050565b600062000e2562000e38565b905062000e33828262000f33565b919050565b6000604051905090565b600067ffffffffffffffff82111562000e605762000e5f62000f98565b5b62000e6b8262000fc7565b9050602081019050919050565b600082825260208201905092915050565b600062000e968262000e9d565b9050919050565b600073ffffffffffffffffffffffffffffffffffffffff82169050919050565b6000819050919050565b60005b8381101562000ee757808201518184015260208101905062000eca565b8381111562000ef7576000848401525b50505050565b6000600282049050600182168062000f1657607f821691505b6020821081141562000f2d5762000f2c62000f69565b5b50919050565b62000f3e8262000fc7565b810181811067ffffffffffffffff8211171562000f605762000f5f62000f98565b5b80604052505050565b7f4e487b7100000000000000000000000000000000000000000000000000000000600052602260045260246000fd5b7f4e487b7100000000000000000000000000000000000000000000000000000000600052604160045260246000fd5b6000601f19601f8301169050919050565b7f45524332304361707065643a2063617020697320300000000000000000000000600082015250565b7f496e697469616c697a61626c653a20636f6e747261637420697320616c72656160008201527f647920696e697469616c697a6564000000000000000000000000000000000000602082015250565b6200105b8162000e89565b81146200106757600080fd5b50565b620010758162000ebd565b81146200108157600080fd5b50565b612e1d80620010946000396000f3fe608060405234801561001057600080fd5b506004361061014d5760003560e01c80635c975abb116100c3578063a217fddf1161007c578063a217fddf1461037c578063a457c2d71461039a578063a9059cbb146103ca578063aa271e1a146103fa578063dd62ed3e1461042a578063e63ab1e91461045a5761014d565b80635c975abb146102b857806370a08231146102d657806373f42561146103065780638456cb591461032457806391d148541461032e57806395d89b411461035e5761014d565b8063355274ea11610115578063355274ea1461020c578063395093511461022a5780633f4ba83a1461025a57806340c10f191461026457806342966c681461028057806358aba00f1461029c5761014d565b806306fdde0314610152578063095ea7b31461017057806318160ddd146101a057806323b872dd146101be578063313ce567146101ee575b600080fd5b61015a610478565b6040516101679190612421565b60405180910390f35b61018a60048036038101906101859190611f4f565b61050a565b60405161019791906123c2565b60405180910390f35b6101a8610528565b6040516101b59190612643565b60405180910390f35b6101d860048036038101906101d39190611f00565b610532565b6040516101e591906123c2565b60405180910390f35b6101f661062a565b604051610203919061265e565b60405180910390f35b610214610633565b6040516102219190612643565b60405180910390f35b610244600480360381019061023f9190611f4f565b61063d565b60405161025191906123c2565b60405180910390f35b6102626106e9565b005b61027e60048036038101906102799190611f4f565b61085f565b005b61029a60048036038101906102959190611ff0565b6109d9565b005b6102b660048036038101906102b19190611e9b565b6109ed565b005b6102c0610b80565b6040516102cd91906123c2565b60405180910390f35b6102f060048036038101906102eb9190611e9b565b610b97565b6040516102fd9190612643565b60405180910390f35b61030e610be0565b60405161031b9190612643565b60405180910390f35b61032c610bea565b005b61034860048036038101906103439190611fb4565b610d60565b60405161035591906123c2565b60405180910390f35b610366610e1c565b6040516103739190612421565b60405180910390f35b610384610eae565b60405161039191906123dd565b60405180910390f35b6103b460048036038101906103af9190611f4f565b610eb5565b6040516103c191906123c2565b60405180910390f35b6103e460048036038101906103df9190611f4f565b610fa0565b6040516103f191906123c2565b60405180910390f35b610414600480360381019061040f9190611e9b565b610fbe565b60405161042191906123c2565b60405180910390f35b610444600480360381019061043f9190611ec4565b610ff1565b6040516104519190612643565b60405180910390f35b610462611078565b60405161046f91906123dd565b60405180910390f35b60606069805461048790612840565b80601f01602080910402602001604051908101604052809291908181526020018280546104b390612840565b80156105005780601f106104d557610100808354040283529160200191610500565b820191906000526020600020905b8154815290600101906020018083116104e357829003601f168201915b5050505050905090565b600061051e61051761109c565b84846110a4565b6001905092915050565b6000606854905090565b600061053f84848461126f565b6000606760008673ffffffffffffffffffffffffffffffffffffffff1673ffffffffffffffffffffffffffffffffffffffff168152602001908152602001600020600061058a61109c565b73ffffffffffffffffffffffffffffffffffffffff1673ffffffffffffffffffffffffffffffffffffffff1681526020019081526020016000205490508281101561060a576040517f08c379a000000000000000000000000000000000000000000000000000000000815260040161060190612523565b60405180910390fd5b61061e8561061661109c565b8584036110a4565b60019150509392505050565b60006012905090565b6000609854905090565b60006106df61064a61109c565b84846067600061065861109c565b73ffffffffffffffffffffffffffffffffffffffff1673ffffffffffffffffffffffffffffffffffffffff16815260200190815260200160002060008873ffffffffffffffffffffffffffffffffffffffff1673ffffffffffffffffffffffffffffffffffffffff168152602001908152602001600020546106da91906126a0565b6110a4565b6001905092915050565b7f65d7a28e3265b37a6474929f336521b332c1681b933f6cb9f3376673440d862a6000606560009054906101000a900473ffffffffffffffffffffffffffffffffffffffff16905060003390508173ffffffffffffffffffffffffffffffffffffffff166391d1485484836040518363ffffffff1660e01b81526004016107719291906123f8565b60206040518083038186803b15801561078957600080fd5b505afa15801561079d573d6000803e3d6000fd5b505050506040513d601f19601f820116820180604052508101906107c19190611f8b565b6107e28273ffffffffffffffffffffffffffffffffffffffff1660146114f3565b6107f08560001c60206114f3565b604051602001610801929190612344565b60405160208183030381529060405290610851576040517f08c379a00000000000000000000000000000000000000000000000000000000081526004016108489190612421565b60405180910390fd5b5061085a6117ed565b505050565b7f9f2df0fed2c77648de5860a4cc508cd0818c85b8b8a1ab4ceeef8d981c8956a66000606560009054906101000a900473ffffffffffffffffffffffffffffffffffffffff16905060003390508173ffffffffffffffffffffffffffffffffffffffff166391d1485484836040518363ffffffff1660e01b81526004016108e79291906123f8565b60206040518083038186803b1580156108ff57600080fd5b505afa158015610913573d6000803e3d6000fd5b505050506040513d601f19601f820116820180604052508101906109379190611f8b565b6109588273ffffffffffffffffffffffffffffffffffffffff1660146114f3565b6109668560001c60206114f3565b604051602001610977929190612344565b604051602081830303815290604052906109c7576040517f08c379a00000000000000000000000000000000000000000000000000000000081526004016109be9190612421565b60405180910390fd5b506109d2858561188f565b5050505050565b6109ea6109e461109c565b8261193f565b50565b6000801b6000606560009054906101000a900473ffffffffffffffffffffffffffffffffffffffff16905060003390508173ffffffffffffffffffffffffffffffffffffffff166391d1485484836040518363ffffffff1660e01b8152600401610a589291906123f8565b60206040518083038186803b158015610a7057600080fd5b505afa158015610a84573d6000803e3d6000fd5b505050506040513d601f19601f82011682018060405250810190610aa89190611f8b565b610ac98273ffffffffffffffffffffffffffffffffffffffff1660146114f3565b610ad78560001c60206114f3565b604051602001610ae8929190612344565b60405160208183030381529060405290610b38576040517f08c379a0000000000000000000000000000000000000000000000000000000008152600401610b2f9190612421565b60405180910390fd5b5083606560006101000a81548173ffffffffffffffffffffffffffffffffffffffff021916908373ffffffffffffffffffffffffffffffffffffffff16021790555050505050565b6000603360009054906101000a900460ff16905090565b6000606660008373ffffffffffffffffffffffffffffffffffffffff1673ffffffffffffffffffffffffffffffffffffffff168152602001908152602001600020549050919050565b600060cb54905090565b7f65d7a28e3265b37a6474929f336521b332c1681b933f6cb9f3376673440d862a6000606560009054906101000a900473ffffffffffffffffffffffffffffffffffffffff16905060003390508173ffffffffffffffffffffffffffffffffffffffff166391d1485484836040518363ffffffff1660e01b8152600401610c729291906123f8565b60206040518083038186803b158015610c8a57600080fd5b505afa158015610c9e573d6000803e3d6000fd5b505050506040513d601f19601f82011682018060405250810190610cc29190611f8b565b610ce38273ffffffffffffffffffffffffffffffffffffffff1660146114f3565b610cf18560001c60206114f3565b604051602001610d02929190612344565b60405160208183030381529060405290610d52576040517f08c379a0000000000000000000000000000000000000000000000000000000008152600401610d499190612421565b60405180910390fd5b50610d5b6119f6565b505050565b600080606560009054906101000a900473ffffffffffffffffffffffffffffffffffffffff1690508073ffffffffffffffffffffffffffffffffffffffff166391d1485485856040518363ffffffff1660e01b8152600401610dc39291906123f8565b60206040518083038186803b158015610ddb57600080fd5b505afa158015610def573d6000803e3d6000fd5b505050506040513d601f19601f82011682018060405250810190610e139190611f8b565b91505092915050565b6060606a8054610e2b90612840565b80601f0160208091040260200160405190810160405280929190818152602001828054610e5790612840565b8015610ea45780601f10610e7957610100808354040283529160200191610ea4565b820191906000526020600020905b815481529060010190602001808311610e8757829003601f168201915b5050505050905090565b6000801b81565b60008060676000610ec461109c565b73ffffffffffffffffffffffffffffffffffffffff1673ffffffffffffffffffffffffffffffffffffffff16815260200190815260200160002060008573ffffffffffffffffffffffffffffffffffffffff1673ffffffffffffffffffffffffffffffffffffffff16815260200190815260200160002054905082811015610f81576040517f08c379a0000000000000000000000000000000000000000000000000000000008152600401610f7890612603565b60405180910390fd5b610f95610f8c61109c565b858584036110a4565b600191505092915050565b6000610fb4610fad61109c565b848461126f565b6001905092915050565b6000610fea7f9f2df0fed2c77648de5860a4cc508cd0818c85b8b8a1ab4ceeef8d981c8956a683610d60565b9050919050565b6000606760008473ffffffffffffffffffffffffffffffffffffffff1673ffffffffffffffffffffffffffffffffffffffff16815260200190815260200160002060008373ffffffffffffffffffffffffffffffffffffffff1673ffffffffffffffffffffffffffffffffffffffff16815260200190815260200160002054905092915050565b7f65d7a28e3265b37a6474929f336521b332c1681b933f6cb9f3376673440d862a81565b600033905090565b600073ffffffffffffffffffffffffffffffffffffffff168373ffffffffffffffffffffffffffffffffffffffff161415611114576040517f08c379a000000000000000000000000000000000000000000000000000000000815260040161110b906125a3565b60405180910390fd5b600073ffffffffffffffffffffffffffffffffffffffff168273ffffffffffffffffffffffffffffffffffffffff161415611184576040517f08c379a000000000000000000000000000000000000000000000000000000000815260040161117b906124c3565b60405180910390fd5b80606760008573ffffffffffffffffffffffffffffffffffffffff1673ffffffffffffffffffffffffffffffffffffffff16815260200190815260200160002060008473ffffffffffffffffffffffffffffffffffffffff1673ffffffffffffffffffffffffffffffffffffffff168152602001908152602001600020819055508173ffffffffffffffffffffffffffffffffffffffff168373ffffffffffffffffffffffffffffffffffffffff167f8c5be1e5ebec7d5bd14f71427d1e84f3dd0314c0f7b2291e5b200ac8c7c3b925836040516112629190612643565b60405180910390a3505050565b600073ffffffffffffffffffffffffffffffffffffffff168373ffffffffffffffffffffffffffffffffffffffff1614156112df576040517f08c379a00000000000000000000000000000000000000000000000000000000081526004016112d690612563565b60405180910390fd5b600073ffffffffffffffffffffffffffffffffffffffff168273ffffffffffffffffffffffffffffffffffffffff16141561134f576040517f08c379a000000000000000000000000000000000000000000000000000000000815260040161134690612463565b60405180910390fd5b61135a838383611a99565b6000606660008573ffffffffffffffffffffffffffffffffffffffff1673ffffffffffffffffffffffffffffffffffffffff168152602001908152602001600020549050818110156113e1576040517f08c379a00000000000000000000000000000000000000000000000000000000081526004016113d8906124e3565b60405180910390fd5b818103606660008673ffffffffffffffffffffffffffffffffffffffff1673ffffffffffffffffffffffffffffffffffffffff1681526020019081526020016000208190555081606660008573ffffffffffffffffffffffffffffffffffffffff1673ffffffffffffffffffffffffffffffffffffffff168152602001908152602001600020600082825461147691906126a0565b925050819055508273ffffffffffffffffffffffffffffffffffffffff168473ffffffffffffffffffffffffffffffffffffffff167fddf252ad1be2c89b69c2b068fc378daa952ba7f163c4a11628f55a4df523b3ef846040516114da9190612643565b60405180910390a36114ed848484611a9e565b50505050565b60606000600283600261150691906126f6565b61151091906126a0565b67ffffffffffffffff81111561154f577f4e487b7100000000000000000000000000000000000000000000000000000000600052604160045260246000fd5b6040519080825280601f01601f1916602001820160405280156115815781602001600182028036833780820191505090505b5090507f3000000000000000000000000000000000000000000000000000000000000000816000815181106115df577f4e487b7100000000000000000000000000000000000000000000000000000000600052603260045260246000fd5b60200101907effffffffffffffffffffffffffffffffffffffffffffffffffffffffffffff1916908160001a9053507f780000000000000000000000000000000000000000000000000000000000000081600181518110611669577f4e487b7100000000000000000000000000000000000000000000000000000000600052603260045260246000fd5b60200101907effffffffffffffffffffffffffffffffffffffffffffffffffffffffffffff1916908160001a905350600060018460026116a991906126f6565b6116b391906126a0565b90505b600181111561179f577f3031323334353637383961626364656600000000000000000000000000000000600f86166010811061171b577f4e487b7100000000000000000000000000000000000000000000000000000000600052603260045260246000fd5b1a60f81b828281518110611758577f4e487b7100000000000000000000000000000000000000000000000000000000600052603260045260246000fd5b60200101907effffffffffffffffffffffffffffffffffffffffffffffffffffffffffffff1916908160001a905350600485901c94508061179890612816565b90506116b6565b50600084146117e3576040517f08c379a00000000000000000000000000000000000000000000000000000000081526004016117da90612443565b60405180910390fd5b8091505092915050565b6117f5610b80565b611834576040517f08c379a000000000000000000000000000000000000000000000000000000000815260040161182b90612483565b60405180910390fd5b6000603360006101000a81548160ff0219169083151502179055507f5db9ee0a495bf2e6ff9c91a7834c1ba4fdd244a5e8aa4e537bd38aeae4b073aa61187861109c565b604051611885919061237e565b60405180910390a1565b611897610633565b8160cb546118a3610528565b6118ad91906126a0565b6118b791906126a0565b11156118f8576040517f08c379a00000000000000000000000000000000000000000000000000000000081526004016118ef906125e3565b60405180910390fd5b6119028282611aa3565b7f0f6798a560793a54c3bcfe86a93cde1e73087d944c0ea20544137d41213968858282604051611933929190612399565b60405180910390a15050565b8060cb5461194b610528565b6119559190612750565b1015611996576040517f08c379a000000000000000000000000000000000000000000000000000000000815260040161198d906125c3565b60405180910390fd5b8060cb60008282546119a891906126a0565b925050819055506119b98282611b0d565b7fcc16f5dbb4873280815c1ee09dbd06736cffcc184412cf7a71a0fdb75d397ca582826040516119ea929190612399565b60405180910390a15050565b6119fe610b80565b15611a3e576040517f08c379a0000000000000000000000000000000000000000000000000000000008152600401611a3590612503565b60405180910390fd5b6001603360006101000a81548160ff0219169083151502179055507f62e78cea01bee320cd4e420270b5ea74000d11b0c9f74754ebdbfc544b05a258611a8261109c565b604051611a8f919061237e565b60405180910390a1565b505050565b505050565b611aab610633565b81611ab4610528565b611abe91906126a0565b1115611aff576040517f08c379a0000000000000000000000000000000000000000000000000000000008152600401611af690612583565b60405180910390fd5b611b098282611ce6565b5050565b600073ffffffffffffffffffffffffffffffffffffffff168273ffffffffffffffffffffffffffffffffffffffff161415611b7d576040517f08c379a0000000000000000000000000000000000000000000000000000000008152600401611b7490612543565b60405180910390fd5b611b8982600083611a99565b6000606660008473ffffffffffffffffffffffffffffffffffffffff1673ffffffffffffffffffffffffffffffffffffffff16815260200190815260200160002054905081811015611c10576040517f08c379a0000000000000000000000000000000000000000000000000000000008152600401611c07906124a3565b60405180910390fd5b818103606660008573ffffffffffffffffffffffffffffffffffffffff1673ffffffffffffffffffffffffffffffffffffffff168152602001908152602001600020819055508160686000828254611c689190612750565b92505081905550600073ffffffffffffffffffffffffffffffffffffffff168373ffffffffffffffffffffffffffffffffffffffff167fddf252ad1be2c89b69c2b068fc378daa952ba7f163c4a11628f55a4df523b3ef84604051611ccd9190612643565b60405180910390a3611ce183600084611a9e565b505050565b600073ffffffffffffffffffffffffffffffffffffffff168273ffffffffffffffffffffffffffffffffffffffff161415611d56576040517f08c379a0000000000000000000000000000000000000000000000000000000008152600401611d4d90612623565b60405180910390fd5b611d6260008383611a99565b8060686000828254611d7491906126a0565b9250508190555080606660008473ffffffffffffffffffffffffffffffffffffffff1673ffffffffffffffffffffffffffffffffffffffff1681526020019081526020016000206000828254611dca91906126a0565b925050819055508173ffffffffffffffffffffffffffffffffffffffff16600073ffffffffffffffffffffffffffffffffffffffff167fddf252ad1be2c89b69c2b068fc378daa952ba7f163c4a11628f55a4df523b3ef83604051611e2f9190612643565b60405180910390a3611e4360008383611a9e565b5050565b600081359050611e5681612d8b565b92915050565b600081519050611e6b81612da2565b92915050565b600081359050611e8081612db9565b92915050565b600081359050611e9581612dd0565b92915050565b600060208284031215611ead57600080fd5b6000611ebb84828501611e47565b91505092915050565b60008060408385031215611ed757600080fd5b6000611ee585828601611e47565b9250506020611ef685828601611e47565b9150509250929050565b600080600060608486031215611f1557600080fd5b6000611f2386828701611e47565b9350506020611f3486828701611e47565b9250506040611f4586828701611e86565b9150509250925092565b60008060408385031215611f6257600080fd5b6000611f7085828601611e47565b9250506020611f8185828601611e86565b9150509250929050565b600060208284031215611f9d57600080fd5b6000611fab84828501611e5c565b91505092915050565b60008060408385031215611fc757600080fd5b6000611fd585828601611e71565b9250506020611fe685828601611e47565b9150509250929050565b60006020828403121561200257600080fd5b600061201084828501611e86565b91505092915050565b61202281612784565b82525050565b61203181612796565b82525050565b612040816127a2565b82525050565b600061205182612679565b61205b8185612684565b935061206b8185602086016127e3565b612074816128d0565b840191505092915050565b600061208a82612679565b6120948185612695565b93506120a48185602086016127e3565b80840191505092915050565b60006120bd602083612684565b91506120c8826128e1565b602082019050919050565b60006120e0602383612684565b91506120eb8261290a565b604082019050919050565b6000612103602483612695565b915061210e82612959565b602482019050919050565b6000612126601483612684565b9150612131826129a8565b602082019050919050565b6000612149602283612684565b9150612154826129d1565b604082019050919050565b600061216c602283612684565b915061217782612a20565b604082019050919050565b600061218f602683612684565b915061219a82612a6f565b604082019050919050565b60006121b2601083612684565b91506121bd82612abe565b602082019050919050565b60006121d5602883612684565b91506121e082612ae7565b604082019050919050565b60006121f8602183612684565b915061220382612b36565b604082019050919050565b600061221b602583612684565b915061222682612b85565b604082019050919050565b600061223e601983612684565b915061224982612bd4565b602082019050919050565b6000612261602483612684565b915061226c82612bfd565b604082019050919050565b6000612284602983612684565b915061228f82612c4c565b604082019050919050565b60006122a7602683612684565b91506122b282612c9b565b604082019050919050565b60006122ca602583612684565b91506122d582612cea565b604082019050919050565b60006122ed601183612695565b91506122f882612d39565b601182019050919050565b6000612310601f83612684565b915061231b82612d62565b602082019050919050565b61232f816127cc565b82525050565b61233e816127d6565b82525050565b600061234f826120f6565b915061235b828561207f565b9150612366826122e0565b9150612372828461207f565b91508190509392505050565b60006020820190506123936000830184612019565b92915050565b60006040820190506123ae6000830185612019565b6123bb6020830184612326565b9392505050565b60006020820190506123d76000830184612028565b92915050565b60006020820190506123f26000830184612037565b92915050565b600060408201905061240d6000830185612037565b61241a6020830184612019565b9392505050565b6000602082019050818103600083015261243b8184612046565b905092915050565b6000602082019050818103600083015261245c816120b0565b9050919050565b6000602082019050818103600083015261247c816120d3565b9050919050565b6000602082019050818103600083015261249c81612119565b9050919050565b600060208201905081810360008301526124bc8161213c565b9050919050565b600060208201905081810360008301526124dc8161215f565b9050919050565b600060208201905081810360008301526124fc81612182565b9050919050565b6000602082019050818103600083015261251c816121a5565b9050919050565b6000602082019050818103600083015261253c816121c8565b9050919050565b6000602082019050818103600083015261255c816121eb565b9050919050565b6000602082019050818103600083015261257c8161220e565b9050919050565b6000602082019050818103600083015261259c81612231565b9050919050565b600060208201905081810360008301526125bc81612254565b9050919050565b600060208201905081810360008301526125dc81612277565b9050919050565b600060208201905081810360008301526125fc8161229a565b9050919050565b6000602082019050818103600083015261261c816122bd565b9050919050565b6000602082019050818103600083015261263c81612303565b9050919050565b60006020820190506126586000830184612326565b92915050565b60006020820190506126736000830184612335565b92915050565b600081519050919050565b600082825260208201905092915050565b600081905092915050565b60006126ab826127cc565b91506126b6836127cc565b9250827fffffffffffffffffffffffffffffffffffffffffffffffffffffffffffffffff038211156126eb576126ea612872565b5b828201905092915050565b6000612701826127cc565b915061270c836127cc565b9250817fffffffffffffffffffffffffffffffffffffffffffffffffffffffffffffffff048311821515161561274557612744612872565b5b828202905092915050565b600061275b826127cc565b9150612766836127cc565b92508282101561277957612778612872565b5b828203905092915050565b600061278f826127ac565b9050919050565b60008115159050919050565b6000819050919050565b600073ffffffffffffffffffffffffffffffffffffffff82169050919050565b6000819050919050565b600060ff82169050919050565b60005b838110156128015780820151818401526020810190506127e6565b83811115612810576000848401525b50505050565b6000612821826127cc565b9150600082141561283557612834612872565b5b600182039050919050565b6000600282049050600182168061285857607f821691505b6020821081141561286c5761286b6128a1565b5b50919050565b7f4e487b7100000000000000000000000000000000000000000000000000000000600052601160045260246000fd5b7f4e487b7100000000000000000000000000000000000000000000000000000000600052602260045260246000fd5b6000601f19601f8301169050919050565b7f537472696e67733a20686578206c656e67746820696e73756666696369656e74600082015250565b7f45524332303a207472616e7366657220746f20746865207a65726f206164647260008201527f6573730000000000000000000000000000000000000000000000000000000000602082015250565b7f416363657373436f6e74726f6c50726f78795061757361626c653a206163636f60008201527f756e742000000000000000000000000000000000000000000000000000000000602082015250565b7f5061757361626c653a206e6f7420706175736564000000000000000000000000600082015250565b7f45524332303a206275726e20616d6f756e7420657863656564732062616c616e60008201527f6365000000000000000000000000000000000000000000000000000000000000602082015250565b7f45524332303a20617070726f766520746f20746865207a65726f20616464726560008201527f7373000000000000000000000000000000000000000000000000000000000000602082015250565b7f45524332303a207472616e7366657220616d6f756e742065786365656473206260008201527f616c616e63650000000000000000000000000000000000000000000000000000602082015250565b7f5061757361626c653a2070617573656400000000000000000000000000000000600082015250565b7f45524332303a207472616e7366657220616d6f756e742065786365656473206160008201527f6c6c6f77616e6365000000000000000000000000000000000000000000000000602082015250565b7f45524332303a206275726e2066726f6d20746865207a65726f2061646472657360008201527f7300000000000000000000000000000000000000000000000000000000000000602082015250565b7f45524332303a207472616e736665722066726f6d20746865207a65726f20616460008201527f6472657373000000000000000000000000000000000000000000000000000000602082015250565b7f45524332304361707065643a2063617020657863656564656400000000000000600082015250565b7f45524332303a20617070726f76652066726f6d20746865207a65726f2061646460008201527f7265737300000000000000000000000000000000000000000000000000000000602082015250565b7f547574656c6c757345524332303a206275726e20616d6f756e7420657863656560008201527f647320737570706c790000000000000000000000000000000000000000000000602082015250565b7f547574656c6c757345524332303a206d696e7420616d6f756e7420657863656560008201527f6473206361700000000000000000000000000000000000000000000000000000602082015250565b7f45524332303a2064656372656173656420616c6c6f77616e63652062656c6f7760008201527f207a65726f000000000000000000000000000000000000000000000000000000602082015250565b7f206973206d697373696e6720726f6c6520000000000000000000000000000000600082015250565b7f45524332303a206d696e7420746f20746865207a65726f206164647265737300600082015250565b612d9481612784565b8114612d9f57600080fd5b50565b612dab81612796565b8114612db657600080fd5b50565b612dc2816127a2565b8114612dcd57600080fd5b50565b612dd9816127cc565b8114612de457600080fd5b5056fea26469706673582212208eb58fe691cfd26420b178a90f42c15fdcbbcb492fba62f0abc49b61c2e3a76f64736f6c6343000802003360806040523480156200001157600080fd5b50604051620028db380380620028db833981810160405281019062000037919062000786565b6200004982826200005160201b60201c565b5050620008be565b600060019054906101000a900460ff168062000078575060008054906101000a900460ff16155b620000ba576040517f08c379a0000000000000000000000000000000000000000000000000000000008152600401620000b190620007ee565b60405180910390fd5b60008060019054906101000a900460ff1615905080156200010b576001600060016101000a81548160ff02191690831515021790555060016000806101000a81548160ff0219169083151502179055505b6200011c836200015460201b60201c565b6200012d826200025560201b60201c565b80156200014f5760008060016101000a81548160ff0219169083151502179055505b505050565b600060019054906101000a900460ff16806200017b575060008054906101000a900460ff16155b620001bd576040517f08c379a0000000000000000000000000000000000000000000000000000000008152600401620001b490620007ee565b60405180910390fd5b60008060019054906101000a900460ff1615905080156200020e576001600060016101000a81548160ff02191690831515021790555060016000806101000a81548160ff0219169083151502179055505b6200021e6200037660201b60201c565b6200022f826200047560201b60201c565b8015620002515760008060016101000a81548160ff0219169083151502179055505b5050565b600060019054906101000a900460ff16806200027c575060008054906101000a900460ff16155b620002be576040517f08c379a0000000000000000000000000000000000000000000000000000000008152600401620002b590620007ee565b60405180910390fd5b60008060019054906101000a900460ff1615905080156200030f576001600060016101000a81548160ff02191690831515021790555060016000806101000a81548160ff0219169083151502179055505b81606660006101000a81548173ffffffffffffffffffffffffffffffffffffffff021916908373ffffffffffffffffffffffffffffffffffffffff1602179055508015620003725760008060016101000a81548160ff0219169083151502179055505b5050565b600060019054906101000a900460ff16806200039d575060008054906101000a900460ff16155b620003df576040517f08c379a0000000000000000000000000000000000000000000000000000000008152600401620003d690620007ee565b60405180910390fd5b60008060019054906101000a900460ff16159050801562000430576001600060016101000a81548160ff02191690831515021790555060016000806101000a81548160ff0219169083151502179055505b620004406200059660201b60201c565b620004506200067560201b60201c565b8015620004725760008060016101000a81548160ff0219169083151502179055505b50565b600060019054906101000a900460ff16806200049c575060008054906101000a900460ff16155b620004de576040517f08c379a0000000000000000000000000000000000000000000000000000000008152600401620004d590620007ee565b60405180910390fd5b60008060019054906101000a900460ff1615905080156200052f576001600060016101000a81548160ff02191690831515021790555060016000806101000a81548160ff0219169083151502179055505b81606560006101000a81548173ffffffffffffffffffffffffffffffffffffffff021916908373ffffffffffffffffffffffffffffffffffffffff1602179055508015620005925760008060016101000a81548160ff0219169083151502179055505b5050565b600060019054906101000a900460ff1680620005bd575060008054906101000a900460ff16155b620005ff576040517f08c379a0000000000000000000000000000000000000000000000000000000008152600401620005f690620007ee565b60405180910390fd5b60008060019054906101000a900460ff16159050801562000650576001600060016101000a81548160ff02191690831515021790555060016000806101000a81548160ff0219169083151502179055505b8015620006725760008060016101000a81548160ff0219169083151502179055505b50565b600060019054906101000a900460ff16806200069c575060008054906101000a900460ff16155b620006de576040517f08c379a0000000000000000000000000000000000000000000000000000000008152600401620006d590620007ee565b60405180910390fd5b60008060019054906101000a900460ff1615905080156200072f576001600060016101000a81548160ff02191690831515021790555060016000806101000a81548160ff0219169083151502179055505b6000603360006101000a81548160ff02191690831515021790555080156200076c5760008060016101000a81548160ff0219169083151502179055505b50565b6000815190506200078081620008a4565b92915050565b600080604083850312156200079a57600080fd5b6000620007aa858286016200076f565b9250506020620007bd858286016200076f565b9150509250929050565b6000620007d6602e8362000810565b9150620007e38262000855565b604082019050919050565b600060208201905081810360008301526200080981620007c7565b9050919050565b600082825260208201905092915050565b60006200082e8262000835565b9050919050565b600073ffffffffffffffffffffffffffffffffffffffff82169050919050565b7f496e697469616c697a61626c653a20636f6e747261637420697320616c72656160008201527f647920696e697469616c697a6564000000000000000000000000000000000000602082015250565b620008af8162000821565b8114620008bb57600080fd5b50565b61200d80620008ce6000396000f3fe608060405234801561001057600080fd5b50600436106101215760003560e01c806363453ae1116100ad5780639ecaf2b2116100715780639ecaf2b214610306578063a217fddf14610336578063c07cfca914610354578063e63ab1e914610387578063fc0c546a146103a557610121565b806363453ae1146102505780638456cb591461026c57806384618ddc1461027657806391d14854146102a65780639852595c146102d657610121565b80634e71d92d116100f45780634e71d92d146101c0578063578bcf35146101ca5780635872a4de146101fa57806358aba00f146102165780635c975abb1461023257610121565b806310098ad5146101265780633f4ba83a146101565780633f697ce9146101605780634225e5bb14610190575b600080fd5b610140600480360381019061013b9190611689565b6103c3565b60405161014d9190611b30565b60405180910390f35b61015e6103e8565b005b61017a60048036038101906101759190611689565b61055e565b6040516101879190611b30565b60405180910390f35b6101aa60048036038101906101a59190611689565b6105aa565b6040516101b79190611b30565b60405180910390f35b6101c86105fc565b005b6101e460048036038101906101df9190611689565b61060d565b6040516101f19190611b30565b60405180910390f35b610214600480360381019061020f91906116b2565b610659565b005b610230600480360381019061022b9190611689565b610a8f565b005b61023a610c22565b6040516102479190611a0f565b60405180910390f35b61026a60048036038101906102659190611689565b610c39565b005b610274610e20565b005b610290600480360381019061028b9190611689565b610f96565b60405161029d9190611b30565b60405180910390f35b6102c060048036038101906102bb919061173e565b610fe2565b6040516102cd9190611a0f565b60405180910390f35b6102f060048036038101906102eb9190611689565b61109e565b6040516102fd9190611b30565b60405180910390f35b610320600480360381019061031b9190611689565b611121565b60405161032d9190611b30565b60405180910390f35b61033e61116d565b60405161034b9190611a2a565b60405180910390f35b61036e60048036038101906103699190611689565b611174565b60405161037e9493929190611b4b565b60405180910390f35b61038f6111a4565b60405161039c9190611a2a565b60405180910390f35b6103ad6111c8565b6040516103ba919061194f565b60405180910390f35b60006103ce8261060d565b6103d78361109e565b6103e19190611c98565b9050919050565b7f65d7a28e3265b37a6474929f336521b332c1681b933f6cb9f3376673440d862a6000606560009054906101000a900473ffffffffffffffffffffffffffffffffffffffff16905060003390508173ffffffffffffffffffffffffffffffffffffffff166391d1485484836040518363ffffffff1660e01b8152600401610470929190611a45565b60206040518083038186803b15801561048857600080fd5b505afa15801561049c573d6000803e3d6000fd5b505050506040513d601f19601f820116820180604052508101906104c09190611715565b6104e18273ffffffffffffffffffffffffffffffffffffffff1660146111ee565b6104ef8560001c60206111ee565b604051602001610500929190611915565b60405160208183030381529060405290610550576040517f08c379a00000000000000000000000000000000000000000000000000000000081526004016105479190611a6e565b60405180910390fd5b506105596114e8565b505050565b6000606760008373ffffffffffffffffffffffffffffffffffffffff1673ffffffffffffffffffffffffffffffffffffffff168152602001908152602001600020600201549050919050565b6000806105b683611121565b11156105f2576105c582611121565b6105ce8361055e565b6105d784610f96565b6105e19190611c98565b6105eb9190611c0d565b90506105f7565b600090505b919050565b600033905061060a81610c39565b50565b6000606760008373ffffffffffffffffffffffffffffffffffffffff1673ffffffffffffffffffffffffffffffffffffffff168152602001908152602001600020600001549050919050565b6000801b6000606560009054906101000a900473ffffffffffffffffffffffffffffffffffffffff16905060003390508173ffffffffffffffffffffffffffffffffffffffff166391d1485484836040518363ffffffff1660e01b81526004016106c4929190611a45565b60206040518083038186803b1580156106dc57600080fd5b505afa1580156106f0573d6000803e3d6000fd5b505050506040513d601f19601f820116820180604052508101906107149190611715565b6107358273ffffffffffffffffffffffffffffffffffffffff1660146111ee565b6107438560001c60206111ee565b604051602001610754929190611915565b604051602081830303815290604052906107a4576040517f08c379a000000000000000000000000000000000000000000000000000000000815260040161079b9190611a6e565b60405180910390fd5b508484116107e7576040517f08c379a00000000000000000000000000000000000000000000000000000000081526004016107de90611af0565b60405180910390fd5b6000606760008973ffffffffffffffffffffffffffffffffffffffff1673ffffffffffffffffffffffffffffffffffffffff16815260200190815260200160002060000181905550848461083b9190611c98565b866108469190611c0d565b606760008973ffffffffffffffffffffffffffffffffffffffff1673ffffffffffffffffffffffffffffffffffffffff1681526020019081526020016000206001018190555084436108989190611bb7565b606760008973ffffffffffffffffffffffffffffffffffffffff1673ffffffffffffffffffffffffffffffffffffffff1681526020019081526020016000206002018190555083436108ea9190611bb7565b606760008973ffffffffffffffffffffffffffffffffffffffff1673ffffffffffffffffffffffffffffffffffffffff168152602001908152602001600020600301819055506000606660009054906101000a900473ffffffffffffffffffffffffffffffffffffffff1690508073ffffffffffffffffffffffffffffffffffffffff166340c10f1930896040518363ffffffff1660e01b81526004016109929291906119a1565b600060405180830381600087803b1580156109ac57600080fd5b505af11580156109c0573d6000803e3d6000fd5b505050507fc37e5d36bd0279e9c61952b98313de5a8351caf00960074dbe2017a03ac5202e8888606760008c73ffffffffffffffffffffffffffffffffffffffff1673ffffffffffffffffffffffffffffffffffffffff16815260200190815260200160002060020154606760008d73ffffffffffffffffffffffffffffffffffffffff1673ffffffffffffffffffffffffffffffffffffffff16815260200190815260200160002060030154604051610a7d94939291906119ca565b60405180910390a15050505050505050565b6000801b6000606560009054906101000a900473ffffffffffffffffffffffffffffffffffffffff16905060003390508173ffffffffffffffffffffffffffffffffffffffff166391d1485484836040518363ffffffff1660e01b8152600401610afa929190611a45565b60206040518083038186803b158015610b1257600080fd5b505afa158015610b26573d6000803e3d6000fd5b505050506040513d601f19601f82011682018060405250810190610b4a9190611715565b610b6b8273ffffffffffffffffffffffffffffffffffffffff1660146111ee565b610b798560001c60206111ee565b604051602001610b8a929190611915565b60405160208183030381529060405290610bda576040517f08c379a0000000000000000000000000000000000000000000000000000000008152600401610bd19190611a6e565b60405180910390fd5b5083606560006101000a81548173ffffffffffffffffffffffffffffffffffffffff021916908373ffffffffffffffffffffffffffffffffffffffff16021790555050505050565b6000603360009054906101000a900460ff16905090565b610c41610c22565b15610c81576040517f08c379a0000000000000000000000000000000000000000000000000000000008152600401610c7890611ad0565b60405180910390fd5b6000606660009054906101000a900473ffffffffffffffffffffffffffffffffffffffff1690506000610cb3836103c3565b90506000811015610cf9576040517f08c379a0000000000000000000000000000000000000000000000000000000008152600401610cf090611b10565b60405180910390fd5b80606760008573ffffffffffffffffffffffffffffffffffffffff1673ffffffffffffffffffffffffffffffffffffffff1681526020019081526020016000206000016000828254610d4b9190611bb7565b925050819055508173ffffffffffffffffffffffffffffffffffffffff1663a9059cbb84836040518363ffffffff1660e01b8152600401610d8d9291906119a1565b602060405180830381600087803b158015610da757600080fd5b505af1158015610dbb573d6000803e3d6000fd5b505050506040513d601f19601f82011682018060405250810190610ddf9190611715565b507fafdc1eb311d58306e249917b5ca0044a827a66f0ec535c334d63372c4055d364338483604051610e139392919061196a565b60405180910390a1505050565b7f65d7a28e3265b37a6474929f336521b332c1681b933f6cb9f3376673440d862a6000606560009054906101000a900473ffffffffffffffffffffffffffffffffffffffff16905060003390508173ffffffffffffffffffffffffffffffffffffffff166391d1485484836040518363ffffffff1660e01b8152600401610ea8929190611a45565b60206040518083038186803b158015610ec057600080fd5b505afa158015610ed4573d6000803e3d6000fd5b505050506040513d601f19601f82011682018060405250810190610ef89190611715565b610f198273ffffffffffffffffffffffffffffffffffffffff1660146111ee565b610f278560001c60206111ee565b604051602001610f38929190611915565b60405160208183030381529060405290610f88576040517f08c379a0000000000000000000000000000000000000000000000000000000008152600401610f7f9190611a6e565b60405180910390fd5b50610f9161158a565b505050565b6000606760008373ffffffffffffffffffffffffffffffffffffffff1673ffffffffffffffffffffffffffffffffffffffff168152602001908152602001600020600301549050919050565b600080606560009054906101000a900473ffffffffffffffffffffffffffffffffffffffff1690508073ffffffffffffffffffffffffffffffffffffffff166391d1485485856040518363ffffffff1660e01b8152600401611045929190611a45565b60206040518083038186803b15801561105d57600080fd5b505afa158015611071573d6000803e3d6000fd5b505050506040513d601f19601f820116820180604052508101906110959190611715565b91505092915050565b6000806110aa836105aa565b1115611117576110b982610f96565b4311156110d0576110c9826105aa565b905061111c565b6110d98261055e565b43111561110e576110e982611121565b6110f28361055e565b436110fd9190611c98565b6111079190611c3e565b905061111c565b6000905061111c565b600090505b919050565b6000606760008373ffffffffffffffffffffffffffffffffffffffff1673ffffffffffffffffffffffffffffffffffffffff168152602001908152602001600020600101549050919050565b6000801b81565b60676020528060005260406000206000915090508060000154908060010154908060020154908060030154905084565b7f65d7a28e3265b37a6474929f336521b332c1681b933f6cb9f3376673440d862a81565b606660009054906101000a900473ffffffffffffffffffffffffffffffffffffffff1681565b6060600060028360026112019190611c3e565b61120b9190611bb7565b67ffffffffffffffff81111561124a577f4e487b7100000000000000000000000000000000000000000000000000000000600052604160045260246000fd5b6040519080825280601f01601f19166020018201604052801561127c5781602001600182028036833780820191505090505b5090507f3000000000000000000000000000000000000000000000000000000000000000816000815181106112da577f4e487b7100000000000000000000000000000000000000000000000000000000600052603260045260246000fd5b60200101907effffffffffffffffffffffffffffffffffffffffffffffffffffffffffffff1916908160001a9053507f780000000000000000000000000000000000000000000000000000000000000081600181518110611364577f4e487b7100000000000000000000000000000000000000000000000000000000600052603260045260246000fd5b60200101907effffffffffffffffffffffffffffffffffffffffffffffffffffffffffffff1916908160001a905350600060018460026113a49190611c3e565b6113ae9190611bb7565b90505b600181111561149a577f3031323334353637383961626364656600000000000000000000000000000000600f861660108110611416577f4e487b7100000000000000000000000000000000000000000000000000000000600052603260045260246000fd5b1a60f81b828281518110611453577f4e487b7100000000000000000000000000000000000000000000000000000000600052603260045260246000fd5b60200101907effffffffffffffffffffffffffffffffffffffffffffffffffffffffffffff1916908160001a905350600485901c94508061149390611d51565b90506113b1565b50600084146114de576040517f08c379a00000000000000000000000000000000000000000000000000000000081526004016114d590611a90565b60405180910390fd5b8091505092915050565b6114f0610c22565b61152f576040517f08c379a000000000000000000000000000000000000000000000000000000000815260040161152690611ab0565b60405180910390fd5b6000603360006101000a81548160ff0219169083151502179055507f5db9ee0a495bf2e6ff9c91a7834c1ba4fdd244a5e8aa4e537bd38aeae4b073aa61157361162d565b604051611580919061194f565b60405180910390a1565b611592610c22565b156115d2576040517f08c379a00000000000000000000000000000000000000000000000000000000081526004016115c990611ad0565b60405180910390fd5b6001603360006101000a81548160ff0219169083151502179055507f62e78cea01bee320cd4e420270b5ea74000d11b0c9f74754ebdbfc544b05a25861161661162d565b604051611623919061194f565b60405180910390a1565b600033905090565b60008135905061164481611f7b565b92915050565b60008151905061165981611f92565b92915050565b60008135905061166e81611fa9565b92915050565b60008135905061168381611fc0565b92915050565b60006020828403121561169b57600080fd5b60006116a984828501611635565b91505092915050565b600080600080608085870312156116c857600080fd5b60006116d687828801611635565b94505060206116e787828801611674565b93505060406116f887828801611674565b925050606061170987828801611674565b91505092959194509250565b60006020828403121561172757600080fd5b60006117358482850161164a565b91505092915050565b6000806040838503121561175157600080fd5b600061175f8582860161165f565b925050602061177085828601611635565b9150509250929050565b61178381611ccc565b82525050565b61179281611cde565b82525050565b6117a181611cea565b82525050565b60006117b282611b90565b6117bc8185611b9b565b93506117cc818560208601611d1e565b6117d581611dd9565b840191505092915050565b60006117eb82611b90565b6117f58185611bac565b9350611805818560208601611d1e565b80840191505092915050565b600061181e602083611b9b565b915061182982611dea565b602082019050919050565b6000611841602483611bac565b915061184c82611e13565b602482019050919050565b6000611864601483611b9b565b915061186f82611e62565b602082019050919050565b6000611887601083611b9b565b915061189282611e8b565b602082019050919050565b60006118aa603c83611b9b565b91506118b582611eb4565b604082019050919050565b60006118cd602e83611b9b565b91506118d882611f03565b604082019050919050565b60006118f0601183611bac565b91506118fb82611f52565b601182019050919050565b61190f81611d14565b82525050565b600061192082611834565b915061192c82856117e0565b9150611937826118e3565b915061194382846117e0565b91508190509392505050565b6000602082019050611964600083018461177a565b92915050565b600060608201905061197f600083018661177a565b61198c602083018561177a565b6119996040830184611906565b949350505050565b60006040820190506119b6600083018561177a565b6119c36020830184611906565b9392505050565b60006080820190506119df600083018761177a565b6119ec6020830186611906565b6119f96040830185611906565b611a066060830184611906565b95945050505050565b6000602082019050611a246000830184611789565b92915050565b6000602082019050611a3f6000830184611798565b92915050565b6000604082019050611a5a6000830185611798565b611a67602083018461177a565b9392505050565b60006020820190508181036000830152611a8881846117a7565b905092915050565b60006020820190508181036000830152611aa981611811565b9050919050565b60006020820190508181036000830152611ac981611857565b9050919050565b60006020820190508181036000830152611ae98161187a565b9050919050565b60006020820190508181036000830152611b098161189d565b9050919050565b60006020820190508181036000830152611b29816118c0565b9050919050565b6000602082019050611b456000830184611906565b92915050565b6000608082019050611b606000830187611906565b611b6d6020830186611906565b611b7a6040830185611906565b611b876060830184611906565b95945050505050565b600081519050919050565b600082825260208201905092915050565b600081905092915050565b6000611bc282611d14565b9150611bcd83611d14565b9250827fffffffffffffffffffffffffffffffffffffffffffffffffffffffffffffffff03821115611c0257611c01611d7b565b5b828201905092915050565b6000611c1882611d14565b9150611c2383611d14565b925082611c3357611c32611daa565b5b828204905092915050565b6000611c4982611d14565b9150611c5483611d14565b9250817fffffffffffffffffffffffffffffffffffffffffffffffffffffffffffffffff0483118215151615611c8d57611c8c611d7b565b5b828202905092915050565b6000611ca382611d14565b9150611cae83611d14565b925082821015611cc157611cc0611d7b565b5b828203905092915050565b6000611cd782611cf4565b9050919050565b60008115159050919050565b6000819050919050565b600073ffffffffffffffffffffffffffffffffffffffff82169050919050565b6000819050919050565b60005b83811015611d3c578082015181840152602081019050611d21565b83811115611d4b576000848401525b50505050565b6000611d5c82611d14565b91506000821415611d7057611d6f611d7b565b5b600182039050919050565b7f4e487b7100000000000000000000000000000000000000000000000000000000600052601160045260246000fd5b7f4e487b7100000000000000000000000000000000000000000000000000000000600052601260045260246000fd5b6000601f19601f8301169050919050565b7f537472696e67733a20686578206c656e67746820696e73756666696369656e74600082015250565b7f416363657373436f6e74726f6c50726f78795061757361626c653a206163636f60008201527f756e742000000000000000000000000000000000000000000000000000000000602082015250565b7f5061757361626c653a206e6f7420706175736564000000000000000000000000600082015250565b7f5061757361626c653a2070617573656400000000000000000000000000000000600082015250565b7f547574656c6c7573446973747269627574696f6e5661756c743a20656e64426c60008201527f6f636b206d757374206265206166746572207374617274426c6f636b00000000602082015250565b7f547574656c6c7573446973747269627574696f6e5661756c743a204e6f20617660008201527f61696c61626c6520746f6b656e73000000000000000000000000000000000000602082015250565b7f206973206d697373696e6720726f6c6520000000000000000000000000000000600082015250565b611f8481611ccc565b8114611f8f57600080fd5b50565b611f9b81611cde565b8114611fa657600080fd5b50565b611fb281611cea565b8114611fbd57600080fd5b50565b611fc981611d14565b8114611fd457600080fd5b5056fea26469706673582212205cf48690d5295701e732ddcb73a98a51eefadd01b8f4a2ef5be24d16a7f56bbc64736f6c6343000802003360806040523480156200001157600080fd5b506040516200300c3803806200300c8339818101604052810190620000379190620007f2565b6200004b848484846200005560201b60201c565b5050505062000c7f565b600060019054906101000a900460ff16806200007c575060008054906101000a900460ff16155b620000be576040517f08c379a0000000000000000000000000000000000000000000000000000000008152600401620000b59062000885565b60405180910390fd5b60008060019054906101000a900460ff1615905080156200010f576001600060016101000a81548160ff02191690831515021790555060016000806101000a81548160ff0219169083151502179055505b62000120856200015c60201b60201c565b620001338484846200025d60201b60201c565b8015620001555760008060016101000a81548160ff0219169083151502179055505b5050505050565b600060019054906101000a900460ff168062000183575060008054906101000a900460ff16155b620001c5576040517f08c379a0000000000000000000000000000000000000000000000000000000008152600401620001bc9062000885565b60405180910390fd5b60008060019054906101000a900460ff16159050801562000216576001600060016101000a81548160ff02191690831515021790555060016000806101000a81548160ff0219169083151502179055505b62000226620003cb60201b60201c565b6200023782620004ca60201b60201c565b8015620002595760008060016101000a81548160ff0219169083151502179055505b5050565b600060019054906101000a900460ff168062000284575060008054906101000a900460ff16155b620002c6576040517f08c379a0000000000000000000000000000000000000000000000000000000008152600401620002bd9062000885565b60405180910390fd5b60008060019054906101000a900460ff16159050801562000317576001600060016101000a81548160ff02191690831515021790555060016000806101000a81548160ff0219169083151502179055505b83607060006101000a81548173ffffffffffffffffffffffffffffffffffffffff021916908373ffffffffffffffffffffffffffffffffffffffff16021790555043606c8190555081436200036d9190620008b8565b606d81905550600282620003829190620009a8565b83600262000391919062000ae5565b6200039d919062000915565b606e819055508015620003c55760008060016101000a81548160ff0219169083151502179055505b50505050565b600060019054906101000a900460ff1680620003f2575060008054906101000a900460ff16155b62000434576040517f08c379a00000000000000000000000000000000000000000000000000000000081526004016200042b9062000885565b60405180910390fd5b60008060019054906101000a900460ff16159050801562000485576001600060016101000a81548160ff02191690831515021790555060016000806101000a81548160ff0219169083151502179055505b62000495620005eb60201b60201c565b620004a5620006ca60201b60201c565b8015620004c75760008060016101000a81548160ff0219169083151502179055505b50565b600060019054906101000a900460ff1680620004f1575060008054906101000a900460ff16155b62000533576040517f08c379a00000000000000000000000000000000000000000000000000000000081526004016200052a9062000885565b60405180910390fd5b60008060019054906101000a900460ff16159050801562000584576001600060016101000a81548160ff02191690831515021790555060016000806101000a81548160ff0219169083151502179055505b81606560006101000a81548173ffffffffffffffffffffffffffffffffffffffff021916908373ffffffffffffffffffffffffffffffffffffffff1602179055508015620005e75760008060016101000a81548160ff0219169083151502179055505b5050565b600060019054906101000a900460ff168062000612575060008054906101000a900460ff16155b62000654576040517f08c379a00000000000000000000000000000000000000000000000000000000081526004016200064b9062000885565b60405180910390fd5b60008060019054906101000a900460ff161590508015620006a5576001600060016101000a81548160ff02191690831515021790555060016000806101000a81548160ff0219169083151502179055505b8015620006c75760008060016101000a81548160ff0219169083151502179055505b50565b600060019054906101000a900460ff1680620006f1575060008054906101000a900460ff16155b62000733576040517f08c379a00000000000000000000000000000000000000000000000000000000081526004016200072a9062000885565b60405180910390fd5b60008060019054906101000a900460ff16159050801562000784576001600060016101000a81548160ff02191690831515021790555060016000806101000a81548160ff0219169083151502179055505b6000603360006101000a81548160ff0219169083151502179055508015620007c15760008060016101000a81548160ff0219169083151502179055505b50565b600081519050620007d58162000c4b565b92915050565b600081519050620007ec8162000c65565b92915050565b600080600080608085870312156200080957600080fd5b60006200081987828801620007c4565b94505060206200082c87828801620007c4565b93505060406200083f87828801620007db565b92505060606200085287828801620007db565b91505092959194509250565b60006200086d602e83620008a7565b91506200087a8262000bfc565b604082019050919050565b60006020820190508181036000830152620008a0816200085e565b9050919050565b600082825260208201905092915050565b6000620008c58262000b7a565b9150620008d28362000b7a565b9250827fffffffffffffffffffffffffffffffffffffffffffffffffffffffffffffffff038211156200090a576200090962000b91565b5b828201905092915050565b6000620009228262000b7a565b91506200092f8362000b7a565b92508262000942576200094162000bc0565b5b828204905092915050565b6000808291508390505b60018511156200099f5780860481111562000977576200097662000b91565b5b6001851615620009875780820291505b8081029050620009978562000bef565b945062000957565b94509492505050565b6000620009b58262000b7a565b9150620009c28362000b84565b9250620009f17fffffffffffffffffffffffffffffffffffffffffffffffffffffffffffffffff8484620009f9565b905092915050565b60008262000a0b576001905062000ade565b8162000a1b576000905062000ade565b816001811462000a34576002811462000a3f5762000a75565b600191505062000ade565b60ff84111562000a545762000a5362000b91565b5b8360020a91508482111562000a6e5762000a6d62000b91565b5b5062000ade565b5060208310610133831016604e8410600b841016171562000aaf5782820a90508381111562000aa95762000aa862000b91565b5b62000ade565b62000abe84848460016200094d565b9250905081840481111562000ad85762000ad762000b91565b5b81810290505b9392505050565b600062000af28262000b7a565b915062000aff8362000b7a565b9250817fffffffffffffffffffffffffffffffffffffffffffffffffffffffffffffffff048311821515161562000b3b5762000b3a62000b91565b5b828202905092915050565b600062000b538262000b5a565b9050919050565b600073ffffffffffffffffffffffffffffffffffffffff82169050919050565b6000819050919050565b600060ff82169050919050565b7f4e487b7100000000000000000000000000000000000000000000000000000000600052601160045260246000fd5b7f4e487b7100000000000000000000000000000000000000000000000000000000600052601260045260246000fd5b60008160011c9050919050565b7f496e697469616c697a61626c653a20636f6e747261637420697320616c72656160008201527f647920696e697469616c697a6564000000000000000000000000000000000000602082015250565b62000c568162000b46565b811462000c6257600080fd5b50565b62000c708162000b7a565b811462000c7c57600080fd5b50565b61237d8062000c8f6000396000f3fe608060405234801561001057600080fd5b50600436106100f55760003560e01c80638456cb5911610097578063ae7928bf11610066578063ae7928bf1461024c578063cccc9a921461027c578063e63ab1e914610298578063fc0c546a146102b6576100f5565b80638456cb59146101d657806391d14854146101e05780639613252114610210578063a217fddf1461022e576100f5565b80633f4ba83a116100d35780633f4ba83a1461016257806358aba00f1461016c5780635c975abb146101885780636867aac5146101a6576100f5565b8063158a4988146100fa5780631d444d301461011657806337cb9e6714610146575b600080fd5b610114600480360381019061010f91906116be565b6102d4565b005b610130600480360381019061012b9190611641565b610442565b60405161013d9190611b9c565b60405180910390f35b610160600480360381019061015b91906116fa565b6104b1565b005b61016a6107bb565b005b61018660048036038101906101819190611641565b610931565b005b610190610ac4565b60405161019d9190611a3b565b60405180910390f35b6101c060048036038101906101bb91906117a0565b610adb565b6040516101cd9190611b9c565b60405180910390f35b6101de610bc1565b005b6101fa60048036038101906101f59190611764565b610d37565b6040516102079190611a3b565b60405180910390f35b610218610df3565b6040516102259190611b9c565b60405180910390f35b610236610e06565b6040516102439190611a56565b60405180910390f35b61026660048036038101906102619190611641565b610e0d565b6040516102739190611b9c565b60405180910390f35b6102966004803603810190610291919061166a565b610eb6565b005b6102a06110c6565b6040516102ad9190611a56565b60405180910390f35b6102be6110ea565b6040516102cb91906119f7565b60405180910390f35b6102dd82610442565b81111561031f576040517f08c379a000000000000000000000000000000000000000000000000000000000815260040161031690611b7c565b60405180910390fd5b80606a6000606660003373ffffffffffffffffffffffffffffffffffffffff1673ffffffffffffffffffffffffffffffffffffffff16815260200190815260200160002054815260200190815260200160002060008282546103819190611c2f565b925050819055506000607060009054906101000a900473ffffffffffffffffffffffffffffffffffffffff1690508073ffffffffffffffffffffffffffffffffffffffff1663a9059cbb84846040518363ffffffff1660e01b81526004016103ea929190611a12565b602060405180830381600087803b15801561040457600080fd5b505af1158015610418573d6000803e3d6000fd5b505050506040513d601f19601f8201168201806040525081019061043c919061173b565b50505050565b6000606a6000606660008573ffffffffffffffffffffffffffffffffffffffff1673ffffffffffffffffffffffffffffffffffffffff168152602001908152602001600020548152602001908152602001600020546104a083610e0d565b6104aa9190611e81565b9050919050565b6000801b6000606560009054906101000a900473ffffffffffffffffffffffffffffffffffffffff16905060003390508173ffffffffffffffffffffffffffffffffffffffff166391d1485484836040518363ffffffff1660e01b815260040161051c929190611a71565b60206040518083038186803b15801561053457600080fd5b505afa158015610548573d6000803e3d6000fd5b505050506040513d601f19601f8201168201806040525081019061056c919061173b565b61058d8273ffffffffffffffffffffffffffffffffffffffff166014611110565b61059b8560001c6020611110565b6040516020016105ac9291906119bd565b604051602081830303815290604052906105fc576040517f08c379a00000000000000000000000000000000000000000000000000000000081526004016105f39190611a9a565b60405180910390fd5b5060008085519050606f548114610648576040517f08c379a000000000000000000000000000000000000000000000000000000000815260040161063f90611b3c565b60405180910390fd5b60005b8181101561075f5786818151811061068c577f4e487b7100000000000000000000000000000000000000000000000000000000600052603260045260246000fd5b602002602001015160686000838152602001908152602001600020819055506106e76067600083815260200190815260200160002060009054906101000a900473ffffffffffffffffffffffffffffffffffffffff16610e0d565b6069600083815260200190815260200160002081905550868181518110610737577f4e487b7100000000000000000000000000000000000000000000000000000000600052603260045260246000fd5b60200260200101518361074a9190611c2f565b9250808061075790611fa2565b91505061064b565b5043606b8190555068056bc75e2d631000008211156107b3576040517f08c379a00000000000000000000000000000000000000000000000000000000081526004016107aa90611b1c565b60405180910390fd5b505050505050565b7f65d7a28e3265b37a6474929f336521b332c1681b933f6cb9f3376673440d862a6000606560009054906101000a900473ffffffffffffffffffffffffffffffffffffffff16905060003390508173ffffffffffffffffffffffffffffffffffffffff166391d1485484836040518363ffffffff1660e01b8152600401610843929190611a71565b60206040518083038186803b15801561085b57600080fd5b505afa15801561086f573d6000803e3d6000fd5b505050506040513d601f19601f82011682018060405250810190610893919061173b565b6108b48273ffffffffffffffffffffffffffffffffffffffff166014611110565b6108c28560001c6020611110565b6040516020016108d39291906119bd565b60405160208183030381529060405290610923576040517f08c379a000000000000000000000000000000000000000000000000000000000815260040161091a9190611a9a565b60405180910390fd5b5061092c61140a565b505050565b6000801b6000606560009054906101000a900473ffffffffffffffffffffffffffffffffffffffff16905060003390508173ffffffffffffffffffffffffffffffffffffffff166391d1485484836040518363ffffffff1660e01b815260040161099c929190611a71565b60206040518083038186803b1580156109b457600080fd5b505afa1580156109c8573d6000803e3d6000fd5b505050506040513d601f19601f820116820180604052508101906109ec919061173b565b610a0d8273ffffffffffffffffffffffffffffffffffffffff166014611110565b610a1b8560001c6020611110565b604051602001610a2c9291906119bd565b60405160208183030381529060405290610a7c576040517f08c379a0000000000000000000000000000000000000000000000000000000008152600401610a739190611a9a565b60405180910390fd5b5083606560006101000a81548173ffffffffffffffffffffffffffffffffffffffff021916908373ffffffffffffffffffffffffffffffffffffffff16021790555050505050565b6000603360009054906101000a900460ff16905090565b6000818310610b1f576040517f08c379a0000000000000000000000000000000000000000000000000000000008152600401610b1690611adc565b60405180910390fd5b606d54821115610b2f57606d5491505b606c54831015610b3f57606c5492505b6000600280606c5485610b529190611e81565b610b5c9190611d09565b606e54610b699190611e27565b610b739190611c85565b90506000600280606c5487610b889190611e81565b610b929190611d09565b606e54610b9f9190611e27565b610ba99190611c85565b90508082610bb79190611e81565b9250505092915050565b7f65d7a28e3265b37a6474929f336521b332c1681b933f6cb9f3376673440d862a6000606560009054906101000a900473ffffffffffffffffffffffffffffffffffffffff16905060003390508173ffffffffffffffffffffffffffffffffffffffff166391d1485484836040518363ffffffff1660e01b8152600401610c49929190611a71565b60206040518083038186803b158015610c6157600080fd5b505afa158015610c75573d6000803e3d6000fd5b505050506040513d601f19601f82011682018060405250810190610c99919061173b565b610cba8273ffffffffffffffffffffffffffffffffffffffff166014611110565b610cc88560001c6020611110565b604051602001610cd99291906119bd565b60405160208183030381529060405290610d29576040517f08c379a0000000000000000000000000000000000000000000000000000000008152600401610d209190611a9a565b60405180910390fd5b50610d326114ac565b505050565b600080606560009054906101000a900473ffffffffffffffffffffffffffffffffffffffff1690508073ffffffffffffffffffffffffffffffffffffffff166391d1485485856040518363ffffffff1660e01b8152600401610d9a929190611a71565b60206040518083038186803b158015610db257600080fd5b505afa158015610dc6573d6000803e3d6000fd5b505050506040513d601f19601f82011682018060405250810190610dea919061173b565b91505092915050565b6000610e0143606c54610adb565b905090565b6000801b81565b600080606660008473ffffffffffffffffffffffffffffffffffffffff1673ffffffffffffffffffffffffffffffffffffffff16815260200190815260200160002054905068056bc75e2d631000006068600083815260200190815260200160002054610e7c43606b54610adb565b610e869190611e27565b610e909190611c85565b6069600083815260200190815260200160002054610eae9190611c2f565b915050919050565b6000801b6000606560009054906101000a900473ffffffffffffffffffffffffffffffffffffffff16905060003390508173ffffffffffffffffffffffffffffffffffffffff166391d1485484836040518363ffffffff1660e01b8152600401610f21929190611a71565b60206040518083038186803b158015610f3957600080fd5b505afa158015610f4d573d6000803e3d6000fd5b505050506040513d601f19601f82011682018060405250810190610f71919061173b565b610f928273ffffffffffffffffffffffffffffffffffffffff166014611110565b610fa08560001c6020611110565b604051602001610fb19291906119bd565b60405160208183030381529060405290611001576040517f08c379a0000000000000000000000000000000000000000000000000000000008152600401610ff89190611a9a565b60405180910390fd5b50606f54606660008773ffffffffffffffffffffffffffffffffffffffff1673ffffffffffffffffffffffffffffffffffffffff168152602001908152602001600020819055508460676000606f54815260200190815260200160002060006101000a81548173ffffffffffffffffffffffffffffffffffffffff021916908373ffffffffffffffffffffffffffffffffffffffff1602179055506001606f60008282546110af9190611c2f565b925050819055506110bf846104b1565b5050505050565b7f65d7a28e3265b37a6474929f336521b332c1681b933f6cb9f3376673440d862a81565b607060009054906101000a900473ffffffffffffffffffffffffffffffffffffffff1681565b6060600060028360026111239190611e27565b61112d9190611c2f565b67ffffffffffffffff81111561116c577f4e487b7100000000000000000000000000000000000000000000000000000000600052604160045260246000fd5b6040519080825280601f01601f19166020018201604052801561119e5781602001600182028036833780820191505090505b5090507f3000000000000000000000000000000000000000000000000000000000000000816000815181106111fc577f4e487b7100000000000000000000000000000000000000000000000000000000600052603260045260246000fd5b60200101907effffffffffffffffffffffffffffffffffffffffffffffffffffffffffffff1916908160001a9053507f780000000000000000000000000000000000000000000000000000000000000081600181518110611286577f4e487b7100000000000000000000000000000000000000000000000000000000600052603260045260246000fd5b60200101907effffffffffffffffffffffffffffffffffffffffffffffffffffffffffffff1916908160001a905350600060018460026112c69190611e27565b6112d09190611c2f565b90505b60018111156113bc577f3031323334353637383961626364656600000000000000000000000000000000600f861660108110611338577f4e487b7100000000000000000000000000000000000000000000000000000000600052603260045260246000fd5b1a60f81b828281518110611375577f4e487b7100000000000000000000000000000000000000000000000000000000600052603260045260246000fd5b60200101907effffffffffffffffffffffffffffffffffffffffffffffffffffffffffffff1916908160001a905350600485901c9450806113b590611f47565b90506112d3565b5060008414611400576040517f08c379a00000000000000000000000000000000000000000000000000000000081526004016113f790611abc565b60405180910390fd5b8091505092915050565b611412610ac4565b611451576040517f08c379a000000000000000000000000000000000000000000000000000000000815260040161144890611afc565b60405180910390fd5b6000603360006101000a81548160ff0219169083151502179055507f5db9ee0a495bf2e6ff9c91a7834c1ba4fdd244a5e8aa4e537bd38aeae4b073aa61149561154f565b6040516114a291906119f7565b60405180910390a1565b6114b4610ac4565b156114f4576040517f08c379a00000000000000000000000000000000000000000000000000000000081526004016114eb90611b5c565b60405180910390fd5b6001603360006101000a81548160ff0219169083151502179055507f62e78cea01bee320cd4e420270b5ea74000d11b0c9f74754ebdbfc544b05a25861153861154f565b60405161154591906119f7565b60405180910390a1565b600033905090565b600061156a61156584611bdc565b611bb7565b9050808382526020820190508285602086028201111561158957600080fd5b60005b858110156115b9578161159f888261162c565b84526020840193506020830192505060018101905061158c565b5050509392505050565b6000813590506115d2816122eb565b92915050565b600082601f8301126115e957600080fd5b81356115f9848260208601611557565b91505092915050565b60008151905061161181612302565b92915050565b60008135905061162681612319565b92915050565b60008135905061163b81612330565b92915050565b60006020828403121561165357600080fd5b6000611661848285016115c3565b91505092915050565b6000806040838503121561167d57600080fd5b600061168b858286016115c3565b925050602083013567ffffffffffffffff8111156116a857600080fd5b6116b4858286016115d8565b9150509250929050565b600080604083850312156116d157600080fd5b60006116df858286016115c3565b92505060206116f08582860161162c565b9150509250929050565b60006020828403121561170c57600080fd5b600082013567ffffffffffffffff81111561172657600080fd5b611732848285016115d8565b91505092915050565b60006020828403121561174d57600080fd5b600061175b84828501611602565b91505092915050565b6000806040838503121561177757600080fd5b600061178585828601611617565b9250506020611796858286016115c3565b9150509250929050565b600080604083850312156117b357600080fd5b60006117c18582860161162c565b92505060206117d28582860161162c565b9150509250929050565b6117e581611eb5565b82525050565b6117f481611ec7565b82525050565b61180381611ed3565b82525050565b600061181482611c08565b61181e8185611c13565b935061182e818560208601611f14565b61183781612078565b840191505092915050565b600061184d82611c08565b6118578185611c24565b9350611867818560208601611f14565b80840191505092915050565b6000611880602083611c13565b915061188b82612096565b602082019050919050565b60006118a3603c83611c13565b91506118ae826120bf565b604082019050919050565b60006118c6602483611c24565b91506118d18261210e565b602482019050919050565b60006118e9601483611c13565b91506118f48261215d565b602082019050919050565b600061190c603e83611c13565b915061191782612186565b604082019050919050565b600061192f605483611c13565b915061193a826121d5565b606082019050919050565b6000611952601083611c13565b915061195d8261224a565b602082019050919050565b6000611975603083611c13565b915061198082612273565b604082019050919050565b6000611998601183611c24565b91506119a3826122c2565b601182019050919050565b6119b781611efd565b82525050565b60006119c8826118b9565b91506119d48285611842565b91506119df8261198b565b91506119eb8284611842565b91508190509392505050565b6000602082019050611a0c60008301846117dc565b92915050565b6000604082019050611a2760008301856117dc565b611a3460208301846119ae565b9392505050565b6000602082019050611a5060008301846117eb565b92915050565b6000602082019050611a6b60008301846117fa565b92915050565b6000604082019050611a8660008301856117fa565b611a9360208301846117dc565b9392505050565b60006020820190508181036000830152611ab48184611809565b905092915050565b60006020820190508181036000830152611ad581611873565b9050919050565b60006020820190508181036000830152611af581611896565b9050919050565b60006020820190508181036000830152611b15816118dc565b9050919050565b60006020820190508181036000830152611b35816118ff565b9050919050565b60006020820190508181036000830152611b5581611922565b9050919050565b60006020820190508181036000830152611b7581611945565b9050919050565b60006020820190508181036000830152611b9581611968565b9050919050565b6000602082019050611bb160008301846119ae565b92915050565b6000611bc1611bd2565b9050611bcd8282611f71565b919050565b6000604051905090565b600067ffffffffffffffff821115611bf757611bf6612049565b5b602082029050602081019050919050565b600081519050919050565b600082825260208201905092915050565b600081905092915050565b6000611c3a82611efd565b9150611c4583611efd565b9250827fffffffffffffffffffffffffffffffffffffffffffffffffffffffffffffffff03821115611c7a57611c79611feb565b5b828201905092915050565b6000611c9082611efd565b9150611c9b83611efd565b925082611cab57611caa61201a565b5b828204905092915050565b6000808291508390505b6001851115611d0057808604811115611cdc57611cdb611feb565b5b6001851615611ceb5780820291505b8081029050611cf985612089565b9450611cc0565b94509492505050565b6000611d1482611efd565b9150611d1f83611f07565b9250611d4c7fffffffffffffffffffffffffffffffffffffffffffffffffffffffffffffffff8484611d54565b905092915050565b600082611d645760019050611e20565b81611d725760009050611e20565b8160018114611d885760028114611d9257611dc1565b6001915050611e20565b60ff841115611da457611da3611feb565b5b8360020a915084821115611dbb57611dba611feb565b5b50611e20565b5060208310610133831016604e8410600b8410161715611df65782820a905083811115611df157611df0611feb565b5b611e20565b611e038484846001611cb6565b92509050818404811115611e1a57611e19611feb565b5b81810290505b9392505050565b6000611e3282611efd565b9150611e3d83611efd565b9250817fffffffffffffffffffffffffffffffffffffffffffffffffffffffffffffffff0483118215151615611e7657611e75611feb565b5b828202905092915050565b6000611e8c82611efd565b9150611e9783611efd565b925082821015611eaa57611ea9611feb565b5b828203905092915050565b6000611ec082611edd565b9050919050565b60008115159050919050565b6000819050919050565b600073ffffffffffffffffffffffffffffffffffffffff82169050919050565b6000819050919050565b600060ff82169050919050565b60005b83811015611f32578082015181840152602081019050611f17565b83811115611f41576000848401525b50505050565b6000611f5282611efd565b91506000821415611f6657611f65611feb565b5b600182039050919050565b611f7a82612078565b810181811067ffffffffffffffff82111715611f9957611f98612049565b5b80604052505050565b6000611fad82611efd565b91507fffffffffffffffffffffffffffffffffffffffffffffffffffffffffffffffff821415611fe057611fdf611feb565b5b600182019050919050565b7f4e487b7100000000000000000000000000000000000000000000000000000000600052601160045260246000fd5b7f4e487b7100000000000000000000000000000000000000000000000000000000600052601260045260246000fd5b7f4e487b7100000000000000000000000000000000000000000000000000000000600052604160045260246000fd5b6000601f19601f8301169050919050565b60008160011c9050919050565b7f537472696e67733a20686578206c656e67746820696e73756666696369656e74600082015250565b7f547574656c6c75735969656c64547574656c6c75735969656c6452657761726460008201527f73746f6b656e3a207b66726f6d7d206973206166746572207b746f7d00000000602082015250565b7f416363657373436f6e74726f6c50726f78795061757361626c653a206163636f60008201527f756e742000000000000000000000000000000000000000000000000000000000602082015250565b7f5061757361626c653a206e6f7420706175736564000000000000000000000000600082015250565b7f547574656c6c75735946526577617264735661756c743a20616c6c6f6361746960008201527f6f6e2073756d206d757374206265206c6f776572207468616e20316532300000602082015250565b7f547574656c6c75735946526577617264735661756c743a20616c6c6f6361746960008201527f6f6e206172726179206d75737420686176652073616d65206c656e677468206160208201527f73206e756d626572206f66206163636f756e7473000000000000000000000000604082015250565b7f5061757361626c653a2070617573656400000000000000000000000000000000600082015250565b7f547574656c6c75735946526577617264735661756c743a20616d6f756e74206560008201527f78636565647320617661696c61626c6500000000000000000000000000000000602082015250565b7f206973206d697373696e6720726f6c6520000000000000000000000000000000600082015250565b6122f481611eb5565b81146122ff57600080fd5b50565b61230b81611ec7565b811461231657600080fd5b50565b61232281611ed3565b811461232d57600080fd5b50565b61233981611efd565b811461234457600080fd5b5056fea264697066735822122035f5acaffbce694d31a85abdb2d610843de7163d0fb7cfe946a9ab961f94858a64736f6c6343000802003360806040523480156200001157600080fd5b506040516200297638038062002976833981810160405281019062000037919062000786565b6200004982826200005160201b60201c565b5050620008be565b600060019054906101000a900460ff168062000078575060008054906101000a900460ff16155b620000ba576040517f08c379a0000000000000000000000000000000000000000000000000000000008152600401620000b190620007ee565b60405180910390fd5b60008060019054906101000a900460ff1615905080156200010b576001600060016101000a81548160ff02191690831515021790555060016000806101000a81548160ff0219169083151502179055505b6200011c836200015460201b60201c565b6200012d826200025560201b60201c565b80156200014f5760008060016101000a81548160ff0219169083151502179055505b505050565b600060019054906101000a900460ff16806200017b575060008054906101000a900460ff16155b620001bd576040517f08c379a0000000000000000000000000000000000000000000000000000000008152600401620001b490620007ee565b60405180910390fd5b60008060019054906101000a900460ff1615905080156200020e576001600060016101000a81548160ff02191690831515021790555060016000806101000a81548160ff0219169083151502179055505b6200021e6200037660201b60201c565b6200022f826200047560201b60201c565b8015620002515760008060016101000a81548160ff0219169083151502179055505b5050565b600060019054906101000a900460ff16806200027c575060008054906101000a900460ff16155b620002be576040517f08c379a0000000000000000000000000000000000000000000000000000000008152600401620002b590620007ee565b60405180910390fd5b60008060019054906101000a900460ff1615905080156200030f576001600060016101000a81548160ff02191690831515021790555060016000806101000a81548160ff0219169083151502179055505b81606660006101000a81548173ffffffffffffffffffffffffffffffffffffffff021916908373ffffffffffffffffffffffffffffffffffffffff1602179055508015620003725760008060016101000a81548160ff0219169083151502179055505b5050565b600060019054906101000a900460ff16806200039d575060008054906101000a900460ff16155b620003df576040517f08c379a0000000000000000000000000000000000000000000000000000000008152600401620003d690620007ee565b60405180910390fd5b60008060019054906101000a900460ff16159050801562000430576001600060016101000a81548160ff02191690831515021790555060016000806101000a81548160ff0219169083151502179055505b620004406200059660201b60201c565b620004506200067560201b60201c565b8015620004725760008060016101000a81548160ff0219169083151502179055505b50565b600060019054906101000a900460ff16806200049c575060008054906101000a900460ff16155b620004de576040517f08c379a0000000000000000000000000000000000000000000000000000000008152600401620004d590620007ee565b60405180910390fd5b60008060019054906101000a900460ff1615905080156200052f576001600060016101000a81548160ff02191690831515021790555060016000806101000a81548160ff0219169083151502179055505b81606560006101000a81548173ffffffffffffffffffffffffffffffffffffffff021916908373ffffffffffffffffffffffffffffffffffffffff1602179055508015620005925760008060016101000a81548160ff0219169083151502179055505b5050565b600060019054906101000a900460ff1680620005bd575060008054906101000a900460ff16155b620005ff576040517f08c379a0000000000000000000000000000000000000000000000000000000008152600401620005f690620007ee565b60405180910390fd5b60008060019054906101000a900460ff16159050801562000650576001600060016101000a81548160ff02191690831515021790555060016000806101000a81548160ff0219169083151502179055505b8015620006725760008060016101000a81548160ff0219169083151502179055505b50565b600060019054906101000a900460ff16806200069c575060008054906101000a900460ff16155b620006de576040517f08c379a0000000000000000000000000000000000000000000000000000000008152600401620006d590620007ee565b60405180910390fd5b60008060019054906101000a900460ff1615905080156200072f576001600060016101000a81548160ff02191690831515021790555060016000806101000a81548160ff0219169083151502179055505b6000603360006101000a81548160ff02191690831515021790555080156200076c5760008060016101000a81548160ff0219169083151502179055505b50565b6000815190506200078081620008a4565b92915050565b600080604083850312156200079a57600080fd5b6000620007aa858286016200076f565b9250506020620007bd858286016200076f565b9150509250929050565b6000620007d6602e8362000810565b9150620007e38262000855565b604082019050919050565b600060208201905081810360008301526200080981620007c7565b9050919050565b600082825260208201905092915050565b60006200082e8262000835565b9050919050565b600073ffffffffffffffffffffffffffffffffffffffff82169050919050565b7f496e697469616c697a61626c653a20636f6e747261637420697320616c72656160008201527f647920696e697469616c697a6564000000000000000000000000000000000000602082015250565b620008af8162000821565b8114620008bb57600080fd5b50565b6120a880620008ce6000396000f3fe608060405234801561001057600080fd5b50600436106100ea5760003560e01c806391d148541161008c578063e63ab1e911610066578063e63ab1e914610211578063eac989f81461022f578063f54b893b1461024d578063fc0c546a1461027d576100ea565b806391d14854146101a7578063a217fddf146101d7578063e48034b5146101f5576100ea565b8063510eff4c116100c8578063510eff4c1461013357806358aba00f146101635780635c975abb1461017f5780638456cb591461019d576100ea565b80632e7ba6ef146100ef5780632eb4a7ab1461010b5780633f4ba83a14610129575b600080fd5b61010960048036038101906101049190611558565b61029b565b005b610113610486565b604051610120919061193a565b60405180910390f35b61013161048c565b005b61014d60048036038101906101489190611558565b610602565b60405161015a9190611a70565b60405180910390f35b61017d60048036038101906101789190611476565b6106f9565b005b61018761088c565b604051610194919061191f565b60405180910390f35b6101a56108a3565b005b6101c160048036038101906101bc91906114c8565b610a19565b6040516101ce919061191f565b60405180910390f35b6101df610ad5565b6040516101ec919061193a565b60405180910390f35b61020f600480360381019061020a9190611504565b610adc565b005b610219610c89565b604051610226919061193a565b60405180910390f35b610237610cad565b60405161024491906119ae565b60405180910390f35b61026760048036038101906102629190611476565b610d3b565b6040516102749190611a70565b60405180910390f35b610285610d84565b60405161029291906118db565b60405180910390f35b6102a361088c565b156102e3576040517f08c379a00000000000000000000000000000000000000000000000000000000081526004016102da90611a10565b60405180910390fd5b60006102f28686868686610602565b905060008111610337576040517f08c379a000000000000000000000000000000000000000000000000000000000815260040161032e90611a50565b60405180910390fd5b80606960008773ffffffffffffffffffffffffffffffffffffffff1673ffffffffffffffffffffffffffffffffffffffff16815260200190815260200160002060008282546103869190611b54565b925050819055506000606660009054906101000a900473ffffffffffffffffffffffffffffffffffffffff1690508073ffffffffffffffffffffffffffffffffffffffff1663a9059cbb87876040518363ffffffff1660e01b81526004016103ef9291906118f6565b602060405180830381600087803b15801561040957600080fd5b505af115801561041d573d6000803e3d6000fd5b505050506040513d601f19601f82011682018060405250810190610441919061149f565b507f4ec90e965519d92681267467f775ada5bd214aa92c0dc93d90a5e880ce9ed02687878460405161047593929190611a8b565b60405180910390a150505050505050565b60675481565b7f65d7a28e3265b37a6474929f336521b332c1681b933f6cb9f3376673440d862a6000606560009054906101000a900473ffffffffffffffffffffffffffffffffffffffff16905060003390508173ffffffffffffffffffffffffffffffffffffffff166391d1485484836040518363ffffffff1660e01b8152600401610514929190611955565b60206040518083038186803b15801561052c57600080fd5b505afa158015610540573d6000803e3d6000fd5b505050506040513d601f19601f82011682018060405250810190610564919061149f565b6105858273ffffffffffffffffffffffffffffffffffffffff166014610daa565b6105938560001c6020610daa565b6040516020016105a4929190611864565b604051602081830303815290604052906105f4576040517f08c379a00000000000000000000000000000000000000000000000000000000081526004016105eb91906119ae565b60405180910390fd5b506105fd6110a4565b505050565b60008086868660405160200161061a9392919061189e565b604051602081830303815290604052805190602001209050610680848480806020026020016040519081016040528093929190818152602001838360200280828437600081840152601f19601f8201169050808301925050505050505060675483611146565b6106bf576040517f08c379a00000000000000000000000000000000000000000000000000000000081526004016106b690611a30565b60405180910390fd5b60006106ca87610d3b565b9050808611156106e95780866106e09190611c04565b925050506106f0565b6000925050505b95945050505050565b6000801b6000606560009054906101000a900473ffffffffffffffffffffffffffffffffffffffff16905060003390508173ffffffffffffffffffffffffffffffffffffffff166391d1485484836040518363ffffffff1660e01b8152600401610764929190611955565b60206040518083038186803b15801561077c57600080fd5b505afa158015610790573d6000803e3d6000fd5b505050506040513d601f19601f820116820180604052508101906107b4919061149f565b6107d58273ffffffffffffffffffffffffffffffffffffffff166014610daa565b6107e38560001c6020610daa565b6040516020016107f4929190611864565b60405160208183030381529060405290610844576040517f08c379a000000000000000000000000000000000000000000000000000000000815260040161083b91906119ae565b60405180910390fd5b5083606560006101000a81548173ffffffffffffffffffffffffffffffffffffffff021916908373ffffffffffffffffffffffffffffffffffffffff16021790555050505050565b6000603360009054906101000a900460ff16905090565b7f65d7a28e3265b37a6474929f336521b332c1681b933f6cb9f3376673440d862a6000606560009054906101000a900473ffffffffffffffffffffffffffffffffffffffff16905060003390508173ffffffffffffffffffffffffffffffffffffffff166391d1485484836040518363ffffffff1660e01b815260040161092b929190611955565b60206040518083038186803b15801561094357600080fd5b505afa158015610957573d6000803e3d6000fd5b505050506040513d601f19601f8201168201806040525081019061097b919061149f565b61099c8273ffffffffffffffffffffffffffffffffffffffff166014610daa565b6109aa8560001c6020610daa565b6040516020016109bb929190611864565b60405160208183030381529060405290610a0b576040517f08c379a0000000000000000000000000000000000000000000000000000000008152600401610a0291906119ae565b60405180910390fd5b50610a14611222565b505050565b600080606560009054906101000a900473ffffffffffffffffffffffffffffffffffffffff1690508073ffffffffffffffffffffffffffffffffffffffff166391d1485485856040518363ffffffff1660e01b8152600401610a7c929190611955565b60206040518083038186803b158015610a9457600080fd5b505afa158015610aa8573d6000803e3d6000fd5b505050506040513d601f19601f82011682018060405250810190610acc919061149f565b91505092915050565b6000801b81565b6000801b6000606560009054906101000a900473ffffffffffffffffffffffffffffffffffffffff16905060003390508173ffffffffffffffffffffffffffffffffffffffff166391d1485484836040518363ffffffff1660e01b8152600401610b47929190611955565b60206040518083038186803b158015610b5f57600080fd5b505afa158015610b73573d6000803e3d6000fd5b505050506040513d601f19601f82011682018060405250810190610b97919061149f565b610bb88273ffffffffffffffffffffffffffffffffffffffff166014610daa565b610bc68560001c6020610daa565b604051602001610bd7929190611864565b60405160208183030381529060405290610c27576040517f08c379a0000000000000000000000000000000000000000000000000000000008152600401610c1e91906119ae565b60405180910390fd5b50846067819055508360689080519060200190610c459291906112cd565b507fdc6ef77e1e729c09277287d1224cc0b4fd2053bbcca61a8febb80e46180324786067546068604051610c7a92919061197e565b60405180910390a15050505050565b7f65d7a28e3265b37a6474929f336521b332c1681b933f6cb9f3376673440d862a81565b60688054610cba90611cf6565b80601f0160208091040260200160405190810160405280929190818152602001828054610ce690611cf6565b8015610d335780601f10610d0857610100808354040283529160200191610d33565b820191906000526020600020905b815481529060010190602001808311610d1657829003601f168201915b505050505081565b6000606960008373ffffffffffffffffffffffffffffffffffffffff1673ffffffffffffffffffffffffffffffffffffffff168152602001908152602001600020549050919050565b606660009054906101000a900473ffffffffffffffffffffffffffffffffffffffff1681565b606060006002836002610dbd9190611baa565b610dc79190611b54565b67ffffffffffffffff811115610e06577f4e487b7100000000000000000000000000000000000000000000000000000000600052604160045260246000fd5b6040519080825280601f01601f191660200182016040528015610e385781602001600182028036833780820191505090505b5090507f300000000000000000000000000000000000000000000000000000000000000081600081518110610e96577f4e487b7100000000000000000000000000000000000000000000000000000000600052603260045260246000fd5b60200101907effffffffffffffffffffffffffffffffffffffffffffffffffffffffffffff1916908160001a9053507f780000000000000000000000000000000000000000000000000000000000000081600181518110610f20577f4e487b7100000000000000000000000000000000000000000000000000000000600052603260045260246000fd5b60200101907effffffffffffffffffffffffffffffffffffffffffffffffffffffffffffff1916908160001a90535060006001846002610f609190611baa565b610f6a9190611b54565b90505b6001811115611056577f3031323334353637383961626364656600000000000000000000000000000000600f861660108110610fd2577f4e487b7100000000000000000000000000000000000000000000000000000000600052603260045260246000fd5b1a60f81b82828151811061100f577f4e487b7100000000000000000000000000000000000000000000000000000000600052603260045260246000fd5b60200101907effffffffffffffffffffffffffffffffffffffffffffffffffffffffffffff1916908160001a905350600485901c94508061104f90611ccc565b9050610f6d565b506000841461109a576040517f08c379a0000000000000000000000000000000000000000000000000000000008152600401611091906119d0565b60405180910390fd5b8091505092915050565b6110ac61088c565b6110eb576040517f08c379a00000000000000000000000000000000000000000000000000000000081526004016110e2906119f0565b60405180910390fd5b6000603360006101000a81548160ff0219169083151502179055507f5db9ee0a495bf2e6ff9c91a7834c1ba4fdd244a5e8aa4e537bd38aeae4b073aa61112f6112c5565b60405161113c91906118db565b60405180910390a1565b60008082905060005b8551811015611214576000868281518110611193577f4e487b7100000000000000000000000000000000000000000000000000000000600052603260045260246000fd5b602002602001015190508083116111d45782816040516020016111b7929190611838565b604051602081830303815290604052805190602001209250611200565b80836040516020016111e7929190611838565b6040516020818303038152906040528051906020012092505b50808061120c90611d59565b91505061114f565b508381149150509392505050565b61122a61088c565b1561126a576040517f08c379a000000000000000000000000000000000000000000000000000000000815260040161126190611a10565b60405180910390fd5b6001603360006101000a81548160ff0219169083151502179055507f62e78cea01bee320cd4e420270b5ea74000d11b0c9f74754ebdbfc544b05a2586112ae6112c5565b6040516112bb91906118db565b60405180910390a1565b600033905090565b8280546112d990611cf6565b90600052602060002090601f0160209004810192826112fb5760008555611342565b82601f1061131457805160ff1916838001178555611342565b82800160010185558215611342579182015b82811115611341578251825591602001919060010190611326565b5b50905061134f9190611353565b5090565b5b8082111561136c576000816000905550600101611354565b5090565b600061138361137e84611ae7565b611ac2565b90508281526020810184848401111561139b57600080fd5b6113a6848285611c8a565b509392505050565b6000813590506113bd81612016565b92915050565b60008083601f8401126113d557600080fd5b8235905067ffffffffffffffff8111156113ee57600080fd5b60208301915083602082028301111561140657600080fd5b9250929050565b60008151905061141c8161202d565b92915050565b60008135905061143181612044565b92915050565b600082601f83011261144857600080fd5b8135611458848260208601611370565b91505092915050565b6000813590506114708161205b565b92915050565b60006020828403121561148857600080fd5b6000611496848285016113ae565b91505092915050565b6000602082840312156114b157600080fd5b60006114bf8482850161140d565b91505092915050565b600080604083850312156114db57600080fd5b60006114e985828601611422565b92505060206114fa858286016113ae565b9150509250929050565b6000806040838503121561151757600080fd5b600061152585828601611422565b925050602083013567ffffffffffffffff81111561154257600080fd5b61154e85828601611437565b9150509250929050565b60008060008060006080868803121561157057600080fd5b600061157e88828901611461565b955050602061158f888289016113ae565b94505060406115a088828901611461565b935050606086013567ffffffffffffffff8111156115bd57600080fd5b6115c9888289016113c3565b92509250509295509295909350565b6115e181611c38565b82525050565b6115f86115f382611c38565b611da2565b82525050565b61160781611c4a565b82525050565b61161681611c56565b82525050565b61162d61162882611c56565b611db4565b82525050565b600061163e82611b2d565b6116488185611b38565b9350611658818560208601611c99565b61166181611e67565b840191505092915050565b600061167782611b2d565b6116818185611b49565b9350611691818560208601611c99565b80840191505092915050565b600081546116aa81611cf6565b6116b48186611b38565b945060018216600081146116cf57600181146116e157611714565b60ff1983168652602086019350611714565b6116ea85611b18565b60005b8381101561170c578154818901526001820191506020810190506116ed565b808801955050505b50505092915050565b600061172a602083611b38565b915061173582611e85565b602082019050919050565b600061174d602483611b49565b915061175882611eae565b602482019050919050565b6000611770601483611b38565b915061177b82611efd565b602082019050919050565b6000611793601083611b38565b915061179e82611f26565b602082019050919050565b60006117b6602b83611b38565b91506117c182611f4f565b604082019050919050565b60006117d9602e83611b38565b91506117e482611f9e565b604082019050919050565b60006117fc601183611b49565b915061180782611fed565b601182019050919050565b61181b81611c80565b82525050565b61183261182d82611c80565b611dd0565b82525050565b6000611844828561161c565b602082019150611854828461161c565b6020820191508190509392505050565b600061186f82611740565b915061187b828561166c565b9150611886826117ef565b9150611892828461166c565b91508190509392505050565b60006118aa8286611821565b6020820191506118ba82856115e7565b6014820191506118ca8284611821565b602082019150819050949350505050565b60006020820190506118f060008301846115d8565b92915050565b600060408201905061190b60008301856115d8565b6119186020830184611812565b9392505050565b600060208201905061193460008301846115fe565b92915050565b600060208201905061194f600083018461160d565b92915050565b600060408201905061196a600083018561160d565b61197760208301846115d8565b9392505050565b6000604082019050611993600083018561160d565b81810360208301526119a5818461169d565b90509392505050565b600060208201905081810360008301526119c88184611633565b905092915050565b600060208201905081810360008301526119e98161171d565b9050919050565b60006020820190508181036000830152611a0981611763565b9050919050565b60006020820190508181036000830152611a2981611786565b9050919050565b60006020820190508181036000830152611a49816117a9565b9050919050565b60006020820190508181036000830152611a69816117cc565b9050919050565b6000602082019050611a856000830184611812565b92915050565b6000606082019050611aa06000830186611812565b611aad60208301856115d8565b611aba6040830184611812565b949350505050565b6000611acc611add565b9050611ad88282611d28565b919050565b6000604051905090565b600067ffffffffffffffff821115611b0257611b01611e38565b5b611b0b82611e67565b9050602081019050919050565b60008190508160005260206000209050919050565b600081519050919050565b600082825260208201905092915050565b600081905092915050565b6000611b5f82611c80565b9150611b6a83611c80565b9250827fffffffffffffffffffffffffffffffffffffffffffffffffffffffffffffffff03821115611b9f57611b9e611dda565b5b828201905092915050565b6000611bb582611c80565b9150611bc083611c80565b9250817fffffffffffffffffffffffffffffffffffffffffffffffffffffffffffffffff0483118215151615611bf957611bf8611dda565b5b828202905092915050565b6000611c0f82611c80565b9150611c1a83611c80565b925082821015611c2d57611c2c611dda565b5b828203905092915050565b6000611c4382611c60565b9050919050565b60008115159050919050565b6000819050919050565b600073ffffffffffffffffffffffffffffffffffffffff82169050919050565b6000819050919050565b82818337600083830152505050565b60005b83811015611cb7578082015181840152602081019050611c9c565b83811115611cc6576000848401525b50505050565b6000611cd782611c80565b91506000821415611ceb57611cea611dda565b5b600182039050919050565b60006002820490506001821680611d0e57607f821691505b60208210811415611d2257611d21611e09565b5b50919050565b611d3182611e67565b810181811067ffffffffffffffff82111715611d5057611d4f611e38565b5b80604052505050565b6000611d6482611c80565b91507fffffffffffffffffffffffffffffffffffffffffffffffffffffffffffffffff821415611d9757611d96611dda565b5b600182019050919050565b6000611dad82611dbe565b9050919050565b6000819050919050565b6000611dc982611e78565b9050919050565b6000819050919050565b7f4e487b7100000000000000000000000000000000000000000000000000000000600052601160045260246000fd5b7f4e487b7100000000000000000000000000000000000000000000000000000000600052602260045260246000fd5b7f4e487b7100000000000000000000000000000000000000000000000000000000600052604160045260246000fd5b6000601f19601f8301169050919050565b60008160601b9050919050565b7f537472696e67733a20686578206c656e67746820696e73756666696369656e74600082015250565b7f416363657373436f6e74726f6c50726f78795061757361626c653a206163636f60008201527f756e742000000000000000000000000000000000000000000000000000000000602082015250565b7f5061757361626c653a206e6f7420706175736564000000000000000000000000600082015250565b7f5061757361626c653a2070617573656400000000000000000000000000000000600082015250565b7f4d65726b6c654469737472696275746f7255706461746561626c653a20496e7660008201527f616c69642070726f6f662e000000000000000000000000000000000000000000602082015250565b7f4d65726b6c654469737472696275746f7255706461746561626c653a204e6f7460008201527f68696e6720746f20636c61696d2e000000000000000000000000000000000000602082015250565b7f206973206d697373696e6720726f6c6520000000000000000000000000000000600082015250565b61201f81611c38565b811461202a57600080fd5b50565b61203681611c4a565b811461204157600080fd5b50565b61204d81611c56565b811461205857600080fd5b50565b61206481611c80565b811461206f57600080fd5b5056fea2646970667358221220c3a2713bd48bca360d9b25678d3b60eb1a152f7e4a0f720fe1cfec019397672b64736f6c6343000802003360806040523480156200001157600080fd5b50604051620028c6380380620028c6833981810160405281019062000037919062000838565b6200004c85858585856200005760201b60201c565b505050505062000cdb565b600060019054906101000a900460ff16806200007e575060008054906101000a900460ff16155b620000c0576040517f08c379a0000000000000000000000000000000000000000000000000000000008152600401620000b790620008e1565b60405180910390fd5b60008060019054906101000a900460ff16159050801562000111576001600060016101000a81548160ff02191690831515021790555060016000806101000a81548160ff0219169083151502179055505b62000122866200016060201b60201c565b62000136858585856200026160201b60201c565b8015620001585760008060016101000a81548160ff0219169083151502179055505b505050505050565b600060019054906101000a900460ff168062000187575060008054906101000a900460ff16155b620001c9576040517f08c379a0000000000000000000000000000000000000000000000000000000008152600401620001c090620008e1565b60405180910390fd5b60008060019054906101000a900460ff1615905080156200021a576001600060016101000a81548160ff02191690831515021790555060016000806101000a81548160ff0219169083151502179055505b6200022a6200041160201b60201c565b6200023b826200051060201b60201c565b80156200025d5760008060016101000a81548160ff0219169083151502179055505b5050565b600060019054906101000a900460ff168062000288575060008054906101000a900460ff16155b620002ca576040517f08c379a0000000000000000000000000000000000000000000000000000000008152600401620002c190620008e1565b60405180910390fd5b60008060019054906101000a900460ff1615905080156200031b576001600060016101000a81548160ff02191690831515021790555060016000806101000a81548160ff0219169083151502179055505b83606660006101000a81548173ffffffffffffffffffffffffffffffffffffffff021916908373ffffffffffffffffffffffffffffffffffffffff16021790555084606760006101000a81548173ffffffffffffffffffffffffffffffffffffffff021916908373ffffffffffffffffffffffffffffffffffffffff160217905550436069819055508143620003b2919062000914565b606a81905550600282620003c7919062000a04565b836002620003d6919062000b41565b620003e2919062000971565b606b8190555080156200040a5760008060016101000a81548160ff0219169083151502179055505b5050505050565b600060019054906101000a900460ff168062000438575060008054906101000a900460ff16155b6200047a576040517f08c379a00000000000000000000000000000000000000000000000000000000081526004016200047190620008e1565b60405180910390fd5b60008060019054906101000a900460ff161590508015620004cb576001600060016101000a81548160ff02191690831515021790555060016000806101000a81548160ff0219169083151502179055505b620004db6200063160201b60201c565b620004eb6200071060201b60201c565b80156200050d5760008060016101000a81548160ff0219169083151502179055505b50565b600060019054906101000a900460ff168062000537575060008054906101000a900460ff16155b62000579576040517f08c379a00000000000000000000000000000000000000000000000000000000081526004016200057090620008e1565b60405180910390fd5b60008060019054906101000a900460ff161590508015620005ca576001600060016101000a81548160ff02191690831515021790555060016000806101000a81548160ff0219169083151502179055505b81606560006101000a81548173ffffffffffffffffffffffffffffffffffffffff021916908373ffffffffffffffffffffffffffffffffffffffff16021790555080156200062d5760008060016101000a81548160ff0219169083151502179055505b5050565b600060019054906101000a900460ff168062000658575060008054906101000a900460ff16155b6200069a576040517f08c379a00000000000000000000000000000000000000000000000000000000081526004016200069190620008e1565b60405180910390fd5b60008060019054906101000a900460ff161590508015620006eb576001600060016101000a81548160ff02191690831515021790555060016000806101000a81548160ff0219169083151502179055505b80156200070d5760008060016101000a81548160ff0219169083151502179055505b50565b600060019054906101000a900460ff168062000737575060008054906101000a900460ff16155b62000779576040517f08c379a00000000000000000000000000000000000000000000000000000000081526004016200077090620008e1565b60405180910390fd5b60008060019054906101000a900460ff161590508015620007ca576001600060016101000a81548160ff02191690831515021790555060016000806101000a81548160ff0219169083151502179055505b6000603360006101000a81548160ff0219169083151502179055508015620008075760008060016101000a81548160ff0219169083151502179055505b50565b6000815190506200081b8162000ca7565b92915050565b600081519050620008328162000cc1565b92915050565b600080600080600060a086880312156200085157600080fd5b600062000861888289016200080a565b955050602062000874888289016200080a565b945050604062000887888289016200080a565b93505060606200089a8882890162000821565b9250506080620008ad8882890162000821565b9150509295509295909350565b6000620008c9602e8362000903565b9150620008d68262000c58565b604082019050919050565b60006020820190508181036000830152620008fc81620008ba565b9050919050565b600082825260208201905092915050565b6000620009218262000bd6565b91506200092e8362000bd6565b9250827fffffffffffffffffffffffffffffffffffffffffffffffffffffffffffffffff0382111562000966576200096562000bed565b5b828201905092915050565b60006200097e8262000bd6565b91506200098b8362000bd6565b9250826200099e576200099d62000c1c565b5b828204905092915050565b6000808291508390505b6001851115620009fb57808604811115620009d357620009d262000bed565b5b6001851615620009e35780820291505b8081029050620009f38562000c4b565b9450620009b3565b94509492505050565b600062000a118262000bd6565b915062000a1e8362000be0565b925062000a4d7fffffffffffffffffffffffffffffffffffffffffffffffffffffffffffffffff848462000a55565b905092915050565b60008262000a67576001905062000b3a565b8162000a77576000905062000b3a565b816001811462000a90576002811462000a9b5762000ad1565b600191505062000b3a565b60ff84111562000ab05762000aaf62000bed565b5b8360020a91508482111562000aca5762000ac962000bed565b5b5062000b3a565b5060208310610133831016604e8410600b841016171562000b0b5782820a90508381111562000b055762000b0462000bed565b5b62000b3a565b62000b1a8484846001620009a9565b9250905081840481111562000b345762000b3362000bed565b5b81810290505b9392505050565b600062000b4e8262000bd6565b915062000b5b8362000bd6565b9250817fffffffffffffffffffffffffffffffffffffffffffffffffffffffffffffffff048311821515161562000b975762000b9662000bed565b5b828202905092915050565b600062000baf8262000bb6565b9050919050565b600073ffffffffffffffffffffffffffffffffffffffff82169050919050565b6000819050919050565b600060ff82169050919050565b7f4e487b7100000000000000000000000000000000000000000000000000000000600052601160045260246000fd5b7f4e487b7100000000000000000000000000000000000000000000000000000000600052601260045260246000fd5b60008160011c9050919050565b7f496e697469616c697a61626c653a20636f6e747261637420697320616c72656160008201527f647920696e697469616c697a6564000000000000000000000000000000000000602082015250565b62000cb28162000ba2565b811462000cbe57600080fd5b50565b62000ccc8162000bd6565b811462000cd857600080fd5b50565b611bdb8062000ceb6000396000f3fe608060405234801561001057600080fd5b50600436106100cf5760003560e01c80637f51bb1f1161008c578063961325211161006657806396132521146101c6578063a217fddf146101e4578063e63ab1e914610202578063fc0c546a14610220576100cf565b80637f51bb1f146101705780638456cb591461018c57806391d1485414610196576100cf565b80633f4ba83a146100d45780634e71d92d146100de57806358aba00f146100e85780635c975abb1461010457806361d027b3146101225780636867aac514610140575b600080fd5b6100dc61023e565b005b6100e66103b4565b005b61010260048036038101906100fd91906111b4565b61063a565b005b61010c6107cd565b6040516101199190611497565b60405180910390f35b61012a6107e4565b6040516101379190611453565b60405180910390f35b61015a60048036038101906101559190611242565b61080a565b60405161016791906115b8565b60405180910390f35b61018a600480360381019061018591906111b4565b6108f0565b005b610194610a83565b005b6101b060048036038101906101ab9190611206565b610bf9565b6040516101bd9190611497565b60405180910390f35b6101ce610cb5565b6040516101db91906115b8565b60405180910390f35b6101ec610cc8565b6040516101f991906114b2565b60405180910390f35b61020a610ccf565b60405161021791906114b2565b60405180910390f35b610228610cf3565b6040516102359190611453565b60405180910390f35b7f65d7a28e3265b37a6474929f336521b332c1681b933f6cb9f3376673440d862a6000606560009054906101000a900473ffffffffffffffffffffffffffffffffffffffff16905060003390508173ffffffffffffffffffffffffffffffffffffffff166391d1485484836040518363ffffffff1660e01b81526004016102c69291906114cd565b60206040518083038186803b1580156102de57600080fd5b505afa1580156102f2573d6000803e3d6000fd5b505050506040513d601f19601f8201168201806040525081019061031691906111dd565b6103378273ffffffffffffffffffffffffffffffffffffffff166014610d19565b6103458560001c6020610d19565b604051602001610356929190611419565b604051602081830303815290604052906103a6576040517f08c379a000000000000000000000000000000000000000000000000000000000815260040161039d91906114f6565b60405180910390fd5b506103af611013565b505050565b6000801b6000606560009054906101000a900473ffffffffffffffffffffffffffffffffffffffff16905060003390508173ffffffffffffffffffffffffffffffffffffffff166391d1485484836040518363ffffffff1660e01b815260040161041f9291906114cd565b60206040518083038186803b15801561043757600080fd5b505afa15801561044b573d6000803e3d6000fd5b505050506040513d601f19601f8201168201806040525081019061046f91906111dd565b6104908273ffffffffffffffffffffffffffffffffffffffff166014610d19565b61049e8560001c6020610d19565b6040516020016104af929190611419565b604051602081830303815290604052906104ff576040517f08c379a00000000000000000000000000000000000000000000000000000000081526004016104f691906114f6565b60405180910390fd5b50600060685461050d610cb5565b610517919061184c565b90506000811161055c576040517f08c379a000000000000000000000000000000000000000000000000000000000815260040161055390611598565b60405180910390fd5b6000606660009054906101000a900473ffffffffffffffffffffffffffffffffffffffff1690508073ffffffffffffffffffffffffffffffffffffffff1663a9059cbb606760009054906101000a900473ffffffffffffffffffffffffffffffffffffffff16846040518363ffffffff1660e01b81526004016105e092919061146e565b602060405180830381600087803b1580156105fa57600080fd5b505af115801561060e573d6000803e3d6000fd5b505050506040513d601f19601f8201168201806040525081019061063291906111dd565b505050505050565b6000801b6000606560009054906101000a900473ffffffffffffffffffffffffffffffffffffffff16905060003390508173ffffffffffffffffffffffffffffffffffffffff166391d1485484836040518363ffffffff1660e01b81526004016106a59291906114cd565b60206040518083038186803b1580156106bd57600080fd5b505afa1580156106d1573d6000803e3d6000fd5b505050506040513d601f19601f820116820180604052508101906106f591906111dd565b6107168273ffffffffffffffffffffffffffffffffffffffff166014610d19565b6107248560001c6020610d19565b604051602001610735929190611419565b60405160208183030381529060405290610785576040517f08c379a000000000000000000000000000000000000000000000000000000000815260040161077c91906114f6565b60405180910390fd5b5083606560006101000a81548173ffffffffffffffffffffffffffffffffffffffff021916908373ffffffffffffffffffffffffffffffffffffffff16021790555050505050565b6000603360009054906101000a900460ff16905090565b606760009054906101000a900473ffffffffffffffffffffffffffffffffffffffff1681565b600081831061084e576040517f08c379a000000000000000000000000000000000000000000000000000000000815260040161084590611538565b60405180910390fd5b606a5482111561085e57606a5491505b60695483101561086e5760695492505b600060028060695485610881919061184c565b61088b91906116d4565b606b5461089891906117f2565b6108a29190611650565b90506000600280606954876108b7919061184c565b6108c191906116d4565b606b546108ce91906117f2565b6108d89190611650565b905080826108e6919061184c565b9250505092915050565b6000801b6000606560009054906101000a900473ffffffffffffffffffffffffffffffffffffffff16905060003390508173ffffffffffffffffffffffffffffffffffffffff166391d1485484836040518363ffffffff1660e01b815260040161095b9291906114cd565b60206040518083038186803b15801561097357600080fd5b505afa158015610987573d6000803e3d6000fd5b505050506040513d601f19601f820116820180604052508101906109ab91906111dd565b6109cc8273ffffffffffffffffffffffffffffffffffffffff166014610d19565b6109da8560001c6020610d19565b6040516020016109eb929190611419565b60405160208183030381529060405290610a3b576040517f08c379a0000000000000000000000000000000000000000000000000000000008152600401610a3291906114f6565b60405180910390fd5b5083606760006101000a81548173ffffffffffffffffffffffffffffffffffffffff021916908373ffffffffffffffffffffffffffffffffffffffff16021790555050505050565b7f65d7a28e3265b37a6474929f336521b332c1681b933f6cb9f3376673440d862a6000606560009054906101000a900473ffffffffffffffffffffffffffffffffffffffff16905060003390508173ffffffffffffffffffffffffffffffffffffffff166391d1485484836040518363ffffffff1660e01b8152600401610b0b9291906114cd565b60206040518083038186803b158015610b2357600080fd5b505afa158015610b37573d6000803e3d6000fd5b505050506040513d601f19601f82011682018060405250810190610b5b91906111dd565b610b7c8273ffffffffffffffffffffffffffffffffffffffff166014610d19565b610b8a8560001c6020610d19565b604051602001610b9b929190611419565b60405160208183030381529060405290610beb576040517f08c379a0000000000000000000000000000000000000000000000000000000008152600401610be291906114f6565b60405180910390fd5b50610bf46110b5565b505050565b600080606560009054906101000a900473ffffffffffffffffffffffffffffffffffffffff1690508073ffffffffffffffffffffffffffffffffffffffff166391d1485485856040518363ffffffff1660e01b8152600401610c5c9291906114cd565b60206040518083038186803b158015610c7457600080fd5b505afa158015610c88573d6000803e3d6000fd5b505050506040513d601f19601f82011682018060405250810190610cac91906111dd565b91505092915050565b6000610cc34360695461080a565b905090565b6000801b81565b7f65d7a28e3265b37a6474929f336521b332c1681b933f6cb9f3376673440d862a81565b606660009054906101000a900473ffffffffffffffffffffffffffffffffffffffff1681565b606060006002836002610d2c91906117f2565b610d3691906115fa565b67ffffffffffffffff811115610d75577f4e487b7100000000000000000000000000000000000000000000000000000000600052604160045260246000fd5b6040519080825280601f01601f191660200182016040528015610da75781602001600182028036833780820191505090505b5090507f300000000000000000000000000000000000000000000000000000000000000081600081518110610e05577f4e487b7100000000000000000000000000000000000000000000000000000000600052603260045260246000fd5b60200101907effffffffffffffffffffffffffffffffffffffffffffffffffffffffffffff1916908160001a9053507f780000000000000000000000000000000000000000000000000000000000000081600181518110610e8f577f4e487b7100000000000000000000000000000000000000000000000000000000600052603260045260246000fd5b60200101907effffffffffffffffffffffffffffffffffffffffffffffffffffffffffffff1916908160001a90535060006001846002610ecf91906117f2565b610ed991906115fa565b90505b6001811115610fc5577f3031323334353637383961626364656600000000000000000000000000000000600f861660108110610f41577f4e487b7100000000000000000000000000000000000000000000000000000000600052603260045260246000fd5b1a60f81b828281518110610f7e577f4e487b7100000000000000000000000000000000000000000000000000000000600052603260045260246000fd5b60200101907effffffffffffffffffffffffffffffffffffffffffffffffffffffffffffff1916908160001a905350600485901c945080610fbe90611912565b9050610edc565b5060008414611009576040517f08c379a000000000000000000000000000000000000000000000000000000000815260040161100090611518565b60405180910390fd5b8091505092915050565b61101b6107cd565b61105a576040517f08c379a000000000000000000000000000000000000000000000000000000000815260040161105190611558565b60405180910390fd5b6000603360006101000a81548160ff0219169083151502179055507f5db9ee0a495bf2e6ff9c91a7834c1ba4fdd244a5e8aa4e537bd38aeae4b073aa61109e611158565b6040516110ab9190611453565b60405180910390a1565b6110bd6107cd565b156110fd576040517f08c379a00000000000000000000000000000000000000000000000000000000081526004016110f490611578565b60405180910390fd5b6001603360006101000a81548160ff0219169083151502179055507f62e78cea01bee320cd4e420270b5ea74000d11b0c9f74754ebdbfc544b05a258611141611158565b60405161114e9190611453565b60405180910390a1565b600033905090565b60008135905061116f81611b49565b92915050565b60008151905061118481611b60565b92915050565b60008135905061119981611b77565b92915050565b6000813590506111ae81611b8e565b92915050565b6000602082840312156111c657600080fd5b60006111d484828501611160565b91505092915050565b6000602082840312156111ef57600080fd5b60006111fd84828501611175565b91505092915050565b6000806040838503121561121957600080fd5b60006112278582860161118a565b925050602061123885828601611160565b9150509250929050565b6000806040838503121561125557600080fd5b60006112638582860161119f565b92505060206112748582860161119f565b9150509250929050565b61128781611880565b82525050565b61129681611892565b82525050565b6112a58161189e565b82525050565b60006112b6826115d3565b6112c081856115de565b93506112d08185602086016118df565b6112d98161199a565b840191505092915050565b60006112ef826115d3565b6112f981856115ef565b93506113098185602086016118df565b80840191505092915050565b60006113226020836115de565b915061132d826119b8565b602082019050919050565b6000611345603c836115de565b9150611350826119e1565b604082019050919050565b60006113686024836115ef565b915061137382611a30565b602482019050919050565b600061138b6014836115de565b915061139682611a7f565b602082019050919050565b60006113ae6010836115de565b91506113b982611aa8565b602082019050919050565b60006113d16027836115de565b91506113dc82611ad1565b604082019050919050565b60006113f46011836115ef565b91506113ff82611b20565b601182019050919050565b611413816118c8565b82525050565b60006114248261135b565b915061143082856112e4565b915061143b826113e7565b915061144782846112e4565b91508190509392505050565b6000602082019050611468600083018461127e565b92915050565b6000604082019050611483600083018561127e565b611490602083018461140a565b9392505050565b60006020820190506114ac600083018461128d565b92915050565b60006020820190506114c7600083018461129c565b92915050565b60006040820190506114e2600083018561129c565b6114ef602083018461127e565b9392505050565b6000602082019050818103600083015261151081846112ab565b905092915050565b6000602082019050818103600083015261153181611315565b9050919050565b6000602082019050818103600083015261155181611338565b9050919050565b600060208201905081810360008301526115718161137e565b9050919050565b60006020820190508181036000830152611591816113a1565b9050919050565b600060208201905081810360008301526115b1816113c4565b9050919050565b60006020820190506115cd600083018461140a565b92915050565b600081519050919050565b600082825260208201905092915050565b600081905092915050565b6000611605826118c8565b9150611610836118c8565b9250827fffffffffffffffffffffffffffffffffffffffffffffffffffffffffffffffff038211156116455761164461193c565b5b828201905092915050565b600061165b826118c8565b9150611666836118c8565b9250826116765761167561196b565b5b828204905092915050565b6000808291508390505b60018511156116cb578086048111156116a7576116a661193c565b5b60018516156116b65780820291505b80810290506116c4856119ab565b945061168b565b94509492505050565b60006116df826118c8565b91506116ea836118d2565b92506117177fffffffffffffffffffffffffffffffffffffffffffffffffffffffffffffffff848461171f565b905092915050565b60008261172f57600190506117eb565b8161173d57600090506117eb565b8160018114611753576002811461175d5761178c565b60019150506117eb565b60ff84111561176f5761176e61193c565b5b8360020a9150848211156117865761178561193c565b5b506117eb565b5060208310610133831016604e8410600b84101617156117c15782820a9050838111156117bc576117bb61193c565b5b6117eb565b6117ce8484846001611681565b925090508184048111156117e5576117e461193c565b5b81810290505b9392505050565b60006117fd826118c8565b9150611808836118c8565b9250817fffffffffffffffffffffffffffffffffffffffffffffffffffffffffffffffff04831182151516156118415761184061193c565b5b828202905092915050565b6000611857826118c8565b9150611862836118c8565b9250828210156118755761187461193c565b5b828203905092915050565b600061188b826118a8565b9050919050565b60008115159050919050565b6000819050919050565b600073ffffffffffffffffffffffffffffffffffffffff82169050919050565b6000819050919050565b600060ff82169050919050565b60005b838110156118fd5780820151818401526020810190506118e2565b8381111561190c576000848401525b50505050565b600061191d826118c8565b915060008214156119315761193061193c565b5b600182039050919050565b7f4e487b7100000000000000000000000000000000000000000000000000000000600052601160045260246000fd5b7f4e487b7100000000000000000000000000000000000000000000000000000000600052601260045260246000fd5b6000601f19601f8301169050919050565b60008160011c9050919050565b7f537472696e67733a20686578206c656e67746820696e73756666696369656e74600082015250565b7f547574656c6c75735969656c64547574656c6c75735969656c6452657761726460008201527f73746f6b656e3a207b66726f6d7d206973206166746572207b746f7d00000000602082015250565b7f416363657373436f6e74726f6c50726f78795061757361626c653a206163636f60008201527f756e742000000000000000000000000000000000000000000000000000000000602082015250565b7f5061757361626c653a206e6f7420706175736564000000000000000000000000600082015250565b7f5061757361626c653a2070617573656400000000000000000000000000000000600082015250565b7f547574656c6c757354726561737572795661756c743a206e6f7468696e67207460008201527f6f20636c61696d00000000000000000000000000000000000000000000000000602082015250565b7f206973206d697373696e6720726f6c6520000000000000000000000000000000600082015250565b611b5281611880565b8114611b5d57600080fd5b50565b611b6981611892565b8114611b7457600080fd5b50565b611b808161189e565b8114611b8b57600080fd5b50565b611b97816118c8565b8114611ba257600080fd5b5056fea264697066735822122082f793f04f890624fa0c391a38f78195a8200077aa2b7840f9df9005fc56fb7964736f6c63430008020033",
  "linkReferences": {},
  "deployedLinkReferences": {}
}