{
  "_format": "hh-sol-artifact-1",
  "contractName": "TutellusDeployer",
  "sourceName": "contracts/TutellusDeployer.sol",
  "abi": [
    {
      "inputs": [
        {
          "internalType": "address",
          "name": "treasury_",
          "type": "address"
        },
        {
          "internalType": "uint256",
          "name": "startBlock",
          "type": "uint256"
        }
      ],
      "stateMutability": "nonpayable",
      "type": "constructor"
    },
    {
      "inputs": [],
      "name": "clientsVault",
      "outputs": [
        {
          "internalType": "address",
          "name": "",
          "type": "address"
        }
      ],
      "stateMutability": "view",
      "type": "function"
    },
    {
      "inputs": [],
      "name": "holdersVault",
      "outputs": [
        {
          "internalType": "address",
          "name": "",
          "type": "address"
        }
      ],
      "stateMutability": "view",
      "type": "function"
    },
    {
      "inputs": [],
      "name": "rewardsVault",
      "outputs": [
        {
          "internalType": "address",
          "name": "",
          "type": "address"
        }
      ],
      "stateMutability": "view",
      "type": "function"
    },
    {
      "inputs": [],
      "name": "rolemanager",
      "outputs": [
        {
          "internalType": "address",
          "name": "",
          "type": "address"
        }
      ],
      "stateMutability": "view",
      "type": "function"
    },
    {
      "inputs": [],
      "name": "teamVault",
      "outputs": [
        {
          "internalType": "address",
          "name": "",
          "type": "address"
        }
      ],
      "stateMutability": "view",
      "type": "function"
    },
    {
      "inputs": [],
      "name": "token",
      "outputs": [
        {
          "internalType": "address",
          "name": "",
          "type": "address"
        }
      ],
      "stateMutability": "view",
      "type": "function"
    },
    {
      "inputs": [],
      "name": "treasury",
      "outputs": [
        {
          "internalType": "address",
          "name": "",
          "type": "address"
        }
      ],
      "stateMutability": "view",
      "type": "function"
    },
    {
      "inputs": [],
      "name": "treasuryVault",
      "outputs": [
        {
          "internalType": "address",
          "name": "",
          "type": "address"
        }
      ],
      "stateMutability": "view",
      "type": "function"
    }
  ],
  "bytecode": "0x60806040523480156200001157600080fd5b5060405162010f1238038062010f12833981810160405281019062000037919062000acb565b81600260006101000a81548173ffffffffffffffffffffffffffffffffffffffff021916908373ffffffffffffffffffffffffffffffffffffffff160217905550604051620000869062000a49565b604051809103906000f080158015620000a3573d6000803e3d6000fd5b50600160006101000a81548173ffffffffffffffffffffffffffffffffffffffff021916908373ffffffffffffffffffffffffffffffffffffffff1602179055506aa56fa5b99019a5c8000000600160009054906101000a900473ffffffffffffffffffffffffffffffffffffffff16604051620001219062000a57565b6200012e92919062000e75565b604051809103906000f0801580156200014b573d6000803e3d6000fd5b506000806101000a81548173ffffffffffffffffffffffffffffffffffffffff021916908373ffffffffffffffffffffffffffffffffffffffff160217905550600160009054906101000a900473ffffffffffffffffffffffffffffffffffffffff1660008054906101000a900473ffffffffffffffffffffffffffffffffffffffff166a084595161401484a00000083600885620001eb919062000edd565b604051620001f99062000a65565b6200020995949392919062000caa565b604051809103906000f08015801562000226573d6000803e3d6000fd5b50600360006101000a81548173ffffffffffffffffffffffffffffffffffffffff021916908373ffffffffffffffffffffffffffffffffffffffff160217905550600160009054906101000a900473ffffffffffffffffffffffffffffffffffffffff1660008054906101000a900473ffffffffffffffffffffffffffffffffffffffff166a04f68ca6d8cd91c6000000600884620002c6919062000edd565b601585620002d5919062000edd565b604051620002e39062000a65565b620002f395949392919062000d07565b604051809103906000f08015801562000310573d6000803e3d6000fd5b50600460006101000a81548173ffffffffffffffffffffffffffffffffffffffff021916908373ffffffffffffffffffffffffffffffffffffffff160217905550600160009054906101000a900473ffffffffffffffffffffffffffffffffffffffff1660008054906101000a900473ffffffffffffffffffffffffffffffffffffffff166a34f086f3b33b684000000083602485620003b1919062000edd565b604051620003bf9062000a73565b620003cf95949392919062000d64565b604051809103906000f080158015620003ec573d6000803e3d6000fd5b50600560006101000a81548173ffffffffffffffffffffffffffffffffffffffff021916908373ffffffffffffffffffffffffffffffffffffffff160217905550600160009054906101000a900473ffffffffffffffffffffffffffffffffffffffff1660008054906101000a900473ffffffffffffffffffffffffffffffffffffffff166040516200047f9062000a81565b6200048c92919062000c10565b604051809103906000f080158015620004a9573d6000803e3d6000fd5b50600660006101000a81548173ffffffffffffffffffffffffffffffffffffffff021916908373ffffffffffffffffffffffffffffffffffffffff160217905550600160009054906101000a900473ffffffffffffffffffffffffffffffffffffffff16600260009054906101000a900473ffffffffffffffffffffffffffffffffffffffff1660008054906101000a900473ffffffffffffffffffffffffffffffffffffffff166a187c0b371c7ead0400000084603c866200056d919062000edd565b6040516200057b9062000a8f565b6200058c9695949392919062000c3d565b604051809103906000f080158015620005a9573d6000803e3d6000fd5b50600760006101000a81548173ffffffffffffffffffffffffffffffffffffffff021916908373ffffffffffffffffffffffffffffffffffffffff1602179055506000600160009054906101000a900473ffffffffffffffffffffffffffffffffffffffff1690508073ffffffffffffffffffffffffffffffffffffffff16633dd1eb61306040518263ffffffff1660e01b81526004016200064c919062000bf3565b600060405180830381600087803b1580156200066757600080fd5b505af11580156200067c573d6000803e3d6000fd5b505050508073ffffffffffffffffffffffffffffffffffffffff16633dd1eb61600360009054906101000a900473ffffffffffffffffffffffffffffffffffffffff166040518263ffffffff1660e01b8152600401620006dd919062000bf3565b600060405180830381600087803b158015620006f857600080fd5b505af11580156200070d573d6000803e3d6000fd5b505050508073ffffffffffffffffffffffffffffffffffffffff16633dd1eb61600460009054906101000a900473ffffffffffffffffffffffffffffffffffffffff166040518263ffffffff1660e01b81526004016200076e919062000bf3565b600060405180830381600087803b1580156200078957600080fd5b505af11580156200079e573d6000803e3d6000fd5b5050505060008060009054906101000a900473ffffffffffffffffffffffffffffffffffffffff1690508073ffffffffffffffffffffffffffffffffffffffff166340c10f19600260009054906101000a900473ffffffffffffffffffffffffffffffffffffffff166954b40b1f852bda0000006040518363ffffffff1660e01b81526004016200083192919062000dee565b600060405180830381600087803b1580156200084c57600080fd5b505af115801562000861573d6000803e3d6000fd5b505050508073ffffffffffffffffffffffffffffffffffffffff166340c10f19600560009054906101000a900473ffffffffffffffffffffffffffffffffffffffff166a34f086f3b33b68400000006040518363ffffffff1660e01b8152600401620008cf92919062000e1b565b600060405180830381600087803b158015620008ea57600080fd5b505af1158015620008ff573d6000803e3d6000fd5b505050508073ffffffffffffffffffffffffffffffffffffffff166340c10f19600660009054906101000a900473ffffffffffffffffffffffffffffffffffffffff166a4a723dc6b40b8a9a0000006040518363ffffffff1660e01b81526004016200096d92919062000e48565b600060405180830381600087803b1580156200098857600080fd5b505af11580156200099d573d6000803e3d6000fd5b505050508073ffffffffffffffffffffffffffffffffffffffff166340c10f19600760009054906101000a900473ffffffffffffffffffffffffffffffffffffffff166a187c0b371c7ead040000006040518363ffffffff1660e01b815260040162000a0b92919062000dc1565b600060405180830381600087803b15801562000a2657600080fd5b505af115801562000a3b573d6000803e3d6000fd5b5050505050505050620010b9565b611a58806200140683390190565b613ab28062002e5e83390190565b612825806200691083390190565b613059806200913583390190565b6126d2806200c18e83390190565b6126b2806200e86083390190565b60008151905062000aae8162001085565b92915050565b60008151905062000ac5816200109f565b92915050565b6000806040838503121562000adf57600080fd5b600062000aef8582860162000a9d565b925050602062000b028582860162000ab4565b9150509250929050565b62000b178162000f3a565b82525050565b62000b288162000f78565b82525050565b62000b398162000f8c565b82525050565b62000b4a8162000fa0565b82525050565b62000b5b8162000fb4565b82525050565b62000b6c8162000fc8565b82525050565b62000b7d8162000fdc565b82525050565b62000b8e8162000ff0565b82525050565b600062000ba3600e8362000ecc565b915062000bb08262001033565b602082019050919050565b600062000bca60038362000ecc565b915062000bd7826200105c565b602082019050919050565b62000bed8162000f6e565b82525050565b600060208201905062000c0a600083018462000b0c565b92915050565b600060408201905062000c27600083018562000b0c565b62000c36602083018462000b0c565b9392505050565b600060c08201905062000c54600083018962000b0c565b62000c63602083018862000b0c565b62000c72604083018762000b0c565b62000c81606083018662000b3f565b62000c90608083018562000be2565b62000c9f60a083018462000be2565b979650505050505050565b600060a08201905062000cc1600083018862000b0c565b62000cd0602083018762000b0c565b62000cdf604083018662000b1d565b62000cee606083018562000be2565b62000cfd608083018462000be2565b9695505050505050565b600060a08201905062000d1e600083018862000b0c565b62000d2d602083018762000b0c565b62000d3c604083018662000b61565b62000d4b606083018562000be2565b62000d5a608083018462000be2565b9695505050505050565b600060a08201905062000d7b600083018862000b0c565b62000d8a602083018762000b0c565b62000d99604083018662000b72565b62000da8606083018562000be2565b62000db7608083018462000be2565b9695505050505050565b600060408201905062000dd8600083018562000b0c565b62000de7602083018462000b3f565b9392505050565b600060408201905062000e05600083018562000b0c565b62000e14602083018462000b50565b9392505050565b600060408201905062000e32600083018562000b0c565b62000e41602083018462000b72565b9392505050565b600060408201905062000e5f600083018562000b0c565b62000e6e602083018462000b83565b9392505050565b6000608082019050818103600083015262000e908162000b94565b9050818103602083015262000ea58162000bbb565b905062000eb6604083018562000b2e565b62000ec5606083018462000b0c565b9392505050565b600082825260208201905092915050565b600062000eea8262000f6e565b915062000ef78362000f6e565b9250827fffffffffffffffffffffffffffffffffffffffffffffffffffffffffffffffff0382111562000f2f5762000f2e62001004565b5b828201905092915050565b600062000f478262000f4e565b9050919050565b600073ffffffffffffffffffffffffffffffffffffffff82169050919050565b6000819050919050565b600062000f858262000f6e565b9050919050565b600062000f998262000f6e565b9050919050565b600062000fad8262000f6e565b9050919050565b600062000fc18262000f6e565b9050919050565b600062000fd58262000f6e565b9050919050565b600062000fe98262000f6e565b9050919050565b600062000ffd8262000f6e565b9050919050565b7f4e487b7100000000000000000000000000000000000000000000000000000000600052601160045260246000fd5b7f547574656c6c757320546f6b656e000000000000000000000000000000000000600082015250565b7f5455540000000000000000000000000000000000000000000000000000000000600082015250565b620010908162000f3a565b81146200109c57600080fd5b50565b620010aa8162000f6e565b8114620010b657600080fd5b50565b61033d80620010c96000396000f3fe608060405234801561001057600080fd5b50600436106100885760003560e01c8063a8f7c3701161005b578063a8f7c37014610105578063af8b1c6f14610123578063e82128ab14610141578063fc0c546a1461015f57610088565b80630a04b1321461008d5780635579ed01146100ab57806361d027b3146100c95780638ab5212b146100e7575b600080fd5b61009561017d565b6040516100a291906102ba565b60405180910390f35b6100b36101a3565b6040516100c091906102ba565b60405180910390f35b6100d16101c9565b6040516100de91906102ba565b60405180910390f35b6100ef6101ef565b6040516100fc91906102ba565b60405180910390f35b61010d610215565b60405161011a91906102ba565b60405180910390f35b61012b61023b565b60405161013891906102ba565b60405180910390f35b610149610261565b60405161015691906102ba565b60405180910390f35b610167610287565b60405161017491906102ba565b60405180910390f35b600360009054906101000a900473ffffffffffffffffffffffffffffffffffffffff1681565b600560009054906101000a900473ffffffffffffffffffffffffffffffffffffffff1681565b600260009054906101000a900473ffffffffffffffffffffffffffffffffffffffff1681565b600460009054906101000a900473ffffffffffffffffffffffffffffffffffffffff1681565b600660009054906101000a900473ffffffffffffffffffffffffffffffffffffffff1681565b600760009054906101000a900473ffffffffffffffffffffffffffffffffffffffff1681565b600160009054906101000a900473ffffffffffffffffffffffffffffffffffffffff1681565b60008054906101000a900473ffffffffffffffffffffffffffffffffffffffff1681565b6102b4816102d5565b82525050565b60006020820190506102cf60008301846102ab565b92915050565b60006102e0826102e7565b9050919050565b600073ffffffffffffffffffffffffffffffffffffffff8216905091905056fea26469706673582212201389d2ab07134a69362fb06b84f03c0264a1799acd0a3ab361fc55481f8f8f5a64736f6c6343000802003360806040523480156200001157600080fd5b50620000226200005260201b60201c565b620000376000801b336200015160201b60201c565b6200004c6000801b326200015160201b60201c565b62000800565b600060019054906101000a900460ff168062000079575060008054906101000a900460ff16155b620000bb576040517f08c379a0000000000000000000000000000000000000000000000000000000008152600401620000b2906200077e565b60405180910390fd5b60008060019054906101000a900460ff1615905080156200010c576001600060016101000a81548160ff02191690831515021790555060016000806101000a81548160ff0219169083151502179055505b6200011c6200016760201b60201c565b6200012c6200027660201b60201c565b80156200014e5760008060016101000a81548160ff0219169083151502179055505b50565b6200016382826200035560201b60201c565b5050565b600060019054906101000a900460ff16806200018e575060008054906101000a900460ff16155b620001d0576040517f08c379a0000000000000000000000000000000000000000000000000000000008152600401620001c7906200077e565b60405180910390fd5b60008060019054906101000a900460ff16159050801562000221576001600060016101000a81548160ff02191690831515021790555060016000806101000a81548160ff0219169083151502179055505b620002316200044760201b60201c565b620002416200052660201b60201c565b620002516200060560201b60201c565b8015620002735760008060016101000a81548160ff0219169083151502179055505b50565b600060019054906101000a900460ff16806200029d575060008054906101000a900460ff16155b620002df576040517f08c379a0000000000000000000000000000000000000000000000000000000008152600401620002d6906200077e565b60405180910390fd5b60008060019054906101000a900460ff16159050801562000330576001600060016101000a81548160ff02191690831515021790555060016000806101000a81548160ff0219169083151502179055505b8015620003525760008060016101000a81548160ff0219169083151502179055505b50565b620003678282620006e460201b60201c565b620004435760016065600084815260200190815260200160002060000160008373ffffffffffffffffffffffffffffffffffffffff1673ffffffffffffffffffffffffffffffffffffffff16815260200190815260200160002060006101000a81548160ff021916908315150217905550620003e86200074f60201b60201c565b73ffffffffffffffffffffffffffffffffffffffff168173ffffffffffffffffffffffffffffffffffffffff16837f2f8788117e7eff1d82e926ec794901d17c78024a50270940304540a733656f0d60405160405180910390a45b5050565b600060019054906101000a900460ff16806200046e575060008054906101000a900460ff16155b620004b0576040517f08c379a0000000000000000000000000000000000000000000000000000000008152600401620004a7906200077e565b60405180910390fd5b60008060019054906101000a900460ff16159050801562000501576001600060016101000a81548160ff02191690831515021790555060016000806101000a81548160ff0219169083151502179055505b8015620005235760008060016101000a81548160ff0219169083151502179055505b50565b600060019054906101000a900460ff16806200054d575060008054906101000a900460ff16155b6200058f576040517f08c379a000000000000000000000000000000000000000000000000000000000815260040162000586906200077e565b60405180910390fd5b60008060019054906101000a900460ff161590508015620005e0576001600060016101000a81548160ff02191690831515021790555060016000806101000a81548160ff0219169083151502179055505b8015620006025760008060016101000a81548160ff0219169083151502179055505b50565b600060019054906101000a900460ff16806200062c575060008054906101000a900460ff16155b6200066e576040517f08c379a000000000000000000000000000000000000000000000000000000000815260040162000665906200077e565b60405180910390fd5b60008060019054906101000a900460ff161590508015620006bf576001600060016101000a81548160ff02191690831515021790555060016000806101000a81548160ff0219169083151502179055505b8015620006e15760008060016101000a81548160ff0219169083151502179055505b50565b60006065600084815260200190815260200160002060000160008373ffffffffffffffffffffffffffffffffffffffff1673ffffffffffffffffffffffffffffffffffffffff16815260200190815260200160002060009054906101000a900460ff16905092915050565b600033905090565b600062000766602e83620007a0565b91506200077382620007b1565b604082019050919050565b60006020820190508181036000830152620007998162000757565b9050919050565b600082825260208201905092915050565b7f496e697469616c697a61626c653a20636f6e747261637420697320616c72656160008201527f647920696e697469616c697a6564000000000000000000000000000000000000602082015250565b61124880620008106000396000f3fe608060405234801561001057600080fd5b50600436106100f55760003560e01c806391d1485411610097578063d539139311610066578063d53913931461026c578063d547741f1461028a578063e63ab1e9146102a6578063f72c0d8b146102c4576100f5565b806391d14854146101e6578063a057353614610216578063a217fddf14610232578063c634b78e14610250576100f5565b806336568abe116100d357806336568abe146101765780633dd1eb6114610192578063595a1d3f146101ae5780636c11c21c146101ca576100f5565b806301ffc9a7146100fa578063248a9ca31461012a5780632f2ff15d1461015a575b600080fd5b610114600480360381019061010f9190610d02565b6102e2565b6040516101219190610e79565b60405180910390f35b610144600480360381019061013f9190610c9d565b61035c565b6040516101519190610e94565b60405180910390f35b610174600480360381019061016f9190610cc6565b61037c565b005b610190600480360381019061018b9190610cc6565b6103a5565b005b6101ac60048036038101906101a79190610c74565b610428565b005b6101c860048036038101906101c39190610c74565b61046b565b005b6101e460048036038101906101df9190610c74565b6104ae565b005b61020060048036038101906101fb9190610cc6565b6104f1565b60405161020d9190610e79565b60405180910390f35b610230600480360381019061022b9190610c74565b61055c565b005b61023a610599565b6040516102479190610e94565b60405180910390f35b61026a60048036038101906102659190610c74565b6105a0565b005b6102746105c6565b6040516102819190610e94565b60405180910390f35b6102a4600480360381019061029f9190610cc6565b6105ea565b005b6102ae610613565b6040516102bb9190610e94565b60405180910390f35b6102cc610637565b6040516102d99190610e94565b60405180910390f35b60007f7965db0b000000000000000000000000000000000000000000000000000000007bffffffffffffffffffffffffffffffffffffffffffffffffffffffff1916827bffffffffffffffffffffffffffffffffffffffffffffffffffffffff1916148061035557506103548261065b565b5b9050919050565b600060656000838152602001908152602001600020600101549050919050565b6103858261035c565b610396816103916106c5565b6106cd565b6103a0838361076a565b505050565b6103ad6106c5565b73ffffffffffffffffffffffffffffffffffffffff168173ffffffffffffffffffffffffffffffffffffffff161461041a576040517f08c379a000000000000000000000000000000000000000000000000000000000815260040161041190610ef1565b60405180910390fd5b610424828261084b565b5050565b6000801b61043d816104386106c5565b6106cd565b6104677f9f2df0fed2c77648de5860a4cc508cd0818c85b8b8a1ab4ceeef8d981c8956a68361092d565b5050565b6000801b6104808161047b6106c5565b6106cd565b6104aa7f9f2df0fed2c77648de5860a4cc508cd0818c85b8b8a1ab4ceeef8d981c8956a68361092d565b5050565b6000801b6104c3816104be6106c5565b6106cd565b6104ed7f9f2df0fed2c77648de5860a4cc508cd0818c85b8b8a1ab4ceeef8d981c8956a68361092d565b5050565b60006065600084815260200190815260200160002060000160008373ffffffffffffffffffffffffffffffffffffffff1673ffffffffffffffffffffffffffffffffffffffff16815260200190815260200160002060009054906101000a900460ff16905092915050565b6000801b6105718161056c6106c5565b6106cd565b61057a826104ae565b61058382610428565b61058c8261046b565b610595826105a0565b5050565b6000801b81565b6000801b6105b5816105b06106c5565b6106cd565b6105c26000801b8361092d565b5050565b7f9f2df0fed2c77648de5860a4cc508cd0818c85b8b8a1ab4ceeef8d981c8956a681565b6105f38261035c565b610604816105ff6106c5565b6106cd565b61060e838361084b565b505050565b7f65d7a28e3265b37a6474929f336521b332c1681b933f6cb9f3376673440d862a81565b7f189ab7a9244df0848122154315af71fe140f3db0fe014031783b0946b8c9d2e381565b60007f01ffc9a7000000000000000000000000000000000000000000000000000000007bffffffffffffffffffffffffffffffffffffffffffffffffffffffff1916827bffffffffffffffffffffffffffffffffffffffffffffffffffffffff1916149050919050565b600033905090565b6106d782826104f1565b610766576106fc8173ffffffffffffffffffffffffffffffffffffffff16601461093b565b61070a8360001c602061093b565b60405160200161071b929190610e3f565b6040516020818303038152906040526040517f08c379a000000000000000000000000000000000000000000000000000000000815260040161075d9190610eaf565b60405180910390fd5b5050565b61077482826104f1565b6108475760016065600084815260200190815260200160002060000160008373ffffffffffffffffffffffffffffffffffffffff1673ffffffffffffffffffffffffffffffffffffffff16815260200190815260200160002060006101000a81548160ff0219169083151502179055506107ec6106c5565b73ffffffffffffffffffffffffffffffffffffffff168173ffffffffffffffffffffffffffffffffffffffff16837f2f8788117e7eff1d82e926ec794901d17c78024a50270940304540a733656f0d60405160405180910390a45b5050565b61085582826104f1565b156109295760006065600084815260200190815260200160002060000160008373ffffffffffffffffffffffffffffffffffffffff1673ffffffffffffffffffffffffffffffffffffffff16815260200190815260200160002060006101000a81548160ff0219169083151502179055506108ce6106c5565b73ffffffffffffffffffffffffffffffffffffffff168173ffffffffffffffffffffffffffffffffffffffff16837ff6391f5c32d9c69d2a47ea670b442974b53935d1edc7fd64eb21e047a839171b60405160405180910390a45b5050565b610937828261076a565b5050565b60606000600283600261094e9190610f8e565b6109589190610f38565b67ffffffffffffffff811115610997577f4e487b7100000000000000000000000000000000000000000000000000000000600052604160045260246000fd5b6040519080825280601f01601f1916602001820160405280156109c95781602001600182028036833780820191505090505b5090507f300000000000000000000000000000000000000000000000000000000000000081600081518110610a27577f4e487b7100000000000000000000000000000000000000000000000000000000600052603260045260246000fd5b60200101907effffffffffffffffffffffffffffffffffffffffffffffffffffffffffffff1916908160001a9053507f780000000000000000000000000000000000000000000000000000000000000081600181518110610ab1577f4e487b7100000000000000000000000000000000000000000000000000000000600052603260045260246000fd5b60200101907effffffffffffffffffffffffffffffffffffffffffffffffffffffffffffff1916908160001a90535060006001846002610af19190610f8e565b610afb9190610f38565b90505b6001811115610be7577f3031323334353637383961626364656600000000000000000000000000000000600f861660108110610b63577f4e487b7100000000000000000000000000000000000000000000000000000000600052603260045260246000fd5b1a60f81b828281518110610ba0577f4e487b7100000000000000000000000000000000000000000000000000000000600052603260045260246000fd5b60200101907effffffffffffffffffffffffffffffffffffffffffffffffffffffffffffff1916908160001a905350600485901c945080610be090611099565b9050610afe565b5060008414610c2b576040517f08c379a0000000000000000000000000000000000000000000000000000000008152600401610c2290610ed1565b60405180910390fd5b8091505092915050565b600081359050610c44816111cd565b92915050565b600081359050610c59816111e4565b92915050565b600081359050610c6e816111fb565b92915050565b600060208284031215610c8657600080fd5b6000610c9484828501610c35565b91505092915050565b600060208284031215610caf57600080fd5b6000610cbd84828501610c4a565b91505092915050565b60008060408385031215610cd957600080fd5b6000610ce785828601610c4a565b9250506020610cf885828601610c35565b9150509250929050565b600060208284031215610d1457600080fd5b6000610d2284828501610c5f565b91505092915050565b610d3481610ffa565b82525050565b610d4381611006565b82525050565b6000610d5482610f11565b610d5e8185610f1c565b9350610d6e818560208601611066565b610d77816110f2565b840191505092915050565b6000610d8d82610f11565b610d978185610f2d565b9350610da7818560208601611066565b80840191505092915050565b6000610dc0602083610f1c565b9150610dcb82611103565b602082019050919050565b6000610de3601783610f2d565b9150610dee8261112c565b601782019050919050565b6000610e06601183610f2d565b9150610e1182611155565b601182019050919050565b6000610e29602f83610f1c565b9150610e348261117e565b604082019050919050565b6000610e4a82610dd6565b9150610e568285610d82565b9150610e6182610df9565b9150610e6d8284610d82565b91508190509392505050565b6000602082019050610e8e6000830184610d2b565b92915050565b6000602082019050610ea96000830184610d3a565b92915050565b60006020820190508181036000830152610ec98184610d49565b905092915050565b60006020820190508181036000830152610eea81610db3565b9050919050565b60006020820190508181036000830152610f0a81610e1c565b9050919050565b600081519050919050565b600082825260208201905092915050565b600081905092915050565b6000610f438261105c565b9150610f4e8361105c565b9250827fffffffffffffffffffffffffffffffffffffffffffffffffffffffffffffffff03821115610f8357610f826110c3565b5b828201905092915050565b6000610f998261105c565b9150610fa48361105c565b9250817fffffffffffffffffffffffffffffffffffffffffffffffffffffffffffffffff0483118215151615610fdd57610fdc6110c3565b5b828202905092915050565b6000610ff38261103c565b9050919050565b60008115159050919050565b6000819050919050565b60007fffffffff0000000000000000000000000000000000000000000000000000000082169050919050565b600073ffffffffffffffffffffffffffffffffffffffff82169050919050565b6000819050919050565b60005b83811015611084578082015181840152602081019050611069565b83811115611093576000848401525b50505050565b60006110a48261105c565b915060008214156110b8576110b76110c3565b5b600182039050919050565b7f4e487b7100000000000000000000000000000000000000000000000000000000600052601160045260246000fd5b6000601f19601f8301169050919050565b7f537472696e67733a20686578206c656e67746820696e73756666696369656e74600082015250565b7f416363657373436f6e74726f6c3a206163636f756e7420000000000000000000600082015250565b7f206973206d697373696e6720726f6c6520000000000000000000000000000000600082015250565b7f416363657373436f6e74726f6c3a2063616e206f6e6c792072656e6f756e636560008201527f20726f6c657320666f722073656c660000000000000000000000000000000000602082015250565b6111d681610fe8565b81146111e157600080fd5b50565b6111ed81611006565b81146111f857600080fd5b50565b61120481611010565b811461120f57600080fd5b5056fea26469706673582212207f6dcbf91e7a64b7b71b6003759e928d3d48bad514cd0c39907c2f483f4306d064736f6c6343000802003360806040523480156200001157600080fd5b5060405162003ab238038062003ab2833981810160405281019062000037919062000ce9565b6200004b848484846200005560201b60201c565b5050505062001084565b600060019054906101000a900460ff16806200007c575060008054906101000a900460ff16155b620000be576040517f08c379a0000000000000000000000000000000000000000000000000000000008152600401620000b59062000df7565b60405180910390fd5b60008060019054906101000a900460ff1615905080156200010f576001600060016101000a81548160ff02191690831515021790555060016000806101000a81548160ff0219169083151502179055505b62000120826200017c60201b60201c565b6200013285856200027d60201b60201c565b62000143836200038060201b60201c565b620001536200048160201b60201c565b8015620001755760008060016101000a81548160ff0219169083151502179055505b5050505050565b600060019054906101000a900460ff1680620001a3575060008054906101000a900460ff16155b620001e5576040517f08c379a0000000000000000000000000000000000000000000000000000000008152600401620001dc9062000df7565b60405180910390fd5b60008060019054906101000a900460ff16159050801562000236576001600060016101000a81548160ff02191690831515021790555060016000806101000a81548160ff0219169083151502179055505b620002466200056060201b60201c565b62000257826200065f60201b60201c565b8015620002795760008060016101000a81548160ff0219169083151502179055505b5050565b600060019054906101000a900460ff1680620002a4575060008054906101000a900460ff16155b620002e6576040517f08c379a0000000000000000000000000000000000000000000000000000000008152600401620002dd9062000df7565b60405180910390fd5b60008060019054906101000a900460ff16159050801562000337576001600060016101000a81548160ff02191690831515021790555060016000806101000a81548160ff0219169083151502179055505b620003476200078060201b60201c565b6200035983836200085f60201b60201c565b80156200037b5760008060016101000a81548160ff0219169083151502179055505b505050565b600060019054906101000a900460ff1680620003a7575060008054906101000a900460ff16155b620003e9576040517f08c379a0000000000000000000000000000000000000000000000000000000008152600401620003e09062000df7565b60405180910390fd5b60008060019054906101000a900460ff1615905080156200043a576001600060016101000a81548160ff02191690831515021790555060016000806101000a81548160ff0219169083151502179055505b6200044a6200078060201b60201c565b6200045b826200097260201b60201c565b80156200047d5760008060016101000a81548160ff0219169083151502179055505b5050565b600060019054906101000a900460ff1680620004a8575060008054906101000a900460ff16155b620004ea576040517f08c379a0000000000000000000000000000000000000000000000000000000008152600401620004e19062000df7565b60405180910390fd5b60008060019054906101000a900460ff1615905080156200053b576001600060016101000a81548160ff02191690831515021790555060016000806101000a81548160ff0219169083151502179055505b80156200055d5760008060016101000a81548160ff0219169083151502179055505b50565b600060019054906101000a900460ff168062000587575060008054906101000a900460ff16155b620005c9576040517f08c379a0000000000000000000000000000000000000000000000000000000008152600401620005c09062000df7565b60405180910390fd5b60008060019054906101000a900460ff1615905080156200061a576001600060016101000a81548160ff02191690831515021790555060016000806101000a81548160ff0219169083151502179055505b6200062a6200078060201b60201c565b6200063a62000a9f60201b60201c565b80156200065c5760008060016101000a81548160ff0219169083151502179055505b50565b600060019054906101000a900460ff168062000686575060008054906101000a900460ff16155b620006c8576040517f08c379a0000000000000000000000000000000000000000000000000000000008152600401620006bf9062000df7565b60405180910390fd5b60008060019054906101000a900460ff16159050801562000719576001600060016101000a81548160ff02191690831515021790555060016000806101000a81548160ff0219169083151502179055505b81606560006101000a81548173ffffffffffffffffffffffffffffffffffffffff021916908373ffffffffffffffffffffffffffffffffffffffff16021790555080156200077c5760008060016101000a81548160ff0219169083151502179055505b5050565b600060019054906101000a900460ff1680620007a7575060008054906101000a900460ff16155b620007e9576040517f08c379a0000000000000000000000000000000000000000000000000000000008152600401620007e09062000df7565b60405180910390fd5b60008060019054906101000a900460ff1615905080156200083a576001600060016101000a81548160ff02191690831515021790555060016000806101000a81548160ff0219169083151502179055505b80156200085c5760008060016101000a81548160ff0219169083151502179055505b50565b600060019054906101000a900460ff168062000886575060008054906101000a900460ff16155b620008c8576040517f08c379a0000000000000000000000000000000000000000000000000000000008152600401620008bf9062000df7565b60405180910390fd5b60008060019054906101000a900460ff16159050801562000919576001600060016101000a81548160ff02191690831515021790555060016000806101000a81548160ff0219169083151502179055505b82606990805190602001906200093192919062000b99565b5081606a90805190602001906200094a92919062000b99565b5080156200096d5760008060016101000a81548160ff0219169083151502179055505b505050565b600060019054906101000a900460ff168062000999575060008054906101000a900460ff16155b620009db576040517f08c379a0000000000000000000000000000000000000000000000000000000008152600401620009d29062000df7565b60405180910390fd5b60008060019054906101000a900460ff16159050801562000a2c576001600060016101000a81548160ff02191690831515021790555060016000806101000a81548160ff0219169083151502179055505b6000821162000a72576040517f08c379a000000000000000000000000000000000000000000000000000000000815260040162000a699062000dd5565b60405180910390fd5b81609881905550801562000a9b5760008060016101000a81548160ff0219169083151502179055505b5050565b600060019054906101000a900460ff168062000ac6575060008054906101000a900460ff16155b62000b08576040517f08c379a000000000000000000000000000000000000000000000000000000000815260040162000aff9062000df7565b60405180910390fd5b60008060019054906101000a900460ff16159050801562000b59576001600060016101000a81548160ff02191690831515021790555060016000806101000a81548160ff0219169083151502179055505b6000603360006101000a81548160ff021916908315150217905550801562000b965760008060016101000a81548160ff0219169083151502179055505b50565b82805462000ba79062000efd565b90600052602060002090601f01602090048101928262000bcb576000855562000c17565b82601f1062000be657805160ff191683800117855562000c17565b8280016001018555821562000c17579182015b8281111562000c1657825182559160200191906001019062000bf9565b5b50905062000c26919062000c2a565b5090565b5b8082111562000c4557600081600090555060010162000c2b565b5090565b600062000c6062000c5a8462000e42565b62000e19565b90508281526020810184848401111562000c7957600080fd5b62000c8684828562000ec7565b509392505050565b60008151905062000c9f8162001050565b92915050565b600082601f83011262000cb757600080fd5b815162000cc984826020860162000c49565b91505092915050565b60008151905062000ce3816200106a565b92915050565b6000806000806080858703121562000d0057600080fd5b600085015167ffffffffffffffff81111562000d1b57600080fd5b62000d298782880162000ca5565b945050602085015167ffffffffffffffff81111562000d4757600080fd5b62000d558782880162000ca5565b935050604062000d688782880162000cd2565b925050606062000d7b8782880162000c8e565b91505092959194509250565b600062000d9660158362000e78565b915062000da38262000fd8565b602082019050919050565b600062000dbd602e8362000e78565b915062000dca8262001001565b604082019050919050565b6000602082019050818103600083015262000df08162000d87565b9050919050565b6000602082019050818103600083015262000e128162000dae565b9050919050565b600062000e2562000e38565b905062000e33828262000f33565b919050565b6000604051905090565b600067ffffffffffffffff82111562000e605762000e5f62000f98565b5b62000e6b8262000fc7565b9050602081019050919050565b600082825260208201905092915050565b600062000e968262000e9d565b9050919050565b600073ffffffffffffffffffffffffffffffffffffffff82169050919050565b6000819050919050565b60005b8381101562000ee757808201518184015260208101905062000eca565b8381111562000ef7576000848401525b50505050565b6000600282049050600182168062000f1657607f821691505b6020821081141562000f2d5762000f2c62000f69565b5b50919050565b62000f3e8262000fc7565b810181811067ffffffffffffffff8211171562000f605762000f5f62000f98565b5b80604052505050565b7f4e487b7100000000000000000000000000000000000000000000000000000000600052602260045260246000fd5b7f4e487b7100000000000000000000000000000000000000000000000000000000600052604160045260246000fd5b6000601f19601f8301169050919050565b7f45524332304361707065643a2063617020697320300000000000000000000000600082015250565b7f496e697469616c697a61626c653a20636f6e747261637420697320616c72656160008201527f647920696e697469616c697a6564000000000000000000000000000000000000602082015250565b6200105b8162000e89565b81146200106757600080fd5b50565b620010758162000ebd565b81146200108157600080fd5b50565b612a1e80620010946000396000f3fe608060405234801561001057600080fd5b50600436106101425760003560e01c80635c975abb116100b857806395d89b411161007c57806395d89b4114610353578063a217fddf14610371578063a457c2d71461038f578063a9059cbb146103bf578063dd62ed3e146103ef578063e63ab1e91461041f57610142565b80635c975abb146102ad57806370a08231146102cb57806373f42561146102fb5780638456cb591461031957806391d148541461032357610142565b8063355274ea1161010a578063355274ea14610201578063395093511461021f5780633f4ba83a1461024f57806340c10f191461025957806342966c681461027557806358aba00f1461029157610142565b806306fdde0314610147578063095ea7b31461016557806318160ddd1461019557806323b872dd146101b3578063313ce567146101e3575b600080fd5b61014f61043d565b60405161015c9190612091565b60405180910390f35b61017f600480360381019061017a9190611be2565b6104cf565b60405161018c9190612032565b60405180910390f35b61019d6104ed565b6040516101aa9190612293565b60405180910390f35b6101cd60048036038101906101c89190611b93565b6104f7565b6040516101da9190612032565b60405180910390f35b6101eb6105ef565b6040516101f891906122ae565b60405180910390f35b6102096105f8565b6040516102169190612293565b60405180910390f35b61023960048036038101906102349190611be2565b610602565b6040516102469190612032565b60405180910390f35b6102576106ae565b005b610273600480360381019061026e9190611be2565b61077b565b005b61028f600480360381019061028a9190611c83565b61084c565b005b6102ab60048036038101906102a69190611b2e565b610860565b005b6102b561094a565b6040516102c29190612032565b60405180910390f35b6102e560048036038101906102e09190611b2e565b610961565b6040516102f29190612293565b60405180910390f35b6103036109aa565b6040516103109190612293565b60405180910390f35b6103216109b0565b005b61033d60048036038101906103389190611c47565b610a7d565b60405161034a9190612032565b60405180910390f35b61035b610b39565b6040516103689190612091565b60405180910390f35b610379610bcb565b604051610386919061204d565b60405180910390f35b6103a960048036038101906103a49190611be2565b610bd2565b6040516103b69190612032565b60405180910390f35b6103d960048036038101906103d49190611be2565b610cbd565b6040516103e69190612032565b60405180910390f35b61040960048036038101906104049190611b57565b610cdb565b6040516104169190612293565b60405180910390f35b610427610d62565b604051610434919061204d565b60405180910390f35b60606069805461044c90612490565b80601f016020809104026020016040519081016040528092919081815260200182805461047890612490565b80156104c55780601f1061049a576101008083540402835291602001916104c5565b820191906000526020600020905b8154815290600101906020018083116104a857829003601f168201915b5050505050905090565b60006104e36104dc610d86565b8484610d8e565b6001905092915050565b6000606854905090565b6000610504848484610f59565b6000606760008673ffffffffffffffffffffffffffffffffffffffff1673ffffffffffffffffffffffffffffffffffffffff168152602001908152602001600020600061054f610d86565b73ffffffffffffffffffffffffffffffffffffffff1673ffffffffffffffffffffffffffffffffffffffff168152602001908152602001600020549050828110156105cf576040517f08c379a00000000000000000000000000000000000000000000000000000000081526004016105c690612193565b60405180910390fd5b6105e3856105db610d86565b858403610d8e565b60019150509392505050565b60006012905090565b6000609854905090565b60006106a461060f610d86565b84846067600061061d610d86565b73ffffffffffffffffffffffffffffffffffffffff1673ffffffffffffffffffffffffffffffffffffffff16815260200190815260200160002060008873ffffffffffffffffffffffffffffffffffffffff1673ffffffffffffffffffffffffffffffffffffffff1681526020019081526020016000205461069f91906122f0565b610d8e565b6001905092915050565b7f65d7a28e3265b37a6474929f336521b332c1681b933f6cb9f3376673440d862a60003390506106de8282610a7d565b6106ff8273ffffffffffffffffffffffffffffffffffffffff1660146111dd565b61070d8460001c60206111dd565b60405160200161071e929190611fb4565b6040516020818303038152906040529061076e576040517f08c379a00000000000000000000000000000000000000000000000000000000081526004016107659190612091565b60405180910390fd5b506107776114d7565b5050565b7f9f2df0fed2c77648de5860a4cc508cd0818c85b8b8a1ab4ceeef8d981c8956a660003390506107ab8282610a7d565b6107cc8273ffffffffffffffffffffffffffffffffffffffff1660146111dd565b6107da8460001c60206111dd565b6040516020016107eb929190611fb4565b6040516020818303038152906040529061083b576040517f08c379a00000000000000000000000000000000000000000000000000000000081526004016108329190612091565b60405180910390fd5b506108468484611579565b50505050565b61085d610857610d86565b82611629565b50565b6000801b60003390506108738282610a7d565b6108948273ffffffffffffffffffffffffffffffffffffffff1660146111dd565b6108a28460001c60206111dd565b6040516020016108b3929190611fb4565b60405160208183030381529060405290610903576040517f08c379a00000000000000000000000000000000000000000000000000000000081526004016108fa9190612091565b60405180910390fd5b5082606560006101000a81548173ffffffffffffffffffffffffffffffffffffffff021916908373ffffffffffffffffffffffffffffffffffffffff160217905550505050565b6000603360009054906101000a900460ff16905090565b6000606660008373ffffffffffffffffffffffffffffffffffffffff1673ffffffffffffffffffffffffffffffffffffffff168152602001908152602001600020549050919050565b60cb5481565b7f65d7a28e3265b37a6474929f336521b332c1681b933f6cb9f3376673440d862a60003390506109e08282610a7d565b610a018273ffffffffffffffffffffffffffffffffffffffff1660146111dd565b610a0f8460001c60206111dd565b604051602001610a20929190611fb4565b60405160208183030381529060405290610a70576040517f08c379a0000000000000000000000000000000000000000000000000000000008152600401610a679190612091565b60405180910390fd5b50610a79611689565b5050565b600080606560009054906101000a900473ffffffffffffffffffffffffffffffffffffffff1690508073ffffffffffffffffffffffffffffffffffffffff166391d1485485856040518363ffffffff1660e01b8152600401610ae0929190612068565b60206040518083038186803b158015610af857600080fd5b505afa158015610b0c573d6000803e3d6000fd5b505050506040513d601f19601f82011682018060405250810190610b309190611c1e565b91505092915050565b6060606a8054610b4890612490565b80601f0160208091040260200160405190810160405280929190818152602001828054610b7490612490565b8015610bc15780601f10610b9657610100808354040283529160200191610bc1565b820191906000526020600020905b815481529060010190602001808311610ba457829003601f168201915b5050505050905090565b6000801b81565b60008060676000610be1610d86565b73ffffffffffffffffffffffffffffffffffffffff1673ffffffffffffffffffffffffffffffffffffffff16815260200190815260200160002060008573ffffffffffffffffffffffffffffffffffffffff1673ffffffffffffffffffffffffffffffffffffffff16815260200190815260200160002054905082811015610c9e576040517f08c379a0000000000000000000000000000000000000000000000000000000008152600401610c9590612253565b60405180910390fd5b610cb2610ca9610d86565b85858403610d8e565b600191505092915050565b6000610cd1610cca610d86565b8484610f59565b6001905092915050565b6000606760008473ffffffffffffffffffffffffffffffffffffffff1673ffffffffffffffffffffffffffffffffffffffff16815260200190815260200160002060008373ffffffffffffffffffffffffffffffffffffffff1673ffffffffffffffffffffffffffffffffffffffff16815260200190815260200160002054905092915050565b7f65d7a28e3265b37a6474929f336521b332c1681b933f6cb9f3376673440d862a81565b600033905090565b600073ffffffffffffffffffffffffffffffffffffffff168373ffffffffffffffffffffffffffffffffffffffff161415610dfe576040517f08c379a0000000000000000000000000000000000000000000000000000000008152600401610df590612213565b60405180910390fd5b600073ffffffffffffffffffffffffffffffffffffffff168273ffffffffffffffffffffffffffffffffffffffff161415610e6e576040517f08c379a0000000000000000000000000000000000000000000000000000000008152600401610e6590612133565b60405180910390fd5b80606760008573ffffffffffffffffffffffffffffffffffffffff1673ffffffffffffffffffffffffffffffffffffffff16815260200190815260200160002060008473ffffffffffffffffffffffffffffffffffffffff1673ffffffffffffffffffffffffffffffffffffffff168152602001908152602001600020819055508173ffffffffffffffffffffffffffffffffffffffff168373ffffffffffffffffffffffffffffffffffffffff167f8c5be1e5ebec7d5bd14f71427d1e84f3dd0314c0f7b2291e5b200ac8c7c3b92583604051610f4c9190612293565b60405180910390a3505050565b600073ffffffffffffffffffffffffffffffffffffffff168373ffffffffffffffffffffffffffffffffffffffff161415610fc9576040517f08c379a0000000000000000000000000000000000000000000000000000000008152600401610fc0906121d3565b60405180910390fd5b600073ffffffffffffffffffffffffffffffffffffffff168273ffffffffffffffffffffffffffffffffffffffff161415611039576040517f08c379a0000000000000000000000000000000000000000000000000000000008152600401611030906120d3565b60405180910390fd5b61104483838361172c565b6000606660008573ffffffffffffffffffffffffffffffffffffffff1673ffffffffffffffffffffffffffffffffffffffff168152602001908152602001600020549050818110156110cb576040517f08c379a00000000000000000000000000000000000000000000000000000000081526004016110c290612153565b60405180910390fd5b818103606660008673ffffffffffffffffffffffffffffffffffffffff1673ffffffffffffffffffffffffffffffffffffffff1681526020019081526020016000208190555081606660008573ffffffffffffffffffffffffffffffffffffffff1673ffffffffffffffffffffffffffffffffffffffff168152602001908152602001600020600082825461116091906122f0565b925050819055508273ffffffffffffffffffffffffffffffffffffffff168473ffffffffffffffffffffffffffffffffffffffff167fddf252ad1be2c89b69c2b068fc378daa952ba7f163c4a11628f55a4df523b3ef846040516111c49190612293565b60405180910390a36111d7848484611731565b50505050565b6060600060028360026111f09190612346565b6111fa91906122f0565b67ffffffffffffffff811115611239577f4e487b7100000000000000000000000000000000000000000000000000000000600052604160045260246000fd5b6040519080825280601f01601f19166020018201604052801561126b5781602001600182028036833780820191505090505b5090507f3000000000000000000000000000000000000000000000000000000000000000816000815181106112c9577f4e487b7100000000000000000000000000000000000000000000000000000000600052603260045260246000fd5b60200101907effffffffffffffffffffffffffffffffffffffffffffffffffffffffffffff1916908160001a9053507f780000000000000000000000000000000000000000000000000000000000000081600181518110611353577f4e487b7100000000000000000000000000000000000000000000000000000000600052603260045260246000fd5b60200101907effffffffffffffffffffffffffffffffffffffffffffffffffffffffffffff1916908160001a905350600060018460026113939190612346565b61139d91906122f0565b90505b6001811115611489577f3031323334353637383961626364656600000000000000000000000000000000600f861660108110611405577f4e487b7100000000000000000000000000000000000000000000000000000000600052603260045260246000fd5b1a60f81b828281518110611442577f4e487b7100000000000000000000000000000000000000000000000000000000600052603260045260246000fd5b60200101907effffffffffffffffffffffffffffffffffffffffffffffffffffffffffffff1916908160001a905350600485901c94508061148290612466565b90506113a0565b50600084146114cd576040517f08c379a00000000000000000000000000000000000000000000000000000000081526004016114c4906120b3565b60405180910390fd5b8091505092915050565b6114df61094a565b61151e576040517f08c379a0000000000000000000000000000000000000000000000000000000008152600401611515906120f3565b60405180910390fd5b6000603360006101000a81548160ff0219169083151502179055507f5db9ee0a495bf2e6ff9c91a7834c1ba4fdd244a5e8aa4e537bd38aeae4b073aa611562610d86565b60405161156f9190611fee565b60405180910390a1565b6115816105f8565b8160cb5461158d6104ed565b61159791906122f0565b6115a191906122f0565b11156115e2576040517f08c379a00000000000000000000000000000000000000000000000000000000081526004016115d990612233565b60405180910390fd5b6115ec8282611736565b7f0f6798a560793a54c3bcfe86a93cde1e73087d944c0ea20544137d4121396885828260405161161d929190612009565b60405180910390a15050565b8060cb600082825461163b91906122f0565b9250508190555061164c82826117a0565b7fcc16f5dbb4873280815c1ee09dbd06736cffcc184412cf7a71a0fdb75d397ca5828260405161167d929190612009565b60405180910390a15050565b61169161094a565b156116d1576040517f08c379a00000000000000000000000000000000000000000000000000000000081526004016116c890612173565b60405180910390fd5b6001603360006101000a81548160ff0219169083151502179055507f62e78cea01bee320cd4e420270b5ea74000d11b0c9f74754ebdbfc544b05a258611715610d86565b6040516117229190611fee565b60405180910390a1565b505050565b505050565b61173e6105f8565b816117476104ed565b61175191906122f0565b1115611792576040517f08c379a0000000000000000000000000000000000000000000000000000000008152600401611789906121f3565b60405180910390fd5b61179c8282611979565b5050565b600073ffffffffffffffffffffffffffffffffffffffff168273ffffffffffffffffffffffffffffffffffffffff161415611810576040517f08c379a0000000000000000000000000000000000000000000000000000000008152600401611807906121b3565b60405180910390fd5b61181c8260008361172c565b6000606660008473ffffffffffffffffffffffffffffffffffffffff1673ffffffffffffffffffffffffffffffffffffffff168152602001908152602001600020549050818110156118a3576040517f08c379a000000000000000000000000000000000000000000000000000000000815260040161189a90612113565b60405180910390fd5b818103606660008573ffffffffffffffffffffffffffffffffffffffff1673ffffffffffffffffffffffffffffffffffffffff1681526020019081526020016000208190555081606860008282546118fb91906123a0565b92505081905550600073ffffffffffffffffffffffffffffffffffffffff168373ffffffffffffffffffffffffffffffffffffffff167fddf252ad1be2c89b69c2b068fc378daa952ba7f163c4a11628f55a4df523b3ef846040516119609190612293565b60405180910390a361197483600084611731565b505050565b600073ffffffffffffffffffffffffffffffffffffffff168273ffffffffffffffffffffffffffffffffffffffff1614156119e9576040517f08c379a00000000000000000000000000000000000000000000000000000000081526004016119e090612273565b60405180910390fd5b6119f56000838361172c565b8060686000828254611a0791906122f0565b9250508190555080606660008473ffffffffffffffffffffffffffffffffffffffff1673ffffffffffffffffffffffffffffffffffffffff1681526020019081526020016000206000828254611a5d91906122f0565b925050819055508173ffffffffffffffffffffffffffffffffffffffff16600073ffffffffffffffffffffffffffffffffffffffff167fddf252ad1be2c89b69c2b068fc378daa952ba7f163c4a11628f55a4df523b3ef83604051611ac29190612293565b60405180910390a3611ad660008383611731565b5050565b600081359050611ae98161298c565b92915050565b600081519050611afe816129a3565b92915050565b600081359050611b13816129ba565b92915050565b600081359050611b28816129d1565b92915050565b600060208284031215611b4057600080fd5b6000611b4e84828501611ada565b91505092915050565b60008060408385031215611b6a57600080fd5b6000611b7885828601611ada565b9250506020611b8985828601611ada565b9150509250929050565b600080600060608486031215611ba857600080fd5b6000611bb686828701611ada565b9350506020611bc786828701611ada565b9250506040611bd886828701611b19565b9150509250925092565b60008060408385031215611bf557600080fd5b6000611c0385828601611ada565b9250506020611c1485828601611b19565b9150509250929050565b600060208284031215611c3057600080fd5b6000611c3e84828501611aef565b91505092915050565b60008060408385031215611c5a57600080fd5b6000611c6885828601611b04565b9250506020611c7985828601611ada565b9150509250929050565b600060208284031215611c9557600080fd5b6000611ca384828501611b19565b91505092915050565b611cb5816123d4565b82525050565b611cc4816123e6565b82525050565b611cd3816123f2565b82525050565b6000611ce4826122c9565b611cee81856122d4565b9350611cfe818560208601612433565b611d0781612520565b840191505092915050565b6000611d1d826122c9565b611d2781856122e5565b9350611d37818560208601612433565b80840191505092915050565b6000611d506020836122d4565b9150611d5b82612531565b602082019050919050565b6000611d736023836122d4565b9150611d7e8261255a565b604082019050919050565b6000611d966024836122e5565b9150611da1826125a9565b602482019050919050565b6000611db96014836122d4565b9150611dc4826125f8565b602082019050919050565b6000611ddc6022836122d4565b9150611de782612621565b604082019050919050565b6000611dff6022836122d4565b9150611e0a82612670565b604082019050919050565b6000611e226026836122d4565b9150611e2d826126bf565b604082019050919050565b6000611e456010836122d4565b9150611e508261270e565b602082019050919050565b6000611e686028836122d4565b9150611e7382612737565b604082019050919050565b6000611e8b6021836122d4565b9150611e9682612786565b604082019050919050565b6000611eae6025836122d4565b9150611eb9826127d5565b604082019050919050565b6000611ed16019836122d4565b9150611edc82612824565b602082019050919050565b6000611ef46024836122d4565b9150611eff8261284d565b604082019050919050565b6000611f176026836122d4565b9150611f228261289c565b604082019050919050565b6000611f3a6025836122d4565b9150611f45826128eb565b604082019050919050565b6000611f5d6011836122e5565b9150611f688261293a565b601182019050919050565b6000611f80601f836122d4565b9150611f8b82612963565b602082019050919050565b611f9f8161241c565b82525050565b611fae81612426565b82525050565b6000611fbf82611d89565b9150611fcb8285611d12565b9150611fd682611f50565b9150611fe28284611d12565b91508190509392505050565b60006020820190506120036000830184611cac565b92915050565b600060408201905061201e6000830185611cac565b61202b6020830184611f96565b9392505050565b60006020820190506120476000830184611cbb565b92915050565b60006020820190506120626000830184611cca565b92915050565b600060408201905061207d6000830185611cca565b61208a6020830184611cac565b9392505050565b600060208201905081810360008301526120ab8184611cd9565b905092915050565b600060208201905081810360008301526120cc81611d43565b9050919050565b600060208201905081810360008301526120ec81611d66565b9050919050565b6000602082019050818103600083015261210c81611dac565b9050919050565b6000602082019050818103600083015261212c81611dcf565b9050919050565b6000602082019050818103600083015261214c81611df2565b9050919050565b6000602082019050818103600083015261216c81611e15565b9050919050565b6000602082019050818103600083015261218c81611e38565b9050919050565b600060208201905081810360008301526121ac81611e5b565b9050919050565b600060208201905081810360008301526121cc81611e7e565b9050919050565b600060208201905081810360008301526121ec81611ea1565b9050919050565b6000602082019050818103600083015261220c81611ec4565b9050919050565b6000602082019050818103600083015261222c81611ee7565b9050919050565b6000602082019050818103600083015261224c81611f0a565b9050919050565b6000602082019050818103600083015261226c81611f2d565b9050919050565b6000602082019050818103600083015261228c81611f73565b9050919050565b60006020820190506122a86000830184611f96565b92915050565b60006020820190506122c36000830184611fa5565b92915050565b600081519050919050565b600082825260208201905092915050565b600081905092915050565b60006122fb8261241c565b91506123068361241c565b9250827fffffffffffffffffffffffffffffffffffffffffffffffffffffffffffffffff0382111561233b5761233a6124c2565b5b828201905092915050565b60006123518261241c565b915061235c8361241c565b9250817fffffffffffffffffffffffffffffffffffffffffffffffffffffffffffffffff0483118215151615612395576123946124c2565b5b828202905092915050565b60006123ab8261241c565b91506123b68361241c565b9250828210156123c9576123c86124c2565b5b828203905092915050565b60006123df826123fc565b9050919050565b60008115159050919050565b6000819050919050565b600073ffffffffffffffffffffffffffffffffffffffff82169050919050565b6000819050919050565b600060ff82169050919050565b60005b83811015612451578082015181840152602081019050612436565b83811115612460576000848401525b50505050565b60006124718261241c565b91506000821415612485576124846124c2565b5b600182039050919050565b600060028204905060018216806124a857607f821691505b602082108114156124bc576124bb6124f1565b5b50919050565b7f4e487b7100000000000000000000000000000000000000000000000000000000600052601160045260246000fd5b7f4e487b7100000000000000000000000000000000000000000000000000000000600052602260045260246000fd5b6000601f19601f8301169050919050565b7f537472696e67733a20686578206c656e67746820696e73756666696369656e74600082015250565b7f45524332303a207472616e7366657220746f20746865207a65726f206164647260008201527f6573730000000000000000000000000000000000000000000000000000000000602082015250565b7f416363657373436f6e74726f6c50726f78795061757361626c653a206163636f60008201527f756e742000000000000000000000000000000000000000000000000000000000602082015250565b7f5061757361626c653a206e6f7420706175736564000000000000000000000000600082015250565b7f45524332303a206275726e20616d6f756e7420657863656564732062616c616e60008201527f6365000000000000000000000000000000000000000000000000000000000000602082015250565b7f45524332303a20617070726f766520746f20746865207a65726f20616464726560008201527f7373000000000000000000000000000000000000000000000000000000000000602082015250565b7f45524332303a207472616e7366657220616d6f756e742065786365656473206260008201527f616c616e63650000000000000000000000000000000000000000000000000000602082015250565b7f5061757361626c653a2070617573656400000000000000000000000000000000600082015250565b7f45524332303a207472616e7366657220616d6f756e742065786365656473206160008201527f6c6c6f77616e6365000000000000000000000000000000000000000000000000602082015250565b7f45524332303a206275726e2066726f6d20746865207a65726f2061646472657360008201527f7300000000000000000000000000000000000000000000000000000000000000602082015250565b7f45524332303a207472616e736665722066726f6d20746865207a65726f20616460008201527f6472657373000000000000000000000000000000000000000000000000000000602082015250565b7f45524332304361707065643a2063617020657863656564656400000000000000600082015250565b7f45524332303a20617070726f76652066726f6d20746865207a65726f2061646460008201527f7265737300000000000000000000000000000000000000000000000000000000602082015250565b7f547574656c6c757345524332303a206d696e7420616d6f756e7420657863656560008201527f6473206361700000000000000000000000000000000000000000000000000000602082015250565b7f45524332303a2064656372656173656420616c6c6f77616e63652062656c6f7760008201527f207a65726f000000000000000000000000000000000000000000000000000000602082015250565b7f206973206d697373696e6720726f6c6520000000000000000000000000000000600082015250565b7f45524332303a206d696e7420746f20746865207a65726f206164647265737300600082015250565b612995816123d4565b81146129a057600080fd5b50565b6129ac816123e6565b81146129b757600080fd5b50565b6129c3816123f2565b81146129ce57600080fd5b50565b6129da8161241c565b81146129e557600080fd5b5056fea2646970667358221220ae2b4baa2eb7a53a1c81cf7b82c17c4268c66b19d31037cb434a2a7216d1161764736f6c6343000802003360806040523480156200001157600080fd5b506040516200282538038062002825833981810160405281019062000037919062000847565b8181116200007c576040517f08c379a0000000000000000000000000000000000000000000000000000000008152600401620000739062000928565b60405180910390fd5b6200009185858585856200009c60201b60201c565b505050505062000aca565b600060019054906101000a900460ff1680620000c3575060008054906101000a900460ff16155b62000105576040517f08c379a0000000000000000000000000000000000000000000000000000000008152600401620000fc906200094a565b60405180910390fd5b60008060019054906101000a900460ff16159050801562000156576001600060016101000a81548160ff02191690831515021790555060016000806101000a81548160ff0219169083151502179055505b6200016786620001a560201b60201c565b6200017b85858585620002a660201b60201c565b80156200019d5760008060016101000a81548160ff0219169083151502179055505b505050505050565b600060019054906101000a900460ff1680620001cc575060008054906101000a900460ff16155b6200020e576040517f08c379a000000000000000000000000000000000000000000000000000000000815260040162000205906200094a565b60405180910390fd5b60008060019054906101000a900460ff1615905080156200025f576001600060016101000a81548160ff02191690831515021790555060016000806101000a81548160ff0219169083151502179055505b6200026f6200042060201b60201c565b62000280826200051f60201b60201c565b8015620002a25760008060016101000a81548160ff0219169083151502179055505b5050565b600060019054906101000a900460ff1680620002cd575060008054906101000a900460ff16155b6200030f576040517f08c379a000000000000000000000000000000000000000000000000000000000815260040162000306906200094a565b60405180910390fd5b60008060019054906101000a900460ff16159050801562000360576001600060016101000a81548160ff02191690831515021790555060016000806101000a81548160ff0219169083151502179055505b84606660006101000a81548173ffffffffffffffffffffffffffffffffffffffff021916908373ffffffffffffffffffffffffffffffffffffffff1602179055508360698190555082606781905550816068819055507ff1bd4f3fcb4e0b193abc7e4002c0284e25086269a02de2e4c52045a91f64703760675460685486604051620003ef939291906200096c565b60405180910390a18015620004195760008060016101000a81548160ff0219169083151502179055505b5050505050565b600060019054906101000a900460ff168062000447575060008054906101000a900460ff16155b62000489576040517f08c379a000000000000000000000000000000000000000000000000000000000815260040162000480906200094a565b60405180910390fd5b60008060019054906101000a900460ff161590508015620004da576001600060016101000a81548160ff02191690831515021790555060016000806101000a81548160ff0219169083151502179055505b620004ea6200064060201b60201c565b620004fa6200071f60201b60201c565b80156200051c5760008060016101000a81548160ff0219169083151502179055505b50565b600060019054906101000a900460ff168062000546575060008054906101000a900460ff16155b62000588576040517f08c379a00000000000000000000000000000000000000000000000000000000081526004016200057f906200094a565b60405180910390fd5b60008060019054906101000a900460ff161590508015620005d9576001600060016101000a81548160ff02191690831515021790555060016000806101000a81548160ff0219169083151502179055505b81606560006101000a81548173ffffffffffffffffffffffffffffffffffffffff021916908373ffffffffffffffffffffffffffffffffffffffff16021790555080156200063c5760008060016101000a81548160ff0219169083151502179055505b5050565b600060019054906101000a900460ff168062000667575060008054906101000a900460ff16155b620006a9576040517f08c379a0000000000000000000000000000000000000000000000000000000008152600401620006a0906200094a565b60405180910390fd5b60008060019054906101000a900460ff161590508015620006fa576001600060016101000a81548160ff02191690831515021790555060016000806101000a81548160ff0219169083151502179055505b80156200071c5760008060016101000a81548160ff0219169083151502179055505b50565b600060019054906101000a900460ff168062000746575060008054906101000a900460ff16155b62000788576040517f08c379a00000000000000000000000000000000000000000000000000000000081526004016200077f906200094a565b60405180910390fd5b60008060019054906101000a900460ff161590508015620007d9576001600060016101000a81548160ff02191690831515021790555060016000806101000a81548160ff0219169083151502179055505b6000603360006101000a81548160ff0219169083151502179055508015620008165760008060016101000a81548160ff0219169083151502179055505b50565b6000815190506200082a8162000a96565b92915050565b600081519050620008418162000ab0565b92915050565b600080600080600060a086880312156200086057600080fd5b6000620008708882890162000819565b9550506020620008838882890162000819565b9450506040620008968882890162000830565b9350506060620008a98882890162000830565b9250506080620008bc8882890162000830565b9150509295509295909350565b6000620008d8603383620009a9565b9150620008e582620009f8565b604082019050919050565b6000620008ff602e83620009a9565b91506200090c8262000a47565b604082019050919050565b6200092281620009ee565b82525050565b600060208201905081810360008301526200094381620008c9565b9050919050565b600060208201905081810360008301526200096581620008f0565b9050919050565b600060608201905062000983600083018662000917565b62000992602083018562000917565b620009a1604083018462000917565b949350505050565b600082825260208201905092915050565b6000620009c782620009ce565b9050919050565b600073ffffffffffffffffffffffffffffffffffffffff82169050919050565b6000819050919050565b7f547574656c6c7573486f6c646572735661756c743a20737461727420626c6f6360008201527f6b206578636565647320656e6420626c6f636b00000000000000000000000000602082015250565b7f496e697469616c697a61626c653a20636f6e747261637420697320616c72656160008201527f647920696e697469616c697a6564000000000000000000000000000000000000602082015250565b62000aa181620009ba565b811462000aad57600080fd5b50565b62000abb81620009ee565b811462000ac757600080fd5b50565b611d4b8062000ada6000396000f3fe608060405234801561001057600080fd5b50600436106101005760003560e01c806363453ae111610097578063a217fddf11610066578063a217fddf14610285578063e63ab1e9146102a3578063f5d82b6b146102c1578063fc0c546a146102dd57610100565b806363453ae1146101ff5780638456cb591461021b57806391d14854146102255780639852595c1461025557610100565b80634e71d92d116100d35780634e71d92d1461018b578063578bcf351461019557806358aba00f146101c55780635c975abb146101e157610100565b80630d12cc681461010557806310098ad5146101215780633f4ba83a146101515780634225e5bb1461015b575b600080fd5b61011f600480360381019061011a919061134b565b6102fb565b005b61013b600480360381019061013691906112e6565b6103a9565b604051610148919061178d565b60405180910390f35b610159610405565b005b610175600480360381019061017091906112e6565b6104d2565b604051610182919061178d565b60405180910390f35b6101936104ea565b005b6101af60048036038101906101aa91906112e6565b6104fb565b6040516101bc919061178d565b60405180910390f35b6101df60048036038101906101da91906112e6565b610513565b005b6101e96105fd565b6040516101f6919061166c565b60405180910390f35b610219600480360381019061021491906112e6565b610614565b005b6102236107f7565b005b61023f600480360381019061023a91906113e0565b6108c4565b60405161024c919061166c565b60405180910390f35b61026f600480360381019061026a91906112e6565b610980565b60405161027c919061178d565b60405180910390f35b61028d610a6d565b60405161029a9190611687565b60405180910390f35b6102ab610a74565b6040516102b89190611687565b60405180910390f35b6102db60048036038101906102d6919061130f565b610a98565b005b6102e5610cf9565b6040516102f291906115f1565b60405180910390f35b60005b82518110156103a457610391838281518110610343577f4e487b7100000000000000000000000000000000000000000000000000000000600052603260045260246000fd5b6020026020010151838381518110610384577f4e487b7100000000000000000000000000000000000000000000000000000000600052603260045260246000fd5b6020026020010151610a98565b808061039c90611a41565b9150506102fe565b505050565b6000606b60008373ffffffffffffffffffffffffffffffffffffffff1673ffffffffffffffffffffffffffffffffffffffff168152602001908152602001600020546103f483610980565b6103fe919061192d565b9050919050565b7f65d7a28e3265b37a6474929f336521b332c1681b933f6cb9f3376673440d862a600033905061043582826108c4565b6104568273ffffffffffffffffffffffffffffffffffffffff166014610d1f565b6104648460001c6020610d1f565b6040516020016104759291906115b7565b604051602081830303815290604052906104c5576040517f08c379a00000000000000000000000000000000000000000000000000000000081526004016104bc91906116cb565b60405180910390fd5b506104ce611019565b5050565b606c6020528060005260406000206000915090505481565b60003390506104f881610614565b50565b606b6020528060005260406000206000915090505481565b6000801b600033905061052682826108c4565b6105478273ffffffffffffffffffffffffffffffffffffffff166014610d1f565b6105558460001c6020610d1f565b6040516020016105669291906115b7565b604051602081830303815290604052906105b6576040517f08c379a00000000000000000000000000000000000000000000000000000000081526004016105ad91906116cb565b60405180910390fd5b5082606560006101000a81548173ffffffffffffffffffffffffffffffffffffffff021916908373ffffffffffffffffffffffffffffffffffffffff160217905550505050565b6000603360009054906101000a900460ff16905090565b61061c6105fd565b1561065c576040517f08c379a00000000000000000000000000000000000000000000000000000000081526004016106539061174d565b60405180910390fd5b6000606660009054906101000a900473ffffffffffffffffffffffffffffffffffffffff169050600061068e836103a9565b9050600081116106d3576040517f08c379a00000000000000000000000000000000000000000000000000000000081526004016106ca9061176d565b60405180910390fd5b80606b60008573ffffffffffffffffffffffffffffffffffffffff1673ffffffffffffffffffffffffffffffffffffffff1681526020019081526020016000206000828254610722919061184c565b925050819055508173ffffffffffffffffffffffffffffffffffffffff1663a9059cbb84836040518363ffffffff1660e01b8152600401610764929190611643565b602060405180830381600087803b15801561077e57600080fd5b505af1158015610792573d6000803e3d6000fd5b505050506040513d601f19601f820116820180604052508101906107b691906113b7565b507fafdc1eb311d58306e249917b5ca0044a827a66f0ec535c334d63372c4055d3643384836040516107ea9392919061160c565b60405180910390a1505050565b7f65d7a28e3265b37a6474929f336521b332c1681b933f6cb9f3376673440d862a600033905061082782826108c4565b6108488273ffffffffffffffffffffffffffffffffffffffff166014610d1f565b6108568460001c6020610d1f565b6040516020016108679291906115b7565b604051602081830303815290604052906108b7576040517f08c379a00000000000000000000000000000000000000000000000000000000081526004016108ae91906116cb565b60405180910390fd5b506108c06110bb565b5050565b600080606560009054906101000a900473ffffffffffffffffffffffffffffffffffffffff1690508073ffffffffffffffffffffffffffffffffffffffff166391d1485485856040518363ffffffff1660e01b81526004016109279291906116a2565b60206040518083038186803b15801561093f57600080fd5b505afa158015610953573d6000803e3d6000fd5b505050506040513d601f19601f8201168201806040525081019061097791906113b7565b91505092915050565b6000804390506068548111156109d857606c60008473ffffffffffffffffffffffffffffffffffffffff1673ffffffffffffffffffffffffffffffffffffffff16815260200190815260200160002054915050610a68565b6067548110156109ec576000915050610a68565b6000606754826109fc919061192d565b9050606754606854610a0e919061192d565b81606c60008773ffffffffffffffffffffffffffffffffffffffff1673ffffffffffffffffffffffffffffffffffffffff16815260200190815260200160002054610a5991906118d3565b610a6391906118a2565b925050505b919050565b6000801b81565b7f65d7a28e3265b37a6474929f336521b332c1681b933f6cb9f3376673440d862a81565b6000801b6000339050610aab82826108c4565b610acc8273ffffffffffffffffffffffffffffffffffffffff166014610d1f565b610ada8460001c6020610d1f565b604051602001610aeb9291906115b7565b60405160208183030381529060405290610b3b576040517f08c379a0000000000000000000000000000000000000000000000000000000008152600401610b3291906116cb565b60405180910390fd5b5082606a6000828254610b4e919061184c565b92505081905550606954606a541115610b9c576040517f08c379a0000000000000000000000000000000000000000000000000000000008152600401610b939061172d565b60405180910390fd5b6000606b60008673ffffffffffffffffffffffffffffffffffffffff1673ffffffffffffffffffffffffffffffffffffffff1681526020019081526020016000208190555082606c60008673ffffffffffffffffffffffffffffffffffffffff1673ffffffffffffffffffffffffffffffffffffffff168152602001908152602001600020819055506000606660009054906101000a900473ffffffffffffffffffffffffffffffffffffffff1690508073ffffffffffffffffffffffffffffffffffffffff166340c10f1930866040518363ffffffff1660e01b8152600401610c87929190611643565b600060405180830381600087803b158015610ca157600080fd5b505af1158015610cb5573d6000803e3d6000fd5b505050507f2728c9d3205d667bbc0eefdfeda366261b4d021949630c047f3e5834b30611ab8585604051610cea929190611643565b60405180910390a15050505050565b606660009054906101000a900473ffffffffffffffffffffffffffffffffffffffff1681565b606060006002836002610d3291906118d3565b610d3c919061184c565b67ffffffffffffffff811115610d7b577f4e487b7100000000000000000000000000000000000000000000000000000000600052604160045260246000fd5b6040519080825280601f01601f191660200182016040528015610dad5781602001600182028036833780820191505090505b5090507f300000000000000000000000000000000000000000000000000000000000000081600081518110610e0b577f4e487b7100000000000000000000000000000000000000000000000000000000600052603260045260246000fd5b60200101907effffffffffffffffffffffffffffffffffffffffffffffffffffffffffffff1916908160001a9053507f780000000000000000000000000000000000000000000000000000000000000081600181518110610e95577f4e487b7100000000000000000000000000000000000000000000000000000000600052603260045260246000fd5b60200101907effffffffffffffffffffffffffffffffffffffffffffffffffffffffffffff1916908160001a90535060006001846002610ed591906118d3565b610edf919061184c565b90505b6001811115610fcb577f3031323334353637383961626364656600000000000000000000000000000000600f861660108110610f47577f4e487b7100000000000000000000000000000000000000000000000000000000600052603260045260246000fd5b1a60f81b828281518110610f84577f4e487b7100000000000000000000000000000000000000000000000000000000600052603260045260246000fd5b60200101907effffffffffffffffffffffffffffffffffffffffffffffffffffffffffffff1916908160001a905350600485901c945080610fc4906119e6565b9050610ee2565b506000841461100f576040517f08c379a0000000000000000000000000000000000000000000000000000000008152600401611006906116ed565b60405180910390fd5b8091505092915050565b6110216105fd565b611060576040517f08c379a00000000000000000000000000000000000000000000000000000000081526004016110579061170d565b60405180910390fd5b6000603360006101000a81548160ff0219169083151502179055507f5db9ee0a495bf2e6ff9c91a7834c1ba4fdd244a5e8aa4e537bd38aeae4b073aa6110a461115e565b6040516110b191906115f1565b60405180910390a1565b6110c36105fd565b15611103576040517f08c379a00000000000000000000000000000000000000000000000000000000081526004016110fa9061174d565b60405180910390fd5b6001603360006101000a81548160ff0219169083151502179055507f62e78cea01bee320cd4e420270b5ea74000d11b0c9f74754ebdbfc544b05a25861114761115e565b60405161115491906115f1565b60405180910390a1565b600033905090565b6000611179611174846117cd565b6117a8565b9050808382526020820190508285602086028201111561119857600080fd5b60005b858110156111c857816111ae888261123e565b84526020840193506020830192505060018101905061119b565b5050509392505050565b60006111e56111e0846117f9565b6117a8565b9050808382526020820190508285602086028201111561120457600080fd5b60005b85811015611234578161121a88826112d1565b845260208401935060208301925050600181019050611207565b5050509392505050565b60008135905061124d81611cb9565b92915050565b600082601f83011261126457600080fd5b8135611274848260208601611166565b91505092915050565b600082601f83011261128e57600080fd5b813561129e8482602086016111d2565b91505092915050565b6000815190506112b681611cd0565b92915050565b6000813590506112cb81611ce7565b92915050565b6000813590506112e081611cfe565b92915050565b6000602082840312156112f857600080fd5b60006113068482850161123e565b91505092915050565b6000806040838503121561132257600080fd5b60006113308582860161123e565b9250506020611341858286016112d1565b9150509250929050565b6000806040838503121561135e57600080fd5b600083013567ffffffffffffffff81111561137857600080fd5b61138485828601611253565b925050602083013567ffffffffffffffff8111156113a157600080fd5b6113ad8582860161127d565b9150509250929050565b6000602082840312156113c957600080fd5b60006113d7848285016112a7565b91505092915050565b600080604083850312156113f357600080fd5b6000611401858286016112bc565b92505060206114128582860161123e565b9150509250929050565b61142581611961565b82525050565b61143481611973565b82525050565b6114438161197f565b82525050565b600061145482611825565b61145e8185611830565b935061146e8185602086016119b3565b61147781611b17565b840191505092915050565b600061148d82611825565b6114978185611841565b93506114a78185602086016119b3565b80840191505092915050565b60006114c0602083611830565b91506114cb82611b28565b602082019050919050565b60006114e3602483611841565b91506114ee82611b51565b602482019050919050565b6000611506601483611830565b915061151182611ba0565b602082019050919050565b6000611529602a83611830565b915061153482611bc9565b604082019050919050565b600061154c601083611830565b915061155782611c18565b602082019050919050565b600061156f602983611830565b915061157a82611c41565b604082019050919050565b6000611592601183611841565b915061159d82611c90565b601182019050919050565b6115b1816119a9565b82525050565b60006115c2826114d6565b91506115ce8285611482565b91506115d982611585565b91506115e58284611482565b91508190509392505050565b6000602082019050611606600083018461141c565b92915050565b6000606082019050611621600083018661141c565b61162e602083018561141c565b61163b60408301846115a8565b949350505050565b6000604082019050611658600083018561141c565b61166560208301846115a8565b9392505050565b6000602082019050611681600083018461142b565b92915050565b600060208201905061169c600083018461143a565b92915050565b60006040820190506116b7600083018561143a565b6116c4602083018461141c565b9392505050565b600060208201905081810360008301526116e58184611449565b905092915050565b60006020820190508181036000830152611706816114b3565b9050919050565b60006020820190508181036000830152611726816114f9565b9050919050565b600060208201905081810360008301526117468161151c565b9050919050565b600060208201905081810360008301526117668161153f565b9050919050565b6000602082019050818103600083015261178681611562565b9050919050565b60006020820190506117a260008301846115a8565b92915050565b60006117b26117c3565b90506117be8282611a10565b919050565b6000604051905090565b600067ffffffffffffffff8211156117e8576117e7611ae8565b5b602082029050602081019050919050565b600067ffffffffffffffff82111561181457611813611ae8565b5b602082029050602081019050919050565b600081519050919050565b600082825260208201905092915050565b600081905092915050565b6000611857826119a9565b9150611862836119a9565b9250827fffffffffffffffffffffffffffffffffffffffffffffffffffffffffffffffff0382111561189757611896611a8a565b5b828201905092915050565b60006118ad826119a9565b91506118b8836119a9565b9250826118c8576118c7611ab9565b5b828204905092915050565b60006118de826119a9565b91506118e9836119a9565b9250817fffffffffffffffffffffffffffffffffffffffffffffffffffffffffffffffff048311821515161561192257611921611a8a565b5b828202905092915050565b6000611938826119a9565b9150611943836119a9565b92508282101561195657611955611a8a565b5b828203905092915050565b600061196c82611989565b9050919050565b60008115159050919050565b6000819050919050565b600073ffffffffffffffffffffffffffffffffffffffff82169050919050565b6000819050919050565b60005b838110156119d15780820151818401526020810190506119b6565b838111156119e0576000848401525b50505050565b60006119f1826119a9565b91506000821415611a0557611a04611a8a565b5b600182039050919050565b611a1982611b17565b810181811067ffffffffffffffff82111715611a3857611a37611ae8565b5b80604052505050565b6000611a4c826119a9565b91507fffffffffffffffffffffffffffffffffffffffffffffffffffffffffffffffff821415611a7f57611a7e611a8a565b5b600182019050919050565b7f4e487b7100000000000000000000000000000000000000000000000000000000600052601160045260246000fd5b7f4e487b7100000000000000000000000000000000000000000000000000000000600052601260045260246000fd5b7f4e487b7100000000000000000000000000000000000000000000000000000000600052604160045260246000fd5b6000601f19601f8301169050919050565b7f537472696e67733a20686578206c656e67746820696e73756666696369656e74600082015250565b7f416363657373436f6e74726f6c50726f78795061757361626c653a206163636f60008201527f756e742000000000000000000000000000000000000000000000000000000000602082015250565b7f5061757361626c653a206e6f7420706175736564000000000000000000000000600082015250565b7f547574656c6c7573486f6c646572735661756c743a206d696e7465642065786360008201527f65656473206c696d697400000000000000000000000000000000000000000000602082015250565b7f5061757361626c653a2070617573656400000000000000000000000000000000600082015250565b7f547574656c6c7573486f6c646572735661756c743a206e6f20617661696c616260008201527f6c6520746f6b656e730000000000000000000000000000000000000000000000602082015250565b7f206973206d697373696e6720726f6c6520000000000000000000000000000000600082015250565b611cc281611961565b8114611ccd57600080fd5b50565b611cd981611973565b8114611ce457600080fd5b50565b611cf08161197f565b8114611cfb57600080fd5b50565b611d07816119a9565b8114611d1257600080fd5b5056fea2646970667358221220dc462dbcae74070c98d5034cd02feebdf029c5b417cf4bcd0ee300b2e80899c564736f6c6343000802003360806040523480156200001157600080fd5b50604051620030593803806200305983398181016040528101906200003791906200088c565b6200004c85858585856200005760201b60201c565b505050505062000df3565b600060019054906101000a900460ff16806200007e575060008054906101000a900460ff16155b620000c0576040517f08c379a0000000000000000000000000000000000000000000000000000000008152600401620000b7906200096d565b60405180910390fd5b60008060019054906101000a900460ff16159050801562000111576001600060016101000a81548160ff02191690831515021790555060016000806101000a81548160ff0219169083151502179055505b62000122866200016060201b60201c565b62000136858585856200026160201b60201c565b8015620001585760008060016101000a81548160ff0219169083151502179055505b505050505050565b600060019054906101000a900460ff168062000187575060008054906101000a900460ff16155b620001c9576040517f08c379a0000000000000000000000000000000000000000000000000000000008152600401620001c0906200096d565b60405180910390fd5b60008060019054906101000a900460ff1615905080156200021a576001600060016101000a81548160ff02191690831515021790555060016000806101000a81548160ff0219169083151502179055505b6200022a6200046560201b60201c565b6200023b826200056460201b60201c565b80156200025d5760008060016101000a81548160ff0219169083151502179055505b5050565b600060019054906101000a900460ff168062000288575060008054906101000a900460ff16155b620002ca576040517f08c379a0000000000000000000000000000000000000000000000000000000008152600401620002c1906200096d565b60405180910390fd5b60008060019054906101000a900460ff1615905080156200031b576001600060016101000a81548160ff02191690831515021790555060016000806101000a81548160ff0219169083151502179055505b82821162000360576040517f08c379a000000000000000000000000000000000000000000000000000000000815260040162000357906200098f565b60405180910390fd5b84607060006101000a81548173ffffffffffffffffffffffffffffffffffffffff021916908373ffffffffffffffffffffffffffffffffffffffff16021790555082606c8190555081606d8190555060008383620003bf919062000c30565b9050600281620003d0919062000a92565b856002620003df919062000bcf565b620003eb9190620009ff565b606e8190555043606b819055507ff1bd4f3fcb4e0b193abc7e4002c0284e25086269a02de2e4c52045a91f647037606c54606d54606e546040516200043393929190620009b1565b60405180910390a15080156200045e5760008060016101000a81548160ff0219169083151502179055505b5050505050565b600060019054906101000a900460ff16806200048c575060008054906101000a900460ff16155b620004ce576040517f08c379a0000000000000000000000000000000000000000000000000000000008152600401620004c5906200096d565b60405180910390fd5b60008060019054906101000a900460ff1615905080156200051f576001600060016101000a81548160ff02191690831515021790555060016000806101000a81548160ff0219169083151502179055505b6200052f6200068560201b60201c565b6200053f6200076460201b60201c565b8015620005615760008060016101000a81548160ff0219169083151502179055505b50565b600060019054906101000a900460ff16806200058b575060008054906101000a900460ff16155b620005cd576040517f08c379a0000000000000000000000000000000000000000000000000000000008152600401620005c4906200096d565b60405180910390fd5b60008060019054906101000a900460ff1615905080156200061e576001600060016101000a81548160ff02191690831515021790555060016000806101000a81548160ff0219169083151502179055505b81606560006101000a81548173ffffffffffffffffffffffffffffffffffffffff021916908373ffffffffffffffffffffffffffffffffffffffff1602179055508015620006815760008060016101000a81548160ff0219169083151502179055505b5050565b600060019054906101000a900460ff1680620006ac575060008054906101000a900460ff16155b620006ee576040517f08c379a0000000000000000000000000000000000000000000000000000000008152600401620006e5906200096d565b60405180910390fd5b60008060019054906101000a900460ff1615905080156200073f576001600060016101000a81548160ff02191690831515021790555060016000806101000a81548160ff0219169083151502179055505b8015620007615760008060016101000a81548160ff0219169083151502179055505b50565b600060019054906101000a900460ff16806200078b575060008054906101000a900460ff16155b620007cd576040517f08c379a0000000000000000000000000000000000000000000000000000000008152600401620007c4906200096d565b60405180910390fd5b60008060019054906101000a900460ff1615905080156200081e576001600060016101000a81548160ff02191690831515021790555060016000806101000a81548160ff0219169083151502179055505b6000603360006101000a81548160ff02191690831515021790555080156200085b5760008060016101000a81548160ff0219169083151502179055505b50565b6000815190506200086f8162000dbf565b92915050565b600081519050620008868162000dd9565b92915050565b600080600080600060a08688031215620008a557600080fd5b6000620008b5888289016200085e565b9550506020620008c8888289016200085e565b9450506040620008db8882890162000875565b9350506060620008ee8882890162000875565b9250506080620009018882890162000875565b9150509295509295909350565b60006200091d602e83620009ee565b91506200092a8262000d21565b604082019050919050565b600062000944603383620009ee565b9150620009518262000d70565b604082019050919050565b620009678162000c9f565b82525050565b6000602082019050818103600083015262000988816200090e565b9050919050565b60006020820190508181036000830152620009aa8162000935565b9050919050565b6000606082019050620009c860008301866200095c565b620009d760208301856200095c565b620009e660408301846200095c565b949350505050565b600082825260208201905092915050565b600062000a0c8262000c9f565b915062000a198362000c9f565b92508262000a2c5762000a2b62000ce5565b5b828204905092915050565b6000808291508390505b600185111562000a895780860481111562000a615762000a6062000cb6565b5b600185161562000a715780820291505b808102905062000a818562000d14565b945062000a41565b94509492505050565b600062000a9f8262000c9f565b915062000aac8362000ca9565b925062000adb7fffffffffffffffffffffffffffffffffffffffffffffffffffffffffffffffff848462000ae3565b905092915050565b60008262000af5576001905062000bc8565b8162000b05576000905062000bc8565b816001811462000b1e576002811462000b295762000b5f565b600191505062000bc8565b60ff84111562000b3e5762000b3d62000cb6565b5b8360020a91508482111562000b585762000b5762000cb6565b5b5062000bc8565b5060208310610133831016604e8410600b841016171562000b995782820a90508381111562000b935762000b9262000cb6565b5b62000bc8565b62000ba8848484600162000a37565b9250905081840481111562000bc25762000bc162000cb6565b5b81810290505b9392505050565b600062000bdc8262000c9f565b915062000be98362000c9f565b9250817fffffffffffffffffffffffffffffffffffffffffffffffffffffffffffffffff048311821515161562000c255762000c2462000cb6565b5b828202905092915050565b600062000c3d8262000c9f565b915062000c4a8362000c9f565b92508282101562000c605762000c5f62000cb6565b5b828203905092915050565b600062000c788262000c7f565b9050919050565b600073ffffffffffffffffffffffffffffffffffffffff82169050919050565b6000819050919050565b600060ff82169050919050565b7f4e487b7100000000000000000000000000000000000000000000000000000000600052601160045260246000fd5b7f4e487b7100000000000000000000000000000000000000000000000000000000600052601260045260246000fd5b60008160011c9050919050565b7f496e697469616c697a61626c653a20636f6e747261637420697320616c72656160008201527f647920696e697469616c697a6564000000000000000000000000000000000000602082015250565b7f547574656c6c7573526577617264735661756c743a20737461727420626c6f6360008201527f6b206578636565647320656e6420626c6f636b00000000000000000000000000602082015250565b62000dca8162000c6b565b811462000dd657600080fd5b50565b62000de48162000c9f565b811462000df057600080fd5b50565b6122568062000e036000396000f3fe608060405234801561001057600080fd5b506004361061010b5760003560e01c80636867aac5116100a2578063a217fddf11610071578063a217fddf14610280578063ae7928bf1461029e578063cccc9a92146102ce578063e63ab1e9146102ea578063fc0c546a146103085761010b565b80636867aac5146101f85780638456cb591461022857806391d148541461023257806396132521146102625761010b565b80633f4ba83a116100de5780633f4ba83a1461019657806348cd4cb1146101a057806358aba00f146101be5780635c975abb146101da5761010b565b8063083c632314610110578063158a49881461012e5780631d444d301461014a57806337cb9e671461017a575b600080fd5b610118610326565b6040516101259190611a3c565b60405180910390f35b61014860048036038101906101439190611480565b610330565b005b610164600480360381019061015f9190611403565b6104d9565b6040516101719190611a3c565b60405180910390f35b610194600480360381019061018f91906114bc565b610548565b005b61019e6107df565b005b6101a86108ac565b6040516101b59190611a3c565b60405180910390f35b6101d860048036038101906101d39190611403565b6108b6565b005b6101e26109a0565b6040516101ef91906118db565b60405180910390f35b610212600480360381019061020d9190611562565b6109b7565b60405161021f9190611a3c565b60405180910390f35b610230610a9e565b005b61024c60048036038101906102479190611526565b610b6b565b60405161025991906118db565b60405180910390f35b61026a610c27565b6040516102779190611a3c565b60405180910390f35b610288610c3a565b60405161029591906118f6565b60405180910390f35b6102b860048036038101906102b39190611403565b610c41565b6040516102c59190611a3c565b60405180910390f35b6102e860048036038101906102e3919061142c565b610cea565b005b6102f2610e88565b6040516102ff91906118f6565b60405180910390f35b610310610eac565b60405161031d919061183e565b60405180910390f35b6000606d54905090565b610339826104d9565b81111561037b576040517f08c379a00000000000000000000000000000000000000000000000000000000081526004016103729061199c565b60405180910390fd5b80606a6000606660003373ffffffffffffffffffffffffffffffffffffffff1673ffffffffffffffffffffffffffffffffffffffff16815260200190815260200160002054815260200190815260200160002060008282546103dd9190611b08565b925050819055506000607060009054906101000a900473ffffffffffffffffffffffffffffffffffffffff1690508073ffffffffffffffffffffffffffffffffffffffff1663a9059cbb84846040518363ffffffff1660e01b8152600401610446929190611890565b602060405180830381600087803b15801561046057600080fd5b505af1158015610474573d6000803e3d6000fd5b505050506040513d601f19601f8201168201806040525081019061049891906114fd565b507f94c0ac970a66c6e8a58afdcd954f63d508e147b98e6f8b803e5c8c37dab11c853384846040516104cc93929190611859565b60405180910390a1505050565b6000606a6000606660008573ffffffffffffffffffffffffffffffffffffffff1673ffffffffffffffffffffffffffffffffffffffff1681526020019081526020016000205481526020019081526020016000205461053783610c41565b6105419190611d5a565b9050919050565b6000801b600033905061055b8282610b6b565b61057c8273ffffffffffffffffffffffffffffffffffffffff166014610ed2565b61058a8460001c6020610ed2565b60405160200161059b929190611804565b604051602081830303815290604052906105eb576040517f08c379a00000000000000000000000000000000000000000000000000000000081526004016105e2919061193a565b60405180910390fd5b5060008084519050606f548114610637576040517f08c379a000000000000000000000000000000000000000000000000000000000815260040161062e906119bc565b60405180910390fd5b60005b8181101561074e5761067e6067600083815260200190815260200160002060009054906101000a900473ffffffffffffffffffffffffffffffffffffffff16610c41565b60696000838152602001908152602001600020819055508581815181106106ce577f4e487b7100000000000000000000000000000000000000000000000000000000600052603260045260246000fd5b60200260200101516068600083815260200190815260200160002081905550858181518110610726577f4e487b7100000000000000000000000000000000000000000000000000000000600052603260045260246000fd5b6020026020010151836107399190611b08565b9250808061074690611e7b565b91505061063a565b5043606b8190555068056bc75e2d6310000082146107a1576040517f08c379a000000000000000000000000000000000000000000000000000000000815260040161079890611a1c565b60405180910390fd5b7ff33f61b2dd1b74358b2cd80adfa809a090f0e0b0f7e4b6e408b4994f31b073fc856040516107d091906118b9565b60405180910390a15050505050565b7f65d7a28e3265b37a6474929f336521b332c1681b933f6cb9f3376673440d862a600033905061080f8282610b6b565b6108308273ffffffffffffffffffffffffffffffffffffffff166014610ed2565b61083e8460001c6020610ed2565b60405160200161084f929190611804565b6040516020818303038152906040529061089f576040517f08c379a0000000000000000000000000000000000000000000000000000000008152600401610896919061193a565b60405180910390fd5b506108a86111cc565b5050565b6000606c54905090565b6000801b60003390506108c98282610b6b565b6108ea8273ffffffffffffffffffffffffffffffffffffffff166014610ed2565b6108f88460001c6020610ed2565b604051602001610909929190611804565b60405160208183030381529060405290610959576040517f08c379a0000000000000000000000000000000000000000000000000000000008152600401610950919061193a565b60405180910390fd5b5082606560006101000a81548173ffffffffffffffffffffffffffffffffffffffff021916908373ffffffffffffffffffffffffffffffffffffffff160217905550505050565b6000603360009054906101000a900460ff16905090565b6000818311156109fc576040517f08c379a00000000000000000000000000000000000000000000000000000000081526004016109f3906119fc565b60405180910390fd5b606d54821115610a0c57606d5491505b606c54831015610a1c57606c5492505b6000600280606c5485610a2f9190611d5a565b610a399190611be2565b606e54610a469190611d00565b610a509190611b5e565b90506000600280606c5487610a659190611d5a565b610a6f9190611be2565b606e54610a7c9190611d00565b610a869190611b5e565b90508082610a949190611d5a565b9250505092915050565b7f65d7a28e3265b37a6474929f336521b332c1681b933f6cb9f3376673440d862a6000339050610ace8282610b6b565b610aef8273ffffffffffffffffffffffffffffffffffffffff166014610ed2565b610afd8460001c6020610ed2565b604051602001610b0e929190611804565b60405160208183030381529060405290610b5e576040517f08c379a0000000000000000000000000000000000000000000000000000000008152600401610b55919061193a565b60405180910390fd5b50610b6761126e565b5050565b600080606560009054906101000a900473ffffffffffffffffffffffffffffffffffffffff1690508073ffffffffffffffffffffffffffffffffffffffff166391d1485485856040518363ffffffff1660e01b8152600401610bce929190611911565b60206040518083038186803b158015610be657600080fd5b505afa158015610bfa573d6000803e3d6000fd5b505050506040513d601f19601f82011682018060405250810190610c1e91906114fd565b91505092915050565b6000610c35606c54436109b7565b905090565b6000801b81565b600080606660008473ffffffffffffffffffffffffffffffffffffffff1673ffffffffffffffffffffffffffffffffffffffff16815260200190815260200160002054905068056bc75e2d631000006068600083815260200190815260200160002054610cb0606b54436109b7565b610cba9190611d00565b610cc49190611b5e565b6069600083815260200190815260200160002054610ce29190611b08565b915050919050565b6000801b6000339050610cfd8282610b6b565b610d1e8273ffffffffffffffffffffffffffffffffffffffff166014610ed2565b610d2c8460001c6020610ed2565b604051602001610d3d929190611804565b60405160208183030381529060405290610d8d576040517f08c379a0000000000000000000000000000000000000000000000000000000008152600401610d84919061193a565b60405180910390fd5b50606f54606660008673ffffffffffffffffffffffffffffffffffffffff1673ffffffffffffffffffffffffffffffffffffffff168152602001908152602001600020819055508360676000606f54815260200190815260200160002060006101000a81548173ffffffffffffffffffffffffffffffffffffffff021916908373ffffffffffffffffffffffffffffffffffffffff1602179055506001606f6000828254610e3b9190611b08565b92505081905550610e4b83610548565b7f3e67e6407255879d31ea937ba6e59eb404ec7c3e4e9381c8a64b426a1d78545e84604051610e7a919061183e565b60405180910390a150505050565b7f65d7a28e3265b37a6474929f336521b332c1681b933f6cb9f3376673440d862a81565b607060009054906101000a900473ffffffffffffffffffffffffffffffffffffffff1681565b606060006002836002610ee59190611d00565b610eef9190611b08565b67ffffffffffffffff811115610f2e577f4e487b7100000000000000000000000000000000000000000000000000000000600052604160045260246000fd5b6040519080825280601f01601f191660200182016040528015610f605781602001600182028036833780820191505090505b5090507f300000000000000000000000000000000000000000000000000000000000000081600081518110610fbe577f4e487b7100000000000000000000000000000000000000000000000000000000600052603260045260246000fd5b60200101907effffffffffffffffffffffffffffffffffffffffffffffffffffffffffffff1916908160001a9053507f780000000000000000000000000000000000000000000000000000000000000081600181518110611048577f4e487b7100000000000000000000000000000000000000000000000000000000600052603260045260246000fd5b60200101907effffffffffffffffffffffffffffffffffffffffffffffffffffffffffffff1916908160001a905350600060018460026110889190611d00565b6110929190611b08565b90505b600181111561117e577f3031323334353637383961626364656600000000000000000000000000000000600f8616601081106110fa577f4e487b7100000000000000000000000000000000000000000000000000000000600052603260045260246000fd5b1a60f81b828281518110611137577f4e487b7100000000000000000000000000000000000000000000000000000000600052603260045260246000fd5b60200101907effffffffffffffffffffffffffffffffffffffffffffffffffffffffffffff1916908160001a905350600485901c94508061117790611e20565b9050611095565b50600084146111c2576040517f08c379a00000000000000000000000000000000000000000000000000000000081526004016111b99061195c565b60405180910390fd5b8091505092915050565b6111d46109a0565b611213576040517f08c379a000000000000000000000000000000000000000000000000000000000815260040161120a9061197c565b60405180910390fd5b6000603360006101000a81548160ff0219169083151502179055507f5db9ee0a495bf2e6ff9c91a7834c1ba4fdd244a5e8aa4e537bd38aeae4b073aa611257611311565b604051611264919061183e565b60405180910390a1565b6112766109a0565b156112b6576040517f08c379a00000000000000000000000000000000000000000000000000000000081526004016112ad906119dc565b60405180910390fd5b6001603360006101000a81548160ff0219169083151502179055507f62e78cea01bee320cd4e420270b5ea74000d11b0c9f74754ebdbfc544b05a2586112fa611311565b604051611307919061183e565b60405180910390a1565b600033905090565b600061132c61132784611a7c565b611a57565b9050808382526020820190508285602086028201111561134b57600080fd5b60005b8581101561137b578161136188826113ee565b84526020840193506020830192505060018101905061134e565b5050509392505050565b600081359050611394816121c4565b92915050565b600082601f8301126113ab57600080fd5b81356113bb848260208601611319565b91505092915050565b6000815190506113d3816121db565b92915050565b6000813590506113e8816121f2565b92915050565b6000813590506113fd81612209565b92915050565b60006020828403121561141557600080fd5b600061142384828501611385565b91505092915050565b6000806040838503121561143f57600080fd5b600061144d85828601611385565b925050602083013567ffffffffffffffff81111561146a57600080fd5b6114768582860161139a565b9150509250929050565b6000806040838503121561149357600080fd5b60006114a185828601611385565b92505060206114b2858286016113ee565b9150509250929050565b6000602082840312156114ce57600080fd5b600082013567ffffffffffffffff8111156114e857600080fd5b6114f48482850161139a565b91505092915050565b60006020828403121561150f57600080fd5b600061151d848285016113c4565b91505092915050565b6000806040838503121561153957600080fd5b6000611547858286016113d9565b925050602061155885828601611385565b9150509250929050565b6000806040838503121561157557600080fd5b6000611583858286016113ee565b9250506020611594858286016113ee565b9150509250929050565b60006115aa83836117e6565b60208301905092915050565b6115bf81611d8e565b82525050565b60006115d082611ab8565b6115da8185611adb565b93506115e583611aa8565b8060005b838110156116165781516115fd888261159e565b975061160883611ace565b9250506001810190506115e9565b5085935050505092915050565b61162c81611da0565b82525050565b61163b81611dac565b82525050565b600061164c82611ac3565b6116568185611aec565b9350611666818560208601611ded565b61166f81611f51565b840191505092915050565b600061168582611ac3565b61168f8185611afd565b935061169f818560208601611ded565b80840191505092915050565b60006116b8602083611aec565b91506116c382611f6f565b602082019050919050565b60006116db602483611afd565b91506116e682611f98565b602482019050919050565b60006116fe601483611aec565b915061170982611fe7565b602082019050919050565b6000611721602e83611aec565b915061172c82612010565b604082019050919050565b6000611744605283611aec565b915061174f8261205f565b606082019050919050565b6000611767601083611aec565b9150611772826120d4565b602082019050919050565b600061178a602a83611aec565b9150611795826120fd565b604082019050919050565b60006117ad603383611aec565b91506117b88261214c565b604082019050919050565b60006117d0601183611afd565b91506117db8261219b565b601182019050919050565b6117ef81611dd6565b82525050565b6117fe81611dd6565b82525050565b600061180f826116ce565b915061181b828561167a565b9150611826826117c3565b9150611832828461167a565b91508190509392505050565b600060208201905061185360008301846115b6565b92915050565b600060608201905061186e60008301866115b6565b61187b60208301856115b6565b61188860408301846117f5565b949350505050565b60006040820190506118a560008301856115b6565b6118b260208301846117f5565b9392505050565b600060208201905081810360008301526118d381846115c5565b905092915050565b60006020820190506118f06000830184611623565b92915050565b600060208201905061190b6000830184611632565b92915050565b60006040820190506119266000830185611632565b61193360208301846115b6565b9392505050565b600060208201905081810360008301526119548184611641565b905092915050565b60006020820190508181036000830152611975816116ab565b9050919050565b60006020820190508181036000830152611995816116f1565b9050919050565b600060208201905081810360008301526119b581611714565b9050919050565b600060208201905081810360008301526119d581611737565b9050919050565b600060208201905081810360008301526119f58161175a565b9050919050565b60006020820190508181036000830152611a158161177d565b9050919050565b60006020820190508181036000830152611a35816117a0565b9050919050565b6000602082019050611a5160008301846117f5565b92915050565b6000611a61611a72565b9050611a6d8282611e4a565b919050565b6000604051905090565b600067ffffffffffffffff821115611a9757611a96611f22565b5b602082029050602081019050919050565b6000819050602082019050919050565b600081519050919050565b600081519050919050565b6000602082019050919050565b600082825260208201905092915050565b600082825260208201905092915050565b600081905092915050565b6000611b1382611dd6565b9150611b1e83611dd6565b9250827fffffffffffffffffffffffffffffffffffffffffffffffffffffffffffffffff03821115611b5357611b52611ec4565b5b828201905092915050565b6000611b6982611dd6565b9150611b7483611dd6565b925082611b8457611b83611ef3565b5b828204905092915050565b6000808291508390505b6001851115611bd957808604811115611bb557611bb4611ec4565b5b6001851615611bc45780820291505b8081029050611bd285611f62565b9450611b99565b94509492505050565b6000611bed82611dd6565b9150611bf883611de0565b9250611c257fffffffffffffffffffffffffffffffffffffffffffffffffffffffffffffffff8484611c2d565b905092915050565b600082611c3d5760019050611cf9565b81611c4b5760009050611cf9565b8160018114611c615760028114611c6b57611c9a565b6001915050611cf9565b60ff841115611c7d57611c7c611ec4565b5b8360020a915084821115611c9457611c93611ec4565b5b50611cf9565b5060208310610133831016604e8410600b8410161715611ccf5782820a905083811115611cca57611cc9611ec4565b5b611cf9565b611cdc8484846001611b8f565b92509050818404811115611cf357611cf2611ec4565b5b81810290505b9392505050565b6000611d0b82611dd6565b9150611d1683611dd6565b9250817fffffffffffffffffffffffffffffffffffffffffffffffffffffffffffffffff0483118215151615611d4f57611d4e611ec4565b5b828202905092915050565b6000611d6582611dd6565b9150611d7083611dd6565b925082821015611d8357611d82611ec4565b5b828203905092915050565b6000611d9982611db6565b9050919050565b60008115159050919050565b6000819050919050565b600073ffffffffffffffffffffffffffffffffffffffff82169050919050565b6000819050919050565b600060ff82169050919050565b60005b83811015611e0b578082015181840152602081019050611df0565b83811115611e1a576000848401525b50505050565b6000611e2b82611dd6565b91506000821415611e3f57611e3e611ec4565b5b600182039050919050565b611e5382611f51565b810181811067ffffffffffffffff82111715611e7257611e71611f22565b5b80604052505050565b6000611e8682611dd6565b91507fffffffffffffffffffffffffffffffffffffffffffffffffffffffffffffffff821415611eb957611eb8611ec4565b5b600182019050919050565b7f4e487b7100000000000000000000000000000000000000000000000000000000600052601160045260246000fd5b7f4e487b7100000000000000000000000000000000000000000000000000000000600052601260045260246000fd5b7f4e487b7100000000000000000000000000000000000000000000000000000000600052604160045260246000fd5b6000601f19601f8301169050919050565b60008160011c9050919050565b7f537472696e67733a20686578206c656e67746820696e73756666696369656e74600082015250565b7f416363657373436f6e74726f6c50726f78795061757361626c653a206163636f60008201527f756e742000000000000000000000000000000000000000000000000000000000602082015250565b7f5061757361626c653a206e6f7420706175736564000000000000000000000000600082015250565b7f547574656c6c7573526577617264735661756c743a20616d6f756e742065786360008201527f6565647320617661696c61626c65000000000000000000000000000000000000602082015250565b7f547574656c6c7573526577617264735661756c743a20616c6c6f636174696f6e60008201527f206172726179206d75737420686176652073616d65206c656e6774682061732060208201527f6e756d626572206f66206163636f756e74730000000000000000000000000000604082015250565b7f5061757361626c653a2070617573656400000000000000000000000000000000600082015250565b7f547574656c6c7573526577617264735661756c743a207b66726f6d7d2069732060008201527f6166746572207b746f7d00000000000000000000000000000000000000000000602082015250565b7f547574656c6c7573526577617264735661756c743a20746f74616c20616c6c6f60008201527f636174696f6e206d757374206265203165323000000000000000000000000000602082015250565b7f206973206d697373696e6720726f6c6520000000000000000000000000000000600082015250565b6121cd81611d8e565b81146121d857600080fd5b50565b6121e481611da0565b81146121ef57600080fd5b50565b6121fb81611dac565b811461220657600080fd5b50565b61221281611dd6565b811461221d57600080fd5b5056fea2646970667358221220ad44beffe3cfde8dbf6bd6b13399b87d1bd77ffda348e161fe6b1537919b3d0c64736f6c6343000802003360806040523480156200001157600080fd5b50604051620026d2380380620026d2833981810160405281019062000037919062000786565b6200004982826200005160201b60201c565b5050620008be565b600060019054906101000a900460ff168062000078575060008054906101000a900460ff16155b620000ba576040517f08c379a0000000000000000000000000000000000000000000000000000000008152600401620000b190620007ee565b60405180910390fd5b60008060019054906101000a900460ff1615905080156200010b576001600060016101000a81548160ff02191690831515021790555060016000806101000a81548160ff0219169083151502179055505b6200011c836200015460201b60201c565b6200012d826200025560201b60201c565b80156200014f5760008060016101000a81548160ff0219169083151502179055505b505050565b600060019054906101000a900460ff16806200017b575060008054906101000a900460ff16155b620001bd576040517f08c379a0000000000000000000000000000000000000000000000000000000008152600401620001b490620007ee565b60405180910390fd5b60008060019054906101000a900460ff1615905080156200020e576001600060016101000a81548160ff02191690831515021790555060016000806101000a81548160ff0219169083151502179055505b6200021e6200037660201b60201c565b6200022f826200047560201b60201c565b8015620002515760008060016101000a81548160ff0219169083151502179055505b5050565b600060019054906101000a900460ff16806200027c575060008054906101000a900460ff16155b620002be576040517f08c379a0000000000000000000000000000000000000000000000000000000008152600401620002b590620007ee565b60405180910390fd5b60008060019054906101000a900460ff1615905080156200030f576001600060016101000a81548160ff02191690831515021790555060016000806101000a81548160ff0219169083151502179055505b81606660006101000a81548173ffffffffffffffffffffffffffffffffffffffff021916908373ffffffffffffffffffffffffffffffffffffffff1602179055508015620003725760008060016101000a81548160ff0219169083151502179055505b5050565b600060019054906101000a900460ff16806200039d575060008054906101000a900460ff16155b620003df576040517f08c379a0000000000000000000000000000000000000000000000000000000008152600401620003d690620007ee565b60405180910390fd5b60008060019054906101000a900460ff16159050801562000430576001600060016101000a81548160ff02191690831515021790555060016000806101000a81548160ff0219169083151502179055505b620004406200059660201b60201c565b620004506200067560201b60201c565b8015620004725760008060016101000a81548160ff0219169083151502179055505b50565b600060019054906101000a900460ff16806200049c575060008054906101000a900460ff16155b620004de576040517f08c379a0000000000000000000000000000000000000000000000000000000008152600401620004d590620007ee565b60405180910390fd5b60008060019054906101000a900460ff1615905080156200052f576001600060016101000a81548160ff02191690831515021790555060016000806101000a81548160ff0219169083151502179055505b81606560006101000a81548173ffffffffffffffffffffffffffffffffffffffff021916908373ffffffffffffffffffffffffffffffffffffffff1602179055508015620005925760008060016101000a81548160ff0219169083151502179055505b5050565b600060019054906101000a900460ff1680620005bd575060008054906101000a900460ff16155b620005ff576040517f08c379a0000000000000000000000000000000000000000000000000000000008152600401620005f690620007ee565b60405180910390fd5b60008060019054906101000a900460ff16159050801562000650576001600060016101000a81548160ff02191690831515021790555060016000806101000a81548160ff0219169083151502179055505b8015620006725760008060016101000a81548160ff0219169083151502179055505b50565b600060019054906101000a900460ff16806200069c575060008054906101000a900460ff16155b620006de576040517f08c379a0000000000000000000000000000000000000000000000000000000008152600401620006d590620007ee565b60405180910390fd5b60008060019054906101000a900460ff1615905080156200072f576001600060016101000a81548160ff02191690831515021790555060016000806101000a81548160ff0219169083151502179055505b6000603360006101000a81548160ff02191690831515021790555080156200076c5760008060016101000a81548160ff0219169083151502179055505b50565b6000815190506200078081620008a4565b92915050565b600080604083850312156200079a57600080fd5b6000620007aa858286016200076f565b9250506020620007bd858286016200076f565b9150509250929050565b6000620007d6602e8362000810565b9150620007e38262000855565b604082019050919050565b600060208201905081810360008301526200080981620007c7565b9050919050565b600082825260208201905092915050565b60006200082e8262000835565b9050919050565b600073ffffffffffffffffffffffffffffffffffffffff82169050919050565b7f496e697469616c697a61626c653a20636f6e747261637420697320616c72656160008201527f647920696e697469616c697a6564000000000000000000000000000000000000602082015250565b620008af8162000821565b8114620008bb57600080fd5b50565b611e0480620008ce6000396000f3fe608060405234801561001057600080fd5b50600436106100ea5760003560e01c806391d148541161008c578063e63ab1e911610066578063e63ab1e914610211578063eac989f81461022f578063f54b893b1461024d578063fc0c546a1461027d576100ea565b806391d14854146101a7578063a217fddf146101d7578063e48034b5146101f5576100ea565b8063510eff4c116100c8578063510eff4c1461013357806358aba00f146101635780635c975abb1461017f5780638456cb591461019d576100ea565b80632e7ba6ef146100ef5780632eb4a7ab1461010b5780633f4ba83a14610129575b600080fd5b610109600480360381019061010491906112b4565b61029b565b005b610113610486565b6040516101209190611696565b60405180910390f35b61013161048c565b005b61014d600480360381019061014891906112b4565b610559565b60405161015a91906117cc565b60405180910390f35b61017d600480360381019061017891906111d2565b610650565b005b61018761073a565b604051610194919061167b565b60405180910390f35b6101a5610751565b005b6101c160048036038101906101bc9190611224565b61081e565b6040516101ce919061167b565b60405180910390f35b6101df6108da565b6040516101ec9190611696565b60405180910390f35b61020f600480360381019061020a9190611260565b6108e1565b005b6102196109e5565b6040516102269190611696565b60405180910390f35b610237610a09565b604051610244919061170a565b60405180910390f35b610267600480360381019061026291906111d2565b610a97565b60405161027491906117cc565b60405180910390f35b610285610ae0565b6040516102929190611637565b60405180910390f35b6102a361073a565b156102e3576040517f08c379a00000000000000000000000000000000000000000000000000000000081526004016102da9061178c565b60405180910390fd5b60006102f28686868686610559565b905060008111610337576040517f08c379a000000000000000000000000000000000000000000000000000000000815260040161032e906117ac565b60405180910390fd5b80606960008773ffffffffffffffffffffffffffffffffffffffff1673ffffffffffffffffffffffffffffffffffffffff168152602001908152602001600020600082825461038691906118b0565b925050819055506000606660009054906101000a900473ffffffffffffffffffffffffffffffffffffffff1690508073ffffffffffffffffffffffffffffffffffffffff1663a9059cbb87876040518363ffffffff1660e01b81526004016103ef929190611652565b602060405180830381600087803b15801561040957600080fd5b505af115801561041d573d6000803e3d6000fd5b505050506040513d601f19601f8201168201806040525081019061044191906111fb565b507f4ec90e965519d92681267467f775ada5bd214aa92c0dc93d90a5e880ce9ed026878784604051610475939291906117e7565b60405180910390a150505050505050565b60675481565b7f65d7a28e3265b37a6474929f336521b332c1681b933f6cb9f3376673440d862a60003390506104bc828261081e565b6104dd8273ffffffffffffffffffffffffffffffffffffffff166014610b06565b6104eb8460001c6020610b06565b6040516020016104fc9291906115c0565b6040516020818303038152906040529061054c576040517f08c379a0000000000000000000000000000000000000000000000000000000008152600401610543919061170a565b60405180910390fd5b50610555610e00565b5050565b600080868686604051602001610571939291906115fa565b6040516020818303038152906040528051906020012090506105d7848480806020026020016040519081016040528093929190818152602001838360200280828437600081840152601f19601f8201169050808301925050505050505060675483610ea2565b610616576040517f08c379a000000000000000000000000000000000000000000000000000000000815260040161060d9061176c565b60405180910390fd5b600061062187610a97565b9050808611156106405780866106379190611960565b92505050610647565b6000925050505b95945050505050565b6000801b6000339050610663828261081e565b6106848273ffffffffffffffffffffffffffffffffffffffff166014610b06565b6106928460001c6020610b06565b6040516020016106a39291906115c0565b604051602081830303815290604052906106f3576040517f08c379a00000000000000000000000000000000000000000000000000000000081526004016106ea919061170a565b60405180910390fd5b5082606560006101000a81548173ffffffffffffffffffffffffffffffffffffffff021916908373ffffffffffffffffffffffffffffffffffffffff160217905550505050565b6000603360009054906101000a900460ff16905090565b7f65d7a28e3265b37a6474929f336521b332c1681b933f6cb9f3376673440d862a6000339050610781828261081e565b6107a28273ffffffffffffffffffffffffffffffffffffffff166014610b06565b6107b08460001c6020610b06565b6040516020016107c19291906115c0565b60405160208183030381529060405290610811576040517f08c379a0000000000000000000000000000000000000000000000000000000008152600401610808919061170a565b60405180910390fd5b5061081a610f7e565b5050565b600080606560009054906101000a900473ffffffffffffffffffffffffffffffffffffffff1690508073ffffffffffffffffffffffffffffffffffffffff166391d1485485856040518363ffffffff1660e01b81526004016108819291906116b1565b60206040518083038186803b15801561089957600080fd5b505afa1580156108ad573d6000803e3d6000fd5b505050506040513d601f19601f820116820180604052508101906108d191906111fb565b91505092915050565b6000801b81565b6000801b60003390506108f4828261081e565b6109158273ffffffffffffffffffffffffffffffffffffffff166014610b06565b6109238460001c6020610b06565b6040516020016109349291906115c0565b60405160208183030381529060405290610984576040517f08c379a000000000000000000000000000000000000000000000000000000000815260040161097b919061170a565b60405180910390fd5b508360678190555082606890805190602001906109a2929190611029565b507fdc6ef77e1e729c09277287d1224cc0b4fd2053bbcca61a8febb80e461803247860675460686040516109d79291906116da565b60405180910390a150505050565b7f65d7a28e3265b37a6474929f336521b332c1681b933f6cb9f3376673440d862a81565b60688054610a1690611a52565b80601f0160208091040260200160405190810160405280929190818152602001828054610a4290611a52565b8015610a8f5780601f10610a6457610100808354040283529160200191610a8f565b820191906000526020600020905b815481529060010190602001808311610a7257829003601f168201915b505050505081565b6000606960008373ffffffffffffffffffffffffffffffffffffffff1673ffffffffffffffffffffffffffffffffffffffff168152602001908152602001600020549050919050565b606660009054906101000a900473ffffffffffffffffffffffffffffffffffffffff1681565b606060006002836002610b199190611906565b610b2391906118b0565b67ffffffffffffffff811115610b62577f4e487b7100000000000000000000000000000000000000000000000000000000600052604160045260246000fd5b6040519080825280601f01601f191660200182016040528015610b945781602001600182028036833780820191505090505b5090507f300000000000000000000000000000000000000000000000000000000000000081600081518110610bf2577f4e487b7100000000000000000000000000000000000000000000000000000000600052603260045260246000fd5b60200101907effffffffffffffffffffffffffffffffffffffffffffffffffffffffffffff1916908160001a9053507f780000000000000000000000000000000000000000000000000000000000000081600181518110610c7c577f4e487b7100000000000000000000000000000000000000000000000000000000600052603260045260246000fd5b60200101907effffffffffffffffffffffffffffffffffffffffffffffffffffffffffffff1916908160001a90535060006001846002610cbc9190611906565b610cc691906118b0565b90505b6001811115610db2577f3031323334353637383961626364656600000000000000000000000000000000600f861660108110610d2e577f4e487b7100000000000000000000000000000000000000000000000000000000600052603260045260246000fd5b1a60f81b828281518110610d6b577f4e487b7100000000000000000000000000000000000000000000000000000000600052603260045260246000fd5b60200101907effffffffffffffffffffffffffffffffffffffffffffffffffffffffffffff1916908160001a905350600485901c945080610dab90611a28565b9050610cc9565b5060008414610df6576040517f08c379a0000000000000000000000000000000000000000000000000000000008152600401610ded9061172c565b60405180910390fd5b8091505092915050565b610e0861073a565b610e47576040517f08c379a0000000000000000000000000000000000000000000000000000000008152600401610e3e9061174c565b60405180910390fd5b6000603360006101000a81548160ff0219169083151502179055507f5db9ee0a495bf2e6ff9c91a7834c1ba4fdd244a5e8aa4e537bd38aeae4b073aa610e8b611021565b604051610e989190611637565b60405180910390a1565b60008082905060005b8551811015610f70576000868281518110610eef577f4e487b7100000000000000000000000000000000000000000000000000000000600052603260045260246000fd5b60200260200101519050808311610f30578281604051602001610f13929190611594565b604051602081830303815290604052805190602001209250610f5c565b8083604051602001610f43929190611594565b6040516020818303038152906040528051906020012092505b508080610f6890611ab5565b915050610eab565b508381149150509392505050565b610f8661073a565b15610fc6576040517f08c379a0000000000000000000000000000000000000000000000000000000008152600401610fbd9061178c565b60405180910390fd5b6001603360006101000a81548160ff0219169083151502179055507f62e78cea01bee320cd4e420270b5ea74000d11b0c9f74754ebdbfc544b05a25861100a611021565b6040516110179190611637565b60405180910390a1565b600033905090565b82805461103590611a52565b90600052602060002090601f016020900481019282611057576000855561109e565b82601f1061107057805160ff191683800117855561109e565b8280016001018555821561109e579182015b8281111561109d578251825591602001919060010190611082565b5b5090506110ab91906110af565b5090565b5b808211156110c85760008160009055506001016110b0565b5090565b60006110df6110da84611843565b61181e565b9050828152602081018484840111156110f757600080fd5b6111028482856119e6565b509392505050565b60008135905061111981611d72565b92915050565b60008083601f84011261113157600080fd5b8235905067ffffffffffffffff81111561114a57600080fd5b60208301915083602082028301111561116257600080fd5b9250929050565b60008151905061117881611d89565b92915050565b60008135905061118d81611da0565b92915050565b600082601f8301126111a457600080fd5b81356111b48482602086016110cc565b91505092915050565b6000813590506111cc81611db7565b92915050565b6000602082840312156111e457600080fd5b60006111f28482850161110a565b91505092915050565b60006020828403121561120d57600080fd5b600061121b84828501611169565b91505092915050565b6000806040838503121561123757600080fd5b60006112458582860161117e565b92505060206112568582860161110a565b9150509250929050565b6000806040838503121561127357600080fd5b60006112818582860161117e565b925050602083013567ffffffffffffffff81111561129e57600080fd5b6112aa85828601611193565b9150509250929050565b6000806000806000608086880312156112cc57600080fd5b60006112da888289016111bd565b95505060206112eb8882890161110a565b94505060406112fc888289016111bd565b935050606086013567ffffffffffffffff81111561131957600080fd5b6113258882890161111f565b92509250509295509295909350565b61133d81611994565b82525050565b61135461134f82611994565b611afe565b82525050565b611363816119a6565b82525050565b611372816119b2565b82525050565b611389611384826119b2565b611b10565b82525050565b600061139a82611889565b6113a48185611894565b93506113b48185602086016119f5565b6113bd81611bc3565b840191505092915050565b60006113d382611889565b6113dd81856118a5565b93506113ed8185602086016119f5565b80840191505092915050565b6000815461140681611a52565b6114108186611894565b9450600182166000811461142b576001811461143d57611470565b60ff1983168652602086019350611470565b61144685611874565b60005b8381101561146857815481890152600182019150602081019050611449565b808801955050505b50505092915050565b6000611486602083611894565b915061149182611be1565b602082019050919050565b60006114a96024836118a5565b91506114b482611c0a565b602482019050919050565b60006114cc601483611894565b91506114d782611c59565b602082019050919050565b60006114ef602483611894565b91506114fa82611c82565b604082019050919050565b6000611512601083611894565b915061151d82611cd1565b602082019050919050565b6000611535602783611894565b915061154082611cfa565b604082019050919050565b60006115586011836118a5565b915061156382611d49565b601182019050919050565b611577816119dc565b82525050565b61158e611589826119dc565b611b2c565b82525050565b60006115a08285611378565b6020820191506115b08284611378565b6020820191508190509392505050565b60006115cb8261149c565b91506115d782856113c8565b91506115e28261154b565b91506115ee82846113c8565b91508190509392505050565b6000611606828661157d565b6020820191506116168285611343565b601482019150611626828461157d565b602082019150819050949350505050565b600060208201905061164c6000830184611334565b92915050565b60006040820190506116676000830185611334565b611674602083018461156e565b9392505050565b6000602082019050611690600083018461135a565b92915050565b60006020820190506116ab6000830184611369565b92915050565b60006040820190506116c66000830185611369565b6116d36020830184611334565b9392505050565b60006040820190506116ef6000830185611369565b818103602083015261170181846113f9565b90509392505050565b60006020820190508181036000830152611724818461138f565b905092915050565b6000602082019050818103600083015261174581611479565b9050919050565b60006020820190508181036000830152611765816114bf565b9050919050565b60006020820190508181036000830152611785816114e2565b9050919050565b600060208201905081810360008301526117a581611505565b9050919050565b600060208201905081810360008301526117c581611528565b9050919050565b60006020820190506117e1600083018461156e565b92915050565b60006060820190506117fc600083018661156e565b6118096020830185611334565b611816604083018461156e565b949350505050565b6000611828611839565b90506118348282611a84565b919050565b6000604051905090565b600067ffffffffffffffff82111561185e5761185d611b94565b5b61186782611bc3565b9050602081019050919050565b60008190508160005260206000209050919050565b600081519050919050565b600082825260208201905092915050565b600081905092915050565b60006118bb826119dc565b91506118c6836119dc565b9250827fffffffffffffffffffffffffffffffffffffffffffffffffffffffffffffffff038211156118fb576118fa611b36565b5b828201905092915050565b6000611911826119dc565b915061191c836119dc565b9250817fffffffffffffffffffffffffffffffffffffffffffffffffffffffffffffffff048311821515161561195557611954611b36565b5b828202905092915050565b600061196b826119dc565b9150611976836119dc565b92508282101561198957611988611b36565b5b828203905092915050565b600061199f826119bc565b9050919050565b60008115159050919050565b6000819050919050565b600073ffffffffffffffffffffffffffffffffffffffff82169050919050565b6000819050919050565b82818337600083830152505050565b60005b83811015611a135780820151818401526020810190506119f8565b83811115611a22576000848401525b50505050565b6000611a33826119dc565b91506000821415611a4757611a46611b36565b5b600182039050919050565b60006002820490506001821680611a6a57607f821691505b60208210811415611a7e57611a7d611b65565b5b50919050565b611a8d82611bc3565b810181811067ffffffffffffffff82111715611aac57611aab611b94565b5b80604052505050565b6000611ac0826119dc565b91507fffffffffffffffffffffffffffffffffffffffffffffffffffffffffffffffff821415611af357611af2611b36565b5b600182019050919050565b6000611b0982611b1a565b9050919050565b6000819050919050565b6000611b2582611bd4565b9050919050565b6000819050919050565b7f4e487b7100000000000000000000000000000000000000000000000000000000600052601160045260246000fd5b7f4e487b7100000000000000000000000000000000000000000000000000000000600052602260045260246000fd5b7f4e487b7100000000000000000000000000000000000000000000000000000000600052604160045260246000fd5b6000601f19601f8301169050919050565b60008160601b9050919050565b7f537472696e67733a20686578206c656e67746820696e73756666696369656e74600082015250565b7f416363657373436f6e74726f6c50726f78795061757361626c653a206163636f60008201527f756e742000000000000000000000000000000000000000000000000000000000602082015250565b7f5061757361626c653a206e6f7420706175736564000000000000000000000000600082015250565b7f547574656c6c7573436c69656e74735661756c743a20496e76616c696420707260008201527f6f6f662e00000000000000000000000000000000000000000000000000000000602082015250565b7f5061757361626c653a2070617573656400000000000000000000000000000000600082015250565b7f547574656c6c7573436c69656e74735661756c743a204e6f7468696e6720746f60008201527f20636c61696d2e00000000000000000000000000000000000000000000000000602082015250565b7f206973206d697373696e6720726f6c6520000000000000000000000000000000600082015250565b611d7b81611994565b8114611d8657600080fd5b50565b611d92816119a6565b8114611d9d57600080fd5b50565b611da9816119b2565b8114611db457600080fd5b50565b611dc0816119dc565b8114611dcb57600080fd5b5056fea2646970667358221220915b01c551154ad3e7312fe95c340d1349f7dd4990b13b08e50bc5df15f54f4664736f6c6343000802003360806040523480156200001157600080fd5b50604051620026b2380380620026b28339818101604052810190620000379190620008cb565b6200004d8686868686866200005960201b60201c565b50505050505062000e46565b600060019054906101000a900460ff168062000080575060008054906101000a900460ff16155b620000c2576040517f08c379a0000000000000000000000000000000000000000000000000000000008152600401620000b990620009e2565b60405180910390fd5b60008060019054906101000a900460ff16159050801562000113576001600060016101000a81548160ff02191690831515021790555060016000806101000a81548160ff0219169083151502179055505b62000124876200016460201b60201c565b6200013986868686866200026560201b60201c565b80156200015b5760008060016101000a81548160ff0219169083151502179055505b50505050505050565b600060019054906101000a900460ff16806200018b575060008054906101000a900460ff16155b620001cd576040517f08c379a0000000000000000000000000000000000000000000000000000000008152600401620001c490620009e2565b60405180910390fd5b60008060019054906101000a900460ff1615905080156200021e576001600060016101000a81548160ff02191690831515021790555060016000806101000a81548160ff0219169083151502179055505b6200022e620004a460201b60201c565b6200023f82620005a360201b60201c565b8015620002615760008060016101000a81548160ff0219169083151502179055505b5050565b600060019054906101000a900460ff16806200028c575060008054906101000a900460ff16155b620002ce576040517f08c379a0000000000000000000000000000000000000000000000000000000008152600401620002c590620009e2565b60405180910390fd5b60008060019054906101000a900460ff1615905080156200031f576001600060016101000a81548160ff02191690831515021790555060016000806101000a81548160ff0219169083151502179055505b82821162000364576040517f08c379a00000000000000000000000000000000000000000000000000000000081526004016200035b90620009c0565b60405180910390fd5b84606660006101000a81548173ffffffffffffffffffffffffffffffffffffffff021916908373ffffffffffffffffffffffffffffffffffffffff16021790555085606760006101000a81548173ffffffffffffffffffffffffffffffffffffffff021916908373ffffffffffffffffffffffffffffffffffffffff1602179055508260698190555081606a819055506000838362000404919062000c83565b905060028162000415919062000ae5565b85600262000424919062000c22565b62000430919062000a52565b606b819055507ff1bd4f3fcb4e0b193abc7e4002c0284e25086269a02de2e4c52045a91f647037606954606a54606b54604051620004719392919062000a04565b60405180910390a15080156200049c5760008060016101000a81548160ff0219169083151502179055505b505050505050565b600060019054906101000a900460ff1680620004cb575060008054906101000a900460ff16155b6200050d576040517f08c379a00000000000000000000000000000000000000000000000000000000081526004016200050490620009e2565b60405180910390fd5b60008060019054906101000a900460ff1615905080156200055e576001600060016101000a81548160ff02191690831515021790555060016000806101000a81548160ff0219169083151502179055505b6200056e620006c460201b60201c565b6200057e620007a360201b60201c565b8015620005a05760008060016101000a81548160ff0219169083151502179055505b50565b600060019054906101000a900460ff1680620005ca575060008054906101000a900460ff16155b6200060c576040517f08c379a00000000000000000000000000000000000000000000000000000000081526004016200060390620009e2565b60405180910390fd5b60008060019054906101000a900460ff1615905080156200065d576001600060016101000a81548160ff02191690831515021790555060016000806101000a81548160ff0219169083151502179055505b81606560006101000a81548173ffffffffffffffffffffffffffffffffffffffff021916908373ffffffffffffffffffffffffffffffffffffffff1602179055508015620006c05760008060016101000a81548160ff0219169083151502179055505b5050565b600060019054906101000a900460ff1680620006eb575060008054906101000a900460ff16155b6200072d576040517f08c379a00000000000000000000000000000000000000000000000000000000081526004016200072490620009e2565b60405180910390fd5b60008060019054906101000a900460ff1615905080156200077e576001600060016101000a81548160ff02191690831515021790555060016000806101000a81548160ff0219169083151502179055505b8015620007a05760008060016101000a81548160ff0219169083151502179055505b50565b600060019054906101000a900460ff1680620007ca575060008054906101000a900460ff16155b6200080c576040517f08c379a00000000000000000000000000000000000000000000000000000000081526004016200080390620009e2565b60405180910390fd5b60008060019054906101000a900460ff1615905080156200085d576001600060016101000a81548160ff02191690831515021790555060016000806101000a81548160ff0219169083151502179055505b6000603360006101000a81548160ff02191690831515021790555080156200089a5760008060016101000a81548160ff0219169083151502179055505b50565b600081519050620008ae8162000e12565b92915050565b600081519050620008c58162000e2c565b92915050565b60008060008060008060c08789031215620008e557600080fd5b6000620008f589828a016200089d565b96505060206200090889828a016200089d565b95505060406200091b89828a016200089d565b94505060606200092e89828a01620008b4565b93505060806200094189828a01620008b4565b92505060a06200095489828a01620008b4565b9150509295509295509295565b60006200097060348362000a41565b91506200097d8262000d74565b604082019050919050565b600062000997602e8362000a41565b9150620009a48262000dc3565b604082019050919050565b620009ba8162000cf2565b82525050565b60006020820190508181036000830152620009db8162000961565b9050919050565b60006020820190508181036000830152620009fd8162000988565b9050919050565b600060608201905062000a1b6000830186620009af565b62000a2a6020830185620009af565b62000a396040830184620009af565b949350505050565b600082825260208201905092915050565b600062000a5f8262000cf2565b915062000a6c8362000cf2565b92508262000a7f5762000a7e62000d38565b5b828204905092915050565b6000808291508390505b600185111562000adc5780860481111562000ab45762000ab362000d09565b5b600185161562000ac45780820291505b808102905062000ad48562000d67565b945062000a94565b94509492505050565b600062000af28262000cf2565b915062000aff8362000cfc565b925062000b2e7fffffffffffffffffffffffffffffffffffffffffffffffffffffffffffffffff848462000b36565b905092915050565b60008262000b48576001905062000c1b565b8162000b58576000905062000c1b565b816001811462000b71576002811462000b7c5762000bb2565b600191505062000c1b565b60ff84111562000b915762000b9062000d09565b5b8360020a91508482111562000bab5762000baa62000d09565b5b5062000c1b565b5060208310610133831016604e8410600b841016171562000bec5782820a90508381111562000be65762000be562000d09565b5b62000c1b565b62000bfb848484600162000a8a565b9250905081840481111562000c155762000c1462000d09565b5b81810290505b9392505050565b600062000c2f8262000cf2565b915062000c3c8362000cf2565b9250817fffffffffffffffffffffffffffffffffffffffffffffffffffffffffffffffff048311821515161562000c785762000c7762000d09565b5b828202905092915050565b600062000c908262000cf2565b915062000c9d8362000cf2565b92508282101562000cb35762000cb262000d09565b5b828203905092915050565b600062000ccb8262000cd2565b9050919050565b600073ffffffffffffffffffffffffffffffffffffffff82169050919050565b6000819050919050565b600060ff82169050919050565b7f4e487b7100000000000000000000000000000000000000000000000000000000600052601160045260246000fd5b7f4e487b7100000000000000000000000000000000000000000000000000000000600052601260045260246000fd5b60008160011c9050919050565b7f547574656c6c757354726561737572795661756c743a20737461727420626c6f60008201527f636b206578636565647320656e6420626c6f636b000000000000000000000000602082015250565b7f496e697469616c697a61626c653a20636f6e747261637420697320616c72656160008201527f647920696e697469616c697a6564000000000000000000000000000000000000602082015250565b62000e1d8162000cbe565b811462000e2957600080fd5b50565b62000e378162000cf2565b811462000e4357600080fd5b50565b61185c8062000e566000396000f3fe608060405234801561001057600080fd5b50600436106100cf5760003560e01c80637f51bb1f1161008c578063961325211161006657806396132521146101c6578063a217fddf146101e4578063e63ab1e914610202578063fc0c546a14610220576100cf565b80637f51bb1f146101705780638456cb591461018c57806391d1485414610196576100cf565b80633f4ba83a146100d45780634e71d92d146100de57806358aba00f146100e85780635c975abb1461010457806361d027b3146101225780636867aac514610140575b600080fd5b6100dc61023e565b005b6100e661030b565b005b61010260048036038101906100fd9190610e35565b6104b6565b005b61010c6105a0565b6040516101199190611118565b60405180910390f35b61012a6105b7565b60405161013791906110d4565b60405180910390f35b61015a60048036038101906101559190610ec3565b6105dd565b6040516101679190611239565b60405180910390f35b61018a60048036038101906101859190610e35565b6106c3565b005b6101946107ad565b005b6101b060048036038101906101ab9190610e87565b61087a565b6040516101bd9190611118565b60405180910390f35b6101ce610936565b6040516101db9190611239565b60405180910390f35b6101ec610949565b6040516101f99190611133565b60405180910390f35b61020a610950565b6040516102179190611133565b60405180910390f35b610228610974565b60405161023591906110d4565b60405180910390f35b7f65d7a28e3265b37a6474929f336521b332c1681b933f6cb9f3376673440d862a600033905061026e828261087a565b61028f8273ffffffffffffffffffffffffffffffffffffffff16601461099a565b61029d8460001c602061099a565b6040516020016102ae92919061109a565b604051602081830303815290604052906102fe576040517f08c379a00000000000000000000000000000000000000000000000000000000081526004016102f59190611177565b60405180910390fd5b50610307610c94565b5050565b6000606854610318610936565b61032291906114cd565b90508060686000828254610336919061127b565b9250508190555060008111610380576040517f08c379a000000000000000000000000000000000000000000000000000000000815260040161037790611219565b60405180910390fd5b6000606660009054906101000a900473ffffffffffffffffffffffffffffffffffffffff1690508073ffffffffffffffffffffffffffffffffffffffff1663a9059cbb606760009054906101000a900473ffffffffffffffffffffffffffffffffffffffff16846040518363ffffffff1660e01b81526004016104049291906110ef565b602060405180830381600087803b15801561041e57600080fd5b505af1158015610432573d6000803e3d6000fd5b505050506040513d601f19601f820116820180604052508101906104569190610e5e565b507f47cee97cb7acd717b3c0aa1435d004cd5b3c8c57d70dbceb4e4458bbd60e39d4606760009054906101000a900473ffffffffffffffffffffffffffffffffffffffff16836040516104aa9291906110ef565b60405180910390a15050565b6000801b60003390506104c9828261087a565b6104ea8273ffffffffffffffffffffffffffffffffffffffff16601461099a565b6104f88460001c602061099a565b60405160200161050992919061109a565b60405160208183030381529060405290610559576040517f08c379a00000000000000000000000000000000000000000000000000000000081526004016105509190611177565b60405180910390fd5b5082606560006101000a81548173ffffffffffffffffffffffffffffffffffffffff021916908373ffffffffffffffffffffffffffffffffffffffff160217905550505050565b6000603360009054906101000a900460ff16905090565b606760009054906101000a900473ffffffffffffffffffffffffffffffffffffffff1681565b6000818310610621576040517f08c379a0000000000000000000000000000000000000000000000000000000008152600401610618906111f9565b60405180910390fd5b606a5482111561063157606a5491505b6069548310156106415760695492505b60006002806069548561065491906114cd565b61065e9190611355565b606b5461066b9190611473565b61067591906112d1565b905060006002806069548761068a91906114cd565b6106949190611355565b606b546106a19190611473565b6106ab91906112d1565b905080826106b991906114cd565b9250505092915050565b6000801b60003390506106d6828261087a565b6106f78273ffffffffffffffffffffffffffffffffffffffff16601461099a565b6107058460001c602061099a565b60405160200161071692919061109a565b60405160208183030381529060405290610766576040517f08c379a000000000000000000000000000000000000000000000000000000000815260040161075d9190611177565b60405180910390fd5b5082606760006101000a81548173ffffffffffffffffffffffffffffffffffffffff021916908373ffffffffffffffffffffffffffffffffffffffff160217905550505050565b7f65d7a28e3265b37a6474929f336521b332c1681b933f6cb9f3376673440d862a60003390506107dd828261087a565b6107fe8273ffffffffffffffffffffffffffffffffffffffff16601461099a565b61080c8460001c602061099a565b60405160200161081d92919061109a565b6040516020818303038152906040529061086d576040517f08c379a00000000000000000000000000000000000000000000000000000000081526004016108649190611177565b60405180910390fd5b50610876610d36565b5050565b600080606560009054906101000a900473ffffffffffffffffffffffffffffffffffffffff1690508073ffffffffffffffffffffffffffffffffffffffff166391d1485485856040518363ffffffff1660e01b81526004016108dd92919061114e565b60206040518083038186803b1580156108f557600080fd5b505afa158015610909573d6000803e3d6000fd5b505050506040513d601f19601f8201168201806040525081019061092d9190610e5e565b91505092915050565b6000610944606954436105dd565b905090565b6000801b81565b7f65d7a28e3265b37a6474929f336521b332c1681b933f6cb9f3376673440d862a81565b606660009054906101000a900473ffffffffffffffffffffffffffffffffffffffff1681565b6060600060028360026109ad9190611473565b6109b7919061127b565b67ffffffffffffffff8111156109f6577f4e487b7100000000000000000000000000000000000000000000000000000000600052604160045260246000fd5b6040519080825280601f01601f191660200182016040528015610a285781602001600182028036833780820191505090505b5090507f300000000000000000000000000000000000000000000000000000000000000081600081518110610a86577f4e487b7100000000000000000000000000000000000000000000000000000000600052603260045260246000fd5b60200101907effffffffffffffffffffffffffffffffffffffffffffffffffffffffffffff1916908160001a9053507f780000000000000000000000000000000000000000000000000000000000000081600181518110610b10577f4e487b7100000000000000000000000000000000000000000000000000000000600052603260045260246000fd5b60200101907effffffffffffffffffffffffffffffffffffffffffffffffffffffffffffff1916908160001a90535060006001846002610b509190611473565b610b5a919061127b565b90505b6001811115610c46577f3031323334353637383961626364656600000000000000000000000000000000600f861660108110610bc2577f4e487b7100000000000000000000000000000000000000000000000000000000600052603260045260246000fd5b1a60f81b828281518110610bff577f4e487b7100000000000000000000000000000000000000000000000000000000600052603260045260246000fd5b60200101907effffffffffffffffffffffffffffffffffffffffffffffffffffffffffffff1916908160001a905350600485901c945080610c3f90611593565b9050610b5d565b5060008414610c8a576040517f08c379a0000000000000000000000000000000000000000000000000000000008152600401610c8190611199565b60405180910390fd5b8091505092915050565b610c9c6105a0565b610cdb576040517f08c379a0000000000000000000000000000000000000000000000000000000008152600401610cd2906111b9565b60405180910390fd5b6000603360006101000a81548160ff0219169083151502179055507f5db9ee0a495bf2e6ff9c91a7834c1ba4fdd244a5e8aa4e537bd38aeae4b073aa610d1f610dd9565b604051610d2c91906110d4565b60405180910390a1565b610d3e6105a0565b15610d7e576040517f08c379a0000000000000000000000000000000000000000000000000000000008152600401610d75906111d9565b60405180910390fd5b6001603360006101000a81548160ff0219169083151502179055507f62e78cea01bee320cd4e420270b5ea74000d11b0c9f74754ebdbfc544b05a258610dc2610dd9565b604051610dcf91906110d4565b60405180910390a1565b600033905090565b600081359050610df0816117ca565b92915050565b600081519050610e05816117e1565b92915050565b600081359050610e1a816117f8565b92915050565b600081359050610e2f8161180f565b92915050565b600060208284031215610e4757600080fd5b6000610e5584828501610de1565b91505092915050565b600060208284031215610e7057600080fd5b6000610e7e84828501610df6565b91505092915050565b60008060408385031215610e9a57600080fd5b6000610ea885828601610e0b565b9250506020610eb985828601610de1565b9150509250929050565b60008060408385031215610ed657600080fd5b6000610ee485828601610e20565b9250506020610ef585828601610e20565b9150509250929050565b610f0881611501565b82525050565b610f1781611513565b82525050565b610f268161151f565b82525050565b6000610f3782611254565b610f41818561125f565b9350610f51818560208601611560565b610f5a8161161b565b840191505092915050565b6000610f7082611254565b610f7a8185611270565b9350610f8a818560208601611560565b80840191505092915050565b6000610fa360208361125f565b9150610fae82611639565b602082019050919050565b6000610fc6602483611270565b9150610fd182611662565b602482019050919050565b6000610fe960148361125f565b9150610ff4826116b1565b602082019050919050565b600061100c60108361125f565b9150611017826116da565b602082019050919050565b600061102f602b8361125f565b915061103a82611703565b604082019050919050565b600061105260278361125f565b915061105d82611752565b604082019050919050565b6000611075601183611270565b9150611080826117a1565b601182019050919050565b61109481611549565b82525050565b60006110a582610fb9565b91506110b18285610f65565b91506110bc82611068565b91506110c88284610f65565b91508190509392505050565b60006020820190506110e96000830184610eff565b92915050565b60006040820190506111046000830185610eff565b611111602083018461108b565b9392505050565b600060208201905061112d6000830184610f0e565b92915050565b60006020820190506111486000830184610f1d565b92915050565b60006040820190506111636000830185610f1d565b6111706020830184610eff565b9392505050565b600060208201905081810360008301526111918184610f2c565b905092915050565b600060208201905081810360008301526111b281610f96565b9050919050565b600060208201905081810360008301526111d281610fdc565b9050919050565b600060208201905081810360008301526111f281610fff565b9050919050565b6000602082019050818103600083015261121281611022565b9050919050565b6000602082019050818103600083015261123281611045565b9050919050565b600060208201905061124e600083018461108b565b92915050565b600081519050919050565b600082825260208201905092915050565b600081905092915050565b600061128682611549565b915061129183611549565b9250827fffffffffffffffffffffffffffffffffffffffffffffffffffffffffffffffff038211156112c6576112c56115bd565b5b828201905092915050565b60006112dc82611549565b91506112e783611549565b9250826112f7576112f66115ec565b5b828204905092915050565b6000808291508390505b600185111561134c57808604811115611328576113276115bd565b5b60018516156113375780820291505b80810290506113458561162c565b945061130c565b94509492505050565b600061136082611549565b915061136b83611553565b92506113987fffffffffffffffffffffffffffffffffffffffffffffffffffffffffffffffff84846113a0565b905092915050565b6000826113b0576001905061146c565b816113be576000905061146c565b81600181146113d457600281146113de5761140d565b600191505061146c565b60ff8411156113f0576113ef6115bd565b5b8360020a915084821115611407576114066115bd565b5b5061146c565b5060208310610133831016604e8410600b84101617156114425782820a90508381111561143d5761143c6115bd565b5b61146c565b61144f8484846001611302565b92509050818404811115611466576114656115bd565b5b81810290505b9392505050565b600061147e82611549565b915061148983611549565b9250817fffffffffffffffffffffffffffffffffffffffffffffffffffffffffffffffff04831182151516156114c2576114c16115bd565b5b828202905092915050565b60006114d882611549565b91506114e383611549565b9250828210156114f6576114f56115bd565b5b828203905092915050565b600061150c82611529565b9050919050565b60008115159050919050565b6000819050919050565b600073ffffffffffffffffffffffffffffffffffffffff82169050919050565b6000819050919050565b600060ff82169050919050565b60005b8381101561157e578082015181840152602081019050611563565b8381111561158d576000848401525b50505050565b600061159e82611549565b915060008214156115b2576115b16115bd565b5b600182039050919050565b7f4e487b7100000000000000000000000000000000000000000000000000000000600052601160045260246000fd5b7f4e487b7100000000000000000000000000000000000000000000000000000000600052601260045260246000fd5b6000601f19601f8301169050919050565b60008160011c9050919050565b7f537472696e67733a20686578206c656e67746820696e73756666696369656e74600082015250565b7f416363657373436f6e74726f6c50726f78795061757361626c653a206163636f60008201527f756e742000000000000000000000000000000000000000000000000000000000602082015250565b7f5061757361626c653a206e6f7420706175736564000000000000000000000000600082015250565b7f5061757361626c653a2070617573656400000000000000000000000000000000600082015250565b7f547574656c6c757354726561737572795661756c743a207b66726f6d7d20697360008201527f206166746572207b746f7d000000000000000000000000000000000000000000602082015250565b7f547574656c6c757354726561737572795661756c743a206e6f7468696e67207460008201527f6f20636c61696d00000000000000000000000000000000000000000000000000602082015250565b7f206973206d697373696e6720726f6c6520000000000000000000000000000000600082015250565b6117d381611501565b81146117de57600080fd5b50565b6117ea81611513565b81146117f557600080fd5b50565b6118018161151f565b811461180c57600080fd5b50565b61181881611549565b811461182357600080fd5b5056fea2646970667358221220fa50f5567d95097caaee6122b84ac777df76728a8c59e5a53505f39dd59cd9b264736f6c63430008020033",
  "linkReferences": {},
  "deployedLinkReferences": {}
}