{
  "_format": "hh-sol-artifact-1",
  "contractName": "TutellusDeployer",
  "sourceName": "contracts/TutellusDeployer.sol",
  "abi": [
    {
      "inputs": [
        {
          "internalType": "address",
          "name": "treasury_",
          "type": "address"
        },
        {
          "internalType": "uint256",
          "name": "startBlock",
          "type": "uint256"
        }
      ],
      "stateMutability": "nonpayable",
      "type": "constructor"
    },
    {
      "inputs": [],
      "name": "clientsVault",
      "outputs": [
        {
          "internalType": "address",
          "name": "",
          "type": "address"
        }
      ],
      "stateMutability": "view",
      "type": "function"
    },
    {
      "inputs": [],
      "name": "holdersVault",
      "outputs": [
        {
          "internalType": "address",
          "name": "",
          "type": "address"
        }
      ],
      "stateMutability": "view",
      "type": "function"
    },
    {
      "inputs": [],
      "name": "rewardsVault",
      "outputs": [
        {
          "internalType": "address",
          "name": "",
          "type": "address"
        }
      ],
      "stateMutability": "view",
      "type": "function"
    },
    {
      "inputs": [],
      "name": "rolemanager",
      "outputs": [
        {
          "internalType": "address",
          "name": "",
          "type": "address"
        }
      ],
      "stateMutability": "view",
      "type": "function"
    },
    {
      "inputs": [],
      "name": "teamVault",
      "outputs": [
        {
          "internalType": "address",
          "name": "",
          "type": "address"
        }
      ],
      "stateMutability": "view",
      "type": "function"
    },
    {
      "inputs": [],
      "name": "token",
      "outputs": [
        {
          "internalType": "address",
          "name": "",
          "type": "address"
        }
      ],
      "stateMutability": "view",
      "type": "function"
    },
    {
      "inputs": [],
      "name": "treasury",
      "outputs": [
        {
          "internalType": "address",
          "name": "",
          "type": "address"
        }
      ],
      "stateMutability": "view",
      "type": "function"
    },
    {
      "inputs": [],
      "name": "treasuryVault",
      "outputs": [
        {
          "internalType": "address",
          "name": "",
          "type": "address"
        }
      ],
      "stateMutability": "view",
      "type": "function"
    }
  ],
  "bytecode": "0x60806040523480156200001157600080fd5b50604051620114d1380380620114d1833981810160405281019062000037919062000ad8565b81600260006101000a81548173ffffffffffffffffffffffffffffffffffffffff021916908373ffffffffffffffffffffffffffffffffffffffff160217905550604051620000869062000a56565b604051809103906000f080158015620000a3573d6000803e3d6000fd5b50600160006101000a81548173ffffffffffffffffffffffffffffffffffffffff021916908373ffffffffffffffffffffffffffffffffffffffff1602179055506aa56fa5b99019a5c8000000600160009054906101000a900473ffffffffffffffffffffffffffffffffffffffff16604051620001219062000a64565b6200012e92919062000e82565b604051809103906000f0801580156200014b573d6000803e3d6000fd5b506000806101000a81548173ffffffffffffffffffffffffffffffffffffffff021916908373ffffffffffffffffffffffffffffffffffffffff160217905550600160009054906101000a900473ffffffffffffffffffffffffffffffffffffffff1660008054906101000a900473ffffffffffffffffffffffffffffffffffffffff166a084595161401484a0000008362a082a085620001ed919062000eea565b604051620001fb9062000a72565b6200020b95949392919062000cb7565b604051809103906000f08015801562000228573d6000803e3d6000fd5b50600360006101000a81548173ffffffffffffffffffffffffffffffffffffffff021916908373ffffffffffffffffffffffffffffffffffffffff160217905550600160009054906101000a900473ffffffffffffffffffffffffffffffffffffffff1660008054906101000a900473ffffffffffffffffffffffffffffffffffffffff166a04f68ca6d8cd91c600000062a082a084620002ca919062000eea565b6301a556e485620002dc919062000eea565b604051620002ea9062000a72565b620002fa95949392919062000d14565b604051809103906000f08015801562000317573d6000803e3d6000fd5b50600460006101000a81548173ffffffffffffffffffffffffffffffffffffffff021916908373ffffffffffffffffffffffffffffffffffffffff160217905550600160009054906101000a900473ffffffffffffffffffffffffffffffffffffffff1660008054906101000a900473ffffffffffffffffffffffffffffffffffffffff166a34f086f3b33b6840000000836302d24bd085620003bb919062000eea565b604051620003c99062000a80565b620003d995949392919062000d71565b604051809103906000f080158015620003f6573d6000803e3d6000fd5b50600560006101000a81548173ffffffffffffffffffffffffffffffffffffffff021916908373ffffffffffffffffffffffffffffffffffffffff160217905550600160009054906101000a900473ffffffffffffffffffffffffffffffffffffffff1660008054906101000a900473ffffffffffffffffffffffffffffffffffffffff16604051620004899062000a8e565b6200049692919062000c1d565b604051809103906000f080158015620004b3573d6000803e3d6000fd5b50600660006101000a81548173ffffffffffffffffffffffffffffffffffffffff021916908373ffffffffffffffffffffffffffffffffffffffff160217905550600160009054906101000a900473ffffffffffffffffffffffffffffffffffffffff16600260009054906101000a900473ffffffffffffffffffffffffffffffffffffffff1660008054906101000a900473ffffffffffffffffffffffffffffffffffffffff166a187c0b371c7ead04000000846304b3d3b0866200057a919062000eea565b604051620005889062000a9c565b620005999695949392919062000c4a565b604051809103906000f080158015620005b6573d6000803e3d6000fd5b50600760006101000a81548173ffffffffffffffffffffffffffffffffffffffff021916908373ffffffffffffffffffffffffffffffffffffffff1602179055506000600160009054906101000a900473ffffffffffffffffffffffffffffffffffffffff1690508073ffffffffffffffffffffffffffffffffffffffff16633dd1eb61306040518263ffffffff1660e01b815260040162000659919062000c00565b600060405180830381600087803b1580156200067457600080fd5b505af115801562000689573d6000803e3d6000fd5b505050508073ffffffffffffffffffffffffffffffffffffffff16633dd1eb61600360009054906101000a900473ffffffffffffffffffffffffffffffffffffffff166040518263ffffffff1660e01b8152600401620006ea919062000c00565b600060405180830381600087803b1580156200070557600080fd5b505af11580156200071a573d6000803e3d6000fd5b505050508073ffffffffffffffffffffffffffffffffffffffff16633dd1eb61600460009054906101000a900473ffffffffffffffffffffffffffffffffffffffff166040518263ffffffff1660e01b81526004016200077b919062000c00565b600060405180830381600087803b1580156200079657600080fd5b505af1158015620007ab573d6000803e3d6000fd5b5050505060008060009054906101000a900473ffffffffffffffffffffffffffffffffffffffff1690508073ffffffffffffffffffffffffffffffffffffffff166340c10f19600260009054906101000a900473ffffffffffffffffffffffffffffffffffffffff166954b40b1f852bda0000006040518363ffffffff1660e01b81526004016200083e92919062000dfb565b600060405180830381600087803b1580156200085957600080fd5b505af11580156200086e573d6000803e3d6000fd5b505050508073ffffffffffffffffffffffffffffffffffffffff166340c10f19600560009054906101000a900473ffffffffffffffffffffffffffffffffffffffff166a34f086f3b33b68400000006040518363ffffffff1660e01b8152600401620008dc92919062000e28565b600060405180830381600087803b158015620008f757600080fd5b505af11580156200090c573d6000803e3d6000fd5b505050508073ffffffffffffffffffffffffffffffffffffffff166340c10f19600660009054906101000a900473ffffffffffffffffffffffffffffffffffffffff166a4a723dc6b40b8a9a0000006040518363ffffffff1660e01b81526004016200097a92919062000e55565b600060405180830381600087803b1580156200099557600080fd5b505af1158015620009aa573d6000803e3d6000fd5b505050508073ffffffffffffffffffffffffffffffffffffffff166340c10f19600760009054906101000a900473ffffffffffffffffffffffffffffffffffffffff166a187c0b371c7ead040000006040518363ffffffff1660e01b815260040162000a1892919062000dce565b600060405180830381600087803b15801562000a3357600080fd5b505af115801562000a48573d6000803e3d6000fd5b5050505050505050620010c6565b611a58806200141383390190565b613ab28062002e6b83390190565b612b58806200691d83390190565b6131ed806200947583390190565b6126d2806200c66283390190565b61279d806200ed3483390190565b60008151905062000abb8162001092565b92915050565b60008151905062000ad281620010ac565b92915050565b6000806040838503121562000aec57600080fd5b600062000afc8582860162000aaa565b925050602062000b0f8582860162000ac1565b9150509250929050565b62000b248162000f47565b82525050565b62000b358162000f85565b82525050565b62000b468162000f99565b82525050565b62000b578162000fad565b82525050565b62000b688162000fc1565b82525050565b62000b798162000fd5565b82525050565b62000b8a8162000fe9565b82525050565b62000b9b8162000ffd565b82525050565b600062000bb0600e8362000ed9565b915062000bbd8262001040565b602082019050919050565b600062000bd760038362000ed9565b915062000be48262001069565b602082019050919050565b62000bfa8162000f7b565b82525050565b600060208201905062000c17600083018462000b19565b92915050565b600060408201905062000c34600083018562000b19565b62000c43602083018462000b19565b9392505050565b600060c08201905062000c61600083018962000b19565b62000c70602083018862000b19565b62000c7f604083018762000b19565b62000c8e606083018662000b4c565b62000c9d608083018562000bef565b62000cac60a083018462000bef565b979650505050505050565b600060a08201905062000cce600083018862000b19565b62000cdd602083018762000b19565b62000cec604083018662000b2a565b62000cfb606083018562000bef565b62000d0a608083018462000bef565b9695505050505050565b600060a08201905062000d2b600083018862000b19565b62000d3a602083018762000b19565b62000d49604083018662000b6e565b62000d58606083018562000bef565b62000d67608083018462000bef565b9695505050505050565b600060a08201905062000d88600083018862000b19565b62000d97602083018762000b19565b62000da6604083018662000b7f565b62000db5606083018562000bef565b62000dc4608083018462000bef565b9695505050505050565b600060408201905062000de5600083018562000b19565b62000df4602083018462000b4c565b9392505050565b600060408201905062000e12600083018562000b19565b62000e21602083018462000b5d565b9392505050565b600060408201905062000e3f600083018562000b19565b62000e4e602083018462000b7f565b9392505050565b600060408201905062000e6c600083018562000b19565b62000e7b602083018462000b90565b9392505050565b6000608082019050818103600083015262000e9d8162000ba1565b9050818103602083015262000eb28162000bc8565b905062000ec3604083018562000b3b565b62000ed2606083018462000b19565b9392505050565b600082825260208201905092915050565b600062000ef78262000f7b565b915062000f048362000f7b565b9250827fffffffffffffffffffffffffffffffffffffffffffffffffffffffffffffffff0382111562000f3c5762000f3b62001011565b5b828201905092915050565b600062000f548262000f5b565b9050919050565b600073ffffffffffffffffffffffffffffffffffffffff82169050919050565b6000819050919050565b600062000f928262000f7b565b9050919050565b600062000fa68262000f7b565b9050919050565b600062000fba8262000f7b565b9050919050565b600062000fce8262000f7b565b9050919050565b600062000fe28262000f7b565b9050919050565b600062000ff68262000f7b565b9050919050565b60006200100a8262000f7b565b9050919050565b7f4e487b7100000000000000000000000000000000000000000000000000000000600052601160045260246000fd5b7f547574656c6c757320746f6b656e000000000000000000000000000000000000600082015250565b7f5455540000000000000000000000000000000000000000000000000000000000600082015250565b6200109d8162000f47565b8114620010a957600080fd5b50565b620010b78162000f7b565b8114620010c357600080fd5b50565b61033d80620010d66000396000f3fe608060405234801561001057600080fd5b50600436106100885760003560e01c8063a8f7c3701161005b578063a8f7c37014610105578063af8b1c6f14610123578063e82128ab14610141578063fc0c546a1461015f57610088565b80630a04b1321461008d5780635579ed01146100ab57806361d027b3146100c95780638ab5212b146100e7575b600080fd5b61009561017d565b6040516100a291906102ba565b60405180910390f35b6100b36101a3565b6040516100c091906102ba565b60405180910390f35b6100d16101c9565b6040516100de91906102ba565b60405180910390f35b6100ef6101ef565b6040516100fc91906102ba565b60405180910390f35b61010d610215565b60405161011a91906102ba565b60405180910390f35b61012b61023b565b60405161013891906102ba565b60405180910390f35b610149610261565b60405161015691906102ba565b60405180910390f35b610167610287565b60405161017491906102ba565b60405180910390f35b600360009054906101000a900473ffffffffffffffffffffffffffffffffffffffff1681565b600560009054906101000a900473ffffffffffffffffffffffffffffffffffffffff1681565b600260009054906101000a900473ffffffffffffffffffffffffffffffffffffffff1681565b600460009054906101000a900473ffffffffffffffffffffffffffffffffffffffff1681565b600660009054906101000a900473ffffffffffffffffffffffffffffffffffffffff1681565b600760009054906101000a900473ffffffffffffffffffffffffffffffffffffffff1681565b600160009054906101000a900473ffffffffffffffffffffffffffffffffffffffff1681565b60008054906101000a900473ffffffffffffffffffffffffffffffffffffffff1681565b6102b4816102d5565b82525050565b60006020820190506102cf60008301846102ab565b92915050565b60006102e0826102e7565b9050919050565b600073ffffffffffffffffffffffffffffffffffffffff8216905091905056fea26469706673582212201abeea5279b2907449a64da023959ede8ef0867dbdfb5d4528d024824ea5e35264736f6c6343000802003360806040523480156200001157600080fd5b50620000226200005260201b60201c565b620000376000801b336200015160201b60201c565b6200004c6000801b326200015160201b60201c565b62000800565b600060019054906101000a900460ff168062000079575060008054906101000a900460ff16155b620000bb576040517f08c379a0000000000000000000000000000000000000000000000000000000008152600401620000b2906200077e565b60405180910390fd5b60008060019054906101000a900460ff1615905080156200010c576001600060016101000a81548160ff02191690831515021790555060016000806101000a81548160ff0219169083151502179055505b6200011c6200016760201b60201c565b6200012c6200027660201b60201c565b80156200014e5760008060016101000a81548160ff0219169083151502179055505b50565b6200016382826200035560201b60201c565b5050565b600060019054906101000a900460ff16806200018e575060008054906101000a900460ff16155b620001d0576040517f08c379a0000000000000000000000000000000000000000000000000000000008152600401620001c7906200077e565b60405180910390fd5b60008060019054906101000a900460ff16159050801562000221576001600060016101000a81548160ff02191690831515021790555060016000806101000a81548160ff0219169083151502179055505b620002316200044760201b60201c565b620002416200052660201b60201c565b620002516200060560201b60201c565b8015620002735760008060016101000a81548160ff0219169083151502179055505b50565b600060019054906101000a900460ff16806200029d575060008054906101000a900460ff16155b620002df576040517f08c379a0000000000000000000000000000000000000000000000000000000008152600401620002d6906200077e565b60405180910390fd5b60008060019054906101000a900460ff16159050801562000330576001600060016101000a81548160ff02191690831515021790555060016000806101000a81548160ff0219169083151502179055505b8015620003525760008060016101000a81548160ff0219169083151502179055505b50565b620003678282620006e460201b60201c565b620004435760016065600084815260200190815260200160002060000160008373ffffffffffffffffffffffffffffffffffffffff1673ffffffffffffffffffffffffffffffffffffffff16815260200190815260200160002060006101000a81548160ff021916908315150217905550620003e86200074f60201b60201c565b73ffffffffffffffffffffffffffffffffffffffff168173ffffffffffffffffffffffffffffffffffffffff16837f2f8788117e7eff1d82e926ec794901d17c78024a50270940304540a733656f0d60405160405180910390a45b5050565b600060019054906101000a900460ff16806200046e575060008054906101000a900460ff16155b620004b0576040517f08c379a0000000000000000000000000000000000000000000000000000000008152600401620004a7906200077e565b60405180910390fd5b60008060019054906101000a900460ff16159050801562000501576001600060016101000a81548160ff02191690831515021790555060016000806101000a81548160ff0219169083151502179055505b8015620005235760008060016101000a81548160ff0219169083151502179055505b50565b600060019054906101000a900460ff16806200054d575060008054906101000a900460ff16155b6200058f576040517f08c379a000000000000000000000000000000000000000000000000000000000815260040162000586906200077e565b60405180910390fd5b60008060019054906101000a900460ff161590508015620005e0576001600060016101000a81548160ff02191690831515021790555060016000806101000a81548160ff0219169083151502179055505b8015620006025760008060016101000a81548160ff0219169083151502179055505b50565b600060019054906101000a900460ff16806200062c575060008054906101000a900460ff16155b6200066e576040517f08c379a000000000000000000000000000000000000000000000000000000000815260040162000665906200077e565b60405180910390fd5b60008060019054906101000a900460ff161590508015620006bf576001600060016101000a81548160ff02191690831515021790555060016000806101000a81548160ff0219169083151502179055505b8015620006e15760008060016101000a81548160ff0219169083151502179055505b50565b60006065600084815260200190815260200160002060000160008373ffffffffffffffffffffffffffffffffffffffff1673ffffffffffffffffffffffffffffffffffffffff16815260200190815260200160002060009054906101000a900460ff16905092915050565b600033905090565b600062000766602e83620007a0565b91506200077382620007b1565b604082019050919050565b60006020820190508181036000830152620007998162000757565b9050919050565b600082825260208201905092915050565b7f496e697469616c697a61626c653a20636f6e747261637420697320616c72656160008201527f647920696e697469616c697a6564000000000000000000000000000000000000602082015250565b61124880620008106000396000f3fe608060405234801561001057600080fd5b50600436106100f55760003560e01c806391d1485411610097578063d539139311610066578063d53913931461026c578063d547741f1461028a578063e63ab1e9146102a6578063f72c0d8b146102c4576100f5565b806391d14854146101e6578063a057353614610216578063a217fddf14610232578063c634b78e14610250576100f5565b806336568abe116100d357806336568abe146101765780633dd1eb6114610192578063595a1d3f146101ae5780636c11c21c146101ca576100f5565b806301ffc9a7146100fa578063248a9ca31461012a5780632f2ff15d1461015a575b600080fd5b610114600480360381019061010f9190610d02565b6102e2565b6040516101219190610e79565b60405180910390f35b610144600480360381019061013f9190610c9d565b61035c565b6040516101519190610e94565b60405180910390f35b610174600480360381019061016f9190610cc6565b61037c565b005b610190600480360381019061018b9190610cc6565b6103a5565b005b6101ac60048036038101906101a79190610c74565b610428565b005b6101c860048036038101906101c39190610c74565b61046b565b005b6101e460048036038101906101df9190610c74565b6104ae565b005b61020060048036038101906101fb9190610cc6565b6104f1565b60405161020d9190610e79565b60405180910390f35b610230600480360381019061022b9190610c74565b61055c565b005b61023a610599565b6040516102479190610e94565b60405180910390f35b61026a60048036038101906102659190610c74565b6105a0565b005b6102746105c6565b6040516102819190610e94565b60405180910390f35b6102a4600480360381019061029f9190610cc6565b6105ea565b005b6102ae610613565b6040516102bb9190610e94565b60405180910390f35b6102cc610637565b6040516102d99190610e94565b60405180910390f35b60007f7965db0b000000000000000000000000000000000000000000000000000000007bffffffffffffffffffffffffffffffffffffffffffffffffffffffff1916827bffffffffffffffffffffffffffffffffffffffffffffffffffffffff1916148061035557506103548261065b565b5b9050919050565b600060656000838152602001908152602001600020600101549050919050565b6103858261035c565b610396816103916106c5565b6106cd565b6103a0838361076a565b505050565b6103ad6106c5565b73ffffffffffffffffffffffffffffffffffffffff168173ffffffffffffffffffffffffffffffffffffffff161461041a576040517f08c379a000000000000000000000000000000000000000000000000000000000815260040161041190610ef1565b60405180910390fd5b610424828261084b565b5050565b6000801b61043d816104386106c5565b6106cd565b6104677f9f2df0fed2c77648de5860a4cc508cd0818c85b8b8a1ab4ceeef8d981c8956a68361092d565b5050565b6000801b6104808161047b6106c5565b6106cd565b6104aa7f9f2df0fed2c77648de5860a4cc508cd0818c85b8b8a1ab4ceeef8d981c8956a68361092d565b5050565b6000801b6104c3816104be6106c5565b6106cd565b6104ed7f9f2df0fed2c77648de5860a4cc508cd0818c85b8b8a1ab4ceeef8d981c8956a68361092d565b5050565b60006065600084815260200190815260200160002060000160008373ffffffffffffffffffffffffffffffffffffffff1673ffffffffffffffffffffffffffffffffffffffff16815260200190815260200160002060009054906101000a900460ff16905092915050565b6000801b6105718161056c6106c5565b6106cd565b61057a826104ae565b61058382610428565b61058c8261046b565b610595826105a0565b5050565b6000801b81565b6000801b6105b5816105b06106c5565b6106cd565b6105c26000801b8361092d565b5050565b7f9f2df0fed2c77648de5860a4cc508cd0818c85b8b8a1ab4ceeef8d981c8956a681565b6105f38261035c565b610604816105ff6106c5565b6106cd565b61060e838361084b565b505050565b7f65d7a28e3265b37a6474929f336521b332c1681b933f6cb9f3376673440d862a81565b7f189ab7a9244df0848122154315af71fe140f3db0fe014031783b0946b8c9d2e381565b60007f01ffc9a7000000000000000000000000000000000000000000000000000000007bffffffffffffffffffffffffffffffffffffffffffffffffffffffff1916827bffffffffffffffffffffffffffffffffffffffffffffffffffffffff1916149050919050565b600033905090565b6106d782826104f1565b610766576106fc8173ffffffffffffffffffffffffffffffffffffffff16601461093b565b61070a8360001c602061093b565b60405160200161071b929190610e3f565b6040516020818303038152906040526040517f08c379a000000000000000000000000000000000000000000000000000000000815260040161075d9190610eaf565b60405180910390fd5b5050565b61077482826104f1565b6108475760016065600084815260200190815260200160002060000160008373ffffffffffffffffffffffffffffffffffffffff1673ffffffffffffffffffffffffffffffffffffffff16815260200190815260200160002060006101000a81548160ff0219169083151502179055506107ec6106c5565b73ffffffffffffffffffffffffffffffffffffffff168173ffffffffffffffffffffffffffffffffffffffff16837f2f8788117e7eff1d82e926ec794901d17c78024a50270940304540a733656f0d60405160405180910390a45b5050565b61085582826104f1565b156109295760006065600084815260200190815260200160002060000160008373ffffffffffffffffffffffffffffffffffffffff1673ffffffffffffffffffffffffffffffffffffffff16815260200190815260200160002060006101000a81548160ff0219169083151502179055506108ce6106c5565b73ffffffffffffffffffffffffffffffffffffffff168173ffffffffffffffffffffffffffffffffffffffff16837ff6391f5c32d9c69d2a47ea670b442974b53935d1edc7fd64eb21e047a839171b60405160405180910390a45b5050565b610937828261076a565b5050565b60606000600283600261094e9190610f8e565b6109589190610f38565b67ffffffffffffffff811115610997577f4e487b7100000000000000000000000000000000000000000000000000000000600052604160045260246000fd5b6040519080825280601f01601f1916602001820160405280156109c95781602001600182028036833780820191505090505b5090507f300000000000000000000000000000000000000000000000000000000000000081600081518110610a27577f4e487b7100000000000000000000000000000000000000000000000000000000600052603260045260246000fd5b60200101907effffffffffffffffffffffffffffffffffffffffffffffffffffffffffffff1916908160001a9053507f780000000000000000000000000000000000000000000000000000000000000081600181518110610ab1577f4e487b7100000000000000000000000000000000000000000000000000000000600052603260045260246000fd5b60200101907effffffffffffffffffffffffffffffffffffffffffffffffffffffffffffff1916908160001a90535060006001846002610af19190610f8e565b610afb9190610f38565b90505b6001811115610be7577f3031323334353637383961626364656600000000000000000000000000000000600f861660108110610b63577f4e487b7100000000000000000000000000000000000000000000000000000000600052603260045260246000fd5b1a60f81b828281518110610ba0577f4e487b7100000000000000000000000000000000000000000000000000000000600052603260045260246000fd5b60200101907effffffffffffffffffffffffffffffffffffffffffffffffffffffffffffff1916908160001a905350600485901c945080610be090611099565b9050610afe565b5060008414610c2b576040517f08c379a0000000000000000000000000000000000000000000000000000000008152600401610c2290610ed1565b60405180910390fd5b8091505092915050565b600081359050610c44816111cd565b92915050565b600081359050610c59816111e4565b92915050565b600081359050610c6e816111fb565b92915050565b600060208284031215610c8657600080fd5b6000610c9484828501610c35565b91505092915050565b600060208284031215610caf57600080fd5b6000610cbd84828501610c4a565b91505092915050565b60008060408385031215610cd957600080fd5b6000610ce785828601610c4a565b9250506020610cf885828601610c35565b9150509250929050565b600060208284031215610d1457600080fd5b6000610d2284828501610c5f565b91505092915050565b610d3481610ffa565b82525050565b610d4381611006565b82525050565b6000610d5482610f11565b610d5e8185610f1c565b9350610d6e818560208601611066565b610d77816110f2565b840191505092915050565b6000610d8d82610f11565b610d978185610f2d565b9350610da7818560208601611066565b80840191505092915050565b6000610dc0602083610f1c565b9150610dcb82611103565b602082019050919050565b6000610de3601783610f2d565b9150610dee8261112c565b601782019050919050565b6000610e06601183610f2d565b9150610e1182611155565b601182019050919050565b6000610e29602f83610f1c565b9150610e348261117e565b604082019050919050565b6000610e4a82610dd6565b9150610e568285610d82565b9150610e6182610df9565b9150610e6d8284610d82565b91508190509392505050565b6000602082019050610e8e6000830184610d2b565b92915050565b6000602082019050610ea96000830184610d3a565b92915050565b60006020820190508181036000830152610ec98184610d49565b905092915050565b60006020820190508181036000830152610eea81610db3565b9050919050565b60006020820190508181036000830152610f0a81610e1c565b9050919050565b600081519050919050565b600082825260208201905092915050565b600081905092915050565b6000610f438261105c565b9150610f4e8361105c565b9250827fffffffffffffffffffffffffffffffffffffffffffffffffffffffffffffffff03821115610f8357610f826110c3565b5b828201905092915050565b6000610f998261105c565b9150610fa48361105c565b9250817fffffffffffffffffffffffffffffffffffffffffffffffffffffffffffffffff0483118215151615610fdd57610fdc6110c3565b5b828202905092915050565b6000610ff38261103c565b9050919050565b60008115159050919050565b6000819050919050565b60007fffffffff0000000000000000000000000000000000000000000000000000000082169050919050565b600073ffffffffffffffffffffffffffffffffffffffff82169050919050565b6000819050919050565b60005b83811015611084578082015181840152602081019050611069565b83811115611093576000848401525b50505050565b60006110a48261105c565b915060008214156110b8576110b76110c3565b5b600182039050919050565b7f4e487b7100000000000000000000000000000000000000000000000000000000600052601160045260246000fd5b6000601f19601f8301169050919050565b7f537472696e67733a20686578206c656e67746820696e73756666696369656e74600082015250565b7f416363657373436f6e74726f6c3a206163636f756e7420000000000000000000600082015250565b7f206973206d697373696e6720726f6c6520000000000000000000000000000000600082015250565b7f416363657373436f6e74726f6c3a2063616e206f6e6c792072656e6f756e636560008201527f20726f6c657320666f722073656c660000000000000000000000000000000000602082015250565b6111d681610fe8565b81146111e157600080fd5b50565b6111ed81611006565b81146111f857600080fd5b50565b61120481611010565b811461120f57600080fd5b5056fea26469706673582212207f6dcbf91e7a64b7b71b6003759e928d3d48bad514cd0c39907c2f483f4306d064736f6c6343000802003360806040523480156200001157600080fd5b5060405162003ab238038062003ab2833981810160405281019062000037919062000ce9565b6200004b848484846200005560201b60201c565b5050505062001084565b600060019054906101000a900460ff16806200007c575060008054906101000a900460ff16155b620000be576040517f08c379a0000000000000000000000000000000000000000000000000000000008152600401620000b59062000df7565b60405180910390fd5b60008060019054906101000a900460ff1615905080156200010f576001600060016101000a81548160ff02191690831515021790555060016000806101000a81548160ff0219169083151502179055505b62000120826200017c60201b60201c565b6200013285856200027d60201b60201c565b62000143836200038060201b60201c565b620001536200048160201b60201c565b8015620001755760008060016101000a81548160ff0219169083151502179055505b5050505050565b600060019054906101000a900460ff1680620001a3575060008054906101000a900460ff16155b620001e5576040517f08c379a0000000000000000000000000000000000000000000000000000000008152600401620001dc9062000df7565b60405180910390fd5b60008060019054906101000a900460ff16159050801562000236576001600060016101000a81548160ff02191690831515021790555060016000806101000a81548160ff0219169083151502179055505b620002466200056060201b60201c565b62000257826200065f60201b60201c565b8015620002795760008060016101000a81548160ff0219169083151502179055505b5050565b600060019054906101000a900460ff1680620002a4575060008054906101000a900460ff16155b620002e6576040517f08c379a0000000000000000000000000000000000000000000000000000000008152600401620002dd9062000df7565b60405180910390fd5b60008060019054906101000a900460ff16159050801562000337576001600060016101000a81548160ff02191690831515021790555060016000806101000a81548160ff0219169083151502179055505b620003476200078060201b60201c565b6200035983836200085f60201b60201c565b80156200037b5760008060016101000a81548160ff0219169083151502179055505b505050565b600060019054906101000a900460ff1680620003a7575060008054906101000a900460ff16155b620003e9576040517f08c379a0000000000000000000000000000000000000000000000000000000008152600401620003e09062000df7565b60405180910390fd5b60008060019054906101000a900460ff1615905080156200043a576001600060016101000a81548160ff02191690831515021790555060016000806101000a81548160ff0219169083151502179055505b6200044a6200078060201b60201c565b6200045b826200097260201b60201c565b80156200047d5760008060016101000a81548160ff0219169083151502179055505b5050565b600060019054906101000a900460ff1680620004a8575060008054906101000a900460ff16155b620004ea576040517f08c379a0000000000000000000000000000000000000000000000000000000008152600401620004e19062000df7565b60405180910390fd5b60008060019054906101000a900460ff1615905080156200053b576001600060016101000a81548160ff02191690831515021790555060016000806101000a81548160ff0219169083151502179055505b80156200055d5760008060016101000a81548160ff0219169083151502179055505b50565b600060019054906101000a900460ff168062000587575060008054906101000a900460ff16155b620005c9576040517f08c379a0000000000000000000000000000000000000000000000000000000008152600401620005c09062000df7565b60405180910390fd5b60008060019054906101000a900460ff1615905080156200061a576001600060016101000a81548160ff02191690831515021790555060016000806101000a81548160ff0219169083151502179055505b6200062a6200078060201b60201c565b6200063a62000a9f60201b60201c565b80156200065c5760008060016101000a81548160ff0219169083151502179055505b50565b600060019054906101000a900460ff168062000686575060008054906101000a900460ff16155b620006c8576040517f08c379a0000000000000000000000000000000000000000000000000000000008152600401620006bf9062000df7565b60405180910390fd5b60008060019054906101000a900460ff16159050801562000719576001600060016101000a81548160ff02191690831515021790555060016000806101000a81548160ff0219169083151502179055505b81606560006101000a81548173ffffffffffffffffffffffffffffffffffffffff021916908373ffffffffffffffffffffffffffffffffffffffff16021790555080156200077c5760008060016101000a81548160ff0219169083151502179055505b5050565b600060019054906101000a900460ff1680620007a7575060008054906101000a900460ff16155b620007e9576040517f08c379a0000000000000000000000000000000000000000000000000000000008152600401620007e09062000df7565b60405180910390fd5b60008060019054906101000a900460ff1615905080156200083a576001600060016101000a81548160ff02191690831515021790555060016000806101000a81548160ff0219169083151502179055505b80156200085c5760008060016101000a81548160ff0219169083151502179055505b50565b600060019054906101000a900460ff168062000886575060008054906101000a900460ff16155b620008c8576040517f08c379a0000000000000000000000000000000000000000000000000000000008152600401620008bf9062000df7565b60405180910390fd5b60008060019054906101000a900460ff16159050801562000919576001600060016101000a81548160ff02191690831515021790555060016000806101000a81548160ff0219169083151502179055505b82606990805190602001906200093192919062000b99565b5081606a90805190602001906200094a92919062000b99565b5080156200096d5760008060016101000a81548160ff0219169083151502179055505b505050565b600060019054906101000a900460ff168062000999575060008054906101000a900460ff16155b620009db576040517f08c379a0000000000000000000000000000000000000000000000000000000008152600401620009d29062000df7565b60405180910390fd5b60008060019054906101000a900460ff16159050801562000a2c576001600060016101000a81548160ff02191690831515021790555060016000806101000a81548160ff0219169083151502179055505b6000821162000a72576040517f08c379a000000000000000000000000000000000000000000000000000000000815260040162000a699062000dd5565b60405180910390fd5b81609881905550801562000a9b5760008060016101000a81548160ff0219169083151502179055505b5050565b600060019054906101000a900460ff168062000ac6575060008054906101000a900460ff16155b62000b08576040517f08c379a000000000000000000000000000000000000000000000000000000000815260040162000aff9062000df7565b60405180910390fd5b60008060019054906101000a900460ff16159050801562000b59576001600060016101000a81548160ff02191690831515021790555060016000806101000a81548160ff0219169083151502179055505b6000603360006101000a81548160ff021916908315150217905550801562000b965760008060016101000a81548160ff0219169083151502179055505b50565b82805462000ba79062000efd565b90600052602060002090601f01602090048101928262000bcb576000855562000c17565b82601f1062000be657805160ff191683800117855562000c17565b8280016001018555821562000c17579182015b8281111562000c1657825182559160200191906001019062000bf9565b5b50905062000c26919062000c2a565b5090565b5b8082111562000c4557600081600090555060010162000c2b565b5090565b600062000c6062000c5a8462000e42565b62000e19565b90508281526020810184848401111562000c7957600080fd5b62000c8684828562000ec7565b509392505050565b60008151905062000c9f8162001050565b92915050565b600082601f83011262000cb757600080fd5b815162000cc984826020860162000c49565b91505092915050565b60008151905062000ce3816200106a565b92915050565b6000806000806080858703121562000d0057600080fd5b600085015167ffffffffffffffff81111562000d1b57600080fd5b62000d298782880162000ca5565b945050602085015167ffffffffffffffff81111562000d4757600080fd5b62000d558782880162000ca5565b935050604062000d688782880162000cd2565b925050606062000d7b8782880162000c8e565b91505092959194509250565b600062000d9660158362000e78565b915062000da38262000fd8565b602082019050919050565b600062000dbd602e8362000e78565b915062000dca8262001001565b604082019050919050565b6000602082019050818103600083015262000df08162000d87565b9050919050565b6000602082019050818103600083015262000e128162000dae565b9050919050565b600062000e2562000e38565b905062000e33828262000f33565b919050565b6000604051905090565b600067ffffffffffffffff82111562000e605762000e5f62000f98565b5b62000e6b8262000fc7565b9050602081019050919050565b600082825260208201905092915050565b600062000e968262000e9d565b9050919050565b600073ffffffffffffffffffffffffffffffffffffffff82169050919050565b6000819050919050565b60005b8381101562000ee757808201518184015260208101905062000eca565b8381111562000ef7576000848401525b50505050565b6000600282049050600182168062000f1657607f821691505b6020821081141562000f2d5762000f2c62000f69565b5b50919050565b62000f3e8262000fc7565b810181811067ffffffffffffffff8211171562000f605762000f5f62000f98565b5b80604052505050565b7f4e487b7100000000000000000000000000000000000000000000000000000000600052602260045260246000fd5b7f4e487b7100000000000000000000000000000000000000000000000000000000600052604160045260246000fd5b6000601f19601f8301169050919050565b7f45524332304361707065643a2063617020697320300000000000000000000000600082015250565b7f496e697469616c697a61626c653a20636f6e747261637420697320616c72656160008201527f647920696e697469616c697a6564000000000000000000000000000000000000602082015250565b6200105b8162000e89565b81146200106757600080fd5b50565b620010758162000ebd565b81146200108157600080fd5b50565b612a1e80620010946000396000f3fe608060405234801561001057600080fd5b50600436106101425760003560e01c80635c975abb116100b857806395d89b411161007c57806395d89b4114610353578063a217fddf14610371578063a457c2d71461038f578063a9059cbb146103bf578063dd62ed3e146103ef578063e63ab1e91461041f57610142565b80635c975abb146102ad57806370a08231146102cb57806373f42561146102fb5780638456cb591461031957806391d148541461032357610142565b8063355274ea1161010a578063355274ea14610201578063395093511461021f5780633f4ba83a1461024f57806340c10f191461025957806342966c681461027557806358aba00f1461029157610142565b806306fdde0314610147578063095ea7b31461016557806318160ddd1461019557806323b872dd146101b3578063313ce567146101e3575b600080fd5b61014f61043d565b60405161015c9190612091565b60405180910390f35b61017f600480360381019061017a9190611be2565b6104cf565b60405161018c9190612032565b60405180910390f35b61019d6104ed565b6040516101aa9190612293565b60405180910390f35b6101cd60048036038101906101c89190611b93565b6104f7565b6040516101da9190612032565b60405180910390f35b6101eb6105ef565b6040516101f891906122ae565b60405180910390f35b6102096105f8565b6040516102169190612293565b60405180910390f35b61023960048036038101906102349190611be2565b610602565b6040516102469190612032565b60405180910390f35b6102576106ae565b005b610273600480360381019061026e9190611be2565b61077b565b005b61028f600480360381019061028a9190611c83565b61084c565b005b6102ab60048036038101906102a69190611b2e565b610860565b005b6102b561094a565b6040516102c29190612032565b60405180910390f35b6102e560048036038101906102e09190611b2e565b610961565b6040516102f29190612293565b60405180910390f35b6103036109aa565b6040516103109190612293565b60405180910390f35b6103216109b0565b005b61033d60048036038101906103389190611c47565b610a7d565b60405161034a9190612032565b60405180910390f35b61035b610b39565b6040516103689190612091565b60405180910390f35b610379610bcb565b604051610386919061204d565b60405180910390f35b6103a960048036038101906103a49190611be2565b610bd2565b6040516103b69190612032565b60405180910390f35b6103d960048036038101906103d49190611be2565b610cbd565b6040516103e69190612032565b60405180910390f35b61040960048036038101906104049190611b57565b610cdb565b6040516104169190612293565b60405180910390f35b610427610d62565b604051610434919061204d565b60405180910390f35b60606069805461044c90612490565b80601f016020809104026020016040519081016040528092919081815260200182805461047890612490565b80156104c55780601f1061049a576101008083540402835291602001916104c5565b820191906000526020600020905b8154815290600101906020018083116104a857829003601f168201915b5050505050905090565b60006104e36104dc610d86565b8484610d8e565b6001905092915050565b6000606854905090565b6000610504848484610f59565b6000606760008673ffffffffffffffffffffffffffffffffffffffff1673ffffffffffffffffffffffffffffffffffffffff168152602001908152602001600020600061054f610d86565b73ffffffffffffffffffffffffffffffffffffffff1673ffffffffffffffffffffffffffffffffffffffff168152602001908152602001600020549050828110156105cf576040517f08c379a00000000000000000000000000000000000000000000000000000000081526004016105c690612193565b60405180910390fd5b6105e3856105db610d86565b858403610d8e565b60019150509392505050565b60006012905090565b6000609854905090565b60006106a461060f610d86565b84846067600061061d610d86565b73ffffffffffffffffffffffffffffffffffffffff1673ffffffffffffffffffffffffffffffffffffffff16815260200190815260200160002060008873ffffffffffffffffffffffffffffffffffffffff1673ffffffffffffffffffffffffffffffffffffffff1681526020019081526020016000205461069f91906122f0565b610d8e565b6001905092915050565b7f65d7a28e3265b37a6474929f336521b332c1681b933f6cb9f3376673440d862a60003390506106de8282610a7d565b6106ff8273ffffffffffffffffffffffffffffffffffffffff1660146111dd565b61070d8460001c60206111dd565b60405160200161071e929190611fb4565b6040516020818303038152906040529061076e576040517f08c379a00000000000000000000000000000000000000000000000000000000081526004016107659190612091565b60405180910390fd5b506107776114d7565b5050565b7f9f2df0fed2c77648de5860a4cc508cd0818c85b8b8a1ab4ceeef8d981c8956a660003390506107ab8282610a7d565b6107cc8273ffffffffffffffffffffffffffffffffffffffff1660146111dd565b6107da8460001c60206111dd565b6040516020016107eb929190611fb4565b6040516020818303038152906040529061083b576040517f08c379a00000000000000000000000000000000000000000000000000000000081526004016108329190612091565b60405180910390fd5b506108468484611579565b50505050565b61085d610857610d86565b82611629565b50565b6000801b60003390506108738282610a7d565b6108948273ffffffffffffffffffffffffffffffffffffffff1660146111dd565b6108a28460001c60206111dd565b6040516020016108b3929190611fb4565b60405160208183030381529060405290610903576040517f08c379a00000000000000000000000000000000000000000000000000000000081526004016108fa9190612091565b60405180910390fd5b5082606560006101000a81548173ffffffffffffffffffffffffffffffffffffffff021916908373ffffffffffffffffffffffffffffffffffffffff160217905550505050565b6000603360009054906101000a900460ff16905090565b6000606660008373ffffffffffffffffffffffffffffffffffffffff1673ffffffffffffffffffffffffffffffffffffffff168152602001908152602001600020549050919050565b60cb5481565b7f65d7a28e3265b37a6474929f336521b332c1681b933f6cb9f3376673440d862a60003390506109e08282610a7d565b610a018273ffffffffffffffffffffffffffffffffffffffff1660146111dd565b610a0f8460001c60206111dd565b604051602001610a20929190611fb4565b60405160208183030381529060405290610a70576040517f08c379a0000000000000000000000000000000000000000000000000000000008152600401610a679190612091565b60405180910390fd5b50610a79611689565b5050565b600080606560009054906101000a900473ffffffffffffffffffffffffffffffffffffffff1690508073ffffffffffffffffffffffffffffffffffffffff166391d1485485856040518363ffffffff1660e01b8152600401610ae0929190612068565b60206040518083038186803b158015610af857600080fd5b505afa158015610b0c573d6000803e3d6000fd5b505050506040513d601f19601f82011682018060405250810190610b309190611c1e565b91505092915050565b6060606a8054610b4890612490565b80601f0160208091040260200160405190810160405280929190818152602001828054610b7490612490565b8015610bc15780601f10610b9657610100808354040283529160200191610bc1565b820191906000526020600020905b815481529060010190602001808311610ba457829003601f168201915b5050505050905090565b6000801b81565b60008060676000610be1610d86565b73ffffffffffffffffffffffffffffffffffffffff1673ffffffffffffffffffffffffffffffffffffffff16815260200190815260200160002060008573ffffffffffffffffffffffffffffffffffffffff1673ffffffffffffffffffffffffffffffffffffffff16815260200190815260200160002054905082811015610c9e576040517f08c379a0000000000000000000000000000000000000000000000000000000008152600401610c9590612253565b60405180910390fd5b610cb2610ca9610d86565b85858403610d8e565b600191505092915050565b6000610cd1610cca610d86565b8484610f59565b6001905092915050565b6000606760008473ffffffffffffffffffffffffffffffffffffffff1673ffffffffffffffffffffffffffffffffffffffff16815260200190815260200160002060008373ffffffffffffffffffffffffffffffffffffffff1673ffffffffffffffffffffffffffffffffffffffff16815260200190815260200160002054905092915050565b7f65d7a28e3265b37a6474929f336521b332c1681b933f6cb9f3376673440d862a81565b600033905090565b600073ffffffffffffffffffffffffffffffffffffffff168373ffffffffffffffffffffffffffffffffffffffff161415610dfe576040517f08c379a0000000000000000000000000000000000000000000000000000000008152600401610df590612213565b60405180910390fd5b600073ffffffffffffffffffffffffffffffffffffffff168273ffffffffffffffffffffffffffffffffffffffff161415610e6e576040517f08c379a0000000000000000000000000000000000000000000000000000000008152600401610e6590612133565b60405180910390fd5b80606760008573ffffffffffffffffffffffffffffffffffffffff1673ffffffffffffffffffffffffffffffffffffffff16815260200190815260200160002060008473ffffffffffffffffffffffffffffffffffffffff1673ffffffffffffffffffffffffffffffffffffffff168152602001908152602001600020819055508173ffffffffffffffffffffffffffffffffffffffff168373ffffffffffffffffffffffffffffffffffffffff167f8c5be1e5ebec7d5bd14f71427d1e84f3dd0314c0f7b2291e5b200ac8c7c3b92583604051610f4c9190612293565b60405180910390a3505050565b600073ffffffffffffffffffffffffffffffffffffffff168373ffffffffffffffffffffffffffffffffffffffff161415610fc9576040517f08c379a0000000000000000000000000000000000000000000000000000000008152600401610fc0906121d3565b60405180910390fd5b600073ffffffffffffffffffffffffffffffffffffffff168273ffffffffffffffffffffffffffffffffffffffff161415611039576040517f08c379a0000000000000000000000000000000000000000000000000000000008152600401611030906120d3565b60405180910390fd5b61104483838361172c565b6000606660008573ffffffffffffffffffffffffffffffffffffffff1673ffffffffffffffffffffffffffffffffffffffff168152602001908152602001600020549050818110156110cb576040517f08c379a00000000000000000000000000000000000000000000000000000000081526004016110c290612153565b60405180910390fd5b818103606660008673ffffffffffffffffffffffffffffffffffffffff1673ffffffffffffffffffffffffffffffffffffffff1681526020019081526020016000208190555081606660008573ffffffffffffffffffffffffffffffffffffffff1673ffffffffffffffffffffffffffffffffffffffff168152602001908152602001600020600082825461116091906122f0565b925050819055508273ffffffffffffffffffffffffffffffffffffffff168473ffffffffffffffffffffffffffffffffffffffff167fddf252ad1be2c89b69c2b068fc378daa952ba7f163c4a11628f55a4df523b3ef846040516111c49190612293565b60405180910390a36111d7848484611731565b50505050565b6060600060028360026111f09190612346565b6111fa91906122f0565b67ffffffffffffffff811115611239577f4e487b7100000000000000000000000000000000000000000000000000000000600052604160045260246000fd5b6040519080825280601f01601f19166020018201604052801561126b5781602001600182028036833780820191505090505b5090507f3000000000000000000000000000000000000000000000000000000000000000816000815181106112c9577f4e487b7100000000000000000000000000000000000000000000000000000000600052603260045260246000fd5b60200101907effffffffffffffffffffffffffffffffffffffffffffffffffffffffffffff1916908160001a9053507f780000000000000000000000000000000000000000000000000000000000000081600181518110611353577f4e487b7100000000000000000000000000000000000000000000000000000000600052603260045260246000fd5b60200101907effffffffffffffffffffffffffffffffffffffffffffffffffffffffffffff1916908160001a905350600060018460026113939190612346565b61139d91906122f0565b90505b6001811115611489577f3031323334353637383961626364656600000000000000000000000000000000600f861660108110611405577f4e487b7100000000000000000000000000000000000000000000000000000000600052603260045260246000fd5b1a60f81b828281518110611442577f4e487b7100000000000000000000000000000000000000000000000000000000600052603260045260246000fd5b60200101907effffffffffffffffffffffffffffffffffffffffffffffffffffffffffffff1916908160001a905350600485901c94508061148290612466565b90506113a0565b50600084146114cd576040517f08c379a00000000000000000000000000000000000000000000000000000000081526004016114c4906120b3565b60405180910390fd5b8091505092915050565b6114df61094a565b61151e576040517f08c379a0000000000000000000000000000000000000000000000000000000008152600401611515906120f3565b60405180910390fd5b6000603360006101000a81548160ff0219169083151502179055507f5db9ee0a495bf2e6ff9c91a7834c1ba4fdd244a5e8aa4e537bd38aeae4b073aa611562610d86565b60405161156f9190611fee565b60405180910390a1565b6115816105f8565b8160cb5461158d6104ed565b61159791906122f0565b6115a191906122f0565b11156115e2576040517f08c379a00000000000000000000000000000000000000000000000000000000081526004016115d990612233565b60405180910390fd5b6115ec8282611736565b7f0f6798a560793a54c3bcfe86a93cde1e73087d944c0ea20544137d4121396885828260405161161d929190612009565b60405180910390a15050565b8060cb600082825461163b91906122f0565b9250508190555061164c82826117a0565b7fcc16f5dbb4873280815c1ee09dbd06736cffcc184412cf7a71a0fdb75d397ca5828260405161167d929190612009565b60405180910390a15050565b61169161094a565b156116d1576040517f08c379a00000000000000000000000000000000000000000000000000000000081526004016116c890612173565b60405180910390fd5b6001603360006101000a81548160ff0219169083151502179055507f62e78cea01bee320cd4e420270b5ea74000d11b0c9f74754ebdbfc544b05a258611715610d86565b6040516117229190611fee565b60405180910390a1565b505050565b505050565b61173e6105f8565b816117476104ed565b61175191906122f0565b1115611792576040517f08c379a0000000000000000000000000000000000000000000000000000000008152600401611789906121f3565b60405180910390fd5b61179c8282611979565b5050565b600073ffffffffffffffffffffffffffffffffffffffff168273ffffffffffffffffffffffffffffffffffffffff161415611810576040517f08c379a0000000000000000000000000000000000000000000000000000000008152600401611807906121b3565b60405180910390fd5b61181c8260008361172c565b6000606660008473ffffffffffffffffffffffffffffffffffffffff1673ffffffffffffffffffffffffffffffffffffffff168152602001908152602001600020549050818110156118a3576040517f08c379a000000000000000000000000000000000000000000000000000000000815260040161189a90612113565b60405180910390fd5b818103606660008573ffffffffffffffffffffffffffffffffffffffff1673ffffffffffffffffffffffffffffffffffffffff1681526020019081526020016000208190555081606860008282546118fb91906123a0565b92505081905550600073ffffffffffffffffffffffffffffffffffffffff168373ffffffffffffffffffffffffffffffffffffffff167fddf252ad1be2c89b69c2b068fc378daa952ba7f163c4a11628f55a4df523b3ef846040516119609190612293565b60405180910390a361197483600084611731565b505050565b600073ffffffffffffffffffffffffffffffffffffffff168273ffffffffffffffffffffffffffffffffffffffff1614156119e9576040517f08c379a00000000000000000000000000000000000000000000000000000000081526004016119e090612273565b60405180910390fd5b6119f56000838361172c565b8060686000828254611a0791906122f0565b9250508190555080606660008473ffffffffffffffffffffffffffffffffffffffff1673ffffffffffffffffffffffffffffffffffffffff1681526020019081526020016000206000828254611a5d91906122f0565b925050819055508173ffffffffffffffffffffffffffffffffffffffff16600073ffffffffffffffffffffffffffffffffffffffff167fddf252ad1be2c89b69c2b068fc378daa952ba7f163c4a11628f55a4df523b3ef83604051611ac29190612293565b60405180910390a3611ad660008383611731565b5050565b600081359050611ae98161298c565b92915050565b600081519050611afe816129a3565b92915050565b600081359050611b13816129ba565b92915050565b600081359050611b28816129d1565b92915050565b600060208284031215611b4057600080fd5b6000611b4e84828501611ada565b91505092915050565b60008060408385031215611b6a57600080fd5b6000611b7885828601611ada565b9250506020611b8985828601611ada565b9150509250929050565b600080600060608486031215611ba857600080fd5b6000611bb686828701611ada565b9350506020611bc786828701611ada565b9250506040611bd886828701611b19565b9150509250925092565b60008060408385031215611bf557600080fd5b6000611c0385828601611ada565b9250506020611c1485828601611b19565b9150509250929050565b600060208284031215611c3057600080fd5b6000611c3e84828501611aef565b91505092915050565b60008060408385031215611c5a57600080fd5b6000611c6885828601611b04565b9250506020611c7985828601611ada565b9150509250929050565b600060208284031215611c9557600080fd5b6000611ca384828501611b19565b91505092915050565b611cb5816123d4565b82525050565b611cc4816123e6565b82525050565b611cd3816123f2565b82525050565b6000611ce4826122c9565b611cee81856122d4565b9350611cfe818560208601612433565b611d0781612520565b840191505092915050565b6000611d1d826122c9565b611d2781856122e5565b9350611d37818560208601612433565b80840191505092915050565b6000611d506020836122d4565b9150611d5b82612531565b602082019050919050565b6000611d736023836122d4565b9150611d7e8261255a565b604082019050919050565b6000611d966024836122e5565b9150611da1826125a9565b602482019050919050565b6000611db96014836122d4565b9150611dc4826125f8565b602082019050919050565b6000611ddc6022836122d4565b9150611de782612621565b604082019050919050565b6000611dff6022836122d4565b9150611e0a82612670565b604082019050919050565b6000611e226026836122d4565b9150611e2d826126bf565b604082019050919050565b6000611e456010836122d4565b9150611e508261270e565b602082019050919050565b6000611e686028836122d4565b9150611e7382612737565b604082019050919050565b6000611e8b6021836122d4565b9150611e9682612786565b604082019050919050565b6000611eae6025836122d4565b9150611eb9826127d5565b604082019050919050565b6000611ed16019836122d4565b9150611edc82612824565b602082019050919050565b6000611ef46024836122d4565b9150611eff8261284d565b604082019050919050565b6000611f176026836122d4565b9150611f228261289c565b604082019050919050565b6000611f3a6025836122d4565b9150611f45826128eb565b604082019050919050565b6000611f5d6011836122e5565b9150611f688261293a565b601182019050919050565b6000611f80601f836122d4565b9150611f8b82612963565b602082019050919050565b611f9f8161241c565b82525050565b611fae81612426565b82525050565b6000611fbf82611d89565b9150611fcb8285611d12565b9150611fd682611f50565b9150611fe28284611d12565b91508190509392505050565b60006020820190506120036000830184611cac565b92915050565b600060408201905061201e6000830185611cac565b61202b6020830184611f96565b9392505050565b60006020820190506120476000830184611cbb565b92915050565b60006020820190506120626000830184611cca565b92915050565b600060408201905061207d6000830185611cca565b61208a6020830184611cac565b9392505050565b600060208201905081810360008301526120ab8184611cd9565b905092915050565b600060208201905081810360008301526120cc81611d43565b9050919050565b600060208201905081810360008301526120ec81611d66565b9050919050565b6000602082019050818103600083015261210c81611dac565b9050919050565b6000602082019050818103600083015261212c81611dcf565b9050919050565b6000602082019050818103600083015261214c81611df2565b9050919050565b6000602082019050818103600083015261216c81611e15565b9050919050565b6000602082019050818103600083015261218c81611e38565b9050919050565b600060208201905081810360008301526121ac81611e5b565b9050919050565b600060208201905081810360008301526121cc81611e7e565b9050919050565b600060208201905081810360008301526121ec81611ea1565b9050919050565b6000602082019050818103600083015261220c81611ec4565b9050919050565b6000602082019050818103600083015261222c81611ee7565b9050919050565b6000602082019050818103600083015261224c81611f0a565b9050919050565b6000602082019050818103600083015261226c81611f2d565b9050919050565b6000602082019050818103600083015261228c81611f73565b9050919050565b60006020820190506122a86000830184611f96565b92915050565b60006020820190506122c36000830184611fa5565b92915050565b600081519050919050565b600082825260208201905092915050565b600081905092915050565b60006122fb8261241c565b91506123068361241c565b9250827fffffffffffffffffffffffffffffffffffffffffffffffffffffffffffffffff0382111561233b5761233a6124c2565b5b828201905092915050565b60006123518261241c565b915061235c8361241c565b9250817fffffffffffffffffffffffffffffffffffffffffffffffffffffffffffffffff0483118215151615612395576123946124c2565b5b828202905092915050565b60006123ab8261241c565b91506123b68361241c565b9250828210156123c9576123c86124c2565b5b828203905092915050565b60006123df826123fc565b9050919050565b60008115159050919050565b6000819050919050565b600073ffffffffffffffffffffffffffffffffffffffff82169050919050565b6000819050919050565b600060ff82169050919050565b60005b83811015612451578082015181840152602081019050612436565b83811115612460576000848401525b50505050565b60006124718261241c565b91506000821415612485576124846124c2565b5b600182039050919050565b600060028204905060018216806124a857607f821691505b602082108114156124bc576124bb6124f1565b5b50919050565b7f4e487b7100000000000000000000000000000000000000000000000000000000600052601160045260246000fd5b7f4e487b7100000000000000000000000000000000000000000000000000000000600052602260045260246000fd5b6000601f19601f8301169050919050565b7f537472696e67733a20686578206c656e67746820696e73756666696369656e74600082015250565b7f45524332303a207472616e7366657220746f20746865207a65726f206164647260008201527f6573730000000000000000000000000000000000000000000000000000000000602082015250565b7f416363657373436f6e74726f6c50726f78795061757361626c653a206163636f60008201527f756e742000000000000000000000000000000000000000000000000000000000602082015250565b7f5061757361626c653a206e6f7420706175736564000000000000000000000000600082015250565b7f45524332303a206275726e20616d6f756e7420657863656564732062616c616e60008201527f6365000000000000000000000000000000000000000000000000000000000000602082015250565b7f45524332303a20617070726f766520746f20746865207a65726f20616464726560008201527f7373000000000000000000000000000000000000000000000000000000000000602082015250565b7f45524332303a207472616e7366657220616d6f756e742065786365656473206260008201527f616c616e63650000000000000000000000000000000000000000000000000000602082015250565b7f5061757361626c653a2070617573656400000000000000000000000000000000600082015250565b7f45524332303a207472616e7366657220616d6f756e742065786365656473206160008201527f6c6c6f77616e6365000000000000000000000000000000000000000000000000602082015250565b7f45524332303a206275726e2066726f6d20746865207a65726f2061646472657360008201527f7300000000000000000000000000000000000000000000000000000000000000602082015250565b7f45524332303a207472616e736665722066726f6d20746865207a65726f20616460008201527f6472657373000000000000000000000000000000000000000000000000000000602082015250565b7f45524332304361707065643a2063617020657863656564656400000000000000600082015250565b7f45524332303a20617070726f76652066726f6d20746865207a65726f2061646460008201527f7265737300000000000000000000000000000000000000000000000000000000602082015250565b7f547574656c6c757345524332303a206d696e7420616d6f756e7420657863656560008201527f6473206361700000000000000000000000000000000000000000000000000000602082015250565b7f45524332303a2064656372656173656420616c6c6f77616e63652062656c6f7760008201527f207a65726f000000000000000000000000000000000000000000000000000000602082015250565b7f206973206d697373696e6720726f6c6520000000000000000000000000000000600082015250565b7f45524332303a206d696e7420746f20746865207a65726f206164647265737300600082015250565b612995816123d4565b81146129a057600080fd5b50565b6129ac816123e6565b81146129b757600080fd5b50565b6129c3816123f2565b81146129ce57600080fd5b50565b6129da8161241c565b81146129e557600080fd5b5056fea2646970667358221220ae2b4baa2eb7a53a1c81cf7b82c17c4268c66b19d31037cb434a2a7216d1161764736f6c6343000802003360806040523480156200001157600080fd5b5060405162002b5838038062002b58833981810160405281019062000037919062000847565b8181116200007c576040517f08c379a0000000000000000000000000000000000000000000000000000000008152600401620000739062000928565b60405180910390fd5b6200009185858585856200009c60201b60201c565b505050505062000aca565b600060019054906101000a900460ff1680620000c3575060008054906101000a900460ff16155b62000105576040517f08c379a0000000000000000000000000000000000000000000000000000000008152600401620000fc906200094a565b60405180910390fd5b60008060019054906101000a900460ff16159050801562000156576001600060016101000a81548160ff02191690831515021790555060016000806101000a81548160ff0219169083151502179055505b6200016786620001a560201b60201c565b6200017b85858585620002a660201b60201c565b80156200019d5760008060016101000a81548160ff0219169083151502179055505b505050505050565b600060019054906101000a900460ff1680620001cc575060008054906101000a900460ff16155b6200020e576040517f08c379a000000000000000000000000000000000000000000000000000000000815260040162000205906200094a565b60405180910390fd5b60008060019054906101000a900460ff1615905080156200025f576001600060016101000a81548160ff02191690831515021790555060016000806101000a81548160ff0219169083151502179055505b6200026f6200042060201b60201c565b62000280826200051f60201b60201c565b8015620002a25760008060016101000a81548160ff0219169083151502179055505b5050565b600060019054906101000a900460ff1680620002cd575060008054906101000a900460ff16155b6200030f576040517f08c379a000000000000000000000000000000000000000000000000000000000815260040162000306906200094a565b60405180910390fd5b60008060019054906101000a900460ff16159050801562000360576001600060016101000a81548160ff02191690831515021790555060016000806101000a81548160ff0219169083151502179055505b84606660006101000a81548173ffffffffffffffffffffffffffffffffffffffff021916908373ffffffffffffffffffffffffffffffffffffffff1602179055508360698190555082606781905550816068819055507ff1bd4f3fcb4e0b193abc7e4002c0284e25086269a02de2e4c52045a91f64703760675460685486604051620003ef939291906200096c565b60405180910390a18015620004195760008060016101000a81548160ff0219169083151502179055505b5050505050565b600060019054906101000a900460ff168062000447575060008054906101000a900460ff16155b62000489576040517f08c379a000000000000000000000000000000000000000000000000000000000815260040162000480906200094a565b60405180910390fd5b60008060019054906101000a900460ff161590508015620004da576001600060016101000a81548160ff02191690831515021790555060016000806101000a81548160ff0219169083151502179055505b620004ea6200064060201b60201c565b620004fa6200071f60201b60201c565b80156200051c5760008060016101000a81548160ff0219169083151502179055505b50565b600060019054906101000a900460ff168062000546575060008054906101000a900460ff16155b62000588576040517f08c379a00000000000000000000000000000000000000000000000000000000081526004016200057f906200094a565b60405180910390fd5b60008060019054906101000a900460ff161590508015620005d9576001600060016101000a81548160ff02191690831515021790555060016000806101000a81548160ff0219169083151502179055505b81606560006101000a81548173ffffffffffffffffffffffffffffffffffffffff021916908373ffffffffffffffffffffffffffffffffffffffff16021790555080156200063c5760008060016101000a81548160ff0219169083151502179055505b5050565b600060019054906101000a900460ff168062000667575060008054906101000a900460ff16155b620006a9576040517f08c379a0000000000000000000000000000000000000000000000000000000008152600401620006a0906200094a565b60405180910390fd5b60008060019054906101000a900460ff161590508015620006fa576001600060016101000a81548160ff02191690831515021790555060016000806101000a81548160ff0219169083151502179055505b80156200071c5760008060016101000a81548160ff0219169083151502179055505b50565b600060019054906101000a900460ff168062000746575060008054906101000a900460ff16155b62000788576040517f08c379a00000000000000000000000000000000000000000000000000000000081526004016200077f906200094a565b60405180910390fd5b60008060019054906101000a900460ff161590508015620007d9576001600060016101000a81548160ff02191690831515021790555060016000806101000a81548160ff0219169083151502179055505b6000603360006101000a81548160ff0219169083151502179055508015620008165760008060016101000a81548160ff0219169083151502179055505b50565b6000815190506200082a8162000a96565b92915050565b600081519050620008418162000ab0565b92915050565b600080600080600060a086880312156200086057600080fd5b6000620008708882890162000819565b9550506020620008838882890162000819565b9450506040620008968882890162000830565b9350506060620008a98882890162000830565b9250506080620008bc8882890162000830565b9150509295509295909350565b6000620008d8603383620009a9565b9150620008e582620009f8565b604082019050919050565b6000620008ff602e83620009a9565b91506200090c8262000a47565b604082019050919050565b6200092281620009ee565b82525050565b600060208201905081810360008301526200094381620008c9565b9050919050565b600060208201905081810360008301526200096581620008f0565b9050919050565b600060608201905062000983600083018662000917565b62000992602083018562000917565b620009a1604083018462000917565b949350505050565b600082825260208201905092915050565b6000620009c782620009ce565b9050919050565b600073ffffffffffffffffffffffffffffffffffffffff82169050919050565b6000819050919050565b7f547574656c6c7573486f6c646572735661756c743a20737461727420626c6f6360008201527f6b206578636565647320656e6420626c6f636b00000000000000000000000000602082015250565b7f496e697469616c697a61626c653a20636f6e747261637420697320616c72656160008201527f647920696e697469616c697a6564000000000000000000000000000000000000602082015250565b62000aa181620009ba565b811462000aad57600080fd5b50565b62000abb81620009ee565b811462000ac757600080fd5b50565b61207e8062000ada6000396000f3fe608060405234801561001057600080fd5b50600436106101005760003560e01c806363453ae111610097578063a217fddf11610066578063a217fddf14610285578063e63ab1e9146102a3578063f5d82b6b146102c1578063fc0c546a146102dd57610100565b806363453ae1146101ff5780638456cb591461021b57806391d14854146102255780639852595c1461025557610100565b80634e71d92d116100d35780634e71d92d1461018b578063578bcf351461019557806358aba00f146101c55780635c975abb146101e157610100565b80630d12cc681461010557806310098ad5146101215780633f4ba83a146101515780634225e5bb1461015b575b600080fd5b61011f600480360381019061011a91906114c8565b6102fb565b005b61013b60048036038101906101369190611463565b610516565b60405161014891906119d3565b60405180910390f35b610159610572565b005b61017560048036038101906101709190611463565b61063f565b60405161018291906119d3565b60405180910390f35b610193610657565b005b6101af60048036038101906101aa9190611463565b610668565b6040516101bc91906119d3565b60405180910390f35b6101df60048036038101906101da9190611463565b610680565b005b6101e961076a565b6040516101f69190611852565b60405180910390f35b61021960048036038101906102149190611463565b610781565b005b610223610964565b005b61023f600480360381019061023a919061155d565b610a31565b60405161024c9190611852565b60405180910390f35b61026f600480360381019061026a9190611463565b610aed565b60405161027c91906119d3565b60405180910390f35b61028d610bda565b60405161029a919061186d565b60405180910390f35b6102ab610be1565b6040516102b8919061186d565b60405180910390f35b6102db60048036038101906102d6919061148c565b610c05565b005b6102e5610e76565b6040516102f291906117d7565b60405180910390f35b6000801b600033905061030e8282610a31565b61032f8273ffffffffffffffffffffffffffffffffffffffff166014610e9c565b61033d8460001c6020610e9c565b60405160200161034e92919061179d565b6040516020818303038152906040529061039e576040517f08c379a000000000000000000000000000000000000000000000000000000000815260040161039591906118b1565b60405180910390fd5b5082518451146103e3576040517f08c379a00000000000000000000000000000000000000000000000000000000081526004016103da90611993565b60405180910390fd5b600084511415610428576040517f08c379a000000000000000000000000000000000000000000000000000000000815260040161041f90611913565b60405180910390fd5b60008451905060005b85518110156104d7576104c4868281518110610476577f4e487b7100000000000000000000000000000000000000000000000000000000600052603260045260246000fd5b60200260200101518683815181106104b7577f4e487b7100000000000000000000000000000000000000000000000000000000600052603260045260246000fd5b6020026020010151610c05565b80806104cf90611c87565b915050610431565b507fe351c81cda952efe4c68a918ba81ae9e5c09180bd25019fcd5d971e1050fbb888160405161050791906119d3565b60405180910390a15050505050565b6000606b60008373ffffffffffffffffffffffffffffffffffffffff1673ffffffffffffffffffffffffffffffffffffffff1681526020019081526020016000205461056183610aed565b61056b9190611b73565b9050919050565b7f65d7a28e3265b37a6474929f336521b332c1681b933f6cb9f3376673440d862a60003390506105a28282610a31565b6105c38273ffffffffffffffffffffffffffffffffffffffff166014610e9c565b6105d18460001c6020610e9c565b6040516020016105e292919061179d565b60405160208183030381529060405290610632576040517f08c379a000000000000000000000000000000000000000000000000000000000815260040161062991906118b1565b60405180910390fd5b5061063b611196565b5050565b606c6020528060005260406000206000915090505481565b600033905061066581610781565b50565b606b6020528060005260406000206000915090505481565b6000801b60003390506106938282610a31565b6106b48273ffffffffffffffffffffffffffffffffffffffff166014610e9c565b6106c28460001c6020610e9c565b6040516020016106d392919061179d565b60405160208183030381529060405290610723576040517f08c379a000000000000000000000000000000000000000000000000000000000815260040161071a91906118b1565b60405180910390fd5b5082606560006101000a81548173ffffffffffffffffffffffffffffffffffffffff021916908373ffffffffffffffffffffffffffffffffffffffff160217905550505050565b6000603360009054906101000a900460ff16905090565b61078961076a565b156107c9576040517f08c379a00000000000000000000000000000000000000000000000000000000081526004016107c090611973565b60405180910390fd5b6000606660009054906101000a900473ffffffffffffffffffffffffffffffffffffffff16905060006107fb83610516565b905060008111610840576040517f08c379a0000000000000000000000000000000000000000000000000000000008152600401610837906119b3565b60405180910390fd5b80606b60008573ffffffffffffffffffffffffffffffffffffffff1673ffffffffffffffffffffffffffffffffffffffff168152602001908152602001600020600082825461088f9190611a92565b925050819055508173ffffffffffffffffffffffffffffffffffffffff1663a9059cbb84836040518363ffffffff1660e01b81526004016108d1929190611829565b602060405180830381600087803b1580156108eb57600080fd5b505af11580156108ff573d6000803e3d6000fd5b505050506040513d601f19601f820116820180604052508101906109239190611534565b507fafdc1eb311d58306e249917b5ca0044a827a66f0ec535c334d63372c4055d364338483604051610957939291906117f2565b60405180910390a1505050565b7f65d7a28e3265b37a6474929f336521b332c1681b933f6cb9f3376673440d862a60003390506109948282610a31565b6109b58273ffffffffffffffffffffffffffffffffffffffff166014610e9c565b6109c38460001c6020610e9c565b6040516020016109d492919061179d565b60405160208183030381529060405290610a24576040517f08c379a0000000000000000000000000000000000000000000000000000000008152600401610a1b91906118b1565b60405180910390fd5b50610a2d611238565b5050565b600080606560009054906101000a900473ffffffffffffffffffffffffffffffffffffffff1690508073ffffffffffffffffffffffffffffffffffffffff166391d1485485856040518363ffffffff1660e01b8152600401610a94929190611888565b60206040518083038186803b158015610aac57600080fd5b505afa158015610ac0573d6000803e3d6000fd5b505050506040513d601f19601f82011682018060405250810190610ae49190611534565b91505092915050565b600080439050606854811115610b4557606c60008473ffffffffffffffffffffffffffffffffffffffff1673ffffffffffffffffffffffffffffffffffffffff16815260200190815260200160002054915050610bd5565b606754811015610b59576000915050610bd5565b600060675482610b699190611b73565b9050606754606854610b7b9190611b73565b81606c60008773ffffffffffffffffffffffffffffffffffffffff1673ffffffffffffffffffffffffffffffffffffffff16815260200190815260200160002054610bc69190611b19565b610bd09190611ae8565b925050505b919050565b6000801b81565b7f65d7a28e3265b37a6474929f336521b332c1681b933f6cb9f3376673440d862a81565b6000801b6000339050610c188282610a31565b610c398273ffffffffffffffffffffffffffffffffffffffff166014610e9c565b610c478460001c6020610e9c565b604051602001610c5892919061179d565b60405160208183030381529060405290610ca8576040517f08c379a0000000000000000000000000000000000000000000000000000000008152600401610c9f91906118b1565b60405180910390fd5b5060008311610cec576040517f08c379a0000000000000000000000000000000000000000000000000000000008152600401610ce390611953565b60405180910390fd5b82606a6000828254610cfe9190611a92565b92505081905550606954606a541115610d4c576040517f08c379a0000000000000000000000000000000000000000000000000000000008152600401610d4390611933565b60405180910390fd5b82606c60008673ffffffffffffffffffffffffffffffffffffffff1673ffffffffffffffffffffffffffffffffffffffff1681526020019081526020016000206000828254610d9b9190611a92565b925050819055506000606660009054906101000a900473ffffffffffffffffffffffffffffffffffffffff1690508073ffffffffffffffffffffffffffffffffffffffff166340c10f1930866040518363ffffffff1660e01b8152600401610e04929190611829565b600060405180830381600087803b158015610e1e57600080fd5b505af1158015610e32573d6000803e3d6000fd5b505050507f2728c9d3205d667bbc0eefdfeda366261b4d021949630c047f3e5834b30611ab8585604051610e67929190611829565b60405180910390a15050505050565b606660009054906101000a900473ffffffffffffffffffffffffffffffffffffffff1681565b606060006002836002610eaf9190611b19565b610eb99190611a92565b67ffffffffffffffff811115610ef8577f4e487b7100000000000000000000000000000000000000000000000000000000600052604160045260246000fd5b6040519080825280601f01601f191660200182016040528015610f2a5781602001600182028036833780820191505090505b5090507f300000000000000000000000000000000000000000000000000000000000000081600081518110610f88577f4e487b7100000000000000000000000000000000000000000000000000000000600052603260045260246000fd5b60200101907effffffffffffffffffffffffffffffffffffffffffffffffffffffffffffff1916908160001a9053507f780000000000000000000000000000000000000000000000000000000000000081600181518110611012577f4e487b7100000000000000000000000000000000000000000000000000000000600052603260045260246000fd5b60200101907effffffffffffffffffffffffffffffffffffffffffffffffffffffffffffff1916908160001a905350600060018460026110529190611b19565b61105c9190611a92565b90505b6001811115611148577f3031323334353637383961626364656600000000000000000000000000000000600f8616601081106110c4577f4e487b7100000000000000000000000000000000000000000000000000000000600052603260045260246000fd5b1a60f81b828281518110611101577f4e487b7100000000000000000000000000000000000000000000000000000000600052603260045260246000fd5b60200101907effffffffffffffffffffffffffffffffffffffffffffffffffffffffffffff1916908160001a905350600485901c94508061114190611c2c565b905061105f565b506000841461118c576040517f08c379a0000000000000000000000000000000000000000000000000000000008152600401611183906118d3565b60405180910390fd5b8091505092915050565b61119e61076a565b6111dd576040517f08c379a00000000000000000000000000000000000000000000000000000000081526004016111d4906118f3565b60405180910390fd5b6000603360006101000a81548160ff0219169083151502179055507f5db9ee0a495bf2e6ff9c91a7834c1ba4fdd244a5e8aa4e537bd38aeae4b073aa6112216112db565b60405161122e91906117d7565b60405180910390a1565b61124061076a565b15611280576040517f08c379a000000000000000000000000000000000000000000000000000000000815260040161127790611973565b60405180910390fd5b6001603360006101000a81548160ff0219169083151502179055507f62e78cea01bee320cd4e420270b5ea74000d11b0c9f74754ebdbfc544b05a2586112c46112db565b6040516112d191906117d7565b60405180910390a1565b600033905090565b60006112f66112f184611a13565b6119ee565b9050808382526020820190508285602086028201111561131557600080fd5b60005b85811015611345578161132b88826113bb565b845260208401935060208301925050600181019050611318565b5050509392505050565b600061136261135d84611a3f565b6119ee565b9050808382526020820190508285602086028201111561138157600080fd5b60005b858110156113b15781611397888261144e565b845260208401935060208301925050600181019050611384565b5050509392505050565b6000813590506113ca81611fec565b92915050565b600082601f8301126113e157600080fd5b81356113f18482602086016112e3565b91505092915050565b600082601f83011261140b57600080fd5b813561141b84826020860161134f565b91505092915050565b60008151905061143381612003565b92915050565b6000813590506114488161201a565b92915050565b60008135905061145d81612031565b92915050565b60006020828403121561147557600080fd5b6000611483848285016113bb565b91505092915050565b6000806040838503121561149f57600080fd5b60006114ad858286016113bb565b92505060206114be8582860161144e565b9150509250929050565b600080604083850312156114db57600080fd5b600083013567ffffffffffffffff8111156114f557600080fd5b611501858286016113d0565b925050602083013567ffffffffffffffff81111561151e57600080fd5b61152a858286016113fa565b9150509250929050565b60006020828403121561154657600080fd5b600061155484828501611424565b91505092915050565b6000806040838503121561157057600080fd5b600061157e85828601611439565b925050602061158f858286016113bb565b9150509250929050565b6115a281611ba7565b82525050565b6115b181611bb9565b82525050565b6115c081611bc5565b82525050565b60006115d182611a6b565b6115db8185611a76565b93506115eb818560208601611bf9565b6115f481611d5d565b840191505092915050565b600061160a82611a6b565b6116148185611a87565b9350611624818560208601611bf9565b80840191505092915050565b600061163d602083611a76565b915061164882611d6e565b602082019050919050565b6000611660602483611a87565b915061166b82611d97565b602482019050919050565b6000611683601483611a76565b915061168e82611de6565b602082019050919050565b60006116a6602b83611a76565b91506116b182611e0f565b604082019050919050565b60006116c9602a83611a76565b91506116d482611e5e565b604082019050919050565b60006116ec602a83611a76565b91506116f782611ead565b604082019050919050565b600061170f601083611a76565b915061171a82611efc565b602082019050919050565b6000611732602d83611a76565b915061173d82611f25565b604082019050919050565b6000611755602983611a76565b915061176082611f74565b604082019050919050565b6000611778601183611a87565b915061178382611fc3565b601182019050919050565b61179781611bef565b82525050565b60006117a882611653565b91506117b482856115ff565b91506117bf8261176b565b91506117cb82846115ff565b91508190509392505050565b60006020820190506117ec6000830184611599565b92915050565b60006060820190506118076000830186611599565b6118146020830185611599565b611821604083018461178e565b949350505050565b600060408201905061183e6000830185611599565b61184b602083018461178e565b9392505050565b600060208201905061186760008301846115a8565b92915050565b600060208201905061188260008301846115b7565b92915050565b600060408201905061189d60008301856115b7565b6118aa6020830184611599565b9392505050565b600060208201905081810360008301526118cb81846115c6565b905092915050565b600060208201905081810360008301526118ec81611630565b9050919050565b6000602082019050818103600083015261190c81611676565b9050919050565b6000602082019050818103600083015261192c81611699565b9050919050565b6000602082019050818103600083015261194c816116bc565b9050919050565b6000602082019050818103600083015261196c816116df565b9050919050565b6000602082019050818103600083015261198c81611702565b9050919050565b600060208201905081810360008301526119ac81611725565b9050919050565b600060208201905081810360008301526119cc81611748565b9050919050565b60006020820190506119e8600083018461178e565b92915050565b60006119f8611a09565b9050611a048282611c56565b919050565b6000604051905090565b600067ffffffffffffffff821115611a2e57611a2d611d2e565b5b602082029050602081019050919050565b600067ffffffffffffffff821115611a5a57611a59611d2e565b5b602082029050602081019050919050565b600081519050919050565b600082825260208201905092915050565b600081905092915050565b6000611a9d82611bef565b9150611aa883611bef565b9250827fffffffffffffffffffffffffffffffffffffffffffffffffffffffffffffffff03821115611add57611adc611cd0565b5b828201905092915050565b6000611af382611bef565b9150611afe83611bef565b925082611b0e57611b0d611cff565b5b828204905092915050565b6000611b2482611bef565b9150611b2f83611bef565b9250817fffffffffffffffffffffffffffffffffffffffffffffffffffffffffffffffff0483118215151615611b6857611b67611cd0565b5b828202905092915050565b6000611b7e82611bef565b9150611b8983611bef565b925082821015611b9c57611b9b611cd0565b5b828203905092915050565b6000611bb282611bcf565b9050919050565b60008115159050919050565b6000819050919050565b600073ffffffffffffffffffffffffffffffffffffffff82169050919050565b6000819050919050565b60005b83811015611c17578082015181840152602081019050611bfc565b83811115611c26576000848401525b50505050565b6000611c3782611bef565b91506000821415611c4b57611c4a611cd0565b5b600182039050919050565b611c5f82611d5d565b810181811067ffffffffffffffff82111715611c7e57611c7d611d2e565b5b80604052505050565b6000611c9282611bef565b91507fffffffffffffffffffffffffffffffffffffffffffffffffffffffffffffffff821415611cc557611cc4611cd0565b5b600182019050919050565b7f4e487b7100000000000000000000000000000000000000000000000000000000600052601160045260246000fd5b7f4e487b7100000000000000000000000000000000000000000000000000000000600052601260045260246000fd5b7f4e487b7100000000000000000000000000000000000000000000000000000000600052604160045260246000fd5b6000601f19601f8301169050919050565b7f537472696e67733a20686578206c656e67746820696e73756666696369656e74600082015250565b7f416363657373436f6e74726f6c50726f78795061757361626c653a206163636f60008201527f756e742000000000000000000000000000000000000000000000000000000000602082015250565b7f5061757361626c653a206e6f7420706175736564000000000000000000000000600082015250565b7f547574656c6c7573486f6c646572735661756c743a206c656e6774682063616e60008201527f6e6f74206265206e756c6c000000000000000000000000000000000000000000602082015250565b7f547574656c6c7573486f6c646572735661756c743a206d696e7465642065786360008201527f65656473206c696d697400000000000000000000000000000000000000000000602082015250565b7f547574656c6c7573486f6c646572735661756c743a2063616e6e6f74206d696e60008201527f74203020746f6b656e7300000000000000000000000000000000000000000000602082015250565b7f5061757361626c653a2070617573656400000000000000000000000000000000600082015250565b7f547574656c6c7573486f6c646572735661756c743a206c656e677468206d757360008201527f74206265207468652073616d6500000000000000000000000000000000000000602082015250565b7f547574656c6c7573486f6c646572735661756c743a206e6f20617661696c616260008201527f6c6520746f6b656e730000000000000000000000000000000000000000000000602082015250565b7f206973206d697373696e6720726f6c6520000000000000000000000000000000600082015250565b611ff581611ba7565b811461200057600080fd5b50565b61200c81611bb9565b811461201757600080fd5b50565b61202381611bc5565b811461202e57600080fd5b50565b61203a81611bef565b811461204557600080fd5b5056fea2646970667358221220b43bae1c4422f56f7404d891fd634166f2cb8d6e6c66ef03e8426b192ddce46864736f6c6343000802003360806040523480156200001157600080fd5b50604051620031ed380380620031ed83398181016040528101906200003791906200088c565b6200004c85858585856200005760201b60201c565b505050505062000df3565b600060019054906101000a900460ff16806200007e575060008054906101000a900460ff16155b620000c0576040517f08c379a0000000000000000000000000000000000000000000000000000000008152600401620000b7906200096d565b60405180910390fd5b60008060019054906101000a900460ff16159050801562000111576001600060016101000a81548160ff02191690831515021790555060016000806101000a81548160ff0219169083151502179055505b62000122866200016060201b60201c565b62000136858585856200026160201b60201c565b8015620001585760008060016101000a81548160ff0219169083151502179055505b505050505050565b600060019054906101000a900460ff168062000187575060008054906101000a900460ff16155b620001c9576040517f08c379a0000000000000000000000000000000000000000000000000000000008152600401620001c0906200096d565b60405180910390fd5b60008060019054906101000a900460ff1615905080156200021a576001600060016101000a81548160ff02191690831515021790555060016000806101000a81548160ff0219169083151502179055505b6200022a6200046560201b60201c565b6200023b826200056460201b60201c565b80156200025d5760008060016101000a81548160ff0219169083151502179055505b5050565b600060019054906101000a900460ff168062000288575060008054906101000a900460ff16155b620002ca576040517f08c379a0000000000000000000000000000000000000000000000000000000008152600401620002c1906200096d565b60405180910390fd5b60008060019054906101000a900460ff1615905080156200031b576001600060016101000a81548160ff02191690831515021790555060016000806101000a81548160ff0219169083151502179055505b82821162000360576040517f08c379a000000000000000000000000000000000000000000000000000000000815260040162000357906200098f565b60405180910390fd5b84606d60006101000a81548173ffffffffffffffffffffffffffffffffffffffff021916908373ffffffffffffffffffffffffffffffffffffffff1602179055508260698190555081606a8190555060008383620003bf919062000c30565b9050600281620003d0919062000a92565b856002620003df919062000bcf565b620003eb9190620009ff565b606b81905550436068819055507ff1bd4f3fcb4e0b193abc7e4002c0284e25086269a02de2e4c52045a91f647037606954606a54606b546040516200043393929190620009b1565b60405180910390a15080156200045e5760008060016101000a81548160ff0219169083151502179055505b5050505050565b600060019054906101000a900460ff16806200048c575060008054906101000a900460ff16155b620004ce576040517f08c379a0000000000000000000000000000000000000000000000000000000008152600401620004c5906200096d565b60405180910390fd5b60008060019054906101000a900460ff1615905080156200051f576001600060016101000a81548160ff02191690831515021790555060016000806101000a81548160ff0219169083151502179055505b6200052f6200068560201b60201c565b6200053f6200076460201b60201c565b8015620005615760008060016101000a81548160ff0219169083151502179055505b50565b600060019054906101000a900460ff16806200058b575060008054906101000a900460ff16155b620005cd576040517f08c379a0000000000000000000000000000000000000000000000000000000008152600401620005c4906200096d565b60405180910390fd5b60008060019054906101000a900460ff1615905080156200061e576001600060016101000a81548160ff02191690831515021790555060016000806101000a81548160ff0219169083151502179055505b81606560006101000a81548173ffffffffffffffffffffffffffffffffffffffff021916908373ffffffffffffffffffffffffffffffffffffffff1602179055508015620006815760008060016101000a81548160ff0219169083151502179055505b5050565b600060019054906101000a900460ff1680620006ac575060008054906101000a900460ff16155b620006ee576040517f08c379a0000000000000000000000000000000000000000000000000000000008152600401620006e5906200096d565b60405180910390fd5b60008060019054906101000a900460ff1615905080156200073f576001600060016101000a81548160ff02191690831515021790555060016000806101000a81548160ff0219169083151502179055505b8015620007615760008060016101000a81548160ff0219169083151502179055505b50565b600060019054906101000a900460ff16806200078b575060008054906101000a900460ff16155b620007cd576040517f08c379a0000000000000000000000000000000000000000000000000000000008152600401620007c4906200096d565b60405180910390fd5b60008060019054906101000a900460ff1615905080156200081e576001600060016101000a81548160ff02191690831515021790555060016000806101000a81548160ff0219169083151502179055505b6000603360006101000a81548160ff02191690831515021790555080156200085b5760008060016101000a81548160ff0219169083151502179055505b50565b6000815190506200086f8162000dbf565b92915050565b600081519050620008868162000dd9565b92915050565b600080600080600060a08688031215620008a557600080fd5b6000620008b5888289016200085e565b9550506020620008c8888289016200085e565b9450506040620008db8882890162000875565b9350506060620008ee8882890162000875565b9250506080620009018882890162000875565b9150509295509295909350565b60006200091d602e83620009ee565b91506200092a8262000d21565b604082019050919050565b600062000944603383620009ee565b9150620009518262000d70565b604082019050919050565b620009678162000c9f565b82525050565b6000602082019050818103600083015262000988816200090e565b9050919050565b60006020820190508181036000830152620009aa8162000935565b9050919050565b6000606082019050620009c860008301866200095c565b620009d760208301856200095c565b620009e660408301846200095c565b949350505050565b600082825260208201905092915050565b600062000a0c8262000c9f565b915062000a198362000c9f565b92508262000a2c5762000a2b62000ce5565b5b828204905092915050565b6000808291508390505b600185111562000a895780860481111562000a615762000a6062000cb6565b5b600185161562000a715780820291505b808102905062000a818562000d14565b945062000a41565b94509492505050565b600062000a9f8262000c9f565b915062000aac8362000ca9565b925062000adb7fffffffffffffffffffffffffffffffffffffffffffffffffffffffffffffffff848462000ae3565b905092915050565b60008262000af5576001905062000bc8565b8162000b05576000905062000bc8565b816001811462000b1e576002811462000b295762000b5f565b600191505062000bc8565b60ff84111562000b3e5762000b3d62000cb6565b5b8360020a91508482111562000b585762000b5762000cb6565b5b5062000bc8565b5060208310610133831016604e8410600b841016171562000b995782820a90508381111562000b935762000b9262000cb6565b5b62000bc8565b62000ba8848484600162000a37565b9250905081840481111562000bc25762000bc162000cb6565b5b81810290505b9392505050565b600062000bdc8262000c9f565b915062000be98362000c9f565b9250817fffffffffffffffffffffffffffffffffffffffffffffffffffffffffffffffff048311821515161562000c255762000c2462000cb6565b5b828202905092915050565b600062000c3d8262000c9f565b915062000c4a8362000c9f565b92508282101562000c605762000c5f62000cb6565b5b828203905092915050565b600062000c788262000c7f565b9050919050565b600073ffffffffffffffffffffffffffffffffffffffff82169050919050565b6000819050919050565b600060ff82169050919050565b7f4e487b7100000000000000000000000000000000000000000000000000000000600052601160045260246000fd5b7f4e487b7100000000000000000000000000000000000000000000000000000000600052601260045260246000fd5b60008160011c9050919050565b7f496e697469616c697a61626c653a20636f6e747261637420697320616c72656160008201527f647920696e697469616c697a6564000000000000000000000000000000000000602082015250565b7f547574656c6c7573526577617264735661756c743a20737461727420626c6f6360008201527f6b206578636565647320656e6420626c6f636b00000000000000000000000000602082015250565b62000dca8162000c6b565b811462000dd657600080fd5b50565b62000de48162000c9f565b811462000df057600080fd5b50565b6123ea8062000e036000396000f3fe608060405234801561001057600080fd5b50600436106101165760003560e01c80636867aac5116100a2578063a217fddf11610071578063a217fddf146102bd578063ae7928bf146102db578063cccc9a921461030b578063e63ab1e914610327578063fc0c546a1461034557610116565b80636867aac5146102355780638456cb591461026557806391d148541461026f578063961325211461029f57610116565b806337cb9e67116100e957806337cb9e67146101b75780633f4ba83a146101d357806348cd4cb1146101dd57806358aba00f146101fb5780635c975abb1461021757610116565b8063083c63231461011b5780630aae7a6b14610139578063158a49881461016b5780631d444d3014610187575b600080fd5b610123610363565b6040516101309190611b99565b60405180910390f35b610153600480360381019061014e9190611560565b61036d565b60405161016293929190611bb4565b60405180910390f35b610185600480360381019061018091906115dd565b610397565b005b6101a1600480360381019061019c9190611560565b610530565b6040516101ae9190611b99565b60405180910390f35b6101d160048036038101906101cc9190611619565b61058f565b005b6101db6108ea565b005b6101e56109b7565b6040516101f29190611b99565b60405180910390f35b61021560048036038101906102109190611560565b6109c1565b005b61021f610aab565b60405161022c9190611a38565b60405180910390f35b61024f600480360381019061024a91906116bf565b610ac2565b60405161025c9190611b99565b60405180910390f35b61026d610ba9565b005b61028960048036038101906102849190611683565b610c76565b6040516102969190611a38565b60405180910390f35b6102a7610d32565b6040516102b49190611b99565b60405180910390f35b6102c5610d45565b6040516102d29190611a53565b60405180910390f35b6102f560048036038101906102f09190611560565b610d4c565b6040516103029190611b99565b60405180910390f35b61032560048036038101906103209190611589565b610e0f565b005b61032f610fe5565b60405161033c9190611a53565b60405180910390f35b61034d611009565b60405161035a919061199b565b60405180910390f35b6000606a54905090565b60666020528060005260406000206000915090508060000154908060010154908060020154905083565b6103a033610530565b8111156103e2576040517f08c379a00000000000000000000000000000000000000000000000000000000081526004016103d990611af9565b60405180910390fd5b80606660003373ffffffffffffffffffffffffffffffffffffffff1673ffffffffffffffffffffffffffffffffffffffff16815260200190815260200160002060020160008282546104349190611c9c565b925050819055506000606d60009054906101000a900473ffffffffffffffffffffffffffffffffffffffff1690508073ffffffffffffffffffffffffffffffffffffffff1663a9059cbb84846040518363ffffffff1660e01b815260040161049d9291906119ed565b602060405180830381600087803b1580156104b757600080fd5b505af11580156104cb573d6000803e3d6000fd5b505050506040513d601f19601f820116820180604052508101906104ef919061165a565b507f94c0ac970a66c6e8a58afdcd954f63d508e147b98e6f8b803e5c8c37dab11c85338484604051610523939291906119b6565b60405180910390a1505050565b6000606660008373ffffffffffffffffffffffffffffffffffffffff1673ffffffffffffffffffffffffffffffffffffffff1681526020019081526020016000206002015461057e83610d4c565b6105889190611eee565b9050919050565b6000801b60003390506105a28282610c76565b6105c38273ffffffffffffffffffffffffffffffffffffffff16601461102f565b6105d18460001c602061102f565b6040516020016105e2929190611961565b60405160208183030381529060405290610632576040517f08c379a00000000000000000000000000000000000000000000000000000000081526004016106299190611a97565b60405180910390fd5b5060008084519050606c54811461067e576040517f08c379a000000000000000000000000000000000000000000000000000000000815260040161067590611b19565b60405180910390fd5b60005b81811015610859576106c56067600083815260200190815260200160002060009054906101000a900473ffffffffffffffffffffffffffffffffffffffff16610d4c565b606660006067600085815260200190815260200160002060009054906101000a900473ffffffffffffffffffffffffffffffffffffffff1673ffffffffffffffffffffffffffffffffffffffff1673ffffffffffffffffffffffffffffffffffffffff16815260200190815260200160002060010181905550858181518110610777577f4e487b7100000000000000000000000000000000000000000000000000000000600052603260045260246000fd5b6020026020010151606660006067600085815260200190815260200160002060009054906101000a900473ffffffffffffffffffffffffffffffffffffffff1673ffffffffffffffffffffffffffffffffffffffff1673ffffffffffffffffffffffffffffffffffffffff16815260200190815260200160002060000181905550858181518110610831577f4e487b7100000000000000000000000000000000000000000000000000000000600052603260045260246000fd5b6020026020010151836108449190611c9c565b925080806108519061200f565b915050610681565b504360688190555068056bc75e2d6310000082146108ac576040517f08c379a00000000000000000000000000000000000000000000000000000000081526004016108a390611b79565b60405180910390fd5b7ff33f61b2dd1b74358b2cd80adfa809a090f0e0b0f7e4b6e408b4994f31b073fc856040516108db9190611a16565b60405180910390a15050505050565b7f65d7a28e3265b37a6474929f336521b332c1681b933f6cb9f3376673440d862a600033905061091a8282610c76565b61093b8273ffffffffffffffffffffffffffffffffffffffff16601461102f565b6109498460001c602061102f565b60405160200161095a929190611961565b604051602081830303815290604052906109aa576040517f08c379a00000000000000000000000000000000000000000000000000000000081526004016109a19190611a97565b60405180910390fd5b506109b3611329565b5050565b6000606954905090565b6000801b60003390506109d48282610c76565b6109f58273ffffffffffffffffffffffffffffffffffffffff16601461102f565b610a038460001c602061102f565b604051602001610a14929190611961565b60405160208183030381529060405290610a64576040517f08c379a0000000000000000000000000000000000000000000000000000000008152600401610a5b9190611a97565b60405180910390fd5b5082606560006101000a81548173ffffffffffffffffffffffffffffffffffffffff021916908373ffffffffffffffffffffffffffffffffffffffff160217905550505050565b6000603360009054906101000a900460ff16905090565b600081831115610b07576040517f08c379a0000000000000000000000000000000000000000000000000000000008152600401610afe90611b59565b60405180910390fd5b606a54821115610b1757606a5491505b606954831015610b275760695492505b600060028060695485610b3a9190611eee565b610b449190611d76565b606b54610b519190611e94565b610b5b9190611cf2565b9050600060028060695487610b709190611eee565b610b7a9190611d76565b606b54610b879190611e94565b610b919190611cf2565b90508082610b9f9190611eee565b9250505092915050565b7f65d7a28e3265b37a6474929f336521b332c1681b933f6cb9f3376673440d862a6000339050610bd98282610c76565b610bfa8273ffffffffffffffffffffffffffffffffffffffff16601461102f565b610c088460001c602061102f565b604051602001610c19929190611961565b60405160208183030381529060405290610c69576040517f08c379a0000000000000000000000000000000000000000000000000000000008152600401610c609190611a97565b60405180910390fd5b50610c726113cb565b5050565b600080606560009054906101000a900473ffffffffffffffffffffffffffffffffffffffff1690508073ffffffffffffffffffffffffffffffffffffffff166391d1485485856040518363ffffffff1660e01b8152600401610cd9929190611a6e565b60206040518083038186803b158015610cf157600080fd5b505afa158015610d05573d6000803e3d6000fd5b505050506040513d601f19601f82011682018060405250810190610d29919061165a565b91505092915050565b6000610d4060695443610ac2565b905090565b6000801b81565b600068056bc75e2d63100000606660008473ffffffffffffffffffffffffffffffffffffffff1673ffffffffffffffffffffffffffffffffffffffff16815260200190815260200160002060000154610da760685443610ac2565b610db19190611e94565b610dbb9190611cf2565b606660008473ffffffffffffffffffffffffffffffffffffffff1673ffffffffffffffffffffffffffffffffffffffff16815260200190815260200160002060010154610e089190611c9c565b9050919050565b6000801b6000339050610e228282610c76565b610e438273ffffffffffffffffffffffffffffffffffffffff16601461102f565b610e518460001c602061102f565b604051602001610e62929190611961565b60405160208183030381529060405290610eb2576040517f08c379a0000000000000000000000000000000000000000000000000000000008152600401610ea99190611a97565b60405180910390fd5b508360676000606c54815260200190815260200160002060006101000a81548173ffffffffffffffffffffffffffffffffffffffff021916908373ffffffffffffffffffffffffffffffffffffffff160217905550604051806060016040528060008152602001600081526020016000815250606660008673ffffffffffffffffffffffffffffffffffffffff1673ffffffffffffffffffffffffffffffffffffffff1681526020019081526020016000206000820151816000015560208201518160010155604082015181600201559050506001606c6000828254610f989190611c9c565b92505081905550610fa88361058f565b7f87dc5eecd6d6bdeae407c426da6bfba5b7190befc554ed5d4d62dd5cf939fbae84604051610fd7919061199b565b60405180910390a150505050565b7f65d7a28e3265b37a6474929f336521b332c1681b933f6cb9f3376673440d862a81565b606d60009054906101000a900473ffffffffffffffffffffffffffffffffffffffff1681565b6060600060028360026110429190611e94565b61104c9190611c9c565b67ffffffffffffffff81111561108b577f4e487b7100000000000000000000000000000000000000000000000000000000600052604160045260246000fd5b6040519080825280601f01601f1916602001820160405280156110bd5781602001600182028036833780820191505090505b5090507f30000000000000000000000000000000000000000000000000000000000000008160008151811061111b577f4e487b7100000000000000000000000000000000000000000000000000000000600052603260045260246000fd5b60200101907effffffffffffffffffffffffffffffffffffffffffffffffffffffffffffff1916908160001a9053507f7800000000000000000000000000000000000000000000000000000000000000816001815181106111a5577f4e487b7100000000000000000000000000000000000000000000000000000000600052603260045260246000fd5b60200101907effffffffffffffffffffffffffffffffffffffffffffffffffffffffffffff1916908160001a905350600060018460026111e59190611e94565b6111ef9190611c9c565b90505b60018111156112db577f3031323334353637383961626364656600000000000000000000000000000000600f861660108110611257577f4e487b7100000000000000000000000000000000000000000000000000000000600052603260045260246000fd5b1a60f81b828281518110611294577f4e487b7100000000000000000000000000000000000000000000000000000000600052603260045260246000fd5b60200101907effffffffffffffffffffffffffffffffffffffffffffffffffffffffffffff1916908160001a905350600485901c9450806112d490611fb4565b90506111f2565b506000841461131f576040517f08c379a000000000000000000000000000000000000000000000000000000000815260040161131690611ab9565b60405180910390fd5b8091505092915050565b611331610aab565b611370576040517f08c379a000000000000000000000000000000000000000000000000000000000815260040161136790611ad9565b60405180910390fd5b6000603360006101000a81548160ff0219169083151502179055507f5db9ee0a495bf2e6ff9c91a7834c1ba4fdd244a5e8aa4e537bd38aeae4b073aa6113b461146e565b6040516113c1919061199b565b60405180910390a1565b6113d3610aab565b15611413576040517f08c379a000000000000000000000000000000000000000000000000000000000815260040161140a90611b39565b60405180910390fd5b6001603360006101000a81548160ff0219169083151502179055507f62e78cea01bee320cd4e420270b5ea74000d11b0c9f74754ebdbfc544b05a25861145761146e565b604051611464919061199b565b60405180910390a1565b600033905090565b600061148961148484611c10565b611beb565b905080838252602082019050828560208602820111156114a857600080fd5b60005b858110156114d857816114be888261154b565b8452602084019350602083019250506001810190506114ab565b5050509392505050565b6000813590506114f181612358565b92915050565b600082601f83011261150857600080fd5b8135611518848260208601611476565b91505092915050565b6000815190506115308161236f565b92915050565b60008135905061154581612386565b92915050565b60008135905061155a8161239d565b92915050565b60006020828403121561157257600080fd5b6000611580848285016114e2565b91505092915050565b6000806040838503121561159c57600080fd5b60006115aa858286016114e2565b925050602083013567ffffffffffffffff8111156115c757600080fd5b6115d3858286016114f7565b9150509250929050565b600080604083850312156115f057600080fd5b60006115fe858286016114e2565b925050602061160f8582860161154b565b9150509250929050565b60006020828403121561162b57600080fd5b600082013567ffffffffffffffff81111561164557600080fd5b611651848285016114f7565b91505092915050565b60006020828403121561166c57600080fd5b600061167a84828501611521565b91505092915050565b6000806040838503121561169657600080fd5b60006116a485828601611536565b92505060206116b5858286016114e2565b9150509250929050565b600080604083850312156116d257600080fd5b60006116e08582860161154b565b92505060206116f18582860161154b565b9150509250929050565b60006117078383611943565b60208301905092915050565b61171c81611f22565b82525050565b600061172d82611c4c565b6117378185611c6f565b935061174283611c3c565b8060005b8381101561177357815161175a88826116fb565b975061176583611c62565b925050600181019050611746565b5085935050505092915050565b61178981611f34565b82525050565b61179881611f40565b82525050565b60006117a982611c57565b6117b38185611c80565b93506117c3818560208601611f81565b6117cc816120e5565b840191505092915050565b60006117e282611c57565b6117ec8185611c91565b93506117fc818560208601611f81565b80840191505092915050565b6000611815602083611c80565b915061182082612103565b602082019050919050565b6000611838602483611c91565b91506118438261212c565b602482019050919050565b600061185b601483611c80565b91506118668261217b565b602082019050919050565b600061187e602e83611c80565b9150611889826121a4565b604082019050919050565b60006118a1605283611c80565b91506118ac826121f3565b606082019050919050565b60006118c4601083611c80565b91506118cf82612268565b602082019050919050565b60006118e7602a83611c80565b91506118f282612291565b604082019050919050565b600061190a603383611c80565b9150611915826122e0565b604082019050919050565b600061192d601183611c91565b91506119388261232f565b601182019050919050565b61194c81611f6a565b82525050565b61195b81611f6a565b82525050565b600061196c8261182b565b915061197882856117d7565b915061198382611920565b915061198f82846117d7565b91508190509392505050565b60006020820190506119b06000830184611713565b92915050565b60006060820190506119cb6000830186611713565b6119d86020830185611713565b6119e56040830184611952565b949350505050565b6000604082019050611a026000830185611713565b611a0f6020830184611952565b9392505050565b60006020820190508181036000830152611a308184611722565b905092915050565b6000602082019050611a4d6000830184611780565b92915050565b6000602082019050611a68600083018461178f565b92915050565b6000604082019050611a83600083018561178f565b611a906020830184611713565b9392505050565b60006020820190508181036000830152611ab1818461179e565b905092915050565b60006020820190508181036000830152611ad281611808565b9050919050565b60006020820190508181036000830152611af28161184e565b9050919050565b60006020820190508181036000830152611b1281611871565b9050919050565b60006020820190508181036000830152611b3281611894565b9050919050565b60006020820190508181036000830152611b52816118b7565b9050919050565b60006020820190508181036000830152611b72816118da565b9050919050565b60006020820190508181036000830152611b92816118fd565b9050919050565b6000602082019050611bae6000830184611952565b92915050565b6000606082019050611bc96000830186611952565b611bd66020830185611952565b611be36040830184611952565b949350505050565b6000611bf5611c06565b9050611c018282611fde565b919050565b6000604051905090565b600067ffffffffffffffff821115611c2b57611c2a6120b6565b5b602082029050602081019050919050565b6000819050602082019050919050565b600081519050919050565b600081519050919050565b6000602082019050919050565b600082825260208201905092915050565b600082825260208201905092915050565b600081905092915050565b6000611ca782611f6a565b9150611cb283611f6a565b9250827fffffffffffffffffffffffffffffffffffffffffffffffffffffffffffffffff03821115611ce757611ce6612058565b5b828201905092915050565b6000611cfd82611f6a565b9150611d0883611f6a565b925082611d1857611d17612087565b5b828204905092915050565b6000808291508390505b6001851115611d6d57808604811115611d4957611d48612058565b5b6001851615611d585780820291505b8081029050611d66856120f6565b9450611d2d565b94509492505050565b6000611d8182611f6a565b9150611d8c83611f74565b9250611db97fffffffffffffffffffffffffffffffffffffffffffffffffffffffffffffffff8484611dc1565b905092915050565b600082611dd15760019050611e8d565b81611ddf5760009050611e8d565b8160018114611df55760028114611dff57611e2e565b6001915050611e8d565b60ff841115611e1157611e10612058565b5b8360020a915084821115611e2857611e27612058565b5b50611e8d565b5060208310610133831016604e8410600b8410161715611e635782820a905083811115611e5e57611e5d612058565b5b611e8d565b611e708484846001611d23565b92509050818404811115611e8757611e86612058565b5b81810290505b9392505050565b6000611e9f82611f6a565b9150611eaa83611f6a565b9250817fffffffffffffffffffffffffffffffffffffffffffffffffffffffffffffffff0483118215151615611ee357611ee2612058565b5b828202905092915050565b6000611ef982611f6a565b9150611f0483611f6a565b925082821015611f1757611f16612058565b5b828203905092915050565b6000611f2d82611f4a565b9050919050565b60008115159050919050565b6000819050919050565b600073ffffffffffffffffffffffffffffffffffffffff82169050919050565b6000819050919050565b600060ff82169050919050565b60005b83811015611f9f578082015181840152602081019050611f84565b83811115611fae576000848401525b50505050565b6000611fbf82611f6a565b91506000821415611fd357611fd2612058565b5b600182039050919050565b611fe7826120e5565b810181811067ffffffffffffffff82111715612006576120056120b6565b5b80604052505050565b600061201a82611f6a565b91507fffffffffffffffffffffffffffffffffffffffffffffffffffffffffffffffff82141561204d5761204c612058565b5b600182019050919050565b7f4e487b7100000000000000000000000000000000000000000000000000000000600052601160045260246000fd5b7f4e487b7100000000000000000000000000000000000000000000000000000000600052601260045260246000fd5b7f4e487b7100000000000000000000000000000000000000000000000000000000600052604160045260246000fd5b6000601f19601f8301169050919050565b60008160011c9050919050565b7f537472696e67733a20686578206c656e67746820696e73756666696369656e74600082015250565b7f416363657373436f6e74726f6c50726f78795061757361626c653a206163636f60008201527f756e742000000000000000000000000000000000000000000000000000000000602082015250565b7f5061757361626c653a206e6f7420706175736564000000000000000000000000600082015250565b7f547574656c6c7573526577617264735661756c743a20616d6f756e742065786360008201527f6565647320617661696c61626c65000000000000000000000000000000000000602082015250565b7f547574656c6c7573526577617264735661756c743a20616c6c6f636174696f6e60008201527f206172726179206d75737420686176652073616d65206c656e6774682061732060208201527f6e756d626572206f66206163636f756e74730000000000000000000000000000604082015250565b7f5061757361626c653a2070617573656400000000000000000000000000000000600082015250565b7f547574656c6c7573526577617264735661756c743a207b66726f6d7d2069732060008201527f6166746572207b746f7d00000000000000000000000000000000000000000000602082015250565b7f547574656c6c7573526577617264735661756c743a20746f74616c20616c6c6f60008201527f636174696f6e206d757374206265203165323000000000000000000000000000602082015250565b7f206973206d697373696e6720726f6c6520000000000000000000000000000000600082015250565b61236181611f22565b811461236c57600080fd5b50565b61237881611f34565b811461238357600080fd5b50565b61238f81611f40565b811461239a57600080fd5b50565b6123a681611f6a565b81146123b157600080fd5b5056fea26469706673582212209c91c6365a4853c2451ecb11b1e5bc4b532bfef85311543d8c151d4473509e7764736f6c6343000802003360806040523480156200001157600080fd5b50604051620026d2380380620026d2833981810160405281019062000037919062000786565b6200004982826200005160201b60201c565b5050620008be565b600060019054906101000a900460ff168062000078575060008054906101000a900460ff16155b620000ba576040517f08c379a0000000000000000000000000000000000000000000000000000000008152600401620000b190620007ee565b60405180910390fd5b60008060019054906101000a900460ff1615905080156200010b576001600060016101000a81548160ff02191690831515021790555060016000806101000a81548160ff0219169083151502179055505b6200011c836200015460201b60201c565b6200012d826200025560201b60201c565b80156200014f5760008060016101000a81548160ff0219169083151502179055505b505050565b600060019054906101000a900460ff16806200017b575060008054906101000a900460ff16155b620001bd576040517f08c379a0000000000000000000000000000000000000000000000000000000008152600401620001b490620007ee565b60405180910390fd5b60008060019054906101000a900460ff1615905080156200020e576001600060016101000a81548160ff02191690831515021790555060016000806101000a81548160ff0219169083151502179055505b6200021e6200037660201b60201c565b6200022f826200047560201b60201c565b8015620002515760008060016101000a81548160ff0219169083151502179055505b5050565b600060019054906101000a900460ff16806200027c575060008054906101000a900460ff16155b620002be576040517f08c379a0000000000000000000000000000000000000000000000000000000008152600401620002b590620007ee565b60405180910390fd5b60008060019054906101000a900460ff1615905080156200030f576001600060016101000a81548160ff02191690831515021790555060016000806101000a81548160ff0219169083151502179055505b81606660006101000a81548173ffffffffffffffffffffffffffffffffffffffff021916908373ffffffffffffffffffffffffffffffffffffffff1602179055508015620003725760008060016101000a81548160ff0219169083151502179055505b5050565b600060019054906101000a900460ff16806200039d575060008054906101000a900460ff16155b620003df576040517f08c379a0000000000000000000000000000000000000000000000000000000008152600401620003d690620007ee565b60405180910390fd5b60008060019054906101000a900460ff16159050801562000430576001600060016101000a81548160ff02191690831515021790555060016000806101000a81548160ff0219169083151502179055505b620004406200059660201b60201c565b620004506200067560201b60201c565b8015620004725760008060016101000a81548160ff0219169083151502179055505b50565b600060019054906101000a900460ff16806200049c575060008054906101000a900460ff16155b620004de576040517f08c379a0000000000000000000000000000000000000000000000000000000008152600401620004d590620007ee565b60405180910390fd5b60008060019054906101000a900460ff1615905080156200052f576001600060016101000a81548160ff02191690831515021790555060016000806101000a81548160ff0219169083151502179055505b81606560006101000a81548173ffffffffffffffffffffffffffffffffffffffff021916908373ffffffffffffffffffffffffffffffffffffffff1602179055508015620005925760008060016101000a81548160ff0219169083151502179055505b5050565b600060019054906101000a900460ff1680620005bd575060008054906101000a900460ff16155b620005ff576040517f08c379a0000000000000000000000000000000000000000000000000000000008152600401620005f690620007ee565b60405180910390fd5b60008060019054906101000a900460ff16159050801562000650576001600060016101000a81548160ff02191690831515021790555060016000806101000a81548160ff0219169083151502179055505b8015620006725760008060016101000a81548160ff0219169083151502179055505b50565b600060019054906101000a900460ff16806200069c575060008054906101000a900460ff16155b620006de576040517f08c379a0000000000000000000000000000000000000000000000000000000008152600401620006d590620007ee565b60405180910390fd5b60008060019054906101000a900460ff1615905080156200072f576001600060016101000a81548160ff02191690831515021790555060016000806101000a81548160ff0219169083151502179055505b6000603360006101000a81548160ff02191690831515021790555080156200076c5760008060016101000a81548160ff0219169083151502179055505b50565b6000815190506200078081620008a4565b92915050565b600080604083850312156200079a57600080fd5b6000620007aa858286016200076f565b9250506020620007bd858286016200076f565b9150509250929050565b6000620007d6602e8362000810565b9150620007e38262000855565b604082019050919050565b600060208201905081810360008301526200080981620007c7565b9050919050565b600082825260208201905092915050565b60006200082e8262000835565b9050919050565b600073ffffffffffffffffffffffffffffffffffffffff82169050919050565b7f496e697469616c697a61626c653a20636f6e747261637420697320616c72656160008201527f647920696e697469616c697a6564000000000000000000000000000000000000602082015250565b620008af8162000821565b8114620008bb57600080fd5b50565b611e0480620008ce6000396000f3fe608060405234801561001057600080fd5b50600436106100ea5760003560e01c806391d148541161008c578063e63ab1e911610066578063e63ab1e914610211578063eac989f81461022f578063f54b893b1461024d578063fc0c546a1461027d576100ea565b806391d14854146101a7578063a217fddf146101d7578063e48034b5146101f5576100ea565b8063510eff4c116100c8578063510eff4c1461013357806358aba00f146101635780635c975abb1461017f5780638456cb591461019d576100ea565b80632e7ba6ef146100ef5780632eb4a7ab1461010b5780633f4ba83a14610129575b600080fd5b610109600480360381019061010491906112b4565b61029b565b005b610113610486565b6040516101209190611696565b60405180910390f35b61013161048c565b005b61014d600480360381019061014891906112b4565b610559565b60405161015a91906117cc565b60405180910390f35b61017d600480360381019061017891906111d2565b610650565b005b61018761073a565b604051610194919061167b565b60405180910390f35b6101a5610751565b005b6101c160048036038101906101bc9190611224565b61081e565b6040516101ce919061167b565b60405180910390f35b6101df6108da565b6040516101ec9190611696565b60405180910390f35b61020f600480360381019061020a9190611260565b6108e1565b005b6102196109e5565b6040516102269190611696565b60405180910390f35b610237610a09565b604051610244919061170a565b60405180910390f35b610267600480360381019061026291906111d2565b610a97565b60405161027491906117cc565b60405180910390f35b610285610ae0565b6040516102929190611637565b60405180910390f35b6102a361073a565b156102e3576040517f08c379a00000000000000000000000000000000000000000000000000000000081526004016102da9061178c565b60405180910390fd5b60006102f28686868686610559565b905060008111610337576040517f08c379a000000000000000000000000000000000000000000000000000000000815260040161032e906117ac565b60405180910390fd5b80606960008773ffffffffffffffffffffffffffffffffffffffff1673ffffffffffffffffffffffffffffffffffffffff168152602001908152602001600020600082825461038691906118b0565b925050819055506000606660009054906101000a900473ffffffffffffffffffffffffffffffffffffffff1690508073ffffffffffffffffffffffffffffffffffffffff1663a9059cbb87876040518363ffffffff1660e01b81526004016103ef929190611652565b602060405180830381600087803b15801561040957600080fd5b505af115801561041d573d6000803e3d6000fd5b505050506040513d601f19601f8201168201806040525081019061044191906111fb565b507f3ed1528b0fdc7c5207c1bf935e34a667e13656b9ed165260c522be0bc544f303878784604051610475939291906117e7565b60405180910390a150505050505050565b60675481565b7f65d7a28e3265b37a6474929f336521b332c1681b933f6cb9f3376673440d862a60003390506104bc828261081e565b6104dd8273ffffffffffffffffffffffffffffffffffffffff166014610b06565b6104eb8460001c6020610b06565b6040516020016104fc9291906115c0565b6040516020818303038152906040529061054c576040517f08c379a0000000000000000000000000000000000000000000000000000000008152600401610543919061170a565b60405180910390fd5b50610555610e00565b5050565b600080868686604051602001610571939291906115fa565b6040516020818303038152906040528051906020012090506105d7848480806020026020016040519081016040528093929190818152602001838360200280828437600081840152601f19601f8201169050808301925050505050505060675483610ea2565b610616576040517f08c379a000000000000000000000000000000000000000000000000000000000815260040161060d9061176c565b60405180910390fd5b600061062187610a97565b9050808611156106405780866106379190611960565b92505050610647565b6000925050505b95945050505050565b6000801b6000339050610663828261081e565b6106848273ffffffffffffffffffffffffffffffffffffffff166014610b06565b6106928460001c6020610b06565b6040516020016106a39291906115c0565b604051602081830303815290604052906106f3576040517f08c379a00000000000000000000000000000000000000000000000000000000081526004016106ea919061170a565b60405180910390fd5b5082606560006101000a81548173ffffffffffffffffffffffffffffffffffffffff021916908373ffffffffffffffffffffffffffffffffffffffff160217905550505050565b6000603360009054906101000a900460ff16905090565b7f65d7a28e3265b37a6474929f336521b332c1681b933f6cb9f3376673440d862a6000339050610781828261081e565b6107a28273ffffffffffffffffffffffffffffffffffffffff166014610b06565b6107b08460001c6020610b06565b6040516020016107c19291906115c0565b60405160208183030381529060405290610811576040517f08c379a0000000000000000000000000000000000000000000000000000000008152600401610808919061170a565b60405180910390fd5b5061081a610f7e565b5050565b600080606560009054906101000a900473ffffffffffffffffffffffffffffffffffffffff1690508073ffffffffffffffffffffffffffffffffffffffff166391d1485485856040518363ffffffff1660e01b81526004016108819291906116b1565b60206040518083038186803b15801561089957600080fd5b505afa1580156108ad573d6000803e3d6000fd5b505050506040513d601f19601f820116820180604052508101906108d191906111fb565b91505092915050565b6000801b81565b6000801b60003390506108f4828261081e565b6109158273ffffffffffffffffffffffffffffffffffffffff166014610b06565b6109238460001c6020610b06565b6040516020016109349291906115c0565b60405160208183030381529060405290610984576040517f08c379a000000000000000000000000000000000000000000000000000000000815260040161097b919061170a565b60405180910390fd5b508360678190555082606890805190602001906109a2929190611029565b507f6746d20118e403b63707d33894226f34b7f86abb8560997d1a6e57230337270c60675460686040516109d79291906116da565b60405180910390a150505050565b7f65d7a28e3265b37a6474929f336521b332c1681b933f6cb9f3376673440d862a81565b60688054610a1690611a52565b80601f0160208091040260200160405190810160405280929190818152602001828054610a4290611a52565b8015610a8f5780601f10610a6457610100808354040283529160200191610a8f565b820191906000526020600020905b815481529060010190602001808311610a7257829003601f168201915b505050505081565b6000606960008373ffffffffffffffffffffffffffffffffffffffff1673ffffffffffffffffffffffffffffffffffffffff168152602001908152602001600020549050919050565b606660009054906101000a900473ffffffffffffffffffffffffffffffffffffffff1681565b606060006002836002610b199190611906565b610b2391906118b0565b67ffffffffffffffff811115610b62577f4e487b7100000000000000000000000000000000000000000000000000000000600052604160045260246000fd5b6040519080825280601f01601f191660200182016040528015610b945781602001600182028036833780820191505090505b5090507f300000000000000000000000000000000000000000000000000000000000000081600081518110610bf2577f4e487b7100000000000000000000000000000000000000000000000000000000600052603260045260246000fd5b60200101907effffffffffffffffffffffffffffffffffffffffffffffffffffffffffffff1916908160001a9053507f780000000000000000000000000000000000000000000000000000000000000081600181518110610c7c577f4e487b7100000000000000000000000000000000000000000000000000000000600052603260045260246000fd5b60200101907effffffffffffffffffffffffffffffffffffffffffffffffffffffffffffff1916908160001a90535060006001846002610cbc9190611906565b610cc691906118b0565b90505b6001811115610db2577f3031323334353637383961626364656600000000000000000000000000000000600f861660108110610d2e577f4e487b7100000000000000000000000000000000000000000000000000000000600052603260045260246000fd5b1a60f81b828281518110610d6b577f4e487b7100000000000000000000000000000000000000000000000000000000600052603260045260246000fd5b60200101907effffffffffffffffffffffffffffffffffffffffffffffffffffffffffffff1916908160001a905350600485901c945080610dab90611a28565b9050610cc9565b5060008414610df6576040517f08c379a0000000000000000000000000000000000000000000000000000000008152600401610ded9061172c565b60405180910390fd5b8091505092915050565b610e0861073a565b610e47576040517f08c379a0000000000000000000000000000000000000000000000000000000008152600401610e3e9061174c565b60405180910390fd5b6000603360006101000a81548160ff0219169083151502179055507f5db9ee0a495bf2e6ff9c91a7834c1ba4fdd244a5e8aa4e537bd38aeae4b073aa610e8b611021565b604051610e989190611637565b60405180910390a1565b60008082905060005b8551811015610f70576000868281518110610eef577f4e487b7100000000000000000000000000000000000000000000000000000000600052603260045260246000fd5b60200260200101519050808311610f30578281604051602001610f13929190611594565b604051602081830303815290604052805190602001209250610f5c565b8083604051602001610f43929190611594565b6040516020818303038152906040528051906020012092505b508080610f6890611ab5565b915050610eab565b508381149150509392505050565b610f8661073a565b15610fc6576040517f08c379a0000000000000000000000000000000000000000000000000000000008152600401610fbd9061178c565b60405180910390fd5b6001603360006101000a81548160ff0219169083151502179055507f62e78cea01bee320cd4e420270b5ea74000d11b0c9f74754ebdbfc544b05a25861100a611021565b6040516110179190611637565b60405180910390a1565b600033905090565b82805461103590611a52565b90600052602060002090601f016020900481019282611057576000855561109e565b82601f1061107057805160ff191683800117855561109e565b8280016001018555821561109e579182015b8281111561109d578251825591602001919060010190611082565b5b5090506110ab91906110af565b5090565b5b808211156110c85760008160009055506001016110b0565b5090565b60006110df6110da84611843565b61181e565b9050828152602081018484840111156110f757600080fd5b6111028482856119e6565b509392505050565b60008135905061111981611d72565b92915050565b60008083601f84011261113157600080fd5b8235905067ffffffffffffffff81111561114a57600080fd5b60208301915083602082028301111561116257600080fd5b9250929050565b60008151905061117881611d89565b92915050565b60008135905061118d81611da0565b92915050565b600082601f8301126111a457600080fd5b81356111b48482602086016110cc565b91505092915050565b6000813590506111cc81611db7565b92915050565b6000602082840312156111e457600080fd5b60006111f28482850161110a565b91505092915050565b60006020828403121561120d57600080fd5b600061121b84828501611169565b91505092915050565b6000806040838503121561123757600080fd5b60006112458582860161117e565b92505060206112568582860161110a565b9150509250929050565b6000806040838503121561127357600080fd5b60006112818582860161117e565b925050602083013567ffffffffffffffff81111561129e57600080fd5b6112aa85828601611193565b9150509250929050565b6000806000806000608086880312156112cc57600080fd5b60006112da888289016111bd565b95505060206112eb8882890161110a565b94505060406112fc888289016111bd565b935050606086013567ffffffffffffffff81111561131957600080fd5b6113258882890161111f565b92509250509295509295909350565b61133d81611994565b82525050565b61135461134f82611994565b611afe565b82525050565b611363816119a6565b82525050565b611372816119b2565b82525050565b611389611384826119b2565b611b10565b82525050565b600061139a82611889565b6113a48185611894565b93506113b48185602086016119f5565b6113bd81611bc3565b840191505092915050565b60006113d382611889565b6113dd81856118a5565b93506113ed8185602086016119f5565b80840191505092915050565b6000815461140681611a52565b6114108186611894565b9450600182166000811461142b576001811461143d57611470565b60ff1983168652602086019350611470565b61144685611874565b60005b8381101561146857815481890152600182019150602081019050611449565b808801955050505b50505092915050565b6000611486602083611894565b915061149182611be1565b602082019050919050565b60006114a96024836118a5565b91506114b482611c0a565b602482019050919050565b60006114cc601483611894565b91506114d782611c59565b602082019050919050565b60006114ef602483611894565b91506114fa82611c82565b604082019050919050565b6000611512601083611894565b915061151d82611cd1565b602082019050919050565b6000611535602783611894565b915061154082611cfa565b604082019050919050565b60006115586011836118a5565b915061156382611d49565b601182019050919050565b611577816119dc565b82525050565b61158e611589826119dc565b611b2c565b82525050565b60006115a08285611378565b6020820191506115b08284611378565b6020820191508190509392505050565b60006115cb8261149c565b91506115d782856113c8565b91506115e28261154b565b91506115ee82846113c8565b91508190509392505050565b6000611606828661157d565b6020820191506116168285611343565b601482019150611626828461157d565b602082019150819050949350505050565b600060208201905061164c6000830184611334565b92915050565b60006040820190506116676000830185611334565b611674602083018461156e565b9392505050565b6000602082019050611690600083018461135a565b92915050565b60006020820190506116ab6000830184611369565b92915050565b60006040820190506116c66000830185611369565b6116d36020830184611334565b9392505050565b60006040820190506116ef6000830185611369565b818103602083015261170181846113f9565b90509392505050565b60006020820190508181036000830152611724818461138f565b905092915050565b6000602082019050818103600083015261174581611479565b9050919050565b60006020820190508181036000830152611765816114bf565b9050919050565b60006020820190508181036000830152611785816114e2565b9050919050565b600060208201905081810360008301526117a581611505565b9050919050565b600060208201905081810360008301526117c581611528565b9050919050565b60006020820190506117e1600083018461156e565b92915050565b60006060820190506117fc600083018661156e565b6118096020830185611334565b611816604083018461156e565b949350505050565b6000611828611839565b90506118348282611a84565b919050565b6000604051905090565b600067ffffffffffffffff82111561185e5761185d611b94565b5b61186782611bc3565b9050602081019050919050565b60008190508160005260206000209050919050565b600081519050919050565b600082825260208201905092915050565b600081905092915050565b60006118bb826119dc565b91506118c6836119dc565b9250827fffffffffffffffffffffffffffffffffffffffffffffffffffffffffffffffff038211156118fb576118fa611b36565b5b828201905092915050565b6000611911826119dc565b915061191c836119dc565b9250817fffffffffffffffffffffffffffffffffffffffffffffffffffffffffffffffff048311821515161561195557611954611b36565b5b828202905092915050565b600061196b826119dc565b9150611976836119dc565b92508282101561198957611988611b36565b5b828203905092915050565b600061199f826119bc565b9050919050565b60008115159050919050565b6000819050919050565b600073ffffffffffffffffffffffffffffffffffffffff82169050919050565b6000819050919050565b82818337600083830152505050565b60005b83811015611a135780820151818401526020810190506119f8565b83811115611a22576000848401525b50505050565b6000611a33826119dc565b91506000821415611a4757611a46611b36565b5b600182039050919050565b60006002820490506001821680611a6a57607f821691505b60208210811415611a7e57611a7d611b65565b5b50919050565b611a8d82611bc3565b810181811067ffffffffffffffff82111715611aac57611aab611b94565b5b80604052505050565b6000611ac0826119dc565b91507fffffffffffffffffffffffffffffffffffffffffffffffffffffffffffffffff821415611af357611af2611b36565b5b600182019050919050565b6000611b0982611b1a565b9050919050565b6000819050919050565b6000611b2582611bd4565b9050919050565b6000819050919050565b7f4e487b7100000000000000000000000000000000000000000000000000000000600052601160045260246000fd5b7f4e487b7100000000000000000000000000000000000000000000000000000000600052602260045260246000fd5b7f4e487b7100000000000000000000000000000000000000000000000000000000600052604160045260246000fd5b6000601f19601f8301169050919050565b60008160601b9050919050565b7f537472696e67733a20686578206c656e67746820696e73756666696369656e74600082015250565b7f416363657373436f6e74726f6c50726f78795061757361626c653a206163636f60008201527f756e742000000000000000000000000000000000000000000000000000000000602082015250565b7f5061757361626c653a206e6f7420706175736564000000000000000000000000600082015250565b7f547574656c6c7573436c69656e74735661756c743a20496e76616c696420707260008201527f6f6f662e00000000000000000000000000000000000000000000000000000000602082015250565b7f5061757361626c653a2070617573656400000000000000000000000000000000600082015250565b7f547574656c6c7573436c69656e74735661756c743a204e6f7468696e6720746f60008201527f20636c61696d2e00000000000000000000000000000000000000000000000000602082015250565b7f206973206d697373696e6720726f6c6520000000000000000000000000000000600082015250565b611d7b81611994565b8114611d8657600080fd5b50565b611d92816119a6565b8114611d9d57600080fd5b50565b611da9816119b2565b8114611db457600080fd5b50565b611dc0816119dc565b8114611dcb57600080fd5b5056fea2646970667358221220f30b8b577c37573788333c7671163a79315a7296e4e88d8fa0479d3232133e6a64736f6c6343000802003360806040523480156200001157600080fd5b506040516200279d3803806200279d8339818101604052810190620000379190620008cb565b6200004d8686868686866200005960201b60201c565b50505050505062000e46565b600060019054906101000a900460ff168062000080575060008054906101000a900460ff16155b620000c2576040517f08c379a0000000000000000000000000000000000000000000000000000000008152600401620000b990620009e2565b60405180910390fd5b60008060019054906101000a900460ff16159050801562000113576001600060016101000a81548160ff02191690831515021790555060016000806101000a81548160ff0219169083151502179055505b62000124876200016460201b60201c565b6200013986868686866200026560201b60201c565b80156200015b5760008060016101000a81548160ff0219169083151502179055505b50505050505050565b600060019054906101000a900460ff16806200018b575060008054906101000a900460ff16155b620001cd576040517f08c379a0000000000000000000000000000000000000000000000000000000008152600401620001c490620009e2565b60405180910390fd5b60008060019054906101000a900460ff1615905080156200021e576001600060016101000a81548160ff02191690831515021790555060016000806101000a81548160ff0219169083151502179055505b6200022e620004a460201b60201c565b6200023f82620005a360201b60201c565b8015620002615760008060016101000a81548160ff0219169083151502179055505b5050565b600060019054906101000a900460ff16806200028c575060008054906101000a900460ff16155b620002ce576040517f08c379a0000000000000000000000000000000000000000000000000000000008152600401620002c590620009e2565b60405180910390fd5b60008060019054906101000a900460ff1615905080156200031f576001600060016101000a81548160ff02191690831515021790555060016000806101000a81548160ff0219169083151502179055505b82821162000364576040517f08c379a00000000000000000000000000000000000000000000000000000000081526004016200035b90620009c0565b60405180910390fd5b84606660006101000a81548173ffffffffffffffffffffffffffffffffffffffff021916908373ffffffffffffffffffffffffffffffffffffffff16021790555085606760006101000a81548173ffffffffffffffffffffffffffffffffffffffff021916908373ffffffffffffffffffffffffffffffffffffffff1602179055508260698190555081606a819055506000838362000404919062000c83565b905060028162000415919062000ae5565b85600262000424919062000c22565b62000430919062000a52565b606b819055507ff1bd4f3fcb4e0b193abc7e4002c0284e25086269a02de2e4c52045a91f647037606954606a54606b54604051620004719392919062000a04565b60405180910390a15080156200049c5760008060016101000a81548160ff0219169083151502179055505b505050505050565b600060019054906101000a900460ff1680620004cb575060008054906101000a900460ff16155b6200050d576040517f08c379a00000000000000000000000000000000000000000000000000000000081526004016200050490620009e2565b60405180910390fd5b60008060019054906101000a900460ff1615905080156200055e576001600060016101000a81548160ff02191690831515021790555060016000806101000a81548160ff0219169083151502179055505b6200056e620006c460201b60201c565b6200057e620007a360201b60201c565b8015620005a05760008060016101000a81548160ff0219169083151502179055505b50565b600060019054906101000a900460ff1680620005ca575060008054906101000a900460ff16155b6200060c576040517f08c379a00000000000000000000000000000000000000000000000000000000081526004016200060390620009e2565b60405180910390fd5b60008060019054906101000a900460ff1615905080156200065d576001600060016101000a81548160ff02191690831515021790555060016000806101000a81548160ff0219169083151502179055505b81606560006101000a81548173ffffffffffffffffffffffffffffffffffffffff021916908373ffffffffffffffffffffffffffffffffffffffff1602179055508015620006c05760008060016101000a81548160ff0219169083151502179055505b5050565b600060019054906101000a900460ff1680620006eb575060008054906101000a900460ff16155b6200072d576040517f08c379a00000000000000000000000000000000000000000000000000000000081526004016200072490620009e2565b60405180910390fd5b60008060019054906101000a900460ff1615905080156200077e576001600060016101000a81548160ff02191690831515021790555060016000806101000a81548160ff0219169083151502179055505b8015620007a05760008060016101000a81548160ff0219169083151502179055505b50565b600060019054906101000a900460ff1680620007ca575060008054906101000a900460ff16155b6200080c576040517f08c379a00000000000000000000000000000000000000000000000000000000081526004016200080390620009e2565b60405180910390fd5b60008060019054906101000a900460ff1615905080156200085d576001600060016101000a81548160ff02191690831515021790555060016000806101000a81548160ff0219169083151502179055505b6000603360006101000a81548160ff02191690831515021790555080156200089a5760008060016101000a81548160ff0219169083151502179055505b50565b600081519050620008ae8162000e12565b92915050565b600081519050620008c58162000e2c565b92915050565b60008060008060008060c08789031215620008e557600080fd5b6000620008f589828a016200089d565b96505060206200090889828a016200089d565b95505060406200091b89828a016200089d565b94505060606200092e89828a01620008b4565b93505060806200094189828a01620008b4565b92505060a06200095489828a01620008b4565b9150509295509295509295565b60006200097060348362000a41565b91506200097d8262000d74565b604082019050919050565b600062000997602e8362000a41565b9150620009a48262000dc3565b604082019050919050565b620009ba8162000cf2565b82525050565b60006020820190508181036000830152620009db8162000961565b9050919050565b60006020820190508181036000830152620009fd8162000988565b9050919050565b600060608201905062000a1b6000830186620009af565b62000a2a6020830185620009af565b62000a396040830184620009af565b949350505050565b600082825260208201905092915050565b600062000a5f8262000cf2565b915062000a6c8362000cf2565b92508262000a7f5762000a7e62000d38565b5b828204905092915050565b6000808291508390505b600185111562000adc5780860481111562000ab45762000ab362000d09565b5b600185161562000ac45780820291505b808102905062000ad48562000d67565b945062000a94565b94509492505050565b600062000af28262000cf2565b915062000aff8362000cfc565b925062000b2e7fffffffffffffffffffffffffffffffffffffffffffffffffffffffffffffffff848462000b36565b905092915050565b60008262000b48576001905062000c1b565b8162000b58576000905062000c1b565b816001811462000b71576002811462000b7c5762000bb2565b600191505062000c1b565b60ff84111562000b915762000b9062000d09565b5b8360020a91508482111562000bab5762000baa62000d09565b5b5062000c1b565b5060208310610133831016604e8410600b841016171562000bec5782820a90508381111562000be65762000be562000d09565b5b62000c1b565b62000bfb848484600162000a8a565b9250905081840481111562000c155762000c1462000d09565b5b81810290505b9392505050565b600062000c2f8262000cf2565b915062000c3c8362000cf2565b9250817fffffffffffffffffffffffffffffffffffffffffffffffffffffffffffffffff048311821515161562000c785762000c7762000d09565b5b828202905092915050565b600062000c908262000cf2565b915062000c9d8362000cf2565b92508282101562000cb35762000cb262000d09565b5b828203905092915050565b600062000ccb8262000cd2565b9050919050565b600073ffffffffffffffffffffffffffffffffffffffff82169050919050565b6000819050919050565b600060ff82169050919050565b7f4e487b7100000000000000000000000000000000000000000000000000000000600052601160045260246000fd5b7f4e487b7100000000000000000000000000000000000000000000000000000000600052601260045260246000fd5b60008160011c9050919050565b7f547574656c6c757354726561737572795661756c743a20737461727420626c6f60008201527f636b206578636565647320656e6420626c6f636b000000000000000000000000602082015250565b7f496e697469616c697a61626c653a20636f6e747261637420697320616c72656160008201527f647920696e697469616c697a6564000000000000000000000000000000000000602082015250565b62000e1d8162000cbe565b811462000e2957600080fd5b50565b62000e378162000cf2565b811462000e4357600080fd5b50565b6119478062000e566000396000f3fe608060405234801561001057600080fd5b50600436106100cf5760003560e01c80637f51bb1f1161008c578063961325211161006657806396132521146101c6578063a217fddf146101e4578063e63ab1e914610202578063fc0c546a14610220576100cf565b80637f51bb1f146101705780638456cb591461018c57806391d1485414610196576100cf565b80633f4ba83a146100d45780634e71d92d146100de57806358aba00f146100e85780635c975abb1461010457806361d027b3146101225780636867aac514610140575b600080fd5b6100dc61023e565b005b6100e661030b565b005b61010260048036038101906100fd9190610ec0565b6104b8565b005b61010c6105a2565b6040516101199190611203565b60405180910390f35b61012a6105b9565b604051610137919061115f565b60405180910390f35b61015a60048036038101906101559190610f4e565b6105df565b6040516101679190611324565b60405180910390f35b61018a60048036038101906101859190610ec0565b6106c5565b005b610194610838565b005b6101b060048036038101906101ab9190610f12565b610905565b6040516101bd9190611203565b60405180910390f35b6101ce6109c1565b6040516101db9190611324565b60405180910390f35b6101ec6109d4565b6040516101f9919061121e565b60405180910390f35b61020a6109db565b604051610217919061121e565b60405180910390f35b6102286109ff565b604051610235919061115f565b60405180910390f35b7f65d7a28e3265b37a6474929f336521b332c1681b933f6cb9f3376673440d862a600033905061026e8282610905565b61028f8273ffffffffffffffffffffffffffffffffffffffff166014610a25565b61029d8460001c6020610a25565b6040516020016102ae929190611125565b604051602081830303815290604052906102fe576040517f08c379a00000000000000000000000000000000000000000000000000000000081526004016102f59190611262565b60405180910390fd5b50610307610d1f565b5050565b60006068546103186109c1565b61032291906115b8565b905080606860008282546103369190611366565b9250508190555060008111610380576040517f08c379a000000000000000000000000000000000000000000000000000000000815260040161037790611304565b60405180910390fd5b6000606660009054906101000a900473ffffffffffffffffffffffffffffffffffffffff1690508073ffffffffffffffffffffffffffffffffffffffff1663a9059cbb606760009054906101000a900473ffffffffffffffffffffffffffffffffffffffff16846040518363ffffffff1660e01b81526004016104049291906111da565b602060405180830381600087803b15801561041e57600080fd5b505af1158015610432573d6000803e3d6000fd5b505050506040513d601f19601f820116820180604052508101906104569190610ee9565b507f70eb43c4a8ae8c40502dcf22436c509c28d6ff421cf07c491be56984bd98706833606760009054906101000a900473ffffffffffffffffffffffffffffffffffffffff16846040516104ac939291906111a3565b60405180910390a15050565b6000801b60003390506104cb8282610905565b6104ec8273ffffffffffffffffffffffffffffffffffffffff166014610a25565b6104fa8460001c6020610a25565b60405160200161050b929190611125565b6040516020818303038152906040529061055b576040517f08c379a00000000000000000000000000000000000000000000000000000000081526004016105529190611262565b60405180910390fd5b5082606560006101000a81548173ffffffffffffffffffffffffffffffffffffffff021916908373ffffffffffffffffffffffffffffffffffffffff160217905550505050565b6000603360009054906101000a900460ff16905090565b606760009054906101000a900473ffffffffffffffffffffffffffffffffffffffff1681565b6000818310610623576040517f08c379a000000000000000000000000000000000000000000000000000000000815260040161061a906112e4565b60405180910390fd5b606a5482111561063357606a5491505b6069548310156106435760695492505b60006002806069548561065691906115b8565b6106609190611440565b606b5461066d919061155e565b61067791906113bc565b905060006002806069548761068c91906115b8565b6106969190611440565b606b546106a3919061155e565b6106ad91906113bc565b905080826106bb91906115b8565b9250505092915050565b6000801b60003390506106d88282610905565b6106f98273ffffffffffffffffffffffffffffffffffffffff166014610a25565b6107078460001c6020610a25565b604051602001610718929190611125565b60405160208183030381529060405290610768576040517f08c379a000000000000000000000000000000000000000000000000000000000815260040161075f9190611262565b60405180910390fd5b506000606760009054906101000a900473ffffffffffffffffffffffffffffffffffffffff16905083606760006101000a81548173ffffffffffffffffffffffffffffffffffffffff021916908373ffffffffffffffffffffffffffffffffffffffff1602179055506000606760009054906101000a900473ffffffffffffffffffffffffffffffffffffffff1690507fd101a15f9e9364a1c0a7c4cc8eb4cd9220094e83353915b0c74e09f72ec73edb828260405161082992919061117a565b60405180910390a15050505050565b7f65d7a28e3265b37a6474929f336521b332c1681b933f6cb9f3376673440d862a60003390506108688282610905565b6108898273ffffffffffffffffffffffffffffffffffffffff166014610a25565b6108978460001c6020610a25565b6040516020016108a8929190611125565b604051602081830303815290604052906108f8576040517f08c379a00000000000000000000000000000000000000000000000000000000081526004016108ef9190611262565b60405180910390fd5b50610901610dc1565b5050565b600080606560009054906101000a900473ffffffffffffffffffffffffffffffffffffffff1690508073ffffffffffffffffffffffffffffffffffffffff166391d1485485856040518363ffffffff1660e01b8152600401610968929190611239565b60206040518083038186803b15801561098057600080fd5b505afa158015610994573d6000803e3d6000fd5b505050506040513d601f19601f820116820180604052508101906109b89190610ee9565b91505092915050565b60006109cf606954436105df565b905090565b6000801b81565b7f65d7a28e3265b37a6474929f336521b332c1681b933f6cb9f3376673440d862a81565b606660009054906101000a900473ffffffffffffffffffffffffffffffffffffffff1681565b606060006002836002610a38919061155e565b610a429190611366565b67ffffffffffffffff811115610a81577f4e487b7100000000000000000000000000000000000000000000000000000000600052604160045260246000fd5b6040519080825280601f01601f191660200182016040528015610ab35781602001600182028036833780820191505090505b5090507f300000000000000000000000000000000000000000000000000000000000000081600081518110610b11577f4e487b7100000000000000000000000000000000000000000000000000000000600052603260045260246000fd5b60200101907effffffffffffffffffffffffffffffffffffffffffffffffffffffffffffff1916908160001a9053507f780000000000000000000000000000000000000000000000000000000000000081600181518110610b9b577f4e487b7100000000000000000000000000000000000000000000000000000000600052603260045260246000fd5b60200101907effffffffffffffffffffffffffffffffffffffffffffffffffffffffffffff1916908160001a90535060006001846002610bdb919061155e565b610be59190611366565b90505b6001811115610cd1577f3031323334353637383961626364656600000000000000000000000000000000600f861660108110610c4d577f4e487b7100000000000000000000000000000000000000000000000000000000600052603260045260246000fd5b1a60f81b828281518110610c8a577f4e487b7100000000000000000000000000000000000000000000000000000000600052603260045260246000fd5b60200101907effffffffffffffffffffffffffffffffffffffffffffffffffffffffffffff1916908160001a905350600485901c945080610cca9061167e565b9050610be8565b5060008414610d15576040517f08c379a0000000000000000000000000000000000000000000000000000000008152600401610d0c90611284565b60405180910390fd5b8091505092915050565b610d276105a2565b610d66576040517f08c379a0000000000000000000000000000000000000000000000000000000008152600401610d5d906112a4565b60405180910390fd5b6000603360006101000a81548160ff0219169083151502179055507f5db9ee0a495bf2e6ff9c91a7834c1ba4fdd244a5e8aa4e537bd38aeae4b073aa610daa610e64565b604051610db7919061115f565b60405180910390a1565b610dc96105a2565b15610e09576040517f08c379a0000000000000000000000000000000000000000000000000000000008152600401610e00906112c4565b60405180910390fd5b6001603360006101000a81548160ff0219169083151502179055507f62e78cea01bee320cd4e420270b5ea74000d11b0c9f74754ebdbfc544b05a258610e4d610e64565b604051610e5a919061115f565b60405180910390a1565b600033905090565b600081359050610e7b816118b5565b92915050565b600081519050610e90816118cc565b92915050565b600081359050610ea5816118e3565b92915050565b600081359050610eba816118fa565b92915050565b600060208284031215610ed257600080fd5b6000610ee084828501610e6c565b91505092915050565b600060208284031215610efb57600080fd5b6000610f0984828501610e81565b91505092915050565b60008060408385031215610f2557600080fd5b6000610f3385828601610e96565b9250506020610f4485828601610e6c565b9150509250929050565b60008060408385031215610f6157600080fd5b6000610f6f85828601610eab565b9250506020610f8085828601610eab565b9150509250929050565b610f93816115ec565b82525050565b610fa2816115fe565b82525050565b610fb18161160a565b82525050565b6000610fc28261133f565b610fcc818561134a565b9350610fdc81856020860161164b565b610fe581611706565b840191505092915050565b6000610ffb8261133f565b611005818561135b565b935061101581856020860161164b565b80840191505092915050565b600061102e60208361134a565b915061103982611724565b602082019050919050565b600061105160248361135b565b915061105c8261174d565b602482019050919050565b600061107460148361134a565b915061107f8261179c565b602082019050919050565b600061109760108361134a565b91506110a2826117c5565b602082019050919050565b60006110ba602b8361134a565b91506110c5826117ee565b604082019050919050565b60006110dd60278361134a565b91506110e88261183d565b604082019050919050565b600061110060118361135b565b915061110b8261188c565b601182019050919050565b61111f81611634565b82525050565b600061113082611044565b915061113c8285610ff0565b9150611147826110f3565b91506111538284610ff0565b91508190509392505050565b60006020820190506111746000830184610f8a565b92915050565b600060408201905061118f6000830185610f8a565b61119c6020830184610f8a565b9392505050565b60006060820190506111b86000830186610f8a565b6111c56020830185610f8a565b6111d26040830184611116565b949350505050565b60006040820190506111ef6000830185610f8a565b6111fc6020830184611116565b9392505050565b60006020820190506112186000830184610f99565b92915050565b60006020820190506112336000830184610fa8565b92915050565b600060408201905061124e6000830185610fa8565b61125b6020830184610f8a565b9392505050565b6000602082019050818103600083015261127c8184610fb7565b905092915050565b6000602082019050818103600083015261129d81611021565b9050919050565b600060208201905081810360008301526112bd81611067565b9050919050565b600060208201905081810360008301526112dd8161108a565b9050919050565b600060208201905081810360008301526112fd816110ad565b9050919050565b6000602082019050818103600083015261131d816110d0565b9050919050565b60006020820190506113396000830184611116565b92915050565b600081519050919050565b600082825260208201905092915050565b600081905092915050565b600061137182611634565b915061137c83611634565b9250827fffffffffffffffffffffffffffffffffffffffffffffffffffffffffffffffff038211156113b1576113b06116a8565b5b828201905092915050565b60006113c782611634565b91506113d283611634565b9250826113e2576113e16116d7565b5b828204905092915050565b6000808291508390505b600185111561143757808604811115611413576114126116a8565b5b60018516156114225780820291505b808102905061143085611717565b94506113f7565b94509492505050565b600061144b82611634565b91506114568361163e565b92506114837fffffffffffffffffffffffffffffffffffffffffffffffffffffffffffffffff848461148b565b905092915050565b60008261149b5760019050611557565b816114a95760009050611557565b81600181146114bf57600281146114c9576114f8565b6001915050611557565b60ff8411156114db576114da6116a8565b5b8360020a9150848211156114f2576114f16116a8565b5b50611557565b5060208310610133831016604e8410600b841016171561152d5782820a905083811115611528576115276116a8565b5b611557565b61153a84848460016113ed565b92509050818404811115611551576115506116a8565b5b81810290505b9392505050565b600061156982611634565b915061157483611634565b9250817fffffffffffffffffffffffffffffffffffffffffffffffffffffffffffffffff04831182151516156115ad576115ac6116a8565b5b828202905092915050565b60006115c382611634565b91506115ce83611634565b9250828210156115e1576115e06116a8565b5b828203905092915050565b60006115f782611614565b9050919050565b60008115159050919050565b6000819050919050565b600073ffffffffffffffffffffffffffffffffffffffff82169050919050565b6000819050919050565b600060ff82169050919050565b60005b8381101561166957808201518184015260208101905061164e565b83811115611678576000848401525b50505050565b600061168982611634565b9150600082141561169d5761169c6116a8565b5b600182039050919050565b7f4e487b7100000000000000000000000000000000000000000000000000000000600052601160045260246000fd5b7f4e487b7100000000000000000000000000000000000000000000000000000000600052601260045260246000fd5b6000601f19601f8301169050919050565b60008160011c9050919050565b7f537472696e67733a20686578206c656e67746820696e73756666696369656e74600082015250565b7f416363657373436f6e74726f6c50726f78795061757361626c653a206163636f60008201527f756e742000000000000000000000000000000000000000000000000000000000602082015250565b7f5061757361626c653a206e6f7420706175736564000000000000000000000000600082015250565b7f5061757361626c653a2070617573656400000000000000000000000000000000600082015250565b7f547574656c6c757354726561737572795661756c743a207b66726f6d7d20697360008201527f206166746572207b746f7d000000000000000000000000000000000000000000602082015250565b7f547574656c6c757354726561737572795661756c743a206e6f7468696e67207460008201527f6f20636c61696d00000000000000000000000000000000000000000000000000602082015250565b7f206973206d697373696e6720726f6c6520000000000000000000000000000000600082015250565b6118be816115ec565b81146118c957600080fd5b50565b6118d5816115fe565b81146118e057600080fd5b50565b6118ec8161160a565b81146118f757600080fd5b50565b61190381611634565b811461190e57600080fd5b5056fea26469706673582212207d4648e2ae0f3f72618a6b4108b7baa5e877820d83f4a77dd9d9226b97e5ea5e64736f6c63430008020033",
  "linkReferences": {},
  "deployedLinkReferences": {}
}