{
  "_format": "hh-sol-artifact-1",
  "contractName": "TutellusDID",
  "sourceName": "contracts/TutellusDID.sol",
  "abi": [
    {
      "anonymous": false,
      "inputs": [
        {
          "indexed": true,
          "internalType": "address",
          "name": "destination",
          "type": "address"
        },
        {
          "indexed": false,
          "internalType": "bytes",
          "name": "data",
          "type": "bytes"
        },
        {
          "indexed": false,
          "internalType": "uint256",
          "name": "value",
          "type": "uint256"
        },
        {
          "indexed": false,
          "internalType": "uint256",
          "name": "gas",
          "type": "uint256"
        },
        {
          "indexed": false,
          "internalType": "bytes",
          "name": "result",
          "type": "bytes"
        }
      ],
      "name": "Forward",
      "type": "event"
    },
    {
      "anonymous": false,
      "inputs": [
        {
          "indexed": true,
          "internalType": "bytes32",
          "name": "role",
          "type": "bytes32"
        },
        {
          "indexed": true,
          "internalType": "bytes32",
          "name": "previousAdminRole",
          "type": "bytes32"
        },
        {
          "indexed": true,
          "internalType": "bytes32",
          "name": "newAdminRole",
          "type": "bytes32"
        }
      ],
      "name": "RoleAdminChanged",
      "type": "event"
    },
    {
      "anonymous": false,
      "inputs": [
        {
          "indexed": true,
          "internalType": "bytes32",
          "name": "role",
          "type": "bytes32"
        },
        {
          "indexed": true,
          "internalType": "address",
          "name": "account",
          "type": "address"
        },
        {
          "indexed": true,
          "internalType": "address",
          "name": "sender",
          "type": "address"
        }
      ],
      "name": "RoleGranted",
      "type": "event"
    },
    {
      "anonymous": false,
      "inputs": [
        {
          "indexed": true,
          "internalType": "bytes32",
          "name": "role",
          "type": "bytes32"
        },
        {
          "indexed": true,
          "internalType": "address",
          "name": "account",
          "type": "address"
        },
        {
          "indexed": true,
          "internalType": "address",
          "name": "sender",
          "type": "address"
        }
      ],
      "name": "RoleRevoked",
      "type": "event"
    },
    {
      "stateMutability": "payable",
      "type": "fallback"
    },
    {
      "inputs": [],
      "name": "DEFAULT_ADMIN_ROLE",
      "outputs": [
        {
          "internalType": "bytes32",
          "name": "",
          "type": "bytes32"
        }
      ],
      "stateMutability": "view",
      "type": "function"
    },
    {
      "inputs": [],
      "name": "MASTER_ROLE",
      "outputs": [
        {
          "internalType": "bytes32",
          "name": "",
          "type": "bytes32"
        }
      ],
      "stateMutability": "view",
      "type": "function"
    },
    {
      "inputs": [],
      "name": "OWNER_ROLE",
      "outputs": [
        {
          "internalType": "bytes32",
          "name": "",
          "type": "bytes32"
        }
      ],
      "stateMutability": "view",
      "type": "function"
    },
    {
      "inputs": [],
      "name": "controller",
      "outputs": [
        {
          "internalType": "contract TutellusController",
          "name": "",
          "type": "address"
        }
      ],
      "stateMutability": "view",
      "type": "function"
    },
    {
      "inputs": [
        {
          "internalType": "address",
          "name": "destination_",
          "type": "address"
        },
        {
          "internalType": "bytes",
          "name": "data_",
          "type": "bytes"
        },
        {
          "internalType": "uint256",
          "name": "value_",
          "type": "uint256"
        },
        {
          "internalType": "uint256",
          "name": "gas_",
          "type": "uint256"
        }
      ],
      "name": "forward",
      "outputs": [
        {
          "internalType": "bytes",
          "name": "",
          "type": "bytes"
        }
      ],
      "stateMutability": "nonpayable",
      "type": "function"
    },
    {
      "inputs": [
        {
          "internalType": "address[]",
          "name": "destination_",
          "type": "address[]"
        },
        {
          "internalType": "bytes[]",
          "name": "data_",
          "type": "bytes[]"
        },
        {
          "internalType": "uint256[]",
          "name": "value_",
          "type": "uint256[]"
        },
        {
          "internalType": "uint256[]",
          "name": "gas_",
          "type": "uint256[]"
        }
      ],
      "name": "forwardBatch",
      "outputs": [
        {
          "internalType": "bytes[]",
          "name": "",
          "type": "bytes[]"
        }
      ],
      "stateMutability": "nonpayable",
      "type": "function"
    },
    {
      "inputs": [
        {
          "internalType": "bytes32",
          "name": "role",
          "type": "bytes32"
        }
      ],
      "name": "getRoleAdmin",
      "outputs": [
        {
          "internalType": "bytes32",
          "name": "",
          "type": "bytes32"
        }
      ],
      "stateMutability": "view",
      "type": "function"
    },
    {
      "inputs": [
        {
          "internalType": "bytes32",
          "name": "role",
          "type": "bytes32"
        },
        {
          "internalType": "address",
          "name": "account",
          "type": "address"
        }
      ],
      "name": "grantRole",
      "outputs": [],
      "stateMutability": "nonpayable",
      "type": "function"
    },
    {
      "inputs": [
        {
          "internalType": "bytes32",
          "name": "role",
          "type": "bytes32"
        },
        {
          "internalType": "address",
          "name": "account",
          "type": "address"
        }
      ],
      "name": "hasRole",
      "outputs": [
        {
          "internalType": "bool",
          "name": "",
          "type": "bool"
        }
      ],
      "stateMutability": "view",
      "type": "function"
    },
    {
      "inputs": [
        {
          "internalType": "address",
          "name": "controller_",
          "type": "address"
        },
        {
          "internalType": "address",
          "name": "owner",
          "type": "address"
        },
        {
          "internalType": "address",
          "name": "master",
          "type": "address"
        }
      ],
      "name": "initialize",
      "outputs": [],
      "stateMutability": "nonpayable",
      "type": "function"
    },
    {
      "inputs": [
        {
          "internalType": "address",
          "name": "",
          "type": "address"
        },
        {
          "internalType": "address",
          "name": "",
          "type": "address"
        },
        {
          "internalType": "uint256",
          "name": "",
          "type": "uint256"
        },
        {
          "internalType": "bytes",
          "name": "",
          "type": "bytes"
        }
      ],
      "name": "onERC721Received",
      "outputs": [
        {
          "internalType": "bytes4",
          "name": "",
          "type": "bytes4"
        }
      ],
      "stateMutability": "nonpayable",
      "type": "function"
    },
    {
      "inputs": [],
      "name": "onlyVerifiedCalls",
      "outputs": [
        {
          "internalType": "bool",
          "name": "",
          "type": "bool"
        }
      ],
      "stateMutability": "view",
      "type": "function"
    },
    {
      "inputs": [
        {
          "internalType": "bytes32",
          "name": "role",
          "type": "bytes32"
        },
        {
          "internalType": "address",
          "name": "account",
          "type": "address"
        }
      ],
      "name": "renounceRole",
      "outputs": [],
      "stateMutability": "nonpayable",
      "type": "function"
    },
    {
      "inputs": [
        {
          "internalType": "bytes32",
          "name": "role",
          "type": "bytes32"
        },
        {
          "internalType": "address",
          "name": "account",
          "type": "address"
        }
      ],
      "name": "revokeRole",
      "outputs": [],
      "stateMutability": "nonpayable",
      "type": "function"
    },
    {
      "inputs": [
        {
          "internalType": "bytes4",
          "name": "interfaceId",
          "type": "bytes4"
        }
      ],
      "name": "supportsInterface",
      "outputs": [
        {
          "internalType": "bool",
          "name": "",
          "type": "bool"
        }
      ],
      "stateMutability": "view",
      "type": "function"
    },
    {
      "inputs": [
        {
          "internalType": "address",
          "name": "destination_",
          "type": "address"
        }
      ],
      "name": "verificationCheck",
      "outputs": [
        {
          "internalType": "bool",
          "name": "",
          "type": "bool"
        }
      ],
      "stateMutability": "view",
      "type": "function"
    },
    {
      "inputs": [],
      "name": "version",
      "outputs": [
        {
          "internalType": "string",
          "name": "",
          "type": "string"
        }
      ],
      "stateMutability": "pure",
      "type": "function"
    },
    {
      "stateMutability": "payable",
      "type": "receive"
    }
  ],
  "bytecode": "0x608060405234801561001057600080fd5b50612e44806100206000396000f3fe6080604052600436106101025760003560e01c80637e48c48811610095578063c0c53b8b11610064578063c0c53b8b14610389578063d547741f146103b2578063dc224863146103db578063e58378bb14610406578063f77c47911461043157610109565b80637e48c488146102a757806391d14854146102e4578063a217fddf14610321578063a756bb261461034c57610109565b80632f2ff15d116100d15780632f2ff15d146101ed57806336568abe146102165780634c4cecfb1461023f57806354fd4d501461027c57610109565b806301ffc9a71461010b578063150b7a021461014857806323acd14e14610185578063248a9ca3146101b057610109565b3661010957005b005b34801561011757600080fd5b50610132600480360381019061012d9190612264565b61045c565b60405161013f919061266e565b60405180910390f35b34801561015457600080fd5b5061016f600480360381019061016a9190612006565b6104d6565b60405161017c91906126a4565b60405180910390f35b34801561019157600080fd5b5061019a6104ea565b6040516101a7919061266e565b60405180910390f35b3480156101bc57600080fd5b506101d760048036038101906101d291906121ff565b6104fd565b6040516101e49190612689565b60405180910390f35b3480156101f957600080fd5b50610214600480360381019061020f9190612228565b61051d565b005b34801561022257600080fd5b5061023d60048036038101906102389190612228565b610546565b005b34801561024b57600080fd5b5061026660048036038101906102619190611f8e565b6105c9565b604051610273919061266e565b60405180910390f35b34801561028857600080fd5b5061029161069b565b60405161029e9190612751565b60405180910390f35b3480156102b357600080fd5b506102ce60048036038101906102c99190612101565b6106d8565b6040516102db919061264c565b60405180910390f35b3480156102f057600080fd5b5061030b60048036038101906103069190612228565b610b41565b604051610318919061266e565b60405180910390f35b34801561032d57600080fd5b50610336610bac565b6040516103439190612689565b60405180910390f35b34801561035857600080fd5b50610373600480360381019061036e9190612081565b610bb3565b6040516103809190612714565b60405180910390f35b34801561039557600080fd5b506103b060048036038101906103ab9190611fb7565b610c6c565b005b3480156103be57600080fd5b506103d960048036038101906103d49190612228565b610d63565b005b3480156103e757600080fd5b506103f0610d8c565b6040516103fd9190612689565b60405180910390f35b34801561041257600080fd5b5061041b610db0565b6040516104289190612689565b60405180910390f35b34801561043d57600080fd5b50610446610dd4565b6040516104539190612736565b60405180910390f35b60007f7965db0b000000000000000000000000000000000000000000000000000000007bffffffffffffffffffffffffffffffffffffffffffffffffffffffff1916827bffffffffffffffffffffffffffffffffffffffffffffffffffffffff191614806104cf57506104ce82610dfa565b5b9050919050565b600063150b7a0260e01b9050949350505050565b60c960149054906101000a900460ff1681565b600060656000838152602001908152602001600020600101549050919050565b610526826104fd565b61053781610532610e64565b610e6c565b6105418383610f09565b505050565b61054e610e64565b73ffffffffffffffffffffffffffffffffffffffff168173ffffffffffffffffffffffffffffffffffffffff16146105bb576040517f08c379a00000000000000000000000000000000000000000000000000000000081526004016105b2906127f3565b60405180910390fd5b6105c58282610fea565b5050565b600060c960149054906101000a900460ff166105e85760019050610696565b60c960009054906101000a900473ffffffffffffffffffffffffffffffffffffffff1673ffffffffffffffffffffffffffffffffffffffff1663b9209e33836040518263ffffffff1660e01b81526004016106439190612631565b60206040518083038186803b15801561065b57600080fd5b505afa15801561066f573d6000803e3d6000fd5b505050506040513d601f19601f8201168201806040525081019061069391906121d6565b90505b919050565b60606040518060400160405280600581526020017f302e302e31000000000000000000000000000000000000000000000000000000815250905090565b606086869050898990501480156106f457508484905087879050145b801561070557508282905085859050145b610744576040517f08c379a000000000000000000000000000000000000000000000000000000000815260040161073b906127b3565b60405180910390fd5b60008989905067ffffffffffffffff811115610789577f4e487b7100000000000000000000000000000000000000000000000000000000600052604160045260246000fd5b6040519080825280602002602001820160405280156107bc57816020015b60608152602001906001900390816107a75790505b50905060005b8151811015610b305761092f8b8b83818110610807577f4e487b7100000000000000000000000000000000000000000000000000000000600052603260045260246000fd5b905060200201602081019061081c9190611f8e565b8a8a84818110610855577f4e487b7100000000000000000000000000000000000000000000000000000000600052603260045260246000fd5b90506020028101906108679190612813565b8080601f016020809104026020016040519081016040528093929190818152602001838380828437600081840152601f19601f820116905080830192505050505050508989858181106108e3577f4e487b7100000000000000000000000000000000000000000000000000000000600052603260045260246000fd5b90506020020135888886818110610923577f4e487b7100000000000000000000000000000000000000000000000000000000600052603260045260246000fd5b905060200201356110cc565b828281518110610968577f4e487b7100000000000000000000000000000000000000000000000000000000600052603260045260246000fd5b60200260200101819052508a8a828181106109ac577f4e487b7100000000000000000000000000000000000000000000000000000000600052603260045260246000fd5b90506020020160208101906109c19190611f8e565b73ffffffffffffffffffffffffffffffffffffffff167fab86e76c1a7aa07694b6e4b3300244a24681243acac04b29df33642bab7954998a8a84818110610a31577f4e487b7100000000000000000000000000000000000000000000000000000000600052603260045260246000fd5b9050602002810190610a439190612813565b8a8a86818110610a7c577f4e487b7100000000000000000000000000000000000000000000000000000000600052603260045260246000fd5b90506020020135898987818110610abc577f4e487b7100000000000000000000000000000000000000000000000000000000600052603260045260246000fd5b90506020020135878781518110610afc577f4e487b7100000000000000000000000000000000000000000000000000000000600052603260045260246000fd5b6020026020010151604051610b159594939291906126bf565b60405180910390a28080610b2890612b78565b9150506107c2565b508091505098975050505050505050565b60006065600084815260200190815260200160002060000160008373ffffffffffffffffffffffffffffffffffffffff1673ffffffffffffffffffffffffffffffffffffffff16815260200190815260200160002060009054906101000a900460ff16905092915050565b6000801b81565b60606000610c078787878080601f016020809104026020016040519081016040528093929190818152602001838380828437600081840152601f19601f8201169050808301925050505050505086866110cc565b90508673ffffffffffffffffffffffffffffffffffffffff167fab86e76c1a7aa07694b6e4b3300244a24681243acac04b29df33642bab7954998787878786604051610c579594939291906126bf565b60405180910390a28091505095945050505050565b600060019054906101000a900460ff1680610c92575060008054906101000a900460ff16155b610cd1576040517f08c379a0000000000000000000000000000000000000000000000000000000008152600401610cc8906127d3565b60405180910390fd5b60008060019054906101000a900460ff161590508015610d21576001600060016101000a81548160ff02191690831515021790555060016000806101000a81548160ff0219169083151502179055505b610d296111f9565b610d316112ea565b610d3c8484846113cb565b8015610d5d5760008060016101000a81548160ff0219169083151502179055505b50505050565b610d6c826104fd565b610d7d81610d78610e64565b610e6c565b610d878383610fea565b505050565b7f8b8c0776df2c2176edf6f82391c35ea4891146d7a976ee36fd07f1a6fb4ead4c81565b7fb19546dff01e856fb3f010c267a7b1c60363cf8a4664e21cc89c26224620214e81565b60c960009054906101000a900473ffffffffffffffffffffffffffffffffffffffff1681565b60007f01ffc9a7000000000000000000000000000000000000000000000000000000007bffffffffffffffffffffffffffffffffffffffffffffffffffffffff1916827bffffffffffffffffffffffffffffffffffffffffffffffffffffffff1916149050919050565b600033905090565b610e768282610b41565b610f0557610e9b8173ffffffffffffffffffffffffffffffffffffffff16601461153b565b610ea98360001c602061153b565b604051602001610eba9291906125f7565b6040516020818303038152906040526040517f08c379a0000000000000000000000000000000000000000000000000000000008152600401610efc9190612751565b60405180910390fd5b5050565b610f138282610b41565b610fe65760016065600084815260200190815260200160002060000160008373ffffffffffffffffffffffffffffffffffffffff1673ffffffffffffffffffffffffffffffffffffffff16815260200190815260200160002060006101000a81548160ff021916908315150217905550610f8b610e64565b73ffffffffffffffffffffffffffffffffffffffff168173ffffffffffffffffffffffffffffffffffffffff16837f2f8788117e7eff1d82e926ec794901d17c78024a50270940304540a733656f0d60405160405180910390a45b5050565b610ff48282610b41565b156110c85760006065600084815260200190815260200160002060000160008373ffffffffffffffffffffffffffffffffffffffff1673ffffffffffffffffffffffffffffffffffffffff16815260200190815260200160002060006101000a81548160ff02191690831515021790555061106d610e64565b73ffffffffffffffffffffffffffffffffffffffff168173ffffffffffffffffffffffffffffffffffffffff16837ff6391f5c32d9c69d2a47ea670b442974b53935d1edc7fd64eb21e047a839171b60405160405180910390a45b5050565b6060846110d7610e64565b6110e0826105c9565b61111f576040517f08c379a000000000000000000000000000000000000000000000000000000000815260040161111690612793565b60405180910390fd5b6000808873ffffffffffffffffffffffffffffffffffffffff168787908a60405161114a91906125e0565b600060405180830381858888f193505050503d8060008114611188576040519150601f19603f3d011682016040523d82523d6000602084013e61118d565b606091505b5091509150816111ea5760006111a282611835565b90508281906111e7576040517f08c379a00000000000000000000000000000000000000000000000000000000081526004016111de9190612751565b60405180910390fd5b50505b80945050505050949350505050565b600060019054906101000a900460ff168061121f575060008054906101000a900460ff16155b61125e576040517f08c379a0000000000000000000000000000000000000000000000000000000008152600401611255906127d3565b60405180910390fd5b60008060019054906101000a900460ff1615905080156112ae576001600060016101000a81548160ff02191690831515021790555060016000806101000a81548160ff0219169083151502179055505b6112b66118a0565b6112be611979565b6112c6611a52565b80156112e75760008060016101000a81548160ff0219169083151502179055505b50565b600060019054906101000a900460ff1680611310575060008054906101000a900460ff16155b61134f576040517f08c379a0000000000000000000000000000000000000000000000000000000008152600401611346906127d3565b60405180910390fd5b60008060019054906101000a900460ff16159050801561139f576001600060016101000a81548160ff02191690831515021790555060016000806101000a81548160ff0219169083151502179055505b6113a7611b2b565b80156113c85760008060016101000a81548160ff0219169083151502179055505b50565b600060019054906101000a900460ff16806113f1575060008054906101000a900460ff16155b611430576040517f08c379a0000000000000000000000000000000000000000000000000000000008152600401611427906127d3565b60405180910390fd5b60008060019054906101000a900460ff161590508015611480576001600060016101000a81548160ff02191690831515021790555060016000806101000a81548160ff0219169083151502179055505b61148d6000801b83611c04565b6114b77fb19546dff01e856fb3f010c267a7b1c60363cf8a4664e21cc89c26224620214e84611c04565b6114e17fb19546dff01e856fb3f010c267a7b1c60363cf8a4664e21cc89c26224620214e83611c04565b61150b7f8b8c0776df2c2176edf6f82391c35ea4891146d7a976ee36fd07f1a6fb4ead4c83611c04565b61151484611c12565b80156115355760008060016101000a81548160ff0219169083151502179055505b50505050565b60606000600283600261154e91906129df565b6115589190612989565b67ffffffffffffffff811115611597577f4e487b7100000000000000000000000000000000000000000000000000000000600052604160045260246000fd5b6040519080825280601f01601f1916602001820160405280156115c95781602001600182028036833780820191505090505b5090507f300000000000000000000000000000000000000000000000000000000000000081600081518110611627577f4e487b7100000000000000000000000000000000000000000000000000000000600052603260045260246000fd5b60200101907effffffffffffffffffffffffffffffffffffffffffffffffffffffffffffff1916908160001a9053507f7800000000000000000000000000000000000000000000000000000000000000816001815181106116b1577f4e487b7100000000000000000000000000000000000000000000000000000000600052603260045260246000fd5b60200101907effffffffffffffffffffffffffffffffffffffffffffffffffffffffffffff1916908160001a905350600060018460026116f191906129df565b6116fb9190612989565b90505b60018111156117e7577f3031323334353637383961626364656600000000000000000000000000000000600f861660108110611763577f4e487b7100000000000000000000000000000000000000000000000000000000600052603260045260246000fd5b1a60f81b8282815181106117a0577f4e487b7100000000000000000000000000000000000000000000000000000000600052603260045260246000fd5b60200101907effffffffffffffffffffffffffffffffffffffffffffffffffffffffffffff1916908160001a905350600485901c9450806117e090612b1d565b90506116fe565b506000841461182b576040517f08c379a000000000000000000000000000000000000000000000000000000000815260040161182290612773565b60405180910390fd5b8091505092915050565b606060448251101561187e576040518060400160405280601d81526020017f5472616e73616374696f6e2072657665727465642073696c656e746c79000000815250905061189b565b60048201915081806020019051810190611898919061228d565b90505b919050565b600060019054906101000a900460ff16806118c6575060008054906101000a900460ff16155b611905576040517f08c379a00000000000000000000000000000000000000000000000000000000081526004016118fc906127d3565b60405180910390fd5b60008060019054906101000a900460ff161590508015611955576001600060016101000a81548160ff02191690831515021790555060016000806101000a81548160ff0219169083151502179055505b80156119765760008060016101000a81548160ff0219169083151502179055505b50565b600060019054906101000a900460ff168061199f575060008054906101000a900460ff16155b6119de576040517f08c379a00000000000000000000000000000000000000000000000000000000081526004016119d5906127d3565b60405180910390fd5b60008060019054906101000a900460ff161590508015611a2e576001600060016101000a81548160ff02191690831515021790555060016000806101000a81548160ff0219169083151502179055505b8015611a4f5760008060016101000a81548160ff0219169083151502179055505b50565b600060019054906101000a900460ff1680611a78575060008054906101000a900460ff16155b611ab7576040517f08c379a0000000000000000000000000000000000000000000000000000000008152600401611aae906127d3565b60405180910390fd5b60008060019054906101000a900460ff161590508015611b07576001600060016101000a81548160ff02191690831515021790555060016000806101000a81548160ff0219169083151502179055505b8015611b285760008060016101000a81548160ff0219169083151502179055505b50565b600060019054906101000a900460ff1680611b51575060008054906101000a900460ff16155b611b90576040517f08c379a0000000000000000000000000000000000000000000000000000000008152600401611b87906127d3565b60405180910390fd5b60008060019054906101000a900460ff161590508015611be0576001600060016101000a81548160ff02191690831515021790555060016000806101000a81548160ff0219169083151502179055505b8015611c015760008060016101000a81548160ff0219169083151502179055505b50565b611c0e8282610f09565b5050565b600060019054906101000a900460ff1680611c38575060008054906101000a900460ff16155b611c77576040517f08c379a0000000000000000000000000000000000000000000000000000000008152600401611c6e906127d3565b60405180910390fd5b60008060019054906101000a900460ff161590508015611cc7576001600060016101000a81548160ff02191690831515021790555060016000806101000a81548160ff0219169083151502179055505b8160c960006101000a81548173ffffffffffffffffffffffffffffffffffffffff021916908373ffffffffffffffffffffffffffffffffffffffff1602179055508015611d295760008060016101000a81548160ff0219169083151502179055505b5050565b6000611d40611d3b8461288f565b61286a565b905082815260208101848484011115611d5857600080fd5b611d63848285612adb565b509392505050565b6000611d7e611d79846128c0565b61286a565b905082815260208101848484011115611d9657600080fd5b611da1848285612aea565b509392505050565b600081359050611db881612d9b565b92915050565b60008083601f840112611dd057600080fd5b8235905067ffffffffffffffff811115611de957600080fd5b602083019150836020820283011115611e0157600080fd5b9250929050565b60008083601f840112611e1a57600080fd5b8235905067ffffffffffffffff811115611e3357600080fd5b602083019150836020820283011115611e4b57600080fd5b9250929050565b60008083601f840112611e6457600080fd5b8235905067ffffffffffffffff811115611e7d57600080fd5b602083019150836020820283011115611e9557600080fd5b9250929050565b600081519050611eab81612db2565b92915050565b600081359050611ec081612dc9565b92915050565b600081359050611ed581612de0565b92915050565b60008083601f840112611eed57600080fd5b8235905067ffffffffffffffff811115611f0657600080fd5b602083019150836001820283011115611f1e57600080fd5b9250929050565b600082601f830112611f3657600080fd5b8135611f46848260208601611d2d565b91505092915050565b600082601f830112611f6057600080fd5b8151611f70848260208601611d6b565b91505092915050565b600081359050611f8881612df7565b92915050565b600060208284031215611fa057600080fd5b6000611fae84828501611da9565b91505092915050565b600080600060608486031215611fcc57600080fd5b6000611fda86828701611da9565b9350506020611feb86828701611da9565b9250506040611ffc86828701611da9565b9150509250925092565b6000806000806080858703121561201c57600080fd5b600061202a87828801611da9565b945050602061203b87828801611da9565b935050604061204c87828801611f79565b925050606085013567ffffffffffffffff81111561206957600080fd5b61207587828801611f25565b91505092959194509250565b60008060008060006080868803121561209957600080fd5b60006120a788828901611da9565b955050602086013567ffffffffffffffff8111156120c457600080fd5b6120d088828901611edb565b945094505060406120e388828901611f79565b92505060606120f488828901611f79565b9150509295509295909350565b6000806000806000806000806080898b03121561211d57600080fd5b600089013567ffffffffffffffff81111561213757600080fd5b6121438b828c01611dbe565b9850985050602089013567ffffffffffffffff81111561216257600080fd5b61216e8b828c01611e08565b9650965050604089013567ffffffffffffffff81111561218d57600080fd5b6121998b828c01611e52565b9450945050606089013567ffffffffffffffff8111156121b857600080fd5b6121c48b828c01611e52565b92509250509295985092959890939650565b6000602082840312156121e857600080fd5b60006121f684828501611e9c565b91505092915050565b60006020828403121561221157600080fd5b600061221f84828501611eb1565b91505092915050565b6000806040838503121561223b57600080fd5b600061224985828601611eb1565b925050602061225a85828601611da9565b9150509250929050565b60006020828403121561227657600080fd5b600061228484828501611ec6565b91505092915050565b60006020828403121561229f57600080fd5b600082015167ffffffffffffffff8111156122b957600080fd5b6122c584828501611f4f565b91505092915050565b60006122da83836123c0565b905092915050565b6122eb81612a39565b82525050565b60006122fc82612901565b612306818561292f565b935083602082028501612318856128f1565b8060005b85811015612354578484038952815161233585826122ce565b945061234083612922565b925060208a0199505060018101905061231c565b50829750879550505050505092915050565b61236f81612a4b565b82525050565b61237e81612a57565b82525050565b61238d81612a61565b82525050565b600061239f8385612951565b93506123ac838584612adb565b6123b583612c1f565b840190509392505050565b60006123cb8261290c565b6123d58185612940565b93506123e5818560208601612aea565b6123ee81612c1f565b840191505092915050565b60006124048261290c565b61240e8185612951565b935061241e818560208601612aea565b61242781612c1f565b840191505092915050565b600061243d8261290c565b6124478185612962565b9350612457818560208601612aea565b80840191505092915050565b61246c81612ab7565b82525050565b600061247d82612917565b612487818561296d565b9350612497818560208601612aea565b6124a081612c1f565b840191505092915050565b60006124b682612917565b6124c0818561297e565b93506124d0818560208601612aea565b80840191505092915050565b60006124e960208361296d565b91506124f482612c30565b602082019050919050565b600061250c601e8361296d565b915061251782612c59565b602082019050919050565b600061252f601b8361296d565b915061253a82612c82565b602082019050919050565b6000612552602e8361296d565b915061255d82612cab565b604082019050919050565b600061257560178361297e565b915061258082612cfa565b601782019050919050565b600061259860118361297e565b91506125a382612d23565b601182019050919050565b60006125bb602f8361296d565b91506125c682612d4c565b604082019050919050565b6125da81612aad565b82525050565b60006125ec8284612432565b915081905092915050565b600061260282612568565b915061260e82856124ab565b91506126198261258b565b915061262582846124ab565b91508190509392505050565b600060208201905061264660008301846122e2565b92915050565b6000602082019050818103600083015261266681846122f1565b905092915050565b60006020820190506126836000830184612366565b92915050565b600060208201905061269e6000830184612375565b92915050565b60006020820190506126b96000830184612384565b92915050565b600060808201905081810360008301526126da818789612393565b90506126e960208301866125d1565b6126f660408301856125d1565b818103606083015261270881846123f9565b90509695505050505050565b6000602082019050818103600083015261272e81846123f9565b905092915050565b600060208201905061274b6000830184612463565b92915050565b6000602082019050818103600083015261276b8184612472565b905092915050565b6000602082019050818103600083015261278c816124dc565b9050919050565b600060208201905081810360008301526127ac816124ff565b9050919050565b600060208201905081810360008301526127cc81612522565b9050919050565b600060208201905081810360008301526127ec81612545565b9050919050565b6000602082019050818103600083015261280c816125ae565b9050919050565b6000808335600160200384360303811261282c57600080fd5b80840192508235915067ffffffffffffffff82111561284a57600080fd5b60208301925060018202360383131561286257600080fd5b509250929050565b6000612874612885565b90506128808282612b47565b919050565b6000604051905090565b600067ffffffffffffffff8211156128aa576128a9612bf0565b5b6128b382612c1f565b9050602081019050919050565b600067ffffffffffffffff8211156128db576128da612bf0565b5b6128e482612c1f565b9050602081019050919050565b6000819050602082019050919050565b600081519050919050565b600081519050919050565b600081519050919050565b6000602082019050919050565b600082825260208201905092915050565b600082825260208201905092915050565b600082825260208201905092915050565b600081905092915050565b600082825260208201905092915050565b600081905092915050565b600061299482612aad565b915061299f83612aad565b9250827fffffffffffffffffffffffffffffffffffffffffffffffffffffffffffffffff038211156129d4576129d3612bc1565b5b828201905092915050565b60006129ea82612aad565b91506129f583612aad565b9250817fffffffffffffffffffffffffffffffffffffffffffffffffffffffffffffffff0483118215151615612a2e57612a2d612bc1565b5b828202905092915050565b6000612a4482612a8d565b9050919050565b60008115159050919050565b6000819050919050565b60007fffffffff0000000000000000000000000000000000000000000000000000000082169050919050565b600073ffffffffffffffffffffffffffffffffffffffff82169050919050565b6000819050919050565b6000612ac282612ac9565b9050919050565b6000612ad482612a8d565b9050919050565b82818337600083830152505050565b60005b83811015612b08578082015181840152602081019050612aed565b83811115612b17576000848401525b50505050565b6000612b2882612aad565b91506000821415612b3c57612b3b612bc1565b5b600182039050919050565b612b5082612c1f565b810181811067ffffffffffffffff82111715612b6f57612b6e612bf0565b5b80604052505050565b6000612b8382612aad565b91507fffffffffffffffffffffffffffffffffffffffffffffffffffffffffffffffff821415612bb657612bb5612bc1565b5b600182019050919050565b7f4e487b7100000000000000000000000000000000000000000000000000000000600052601160045260246000fd5b7f4e487b7100000000000000000000000000000000000000000000000000000000600052604160045260246000fd5b6000601f19601f8301169050919050565b7f537472696e67733a20686578206c656e67746820696e73756666696369656e74600082015250565b7f547574656c6c75734449443a20766572696669636174696f6e436865636b0000600082015250565b7f4449443a20617272617973206c656e677468206d69736d617463680000000000600082015250565b7f496e697469616c697a61626c653a20636f6e747261637420697320616c72656160008201527f647920696e697469616c697a6564000000000000000000000000000000000000602082015250565b7f416363657373436f6e74726f6c3a206163636f756e7420000000000000000000600082015250565b7f206973206d697373696e6720726f6c6520000000000000000000000000000000600082015250565b7f416363657373436f6e74726f6c3a2063616e206f6e6c792072656e6f756e636560008201527f20726f6c657320666f722073656c660000000000000000000000000000000000602082015250565b612da481612a39565b8114612daf57600080fd5b50565b612dbb81612a4b565b8114612dc657600080fd5b50565b612dd281612a57565b8114612ddd57600080fd5b50565b612de981612a61565b8114612df457600080fd5b50565b612e0081612aad565b8114612e0b57600080fd5b5056fea2646970667358221220bbd98ffe25f19aac6d400b6d2eb37e70ba7f2cd4d6952279c1fcb6a95a27ba9d64736f6c63430008020033",
  "linkReferences": {},
  "deployedLinkReferences": {}
}