{
  "_format": "hh-sol-artifact-1",
  "contractName": "TutellusDID",
  "sourceName": "contracts/TutellusDID.sol",
  "abi": [
    {
      "anonymous": false,
      "inputs": [
        {
          "indexed": true,
          "internalType": "address",
          "name": "destination",
          "type": "address"
        },
        {
          "indexed": false,
          "internalType": "bytes",
          "name": "data",
          "type": "bytes"
        },
        {
          "indexed": false,
          "internalType": "uint256",
          "name": "value",
          "type": "uint256"
        },
        {
          "indexed": false,
          "internalType": "uint256",
          "name": "gas",
          "type": "uint256"
        },
        {
          "indexed": false,
          "internalType": "bytes",
          "name": "result",
          "type": "bytes"
        }
      ],
      "name": "Forward",
      "type": "event"
    },
    {
      "anonymous": false,
      "inputs": [
        {
          "indexed": true,
          "internalType": "bytes32",
          "name": "role",
          "type": "bytes32"
        },
        {
          "indexed": true,
          "internalType": "bytes32",
          "name": "previousAdminRole",
          "type": "bytes32"
        },
        {
          "indexed": true,
          "internalType": "bytes32",
          "name": "newAdminRole",
          "type": "bytes32"
        }
      ],
      "name": "RoleAdminChanged",
      "type": "event"
    },
    {
      "anonymous": false,
      "inputs": [
        {
          "indexed": true,
          "internalType": "bytes32",
          "name": "role",
          "type": "bytes32"
        },
        {
          "indexed": true,
          "internalType": "address",
          "name": "account",
          "type": "address"
        },
        {
          "indexed": true,
          "internalType": "address",
          "name": "sender",
          "type": "address"
        }
      ],
      "name": "RoleGranted",
      "type": "event"
    },
    {
      "anonymous": false,
      "inputs": [
        {
          "indexed": true,
          "internalType": "bytes32",
          "name": "role",
          "type": "bytes32"
        },
        {
          "indexed": true,
          "internalType": "address",
          "name": "account",
          "type": "address"
        },
        {
          "indexed": true,
          "internalType": "address",
          "name": "sender",
          "type": "address"
        }
      ],
      "name": "RoleRevoked",
      "type": "event"
    },
    {
      "stateMutability": "payable",
      "type": "fallback"
    },
    {
      "inputs": [],
      "name": "DEFAULT_ADMIN_ROLE",
      "outputs": [
        {
          "internalType": "bytes32",
          "name": "",
          "type": "bytes32"
        }
      ],
      "stateMutability": "view",
      "type": "function"
    },
    {
      "inputs": [],
      "name": "MASTER_ROLE",
      "outputs": [
        {
          "internalType": "bytes32",
          "name": "",
          "type": "bytes32"
        }
      ],
      "stateMutability": "view",
      "type": "function"
    },
    {
      "inputs": [],
      "name": "OWNER_ROLE",
      "outputs": [
        {
          "internalType": "bytes32",
          "name": "",
          "type": "bytes32"
        }
      ],
      "stateMutability": "view",
      "type": "function"
    },
    {
      "inputs": [],
      "name": "controller",
      "outputs": [
        {
          "internalType": "contract TutellusController",
          "name": "",
          "type": "address"
        }
      ],
      "stateMutability": "view",
      "type": "function"
    },
    {
      "inputs": [
        {
          "internalType": "address",
          "name": "destination_",
          "type": "address"
        },
        {
          "internalType": "bytes",
          "name": "data_",
          "type": "bytes"
        },
        {
          "internalType": "uint256",
          "name": "value_",
          "type": "uint256"
        },
        {
          "internalType": "uint256",
          "name": "gas_",
          "type": "uint256"
        }
      ],
      "name": "forward",
      "outputs": [
        {
          "internalType": "bytes",
          "name": "",
          "type": "bytes"
        }
      ],
      "stateMutability": "nonpayable",
      "type": "function"
    },
    {
      "inputs": [
        {
          "internalType": "bytes32",
          "name": "role",
          "type": "bytes32"
        }
      ],
      "name": "getRoleAdmin",
      "outputs": [
        {
          "internalType": "bytes32",
          "name": "",
          "type": "bytes32"
        }
      ],
      "stateMutability": "view",
      "type": "function"
    },
    {
      "inputs": [
        {
          "internalType": "bytes32",
          "name": "role",
          "type": "bytes32"
        },
        {
          "internalType": "address",
          "name": "account",
          "type": "address"
        }
      ],
      "name": "grantRole",
      "outputs": [],
      "stateMutability": "nonpayable",
      "type": "function"
    },
    {
      "inputs": [
        {
          "internalType": "bytes32",
          "name": "role",
          "type": "bytes32"
        },
        {
          "internalType": "address",
          "name": "account",
          "type": "address"
        }
      ],
      "name": "hasRole",
      "outputs": [
        {
          "internalType": "bool",
          "name": "",
          "type": "bool"
        }
      ],
      "stateMutability": "view",
      "type": "function"
    },
    {
      "inputs": [
        {
          "internalType": "address",
          "name": "controller_",
          "type": "address"
        },
        {
          "internalType": "address",
          "name": "owner",
          "type": "address"
        },
        {
          "internalType": "address",
          "name": "master",
          "type": "address"
        }
      ],
      "name": "initialize",
      "outputs": [],
      "stateMutability": "nonpayable",
      "type": "function"
    },
    {
      "inputs": [
        {
          "internalType": "address",
          "name": "",
          "type": "address"
        },
        {
          "internalType": "address",
          "name": "",
          "type": "address"
        },
        {
          "internalType": "uint256",
          "name": "",
          "type": "uint256"
        },
        {
          "internalType": "bytes",
          "name": "",
          "type": "bytes"
        }
      ],
      "name": "onERC721Received",
      "outputs": [
        {
          "internalType": "bytes4",
          "name": "",
          "type": "bytes4"
        }
      ],
      "stateMutability": "nonpayable",
      "type": "function"
    },
    {
      "inputs": [],
      "name": "onlyVerifiedCalls",
      "outputs": [
        {
          "internalType": "bool",
          "name": "",
          "type": "bool"
        }
      ],
      "stateMutability": "view",
      "type": "function"
    },
    {
      "inputs": [
        {
          "internalType": "bytes32",
          "name": "role",
          "type": "bytes32"
        },
        {
          "internalType": "address",
          "name": "account",
          "type": "address"
        }
      ],
      "name": "renounceRole",
      "outputs": [],
      "stateMutability": "nonpayable",
      "type": "function"
    },
    {
      "inputs": [
        {
          "internalType": "bytes32",
          "name": "role",
          "type": "bytes32"
        },
        {
          "internalType": "address",
          "name": "account",
          "type": "address"
        }
      ],
      "name": "revokeRole",
      "outputs": [],
      "stateMutability": "nonpayable",
      "type": "function"
    },
    {
      "inputs": [
        {
          "internalType": "bytes4",
          "name": "interfaceId",
          "type": "bytes4"
        }
      ],
      "name": "supportsInterface",
      "outputs": [
        {
          "internalType": "bool",
          "name": "",
          "type": "bool"
        }
      ],
      "stateMutability": "view",
      "type": "function"
    },
    {
      "inputs": [
        {
          "internalType": "address",
          "name": "destination_",
          "type": "address"
        }
      ],
      "name": "verificationCheck",
      "outputs": [
        {
          "internalType": "bool",
          "name": "",
          "type": "bool"
        }
      ],
      "stateMutability": "view",
      "type": "function"
    },
    {
      "inputs": [],
      "name": "version",
      "outputs": [
        {
          "internalType": "string",
          "name": "",
          "type": "string"
        }
      ],
      "stateMutability": "pure",
      "type": "function"
    },
    {
      "stateMutability": "payable",
      "type": "receive"
    }
  ],
  "bytecode": "0x608060405234801561001057600080fd5b506124e1806100206000396000f3fe6080604052600436106100f75760003560e01c806391d148541161008a578063d547741f11610059578063d547741f1461036a578063dc22486314610393578063e58378bb146103be578063f77c4791146103e9576100fe565b806391d148541461029c578063a217fddf146102d9578063a756bb2614610304578063c0c53b8b14610341576100fe565b80632f2ff15d116100c65780632f2ff15d146101e257806336568abe1461020b5780634c4cecfb1461023457806354fd4d5014610271576100fe565b806301ffc9a714610100578063150b7a021461013d57806323acd14e1461017a578063248a9ca3146101a5576100fe565b366100fe57005b005b34801561010c57600080fd5b5061012760048036038101906101229190611b6a565b610414565b6040516101349190611e40565b60405180910390f35b34801561014957600080fd5b50610164600480360381019061015f91906119e6565b61048e565b6040516101719190611e76565b60405180910390f35b34801561018657600080fd5b5061018f6104a2565b60405161019c9190611e40565b60405180910390f35b3480156101b157600080fd5b506101cc60048036038101906101c79190611b05565b6104b5565b6040516101d99190611e5b565b60405180910390f35b3480156101ee57600080fd5b5061020960048036038101906102049190611b2e565b6104d5565b005b34801561021757600080fd5b50610232600480360381019061022d9190611b2e565b6104fe565b005b34801561024057600080fd5b5061025b6004803603810190610256919061196e565b610581565b6040516102689190611e40565b60405180910390f35b34801561027d57600080fd5b50610286610653565b6040516102939190611f21565b60405180910390f35b3480156102a857600080fd5b506102c360048036038101906102be9190611b2e565b610690565b6040516102d09190611e40565b60405180910390f35b3480156102e557600080fd5b506102ee6106fb565b6040516102fb9190611e5b565b60405180910390f35b34801561031057600080fd5b5061032b60048036038101906103269190611a61565b610702565b6040516103389190611e91565b60405180910390f35b34801561034d57600080fd5b5061036860048036038101906103639190611997565b610774565b005b34801561037657600080fd5b50610391600480360381019061038c9190611b2e565b61086b565b005b34801561039f57600080fd5b506103a8610894565b6040516103b59190611e5b565b60405180910390f35b3480156103ca57600080fd5b506103d36108b8565b6040516103e09190611e5b565b60405180910390f35b3480156103f557600080fd5b506103fe6108dc565b60405161040b9190611f06565b60405180910390f35b60007f7965db0b000000000000000000000000000000000000000000000000000000007bffffffffffffffffffffffffffffffffffffffffffffffffffffffff1916827bffffffffffffffffffffffffffffffffffffffffffffffffffffffff19161480610487575061048682610902565b5b9050919050565b600063150b7a0260e01b9050949350505050565b60c960149054906101000a900460ff1681565b600060656000838152602001908152602001600020600101549050919050565b6104de826104b5565b6104ef816104ea61096c565b610974565b6104f98383610a11565b505050565b61050661096c565b73ffffffffffffffffffffffffffffffffffffffff168173ffffffffffffffffffffffffffffffffffffffff1614610573576040517f08c379a000000000000000000000000000000000000000000000000000000000815260040161056a90611fa3565b60405180910390fd5b61057d8282610af2565b5050565b600060c960149054906101000a900460ff166105a0576001905061064e565b60c960009054906101000a900473ffffffffffffffffffffffffffffffffffffffff1673ffffffffffffffffffffffffffffffffffffffff1663b9209e33836040518263ffffffff1660e01b81526004016105fb9190611e25565b60206040518083038186803b15801561061357600080fd5b505afa158015610627573d6000803e3d6000fd5b505050506040513d601f19601f8201168201806040525081019061064b9190611adc565b90505b919050565b60606040518060400160405280600581526020017f302e302e31000000000000000000000000000000000000000000000000000000815250905090565b60006065600084815260200190815260200160002060000160008373ffffffffffffffffffffffffffffffffffffffff1673ffffffffffffffffffffffffffffffffffffffff16815260200190815260200160002060009054906101000a900460ff16905092915050565b6000801b81565b6060600061071286868686610bd4565b90508573ffffffffffffffffffffffffffffffffffffffff167fab86e76c1a7aa07694b6e4b3300244a24681243acac04b29df33642bab795499868686856040516107609493929190611eb3565b60405180910390a280915050949350505050565b600060019054906101000a900460ff168061079a575060008054906101000a900460ff16155b6107d9576040517f08c379a00000000000000000000000000000000000000000000000000000000081526004016107d090611f83565b60405180910390fd5b60008060019054906101000a900460ff161590508015610829576001600060016101000a81548160ff02191690831515021790555060016000806101000a81548160ff0219169083151502179055505b610831610d01565b610839610df2565b610844848484610ed3565b80156108655760008060016101000a81548160ff0219169083151502179055505b50505050565b610874826104b5565b6108858161088061096c565b610974565b61088f8383610af2565b505050565b7f8b8c0776df2c2176edf6f82391c35ea4891146d7a976ee36fd07f1a6fb4ead4c81565b7fb19546dff01e856fb3f010c267a7b1c60363cf8a4664e21cc89c26224620214e81565b60c960009054906101000a900473ffffffffffffffffffffffffffffffffffffffff1681565b60007f01ffc9a7000000000000000000000000000000000000000000000000000000007bffffffffffffffffffffffffffffffffffffffffffffffffffffffff1916827bffffffffffffffffffffffffffffffffffffffffffffffffffffffff1916149050919050565b600033905090565b61097e8282610690565b610a0d576109a38173ffffffffffffffffffffffffffffffffffffffff166014611043565b6109b18360001c6020611043565b6040516020016109c2929190611deb565b6040516020818303038152906040526040517f08c379a0000000000000000000000000000000000000000000000000000000008152600401610a049190611f21565b60405180910390fd5b5050565b610a1b8282610690565b610aee5760016065600084815260200190815260200160002060000160008373ffffffffffffffffffffffffffffffffffffffff1673ffffffffffffffffffffffffffffffffffffffff16815260200190815260200160002060006101000a81548160ff021916908315150217905550610a9361096c565b73ffffffffffffffffffffffffffffffffffffffff168173ffffffffffffffffffffffffffffffffffffffff16837f2f8788117e7eff1d82e926ec794901d17c78024a50270940304540a733656f0d60405160405180910390a45b5050565b610afc8282610690565b15610bd05760006065600084815260200190815260200160002060000160008373ffffffffffffffffffffffffffffffffffffffff1673ffffffffffffffffffffffffffffffffffffffff16815260200190815260200160002060006101000a81548160ff021916908315150217905550610b7561096c565b73ffffffffffffffffffffffffffffffffffffffff168173ffffffffffffffffffffffffffffffffffffffff16837ff6391f5c32d9c69d2a47ea670b442974b53935d1edc7fd64eb21e047a839171b60405160405180910390a45b5050565b606084610bdf61096c565b610be882610581565b610c27576040517f08c379a0000000000000000000000000000000000000000000000000000000008152600401610c1e90611f63565b60405180910390fd5b6000808873ffffffffffffffffffffffffffffffffffffffff168787908a604051610c529190611dd4565b600060405180830381858888f193505050503d8060008114610c90576040519150601f19603f3d011682016040523d82523d6000602084013e610c95565b606091505b509150915081610cf2576000610caa8261133d565b9050828190610cef576040517f08c379a0000000000000000000000000000000000000000000000000000000008152600401610ce69190611f21565b60405180910390fd5b50505b80945050505050949350505050565b600060019054906101000a900460ff1680610d27575060008054906101000a900460ff16155b610d66576040517f08c379a0000000000000000000000000000000000000000000000000000000008152600401610d5d90611f83565b60405180910390fd5b60008060019054906101000a900460ff161590508015610db6576001600060016101000a81548160ff02191690831515021790555060016000806101000a81548160ff0219169083151502179055505b610dbe6113a8565b610dc6611481565b610dce61155a565b8015610def5760008060016101000a81548160ff0219169083151502179055505b50565b600060019054906101000a900460ff1680610e18575060008054906101000a900460ff16155b610e57576040517f08c379a0000000000000000000000000000000000000000000000000000000008152600401610e4e90611f83565b60405180910390fd5b60008060019054906101000a900460ff161590508015610ea7576001600060016101000a81548160ff02191690831515021790555060016000806101000a81548160ff0219169083151502179055505b610eaf611633565b8015610ed05760008060016101000a81548160ff0219169083151502179055505b50565b600060019054906101000a900460ff1680610ef9575060008054906101000a900460ff16155b610f38576040517f08c379a0000000000000000000000000000000000000000000000000000000008152600401610f2f90611f83565b60405180910390fd5b60008060019054906101000a900460ff161590508015610f88576001600060016101000a81548160ff02191690831515021790555060016000806101000a81548160ff0219169083151502179055505b610f956000801b8361170c565b610fbf7fb19546dff01e856fb3f010c267a7b1c60363cf8a4664e21cc89c26224620214e8461170c565b610fe97fb19546dff01e856fb3f010c267a7b1c60363cf8a4664e21cc89c26224620214e8361170c565b6110137f8b8c0776df2c2176edf6f82391c35ea4891146d7a976ee36fd07f1a6fb4ead4c8361170c565b61101c8461171a565b801561103d5760008060016101000a81548160ff0219169083151502179055505b50505050565b60606000600283600261105691906120ee565b6110609190612098565b67ffffffffffffffff81111561109f577f4e487b7100000000000000000000000000000000000000000000000000000000600052604160045260246000fd5b6040519080825280601f01601f1916602001820160405280156110d15781602001600182028036833780820191505090505b5090507f30000000000000000000000000000000000000000000000000000000000000008160008151811061112f577f4e487b7100000000000000000000000000000000000000000000000000000000600052603260045260246000fd5b60200101907effffffffffffffffffffffffffffffffffffffffffffffffffffffffffffff1916908160001a9053507f7800000000000000000000000000000000000000000000000000000000000000816001815181106111b9577f4e487b7100000000000000000000000000000000000000000000000000000000600052603260045260246000fd5b60200101907effffffffffffffffffffffffffffffffffffffffffffffffffffffffffffff1916908160001a905350600060018460026111f991906120ee565b6112039190612098565b90505b60018111156112ef577f3031323334353637383961626364656600000000000000000000000000000000600f86166010811061126b577f4e487b7100000000000000000000000000000000000000000000000000000000600052603260045260246000fd5b1a60f81b8282815181106112a8577f4e487b7100000000000000000000000000000000000000000000000000000000600052603260045260246000fd5b60200101907effffffffffffffffffffffffffffffffffffffffffffffffffffffffffffff1916908160001a905350600485901c9450806112e89061222c565b9050611206565b5060008414611333576040517f08c379a000000000000000000000000000000000000000000000000000000000815260040161132a90611f43565b60405180910390fd5b8091505092915050565b6060604482511015611386576040518060400160405280601d81526020017f5472616e73616374696f6e2072657665727465642073696c656e746c7900000081525090506113a3565b600482019150818060200190518101906113a09190611b93565b90505b919050565b600060019054906101000a900460ff16806113ce575060008054906101000a900460ff16155b61140d576040517f08c379a000000000000000000000000000000000000000000000000000000000815260040161140490611f83565b60405180910390fd5b60008060019054906101000a900460ff16159050801561145d576001600060016101000a81548160ff02191690831515021790555060016000806101000a81548160ff0219169083151502179055505b801561147e5760008060016101000a81548160ff0219169083151502179055505b50565b600060019054906101000a900460ff16806114a7575060008054906101000a900460ff16155b6114e6576040517f08c379a00000000000000000000000000000000000000000000000000000000081526004016114dd90611f83565b60405180910390fd5b60008060019054906101000a900460ff161590508015611536576001600060016101000a81548160ff02191690831515021790555060016000806101000a81548160ff0219169083151502179055505b80156115575760008060016101000a81548160ff0219169083151502179055505b50565b600060019054906101000a900460ff1680611580575060008054906101000a900460ff16155b6115bf576040517f08c379a00000000000000000000000000000000000000000000000000000000081526004016115b690611f83565b60405180910390fd5b60008060019054906101000a900460ff16159050801561160f576001600060016101000a81548160ff02191690831515021790555060016000806101000a81548160ff0219169083151502179055505b80156116305760008060016101000a81548160ff0219169083151502179055505b50565b600060019054906101000a900460ff1680611659575060008054906101000a900460ff16155b611698576040517f08c379a000000000000000000000000000000000000000000000000000000000815260040161168f90611f83565b60405180910390fd5b60008060019054906101000a900460ff1615905080156116e8576001600060016101000a81548160ff02191690831515021790555060016000806101000a81548160ff0219169083151502179055505b80156117095760008060016101000a81548160ff0219169083151502179055505b50565b6117168282610a11565b5050565b600060019054906101000a900460ff1680611740575060008054906101000a900460ff16155b61177f576040517f08c379a000000000000000000000000000000000000000000000000000000000815260040161177690611f83565b60405180910390fd5b60008060019054906101000a900460ff1615905080156117cf576001600060016101000a81548160ff02191690831515021790555060016000806101000a81548160ff0219169083151502179055505b8160c960006101000a81548173ffffffffffffffffffffffffffffffffffffffff021916908373ffffffffffffffffffffffffffffffffffffffff16021790555080156118315760008060016101000a81548160ff0219169083151502179055505b5050565b600061184861184384611fe8565b611fc3565b90508281526020810184848401111561186057600080fd5b61186b8482856121ea565b509392505050565b600061188661188184612019565b611fc3565b90508281526020810184848401111561189e57600080fd5b6118a98482856121f9565b509392505050565b6000813590506118c081612438565b92915050565b6000815190506118d58161244f565b92915050565b6000813590506118ea81612466565b92915050565b6000813590506118ff8161247d565b92915050565b600082601f83011261191657600080fd5b8135611926848260208601611835565b91505092915050565b600082601f83011261194057600080fd5b8151611950848260208601611873565b91505092915050565b60008135905061196881612494565b92915050565b60006020828403121561198057600080fd5b600061198e848285016118b1565b91505092915050565b6000806000606084860312156119ac57600080fd5b60006119ba868287016118b1565b93505060206119cb868287016118b1565b92505060406119dc868287016118b1565b9150509250925092565b600080600080608085870312156119fc57600080fd5b6000611a0a878288016118b1565b9450506020611a1b878288016118b1565b9350506040611a2c87828801611959565b925050606085013567ffffffffffffffff811115611a4957600080fd5b611a5587828801611905565b91505092959194509250565b60008060008060808587031215611a7757600080fd5b6000611a85878288016118b1565b945050602085013567ffffffffffffffff811115611aa257600080fd5b611aae87828801611905565b9350506040611abf87828801611959565b9250506060611ad087828801611959565b91505092959194509250565b600060208284031215611aee57600080fd5b6000611afc848285016118c6565b91505092915050565b600060208284031215611b1757600080fd5b6000611b25848285016118db565b91505092915050565b60008060408385031215611b4157600080fd5b6000611b4f858286016118db565b9250506020611b60858286016118b1565b9150509250929050565b600060208284031215611b7c57600080fd5b6000611b8a848285016118f0565b91505092915050565b600060208284031215611ba557600080fd5b600082015167ffffffffffffffff811115611bbf57600080fd5b611bcb8482850161192f565b91505092915050565b611bdd81612148565b82525050565b611bec8161215a565b82525050565b611bfb81612166565b82525050565b611c0a81612170565b82525050565b6000611c1b8261204a565b611c258185612060565b9350611c358185602086016121f9565b611c3e816122e5565b840191505092915050565b6000611c548261204a565b611c5e8185612071565b9350611c6e8185602086016121f9565b80840191505092915050565b611c83816121c6565b82525050565b6000611c9482612055565b611c9e818561207c565b9350611cae8185602086016121f9565b611cb7816122e5565b840191505092915050565b6000611ccd82612055565b611cd7818561208d565b9350611ce78185602086016121f9565b80840191505092915050565b6000611d0060208361207c565b9150611d0b826122f6565b602082019050919050565b6000611d23601e8361207c565b9150611d2e8261231f565b602082019050919050565b6000611d46602e8361207c565b9150611d5182612348565b604082019050919050565b6000611d6960178361208d565b9150611d7482612397565b601782019050919050565b6000611d8c60118361208d565b9150611d97826123c0565b601182019050919050565b6000611daf602f8361207c565b9150611dba826123e9565b604082019050919050565b611dce816121bc565b82525050565b6000611de08284611c49565b915081905092915050565b6000611df682611d5c565b9150611e028285611cc2565b9150611e0d82611d7f565b9150611e198284611cc2565b91508190509392505050565b6000602082019050611e3a6000830184611bd4565b92915050565b6000602082019050611e556000830184611be3565b92915050565b6000602082019050611e706000830184611bf2565b92915050565b6000602082019050611e8b6000830184611c01565b92915050565b60006020820190508181036000830152611eab8184611c10565b905092915050565b60006080820190508181036000830152611ecd8187611c10565b9050611edc6020830186611dc5565b611ee96040830185611dc5565b8181036060830152611efb8184611c10565b905095945050505050565b6000602082019050611f1b6000830184611c7a565b92915050565b60006020820190508181036000830152611f3b8184611c89565b905092915050565b60006020820190508181036000830152611f5c81611cf3565b9050919050565b60006020820190508181036000830152611f7c81611d16565b9050919050565b60006020820190508181036000830152611f9c81611d39565b9050919050565b60006020820190508181036000830152611fbc81611da2565b9050919050565b6000611fcd611fde565b9050611fd98282612256565b919050565b6000604051905090565b600067ffffffffffffffff821115612003576120026122b6565b5b61200c826122e5565b9050602081019050919050565b600067ffffffffffffffff821115612034576120336122b6565b5b61203d826122e5565b9050602081019050919050565b600081519050919050565b600081519050919050565b600082825260208201905092915050565b600081905092915050565b600082825260208201905092915050565b600081905092915050565b60006120a3826121bc565b91506120ae836121bc565b9250827fffffffffffffffffffffffffffffffffffffffffffffffffffffffffffffffff038211156120e3576120e2612287565b5b828201905092915050565b60006120f9826121bc565b9150612104836121bc565b9250817fffffffffffffffffffffffffffffffffffffffffffffffffffffffffffffffff048311821515161561213d5761213c612287565b5b828202905092915050565b60006121538261219c565b9050919050565b60008115159050919050565b6000819050919050565b60007fffffffff0000000000000000000000000000000000000000000000000000000082169050919050565b600073ffffffffffffffffffffffffffffffffffffffff82169050919050565b6000819050919050565b60006121d1826121d8565b9050919050565b60006121e38261219c565b9050919050565b82818337600083830152505050565b60005b838110156122175780820151818401526020810190506121fc565b83811115612226576000848401525b50505050565b6000612237826121bc565b9150600082141561224b5761224a612287565b5b600182039050919050565b61225f826122e5565b810181811067ffffffffffffffff8211171561227e5761227d6122b6565b5b80604052505050565b7f4e487b7100000000000000000000000000000000000000000000000000000000600052601160045260246000fd5b7f4e487b7100000000000000000000000000000000000000000000000000000000600052604160045260246000fd5b6000601f19601f8301169050919050565b7f537472696e67733a20686578206c656e67746820696e73756666696369656e74600082015250565b7f547574656c6c75734449443a20766572696669636174696f6e436865636b0000600082015250565b7f496e697469616c697a61626c653a20636f6e747261637420697320616c72656160008201527f647920696e697469616c697a6564000000000000000000000000000000000000602082015250565b7f416363657373436f6e74726f6c3a206163636f756e7420000000000000000000600082015250565b7f206973206d697373696e6720726f6c6520000000000000000000000000000000600082015250565b7f416363657373436f6e74726f6c3a2063616e206f6e6c792072656e6f756e636560008201527f20726f6c657320666f722073656c660000000000000000000000000000000000602082015250565b61244181612148565b811461244c57600080fd5b50565b6124588161215a565b811461246357600080fd5b50565b61246f81612166565b811461247a57600080fd5b50565b61248681612170565b811461249157600080fd5b50565b61249d816121bc565b81146124a857600080fd5b5056fea26469706673582212208ce923896db3000c4a6b3c4a6fc43086013d335b1e8dbc97a16f146a134f55c364736f6c63430008020033",
  "linkReferences": {},
  "deployedLinkReferences": {}
}