{
  "_format": "hh-sol-artifact-1",
  "contractName": "TutellusDIDRegistry",
  "sourceName": "contracts/TutellusDIDRegistry.sol",
  "abi": [
    {
      "inputs": [
        {
          "internalType": "address",
          "name": "controller_",
          "type": "address"
        }
      ],
      "stateMutability": "nonpayable",
      "type": "constructor"
    },
    {
      "inputs": [],
      "name": "TUT_DID_FACTORY",
      "outputs": [
        {
          "internalType": "bytes32",
          "name": "",
          "type": "bytes32"
        }
      ],
      "stateMutability": "view",
      "type": "function"
    },
    {
      "inputs": [
        {
          "internalType": "bytes32",
          "name": "",
          "type": "bytes32"
        }
      ],
      "name": "didByHash",
      "outputs": [
        {
          "internalType": "address",
          "name": "",
          "type": "address"
        }
      ],
      "stateMutability": "view",
      "type": "function"
    },
    {
      "inputs": [
        {
          "internalType": "address",
          "name": "",
          "type": "address"
        }
      ],
      "name": "hashByDid",
      "outputs": [
        {
          "internalType": "bytes32",
          "name": "",
          "type": "bytes32"
        }
      ],
      "stateMutability": "view",
      "type": "function"
    },
    {
      "inputs": [
        {
          "internalType": "address",
          "name": "did_",
          "type": "address"
        }
      ],
      "name": "isEmptyDID",
      "outputs": [
        {
          "internalType": "bool",
          "name": "",
          "type": "bool"
        }
      ],
      "stateMutability": "view",
      "type": "function"
    },
    {
      "inputs": [
        {
          "internalType": "bytes32",
          "name": "hash_",
          "type": "bytes32"
        }
      ],
      "name": "isEmptyHash",
      "outputs": [
        {
          "internalType": "bool",
          "name": "",
          "type": "bool"
        }
      ],
      "stateMutability": "view",
      "type": "function"
    },
    {
      "inputs": [
        {
          "internalType": "bytes32",
          "name": "hash_",
          "type": "bytes32"
        },
        {
          "internalType": "address",
          "name": "did_",
          "type": "address"
        }
      ],
      "name": "register",
      "outputs": [],
      "stateMutability": "nonpayable",
      "type": "function"
    }
  ],
  "bytecode": "0x608060405234801561001057600080fd5b506040516109023803806109028339818101604052810190610032919061008d565b806000806101000a81548173ffffffffffffffffffffffffffffffffffffffff021916908373ffffffffffffffffffffffffffffffffffffffff160217905550506100ff565b600081519050610087816100e8565b92915050565b60006020828403121561009f57600080fd5b60006100ad84828501610078565b91505092915050565b60006100c1826100c8565b9050919050565b600073ffffffffffffffffffffffffffffffffffffffff82169050919050565b6100f1816100b6565b81146100fc57600080fd5b50565b6107f48061010e6000396000f3fe608060405234801561001057600080fd5b50600436106100625760003560e01c806313d01a191461006757806347d495d1146100975780637c774fb3146100c7578063c2228c50146100f7578063d22057a914610127578063e1b9f95014610143575b600080fd5b610081600480360381019061007c9190610504565b610161565b60405161008e9190610664565b60405180910390f35b6100b160048036038101906100ac9190610556565b610179565b6040516100be9190610649565b60405180910390f35b6100e160048036038101906100dc9190610504565b6101e4565b6040516100ee9190610649565b60405180910390f35b610111600480360381019061010c9190610556565b610232565b60405161011e919061062e565b60405180910390f35b610141600480360381019061013c919061057f565b610265565b005b61014b6103a0565b6040516101589190610664565b60405180910390f35b60026020528060005260406000206000915090505481565b60008073ffffffffffffffffffffffffffffffffffffffff166001600084815260200190815260200160002060009054906101000a900473ffffffffffffffffffffffffffffffffffffffff1673ffffffffffffffffffffffffffffffffffffffff16149050919050565b60008060001b600260008473ffffffffffffffffffffffffffffffffffffffff1673ffffffffffffffffffffffffffffffffffffffff16815260200190815260200160002054149050919050565b60016020528060005260406000206000915054906101000a900473ffffffffffffffffffffffffffffffffffffffff1681565b61026e336103c4565b6102ad576040517f08c379a00000000000000000000000000000000000000000000000000000000081526004016102a49061067f565b60405180910390fd5b6102b682610179565b80156102c757506102c6816101e4565b5b610306576040517f08c379a00000000000000000000000000000000000000000000000000000000081526004016102fd9061069f565b60405180910390fd5b806001600084815260200190815260200160002060006101000a81548173ffffffffffffffffffffffffffffffffffffffff021916908373ffffffffffffffffffffffffffffffffffffffff16021790555081600260008373ffffffffffffffffffffffffffffffffffffffff1673ffffffffffffffffffffffffffffffffffffffff168152602001908152602001600020819055505050565b7fd56d856eab5435a20b8cae5e20435829a78e366392dd29bcf1b46965d2b2051a81565b60008060009054906101000a900473ffffffffffffffffffffffffffffffffffffffff1673ffffffffffffffffffffffffffffffffffffffff166321f8a7217fd56d856eab5435a20b8cae5e20435829a78e366392dd29bcf1b46965d2b2051a6040518263ffffffff1660e01b81526004016104409190610664565b60206040518083038186803b15801561045857600080fd5b505afa15801561046c573d6000803e3d6000fd5b505050506040513d601f19601f82011682018060405250810190610490919061052d565b73ffffffffffffffffffffffffffffffffffffffff168273ffffffffffffffffffffffffffffffffffffffff16149050919050565b6000813590506104d481610790565b92915050565b6000815190506104e981610790565b92915050565b6000813590506104fe816107a7565b92915050565b60006020828403121561051657600080fd5b6000610524848285016104c5565b91505092915050565b60006020828403121561053f57600080fd5b600061054d848285016104da565b91505092915050565b60006020828403121561056857600080fd5b6000610576848285016104ef565b91505092915050565b6000806040838503121561059257600080fd5b60006105a0858286016104ef565b92505060206105b1858286016104c5565b9150509250929050565b6105c4816106d0565b82525050565b6105d3816106e2565b82525050565b6105e2816106ee565b82525050565b60006105f56023836106bf565b915061060082610718565b604082019050919050565b6000610618601d836106bf565b915061062382610767565b602082019050919050565b600060208201905061064360008301846105bb565b92915050565b600060208201905061065e60008301846105ca565b92915050565b600060208201905061067960008301846105d9565b92915050565b60006020820190508181036000830152610698816105e8565b9050919050565b600060208201905081810360008301526106b88161060b565b9050919050565b600082825260208201905092915050565b60006106db826106f8565b9050919050565b60008115159050919050565b6000819050919050565b600073ffffffffffffffffffffffffffffffffffffffff82169050919050565b7f547574656c6c757344494452656769737472793a206e6f20444944204661637460008201527f6f72790000000000000000000000000000000000000000000000000000000000602082015250565b7f547574656c6c757344494452656769737472793a204e6f20656d707479000000600082015250565b610799816106d0565b81146107a457600080fd5b50565b6107b0816106ee565b81146107bb57600080fd5b5056fea2646970667358221220d09198ce04f142d00fefbedf77297715bd26ecf222fe174e9bd8294d2034fe3764736f6c63430008020033",
  "linkReferences": {},
  "deployedLinkReferences": {}
}