{
  "_format": "hh-sol-artifact-1",
  "contractName": "Token",
  "sourceName": "contracts/utils/Token.sol",
  "abi": [
    {
      "inputs": [
        {
          "internalType": "string",
          "name": "name",
          "type": "string"
        },
        {
          "internalType": "string",
          "name": "symbol",
          "type": "string"
        },
        {
          "internalType": "uint256",
          "name": "cap",
          "type": "uint256"
        }
      ],
      "stateMutability": "nonpayable",
      "type": "constructor"
    },
    {
      "anonymous": false,
      "inputs": [
        {
          "indexed": true,
          "internalType": "address",
          "name": "owner",
          "type": "address"
        },
        {
          "indexed": true,
          "internalType": "address",
          "name": "spender",
          "type": "address"
        },
        {
          "indexed": false,
          "internalType": "uint256",
          "name": "value",
          "type": "uint256"
        }
      ],
      "name": "Approval",
      "type": "event"
    },
    {
      "anonymous": false,
      "inputs": [
        {
          "indexed": false,
          "internalType": "address",
          "name": "account",
          "type": "address"
        },
        {
          "indexed": false,
          "internalType": "uint256",
          "name": "amount",
          "type": "uint256"
        }
      ],
      "name": "Burn",
      "type": "event"
    },
    {
      "anonymous": false,
      "inputs": [
        {
          "indexed": false,
          "internalType": "address",
          "name": "account",
          "type": "address"
        },
        {
          "indexed": false,
          "internalType": "uint256",
          "name": "amount",
          "type": "uint256"
        }
      ],
      "name": "Mint",
      "type": "event"
    },
    {
      "anonymous": false,
      "inputs": [
        {
          "indexed": false,
          "internalType": "address",
          "name": "account",
          "type": "address"
        }
      ],
      "name": "Paused",
      "type": "event"
    },
    {
      "anonymous": false,
      "inputs": [
        {
          "indexed": true,
          "internalType": "bytes32",
          "name": "role",
          "type": "bytes32"
        },
        {
          "indexed": true,
          "internalType": "bytes32",
          "name": "previousAdminRole",
          "type": "bytes32"
        },
        {
          "indexed": true,
          "internalType": "bytes32",
          "name": "newAdminRole",
          "type": "bytes32"
        }
      ],
      "name": "RoleAdminChanged",
      "type": "event"
    },
    {
      "anonymous": false,
      "inputs": [
        {
          "indexed": true,
          "internalType": "bytes32",
          "name": "role",
          "type": "bytes32"
        },
        {
          "indexed": true,
          "internalType": "address",
          "name": "account",
          "type": "address"
        },
        {
          "indexed": true,
          "internalType": "address",
          "name": "sender",
          "type": "address"
        }
      ],
      "name": "RoleGranted",
      "type": "event"
    },
    {
      "anonymous": false,
      "inputs": [
        {
          "indexed": true,
          "internalType": "bytes32",
          "name": "role",
          "type": "bytes32"
        },
        {
          "indexed": true,
          "internalType": "address",
          "name": "account",
          "type": "address"
        },
        {
          "indexed": true,
          "internalType": "address",
          "name": "sender",
          "type": "address"
        }
      ],
      "name": "RoleRevoked",
      "type": "event"
    },
    {
      "anonymous": false,
      "inputs": [
        {
          "indexed": true,
          "internalType": "address",
          "name": "from",
          "type": "address"
        },
        {
          "indexed": true,
          "internalType": "address",
          "name": "to",
          "type": "address"
        },
        {
          "indexed": false,
          "internalType": "uint256",
          "name": "value",
          "type": "uint256"
        }
      ],
      "name": "Transfer",
      "type": "event"
    },
    {
      "anonymous": false,
      "inputs": [
        {
          "indexed": false,
          "internalType": "address",
          "name": "account",
          "type": "address"
        }
      ],
      "name": "Unpaused",
      "type": "event"
    },
    {
      "inputs": [],
      "name": "DEFAULT_ADMIN_ROLE",
      "outputs": [
        {
          "internalType": "bytes32",
          "name": "",
          "type": "bytes32"
        }
      ],
      "stateMutability": "view",
      "type": "function"
    },
    {
      "inputs": [
        {
          "internalType": "address",
          "name": "owner",
          "type": "address"
        },
        {
          "internalType": "address",
          "name": "spender",
          "type": "address"
        }
      ],
      "name": "allowance",
      "outputs": [
        {
          "internalType": "uint256",
          "name": "",
          "type": "uint256"
        }
      ],
      "stateMutability": "view",
      "type": "function"
    },
    {
      "inputs": [
        {
          "internalType": "address",
          "name": "spender",
          "type": "address"
        },
        {
          "internalType": "uint256",
          "name": "amount",
          "type": "uint256"
        }
      ],
      "name": "approve",
      "outputs": [
        {
          "internalType": "bool",
          "name": "",
          "type": "bool"
        }
      ],
      "stateMutability": "nonpayable",
      "type": "function"
    },
    {
      "inputs": [
        {
          "internalType": "address",
          "name": "account",
          "type": "address"
        }
      ],
      "name": "balanceOf",
      "outputs": [
        {
          "internalType": "uint256",
          "name": "",
          "type": "uint256"
        }
      ],
      "stateMutability": "view",
      "type": "function"
    },
    {
      "inputs": [
        {
          "internalType": "uint256",
          "name": "amount",
          "type": "uint256"
        }
      ],
      "name": "burn",
      "outputs": [],
      "stateMutability": "nonpayable",
      "type": "function"
    },
    {
      "inputs": [],
      "name": "burned",
      "outputs": [
        {
          "internalType": "uint256",
          "name": "",
          "type": "uint256"
        }
      ],
      "stateMutability": "view",
      "type": "function"
    },
    {
      "inputs": [],
      "name": "cap",
      "outputs": [
        {
          "internalType": "uint256",
          "name": "",
          "type": "uint256"
        }
      ],
      "stateMutability": "view",
      "type": "function"
    },
    {
      "inputs": [],
      "name": "decimals",
      "outputs": [
        {
          "internalType": "uint8",
          "name": "",
          "type": "uint8"
        }
      ],
      "stateMutability": "view",
      "type": "function"
    },
    {
      "inputs": [
        {
          "internalType": "address",
          "name": "spender",
          "type": "address"
        },
        {
          "internalType": "uint256",
          "name": "subtractedValue",
          "type": "uint256"
        }
      ],
      "name": "decreaseAllowance",
      "outputs": [
        {
          "internalType": "bool",
          "name": "",
          "type": "bool"
        }
      ],
      "stateMutability": "nonpayable",
      "type": "function"
    },
    {
      "inputs": [
        {
          "internalType": "bytes32",
          "name": "role",
          "type": "bytes32"
        }
      ],
      "name": "getRoleAdmin",
      "outputs": [
        {
          "internalType": "bytes32",
          "name": "",
          "type": "bytes32"
        }
      ],
      "stateMutability": "view",
      "type": "function"
    },
    {
      "inputs": [
        {
          "internalType": "address",
          "name": "account",
          "type": "address"
        }
      ],
      "name": "grantPauserRole",
      "outputs": [],
      "stateMutability": "nonpayable",
      "type": "function"
    },
    {
      "inputs": [
        {
          "internalType": "bytes32",
          "name": "role",
          "type": "bytes32"
        },
        {
          "internalType": "address",
          "name": "account",
          "type": "address"
        }
      ],
      "name": "grantRole",
      "outputs": [],
      "stateMutability": "nonpayable",
      "type": "function"
    },
    {
      "inputs": [
        {
          "internalType": "bytes32",
          "name": "role",
          "type": "bytes32"
        },
        {
          "internalType": "address",
          "name": "account",
          "type": "address"
        }
      ],
      "name": "hasRole",
      "outputs": [
        {
          "internalType": "bool",
          "name": "",
          "type": "bool"
        }
      ],
      "stateMutability": "view",
      "type": "function"
    },
    {
      "inputs": [
        {
          "internalType": "address",
          "name": "spender",
          "type": "address"
        },
        {
          "internalType": "uint256",
          "name": "addedValue",
          "type": "uint256"
        }
      ],
      "name": "increaseAllowance",
      "outputs": [
        {
          "internalType": "bool",
          "name": "",
          "type": "bool"
        }
      ],
      "stateMutability": "nonpayable",
      "type": "function"
    },
    {
      "inputs": [
        {
          "internalType": "address",
          "name": "account",
          "type": "address"
        },
        {
          "internalType": "uint256",
          "name": "amount",
          "type": "uint256"
        }
      ],
      "name": "mint",
      "outputs": [],
      "stateMutability": "nonpayable",
      "type": "function"
    },
    {
      "inputs": [],
      "name": "name",
      "outputs": [
        {
          "internalType": "string",
          "name": "",
          "type": "string"
        }
      ],
      "stateMutability": "view",
      "type": "function"
    },
    {
      "inputs": [],
      "name": "pause",
      "outputs": [],
      "stateMutability": "nonpayable",
      "type": "function"
    },
    {
      "inputs": [],
      "name": "paused",
      "outputs": [
        {
          "internalType": "bool",
          "name": "",
          "type": "bool"
        }
      ],
      "stateMutability": "view",
      "type": "function"
    },
    {
      "inputs": [
        {
          "internalType": "bytes32",
          "name": "role",
          "type": "bytes32"
        },
        {
          "internalType": "address",
          "name": "account",
          "type": "address"
        }
      ],
      "name": "renounceRole",
      "outputs": [],
      "stateMutability": "nonpayable",
      "type": "function"
    },
    {
      "inputs": [
        {
          "internalType": "bytes32",
          "name": "role",
          "type": "bytes32"
        },
        {
          "internalType": "address",
          "name": "account",
          "type": "address"
        }
      ],
      "name": "revokeRole",
      "outputs": [],
      "stateMutability": "nonpayable",
      "type": "function"
    },
    {
      "inputs": [
        {
          "internalType": "bytes4",
          "name": "interfaceId",
          "type": "bytes4"
        }
      ],
      "name": "supportsInterface",
      "outputs": [
        {
          "internalType": "bool",
          "name": "",
          "type": "bool"
        }
      ],
      "stateMutability": "view",
      "type": "function"
    },
    {
      "inputs": [],
      "name": "symbol",
      "outputs": [
        {
          "internalType": "string",
          "name": "",
          "type": "string"
        }
      ],
      "stateMutability": "view",
      "type": "function"
    },
    {
      "inputs": [],
      "name": "totalSupply",
      "outputs": [
        {
          "internalType": "uint256",
          "name": "",
          "type": "uint256"
        }
      ],
      "stateMutability": "view",
      "type": "function"
    },
    {
      "inputs": [
        {
          "internalType": "address",
          "name": "recipient",
          "type": "address"
        },
        {
          "internalType": "uint256",
          "name": "amount",
          "type": "uint256"
        }
      ],
      "name": "transfer",
      "outputs": [
        {
          "internalType": "bool",
          "name": "",
          "type": "bool"
        }
      ],
      "stateMutability": "nonpayable",
      "type": "function"
    },
    {
      "inputs": [
        {
          "internalType": "address",
          "name": "sender",
          "type": "address"
        },
        {
          "internalType": "address",
          "name": "recipient",
          "type": "address"
        },
        {
          "internalType": "uint256",
          "name": "amount",
          "type": "uint256"
        }
      ],
      "name": "transferFrom",
      "outputs": [
        {
          "internalType": "bool",
          "name": "",
          "type": "bool"
        }
      ],
      "stateMutability": "nonpayable",
      "type": "function"
    },
    {
      "inputs": [],
      "name": "unpause",
      "outputs": [],
      "stateMutability": "nonpayable",
      "type": "function"
    }
  ],
  "bytecode": "0x60806040527f65d7a28e3265b37a6474929f336521b332c1681b933f6cb9f3376673440d862a60c9553480156200003557600080fd5b506040516200423e3803806200423e83398181016040528101906200005b91906200114d565b6200006e8383836200007760201b60201c565b50505062001484565b600060019054906101000a900460ff16806200009e575060008054906101000a900460ff16155b620000e0576040517f08c379a0000000000000000000000000000000000000000000000000000000008152600401620000d79062001245565b60405180910390fd5b60008060019054906101000a900460ff16159050801562000131576001600060016101000a81548160ff02191690831515021790555060016000806101000a81548160ff0219169083151502179055505b620001416200019c60201b60201c565b620001538484620002ab60201b60201c565b6200016482620003ae60201b60201c565b62000174620004af60201b60201c565b8015620001965760008060016101000a81548160ff0219169083151502179055505b50505050565b600060019054906101000a900460ff1680620001c3575060008054906101000a900460ff16155b62000205576040517f08c379a0000000000000000000000000000000000000000000000000000000008152600401620001fc9062001245565b60405180910390fd5b60008060019054906101000a900460ff16159050801562000256576001600060016101000a81548160ff02191690831515021790555060016000806101000a81548160ff0219169083151502179055505b620002666200058e60201b60201c565b620002766200069d60201b60201c565b620002866200079c60201b60201c565b8015620002a85760008060016101000a81548160ff0219169083151502179055505b50565b600060019054906101000a900460ff1680620002d2575060008054906101000a900460ff16155b62000314576040517f08c379a00000000000000000000000000000000000000000000000000000000081526004016200030b9062001245565b60405180910390fd5b60008060019054906101000a900460ff16159050801562000365576001600060016101000a81548160ff02191690831515021790555060016000806101000a81548160ff0219169083151502179055505b62000375620008c260201b60201c565b620003878383620009a160201b60201c565b8015620003a95760008060016101000a81548160ff0219169083151502179055505b505050565b600060019054906101000a900460ff1680620003d5575060008054906101000a900460ff16155b62000417576040517f08c379a00000000000000000000000000000000000000000000000000000000081526004016200040e9062001245565b60405180910390fd5b60008060019054906101000a900460ff16159050801562000468576001600060016101000a81548160ff02191690831515021790555060016000806101000a81548160ff0219169083151502179055505b62000478620008c260201b60201c565b620004898262000ab460201b60201c565b8015620004ab5760008060016101000a81548160ff0219169083151502179055505b5050565b600060019054906101000a900460ff1680620004d6575060008054906101000a900460ff16155b62000518576040517f08c379a00000000000000000000000000000000000000000000000000000000081526004016200050f9062001245565b60405180910390fd5b60008060019054906101000a900460ff16159050801562000569576001600060016101000a81548160ff02191690831515021790555060016000806101000a81548160ff0219169083151502179055505b80156200058b5760008060016101000a81548160ff0219169083151502179055505b50565b600060019054906101000a900460ff1680620005b5575060008054906101000a900460ff16155b620005f7576040517f08c379a0000000000000000000000000000000000000000000000000000000008152600401620005ee9062001245565b60405180910390fd5b60008060019054906101000a900460ff16159050801562000648576001600060016101000a81548160ff02191690831515021790555060016000806101000a81548160ff0219169083151502179055505b62000658620008c260201b60201c565b6200066862000be160201b60201c565b6200067862000cc060201b60201c565b80156200069a5760008060016101000a81548160ff0219169083151502179055505b50565b600060019054906101000a900460ff1680620006c4575060008054906101000a900460ff16155b62000706576040517f08c379a0000000000000000000000000000000000000000000000000000000008152600401620006fd9062001245565b60405180910390fd5b60008060019054906101000a900460ff16159050801562000757576001600060016101000a81548160ff02191690831515021790555060016000806101000a81548160ff0219169083151502179055505b62000767620008c260201b60201c565b6200077762000d9f60201b60201c565b8015620007995760008060016101000a81548160ff0219169083151502179055505b50565b600060019054906101000a900460ff1680620007c3575060008054906101000a900460ff16155b62000805576040517f08c379a0000000000000000000000000000000000000000000000000000000008152600401620007fc9062001245565b60405180910390fd5b60008060019054906101000a900460ff16159050801562000856576001600060016101000a81548160ff02191690831515021790555060016000806101000a81548160ff0219169083151502179055505b6200087a6000801b6200086e62000e9960201b60201c565b62000ea160201b60201c565b6200089d60c9546200089162000e9960201b60201c565b62000ea160201b60201c565b8015620008bf5760008060016101000a81548160ff0219169083151502179055505b50565b600060019054906101000a900460ff1680620008e9575060008054906101000a900460ff16155b6200092b576040517f08c379a0000000000000000000000000000000000000000000000000000000008152600401620009229062001245565b60405180910390fd5b60008060019054906101000a900460ff1615905080156200097c576001600060016101000a81548160ff02191690831515021790555060016000806101000a81548160ff0219169083151502179055505b80156200099e5760008060016101000a81548160ff0219169083151502179055505b50565b600060019054906101000a900460ff1680620009c8575060008054906101000a900460ff16155b62000a0a576040517f08c379a000000000000000000000000000000000000000000000000000000000815260040162000a019062001245565b60405180910390fd5b60008060019054906101000a900460ff16159050801562000a5b576001600060016101000a81548160ff02191690831515021790555060016000806101000a81548160ff0219169083151502179055505b8260cd908051906020019062000a7392919062001014565b508160ce908051906020019062000a8c92919062001014565b50801562000aaf5760008060016101000a81548160ff0219169083151502179055505b505050565b600060019054906101000a900460ff168062000adb575060008054906101000a900460ff16155b62000b1d576040517f08c379a000000000000000000000000000000000000000000000000000000000815260040162000b149062001245565b60405180910390fd5b60008060019054906101000a900460ff16159050801562000b6e576001600060016101000a81548160ff02191690831515021790555060016000806101000a81548160ff0219169083151502179055505b6000821162000bb4576040517f08c379a000000000000000000000000000000000000000000000000000000000815260040162000bab9062001223565b60405180910390fd5b8160fc81905550801562000bdd5760008060016101000a81548160ff0219169083151502179055505b5050565b600060019054906101000a900460ff168062000c08575060008054906101000a900460ff16155b62000c4a576040517f08c379a000000000000000000000000000000000000000000000000000000000815260040162000c419062001245565b60405180910390fd5b60008060019054906101000a900460ff16159050801562000c9b576001600060016101000a81548160ff02191690831515021790555060016000806101000a81548160ff0219169083151502179055505b801562000cbd5760008060016101000a81548160ff0219169083151502179055505b50565b600060019054906101000a900460ff168062000ce7575060008054906101000a900460ff16155b62000d29576040517f08c379a000000000000000000000000000000000000000000000000000000000815260040162000d209062001245565b60405180910390fd5b60008060019054906101000a900460ff16159050801562000d7a576001600060016101000a81548160ff02191690831515021790555060016000806101000a81548160ff0219169083151502179055505b801562000d9c5760008060016101000a81548160ff0219169083151502179055505b50565b600060019054906101000a900460ff168062000dc6575060008054906101000a900460ff16155b62000e08576040517f08c379a000000000000000000000000000000000000000000000000000000000815260040162000dff9062001245565b60405180910390fd5b60008060019054906101000a900460ff16159050801562000e59576001600060016101000a81548160ff02191690831515021790555060016000806101000a81548160ff0219169083151502179055505b6000609760006101000a81548160ff021916908315150217905550801562000e965760008060016101000a81548160ff0219169083151502179055505b50565b600033905090565b62000eb3828262000eb760201b60201c565b5050565b62000ec9828262000fa960201b60201c565b62000fa55760016065600084815260200190815260200160002060000160008373ffffffffffffffffffffffffffffffffffffffff1673ffffffffffffffffffffffffffffffffffffffff16815260200190815260200160002060006101000a81548160ff02191690831515021790555062000f4a62000e9960201b60201c565b73ffffffffffffffffffffffffffffffffffffffff168173ffffffffffffffffffffffffffffffffffffffff16837f2f8788117e7eff1d82e926ec794901d17c78024a50270940304540a733656f0d60405160405180910390a45b5050565b60006065600084815260200190815260200160002060000160008373ffffffffffffffffffffffffffffffffffffffff1673ffffffffffffffffffffffffffffffffffffffff16815260200190815260200160002060009054906101000a900460ff16905092915050565b828054620010229062001317565b90600052602060002090601f01602090048101928262001046576000855562001092565b82601f106200106157805160ff191683800117855562001092565b8280016001018555821562001092579182015b828111156200109157825182559160200191906001019062001074565b5b509050620010a19190620010a5565b5090565b5b80821115620010c0576000816000905550600101620010a6565b5090565b6000620010db620010d58462001290565b62001267565b905082815260208101848484011115620010f457600080fd5b62001101848285620012e1565b509392505050565b600082601f8301126200111b57600080fd5b81516200112d848260208601620010c4565b91505092915050565b60008151905062001147816200146a565b92915050565b6000806000606084860312156200116357600080fd5b600084015167ffffffffffffffff8111156200117e57600080fd5b6200118c8682870162001109565b935050602084015167ffffffffffffffff811115620011aa57600080fd5b620011b88682870162001109565b9250506040620011cb8682870162001136565b9150509250925092565b6000620011e4601583620012c6565b9150620011f182620013f2565b602082019050919050565b60006200120b602e83620012c6565b915062001218826200141b565b604082019050919050565b600060208201905081810360008301526200123e81620011d5565b9050919050565b600060208201905081810360008301526200126081620011fc565b9050919050565b60006200127362001286565b90506200128182826200134d565b919050565b6000604051905090565b600067ffffffffffffffff821115620012ae57620012ad620013b2565b5b620012b982620013e1565b9050602081019050919050565b600082825260208201905092915050565b6000819050919050565b60005b8381101562001301578082015181840152602081019050620012e4565b8381111562001311576000848401525b50505050565b600060028204905060018216806200133057607f821691505b6020821081141562001347576200134662001383565b5b50919050565b6200135882620013e1565b810181811067ffffffffffffffff821117156200137a5762001379620013b2565b5b80604052505050565b7f4e487b7100000000000000000000000000000000000000000000000000000000600052602260045260246000fd5b7f4e487b7100000000000000000000000000000000000000000000000000000000600052604160045260246000fd5b6000601f19601f8301169050919050565b7f45524332304361707065643a2063617020697320300000000000000000000000600082015250565b7f496e697469616c697a61626c653a20636f6e747261637420697320616c72656160008201527f647920696e697469616c697a6564000000000000000000000000000000000000602082015250565b6200147581620012d7565b81146200148157600080fd5b50565b612daa80620014946000396000f3fe608060405234801561001057600080fd5b506004361061018e5760003560e01c806342966c68116100de57806391d1485411610097578063a457c2d711610071578063a457c2d714610473578063a9059cbb146104a3578063d547741f146104d3578063dd62ed3e146104ef5761018e565b806391d148541461040757806395d89b4114610437578063a217fddf146104555761018e565b806342966c68146103595780635c975abb146103755780636c11c21c1461039357806370a08231146103af57806373f42561146103df5780638456cb59146103fd5761018e565b80632f2ff15d1161014b57806336568abe1161012557806336568abe146102e757806339509351146103035780633f4ba83a1461033357806340c10f191461033d5761018e565b80632f2ff15d1461028f578063313ce567146102ab578063355274ea146102c95761018e565b806301ffc9a71461019357806306fdde03146101c3578063095ea7b3146101e157806318160ddd1461021157806323b872dd1461022f578063248a9ca31461025f575b600080fd5b6101ad60048036038101906101a89190611ee5565b61051f565b6040516101ba9190612303565b60405180910390f35b6101cb610599565b6040516101d89190612339565b60405180910390f35b6101fb60048036038101906101f69190611e44565b61062b565b6040516102089190612303565b60405180910390f35b610219610649565b604051610226919061257b565b60405180910390f35b61024960048036038101906102449190611df5565b610653565b6040516102569190612303565b60405180910390f35b61027960048036038101906102749190611e80565b61074b565b604051610286919061231e565b60405180910390f35b6102a960048036038101906102a49190611ea9565b61076b565b005b6102b3610794565b6040516102c09190612596565b60405180910390f35b6102d161079d565b6040516102de919061257b565b60405180910390f35b61030160048036038101906102fc9190611ea9565b6107a7565b005b61031d60048036038101906103189190611e44565b61082a565b60405161032a9190612303565b60405180910390f35b61033b6108d6565b005b61035760048036038101906103529190611e44565b6108f5565b005b610373600480360381019061036e9190611f0e565b610936565b005b61037d61094a565b60405161038a9190612303565b60405180910390f35b6103ad60048036038101906103a89190611d90565b610961565b005b6103c960048036038101906103c49190611d90565b610986565b6040516103d6919061257b565b60405180910390f35b6103e76109cf565b6040516103f4919061257b565b60405180910390f35b6104056109da565b005b610421600480360381019061041c9190611ea9565b6109f9565b60405161042e9190612303565b60405180910390f35b61043f610a64565b60405161044c9190612339565b60405180910390f35b61045d610af6565b60405161046a919061231e565b60405180910390f35b61048d60048036038101906104889190611e44565b610afd565b60405161049a9190612303565b60405180910390f35b6104bd60048036038101906104b89190611e44565b610be8565b6040516104ca9190612303565b60405180910390f35b6104ed60048036038101906104e89190611ea9565b610c06565b005b61050960048036038101906105049190611db9565b610c2f565b604051610516919061257b565b60405180910390f35b60007f7965db0b000000000000000000000000000000000000000000000000000000007bffffffffffffffffffffffffffffffffffffffffffffffffffffffff1916827bffffffffffffffffffffffffffffffffffffffffffffffffffffffff19161480610592575061059182610cb6565b5b9050919050565b606060cd80546105a8906127a4565b80601f01602080910402602001604051908101604052809291908181526020018280546105d4906127a4565b80156106215780601f106105f657610100808354040283529160200191610621565b820191906000526020600020905b81548152906001019060200180831161060457829003601f168201915b5050505050905090565b600061063f610638610d20565b8484610d28565b6001905092915050565b600060cc54905090565b6000610660848484610ef3565b600060cb60008673ffffffffffffffffffffffffffffffffffffffff1673ffffffffffffffffffffffffffffffffffffffff16815260200190815260200160002060006106ab610d20565b73ffffffffffffffffffffffffffffffffffffffff1673ffffffffffffffffffffffffffffffffffffffff1681526020019081526020016000205490508281101561072b576040517f08c379a00000000000000000000000000000000000000000000000000000000081526004016107229061245b565b60405180910390fd5b61073f85610737610d20565b858403610d28565b60019150509392505050565b600060656000838152602001908152602001600020600101549050919050565b6107748261074b565b61078581610780610d20565b611177565b61078f8383611214565b505050565b60006012905090565b600060fc54905090565b6107af610d20565b73ffffffffffffffffffffffffffffffffffffffff168173ffffffffffffffffffffffffffffffffffffffff161461081c576040517f08c379a00000000000000000000000000000000000000000000000000000000081526004016108139061253b565b60405180910390fd5b61082682826112f5565b5050565b60006108cc610837610d20565b848460cb6000610845610d20565b73ffffffffffffffffffffffffffffffffffffffff1673ffffffffffffffffffffffffffffffffffffffff16815260200190815260200160002060008873ffffffffffffffffffffffffffffffffffffffff1673ffffffffffffffffffffffffffffffffffffffff168152602001908152602001600020546108c791906125d8565b610d28565b6001905092915050565b60c9546108ea816108e5610d20565b611177565b6108f26113d7565b50565b7f9f2df0fed2c77648de5860a4cc508cd0818c85b8b8a1ab4ceeef8d981c8956a661092781610922610d20565b611177565b6109318383611479565b505050565b610947610941610d20565b8261152a565b50565b6000609760009054906101000a900460ff16905090565b6000801b61097681610971610d20565b611177565b61098260c954836115e3565b5050565b600060ca60008373ffffffffffffffffffffffffffffffffffffffff1673ffffffffffffffffffffffffffffffffffffffff168152602001908152602001600020549050919050565b600061012f54905090565b60c9546109ee816109e9610d20565b611177565b6109f66115f1565b50565b60006065600084815260200190815260200160002060000160008373ffffffffffffffffffffffffffffffffffffffff1673ffffffffffffffffffffffffffffffffffffffff16815260200190815260200160002060009054906101000a900460ff16905092915050565b606060ce8054610a73906127a4565b80601f0160208091040260200160405190810160405280929190818152602001828054610a9f906127a4565b8015610aec5780601f10610ac157610100808354040283529160200191610aec565b820191906000526020600020905b815481529060010190602001808311610acf57829003601f168201915b5050505050905090565b6000801b81565b60008060cb6000610b0c610d20565b73ffffffffffffffffffffffffffffffffffffffff1673ffffffffffffffffffffffffffffffffffffffff16815260200190815260200160002060008573ffffffffffffffffffffffffffffffffffffffff1673ffffffffffffffffffffffffffffffffffffffff16815260200190815260200160002054905082811015610bc9576040517f08c379a0000000000000000000000000000000000000000000000000000000008152600401610bc09061251b565b60405180910390fd5b610bdd610bd4610d20565b85858403610d28565b600191505092915050565b6000610bfc610bf5610d20565b8484610ef3565b6001905092915050565b610c0f8261074b565b610c2081610c1b610d20565b611177565b610c2a83836112f5565b505050565b600060cb60008473ffffffffffffffffffffffffffffffffffffffff1673ffffffffffffffffffffffffffffffffffffffff16815260200190815260200160002060008373ffffffffffffffffffffffffffffffffffffffff1673ffffffffffffffffffffffffffffffffffffffff16815260200190815260200160002054905092915050565b60007f01ffc9a7000000000000000000000000000000000000000000000000000000007bffffffffffffffffffffffffffffffffffffffffffffffffffffffff1916827bffffffffffffffffffffffffffffffffffffffffffffffffffffffff1916149050919050565b600033905090565b600073ffffffffffffffffffffffffffffffffffffffff168373ffffffffffffffffffffffffffffffffffffffff161415610d98576040517f08c379a0000000000000000000000000000000000000000000000000000000008152600401610d8f906124db565b60405180910390fd5b600073ffffffffffffffffffffffffffffffffffffffff168273ffffffffffffffffffffffffffffffffffffffff161415610e08576040517f08c379a0000000000000000000000000000000000000000000000000000000008152600401610dff906123fb565b60405180910390fd5b8060cb60008573ffffffffffffffffffffffffffffffffffffffff1673ffffffffffffffffffffffffffffffffffffffff16815260200190815260200160002060008473ffffffffffffffffffffffffffffffffffffffff1673ffffffffffffffffffffffffffffffffffffffff168152602001908152602001600020819055508173ffffffffffffffffffffffffffffffffffffffff168373ffffffffffffffffffffffffffffffffffffffff167f8c5be1e5ebec7d5bd14f71427d1e84f3dd0314c0f7b2291e5b200ac8c7c3b92583604051610ee6919061257b565b60405180910390a3505050565b600073ffffffffffffffffffffffffffffffffffffffff168373ffffffffffffffffffffffffffffffffffffffff161415610f63576040517f08c379a0000000000000000000000000000000000000000000000000000000008152600401610f5a9061249b565b60405180910390fd5b600073ffffffffffffffffffffffffffffffffffffffff168273ffffffffffffffffffffffffffffffffffffffff161415610fd3576040517f08c379a0000000000000000000000000000000000000000000000000000000008152600401610fca9061237b565b60405180910390fd5b610fde838383611694565b600060ca60008573ffffffffffffffffffffffffffffffffffffffff1673ffffffffffffffffffffffffffffffffffffffff16815260200190815260200160002054905081811015611065576040517f08c379a000000000000000000000000000000000000000000000000000000000815260040161105c9061241b565b60405180910390fd5b81810360ca60008673ffffffffffffffffffffffffffffffffffffffff1673ffffffffffffffffffffffffffffffffffffffff168152602001908152602001600020819055508160ca60008573ffffffffffffffffffffffffffffffffffffffff1673ffffffffffffffffffffffffffffffffffffffff16815260200190815260200160002060008282546110fa91906125d8565b925050819055508273ffffffffffffffffffffffffffffffffffffffff168473ffffffffffffffffffffffffffffffffffffffff167fddf252ad1be2c89b69c2b068fc378daa952ba7f163c4a11628f55a4df523b3ef8460405161115e919061257b565b60405180910390a3611171848484611699565b50505050565b61118182826109f9565b611210576111a68173ffffffffffffffffffffffffffffffffffffffff16601461169e565b6111b48360001c602061169e565b6040516020016111c5929190612285565b6040516020818303038152906040526040517f08c379a00000000000000000000000000000000000000000000000000000000081526004016112079190612339565b60405180910390fd5b5050565b61121e82826109f9565b6112f15760016065600084815260200190815260200160002060000160008373ffffffffffffffffffffffffffffffffffffffff1673ffffffffffffffffffffffffffffffffffffffff16815260200190815260200160002060006101000a81548160ff021916908315150217905550611296610d20565b73ffffffffffffffffffffffffffffffffffffffff168173ffffffffffffffffffffffffffffffffffffffff16837f2f8788117e7eff1d82e926ec794901d17c78024a50270940304540a733656f0d60405160405180910390a45b5050565b6112ff82826109f9565b156113d35760006065600084815260200190815260200160002060000160008373ffffffffffffffffffffffffffffffffffffffff1673ffffffffffffffffffffffffffffffffffffffff16815260200190815260200160002060006101000a81548160ff021916908315150217905550611378610d20565b73ffffffffffffffffffffffffffffffffffffffff168173ffffffffffffffffffffffffffffffffffffffff16837ff6391f5c32d9c69d2a47ea670b442974b53935d1edc7fd64eb21e047a839171b60405160405180910390a45b5050565b6113df61094a565b61141e576040517f08c379a00000000000000000000000000000000000000000000000000000000081526004016114159061239b565b60405180910390fd5b6000609760006101000a81548160ff0219169083151502179055507f5db9ee0a495bf2e6ff9c91a7834c1ba4fdd244a5e8aa4e537bd38aeae4b073aa611462610d20565b60405161146f91906122bf565b60405180910390a1565b61148161079d565b8161012f5461148e610649565b61149891906125d8565b6114a291906125d8565b11156114e3576040517f08c379a00000000000000000000000000000000000000000000000000000000081526004016114da906124fb565b60405180910390fd5b6114ed8282611998565b7f0f6798a560793a54c3bcfe86a93cde1e73087d944c0ea20544137d4121396885828260405161151e9291906122da565b60405180910390a15050565b8061012f54611537610649565b6115419190612688565b1015611582576040517f08c379a0000000000000000000000000000000000000000000000000000000008152600401611579906123db565b60405180910390fd5b8061012f600082825461159591906125d8565b925050819055506115a68282611a02565b7fcc16f5dbb4873280815c1ee09dbd06736cffcc184412cf7a71a0fdb75d397ca582826040516115d79291906122da565b60405180910390a15050565b6115ed8282611214565b5050565b6115f961094a565b15611639576040517f08c379a00000000000000000000000000000000000000000000000000000000081526004016116309061243b565b60405180910390fd5b6001609760006101000a81548160ff0219169083151502179055507f62e78cea01bee320cd4e420270b5ea74000d11b0c9f74754ebdbfc544b05a25861167d610d20565b60405161168a91906122bf565b60405180910390a1565b505050565b505050565b6060600060028360026116b1919061262e565b6116bb91906125d8565b67ffffffffffffffff8111156116fa577f4e487b7100000000000000000000000000000000000000000000000000000000600052604160045260246000fd5b6040519080825280601f01601f19166020018201604052801561172c5781602001600182028036833780820191505090505b5090507f30000000000000000000000000000000000000000000000000000000000000008160008151811061178a577f4e487b7100000000000000000000000000000000000000000000000000000000600052603260045260246000fd5b60200101907effffffffffffffffffffffffffffffffffffffffffffffffffffffffffffff1916908160001a9053507f780000000000000000000000000000000000000000000000000000000000000081600181518110611814577f4e487b7100000000000000000000000000000000000000000000000000000000600052603260045260246000fd5b60200101907effffffffffffffffffffffffffffffffffffffffffffffffffffffffffffff1916908160001a90535060006001846002611854919061262e565b61185e91906125d8565b90505b600181111561194a577f3031323334353637383961626364656600000000000000000000000000000000600f8616601081106118c6577f4e487b7100000000000000000000000000000000000000000000000000000000600052603260045260246000fd5b1a60f81b828281518110611903577f4e487b7100000000000000000000000000000000000000000000000000000000600052603260045260246000fd5b60200101907effffffffffffffffffffffffffffffffffffffffffffffffffffffffffffff1916908160001a905350600485901c9450806119439061277a565b9050611861565b506000841461198e576040517f08c379a00000000000000000000000000000000000000000000000000000000081526004016119859061235b565b60405180910390fd5b8091505092915050565b6119a061079d565b816119a9610649565b6119b391906125d8565b11156119f4576040517f08c379a00000000000000000000000000000000000000000000000000000000081526004016119eb906124bb565b60405180910390fd5b6119fe8282611bdb565b5050565b600073ffffffffffffffffffffffffffffffffffffffff168273ffffffffffffffffffffffffffffffffffffffff161415611a72576040517f08c379a0000000000000000000000000000000000000000000000000000000008152600401611a699061247b565b60405180910390fd5b611a7e82600083611694565b600060ca60008473ffffffffffffffffffffffffffffffffffffffff1673ffffffffffffffffffffffffffffffffffffffff16815260200190815260200160002054905081811015611b05576040517f08c379a0000000000000000000000000000000000000000000000000000000008152600401611afc906123bb565b60405180910390fd5b81810360ca60008573ffffffffffffffffffffffffffffffffffffffff1673ffffffffffffffffffffffffffffffffffffffff168152602001908152602001600020819055508160cc6000828254611b5d9190612688565b92505081905550600073ffffffffffffffffffffffffffffffffffffffff168373ffffffffffffffffffffffffffffffffffffffff167fddf252ad1be2c89b69c2b068fc378daa952ba7f163c4a11628f55a4df523b3ef84604051611bc2919061257b565b60405180910390a3611bd683600084611699565b505050565b600073ffffffffffffffffffffffffffffffffffffffff168273ffffffffffffffffffffffffffffffffffffffff161415611c4b576040517f08c379a0000000000000000000000000000000000000000000000000000000008152600401611c429061255b565b60405180910390fd5b611c5760008383611694565b8060cc6000828254611c6991906125d8565b925050819055508060ca60008473ffffffffffffffffffffffffffffffffffffffff1673ffffffffffffffffffffffffffffffffffffffff1681526020019081526020016000206000828254611cbf91906125d8565b925050819055508173ffffffffffffffffffffffffffffffffffffffff16600073ffffffffffffffffffffffffffffffffffffffff167fddf252ad1be2c89b69c2b068fc378daa952ba7f163c4a11628f55a4df523b3ef83604051611d24919061257b565b60405180910390a3611d3860008383611699565b5050565b600081359050611d4b81612d18565b92915050565b600081359050611d6081612d2f565b92915050565b600081359050611d7581612d46565b92915050565b600081359050611d8a81612d5d565b92915050565b600060208284031215611da257600080fd5b6000611db084828501611d3c565b91505092915050565b60008060408385031215611dcc57600080fd5b6000611dda85828601611d3c565b9250506020611deb85828601611d3c565b9150509250929050565b600080600060608486031215611e0a57600080fd5b6000611e1886828701611d3c565b9350506020611e2986828701611d3c565b9250506040611e3a86828701611d7b565b9150509250925092565b60008060408385031215611e5757600080fd5b6000611e6585828601611d3c565b9250506020611e7685828601611d7b565b9150509250929050565b600060208284031215611e9257600080fd5b6000611ea084828501611d51565b91505092915050565b60008060408385031215611ebc57600080fd5b6000611eca85828601611d51565b9250506020611edb85828601611d3c565b9150509250929050565b600060208284031215611ef757600080fd5b6000611f0584828501611d66565b91505092915050565b600060208284031215611f2057600080fd5b6000611f2e84828501611d7b565b91505092915050565b611f40816126bc565b82525050565b611f4f816126ce565b82525050565b611f5e816126da565b82525050565b6000611f6f826125b1565b611f7981856125bc565b9350611f89818560208601612747565b611f9281612834565b840191505092915050565b6000611fa8826125b1565b611fb281856125cd565b9350611fc2818560208601612747565b80840191505092915050565b6000611fdb6020836125bc565b9150611fe682612845565b602082019050919050565b6000611ffe6023836125bc565b91506120098261286e565b604082019050919050565b60006120216014836125bc565b915061202c826128bd565b602082019050919050565b60006120446022836125bc565b915061204f826128e6565b604082019050919050565b60006120676028836125bc565b915061207282612935565b604082019050919050565b600061208a6022836125bc565b915061209582612984565b604082019050919050565b60006120ad6026836125bc565b91506120b8826129d3565b604082019050919050565b60006120d06010836125bc565b91506120db82612a22565b602082019050919050565b60006120f36028836125bc565b91506120fe82612a4b565b604082019050919050565b60006121166021836125bc565b915061212182612a9a565b604082019050919050565b60006121396025836125bc565b915061214482612ae9565b604082019050919050565b600061215c6019836125bc565b915061216782612b38565b602082019050919050565b600061217f6024836125bc565b915061218a82612b61565b604082019050919050565b60006121a26025836125bc565b91506121ad82612bb0565b604082019050919050565b60006121c56017836125cd565b91506121d082612bff565b601782019050919050565b60006121e86025836125bc565b91506121f382612c28565b604082019050919050565b600061220b6011836125cd565b915061221682612c77565b601182019050919050565b600061222e602f836125bc565b915061223982612ca0565b604082019050919050565b6000612251601f836125bc565b915061225c82612cef565b602082019050919050565b61227081612730565b82525050565b61227f8161273a565b82525050565b6000612290826121b8565b915061229c8285611f9d565b91506122a7826121fe565b91506122b38284611f9d565b91508190509392505050565b60006020820190506122d46000830184611f37565b92915050565b60006040820190506122ef6000830185611f37565b6122fc6020830184612267565b9392505050565b60006020820190506123186000830184611f46565b92915050565b60006020820190506123336000830184611f55565b92915050565b600060208201905081810360008301526123538184611f64565b905092915050565b6000602082019050818103600083015261237481611fce565b9050919050565b6000602082019050818103600083015261239481611ff1565b9050919050565b600060208201905081810360008301526123b481612014565b9050919050565b600060208201905081810360008301526123d481612037565b9050919050565b600060208201905081810360008301526123f48161205a565b9050919050565b600060208201905081810360008301526124148161207d565b9050919050565b60006020820190508181036000830152612434816120a0565b9050919050565b60006020820190508181036000830152612454816120c3565b9050919050565b60006020820190508181036000830152612474816120e6565b9050919050565b6000602082019050818103600083015261249481612109565b9050919050565b600060208201905081810360008301526124b48161212c565b9050919050565b600060208201905081810360008301526124d48161214f565b9050919050565b600060208201905081810360008301526124f481612172565b9050919050565b6000602082019050818103600083015261251481612195565b9050919050565b60006020820190508181036000830152612534816121db565b9050919050565b6000602082019050818103600083015261255481612221565b9050919050565b6000602082019050818103600083015261257481612244565b9050919050565b60006020820190506125906000830184612267565b92915050565b60006020820190506125ab6000830184612276565b92915050565b600081519050919050565b600082825260208201905092915050565b600081905092915050565b60006125e382612730565b91506125ee83612730565b9250827fffffffffffffffffffffffffffffffffffffffffffffffffffffffffffffffff03821115612623576126226127d6565b5b828201905092915050565b600061263982612730565b915061264483612730565b9250817fffffffffffffffffffffffffffffffffffffffffffffffffffffffffffffffff048311821515161561267d5761267c6127d6565b5b828202905092915050565b600061269382612730565b915061269e83612730565b9250828210156126b1576126b06127d6565b5b828203905092915050565b60006126c782612710565b9050919050565b60008115159050919050565b6000819050919050565b60007fffffffff0000000000000000000000000000000000000000000000000000000082169050919050565b600073ffffffffffffffffffffffffffffffffffffffff82169050919050565b6000819050919050565b600060ff82169050919050565b60005b8381101561276557808201518184015260208101905061274a565b83811115612774576000848401525b50505050565b600061278582612730565b91506000821415612799576127986127d6565b5b600182039050919050565b600060028204905060018216806127bc57607f821691505b602082108114156127d0576127cf612805565b5b50919050565b7f4e487b7100000000000000000000000000000000000000000000000000000000600052601160045260246000fd5b7f4e487b7100000000000000000000000000000000000000000000000000000000600052602260045260246000fd5b6000601f19601f8301169050919050565b7f537472696e67733a20686578206c656e67746820696e73756666696369656e74600082015250565b7f45524332303a207472616e7366657220746f20746865207a65726f206164647260008201527f6573730000000000000000000000000000000000000000000000000000000000602082015250565b7f5061757361626c653a206e6f7420706175736564000000000000000000000000600082015250565b7f45524332303a206275726e20616d6f756e7420657863656564732062616c616e60008201527f6365000000000000000000000000000000000000000000000000000000000000602082015250565b7f52656450696c6c45524332303a206275726e20616d6f756e742065786365656460008201527f7320737570706c79000000000000000000000000000000000000000000000000602082015250565b7f45524332303a20617070726f766520746f20746865207a65726f20616464726560008201527f7373000000000000000000000000000000000000000000000000000000000000602082015250565b7f45524332303a207472616e7366657220616d6f756e742065786365656473206260008201527f616c616e63650000000000000000000000000000000000000000000000000000602082015250565b7f5061757361626c653a2070617573656400000000000000000000000000000000600082015250565b7f45524332303a207472616e7366657220616d6f756e742065786365656473206160008201527f6c6c6f77616e6365000000000000000000000000000000000000000000000000602082015250565b7f45524332303a206275726e2066726f6d20746865207a65726f2061646472657360008201527f7300000000000000000000000000000000000000000000000000000000000000602082015250565b7f45524332303a207472616e736665722066726f6d20746865207a65726f20616460008201527f6472657373000000000000000000000000000000000000000000000000000000602082015250565b7f45524332304361707065643a2063617020657863656564656400000000000000600082015250565b7f45524332303a20617070726f76652066726f6d20746865207a65726f2061646460008201527f7265737300000000000000000000000000000000000000000000000000000000602082015250565b7f52656450696c6c45524332303a206d696e7420616d6f756e742065786365656460008201527f7320636170000000000000000000000000000000000000000000000000000000602082015250565b7f416363657373436f6e74726f6c3a206163636f756e7420000000000000000000600082015250565b7f45524332303a2064656372656173656420616c6c6f77616e63652062656c6f7760008201527f207a65726f000000000000000000000000000000000000000000000000000000602082015250565b7f206973206d697373696e6720726f6c6520000000000000000000000000000000600082015250565b7f416363657373436f6e74726f6c3a2063616e206f6e6c792072656e6f756e636560008201527f20726f6c657320666f722073656c660000000000000000000000000000000000602082015250565b7f45524332303a206d696e7420746f20746865207a65726f206164647265737300600082015250565b612d21816126bc565b8114612d2c57600080fd5b50565b612d38816126da565b8114612d4357600080fd5b50565b612d4f816126e4565b8114612d5a57600080fd5b50565b612d6681612730565b8114612d7157600080fd5b5056fea2646970667358221220916fbf1e20580fa58c74fdaabe846479e87cc2c448e2f295a279629423e24b3d64736f6c63430008020033",
  "linkReferences": {},
  "deployedLinkReferences": {}
}