{
  "_format": "hh-sol-artifact-1",
  "contractName": "Token",
  "sourceName": "contracts/utils/Token.sol",
  "abi": [
    {
      "inputs": [
        {
          "internalType": "string",
          "name": "name",
          "type": "string"
        },
        {
          "internalType": "string",
          "name": "symbol",
          "type": "string"
        },
        {
          "internalType": "uint256",
          "name": "cap",
          "type": "uint256"
        }
      ],
      "stateMutability": "nonpayable",
      "type": "constructor"
    },
    {
      "anonymous": false,
      "inputs": [
        {
          "indexed": true,
          "internalType": "address",
          "name": "owner",
          "type": "address"
        },
        {
          "indexed": true,
          "internalType": "address",
          "name": "spender",
          "type": "address"
        },
        {
          "indexed": false,
          "internalType": "uint256",
          "name": "value",
          "type": "uint256"
        }
      ],
      "name": "Approval",
      "type": "event"
    },
    {
      "anonymous": false,
      "inputs": [
        {
          "indexed": false,
          "internalType": "address",
          "name": "account",
          "type": "address"
        }
      ],
      "name": "Paused",
      "type": "event"
    },
    {
      "anonymous": false,
      "inputs": [
        {
          "indexed": true,
          "internalType": "bytes32",
          "name": "role",
          "type": "bytes32"
        },
        {
          "indexed": true,
          "internalType": "bytes32",
          "name": "previousAdminRole",
          "type": "bytes32"
        },
        {
          "indexed": true,
          "internalType": "bytes32",
          "name": "newAdminRole",
          "type": "bytes32"
        }
      ],
      "name": "RoleAdminChanged",
      "type": "event"
    },
    {
      "anonymous": false,
      "inputs": [
        {
          "indexed": true,
          "internalType": "bytes32",
          "name": "role",
          "type": "bytes32"
        },
        {
          "indexed": true,
          "internalType": "address",
          "name": "account",
          "type": "address"
        },
        {
          "indexed": true,
          "internalType": "address",
          "name": "sender",
          "type": "address"
        }
      ],
      "name": "RoleGranted",
      "type": "event"
    },
    {
      "anonymous": false,
      "inputs": [
        {
          "indexed": true,
          "internalType": "bytes32",
          "name": "role",
          "type": "bytes32"
        },
        {
          "indexed": true,
          "internalType": "address",
          "name": "account",
          "type": "address"
        },
        {
          "indexed": true,
          "internalType": "address",
          "name": "sender",
          "type": "address"
        }
      ],
      "name": "RoleRevoked",
      "type": "event"
    },
    {
      "anonymous": false,
      "inputs": [
        {
          "indexed": true,
          "internalType": "address",
          "name": "from",
          "type": "address"
        },
        {
          "indexed": true,
          "internalType": "address",
          "name": "to",
          "type": "address"
        },
        {
          "indexed": false,
          "internalType": "uint256",
          "name": "value",
          "type": "uint256"
        }
      ],
      "name": "Transfer",
      "type": "event"
    },
    {
      "anonymous": false,
      "inputs": [
        {
          "indexed": false,
          "internalType": "address",
          "name": "account",
          "type": "address"
        }
      ],
      "name": "Unpaused",
      "type": "event"
    },
    {
      "inputs": [],
      "name": "DEFAULT_ADMIN_ROLE",
      "outputs": [
        {
          "internalType": "bytes32",
          "name": "",
          "type": "bytes32"
        }
      ],
      "stateMutability": "view",
      "type": "function"
    },
    {
      "inputs": [
        {
          "internalType": "address",
          "name": "owner",
          "type": "address"
        },
        {
          "internalType": "address",
          "name": "spender",
          "type": "address"
        }
      ],
      "name": "allowance",
      "outputs": [
        {
          "internalType": "uint256",
          "name": "",
          "type": "uint256"
        }
      ],
      "stateMutability": "view",
      "type": "function"
    },
    {
      "inputs": [
        {
          "internalType": "address",
          "name": "spender",
          "type": "address"
        },
        {
          "internalType": "uint256",
          "name": "amount",
          "type": "uint256"
        }
      ],
      "name": "approve",
      "outputs": [
        {
          "internalType": "bool",
          "name": "",
          "type": "bool"
        }
      ],
      "stateMutability": "nonpayable",
      "type": "function"
    },
    {
      "inputs": [
        {
          "internalType": "address",
          "name": "account",
          "type": "address"
        }
      ],
      "name": "balanceOf",
      "outputs": [
        {
          "internalType": "uint256",
          "name": "",
          "type": "uint256"
        }
      ],
      "stateMutability": "view",
      "type": "function"
    },
    {
      "inputs": [
        {
          "internalType": "uint256",
          "name": "amount",
          "type": "uint256"
        }
      ],
      "name": "burn",
      "outputs": [],
      "stateMutability": "nonpayable",
      "type": "function"
    },
    {
      "inputs": [],
      "name": "burned",
      "outputs": [
        {
          "internalType": "uint256",
          "name": "",
          "type": "uint256"
        }
      ],
      "stateMutability": "view",
      "type": "function"
    },
    {
      "inputs": [],
      "name": "cap",
      "outputs": [
        {
          "internalType": "uint256",
          "name": "",
          "type": "uint256"
        }
      ],
      "stateMutability": "view",
      "type": "function"
    },
    {
      "inputs": [],
      "name": "decimals",
      "outputs": [
        {
          "internalType": "uint8",
          "name": "",
          "type": "uint8"
        }
      ],
      "stateMutability": "view",
      "type": "function"
    },
    {
      "inputs": [
        {
          "internalType": "address",
          "name": "spender",
          "type": "address"
        },
        {
          "internalType": "uint256",
          "name": "subtractedValue",
          "type": "uint256"
        }
      ],
      "name": "decreaseAllowance",
      "outputs": [
        {
          "internalType": "bool",
          "name": "",
          "type": "bool"
        }
      ],
      "stateMutability": "nonpayable",
      "type": "function"
    },
    {
      "inputs": [
        {
          "internalType": "bytes32",
          "name": "role",
          "type": "bytes32"
        }
      ],
      "name": "getRoleAdmin",
      "outputs": [
        {
          "internalType": "bytes32",
          "name": "",
          "type": "bytes32"
        }
      ],
      "stateMutability": "view",
      "type": "function"
    },
    {
      "inputs": [
        {
          "internalType": "address",
          "name": "account",
          "type": "address"
        }
      ],
      "name": "grantPauserRole",
      "outputs": [],
      "stateMutability": "nonpayable",
      "type": "function"
    },
    {
      "inputs": [
        {
          "internalType": "bytes32",
          "name": "role",
          "type": "bytes32"
        },
        {
          "internalType": "address",
          "name": "account",
          "type": "address"
        }
      ],
      "name": "grantRole",
      "outputs": [],
      "stateMutability": "nonpayable",
      "type": "function"
    },
    {
      "inputs": [
        {
          "internalType": "bytes32",
          "name": "role",
          "type": "bytes32"
        },
        {
          "internalType": "address",
          "name": "account",
          "type": "address"
        }
      ],
      "name": "hasRole",
      "outputs": [
        {
          "internalType": "bool",
          "name": "",
          "type": "bool"
        }
      ],
      "stateMutability": "view",
      "type": "function"
    },
    {
      "inputs": [
        {
          "internalType": "address",
          "name": "spender",
          "type": "address"
        },
        {
          "internalType": "uint256",
          "name": "addedValue",
          "type": "uint256"
        }
      ],
      "name": "increaseAllowance",
      "outputs": [
        {
          "internalType": "bool",
          "name": "",
          "type": "bool"
        }
      ],
      "stateMutability": "nonpayable",
      "type": "function"
    },
    {
      "inputs": [
        {
          "internalType": "address",
          "name": "account",
          "type": "address"
        },
        {
          "internalType": "uint256",
          "name": "amount",
          "type": "uint256"
        }
      ],
      "name": "mint",
      "outputs": [],
      "stateMutability": "nonpayable",
      "type": "function"
    },
    {
      "inputs": [],
      "name": "name",
      "outputs": [
        {
          "internalType": "string",
          "name": "",
          "type": "string"
        }
      ],
      "stateMutability": "view",
      "type": "function"
    },
    {
      "inputs": [],
      "name": "pause",
      "outputs": [],
      "stateMutability": "nonpayable",
      "type": "function"
    },
    {
      "inputs": [],
      "name": "paused",
      "outputs": [
        {
          "internalType": "bool",
          "name": "",
          "type": "bool"
        }
      ],
      "stateMutability": "view",
      "type": "function"
    },
    {
      "inputs": [
        {
          "internalType": "bytes32",
          "name": "role",
          "type": "bytes32"
        },
        {
          "internalType": "address",
          "name": "account",
          "type": "address"
        }
      ],
      "name": "renounceRole",
      "outputs": [],
      "stateMutability": "nonpayable",
      "type": "function"
    },
    {
      "inputs": [
        {
          "internalType": "bytes32",
          "name": "role",
          "type": "bytes32"
        },
        {
          "internalType": "address",
          "name": "account",
          "type": "address"
        }
      ],
      "name": "revokeRole",
      "outputs": [],
      "stateMutability": "nonpayable",
      "type": "function"
    },
    {
      "inputs": [
        {
          "internalType": "bytes4",
          "name": "interfaceId",
          "type": "bytes4"
        }
      ],
      "name": "supportsInterface",
      "outputs": [
        {
          "internalType": "bool",
          "name": "",
          "type": "bool"
        }
      ],
      "stateMutability": "view",
      "type": "function"
    },
    {
      "inputs": [],
      "name": "symbol",
      "outputs": [
        {
          "internalType": "string",
          "name": "",
          "type": "string"
        }
      ],
      "stateMutability": "view",
      "type": "function"
    },
    {
      "inputs": [],
      "name": "totalSupply",
      "outputs": [
        {
          "internalType": "uint256",
          "name": "",
          "type": "uint256"
        }
      ],
      "stateMutability": "view",
      "type": "function"
    },
    {
      "inputs": [
        {
          "internalType": "address",
          "name": "recipient",
          "type": "address"
        },
        {
          "internalType": "uint256",
          "name": "amount",
          "type": "uint256"
        }
      ],
      "name": "transfer",
      "outputs": [
        {
          "internalType": "bool",
          "name": "",
          "type": "bool"
        }
      ],
      "stateMutability": "nonpayable",
      "type": "function"
    },
    {
      "inputs": [
        {
          "internalType": "address",
          "name": "sender",
          "type": "address"
        },
        {
          "internalType": "address",
          "name": "recipient",
          "type": "address"
        },
        {
          "internalType": "uint256",
          "name": "amount",
          "type": "uint256"
        }
      ],
      "name": "transferFrom",
      "outputs": [
        {
          "internalType": "bool",
          "name": "",
          "type": "bool"
        }
      ],
      "stateMutability": "nonpayable",
      "type": "function"
    },
    {
      "inputs": [],
      "name": "unpause",
      "outputs": [],
      "stateMutability": "nonpayable",
      "type": "function"
    }
  ],
  "bytecode": "0x60806040527f65d7a28e3265b37a6474929f336521b332c1681b933f6cb9f3376673440d862a60c9553480156200003557600080fd5b50604051620040473803806200404783398181016040528101906200005b91906200114d565b6200006e8383836200007760201b60201c565b50505062001429565b600060019054906101000a900460ff16806200009e575060008054906101000a900460ff16155b620000e0576040517f08c379a0000000000000000000000000000000000000000000000000000000008152600401620000d790620012a1565b60405180910390fd5b60008060019054906101000a900460ff16159050801562000131576001600060016101000a81548160ff02191690831515021790555060016000806101000a81548160ff0219169083151502179055505b620001416200019c60201b60201c565b620001538484620002ab60201b60201c565b6200016482620003ae60201b60201c565b62000174620004af60201b60201c565b8015620001965760008060016101000a81548160ff0219169083151502179055505b50505050565b600060019054906101000a900460ff1680620001c3575060008054906101000a900460ff16155b62000205576040517f08c379a0000000000000000000000000000000000000000000000000000000008152600401620001fc90620012a1565b60405180910390fd5b60008060019054906101000a900460ff16159050801562000256576001600060016101000a81548160ff02191690831515021790555060016000806101000a81548160ff0219169083151502179055505b620002666200058e60201b60201c565b620002766200069d60201b60201c565b620002866200079c60201b60201c565b8015620002a85760008060016101000a81548160ff0219169083151502179055505b50565b600060019054906101000a900460ff1680620002d2575060008054906101000a900460ff16155b62000314576040517f08c379a00000000000000000000000000000000000000000000000000000000081526004016200030b90620012a1565b60405180910390fd5b60008060019054906101000a900460ff16159050801562000365576001600060016101000a81548160ff02191690831515021790555060016000806101000a81548160ff0219169083151502179055505b62000375620008c260201b60201c565b620003878383620009a160201b60201c565b8015620003a95760008060016101000a81548160ff0219169083151502179055505b505050565b600060019054906101000a900460ff1680620003d5575060008054906101000a900460ff16155b62000417576040517f08c379a00000000000000000000000000000000000000000000000000000000081526004016200040e90620012a1565b60405180910390fd5b60008060019054906101000a900460ff16159050801562000468576001600060016101000a81548160ff02191690831515021790555060016000806101000a81548160ff0219169083151502179055505b62000478620008c260201b60201c565b620004898262000ab460201b60201c565b8015620004ab5760008060016101000a81548160ff0219169083151502179055505b5050565b600060019054906101000a900460ff1680620004d6575060008054906101000a900460ff16155b62000518576040517f08c379a00000000000000000000000000000000000000000000000000000000081526004016200050f90620012a1565b60405180910390fd5b60008060019054906101000a900460ff16159050801562000569576001600060016101000a81548160ff02191690831515021790555060016000806101000a81548160ff0219169083151502179055505b80156200058b5760008060016101000a81548160ff0219169083151502179055505b50565b600060019054906101000a900460ff1680620005b5575060008054906101000a900460ff16155b620005f7576040517f08c379a0000000000000000000000000000000000000000000000000000000008152600401620005ee90620012a1565b60405180910390fd5b60008060019054906101000a900460ff16159050801562000648576001600060016101000a81548160ff02191690831515021790555060016000806101000a81548160ff0219169083151502179055505b62000658620008c260201b60201c565b6200066862000be160201b60201c565b6200067862000cc060201b60201c565b80156200069a5760008060016101000a81548160ff0219169083151502179055505b50565b600060019054906101000a900460ff1680620006c4575060008054906101000a900460ff16155b62000706576040517f08c379a0000000000000000000000000000000000000000000000000000000008152600401620006fd90620012a1565b60405180910390fd5b60008060019054906101000a900460ff16159050801562000757576001600060016101000a81548160ff02191690831515021790555060016000806101000a81548160ff0219169083151502179055505b62000767620008c260201b60201c565b6200077762000d9f60201b60201c565b8015620007995760008060016101000a81548160ff0219169083151502179055505b50565b600060019054906101000a900460ff1680620007c3575060008054906101000a900460ff16155b62000805576040517f08c379a0000000000000000000000000000000000000000000000000000000008152600401620007fc90620012a1565b60405180910390fd5b60008060019054906101000a900460ff16159050801562000856576001600060016101000a81548160ff02191690831515021790555060016000806101000a81548160ff0219169083151502179055505b6200087a6000801b6200086e62000e9960201b60201c565b62000ea160201b60201c565b6200089d60c9546200089162000e9960201b60201c565b62000ea160201b60201c565b8015620008bf5760008060016101000a81548160ff0219169083151502179055505b50565b600060019054906101000a900460ff1680620008e9575060008054906101000a900460ff16155b6200092b576040517f08c379a00000000000000000000000000000000000000000000000000000000081526004016200092290620012a1565b60405180910390fd5b60008060019054906101000a900460ff1615905080156200097c576001600060016101000a81548160ff02191690831515021790555060016000806101000a81548160ff0219169083151502179055505b80156200099e5760008060016101000a81548160ff0219169083151502179055505b50565b600060019054906101000a900460ff1680620009c8575060008054906101000a900460ff16155b62000a0a576040517f08c379a000000000000000000000000000000000000000000000000000000000815260040162000a0190620012a1565b60405180910390fd5b60008060019054906101000a900460ff16159050801562000a5b576001600060016101000a81548160ff02191690831515021790555060016000806101000a81548160ff0219169083151502179055505b8260cd908051906020019062000a7392919062001014565b508160ce908051906020019062000a8c92919062001014565b50801562000aaf5760008060016101000a81548160ff0219169083151502179055505b505050565b600060019054906101000a900460ff168062000adb575060008054906101000a900460ff16155b62000b1d576040517f08c379a000000000000000000000000000000000000000000000000000000000815260040162000b1490620012a1565b60405180910390fd5b60008060019054906101000a900460ff16159050801562000b6e576001600060016101000a81548160ff02191690831515021790555060016000806101000a81548160ff0219169083151502179055505b6000821162000bb4576040517f08c379a000000000000000000000000000000000000000000000000000000000815260040162000bab906200127f565b60405180910390fd5b8160fc81905550801562000bdd5760008060016101000a81548160ff0219169083151502179055505b5050565b600060019054906101000a900460ff168062000c08575060008054906101000a900460ff16155b62000c4a576040517f08c379a000000000000000000000000000000000000000000000000000000000815260040162000c4190620012a1565b60405180910390fd5b60008060019054906101000a900460ff16159050801562000c9b576001600060016101000a81548160ff02191690831515021790555060016000806101000a81548160ff0219169083151502179055505b801562000cbd5760008060016101000a81548160ff0219169083151502179055505b50565b600060019054906101000a900460ff168062000ce7575060008054906101000a900460ff16155b62000d29576040517f08c379a000000000000000000000000000000000000000000000000000000000815260040162000d2090620012a1565b60405180910390fd5b60008060019054906101000a900460ff16159050801562000d7a576001600060016101000a81548160ff02191690831515021790555060016000806101000a81548160ff0219169083151502179055505b801562000d9c5760008060016101000a81548160ff0219169083151502179055505b50565b600060019054906101000a900460ff168062000dc6575060008054906101000a900460ff16155b62000e08576040517f08c379a000000000000000000000000000000000000000000000000000000000815260040162000dff90620012a1565b60405180910390fd5b60008060019054906101000a900460ff16159050801562000e59576001600060016101000a81548160ff02191690831515021790555060016000806101000a81548160ff0219169083151502179055505b6000609760006101000a81548160ff021916908315150217905550801562000e965760008060016101000a81548160ff0219169083151502179055505b50565b600033905090565b62000eb3828262000eb760201b60201c565b5050565b62000ec9828262000fa960201b60201c565b62000fa55760016065600084815260200190815260200160002060000160008373ffffffffffffffffffffffffffffffffffffffff1673ffffffffffffffffffffffffffffffffffffffff16815260200190815260200160002060006101000a81548160ff02191690831515021790555062000f4a62000e9960201b60201c565b73ffffffffffffffffffffffffffffffffffffffff168173ffffffffffffffffffffffffffffffffffffffff16837f2f8788117e7eff1d82e926ec794901d17c78024a50270940304540a733656f0d60405160405180910390a45b5050565b60006065600084815260200190815260200160002060000160008373ffffffffffffffffffffffffffffffffffffffff1673ffffffffffffffffffffffffffffffffffffffff16815260200190815260200160002060009054906101000a900460ff16905092915050565b82805462001022906200137b565b90600052602060002090601f01602090048101928262001046576000855562001092565b82601f106200106157805160ff191683800117855562001092565b8280016001018555821562001092579182015b828111156200109157825182559160200191906001019062001074565b5b509050620010a19190620010a5565b5090565b5b80821115620010c0576000816000905550600101620010a6565b5090565b6000620010db620010d584620012f7565b620012c3565b905082815260208101848484011115620010f457600080fd5b6200110184828562001345565b509392505050565b600082601f8301126200111b57600080fd5b81516200112d848260208601620010c4565b91505092915050565b60008151905062001147816200140f565b92915050565b6000806000606084860312156200116357600080fd5b600084015167ffffffffffffffff8111156200117e57600080fd5b6200118c8682870162001109565b935050602084015167ffffffffffffffff811115620011aa57600080fd5b620011b88682870162001109565b9250506040620011cb8682870162001136565b9150509250925092565b6000620011e46015836200132a565b91507f45524332304361707065643a20636170206973203000000000000000000000006000830152602082019050919050565b600062001226602e836200132a565b91507f496e697469616c697a61626c653a20636f6e747261637420697320616c72656160008301527f647920696e697469616c697a65640000000000000000000000000000000000006020830152604082019050919050565b600060208201905081810360008301526200129a81620011d5565b9050919050565b60006020820190508181036000830152620012bc8162001217565b9050919050565b6000604051905081810181811067ffffffffffffffff82111715620012ed57620012ec620013e0565b5b8060405250919050565b600067ffffffffffffffff821115620013155762001314620013e0565b5b601f19601f8301169050602081019050919050565b600082825260208201905092915050565b6000819050919050565b60005b838110156200136557808201518184015260208101905062001348565b8381111562001375576000848401525b50505050565b600060028204905060018216806200139457607f821691505b60208210811415620013ab57620013aa620013b1565b5b50919050565b7f4e487b7100000000000000000000000000000000000000000000000000000000600052602260045260246000fd5b7f4e487b7100000000000000000000000000000000000000000000000000000000600052604160045260246000fd5b6200141a816200133b565b81146200142657600080fd5b50565b612c0e80620014396000396000f3fe608060405234801561001057600080fd5b506004361061018e5760003560e01c806342966c68116100de57806391d1485411610097578063a457c2d711610071578063a457c2d714610473578063a9059cbb146104a3578063d547741f146104d3578063dd62ed3e146104ef5761018e565b806391d148541461040757806395d89b4114610437578063a217fddf146104555761018e565b806342966c68146103595780635c975abb146103755780636c11c21c1461039357806370a08231146103af57806373f42561146103df5780638456cb59146103fd5761018e565b80632f2ff15d1161014b57806336568abe1161012557806336568abe146102e757806339509351146103035780633f4ba83a1461033357806340c10f191461033d5761018e565b80632f2ff15d1461028f578063313ce567146102ab578063355274ea146102c95761018e565b806301ffc9a71461019357806306fdde03146101c3578063095ea7b3146101e157806318160ddd1461021157806323b872dd1461022f578063248a9ca31461025f575b600080fd5b6101ad60048036038101906101a89190611e56565b61051f565b6040516101ba919061263a565b60405180910390f35b6101cb610599565b6040516101d89190612670565b60405180910390f35b6101fb60048036038101906101f69190611db5565b61062b565b604051610208919061263a565b60405180910390f35b610219610649565b60405161022691906128b2565b60405180910390f35b61024960048036038101906102449190611d66565b610653565b604051610256919061263a565b60405180910390f35b61027960048036038101906102749190611df1565b61074b565b6040516102869190612655565b60405180910390f35b6102a960048036038101906102a49190611e1a565b61076b565b005b6102b3610794565b6040516102c091906128cd565b60405180910390f35b6102d161079d565b6040516102de91906128b2565b60405180910390f35b61030160048036038101906102fc9190611e1a565b6107a7565b005b61031d60048036038101906103189190611db5565b61082a565b60405161032a919061263a565b60405180910390f35b61033b6108d6565b005b61035760048036038101906103529190611db5565b6108f5565b005b610373600480360381019061036e9190611e7f565b610919565b005b61037d61092d565b60405161038a919061263a565b60405180910390f35b6103ad60048036038101906103a89190611d01565b610944565b005b6103c960048036038101906103c49190611d01565b610969565b6040516103d691906128b2565b60405180910390f35b6103e76109b2565b6040516103f491906128b2565b60405180910390f35b6104056109bd565b005b610421600480360381019061041c9190611e1a565b6109dc565b60405161042e919061263a565b60405180910390f35b61043f610a47565b60405161044c9190612670565b60405180910390f35b61045d610ad9565b60405161046a9190612655565b60405180910390f35b61048d60048036038101906104889190611db5565b610ae0565b60405161049a919061263a565b60405180910390f35b6104bd60048036038101906104b89190611db5565b610bcb565b6040516104ca919061263a565b60405180910390f35b6104ed60048036038101906104e89190611e1a565b610be9565b005b61050960048036038101906105049190611d2a565b610c12565b60405161051691906128b2565b60405180910390f35b60007f7965db0b000000000000000000000000000000000000000000000000000000007bffffffffffffffffffffffffffffffffffffffffffffffffffffffff1916827bffffffffffffffffffffffffffffffffffffffffffffffffffffffff19161480610592575061059182610c99565b5b9050919050565b606060cd80546105a890612adb565b80601f01602080910402602001604051908101604052809291908181526020018280546105d490612adb565b80156106215780601f106105f657610100808354040283529160200191610621565b820191906000526020600020905b81548152906001019060200180831161060457829003601f168201915b5050505050905090565b600061063f610638610d03565b8484610d0b565b6001905092915050565b600060cc54905090565b6000610660848484610ed6565b600060cb60008673ffffffffffffffffffffffffffffffffffffffff1673ffffffffffffffffffffffffffffffffffffffff16815260200190815260200160002060006106ab610d03565b73ffffffffffffffffffffffffffffffffffffffff1673ffffffffffffffffffffffffffffffffffffffff1681526020019081526020016000205490508281101561072b576040517f08c379a000000000000000000000000000000000000000000000000000000000815260040161072290612792565b60405180910390fd5b61073f85610737610d03565b858403610d0b565b60019150509392505050565b600060656000838152602001908152602001600020600101549050919050565b6107748261074b565b61078581610780610d03565b61115a565b61078f83836111f7565b505050565b60006012905090565b600060fc54905090565b6107af610d03565b73ffffffffffffffffffffffffffffffffffffffff168173ffffffffffffffffffffffffffffffffffffffff161461081c576040517f08c379a000000000000000000000000000000000000000000000000000000000815260040161081390612872565b60405180910390fd5b61082682826112d8565b5050565b60006108cc610837610d03565b848460cb6000610845610d03565b73ffffffffffffffffffffffffffffffffffffffff1673ffffffffffffffffffffffffffffffffffffffff16815260200190815260200160002060008873ffffffffffffffffffffffffffffffffffffffff1673ffffffffffffffffffffffffffffffffffffffff168152602001908152602001600020546108c7919061290f565b610d0b565b6001905092915050565b60c9546108ea816108e5610d03565b61115a565b6108f26113ba565b50565b6000801b61090a81610905610d03565b61115a565b610914838361145c565b505050565b61092a610924610d03565b826114d4565b50565b6000609760009054906101000a900460ff16905090565b6000801b61095981610954610d03565b61115a565b61096560c95483611554565b5050565b600060ca60008373ffffffffffffffffffffffffffffffffffffffff1673ffffffffffffffffffffffffffffffffffffffff168152602001908152602001600020549050919050565b600061012f54905090565b60c9546109d1816109cc610d03565b61115a565b6109d9611562565b50565b60006065600084815260200190815260200160002060000160008373ffffffffffffffffffffffffffffffffffffffff1673ffffffffffffffffffffffffffffffffffffffff16815260200190815260200160002060009054906101000a900460ff16905092915050565b606060ce8054610a5690612adb565b80601f0160208091040260200160405190810160405280929190818152602001828054610a8290612adb565b8015610acf5780601f10610aa457610100808354040283529160200191610acf565b820191906000526020600020905b815481529060010190602001808311610ab257829003601f168201915b5050505050905090565b6000801b81565b60008060cb6000610aef610d03565b73ffffffffffffffffffffffffffffffffffffffff1673ffffffffffffffffffffffffffffffffffffffff16815260200190815260200160002060008573ffffffffffffffffffffffffffffffffffffffff1673ffffffffffffffffffffffffffffffffffffffff16815260200190815260200160002054905082811015610bac576040517f08c379a0000000000000000000000000000000000000000000000000000000008152600401610ba390612852565b60405180910390fd5b610bc0610bb7610d03565b85858403610d0b565b600191505092915050565b6000610bdf610bd8610d03565b8484610ed6565b6001905092915050565b610bf28261074b565b610c0381610bfe610d03565b61115a565b610c0d83836112d8565b505050565b600060cb60008473ffffffffffffffffffffffffffffffffffffffff1673ffffffffffffffffffffffffffffffffffffffff16815260200190815260200160002060008373ffffffffffffffffffffffffffffffffffffffff1673ffffffffffffffffffffffffffffffffffffffff16815260200190815260200160002054905092915050565b60007f01ffc9a7000000000000000000000000000000000000000000000000000000007bffffffffffffffffffffffffffffffffffffffffffffffffffffffff1916827bffffffffffffffffffffffffffffffffffffffffffffffffffffffff1916149050919050565b600033905090565b600073ffffffffffffffffffffffffffffffffffffffff168373ffffffffffffffffffffffffffffffffffffffff161415610d7b576040517f08c379a0000000000000000000000000000000000000000000000000000000008152600401610d7290612812565b60405180910390fd5b600073ffffffffffffffffffffffffffffffffffffffff168273ffffffffffffffffffffffffffffffffffffffff161415610deb576040517f08c379a0000000000000000000000000000000000000000000000000000000008152600401610de290612732565b60405180910390fd5b8060cb60008573ffffffffffffffffffffffffffffffffffffffff1673ffffffffffffffffffffffffffffffffffffffff16815260200190815260200160002060008473ffffffffffffffffffffffffffffffffffffffff1673ffffffffffffffffffffffffffffffffffffffff168152602001908152602001600020819055508173ffffffffffffffffffffffffffffffffffffffff168373ffffffffffffffffffffffffffffffffffffffff167f8c5be1e5ebec7d5bd14f71427d1e84f3dd0314c0f7b2291e5b200ac8c7c3b92583604051610ec991906128b2565b60405180910390a3505050565b600073ffffffffffffffffffffffffffffffffffffffff168373ffffffffffffffffffffffffffffffffffffffff161415610f46576040517f08c379a0000000000000000000000000000000000000000000000000000000008152600401610f3d906127d2565b60405180910390fd5b600073ffffffffffffffffffffffffffffffffffffffff168273ffffffffffffffffffffffffffffffffffffffff161415610fb6576040517f08c379a0000000000000000000000000000000000000000000000000000000008152600401610fad906126b2565b60405180910390fd5b610fc1838383611605565b600060ca60008573ffffffffffffffffffffffffffffffffffffffff1673ffffffffffffffffffffffffffffffffffffffff16815260200190815260200160002054905081811015611048576040517f08c379a000000000000000000000000000000000000000000000000000000000815260040161103f90612752565b60405180910390fd5b81810360ca60008673ffffffffffffffffffffffffffffffffffffffff1673ffffffffffffffffffffffffffffffffffffffff168152602001908152602001600020819055508160ca60008573ffffffffffffffffffffffffffffffffffffffff1673ffffffffffffffffffffffffffffffffffffffff16815260200190815260200160002060008282546110dd919061290f565b925050819055508273ffffffffffffffffffffffffffffffffffffffff168473ffffffffffffffffffffffffffffffffffffffff167fddf252ad1be2c89b69c2b068fc378daa952ba7f163c4a11628f55a4df523b3ef8460405161114191906128b2565b60405180910390a361115484848461160a565b50505050565b61116482826109dc565b6111f3576111898173ffffffffffffffffffffffffffffffffffffffff16601461160f565b6111978360001c602061160f565b6040516020016111a89291906125e5565b6040516020818303038152906040526040517f08c379a00000000000000000000000000000000000000000000000000000000081526004016111ea9190612670565b60405180910390fd5b5050565b61120182826109dc565b6112d45760016065600084815260200190815260200160002060000160008373ffffffffffffffffffffffffffffffffffffffff1673ffffffffffffffffffffffffffffffffffffffff16815260200190815260200160002060006101000a81548160ff021916908315150217905550611279610d03565b73ffffffffffffffffffffffffffffffffffffffff168173ffffffffffffffffffffffffffffffffffffffff16837f2f8788117e7eff1d82e926ec794901d17c78024a50270940304540a733656f0d60405160405180910390a45b5050565b6112e282826109dc565b156113b65760006065600084815260200190815260200160002060000160008373ffffffffffffffffffffffffffffffffffffffff1673ffffffffffffffffffffffffffffffffffffffff16815260200190815260200160002060006101000a81548160ff02191690831515021790555061135b610d03565b73ffffffffffffffffffffffffffffffffffffffff168173ffffffffffffffffffffffffffffffffffffffff16837ff6391f5c32d9c69d2a47ea670b442974b53935d1edc7fd64eb21e047a839171b60405160405180910390a45b5050565b6113c261092d565b611401576040517f08c379a00000000000000000000000000000000000000000000000000000000081526004016113f8906126d2565b60405180910390fd5b6000609760006101000a81548160ff0219169083151502179055507f5db9ee0a495bf2e6ff9c91a7834c1ba4fdd244a5e8aa4e537bd38aeae4b073aa611445610d03565b604051611452919061261f565b60405180910390a1565b61146461079d565b8161012f54611471610649565b61147b919061290f565b611485919061290f565b11156114c6576040517f08c379a00000000000000000000000000000000000000000000000000000000081526004016114bd90612832565b60405180910390fd5b6114d08282611909565b5050565b8061012f546114e1610649565b6114eb91906129bf565b101561152c576040517f08c379a000000000000000000000000000000000000000000000000000000000815260040161152390612712565b60405180910390fd5b8061012f600082825461153f919061290f565b925050819055506115508282611973565b5050565b61155e82826111f7565b5050565b61156a61092d565b156115aa576040517f08c379a00000000000000000000000000000000000000000000000000000000081526004016115a190612772565b60405180910390fd5b6001609760006101000a81548160ff0219169083151502179055507f62e78cea01bee320cd4e420270b5ea74000d11b0c9f74754ebdbfc544b05a2586115ee610d03565b6040516115fb919061261f565b60405180910390a1565b505050565b505050565b6060600060028360026116229190612965565b61162c919061290f565b67ffffffffffffffff81111561166b577f4e487b7100000000000000000000000000000000000000000000000000000000600052604160045260246000fd5b6040519080825280601f01601f19166020018201604052801561169d5781602001600182028036833780820191505090505b5090507f3000000000000000000000000000000000000000000000000000000000000000816000815181106116fb577f4e487b7100000000000000000000000000000000000000000000000000000000600052603260045260246000fd5b60200101907effffffffffffffffffffffffffffffffffffffffffffffffffffffffffffff1916908160001a9053507f780000000000000000000000000000000000000000000000000000000000000081600181518110611785577f4e487b7100000000000000000000000000000000000000000000000000000000600052603260045260246000fd5b60200101907effffffffffffffffffffffffffffffffffffffffffffffffffffffffffffff1916908160001a905350600060018460026117c59190612965565b6117cf919061290f565b90505b60018111156118bb577f3031323334353637383961626364656600000000000000000000000000000000600f861660108110611837577f4e487b7100000000000000000000000000000000000000000000000000000000600052603260045260246000fd5b1a60f81b828281518110611874577f4e487b7100000000000000000000000000000000000000000000000000000000600052603260045260246000fd5b60200101907effffffffffffffffffffffffffffffffffffffffffffffffffffffffffffff1916908160001a905350600485901c9450806118b490612ab1565b90506117d2565b50600084146118ff576040517f08c379a00000000000000000000000000000000000000000000000000000000081526004016118f690612692565b60405180910390fd5b8091505092915050565b61191161079d565b8161191a610649565b611924919061290f565b1115611965576040517f08c379a000000000000000000000000000000000000000000000000000000000815260040161195c906127f2565b60405180910390fd5b61196f8282611b4c565b5050565b600073ffffffffffffffffffffffffffffffffffffffff168273ffffffffffffffffffffffffffffffffffffffff1614156119e3576040517f08c379a00000000000000000000000000000000000000000000000000000000081526004016119da906127b2565b60405180910390fd5b6119ef82600083611605565b600060ca60008473ffffffffffffffffffffffffffffffffffffffff1673ffffffffffffffffffffffffffffffffffffffff16815260200190815260200160002054905081811015611a76576040517f08c379a0000000000000000000000000000000000000000000000000000000008152600401611a6d906126f2565b60405180910390fd5b81810360ca60008573ffffffffffffffffffffffffffffffffffffffff1673ffffffffffffffffffffffffffffffffffffffff168152602001908152602001600020819055508160cc6000828254611ace91906129bf565b92505081905550600073ffffffffffffffffffffffffffffffffffffffff168373ffffffffffffffffffffffffffffffffffffffff167fddf252ad1be2c89b69c2b068fc378daa952ba7f163c4a11628f55a4df523b3ef84604051611b3391906128b2565b60405180910390a3611b478360008461160a565b505050565b600073ffffffffffffffffffffffffffffffffffffffff168273ffffffffffffffffffffffffffffffffffffffff161415611bbc576040517f08c379a0000000000000000000000000000000000000000000000000000000008152600401611bb390612892565b60405180910390fd5b611bc860008383611605565b8060cc6000828254611bda919061290f565b925050819055508060ca60008473ffffffffffffffffffffffffffffffffffffffff1673ffffffffffffffffffffffffffffffffffffffff1681526020019081526020016000206000828254611c30919061290f565b925050819055508173ffffffffffffffffffffffffffffffffffffffff16600073ffffffffffffffffffffffffffffffffffffffff167fddf252ad1be2c89b69c2b068fc378daa952ba7f163c4a11628f55a4df523b3ef83604051611c9591906128b2565b60405180910390a3611ca96000838361160a565b5050565b600081359050611cbc81612b7c565b92915050565b600081359050611cd181612b93565b92915050565b600081359050611ce681612baa565b92915050565b600081359050611cfb81612bc1565b92915050565b600060208284031215611d1357600080fd5b6000611d2184828501611cad565b91505092915050565b60008060408385031215611d3d57600080fd5b6000611d4b85828601611cad565b9250506020611d5c85828601611cad565b9150509250929050565b600080600060608486031215611d7b57600080fd5b6000611d8986828701611cad565b9350506020611d9a86828701611cad565b9250506040611dab86828701611cec565b9150509250925092565b60008060408385031215611dc857600080fd5b6000611dd685828601611cad565b9250506020611de785828601611cec565b9150509250929050565b600060208284031215611e0357600080fd5b6000611e1184828501611cc2565b91505092915050565b60008060408385031215611e2d57600080fd5b6000611e3b85828601611cc2565b9250506020611e4c85828601611cad565b9150509250929050565b600060208284031215611e6857600080fd5b6000611e7684828501611cd7565b91505092915050565b600060208284031215611e9157600080fd5b6000611e9f84828501611cec565b91505092915050565b611eb1816129f3565b82525050565b611ec081612a05565b82525050565b611ecf81612a11565b82525050565b6000611ee0826128e8565b611eea81856128f3565b9350611efa818560208601612a7e565b611f0381612b6b565b840191505092915050565b6000611f19826128e8565b611f238185612904565b9350611f33818560208601612a7e565b80840191505092915050565b6000611f4c6020836128f3565b91507f537472696e67733a20686578206c656e67746820696e73756666696369656e746000830152602082019050919050565b6000611f8c6023836128f3565b91507f45524332303a207472616e7366657220746f20746865207a65726f206164647260008301527f65737300000000000000000000000000000000000000000000000000000000006020830152604082019050919050565b6000611ff26014836128f3565b91507f5061757361626c653a206e6f74207061757365640000000000000000000000006000830152602082019050919050565b60006120326022836128f3565b91507f45524332303a206275726e20616d6f756e7420657863656564732062616c616e60008301527f63650000000000000000000000000000000000000000000000000000000000006020830152604082019050919050565b60006120986028836128f3565b91507f52656450696c6c45524332303a206275726e20616d6f756e742065786365656460008301527f7320737570706c790000000000000000000000000000000000000000000000006020830152604082019050919050565b60006120fe6022836128f3565b91507f45524332303a20617070726f766520746f20746865207a65726f20616464726560008301527f73730000000000000000000000000000000000000000000000000000000000006020830152604082019050919050565b60006121646026836128f3565b91507f45524332303a207472616e7366657220616d6f756e742065786365656473206260008301527f616c616e636500000000000000000000000000000000000000000000000000006020830152604082019050919050565b60006121ca6010836128f3565b91507f5061757361626c653a20706175736564000000000000000000000000000000006000830152602082019050919050565b600061220a6028836128f3565b91507f45524332303a207472616e7366657220616d6f756e742065786365656473206160008301527f6c6c6f77616e63650000000000000000000000000000000000000000000000006020830152604082019050919050565b60006122706021836128f3565b91507f45524332303a206275726e2066726f6d20746865207a65726f2061646472657360008301527f73000000000000000000000000000000000000000000000000000000000000006020830152604082019050919050565b60006122d66025836128f3565b91507f45524332303a207472616e736665722066726f6d20746865207a65726f20616460008301527f64726573730000000000000000000000000000000000000000000000000000006020830152604082019050919050565b600061233c6019836128f3565b91507f45524332304361707065643a20636170206578636565646564000000000000006000830152602082019050919050565b600061237c6024836128f3565b91507f45524332303a20617070726f76652066726f6d20746865207a65726f2061646460008301527f72657373000000000000000000000000000000000000000000000000000000006020830152604082019050919050565b60006123e26025836128f3565b91507f52656450696c6c45524332303a206d696e7420616d6f756e742065786365656460008301527f73206361700000000000000000000000000000000000000000000000000000006020830152604082019050919050565b6000612448601783612904565b91507f416363657373436f6e74726f6c3a206163636f756e74200000000000000000006000830152601782019050919050565b60006124886025836128f3565b91507f45524332303a2064656372656173656420616c6c6f77616e63652062656c6f7760008301527f207a65726f0000000000000000000000000000000000000000000000000000006020830152604082019050919050565b60006124ee601183612904565b91507f206973206d697373696e6720726f6c65200000000000000000000000000000006000830152601182019050919050565b600061252e602f836128f3565b91507f416363657373436f6e74726f6c3a2063616e206f6e6c792072656e6f756e636560008301527f20726f6c657320666f722073656c6600000000000000000000000000000000006020830152604082019050919050565b6000612594601f836128f3565b91507f45524332303a206d696e7420746f20746865207a65726f2061646472657373006000830152602082019050919050565b6125d081612a67565b82525050565b6125df81612a71565b82525050565b60006125f08261243b565b91506125fc8285611f0e565b9150612607826124e1565b91506126138284611f0e565b91508190509392505050565b60006020820190506126346000830184611ea8565b92915050565b600060208201905061264f6000830184611eb7565b92915050565b600060208201905061266a6000830184611ec6565b92915050565b6000602082019050818103600083015261268a8184611ed5565b905092915050565b600060208201905081810360008301526126ab81611f3f565b9050919050565b600060208201905081810360008301526126cb81611f7f565b9050919050565b600060208201905081810360008301526126eb81611fe5565b9050919050565b6000602082019050818103600083015261270b81612025565b9050919050565b6000602082019050818103600083015261272b8161208b565b9050919050565b6000602082019050818103600083015261274b816120f1565b9050919050565b6000602082019050818103600083015261276b81612157565b9050919050565b6000602082019050818103600083015261278b816121bd565b9050919050565b600060208201905081810360008301526127ab816121fd565b9050919050565b600060208201905081810360008301526127cb81612263565b9050919050565b600060208201905081810360008301526127eb816122c9565b9050919050565b6000602082019050818103600083015261280b8161232f565b9050919050565b6000602082019050818103600083015261282b8161236f565b9050919050565b6000602082019050818103600083015261284b816123d5565b9050919050565b6000602082019050818103600083015261286b8161247b565b9050919050565b6000602082019050818103600083015261288b81612521565b9050919050565b600060208201905081810360008301526128ab81612587565b9050919050565b60006020820190506128c760008301846125c7565b92915050565b60006020820190506128e260008301846125d6565b92915050565b600081519050919050565b600082825260208201905092915050565b600081905092915050565b600061291a82612a67565b915061292583612a67565b9250827fffffffffffffffffffffffffffffffffffffffffffffffffffffffffffffffff0382111561295a57612959612b0d565b5b828201905092915050565b600061297082612a67565b915061297b83612a67565b9250817fffffffffffffffffffffffffffffffffffffffffffffffffffffffffffffffff04831182151516156129b4576129b3612b0d565b5b828202905092915050565b60006129ca82612a67565b91506129d583612a67565b9250828210156129e8576129e7612b0d565b5b828203905092915050565b60006129fe82612a47565b9050919050565b60008115159050919050565b6000819050919050565b60007fffffffff0000000000000000000000000000000000000000000000000000000082169050919050565b600073ffffffffffffffffffffffffffffffffffffffff82169050919050565b6000819050919050565b600060ff82169050919050565b60005b83811015612a9c578082015181840152602081019050612a81565b83811115612aab576000848401525b50505050565b6000612abc82612a67565b91506000821415612ad057612acf612b0d565b5b600182039050919050565b60006002820490506001821680612af357607f821691505b60208210811415612b0757612b06612b3c565b5b50919050565b7f4e487b7100000000000000000000000000000000000000000000000000000000600052601160045260246000fd5b7f4e487b7100000000000000000000000000000000000000000000000000000000600052602260045260246000fd5b6000601f19601f8301169050919050565b612b85816129f3565b8114612b9057600080fd5b50565b612b9c81612a11565b8114612ba757600080fd5b50565b612bb381612a1b565b8114612bbe57600080fd5b50565b612bca81612a67565b8114612bd557600080fd5b5056fea2646970667358221220b308d7af1f4061be868ca673ea20a4bbc3686d69a29b2320f14d0079bece526c64736f6c63430008000033",
  "linkReferences": {},
  "deployedLinkReferences": {}
}