{
  "_format": "hh-sol-artifact-1",
  "contractName": "DistributionVault",
  "sourceName": "contracts/DistributionVault.sol",
  "abi": [
    {
      "anonymous": false,
      "inputs": [
        {
          "indexed": false,
          "internalType": "address",
          "name": "stakeholder",
          "type": "address"
        },
        {
          "indexed": false,
          "internalType": "string",
          "name": "name",
          "type": "string"
        },
        {
          "indexed": false,
          "internalType": "uint256",
          "name": "allocated",
          "type": "uint256"
        },
        {
          "indexed": false,
          "internalType": "uint256",
          "name": "startBlock",
          "type": "uint256"
        },
        {
          "indexed": false,
          "internalType": "uint256",
          "name": "endBlock",
          "type": "uint256"
        }
      ],
      "name": "AddStakeholder",
      "type": "event"
    },
    {
      "anonymous": false,
      "inputs": [
        {
          "indexed": false,
          "internalType": "address",
          "name": "stakeholder",
          "type": "address"
        },
        {
          "indexed": false,
          "internalType": "uint256",
          "name": "amount",
          "type": "uint256"
        }
      ],
      "name": "Claim",
      "type": "event"
    },
    {
      "anonymous": false,
      "inputs": [
        {
          "indexed": false,
          "internalType": "address",
          "name": "stakeholder",
          "type": "address"
        },
        {
          "indexed": false,
          "internalType": "address",
          "name": "account",
          "type": "address"
        },
        {
          "indexed": false,
          "internalType": "uint256",
          "name": "amount",
          "type": "uint256"
        },
        {
          "indexed": false,
          "internalType": "uint256",
          "name": "distributed",
          "type": "uint256"
        }
      ],
      "name": "Distribute",
      "type": "event"
    },
    {
      "anonymous": false,
      "inputs": [
        {
          "indexed": false,
          "internalType": "address",
          "name": "from",
          "type": "address"
        },
        {
          "indexed": false,
          "internalType": "address",
          "name": "to",
          "type": "address"
        }
      ],
      "name": "MigrateStakeholder",
      "type": "event"
    },
    {
      "anonymous": false,
      "inputs": [
        {
          "indexed": false,
          "internalType": "address",
          "name": "account",
          "type": "address"
        }
      ],
      "name": "Paused",
      "type": "event"
    },
    {
      "anonymous": false,
      "inputs": [
        {
          "indexed": true,
          "internalType": "bytes32",
          "name": "role",
          "type": "bytes32"
        },
        {
          "indexed": true,
          "internalType": "bytes32",
          "name": "previousAdminRole",
          "type": "bytes32"
        },
        {
          "indexed": true,
          "internalType": "bytes32",
          "name": "newAdminRole",
          "type": "bytes32"
        }
      ],
      "name": "RoleAdminChanged",
      "type": "event"
    },
    {
      "anonymous": false,
      "inputs": [
        {
          "indexed": true,
          "internalType": "bytes32",
          "name": "role",
          "type": "bytes32"
        },
        {
          "indexed": true,
          "internalType": "address",
          "name": "account",
          "type": "address"
        },
        {
          "indexed": true,
          "internalType": "address",
          "name": "sender",
          "type": "address"
        }
      ],
      "name": "RoleGranted",
      "type": "event"
    },
    {
      "anonymous": false,
      "inputs": [
        {
          "indexed": true,
          "internalType": "bytes32",
          "name": "role",
          "type": "bytes32"
        },
        {
          "indexed": true,
          "internalType": "address",
          "name": "account",
          "type": "address"
        },
        {
          "indexed": true,
          "internalType": "address",
          "name": "sender",
          "type": "address"
        }
      ],
      "name": "RoleRevoked",
      "type": "event"
    },
    {
      "anonymous": false,
      "inputs": [
        {
          "indexed": false,
          "internalType": "address",
          "name": "account",
          "type": "address"
        }
      ],
      "name": "Unpaused",
      "type": "event"
    },
    {
      "anonymous": false,
      "inputs": [
        {
          "indexed": false,
          "internalType": "address",
          "name": "stakeholder",
          "type": "address"
        },
        {
          "indexed": false,
          "internalType": "uint256",
          "name": "released",
          "type": "uint256"
        }
      ],
      "name": "Update",
      "type": "event"
    },
    {
      "inputs": [],
      "name": "DEFAULT_ADMIN_ROLE",
      "outputs": [
        {
          "internalType": "bytes32",
          "name": "",
          "type": "bytes32"
        }
      ],
      "stateMutability": "view",
      "type": "function"
    },
    {
      "inputs": [
        {
          "internalType": "address",
          "name": "addr_",
          "type": "address"
        },
        {
          "internalType": "string",
          "name": "name_",
          "type": "string"
        },
        {
          "internalType": "uint256",
          "name": "allocated_",
          "type": "uint256"
        },
        {
          "internalType": "uint256",
          "name": "startBlocks_",
          "type": "uint256"
        },
        {
          "internalType": "uint256",
          "name": "endBlocks_",
          "type": "uint256"
        }
      ],
      "name": "addStakeholder",
      "outputs": [],
      "stateMutability": "nonpayable",
      "type": "function"
    },
    {
      "inputs": [
        {
          "internalType": "address",
          "name": "addr_",
          "type": "address"
        }
      ],
      "name": "allocated",
      "outputs": [
        {
          "internalType": "uint256",
          "name": "",
          "type": "uint256"
        }
      ],
      "stateMutability": "view",
      "type": "function"
    },
    {
      "inputs": [
        {
          "internalType": "address",
          "name": "addr_",
          "type": "address"
        }
      ],
      "name": "available",
      "outputs": [
        {
          "internalType": "uint256",
          "name": "",
          "type": "uint256"
        }
      ],
      "stateMutability": "view",
      "type": "function"
    },
    {
      "inputs": [],
      "name": "claim",
      "outputs": [],
      "stateMutability": "nonpayable",
      "type": "function"
    },
    {
      "inputs": [
        {
          "internalType": "address",
          "name": "account",
          "type": "address"
        },
        {
          "internalType": "uint256",
          "name": "amount",
          "type": "uint256"
        }
      ],
      "name": "distributeTokens",
      "outputs": [],
      "stateMutability": "nonpayable",
      "type": "function"
    },
    {
      "inputs": [
        {
          "internalType": "address",
          "name": "addr_",
          "type": "address"
        }
      ],
      "name": "distributed",
      "outputs": [
        {
          "internalType": "uint256",
          "name": "",
          "type": "uint256"
        }
      ],
      "stateMutability": "view",
      "type": "function"
    },
    {
      "inputs": [
        {
          "internalType": "address",
          "name": "addr_",
          "type": "address"
        }
      ],
      "name": "endBlock",
      "outputs": [
        {
          "internalType": "uint256",
          "name": "",
          "type": "uint256"
        }
      ],
      "stateMutability": "view",
      "type": "function"
    },
    {
      "inputs": [
        {
          "internalType": "bytes32",
          "name": "role",
          "type": "bytes32"
        }
      ],
      "name": "getRoleAdmin",
      "outputs": [
        {
          "internalType": "bytes32",
          "name": "",
          "type": "bytes32"
        }
      ],
      "stateMutability": "view",
      "type": "function"
    },
    {
      "inputs": [
        {
          "internalType": "address",
          "name": "account",
          "type": "address"
        }
      ],
      "name": "grantPauserRole",
      "outputs": [],
      "stateMutability": "nonpayable",
      "type": "function"
    },
    {
      "inputs": [
        {
          "internalType": "bytes32",
          "name": "role",
          "type": "bytes32"
        },
        {
          "internalType": "address",
          "name": "account",
          "type": "address"
        }
      ],
      "name": "grantRole",
      "outputs": [],
      "stateMutability": "nonpayable",
      "type": "function"
    },
    {
      "inputs": [
        {
          "internalType": "bytes32",
          "name": "role",
          "type": "bytes32"
        },
        {
          "internalType": "address",
          "name": "account",
          "type": "address"
        }
      ],
      "name": "hasRole",
      "outputs": [
        {
          "internalType": "bool",
          "name": "",
          "type": "bool"
        }
      ],
      "stateMutability": "view",
      "type": "function"
    },
    {
      "inputs": [
        {
          "internalType": "address",
          "name": "token_",
          "type": "address"
        }
      ],
      "name": "initialize",
      "outputs": [],
      "stateMutability": "nonpayable",
      "type": "function"
    },
    {
      "inputs": [
        {
          "internalType": "address",
          "name": "addr_",
          "type": "address"
        }
      ],
      "name": "isStakeholder",
      "outputs": [
        {
          "internalType": "bool",
          "name": "",
          "type": "bool"
        }
      ],
      "stateMutability": "view",
      "type": "function"
    },
    {
      "inputs": [
        {
          "internalType": "address",
          "name": "addr_",
          "type": "address"
        }
      ],
      "name": "lastUpdate",
      "outputs": [
        {
          "internalType": "uint256",
          "name": "",
          "type": "uint256"
        }
      ],
      "stateMutability": "view",
      "type": "function"
    },
    {
      "inputs": [
        {
          "internalType": "address",
          "name": "from",
          "type": "address"
        },
        {
          "internalType": "address",
          "name": "to",
          "type": "address"
        }
      ],
      "name": "migrateStakeholder",
      "outputs": [],
      "stateMutability": "nonpayable",
      "type": "function"
    },
    {
      "inputs": [],
      "name": "pause",
      "outputs": [],
      "stateMutability": "nonpayable",
      "type": "function"
    },
    {
      "inputs": [],
      "name": "paused",
      "outputs": [
        {
          "internalType": "bool",
          "name": "",
          "type": "bool"
        }
      ],
      "stateMutability": "view",
      "type": "function"
    },
    {
      "inputs": [
        {
          "internalType": "address",
          "name": "addr_",
          "type": "address"
        }
      ],
      "name": "releasePerBlock",
      "outputs": [
        {
          "internalType": "uint256",
          "name": "",
          "type": "uint256"
        }
      ],
      "stateMutability": "view",
      "type": "function"
    },
    {
      "inputs": [
        {
          "internalType": "address",
          "name": "addr_",
          "type": "address"
        }
      ],
      "name": "released",
      "outputs": [
        {
          "internalType": "uint256",
          "name": "",
          "type": "uint256"
        }
      ],
      "stateMutability": "view",
      "type": "function"
    },
    {
      "inputs": [
        {
          "internalType": "bytes32",
          "name": "role",
          "type": "bytes32"
        },
        {
          "internalType": "address",
          "name": "account",
          "type": "address"
        }
      ],
      "name": "renounceRole",
      "outputs": [],
      "stateMutability": "nonpayable",
      "type": "function"
    },
    {
      "inputs": [
        {
          "internalType": "bytes32",
          "name": "role",
          "type": "bytes32"
        },
        {
          "internalType": "address",
          "name": "account",
          "type": "address"
        }
      ],
      "name": "revokeRole",
      "outputs": [],
      "stateMutability": "nonpayable",
      "type": "function"
    },
    {
      "inputs": [
        {
          "internalType": "address",
          "name": "",
          "type": "address"
        }
      ],
      "name": "stakeholders",
      "outputs": [
        {
          "internalType": "string",
          "name": "name",
          "type": "string"
        },
        {
          "internalType": "uint256",
          "name": "allocated",
          "type": "uint256"
        },
        {
          "internalType": "uint256",
          "name": "released",
          "type": "uint256"
        },
        {
          "internalType": "uint256",
          "name": "distributed",
          "type": "uint256"
        },
        {
          "internalType": "uint256",
          "name": "releasePerBlock",
          "type": "uint256"
        },
        {
          "internalType": "uint256",
          "name": "startBlock",
          "type": "uint256"
        },
        {
          "internalType": "uint256",
          "name": "endBlock",
          "type": "uint256"
        },
        {
          "internalType": "uint256",
          "name": "lastUpdate",
          "type": "uint256"
        }
      ],
      "stateMutability": "view",
      "type": "function"
    },
    {
      "inputs": [
        {
          "internalType": "uint256",
          "name": "",
          "type": "uint256"
        }
      ],
      "name": "stakeholdersArray",
      "outputs": [
        {
          "internalType": "address",
          "name": "",
          "type": "address"
        }
      ],
      "stateMutability": "view",
      "type": "function"
    },
    {
      "inputs": [
        {
          "internalType": "address",
          "name": "addr_",
          "type": "address"
        }
      ],
      "name": "startBlock",
      "outputs": [
        {
          "internalType": "uint256",
          "name": "",
          "type": "uint256"
        }
      ],
      "stateMutability": "view",
      "type": "function"
    },
    {
      "inputs": [
        {
          "internalType": "bytes4",
          "name": "interfaceId",
          "type": "bytes4"
        }
      ],
      "name": "supportsInterface",
      "outputs": [
        {
          "internalType": "bool",
          "name": "",
          "type": "bool"
        }
      ],
      "stateMutability": "view",
      "type": "function"
    },
    {
      "inputs": [],
      "name": "token",
      "outputs": [
        {
          "internalType": "address",
          "name": "",
          "type": "address"
        }
      ],
      "stateMutability": "view",
      "type": "function"
    },
    {
      "inputs": [],
      "name": "unpause",
      "outputs": [],
      "stateMutability": "nonpayable",
      "type": "function"
    }
  ],
  "bytecode": "0x60806040527f65d7a28e3265b37a6474929f336521b332c1681b933f6cb9f3376673440d862a60c95534801561003457600080fd5b50613df6806100446000396000f3fe608060405234801561001057600080fd5b50600436106101c45760003560e01c80636c11c21c116100f9578063c07cfca911610097578063d547741f11610071578063d547741f1461052e578063e16880321461054a578063ef037b901461057a578063fc0c546a146105aa576101c4565b8063c07cfca9146104ab578063c4d66de8146104e2578063cb03fb1e146104fe576101c4565b806391d14854116100d357806391d14854146103fd5780639852595c1461042d5780639ecaf2b21461045d578063a217fddf1461048d576101c4565b80636c11c21c146103a75780638456cb59146103c357806384618ddc146103cd576101c4565b80633f4ba83a116101665780634e71d92d116101405780634e71d92d14610333578063578bcf351461033d5780635c975abb1461036d5780635f8f65811461038b576101c4565b80633f4ba83a146102c95780633f697ce9146102d35780634225e5bb14610303576101c4565b8063248a9ca3116101a2578063248a9ca3146102455780632f2ff15d1461027557806336568abe146102915780633c20e63b146102ad576101c4565b806301ffc9a7146101c957806310098ad5146101f9578063158a498814610229575b600080fd5b6101e360048036038101906101de9190613086565b6105c8565b6040516101f091906134ba565b60405180910390f35b610213600480360381019061020e9190612ec5565b610642565b60405161022091906136f7565b60405180910390f35b610243600480360381019061023e9190612fbc565b610667565b005b61025f600480360381019061025a9190613021565b6109dd565b60405161026c91906134d5565b60405180910390f35b61028f600480360381019061028a919061304a565b6109fd565b005b6102ab60048036038101906102a6919061304a565b610a26565b005b6102c760048036038101906102c29190612f2a565b610aa9565b005b6102d1610f42565b005b6102ed60048036038101906102e89190612ec5565b610f61565b6040516102fa91906136f7565b60405180910390f35b61031d60048036038101906103189190612ec5565b610fad565b60405161032a91906136f7565b60405180910390f35b61033b610ff9565b005b61035760048036038101906103529190612ec5565b61101b565b60405161036491906136f7565b60405180910390f35b610375611067565b60405161038291906134ba565b60405180910390f35b6103a560048036038101906103a09190612eee565b61107e565b005b6103c160048036038101906103bc9190612ec5565b6114f5565b005b6103cb61151a565b005b6103e760048036038101906103e29190612ec5565b611539565b6040516103f491906136f7565b60405180910390f35b6104176004803603810190610412919061304a565b611585565b60405161042491906134ba565b60405180910390f35b61044760048036038101906104429190612ec5565b6115f0565b60405161045491906136f7565b60405180910390f35b61047760048036038101906104729190612ec5565b61177d565b60405161048491906136f7565b60405180910390f35b6104956117c9565b6040516104a291906134d5565b60405180910390f35b6104c560048036038101906104c09190612ec5565b6117d0565b6040516104d9989796959493929190613512565b60405180910390f35b6104fc60048036038101906104f79190612ec5565b6118a0565b005b61051860048036038101906105139190612ec5565b6118ac565b60405161052591906136f7565b60405180910390f35b6105486004803603810190610543919061304a565b6118f8565b005b610564600480360381019061055f91906130af565b611921565b60405161057191906133ac565b60405180910390f35b610594600480360381019061058f9190612ec5565b611960565b6040516105a191906134ba565b60405180910390f35b6105b26119ae565b6040516105bf91906133ac565b60405180910390f35b60007f7965db0b000000000000000000000000000000000000000000000000000000007bffffffffffffffffffffffffffffffffffffffffffffffffffffffff1916827bffffffffffffffffffffffffffffffffffffffffffffffffffffffff1916148061063b575061063a826119d4565b5b9050919050565b600061064d8261101b565b610656836115f0565b610660919061381a565b9050919050565b61066f611067565b156106af576040517f08c379a00000000000000000000000000000000000000000000000000000000081526004016106a6906135f7565b60405180910390fd5b6106b7611a3e565b600060cb60008373ffffffffffffffffffffffffffffffffffffffff1673ffffffffffffffffffffffffffffffffffffffff16815260200190815260200160002090506000816001015411610741576040517f08c379a000000000000000000000000000000000000000000000000000000000815260040161073890613657565b60405180910390fd5b61074a826115f0565b81600201819055504381600701819055506000831161079e576040517f08c379a000000000000000000000000000000000000000000000000000000000815260040161079590613697565b60405180910390fd5b600060ca60009054906101000a900473ffffffffffffffffffffffffffffffffffffffff16905060006107d76107d2611a3e565b610642565b90508481101561081c576040517f08c379a000000000000000000000000000000000000000000000000000000000815260040161081390613677565b60405180910390fd5b8460cb6000610829611a3e565b73ffffffffffffffffffffffffffffffffffffffff1673ffffffffffffffffffffffffffffffffffffffff16815260200190815260200160002060030160008282546108759190613739565b925050819055508173ffffffffffffffffffffffffffffffffffffffff1663a9059cbb87876040518363ffffffff1660e01b81526004016108b7929190613491565b602060405180830381600087803b1580156108d157600080fd5b505af11580156108e5573d6000803e3d6000fd5b505050506040513d601f19601f820116820180604052508101906109099190612ff8565b610948576040517f08c379a000000000000000000000000000000000000000000000000000000000815260040161093f90613637565b60405180910390fd5b7fcc27ae92d0cb1b1cee817e78e1fd2d4aaf4b6fceecf8400f074698578a83c9be610971611a3e565b878760cb600061097f611a3e565b73ffffffffffffffffffffffffffffffffffffffff1673ffffffffffffffffffffffffffffffffffffffff168152602001908152602001600020600301546040516109cd94939291906133f0565b60405180910390a1505050505050565b600060656000838152602001908152602001600020600101549050919050565b610a06826109dd565b610a1781610a12611a3e565b611a46565b610a218383611ae3565b505050565b610a2e611a3e565b73ffffffffffffffffffffffffffffffffffffffff168173ffffffffffffffffffffffffffffffffffffffff1614610a9b576040517f08c379a0000000000000000000000000000000000000000000000000000000008152600401610a92906136b7565b60405180910390fd5b610aa58282611bc4565b5050565b6000801b610abe81610ab9611a3e565b611a46565b828211610b00576040517f08c379a0000000000000000000000000000000000000000000000000000000008152600401610af7906135d7565b60405180910390fd5b858560cb60008a73ffffffffffffffffffffffffffffffffffffffff1673ffffffffffffffffffffffffffffffffffffffff1681526020019081526020016000206000019190610b51929190612c5c565b508360cb60008973ffffffffffffffffffffffffffffffffffffffff1673ffffffffffffffffffffffffffffffffffffffff16815260200190815260200160002060010181905550600060cb60008973ffffffffffffffffffffffffffffffffffffffff1673ffffffffffffffffffffffffffffffffffffffff16815260200190815260200160002060020181905550600060cb60008973ffffffffffffffffffffffffffffffffffffffff1673ffffffffffffffffffffffffffffffffffffffff168152602001908152602001600020600301819055508282610c35919061381a565b84610c40919061378f565b60cb60008973ffffffffffffffffffffffffffffffffffffffff1673ffffffffffffffffffffffffffffffffffffffff168152602001908152602001600020600401819055508243610c929190613739565b60cb60008973ffffffffffffffffffffffffffffffffffffffff1673ffffffffffffffffffffffffffffffffffffffff168152602001908152602001600020600501819055508143610ce49190613739565b60cb60008973ffffffffffffffffffffffffffffffffffffffff1673ffffffffffffffffffffffffffffffffffffffff168152602001908152602001600020600601819055508243610d369190613739565b60cb60008973ffffffffffffffffffffffffffffffffffffffff1673ffffffffffffffffffffffffffffffffffffffff1681526020019081526020016000206007018190555060cc879080600181540180825580915050600190039060005260206000200160009091909190916101000a81548173ffffffffffffffffffffffffffffffffffffffff021916908373ffffffffffffffffffffffffffffffffffffffff160217905550600060ca60009054906101000a900473ffffffffffffffffffffffffffffffffffffffff1690508073ffffffffffffffffffffffffffffffffffffffff166340c10f1930876040518363ffffffff1660e01b8152600401610e41929190613491565b600060405180830381600087803b158015610e5b57600080fd5b505af1158015610e6f573d6000803e3d6000fd5b505050507f0952657fcdc89deb1828a23578e3ed7da8ae55a54c0c3ca7b8b83c6d41c0ab788888888860cb60008e73ffffffffffffffffffffffffffffffffffffffff1673ffffffffffffffffffffffffffffffffffffffff1681526020019081526020016000206005015460cb60008f73ffffffffffffffffffffffffffffffffffffffff1673ffffffffffffffffffffffffffffffffffffffff16815260200190815260200160002060060154604051610f3096959493929190613435565b60405180910390a15050505050505050565b60c954610f5681610f51611a3e565b611a46565b610f5e611ca6565b50565b600060cb60008373ffffffffffffffffffffffffffffffffffffffff1673ffffffffffffffffffffffffffffffffffffffff168152602001908152602001600020600501549050919050565b600060cb60008373ffffffffffffffffffffffffffffffffffffffff1673ffffffffffffffffffffffffffffffffffffffff168152602001908152602001600020600101549050919050565b611019611004611a3e565b61101461100f611a3e565b610642565b610667565b565b600060cb60008373ffffffffffffffffffffffffffffffffffffffff1673ffffffffffffffffffffffffffffffffffffffff168152602001908152602001600020600301549050919050565b6000609760009054906101000a900460ff16905090565b6000801b6110938161108e611a3e565b611a46565b61109c82611960565b156110dc576040517f08c379a00000000000000000000000000000000000000000000000000000000081526004016110d3906136d7565b60405180910390fd5b60cb60008473ffffffffffffffffffffffffffffffffffffffff1673ffffffffffffffffffffffffffffffffffffffff16815260200190815260200160002060000160cb60008473ffffffffffffffffffffffffffffffffffffffff1673ffffffffffffffffffffffffffffffffffffffff16815260200190815260200160002060000190805461116c90613938565b611177929190612ce2565b5060cb60008473ffffffffffffffffffffffffffffffffffffffff1673ffffffffffffffffffffffffffffffffffffffff1681526020019081526020016000206001015460cb60008473ffffffffffffffffffffffffffffffffffffffff1673ffffffffffffffffffffffffffffffffffffffff1681526020019081526020016000206001018190555060cb60008473ffffffffffffffffffffffffffffffffffffffff1673ffffffffffffffffffffffffffffffffffffffff1681526020019081526020016000206002015460cb60008473ffffffffffffffffffffffffffffffffffffffff1673ffffffffffffffffffffffffffffffffffffffff1681526020019081526020016000206002018190555060cb60008473ffffffffffffffffffffffffffffffffffffffff1673ffffffffffffffffffffffffffffffffffffffff1681526020019081526020016000206003015460cb60008473ffffffffffffffffffffffffffffffffffffffff1673ffffffffffffffffffffffffffffffffffffffff1681526020019081526020016000206003018190555060cb60008473ffffffffffffffffffffffffffffffffffffffff1673ffffffffffffffffffffffffffffffffffffffff1681526020019081526020016000206004015460cb60008473ffffffffffffffffffffffffffffffffffffffff1673ffffffffffffffffffffffffffffffffffffffff1681526020019081526020016000206004018190555060cb60008473ffffffffffffffffffffffffffffffffffffffff1673ffffffffffffffffffffffffffffffffffffffff1681526020019081526020016000206006015460cb60008473ffffffffffffffffffffffffffffffffffffffff1673ffffffffffffffffffffffffffffffffffffffff1681526020019081526020016000206006018190555060cb60008473ffffffffffffffffffffffffffffffffffffffff1673ffffffffffffffffffffffffffffffffffffffff1681526020019081526020016000206007015460cb60008473ffffffffffffffffffffffffffffffffffffffff1673ffffffffffffffffffffffffffffffffffffffff168152602001908152602001600020600701819055506114b783611d48565b7feaedf17022bf567d8cca748e506e8817762f90001f922f99dc02550d2011affd83836040516114e89291906133c7565b60405180910390a1505050565b6000801b61150a81611505611a3e565b611a46565b61151660c95483611f61565b5050565b60c95461152e81611529611a3e565b611a46565b611536611f6f565b50565b600060cb60008373ffffffffffffffffffffffffffffffffffffffff1673ffffffffffffffffffffffffffffffffffffffff168152602001908152602001600020600601549050919050565b60006065600084815260200190815260200160002060000160008373ffffffffffffffffffffffffffffffffffffffff1673ffffffffffffffffffffffffffffffffffffffff16815260200190815260200160002060009054906101000a900460ff16905092915050565b60008060cb60008473ffffffffffffffffffffffffffffffffffffffff1673ffffffffffffffffffffffffffffffffffffffff1681526020019081526020016000206040518061010001604052908160008201805461164e90613938565b80601f016020809104026020016040519081016040528092919081815260200182805461167a90613938565b80156116c75780601f1061169c576101008083540402835291602001916116c7565b820191906000526020600020905b8154815290600101906020018083116116aa57829003601f168201915b5050505050815260200160018201548152602001600282015481526020016003820154815260200160048201548152602001600582015481526020016006820154815260200160078201548152505090508060a00151431115611772578060c00151431061173c578060200151915050611778565b80608001518160e0015143611751919061381a565b61175b91906137c0565b816040015161176a9190613739565b915050611778565b60009150505b919050565b600060cb60008373ffffffffffffffffffffffffffffffffffffffff1673ffffffffffffffffffffffffffffffffffffffff168152602001908152602001600020600401549050919050565b6000801b81565b60cb6020528060005260406000206000915090508060000180546117f390613938565b80601f016020809104026020016040519081016040528092919081815260200182805461181f90613938565b801561186c5780601f106118415761010080835404028352916020019161186c565b820191906000526020600020905b81548152906001019060200180831161184f57829003601f168201915b5050505050908060010154908060020154908060030154908060040154908060050154908060060154908060070154905088565b6118a981612012565b50565b600060cb60008373ffffffffffffffffffffffffffffffffffffffff1673ffffffffffffffffffffffffffffffffffffffff168152602001908152602001600020600701549050919050565b611901826109dd565b6119128161190d611a3e565b611a46565b61191c8383611bc4565b505050565b60cc818154811061193157600080fd5b906000526020600020016000915054906101000a900473ffffffffffffffffffffffffffffffffffffffff1681565b60008060cb60008473ffffffffffffffffffffffffffffffffffffffff1673ffffffffffffffffffffffffffffffffffffffff16815260200190815260200160002060010154119050919050565b60ca60009054906101000a900473ffffffffffffffffffffffffffffffffffffffff1681565b60007f01ffc9a7000000000000000000000000000000000000000000000000000000007bffffffffffffffffffffffffffffffffffffffffffffffffffffffff1916827bffffffffffffffffffffffffffffffffffffffffffffffffffffffff1916149050919050565b600033905090565b611a508282611585565b611adf57611a758173ffffffffffffffffffffffffffffffffffffffff1660146120fd565b611a838360001c60206120fd565b604051602001611a94929190613372565b6040516020818303038152906040526040517f08c379a0000000000000000000000000000000000000000000000000000000008152600401611ad691906134f0565b60405180910390fd5b5050565b611aed8282611585565b611bc05760016065600084815260200190815260200160002060000160008373ffffffffffffffffffffffffffffffffffffffff1673ffffffffffffffffffffffffffffffffffffffff16815260200190815260200160002060006101000a81548160ff021916908315150217905550611b65611a3e565b73ffffffffffffffffffffffffffffffffffffffff168173ffffffffffffffffffffffffffffffffffffffff16837f2f8788117e7eff1d82e926ec794901d17c78024a50270940304540a733656f0d60405160405180910390a45b5050565b611bce8282611585565b15611ca25760006065600084815260200190815260200160002060000160008373ffffffffffffffffffffffffffffffffffffffff1673ffffffffffffffffffffffffffffffffffffffff16815260200190815260200160002060006101000a81548160ff021916908315150217905550611c47611a3e565b73ffffffffffffffffffffffffffffffffffffffff168173ffffffffffffffffffffffffffffffffffffffff16837ff6391f5c32d9c69d2a47ea670b442974b53935d1edc7fd64eb21e047a839171b60405160405180910390a45b5050565b611cae611067565b611ced576040517f08c379a0000000000000000000000000000000000000000000000000000000008152600401611ce4906135b7565b60405180910390fd5b6000609760006101000a81548160ff0219169083151502179055507f5db9ee0a495bf2e6ff9c91a7834c1ba4fdd244a5e8aa4e537bd38aeae4b073aa611d31611a3e565b604051611d3e91906133ac565b60405180910390a1565b6040518060200160405280600081525060cb60008373ffffffffffffffffffffffffffffffffffffffff1673ffffffffffffffffffffffffffffffffffffffff1681526020019081526020016000206000019080519060200190611dad929190612d6f565b50600060cb60008373ffffffffffffffffffffffffffffffffffffffff1673ffffffffffffffffffffffffffffffffffffffff16815260200190815260200160002060010181905550600060cb60008373ffffffffffffffffffffffffffffffffffffffff1673ffffffffffffffffffffffffffffffffffffffff16815260200190815260200160002060020181905550600060cb60008373ffffffffffffffffffffffffffffffffffffffff1673ffffffffffffffffffffffffffffffffffffffff16815260200190815260200160002060030181905550600060cb60008373ffffffffffffffffffffffffffffffffffffffff1673ffffffffffffffffffffffffffffffffffffffff16815260200190815260200160002060040181905550600060cb60008373ffffffffffffffffffffffffffffffffffffffff1673ffffffffffffffffffffffffffffffffffffffff16815260200190815260200160002060060181905550600060cb60008373ffffffffffffffffffffffffffffffffffffffff1673ffffffffffffffffffffffffffffffffffffffff1681526020019081526020016000206007018190555050565b611f6b8282611ae3565b5050565b611f77611067565b15611fb7576040517f08c379a0000000000000000000000000000000000000000000000000000000008152600401611fae906135f7565b60405180910390fd5b6001609760006101000a81548160ff0219169083151502179055507f62e78cea01bee320cd4e420270b5ea74000d11b0c9f74754ebdbfc544b05a258611ffb611a3e565b60405161200891906133ac565b60405180910390a1565b600060019054906101000a900460ff1680612038575060008054906101000a900460ff16155b612077576040517f08c379a000000000000000000000000000000000000000000000000000000000815260040161206e90613617565b60405180910390fd5b60008060019054906101000a900460ff1615905080156120c7576001600060016101000a81548160ff02191690831515021790555060016000806101000a81548160ff0219169083151502179055505b6120cf6123f7565b6120d8826124e8565b80156120f95760008060016101000a81548160ff0219169083151502179055505b5050565b60606000600283600261211091906137c0565b61211a9190613739565b67ffffffffffffffff811115612159577f4e487b7100000000000000000000000000000000000000000000000000000000600052604160045260246000fd5b6040519080825280601f01601f19166020018201604052801561218b5781602001600182028036833780820191505090505b5090507f3000000000000000000000000000000000000000000000000000000000000000816000815181106121e9577f4e487b7100000000000000000000000000000000000000000000000000000000600052603260045260246000fd5b60200101907effffffffffffffffffffffffffffffffffffffffffffffffffffffffffffff1916908160001a9053507f780000000000000000000000000000000000000000000000000000000000000081600181518110612273577f4e487b7100000000000000000000000000000000000000000000000000000000600052603260045260246000fd5b60200101907effffffffffffffffffffffffffffffffffffffffffffffffffffffffffffff1916908160001a905350600060018460026122b391906137c0565b6122bd9190613739565b90505b60018111156123a9577f3031323334353637383961626364656600000000000000000000000000000000600f861660108110612325577f4e487b7100000000000000000000000000000000000000000000000000000000600052603260045260246000fd5b1a60f81b828281518110612362577f4e487b7100000000000000000000000000000000000000000000000000000000600052603260045260246000fd5b60200101907effffffffffffffffffffffffffffffffffffffffffffffffffffffffffffff1916908160001a905350600485901c9450806123a29061390e565b90506122c0565b50600084146123ed576040517f08c379a00000000000000000000000000000000000000000000000000000000081526004016123e490613597565b60405180910390fd5b8091505092915050565b600060019054906101000a900460ff168061241d575060008054906101000a900460ff16155b61245c576040517f08c379a000000000000000000000000000000000000000000000000000000000815260040161245390613617565b60405180910390fd5b60008060019054906101000a900460ff1615905080156124ac576001600060016101000a81548160ff02191690831515021790555060016000806101000a81548160ff0219169083151502179055505b6124b4612603565b6124bc6126f4565b6124c46127dd565b80156124e55760008060016101000a81548160ff0219169083151502179055505b50565b600060019054906101000a900460ff168061250e575060008054906101000a900460ff16155b61254d576040517f08c379a000000000000000000000000000000000000000000000000000000000815260040161254490613617565b60405180910390fd5b60008060019054906101000a900460ff16159050801561259d576001600060016101000a81548160ff02191690831515021790555060016000806101000a81548160ff0219169083151502179055505b8160ca60006101000a81548173ffffffffffffffffffffffffffffffffffffffff021916908373ffffffffffffffffffffffffffffffffffffffff16021790555080156125ff5760008060016101000a81548160ff0219169083151502179055505b5050565b600060019054906101000a900460ff1680612629575060008054906101000a900460ff16155b612668576040517f08c379a000000000000000000000000000000000000000000000000000000000815260040161265f90613617565b60405180910390fd5b60008060019054906101000a900460ff1615905080156126b8576001600060016101000a81548160ff02191690831515021790555060016000806101000a81548160ff0219169083151502179055505b6126c06128dd565b6126c86129b6565b6126d0612a8f565b80156126f15760008060016101000a81548160ff0219169083151502179055505b50565b600060019054906101000a900460ff168061271a575060008054906101000a900460ff16155b612759576040517f08c379a000000000000000000000000000000000000000000000000000000000815260040161275090613617565b60405180910390fd5b60008060019054906101000a900460ff1615905080156127a9576001600060016101000a81548160ff02191690831515021790555060016000806101000a81548160ff0219169083151502179055505b6127b16128dd565b6127b9612b68565b80156127da5760008060016101000a81548160ff0219169083151502179055505b50565b600060019054906101000a900460ff1680612803575060008054906101000a900460ff16155b612842576040517f08c379a000000000000000000000000000000000000000000000000000000000815260040161283990613617565b60405180910390fd5b60008060019054906101000a900460ff161590508015612892576001600060016101000a81548160ff02191690831515021790555060016000806101000a81548160ff0219169083151502179055505b6128a66000801b6128a1611a3e565b611f61565b6128b960c9546128b4611a3e565b611f61565b80156128da5760008060016101000a81548160ff0219169083151502179055505b50565b600060019054906101000a900460ff1680612903575060008054906101000a900460ff16155b612942576040517f08c379a000000000000000000000000000000000000000000000000000000000815260040161293990613617565b60405180910390fd5b60008060019054906101000a900460ff161590508015612992576001600060016101000a81548160ff02191690831515021790555060016000806101000a81548160ff0219169083151502179055505b80156129b35760008060016101000a81548160ff0219169083151502179055505b50565b600060019054906101000a900460ff16806129dc575060008054906101000a900460ff16155b612a1b576040517f08c379a0000000000000000000000000000000000000000000000000000000008152600401612a1290613617565b60405180910390fd5b60008060019054906101000a900460ff161590508015612a6b576001600060016101000a81548160ff02191690831515021790555060016000806101000a81548160ff0219169083151502179055505b8015612a8c5760008060016101000a81548160ff0219169083151502179055505b50565b600060019054906101000a900460ff1680612ab5575060008054906101000a900460ff16155b612af4576040517f08c379a0000000000000000000000000000000000000000000000000000000008152600401612aeb90613617565b60405180910390fd5b60008060019054906101000a900460ff161590508015612b44576001600060016101000a81548160ff02191690831515021790555060016000806101000a81548160ff0219169083151502179055505b8015612b655760008060016101000a81548160ff0219169083151502179055505b50565b600060019054906101000a900460ff1680612b8e575060008054906101000a900460ff16155b612bcd576040517f08c379a0000000000000000000000000000000000000000000000000000000008152600401612bc490613617565b60405180910390fd5b60008060019054906101000a900460ff161590508015612c1d576001600060016101000a81548160ff02191690831515021790555060016000806101000a81548160ff0219169083151502179055505b6000609760006101000a81548160ff0219169083151502179055508015612c595760008060016101000a81548160ff0219169083151502179055505b50565b828054612c6890613938565b90600052602060002090601f016020900481019282612c8a5760008555612cd1565b82601f10612ca357803560ff1916838001178555612cd1565b82800160010185558215612cd1579182015b82811115612cd0578235825591602001919060010190612cb5565b5b509050612cde9190612df5565b5090565b828054612cee90613938565b90600052602060002090601f016020900481019282612d105760008555612d5e565b82601f10612d215780548555612d5e565b82800160010185558215612d5e57600052602060002091601f016020900482015b82811115612d5d578254825591600101919060010190612d42565b5b509050612d6b9190612df5565b5090565b828054612d7b90613938565b90600052602060002090601f016020900481019282612d9d5760008555612de4565b82601f10612db657805160ff1916838001178555612de4565b82800160010185558215612de4579182015b82811115612de3578251825591602001919060010190612dc8565b5b509050612df19190612df5565b5090565b5b80821115612e0e576000816000905550600101612df6565b5090565b600081359050612e2181613d4d565b92915050565b600081519050612e3681613d64565b92915050565b600081359050612e4b81613d7b565b92915050565b600081359050612e6081613d92565b92915050565b60008083601f840112612e7857600080fd5b8235905067ffffffffffffffff811115612e9157600080fd5b602083019150836001820283011115612ea957600080fd5b9250929050565b600081359050612ebf81613da9565b92915050565b600060208284031215612ed757600080fd5b6000612ee584828501612e12565b91505092915050565b60008060408385031215612f0157600080fd5b6000612f0f85828601612e12565b9250506020612f2085828601612e12565b9150509250929050565b60008060008060008060a08789031215612f4357600080fd5b6000612f5189828a01612e12565b965050602087013567ffffffffffffffff811115612f6e57600080fd5b612f7a89828a01612e66565b95509550506040612f8d89828a01612eb0565b9350506060612f9e89828a01612eb0565b9250506080612faf89828a01612eb0565b9150509295509295509295565b60008060408385031215612fcf57600080fd5b6000612fdd85828601612e12565b9250506020612fee85828601612eb0565b9150509250929050565b60006020828403121561300a57600080fd5b600061301884828501612e27565b91505092915050565b60006020828403121561303357600080fd5b600061304184828501612e3c565b91505092915050565b6000806040838503121561305d57600080fd5b600061306b85828601612e3c565b925050602061307c85828601612e12565b9150509250929050565b60006020828403121561309857600080fd5b60006130a684828501612e51565b91505092915050565b6000602082840312156130c157600080fd5b60006130cf84828501612eb0565b91505092915050565b6130e18161384e565b82525050565b6130f081613860565b82525050565b6130ff8161386c565b82525050565b6000613111838561371d565b935061311e8385846138cc565b613127836139f7565b840190509392505050565b600061313d82613712565b613147818561371d565b93506131578185602086016138db565b613160816139f7565b840191505092915050565b600061317682613712565b613180818561372e565b93506131908185602086016138db565b80840191505092915050565b60006131a960208361371d565b91506131b482613a08565b602082019050919050565b60006131cc60148361371d565b91506131d782613a31565b602082019050919050565b60006131ef60348361371d565b91506131fa82613a5a565b604082019050919050565b600061321260108361371d565b915061321d82613aa9565b602082019050919050565b6000613235602e8361371d565b915061324082613ad2565b604082019050919050565b600061325860228361371d565b915061326382613b21565b604082019050919050565b600061327b60348361371d565b915061328682613b70565b604082019050919050565b600061329e60268361371d565b91506132a982613bbf565b604082019050919050565b60006132c160178361372e565b91506132cc82613c0e565b601782019050919050565b60006132e460288361371d565b91506132ef82613c37565b604082019050919050565b600061330760118361372e565b915061331282613c86565b601182019050919050565b600061332a602f8361371d565b915061333582613caf565b604082019050919050565b600061334d60378361371d565b915061335882613cfe565b604082019050919050565b61336c816138c2565b82525050565b600061337d826132b4565b9150613389828561316b565b9150613394826132fa565b91506133a0828461316b565b91508190509392505050565b60006020820190506133c160008301846130d8565b92915050565b60006040820190506133dc60008301856130d8565b6133e960208301846130d8565b9392505050565b600060808201905061340560008301876130d8565b61341260208301866130d8565b61341f6040830185613363565b61342c6060830184613363565b95945050505050565b600060a08201905061344a60008301896130d8565b818103602083015261345d818789613105565b905061346c6040830186613363565b6134796060830185613363565b6134866080830184613363565b979650505050505050565b60006040820190506134a660008301856130d8565b6134b36020830184613363565b9392505050565b60006020820190506134cf60008301846130e7565b92915050565b60006020820190506134ea60008301846130f6565b92915050565b6000602082019050818103600083015261350a8184613132565b905092915050565b600061010082019050818103600083015261352d818b613132565b905061353c602083018a613363565b6135496040830189613363565b6135566060830188613363565b6135636080830187613363565b61357060a0830186613363565b61357d60c0830185613363565b61358a60e0830184613363565b9998505050505050505050565b600060208201905081810360008301526135b08161319c565b9050919050565b600060208201905081810360008301526135d0816131bf565b9050919050565b600060208201905081810360008301526135f0816131e2565b9050919050565b6000602082019050818103600083015261361081613205565b9050919050565b6000602082019050818103600083015261363081613228565b9050919050565b600060208201905081810360008301526136508161324b565b9050919050565b600060208201905081810360008301526136708161326e565b9050919050565b6000602082019050818103600083015261369081613291565b9050919050565b600060208201905081810360008301526136b0816132d7565b9050919050565b600060208201905081810360008301526136d08161331d565b9050919050565b600060208201905081810360008301526136f081613340565b9050919050565b600060208201905061370c6000830184613363565b92915050565b600081519050919050565b600082825260208201905092915050565b600081905092915050565b6000613744826138c2565b915061374f836138c2565b9250827fffffffffffffffffffffffffffffffffffffffffffffffffffffffffffffffff038211156137845761378361396a565b5b828201905092915050565b600061379a826138c2565b91506137a5836138c2565b9250826137b5576137b4613999565b5b828204905092915050565b60006137cb826138c2565b91506137d6836138c2565b9250817fffffffffffffffffffffffffffffffffffffffffffffffffffffffffffffffff048311821515161561380f5761380e61396a565b5b828202905092915050565b6000613825826138c2565b9150613830836138c2565b9250828210156138435761384261396a565b5b828203905092915050565b6000613859826138a2565b9050919050565b60008115159050919050565b6000819050919050565b60007fffffffff0000000000000000000000000000000000000000000000000000000082169050919050565b600073ffffffffffffffffffffffffffffffffffffffff82169050919050565b6000819050919050565b82818337600083830152505050565b60005b838110156138f95780820151818401526020810190506138de565b83811115613908576000848401525b50505050565b6000613919826138c2565b9150600082141561392d5761392c61396a565b5b600182039050919050565b6000600282049050600182168061395057607f821691505b60208210811415613964576139636139c8565b5b50919050565b7f4e487b7100000000000000000000000000000000000000000000000000000000600052601160045260246000fd5b7f4e487b7100000000000000000000000000000000000000000000000000000000600052601260045260246000fd5b7f4e487b7100000000000000000000000000000000000000000000000000000000600052602260045260246000fd5b6000601f19601f8301169050919050565b7f537472696e67733a20686578206c656e67746820696e73756666696369656e74600082015250565b7f5061757361626c653a206e6f7420706175736564000000000000000000000000600082015250565b7f446973747269627574696f6e5661756c743a20656e64426c6f636b206d75737460008201527f206265206166746572207374617274426c6f636b000000000000000000000000602082015250565b7f5061757361626c653a2070617573656400000000000000000000000000000000600082015250565b7f496e697469616c697a61626c653a20636f6e747261637420697320616c72656160008201527f647920696e697469616c697a6564000000000000000000000000000000000000602082015250565b7f446973747269627574696f6e5661756c743a205472616e73666572206661696c60008201527f6564000000000000000000000000000000000000000000000000000000000000602082015250565b7f446973747269627574696f6e5661756c743a205468697320616464726573732060008201527f6973206e6f742061207374616b65686f6c646572000000000000000000000000602082015250565b7f446973747269627574696f6e5661756c743a204e6f20617661696c61626c652060008201527f746f6b656e730000000000000000000000000000000000000000000000000000602082015250565b7f416363657373436f6e74726f6c3a206163636f756e7420000000000000000000600082015250565b7f446973747269627574696f6e5661756c743a204e6f7468696e6720746f20646960008201527f7374726962757465000000000000000000000000000000000000000000000000602082015250565b7f206973206d697373696e6720726f6c6520000000000000000000000000000000600082015250565b7f416363657373436f6e74726f6c3a2063616e206f6e6c792072656e6f756e636560008201527f20726f6c657320666f722073656c660000000000000000000000000000000000602082015250565b7f446973747269627574696f6e5661756c743a206e65772061646472657373206960008201527f7320616c72656164792061207374616b65686f6c646572000000000000000000602082015250565b613d568161384e565b8114613d6157600080fd5b50565b613d6d81613860565b8114613d7857600080fd5b50565b613d848161386c565b8114613d8f57600080fd5b50565b613d9b81613876565b8114613da657600080fd5b50565b613db2816138c2565b8114613dbd57600080fd5b5056fea2646970667358221220ad5e9fb3d7bbb1a149ae649f8b9420a22c0ffa608f4f75e90ee438d118543f7264736f6c63430008020033",
  "linkReferences": {},
  "deployedLinkReferences": {}
}