{
  "_format": "hh-sol-artifact-1",
  "contractName": "AggregatorMock",
  "sourceName": "contracts/mock/AggregatorMock.sol",
  "abi": [
    {
      "inputs": [],
      "name": "decimals",
      "outputs": [
        {
          "internalType": "uint8",
          "name": "",
          "type": "uint8"
        }
      ],
      "stateMutability": "view",
      "type": "function"
    },
    {
      "inputs": [],
      "name": "description",
      "outputs": [
        {
          "internalType": "string",
          "name": "",
          "type": "string"
        }
      ],
      "stateMutability": "view",
      "type": "function"
    },
    {
      "inputs": [
        {
          "internalType": "uint80",
          "name": "_roundId",
          "type": "uint80"
        }
      ],
      "name": "getRoundData",
      "outputs": [
        {
          "internalType": "uint80",
          "name": "roundId",
          "type": "uint80"
        },
        {
          "internalType": "int256",
          "name": "answer",
          "type": "int256"
        },
        {
          "internalType": "uint256",
          "name": "startedAt",
          "type": "uint256"
        },
        {
          "internalType": "uint256",
          "name": "updatedAt",
          "type": "uint256"
        },
        {
          "internalType": "uint80",
          "name": "answeredInRound",
          "type": "uint80"
        }
      ],
      "stateMutability": "view",
      "type": "function"
    },
    {
      "inputs": [
        {
          "internalType": "uint8",
          "name": "decimals_",
          "type": "uint8"
        },
        {
          "internalType": "int256",
          "name": "answer",
          "type": "int256"
        }
      ],
      "name": "initialize",
      "outputs": [],
      "stateMutability": "nonpayable",
      "type": "function"
    },
    {
      "inputs": [],
      "name": "latestRoundData",
      "outputs": [
        {
          "internalType": "uint80",
          "name": "roundId",
          "type": "uint80"
        },
        {
          "internalType": "int256",
          "name": "answer",
          "type": "int256"
        },
        {
          "internalType": "uint256",
          "name": "startedAt",
          "type": "uint256"
        },
        {
          "internalType": "uint256",
          "name": "updatedAt",
          "type": "uint256"
        },
        {
          "internalType": "uint80",
          "name": "answeredInRound",
          "type": "uint80"
        }
      ],
      "stateMutability": "view",
      "type": "function"
    },
    {
      "inputs": [],
      "name": "version",
      "outputs": [
        {
          "internalType": "uint256",
          "name": "",
          "type": "uint256"
        }
      ],
      "stateMutability": "view",
      "type": "function"
    }
  ],
  "bytecode": "0x608060405260008060026101000a81548169ffffffffffffffffffff021916908369ffffffffffffffffffff16021790555060006001556040518060400160405280600481526020017f6d6f636b0000000000000000000000000000000000000000000000000000000081525060029080519060200190610081929190610094565b5034801561008e57600080fd5b50610198565b8280546100a090610137565b90600052602060002090601f0160209004810192826100c25760008555610109565b82601f106100db57805160ff1916838001178555610109565b82800160010185558215610109579182015b828111156101085782518255916020019190600101906100ed565b5b509050610116919061011a565b5090565b5b8082111561013357600081600090555060010161011b565b5090565b6000600282049050600182168061014f57607f821691505b6020821081141561016357610162610169565b5b50919050565b7f4e487b7100000000000000000000000000000000000000000000000000000000600052602260045260246000fd5b61073f806101a76000396000f3fe608060405234801561001057600080fd5b50600436106100625760003560e01c8063313ce5671461006757806354fd4d50146100855780637284e416146100a35780639a6fc8f5146100c1578063fdc7970f146100f5578063feaf968c14610111575b600080fd5b61006f610133565b60405161007c91906105b1565b60405180910390f35b61008d61014a565b60405161009a9190610543565b60405180910390f35b6100ab610154565b6040516100b89190610501565b60405180910390f35b6100db60048036038101906100d691906103c1565b6101e6565b6040516100ec95949392919061055e565b60405180910390f35b61010f600480360381019061010a91906103ea565b610224565b005b610119610232565b60405161012a95949392919061055e565b60405180910390f35b6000600360009054906101000a900460ff16905090565b6000600154905090565b60606002805461016390610652565b80601f016020809104026020016040519081016040528092919081815260200182805461018f90610652565b80156101dc5780601f106101b1576101008083540402835291602001916101dc565b820191906000526020600020905b8154815290600101906020018083116101bf57829003601f168201915b5050505050905090565b600080600080600085600454600154600154600060029054906101000a900469ffffffffffffffffffff169450945094509450945091939590929450565b61022e8282610285565b5050565b60008060008060008060029054906101000a900469ffffffffffffffffffff16600454600154600154600060029054906101000a900469ffffffffffffffffffff16945094509450945094509091929394565b600060019054906101000a900460ff16806102ab575060008054906101000a900460ff16155b6102ea576040517f08c379a00000000000000000000000000000000000000000000000000000000081526004016102e190610523565b60405180910390fd5b60008060019054906101000a900460ff16159050801561033a576001600060016101000a81548160ff02191690831515021790555060016000806101000a81548160ff0219169083151502179055505b82600360006101000a81548160ff021916908360ff16021790555081600481905550801561037d5760008060016101000a81548160ff0219169083151502179055505b505050565b600081359050610391816106c4565b92915050565b6000813590506103a6816106db565b92915050565b6000813590506103bb816106f2565b92915050565b6000602082840312156103d357600080fd5b60006103e1848285016103ac565b91505092915050565b600080604083850312156103fd57600080fd5b600061040b85828601610397565b925050602061041c85828601610382565b9150509250929050565b61042f816105e8565b82525050565b6000610440826105cc565b61044a81856105d7565b935061045a81856020860161061f565b610463816106b3565b840191505092915050565b600061047b602e836105d7565b91507f496e697469616c697a61626c653a20636f6e747261637420697320616c72656160008301527f647920696e697469616c697a65640000000000000000000000000000000000006020830152604082019050919050565b6104dd816105f2565b82525050565b6104ec81610609565b82525050565b6104fb816105fc565b82525050565b6000602082019050818103600083015261051b8184610435565b905092915050565b6000602082019050818103600083015261053c8161046e565b9050919050565b600060208201905061055860008301846104d4565b92915050565b600060a08201905061057360008301886104e3565b6105806020830187610426565b61058d60408301866104d4565b61059a60608301856104d4565b6105a760808301846104e3565b9695505050505050565b60006020820190506105c660008301846104f2565b92915050565b600081519050919050565b600082825260208201905092915050565b6000819050919050565b6000819050919050565b600060ff82169050919050565b600069ffffffffffffffffffff82169050919050565b60005b8381101561063d578082015181840152602081019050610622565b8381111561064c576000848401525b50505050565b6000600282049050600182168061066a57607f821691505b6020821081141561067e5761067d610684565b5b50919050565b7f4e487b7100000000000000000000000000000000000000000000000000000000600052602260045260246000fd5b6000601f19601f8301169050919050565b6106cd816105e8565b81146106d857600080fd5b50565b6106e4816105fc565b81146106ef57600080fd5b50565b6106fb81610609565b811461070657600080fd5b5056fea26469706673582212203e82c6fb5691a3ec7bec8df109aab1a85ee615b384e8dff25ae30cc2cd71072864736f6c63430008000033",
  "linkReferences": {},
  "deployedLinkReferences": {}
}