{
  "_format": "hh-sol-artifact-1",
  "contractName": "TutellusRewardsVault",
  "sourceName": "contracts/TutellusRewardsVault.sol",
  "abi": [
    {
      "inputs": [
        {
          "internalType": "address",
          "name": "rolemanager",
          "type": "address"
        },
        {
          "internalType": "address",
          "name": "token_",
          "type": "address"
        },
        {
          "internalType": "uint256",
          "name": "amount",
          "type": "uint256"
        },
        {
          "internalType": "uint256",
          "name": "startBlock_",
          "type": "uint256"
        },
        {
          "internalType": "uint256",
          "name": "endBlock_",
          "type": "uint256"
        }
      ],
      "stateMutability": "nonpayable",
      "type": "constructor"
    },
    {
      "anonymous": false,
      "inputs": [
        {
          "indexed": false,
          "internalType": "address",
          "name": "account",
          "type": "address"
        }
      ],
      "name": "AddAccount",
      "type": "event"
    },
    {
      "anonymous": false,
      "inputs": [
        {
          "indexed": false,
          "internalType": "address",
          "name": "sender",
          "type": "address"
        },
        {
          "indexed": false,
          "internalType": "address",
          "name": "account",
          "type": "address"
        },
        {
          "indexed": false,
          "internalType": "uint256",
          "name": "amount",
          "type": "uint256"
        }
      ],
      "name": "DistributeTokens",
      "type": "event"
    },
    {
      "anonymous": false,
      "inputs": [
        {
          "indexed": false,
          "internalType": "uint256",
          "name": "startBlock",
          "type": "uint256"
        },
        {
          "indexed": false,
          "internalType": "uint256",
          "name": "endBlock",
          "type": "uint256"
        },
        {
          "indexed": false,
          "internalType": "uint256",
          "name": "increment",
          "type": "uint256"
        }
      ],
      "name": "Init",
      "type": "event"
    },
    {
      "anonymous": false,
      "inputs": [
        {
          "indexed": false,
          "internalType": "address",
          "name": "account",
          "type": "address"
        }
      ],
      "name": "Paused",
      "type": "event"
    },
    {
      "anonymous": false,
      "inputs": [
        {
          "indexed": false,
          "internalType": "address",
          "name": "account",
          "type": "address"
        }
      ],
      "name": "Unpaused",
      "type": "event"
    },
    {
      "anonymous": false,
      "inputs": [
        {
          "indexed": false,
          "internalType": "uint256[]",
          "name": "allocation",
          "type": "uint256[]"
        }
      ],
      "name": "UpdateAllocation",
      "type": "event"
    },
    {
      "inputs": [],
      "name": "DEFAULT_ADMIN_ROLE",
      "outputs": [
        {
          "internalType": "bytes32",
          "name": "",
          "type": "bytes32"
        }
      ],
      "stateMutability": "view",
      "type": "function"
    },
    {
      "inputs": [],
      "name": "PAUSER_ROLE",
      "outputs": [
        {
          "internalType": "bytes32",
          "name": "",
          "type": "bytes32"
        }
      ],
      "stateMutability": "view",
      "type": "function"
    },
    {
      "inputs": [
        {
          "internalType": "address",
          "name": "account",
          "type": "address"
        },
        {
          "internalType": "uint256[]",
          "name": "allocation",
          "type": "uint256[]"
        }
      ],
      "name": "add",
      "outputs": [],
      "stateMutability": "nonpayable",
      "type": "function"
    },
    {
      "inputs": [
        {
          "internalType": "address",
          "name": "account",
          "type": "address"
        }
      ],
      "name": "availableId",
      "outputs": [
        {
          "internalType": "uint256",
          "name": "",
          "type": "uint256"
        }
      ],
      "stateMutability": "view",
      "type": "function"
    },
    {
      "inputs": [
        {
          "internalType": "address",
          "name": "account",
          "type": "address"
        },
        {
          "internalType": "uint256",
          "name": "amount",
          "type": "uint256"
        }
      ],
      "name": "distributeTokens",
      "outputs": [],
      "stateMutability": "nonpayable",
      "type": "function"
    },
    {
      "inputs": [],
      "name": "endBlock",
      "outputs": [
        {
          "internalType": "uint256",
          "name": "",
          "type": "uint256"
        }
      ],
      "stateMutability": "view",
      "type": "function"
    },
    {
      "inputs": [
        {
          "internalType": "bytes32",
          "name": "role",
          "type": "bytes32"
        },
        {
          "internalType": "address",
          "name": "account",
          "type": "address"
        }
      ],
      "name": "hasRole",
      "outputs": [
        {
          "internalType": "bool",
          "name": "",
          "type": "bool"
        }
      ],
      "stateMutability": "view",
      "type": "function"
    },
    {
      "inputs": [],
      "name": "pause",
      "outputs": [],
      "stateMutability": "nonpayable",
      "type": "function"
    },
    {
      "inputs": [],
      "name": "paused",
      "outputs": [
        {
          "internalType": "bool",
          "name": "",
          "type": "bool"
        }
      ],
      "stateMutability": "view",
      "type": "function"
    },
    {
      "inputs": [],
      "name": "released",
      "outputs": [
        {
          "internalType": "uint256",
          "name": "",
          "type": "uint256"
        }
      ],
      "stateMutability": "view",
      "type": "function"
    },
    {
      "inputs": [
        {
          "internalType": "address",
          "name": "account",
          "type": "address"
        }
      ],
      "name": "releasedId",
      "outputs": [
        {
          "internalType": "uint256",
          "name": "",
          "type": "uint256"
        }
      ],
      "stateMutability": "view",
      "type": "function"
    },
    {
      "inputs": [
        {
          "internalType": "uint256",
          "name": "from",
          "type": "uint256"
        },
        {
          "internalType": "uint256",
          "name": "to",
          "type": "uint256"
        }
      ],
      "name": "releasedRange",
      "outputs": [
        {
          "internalType": "uint256",
          "name": "",
          "type": "uint256"
        }
      ],
      "stateMutability": "view",
      "type": "function"
    },
    {
      "inputs": [],
      "name": "startBlock",
      "outputs": [
        {
          "internalType": "uint256",
          "name": "",
          "type": "uint256"
        }
      ],
      "stateMutability": "view",
      "type": "function"
    },
    {
      "inputs": [],
      "name": "token",
      "outputs": [
        {
          "internalType": "address",
          "name": "",
          "type": "address"
        }
      ],
      "stateMutability": "view",
      "type": "function"
    },
    {
      "inputs": [],
      "name": "unpause",
      "outputs": [],
      "stateMutability": "nonpayable",
      "type": "function"
    },
    {
      "inputs": [
        {
          "internalType": "uint256[]",
          "name": "allocation",
          "type": "uint256[]"
        }
      ],
      "name": "updateAllocation",
      "outputs": [],
      "stateMutability": "nonpayable",
      "type": "function"
    },
    {
      "inputs": [
        {
          "internalType": "address",
          "name": "manager",
          "type": "address"
        }
      ],
      "name": "updateManager",
      "outputs": [],
      "stateMutability": "nonpayable",
      "type": "function"
    }
  ],
  "bytecode": "0x60806040523480156200001157600080fd5b50604051620030593803806200305983398181016040528101906200003791906200088c565b6200004c85858585856200005760201b60201c565b505050505062000df3565b600060019054906101000a900460ff16806200007e575060008054906101000a900460ff16155b620000c0576040517f08c379a0000000000000000000000000000000000000000000000000000000008152600401620000b7906200096d565b60405180910390fd5b60008060019054906101000a900460ff16159050801562000111576001600060016101000a81548160ff02191690831515021790555060016000806101000a81548160ff0219169083151502179055505b62000122866200016060201b60201c565b62000136858585856200026160201b60201c565b8015620001585760008060016101000a81548160ff0219169083151502179055505b505050505050565b600060019054906101000a900460ff168062000187575060008054906101000a900460ff16155b620001c9576040517f08c379a0000000000000000000000000000000000000000000000000000000008152600401620001c0906200096d565b60405180910390fd5b60008060019054906101000a900460ff1615905080156200021a576001600060016101000a81548160ff02191690831515021790555060016000806101000a81548160ff0219169083151502179055505b6200022a6200046560201b60201c565b6200023b826200056460201b60201c565b80156200025d5760008060016101000a81548160ff0219169083151502179055505b5050565b600060019054906101000a900460ff168062000288575060008054906101000a900460ff16155b620002ca576040517f08c379a0000000000000000000000000000000000000000000000000000000008152600401620002c1906200096d565b60405180910390fd5b60008060019054906101000a900460ff1615905080156200031b576001600060016101000a81548160ff02191690831515021790555060016000806101000a81548160ff0219169083151502179055505b82821162000360576040517f08c379a000000000000000000000000000000000000000000000000000000000815260040162000357906200098f565b60405180910390fd5b84607060006101000a81548173ffffffffffffffffffffffffffffffffffffffff021916908373ffffffffffffffffffffffffffffffffffffffff16021790555082606c8190555081606d8190555060008383620003bf919062000c30565b9050600281620003d0919062000a92565b856002620003df919062000bcf565b620003eb9190620009ff565b606e8190555043606b819055507ff1bd4f3fcb4e0b193abc7e4002c0284e25086269a02de2e4c52045a91f647037606c54606d54606e546040516200043393929190620009b1565b60405180910390a15080156200045e5760008060016101000a81548160ff0219169083151502179055505b5050505050565b600060019054906101000a900460ff16806200048c575060008054906101000a900460ff16155b620004ce576040517f08c379a0000000000000000000000000000000000000000000000000000000008152600401620004c5906200096d565b60405180910390fd5b60008060019054906101000a900460ff1615905080156200051f576001600060016101000a81548160ff02191690831515021790555060016000806101000a81548160ff0219169083151502179055505b6200052f6200068560201b60201c565b6200053f6200076460201b60201c565b8015620005615760008060016101000a81548160ff0219169083151502179055505b50565b600060019054906101000a900460ff16806200058b575060008054906101000a900460ff16155b620005cd576040517f08c379a0000000000000000000000000000000000000000000000000000000008152600401620005c4906200096d565b60405180910390fd5b60008060019054906101000a900460ff1615905080156200061e576001600060016101000a81548160ff02191690831515021790555060016000806101000a81548160ff0219169083151502179055505b81606560006101000a81548173ffffffffffffffffffffffffffffffffffffffff021916908373ffffffffffffffffffffffffffffffffffffffff1602179055508015620006815760008060016101000a81548160ff0219169083151502179055505b5050565b600060019054906101000a900460ff1680620006ac575060008054906101000a900460ff16155b620006ee576040517f08c379a0000000000000000000000000000000000000000000000000000000008152600401620006e5906200096d565b60405180910390fd5b60008060019054906101000a900460ff1615905080156200073f576001600060016101000a81548160ff02191690831515021790555060016000806101000a81548160ff0219169083151502179055505b8015620007615760008060016101000a81548160ff0219169083151502179055505b50565b600060019054906101000a900460ff16806200078b575060008054906101000a900460ff16155b620007cd576040517f08c379a0000000000000000000000000000000000000000000000000000000008152600401620007c4906200096d565b60405180910390fd5b60008060019054906101000a900460ff1615905080156200081e576001600060016101000a81548160ff02191690831515021790555060016000806101000a81548160ff0219169083151502179055505b6000603360006101000a81548160ff02191690831515021790555080156200085b5760008060016101000a81548160ff0219169083151502179055505b50565b6000815190506200086f8162000dbf565b92915050565b600081519050620008868162000dd9565b92915050565b600080600080600060a08688031215620008a557600080fd5b6000620008b5888289016200085e565b9550506020620008c8888289016200085e565b9450506040620008db8882890162000875565b9350506060620008ee8882890162000875565b9250506080620009018882890162000875565b9150509295509295909350565b60006200091d602e83620009ee565b91506200092a8262000d21565b604082019050919050565b600062000944603383620009ee565b9150620009518262000d70565b604082019050919050565b620009678162000c9f565b82525050565b6000602082019050818103600083015262000988816200090e565b9050919050565b60006020820190508181036000830152620009aa8162000935565b9050919050565b6000606082019050620009c860008301866200095c565b620009d760208301856200095c565b620009e660408301846200095c565b949350505050565b600082825260208201905092915050565b600062000a0c8262000c9f565b915062000a198362000c9f565b92508262000a2c5762000a2b62000ce5565b5b828204905092915050565b6000808291508390505b600185111562000a895780860481111562000a615762000a6062000cb6565b5b600185161562000a715780820291505b808102905062000a818562000d14565b945062000a41565b94509492505050565b600062000a9f8262000c9f565b915062000aac8362000ca9565b925062000adb7fffffffffffffffffffffffffffffffffffffffffffffffffffffffffffffffff848462000ae3565b905092915050565b60008262000af5576001905062000bc8565b8162000b05576000905062000bc8565b816001811462000b1e576002811462000b295762000b5f565b600191505062000bc8565b60ff84111562000b3e5762000b3d62000cb6565b5b8360020a91508482111562000b585762000b5762000cb6565b5b5062000bc8565b5060208310610133831016604e8410600b841016171562000b995782820a90508381111562000b935762000b9262000cb6565b5b62000bc8565b62000ba8848484600162000a37565b9250905081840481111562000bc25762000bc162000cb6565b5b81810290505b9392505050565b600062000bdc8262000c9f565b915062000be98362000c9f565b9250817fffffffffffffffffffffffffffffffffffffffffffffffffffffffffffffffff048311821515161562000c255762000c2462000cb6565b5b828202905092915050565b600062000c3d8262000c9f565b915062000c4a8362000c9f565b92508282101562000c605762000c5f62000cb6565b5b828203905092915050565b600062000c788262000c7f565b9050919050565b600073ffffffffffffffffffffffffffffffffffffffff82169050919050565b6000819050919050565b600060ff82169050919050565b7f4e487b7100000000000000000000000000000000000000000000000000000000600052601160045260246000fd5b7f4e487b7100000000000000000000000000000000000000000000000000000000600052601260045260246000fd5b60008160011c9050919050565b7f496e697469616c697a61626c653a20636f6e747261637420697320616c72656160008201527f647920696e697469616c697a6564000000000000000000000000000000000000602082015250565b7f547574656c6c7573526577617264735661756c743a20737461727420626c6f6360008201527f6b206578636565647320656e6420626c6f636b00000000000000000000000000602082015250565b62000dca8162000c6b565b811462000dd657600080fd5b50565b62000de48162000c9f565b811462000df057600080fd5b50565b6122568062000e036000396000f3fe608060405234801561001057600080fd5b506004361061010b5760003560e01c80636867aac5116100a2578063a217fddf11610071578063a217fddf14610280578063ae7928bf1461029e578063cccc9a92146102ce578063e63ab1e9146102ea578063fc0c546a146103085761010b565b80636867aac5146101f85780638456cb591461022857806391d148541461023257806396132521146102625761010b565b80633f4ba83a116100de5780633f4ba83a1461019657806348cd4cb1146101a057806358aba00f146101be5780635c975abb146101da5761010b565b8063083c632314610110578063158a49881461012e5780631d444d301461014a57806337cb9e671461017a575b600080fd5b610118610326565b6040516101259190611a3c565b60405180910390f35b61014860048036038101906101439190611480565b610330565b005b610164600480360381019061015f9190611403565b6104d9565b6040516101719190611a3c565b60405180910390f35b610194600480360381019061018f91906114bc565b610548565b005b61019e6107df565b005b6101a86108ac565b6040516101b59190611a3c565b60405180910390f35b6101d860048036038101906101d39190611403565b6108b6565b005b6101e26109a0565b6040516101ef91906118db565b60405180910390f35b610212600480360381019061020d9190611562565b6109b7565b60405161021f9190611a3c565b60405180910390f35b610230610a9e565b005b61024c60048036038101906102479190611526565b610b6b565b60405161025991906118db565b60405180910390f35b61026a610c27565b6040516102779190611a3c565b60405180910390f35b610288610c3a565b60405161029591906118f6565b60405180910390f35b6102b860048036038101906102b39190611403565b610c41565b6040516102c59190611a3c565b60405180910390f35b6102e860048036038101906102e3919061142c565b610cea565b005b6102f2610e88565b6040516102ff91906118f6565b60405180910390f35b610310610eac565b60405161031d919061183e565b60405180910390f35b6000606d54905090565b610339826104d9565b81111561037b576040517f08c379a00000000000000000000000000000000000000000000000000000000081526004016103729061199c565b60405180910390fd5b80606a6000606660003373ffffffffffffffffffffffffffffffffffffffff1673ffffffffffffffffffffffffffffffffffffffff16815260200190815260200160002054815260200190815260200160002060008282546103dd9190611b08565b925050819055506000607060009054906101000a900473ffffffffffffffffffffffffffffffffffffffff1690508073ffffffffffffffffffffffffffffffffffffffff1663a9059cbb84846040518363ffffffff1660e01b8152600401610446929190611890565b602060405180830381600087803b15801561046057600080fd5b505af1158015610474573d6000803e3d6000fd5b505050506040513d601f19601f8201168201806040525081019061049891906114fd565b507f94c0ac970a66c6e8a58afdcd954f63d508e147b98e6f8b803e5c8c37dab11c853384846040516104cc93929190611859565b60405180910390a1505050565b6000606a6000606660008573ffffffffffffffffffffffffffffffffffffffff1673ffffffffffffffffffffffffffffffffffffffff1681526020019081526020016000205481526020019081526020016000205461053783610c41565b6105419190611d5a565b9050919050565b6000801b600033905061055b8282610b6b565b61057c8273ffffffffffffffffffffffffffffffffffffffff166014610ed2565b61058a8460001c6020610ed2565b60405160200161059b929190611804565b604051602081830303815290604052906105eb576040517f08c379a00000000000000000000000000000000000000000000000000000000081526004016105e2919061193a565b60405180910390fd5b5060008084519050606f548114610637576040517f08c379a000000000000000000000000000000000000000000000000000000000815260040161062e906119bc565b60405180910390fd5b60005b8181101561074e5761067e6067600083815260200190815260200160002060009054906101000a900473ffffffffffffffffffffffffffffffffffffffff16610c41565b60696000838152602001908152602001600020819055508581815181106106ce577f4e487b7100000000000000000000000000000000000000000000000000000000600052603260045260246000fd5b60200260200101516068600083815260200190815260200160002081905550858181518110610726577f4e487b7100000000000000000000000000000000000000000000000000000000600052603260045260246000fd5b6020026020010151836107399190611b08565b9250808061074690611e7b565b91505061063a565b5043606b8190555068056bc75e2d6310000082146107a1576040517f08c379a000000000000000000000000000000000000000000000000000000000815260040161079890611a1c565b60405180910390fd5b7ff33f61b2dd1b74358b2cd80adfa809a090f0e0b0f7e4b6e408b4994f31b073fc856040516107d091906118b9565b60405180910390a15050505050565b7f65d7a28e3265b37a6474929f336521b332c1681b933f6cb9f3376673440d862a600033905061080f8282610b6b565b6108308273ffffffffffffffffffffffffffffffffffffffff166014610ed2565b61083e8460001c6020610ed2565b60405160200161084f929190611804565b6040516020818303038152906040529061089f576040517f08c379a0000000000000000000000000000000000000000000000000000000008152600401610896919061193a565b60405180910390fd5b506108a86111cc565b5050565b6000606c54905090565b6000801b60003390506108c98282610b6b565b6108ea8273ffffffffffffffffffffffffffffffffffffffff166014610ed2565b6108f88460001c6020610ed2565b604051602001610909929190611804565b60405160208183030381529060405290610959576040517f08c379a0000000000000000000000000000000000000000000000000000000008152600401610950919061193a565b60405180910390fd5b5082606560006101000a81548173ffffffffffffffffffffffffffffffffffffffff021916908373ffffffffffffffffffffffffffffffffffffffff160217905550505050565b6000603360009054906101000a900460ff16905090565b6000818311156109fc576040517f08c379a00000000000000000000000000000000000000000000000000000000081526004016109f3906119fc565b60405180910390fd5b606d54821115610a0c57606d5491505b606c54831015610a1c57606c5492505b6000600280606c5485610a2f9190611d5a565b610a399190611be2565b606e54610a469190611d00565b610a509190611b5e565b90506000600280606c5487610a659190611d5a565b610a6f9190611be2565b606e54610a7c9190611d00565b610a869190611b5e565b90508082610a949190611d5a565b9250505092915050565b7f65d7a28e3265b37a6474929f336521b332c1681b933f6cb9f3376673440d862a6000339050610ace8282610b6b565b610aef8273ffffffffffffffffffffffffffffffffffffffff166014610ed2565b610afd8460001c6020610ed2565b604051602001610b0e929190611804565b60405160208183030381529060405290610b5e576040517f08c379a0000000000000000000000000000000000000000000000000000000008152600401610b55919061193a565b60405180910390fd5b50610b6761126e565b5050565b600080606560009054906101000a900473ffffffffffffffffffffffffffffffffffffffff1690508073ffffffffffffffffffffffffffffffffffffffff166391d1485485856040518363ffffffff1660e01b8152600401610bce929190611911565b60206040518083038186803b158015610be657600080fd5b505afa158015610bfa573d6000803e3d6000fd5b505050506040513d601f19601f82011682018060405250810190610c1e91906114fd565b91505092915050565b6000610c35606c54436109b7565b905090565b6000801b81565b600080606660008473ffffffffffffffffffffffffffffffffffffffff1673ffffffffffffffffffffffffffffffffffffffff16815260200190815260200160002054905068056bc75e2d631000006068600083815260200190815260200160002054610cb0606b54436109b7565b610cba9190611d00565b610cc49190611b5e565b6069600083815260200190815260200160002054610ce29190611b08565b915050919050565b6000801b6000339050610cfd8282610b6b565b610d1e8273ffffffffffffffffffffffffffffffffffffffff166014610ed2565b610d2c8460001c6020610ed2565b604051602001610d3d929190611804565b60405160208183030381529060405290610d8d576040517f08c379a0000000000000000000000000000000000000000000000000000000008152600401610d84919061193a565b60405180910390fd5b50606f54606660008673ffffffffffffffffffffffffffffffffffffffff1673ffffffffffffffffffffffffffffffffffffffff168152602001908152602001600020819055508360676000606f54815260200190815260200160002060006101000a81548173ffffffffffffffffffffffffffffffffffffffff021916908373ffffffffffffffffffffffffffffffffffffffff1602179055506001606f6000828254610e3b9190611b08565b92505081905550610e4b83610548565b7f3e67e6407255879d31ea937ba6e59eb404ec7c3e4e9381c8a64b426a1d78545e84604051610e7a919061183e565b60405180910390a150505050565b7f65d7a28e3265b37a6474929f336521b332c1681b933f6cb9f3376673440d862a81565b607060009054906101000a900473ffffffffffffffffffffffffffffffffffffffff1681565b606060006002836002610ee59190611d00565b610eef9190611b08565b67ffffffffffffffff811115610f2e577f4e487b7100000000000000000000000000000000000000000000000000000000600052604160045260246000fd5b6040519080825280601f01601f191660200182016040528015610f605781602001600182028036833780820191505090505b5090507f300000000000000000000000000000000000000000000000000000000000000081600081518110610fbe577f4e487b7100000000000000000000000000000000000000000000000000000000600052603260045260246000fd5b60200101907effffffffffffffffffffffffffffffffffffffffffffffffffffffffffffff1916908160001a9053507f780000000000000000000000000000000000000000000000000000000000000081600181518110611048577f4e487b7100000000000000000000000000000000000000000000000000000000600052603260045260246000fd5b60200101907effffffffffffffffffffffffffffffffffffffffffffffffffffffffffffff1916908160001a905350600060018460026110889190611d00565b6110929190611b08565b90505b600181111561117e577f3031323334353637383961626364656600000000000000000000000000000000600f8616601081106110fa577f4e487b7100000000000000000000000000000000000000000000000000000000600052603260045260246000fd5b1a60f81b828281518110611137577f4e487b7100000000000000000000000000000000000000000000000000000000600052603260045260246000fd5b60200101907effffffffffffffffffffffffffffffffffffffffffffffffffffffffffffff1916908160001a905350600485901c94508061117790611e20565b9050611095565b50600084146111c2576040517f08c379a00000000000000000000000000000000000000000000000000000000081526004016111b99061195c565b60405180910390fd5b8091505092915050565b6111d46109a0565b611213576040517f08c379a000000000000000000000000000000000000000000000000000000000815260040161120a9061197c565b60405180910390fd5b6000603360006101000a81548160ff0219169083151502179055507f5db9ee0a495bf2e6ff9c91a7834c1ba4fdd244a5e8aa4e537bd38aeae4b073aa611257611311565b604051611264919061183e565b60405180910390a1565b6112766109a0565b156112b6576040517f08c379a00000000000000000000000000000000000000000000000000000000081526004016112ad906119dc565b60405180910390fd5b6001603360006101000a81548160ff0219169083151502179055507f62e78cea01bee320cd4e420270b5ea74000d11b0c9f74754ebdbfc544b05a2586112fa611311565b604051611307919061183e565b60405180910390a1565b600033905090565b600061132c61132784611a7c565b611a57565b9050808382526020820190508285602086028201111561134b57600080fd5b60005b8581101561137b578161136188826113ee565b84526020840193506020830192505060018101905061134e565b5050509392505050565b600081359050611394816121c4565b92915050565b600082601f8301126113ab57600080fd5b81356113bb848260208601611319565b91505092915050565b6000815190506113d3816121db565b92915050565b6000813590506113e8816121f2565b92915050565b6000813590506113fd81612209565b92915050565b60006020828403121561141557600080fd5b600061142384828501611385565b91505092915050565b6000806040838503121561143f57600080fd5b600061144d85828601611385565b925050602083013567ffffffffffffffff81111561146a57600080fd5b6114768582860161139a565b9150509250929050565b6000806040838503121561149357600080fd5b60006114a185828601611385565b92505060206114b2858286016113ee565b9150509250929050565b6000602082840312156114ce57600080fd5b600082013567ffffffffffffffff8111156114e857600080fd5b6114f48482850161139a565b91505092915050565b60006020828403121561150f57600080fd5b600061151d848285016113c4565b91505092915050565b6000806040838503121561153957600080fd5b6000611547858286016113d9565b925050602061155885828601611385565b9150509250929050565b6000806040838503121561157557600080fd5b6000611583858286016113ee565b9250506020611594858286016113ee565b9150509250929050565b60006115aa83836117e6565b60208301905092915050565b6115bf81611d8e565b82525050565b60006115d082611ab8565b6115da8185611adb565b93506115e583611aa8565b8060005b838110156116165781516115fd888261159e565b975061160883611ace565b9250506001810190506115e9565b5085935050505092915050565b61162c81611da0565b82525050565b61163b81611dac565b82525050565b600061164c82611ac3565b6116568185611aec565b9350611666818560208601611ded565b61166f81611f51565b840191505092915050565b600061168582611ac3565b61168f8185611afd565b935061169f818560208601611ded565b80840191505092915050565b60006116b8602083611aec565b91506116c382611f6f565b602082019050919050565b60006116db602483611afd565b91506116e682611f98565b602482019050919050565b60006116fe601483611aec565b915061170982611fe7565b602082019050919050565b6000611721602e83611aec565b915061172c82612010565b604082019050919050565b6000611744605283611aec565b915061174f8261205f565b606082019050919050565b6000611767601083611aec565b9150611772826120d4565b602082019050919050565b600061178a602a83611aec565b9150611795826120fd565b604082019050919050565b60006117ad603383611aec565b91506117b88261214c565b604082019050919050565b60006117d0601183611afd565b91506117db8261219b565b601182019050919050565b6117ef81611dd6565b82525050565b6117fe81611dd6565b82525050565b600061180f826116ce565b915061181b828561167a565b9150611826826117c3565b9150611832828461167a565b91508190509392505050565b600060208201905061185360008301846115b6565b92915050565b600060608201905061186e60008301866115b6565b61187b60208301856115b6565b61188860408301846117f5565b949350505050565b60006040820190506118a560008301856115b6565b6118b260208301846117f5565b9392505050565b600060208201905081810360008301526118d381846115c5565b905092915050565b60006020820190506118f06000830184611623565b92915050565b600060208201905061190b6000830184611632565b92915050565b60006040820190506119266000830185611632565b61193360208301846115b6565b9392505050565b600060208201905081810360008301526119548184611641565b905092915050565b60006020820190508181036000830152611975816116ab565b9050919050565b60006020820190508181036000830152611995816116f1565b9050919050565b600060208201905081810360008301526119b581611714565b9050919050565b600060208201905081810360008301526119d581611737565b9050919050565b600060208201905081810360008301526119f58161175a565b9050919050565b60006020820190508181036000830152611a158161177d565b9050919050565b60006020820190508181036000830152611a35816117a0565b9050919050565b6000602082019050611a5160008301846117f5565b92915050565b6000611a61611a72565b9050611a6d8282611e4a565b919050565b6000604051905090565b600067ffffffffffffffff821115611a9757611a96611f22565b5b602082029050602081019050919050565b6000819050602082019050919050565b600081519050919050565b600081519050919050565b6000602082019050919050565b600082825260208201905092915050565b600082825260208201905092915050565b600081905092915050565b6000611b1382611dd6565b9150611b1e83611dd6565b9250827fffffffffffffffffffffffffffffffffffffffffffffffffffffffffffffffff03821115611b5357611b52611ec4565b5b828201905092915050565b6000611b6982611dd6565b9150611b7483611dd6565b925082611b8457611b83611ef3565b5b828204905092915050565b6000808291508390505b6001851115611bd957808604811115611bb557611bb4611ec4565b5b6001851615611bc45780820291505b8081029050611bd285611f62565b9450611b99565b94509492505050565b6000611bed82611dd6565b9150611bf883611de0565b9250611c257fffffffffffffffffffffffffffffffffffffffffffffffffffffffffffffffff8484611c2d565b905092915050565b600082611c3d5760019050611cf9565b81611c4b5760009050611cf9565b8160018114611c615760028114611c6b57611c9a565b6001915050611cf9565b60ff841115611c7d57611c7c611ec4565b5b8360020a915084821115611c9457611c93611ec4565b5b50611cf9565b5060208310610133831016604e8410600b8410161715611ccf5782820a905083811115611cca57611cc9611ec4565b5b611cf9565b611cdc8484846001611b8f565b92509050818404811115611cf357611cf2611ec4565b5b81810290505b9392505050565b6000611d0b82611dd6565b9150611d1683611dd6565b9250817fffffffffffffffffffffffffffffffffffffffffffffffffffffffffffffffff0483118215151615611d4f57611d4e611ec4565b5b828202905092915050565b6000611d6582611dd6565b9150611d7083611dd6565b925082821015611d8357611d82611ec4565b5b828203905092915050565b6000611d9982611db6565b9050919050565b60008115159050919050565b6000819050919050565b600073ffffffffffffffffffffffffffffffffffffffff82169050919050565b6000819050919050565b600060ff82169050919050565b60005b83811015611e0b578082015181840152602081019050611df0565b83811115611e1a576000848401525b50505050565b6000611e2b82611dd6565b91506000821415611e3f57611e3e611ec4565b5b600182039050919050565b611e5382611f51565b810181811067ffffffffffffffff82111715611e7257611e71611f22565b5b80604052505050565b6000611e8682611dd6565b91507fffffffffffffffffffffffffffffffffffffffffffffffffffffffffffffffff821415611eb957611eb8611ec4565b5b600182019050919050565b7f4e487b7100000000000000000000000000000000000000000000000000000000600052601160045260246000fd5b7f4e487b7100000000000000000000000000000000000000000000000000000000600052601260045260246000fd5b7f4e487b7100000000000000000000000000000000000000000000000000000000600052604160045260246000fd5b6000601f19601f8301169050919050565b60008160011c9050919050565b7f537472696e67733a20686578206c656e67746820696e73756666696369656e74600082015250565b7f416363657373436f6e74726f6c50726f78795061757361626c653a206163636f60008201527f756e742000000000000000000000000000000000000000000000000000000000602082015250565b7f5061757361626c653a206e6f7420706175736564000000000000000000000000600082015250565b7f547574656c6c7573526577617264735661756c743a20616d6f756e742065786360008201527f6565647320617661696c61626c65000000000000000000000000000000000000602082015250565b7f547574656c6c7573526577617264735661756c743a20616c6c6f636174696f6e60008201527f206172726179206d75737420686176652073616d65206c656e6774682061732060208201527f6e756d626572206f66206163636f756e74730000000000000000000000000000604082015250565b7f5061757361626c653a2070617573656400000000000000000000000000000000600082015250565b7f547574656c6c7573526577617264735661756c743a207b66726f6d7d2069732060008201527f6166746572207b746f7d00000000000000000000000000000000000000000000602082015250565b7f547574656c6c7573526577617264735661756c743a20746f74616c20616c6c6f60008201527f636174696f6e206d757374206265203165323000000000000000000000000000602082015250565b7f206973206d697373696e6720726f6c6520000000000000000000000000000000600082015250565b6121cd81611d8e565b81146121d857600080fd5b50565b6121e481611da0565b81146121ef57600080fd5b50565b6121fb81611dac565b811461220657600080fd5b50565b61221281611dd6565b811461221d57600080fd5b5056fea2646970667358221220ad44beffe3cfde8dbf6bd6b13399b87d1bd77ffda348e161fe6b1537919b3d0c64736f6c63430008020033",
  "linkReferences": {},
  "deployedLinkReferences": {}
}