{
  "_format": "hh-sol-artifact-1",
  "contractName": "TutellusRewardsVault",
  "sourceName": "contracts/TutellusRewardsVault.sol",
  "abi": [
    {
      "inputs": [
        {
          "internalType": "address",
          "name": "rolemanager",
          "type": "address"
        },
        {
          "internalType": "address",
          "name": "token_",
          "type": "address"
        },
        {
          "internalType": "uint256",
          "name": "amount",
          "type": "uint256"
        },
        {
          "internalType": "uint256",
          "name": "startBlock_",
          "type": "uint256"
        },
        {
          "internalType": "uint256",
          "name": "endBlock_",
          "type": "uint256"
        }
      ],
      "stateMutability": "nonpayable",
      "type": "constructor"
    },
    {
      "anonymous": false,
      "inputs": [
        {
          "indexed": false,
          "internalType": "address",
          "name": "account",
          "type": "address"
        }
      ],
      "name": "Add",
      "type": "event"
    },
    {
      "anonymous": false,
      "inputs": [
        {
          "indexed": false,
          "internalType": "address",
          "name": "sender",
          "type": "address"
        },
        {
          "indexed": false,
          "internalType": "address",
          "name": "account",
          "type": "address"
        },
        {
          "indexed": false,
          "internalType": "uint256",
          "name": "amount",
          "type": "uint256"
        }
      ],
      "name": "DistributeTokens",
      "type": "event"
    },
    {
      "anonymous": false,
      "inputs": [
        {
          "indexed": false,
          "internalType": "uint256",
          "name": "startBlock",
          "type": "uint256"
        },
        {
          "indexed": false,
          "internalType": "uint256",
          "name": "endBlock",
          "type": "uint256"
        },
        {
          "indexed": false,
          "internalType": "uint256",
          "name": "increment",
          "type": "uint256"
        }
      ],
      "name": "Init",
      "type": "event"
    },
    {
      "anonymous": false,
      "inputs": [
        {
          "indexed": false,
          "internalType": "address",
          "name": "account",
          "type": "address"
        }
      ],
      "name": "Paused",
      "type": "event"
    },
    {
      "anonymous": false,
      "inputs": [
        {
          "indexed": false,
          "internalType": "address",
          "name": "account",
          "type": "address"
        }
      ],
      "name": "Unpaused",
      "type": "event"
    },
    {
      "anonymous": false,
      "inputs": [
        {
          "indexed": false,
          "internalType": "uint256[]",
          "name": "allocation",
          "type": "uint256[]"
        }
      ],
      "name": "UpdateAllocation",
      "type": "event"
    },
    {
      "inputs": [],
      "name": "DEFAULT_ADMIN_ROLE",
      "outputs": [
        {
          "internalType": "bytes32",
          "name": "",
          "type": "bytes32"
        }
      ],
      "stateMutability": "view",
      "type": "function"
    },
    {
      "inputs": [],
      "name": "PAUSER_ROLE",
      "outputs": [
        {
          "internalType": "bytes32",
          "name": "",
          "type": "bytes32"
        }
      ],
      "stateMutability": "view",
      "type": "function"
    },
    {
      "inputs": [
        {
          "internalType": "address",
          "name": "account",
          "type": "address"
        },
        {
          "internalType": "uint256[]",
          "name": "allocation",
          "type": "uint256[]"
        }
      ],
      "name": "add",
      "outputs": [],
      "stateMutability": "nonpayable",
      "type": "function"
    },
    {
      "inputs": [
        {
          "internalType": "address",
          "name": "account",
          "type": "address"
        }
      ],
      "name": "availableId",
      "outputs": [
        {
          "internalType": "uint256",
          "name": "",
          "type": "uint256"
        }
      ],
      "stateMutability": "view",
      "type": "function"
    },
    {
      "inputs": [
        {
          "internalType": "address",
          "name": "account",
          "type": "address"
        },
        {
          "internalType": "uint256",
          "name": "amount",
          "type": "uint256"
        }
      ],
      "name": "distributeTokens",
      "outputs": [],
      "stateMutability": "nonpayable",
      "type": "function"
    },
    {
      "inputs": [],
      "name": "endBlock",
      "outputs": [
        {
          "internalType": "uint256",
          "name": "",
          "type": "uint256"
        }
      ],
      "stateMutability": "view",
      "type": "function"
    },
    {
      "inputs": [
        {
          "internalType": "bytes32",
          "name": "role",
          "type": "bytes32"
        },
        {
          "internalType": "address",
          "name": "account",
          "type": "address"
        }
      ],
      "name": "hasRole",
      "outputs": [
        {
          "internalType": "bool",
          "name": "",
          "type": "bool"
        }
      ],
      "stateMutability": "view",
      "type": "function"
    },
    {
      "inputs": [],
      "name": "pause",
      "outputs": [],
      "stateMutability": "nonpayable",
      "type": "function"
    },
    {
      "inputs": [],
      "name": "paused",
      "outputs": [
        {
          "internalType": "bool",
          "name": "",
          "type": "bool"
        }
      ],
      "stateMutability": "view",
      "type": "function"
    },
    {
      "inputs": [],
      "name": "released",
      "outputs": [
        {
          "internalType": "uint256",
          "name": "",
          "type": "uint256"
        }
      ],
      "stateMutability": "view",
      "type": "function"
    },
    {
      "inputs": [
        {
          "internalType": "address",
          "name": "account",
          "type": "address"
        }
      ],
      "name": "releasedId",
      "outputs": [
        {
          "internalType": "uint256",
          "name": "",
          "type": "uint256"
        }
      ],
      "stateMutability": "view",
      "type": "function"
    },
    {
      "inputs": [
        {
          "internalType": "uint256",
          "name": "from",
          "type": "uint256"
        },
        {
          "internalType": "uint256",
          "name": "to",
          "type": "uint256"
        }
      ],
      "name": "releasedRange",
      "outputs": [
        {
          "internalType": "uint256",
          "name": "",
          "type": "uint256"
        }
      ],
      "stateMutability": "view",
      "type": "function"
    },
    {
      "inputs": [],
      "name": "startBlock",
      "outputs": [
        {
          "internalType": "uint256",
          "name": "",
          "type": "uint256"
        }
      ],
      "stateMutability": "view",
      "type": "function"
    },
    {
      "inputs": [],
      "name": "token",
      "outputs": [
        {
          "internalType": "address",
          "name": "",
          "type": "address"
        }
      ],
      "stateMutability": "view",
      "type": "function"
    },
    {
      "inputs": [],
      "name": "unpause",
      "outputs": [],
      "stateMutability": "nonpayable",
      "type": "function"
    },
    {
      "inputs": [
        {
          "internalType": "uint256[]",
          "name": "allocation",
          "type": "uint256[]"
        }
      ],
      "name": "updateAllocation",
      "outputs": [],
      "stateMutability": "nonpayable",
      "type": "function"
    },
    {
      "inputs": [
        {
          "internalType": "address",
          "name": "manager",
          "type": "address"
        }
      ],
      "name": "updateManager",
      "outputs": [],
      "stateMutability": "nonpayable",
      "type": "function"
    }
  ],
  "bytecode": "0x60806040523480156200001157600080fd5b506040516200314f3803806200314f83398181016040528101906200003791906200088c565b6200004c85858585856200005760201b60201c565b505050505062000df3565b600060019054906101000a900460ff16806200007e575060008054906101000a900460ff16155b620000c0576040517f08c379a0000000000000000000000000000000000000000000000000000000008152600401620000b7906200096d565b60405180910390fd5b60008060019054906101000a900460ff16159050801562000111576001600060016101000a81548160ff02191690831515021790555060016000806101000a81548160ff0219169083151502179055505b62000122866200016060201b60201c565b62000136858585856200026160201b60201c565b8015620001585760008060016101000a81548160ff0219169083151502179055505b505050505050565b600060019054906101000a900460ff168062000187575060008054906101000a900460ff16155b620001c9576040517f08c379a0000000000000000000000000000000000000000000000000000000008152600401620001c0906200096d565b60405180910390fd5b60008060019054906101000a900460ff1615905080156200021a576001600060016101000a81548160ff02191690831515021790555060016000806101000a81548160ff0219169083151502179055505b6200022a6200046560201b60201c565b6200023b826200056460201b60201c565b80156200025d5760008060016101000a81548160ff0219169083151502179055505b5050565b600060019054906101000a900460ff168062000288575060008054906101000a900460ff16155b620002ca576040517f08c379a0000000000000000000000000000000000000000000000000000000008152600401620002c1906200096d565b60405180910390fd5b60008060019054906101000a900460ff1615905080156200031b576001600060016101000a81548160ff02191690831515021790555060016000806101000a81548160ff0219169083151502179055505b82821162000360576040517f08c379a000000000000000000000000000000000000000000000000000000000815260040162000357906200098f565b60405180910390fd5b84606d60006101000a81548173ffffffffffffffffffffffffffffffffffffffff021916908373ffffffffffffffffffffffffffffffffffffffff1602179055508260698190555081606a8190555060008383620003bf919062000c30565b9050600281620003d0919062000a92565b856002620003df919062000bcf565b620003eb9190620009ff565b606b81905550436068819055507ff1bd4f3fcb4e0b193abc7e4002c0284e25086269a02de2e4c52045a91f647037606954606a54606b546040516200043393929190620009b1565b60405180910390a15080156200045e5760008060016101000a81548160ff0219169083151502179055505b5050505050565b600060019054906101000a900460ff16806200048c575060008054906101000a900460ff16155b620004ce576040517f08c379a0000000000000000000000000000000000000000000000000000000008152600401620004c5906200096d565b60405180910390fd5b60008060019054906101000a900460ff1615905080156200051f576001600060016101000a81548160ff02191690831515021790555060016000806101000a81548160ff0219169083151502179055505b6200052f6200068560201b60201c565b6200053f6200076460201b60201c565b8015620005615760008060016101000a81548160ff0219169083151502179055505b50565b600060019054906101000a900460ff16806200058b575060008054906101000a900460ff16155b620005cd576040517f08c379a0000000000000000000000000000000000000000000000000000000008152600401620005c4906200096d565b60405180910390fd5b60008060019054906101000a900460ff1615905080156200061e576001600060016101000a81548160ff02191690831515021790555060016000806101000a81548160ff0219169083151502179055505b81606560006101000a81548173ffffffffffffffffffffffffffffffffffffffff021916908373ffffffffffffffffffffffffffffffffffffffff1602179055508015620006815760008060016101000a81548160ff0219169083151502179055505b5050565b600060019054906101000a900460ff1680620006ac575060008054906101000a900460ff16155b620006ee576040517f08c379a0000000000000000000000000000000000000000000000000000000008152600401620006e5906200096d565b60405180910390fd5b60008060019054906101000a900460ff1615905080156200073f576001600060016101000a81548160ff02191690831515021790555060016000806101000a81548160ff0219169083151502179055505b8015620007615760008060016101000a81548160ff0219169083151502179055505b50565b600060019054906101000a900460ff16806200078b575060008054906101000a900460ff16155b620007cd576040517f08c379a0000000000000000000000000000000000000000000000000000000008152600401620007c4906200096d565b60405180910390fd5b60008060019054906101000a900460ff1615905080156200081e576001600060016101000a81548160ff02191690831515021790555060016000806101000a81548160ff0219169083151502179055505b6000603360006101000a81548160ff02191690831515021790555080156200085b5760008060016101000a81548160ff0219169083151502179055505b50565b6000815190506200086f8162000dbf565b92915050565b600081519050620008868162000dd9565b92915050565b600080600080600060a08688031215620008a557600080fd5b6000620008b5888289016200085e565b9550506020620008c8888289016200085e565b9450506040620008db8882890162000875565b9350506060620008ee8882890162000875565b9250506080620009018882890162000875565b9150509295509295909350565b60006200091d602e83620009ee565b91506200092a8262000d21565b604082019050919050565b600062000944603383620009ee565b9150620009518262000d70565b604082019050919050565b620009678162000c9f565b82525050565b6000602082019050818103600083015262000988816200090e565b9050919050565b60006020820190508181036000830152620009aa8162000935565b9050919050565b6000606082019050620009c860008301866200095c565b620009d760208301856200095c565b620009e660408301846200095c565b949350505050565b600082825260208201905092915050565b600062000a0c8262000c9f565b915062000a198362000c9f565b92508262000a2c5762000a2b62000ce5565b5b828204905092915050565b6000808291508390505b600185111562000a895780860481111562000a615762000a6062000cb6565b5b600185161562000a715780820291505b808102905062000a818562000d14565b945062000a41565b94509492505050565b600062000a9f8262000c9f565b915062000aac8362000ca9565b925062000adb7fffffffffffffffffffffffffffffffffffffffffffffffffffffffffffffffff848462000ae3565b905092915050565b60008262000af5576001905062000bc8565b8162000b05576000905062000bc8565b816001811462000b1e576002811462000b295762000b5f565b600191505062000bc8565b60ff84111562000b3e5762000b3d62000cb6565b5b8360020a91508482111562000b585762000b5762000cb6565b5b5062000bc8565b5060208310610133831016604e8410600b841016171562000b995782820a90508381111562000b935762000b9262000cb6565b5b62000bc8565b62000ba8848484600162000a37565b9250905081840481111562000bc25762000bc162000cb6565b5b81810290505b9392505050565b600062000bdc8262000c9f565b915062000be98362000c9f565b9250817fffffffffffffffffffffffffffffffffffffffffffffffffffffffffffffffff048311821515161562000c255762000c2462000cb6565b5b828202905092915050565b600062000c3d8262000c9f565b915062000c4a8362000c9f565b92508282101562000c605762000c5f62000cb6565b5b828203905092915050565b600062000c788262000c7f565b9050919050565b600073ffffffffffffffffffffffffffffffffffffffff82169050919050565b6000819050919050565b600060ff82169050919050565b7f4e487b7100000000000000000000000000000000000000000000000000000000600052601160045260246000fd5b7f4e487b7100000000000000000000000000000000000000000000000000000000600052601260045260246000fd5b60008160011c9050919050565b7f496e697469616c697a61626c653a20636f6e747261637420697320616c72656160008201527f647920696e697469616c697a6564000000000000000000000000000000000000602082015250565b7f547574656c6c7573526577617264735661756c743a20737461727420626c6f6360008201527f6b206578636565647320656e6420626c6f636b00000000000000000000000000602082015250565b62000dca8162000c6b565b811462000dd657600080fd5b50565b62000de48162000c9f565b811462000df057600080fd5b50565b61234c8062000e036000396000f3fe608060405234801561001057600080fd5b506004361061010b5760003560e01c80636867aac5116100a2578063a217fddf11610071578063a217fddf14610280578063ae7928bf1461029e578063cccc9a92146102ce578063e63ab1e9146102ea578063fc0c546a146103085761010b565b80636867aac5146101f85780638456cb591461022857806391d148541461023257806396132521146102625761010b565b80633f4ba83a116100de5780633f4ba83a1461019657806348cd4cb1146101a057806358aba00f146101be5780635c975abb146101da5761010b565b8063083c632314610110578063158a49881461012e5780631d444d301461014a57806337cb9e671461017a575b600080fd5b610118610326565b6040516101259190611b32565b60405180910390f35b61014860048036038101906101439190611576565b610330565b005b610164600480360381019061015f91906114f9565b6104c9565b6040516101719190611b32565b60405180910390f35b610194600480360381019061018f91906115b2565b610528565b005b61019e610883565b005b6101a8610950565b6040516101b59190611b32565b60405180910390f35b6101d860048036038101906101d391906114f9565b61095a565b005b6101e2610a44565b6040516101ef91906119d1565b60405180910390f35b610212600480360381019061020d9190611658565b610a5b565b60405161021f9190611b32565b60405180910390f35b610230610b42565b005b61024c6004803603810190610247919061161c565b610c0f565b60405161025991906119d1565b60405180910390f35b61026a610ccb565b6040516102779190611b32565b60405180910390f35b610288610cde565b60405161029591906119ec565b60405180910390f35b6102b860048036038101906102b391906114f9565b610ce5565b6040516102c59190611b32565b60405180910390f35b6102e860048036038101906102e39190611522565b610da8565b005b6102f2610f7e565b6040516102ff91906119ec565b60405180910390f35b610310610fa2565b60405161031d9190611934565b60405180910390f35b6000606a54905090565b610339336104c9565b81111561037b576040517f08c379a000000000000000000000000000000000000000000000000000000000815260040161037290611a92565b60405180910390fd5b80606660003373ffffffffffffffffffffffffffffffffffffffff1673ffffffffffffffffffffffffffffffffffffffff16815260200190815260200160002060020160008282546103cd9190611bfe565b925050819055506000606d60009054906101000a900473ffffffffffffffffffffffffffffffffffffffff1690508073ffffffffffffffffffffffffffffffffffffffff1663a9059cbb84846040518363ffffffff1660e01b8152600401610436929190611986565b602060405180830381600087803b15801561045057600080fd5b505af1158015610464573d6000803e3d6000fd5b505050506040513d601f19601f8201168201806040525081019061048891906115f3565b507f94c0ac970a66c6e8a58afdcd954f63d508e147b98e6f8b803e5c8c37dab11c853384846040516104bc9392919061194f565b60405180910390a1505050565b6000606660008373ffffffffffffffffffffffffffffffffffffffff1673ffffffffffffffffffffffffffffffffffffffff1681526020019081526020016000206002015461051783610ce5565b6105219190611e50565b9050919050565b6000801b600033905061053b8282610c0f565b61055c8273ffffffffffffffffffffffffffffffffffffffff166014610fc8565b61056a8460001c6020610fc8565b60405160200161057b9291906118fa565b604051602081830303815290604052906105cb576040517f08c379a00000000000000000000000000000000000000000000000000000000081526004016105c29190611a30565b60405180910390fd5b5060008084519050606c548114610617576040517f08c379a000000000000000000000000000000000000000000000000000000000815260040161060e90611ab2565b60405180910390fd5b60005b818110156107f25761065e6067600083815260200190815260200160002060009054906101000a900473ffffffffffffffffffffffffffffffffffffffff16610ce5565b606660006067600085815260200190815260200160002060009054906101000a900473ffffffffffffffffffffffffffffffffffffffff1673ffffffffffffffffffffffffffffffffffffffff1673ffffffffffffffffffffffffffffffffffffffff16815260200190815260200160002060010181905550858181518110610710577f4e487b7100000000000000000000000000000000000000000000000000000000600052603260045260246000fd5b6020026020010151606660006067600085815260200190815260200160002060009054906101000a900473ffffffffffffffffffffffffffffffffffffffff1673ffffffffffffffffffffffffffffffffffffffff1673ffffffffffffffffffffffffffffffffffffffff168152602001908152602001600020600001819055508581815181106107ca577f4e487b7100000000000000000000000000000000000000000000000000000000600052603260045260246000fd5b6020026020010151836107dd9190611bfe565b925080806107ea90611f71565b91505061061a565b504360688190555068056bc75e2d631000008214610845576040517f08c379a000000000000000000000000000000000000000000000000000000000815260040161083c90611b12565b60405180910390fd5b7ff33f61b2dd1b74358b2cd80adfa809a090f0e0b0f7e4b6e408b4994f31b073fc8560405161087491906119af565b60405180910390a15050505050565b7f65d7a28e3265b37a6474929f336521b332c1681b933f6cb9f3376673440d862a60003390506108b38282610c0f565b6108d48273ffffffffffffffffffffffffffffffffffffffff166014610fc8565b6108e28460001c6020610fc8565b6040516020016108f39291906118fa565b60405160208183030381529060405290610943576040517f08c379a000000000000000000000000000000000000000000000000000000000815260040161093a9190611a30565b60405180910390fd5b5061094c6112c2565b5050565b6000606954905090565b6000801b600033905061096d8282610c0f565b61098e8273ffffffffffffffffffffffffffffffffffffffff166014610fc8565b61099c8460001c6020610fc8565b6040516020016109ad9291906118fa565b604051602081830303815290604052906109fd576040517f08c379a00000000000000000000000000000000000000000000000000000000081526004016109f49190611a30565b60405180910390fd5b5082606560006101000a81548173ffffffffffffffffffffffffffffffffffffffff021916908373ffffffffffffffffffffffffffffffffffffffff160217905550505050565b6000603360009054906101000a900460ff16905090565b600081831115610aa0576040517f08c379a0000000000000000000000000000000000000000000000000000000008152600401610a9790611af2565b60405180910390fd5b606a54821115610ab057606a5491505b606954831015610ac05760695492505b600060028060695485610ad39190611e50565b610add9190611cd8565b606b54610aea9190611df6565b610af49190611c54565b9050600060028060695487610b099190611e50565b610b139190611cd8565b606b54610b209190611df6565b610b2a9190611c54565b90508082610b389190611e50565b9250505092915050565b7f65d7a28e3265b37a6474929f336521b332c1681b933f6cb9f3376673440d862a6000339050610b728282610c0f565b610b938273ffffffffffffffffffffffffffffffffffffffff166014610fc8565b610ba18460001c6020610fc8565b604051602001610bb29291906118fa565b60405160208183030381529060405290610c02576040517f08c379a0000000000000000000000000000000000000000000000000000000008152600401610bf99190611a30565b60405180910390fd5b50610c0b611364565b5050565b600080606560009054906101000a900473ffffffffffffffffffffffffffffffffffffffff1690508073ffffffffffffffffffffffffffffffffffffffff166391d1485485856040518363ffffffff1660e01b8152600401610c72929190611a07565b60206040518083038186803b158015610c8a57600080fd5b505afa158015610c9e573d6000803e3d6000fd5b505050506040513d601f19601f82011682018060405250810190610cc291906115f3565b91505092915050565b6000610cd960695443610a5b565b905090565b6000801b81565b600068056bc75e2d63100000606660008473ffffffffffffffffffffffffffffffffffffffff1673ffffffffffffffffffffffffffffffffffffffff16815260200190815260200160002060000154610d4060685443610a5b565b610d4a9190611df6565b610d549190611c54565b606660008473ffffffffffffffffffffffffffffffffffffffff1673ffffffffffffffffffffffffffffffffffffffff16815260200190815260200160002060010154610da19190611bfe565b9050919050565b6000801b6000339050610dbb8282610c0f565b610ddc8273ffffffffffffffffffffffffffffffffffffffff166014610fc8565b610dea8460001c6020610fc8565b604051602001610dfb9291906118fa565b60405160208183030381529060405290610e4b576040517f08c379a0000000000000000000000000000000000000000000000000000000008152600401610e429190611a30565b60405180910390fd5b508360676000606c54815260200190815260200160002060006101000a81548173ffffffffffffffffffffffffffffffffffffffff021916908373ffffffffffffffffffffffffffffffffffffffff160217905550604051806060016040528060008152602001600081526020016000815250606660008673ffffffffffffffffffffffffffffffffffffffff1673ffffffffffffffffffffffffffffffffffffffff1681526020019081526020016000206000820151816000015560208201518160010155604082015181600201559050506001606c6000828254610f319190611bfe565b92505081905550610f4183610528565b7f87dc5eecd6d6bdeae407c426da6bfba5b7190befc554ed5d4d62dd5cf939fbae84604051610f709190611934565b60405180910390a150505050565b7f65d7a28e3265b37a6474929f336521b332c1681b933f6cb9f3376673440d862a81565b606d60009054906101000a900473ffffffffffffffffffffffffffffffffffffffff1681565b606060006002836002610fdb9190611df6565b610fe59190611bfe565b67ffffffffffffffff811115611024577f4e487b7100000000000000000000000000000000000000000000000000000000600052604160045260246000fd5b6040519080825280601f01601f1916602001820160405280156110565781602001600182028036833780820191505090505b5090507f3000000000000000000000000000000000000000000000000000000000000000816000815181106110b4577f4e487b7100000000000000000000000000000000000000000000000000000000600052603260045260246000fd5b60200101907effffffffffffffffffffffffffffffffffffffffffffffffffffffffffffff1916908160001a9053507f78000000000000000000000000000000000000000000000000000000000000008160018151811061113e577f4e487b7100000000000000000000000000000000000000000000000000000000600052603260045260246000fd5b60200101907effffffffffffffffffffffffffffffffffffffffffffffffffffffffffffff1916908160001a9053506000600184600261117e9190611df6565b6111889190611bfe565b90505b6001811115611274577f3031323334353637383961626364656600000000000000000000000000000000600f8616601081106111f0577f4e487b7100000000000000000000000000000000000000000000000000000000600052603260045260246000fd5b1a60f81b82828151811061122d577f4e487b7100000000000000000000000000000000000000000000000000000000600052603260045260246000fd5b60200101907effffffffffffffffffffffffffffffffffffffffffffffffffffffffffffff1916908160001a905350600485901c94508061126d90611f16565b905061118b565b50600084146112b8576040517f08c379a00000000000000000000000000000000000000000000000000000000081526004016112af90611a52565b60405180910390fd5b8091505092915050565b6112ca610a44565b611309576040517f08c379a000000000000000000000000000000000000000000000000000000000815260040161130090611a72565b60405180910390fd5b6000603360006101000a81548160ff0219169083151502179055507f5db9ee0a495bf2e6ff9c91a7834c1ba4fdd244a5e8aa4e537bd38aeae4b073aa61134d611407565b60405161135a9190611934565b60405180910390a1565b61136c610a44565b156113ac576040517f08c379a00000000000000000000000000000000000000000000000000000000081526004016113a390611ad2565b60405180910390fd5b6001603360006101000a81548160ff0219169083151502179055507f62e78cea01bee320cd4e420270b5ea74000d11b0c9f74754ebdbfc544b05a2586113f0611407565b6040516113fd9190611934565b60405180910390a1565b600033905090565b600061142261141d84611b72565b611b4d565b9050808382526020820190508285602086028201111561144157600080fd5b60005b85811015611471578161145788826114e4565b845260208401935060208301925050600181019050611444565b5050509392505050565b60008135905061148a816122ba565b92915050565b600082601f8301126114a157600080fd5b81356114b184826020860161140f565b91505092915050565b6000815190506114c9816122d1565b92915050565b6000813590506114de816122e8565b92915050565b6000813590506114f3816122ff565b92915050565b60006020828403121561150b57600080fd5b60006115198482850161147b565b91505092915050565b6000806040838503121561153557600080fd5b60006115438582860161147b565b925050602083013567ffffffffffffffff81111561156057600080fd5b61156c85828601611490565b9150509250929050565b6000806040838503121561158957600080fd5b60006115978582860161147b565b92505060206115a8858286016114e4565b9150509250929050565b6000602082840312156115c457600080fd5b600082013567ffffffffffffffff8111156115de57600080fd5b6115ea84828501611490565b91505092915050565b60006020828403121561160557600080fd5b6000611613848285016114ba565b91505092915050565b6000806040838503121561162f57600080fd5b600061163d858286016114cf565b925050602061164e8582860161147b565b9150509250929050565b6000806040838503121561166b57600080fd5b6000611679858286016114e4565b925050602061168a858286016114e4565b9150509250929050565b60006116a083836118dc565b60208301905092915050565b6116b581611e84565b82525050565b60006116c682611bae565b6116d08185611bd1565b93506116db83611b9e565b8060005b8381101561170c5781516116f38882611694565b97506116fe83611bc4565b9250506001810190506116df565b5085935050505092915050565b61172281611e96565b82525050565b61173181611ea2565b82525050565b600061174282611bb9565b61174c8185611be2565b935061175c818560208601611ee3565b61176581612047565b840191505092915050565b600061177b82611bb9565b6117858185611bf3565b9350611795818560208601611ee3565b80840191505092915050565b60006117ae602083611be2565b91506117b982612065565b602082019050919050565b60006117d1602483611bf3565b91506117dc8261208e565b602482019050919050565b60006117f4601483611be2565b91506117ff826120dd565b602082019050919050565b6000611817602e83611be2565b915061182282612106565b604082019050919050565b600061183a605283611be2565b915061184582612155565b606082019050919050565b600061185d601083611be2565b9150611868826121ca565b602082019050919050565b6000611880602a83611be2565b915061188b826121f3565b604082019050919050565b60006118a3603383611be2565b91506118ae82612242565b604082019050919050565b60006118c6601183611bf3565b91506118d182612291565b601182019050919050565b6118e581611ecc565b82525050565b6118f481611ecc565b82525050565b6000611905826117c4565b91506119118285611770565b915061191c826118b9565b91506119288284611770565b91508190509392505050565b600060208201905061194960008301846116ac565b92915050565b600060608201905061196460008301866116ac565b61197160208301856116ac565b61197e60408301846118eb565b949350505050565b600060408201905061199b60008301856116ac565b6119a860208301846118eb565b9392505050565b600060208201905081810360008301526119c981846116bb565b905092915050565b60006020820190506119e66000830184611719565b92915050565b6000602082019050611a016000830184611728565b92915050565b6000604082019050611a1c6000830185611728565b611a2960208301846116ac565b9392505050565b60006020820190508181036000830152611a4a8184611737565b905092915050565b60006020820190508181036000830152611a6b816117a1565b9050919050565b60006020820190508181036000830152611a8b816117e7565b9050919050565b60006020820190508181036000830152611aab8161180a565b9050919050565b60006020820190508181036000830152611acb8161182d565b9050919050565b60006020820190508181036000830152611aeb81611850565b9050919050565b60006020820190508181036000830152611b0b81611873565b9050919050565b60006020820190508181036000830152611b2b81611896565b9050919050565b6000602082019050611b4760008301846118eb565b92915050565b6000611b57611b68565b9050611b638282611f40565b919050565b6000604051905090565b600067ffffffffffffffff821115611b8d57611b8c612018565b5b602082029050602081019050919050565b6000819050602082019050919050565b600081519050919050565b600081519050919050565b6000602082019050919050565b600082825260208201905092915050565b600082825260208201905092915050565b600081905092915050565b6000611c0982611ecc565b9150611c1483611ecc565b9250827fffffffffffffffffffffffffffffffffffffffffffffffffffffffffffffffff03821115611c4957611c48611fba565b5b828201905092915050565b6000611c5f82611ecc565b9150611c6a83611ecc565b925082611c7a57611c79611fe9565b5b828204905092915050565b6000808291508390505b6001851115611ccf57808604811115611cab57611caa611fba565b5b6001851615611cba5780820291505b8081029050611cc885612058565b9450611c8f565b94509492505050565b6000611ce382611ecc565b9150611cee83611ed6565b9250611d1b7fffffffffffffffffffffffffffffffffffffffffffffffffffffffffffffffff8484611d23565b905092915050565b600082611d335760019050611def565b81611d415760009050611def565b8160018114611d575760028114611d6157611d90565b6001915050611def565b60ff841115611d7357611d72611fba565b5b8360020a915084821115611d8a57611d89611fba565b5b50611def565b5060208310610133831016604e8410600b8410161715611dc55782820a905083811115611dc057611dbf611fba565b5b611def565b611dd28484846001611c85565b92509050818404811115611de957611de8611fba565b5b81810290505b9392505050565b6000611e0182611ecc565b9150611e0c83611ecc565b9250817fffffffffffffffffffffffffffffffffffffffffffffffffffffffffffffffff0483118215151615611e4557611e44611fba565b5b828202905092915050565b6000611e5b82611ecc565b9150611e6683611ecc565b925082821015611e7957611e78611fba565b5b828203905092915050565b6000611e8f82611eac565b9050919050565b60008115159050919050565b6000819050919050565b600073ffffffffffffffffffffffffffffffffffffffff82169050919050565b6000819050919050565b600060ff82169050919050565b60005b83811015611f01578082015181840152602081019050611ee6565b83811115611f10576000848401525b50505050565b6000611f2182611ecc565b91506000821415611f3557611f34611fba565b5b600182039050919050565b611f4982612047565b810181811067ffffffffffffffff82111715611f6857611f67612018565b5b80604052505050565b6000611f7c82611ecc565b91507fffffffffffffffffffffffffffffffffffffffffffffffffffffffffffffffff821415611faf57611fae611fba565b5b600182019050919050565b7f4e487b7100000000000000000000000000000000000000000000000000000000600052601160045260246000fd5b7f4e487b7100000000000000000000000000000000000000000000000000000000600052601260045260246000fd5b7f4e487b7100000000000000000000000000000000000000000000000000000000600052604160045260246000fd5b6000601f19601f8301169050919050565b60008160011c9050919050565b7f537472696e67733a20686578206c656e67746820696e73756666696369656e74600082015250565b7f416363657373436f6e74726f6c50726f78795061757361626c653a206163636f60008201527f756e742000000000000000000000000000000000000000000000000000000000602082015250565b7f5061757361626c653a206e6f7420706175736564000000000000000000000000600082015250565b7f547574656c6c7573526577617264735661756c743a20616d6f756e742065786360008201527f6565647320617661696c61626c65000000000000000000000000000000000000602082015250565b7f547574656c6c7573526577617264735661756c743a20616c6c6f636174696f6e60008201527f206172726179206d75737420686176652073616d65206c656e6774682061732060208201527f6e756d626572206f66206163636f756e74730000000000000000000000000000604082015250565b7f5061757361626c653a2070617573656400000000000000000000000000000000600082015250565b7f547574656c6c7573526577617264735661756c743a207b66726f6d7d2069732060008201527f6166746572207b746f7d00000000000000000000000000000000000000000000602082015250565b7f547574656c6c7573526577617264735661756c743a20746f74616c20616c6c6f60008201527f636174696f6e206d757374206265203165323000000000000000000000000000602082015250565b7f206973206d697373696e6720726f6c6520000000000000000000000000000000600082015250565b6122c381611e84565b81146122ce57600080fd5b50565b6122da81611e96565b81146122e557600080fd5b50565b6122f181611ea2565b81146122fc57600080fd5b50565b61230881611ecc565b811461231357600080fd5b5056fea26469706673582212208705a2f4ac75971b006187f0498270bd680309ededfe000c7f47f9d43bf4c38864736f6c63430008020033",
  "linkReferences": {},
  "deployedLinkReferences": {}
}