{
  "_format": "hh-sol-artifact-1",
  "contractName": "TutellusDIDStorage",
  "sourceName": "contracts/TutellusDIDStorage.sol",
  "abi": [
    {
      "inputs": [],
      "name": "MASTER_ROLE",
      "outputs": [
        {
          "internalType": "bytes32",
          "name": "",
          "type": "bytes32"
        }
      ],
      "stateMutability": "view",
      "type": "function"
    },
    {
      "inputs": [],
      "name": "OWNER_ROLE",
      "outputs": [
        {
          "internalType": "bytes32",
          "name": "",
          "type": "bytes32"
        }
      ],
      "stateMutability": "view",
      "type": "function"
    },
    {
      "inputs": [],
      "name": "controller",
      "outputs": [
        {
          "internalType": "contract TutellusController",
          "name": "",
          "type": "address"
        }
      ],
      "stateMutability": "view",
      "type": "function"
    },
    {
      "inputs": [],
      "name": "onlyVerifiedCalls",
      "outputs": [
        {
          "internalType": "bool",
          "name": "",
          "type": "bool"
        }
      ],
      "stateMutability": "view",
      "type": "function"
    }
  ],
  "bytecode": "0x608060405234801561001057600080fd5b50610256806100206000396000f3fe608060405234801561001057600080fd5b506004361061004c5760003560e01c806323acd14e14610051578063dc2248631461006f578063e58378bb1461008d578063f77c4791146100ab575b600080fd5b6100596100c9565b6040516100669190610175565b60405180910390f35b6100776100dc565b6040516100849190610190565b60405180910390f35b610095610100565b6040516100a29190610190565b60405180910390f35b6100b3610124565b6040516100c091906101ab565b60405180910390f35b600060149054906101000a900460ff1681565b7f8b8c0776df2c2176edf6f82391c35ea4891146d7a976ee36fd07f1a6fb4ead4c81565b7fb19546dff01e856fb3f010c267a7b1c60363cf8a4664e21cc89c26224620214e81565b60008054906101000a900473ffffffffffffffffffffffffffffffffffffffff1681565b610151816101c6565b82525050565b610160816101d2565b82525050565b61016f816101fc565b82525050565b600060208201905061018a6000830184610148565b92915050565b60006020820190506101a56000830184610157565b92915050565b60006020820190506101c06000830184610166565b92915050565b60008115159050919050565b6000819050919050565b600073ffffffffffffffffffffffffffffffffffffffff82169050919050565b60006102078261020e565b9050919050565b6000610219826101dc565b905091905056fea264697066735822122061466f04c8ede403fa9c90ae0d0a2818b24a41cd267fb1e70b1e386d5a84f95664736f6c63430008020033",
  "linkReferences": {},
  "deployedLinkReferences": {}
}