{
  "_format": "hh-sol-artifact-1",
  "contractName": "TutellusYFRewardsVault",
  "sourceName": "contracts/TutellusYFRewardsVault.sol",
  "abi": [
    {
      "inputs": [
        {
          "internalType": "address",
          "name": "rolemanager",
          "type": "address"
        },
        {
          "internalType": "address",
          "name": "token_",
          "type": "address"
        },
        {
          "internalType": "uint256",
          "name": "amount",
          "type": "uint256"
        },
        {
          "internalType": "uint256",
          "name": "blocks",
          "type": "uint256"
        }
      ],
      "stateMutability": "nonpayable",
      "type": "constructor"
    },
    {
      "anonymous": false,
      "inputs": [
        {
          "indexed": false,
          "internalType": "address",
          "name": "account",
          "type": "address"
        }
      ],
      "name": "Paused",
      "type": "event"
    },
    {
      "anonymous": false,
      "inputs": [
        {
          "indexed": false,
          "internalType": "address",
          "name": "account",
          "type": "address"
        }
      ],
      "name": "Unpaused",
      "type": "event"
    },
    {
      "inputs": [],
      "name": "DEFAULT_ADMIN_ROLE",
      "outputs": [
        {
          "internalType": "bytes32",
          "name": "",
          "type": "bytes32"
        }
      ],
      "stateMutability": "view",
      "type": "function"
    },
    {
      "inputs": [],
      "name": "PAUSER_ROLE",
      "outputs": [
        {
          "internalType": "bytes32",
          "name": "",
          "type": "bytes32"
        }
      ],
      "stateMutability": "view",
      "type": "function"
    },
    {
      "inputs": [
        {
          "internalType": "address",
          "name": "account",
          "type": "address"
        },
        {
          "internalType": "uint256[]",
          "name": "allocation",
          "type": "uint256[]"
        }
      ],
      "name": "add",
      "outputs": [],
      "stateMutability": "nonpayable",
      "type": "function"
    },
    {
      "inputs": [
        {
          "internalType": "address",
          "name": "account",
          "type": "address"
        }
      ],
      "name": "availableId",
      "outputs": [
        {
          "internalType": "uint256",
          "name": "",
          "type": "uint256"
        }
      ],
      "stateMutability": "view",
      "type": "function"
    },
    {
      "inputs": [
        {
          "internalType": "address",
          "name": "account",
          "type": "address"
        },
        {
          "internalType": "uint256",
          "name": "amount",
          "type": "uint256"
        }
      ],
      "name": "distributeTokens",
      "outputs": [],
      "stateMutability": "nonpayable",
      "type": "function"
    },
    {
      "inputs": [
        {
          "internalType": "bytes32",
          "name": "role",
          "type": "bytes32"
        },
        {
          "internalType": "address",
          "name": "account",
          "type": "address"
        }
      ],
      "name": "hasRole",
      "outputs": [
        {
          "internalType": "bool",
          "name": "",
          "type": "bool"
        }
      ],
      "stateMutability": "view",
      "type": "function"
    },
    {
      "inputs": [],
      "name": "pause",
      "outputs": [],
      "stateMutability": "nonpayable",
      "type": "function"
    },
    {
      "inputs": [],
      "name": "paused",
      "outputs": [
        {
          "internalType": "bool",
          "name": "",
          "type": "bool"
        }
      ],
      "stateMutability": "view",
      "type": "function"
    },
    {
      "inputs": [],
      "name": "released",
      "outputs": [
        {
          "internalType": "uint256",
          "name": "",
          "type": "uint256"
        }
      ],
      "stateMutability": "view",
      "type": "function"
    },
    {
      "inputs": [
        {
          "internalType": "address",
          "name": "account",
          "type": "address"
        }
      ],
      "name": "releasedId",
      "outputs": [
        {
          "internalType": "uint256",
          "name": "",
          "type": "uint256"
        }
      ],
      "stateMutability": "view",
      "type": "function"
    },
    {
      "inputs": [
        {
          "internalType": "uint256",
          "name": "from",
          "type": "uint256"
        },
        {
          "internalType": "uint256",
          "name": "to",
          "type": "uint256"
        }
      ],
      "name": "releasedRange",
      "outputs": [
        {
          "internalType": "uint256",
          "name": "",
          "type": "uint256"
        }
      ],
      "stateMutability": "view",
      "type": "function"
    },
    {
      "inputs": [],
      "name": "token",
      "outputs": [
        {
          "internalType": "address",
          "name": "",
          "type": "address"
        }
      ],
      "stateMutability": "view",
      "type": "function"
    },
    {
      "inputs": [],
      "name": "unpause",
      "outputs": [],
      "stateMutability": "nonpayable",
      "type": "function"
    },
    {
      "inputs": [
        {
          "internalType": "uint256[]",
          "name": "allocation",
          "type": "uint256[]"
        }
      ],
      "name": "updateAllocation",
      "outputs": [],
      "stateMutability": "nonpayable",
      "type": "function"
    },
    {
      "inputs": [
        {
          "internalType": "address",
          "name": "manager",
          "type": "address"
        }
      ],
      "name": "updateManager",
      "outputs": [],
      "stateMutability": "nonpayable",
      "type": "function"
    }
  ],
  "bytecode": "0x60806040523480156200001157600080fd5b506040516200300c3803806200300c8339818101604052810190620000379190620007f2565b6200004b848484846200005560201b60201c565b5050505062000c7f565b600060019054906101000a900460ff16806200007c575060008054906101000a900460ff16155b620000be576040517f08c379a0000000000000000000000000000000000000000000000000000000008152600401620000b59062000885565b60405180910390fd5b60008060019054906101000a900460ff1615905080156200010f576001600060016101000a81548160ff02191690831515021790555060016000806101000a81548160ff0219169083151502179055505b62000120856200015c60201b60201c565b620001338484846200025d60201b60201c565b8015620001555760008060016101000a81548160ff0219169083151502179055505b5050505050565b600060019054906101000a900460ff168062000183575060008054906101000a900460ff16155b620001c5576040517f08c379a0000000000000000000000000000000000000000000000000000000008152600401620001bc9062000885565b60405180910390fd5b60008060019054906101000a900460ff16159050801562000216576001600060016101000a81548160ff02191690831515021790555060016000806101000a81548160ff0219169083151502179055505b62000226620003cb60201b60201c565b6200023782620004ca60201b60201c565b8015620002595760008060016101000a81548160ff0219169083151502179055505b5050565b600060019054906101000a900460ff168062000284575060008054906101000a900460ff16155b620002c6576040517f08c379a0000000000000000000000000000000000000000000000000000000008152600401620002bd9062000885565b60405180910390fd5b60008060019054906101000a900460ff16159050801562000317576001600060016101000a81548160ff02191690831515021790555060016000806101000a81548160ff0219169083151502179055505b83607060006101000a81548173ffffffffffffffffffffffffffffffffffffffff021916908373ffffffffffffffffffffffffffffffffffffffff16021790555043606c8190555081436200036d9190620008b8565b606d81905550600282620003829190620009a8565b83600262000391919062000ae5565b6200039d919062000915565b606e819055508015620003c55760008060016101000a81548160ff0219169083151502179055505b50505050565b600060019054906101000a900460ff1680620003f2575060008054906101000a900460ff16155b62000434576040517f08c379a00000000000000000000000000000000000000000000000000000000081526004016200042b9062000885565b60405180910390fd5b60008060019054906101000a900460ff16159050801562000485576001600060016101000a81548160ff02191690831515021790555060016000806101000a81548160ff0219169083151502179055505b62000495620005eb60201b60201c565b620004a5620006ca60201b60201c565b8015620004c75760008060016101000a81548160ff0219169083151502179055505b50565b600060019054906101000a900460ff1680620004f1575060008054906101000a900460ff16155b62000533576040517f08c379a00000000000000000000000000000000000000000000000000000000081526004016200052a9062000885565b60405180910390fd5b60008060019054906101000a900460ff16159050801562000584576001600060016101000a81548160ff02191690831515021790555060016000806101000a81548160ff0219169083151502179055505b81606560006101000a81548173ffffffffffffffffffffffffffffffffffffffff021916908373ffffffffffffffffffffffffffffffffffffffff1602179055508015620005e75760008060016101000a81548160ff0219169083151502179055505b5050565b600060019054906101000a900460ff168062000612575060008054906101000a900460ff16155b62000654576040517f08c379a00000000000000000000000000000000000000000000000000000000081526004016200064b9062000885565b60405180910390fd5b60008060019054906101000a900460ff161590508015620006a5576001600060016101000a81548160ff02191690831515021790555060016000806101000a81548160ff0219169083151502179055505b8015620006c75760008060016101000a81548160ff0219169083151502179055505b50565b600060019054906101000a900460ff1680620006f1575060008054906101000a900460ff16155b62000733576040517f08c379a00000000000000000000000000000000000000000000000000000000081526004016200072a9062000885565b60405180910390fd5b60008060019054906101000a900460ff16159050801562000784576001600060016101000a81548160ff02191690831515021790555060016000806101000a81548160ff0219169083151502179055505b6000603360006101000a81548160ff0219169083151502179055508015620007c15760008060016101000a81548160ff0219169083151502179055505b50565b600081519050620007d58162000c4b565b92915050565b600081519050620007ec8162000c65565b92915050565b600080600080608085870312156200080957600080fd5b60006200081987828801620007c4565b94505060206200082c87828801620007c4565b93505060406200083f87828801620007db565b92505060606200085287828801620007db565b91505092959194509250565b60006200086d602e83620008a7565b91506200087a8262000bfc565b604082019050919050565b60006020820190508181036000830152620008a0816200085e565b9050919050565b600082825260208201905092915050565b6000620008c58262000b7a565b9150620008d28362000b7a565b9250827fffffffffffffffffffffffffffffffffffffffffffffffffffffffffffffffff038211156200090a576200090962000b91565b5b828201905092915050565b6000620009228262000b7a565b91506200092f8362000b7a565b92508262000942576200094162000bc0565b5b828204905092915050565b6000808291508390505b60018511156200099f5780860481111562000977576200097662000b91565b5b6001851615620009875780820291505b8081029050620009978562000bef565b945062000957565b94509492505050565b6000620009b58262000b7a565b9150620009c28362000b84565b9250620009f17fffffffffffffffffffffffffffffffffffffffffffffffffffffffffffffffff8484620009f9565b905092915050565b60008262000a0b576001905062000ade565b8162000a1b576000905062000ade565b816001811462000a34576002811462000a3f5762000a75565b600191505062000ade565b60ff84111562000a545762000a5362000b91565b5b8360020a91508482111562000a6e5762000a6d62000b91565b5b5062000ade565b5060208310610133831016604e8410600b841016171562000aaf5782820a90508381111562000aa95762000aa862000b91565b5b62000ade565b62000abe84848460016200094d565b9250905081840481111562000ad85762000ad762000b91565b5b81810290505b9392505050565b600062000af28262000b7a565b915062000aff8362000b7a565b9250817fffffffffffffffffffffffffffffffffffffffffffffffffffffffffffffffff048311821515161562000b3b5762000b3a62000b91565b5b828202905092915050565b600062000b538262000b5a565b9050919050565b600073ffffffffffffffffffffffffffffffffffffffff82169050919050565b6000819050919050565b600060ff82169050919050565b7f4e487b7100000000000000000000000000000000000000000000000000000000600052601160045260246000fd5b7f4e487b7100000000000000000000000000000000000000000000000000000000600052601260045260246000fd5b60008160011c9050919050565b7f496e697469616c697a61626c653a20636f6e747261637420697320616c72656160008201527f647920696e697469616c697a6564000000000000000000000000000000000000602082015250565b62000c568162000b46565b811462000c6257600080fd5b50565b62000c708162000b7a565b811462000c7c57600080fd5b50565b61237d8062000c8f6000396000f3fe608060405234801561001057600080fd5b50600436106100f55760003560e01c80638456cb5911610097578063ae7928bf11610066578063ae7928bf1461024c578063cccc9a921461027c578063e63ab1e914610298578063fc0c546a146102b6576100f5565b80638456cb59146101d657806391d14854146101e05780639613252114610210578063a217fddf1461022e576100f5565b80633f4ba83a116100d35780633f4ba83a1461016257806358aba00f1461016c5780635c975abb146101885780636867aac5146101a6576100f5565b8063158a4988146100fa5780631d444d301461011657806337cb9e6714610146575b600080fd5b610114600480360381019061010f91906116be565b6102d4565b005b610130600480360381019061012b9190611641565b610442565b60405161013d9190611b9c565b60405180910390f35b610160600480360381019061015b91906116fa565b6104b1565b005b61016a6107bb565b005b61018660048036038101906101819190611641565b610931565b005b610190610ac4565b60405161019d9190611a3b565b60405180910390f35b6101c060048036038101906101bb91906117a0565b610adb565b6040516101cd9190611b9c565b60405180910390f35b6101de610bc1565b005b6101fa60048036038101906101f59190611764565b610d37565b6040516102079190611a3b565b60405180910390f35b610218610df3565b6040516102259190611b9c565b60405180910390f35b610236610e06565b6040516102439190611a56565b60405180910390f35b61026660048036038101906102619190611641565b610e0d565b6040516102739190611b9c565b60405180910390f35b6102966004803603810190610291919061166a565b610eb6565b005b6102a06110c6565b6040516102ad9190611a56565b60405180910390f35b6102be6110ea565b6040516102cb91906119f7565b60405180910390f35b6102dd82610442565b81111561031f576040517f08c379a000000000000000000000000000000000000000000000000000000000815260040161031690611b7c565b60405180910390fd5b80606a6000606660003373ffffffffffffffffffffffffffffffffffffffff1673ffffffffffffffffffffffffffffffffffffffff16815260200190815260200160002054815260200190815260200160002060008282546103819190611c2f565b925050819055506000607060009054906101000a900473ffffffffffffffffffffffffffffffffffffffff1690508073ffffffffffffffffffffffffffffffffffffffff1663a9059cbb84846040518363ffffffff1660e01b81526004016103ea929190611a12565b602060405180830381600087803b15801561040457600080fd5b505af1158015610418573d6000803e3d6000fd5b505050506040513d601f19601f8201168201806040525081019061043c919061173b565b50505050565b6000606a6000606660008573ffffffffffffffffffffffffffffffffffffffff1673ffffffffffffffffffffffffffffffffffffffff168152602001908152602001600020548152602001908152602001600020546104a083610e0d565b6104aa9190611e81565b9050919050565b6000801b6000606560009054906101000a900473ffffffffffffffffffffffffffffffffffffffff16905060003390508173ffffffffffffffffffffffffffffffffffffffff166391d1485484836040518363ffffffff1660e01b815260040161051c929190611a71565b60206040518083038186803b15801561053457600080fd5b505afa158015610548573d6000803e3d6000fd5b505050506040513d601f19601f8201168201806040525081019061056c919061173b565b61058d8273ffffffffffffffffffffffffffffffffffffffff166014611110565b61059b8560001c6020611110565b6040516020016105ac9291906119bd565b604051602081830303815290604052906105fc576040517f08c379a00000000000000000000000000000000000000000000000000000000081526004016105f39190611a9a565b60405180910390fd5b5060008085519050606f548114610648576040517f08c379a000000000000000000000000000000000000000000000000000000000815260040161063f90611b3c565b60405180910390fd5b60005b8181101561075f5786818151811061068c577f4e487b7100000000000000000000000000000000000000000000000000000000600052603260045260246000fd5b602002602001015160686000838152602001908152602001600020819055506106e76067600083815260200190815260200160002060009054906101000a900473ffffffffffffffffffffffffffffffffffffffff16610e0d565b6069600083815260200190815260200160002081905550868181518110610737577f4e487b7100000000000000000000000000000000000000000000000000000000600052603260045260246000fd5b60200260200101518361074a9190611c2f565b9250808061075790611fa2565b91505061064b565b5043606b8190555068056bc75e2d631000008211156107b3576040517f08c379a00000000000000000000000000000000000000000000000000000000081526004016107aa90611b1c565b60405180910390fd5b505050505050565b7f65d7a28e3265b37a6474929f336521b332c1681b933f6cb9f3376673440d862a6000606560009054906101000a900473ffffffffffffffffffffffffffffffffffffffff16905060003390508173ffffffffffffffffffffffffffffffffffffffff166391d1485484836040518363ffffffff1660e01b8152600401610843929190611a71565b60206040518083038186803b15801561085b57600080fd5b505afa15801561086f573d6000803e3d6000fd5b505050506040513d601f19601f82011682018060405250810190610893919061173b565b6108b48273ffffffffffffffffffffffffffffffffffffffff166014611110565b6108c28560001c6020611110565b6040516020016108d39291906119bd565b60405160208183030381529060405290610923576040517f08c379a000000000000000000000000000000000000000000000000000000000815260040161091a9190611a9a565b60405180910390fd5b5061092c61140a565b505050565b6000801b6000606560009054906101000a900473ffffffffffffffffffffffffffffffffffffffff16905060003390508173ffffffffffffffffffffffffffffffffffffffff166391d1485484836040518363ffffffff1660e01b815260040161099c929190611a71565b60206040518083038186803b1580156109b457600080fd5b505afa1580156109c8573d6000803e3d6000fd5b505050506040513d601f19601f820116820180604052508101906109ec919061173b565b610a0d8273ffffffffffffffffffffffffffffffffffffffff166014611110565b610a1b8560001c6020611110565b604051602001610a2c9291906119bd565b60405160208183030381529060405290610a7c576040517f08c379a0000000000000000000000000000000000000000000000000000000008152600401610a739190611a9a565b60405180910390fd5b5083606560006101000a81548173ffffffffffffffffffffffffffffffffffffffff021916908373ffffffffffffffffffffffffffffffffffffffff16021790555050505050565b6000603360009054906101000a900460ff16905090565b6000818310610b1f576040517f08c379a0000000000000000000000000000000000000000000000000000000008152600401610b1690611adc565b60405180910390fd5b606d54821115610b2f57606d5491505b606c54831015610b3f57606c5492505b6000600280606c5485610b529190611e81565b610b5c9190611d09565b606e54610b699190611e27565b610b739190611c85565b90506000600280606c5487610b889190611e81565b610b929190611d09565b606e54610b9f9190611e27565b610ba99190611c85565b90508082610bb79190611e81565b9250505092915050565b7f65d7a28e3265b37a6474929f336521b332c1681b933f6cb9f3376673440d862a6000606560009054906101000a900473ffffffffffffffffffffffffffffffffffffffff16905060003390508173ffffffffffffffffffffffffffffffffffffffff166391d1485484836040518363ffffffff1660e01b8152600401610c49929190611a71565b60206040518083038186803b158015610c6157600080fd5b505afa158015610c75573d6000803e3d6000fd5b505050506040513d601f19601f82011682018060405250810190610c99919061173b565b610cba8273ffffffffffffffffffffffffffffffffffffffff166014611110565b610cc88560001c6020611110565b604051602001610cd99291906119bd565b60405160208183030381529060405290610d29576040517f08c379a0000000000000000000000000000000000000000000000000000000008152600401610d209190611a9a565b60405180910390fd5b50610d326114ac565b505050565b600080606560009054906101000a900473ffffffffffffffffffffffffffffffffffffffff1690508073ffffffffffffffffffffffffffffffffffffffff166391d1485485856040518363ffffffff1660e01b8152600401610d9a929190611a71565b60206040518083038186803b158015610db257600080fd5b505afa158015610dc6573d6000803e3d6000fd5b505050506040513d601f19601f82011682018060405250810190610dea919061173b565b91505092915050565b6000610e0143606c54610adb565b905090565b6000801b81565b600080606660008473ffffffffffffffffffffffffffffffffffffffff1673ffffffffffffffffffffffffffffffffffffffff16815260200190815260200160002054905068056bc75e2d631000006068600083815260200190815260200160002054610e7c43606b54610adb565b610e869190611e27565b610e909190611c85565b6069600083815260200190815260200160002054610eae9190611c2f565b915050919050565b6000801b6000606560009054906101000a900473ffffffffffffffffffffffffffffffffffffffff16905060003390508173ffffffffffffffffffffffffffffffffffffffff166391d1485484836040518363ffffffff1660e01b8152600401610f21929190611a71565b60206040518083038186803b158015610f3957600080fd5b505afa158015610f4d573d6000803e3d6000fd5b505050506040513d601f19601f82011682018060405250810190610f71919061173b565b610f928273ffffffffffffffffffffffffffffffffffffffff166014611110565b610fa08560001c6020611110565b604051602001610fb19291906119bd565b60405160208183030381529060405290611001576040517f08c379a0000000000000000000000000000000000000000000000000000000008152600401610ff89190611a9a565b60405180910390fd5b50606f54606660008773ffffffffffffffffffffffffffffffffffffffff1673ffffffffffffffffffffffffffffffffffffffff168152602001908152602001600020819055508460676000606f54815260200190815260200160002060006101000a81548173ffffffffffffffffffffffffffffffffffffffff021916908373ffffffffffffffffffffffffffffffffffffffff1602179055506001606f60008282546110af9190611c2f565b925050819055506110bf846104b1565b5050505050565b7f65d7a28e3265b37a6474929f336521b332c1681b933f6cb9f3376673440d862a81565b607060009054906101000a900473ffffffffffffffffffffffffffffffffffffffff1681565b6060600060028360026111239190611e27565b61112d9190611c2f565b67ffffffffffffffff81111561116c577f4e487b7100000000000000000000000000000000000000000000000000000000600052604160045260246000fd5b6040519080825280601f01601f19166020018201604052801561119e5781602001600182028036833780820191505090505b5090507f3000000000000000000000000000000000000000000000000000000000000000816000815181106111fc577f4e487b7100000000000000000000000000000000000000000000000000000000600052603260045260246000fd5b60200101907effffffffffffffffffffffffffffffffffffffffffffffffffffffffffffff1916908160001a9053507f780000000000000000000000000000000000000000000000000000000000000081600181518110611286577f4e487b7100000000000000000000000000000000000000000000000000000000600052603260045260246000fd5b60200101907effffffffffffffffffffffffffffffffffffffffffffffffffffffffffffff1916908160001a905350600060018460026112c69190611e27565b6112d09190611c2f565b90505b60018111156113bc577f3031323334353637383961626364656600000000000000000000000000000000600f861660108110611338577f4e487b7100000000000000000000000000000000000000000000000000000000600052603260045260246000fd5b1a60f81b828281518110611375577f4e487b7100000000000000000000000000000000000000000000000000000000600052603260045260246000fd5b60200101907effffffffffffffffffffffffffffffffffffffffffffffffffffffffffffff1916908160001a905350600485901c9450806113b590611f47565b90506112d3565b5060008414611400576040517f08c379a00000000000000000000000000000000000000000000000000000000081526004016113f790611abc565b60405180910390fd5b8091505092915050565b611412610ac4565b611451576040517f08c379a000000000000000000000000000000000000000000000000000000000815260040161144890611afc565b60405180910390fd5b6000603360006101000a81548160ff0219169083151502179055507f5db9ee0a495bf2e6ff9c91a7834c1ba4fdd244a5e8aa4e537bd38aeae4b073aa61149561154f565b6040516114a291906119f7565b60405180910390a1565b6114b4610ac4565b156114f4576040517f08c379a00000000000000000000000000000000000000000000000000000000081526004016114eb90611b5c565b60405180910390fd5b6001603360006101000a81548160ff0219169083151502179055507f62e78cea01bee320cd4e420270b5ea74000d11b0c9f74754ebdbfc544b05a25861153861154f565b60405161154591906119f7565b60405180910390a1565b600033905090565b600061156a61156584611bdc565b611bb7565b9050808382526020820190508285602086028201111561158957600080fd5b60005b858110156115b9578161159f888261162c565b84526020840193506020830192505060018101905061158c565b5050509392505050565b6000813590506115d2816122eb565b92915050565b600082601f8301126115e957600080fd5b81356115f9848260208601611557565b91505092915050565b60008151905061161181612302565b92915050565b60008135905061162681612319565b92915050565b60008135905061163b81612330565b92915050565b60006020828403121561165357600080fd5b6000611661848285016115c3565b91505092915050565b6000806040838503121561167d57600080fd5b600061168b858286016115c3565b925050602083013567ffffffffffffffff8111156116a857600080fd5b6116b4858286016115d8565b9150509250929050565b600080604083850312156116d157600080fd5b60006116df858286016115c3565b92505060206116f08582860161162c565b9150509250929050565b60006020828403121561170c57600080fd5b600082013567ffffffffffffffff81111561172657600080fd5b611732848285016115d8565b91505092915050565b60006020828403121561174d57600080fd5b600061175b84828501611602565b91505092915050565b6000806040838503121561177757600080fd5b600061178585828601611617565b9250506020611796858286016115c3565b9150509250929050565b600080604083850312156117b357600080fd5b60006117c18582860161162c565b92505060206117d28582860161162c565b9150509250929050565b6117e581611eb5565b82525050565b6117f481611ec7565b82525050565b61180381611ed3565b82525050565b600061181482611c08565b61181e8185611c13565b935061182e818560208601611f14565b61183781612078565b840191505092915050565b600061184d82611c08565b6118578185611c24565b9350611867818560208601611f14565b80840191505092915050565b6000611880602083611c13565b915061188b82612096565b602082019050919050565b60006118a3603c83611c13565b91506118ae826120bf565b604082019050919050565b60006118c6602483611c24565b91506118d18261210e565b602482019050919050565b60006118e9601483611c13565b91506118f48261215d565b602082019050919050565b600061190c603e83611c13565b915061191782612186565b604082019050919050565b600061192f605483611c13565b915061193a826121d5565b606082019050919050565b6000611952601083611c13565b915061195d8261224a565b602082019050919050565b6000611975603083611c13565b915061198082612273565b604082019050919050565b6000611998601183611c24565b91506119a3826122c2565b601182019050919050565b6119b781611efd565b82525050565b60006119c8826118b9565b91506119d48285611842565b91506119df8261198b565b91506119eb8284611842565b91508190509392505050565b6000602082019050611a0c60008301846117dc565b92915050565b6000604082019050611a2760008301856117dc565b611a3460208301846119ae565b9392505050565b6000602082019050611a5060008301846117eb565b92915050565b6000602082019050611a6b60008301846117fa565b92915050565b6000604082019050611a8660008301856117fa565b611a9360208301846117dc565b9392505050565b60006020820190508181036000830152611ab48184611809565b905092915050565b60006020820190508181036000830152611ad581611873565b9050919050565b60006020820190508181036000830152611af581611896565b9050919050565b60006020820190508181036000830152611b15816118dc565b9050919050565b60006020820190508181036000830152611b35816118ff565b9050919050565b60006020820190508181036000830152611b5581611922565b9050919050565b60006020820190508181036000830152611b7581611945565b9050919050565b60006020820190508181036000830152611b9581611968565b9050919050565b6000602082019050611bb160008301846119ae565b92915050565b6000611bc1611bd2565b9050611bcd8282611f71565b919050565b6000604051905090565b600067ffffffffffffffff821115611bf757611bf6612049565b5b602082029050602081019050919050565b600081519050919050565b600082825260208201905092915050565b600081905092915050565b6000611c3a82611efd565b9150611c4583611efd565b9250827fffffffffffffffffffffffffffffffffffffffffffffffffffffffffffffffff03821115611c7a57611c79611feb565b5b828201905092915050565b6000611c9082611efd565b9150611c9b83611efd565b925082611cab57611caa61201a565b5b828204905092915050565b6000808291508390505b6001851115611d0057808604811115611cdc57611cdb611feb565b5b6001851615611ceb5780820291505b8081029050611cf985612089565b9450611cc0565b94509492505050565b6000611d1482611efd565b9150611d1f83611f07565b9250611d4c7fffffffffffffffffffffffffffffffffffffffffffffffffffffffffffffffff8484611d54565b905092915050565b600082611d645760019050611e20565b81611d725760009050611e20565b8160018114611d885760028114611d9257611dc1565b6001915050611e20565b60ff841115611da457611da3611feb565b5b8360020a915084821115611dbb57611dba611feb565b5b50611e20565b5060208310610133831016604e8410600b8410161715611df65782820a905083811115611df157611df0611feb565b5b611e20565b611e038484846001611cb6565b92509050818404811115611e1a57611e19611feb565b5b81810290505b9392505050565b6000611e3282611efd565b9150611e3d83611efd565b9250817fffffffffffffffffffffffffffffffffffffffffffffffffffffffffffffffff0483118215151615611e7657611e75611feb565b5b828202905092915050565b6000611e8c82611efd565b9150611e9783611efd565b925082821015611eaa57611ea9611feb565b5b828203905092915050565b6000611ec082611edd565b9050919050565b60008115159050919050565b6000819050919050565b600073ffffffffffffffffffffffffffffffffffffffff82169050919050565b6000819050919050565b600060ff82169050919050565b60005b83811015611f32578082015181840152602081019050611f17565b83811115611f41576000848401525b50505050565b6000611f5282611efd565b91506000821415611f6657611f65611feb565b5b600182039050919050565b611f7a82612078565b810181811067ffffffffffffffff82111715611f9957611f98612049565b5b80604052505050565b6000611fad82611efd565b91507fffffffffffffffffffffffffffffffffffffffffffffffffffffffffffffffff821415611fe057611fdf611feb565b5b600182019050919050565b7f4e487b7100000000000000000000000000000000000000000000000000000000600052601160045260246000fd5b7f4e487b7100000000000000000000000000000000000000000000000000000000600052601260045260246000fd5b7f4e487b7100000000000000000000000000000000000000000000000000000000600052604160045260246000fd5b6000601f19601f8301169050919050565b60008160011c9050919050565b7f537472696e67733a20686578206c656e67746820696e73756666696369656e74600082015250565b7f547574656c6c75735969656c64547574656c6c75735969656c6452657761726460008201527f73746f6b656e3a207b66726f6d7d206973206166746572207b746f7d00000000602082015250565b7f416363657373436f6e74726f6c50726f78795061757361626c653a206163636f60008201527f756e742000000000000000000000000000000000000000000000000000000000602082015250565b7f5061757361626c653a206e6f7420706175736564000000000000000000000000600082015250565b7f547574656c6c75735946526577617264735661756c743a20616c6c6f6361746960008201527f6f6e2073756d206d757374206265206c6f776572207468616e20316532300000602082015250565b7f547574656c6c75735946526577617264735661756c743a20616c6c6f6361746960008201527f6f6e206172726179206d75737420686176652073616d65206c656e677468206160208201527f73206e756d626572206f66206163636f756e7473000000000000000000000000604082015250565b7f5061757361626c653a2070617573656400000000000000000000000000000000600082015250565b7f547574656c6c75735946526577617264735661756c743a20616d6f756e74206560008201527f78636565647320617661696c61626c6500000000000000000000000000000000602082015250565b7f206973206d697373696e6720726f6c6520000000000000000000000000000000600082015250565b6122f481611eb5565b81146122ff57600080fd5b50565b61230b81611ec7565b811461231657600080fd5b50565b61232281611ed3565b811461232d57600080fd5b50565b61233981611efd565b811461234457600080fd5b5056fea264697066735822122035f5acaffbce694d31a85abdb2d610843de7163d0fb7cfe946a9ab961f94858a64736f6c63430008020033",
  "linkReferences": {},
  "deployedLinkReferences": {}
}