{
  "_format": "hh-sol-artifact-1",
  "contractName": "TutellusYFRewardsVault",
  "sourceName": "contracts/TutellusYFRewardsVault.sol",
  "abi": [
    {
      "inputs": [
        {
          "internalType": "address",
          "name": "rolemanager",
          "type": "address"
        },
        {
          "internalType": "address",
          "name": "token_",
          "type": "address"
        },
        {
          "internalType": "uint256",
          "name": "amount",
          "type": "uint256"
        },
        {
          "internalType": "uint256",
          "name": "blocks",
          "type": "uint256"
        }
      ],
      "stateMutability": "nonpayable",
      "type": "constructor"
    },
    {
      "anonymous": false,
      "inputs": [
        {
          "indexed": false,
          "internalType": "address",
          "name": "account",
          "type": "address"
        }
      ],
      "name": "Paused",
      "type": "event"
    },
    {
      "anonymous": false,
      "inputs": [
        {
          "indexed": false,
          "internalType": "address",
          "name": "account",
          "type": "address"
        }
      ],
      "name": "Unpaused",
      "type": "event"
    },
    {
      "inputs": [],
      "name": "DEFAULT_ADMIN_ROLE",
      "outputs": [
        {
          "internalType": "bytes32",
          "name": "",
          "type": "bytes32"
        }
      ],
      "stateMutability": "view",
      "type": "function"
    },
    {
      "inputs": [],
      "name": "PAUSER_ROLE",
      "outputs": [
        {
          "internalType": "bytes32",
          "name": "",
          "type": "bytes32"
        }
      ],
      "stateMutability": "view",
      "type": "function"
    },
    {
      "inputs": [
        {
          "internalType": "address",
          "name": "account",
          "type": "address"
        },
        {
          "internalType": "uint256[]",
          "name": "allocation",
          "type": "uint256[]"
        }
      ],
      "name": "add",
      "outputs": [],
      "stateMutability": "nonpayable",
      "type": "function"
    },
    {
      "inputs": [
        {
          "internalType": "address",
          "name": "account",
          "type": "address"
        }
      ],
      "name": "availableId",
      "outputs": [
        {
          "internalType": "uint256",
          "name": "",
          "type": "uint256"
        }
      ],
      "stateMutability": "view",
      "type": "function"
    },
    {
      "inputs": [
        {
          "internalType": "address",
          "name": "account",
          "type": "address"
        },
        {
          "internalType": "uint256",
          "name": "amount",
          "type": "uint256"
        }
      ],
      "name": "distributeTokens",
      "outputs": [],
      "stateMutability": "nonpayable",
      "type": "function"
    },
    {
      "inputs": [
        {
          "internalType": "bytes32",
          "name": "role",
          "type": "bytes32"
        },
        {
          "internalType": "address",
          "name": "account",
          "type": "address"
        }
      ],
      "name": "hasRole",
      "outputs": [
        {
          "internalType": "bool",
          "name": "",
          "type": "bool"
        }
      ],
      "stateMutability": "view",
      "type": "function"
    },
    {
      "inputs": [],
      "name": "pause",
      "outputs": [],
      "stateMutability": "nonpayable",
      "type": "function"
    },
    {
      "inputs": [],
      "name": "paused",
      "outputs": [
        {
          "internalType": "bool",
          "name": "",
          "type": "bool"
        }
      ],
      "stateMutability": "view",
      "type": "function"
    },
    {
      "inputs": [],
      "name": "released",
      "outputs": [
        {
          "internalType": "uint256",
          "name": "",
          "type": "uint256"
        }
      ],
      "stateMutability": "view",
      "type": "function"
    },
    {
      "inputs": [
        {
          "internalType": "address",
          "name": "account",
          "type": "address"
        }
      ],
      "name": "releasedId",
      "outputs": [
        {
          "internalType": "uint256",
          "name": "",
          "type": "uint256"
        }
      ],
      "stateMutability": "view",
      "type": "function"
    },
    {
      "inputs": [
        {
          "internalType": "uint256",
          "name": "from",
          "type": "uint256"
        },
        {
          "internalType": "uint256",
          "name": "to",
          "type": "uint256"
        }
      ],
      "name": "releasedRange",
      "outputs": [
        {
          "internalType": "uint256",
          "name": "",
          "type": "uint256"
        }
      ],
      "stateMutability": "view",
      "type": "function"
    },
    {
      "inputs": [],
      "name": "token",
      "outputs": [
        {
          "internalType": "address",
          "name": "",
          "type": "address"
        }
      ],
      "stateMutability": "view",
      "type": "function"
    },
    {
      "inputs": [],
      "name": "unpause",
      "outputs": [],
      "stateMutability": "nonpayable",
      "type": "function"
    },
    {
      "inputs": [
        {
          "internalType": "uint256[]",
          "name": "allocation",
          "type": "uint256[]"
        }
      ],
      "name": "updateAllocation",
      "outputs": [],
      "stateMutability": "nonpayable",
      "type": "function"
    },
    {
      "inputs": [
        {
          "internalType": "address",
          "name": "manager",
          "type": "address"
        }
      ],
      "name": "updateManager",
      "outputs": [],
      "stateMutability": "nonpayable",
      "type": "function"
    }
  ],
  "bytecode": "0x60806040523480156200001157600080fd5b5060405162003014380380620030148339818101604052810190620000379190620007f9565b6200004b848484846200005560201b60201c565b5050505062000c86565b600060019054906101000a900460ff16806200007c575060008054906101000a900460ff16155b620000be576040517f08c379a0000000000000000000000000000000000000000000000000000000008152600401620000b5906200088c565b60405180910390fd5b60008060019054906101000a900460ff1615905080156200010f576001600060016101000a81548160ff02191690831515021790555060016000806101000a81548160ff0219169083151502179055505b62000120856200015c60201b60201c565b620001338484846200025d60201b60201c565b8015620001555760008060016101000a81548160ff0219169083151502179055505b5050505050565b600060019054906101000a900460ff168062000183575060008054906101000a900460ff16155b620001c5576040517f08c379a0000000000000000000000000000000000000000000000000000000008152600401620001bc906200088c565b60405180910390fd5b60008060019054906101000a900460ff16159050801562000216576001600060016101000a81548160ff02191690831515021790555060016000806101000a81548160ff0219169083151502179055505b62000226620003d260201b60201c565b6200023782620004d160201b60201c565b8015620002595760008060016101000a81548160ff0219169083151502179055505b5050565b600060019054906101000a900460ff168062000284575060008054906101000a900460ff16155b620002c6576040517f08c379a0000000000000000000000000000000000000000000000000000000008152600401620002bd906200088c565b60405180910390fd5b60008060019054906101000a900460ff16159050801562000317576001600060016101000a81548160ff02191690831515021790555060016000806101000a81548160ff0219169083151502179055505b83607060006101000a81548173ffffffffffffffffffffffffffffffffffffffff021916908373ffffffffffffffffffffffffffffffffffffffff16021790555043606c8190555081436200036d9190620008bf565b606d81905550600282620003829190620009af565b83600262000391919062000aec565b6200039d91906200091c565b606e8190555043606b819055508015620003cc5760008060016101000a81548160ff0219169083151502179055505b50505050565b600060019054906101000a900460ff1680620003f9575060008054906101000a900460ff16155b6200043b576040517f08c379a000000000000000000000000000000000000000000000000000000000815260040162000432906200088c565b60405180910390fd5b60008060019054906101000a900460ff1615905080156200048c576001600060016101000a81548160ff02191690831515021790555060016000806101000a81548160ff0219169083151502179055505b6200049c620005f260201b60201c565b620004ac620006d160201b60201c565b8015620004ce5760008060016101000a81548160ff0219169083151502179055505b50565b600060019054906101000a900460ff1680620004f8575060008054906101000a900460ff16155b6200053a576040517f08c379a000000000000000000000000000000000000000000000000000000000815260040162000531906200088c565b60405180910390fd5b60008060019054906101000a900460ff1615905080156200058b576001600060016101000a81548160ff02191690831515021790555060016000806101000a81548160ff0219169083151502179055505b81606560006101000a81548173ffffffffffffffffffffffffffffffffffffffff021916908373ffffffffffffffffffffffffffffffffffffffff1602179055508015620005ee5760008060016101000a81548160ff0219169083151502179055505b5050565b600060019054906101000a900460ff168062000619575060008054906101000a900460ff16155b6200065b576040517f08c379a000000000000000000000000000000000000000000000000000000000815260040162000652906200088c565b60405180910390fd5b60008060019054906101000a900460ff161590508015620006ac576001600060016101000a81548160ff02191690831515021790555060016000806101000a81548160ff0219169083151502179055505b8015620006ce5760008060016101000a81548160ff0219169083151502179055505b50565b600060019054906101000a900460ff1680620006f8575060008054906101000a900460ff16155b6200073a576040517f08c379a000000000000000000000000000000000000000000000000000000000815260040162000731906200088c565b60405180910390fd5b60008060019054906101000a900460ff1615905080156200078b576001600060016101000a81548160ff02191690831515021790555060016000806101000a81548160ff0219169083151502179055505b6000603360006101000a81548160ff0219169083151502179055508015620007c85760008060016101000a81548160ff0219169083151502179055505b50565b600081519050620007dc8162000c52565b92915050565b600081519050620007f38162000c6c565b92915050565b600080600080608085870312156200081057600080fd5b60006200082087828801620007cb565b94505060206200083387828801620007cb565b93505060406200084687828801620007e2565b92505060606200085987828801620007e2565b91505092959194509250565b600062000874602e83620008ae565b9150620008818262000c03565b604082019050919050565b60006020820190508181036000830152620008a78162000865565b9050919050565b600082825260208201905092915050565b6000620008cc8262000b81565b9150620008d98362000b81565b9250827fffffffffffffffffffffffffffffffffffffffffffffffffffffffffffffffff0382111562000911576200091062000b98565b5b828201905092915050565b6000620009298262000b81565b9150620009368362000b81565b92508262000949576200094862000bc7565b5b828204905092915050565b6000808291508390505b6001851115620009a6578086048111156200097e576200097d62000b98565b5b60018516156200098e5780820291505b80810290506200099e8562000bf6565b94506200095e565b94509492505050565b6000620009bc8262000b81565b9150620009c98362000b8b565b9250620009f87fffffffffffffffffffffffffffffffffffffffffffffffffffffffffffffffff848462000a00565b905092915050565b60008262000a12576001905062000ae5565b8162000a22576000905062000ae5565b816001811462000a3b576002811462000a465762000a7c565b600191505062000ae5565b60ff84111562000a5b5762000a5a62000b98565b5b8360020a91508482111562000a755762000a7462000b98565b5b5062000ae5565b5060208310610133831016604e8410600b841016171562000ab65782820a90508381111562000ab05762000aaf62000b98565b5b62000ae5565b62000ac5848484600162000954565b9250905081840481111562000adf5762000ade62000b98565b5b81810290505b9392505050565b600062000af98262000b81565b915062000b068362000b81565b9250817fffffffffffffffffffffffffffffffffffffffffffffffffffffffffffffffff048311821515161562000b425762000b4162000b98565b5b828202905092915050565b600062000b5a8262000b61565b9050919050565b600073ffffffffffffffffffffffffffffffffffffffff82169050919050565b6000819050919050565b600060ff82169050919050565b7f4e487b7100000000000000000000000000000000000000000000000000000000600052601160045260246000fd5b7f4e487b7100000000000000000000000000000000000000000000000000000000600052601260045260246000fd5b60008160011c9050919050565b7f496e697469616c697a61626c653a20636f6e747261637420697320616c72656160008201527f647920696e697469616c697a6564000000000000000000000000000000000000602082015250565b62000c5d8162000b4d565b811462000c6957600080fd5b50565b62000c778162000b81565b811462000c8357600080fd5b50565b61237e8062000c966000396000f3fe608060405234801561001057600080fd5b50600436106100f55760003560e01c80638456cb5911610097578063ae7928bf11610066578063ae7928bf1461024c578063cccc9a921461027c578063e63ab1e914610298578063fc0c546a146102b6576100f5565b80638456cb59146101d657806391d14854146101e05780639613252114610210578063a217fddf1461022e576100f5565b80633f4ba83a116100d35780633f4ba83a1461016257806358aba00f1461016c5780635c975abb146101885780636867aac5146101a6576100f5565b8063158a4988146100fa5780631d444d301461011657806337cb9e6714610146575b600080fd5b610114600480360381019061010f91906116bf565b6102d4565b005b610130600480360381019061012b9190611642565b610442565b60405161013d9190611b9d565b60405180910390f35b610160600480360381019061015b91906116fb565b6104b1565b005b61016a6107bb565b005b61018660048036038101906101819190611642565b610931565b005b610190610ac4565b60405161019d9190611a3c565b60405180910390f35b6101c060048036038101906101bb91906117a1565b610adb565b6040516101cd9190611b9d565b60405180910390f35b6101de610bc2565b005b6101fa60048036038101906101f59190611765565b610d38565b6040516102079190611a3c565b60405180910390f35b610218610df4565b6040516102259190611b9d565b60405180910390f35b610236610e07565b6040516102439190611a57565b60405180910390f35b61026660048036038101906102619190611642565b610e0e565b6040516102739190611b9d565b60405180910390f35b6102966004803603810190610291919061166b565b610eb7565b005b6102a06110c7565b6040516102ad9190611a57565b60405180910390f35b6102be6110eb565b6040516102cb91906119f8565b60405180910390f35b6102dd82610442565b81111561031f576040517f08c379a000000000000000000000000000000000000000000000000000000000815260040161031690611b5d565b60405180910390fd5b80606a6000606660003373ffffffffffffffffffffffffffffffffffffffff1673ffffffffffffffffffffffffffffffffffffffff16815260200190815260200160002054815260200190815260200160002060008282546103819190611c30565b925050819055506000607060009054906101000a900473ffffffffffffffffffffffffffffffffffffffff1690508073ffffffffffffffffffffffffffffffffffffffff1663a9059cbb84846040518363ffffffff1660e01b81526004016103ea929190611a13565b602060405180830381600087803b15801561040457600080fd5b505af1158015610418573d6000803e3d6000fd5b505050506040513d601f19601f8201168201806040525081019061043c919061173c565b50505050565b6000606a6000606660008573ffffffffffffffffffffffffffffffffffffffff1673ffffffffffffffffffffffffffffffffffffffff168152602001908152602001600020548152602001908152602001600020546104a083610e0e565b6104aa9190611e82565b9050919050565b6000801b6000606560009054906101000a900473ffffffffffffffffffffffffffffffffffffffff16905060003390508173ffffffffffffffffffffffffffffffffffffffff166391d1485484836040518363ffffffff1660e01b815260040161051c929190611a72565b60206040518083038186803b15801561053457600080fd5b505afa158015610548573d6000803e3d6000fd5b505050506040513d601f19601f8201168201806040525081019061056c919061173c565b61058d8273ffffffffffffffffffffffffffffffffffffffff166014611111565b61059b8560001c6020611111565b6040516020016105ac9291906119be565b604051602081830303815290604052906105fc576040517f08c379a00000000000000000000000000000000000000000000000000000000081526004016105f39190611a9b565b60405180910390fd5b5060008085519050606f548114610648576040517f08c379a000000000000000000000000000000000000000000000000000000000815260040161063f90611b1d565b60405180910390fd5b60005b8181101561075f5786818151811061068c577f4e487b7100000000000000000000000000000000000000000000000000000000600052603260045260246000fd5b602002602001015160686000838152602001908152602001600020819055506106e76067600083815260200190815260200160002060009054906101000a900473ffffffffffffffffffffffffffffffffffffffff16610e0e565b6069600083815260200190815260200160002081905550868181518110610737577f4e487b7100000000000000000000000000000000000000000000000000000000600052603260045260246000fd5b60200260200101518361074a9190611c30565b9250808061075790611fa3565b91505061064b565b5043606b8190555068056bc75e2d631000008211156107b3576040517f08c379a00000000000000000000000000000000000000000000000000000000081526004016107aa90611afd565b60405180910390fd5b505050505050565b7f65d7a28e3265b37a6474929f336521b332c1681b933f6cb9f3376673440d862a6000606560009054906101000a900473ffffffffffffffffffffffffffffffffffffffff16905060003390508173ffffffffffffffffffffffffffffffffffffffff166391d1485484836040518363ffffffff1660e01b8152600401610843929190611a72565b60206040518083038186803b15801561085b57600080fd5b505afa15801561086f573d6000803e3d6000fd5b505050506040513d601f19601f82011682018060405250810190610893919061173c565b6108b48273ffffffffffffffffffffffffffffffffffffffff166014611111565b6108c28560001c6020611111565b6040516020016108d39291906119be565b60405160208183030381529060405290610923576040517f08c379a000000000000000000000000000000000000000000000000000000000815260040161091a9190611a9b565b60405180910390fd5b5061092c61140b565b505050565b6000801b6000606560009054906101000a900473ffffffffffffffffffffffffffffffffffffffff16905060003390508173ffffffffffffffffffffffffffffffffffffffff166391d1485484836040518363ffffffff1660e01b815260040161099c929190611a72565b60206040518083038186803b1580156109b457600080fd5b505afa1580156109c8573d6000803e3d6000fd5b505050506040513d601f19601f820116820180604052508101906109ec919061173c565b610a0d8273ffffffffffffffffffffffffffffffffffffffff166014611111565b610a1b8560001c6020611111565b604051602001610a2c9291906119be565b60405160208183030381529060405290610a7c576040517f08c379a0000000000000000000000000000000000000000000000000000000008152600401610a739190611a9b565b60405180910390fd5b5083606560006101000a81548173ffffffffffffffffffffffffffffffffffffffff021916908373ffffffffffffffffffffffffffffffffffffffff16021790555050505050565b6000603360009054906101000a900460ff16905090565b600081831115610b20576040517f08c379a0000000000000000000000000000000000000000000000000000000008152600401610b1790611b7d565b60405180910390fd5b606d54821115610b3057606d5491505b606c54831015610b4057606c5492505b6000600280606c5485610b539190611e82565b610b5d9190611d0a565b606e54610b6a9190611e28565b610b749190611c86565b90506000600280606c5487610b899190611e82565b610b939190611d0a565b606e54610ba09190611e28565b610baa9190611c86565b90508082610bb89190611e82565b9250505092915050565b7f65d7a28e3265b37a6474929f336521b332c1681b933f6cb9f3376673440d862a6000606560009054906101000a900473ffffffffffffffffffffffffffffffffffffffff16905060003390508173ffffffffffffffffffffffffffffffffffffffff166391d1485484836040518363ffffffff1660e01b8152600401610c4a929190611a72565b60206040518083038186803b158015610c6257600080fd5b505afa158015610c76573d6000803e3d6000fd5b505050506040513d601f19601f82011682018060405250810190610c9a919061173c565b610cbb8273ffffffffffffffffffffffffffffffffffffffff166014611111565b610cc98560001c6020611111565b604051602001610cda9291906119be565b60405160208183030381529060405290610d2a576040517f08c379a0000000000000000000000000000000000000000000000000000000008152600401610d219190611a9b565b60405180910390fd5b50610d336114ad565b505050565b600080606560009054906101000a900473ffffffffffffffffffffffffffffffffffffffff1690508073ffffffffffffffffffffffffffffffffffffffff166391d1485485856040518363ffffffff1660e01b8152600401610d9b929190611a72565b60206040518083038186803b158015610db357600080fd5b505afa158015610dc7573d6000803e3d6000fd5b505050506040513d601f19601f82011682018060405250810190610deb919061173c565b91505092915050565b6000610e0243606c54610adb565b905090565b6000801b81565b600080606660008473ffffffffffffffffffffffffffffffffffffffff1673ffffffffffffffffffffffffffffffffffffffff16815260200190815260200160002054905068056bc75e2d631000006068600083815260200190815260200160002054610e7d606b5443610adb565b610e879190611e28565b610e919190611c86565b6069600083815260200190815260200160002054610eaf9190611c30565b915050919050565b6000801b6000606560009054906101000a900473ffffffffffffffffffffffffffffffffffffffff16905060003390508173ffffffffffffffffffffffffffffffffffffffff166391d1485484836040518363ffffffff1660e01b8152600401610f22929190611a72565b60206040518083038186803b158015610f3a57600080fd5b505afa158015610f4e573d6000803e3d6000fd5b505050506040513d601f19601f82011682018060405250810190610f72919061173c565b610f938273ffffffffffffffffffffffffffffffffffffffff166014611111565b610fa18560001c6020611111565b604051602001610fb29291906119be565b60405160208183030381529060405290611002576040517f08c379a0000000000000000000000000000000000000000000000000000000008152600401610ff99190611a9b565b60405180910390fd5b50606f54606660008773ffffffffffffffffffffffffffffffffffffffff1673ffffffffffffffffffffffffffffffffffffffff168152602001908152602001600020819055508460676000606f54815260200190815260200160002060006101000a81548173ffffffffffffffffffffffffffffffffffffffff021916908373ffffffffffffffffffffffffffffffffffffffff1602179055506001606f60008282546110b09190611c30565b925050819055506110c0846104b1565b5050505050565b7f65d7a28e3265b37a6474929f336521b332c1681b933f6cb9f3376673440d862a81565b607060009054906101000a900473ffffffffffffffffffffffffffffffffffffffff1681565b6060600060028360026111249190611e28565b61112e9190611c30565b67ffffffffffffffff81111561116d577f4e487b7100000000000000000000000000000000000000000000000000000000600052604160045260246000fd5b6040519080825280601f01601f19166020018201604052801561119f5781602001600182028036833780820191505090505b5090507f3000000000000000000000000000000000000000000000000000000000000000816000815181106111fd577f4e487b7100000000000000000000000000000000000000000000000000000000600052603260045260246000fd5b60200101907effffffffffffffffffffffffffffffffffffffffffffffffffffffffffffff1916908160001a9053507f780000000000000000000000000000000000000000000000000000000000000081600181518110611287577f4e487b7100000000000000000000000000000000000000000000000000000000600052603260045260246000fd5b60200101907effffffffffffffffffffffffffffffffffffffffffffffffffffffffffffff1916908160001a905350600060018460026112c79190611e28565b6112d19190611c30565b90505b60018111156113bd577f3031323334353637383961626364656600000000000000000000000000000000600f861660108110611339577f4e487b7100000000000000000000000000000000000000000000000000000000600052603260045260246000fd5b1a60f81b828281518110611376577f4e487b7100000000000000000000000000000000000000000000000000000000600052603260045260246000fd5b60200101907effffffffffffffffffffffffffffffffffffffffffffffffffffffffffffff1916908160001a905350600485901c9450806113b690611f48565b90506112d4565b5060008414611401576040517f08c379a00000000000000000000000000000000000000000000000000000000081526004016113f890611abd565b60405180910390fd5b8091505092915050565b611413610ac4565b611452576040517f08c379a000000000000000000000000000000000000000000000000000000000815260040161144990611add565b60405180910390fd5b6000603360006101000a81548160ff0219169083151502179055507f5db9ee0a495bf2e6ff9c91a7834c1ba4fdd244a5e8aa4e537bd38aeae4b073aa611496611550565b6040516114a391906119f8565b60405180910390a1565b6114b5610ac4565b156114f5576040517f08c379a00000000000000000000000000000000000000000000000000000000081526004016114ec90611b3d565b60405180910390fd5b6001603360006101000a81548160ff0219169083151502179055507f62e78cea01bee320cd4e420270b5ea74000d11b0c9f74754ebdbfc544b05a258611539611550565b60405161154691906119f8565b60405180910390a1565b600033905090565b600061156b61156684611bdd565b611bb8565b9050808382526020820190508285602086028201111561158a57600080fd5b60005b858110156115ba57816115a0888261162d565b84526020840193506020830192505060018101905061158d565b5050509392505050565b6000813590506115d3816122ec565b92915050565b600082601f8301126115ea57600080fd5b81356115fa848260208601611558565b91505092915050565b60008151905061161281612303565b92915050565b6000813590506116278161231a565b92915050565b60008135905061163c81612331565b92915050565b60006020828403121561165457600080fd5b6000611662848285016115c4565b91505092915050565b6000806040838503121561167e57600080fd5b600061168c858286016115c4565b925050602083013567ffffffffffffffff8111156116a957600080fd5b6116b5858286016115d9565b9150509250929050565b600080604083850312156116d257600080fd5b60006116e0858286016115c4565b92505060206116f18582860161162d565b9150509250929050565b60006020828403121561170d57600080fd5b600082013567ffffffffffffffff81111561172757600080fd5b611733848285016115d9565b91505092915050565b60006020828403121561174e57600080fd5b600061175c84828501611603565b91505092915050565b6000806040838503121561177857600080fd5b600061178685828601611618565b9250506020611797858286016115c4565b9150509250929050565b600080604083850312156117b457600080fd5b60006117c28582860161162d565b92505060206117d38582860161162d565b9150509250929050565b6117e681611eb6565b82525050565b6117f581611ec8565b82525050565b61180481611ed4565b82525050565b600061181582611c09565b61181f8185611c14565b935061182f818560208601611f15565b61183881612079565b840191505092915050565b600061184e82611c09565b6118588185611c25565b9350611868818560208601611f15565b80840191505092915050565b6000611881602083611c14565b915061188c82612097565b602082019050919050565b60006118a4602483611c25565b91506118af826120c0565b602482019050919050565b60006118c7601483611c14565b91506118d28261210f565b602082019050919050565b60006118ea603e83611c14565b91506118f582612138565b604082019050919050565b600061190d605483611c14565b915061191882612187565b606082019050919050565b6000611930601083611c14565b915061193b826121fc565b602082019050919050565b6000611953603083611c14565b915061195e82612225565b604082019050919050565b6000611976602c83611c14565b915061198182612274565b604082019050919050565b6000611999601183611c25565b91506119a4826122c3565b601182019050919050565b6119b881611efe565b82525050565b60006119c982611897565b91506119d58285611843565b91506119e08261198c565b91506119ec8284611843565b91508190509392505050565b6000602082019050611a0d60008301846117dd565b92915050565b6000604082019050611a2860008301856117dd565b611a3560208301846119af565b9392505050565b6000602082019050611a5160008301846117ec565b92915050565b6000602082019050611a6c60008301846117fb565b92915050565b6000604082019050611a8760008301856117fb565b611a9460208301846117dd565b9392505050565b60006020820190508181036000830152611ab5818461180a565b905092915050565b60006020820190508181036000830152611ad681611874565b9050919050565b60006020820190508181036000830152611af6816118ba565b9050919050565b60006020820190508181036000830152611b16816118dd565b9050919050565b60006020820190508181036000830152611b3681611900565b9050919050565b60006020820190508181036000830152611b5681611923565b9050919050565b60006020820190508181036000830152611b7681611946565b9050919050565b60006020820190508181036000830152611b9681611969565b9050919050565b6000602082019050611bb260008301846119af565b92915050565b6000611bc2611bd3565b9050611bce8282611f72565b919050565b6000604051905090565b600067ffffffffffffffff821115611bf857611bf761204a565b5b602082029050602081019050919050565b600081519050919050565b600082825260208201905092915050565b600081905092915050565b6000611c3b82611efe565b9150611c4683611efe565b9250827fffffffffffffffffffffffffffffffffffffffffffffffffffffffffffffffff03821115611c7b57611c7a611fec565b5b828201905092915050565b6000611c9182611efe565b9150611c9c83611efe565b925082611cac57611cab61201b565b5b828204905092915050565b6000808291508390505b6001851115611d0157808604811115611cdd57611cdc611fec565b5b6001851615611cec5780820291505b8081029050611cfa8561208a565b9450611cc1565b94509492505050565b6000611d1582611efe565b9150611d2083611f08565b9250611d4d7fffffffffffffffffffffffffffffffffffffffffffffffffffffffffffffffff8484611d55565b905092915050565b600082611d655760019050611e21565b81611d735760009050611e21565b8160018114611d895760028114611d9357611dc2565b6001915050611e21565b60ff841115611da557611da4611fec565b5b8360020a915084821115611dbc57611dbb611fec565b5b50611e21565b5060208310610133831016604e8410600b8410161715611df75782820a905083811115611df257611df1611fec565b5b611e21565b611e048484846001611cb7565b92509050818404811115611e1b57611e1a611fec565b5b81810290505b9392505050565b6000611e3382611efe565b9150611e3e83611efe565b9250817fffffffffffffffffffffffffffffffffffffffffffffffffffffffffffffffff0483118215151615611e7757611e76611fec565b5b828202905092915050565b6000611e8d82611efe565b9150611e9883611efe565b925082821015611eab57611eaa611fec565b5b828203905092915050565b6000611ec182611ede565b9050919050565b60008115159050919050565b6000819050919050565b600073ffffffffffffffffffffffffffffffffffffffff82169050919050565b6000819050919050565b600060ff82169050919050565b60005b83811015611f33578082015181840152602081019050611f18565b83811115611f42576000848401525b50505050565b6000611f5382611efe565b91506000821415611f6757611f66611fec565b5b600182039050919050565b611f7b82612079565b810181811067ffffffffffffffff82111715611f9a57611f9961204a565b5b80604052505050565b6000611fae82611efe565b91507fffffffffffffffffffffffffffffffffffffffffffffffffffffffffffffffff821415611fe157611fe0611fec565b5b600182019050919050565b7f4e487b7100000000000000000000000000000000000000000000000000000000600052601160045260246000fd5b7f4e487b7100000000000000000000000000000000000000000000000000000000600052601260045260246000fd5b7f4e487b7100000000000000000000000000000000000000000000000000000000600052604160045260246000fd5b6000601f19601f8301169050919050565b60008160011c9050919050565b7f537472696e67733a20686578206c656e67746820696e73756666696369656e74600082015250565b7f416363657373436f6e74726f6c50726f78795061757361626c653a206163636f60008201527f756e742000000000000000000000000000000000000000000000000000000000602082015250565b7f5061757361626c653a206e6f7420706175736564000000000000000000000000600082015250565b7f547574656c6c75735946526577617264735661756c743a20616c6c6f6361746960008201527f6f6e2073756d206d757374206265206c6f776572207468616e20316532300000602082015250565b7f547574656c6c75735946526577617264735661756c743a20616c6c6f6361746960008201527f6f6e206172726179206d75737420686176652073616d65206c656e677468206160208201527f73206e756d626572206f66206163636f756e7473000000000000000000000000604082015250565b7f5061757361626c653a2070617573656400000000000000000000000000000000600082015250565b7f547574656c6c75735946526577617264735661756c743a20616d6f756e74206560008201527f78636565647320617661696c61626c6500000000000000000000000000000000602082015250565b7f547574656c6c75735946526577617264735661756c743a207b66726f6d7d206960008201527f73206166746572207b746f7d0000000000000000000000000000000000000000602082015250565b7f206973206d697373696e6720726f6c6520000000000000000000000000000000600082015250565b6122f581611eb6565b811461230057600080fd5b50565b61230c81611ec8565b811461231757600080fd5b50565b61232381611ed4565b811461232e57600080fd5b50565b61233a81611efe565b811461234557600080fd5b5056fea264697066735822122043db08ea1441afd766dcb3554bf2fea9a97a88ece4988380f678ba6e0386da0064736f6c63430008020033",
  "linkReferences": {},
  "deployedLinkReferences": {}
}