{
  "_format": "hh-sol-artifact-1",
  "contractName": "TutellusHoldersVault",
  "sourceName": "contracts/TutellusHoldersVault.sol",
  "abi": [
    {
      "inputs": [
        {
          "internalType": "address",
          "name": "rolemanager",
          "type": "address"
        },
        {
          "internalType": "address",
          "name": "token_",
          "type": "address"
        },
        {
          "internalType": "uint256",
          "name": "limit",
          "type": "uint256"
        },
        {
          "internalType": "uint256",
          "name": "startBlock_",
          "type": "uint256"
        },
        {
          "internalType": "uint256",
          "name": "endBlock_",
          "type": "uint256"
        }
      ],
      "stateMutability": "nonpayable",
      "type": "constructor"
    },
    {
      "anonymous": false,
      "inputs": [
        {
          "indexed": false,
          "internalType": "address",
          "name": "holder",
          "type": "address"
        },
        {
          "indexed": false,
          "internalType": "uint256",
          "name": "allocated",
          "type": "uint256"
        }
      ],
      "name": "Add",
      "type": "event"
    },
    {
      "anonymous": false,
      "inputs": [
        {
          "indexed": false,
          "internalType": "address",
          "name": "sender",
          "type": "address"
        },
        {
          "indexed": false,
          "internalType": "address",
          "name": "account",
          "type": "address"
        },
        {
          "indexed": false,
          "internalType": "uint256",
          "name": "amount",
          "type": "uint256"
        }
      ],
      "name": "Distribute",
      "type": "event"
    },
    {
      "anonymous": false,
      "inputs": [
        {
          "indexed": false,
          "internalType": "uint256",
          "name": "startBlock",
          "type": "uint256"
        },
        {
          "indexed": false,
          "internalType": "uint256",
          "name": "endBlock",
          "type": "uint256"
        },
        {
          "indexed": false,
          "internalType": "uint256",
          "name": "limit",
          "type": "uint256"
        }
      ],
      "name": "Init",
      "type": "event"
    },
    {
      "anonymous": false,
      "inputs": [
        {
          "indexed": false,
          "internalType": "address",
          "name": "account",
          "type": "address"
        }
      ],
      "name": "Paused",
      "type": "event"
    },
    {
      "anonymous": false,
      "inputs": [
        {
          "indexed": false,
          "internalType": "address",
          "name": "account",
          "type": "address"
        }
      ],
      "name": "Unpaused",
      "type": "event"
    },
    {
      "anonymous": false,
      "inputs": [
        {
          "indexed": false,
          "internalType": "address",
          "name": "account",
          "type": "address"
        }
      ],
      "name": "Update",
      "type": "event"
    },
    {
      "inputs": [],
      "name": "DEFAULT_ADMIN_ROLE",
      "outputs": [
        {
          "internalType": "bytes32",
          "name": "",
          "type": "bytes32"
        }
      ],
      "stateMutability": "view",
      "type": "function"
    },
    {
      "inputs": [],
      "name": "PAUSER_ROLE",
      "outputs": [
        {
          "internalType": "bytes32",
          "name": "",
          "type": "bytes32"
        }
      ],
      "stateMutability": "view",
      "type": "function"
    },
    {
      "inputs": [
        {
          "internalType": "address",
          "name": "account",
          "type": "address"
        },
        {
          "internalType": "uint256",
          "name": "allocated_",
          "type": "uint256"
        }
      ],
      "name": "add",
      "outputs": [],
      "stateMutability": "nonpayable",
      "type": "function"
    },
    {
      "inputs": [
        {
          "internalType": "address[]",
          "name": "account",
          "type": "address[]"
        },
        {
          "internalType": "uint256[]",
          "name": "allocated_",
          "type": "uint256[]"
        }
      ],
      "name": "addBatch",
      "outputs": [],
      "stateMutability": "nonpayable",
      "type": "function"
    },
    {
      "inputs": [
        {
          "internalType": "address",
          "name": "",
          "type": "address"
        }
      ],
      "name": "allocated",
      "outputs": [
        {
          "internalType": "uint256",
          "name": "",
          "type": "uint256"
        }
      ],
      "stateMutability": "view",
      "type": "function"
    },
    {
      "inputs": [
        {
          "internalType": "address",
          "name": "account",
          "type": "address"
        }
      ],
      "name": "available",
      "outputs": [
        {
          "internalType": "uint256",
          "name": "",
          "type": "uint256"
        }
      ],
      "stateMutability": "view",
      "type": "function"
    },
    {
      "inputs": [],
      "name": "claim",
      "outputs": [],
      "stateMutability": "nonpayable",
      "type": "function"
    },
    {
      "inputs": [
        {
          "internalType": "address",
          "name": "account",
          "type": "address"
        }
      ],
      "name": "distribute",
      "outputs": [],
      "stateMutability": "nonpayable",
      "type": "function"
    },
    {
      "inputs": [
        {
          "internalType": "address",
          "name": "",
          "type": "address"
        }
      ],
      "name": "distributed",
      "outputs": [
        {
          "internalType": "uint256",
          "name": "",
          "type": "uint256"
        }
      ],
      "stateMutability": "view",
      "type": "function"
    },
    {
      "inputs": [
        {
          "internalType": "bytes32",
          "name": "role",
          "type": "bytes32"
        },
        {
          "internalType": "address",
          "name": "account",
          "type": "address"
        }
      ],
      "name": "hasRole",
      "outputs": [
        {
          "internalType": "bool",
          "name": "",
          "type": "bool"
        }
      ],
      "stateMutability": "view",
      "type": "function"
    },
    {
      "inputs": [],
      "name": "pause",
      "outputs": [],
      "stateMutability": "nonpayable",
      "type": "function"
    },
    {
      "inputs": [],
      "name": "paused",
      "outputs": [
        {
          "internalType": "bool",
          "name": "",
          "type": "bool"
        }
      ],
      "stateMutability": "view",
      "type": "function"
    },
    {
      "inputs": [
        {
          "internalType": "address",
          "name": "account",
          "type": "address"
        }
      ],
      "name": "released",
      "outputs": [
        {
          "internalType": "uint256",
          "name": "",
          "type": "uint256"
        }
      ],
      "stateMutability": "view",
      "type": "function"
    },
    {
      "inputs": [],
      "name": "token",
      "outputs": [
        {
          "internalType": "address",
          "name": "",
          "type": "address"
        }
      ],
      "stateMutability": "view",
      "type": "function"
    },
    {
      "inputs": [],
      "name": "unpause",
      "outputs": [],
      "stateMutability": "nonpayable",
      "type": "function"
    },
    {
      "inputs": [
        {
          "internalType": "address",
          "name": "manager",
          "type": "address"
        }
      ],
      "name": "updateManager",
      "outputs": [],
      "stateMutability": "nonpayable",
      "type": "function"
    }
  ],
  "bytecode": "0x60806040523480156200001157600080fd5b506040516200282538038062002825833981810160405281019062000037919062000847565b8181116200007c576040517f08c379a0000000000000000000000000000000000000000000000000000000008152600401620000739062000928565b60405180910390fd5b6200009185858585856200009c60201b60201c565b505050505062000aca565b600060019054906101000a900460ff1680620000c3575060008054906101000a900460ff16155b62000105576040517f08c379a0000000000000000000000000000000000000000000000000000000008152600401620000fc906200094a565b60405180910390fd5b60008060019054906101000a900460ff16159050801562000156576001600060016101000a81548160ff02191690831515021790555060016000806101000a81548160ff0219169083151502179055505b6200016786620001a560201b60201c565b6200017b85858585620002a660201b60201c565b80156200019d5760008060016101000a81548160ff0219169083151502179055505b505050505050565b600060019054906101000a900460ff1680620001cc575060008054906101000a900460ff16155b6200020e576040517f08c379a000000000000000000000000000000000000000000000000000000000815260040162000205906200094a565b60405180910390fd5b60008060019054906101000a900460ff1615905080156200025f576001600060016101000a81548160ff02191690831515021790555060016000806101000a81548160ff0219169083151502179055505b6200026f6200042060201b60201c565b62000280826200051f60201b60201c565b8015620002a25760008060016101000a81548160ff0219169083151502179055505b5050565b600060019054906101000a900460ff1680620002cd575060008054906101000a900460ff16155b6200030f576040517f08c379a000000000000000000000000000000000000000000000000000000000815260040162000306906200094a565b60405180910390fd5b60008060019054906101000a900460ff16159050801562000360576001600060016101000a81548160ff02191690831515021790555060016000806101000a81548160ff0219169083151502179055505b84606660006101000a81548173ffffffffffffffffffffffffffffffffffffffff021916908373ffffffffffffffffffffffffffffffffffffffff1602179055508360698190555082606781905550816068819055507ff1bd4f3fcb4e0b193abc7e4002c0284e25086269a02de2e4c52045a91f64703760675460685486604051620003ef939291906200096c565b60405180910390a18015620004195760008060016101000a81548160ff0219169083151502179055505b5050505050565b600060019054906101000a900460ff168062000447575060008054906101000a900460ff16155b62000489576040517f08c379a000000000000000000000000000000000000000000000000000000000815260040162000480906200094a565b60405180910390fd5b60008060019054906101000a900460ff161590508015620004da576001600060016101000a81548160ff02191690831515021790555060016000806101000a81548160ff0219169083151502179055505b620004ea6200064060201b60201c565b620004fa6200071f60201b60201c565b80156200051c5760008060016101000a81548160ff0219169083151502179055505b50565b600060019054906101000a900460ff168062000546575060008054906101000a900460ff16155b62000588576040517f08c379a00000000000000000000000000000000000000000000000000000000081526004016200057f906200094a565b60405180910390fd5b60008060019054906101000a900460ff161590508015620005d9576001600060016101000a81548160ff02191690831515021790555060016000806101000a81548160ff0219169083151502179055505b81606560006101000a81548173ffffffffffffffffffffffffffffffffffffffff021916908373ffffffffffffffffffffffffffffffffffffffff16021790555080156200063c5760008060016101000a81548160ff0219169083151502179055505b5050565b600060019054906101000a900460ff168062000667575060008054906101000a900460ff16155b620006a9576040517f08c379a0000000000000000000000000000000000000000000000000000000008152600401620006a0906200094a565b60405180910390fd5b60008060019054906101000a900460ff161590508015620006fa576001600060016101000a81548160ff02191690831515021790555060016000806101000a81548160ff0219169083151502179055505b80156200071c5760008060016101000a81548160ff0219169083151502179055505b50565b600060019054906101000a900460ff168062000746575060008054906101000a900460ff16155b62000788576040517f08c379a00000000000000000000000000000000000000000000000000000000081526004016200077f906200094a565b60405180910390fd5b60008060019054906101000a900460ff161590508015620007d9576001600060016101000a81548160ff02191690831515021790555060016000806101000a81548160ff0219169083151502179055505b6000603360006101000a81548160ff0219169083151502179055508015620008165760008060016101000a81548160ff0219169083151502179055505b50565b6000815190506200082a8162000a96565b92915050565b600081519050620008418162000ab0565b92915050565b600080600080600060a086880312156200086057600080fd5b6000620008708882890162000819565b9550506020620008838882890162000819565b9450506040620008968882890162000830565b9350506060620008a98882890162000830565b9250506080620008bc8882890162000830565b9150509295509295909350565b6000620008d8603383620009a9565b9150620008e582620009f8565b604082019050919050565b6000620008ff602e83620009a9565b91506200090c8262000a47565b604082019050919050565b6200092281620009ee565b82525050565b600060208201905081810360008301526200094381620008c9565b9050919050565b600060208201905081810360008301526200096581620008f0565b9050919050565b600060608201905062000983600083018662000917565b62000992602083018562000917565b620009a1604083018462000917565b949350505050565b600082825260208201905092915050565b6000620009c782620009ce565b9050919050565b600073ffffffffffffffffffffffffffffffffffffffff82169050919050565b6000819050919050565b7f547574656c6c7573486f6c646572735661756c743a20737461727420626c6f6360008201527f6b206578636565647320656e6420626c6f636b00000000000000000000000000602082015250565b7f496e697469616c697a61626c653a20636f6e747261637420697320616c72656160008201527f647920696e697469616c697a6564000000000000000000000000000000000000602082015250565b62000aa181620009ba565b811462000aad57600080fd5b50565b62000abb81620009ee565b811462000ac757600080fd5b50565b611d4b8062000ada6000396000f3fe608060405234801561001057600080fd5b50600436106101005760003560e01c806363453ae111610097578063a217fddf11610066578063a217fddf14610285578063e63ab1e9146102a3578063f5d82b6b146102c1578063fc0c546a146102dd57610100565b806363453ae1146101ff5780638456cb591461021b57806391d14854146102255780639852595c1461025557610100565b80634e71d92d116100d35780634e71d92d1461018b578063578bcf351461019557806358aba00f146101c55780635c975abb146101e157610100565b80630d12cc681461010557806310098ad5146101215780633f4ba83a146101515780634225e5bb1461015b575b600080fd5b61011f600480360381019061011a919061134b565b6102fb565b005b61013b600480360381019061013691906112e6565b6103a9565b604051610148919061178d565b60405180910390f35b610159610405565b005b610175600480360381019061017091906112e6565b6104d2565b604051610182919061178d565b60405180910390f35b6101936104ea565b005b6101af60048036038101906101aa91906112e6565b6104fb565b6040516101bc919061178d565b60405180910390f35b6101df60048036038101906101da91906112e6565b610513565b005b6101e96105fd565b6040516101f6919061166c565b60405180910390f35b610219600480360381019061021491906112e6565b610614565b005b6102236107f7565b005b61023f600480360381019061023a91906113e0565b6108c4565b60405161024c919061166c565b60405180910390f35b61026f600480360381019061026a91906112e6565b610980565b60405161027c919061178d565b60405180910390f35b61028d610a6d565b60405161029a9190611687565b60405180910390f35b6102ab610a74565b6040516102b89190611687565b60405180910390f35b6102db60048036038101906102d6919061130f565b610a98565b005b6102e5610cf9565b6040516102f291906115f1565b60405180910390f35b60005b82518110156103a457610391838281518110610343577f4e487b7100000000000000000000000000000000000000000000000000000000600052603260045260246000fd5b6020026020010151838381518110610384577f4e487b7100000000000000000000000000000000000000000000000000000000600052603260045260246000fd5b6020026020010151610a98565b808061039c90611a41565b9150506102fe565b505050565b6000606b60008373ffffffffffffffffffffffffffffffffffffffff1673ffffffffffffffffffffffffffffffffffffffff168152602001908152602001600020546103f483610980565b6103fe919061192d565b9050919050565b7f65d7a28e3265b37a6474929f336521b332c1681b933f6cb9f3376673440d862a600033905061043582826108c4565b6104568273ffffffffffffffffffffffffffffffffffffffff166014610d1f565b6104648460001c6020610d1f565b6040516020016104759291906115b7565b604051602081830303815290604052906104c5576040517f08c379a00000000000000000000000000000000000000000000000000000000081526004016104bc91906116cb565b60405180910390fd5b506104ce611019565b5050565b606c6020528060005260406000206000915090505481565b60003390506104f881610614565b50565b606b6020528060005260406000206000915090505481565b6000801b600033905061052682826108c4565b6105478273ffffffffffffffffffffffffffffffffffffffff166014610d1f565b6105558460001c6020610d1f565b6040516020016105669291906115b7565b604051602081830303815290604052906105b6576040517f08c379a00000000000000000000000000000000000000000000000000000000081526004016105ad91906116cb565b60405180910390fd5b5082606560006101000a81548173ffffffffffffffffffffffffffffffffffffffff021916908373ffffffffffffffffffffffffffffffffffffffff160217905550505050565b6000603360009054906101000a900460ff16905090565b61061c6105fd565b1561065c576040517f08c379a00000000000000000000000000000000000000000000000000000000081526004016106539061174d565b60405180910390fd5b6000606660009054906101000a900473ffffffffffffffffffffffffffffffffffffffff169050600061068e836103a9565b9050600081116106d3576040517f08c379a00000000000000000000000000000000000000000000000000000000081526004016106ca9061176d565b60405180910390fd5b80606b60008573ffffffffffffffffffffffffffffffffffffffff1673ffffffffffffffffffffffffffffffffffffffff1681526020019081526020016000206000828254610722919061184c565b925050819055508173ffffffffffffffffffffffffffffffffffffffff1663a9059cbb84836040518363ffffffff1660e01b8152600401610764929190611643565b602060405180830381600087803b15801561077e57600080fd5b505af1158015610792573d6000803e3d6000fd5b505050506040513d601f19601f820116820180604052508101906107b691906113b7565b507fafdc1eb311d58306e249917b5ca0044a827a66f0ec535c334d63372c4055d3643384836040516107ea9392919061160c565b60405180910390a1505050565b7f65d7a28e3265b37a6474929f336521b332c1681b933f6cb9f3376673440d862a600033905061082782826108c4565b6108488273ffffffffffffffffffffffffffffffffffffffff166014610d1f565b6108568460001c6020610d1f565b6040516020016108679291906115b7565b604051602081830303815290604052906108b7576040517f08c379a00000000000000000000000000000000000000000000000000000000081526004016108ae91906116cb565b60405180910390fd5b506108c06110bb565b5050565b600080606560009054906101000a900473ffffffffffffffffffffffffffffffffffffffff1690508073ffffffffffffffffffffffffffffffffffffffff166391d1485485856040518363ffffffff1660e01b81526004016109279291906116a2565b60206040518083038186803b15801561093f57600080fd5b505afa158015610953573d6000803e3d6000fd5b505050506040513d601f19601f8201168201806040525081019061097791906113b7565b91505092915050565b6000804390506068548111156109d857606c60008473ffffffffffffffffffffffffffffffffffffffff1673ffffffffffffffffffffffffffffffffffffffff16815260200190815260200160002054915050610a68565b6067548110156109ec576000915050610a68565b6000606754826109fc919061192d565b9050606754606854610a0e919061192d565b81606c60008773ffffffffffffffffffffffffffffffffffffffff1673ffffffffffffffffffffffffffffffffffffffff16815260200190815260200160002054610a5991906118d3565b610a6391906118a2565b925050505b919050565b6000801b81565b7f65d7a28e3265b37a6474929f336521b332c1681b933f6cb9f3376673440d862a81565b6000801b6000339050610aab82826108c4565b610acc8273ffffffffffffffffffffffffffffffffffffffff166014610d1f565b610ada8460001c6020610d1f565b604051602001610aeb9291906115b7565b60405160208183030381529060405290610b3b576040517f08c379a0000000000000000000000000000000000000000000000000000000008152600401610b3291906116cb565b60405180910390fd5b5082606a6000828254610b4e919061184c565b92505081905550606954606a541115610b9c576040517f08c379a0000000000000000000000000000000000000000000000000000000008152600401610b939061172d565b60405180910390fd5b6000606b60008673ffffffffffffffffffffffffffffffffffffffff1673ffffffffffffffffffffffffffffffffffffffff1681526020019081526020016000208190555082606c60008673ffffffffffffffffffffffffffffffffffffffff1673ffffffffffffffffffffffffffffffffffffffff168152602001908152602001600020819055506000606660009054906101000a900473ffffffffffffffffffffffffffffffffffffffff1690508073ffffffffffffffffffffffffffffffffffffffff166340c10f1930866040518363ffffffff1660e01b8152600401610c87929190611643565b600060405180830381600087803b158015610ca157600080fd5b505af1158015610cb5573d6000803e3d6000fd5b505050507f2728c9d3205d667bbc0eefdfeda366261b4d021949630c047f3e5834b30611ab8585604051610cea929190611643565b60405180910390a15050505050565b606660009054906101000a900473ffffffffffffffffffffffffffffffffffffffff1681565b606060006002836002610d3291906118d3565b610d3c919061184c565b67ffffffffffffffff811115610d7b577f4e487b7100000000000000000000000000000000000000000000000000000000600052604160045260246000fd5b6040519080825280601f01601f191660200182016040528015610dad5781602001600182028036833780820191505090505b5090507f300000000000000000000000000000000000000000000000000000000000000081600081518110610e0b577f4e487b7100000000000000000000000000000000000000000000000000000000600052603260045260246000fd5b60200101907effffffffffffffffffffffffffffffffffffffffffffffffffffffffffffff1916908160001a9053507f780000000000000000000000000000000000000000000000000000000000000081600181518110610e95577f4e487b7100000000000000000000000000000000000000000000000000000000600052603260045260246000fd5b60200101907effffffffffffffffffffffffffffffffffffffffffffffffffffffffffffff1916908160001a90535060006001846002610ed591906118d3565b610edf919061184c565b90505b6001811115610fcb577f3031323334353637383961626364656600000000000000000000000000000000600f861660108110610f47577f4e487b7100000000000000000000000000000000000000000000000000000000600052603260045260246000fd5b1a60f81b828281518110610f84577f4e487b7100000000000000000000000000000000000000000000000000000000600052603260045260246000fd5b60200101907effffffffffffffffffffffffffffffffffffffffffffffffffffffffffffff1916908160001a905350600485901c945080610fc4906119e6565b9050610ee2565b506000841461100f576040517f08c379a0000000000000000000000000000000000000000000000000000000008152600401611006906116ed565b60405180910390fd5b8091505092915050565b6110216105fd565b611060576040517f08c379a00000000000000000000000000000000000000000000000000000000081526004016110579061170d565b60405180910390fd5b6000603360006101000a81548160ff0219169083151502179055507f5db9ee0a495bf2e6ff9c91a7834c1ba4fdd244a5e8aa4e537bd38aeae4b073aa6110a461115e565b6040516110b191906115f1565b60405180910390a1565b6110c36105fd565b15611103576040517f08c379a00000000000000000000000000000000000000000000000000000000081526004016110fa9061174d565b60405180910390fd5b6001603360006101000a81548160ff0219169083151502179055507f62e78cea01bee320cd4e420270b5ea74000d11b0c9f74754ebdbfc544b05a25861114761115e565b60405161115491906115f1565b60405180910390a1565b600033905090565b6000611179611174846117cd565b6117a8565b9050808382526020820190508285602086028201111561119857600080fd5b60005b858110156111c857816111ae888261123e565b84526020840193506020830192505060018101905061119b565b5050509392505050565b60006111e56111e0846117f9565b6117a8565b9050808382526020820190508285602086028201111561120457600080fd5b60005b85811015611234578161121a88826112d1565b845260208401935060208301925050600181019050611207565b5050509392505050565b60008135905061124d81611cb9565b92915050565b600082601f83011261126457600080fd5b8135611274848260208601611166565b91505092915050565b600082601f83011261128e57600080fd5b813561129e8482602086016111d2565b91505092915050565b6000815190506112b681611cd0565b92915050565b6000813590506112cb81611ce7565b92915050565b6000813590506112e081611cfe565b92915050565b6000602082840312156112f857600080fd5b60006113068482850161123e565b91505092915050565b6000806040838503121561132257600080fd5b60006113308582860161123e565b9250506020611341858286016112d1565b9150509250929050565b6000806040838503121561135e57600080fd5b600083013567ffffffffffffffff81111561137857600080fd5b61138485828601611253565b925050602083013567ffffffffffffffff8111156113a157600080fd5b6113ad8582860161127d565b9150509250929050565b6000602082840312156113c957600080fd5b60006113d7848285016112a7565b91505092915050565b600080604083850312156113f357600080fd5b6000611401858286016112bc565b92505060206114128582860161123e565b9150509250929050565b61142581611961565b82525050565b61143481611973565b82525050565b6114438161197f565b82525050565b600061145482611825565b61145e8185611830565b935061146e8185602086016119b3565b61147781611b17565b840191505092915050565b600061148d82611825565b6114978185611841565b93506114a78185602086016119b3565b80840191505092915050565b60006114c0602083611830565b91506114cb82611b28565b602082019050919050565b60006114e3602483611841565b91506114ee82611b51565b602482019050919050565b6000611506601483611830565b915061151182611ba0565b602082019050919050565b6000611529602a83611830565b915061153482611bc9565b604082019050919050565b600061154c601083611830565b915061155782611c18565b602082019050919050565b600061156f602983611830565b915061157a82611c41565b604082019050919050565b6000611592601183611841565b915061159d82611c90565b601182019050919050565b6115b1816119a9565b82525050565b60006115c2826114d6565b91506115ce8285611482565b91506115d982611585565b91506115e58284611482565b91508190509392505050565b6000602082019050611606600083018461141c565b92915050565b6000606082019050611621600083018661141c565b61162e602083018561141c565b61163b60408301846115a8565b949350505050565b6000604082019050611658600083018561141c565b61166560208301846115a8565b9392505050565b6000602082019050611681600083018461142b565b92915050565b600060208201905061169c600083018461143a565b92915050565b60006040820190506116b7600083018561143a565b6116c4602083018461141c565b9392505050565b600060208201905081810360008301526116e58184611449565b905092915050565b60006020820190508181036000830152611706816114b3565b9050919050565b60006020820190508181036000830152611726816114f9565b9050919050565b600060208201905081810360008301526117468161151c565b9050919050565b600060208201905081810360008301526117668161153f565b9050919050565b6000602082019050818103600083015261178681611562565b9050919050565b60006020820190506117a260008301846115a8565b92915050565b60006117b26117c3565b90506117be8282611a10565b919050565b6000604051905090565b600067ffffffffffffffff8211156117e8576117e7611ae8565b5b602082029050602081019050919050565b600067ffffffffffffffff82111561181457611813611ae8565b5b602082029050602081019050919050565b600081519050919050565b600082825260208201905092915050565b600081905092915050565b6000611857826119a9565b9150611862836119a9565b9250827fffffffffffffffffffffffffffffffffffffffffffffffffffffffffffffffff0382111561189757611896611a8a565b5b828201905092915050565b60006118ad826119a9565b91506118b8836119a9565b9250826118c8576118c7611ab9565b5b828204905092915050565b60006118de826119a9565b91506118e9836119a9565b9250817fffffffffffffffffffffffffffffffffffffffffffffffffffffffffffffffff048311821515161561192257611921611a8a565b5b828202905092915050565b6000611938826119a9565b9150611943836119a9565b92508282101561195657611955611a8a565b5b828203905092915050565b600061196c82611989565b9050919050565b60008115159050919050565b6000819050919050565b600073ffffffffffffffffffffffffffffffffffffffff82169050919050565b6000819050919050565b60005b838110156119d15780820151818401526020810190506119b6565b838111156119e0576000848401525b50505050565b60006119f1826119a9565b91506000821415611a0557611a04611a8a565b5b600182039050919050565b611a1982611b17565b810181811067ffffffffffffffff82111715611a3857611a37611ae8565b5b80604052505050565b6000611a4c826119a9565b91507fffffffffffffffffffffffffffffffffffffffffffffffffffffffffffffffff821415611a7f57611a7e611a8a565b5b600182019050919050565b7f4e487b7100000000000000000000000000000000000000000000000000000000600052601160045260246000fd5b7f4e487b7100000000000000000000000000000000000000000000000000000000600052601260045260246000fd5b7f4e487b7100000000000000000000000000000000000000000000000000000000600052604160045260246000fd5b6000601f19601f8301169050919050565b7f537472696e67733a20686578206c656e67746820696e73756666696369656e74600082015250565b7f416363657373436f6e74726f6c50726f78795061757361626c653a206163636f60008201527f756e742000000000000000000000000000000000000000000000000000000000602082015250565b7f5061757361626c653a206e6f7420706175736564000000000000000000000000600082015250565b7f547574656c6c7573486f6c646572735661756c743a206d696e7465642065786360008201527f65656473206c696d697400000000000000000000000000000000000000000000602082015250565b7f5061757361626c653a2070617573656400000000000000000000000000000000600082015250565b7f547574656c6c7573486f6c646572735661756c743a206e6f20617661696c616260008201527f6c6520746f6b656e730000000000000000000000000000000000000000000000602082015250565b7f206973206d697373696e6720726f6c6520000000000000000000000000000000600082015250565b611cc281611961565b8114611ccd57600080fd5b50565b611cd981611973565b8114611ce457600080fd5b50565b611cf08161197f565b8114611cfb57600080fd5b50565b611d07816119a9565b8114611d1257600080fd5b5056fea2646970667358221220dc462dbcae74070c98d5034cd02feebdf029c5b417cf4bcd0ee300b2e80899c564736f6c63430008020033",
  "linkReferences": {},
  "deployedLinkReferences": {}
}