{
  "_format": "hh-sol-artifact-1",
  "contractName": "TutellusDistributionVault",
  "sourceName": "contracts/TutellusDistributionVault.sol",
  "abi": [
    {
      "inputs": [
        {
          "internalType": "address",
          "name": "rolemanager",
          "type": "address"
        },
        {
          "internalType": "address",
          "name": "token_",
          "type": "address"
        }
      ],
      "stateMutability": "nonpayable",
      "type": "constructor"
    },
    {
      "anonymous": false,
      "inputs": [
        {
          "indexed": false,
          "internalType": "address",
          "name": "stakeholder",
          "type": "address"
        },
        {
          "indexed": false,
          "internalType": "uint256",
          "name": "allocated",
          "type": "uint256"
        },
        {
          "indexed": false,
          "internalType": "uint256",
          "name": "startBlock",
          "type": "uint256"
        },
        {
          "indexed": false,
          "internalType": "uint256",
          "name": "endBlock",
          "type": "uint256"
        }
      ],
      "name": "AddStakeholder",
      "type": "event"
    },
    {
      "anonymous": false,
      "inputs": [
        {
          "indexed": false,
          "internalType": "address",
          "name": "sender",
          "type": "address"
        },
        {
          "indexed": false,
          "internalType": "address",
          "name": "account",
          "type": "address"
        },
        {
          "indexed": false,
          "internalType": "uint256",
          "name": "amount",
          "type": "uint256"
        }
      ],
      "name": "Distribute",
      "type": "event"
    },
    {
      "anonymous": false,
      "inputs": [
        {
          "indexed": false,
          "internalType": "address",
          "name": "account",
          "type": "address"
        }
      ],
      "name": "Paused",
      "type": "event"
    },
    {
      "anonymous": false,
      "inputs": [
        {
          "indexed": false,
          "internalType": "address",
          "name": "account",
          "type": "address"
        }
      ],
      "name": "Unpaused",
      "type": "event"
    },
    {
      "anonymous": false,
      "inputs": [
        {
          "indexed": false,
          "internalType": "address",
          "name": "account",
          "type": "address"
        }
      ],
      "name": "Update",
      "type": "event"
    },
    {
      "inputs": [],
      "name": "DEFAULT_ADMIN_ROLE",
      "outputs": [
        {
          "internalType": "bytes32",
          "name": "",
          "type": "bytes32"
        }
      ],
      "stateMutability": "view",
      "type": "function"
    },
    {
      "inputs": [],
      "name": "PAUSER_ROLE",
      "outputs": [
        {
          "internalType": "bytes32",
          "name": "",
          "type": "bytes32"
        }
      ],
      "stateMutability": "view",
      "type": "function"
    },
    {
      "inputs": [
        {
          "internalType": "address",
          "name": "account",
          "type": "address"
        },
        {
          "internalType": "uint256",
          "name": "allocated_",
          "type": "uint256"
        },
        {
          "internalType": "uint256",
          "name": "startBlocks",
          "type": "uint256"
        },
        {
          "internalType": "uint256",
          "name": "endBlocks",
          "type": "uint256"
        }
      ],
      "name": "addStakeholder",
      "outputs": [],
      "stateMutability": "nonpayable",
      "type": "function"
    },
    {
      "inputs": [
        {
          "internalType": "address",
          "name": "account",
          "type": "address"
        }
      ],
      "name": "allocated",
      "outputs": [
        {
          "internalType": "uint256",
          "name": "",
          "type": "uint256"
        }
      ],
      "stateMutability": "view",
      "type": "function"
    },
    {
      "inputs": [
        {
          "internalType": "address",
          "name": "account",
          "type": "address"
        }
      ],
      "name": "available",
      "outputs": [
        {
          "internalType": "uint256",
          "name": "",
          "type": "uint256"
        }
      ],
      "stateMutability": "view",
      "type": "function"
    },
    {
      "inputs": [],
      "name": "claim",
      "outputs": [],
      "stateMutability": "nonpayable",
      "type": "function"
    },
    {
      "inputs": [
        {
          "internalType": "address",
          "name": "account",
          "type": "address"
        }
      ],
      "name": "distribute",
      "outputs": [],
      "stateMutability": "nonpayable",
      "type": "function"
    },
    {
      "inputs": [
        {
          "internalType": "address",
          "name": "account",
          "type": "address"
        }
      ],
      "name": "distributed",
      "outputs": [
        {
          "internalType": "uint256",
          "name": "",
          "type": "uint256"
        }
      ],
      "stateMutability": "view",
      "type": "function"
    },
    {
      "inputs": [
        {
          "internalType": "address",
          "name": "account",
          "type": "address"
        }
      ],
      "name": "endBlock",
      "outputs": [
        {
          "internalType": "uint256",
          "name": "",
          "type": "uint256"
        }
      ],
      "stateMutability": "view",
      "type": "function"
    },
    {
      "inputs": [],
      "name": "pause",
      "outputs": [],
      "stateMutability": "nonpayable",
      "type": "function"
    },
    {
      "inputs": [],
      "name": "paused",
      "outputs": [
        {
          "internalType": "bool",
          "name": "",
          "type": "bool"
        }
      ],
      "stateMutability": "view",
      "type": "function"
    },
    {
      "inputs": [
        {
          "internalType": "address",
          "name": "account",
          "type": "address"
        }
      ],
      "name": "releasePerBlock",
      "outputs": [
        {
          "internalType": "uint256",
          "name": "",
          "type": "uint256"
        }
      ],
      "stateMutability": "view",
      "type": "function"
    },
    {
      "inputs": [
        {
          "internalType": "address",
          "name": "account",
          "type": "address"
        }
      ],
      "name": "released",
      "outputs": [
        {
          "internalType": "uint256",
          "name": "",
          "type": "uint256"
        }
      ],
      "stateMutability": "view",
      "type": "function"
    },
    {
      "inputs": [
        {
          "internalType": "address",
          "name": "",
          "type": "address"
        }
      ],
      "name": "stakeholders",
      "outputs": [
        {
          "internalType": "uint256",
          "name": "distributed",
          "type": "uint256"
        },
        {
          "internalType": "uint256",
          "name": "releasePerBlock",
          "type": "uint256"
        },
        {
          "internalType": "uint256",
          "name": "startBlock",
          "type": "uint256"
        },
        {
          "internalType": "uint256",
          "name": "endBlock",
          "type": "uint256"
        }
      ],
      "stateMutability": "view",
      "type": "function"
    },
    {
      "inputs": [
        {
          "internalType": "address",
          "name": "account",
          "type": "address"
        }
      ],
      "name": "startBlock",
      "outputs": [
        {
          "internalType": "uint256",
          "name": "",
          "type": "uint256"
        }
      ],
      "stateMutability": "view",
      "type": "function"
    },
    {
      "inputs": [],
      "name": "token",
      "outputs": [
        {
          "internalType": "address",
          "name": "",
          "type": "address"
        }
      ],
      "stateMutability": "view",
      "type": "function"
    },
    {
      "inputs": [],
      "name": "unpause",
      "outputs": [],
      "stateMutability": "nonpayable",
      "type": "function"
    },
    {
      "inputs": [
        {
          "internalType": "address",
          "name": "manager",
          "type": "address"
        }
      ],
      "name": "updateManager",
      "outputs": [],
      "stateMutability": "nonpayable",
      "type": "function"
    }
  ],
  "bytecode": "0x60806040523480156200001157600080fd5b506040516200277c3803806200277c833981810160405281019062000037919062000786565b6200004982826200005160201b60201c565b5050620008be565b600060019054906101000a900460ff168062000078575060008054906101000a900460ff16155b620000ba576040517f08c379a0000000000000000000000000000000000000000000000000000000008152600401620000b190620007ee565b60405180910390fd5b60008060019054906101000a900460ff1615905080156200010b576001600060016101000a81548160ff02191690831515021790555060016000806101000a81548160ff0219169083151502179055505b6200011c836200015460201b60201c565b6200012d826200025560201b60201c565b80156200014f5760008060016101000a81548160ff0219169083151502179055505b505050565b600060019054906101000a900460ff16806200017b575060008054906101000a900460ff16155b620001bd576040517f08c379a0000000000000000000000000000000000000000000000000000000008152600401620001b490620007ee565b60405180910390fd5b60008060019054906101000a900460ff1615905080156200020e576001600060016101000a81548160ff02191690831515021790555060016000806101000a81548160ff0219169083151502179055505b6200021e6200037660201b60201c565b6200022f826200047560201b60201c565b8015620002515760008060016101000a81548160ff0219169083151502179055505b5050565b600060019054906101000a900460ff16806200027c575060008054906101000a900460ff16155b620002be576040517f08c379a0000000000000000000000000000000000000000000000000000000008152600401620002b590620007ee565b60405180910390fd5b60008060019054906101000a900460ff1615905080156200030f576001600060016101000a81548160ff02191690831515021790555060016000806101000a81548160ff0219169083151502179055505b81606660006101000a81548173ffffffffffffffffffffffffffffffffffffffff021916908373ffffffffffffffffffffffffffffffffffffffff1602179055508015620003725760008060016101000a81548160ff0219169083151502179055505b5050565b600060019054906101000a900460ff16806200039d575060008054906101000a900460ff16155b620003df576040517f08c379a0000000000000000000000000000000000000000000000000000000008152600401620003d690620007ee565b60405180910390fd5b60008060019054906101000a900460ff16159050801562000430576001600060016101000a81548160ff02191690831515021790555060016000806101000a81548160ff0219169083151502179055505b620004406200059660201b60201c565b620004506200067560201b60201c565b8015620004725760008060016101000a81548160ff0219169083151502179055505b50565b600060019054906101000a900460ff16806200049c575060008054906101000a900460ff16155b620004de576040517f08c379a0000000000000000000000000000000000000000000000000000000008152600401620004d590620007ee565b60405180910390fd5b60008060019054906101000a900460ff1615905080156200052f576001600060016101000a81548160ff02191690831515021790555060016000806101000a81548160ff0219169083151502179055505b81606560006101000a81548173ffffffffffffffffffffffffffffffffffffffff021916908373ffffffffffffffffffffffffffffffffffffffff1602179055508015620005925760008060016101000a81548160ff0219169083151502179055505b5050565b600060019054906101000a900460ff1680620005bd575060008054906101000a900460ff16155b620005ff576040517f08c379a0000000000000000000000000000000000000000000000000000000008152600401620005f690620007ee565b60405180910390fd5b60008060019054906101000a900460ff16159050801562000650576001600060016101000a81548160ff02191690831515021790555060016000806101000a81548160ff0219169083151502179055505b8015620006725760008060016101000a81548160ff0219169083151502179055505b50565b600060019054906101000a900460ff16806200069c575060008054906101000a900460ff16155b620006de576040517f08c379a0000000000000000000000000000000000000000000000000000000008152600401620006d590620007ee565b60405180910390fd5b60008060019054906101000a900460ff1615905080156200072f576001600060016101000a81548160ff02191690831515021790555060016000806101000a81548160ff0219169083151502179055505b6000603360006101000a81548160ff02191690831515021790555080156200076c5760008060016101000a81548160ff0219169083151502179055505b50565b6000815190506200078081620008a4565b92915050565b600080604083850312156200079a57600080fd5b6000620007aa858286016200076f565b9250506020620007bd858286016200076f565b9150509250929050565b6000620007d6602e8362000810565b9150620007e38262000855565b604082019050919050565b600060208201905081810360008301526200080981620007c7565b9050919050565b600082825260208201905092915050565b60006200082e8262000835565b9050919050565b600073ffffffffffffffffffffffffffffffffffffffff82169050919050565b7f496e697469616c697a61626c653a20636f6e747261637420697320616c72656160008201527f647920696e697469616c697a6564000000000000000000000000000000000000602082015250565b620008af8162000821565b8114620008bb57600080fd5b50565b611eae80620008ce6000396000f3fe608060405234801561001057600080fd5b50600436106101165760003560e01c806363453ae1116100a25780639ecaf2b2116100715780639ecaf2b2146102cb578063a217fddf146102fb578063c07cfca914610319578063e63ab1e91461034c578063fc0c546a1461036a57610116565b806363453ae1146102455780638456cb591461026157806384618ddc1461026b5780639852595c1461029b57610116565b80634e71d92d116100e95780634e71d92d146101b5578063578bcf35146101bf5780635872a4de146101ef57806358aba00f1461020b5780635c975abb1461022757610116565b806310098ad51461011b5780633f4ba83a1461014b5780633f697ce9146101555780634225e5bb14610185575b600080fd5b6101356004803603810190610130919061157d565b610388565b60405161014291906119e8565b60405180910390f35b6101536103ad565b005b61016f600480360381019061016a919061157d565b610523565b60405161017c91906119e8565b60405180910390f35b61019f600480360381019061019a919061157d565b61056f565b6040516101ac91906119e8565b60405180910390f35b6101bd6105c1565b005b6101d960048036038101906101d4919061157d565b6105d2565b6040516101e691906119e8565b60405180910390f35b610209600480360381019061020491906115a6565b61061e565b005b6102256004803603810190610220919061157d565b610a54565b005b61022f610be7565b60405161023c91906118c7565b60405180910390f35b61025f600480360381019061025a919061157d565b610bfe565b005b610269610de5565b005b6102856004803603810190610280919061157d565b610f5b565b60405161029291906119e8565b60405180910390f35b6102b560048036038101906102b0919061157d565b610fa7565b6040516102c291906119e8565b60405180910390f35b6102e560048036038101906102e0919061157d565b61102a565b6040516102f291906119e8565b60405180910390f35b610303611076565b60405161031091906118e2565b60405180910390f35b610333600480360381019061032e919061157d565b61107d565b6040516103439493929190611a03565b60405180910390f35b6103546110ad565b60405161036191906118e2565b60405180910390f35b6103726110d1565b60405161037f9190611807565b60405180910390f35b6000610393826105d2565b61039c83610fa7565b6103a69190611b50565b9050919050565b7f65d7a28e3265b37a6474929f336521b332c1681b933f6cb9f3376673440d862a6000606560009054906101000a900473ffffffffffffffffffffffffffffffffffffffff16905060003390508173ffffffffffffffffffffffffffffffffffffffff166391d1485484836040518363ffffffff1660e01b81526004016104359291906118fd565b60206040518083038186803b15801561044d57600080fd5b505afa158015610461573d6000803e3d6000fd5b505050506040513d601f19601f820116820180604052508101906104859190611609565b6104a68273ffffffffffffffffffffffffffffffffffffffff1660146110f7565b6104b48560001c60206110f7565b6040516020016104c59291906117cd565b60405160208183030381529060405290610515576040517f08c379a000000000000000000000000000000000000000000000000000000000815260040161050c9190611926565b60405180910390fd5b5061051e6113f1565b505050565b6000606760008373ffffffffffffffffffffffffffffffffffffffff1673ffffffffffffffffffffffffffffffffffffffff168152602001908152602001600020600201549050919050565b60008061057b8361102a565b11156105b75761058a8261102a565b61059383610523565b61059c84610f5b565b6105a69190611b50565b6105b09190611ac5565b90506105bc565b600090505b919050565b60003390506105cf81610bfe565b50565b6000606760008373ffffffffffffffffffffffffffffffffffffffff1673ffffffffffffffffffffffffffffffffffffffff168152602001908152602001600020600001549050919050565b6000801b6000606560009054906101000a900473ffffffffffffffffffffffffffffffffffffffff16905060003390508173ffffffffffffffffffffffffffffffffffffffff166391d1485484836040518363ffffffff1660e01b81526004016106899291906118fd565b60206040518083038186803b1580156106a157600080fd5b505afa1580156106b5573d6000803e3d6000fd5b505050506040513d601f19601f820116820180604052508101906106d99190611609565b6106fa8273ffffffffffffffffffffffffffffffffffffffff1660146110f7565b6107088560001c60206110f7565b6040516020016107199291906117cd565b60405160208183030381529060405290610769576040517f08c379a00000000000000000000000000000000000000000000000000000000081526004016107609190611926565b60405180910390fd5b508484116107ac576040517f08c379a00000000000000000000000000000000000000000000000000000000081526004016107a3906119a8565b60405180910390fd5b6000606760008973ffffffffffffffffffffffffffffffffffffffff1673ffffffffffffffffffffffffffffffffffffffff1681526020019081526020016000206000018190555084846108009190611b50565b8661080b9190611ac5565b606760008973ffffffffffffffffffffffffffffffffffffffff1673ffffffffffffffffffffffffffffffffffffffff16815260200190815260200160002060010181905550844361085d9190611a6f565b606760008973ffffffffffffffffffffffffffffffffffffffff1673ffffffffffffffffffffffffffffffffffffffff1681526020019081526020016000206002018190555083436108af9190611a6f565b606760008973ffffffffffffffffffffffffffffffffffffffff1673ffffffffffffffffffffffffffffffffffffffff168152602001908152602001600020600301819055506000606660009054906101000a900473ffffffffffffffffffffffffffffffffffffffff1690508073ffffffffffffffffffffffffffffffffffffffff166340c10f1930896040518363ffffffff1660e01b8152600401610957929190611859565b600060405180830381600087803b15801561097157600080fd5b505af1158015610985573d6000803e3d6000fd5b505050507fc37e5d36bd0279e9c61952b98313de5a8351caf00960074dbe2017a03ac5202e8888606760008c73ffffffffffffffffffffffffffffffffffffffff1673ffffffffffffffffffffffffffffffffffffffff16815260200190815260200160002060020154606760008d73ffffffffffffffffffffffffffffffffffffffff1673ffffffffffffffffffffffffffffffffffffffff16815260200190815260200160002060030154604051610a429493929190611882565b60405180910390a15050505050505050565b6000801b6000606560009054906101000a900473ffffffffffffffffffffffffffffffffffffffff16905060003390508173ffffffffffffffffffffffffffffffffffffffff166391d1485484836040518363ffffffff1660e01b8152600401610abf9291906118fd565b60206040518083038186803b158015610ad757600080fd5b505afa158015610aeb573d6000803e3d6000fd5b505050506040513d601f19601f82011682018060405250810190610b0f9190611609565b610b308273ffffffffffffffffffffffffffffffffffffffff1660146110f7565b610b3e8560001c60206110f7565b604051602001610b4f9291906117cd565b60405160208183030381529060405290610b9f576040517f08c379a0000000000000000000000000000000000000000000000000000000008152600401610b969190611926565b60405180910390fd5b5083606560006101000a81548173ffffffffffffffffffffffffffffffffffffffff021916908373ffffffffffffffffffffffffffffffffffffffff16021790555050505050565b6000603360009054906101000a900460ff16905090565b610c06610be7565b15610c46576040517f08c379a0000000000000000000000000000000000000000000000000000000008152600401610c3d90611988565b60405180910390fd5b6000606660009054906101000a900473ffffffffffffffffffffffffffffffffffffffff1690506000610c7883610388565b90506000811015610cbe576040517f08c379a0000000000000000000000000000000000000000000000000000000008152600401610cb5906119c8565b60405180910390fd5b80606760008573ffffffffffffffffffffffffffffffffffffffff1673ffffffffffffffffffffffffffffffffffffffff1681526020019081526020016000206000016000828254610d109190611a6f565b925050819055508173ffffffffffffffffffffffffffffffffffffffff1663a9059cbb84836040518363ffffffff1660e01b8152600401610d52929190611859565b602060405180830381600087803b158015610d6c57600080fd5b505af1158015610d80573d6000803e3d6000fd5b505050506040513d601f19601f82011682018060405250810190610da49190611609565b507fafdc1eb311d58306e249917b5ca0044a827a66f0ec535c334d63372c4055d364338483604051610dd893929190611822565b60405180910390a1505050565b7f65d7a28e3265b37a6474929f336521b332c1681b933f6cb9f3376673440d862a6000606560009054906101000a900473ffffffffffffffffffffffffffffffffffffffff16905060003390508173ffffffffffffffffffffffffffffffffffffffff166391d1485484836040518363ffffffff1660e01b8152600401610e6d9291906118fd565b60206040518083038186803b158015610e8557600080fd5b505afa158015610e99573d6000803e3d6000fd5b505050506040513d601f19601f82011682018060405250810190610ebd9190611609565b610ede8273ffffffffffffffffffffffffffffffffffffffff1660146110f7565b610eec8560001c60206110f7565b604051602001610efd9291906117cd565b60405160208183030381529060405290610f4d576040517f08c379a0000000000000000000000000000000000000000000000000000000008152600401610f449190611926565b60405180910390fd5b50610f56611493565b505050565b6000606760008373ffffffffffffffffffffffffffffffffffffffff1673ffffffffffffffffffffffffffffffffffffffff168152602001908152602001600020600301549050919050565b600080610fb38361056f565b111561102057610fc282610f5b565b431115610fd957610fd28261056f565b9050611025565b610fe282610523565b43111561101757610ff28261102a565b610ffb83610523565b436110069190611b50565b6110109190611af6565b9050611025565b60009050611025565b600090505b919050565b6000606760008373ffffffffffffffffffffffffffffffffffffffff1673ffffffffffffffffffffffffffffffffffffffff168152602001908152602001600020600101549050919050565b6000801b81565b60676020528060005260406000206000915090508060000154908060010154908060020154908060030154905084565b7f65d7a28e3265b37a6474929f336521b332c1681b933f6cb9f3376673440d862a81565b606660009054906101000a900473ffffffffffffffffffffffffffffffffffffffff1681565b60606000600283600261110a9190611af6565b6111149190611a6f565b67ffffffffffffffff811115611153577f4e487b7100000000000000000000000000000000000000000000000000000000600052604160045260246000fd5b6040519080825280601f01601f1916602001820160405280156111855781602001600182028036833780820191505090505b5090507f3000000000000000000000000000000000000000000000000000000000000000816000815181106111e3577f4e487b7100000000000000000000000000000000000000000000000000000000600052603260045260246000fd5b60200101907effffffffffffffffffffffffffffffffffffffffffffffffffffffffffffff1916908160001a9053507f78000000000000000000000000000000000000000000000000000000000000008160018151811061126d577f4e487b7100000000000000000000000000000000000000000000000000000000600052603260045260246000fd5b60200101907effffffffffffffffffffffffffffffffffffffffffffffffffffffffffffff1916908160001a905350600060018460026112ad9190611af6565b6112b79190611a6f565b90505b60018111156113a3577f3031323334353637383961626364656600000000000000000000000000000000600f86166010811061131f577f4e487b7100000000000000000000000000000000000000000000000000000000600052603260045260246000fd5b1a60f81b82828151811061135c577f4e487b7100000000000000000000000000000000000000000000000000000000600052603260045260246000fd5b60200101907effffffffffffffffffffffffffffffffffffffffffffffffffffffffffffff1916908160001a905350600485901c94508061139c90611c09565b90506112ba565b50600084146113e7576040517f08c379a00000000000000000000000000000000000000000000000000000000081526004016113de90611948565b60405180910390fd5b8091505092915050565b6113f9610be7565b611438576040517f08c379a000000000000000000000000000000000000000000000000000000000815260040161142f90611968565b60405180910390fd5b6000603360006101000a81548160ff0219169083151502179055507f5db9ee0a495bf2e6ff9c91a7834c1ba4fdd244a5e8aa4e537bd38aeae4b073aa61147c611536565b6040516114899190611807565b60405180910390a1565b61149b610be7565b156114db576040517f08c379a00000000000000000000000000000000000000000000000000000000081526004016114d290611988565b60405180910390fd5b6001603360006101000a81548160ff0219169083151502179055507f62e78cea01bee320cd4e420270b5ea74000d11b0c9f74754ebdbfc544b05a25861151f611536565b60405161152c9190611807565b60405180910390a1565b600033905090565b60008135905061154d81611e33565b92915050565b60008151905061156281611e4a565b92915050565b60008135905061157781611e61565b92915050565b60006020828403121561158f57600080fd5b600061159d8482850161153e565b91505092915050565b600080600080608085870312156115bc57600080fd5b60006115ca8782880161153e565b94505060206115db87828801611568565b93505060406115ec87828801611568565b92505060606115fd87828801611568565b91505092959194509250565b60006020828403121561161b57600080fd5b600061162984828501611553565b91505092915050565b61163b81611b84565b82525050565b61164a81611b96565b82525050565b61165981611ba2565b82525050565b600061166a82611a48565b6116748185611a53565b9350611684818560208601611bd6565b61168d81611c91565b840191505092915050565b60006116a382611a48565b6116ad8185611a64565b93506116bd818560208601611bd6565b80840191505092915050565b60006116d6602083611a53565b91506116e182611ca2565b602082019050919050565b60006116f9602483611a64565b915061170482611ccb565b602482019050919050565b600061171c601483611a53565b915061172782611d1a565b602082019050919050565b600061173f601083611a53565b915061174a82611d43565b602082019050919050565b6000611762603c83611a53565b915061176d82611d6c565b604082019050919050565b6000611785602e83611a53565b915061179082611dbb565b604082019050919050565b60006117a8601183611a64565b91506117b382611e0a565b601182019050919050565b6117c781611bcc565b82525050565b60006117d8826116ec565b91506117e48285611698565b91506117ef8261179b565b91506117fb8284611698565b91508190509392505050565b600060208201905061181c6000830184611632565b92915050565b60006060820190506118376000830186611632565b6118446020830185611632565b61185160408301846117be565b949350505050565b600060408201905061186e6000830185611632565b61187b60208301846117be565b9392505050565b60006080820190506118976000830187611632565b6118a460208301866117be565b6118b160408301856117be565b6118be60608301846117be565b95945050505050565b60006020820190506118dc6000830184611641565b92915050565b60006020820190506118f76000830184611650565b92915050565b60006040820190506119126000830185611650565b61191f6020830184611632565b9392505050565b60006020820190508181036000830152611940818461165f565b905092915050565b60006020820190508181036000830152611961816116c9565b9050919050565b600060208201905081810360008301526119818161170f565b9050919050565b600060208201905081810360008301526119a181611732565b9050919050565b600060208201905081810360008301526119c181611755565b9050919050565b600060208201905081810360008301526119e181611778565b9050919050565b60006020820190506119fd60008301846117be565b92915050565b6000608082019050611a1860008301876117be565b611a2560208301866117be565b611a3260408301856117be565b611a3f60608301846117be565b95945050505050565b600081519050919050565b600082825260208201905092915050565b600081905092915050565b6000611a7a82611bcc565b9150611a8583611bcc565b9250827fffffffffffffffffffffffffffffffffffffffffffffffffffffffffffffffff03821115611aba57611ab9611c33565b5b828201905092915050565b6000611ad082611bcc565b9150611adb83611bcc565b925082611aeb57611aea611c62565b5b828204905092915050565b6000611b0182611bcc565b9150611b0c83611bcc565b9250817fffffffffffffffffffffffffffffffffffffffffffffffffffffffffffffffff0483118215151615611b4557611b44611c33565b5b828202905092915050565b6000611b5b82611bcc565b9150611b6683611bcc565b925082821015611b7957611b78611c33565b5b828203905092915050565b6000611b8f82611bac565b9050919050565b60008115159050919050565b6000819050919050565b600073ffffffffffffffffffffffffffffffffffffffff82169050919050565b6000819050919050565b60005b83811015611bf4578082015181840152602081019050611bd9565b83811115611c03576000848401525b50505050565b6000611c1482611bcc565b91506000821415611c2857611c27611c33565b5b600182039050919050565b7f4e487b7100000000000000000000000000000000000000000000000000000000600052601160045260246000fd5b7f4e487b7100000000000000000000000000000000000000000000000000000000600052601260045260246000fd5b6000601f19601f8301169050919050565b7f537472696e67733a20686578206c656e67746820696e73756666696369656e74600082015250565b7f416363657373436f6e74726f6c50726f78795061757361626c653a206163636f60008201527f756e742000000000000000000000000000000000000000000000000000000000602082015250565b7f5061757361626c653a206e6f7420706175736564000000000000000000000000600082015250565b7f5061757361626c653a2070617573656400000000000000000000000000000000600082015250565b7f547574656c6c7573446973747269627574696f6e5661756c743a20656e64426c60008201527f6f636b206d757374206265206166746572207374617274426c6f636b00000000602082015250565b7f547574656c6c7573446973747269627574696f6e5661756c743a204e6f20617660008201527f61696c61626c6520746f6b656e73000000000000000000000000000000000000602082015250565b7f206973206d697373696e6720726f6c6520000000000000000000000000000000600082015250565b611e3c81611b84565b8114611e4757600080fd5b50565b611e5381611b96565b8114611e5e57600080fd5b50565b611e6a81611bcc565b8114611e7557600080fd5b5056fea2646970667358221220b3f006bee4b104afc65a1ea4ac5f82dc84e5e6682f759014fca899f75aacde6564736f6c63430008020033",
  "linkReferences": {},
  "deployedLinkReferences": {}
}