{
  "_format": "hh-sol-artifact-1",
  "contractName": "TutellusDistributionVault",
  "sourceName": "contracts/TutellusDistributionVault.sol",
  "abi": [
    {
      "inputs": [
        {
          "internalType": "address",
          "name": "rolemanager",
          "type": "address"
        },
        {
          "internalType": "address",
          "name": "token_",
          "type": "address"
        },
        {
          "internalType": "uint256",
          "name": "limit",
          "type": "uint256"
        }
      ],
      "stateMutability": "nonpayable",
      "type": "constructor"
    },
    {
      "anonymous": false,
      "inputs": [
        {
          "indexed": false,
          "internalType": "address",
          "name": "holder",
          "type": "address"
        },
        {
          "indexed": false,
          "internalType": "uint256",
          "name": "allocated",
          "type": "uint256"
        },
        {
          "indexed": false,
          "internalType": "uint256",
          "name": "startBlock",
          "type": "uint256"
        },
        {
          "indexed": false,
          "internalType": "uint256",
          "name": "endBlock",
          "type": "uint256"
        }
      ],
      "name": "AddHolder",
      "type": "event"
    },
    {
      "anonymous": false,
      "inputs": [
        {
          "indexed": false,
          "internalType": "address",
          "name": "sender",
          "type": "address"
        },
        {
          "indexed": false,
          "internalType": "address",
          "name": "account",
          "type": "address"
        },
        {
          "indexed": false,
          "internalType": "uint256",
          "name": "amount",
          "type": "uint256"
        }
      ],
      "name": "Distribute",
      "type": "event"
    },
    {
      "anonymous": false,
      "inputs": [
        {
          "indexed": false,
          "internalType": "address",
          "name": "account",
          "type": "address"
        }
      ],
      "name": "Paused",
      "type": "event"
    },
    {
      "anonymous": false,
      "inputs": [
        {
          "indexed": false,
          "internalType": "address",
          "name": "account",
          "type": "address"
        }
      ],
      "name": "Unpaused",
      "type": "event"
    },
    {
      "anonymous": false,
      "inputs": [
        {
          "indexed": false,
          "internalType": "address",
          "name": "account",
          "type": "address"
        }
      ],
      "name": "Update",
      "type": "event"
    },
    {
      "inputs": [],
      "name": "DEFAULT_ADMIN_ROLE",
      "outputs": [
        {
          "internalType": "bytes32",
          "name": "",
          "type": "bytes32"
        }
      ],
      "stateMutability": "view",
      "type": "function"
    },
    {
      "inputs": [],
      "name": "PAUSER_ROLE",
      "outputs": [
        {
          "internalType": "bytes32",
          "name": "",
          "type": "bytes32"
        }
      ],
      "stateMutability": "view",
      "type": "function"
    },
    {
      "inputs": [
        {
          "internalType": "address",
          "name": "account",
          "type": "address"
        },
        {
          "internalType": "uint256",
          "name": "allocated_",
          "type": "uint256"
        },
        {
          "internalType": "uint256",
          "name": "startBlocks",
          "type": "uint256"
        },
        {
          "internalType": "uint256",
          "name": "endBlocks",
          "type": "uint256"
        }
      ],
      "name": "addHolder",
      "outputs": [],
      "stateMutability": "nonpayable",
      "type": "function"
    },
    {
      "inputs": [
        {
          "internalType": "address[]",
          "name": "account",
          "type": "address[]"
        },
        {
          "internalType": "uint256[]",
          "name": "allocated_",
          "type": "uint256[]"
        },
        {
          "internalType": "uint256[]",
          "name": "startBlocks",
          "type": "uint256[]"
        },
        {
          "internalType": "uint256[]",
          "name": "endBlocks",
          "type": "uint256[]"
        }
      ],
      "name": "addHolderBatch",
      "outputs": [],
      "stateMutability": "nonpayable",
      "type": "function"
    },
    {
      "inputs": [
        {
          "internalType": "address",
          "name": "account",
          "type": "address"
        }
      ],
      "name": "allocated",
      "outputs": [
        {
          "internalType": "uint256",
          "name": "",
          "type": "uint256"
        }
      ],
      "stateMutability": "view",
      "type": "function"
    },
    {
      "inputs": [
        {
          "internalType": "address",
          "name": "account",
          "type": "address"
        }
      ],
      "name": "available",
      "outputs": [
        {
          "internalType": "uint256",
          "name": "",
          "type": "uint256"
        }
      ],
      "stateMutability": "view",
      "type": "function"
    },
    {
      "inputs": [],
      "name": "claim",
      "outputs": [],
      "stateMutability": "nonpayable",
      "type": "function"
    },
    {
      "inputs": [
        {
          "internalType": "address",
          "name": "account",
          "type": "address"
        }
      ],
      "name": "distribute",
      "outputs": [],
      "stateMutability": "nonpayable",
      "type": "function"
    },
    {
      "inputs": [
        {
          "internalType": "address",
          "name": "account",
          "type": "address"
        }
      ],
      "name": "distributed",
      "outputs": [
        {
          "internalType": "uint256",
          "name": "",
          "type": "uint256"
        }
      ],
      "stateMutability": "view",
      "type": "function"
    },
    {
      "inputs": [
        {
          "internalType": "address",
          "name": "account",
          "type": "address"
        }
      ],
      "name": "endBlock",
      "outputs": [
        {
          "internalType": "uint256",
          "name": "",
          "type": "uint256"
        }
      ],
      "stateMutability": "view",
      "type": "function"
    },
    {
      "inputs": [
        {
          "internalType": "bytes32",
          "name": "role",
          "type": "bytes32"
        },
        {
          "internalType": "address",
          "name": "account",
          "type": "address"
        }
      ],
      "name": "hasRole",
      "outputs": [
        {
          "internalType": "bool",
          "name": "",
          "type": "bool"
        }
      ],
      "stateMutability": "view",
      "type": "function"
    },
    {
      "inputs": [
        {
          "internalType": "address",
          "name": "",
          "type": "address"
        }
      ],
      "name": "holders",
      "outputs": [
        {
          "internalType": "uint256",
          "name": "distributed",
          "type": "uint256"
        },
        {
          "internalType": "uint256",
          "name": "releasePerBlock",
          "type": "uint256"
        },
        {
          "internalType": "uint256",
          "name": "startBlock",
          "type": "uint256"
        },
        {
          "internalType": "uint256",
          "name": "endBlock",
          "type": "uint256"
        }
      ],
      "stateMutability": "view",
      "type": "function"
    },
    {
      "inputs": [],
      "name": "pause",
      "outputs": [],
      "stateMutability": "nonpayable",
      "type": "function"
    },
    {
      "inputs": [],
      "name": "paused",
      "outputs": [
        {
          "internalType": "bool",
          "name": "",
          "type": "bool"
        }
      ],
      "stateMutability": "view",
      "type": "function"
    },
    {
      "inputs": [
        {
          "internalType": "address",
          "name": "account",
          "type": "address"
        }
      ],
      "name": "releasePerBlock",
      "outputs": [
        {
          "internalType": "uint256",
          "name": "",
          "type": "uint256"
        }
      ],
      "stateMutability": "view",
      "type": "function"
    },
    {
      "inputs": [
        {
          "internalType": "address",
          "name": "account",
          "type": "address"
        }
      ],
      "name": "released",
      "outputs": [
        {
          "internalType": "uint256",
          "name": "",
          "type": "uint256"
        }
      ],
      "stateMutability": "view",
      "type": "function"
    },
    {
      "inputs": [
        {
          "internalType": "address",
          "name": "account",
          "type": "address"
        }
      ],
      "name": "startBlock",
      "outputs": [
        {
          "internalType": "uint256",
          "name": "",
          "type": "uint256"
        }
      ],
      "stateMutability": "view",
      "type": "function"
    },
    {
      "inputs": [],
      "name": "token",
      "outputs": [
        {
          "internalType": "address",
          "name": "",
          "type": "address"
        }
      ],
      "stateMutability": "view",
      "type": "function"
    },
    {
      "inputs": [],
      "name": "unpause",
      "outputs": [],
      "stateMutability": "nonpayable",
      "type": "function"
    },
    {
      "inputs": [
        {
          "internalType": "address",
          "name": "manager",
          "type": "address"
        }
      ],
      "name": "updateManager",
      "outputs": [],
      "stateMutability": "nonpayable",
      "type": "function"
    }
  ],
  "bytecode": "0x60806040523480156200001157600080fd5b5060405162002e9638038062002e968339818101604052810190620000379190620007a9565b6200004a8383836200005360201b60201c565b5050506200091a565b600060019054906101000a900460ff16806200007a575060008054906101000a900460ff16155b620000bc576040517f08c379a0000000000000000000000000000000000000000000000000000000008152600401620000b39062000826565b60405180910390fd5b60008060019054906101000a900460ff1615905080156200010d576001600060016101000a81548160ff02191690831515021790555060016000806101000a81548160ff0219169083151502179055505b6200011e846200015860201b60201c565b6200013083836200025960201b60201c565b8015620001525760008060016101000a81548160ff0219169083151502179055505b50505050565b600060019054906101000a900460ff16806200017f575060008054906101000a900460ff16155b620001c1576040517f08c379a0000000000000000000000000000000000000000000000000000000008152600401620001b89062000826565b60405180910390fd5b60008060019054906101000a900460ff16159050801562000212576001600060016101000a81548160ff02191690831515021790555060016000806101000a81548160ff0219169083151502179055505b620002226200038260201b60201c565b62000233826200048160201b60201c565b8015620002555760008060016101000a81548160ff0219169083151502179055505b5050565b600060019054906101000a900460ff168062000280575060008054906101000a900460ff16155b620002c2576040517f08c379a0000000000000000000000000000000000000000000000000000000008152600401620002b99062000826565b60405180910390fd5b60008060019054906101000a900460ff16159050801562000313576001600060016101000a81548160ff02191690831515021790555060016000806101000a81548160ff0219169083151502179055505b82606660006101000a81548173ffffffffffffffffffffffffffffffffffffffff021916908373ffffffffffffffffffffffffffffffffffffffff1602179055508160678190555080156200037d5760008060016101000a81548160ff0219169083151502179055505b505050565b600060019054906101000a900460ff1680620003a9575060008054906101000a900460ff16155b620003eb576040517f08c379a0000000000000000000000000000000000000000000000000000000008152600401620003e29062000826565b60405180910390fd5b60008060019054906101000a900460ff1615905080156200043c576001600060016101000a81548160ff02191690831515021790555060016000806101000a81548160ff0219169083151502179055505b6200044c620005a260201b60201c565b6200045c6200068160201b60201c565b80156200047e5760008060016101000a81548160ff0219169083151502179055505b50565b600060019054906101000a900460ff1680620004a8575060008054906101000a900460ff16155b620004ea576040517f08c379a0000000000000000000000000000000000000000000000000000000008152600401620004e19062000826565b60405180910390fd5b60008060019054906101000a900460ff1615905080156200053b576001600060016101000a81548160ff02191690831515021790555060016000806101000a81548160ff0219169083151502179055505b81606560006101000a81548173ffffffffffffffffffffffffffffffffffffffff021916908373ffffffffffffffffffffffffffffffffffffffff16021790555080156200059e5760008060016101000a81548160ff0219169083151502179055505b5050565b600060019054906101000a900460ff1680620005c9575060008054906101000a900460ff16155b6200060b576040517f08c379a0000000000000000000000000000000000000000000000000000000008152600401620006029062000826565b60405180910390fd5b60008060019054906101000a900460ff1615905080156200065c576001600060016101000a81548160ff02191690831515021790555060016000806101000a81548160ff0219169083151502179055505b80156200067e5760008060016101000a81548160ff0219169083151502179055505b50565b600060019054906101000a900460ff1680620006a8575060008054906101000a900460ff16155b620006ea576040517f08c379a0000000000000000000000000000000000000000000000000000000008152600401620006e19062000826565b60405180910390fd5b60008060019054906101000a900460ff1615905080156200073b576001600060016101000a81548160ff02191690831515021790555060016000806101000a81548160ff0219169083151502179055505b6000603360006101000a81548160ff0219169083151502179055508015620007785760008060016101000a81548160ff0219169083151502179055505b50565b6000815190506200078c81620008e6565b92915050565b600081519050620007a38162000900565b92915050565b600080600060608486031215620007bf57600080fd5b6000620007cf868287016200077b565b9350506020620007e2868287016200077b565b9250506040620007f58682870162000792565b9150509250925092565b60006200080e602e8362000848565b91506200081b8262000897565b604082019050919050565b600060208201905081810360008301526200084181620007ff565b9050919050565b600082825260208201905092915050565b600062000866826200086d565b9050919050565b600073ffffffffffffffffffffffffffffffffffffffff82169050919050565b6000819050919050565b7f496e697469616c697a61626c653a20636f6e747261637420697320616c72656160008201527f647920696e697469616c697a6564000000000000000000000000000000000000602082015250565b620008f18162000859565b8114620008fd57600080fd5b50565b6200090b816200088d565b81146200091757600080fd5b50565b61256c806200092a6000396000f3fe608060405234801561001057600080fd5b506004361061012c5760003560e01c80635c975abb116100ad5780639852595c116100715780639852595c146103305780639ecaf2b214610360578063a217fddf14610390578063e63ab1e9146103ae578063fc0c546a146103cc5761012c565b80635c975abb1461028c57806363453ae1146102aa5780638456cb59146102c657806384618ddc146102d057806391d14854146103005761012c565b806343b61227116100f457806343b61227146101fe5780634e71d92d1461021a578063578bcf351461022457806358aba00f1461025457806358ad120f146102705761012c565b806310098ad51461013157806318a5bbdc146101615780633f4ba83a146101945780633f697ce91461019e5780634225e5bb146101ce575b600080fd5b61014b6004803603810190610146919061196d565b6103ea565b6040516101589190611f1a565b60405180910390f35b61017b6004803603810190610176919061196d565b61040f565b60405161018b9493929190611f35565b60405180910390f35b61019c61043f565b005b6101b860048036038101906101b3919061196d565b6105b5565b6040516101c59190611f1a565b60405180910390f35b6101e860048036038101906101e3919061196d565b610601565b6040516101f59190611f1a565b60405180910390f35b61021860048036038101906102139190611996565b610653565b005b610222610ae9565b005b61023e6004803603810190610239919061196d565b610afa565b60405161024b9190611f1a565b60405180910390f35b61026e6004803603810190610269919061196d565b610b46565b005b61028a600480360381019061028591906119f9565b610cd9565b005b610294610e0b565b6040516102a19190611dd9565b60405180910390f35b6102c460048036038101906102bf919061196d565b610e22565b005b6102ce611008565b005b6102ea60048036038101906102e5919061196d565b61117e565b6040516102f79190611f1a565b60405180910390f35b61031a60048036038101906103159190611ae5565b6111ca565b6040516103279190611dd9565b60405180910390f35b61034a6004803603810190610345919061196d565b611286565b6040516103579190611f1a565b60405180910390f35b61037a6004803603810190610375919061196d565b611309565b6040516103879190611f1a565b60405180910390f35b610398611355565b6040516103a59190611df4565b60405180910390f35b6103b661135c565b6040516103c39190611df4565b60405180910390f35b6103d4611380565b6040516103e19190611d19565b60405180910390f35b60006103f582610afa565b6103fe83611286565b61040891906120ff565b9050919050565b60696020528060005260406000206000915090508060000154908060010154908060020154908060030154905084565b7f65d7a28e3265b37a6474929f336521b332c1681b933f6cb9f3376673440d862a6000606560009054906101000a900473ffffffffffffffffffffffffffffffffffffffff16905060003390508173ffffffffffffffffffffffffffffffffffffffff166391d1485484836040518363ffffffff1660e01b81526004016104c7929190611e0f565b60206040518083038186803b1580156104df57600080fd5b505afa1580156104f3573d6000803e3d6000fd5b505050506040513d601f19601f820116820180604052508101906105179190611abc565b6105388273ffffffffffffffffffffffffffffffffffffffff1660146113a6565b6105468560001c60206113a6565b604051602001610557929190611cdf565b604051602081830303815290604052906105a7576040517f08c379a000000000000000000000000000000000000000000000000000000000815260040161059e9190611e38565b60405180910390fd5b506105b06116a0565b505050565b6000606960008373ffffffffffffffffffffffffffffffffffffffff1673ffffffffffffffffffffffffffffffffffffffff168152602001908152602001600020600201549050919050565b60008061060d83611309565b11156106495761061c82611309565b610625836105b5565b61062e8461117e565b61063891906120ff565b61064291906120a5565b905061064e565b600090505b919050565b6000801b6000606560009054906101000a900473ffffffffffffffffffffffffffffffffffffffff16905060003390508173ffffffffffffffffffffffffffffffffffffffff166391d1485484836040518363ffffffff1660e01b81526004016106be929190611e0f565b60206040518083038186803b1580156106d657600080fd5b505afa1580156106ea573d6000803e3d6000fd5b505050506040513d601f19601f8201168201806040525081019061070e9190611abc565b61072f8273ffffffffffffffffffffffffffffffffffffffff1660146113a6565b61073d8560001c60206113a6565b60405160200161074e929190611cdf565b6040516020818303038152906040529061079e576040517f08c379a00000000000000000000000000000000000000000000000000000000081526004016107959190611e38565b60405180910390fd5b508484116107e1576040517f08c379a00000000000000000000000000000000000000000000000000000000081526004016107d890611efa565b60405180910390fd5b85606860008282546107f3919061201e565b925050819055506067546068541115610841576040517f08c379a000000000000000000000000000000000000000000000000000000000815260040161083890611eda565b60405180910390fd5b6000606960008973ffffffffffffffffffffffffffffffffffffffff1673ffffffffffffffffffffffffffffffffffffffff16815260200190815260200160002060000181905550848461089591906120ff565b866108a09190612074565b606960008973ffffffffffffffffffffffffffffffffffffffff1673ffffffffffffffffffffffffffffffffffffffff1681526020019081526020016000206001018190555084436108f2919061201e565b606960008973ffffffffffffffffffffffffffffffffffffffff1673ffffffffffffffffffffffffffffffffffffffff168152602001908152602001600020600201819055508343610944919061201e565b606960008973ffffffffffffffffffffffffffffffffffffffff1673ffffffffffffffffffffffffffffffffffffffff168152602001908152602001600020600301819055506000606660009054906101000a900473ffffffffffffffffffffffffffffffffffffffff1690508073ffffffffffffffffffffffffffffffffffffffff166340c10f1930896040518363ffffffff1660e01b81526004016109ec929190611d6b565b600060405180830381600087803b158015610a0657600080fd5b505af1158015610a1a573d6000803e3d6000fd5b505050507fa76cea235098bd23e46ffcf93599f13144fcbec5c3e772fb8503b36240f892628888606960008c73ffffffffffffffffffffffffffffffffffffffff1673ffffffffffffffffffffffffffffffffffffffff16815260200190815260200160002060020154606960008d73ffffffffffffffffffffffffffffffffffffffff1673ffffffffffffffffffffffffffffffffffffffff16815260200190815260200160002060030154604051610ad79493929190611d94565b60405180910390a15050505050505050565b6000339050610af781610e22565b50565b6000606960008373ffffffffffffffffffffffffffffffffffffffff1673ffffffffffffffffffffffffffffffffffffffff168152602001908152602001600020600001549050919050565b6000801b6000606560009054906101000a900473ffffffffffffffffffffffffffffffffffffffff16905060003390508173ffffffffffffffffffffffffffffffffffffffff166391d1485484836040518363ffffffff1660e01b8152600401610bb1929190611e0f565b60206040518083038186803b158015610bc957600080fd5b505afa158015610bdd573d6000803e3d6000fd5b505050506040513d601f19601f82011682018060405250810190610c019190611abc565b610c228273ffffffffffffffffffffffffffffffffffffffff1660146113a6565b610c308560001c60206113a6565b604051602001610c41929190611cdf565b60405160208183030381529060405290610c91576040517f08c379a0000000000000000000000000000000000000000000000000000000008152600401610c889190611e38565b60405180910390fd5b5083606560006101000a81548173ffffffffffffffffffffffffffffffffffffffff021916908373ffffffffffffffffffffffffffffffffffffffff16021790555050505050565b60005b8451811015610e0457610df1858281518110610d21577f4e487b7100000000000000000000000000000000000000000000000000000000600052603260045260246000fd5b6020026020010151858381518110610d62577f4e487b7100000000000000000000000000000000000000000000000000000000600052603260045260246000fd5b6020026020010151858481518110610da3577f4e487b7100000000000000000000000000000000000000000000000000000000600052603260045260246000fd5b6020026020010151858581518110610de4577f4e487b7100000000000000000000000000000000000000000000000000000000600052603260045260246000fd5b6020026020010151610653565b8080610dfc90612213565b915050610cdc565b5050505050565b6000603360009054906101000a900460ff16905090565b610e2a610e0b565b15610e6a576040517f08c379a0000000000000000000000000000000000000000000000000000000008152600401610e6190611eba565b60405180910390fd5b6000606660009054906101000a900473ffffffffffffffffffffffffffffffffffffffff1690506000610e9c836103ea565b905060008111610ee1576040517f08c379a0000000000000000000000000000000000000000000000000000000008152600401610ed890611e9a565b60405180910390fd5b80606960008573ffffffffffffffffffffffffffffffffffffffff1673ffffffffffffffffffffffffffffffffffffffff1681526020019081526020016000206000016000828254610f33919061201e565b925050819055508173ffffffffffffffffffffffffffffffffffffffff1663a9059cbb84836040518363ffffffff1660e01b8152600401610f75929190611d6b565b602060405180830381600087803b158015610f8f57600080fd5b505af1158015610fa3573d6000803e3d6000fd5b505050506040513d601f19601f82011682018060405250810190610fc79190611abc565b507fafdc1eb311d58306e249917b5ca0044a827a66f0ec535c334d63372c4055d364338483604051610ffb93929190611d34565b60405180910390a1505050565b7f65d7a28e3265b37a6474929f336521b332c1681b933f6cb9f3376673440d862a6000606560009054906101000a900473ffffffffffffffffffffffffffffffffffffffff16905060003390508173ffffffffffffffffffffffffffffffffffffffff166391d1485484836040518363ffffffff1660e01b8152600401611090929190611e0f565b60206040518083038186803b1580156110a857600080fd5b505afa1580156110bc573d6000803e3d6000fd5b505050506040513d601f19601f820116820180604052508101906110e09190611abc565b6111018273ffffffffffffffffffffffffffffffffffffffff1660146113a6565b61110f8560001c60206113a6565b604051602001611120929190611cdf565b60405160208183030381529060405290611170576040517f08c379a00000000000000000000000000000000000000000000000000000000081526004016111679190611e38565b60405180910390fd5b50611179611742565b505050565b6000606960008373ffffffffffffffffffffffffffffffffffffffff1673ffffffffffffffffffffffffffffffffffffffff168152602001908152602001600020600301549050919050565b600080606560009054906101000a900473ffffffffffffffffffffffffffffffffffffffff1690508073ffffffffffffffffffffffffffffffffffffffff166391d1485485856040518363ffffffff1660e01b815260040161122d929190611e0f565b60206040518083038186803b15801561124557600080fd5b505afa158015611259573d6000803e3d6000fd5b505050506040513d601f19601f8201168201806040525081019061127d9190611abc565b91505092915050565b60008061129283610601565b11156112ff576112a18261117e565b4311156112b8576112b182610601565b9050611304565b6112c1826105b5565b4311156112f6576112d182611309565b6112da836105b5565b436112e591906120ff565b6112ef91906120a5565b9050611304565b60009050611304565b600090505b919050565b6000606960008373ffffffffffffffffffffffffffffffffffffffff1673ffffffffffffffffffffffffffffffffffffffff168152602001908152602001600020600101549050919050565b6000801b81565b7f65d7a28e3265b37a6474929f336521b332c1681b933f6cb9f3376673440d862a81565b606660009054906101000a900473ffffffffffffffffffffffffffffffffffffffff1681565b6060600060028360026113b991906120a5565b6113c3919061201e565b67ffffffffffffffff811115611402577f4e487b7100000000000000000000000000000000000000000000000000000000600052604160045260246000fd5b6040519080825280601f01601f1916602001820160405280156114345781602001600182028036833780820191505090505b5090507f300000000000000000000000000000000000000000000000000000000000000081600081518110611492577f4e487b7100000000000000000000000000000000000000000000000000000000600052603260045260246000fd5b60200101907effffffffffffffffffffffffffffffffffffffffffffffffffffffffffffff1916908160001a9053507f78000000000000000000000000000000000000000000000000000000000000008160018151811061151c577f4e487b7100000000000000000000000000000000000000000000000000000000600052603260045260246000fd5b60200101907effffffffffffffffffffffffffffffffffffffffffffffffffffffffffffff1916908160001a9053506000600184600261155c91906120a5565b611566919061201e565b90505b6001811115611652577f3031323334353637383961626364656600000000000000000000000000000000600f8616601081106115ce577f4e487b7100000000000000000000000000000000000000000000000000000000600052603260045260246000fd5b1a60f81b82828151811061160b577f4e487b7100000000000000000000000000000000000000000000000000000000600052603260045260246000fd5b60200101907effffffffffffffffffffffffffffffffffffffffffffffffffffffffffffff1916908160001a905350600485901c94508061164b906121b8565b9050611569565b5060008414611696576040517f08c379a000000000000000000000000000000000000000000000000000000000815260040161168d90611e5a565b60405180910390fd5b8091505092915050565b6116a8610e0b565b6116e7576040517f08c379a00000000000000000000000000000000000000000000000000000000081526004016116de90611e7a565b60405180910390fd5b6000603360006101000a81548160ff0219169083151502179055507f5db9ee0a495bf2e6ff9c91a7834c1ba4fdd244a5e8aa4e537bd38aeae4b073aa61172b6117e5565b6040516117389190611d19565b60405180910390a1565b61174a610e0b565b1561178a576040517f08c379a000000000000000000000000000000000000000000000000000000000815260040161178190611eba565b60405180910390fd5b6001603360006101000a81548160ff0219169083151502179055507f62e78cea01bee320cd4e420270b5ea74000d11b0c9f74754ebdbfc544b05a2586117ce6117e5565b6040516117db9190611d19565b60405180910390a1565b600033905090565b60006118006117fb84611f9f565b611f7a565b9050808382526020820190508285602086028201111561181f57600080fd5b60005b8581101561184f578161183588826118c5565b845260208401935060208301925050600181019050611822565b5050509392505050565b600061186c61186784611fcb565b611f7a565b9050808382526020820190508285602086028201111561188b57600080fd5b60005b858110156118bb57816118a18882611958565b84526020840193506020830192505060018101905061188e565b5050509392505050565b6000813590506118d4816124da565b92915050565b600082601f8301126118eb57600080fd5b81356118fb8482602086016117ed565b91505092915050565b600082601f83011261191557600080fd5b8135611925848260208601611859565b91505092915050565b60008151905061193d816124f1565b92915050565b60008135905061195281612508565b92915050565b6000813590506119678161251f565b92915050565b60006020828403121561197f57600080fd5b600061198d848285016118c5565b91505092915050565b600080600080608085870312156119ac57600080fd5b60006119ba878288016118c5565b94505060206119cb87828801611958565b93505060406119dc87828801611958565b92505060606119ed87828801611958565b91505092959194509250565b60008060008060808587031215611a0f57600080fd5b600085013567ffffffffffffffff811115611a2957600080fd5b611a35878288016118da565b945050602085013567ffffffffffffffff811115611a5257600080fd5b611a5e87828801611904565b935050604085013567ffffffffffffffff811115611a7b57600080fd5b611a8787828801611904565b925050606085013567ffffffffffffffff811115611aa457600080fd5b611ab087828801611904565b91505092959194509250565b600060208284031215611ace57600080fd5b6000611adc8482850161192e565b91505092915050565b60008060408385031215611af857600080fd5b6000611b0685828601611943565b9250506020611b17858286016118c5565b9150509250929050565b611b2a81612133565b82525050565b611b3981612145565b82525050565b611b4881612151565b82525050565b6000611b5982611ff7565b611b638185612002565b9350611b73818560208601612185565b611b7c816122e9565b840191505092915050565b6000611b9282611ff7565b611b9c8185612013565b9350611bac818560208601612185565b80840191505092915050565b6000611bc5602083612002565b9150611bd0826122fa565b602082019050919050565b6000611be8602483612013565b9150611bf382612323565b602482019050919050565b6000611c0b601483612002565b9150611c1682612372565b602082019050919050565b6000611c2e602e83612002565b9150611c398261239b565b604082019050919050565b6000611c51601083612002565b9150611c5c826123ea565b602082019050919050565b6000611c74602f83612002565b9150611c7f82612413565b604082019050919050565b6000611c97603883612002565b9150611ca282612462565b604082019050919050565b6000611cba601183612013565b9150611cc5826124b1565b601182019050919050565b611cd98161217b565b82525050565b6000611cea82611bdb565b9150611cf68285611b87565b9150611d0182611cad565b9150611d0d8284611b87565b91508190509392505050565b6000602082019050611d2e6000830184611b21565b92915050565b6000606082019050611d496000830186611b21565b611d566020830185611b21565b611d636040830184611cd0565b949350505050565b6000604082019050611d806000830185611b21565b611d8d6020830184611cd0565b9392505050565b6000608082019050611da96000830187611b21565b611db66020830186611cd0565b611dc36040830185611cd0565b611dd06060830184611cd0565b95945050505050565b6000602082019050611dee6000830184611b30565b92915050565b6000602082019050611e096000830184611b3f565b92915050565b6000604082019050611e246000830185611b3f565b611e316020830184611b21565b9392505050565b60006020820190508181036000830152611e528184611b4e565b905092915050565b60006020820190508181036000830152611e7381611bb8565b9050919050565b60006020820190508181036000830152611e9381611bfe565b9050919050565b60006020820190508181036000830152611eb381611c21565b9050919050565b60006020820190508181036000830152611ed381611c44565b9050919050565b60006020820190508181036000830152611ef381611c67565b9050919050565b60006020820190508181036000830152611f1381611c8a565b9050919050565b6000602082019050611f2f6000830184611cd0565b92915050565b6000608082019050611f4a6000830187611cd0565b611f576020830186611cd0565b611f646040830185611cd0565b611f716060830184611cd0565b95945050505050565b6000611f84611f95565b9050611f9082826121e2565b919050565b6000604051905090565b600067ffffffffffffffff821115611fba57611fb96122ba565b5b602082029050602081019050919050565b600067ffffffffffffffff821115611fe657611fe56122ba565b5b602082029050602081019050919050565b600081519050919050565b600082825260208201905092915050565b600081905092915050565b60006120298261217b565b91506120348361217b565b9250827fffffffffffffffffffffffffffffffffffffffffffffffffffffffffffffffff038211156120695761206861225c565b5b828201905092915050565b600061207f8261217b565b915061208a8361217b565b92508261209a5761209961228b565b5b828204905092915050565b60006120b08261217b565b91506120bb8361217b565b9250817fffffffffffffffffffffffffffffffffffffffffffffffffffffffffffffffff04831182151516156120f4576120f361225c565b5b828202905092915050565b600061210a8261217b565b91506121158361217b565b9250828210156121285761212761225c565b5b828203905092915050565b600061213e8261215b565b9050919050565b60008115159050919050565b6000819050919050565b600073ffffffffffffffffffffffffffffffffffffffff82169050919050565b6000819050919050565b60005b838110156121a3578082015181840152602081019050612188565b838111156121b2576000848401525b50505050565b60006121c38261217b565b915060008214156121d7576121d661225c565b5b600182039050919050565b6121eb826122e9565b810181811067ffffffffffffffff8211171561220a576122096122ba565b5b80604052505050565b600061221e8261217b565b91507fffffffffffffffffffffffffffffffffffffffffffffffffffffffffffffffff8214156122515761225061225c565b5b600182019050919050565b7f4e487b7100000000000000000000000000000000000000000000000000000000600052601160045260246000fd5b7f4e487b7100000000000000000000000000000000000000000000000000000000600052601260045260246000fd5b7f4e487b7100000000000000000000000000000000000000000000000000000000600052604160045260246000fd5b6000601f19601f8301169050919050565b7f537472696e67733a20686578206c656e67746820696e73756666696369656e74600082015250565b7f416363657373436f6e74726f6c50726f78795061757361626c653a206163636f60008201527f756e742000000000000000000000000000000000000000000000000000000000602082015250565b7f5061757361626c653a206e6f7420706175736564000000000000000000000000600082015250565b7f547574656c6c7573446973747269627574696f6e5661756c743a206e6f20617660008201527f61696c61626c6520746f6b656e73000000000000000000000000000000000000602082015250565b7f5061757361626c653a2070617573656400000000000000000000000000000000600082015250565b7f547574656c6c7573446973747269627574696f6e5661756c743a206d696e746560008201527f642065786365656473206c696d69740000000000000000000000000000000000602082015250565b7f547574656c6c7573446973747269627574696f6e5661756c743a20737461727460008201527f20626c6f636b206578636565647320656e6420626c6f636b0000000000000000602082015250565b7f206973206d697373696e6720726f6c6520000000000000000000000000000000600082015250565b6124e381612133565b81146124ee57600080fd5b50565b6124fa81612145565b811461250557600080fd5b50565b61251181612151565b811461251c57600080fd5b50565b6125288161217b565b811461253357600080fd5b5056fea26469706673582212200321ff043d63bd0b28424f9ab81a528d84344965d6e53f0328b7559d250a81c264736f6c63430008020033",
  "linkReferences": {},
  "deployedLinkReferences": {}
}