{
  "_format": "hh-sol-artifact-1",
  "contractName": "TutellusDistributionVault",
  "sourceName": "contracts/TutellusDistributionVault.sol",
  "abi": [
    {
      "inputs": [
        {
          "internalType": "address",
          "name": "rolemanager",
          "type": "address"
        },
        {
          "internalType": "address",
          "name": "token_",
          "type": "address"
        }
      ],
      "stateMutability": "nonpayable",
      "type": "constructor"
    },
    {
      "anonymous": false,
      "inputs": [
        {
          "indexed": false,
          "internalType": "address",
          "name": "stakeholder",
          "type": "address"
        },
        {
          "indexed": false,
          "internalType": "uint256",
          "name": "allocated",
          "type": "uint256"
        },
        {
          "indexed": false,
          "internalType": "uint256",
          "name": "startBlock",
          "type": "uint256"
        },
        {
          "indexed": false,
          "internalType": "uint256",
          "name": "endBlock",
          "type": "uint256"
        }
      ],
      "name": "AddStakeholder",
      "type": "event"
    },
    {
      "anonymous": false,
      "inputs": [
        {
          "indexed": false,
          "internalType": "address",
          "name": "sender",
          "type": "address"
        },
        {
          "indexed": false,
          "internalType": "address",
          "name": "account",
          "type": "address"
        },
        {
          "indexed": false,
          "internalType": "uint256",
          "name": "amount",
          "type": "uint256"
        }
      ],
      "name": "Distribute",
      "type": "event"
    },
    {
      "anonymous": false,
      "inputs": [
        {
          "indexed": false,
          "internalType": "address",
          "name": "account",
          "type": "address"
        }
      ],
      "name": "Paused",
      "type": "event"
    },
    {
      "anonymous": false,
      "inputs": [
        {
          "indexed": false,
          "internalType": "address",
          "name": "account",
          "type": "address"
        }
      ],
      "name": "Unpaused",
      "type": "event"
    },
    {
      "anonymous": false,
      "inputs": [
        {
          "indexed": false,
          "internalType": "address",
          "name": "account",
          "type": "address"
        }
      ],
      "name": "Update",
      "type": "event"
    },
    {
      "inputs": [],
      "name": "DEFAULT_ADMIN_ROLE",
      "outputs": [
        {
          "internalType": "bytes32",
          "name": "",
          "type": "bytes32"
        }
      ],
      "stateMutability": "view",
      "type": "function"
    },
    {
      "inputs": [],
      "name": "PAUSER_ROLE",
      "outputs": [
        {
          "internalType": "bytes32",
          "name": "",
          "type": "bytes32"
        }
      ],
      "stateMutability": "view",
      "type": "function"
    },
    {
      "inputs": [
        {
          "internalType": "address",
          "name": "account",
          "type": "address"
        },
        {
          "internalType": "uint256",
          "name": "allocated_",
          "type": "uint256"
        },
        {
          "internalType": "uint256",
          "name": "startBlocks",
          "type": "uint256"
        },
        {
          "internalType": "uint256",
          "name": "endBlocks",
          "type": "uint256"
        }
      ],
      "name": "addStakeholder",
      "outputs": [],
      "stateMutability": "nonpayable",
      "type": "function"
    },
    {
      "inputs": [
        {
          "internalType": "address",
          "name": "account",
          "type": "address"
        }
      ],
      "name": "allocated",
      "outputs": [
        {
          "internalType": "uint256",
          "name": "",
          "type": "uint256"
        }
      ],
      "stateMutability": "view",
      "type": "function"
    },
    {
      "inputs": [
        {
          "internalType": "address",
          "name": "account",
          "type": "address"
        }
      ],
      "name": "available",
      "outputs": [
        {
          "internalType": "uint256",
          "name": "",
          "type": "uint256"
        }
      ],
      "stateMutability": "view",
      "type": "function"
    },
    {
      "inputs": [],
      "name": "claim",
      "outputs": [],
      "stateMutability": "nonpayable",
      "type": "function"
    },
    {
      "inputs": [
        {
          "internalType": "address",
          "name": "account",
          "type": "address"
        }
      ],
      "name": "distribute",
      "outputs": [],
      "stateMutability": "nonpayable",
      "type": "function"
    },
    {
      "inputs": [
        {
          "internalType": "address",
          "name": "account",
          "type": "address"
        }
      ],
      "name": "distributed",
      "outputs": [
        {
          "internalType": "uint256",
          "name": "",
          "type": "uint256"
        }
      ],
      "stateMutability": "view",
      "type": "function"
    },
    {
      "inputs": [
        {
          "internalType": "address",
          "name": "account",
          "type": "address"
        }
      ],
      "name": "endBlock",
      "outputs": [
        {
          "internalType": "uint256",
          "name": "",
          "type": "uint256"
        }
      ],
      "stateMutability": "view",
      "type": "function"
    },
    {
      "inputs": [
        {
          "internalType": "bytes32",
          "name": "role",
          "type": "bytes32"
        },
        {
          "internalType": "address",
          "name": "account",
          "type": "address"
        }
      ],
      "name": "hasRole",
      "outputs": [
        {
          "internalType": "bool",
          "name": "",
          "type": "bool"
        }
      ],
      "stateMutability": "view",
      "type": "function"
    },
    {
      "inputs": [],
      "name": "pause",
      "outputs": [],
      "stateMutability": "nonpayable",
      "type": "function"
    },
    {
      "inputs": [],
      "name": "paused",
      "outputs": [
        {
          "internalType": "bool",
          "name": "",
          "type": "bool"
        }
      ],
      "stateMutability": "view",
      "type": "function"
    },
    {
      "inputs": [
        {
          "internalType": "address",
          "name": "account",
          "type": "address"
        }
      ],
      "name": "releasePerBlock",
      "outputs": [
        {
          "internalType": "uint256",
          "name": "",
          "type": "uint256"
        }
      ],
      "stateMutability": "view",
      "type": "function"
    },
    {
      "inputs": [
        {
          "internalType": "address",
          "name": "account",
          "type": "address"
        }
      ],
      "name": "released",
      "outputs": [
        {
          "internalType": "uint256",
          "name": "",
          "type": "uint256"
        }
      ],
      "stateMutability": "view",
      "type": "function"
    },
    {
      "inputs": [
        {
          "internalType": "address",
          "name": "",
          "type": "address"
        }
      ],
      "name": "stakeholders",
      "outputs": [
        {
          "internalType": "uint256",
          "name": "distributed",
          "type": "uint256"
        },
        {
          "internalType": "uint256",
          "name": "releasePerBlock",
          "type": "uint256"
        },
        {
          "internalType": "uint256",
          "name": "startBlock",
          "type": "uint256"
        },
        {
          "internalType": "uint256",
          "name": "endBlock",
          "type": "uint256"
        }
      ],
      "stateMutability": "view",
      "type": "function"
    },
    {
      "inputs": [
        {
          "internalType": "address",
          "name": "account",
          "type": "address"
        }
      ],
      "name": "startBlock",
      "outputs": [
        {
          "internalType": "uint256",
          "name": "",
          "type": "uint256"
        }
      ],
      "stateMutability": "view",
      "type": "function"
    },
    {
      "inputs": [],
      "name": "token",
      "outputs": [
        {
          "internalType": "address",
          "name": "",
          "type": "address"
        }
      ],
      "stateMutability": "view",
      "type": "function"
    },
    {
      "inputs": [],
      "name": "unpause",
      "outputs": [],
      "stateMutability": "nonpayable",
      "type": "function"
    },
    {
      "inputs": [
        {
          "internalType": "address",
          "name": "manager",
          "type": "address"
        }
      ],
      "name": "updateManager",
      "outputs": [],
      "stateMutability": "nonpayable",
      "type": "function"
    }
  ],
  "bytecode": "0x60806040523480156200001157600080fd5b50604051620028db380380620028db833981810160405281019062000037919062000786565b6200004982826200005160201b60201c565b5050620008be565b600060019054906101000a900460ff168062000078575060008054906101000a900460ff16155b620000ba576040517f08c379a0000000000000000000000000000000000000000000000000000000008152600401620000b190620007ee565b60405180910390fd5b60008060019054906101000a900460ff1615905080156200010b576001600060016101000a81548160ff02191690831515021790555060016000806101000a81548160ff0219169083151502179055505b6200011c836200015460201b60201c565b6200012d826200025560201b60201c565b80156200014f5760008060016101000a81548160ff0219169083151502179055505b505050565b600060019054906101000a900460ff16806200017b575060008054906101000a900460ff16155b620001bd576040517f08c379a0000000000000000000000000000000000000000000000000000000008152600401620001b490620007ee565b60405180910390fd5b60008060019054906101000a900460ff1615905080156200020e576001600060016101000a81548160ff02191690831515021790555060016000806101000a81548160ff0219169083151502179055505b6200021e6200037660201b60201c565b6200022f826200047560201b60201c565b8015620002515760008060016101000a81548160ff0219169083151502179055505b5050565b600060019054906101000a900460ff16806200027c575060008054906101000a900460ff16155b620002be576040517f08c379a0000000000000000000000000000000000000000000000000000000008152600401620002b590620007ee565b60405180910390fd5b60008060019054906101000a900460ff1615905080156200030f576001600060016101000a81548160ff02191690831515021790555060016000806101000a81548160ff0219169083151502179055505b81606660006101000a81548173ffffffffffffffffffffffffffffffffffffffff021916908373ffffffffffffffffffffffffffffffffffffffff1602179055508015620003725760008060016101000a81548160ff0219169083151502179055505b5050565b600060019054906101000a900460ff16806200039d575060008054906101000a900460ff16155b620003df576040517f08c379a0000000000000000000000000000000000000000000000000000000008152600401620003d690620007ee565b60405180910390fd5b60008060019054906101000a900460ff16159050801562000430576001600060016101000a81548160ff02191690831515021790555060016000806101000a81548160ff0219169083151502179055505b620004406200059660201b60201c565b620004506200067560201b60201c565b8015620004725760008060016101000a81548160ff0219169083151502179055505b50565b600060019054906101000a900460ff16806200049c575060008054906101000a900460ff16155b620004de576040517f08c379a0000000000000000000000000000000000000000000000000000000008152600401620004d590620007ee565b60405180910390fd5b60008060019054906101000a900460ff1615905080156200052f576001600060016101000a81548160ff02191690831515021790555060016000806101000a81548160ff0219169083151502179055505b81606560006101000a81548173ffffffffffffffffffffffffffffffffffffffff021916908373ffffffffffffffffffffffffffffffffffffffff1602179055508015620005925760008060016101000a81548160ff0219169083151502179055505b5050565b600060019054906101000a900460ff1680620005bd575060008054906101000a900460ff16155b620005ff576040517f08c379a0000000000000000000000000000000000000000000000000000000008152600401620005f690620007ee565b60405180910390fd5b60008060019054906101000a900460ff16159050801562000650576001600060016101000a81548160ff02191690831515021790555060016000806101000a81548160ff0219169083151502179055505b8015620006725760008060016101000a81548160ff0219169083151502179055505b50565b600060019054906101000a900460ff16806200069c575060008054906101000a900460ff16155b620006de576040517f08c379a0000000000000000000000000000000000000000000000000000000008152600401620006d590620007ee565b60405180910390fd5b60008060019054906101000a900460ff1615905080156200072f576001600060016101000a81548160ff02191690831515021790555060016000806101000a81548160ff0219169083151502179055505b6000603360006101000a81548160ff02191690831515021790555080156200076c5760008060016101000a81548160ff0219169083151502179055505b50565b6000815190506200078081620008a4565b92915050565b600080604083850312156200079a57600080fd5b6000620007aa858286016200076f565b9250506020620007bd858286016200076f565b9150509250929050565b6000620007d6602e8362000810565b9150620007e38262000855565b604082019050919050565b600060208201905081810360008301526200080981620007c7565b9050919050565b600082825260208201905092915050565b60006200082e8262000835565b9050919050565b600073ffffffffffffffffffffffffffffffffffffffff82169050919050565b7f496e697469616c697a61626c653a20636f6e747261637420697320616c72656160008201527f647920696e697469616c697a6564000000000000000000000000000000000000602082015250565b620008af8162000821565b8114620008bb57600080fd5b50565b61200d80620008ce6000396000f3fe608060405234801561001057600080fd5b50600436106101215760003560e01c806363453ae1116100ad5780639ecaf2b2116100715780639ecaf2b214610306578063a217fddf14610336578063c07cfca914610354578063e63ab1e914610387578063fc0c546a146103a557610121565b806363453ae1146102505780638456cb591461026c57806384618ddc1461027657806391d14854146102a65780639852595c146102d657610121565b80634e71d92d116100f45780634e71d92d146101c0578063578bcf35146101ca5780635872a4de146101fa57806358aba00f146102165780635c975abb1461023257610121565b806310098ad5146101265780633f4ba83a146101565780633f697ce9146101605780634225e5bb14610190575b600080fd5b610140600480360381019061013b9190611689565b6103c3565b60405161014d9190611b30565b60405180910390f35b61015e6103e8565b005b61017a60048036038101906101759190611689565b61055e565b6040516101879190611b30565b60405180910390f35b6101aa60048036038101906101a59190611689565b6105aa565b6040516101b79190611b30565b60405180910390f35b6101c86105fc565b005b6101e460048036038101906101df9190611689565b61060d565b6040516101f19190611b30565b60405180910390f35b610214600480360381019061020f91906116b2565b610659565b005b610230600480360381019061022b9190611689565b610a8f565b005b61023a610c22565b6040516102479190611a0f565b60405180910390f35b61026a60048036038101906102659190611689565b610c39565b005b610274610e20565b005b610290600480360381019061028b9190611689565b610f96565b60405161029d9190611b30565b60405180910390f35b6102c060048036038101906102bb919061173e565b610fe2565b6040516102cd9190611a0f565b60405180910390f35b6102f060048036038101906102eb9190611689565b61109e565b6040516102fd9190611b30565b60405180910390f35b610320600480360381019061031b9190611689565b611121565b60405161032d9190611b30565b60405180910390f35b61033e61116d565b60405161034b9190611a2a565b60405180910390f35b61036e60048036038101906103699190611689565b611174565b60405161037e9493929190611b4b565b60405180910390f35b61038f6111a4565b60405161039c9190611a2a565b60405180910390f35b6103ad6111c8565b6040516103ba919061194f565b60405180910390f35b60006103ce8261060d565b6103d78361109e565b6103e19190611c98565b9050919050565b7f65d7a28e3265b37a6474929f336521b332c1681b933f6cb9f3376673440d862a6000606560009054906101000a900473ffffffffffffffffffffffffffffffffffffffff16905060003390508173ffffffffffffffffffffffffffffffffffffffff166391d1485484836040518363ffffffff1660e01b8152600401610470929190611a45565b60206040518083038186803b15801561048857600080fd5b505afa15801561049c573d6000803e3d6000fd5b505050506040513d601f19601f820116820180604052508101906104c09190611715565b6104e18273ffffffffffffffffffffffffffffffffffffffff1660146111ee565b6104ef8560001c60206111ee565b604051602001610500929190611915565b60405160208183030381529060405290610550576040517f08c379a00000000000000000000000000000000000000000000000000000000081526004016105479190611a6e565b60405180910390fd5b506105596114e8565b505050565b6000606760008373ffffffffffffffffffffffffffffffffffffffff1673ffffffffffffffffffffffffffffffffffffffff168152602001908152602001600020600201549050919050565b6000806105b683611121565b11156105f2576105c582611121565b6105ce8361055e565b6105d784610f96565b6105e19190611c98565b6105eb9190611c0d565b90506105f7565b600090505b919050565b600033905061060a81610c39565b50565b6000606760008373ffffffffffffffffffffffffffffffffffffffff1673ffffffffffffffffffffffffffffffffffffffff168152602001908152602001600020600001549050919050565b6000801b6000606560009054906101000a900473ffffffffffffffffffffffffffffffffffffffff16905060003390508173ffffffffffffffffffffffffffffffffffffffff166391d1485484836040518363ffffffff1660e01b81526004016106c4929190611a45565b60206040518083038186803b1580156106dc57600080fd5b505afa1580156106f0573d6000803e3d6000fd5b505050506040513d601f19601f820116820180604052508101906107149190611715565b6107358273ffffffffffffffffffffffffffffffffffffffff1660146111ee565b6107438560001c60206111ee565b604051602001610754929190611915565b604051602081830303815290604052906107a4576040517f08c379a000000000000000000000000000000000000000000000000000000000815260040161079b9190611a6e565b60405180910390fd5b508484116107e7576040517f08c379a00000000000000000000000000000000000000000000000000000000081526004016107de90611af0565b60405180910390fd5b6000606760008973ffffffffffffffffffffffffffffffffffffffff1673ffffffffffffffffffffffffffffffffffffffff16815260200190815260200160002060000181905550848461083b9190611c98565b866108469190611c0d565b606760008973ffffffffffffffffffffffffffffffffffffffff1673ffffffffffffffffffffffffffffffffffffffff1681526020019081526020016000206001018190555084436108989190611bb7565b606760008973ffffffffffffffffffffffffffffffffffffffff1673ffffffffffffffffffffffffffffffffffffffff1681526020019081526020016000206002018190555083436108ea9190611bb7565b606760008973ffffffffffffffffffffffffffffffffffffffff1673ffffffffffffffffffffffffffffffffffffffff168152602001908152602001600020600301819055506000606660009054906101000a900473ffffffffffffffffffffffffffffffffffffffff1690508073ffffffffffffffffffffffffffffffffffffffff166340c10f1930896040518363ffffffff1660e01b81526004016109929291906119a1565b600060405180830381600087803b1580156109ac57600080fd5b505af11580156109c0573d6000803e3d6000fd5b505050507fc37e5d36bd0279e9c61952b98313de5a8351caf00960074dbe2017a03ac5202e8888606760008c73ffffffffffffffffffffffffffffffffffffffff1673ffffffffffffffffffffffffffffffffffffffff16815260200190815260200160002060020154606760008d73ffffffffffffffffffffffffffffffffffffffff1673ffffffffffffffffffffffffffffffffffffffff16815260200190815260200160002060030154604051610a7d94939291906119ca565b60405180910390a15050505050505050565b6000801b6000606560009054906101000a900473ffffffffffffffffffffffffffffffffffffffff16905060003390508173ffffffffffffffffffffffffffffffffffffffff166391d1485484836040518363ffffffff1660e01b8152600401610afa929190611a45565b60206040518083038186803b158015610b1257600080fd5b505afa158015610b26573d6000803e3d6000fd5b505050506040513d601f19601f82011682018060405250810190610b4a9190611715565b610b6b8273ffffffffffffffffffffffffffffffffffffffff1660146111ee565b610b798560001c60206111ee565b604051602001610b8a929190611915565b60405160208183030381529060405290610bda576040517f08c379a0000000000000000000000000000000000000000000000000000000008152600401610bd19190611a6e565b60405180910390fd5b5083606560006101000a81548173ffffffffffffffffffffffffffffffffffffffff021916908373ffffffffffffffffffffffffffffffffffffffff16021790555050505050565b6000603360009054906101000a900460ff16905090565b610c41610c22565b15610c81576040517f08c379a0000000000000000000000000000000000000000000000000000000008152600401610c7890611ad0565b60405180910390fd5b6000606660009054906101000a900473ffffffffffffffffffffffffffffffffffffffff1690506000610cb3836103c3565b90506000811015610cf9576040517f08c379a0000000000000000000000000000000000000000000000000000000008152600401610cf090611b10565b60405180910390fd5b80606760008573ffffffffffffffffffffffffffffffffffffffff1673ffffffffffffffffffffffffffffffffffffffff1681526020019081526020016000206000016000828254610d4b9190611bb7565b925050819055508173ffffffffffffffffffffffffffffffffffffffff1663a9059cbb84836040518363ffffffff1660e01b8152600401610d8d9291906119a1565b602060405180830381600087803b158015610da757600080fd5b505af1158015610dbb573d6000803e3d6000fd5b505050506040513d601f19601f82011682018060405250810190610ddf9190611715565b507fafdc1eb311d58306e249917b5ca0044a827a66f0ec535c334d63372c4055d364338483604051610e139392919061196a565b60405180910390a1505050565b7f65d7a28e3265b37a6474929f336521b332c1681b933f6cb9f3376673440d862a6000606560009054906101000a900473ffffffffffffffffffffffffffffffffffffffff16905060003390508173ffffffffffffffffffffffffffffffffffffffff166391d1485484836040518363ffffffff1660e01b8152600401610ea8929190611a45565b60206040518083038186803b158015610ec057600080fd5b505afa158015610ed4573d6000803e3d6000fd5b505050506040513d601f19601f82011682018060405250810190610ef89190611715565b610f198273ffffffffffffffffffffffffffffffffffffffff1660146111ee565b610f278560001c60206111ee565b604051602001610f38929190611915565b60405160208183030381529060405290610f88576040517f08c379a0000000000000000000000000000000000000000000000000000000008152600401610f7f9190611a6e565b60405180910390fd5b50610f9161158a565b505050565b6000606760008373ffffffffffffffffffffffffffffffffffffffff1673ffffffffffffffffffffffffffffffffffffffff168152602001908152602001600020600301549050919050565b600080606560009054906101000a900473ffffffffffffffffffffffffffffffffffffffff1690508073ffffffffffffffffffffffffffffffffffffffff166391d1485485856040518363ffffffff1660e01b8152600401611045929190611a45565b60206040518083038186803b15801561105d57600080fd5b505afa158015611071573d6000803e3d6000fd5b505050506040513d601f19601f820116820180604052508101906110959190611715565b91505092915050565b6000806110aa836105aa565b1115611117576110b982610f96565b4311156110d0576110c9826105aa565b905061111c565b6110d98261055e565b43111561110e576110e982611121565b6110f28361055e565b436110fd9190611c98565b6111079190611c3e565b905061111c565b6000905061111c565b600090505b919050565b6000606760008373ffffffffffffffffffffffffffffffffffffffff1673ffffffffffffffffffffffffffffffffffffffff168152602001908152602001600020600101549050919050565b6000801b81565b60676020528060005260406000206000915090508060000154908060010154908060020154908060030154905084565b7f65d7a28e3265b37a6474929f336521b332c1681b933f6cb9f3376673440d862a81565b606660009054906101000a900473ffffffffffffffffffffffffffffffffffffffff1681565b6060600060028360026112019190611c3e565b61120b9190611bb7565b67ffffffffffffffff81111561124a577f4e487b7100000000000000000000000000000000000000000000000000000000600052604160045260246000fd5b6040519080825280601f01601f19166020018201604052801561127c5781602001600182028036833780820191505090505b5090507f3000000000000000000000000000000000000000000000000000000000000000816000815181106112da577f4e487b7100000000000000000000000000000000000000000000000000000000600052603260045260246000fd5b60200101907effffffffffffffffffffffffffffffffffffffffffffffffffffffffffffff1916908160001a9053507f780000000000000000000000000000000000000000000000000000000000000081600181518110611364577f4e487b7100000000000000000000000000000000000000000000000000000000600052603260045260246000fd5b60200101907effffffffffffffffffffffffffffffffffffffffffffffffffffffffffffff1916908160001a905350600060018460026113a49190611c3e565b6113ae9190611bb7565b90505b600181111561149a577f3031323334353637383961626364656600000000000000000000000000000000600f861660108110611416577f4e487b7100000000000000000000000000000000000000000000000000000000600052603260045260246000fd5b1a60f81b828281518110611453577f4e487b7100000000000000000000000000000000000000000000000000000000600052603260045260246000fd5b60200101907effffffffffffffffffffffffffffffffffffffffffffffffffffffffffffff1916908160001a905350600485901c94508061149390611d51565b90506113b1565b50600084146114de576040517f08c379a00000000000000000000000000000000000000000000000000000000081526004016114d590611a90565b60405180910390fd5b8091505092915050565b6114f0610c22565b61152f576040517f08c379a000000000000000000000000000000000000000000000000000000000815260040161152690611ab0565b60405180910390fd5b6000603360006101000a81548160ff0219169083151502179055507f5db9ee0a495bf2e6ff9c91a7834c1ba4fdd244a5e8aa4e537bd38aeae4b073aa61157361162d565b604051611580919061194f565b60405180910390a1565b611592610c22565b156115d2576040517f08c379a00000000000000000000000000000000000000000000000000000000081526004016115c990611ad0565b60405180910390fd5b6001603360006101000a81548160ff0219169083151502179055507f62e78cea01bee320cd4e420270b5ea74000d11b0c9f74754ebdbfc544b05a25861161661162d565b604051611623919061194f565b60405180910390a1565b600033905090565b60008135905061164481611f7b565b92915050565b60008151905061165981611f92565b92915050565b60008135905061166e81611fa9565b92915050565b60008135905061168381611fc0565b92915050565b60006020828403121561169b57600080fd5b60006116a984828501611635565b91505092915050565b600080600080608085870312156116c857600080fd5b60006116d687828801611635565b94505060206116e787828801611674565b93505060406116f887828801611674565b925050606061170987828801611674565b91505092959194509250565b60006020828403121561172757600080fd5b60006117358482850161164a565b91505092915050565b6000806040838503121561175157600080fd5b600061175f8582860161165f565b925050602061177085828601611635565b9150509250929050565b61178381611ccc565b82525050565b61179281611cde565b82525050565b6117a181611cea565b82525050565b60006117b282611b90565b6117bc8185611b9b565b93506117cc818560208601611d1e565b6117d581611dd9565b840191505092915050565b60006117eb82611b90565b6117f58185611bac565b9350611805818560208601611d1e565b80840191505092915050565b600061181e602083611b9b565b915061182982611dea565b602082019050919050565b6000611841602483611bac565b915061184c82611e13565b602482019050919050565b6000611864601483611b9b565b915061186f82611e62565b602082019050919050565b6000611887601083611b9b565b915061189282611e8b565b602082019050919050565b60006118aa603c83611b9b565b91506118b582611eb4565b604082019050919050565b60006118cd602e83611b9b565b91506118d882611f03565b604082019050919050565b60006118f0601183611bac565b91506118fb82611f52565b601182019050919050565b61190f81611d14565b82525050565b600061192082611834565b915061192c82856117e0565b9150611937826118e3565b915061194382846117e0565b91508190509392505050565b6000602082019050611964600083018461177a565b92915050565b600060608201905061197f600083018661177a565b61198c602083018561177a565b6119996040830184611906565b949350505050565b60006040820190506119b6600083018561177a565b6119c36020830184611906565b9392505050565b60006080820190506119df600083018761177a565b6119ec6020830186611906565b6119f96040830185611906565b611a066060830184611906565b95945050505050565b6000602082019050611a246000830184611789565b92915050565b6000602082019050611a3f6000830184611798565b92915050565b6000604082019050611a5a6000830185611798565b611a67602083018461177a565b9392505050565b60006020820190508181036000830152611a8881846117a7565b905092915050565b60006020820190508181036000830152611aa981611811565b9050919050565b60006020820190508181036000830152611ac981611857565b9050919050565b60006020820190508181036000830152611ae98161187a565b9050919050565b60006020820190508181036000830152611b098161189d565b9050919050565b60006020820190508181036000830152611b29816118c0565b9050919050565b6000602082019050611b456000830184611906565b92915050565b6000608082019050611b606000830187611906565b611b6d6020830186611906565b611b7a6040830185611906565b611b876060830184611906565b95945050505050565b600081519050919050565b600082825260208201905092915050565b600081905092915050565b6000611bc282611d14565b9150611bcd83611d14565b9250827fffffffffffffffffffffffffffffffffffffffffffffffffffffffffffffffff03821115611c0257611c01611d7b565b5b828201905092915050565b6000611c1882611d14565b9150611c2383611d14565b925082611c3357611c32611daa565b5b828204905092915050565b6000611c4982611d14565b9150611c5483611d14565b9250817fffffffffffffffffffffffffffffffffffffffffffffffffffffffffffffffff0483118215151615611c8d57611c8c611d7b565b5b828202905092915050565b6000611ca382611d14565b9150611cae83611d14565b925082821015611cc157611cc0611d7b565b5b828203905092915050565b6000611cd782611cf4565b9050919050565b60008115159050919050565b6000819050919050565b600073ffffffffffffffffffffffffffffffffffffffff82169050919050565b6000819050919050565b60005b83811015611d3c578082015181840152602081019050611d21565b83811115611d4b576000848401525b50505050565b6000611d5c82611d14565b91506000821415611d7057611d6f611d7b565b5b600182039050919050565b7f4e487b7100000000000000000000000000000000000000000000000000000000600052601160045260246000fd5b7f4e487b7100000000000000000000000000000000000000000000000000000000600052601260045260246000fd5b6000601f19601f8301169050919050565b7f537472696e67733a20686578206c656e67746820696e73756666696369656e74600082015250565b7f416363657373436f6e74726f6c50726f78795061757361626c653a206163636f60008201527f756e742000000000000000000000000000000000000000000000000000000000602082015250565b7f5061757361626c653a206e6f7420706175736564000000000000000000000000600082015250565b7f5061757361626c653a2070617573656400000000000000000000000000000000600082015250565b7f547574656c6c7573446973747269627574696f6e5661756c743a20656e64426c60008201527f6f636b206d757374206265206166746572207374617274426c6f636b00000000602082015250565b7f547574656c6c7573446973747269627574696f6e5661756c743a204e6f20617660008201527f61696c61626c6520746f6b656e73000000000000000000000000000000000000602082015250565b7f206973206d697373696e6720726f6c6520000000000000000000000000000000600082015250565b611f8481611ccc565b8114611f8f57600080fd5b50565b611f9b81611cde565b8114611fa657600080fd5b50565b611fb281611cea565b8114611fbd57600080fd5b50565b611fc981611d14565b8114611fd457600080fd5b5056fea26469706673582212205cf48690d5295701e732ddcb73a98a51eefadd01b8f4a2ef5be24d16a7f56bbc64736f6c63430008020033",
  "linkReferences": {},
  "deployedLinkReferences": {}
}