{
  "_format": "hh-sol-artifact-1",
  "contractName": "TutellusController",
  "sourceName": "contracts/TutellusController.sol",
  "abi": [
    {
      "inputs": [],
      "stateMutability": "nonpayable",
      "type": "constructor"
    },
    {
      "anonymous": false,
      "inputs": [
        {
          "indexed": false,
          "internalType": "bytes32",
          "name": "id",
          "type": "bytes32"
        },
        {
          "indexed": false,
          "internalType": "address",
          "name": "sender",
          "type": "address"
        }
      ],
      "name": "LockId",
      "type": "event"
    },
    {
      "anonymous": false,
      "inputs": [
        {
          "indexed": true,
          "internalType": "bytes32",
          "name": "role",
          "type": "bytes32"
        },
        {
          "indexed": true,
          "internalType": "bytes32",
          "name": "previousAdminRole",
          "type": "bytes32"
        },
        {
          "indexed": true,
          "internalType": "bytes32",
          "name": "newAdminRole",
          "type": "bytes32"
        }
      ],
      "name": "RoleAdminChanged",
      "type": "event"
    },
    {
      "anonymous": false,
      "inputs": [
        {
          "indexed": true,
          "internalType": "bytes32",
          "name": "role",
          "type": "bytes32"
        },
        {
          "indexed": true,
          "internalType": "address",
          "name": "account",
          "type": "address"
        },
        {
          "indexed": true,
          "internalType": "address",
          "name": "sender",
          "type": "address"
        }
      ],
      "name": "RoleGranted",
      "type": "event"
    },
    {
      "anonymous": false,
      "inputs": [
        {
          "indexed": true,
          "internalType": "bytes32",
          "name": "role",
          "type": "bytes32"
        },
        {
          "indexed": true,
          "internalType": "address",
          "name": "account",
          "type": "address"
        },
        {
          "indexed": true,
          "internalType": "address",
          "name": "sender",
          "type": "address"
        }
      ],
      "name": "RoleRevoked",
      "type": "event"
    },
    {
      "anonymous": false,
      "inputs": [
        {
          "indexed": false,
          "internalType": "bytes32",
          "name": "id",
          "type": "bytes32"
        },
        {
          "indexed": false,
          "internalType": "address",
          "name": "addr",
          "type": "address"
        },
        {
          "indexed": false,
          "internalType": "address",
          "name": "sender",
          "type": "address"
        }
      ],
      "name": "SetAddress",
      "type": "event"
    },
    {
      "anonymous": false,
      "inputs": [
        {
          "indexed": false,
          "internalType": "address",
          "name": "addr",
          "type": "address"
        },
        {
          "indexed": false,
          "internalType": "bool",
          "name": "verified",
          "type": "bool"
        },
        {
          "indexed": false,
          "internalType": "address",
          "name": "sender",
          "type": "address"
        }
      ],
      "name": "SetVerification",
      "type": "event"
    },
    {
      "inputs": [],
      "name": "ADDR_MANAGER_ROLE",
      "outputs": [
        {
          "internalType": "bytes32",
          "name": "",
          "type": "bytes32"
        }
      ],
      "stateMutability": "view",
      "type": "function"
    },
    {
      "inputs": [],
      "name": "DEFAULT_ADMIN_ROLE",
      "outputs": [
        {
          "internalType": "bytes32",
          "name": "",
          "type": "bytes32"
        }
      ],
      "stateMutability": "view",
      "type": "function"
    },
    {
      "inputs": [
        {
          "internalType": "bytes32",
          "name": "id",
          "type": "bytes32"
        }
      ],
      "name": "getAddress",
      "outputs": [
        {
          "internalType": "address",
          "name": "",
          "type": "address"
        }
      ],
      "stateMutability": "view",
      "type": "function"
    },
    {
      "inputs": [
        {
          "internalType": "bytes32",
          "name": "role",
          "type": "bytes32"
        }
      ],
      "name": "getRoleAdmin",
      "outputs": [
        {
          "internalType": "bytes32",
          "name": "",
          "type": "bytes32"
        }
      ],
      "stateMutability": "view",
      "type": "function"
    },
    {
      "inputs": [
        {
          "internalType": "bytes32",
          "name": "role",
          "type": "bytes32"
        },
        {
          "internalType": "address",
          "name": "account",
          "type": "address"
        }
      ],
      "name": "grantRole",
      "outputs": [],
      "stateMutability": "nonpayable",
      "type": "function"
    },
    {
      "inputs": [
        {
          "internalType": "bytes32",
          "name": "role",
          "type": "bytes32"
        },
        {
          "internalType": "address",
          "name": "account",
          "type": "address"
        }
      ],
      "name": "hasRole",
      "outputs": [
        {
          "internalType": "bool",
          "name": "",
          "type": "bool"
        }
      ],
      "stateMutability": "view",
      "type": "function"
    },
    {
      "inputs": [
        {
          "internalType": "address",
          "name": "addr",
          "type": "address"
        }
      ],
      "name": "isVerified",
      "outputs": [
        {
          "internalType": "bool",
          "name": "",
          "type": "bool"
        }
      ],
      "stateMutability": "view",
      "type": "function"
    },
    {
      "inputs": [
        {
          "internalType": "bytes32",
          "name": "id",
          "type": "bytes32"
        }
      ],
      "name": "lockId",
      "outputs": [],
      "stateMutability": "nonpayable",
      "type": "function"
    },
    {
      "inputs": [
        {
          "internalType": "bytes32",
          "name": "role",
          "type": "bytes32"
        },
        {
          "internalType": "address",
          "name": "account",
          "type": "address"
        }
      ],
      "name": "renounceRole",
      "outputs": [],
      "stateMutability": "nonpayable",
      "type": "function"
    },
    {
      "inputs": [
        {
          "internalType": "bytes32",
          "name": "role",
          "type": "bytes32"
        },
        {
          "internalType": "address",
          "name": "account",
          "type": "address"
        }
      ],
      "name": "revokeRole",
      "outputs": [],
      "stateMutability": "nonpayable",
      "type": "function"
    },
    {
      "inputs": [
        {
          "internalType": "bytes32",
          "name": "id",
          "type": "bytes32"
        },
        {
          "internalType": "address",
          "name": "addr",
          "type": "address"
        }
      ],
      "name": "setAddress",
      "outputs": [],
      "stateMutability": "nonpayable",
      "type": "function"
    },
    {
      "inputs": [
        {
          "internalType": "address",
          "name": "addr",
          "type": "address"
        },
        {
          "internalType": "bool",
          "name": "verified",
          "type": "bool"
        }
      ],
      "name": "setVerification",
      "outputs": [],
      "stateMutability": "nonpayable",
      "type": "function"
    },
    {
      "inputs": [
        {
          "internalType": "bytes4",
          "name": "interfaceId",
          "type": "bytes4"
        }
      ],
      "name": "supportsInterface",
      "outputs": [
        {
          "internalType": "bool",
          "name": "",
          "type": "bool"
        }
      ],
      "stateMutability": "view",
      "type": "function"
    }
  ],
  "bytecode": "0x60806040523480156200001157600080fd5b50620000447f9b9e3f9f73a57cff0c97d1c22e8a87e323c211eec2e307975234dc2429efc7ee33620000f360201b60201c565b600060405162000054906200026e565b604051809103906000f08015801562000071573d6000803e3d6000fd5b50905060007f4bf9d50280555eea68f83aa4b6b4c4e7c314d2e0bacd20cb25b919ad8fc59b439050816097600083815260200190815260200160002060006101000a81548173ffffffffffffffffffffffffffffffffffffffff021916908373ffffffffffffffffffffffffffffffffffffffff16021790555050506200027c565b6200010582826200010960201b60201c565b5050565b6200011b8282620001fb60201b60201c565b620001f75760016065600084815260200190815260200160002060000160008373ffffffffffffffffffffffffffffffffffffffff1673ffffffffffffffffffffffffffffffffffffffff16815260200190815260200160002060006101000a81548160ff0219169083151502179055506200019c6200026660201b60201c565b73ffffffffffffffffffffffffffffffffffffffff168173ffffffffffffffffffffffffffffffffffffffff16837f2f8788117e7eff1d82e926ec794901d17c78024a50270940304540a733656f0d60405160405180910390a45b5050565b60006065600084815260200190815260200160002060000160008373ffffffffffffffffffffffffffffffffffffffff1673ffffffffffffffffffffffffffffffffffffffff16815260200190815260200160002060009054906101000a900460ff16905092915050565b600033905090565b614497806200183683390190565b6115aa806200028c6000396000f3fe608060405234801561001057600080fd5b50600436106100cf5760003560e01c806338f399d81161008c578063afbb7c0b11610066578063afbb7c0b14610222578063b9209e3314610240578063ca446dd914610270578063d547741f1461028c576100cf565b806338f399d8146101b857806391d14854146101d4578063a217fddf14610204576100cf565b806301ffc9a7146100d457806321f8a72114610104578063248a9ca3146101345780632dae1d86146101645780632f2ff15d1461018057806336568abe1461019c575b600080fd5b6100ee60048036038101906100e99190610f20565b6102a8565b6040516100fb919061111b565b60405180910390f35b61011e60048036038101906101199190610ebb565b610322565b60405161012b91906110c9565b60405180910390f35b61014e60048036038101906101499190610ebb565b61035f565b60405161015b9190611136565b60405180910390f35b61017e60048036038101906101799190610ebb565b61037f565b005b61019a60048036038101906101959190610ee4565b610421565b005b6101b660048036038101906101b19190610ee4565b61044a565b005b6101d260048036038101906101cd9190610e7f565b6104cd565b005b6101ee60048036038101906101e99190610ee4565b61059d565b6040516101fb919061111b565b60405180910390f35b61020c610608565b6040516102199190611136565b60405180910390f35b61022a61060f565b6040516102379190611136565b60405180910390f35b61025a60048036038101906102559190610e56565b610633565b604051610267919061111b565b60405180910390f35b61028a60048036038101906102859190610ee4565b610689565b005b6102a660048036038101906102a19190610ee4565b61080d565b005b60007f7965db0b000000000000000000000000000000000000000000000000000000007bffffffffffffffffffffffffffffffffffffffffffffffffffffffff1916827bffffffffffffffffffffffffffffffffffffffffffffffffffffffff1916148061031b575061031a82610836565b5b9050919050565b60006097600083815260200190815260200160002060009054906101000a900473ffffffffffffffffffffffffffffffffffffffff169050919050565b600060656000838152602001908152602001600020600101549050919050565b7f9b9e3f9f73a57cff0c97d1c22e8a87e323c211eec2e307975234dc2429efc7ee6103b1816103ac6108a0565b6108a8565b60016098600084815260200190815260200160002060006101000a81548160ff0219169083151502179055507fcf24dea38fb4084a7f1ab8b88fde8b9b7c0f52465b6211c9b9a62370bc38db11826104076108a0565b604051610415929190611151565b60405180910390a15050565b61042a8261035f565b61043b816104366108a0565b6108a8565b6104458383610945565b505050565b6104526108a0565b73ffffffffffffffffffffffffffffffffffffffff168173ffffffffffffffffffffffffffffffffffffffff16146104bf576040517f08c379a00000000000000000000000000000000000000000000000000000000081526004016104b690611213565b60405180910390fd5b6104c98282610a26565b5050565b7f9b9e3f9f73a57cff0c97d1c22e8a87e323c211eec2e307975234dc2429efc7ee6104ff816104fa6108a0565b6108a8565b81609960008573ffffffffffffffffffffffffffffffffffffffff1673ffffffffffffffffffffffffffffffffffffffff16815260200190815260200160002060006101000a81548160ff0219169083151502179055507f6a3c3586f32c811e25a4c567f5c04da6cfa53a7f3095a6f833aa3de874d3a37383836105816108a0565b604051610590939291906110e4565b60405180910390a1505050565b60006065600084815260200190815260200160002060000160008373ffffffffffffffffffffffffffffffffffffffff1673ffffffffffffffffffffffffffffffffffffffff16815260200190815260200160002060009054906101000a900460ff16905092915050565b6000801b81565b7f9b9e3f9f73a57cff0c97d1c22e8a87e323c211eec2e307975234dc2429efc7ee81565b6000609960008373ffffffffffffffffffffffffffffffffffffffff1673ffffffffffffffffffffffffffffffffffffffff16815260200190815260200160002060009054906101000a900460ff169050919050565b7f9b9e3f9f73a57cff0c97d1c22e8a87e323c211eec2e307975234dc2429efc7ee6106bb816106b66108a0565b6108a8565b6098600084815260200190815260200160002060009054906101000a900460ff161561071c576040517f08c379a0000000000000000000000000000000000000000000000000000000008152600401610713906111f3565b60405180910390fd5b816097600085815260200190815260200160002060006101000a81548173ffffffffffffffffffffffffffffffffffffffff021916908373ffffffffffffffffffffffffffffffffffffffff1602179055506001609960008473ffffffffffffffffffffffffffffffffffffffff1673ffffffffffffffffffffffffffffffffffffffff16815260200190815260200160002060006101000a81548160ff0219169083151502179055507f24ae06671a5a0f314155d9b51ee0c02739fd5c7ab5e941c790a2c184742264f883836107f16108a0565b6040516108009392919061117a565b60405180910390a1505050565b6108168261035f565b610827816108226108a0565b6108a8565b6108318383610a26565b505050565b60007f01ffc9a7000000000000000000000000000000000000000000000000000000007bffffffffffffffffffffffffffffffffffffffffffffffffffffffff1916827bffffffffffffffffffffffffffffffffffffffffffffffffffffffff1916149050919050565b600033905090565b6108b2828261059d565b610941576108d78173ffffffffffffffffffffffffffffffffffffffff166014610b08565b6108e58360001c6020610b08565b6040516020016108f692919061108f565b6040516020818303038152906040526040517f08c379a000000000000000000000000000000000000000000000000000000000815260040161093891906111b1565b60405180910390fd5b5050565b61094f828261059d565b610a225760016065600084815260200190815260200160002060000160008373ffffffffffffffffffffffffffffffffffffffff1673ffffffffffffffffffffffffffffffffffffffff16815260200190815260200160002060006101000a81548160ff0219169083151502179055506109c76108a0565b73ffffffffffffffffffffffffffffffffffffffff168173ffffffffffffffffffffffffffffffffffffffff16837f2f8788117e7eff1d82e926ec794901d17c78024a50270940304540a733656f0d60405160405180910390a45b5050565b610a30828261059d565b15610b045760006065600084815260200190815260200160002060000160008373ffffffffffffffffffffffffffffffffffffffff1673ffffffffffffffffffffffffffffffffffffffff16815260200190815260200160002060006101000a81548160ff021916908315150217905550610aa96108a0565b73ffffffffffffffffffffffffffffffffffffffff168173ffffffffffffffffffffffffffffffffffffffff16837ff6391f5c32d9c69d2a47ea670b442974b53935d1edc7fd64eb21e047a839171b60405160405180910390a45b5050565b606060006002836002610b1b91906112b0565b610b25919061125a565b67ffffffffffffffff811115610b64577f4e487b7100000000000000000000000000000000000000000000000000000000600052604160045260246000fd5b6040519080825280601f01601f191660200182016040528015610b965781602001600182028036833780820191505090505b5090507f300000000000000000000000000000000000000000000000000000000000000081600081518110610bf4577f4e487b7100000000000000000000000000000000000000000000000000000000600052603260045260246000fd5b60200101907effffffffffffffffffffffffffffffffffffffffffffffffffffffffffffff1916908160001a9053507f780000000000000000000000000000000000000000000000000000000000000081600181518110610c7e577f4e487b7100000000000000000000000000000000000000000000000000000000600052603260045260246000fd5b60200101907effffffffffffffffffffffffffffffffffffffffffffffffffffffffffffff1916908160001a90535060006001846002610cbe91906112b0565b610cc8919061125a565b90505b6001811115610db4577f3031323334353637383961626364656600000000000000000000000000000000600f861660108110610d30577f4e487b7100000000000000000000000000000000000000000000000000000000600052603260045260246000fd5b1a60f81b828281518110610d6d577f4e487b7100000000000000000000000000000000000000000000000000000000600052603260045260246000fd5b60200101907effffffffffffffffffffffffffffffffffffffffffffffffffffffffffffff1916908160001a905350600485901c945080610dad906113bb565b9050610ccb565b5060008414610df8576040517f08c379a0000000000000000000000000000000000000000000000000000000008152600401610def906111d3565b60405180910390fd5b8091505092915050565b600081359050610e1181611518565b92915050565b600081359050610e268161152f565b92915050565b600081359050610e3b81611546565b92915050565b600081359050610e508161155d565b92915050565b600060208284031215610e6857600080fd5b6000610e7684828501610e02565b91505092915050565b60008060408385031215610e9257600080fd5b6000610ea085828601610e02565b9250506020610eb185828601610e17565b9150509250929050565b600060208284031215610ecd57600080fd5b6000610edb84828501610e2c565b91505092915050565b60008060408385031215610ef757600080fd5b6000610f0585828601610e2c565b9250506020610f1685828601610e02565b9150509250929050565b600060208284031215610f3257600080fd5b6000610f4084828501610e41565b91505092915050565b610f528161130a565b82525050565b610f618161131c565b82525050565b610f7081611328565b82525050565b6000610f8182611233565b610f8b818561123e565b9350610f9b818560208601611388565b610fa481611414565b840191505092915050565b6000610fba82611233565b610fc4818561124f565b9350610fd4818560208601611388565b80840191505092915050565b6000610fed60208361123e565b9150610ff882611425565b602082019050919050565b600061101060208361123e565b915061101b8261144e565b602082019050919050565b600061103360178361124f565b915061103e82611477565b601782019050919050565b600061105660118361124f565b9150611061826114a0565b601182019050919050565b6000611079602f8361123e565b9150611084826114c9565b604082019050919050565b600061109a82611026565b91506110a68285610faf565b91506110b182611049565b91506110bd8284610faf565b91508190509392505050565b60006020820190506110de6000830184610f49565b92915050565b60006060820190506110f96000830186610f49565b6111066020830185610f58565b6111136040830184610f49565b949350505050565b60006020820190506111306000830184610f58565b92915050565b600060208201905061114b6000830184610f67565b92915050565b60006040820190506111666000830185610f67565b6111736020830184610f49565b9392505050565b600060608201905061118f6000830186610f67565b61119c6020830185610f49565b6111a96040830184610f49565b949350505050565b600060208201905081810360008301526111cb8184610f76565b905092915050565b600060208201905081810360008301526111ec81610fe0565b9050919050565b6000602082019050818103600083015261120c81611003565b9050919050565b6000602082019050818103600083015261122c8161106c565b9050919050565b600081519050919050565b600082825260208201905092915050565b600081905092915050565b60006112658261137e565b91506112708361137e565b9250827fffffffffffffffffffffffffffffffffffffffffffffffffffffffffffffffff038211156112a5576112a46113e5565b5b828201905092915050565b60006112bb8261137e565b91506112c68361137e565b9250817fffffffffffffffffffffffffffffffffffffffffffffffffffffffffffffffff04831182151516156112ff576112fe6113e5565b5b828202905092915050565b60006113158261135e565b9050919050565b60008115159050919050565b6000819050919050565b60007fffffffff0000000000000000000000000000000000000000000000000000000082169050919050565b600073ffffffffffffffffffffffffffffffffffffffff82169050919050565b6000819050919050565b60005b838110156113a657808201518184015260208101905061138b565b838111156113b5576000848401525b50505050565b60006113c68261137e565b915060008214156113da576113d96113e5565b5b600182039050919050565b7f4e487b7100000000000000000000000000000000000000000000000000000000600052601160045260246000fd5b6000601f19601f8301169050919050565b7f537472696e67733a20686578206c656e67746820696e73756666696369656e74600082015250565b7f547574656c6c7573436f6e74726f6c6c65723a204944206973206c6f636b6564600082015250565b7f416363657373436f6e74726f6c3a206163636f756e7420000000000000000000600082015250565b7f206973206d697373696e6720726f6c6520000000000000000000000000000000600082015250565b7f416363657373436f6e74726f6c3a2063616e206f6e6c792072656e6f756e636560008201527f20726f6c657320666f722073656c660000000000000000000000000000000000602082015250565b6115218161130a565b811461152c57600080fd5b50565b6115388161131c565b811461154357600080fd5b50565b61154f81611328565b811461155a57600080fd5b50565b61156681611332565b811461157157600080fd5b5056fea26469706673582212209d81195bd5493442077eec8ba4b093ed5d925974047c7deeb856a0cab069d59f64736f6c63430008020033608060405234801561001057600080fd5b50600060405161001f90610122565b604051809103906000f08015801561003b573d6000803e3d6000fd5b506040516100489061012f565b610052919061014b565b604051809103906000f08015801561006e573d6000803e3d6000fd5b509050806000806101000a81548173ffffffffffffffffffffffffffffffffffffffff021916908373ffffffffffffffffffffffffffffffffffffffff1602179055508073ffffffffffffffffffffffffffffffffffffffff1663f2fde38b336040518263ffffffff1660e01b81526004016100ea919061014b565b600060405180830381600087803b15801561010457600080fd5b505af1158015610118573d6000803e3d6000fd5b5050505050610198565b6125018061151a83390190565b610a7c80613a1b83390190565b61014581610166565b82525050565b6000602082019050610160600083018461013c565b92915050565b600061017182610178565b9050919050565b600073ffffffffffffffffffffffffffffffffffffffff82169050919050565b611373806101a76000396000f3fe60806040523480156200001157600080fd5b50600436106200003a5760003560e01c806359659e90146200003f5780638f295d591462000061575b600080fd5b6200004962000097565b60405162000058919062000248565b60405180910390f35b6200007f6004803603810190620000799190620001bb565b620000bb565b6040516200008e919062000248565b60405180910390f35b60008054906101000a900473ffffffffffffffffffffffffffffffffffffffff1681565b60008060008054906101000a900473ffffffffffffffffffffffffffffffffffffffff168484604051620000ef9062000160565b620000fd9392919062000265565b604051809103906000f0801580156200011a573d6000803e3d6000fd5b5090507ff75428c4a879bafcef090bae101820b87b23990371caa4148e79e116c59a9080816040516200014e919062000248565b60405180910390a18091505092915050565b61103d806200030183390190565b60008083601f8401126200018157600080fd5b8235905067ffffffffffffffff8111156200019b57600080fd5b602083019150836001820283011115620001b457600080fd5b9250929050565b60008060208385031215620001cf57600080fd5b600083013567ffffffffffffffff811115620001ea57600080fd5b620001f8858286016200016e565b92509250509250929050565b6200020f81620002ac565b82525050565b60006200022383856200029b565b935062000232838584620002e0565b6200023d83620002ef565b840190509392505050565b60006020820190506200025f600083018462000204565b92915050565b60006040820190506200027c600083018662000204565b81810360208301526200029181848662000215565b9050949350505050565b600082825260208201905092915050565b6000620002b982620002c0565b9050919050565b600073ffffffffffffffffffffffffffffffffffffffff82169050919050565b82818337600083830152505050565b6000601f19601f830116905091905056fe60806040526040516200103d3803806200103d8339818101604052810190620000299190620005e1565b60017fa3f0ad74e5423aebfd80d3ef4346578335a9a72aeaee59ff6cb3582b35133d5160001c6200005b91906200085c565b60001b7fa3f0ad74e5423aebfd80d3ef4346578335a9a72aeaee59ff6cb3582b35133d5060001b14620000b7577f4e487b7100000000000000000000000000000000000000000000000000000000600052600160045260246000fd5b620000cb82826000620000d360201b60201c565b505062000ab7565b620000e483620001da60201b60201c565b8273ffffffffffffffffffffffffffffffffffffffff167f1cf3b03a6cf19fa2baba4df148e9dcabedea7f8a5c07840e207e5c089be95d3e60405160405180910390a2600082511180620001355750805b15620001d557620001d38373ffffffffffffffffffffffffffffffffffffffff16635c60da1b6040518163ffffffff1660e01b815260040160206040518083038186803b1580156200018657600080fd5b505afa1580156200019b573d6000803e3d6000fd5b505050506040513d601f19601f82011682018060405250810190620001c19190620005b5565b836200038960201b620000371760201c565b505b505050565b620001f081620003bf60201b620000641760201c565b62000232576040517f08c379a0000000000000000000000000000000000000000000000000000000008152600401620002299062000765565b60405180910390fd5b620002c98173ffffffffffffffffffffffffffffffffffffffff16635c60da1b6040518163ffffffff1660e01b815260040160206040518083038186803b1580156200027d57600080fd5b505afa15801562000292573d6000803e3d6000fd5b505050506040513d601f19601f82011682018060405250810190620002b89190620005b5565b620003bf60201b620000641760201c565b6200030b576040517f08c379a00000000000000000000000000000000000000000000000000000000081526004016200030290620007a9565b60405180910390fd5b80620003457fa3f0ad74e5423aebfd80d3ef4346578335a9a72aeaee59ff6cb3582b35133d5060001b620003d260201b620000771760201c565b60000160006101000a81548173ffffffffffffffffffffffffffffffffffffffff021916908373ffffffffffffffffffffffffffffffffffffffff16021790555050565b6060620003b783836040518060600160405280602781526020016200101660279139620003dc60201b60201c565b905092915050565b600080823b905060008111915050919050565b6000819050919050565b6060620003ef84620003bf60201b60201c565b62000431576040517f08c379a0000000000000000000000000000000000000000000000000000000008152600401620004289062000787565b60405180910390fd5b6000808573ffffffffffffffffffffffffffffffffffffffff16856040516200045b919062000728565b600060405180830381855af49150503d806000811462000498576040519150601f19603f3d011682016040523d82523d6000602084013e6200049d565b606091505b5091509150620004b5828286620004c060201b60201c565b925050509392505050565b60608315620004d25782905062000525565b600083511115620004e65782518084602001fd5b816040517f08c379a00000000000000000000000000000000000000000000000000000000081526004016200051c919062000741565b60405180910390fd5b9392505050565b6000620005436200053d84620007f4565b620007cb565b9050828152602081018484840111156200055c57600080fd5b62000569848285620008d5565b509392505050565b600081519050620005828162000a9d565b92915050565b600082601f8301126200059a57600080fd5b8151620005ac8482602086016200052c565b91505092915050565b600060208284031215620005c857600080fd5b6000620005d88482850162000571565b91505092915050565b60008060408385031215620005f557600080fd5b6000620006058582860162000571565b925050602083015167ffffffffffffffff8111156200062357600080fd5b620006318582860162000588565b9150509250929050565b600062000648826200082a565b62000654818562000840565b935062000666818560208601620008d5565b80840191505092915050565b60006200067f8262000835565b6200068b81856200084b565b93506200069d818560208601620008d5565b620006a8816200099f565b840191505092915050565b6000620006c26025836200084b565b9150620006cf82620009b0565b604082019050919050565b6000620006e96026836200084b565b9150620006f682620009ff565b604082019050919050565b6000620007106030836200084b565b91506200071d8262000a4e565b604082019050919050565b60006200073682846200063b565b915081905092915050565b600060208201905081810360008301526200075d818462000672565b905092915050565b600060208201905081810360008301526200078081620006b3565b9050919050565b60006020820190508181036000830152620007a281620006da565b9050919050565b60006020820190508181036000830152620007c48162000701565b9050919050565b6000620007d7620007ea565b9050620007e582826200090b565b919050565b6000604051905090565b600067ffffffffffffffff82111562000812576200081162000970565b5b6200081d826200099f565b9050602081019050919050565b600081519050919050565b600081519050919050565b600081905092915050565b600082825260208201905092915050565b60006200086982620008cb565b91506200087683620008cb565b9250828210156200088c576200088b62000941565b5b828203905092915050565b6000620008a482620008ab565b9050919050565b600073ffffffffffffffffffffffffffffffffffffffff82169050919050565b6000819050919050565b60005b83811015620008f5578082015181840152602081019050620008d8565b8381111562000905576000848401525b50505050565b62000916826200099f565b810181811067ffffffffffffffff8211171562000938576200093762000970565b5b80604052505050565b7f4e487b7100000000000000000000000000000000000000000000000000000000600052601160045260246000fd5b7f4e487b7100000000000000000000000000000000000000000000000000000000600052604160045260246000fd5b6000601f19601f8301169050919050565b7f455243313936373a206e657720626561636f6e206973206e6f74206120636f6e60008201527f7472616374000000000000000000000000000000000000000000000000000000602082015250565b7f416464726573733a2064656c65676174652063616c6c20746f206e6f6e2d636f60008201527f6e74726163740000000000000000000000000000000000000000000000000000602082015250565b7f455243313936373a20626561636f6e20696d706c656d656e746174696f6e206960008201527f73206e6f74206120636f6e747261637400000000000000000000000000000000602082015250565b62000aa88162000897565b811462000ab457600080fd5b50565b61054f8062000ac76000396000f3fe6080604052366100135761001161001d565b005b61001b61001d565b005b610025610081565b610035610030610083565b61010f565b565b606061005c83836040518060600160405280602781526020016104f360279139610135565b905092915050565b600080823b905060008111915050919050565b6000819050919050565b565b600061008d610202565b73ffffffffffffffffffffffffffffffffffffffff16635c60da1b6040518163ffffffff1660e01b815260040160206040518083038186803b1580156100d257600080fd5b505afa1580156100e6573d6000803e3d6000fd5b505050506040513d601f19601f8201168201806040525081019061010a91906102d5565b905090565b3660008037600080366000845af43d6000803e8060008114610130573d6000f35b3d6000fd5b606061014084610064565b61017f576040517f08c379a0000000000000000000000000000000000000000000000000000000008152600401610176906103c4565b60405180910390fd5b6000808573ffffffffffffffffffffffffffffffffffffffff16856040516101a7919061038b565b600060405180830381855af49150503d80600081146101e2576040519150601f19603f3d011682016040523d82523d6000602084013e6101e7565b606091505b50915091506101f7828286610259565b925050509392505050565b60006102307fa3f0ad74e5423aebfd80d3ef4346578335a9a72aeaee59ff6cb3582b35133d5060001b610077565b60000160009054906101000a900473ffffffffffffffffffffffffffffffffffffffff16905090565b60608315610269578290506102b9565b60008351111561027c5782518084602001fd5b816040517f08c379a00000000000000000000000000000000000000000000000000000000081526004016102b091906103a2565b60405180910390fd5b9392505050565b6000815190506102cf816104db565b92915050565b6000602082840312156102e757600080fd5b60006102f5848285016102c0565b91505092915050565b6000610309826103e4565b61031381856103fa565b9350610323818560208601610448565b80840191505092915050565b600061033a826103ef565b6103448185610405565b9350610354818560208601610448565b61035d8161047b565b840191505092915050565b6000610375602683610405565b91506103808261048c565b604082019050919050565b600061039782846102fe565b915081905092915050565b600060208201905081810360008301526103bc818461032f565b905092915050565b600060208201905081810360008301526103dd81610368565b9050919050565b600081519050919050565b600081519050919050565b600081905092915050565b600082825260208201905092915050565b600061042182610428565b9050919050565b600073ffffffffffffffffffffffffffffffffffffffff82169050919050565b60005b8381101561046657808201518184015260208101905061044b565b83811115610475576000848401525b50505050565b6000601f19601f8301169050919050565b7f416464726573733a2064656c65676174652063616c6c20746f206e6f6e2d636f60008201527f6e74726163740000000000000000000000000000000000000000000000000000602082015250565b6104e481610416565b81146104ef57600080fd5b5056fe416464726573733a206c6f772d6c6576656c2064656c65676174652063616c6c206661696c6564a26469706673582212200502a5de0b8bd9cf869699b5c052b00af91163358a156b28a8260bd0d10e7fab64736f6c63430008020033416464726573733a206c6f772d6c6576656c2064656c65676174652063616c6c206661696c6564a26469706673582212200a28e69ee228fc8544cdf174e1a0a0f658ce7a6a6ca527938df53d32add3416d64736f6c63430008020033608060405234801561001057600080fd5b506124e1806100206000396000f3fe6080604052600436106100f75760003560e01c806391d148541161008a578063d547741f11610059578063d547741f1461036a578063dc22486314610393578063e58378bb146103be578063f77c4791146103e9576100fe565b806391d148541461029c578063a217fddf146102d9578063a756bb2614610304578063c0c53b8b14610341576100fe565b80632f2ff15d116100c65780632f2ff15d146101e257806336568abe1461020b5780634c4cecfb1461023457806354fd4d5014610271576100fe565b806301ffc9a714610100578063150b7a021461013d57806323acd14e1461017a578063248a9ca3146101a5576100fe565b366100fe57005b005b34801561010c57600080fd5b5061012760048036038101906101229190611b6a565b610414565b6040516101349190611e40565b60405180910390f35b34801561014957600080fd5b50610164600480360381019061015f91906119e6565b61048e565b6040516101719190611e76565b60405180910390f35b34801561018657600080fd5b5061018f6104a2565b60405161019c9190611e40565b60405180910390f35b3480156101b157600080fd5b506101cc60048036038101906101c79190611b05565b6104b5565b6040516101d99190611e5b565b60405180910390f35b3480156101ee57600080fd5b5061020960048036038101906102049190611b2e565b6104d5565b005b34801561021757600080fd5b50610232600480360381019061022d9190611b2e565b6104fe565b005b34801561024057600080fd5b5061025b6004803603810190610256919061196e565b610581565b6040516102689190611e40565b60405180910390f35b34801561027d57600080fd5b50610286610653565b6040516102939190611f21565b60405180910390f35b3480156102a857600080fd5b506102c360048036038101906102be9190611b2e565b610690565b6040516102d09190611e40565b60405180910390f35b3480156102e557600080fd5b506102ee6106fb565b6040516102fb9190611e5b565b60405180910390f35b34801561031057600080fd5b5061032b60048036038101906103269190611a61565b610702565b6040516103389190611e91565b60405180910390f35b34801561034d57600080fd5b5061036860048036038101906103639190611997565b610774565b005b34801561037657600080fd5b50610391600480360381019061038c9190611b2e565b61086b565b005b34801561039f57600080fd5b506103a8610894565b6040516103b59190611e5b565b60405180910390f35b3480156103ca57600080fd5b506103d36108b8565b6040516103e09190611e5b565b60405180910390f35b3480156103f557600080fd5b506103fe6108dc565b60405161040b9190611f06565b60405180910390f35b60007f7965db0b000000000000000000000000000000000000000000000000000000007bffffffffffffffffffffffffffffffffffffffffffffffffffffffff1916827bffffffffffffffffffffffffffffffffffffffffffffffffffffffff19161480610487575061048682610902565b5b9050919050565b600063150b7a0260e01b9050949350505050565b60c960149054906101000a900460ff1681565b600060656000838152602001908152602001600020600101549050919050565b6104de826104b5565b6104ef816104ea61096c565b610974565b6104f98383610a11565b505050565b61050661096c565b73ffffffffffffffffffffffffffffffffffffffff168173ffffffffffffffffffffffffffffffffffffffff1614610573576040517f08c379a000000000000000000000000000000000000000000000000000000000815260040161056a90611fa3565b60405180910390fd5b61057d8282610af2565b5050565b600060c960149054906101000a900460ff166105a0576001905061064e565b60c960009054906101000a900473ffffffffffffffffffffffffffffffffffffffff1673ffffffffffffffffffffffffffffffffffffffff1663b9209e33836040518263ffffffff1660e01b81526004016105fb9190611e25565b60206040518083038186803b15801561061357600080fd5b505afa158015610627573d6000803e3d6000fd5b505050506040513d601f19601f8201168201806040525081019061064b9190611adc565b90505b919050565b60606040518060400160405280600581526020017f302e302e31000000000000000000000000000000000000000000000000000000815250905090565b60006065600084815260200190815260200160002060000160008373ffffffffffffffffffffffffffffffffffffffff1673ffffffffffffffffffffffffffffffffffffffff16815260200190815260200160002060009054906101000a900460ff16905092915050565b6000801b81565b6060600061071286868686610bd4565b90508573ffffffffffffffffffffffffffffffffffffffff167fab86e76c1a7aa07694b6e4b3300244a24681243acac04b29df33642bab795499868686856040516107609493929190611eb3565b60405180910390a280915050949350505050565b600060019054906101000a900460ff168061079a575060008054906101000a900460ff16155b6107d9576040517f08c379a00000000000000000000000000000000000000000000000000000000081526004016107d090611f83565b60405180910390fd5b60008060019054906101000a900460ff161590508015610829576001600060016101000a81548160ff02191690831515021790555060016000806101000a81548160ff0219169083151502179055505b610831610d01565b610839610df2565b610844848484610ed3565b80156108655760008060016101000a81548160ff0219169083151502179055505b50505050565b610874826104b5565b6108858161088061096c565b610974565b61088f8383610af2565b505050565b7f8b8c0776df2c2176edf6f82391c35ea4891146d7a976ee36fd07f1a6fb4ead4c81565b7fb19546dff01e856fb3f010c267a7b1c60363cf8a4664e21cc89c26224620214e81565b60c960009054906101000a900473ffffffffffffffffffffffffffffffffffffffff1681565b60007f01ffc9a7000000000000000000000000000000000000000000000000000000007bffffffffffffffffffffffffffffffffffffffffffffffffffffffff1916827bffffffffffffffffffffffffffffffffffffffffffffffffffffffff1916149050919050565b600033905090565b61097e8282610690565b610a0d576109a38173ffffffffffffffffffffffffffffffffffffffff166014611043565b6109b18360001c6020611043565b6040516020016109c2929190611deb565b6040516020818303038152906040526040517f08c379a0000000000000000000000000000000000000000000000000000000008152600401610a049190611f21565b60405180910390fd5b5050565b610a1b8282610690565b610aee5760016065600084815260200190815260200160002060000160008373ffffffffffffffffffffffffffffffffffffffff1673ffffffffffffffffffffffffffffffffffffffff16815260200190815260200160002060006101000a81548160ff021916908315150217905550610a9361096c565b73ffffffffffffffffffffffffffffffffffffffff168173ffffffffffffffffffffffffffffffffffffffff16837f2f8788117e7eff1d82e926ec794901d17c78024a50270940304540a733656f0d60405160405180910390a45b5050565b610afc8282610690565b15610bd05760006065600084815260200190815260200160002060000160008373ffffffffffffffffffffffffffffffffffffffff1673ffffffffffffffffffffffffffffffffffffffff16815260200190815260200160002060006101000a81548160ff021916908315150217905550610b7561096c565b73ffffffffffffffffffffffffffffffffffffffff168173ffffffffffffffffffffffffffffffffffffffff16837ff6391f5c32d9c69d2a47ea670b442974b53935d1edc7fd64eb21e047a839171b60405160405180910390a45b5050565b606084610bdf61096c565b610be882610581565b610c27576040517f08c379a0000000000000000000000000000000000000000000000000000000008152600401610c1e90611f63565b60405180910390fd5b6000808873ffffffffffffffffffffffffffffffffffffffff168787908a604051610c529190611dd4565b600060405180830381858888f193505050503d8060008114610c90576040519150601f19603f3d011682016040523d82523d6000602084013e610c95565b606091505b509150915081610cf2576000610caa8261133d565b9050828190610cef576040517f08c379a0000000000000000000000000000000000000000000000000000000008152600401610ce69190611f21565b60405180910390fd5b50505b80945050505050949350505050565b600060019054906101000a900460ff1680610d27575060008054906101000a900460ff16155b610d66576040517f08c379a0000000000000000000000000000000000000000000000000000000008152600401610d5d90611f83565b60405180910390fd5b60008060019054906101000a900460ff161590508015610db6576001600060016101000a81548160ff02191690831515021790555060016000806101000a81548160ff0219169083151502179055505b610dbe6113a8565b610dc6611481565b610dce61155a565b8015610def5760008060016101000a81548160ff0219169083151502179055505b50565b600060019054906101000a900460ff1680610e18575060008054906101000a900460ff16155b610e57576040517f08c379a0000000000000000000000000000000000000000000000000000000008152600401610e4e90611f83565b60405180910390fd5b60008060019054906101000a900460ff161590508015610ea7576001600060016101000a81548160ff02191690831515021790555060016000806101000a81548160ff0219169083151502179055505b610eaf611633565b8015610ed05760008060016101000a81548160ff0219169083151502179055505b50565b600060019054906101000a900460ff1680610ef9575060008054906101000a900460ff16155b610f38576040517f08c379a0000000000000000000000000000000000000000000000000000000008152600401610f2f90611f83565b60405180910390fd5b60008060019054906101000a900460ff161590508015610f88576001600060016101000a81548160ff02191690831515021790555060016000806101000a81548160ff0219169083151502179055505b610f956000801b8361170c565b610fbf7fb19546dff01e856fb3f010c267a7b1c60363cf8a4664e21cc89c26224620214e8461170c565b610fe97fb19546dff01e856fb3f010c267a7b1c60363cf8a4664e21cc89c26224620214e8361170c565b6110137f8b8c0776df2c2176edf6f82391c35ea4891146d7a976ee36fd07f1a6fb4ead4c8361170c565b61101c8461171a565b801561103d5760008060016101000a81548160ff0219169083151502179055505b50505050565b60606000600283600261105691906120ee565b6110609190612098565b67ffffffffffffffff81111561109f577f4e487b7100000000000000000000000000000000000000000000000000000000600052604160045260246000fd5b6040519080825280601f01601f1916602001820160405280156110d15781602001600182028036833780820191505090505b5090507f30000000000000000000000000000000000000000000000000000000000000008160008151811061112f577f4e487b7100000000000000000000000000000000000000000000000000000000600052603260045260246000fd5b60200101907effffffffffffffffffffffffffffffffffffffffffffffffffffffffffffff1916908160001a9053507f7800000000000000000000000000000000000000000000000000000000000000816001815181106111b9577f4e487b7100000000000000000000000000000000000000000000000000000000600052603260045260246000fd5b60200101907effffffffffffffffffffffffffffffffffffffffffffffffffffffffffffff1916908160001a905350600060018460026111f991906120ee565b6112039190612098565b90505b60018111156112ef577f3031323334353637383961626364656600000000000000000000000000000000600f86166010811061126b577f4e487b7100000000000000000000000000000000000000000000000000000000600052603260045260246000fd5b1a60f81b8282815181106112a8577f4e487b7100000000000000000000000000000000000000000000000000000000600052603260045260246000fd5b60200101907effffffffffffffffffffffffffffffffffffffffffffffffffffffffffffff1916908160001a905350600485901c9450806112e89061222c565b9050611206565b5060008414611333576040517f08c379a000000000000000000000000000000000000000000000000000000000815260040161132a90611f43565b60405180910390fd5b8091505092915050565b6060604482511015611386576040518060400160405280601d81526020017f5472616e73616374696f6e2072657665727465642073696c656e746c7900000081525090506113a3565b600482019150818060200190518101906113a09190611b93565b90505b919050565b600060019054906101000a900460ff16806113ce575060008054906101000a900460ff16155b61140d576040517f08c379a000000000000000000000000000000000000000000000000000000000815260040161140490611f83565b60405180910390fd5b60008060019054906101000a900460ff16159050801561145d576001600060016101000a81548160ff02191690831515021790555060016000806101000a81548160ff0219169083151502179055505b801561147e5760008060016101000a81548160ff0219169083151502179055505b50565b600060019054906101000a900460ff16806114a7575060008054906101000a900460ff16155b6114e6576040517f08c379a00000000000000000000000000000000000000000000000000000000081526004016114dd90611f83565b60405180910390fd5b60008060019054906101000a900460ff161590508015611536576001600060016101000a81548160ff02191690831515021790555060016000806101000a81548160ff0219169083151502179055505b80156115575760008060016101000a81548160ff0219169083151502179055505b50565b600060019054906101000a900460ff1680611580575060008054906101000a900460ff16155b6115bf576040517f08c379a00000000000000000000000000000000000000000000000000000000081526004016115b690611f83565b60405180910390fd5b60008060019054906101000a900460ff16159050801561160f576001600060016101000a81548160ff02191690831515021790555060016000806101000a81548160ff0219169083151502179055505b80156116305760008060016101000a81548160ff0219169083151502179055505b50565b600060019054906101000a900460ff1680611659575060008054906101000a900460ff16155b611698576040517f08c379a000000000000000000000000000000000000000000000000000000000815260040161168f90611f83565b60405180910390fd5b60008060019054906101000a900460ff1615905080156116e8576001600060016101000a81548160ff02191690831515021790555060016000806101000a81548160ff0219169083151502179055505b80156117095760008060016101000a81548160ff0219169083151502179055505b50565b6117168282610a11565b5050565b600060019054906101000a900460ff1680611740575060008054906101000a900460ff16155b61177f576040517f08c379a000000000000000000000000000000000000000000000000000000000815260040161177690611f83565b60405180910390fd5b60008060019054906101000a900460ff1615905080156117cf576001600060016101000a81548160ff02191690831515021790555060016000806101000a81548160ff0219169083151502179055505b8160c960006101000a81548173ffffffffffffffffffffffffffffffffffffffff021916908373ffffffffffffffffffffffffffffffffffffffff16021790555080156118315760008060016101000a81548160ff0219169083151502179055505b5050565b600061184861184384611fe8565b611fc3565b90508281526020810184848401111561186057600080fd5b61186b8482856121ea565b509392505050565b600061188661188184612019565b611fc3565b90508281526020810184848401111561189e57600080fd5b6118a98482856121f9565b509392505050565b6000813590506118c081612438565b92915050565b6000815190506118d58161244f565b92915050565b6000813590506118ea81612466565b92915050565b6000813590506118ff8161247d565b92915050565b600082601f83011261191657600080fd5b8135611926848260208601611835565b91505092915050565b600082601f83011261194057600080fd5b8151611950848260208601611873565b91505092915050565b60008135905061196881612494565b92915050565b60006020828403121561198057600080fd5b600061198e848285016118b1565b91505092915050565b6000806000606084860312156119ac57600080fd5b60006119ba868287016118b1565b93505060206119cb868287016118b1565b92505060406119dc868287016118b1565b9150509250925092565b600080600080608085870312156119fc57600080fd5b6000611a0a878288016118b1565b9450506020611a1b878288016118b1565b9350506040611a2c87828801611959565b925050606085013567ffffffffffffffff811115611a4957600080fd5b611a5587828801611905565b91505092959194509250565b60008060008060808587031215611a7757600080fd5b6000611a85878288016118b1565b945050602085013567ffffffffffffffff811115611aa257600080fd5b611aae87828801611905565b9350506040611abf87828801611959565b9250506060611ad087828801611959565b91505092959194509250565b600060208284031215611aee57600080fd5b6000611afc848285016118c6565b91505092915050565b600060208284031215611b1757600080fd5b6000611b25848285016118db565b91505092915050565b60008060408385031215611b4157600080fd5b6000611b4f858286016118db565b9250506020611b60858286016118b1565b9150509250929050565b600060208284031215611b7c57600080fd5b6000611b8a848285016118f0565b91505092915050565b600060208284031215611ba557600080fd5b600082015167ffffffffffffffff811115611bbf57600080fd5b611bcb8482850161192f565b91505092915050565b611bdd81612148565b82525050565b611bec8161215a565b82525050565b611bfb81612166565b82525050565b611c0a81612170565b82525050565b6000611c1b8261204a565b611c258185612060565b9350611c358185602086016121f9565b611c3e816122e5565b840191505092915050565b6000611c548261204a565b611c5e8185612071565b9350611c6e8185602086016121f9565b80840191505092915050565b611c83816121c6565b82525050565b6000611c9482612055565b611c9e818561207c565b9350611cae8185602086016121f9565b611cb7816122e5565b840191505092915050565b6000611ccd82612055565b611cd7818561208d565b9350611ce78185602086016121f9565b80840191505092915050565b6000611d0060208361207c565b9150611d0b826122f6565b602082019050919050565b6000611d23601e8361207c565b9150611d2e8261231f565b602082019050919050565b6000611d46602e8361207c565b9150611d5182612348565b604082019050919050565b6000611d6960178361208d565b9150611d7482612397565b601782019050919050565b6000611d8c60118361208d565b9150611d97826123c0565b601182019050919050565b6000611daf602f8361207c565b9150611dba826123e9565b604082019050919050565b611dce816121bc565b82525050565b6000611de08284611c49565b915081905092915050565b6000611df682611d5c565b9150611e028285611cc2565b9150611e0d82611d7f565b9150611e198284611cc2565b91508190509392505050565b6000602082019050611e3a6000830184611bd4565b92915050565b6000602082019050611e556000830184611be3565b92915050565b6000602082019050611e706000830184611bf2565b92915050565b6000602082019050611e8b6000830184611c01565b92915050565b60006020820190508181036000830152611eab8184611c10565b905092915050565b60006080820190508181036000830152611ecd8187611c10565b9050611edc6020830186611dc5565b611ee96040830185611dc5565b8181036060830152611efb8184611c10565b905095945050505050565b6000602082019050611f1b6000830184611c7a565b92915050565b60006020820190508181036000830152611f3b8184611c89565b905092915050565b60006020820190508181036000830152611f5c81611cf3565b9050919050565b60006020820190508181036000830152611f7c81611d16565b9050919050565b60006020820190508181036000830152611f9c81611d39565b9050919050565b60006020820190508181036000830152611fbc81611da2565b9050919050565b6000611fcd611fde565b9050611fd98282612256565b919050565b6000604051905090565b600067ffffffffffffffff821115612003576120026122b6565b5b61200c826122e5565b9050602081019050919050565b600067ffffffffffffffff821115612034576120336122b6565b5b61203d826122e5565b9050602081019050919050565b600081519050919050565b600081519050919050565b600082825260208201905092915050565b600081905092915050565b600082825260208201905092915050565b600081905092915050565b60006120a3826121bc565b91506120ae836121bc565b9250827fffffffffffffffffffffffffffffffffffffffffffffffffffffffffffffffff038211156120e3576120e2612287565b5b828201905092915050565b60006120f9826121bc565b9150612104836121bc565b9250817fffffffffffffffffffffffffffffffffffffffffffffffffffffffffffffffff048311821515161561213d5761213c612287565b5b828202905092915050565b60006121538261219c565b9050919050565b60008115159050919050565b6000819050919050565b60007fffffffff0000000000000000000000000000000000000000000000000000000082169050919050565b600073ffffffffffffffffffffffffffffffffffffffff82169050919050565b6000819050919050565b60006121d1826121d8565b9050919050565b60006121e38261219c565b9050919050565b82818337600083830152505050565b60005b838110156122175780820151818401526020810190506121fc565b83811115612226576000848401525b50505050565b6000612237826121bc565b9150600082141561224b5761224a612287565b5b600182039050919050565b61225f826122e5565b810181811067ffffffffffffffff8211171561227e5761227d6122b6565b5b80604052505050565b7f4e487b7100000000000000000000000000000000000000000000000000000000600052601160045260246000fd5b7f4e487b7100000000000000000000000000000000000000000000000000000000600052604160045260246000fd5b6000601f19601f8301169050919050565b7f537472696e67733a20686578206c656e67746820696e73756666696369656e74600082015250565b7f547574656c6c75734449443a20766572696669636174696f6e436865636b0000600082015250565b7f496e697469616c697a61626c653a20636f6e747261637420697320616c72656160008201527f647920696e697469616c697a6564000000000000000000000000000000000000602082015250565b7f416363657373436f6e74726f6c3a206163636f756e7420000000000000000000600082015250565b7f206973206d697373696e6720726f6c6520000000000000000000000000000000600082015250565b7f416363657373436f6e74726f6c3a2063616e206f6e6c792072656e6f756e636560008201527f20726f6c657320666f722073656c660000000000000000000000000000000000602082015250565b61244181612148565b811461244c57600080fd5b50565b6124588161215a565b811461246357600080fd5b50565b61246f81612166565b811461247a57600080fd5b50565b61248681612170565b811461249157600080fd5b50565b61249d816121bc565b81146124a857600080fd5b5056fea26469706673582212208ce923896db3000c4a6b3c4a6fc43086013d335b1e8dbc97a16f146a134f55c364736f6c63430008020033608060405234801561001057600080fd5b50604051610a7c380380610a7c833981810160405281019061003291906101ed565b61004e61004361006360201b60201c565b61006b60201b60201c565b61005d8161012f60201b60201c565b50610302565b600033905090565b60008060009054906101000a900473ffffffffffffffffffffffffffffffffffffffff169050816000806101000a81548173ffffffffffffffffffffffffffffffffffffffff021916908373ffffffffffffffffffffffffffffffffffffffff1602179055508173ffffffffffffffffffffffffffffffffffffffff168173ffffffffffffffffffffffffffffffffffffffff167f8be0079c531659141344cd1fd0a4f28419497f9722a3daafe3b4186f6b6457e060405160405180910390a35050565b610142816101c560201b6103781760201c565b610181576040517f08c379a000000000000000000000000000000000000000000000000000000000815260040161017890610239565b60405180910390fd5b80600160006101000a81548173ffffffffffffffffffffffffffffffffffffffff021916908373ffffffffffffffffffffffffffffffffffffffff16021790555050565b600080823b905060008111915050919050565b6000815190506101e7816102eb565b92915050565b6000602082840312156101ff57600080fd5b600061020d848285016101d8565b91505092915050565b6000610223603383610259565b915061022e8261029c565b604082019050919050565b6000602082019050818103600083015261025281610216565b9050919050565b600082825260208201905092915050565b60006102758261027c565b9050919050565b600073ffffffffffffffffffffffffffffffffffffffff82169050919050565b7f5570677261646561626c65426561636f6e3a20696d706c656d656e746174696f60008201527f6e206973206e6f74206120636f6e747261637400000000000000000000000000602082015250565b6102f48161026a565b81146102ff57600080fd5b50565b61076b806103116000396000f3fe608060405234801561001057600080fd5b50600436106100575760003560e01c80633659cfe61461005c5780635c60da1b14610078578063715018a6146100965780638da5cb5b146100a0578063f2fde38b146100be575b600080fd5b610076600480360381019061007191906104f8565b6100da565b005b6100806101a5565b60405161008d9190610599565b60405180910390f35b61009e6101cf565b005b6100a8610257565b6040516100b59190610599565b60405180910390f35b6100d860048036038101906100d391906104f8565b610280565b005b6100e261038b565b73ffffffffffffffffffffffffffffffffffffffff16610100610257565b73ffffffffffffffffffffffffffffffffffffffff1614610156576040517f08c379a000000000000000000000000000000000000000000000000000000000815260040161014d906105f4565b60405180910390fd5b61015f81610393565b8073ffffffffffffffffffffffffffffffffffffffff167fbc7cd75a20ee27fd9adebab32041f755214dbc6bffa90cc0225b39da2e5c2d3b60405160405180910390a250565b6000600160009054906101000a900473ffffffffffffffffffffffffffffffffffffffff16905090565b6101d761038b565b73ffffffffffffffffffffffffffffffffffffffff166101f5610257565b73ffffffffffffffffffffffffffffffffffffffff161461024b576040517f08c379a0000000000000000000000000000000000000000000000000000000008152600401610242906105f4565b60405180910390fd5b610255600061041f565b565b60008060009054906101000a900473ffffffffffffffffffffffffffffffffffffffff16905090565b61028861038b565b73ffffffffffffffffffffffffffffffffffffffff166102a6610257565b73ffffffffffffffffffffffffffffffffffffffff16146102fc576040517f08c379a00000000000000000000000000000000000000000000000000000000081526004016102f3906105f4565b60405180910390fd5b600073ffffffffffffffffffffffffffffffffffffffff168173ffffffffffffffffffffffffffffffffffffffff16141561036c576040517f08c379a0000000000000000000000000000000000000000000000000000000008152600401610363906105b4565b60405180910390fd5b6103758161041f565b50565b600080823b905060008111915050919050565b600033905090565b61039c81610378565b6103db576040517f08c379a00000000000000000000000000000000000000000000000000000000081526004016103d2906105d4565b60405180910390fd5b80600160006101000a81548173ffffffffffffffffffffffffffffffffffffffff021916908373ffffffffffffffffffffffffffffffffffffffff16021790555050565b60008060009054906101000a900473ffffffffffffffffffffffffffffffffffffffff169050816000806101000a81548173ffffffffffffffffffffffffffffffffffffffff021916908373ffffffffffffffffffffffffffffffffffffffff1602179055508173ffffffffffffffffffffffffffffffffffffffff168173ffffffffffffffffffffffffffffffffffffffff167f8be0079c531659141344cd1fd0a4f28419497f9722a3daafe3b4186f6b6457e060405160405180910390a35050565b6000813590506104f28161071e565b92915050565b60006020828403121561050a57600080fd5b6000610518848285016104e3565b91505092915050565b61052a81610625565b82525050565b600061053d602683610614565b915061054882610657565b604082019050919050565b6000610560603383610614565b915061056b826106a6565b604082019050919050565b6000610583602083610614565b915061058e826106f5565b602082019050919050565b60006020820190506105ae6000830184610521565b92915050565b600060208201905081810360008301526105cd81610530565b9050919050565b600060208201905081810360008301526105ed81610553565b9050919050565b6000602082019050818103600083015261060d81610576565b9050919050565b600082825260208201905092915050565b600061063082610637565b9050919050565b600073ffffffffffffffffffffffffffffffffffffffff82169050919050565b7f4f776e61626c653a206e6577206f776e657220697320746865207a65726f206160008201527f6464726573730000000000000000000000000000000000000000000000000000602082015250565b7f5570677261646561626c65426561636f6e3a20696d706c656d656e746174696f60008201527f6e206973206e6f74206120636f6e747261637400000000000000000000000000602082015250565b7f4f776e61626c653a2063616c6c6572206973206e6f7420746865206f776e6572600082015250565b61072781610625565b811461073257600080fd5b5056fea2646970667358221220ae3e55fc7ed873fc18de2c239520d53b0daa6ed59a785aaf0f87be5b0da3530d64736f6c63430008020033",
  "linkReferences": {},
  "deployedLinkReferences": {}
}